{
  "contractName": "InnToken",
  "sourceName": "src/contracts/test/ERC20.sol",
  "abi": [
    {
      "inputs": [
        {
          "internalType": "address",
          "name": "RESERVE",
          "type": "address"
        },
        {
          "internalType": "address",
          "name": "COMMISSION",
          "type": "address"
        }
      ],
      "stateMutability": "nonpayable",
      "type": "constructor"
    },
    {
      "anonymous": false,
      "inputs": [
        {
          "indexed": true,
          "internalType": "address",
          "name": "owner",
          "type": "address"
        },
        {
          "indexed": true,
          "internalType": "address",
          "name": "spender",
          "type": "address"
        },
        {
          "indexed": false,
          "internalType": "uint256",
          "name": "value",
          "type": "uint256"
        }
      ],
      "name": "Approval",
      "type": "event"
    },
    {
      "anonymous": false,
      "inputs": [
        {
          "indexed": true,
          "internalType": "address",
          "name": "target",
          "type": "address"
        },
        {
          "indexed": false,
          "internalType": "bool",
          "name": "frozen",
          "type": "bool"
        }
      ],
      "name": "FrozenFunds",
      "type": "event"
    },
    {
      "anonymous": false,
      "inputs": [
        {
          "indexed": true,
          "internalType": "bytes32",
          "name": "role",
          "type": "bytes32"
        },
        {
          "indexed": true,
          "internalType": "bytes32",
          "name": "previousAdminRole",
          "type": "bytes32"
        },
        {
          "indexed": true,
          "internalType": "bytes32",
          "name": "newAdminRole",
          "type": "bytes32"
        }
      ],
      "name": "RoleAdminChanged",
      "type": "event"
    },
    {
      "anonymous": false,
      "inputs": [
        {
          "indexed": true,
          "internalType": "bytes32",
          "name": "role",
          "type": "bytes32"
        },
        {
          "indexed": true,
          "internalType": "address",
          "name": "account",
          "type": "address"
        },
        {
          "indexed": true,
          "internalType": "address",
          "name": "sender",
          "type": "address"
        }
      ],
      "name": "RoleGranted",
      "type": "event"
    },
    {
      "anonymous": false,
      "inputs": [
        {
          "indexed": true,
          "internalType": "bytes32",
          "name": "role",
          "type": "bytes32"
        },
        {
          "indexed": true,
          "internalType": "address",
          "name": "account",
          "type": "address"
        },
        {
          "indexed": true,
          "internalType": "address",
          "name": "sender",
          "type": "address"
        }
      ],
      "name": "RoleRevoked",
      "type": "event"
    },
    {
      "anonymous": false,
      "inputs": [
        {
          "indexed": true,
          "internalType": "address",
          "name": "from",
          "type": "address"
        },
        {
          "indexed": true,
          "internalType": "address",
          "name": "to",
          "type": "address"
        },
        {
          "indexed": false,
          "internalType": "uint256",
          "name": "value",
          "type": "uint256"
        }
      ],
      "name": "Transfer",
      "type": "event"
    },
    {
      "inputs": [],
      "name": "COMMISSION_WALLET_ADDRESS",
      "outputs": [
        {
          "internalType": "address",
          "name": "",
          "type": "address"
        }
      ],
      "stateMutability": "view",
      "type": "function"
    },
    {
      "inputs": [],
      "name": "CONSENSUS_ROLE",
      "outputs": [
        {
          "internalType": "bytes32",
          "name": "",
          "type": "bytes32"
        }
      ],
      "stateMutability": "view",
      "type": "function"
    },
    {
      "inputs": [],
      "name": "DEFAULT_ADMIN_ROLE",
      "outputs": [
        {
          "internalType": "bytes32",
          "name": "",
          "type": "bytes32"
        }
      ],
      "stateMutability": "view",
      "type": "function"
    },
    {
      "inputs": [],
      "name": "RESERVES_WALLET_ADDRESS",
      "outputs": [
        {
          "internalType": "address",
          "name": "",
          "type": "address"
        }
      ],
      "stateMutability": "view",
      "type": "function"
    },
    {
      "inputs": [
        {
          "internalType": "address",
          "name": "owner",
          "type": "address"
        },
        {
          "internalType": "address",
          "name": "spender",
          "type": "address"
        }
      ],
      "name": "allowance",
      "outputs": [
        {
          "internalType": "uint256",
          "name": "",
          "type": "uint256"
        }
      ],
      "stateMutability": "view",
      "type": "function"
    },
    {
      "inputs": [
        {
          "internalType": "address",
          "name": "spender",
          "type": "address"
        },
        {
          "internalType": "uint256",
          "name": "amount",
          "type": "uint256"
        }
      ],
      "name": "approve",
      "outputs": [
        {
          "internalType": "bool",
          "name": "",
          "type": "bool"
        }
      ],
      "stateMutability": "nonpayable",
      "type": "function"
    },
    {
      "inputs": [
        {
          "internalType": "address",
          "name": "account",
          "type": "address"
        }
      ],
      "name": "balanceOf",
      "outputs": [
        {
          "internalType": "uint256",
          "name": "",
          "type": "uint256"
        }
      ],
      "stateMutability": "view",
      "type": "function"
    },
    {
      "inputs": [
        {
          "internalType": "uint256",
          "name": "amount",
          "type": "uint256"
        }
      ],
      "name": "burn",
      "outputs": [],
      "stateMutability": "nonpayable",
      "type": "function"
    },
    {
      "inputs": [
        {
          "internalType": "address",
          "name": "account",
          "type": "address"
        },
        {
          "internalType": "uint256",
          "name": "amount",
          "type": "uint256"
        }
      ],
      "name": "burnFrom",
      "outputs": [],
      "stateMutability": "nonpayable",
      "type": "function"
    },
    {
      "inputs": [],
      "name": "decimals",
      "outputs": [
        {
          "internalType": "uint8",
          "name": "",
          "type": "uint8"
        }
      ],
      "stateMutability": "pure",
      "type": "function"
    },
    {
      "inputs": [
        {
          "internalType": "address",
          "name": "spender",
          "type": "address"
        },
        {
          "internalType": "uint256",
          "name": "subtractedValue",
          "type": "uint256"
        }
      ],
      "name": "decreaseAllowance",
      "outputs": [
        {
          "internalType": "bool",
          "name": "",
          "type": "bool"
        }
      ],
      "stateMutability": "nonpayable",
      "type": "function"
    },
    {
      "inputs": [],
      "name": "destroy",
      "outputs": [],
      "stateMutability": "nonpayable",
      "type": "function"
    },
    {
      "inputs": [
        {
          "internalType": "address",
          "name": "_recipient",
          "type": "address"
        }
      ],
      "name": "destroyAndSend",
      "outputs": [],
      "stateMutability": "nonpayable",
      "type": "function"
    },
    {
      "inputs": [
        {
          "internalType": "address",
          "name": "target",
          "type": "address"
        }
      ],
      "name": "freezeAccount",
      "outputs": [],
      "stateMutability": "nonpayable",
      "type": "function"
    },
    {
      "inputs": [
        {
          "internalType": "address",
          "name": "target",
          "type": "address"
        }
      ],
      "name": "freezeOf",
      "outputs": [
        {
          "internalType": "bool",
          "name": "",
          "type": "bool"
        }
      ],
      "stateMutability": "view",
      "type": "function"
    },
    {
      "inputs": [
        {
          "internalType": "bytes32",
          "name": "role",
          "type": "bytes32"
        }
      ],
      "name": "getRoleAdmin",
      "outputs": [
        {
          "internalType": "bytes32",
          "name": "",
          "type": "bytes32"
        }
      ],
      "stateMutability": "view",
      "type": "function"
    },
    {
      "inputs": [
        {
          "internalType": "bytes32",
          "name": "role",
          "type": "bytes32"
        },
        {
          "internalType": "address",
          "name": "account",
          "type": "address"
        }
      ],
      "name": "grantRole",
      "outputs": [],
      "stateMutability": "nonpayable",
      "type": "function"
    },
    {
      "inputs": [
        {
          "internalType": "bytes32",
          "name": "role",
          "type": "bytes32"
        },
        {
          "internalType": "address",
          "name": "account",
          "type": "address"
        }
      ],
      "name": "hasRole",
      "outputs": [
        {
          "internalType": "bool",
          "name": "",
          "type": "bool"
        }
      ],
      "stateMutability": "view",
      "type": "function"
    },
    {
      "inputs": [
        {
          "internalType": "address",
          "name": "spender",
          "type": "address"
        },
        {
          "internalType": "uint256",
          "name": "addedValue",
          "type": "uint256"
        }
      ],
      "name": "increaseAllowance",
      "outputs": [
        {
          "internalType": "bool",
          "name": "",
          "type": "bool"
        }
      ],
      "stateMutability": "nonpayable",
      "type": "function"
    },
    {
      "inputs": [
        {
          "internalType": "address",
          "name": "to",
          "type": "address"
        },
        {
          "internalType": "uint256",
          "name": "amount",
          "type": "uint256"
        }
      ],
      "name": "mint",
      "outputs": [],
      "stateMutability": "nonpayable",
      "type": "function"
    },
    {
      "inputs": [],
      "name": "name",
      "outputs": [
        {
          "internalType": "string",
          "name": "",
          "type": "string"
        }
      ],
      "stateMutability": "view",
      "type": "function"
    },
    {
      "inputs": [
        {
          "internalType": "bytes32",
          "name": "role",
          "type": "bytes32"
        },
        {
          "internalType": "address",
          "name": "account",
          "type": "address"
        }
      ],
      "name": "renounceRole",
      "outputs": [],
      "stateMutability": "nonpayable",
      "type": "function"
    },
    {
      "inputs": [
        {
          "internalType": "bytes32",
          "name": "role",
          "type": "bytes32"
        },
        {
          "internalType": "address",
          "name": "account",
          "type": "address"
        }
      ],
      "name": "revokeRole",
      "outputs": [],
      "stateMutability": "nonpayable",
      "type": "function"
    },
    {
      "inputs": [
        {
          "internalType": "bytes4",
          "name": "interfaceId",
          "type": "bytes4"
        }
      ],
      "name": "supportsInterface",
      "outputs": [
        {
          "internalType": "bool",
          "name": "",
          "type": "bool"
        }
      ],
      "stateMutability": "view",
      "type": "function"
    },
    {
      "inputs": [],
      "name": "symbol",
      "outputs": [
        {
          "internalType": "string",
          "name": "",
          "type": "string"
        }
      ],
      "stateMutability": "view",
      "type": "function"
    },
    {
      "inputs": [],
      "name": "totalSupply",
      "outputs": [
        {
          "internalType": "uint256",
          "name": "",
          "type": "uint256"
        }
      ],
      "stateMutability": "view",
      "type": "function"
    },
    {
      "inputs": [
        {
          "internalType": "address",
          "name": "to",
          "type": "address"
        },
        {
          "internalType": "uint256",
          "name": "amount",
          "type": "uint256"
        }
      ],
      "name": "transfer",
      "outputs": [
        {
          "internalType": "bool",
          "name": "",
          "type": "bool"
        }
      ],
      "stateMutability": "nonpayable",
      "type": "function"
    },
    {
      "inputs": [
        {
          "internalType": "address",
          "name": "from",
          "type": "address"
        },
        {
          "internalType": "address",
          "name": "to",
          "type": "address"
        },
        {
          "internalType": "uint256",
          "name": "amount",
          "type": "uint256"
        }
      ],
      "name": "transferFrom",
      "outputs": [
        {
          "internalType": "bool",
          "name": "",
          "type": "bool"
        }
      ],
      "stateMutability": "nonpayable",
      "type": "function"
    },
    {
      "inputs": [
        {
          "internalType": "address",
          "name": "target",
          "type": "address"
        }
      ],
      "name": "unFreezeAccount",
      "outputs": [],
      "stateMutability": "nonpayable",
      "type": "function"
    }
  ],
  "bytecode": "0x60806040523480156200001157600080fd5b506040516200212338038062002123833981016040819052620000349162000885565b6040518060400160405280600881526020016724b7372a37b5b2b760c11b8152506040518060400160405280600381526020016224a72760e91b815250816003908051906020019062000089929190620007c2565b5080516200009f906004906020840190620007c2565b5050600680546001600160a01b038085166001600160a01b031992831681179093556007805487831693169290921782556000928352600860205260408084207f9e0ed3c31b5df5ce82c490171d751f50cfa67a7c80bf8f82453270204a44cb799055915416825281207f5a119e2346306ccb9f52d3e5a906bf1ba96ed181c6771d2093b112667da53fa8905562000139915033620001a4565b620001546000805160206200210383398151915233620001a4565b6200016160008062000249565b6200017d60008051602062002103833981519152600062000249565b6007546200019c906001600160a01b031666470de4df82000062000294565b505062000a73565b60008281526005602090815260408083206001600160a01b038516845290915290205460ff16620002455760008281526005602090815260408083206001600160a01b03851684529091529020805460ff19166001179055620002043390565b6001600160a01b0316816001600160a01b0316837f2f8788117e7eff1d82e926ec794901d17c78024a50270940304540a733656f0d60405160405180910390a45b5050565b600082815260056020526040808220600101805490849055905190918391839186917fbd79b86ffe0ab8e8776151514217cd7cacd52c909f66475c3af44e129f0b00ff9190a4505050565b6000620002a181620002b2565b620002ad8383620002c1565b505050565b620002be8133620003b8565b50565b6001600160a01b0382166200031d5760405162461bcd60e51b815260206004820152601f60248201527f45524332303a206d696e7420746f20746865207a65726f20616464726573730060448201526064015b60405180910390fd5b6200032b6000838362000455565b80600260008282546200033f9190620008d3565b90915550506001600160a01b038216600090815260208190526040812080548392906200036e908490620008d3565b90915550506040518181526001600160a01b038316906000907fddf252ad1be2c89b69c2b068fc378daa952ba7f163c4a11628f55a4df523b3ef9060200160405180910390a35050565b60008281526005602090815260408083206001600160a01b038516845290915290205460ff16620002455762000404816001600160a01b031660146200060260201b620009471760201c565b6200041a8360206200094762000602821b17811c565b6040516020016200042d92919062000921565b60408051601f198184030181529082905262461bcd60e51b825262000314916004016200099a565b6007546001600160a01b03908116908416036200052a573360009081527fe5c1de4975af06817aee009d38f903f0e435e54944ecfd71ddcf651a59ab6754602052604090205460ff16620005245760405162461bcd60e51b815260206004820152604960248201527f494e4e544f4b454e203a206f6e6c7920434f4e53454e5355535f524f4c45206360448201527f616e207472616e736665722066726f6d2052455345525645535f57414c4c455460648201526802fa0a2222922a9a9960bd1b608482015260a40162000314565b6200057d565b6006546001600160a01b03908116908416036200057d573360009081527f05b8ccbb9d4d8fb16ea74ce3c29a41f1b461fbdaff4714a0d9a8eb05499746bc602052604090205460ff166200057d57600080fd5b3360009081526009602052604090205460ff1615620005ea5760405162461bcd60e51b815260206004820152602260248201527f494e4e546f6b656e203a20616c7265616479206163636f756e7420667265657a604482015261195960f21b606482015260840162000314565b620002ad838383620002ad60201b620005831760201c565b6060600062000613836002620009cf565b62000620906002620008d3565b6001600160401b038111156200063a576200063a620009f1565b6040519080825280601f01601f19166020018201604052801562000665576020820181803683370190505b509050600360fc1b8160008151811062000683576200068362000a07565b60200101906001600160f81b031916908160001a905350600f60fb1b81600181518110620006b557620006b562000a07565b60200101906001600160f81b031916908160001a9053506000620006db846002620009cf565b620006e8906001620008d3565b90505b60018111156200076a576f181899199a1a9b1b9c1cb0b131b232b360811b85600f166010811062000720576200072062000a07565b1a60f81b82828151811062000739576200073962000a07565b60200101906001600160f81b031916908160001a90535060049490941c93620007628162000a1d565b9050620006eb565b508315620007bb5760405162461bcd60e51b815260206004820181905260248201527f537472696e67733a20686578206c656e67746820696e73756666696369656e74604482015260640162000314565b9392505050565b828054620007d09062000a37565b90600052602060002090601f016020900481019282620007f457600085556200083f565b82601f106200080f57805160ff19168380011785556200083f565b828001600101855582156200083f579182015b828111156200083f57825182559160200191906001019062000822565b506200084d92915062000851565b5090565b5b808211156200084d576000815560010162000852565b80516001600160a01b03811681146200088057600080fd5b919050565b600080604083850312156200089957600080fd5b620008a48362000868565b9150620008b46020840162000868565b90509250929050565b634e487b7160e01b600052601160045260246000fd5b60008219821115620008e957620008e9620008bd565b500190565b60005b838110156200090b578181015183820152602001620008f1565b838111156200091b576000848401525b50505050565b7f416363657373436f6e74726f6c3a206163636f756e74200000000000000000008152600083516200095b816017850160208801620008ee565b7001034b99036b4b9b9b4b733903937b6329607d1b60179184019182015283516200098e816028840160208801620008ee565b01602801949350505050565b6020815260008251806020840152620009bb816040850160208701620008ee565b601f01601f19169190910160400192915050565b6000816000190483118215151615620009ec57620009ec620008bd565b500290565b634e487b7160e01b600052604160045260246000fd5b634e487b7160e01b600052603260045260246000fd5b60008162000a2f5762000a2f620008bd565b506000190190565b600181811c9082168062000a4c57607f821691505b60208210810362000a6d57634e487b7160e01b600052602260045260246000fd5b50919050565b6116808062000a836000396000f3fe608060405234801561001057600080fd5b50600436106101cf5760003560e01c806379cc679011610104578063b1441e79116100a2578063f26c159f11610071578063f26c159f146103f9578063f5074f411461040c578063f98df5ca1461041f578063fa2dabad1461043257600080fd5b8063b1441e791461037c578063cd4217c1146103a7578063d547741f146103d3578063dd62ed3e146103e657600080fd5b806395d89b41116100de57806395d89b4114610346578063a217fddf1461034e578063a457c2d714610356578063a9059cbb1461036957600080fd5b806379cc67901461031857806383197ef01461032b57806391d148541461033357600080fd5b8063313ce5671161017157806340c10f191161014b57806340c10f19146102b657806342966c68146102c957806353cc2fae146102dc57806370a08231146102ef57600080fd5b8063313ce5671461028157806336568abe1461029057806339509351146102a357600080fd5b806318160ddd116101ad57806318160ddd1461022457806323b872dd14610236578063248a9ca3146102495780632f2ff15d1461026c57600080fd5b806301ffc9a7146101d457806306fdde03146101fc578063095ea7b314610211575b600080fd5b6101e76101e236600461135f565b610459565b60405190151581526020015b60405180910390f35b610204610490565b6040516101f391906113b5565b6101e761021f366004611404565b610522565b6002545b6040519081526020016101f3565b6101e761024436600461142e565b61053a565b61022861025736600461146a565b60009081526005602052604090206001015490565b61027f61027a366004611483565b61055e565b005b604051600781526020016101f3565b61027f61029e366004611483565b610588565b6101e76102b1366004611404565b61060b565b61027f6102c4366004611404565b61062d565b61027f6102d736600461146a565b610642565b61027f6102ea3660046114af565b61064f565b6102286102fd3660046114af565b6001600160a01b031660009081526020819052604090205490565b61027f610326366004611404565b610724565b61027f610739565b6101e7610341366004611483565b610747565b610204610772565b610228600081565b6101e7610364366004611404565b610781565b6101e7610377366004611404565b6107fc565b60065461038f906001600160a01b031681565b6040516001600160a01b0390911681526020016101f3565b6101e76103b53660046114af565b6001600160a01b031660009081526009602052604090205460ff1690565b61027f6103e1366004611483565b61080a565b6102286103f43660046114ca565b61082f565b61027f6104073660046114af565b61085a565b61027f61041a3660046114af565b610930565b60075461038f906001600160a01b031681565b6102287f36fd43ede163045b10e1f0abd16f62f165fce3fa7b6cde217bcea3bc47663acc81565b60006001600160e01b03198216637965db0b60e01b148061048a57506301ffc9a760e01b6001600160e01b03198316145b92915050565b60606003805461049f906114f4565b80601f01602080910402602001604051908101604052809291908181526020018280546104cb906114f4565b80156105185780601f106104ed57610100808354040283529160200191610518565b820191906000526020600020905b8154815290600101906020018083116104fb57829003601f168201915b5050505050905090565b600033610530818585610aea565b5060019392505050565b600033610548858285610c0e565b610553858585610c88565b506001949350505050565b60008281526005602052604090206001015461057981610e61565b6105838383610e6b565b505050565b6001600160a01b03811633146105fd5760405162461bcd60e51b815260206004820152602f60248201527f416363657373436f6e74726f6c3a2063616e206f6e6c792072656e6f756e636560448201526e103937b632b9903337b91039b2b63360891b60648201526084015b60405180910390fd5b6106078282610ef1565b5050565b60003361053081858561061e838361082f565b6106289190611544565b610aea565b600061063881610e61565b6105838383610f58565b61064c3382611043565b50565b600061065a81610e61565b6001600160a01b03821660009081526009602052604090205460ff166106cd5760405162461bcd60e51b815260206004820152602260248201527f494e4e544f4b454e203a206163636f756e74206d75737420626520667265657a604482015261195960f21b60648201526084016105f4565b6001600160a01b0382166000818152600960209081526040808320805460ff19169055519182527f48335238b4855f35377ed80f164e8c6f3c366e54ac00b96a6402d4a9814a03a591015b60405180910390a25050565b61072f823383610c0e565b6106078282611043565b600061074481610e61565b33ff5b60009182526005602090815260408084206001600160a01b0393909316845291905290205460ff1690565b60606004805461049f906114f4565b6000338161078f828661082f565b9050838110156107ef5760405162461bcd60e51b815260206004820152602560248201527f45524332303a2064656372656173656420616c6c6f77616e63652062656c6f77604482015264207a65726f60d81b60648201526084016105f4565b6105538286868403610aea565b600033610530818585610c88565b60008281526005602052604090206001015461082581610e61565b6105838383610ef1565b6001600160a01b03918216600090815260016020908152604080832093909416825291909152205490565b600061086581610e61565b6001600160a01b038216600090815260208190526040812054116108d95760405162461bcd60e51b815260206004820152602560248201527f494e4e544f4b454e203a206163636f756e74206d7573742068617320612062616044820152646c616e636560d81b60648201526084016105f4565b6001600160a01b038216600081815260096020908152604091829020805460ff1916600190811790915591519182527f48335238b4855f35377ed80f164e8c6f3c366e54ac00b96a6402d4a9814a03a59101610718565b600061093b81610e61565b816001600160a01b0316ff5b6060600061095683600261155c565b610961906002611544565b67ffffffffffffffff8111156109795761097961157b565b6040519080825280601f01601f1916602001820160405280156109a3576020820181803683370190505b509050600360fc1b816000815181106109be576109be611591565b60200101906001600160f81b031916908160001a905350600f60fb1b816001815181106109ed576109ed611591565b60200101906001600160f81b031916908160001a9053506000610a1184600261155c565b610a1c906001611544565b90505b6001811115610a94576f181899199a1a9b1b9c1cb0b131b232b360811b85600f1660108110610a5057610a50611591565b1a60f81b828281518110610a6657610a66611591565b60200101906001600160f81b031916908160001a90535060049490941c93610a8d816115a7565b9050610a1f565b508315610ae35760405162461bcd60e51b815260206004820181905260248201527f537472696e67733a20686578206c656e67746820696e73756666696369656e7460448201526064016105f4565b9392505050565b6001600160a01b038316610b4c5760405162461bcd60e51b8152602060048201526024808201527f45524332303a20617070726f76652066726f6d20746865207a65726f206164646044820152637265737360e01b60648201526084016105f4565b6001600160a01b038216610bad5760405162461bcd60e51b815260206004820152602260248201527f45524332303a20617070726f766520746f20746865207a65726f206164647265604482015261737360f01b60648201526084016105f4565b6001600160a01b0383811660008181526001602090815260408083209487168084529482529182902085905590518481527f8c5be1e5ebec7d5bd14f71427d1e84f3dd0314c0f7b2291e5b200ac8c7c3b925910160405180910390a3505050565b6000610c1a848461082f565b90506000198114610c825781811015610c755760405162461bcd60e51b815260206004820152601d60248201527f45524332303a20696e73756666696369656e7420616c6c6f77616e636500000060448201526064016105f4565b610c828484848403610aea565b50505050565b6001600160a01b038316610cec5760405162461bcd60e51b815260206004820152602560248201527f45524332303a207472616e736665722066726f6d20746865207a65726f206164604482015264647265737360d81b60648201526084016105f4565b6001600160a01b038216610d4e5760405162461bcd60e51b815260206004820152602360248201527f45524332303a207472616e7366657220746f20746865207a65726f206164647260448201526265737360e81b60648201526084016105f4565b610d5983838361119d565b6001600160a01b03831660009081526020819052604090205481811015610dd15760405162461bcd60e51b815260206004820152602660248201527f45524332303a207472616e7366657220616d6f756e7420657863656564732062604482015265616c616e636560d01b60648201526084016105f4565b6001600160a01b03808516600090815260208190526040808220858503905591851681529081208054849290610e08908490611544565b92505081905550826001600160a01b0316846001600160a01b03167fddf252ad1be2c89b69c2b068fc378daa952ba7f163c4a11628f55a4df523b3ef84604051610e5491815260200190565b60405180910390a3610c82565b61064c81336112fb565b610e758282610747565b6106075760008281526005602090815260408083206001600160a01b03851684529091529020805460ff19166001179055610ead3390565b6001600160a01b0316816001600160a01b0316837f2f8788117e7eff1d82e926ec794901d17c78024a50270940304540a733656f0d60405160405180910390a45050565b610efb8282610747565b156106075760008281526005602090815260408083206001600160a01b0385168085529252808320805460ff1916905551339285917ff6391f5c32d9c69d2a47ea670b442974b53935d1edc7fd64eb21e047a839171b9190a45050565b6001600160a01b038216610fae5760405162461bcd60e51b815260206004820152601f60248201527f45524332303a206d696e7420746f20746865207a65726f20616464726573730060448201526064016105f4565b610fba6000838361119d565b8060026000828254610fcc9190611544565b90915550506001600160a01b03821660009081526020819052604081208054839290610ff9908490611544565b90915550506040518181526001600160a01b038316906000907fddf252ad1be2c89b69c2b068fc378daa952ba7f163c4a11628f55a4df523b3ef9060200160405180910390a35050565b6001600160a01b0382166110a35760405162461bcd60e51b815260206004820152602160248201527f45524332303a206275726e2066726f6d20746865207a65726f206164647265736044820152607360f81b60648201526084016105f4565b6110af8260008361119d565b6001600160a01b038216600090815260208190526040902054818110156111235760405162461bcd60e51b815260206004820152602260248201527f45524332303a206275726e20616d6f756e7420657863656564732062616c616e604482015261636560f01b60648201526084016105f4565b6001600160a01b03831660009081526020819052604081208383039055600280548492906111529084906115be565b90915550506040518281526000906001600160a01b038516907fddf252ad1be2c89b69c2b068fc378daa952ba7f163c4a11628f55a4df523b3ef9060200160405180910390a3505050565b6007546001600160a01b0390811690841603611266576111dd7f36fd43ede163045b10e1f0abd16f62f165fce3fa7b6cde217bcea3bc47663acc33610747565b6112615760405162461bcd60e51b815260206004820152604960248201527f494e4e544f4b454e203a206f6e6c7920434f4e53454e5355535f524f4c45206360448201527f616e207472616e736665722066726f6d2052455345525645535f57414c4c455460648201526802fa0a2222922a9a9960bd1b608482015260a4016105f4565b611290565b6006546001600160a01b039081169084160361129057611287600033610747565b61129057600080fd5b3360009081526009602052604090205460ff16156105835760405162461bcd60e51b815260206004820152602260248201527f494e4e546f6b656e203a20616c7265616479206163636f756e7420667265657a604482015261195960f21b60648201526084016105f4565b6113058282610747565b6106075761131d816001600160a01b03166014610947565b611328836020610947565b6040516020016113399291906115d5565b60408051601f198184030181529082905262461bcd60e51b82526105f4916004016113b5565b60006020828403121561137157600080fd5b81356001600160e01b031981168114610ae357600080fd5b60005b838110156113a457818101518382015260200161138c565b83811115610c825750506000910152565b60208152600082518060208401526113d4816040850160208701611389565b601f01601f19169190910160400192915050565b80356001600160a01b03811681146113ff57600080fd5b919050565b6000806040838503121561141757600080fd5b611420836113e8565b946020939093013593505050565b60008060006060848603121561144357600080fd5b61144c846113e8565b925061145a602085016113e8565b9150604084013590509250925092565b60006020828403121561147c57600080fd5b5035919050565b6000806040838503121561149657600080fd5b823591506114a6602084016113e8565b90509250929050565b6000602082840312156114c157600080fd5b610ae3826113e8565b600080604083850312156114dd57600080fd5b6114e6836113e8565b91506114a6602084016113e8565b600181811c9082168061150857607f821691505b60208210810361152857634e487b7160e01b600052602260045260246000fd5b50919050565b634e487b7160e01b600052601160045260246000fd5b600082198211156115575761155761152e565b500190565b60008160001904831182151516156115765761157661152e565b500290565b634e487b7160e01b600052604160045260246000fd5b634e487b7160e01b600052603260045260246000fd5b6000816115b6576115b661152e565b506000190190565b6000828210156115d0576115d061152e565b500390565b7f416363657373436f6e74726f6c3a206163636f756e742000000000000000000081526000835161160d816017850160208801611389565b7001034b99036b4b9b9b4b733903937b6329607d1b601791840191820152835161163e816028840160208801611389565b0160280194935050505056fea2646970667358221220d4f6310f206306496446a860c8e342ed726c6952f9cff53c56c1189f8299a5aa64736f6c634300080e003336fd43ede163045b10e1f0abd16f62f165fce3fa7b6cde217bcea3bc47663acc",
  "linkReferences": {},
  "deployedLinkReferences": {},
  "devdoc": {
    "kind": "dev",
    "methods": {
      "allowance(address,address)": {
        "details": "See {IERC20-allowance}."
      },
      "approve(address,uint256)": {
        "details": "See {IERC20-approve}. NOTE: If `amount` is the maximum `uint256`, the allowance is not updated on `transferFrom`. This is semantically equivalent to an infinite approval. Requirements: - `spender` cannot be the zero address."
      },
      "balanceOf(address)": {
        "details": "See {IERC20-balanceOf}."
      },
      "burn(uint256)": {
        "details": "Destroys `amount` tokens from the caller. See {ERC20-_burn}."
      },
      "burnFrom(address,uint256)": {
        "details": "Destroys `amount` tokens from `account`, deducting from the caller's allowance. See {ERC20-_burn} and {ERC20-allowance}. Requirements: - the caller must have allowance for ``accounts``'s tokens of at least `amount`."
      },
      "decimals()": {
        "details": "Returns the number of decimals used to get its user representation. For example, if `decimals` equals `2`, a balance of `505` tokens should be displayed to a user as `5.05` (`505 / 10 ** 2`). Tokens usually opt for a value of 18, imitating the relationship between Ether and Wei. This is the value {ERC20} uses, unless this function is overridden; NOTE: This information is only used for _display_ purposes: it in no way affects any of the arithmetic of the contract, including {IERC20-balanceOf} and {IERC20-transfer}."
      },
      "decreaseAllowance(address,uint256)": {
        "details": "Atomically decreases the allowance granted to `spender` by the caller. This is an alternative to {approve} that can be used as a mitigation for problems described in {IERC20-approve}. Emits an {Approval} event indicating the updated allowance. Requirements: - `spender` cannot be the zero address. - `spender` must have allowance for the caller of at least `subtractedValue`."
      },
      "getRoleAdmin(bytes32)": {
        "details": "Returns the admin role that controls `role`. See {grantRole} and {revokeRole}. To change a role's admin, use {_setRoleAdmin}."
      },
      "grantRole(bytes32,address)": {
        "details": "Grants `role` to `account`. If `account` had not been already granted `role`, emits a {RoleGranted} event. Requirements: - the caller must have ``role``'s admin role."
      },
      "hasRole(bytes32,address)": {
        "details": "Returns `true` if `account` has been granted `role`."
      },
      "increaseAllowance(address,uint256)": {
        "details": "Atomically increases the allowance granted to `spender` by the caller. This is an alternative to {approve} that can be used as a mitigation for problems described in {IERC20-approve}. Emits an {Approval} event indicating the updated allowance. Requirements: - `spender` cannot be the zero address."
      },
      "name()": {
        "details": "Returns the name of the token."
      },
      "renounceRole(bytes32,address)": {
        "details": "Revokes `role` from the calling account. Roles are often managed via {grantRole} and {revokeRole}: this function's purpose is to provide a mechanism for accounts to lose their privileges if they are compromised (such as when a trusted device is misplaced). If the calling account had been revoked `role`, emits a {RoleRevoked} event. Requirements: - the caller must be `account`."
      },
      "revokeRole(bytes32,address)": {
        "details": "Revokes `role` from `account`. If `account` had been granted `role`, emits a {RoleRevoked} event. Requirements: - the caller must have ``role``'s admin role."
      },
      "supportsInterface(bytes4)": {
        "details": "See {IERC165-supportsInterface}."
      },
      "symbol()": {
        "details": "Returns the symbol of the token, usually a shorter version of the name."
      },
      "totalSupply()": {
        "details": "See {IERC20-totalSupply}."
      },
      "transfer(address,uint256)": {
        "details": "See {IERC20-transfer}. Requirements: - `to` cannot be the zero address. - the caller must have a balance of at least `amount`."
      },
      "transferFrom(address,address,uint256)": {
        "details": "See {IERC20-transferFrom}. Emits an {Approval} event indicating the updated allowance. This is not required by the EIP. See the note at the beginning of {ERC20}. NOTE: Does not update the allowance if the current allowance is the maximum `uint256`. Requirements: - `from` and `to` cannot be the zero address. - `from` must have a balance of at least `amount`. - the caller must have allowance for ``from``'s tokens of at least `amount`."
      }
    },
    "version": 1
  },
  "evm": {
    "bytecode": {
      "linkReferences": {},
      "opcodes": "PUSH1 0x80 PUSH1 0x40 MSTORE CALLVALUE DUP1 ISZERO PUSH3 0x11 JUMPI PUSH1 0x0 DUP1 REVERT JUMPDEST POP PUSH1 0x40 MLOAD PUSH3 0x2123 CODESIZE SUB DUP1 PUSH3 0x2123 DUP4 CODECOPY DUP2 ADD PUSH1 0x40 DUP2 SWAP1 MSTORE PUSH3 0x34 SWAP2 PUSH3 0x885 JUMP JUMPDEST PUSH1 0x40 MLOAD DUP1 PUSH1 0x40 ADD PUSH1 0x40 MSTORE DUP1 PUSH1 0x8 DUP2 MSTORE PUSH1 0x20 ADD PUSH8 0x24B7372A37B5B2B7 PUSH1 0xC1 SHL DUP2 MSTORE POP PUSH1 0x40 MLOAD DUP1 PUSH1 0x40 ADD PUSH1 0x40 MSTORE DUP1 PUSH1 0x3 DUP2 MSTORE PUSH1 0x20 ADD PUSH3 0x24A727 PUSH1 0xE9 SHL DUP2 MSTORE POP DUP2 PUSH1 0x3 SWAP1 DUP1 MLOAD SWAP1 PUSH1 0x20 ADD SWAP1 PUSH3 0x89 SWAP3 SWAP2 SWAP1 PUSH3 0x7C2 JUMP JUMPDEST POP DUP1 MLOAD PUSH3 0x9F SWAP1 PUSH1 0x4 SWAP1 PUSH1 0x20 DUP5 ADD SWAP1 PUSH3 0x7C2 JUMP JUMPDEST POP POP PUSH1 0x6 DUP1 SLOAD PUSH1 0x1 PUSH1 0x1 PUSH1 0xA0 SHL SUB DUP1 DUP6 AND PUSH1 0x1 PUSH1 0x1 PUSH1 0xA0 SHL SUB NOT SWAP3 DUP4 AND DUP2 OR SWAP1 SWAP4 SSTORE PUSH1 0x7 DUP1 SLOAD DUP8 DUP4 AND SWAP4 AND SWAP3 SWAP1 SWAP3 OR DUP3 SSTORE PUSH1 0x0 SWAP3 DUP4 MSTORE PUSH1 0x8 PUSH1 0x20 MSTORE PUSH1 0x40 DUP1 DUP5 KECCAK256 PUSH32 0x9E0ED3C31B5DF5CE82C490171D751F50CFA67A7C80BF8F82453270204A44CB79 SWAP1 SSTORE SWAP2 SLOAD AND DUP3 MSTORE DUP2 KECCAK256 PUSH32 0x5A119E2346306CCB9F52D3E5A906BF1BA96ED181C6771D2093B112667DA53FA8 SWAP1 SSTORE PUSH3 0x139 SWAP2 POP CALLER PUSH3 0x1A4 JUMP JUMPDEST PUSH3 0x154 PUSH1 0x0 DUP1 MLOAD PUSH1 0x20 PUSH3 0x2103 DUP4 CODECOPY DUP2 MLOAD SWAP2 MSTORE CALLER PUSH3 0x1A4 JUMP JUMPDEST PUSH3 0x161 PUSH1 0x0 DUP1 PUSH3 0x249 JUMP JUMPDEST PUSH3 0x17D PUSH1 0x0 DUP1 MLOAD PUSH1 0x20 PUSH3 0x2103 DUP4 CODECOPY DUP2 MLOAD SWAP2 MSTORE PUSH1 0x0 PUSH3 0x249 JUMP JUMPDEST PUSH1 0x7 SLOAD PUSH3 0x19C SWAP1 PUSH1 0x1 PUSH1 0x1 PUSH1 0xA0 SHL SUB AND PUSH7 0x470DE4DF820000 PUSH3 0x294 JUMP JUMPDEST POP POP PUSH3 0xA73 JUMP JUMPDEST PUSH1 0x0 DUP3 DUP2 MSTORE PUSH1 0x5 PUSH1 0x20 SWAP1 DUP2 MSTORE PUSH1 0x40 DUP1 DUP4 KECCAK256 PUSH1 0x1 PUSH1 0x1 PUSH1 0xA0 SHL SUB DUP6 AND DUP5 MSTORE SWAP1 SWAP2 MSTORE SWAP1 KECCAK256 SLOAD PUSH1 0xFF AND PUSH3 0x245 JUMPI PUSH1 0x0 DUP3 DUP2 MSTORE PUSH1 0x5 PUSH1 0x20 SWAP1 DUP2 MSTORE PUSH1 0x40 DUP1 DUP4 KECCAK256 PUSH1 0x1 PUSH1 0x1 PUSH1 0xA0 SHL SUB DUP6 AND DUP5 MSTORE SWAP1 SWAP2 MSTORE SWAP1 KECCAK256 DUP1 SLOAD PUSH1 0xFF NOT AND PUSH1 0x1 OR SWAP1 SSTORE PUSH3 0x204 CALLER SWAP1 JUMP JUMPDEST PUSH1 0x1 PUSH1 0x1 PUSH1 0xA0 SHL SUB AND DUP2 PUSH1 0x1 PUSH1 0x1 PUSH1 0xA0 SHL SUB AND DUP4 PUSH32 0x2F8788117E7EFF1D82E926EC794901D17C78024A50270940304540A733656F0D PUSH1 0x40 MLOAD PUSH1 0x40 MLOAD DUP1 SWAP2 SUB SWAP1 LOG4 JUMPDEST POP POP JUMP JUMPDEST PUSH1 0x0 DUP3 DUP2 MSTORE PUSH1 0x5 PUSH1 0x20 MSTORE PUSH1 0x40 DUP1 DUP3 KECCAK256 PUSH1 0x1 ADD DUP1 SLOAD SWAP1 DUP5 SWAP1 SSTORE SWAP1 MLOAD SWAP1 SWAP2 DUP4 SWAP2 DUP4 SWAP2 DUP7 SWAP2 PUSH32 0xBD79B86FFE0AB8E8776151514217CD7CACD52C909F66475C3AF44E129F0B00FF SWAP2 SWAP1 LOG4 POP POP POP JUMP JUMPDEST PUSH1 0x0 PUSH3 0x2A1 DUP2 PUSH3 0x2B2 JUMP JUMPDEST PUSH3 0x2AD DUP4 DUP4 PUSH3 0x2C1 JUMP JUMPDEST POP POP POP JUMP JUMPDEST PUSH3 0x2BE DUP2 CALLER PUSH3 0x3B8 JUMP JUMPDEST POP JUMP JUMPDEST PUSH1 0x1 PUSH1 0x1 PUSH1 0xA0 SHL SUB DUP3 AND PUSH3 0x31D JUMPI PUSH1 0x40 MLOAD PUSH3 0x461BCD PUSH1 0xE5 SHL DUP2 MSTORE PUSH1 0x20 PUSH1 0x4 DUP3 ADD MSTORE PUSH1 0x1F PUSH1 0x24 DUP3 ADD MSTORE PUSH32 0x45524332303A206D696E7420746F20746865207A65726F206164647265737300 PUSH1 0x44 DUP3 ADD MSTORE PUSH1 0x64 ADD JUMPDEST PUSH1 0x40 MLOAD DUP1 SWAP2 SUB SWAP1 REVERT JUMPDEST PUSH3 0x32B PUSH1 0x0 DUP4 DUP4 PUSH3 0x455 JUMP JUMPDEST DUP1 PUSH1 0x2 PUSH1 0x0 DUP3 DUP3 SLOAD PUSH3 0x33F SWAP2 SWAP1 PUSH3 0x8D3 JUMP JUMPDEST SWAP1 SWAP2 SSTORE POP POP PUSH1 0x1 PUSH1 0x1 PUSH1 0xA0 SHL SUB DUP3 AND PUSH1 0x0 SWAP1 DUP2 MSTORE PUSH1 0x20 DUP2 SWAP1 MSTORE PUSH1 0x40 DUP2 KECCAK256 DUP1 SLOAD DUP4 SWAP3 SWAP1 PUSH3 0x36E SWAP1 DUP5 SWAP1 PUSH3 0x8D3 JUMP JUMPDEST SWAP1 SWAP2 SSTORE POP POP PUSH1 0x40 MLOAD DUP2 DUP2 MSTORE PUSH1 0x1 PUSH1 0x1 PUSH1 0xA0 SHL SUB DUP4 AND SWAP1 PUSH1 0x0 SWAP1 PUSH32 0xDDF252AD1BE2C89B69C2B068FC378DAA952BA7F163C4A11628F55A4DF523B3EF SWAP1 PUSH1 0x20 ADD PUSH1 0x40 MLOAD DUP1 SWAP2 SUB SWAP1 LOG3 POP POP JUMP JUMPDEST PUSH1 0x0 DUP3 DUP2 MSTORE PUSH1 0x5 PUSH1 0x20 SWAP1 DUP2 MSTORE PUSH1 0x40 DUP1 DUP4 KECCAK256 PUSH1 0x1 PUSH1 0x1 PUSH1 0xA0 SHL SUB DUP6 AND DUP5 MSTORE SWAP1 SWAP2 MSTORE SWAP1 KECCAK256 SLOAD PUSH1 0xFF AND PUSH3 0x245 JUMPI PUSH3 0x404 DUP2 PUSH1 0x1 PUSH1 0x1 PUSH1 0xA0 SHL SUB AND PUSH1 0x14 PUSH3 0x602 PUSH1 0x20 SHL PUSH3 0x947 OR PUSH1 0x20 SHR JUMP JUMPDEST PUSH3 0x41A DUP4 PUSH1 0x20 PUSH3 0x947 PUSH3 0x602 DUP3 SHL OR DUP2 SHR JUMP JUMPDEST PUSH1 0x40 MLOAD PUSH1 0x20 ADD PUSH3 0x42D SWAP3 SWAP2 SWAP1 PUSH3 0x921 JUMP JUMPDEST PUSH1 0x40 DUP1 MLOAD PUSH1 0x1F NOT DUP2 DUP5 SUB ADD DUP2 MSTORE SWAP1 DUP3 SWAP1 MSTORE PUSH3 0x461BCD PUSH1 0xE5 SHL DUP3 MSTORE PUSH3 0x314 SWAP2 PUSH1 0x4 ADD PUSH3 0x99A JUMP JUMPDEST PUSH1 0x7 SLOAD PUSH1 0x1 PUSH1 0x1 PUSH1 0xA0 SHL SUB SWAP1 DUP2 AND SWAP1 DUP5 AND SUB PUSH3 0x52A JUMPI CALLER PUSH1 0x0 SWAP1 DUP2 MSTORE PUSH32 0xE5C1DE4975AF06817AEE009D38F903F0E435E54944ECFD71DDCF651A59AB6754 PUSH1 0x20 MSTORE PUSH1 0x40 SWAP1 KECCAK256 SLOAD PUSH1 0xFF AND PUSH3 0x524 JUMPI PUSH1 0x40 MLOAD PUSH3 0x461BCD PUSH1 0xE5 SHL DUP2 MSTORE PUSH1 0x20 PUSH1 0x4 DUP3 ADD MSTORE PUSH1 0x49 PUSH1 0x24 DUP3 ADD MSTORE PUSH32 0x494E4E544F4B454E203A206F6E6C7920434F4E53454E5355535F524F4C452063 PUSH1 0x44 DUP3 ADD MSTORE PUSH32 0x616E207472616E736665722066726F6D2052455345525645535F57414C4C4554 PUSH1 0x64 DUP3 ADD MSTORE PUSH9 0x2FA0A2222922A9A99 PUSH1 0xBD SHL PUSH1 0x84 DUP3 ADD MSTORE PUSH1 0xA4 ADD PUSH3 0x314 JUMP JUMPDEST PUSH3 0x57D JUMP JUMPDEST PUSH1 0x6 SLOAD PUSH1 0x1 PUSH1 0x1 PUSH1 0xA0 SHL SUB SWAP1 DUP2 AND SWAP1 DUP5 AND SUB PUSH3 0x57D JUMPI CALLER PUSH1 0x0 SWAP1 DUP2 MSTORE PUSH32 0x5B8CCBB9D4D8FB16EA74CE3C29A41F1B461FBDAFF4714A0D9A8EB05499746BC PUSH1 0x20 MSTORE PUSH1 0x40 SWAP1 KECCAK256 SLOAD PUSH1 0xFF AND PUSH3 0x57D JUMPI PUSH1 0x0 DUP1 REVERT JUMPDEST CALLER PUSH1 0x0 SWAP1 DUP2 MSTORE PUSH1 0x9 PUSH1 0x20 MSTORE PUSH1 0x40 SWAP1 KECCAK256 SLOAD PUSH1 0xFF AND ISZERO PUSH3 0x5EA JUMPI PUSH1 0x40 MLOAD PUSH3 0x461BCD PUSH1 0xE5 SHL DUP2 MSTORE PUSH1 0x20 PUSH1 0x4 DUP3 ADD MSTORE PUSH1 0x22 PUSH1 0x24 DUP3 ADD MSTORE PUSH32 0x494E4E546F6B656E203A20616C7265616479206163636F756E7420667265657A PUSH1 0x44 DUP3 ADD MSTORE PUSH2 0x1959 PUSH1 0xF2 SHL PUSH1 0x64 DUP3 ADD MSTORE PUSH1 0x84 ADD PUSH3 0x314 JUMP JUMPDEST PUSH3 0x2AD DUP4 DUP4 DUP4 PUSH3 0x2AD PUSH1 0x20 SHL PUSH3 0x583 OR PUSH1 0x20 SHR JUMP JUMPDEST PUSH1 0x60 PUSH1 0x0 PUSH3 0x613 DUP4 PUSH1 0x2 PUSH3 0x9CF JUMP JUMPDEST PUSH3 0x620 SWAP1 PUSH1 0x2 PUSH3 0x8D3 JUMP JUMPDEST PUSH1 0x1 PUSH1 0x1 PUSH1 0x40 SHL SUB DUP2 GT ISZERO PUSH3 0x63A JUMPI PUSH3 0x63A PUSH3 0x9F1 JUMP JUMPDEST PUSH1 0x40 MLOAD SWAP1 DUP1 DUP3 MSTORE DUP1 PUSH1 0x1F ADD PUSH1 0x1F NOT AND PUSH1 0x20 ADD DUP3 ADD PUSH1 0x40 MSTORE DUP1 ISZERO PUSH3 0x665 JUMPI PUSH1 0x20 DUP3 ADD DUP2 DUP1 CALLDATASIZE DUP4 CALLDATACOPY ADD SWAP1 POP JUMPDEST POP SWAP1 POP PUSH1 0x3 PUSH1 0xFC SHL DUP2 PUSH1 0x0 DUP2 MLOAD DUP2 LT PUSH3 0x683 JUMPI PUSH3 0x683 PUSH3 0xA07 JUMP JUMPDEST PUSH1 0x20 ADD ADD SWAP1 PUSH1 0x1 PUSH1 0x1 PUSH1 0xF8 SHL SUB NOT AND SWAP1 DUP2 PUSH1 0x0 BYTE SWAP1 MSTORE8 POP PUSH1 0xF PUSH1 0xFB SHL DUP2 PUSH1 0x1 DUP2 MLOAD DUP2 LT PUSH3 0x6B5 JUMPI PUSH3 0x6B5 PUSH3 0xA07 JUMP JUMPDEST PUSH1 0x20 ADD ADD SWAP1 PUSH1 0x1 PUSH1 0x1 PUSH1 0xF8 SHL SUB NOT AND SWAP1 DUP2 PUSH1 0x0 BYTE SWAP1 MSTORE8 POP PUSH1 0x0 PUSH3 0x6DB DUP5 PUSH1 0x2 PUSH3 0x9CF JUMP JUMPDEST PUSH3 0x6E8 SWAP1 PUSH1 0x1 PUSH3 0x8D3 JUMP JUMPDEST SWAP1 POP JUMPDEST PUSH1 0x1 DUP2 GT ISZERO PUSH3 0x76A JUMPI PUSH16 0x181899199A1A9B1B9C1CB0B131B232B3 PUSH1 0x81 SHL DUP6 PUSH1 0xF AND PUSH1 0x10 DUP2 LT PUSH3 0x720 JUMPI PUSH3 0x720 PUSH3 0xA07 JUMP JUMPDEST BYTE PUSH1 0xF8 SHL DUP3 DUP3 DUP2 MLOAD DUP2 LT PUSH3 0x739 JUMPI PUSH3 0x739 PUSH3 0xA07 JUMP JUMPDEST PUSH1 0x20 ADD ADD SWAP1 PUSH1 0x1 PUSH1 0x1 PUSH1 0xF8 SHL SUB NOT AND SWAP1 DUP2 PUSH1 0x0 BYTE SWAP1 MSTORE8 POP PUSH1 0x4 SWAP5 SWAP1 SWAP5 SHR SWAP4 PUSH3 0x762 DUP2 PUSH3 0xA1D JUMP JUMPDEST SWAP1 POP PUSH3 0x6EB JUMP JUMPDEST POP DUP4 ISZERO PUSH3 0x7BB JUMPI PUSH1 0x40 MLOAD PUSH3 0x461BCD PUSH1 0xE5 SHL DUP2 MSTORE PUSH1 0x20 PUSH1 0x4 DUP3 ADD DUP2 SWAP1 MSTORE PUSH1 0x24 DUP3 ADD MSTORE PUSH32 0x537472696E67733A20686578206C656E67746820696E73756666696369656E74 PUSH1 0x44 DUP3 ADD MSTORE PUSH1 0x64 ADD PUSH3 0x314 JUMP JUMPDEST SWAP4 SWAP3 POP POP POP JUMP JUMPDEST DUP3 DUP1 SLOAD PUSH3 0x7D0 SWAP1 PUSH3 0xA37 JUMP JUMPDEST SWAP1 PUSH1 0x0 MSTORE PUSH1 0x20 PUSH1 0x0 KECCAK256 SWAP1 PUSH1 0x1F ADD PUSH1 0x20 SWAP1 DIV DUP2 ADD SWAP3 DUP3 PUSH3 0x7F4 JUMPI PUSH1 0x0 DUP6 SSTORE PUSH3 0x83F JUMP JUMPDEST DUP3 PUSH1 0x1F LT PUSH3 0x80F JUMPI DUP1 MLOAD PUSH1 0xFF NOT AND DUP4 DUP1 ADD OR DUP6 SSTORE PUSH3 0x83F JUMP JUMPDEST DUP3 DUP1 ADD PUSH1 0x1 ADD DUP6 SSTORE DUP3 ISZERO PUSH3 0x83F JUMPI SWAP2 DUP3 ADD JUMPDEST DUP3 DUP2 GT ISZERO PUSH3 0x83F JUMPI DUP3 MLOAD DUP3 SSTORE SWAP2 PUSH1 0x20 ADD SWAP2 SWAP1 PUSH1 0x1 ADD SWAP1 PUSH3 0x822 JUMP JUMPDEST POP PUSH3 0x84D SWAP3 SWAP2 POP PUSH3 0x851 JUMP JUMPDEST POP SWAP1 JUMP JUMPDEST JUMPDEST DUP1 DUP3 GT ISZERO PUSH3 0x84D JUMPI PUSH1 0x0 DUP2 SSTORE PUSH1 0x1 ADD PUSH3 0x852 JUMP JUMPDEST DUP1 MLOAD PUSH1 0x1 PUSH1 0x1 PUSH1 0xA0 SHL SUB DUP2 AND DUP2 EQ PUSH3 0x880 JUMPI PUSH1 0x0 DUP1 REVERT JUMPDEST SWAP2 SWAP1 POP JUMP JUMPDEST PUSH1 0x0 DUP1 PUSH1 0x40 DUP4 DUP6 SUB SLT ISZERO PUSH3 0x899 JUMPI PUSH1 0x0 DUP1 REVERT JUMPDEST PUSH3 0x8A4 DUP4 PUSH3 0x868 JUMP JUMPDEST SWAP2 POP PUSH3 0x8B4 PUSH1 0x20 DUP5 ADD PUSH3 0x868 JUMP JUMPDEST SWAP1 POP SWAP3 POP SWAP3 SWAP1 POP JUMP JUMPDEST PUSH4 0x4E487B71 PUSH1 0xE0 SHL PUSH1 0x0 MSTORE PUSH1 0x11 PUSH1 0x4 MSTORE PUSH1 0x24 PUSH1 0x0 REVERT JUMPDEST PUSH1 0x0 DUP3 NOT DUP3 GT ISZERO PUSH3 0x8E9 JUMPI PUSH3 0x8E9 PUSH3 0x8BD JUMP JUMPDEST POP ADD SWAP1 JUMP JUMPDEST PUSH1 0x0 JUMPDEST DUP4 DUP2 LT ISZERO PUSH3 0x90B JUMPI DUP2 DUP2 ADD MLOAD DUP4 DUP3 ADD MSTORE PUSH1 0x20 ADD PUSH3 0x8F1 JUMP JUMPDEST DUP4 DUP2 GT ISZERO PUSH3 0x91B JUMPI PUSH1 0x0 DUP5 DUP5 ADD MSTORE JUMPDEST POP POP POP POP JUMP JUMPDEST PUSH32 0x416363657373436F6E74726F6C3A206163636F756E7420000000000000000000 DUP2 MSTORE PUSH1 0x0 DUP4 MLOAD PUSH3 0x95B DUP2 PUSH1 0x17 DUP6 ADD PUSH1 0x20 DUP9 ADD PUSH3 0x8EE JUMP JUMPDEST PUSH17 0x1034B99036B4B9B9B4B733903937B6329 PUSH1 0x7D SHL PUSH1 0x17 SWAP2 DUP5 ADD SWAP2 DUP3 ADD MSTORE DUP4 MLOAD PUSH3 0x98E DUP2 PUSH1 0x28 DUP5 ADD PUSH1 0x20 DUP9 ADD PUSH3 0x8EE JUMP JUMPDEST ADD PUSH1 0x28 ADD SWAP5 SWAP4 POP POP POP POP JUMP JUMPDEST PUSH1 0x20 DUP2 MSTORE PUSH1 0x0 DUP3 MLOAD DUP1 PUSH1 0x20 DUP5 ADD MSTORE PUSH3 0x9BB DUP2 PUSH1 0x40 DUP6 ADD PUSH1 0x20 DUP8 ADD PUSH3 0x8EE JUMP JUMPDEST PUSH1 0x1F ADD PUSH1 0x1F NOT AND SWAP2 SWAP1 SWAP2 ADD PUSH1 0x40 ADD SWAP3 SWAP2 POP POP JUMP JUMPDEST PUSH1 0x0 DUP2 PUSH1 0x0 NOT DIV DUP4 GT DUP3 ISZERO ISZERO AND ISZERO PUSH3 0x9EC JUMPI PUSH3 0x9EC PUSH3 0x8BD JUMP JUMPDEST POP MUL SWAP1 JUMP JUMPDEST PUSH4 0x4E487B71 PUSH1 0xE0 SHL PUSH1 0x0 MSTORE PUSH1 0x41 PUSH1 0x4 MSTORE PUSH1 0x24 PUSH1 0x0 REVERT JUMPDEST PUSH4 0x4E487B71 PUSH1 0xE0 SHL PUSH1 0x0 MSTORE PUSH1 0x32 PUSH1 0x4 MSTORE PUSH1 0x24 PUSH1 0x0 REVERT JUMPDEST PUSH1 0x0 DUP2 PUSH3 0xA2F JUMPI PUSH3 0xA2F PUSH3 0x8BD JUMP JUMPDEST POP PUSH1 0x0 NOT ADD SWAP1 JUMP JUMPDEST PUSH1 0x1 DUP2 DUP2 SHR SWAP1 DUP3 AND DUP1 PUSH3 0xA4C JUMPI PUSH1 0x7F DUP3 AND SWAP2 POP JUMPDEST PUSH1 0x20 DUP3 LT DUP2 SUB PUSH3 0xA6D JUMPI PUSH4 0x4E487B71 PUSH1 0xE0 SHL PUSH1 0x0 MSTORE PUSH1 0x22 PUSH1 0x4 MSTORE PUSH1 0x24 PUSH1 0x0 REVERT JUMPDEST POP SWAP2 SWAP1 POP JUMP JUMPDEST PUSH2 0x1680 DUP1 PUSH3 0xA83 PUSH1 0x0 CODECOPY PUSH1 0x0 RETURN INVALID PUSH1 0x80 PUSH1 0x40 MSTORE CALLVALUE DUP1 ISZERO PUSH2 0x10 JUMPI PUSH1 0x0 DUP1 REVERT JUMPDEST POP PUSH1 0x4 CALLDATASIZE LT PUSH2 0x1CF JUMPI PUSH1 0x0 CALLDATALOAD PUSH1 0xE0 SHR DUP1 PUSH4 0x79CC6790 GT PUSH2 0x104 JUMPI DUP1 PUSH4 0xB1441E79 GT PUSH2 0xA2 JUMPI DUP1 PUSH4 0xF26C159F GT PUSH2 0x71 JUMPI DUP1 PUSH4 0xF26C159F EQ PUSH2 0x3F9 JUMPI DUP1 PUSH4 0xF5074F41 EQ PUSH2 0x40C JUMPI DUP1 PUSH4 0xF98DF5CA EQ PUSH2 0x41F JUMPI DUP1 PUSH4 0xFA2DABAD EQ PUSH2 0x432 JUMPI PUSH1 0x0 DUP1 REVERT JUMPDEST DUP1 PUSH4 0xB1441E79 EQ PUSH2 0x37C JUMPI DUP1 PUSH4 0xCD4217C1 EQ PUSH2 0x3A7 JUMPI DUP1 PUSH4 0xD547741F EQ PUSH2 0x3D3 JUMPI DUP1 PUSH4 0xDD62ED3E EQ PUSH2 0x3E6 JUMPI PUSH1 0x0 DUP1 REVERT JUMPDEST DUP1 PUSH4 0x95D89B41 GT PUSH2 0xDE JUMPI DUP1 PUSH4 0x95D89B41 EQ PUSH2 0x346 JUMPI DUP1 PUSH4 0xA217FDDF EQ PUSH2 0x34E JUMPI DUP1 PUSH4 0xA457C2D7 EQ PUSH2 0x356 JUMPI DUP1 PUSH4 0xA9059CBB EQ PUSH2 0x369 JUMPI PUSH1 0x0 DUP1 REVERT JUMPDEST DUP1 PUSH4 0x79CC6790 EQ PUSH2 0x318 JUMPI DUP1 PUSH4 0x83197EF0 EQ PUSH2 0x32B JUMPI DUP1 PUSH4 0x91D14854 EQ PUSH2 0x333 JUMPI PUSH1 0x0 DUP1 REVERT JUMPDEST DUP1 PUSH4 0x313CE567 GT PUSH2 0x171 JUMPI DUP1 PUSH4 0x40C10F19 GT PUSH2 0x14B JUMPI DUP1 PUSH4 0x40C10F19 EQ PUSH2 0x2B6 JUMPI DUP1 PUSH4 0x42966C68 EQ PUSH2 0x2C9 JUMPI DUP1 PUSH4 0x53CC2FAE EQ PUSH2 0x2DC JUMPI DUP1 PUSH4 0x70A08231 EQ PUSH2 0x2EF JUMPI PUSH1 0x0 DUP1 REVERT JUMPDEST DUP1 PUSH4 0x313CE567 EQ PUSH2 0x281 JUMPI DUP1 PUSH4 0x36568ABE EQ PUSH2 0x290 JUMPI DUP1 PUSH4 0x39509351 EQ PUSH2 0x2A3 JUMPI PUSH1 0x0 DUP1 REVERT JUMPDEST DUP1 PUSH4 0x18160DDD GT PUSH2 0x1AD JUMPI DUP1 PUSH4 0x18160DDD EQ PUSH2 0x224 JUMPI DUP1 PUSH4 0x23B872DD EQ PUSH2 0x236 JUMPI DUP1 PUSH4 0x248A9CA3 EQ PUSH2 0x249 JUMPI DUP1 PUSH4 0x2F2FF15D EQ PUSH2 0x26C JUMPI PUSH1 0x0 DUP1 REVERT JUMPDEST DUP1 PUSH4 0x1FFC9A7 EQ PUSH2 0x1D4 JUMPI DUP1 PUSH4 0x6FDDE03 EQ PUSH2 0x1FC JUMPI DUP1 PUSH4 0x95EA7B3 EQ PUSH2 0x211 JUMPI JUMPDEST PUSH1 0x0 DUP1 REVERT JUMPDEST PUSH2 0x1E7 PUSH2 0x1E2 CALLDATASIZE PUSH1 0x4 PUSH2 0x135F JUMP JUMPDEST PUSH2 0x459 JUMP JUMPDEST PUSH1 0x40 MLOAD SWAP1 ISZERO ISZERO DUP2 MSTORE PUSH1 0x20 ADD JUMPDEST PUSH1 0x40 MLOAD DUP1 SWAP2 SUB SWAP1 RETURN JUMPDEST PUSH2 0x204 PUSH2 0x490 JUMP JUMPDEST PUSH1 0x40 MLOAD PUSH2 0x1F3 SWAP2 SWAP1 PUSH2 0x13B5 JUMP JUMPDEST PUSH2 0x1E7 PUSH2 0x21F CALLDATASIZE PUSH1 0x4 PUSH2 0x1404 JUMP JUMPDEST PUSH2 0x522 JUMP JUMPDEST PUSH1 0x2 SLOAD JUMPDEST PUSH1 0x40 MLOAD SWAP1 DUP2 MSTORE PUSH1 0x20 ADD PUSH2 0x1F3 JUMP JUMPDEST PUSH2 0x1E7 PUSH2 0x244 CALLDATASIZE PUSH1 0x4 PUSH2 0x142E JUMP JUMPDEST PUSH2 0x53A JUMP JUMPDEST PUSH2 0x228 PUSH2 0x257 CALLDATASIZE PUSH1 0x4 PUSH2 0x146A JUMP JUMPDEST PUSH1 0x0 SWAP1 DUP2 MSTORE PUSH1 0x5 PUSH1 0x20 MSTORE PUSH1 0x40 SWAP1 KECCAK256 PUSH1 0x1 ADD SLOAD SWAP1 JUMP JUMPDEST PUSH2 0x27F PUSH2 0x27A CALLDATASIZE PUSH1 0x4 PUSH2 0x1483 JUMP JUMPDEST PUSH2 0x55E JUMP JUMPDEST STOP JUMPDEST PUSH1 0x40 MLOAD PUSH1 0x7 DUP2 MSTORE PUSH1 0x20 ADD PUSH2 0x1F3 JUMP JUMPDEST PUSH2 0x27F PUSH2 0x29E CALLDATASIZE PUSH1 0x4 PUSH2 0x1483 JUMP JUMPDEST PUSH2 0x588 JUMP JUMPDEST PUSH2 0x1E7 PUSH2 0x2B1 CALLDATASIZE PUSH1 0x4 PUSH2 0x1404 JUMP JUMPDEST PUSH2 0x60B JUMP JUMPDEST PUSH2 0x27F PUSH2 0x2C4 CALLDATASIZE PUSH1 0x4 PUSH2 0x1404 JUMP JUMPDEST PUSH2 0x62D JUMP JUMPDEST PUSH2 0x27F PUSH2 0x2D7 CALLDATASIZE PUSH1 0x4 PUSH2 0x146A JUMP JUMPDEST PUSH2 0x642 JUMP JUMPDEST PUSH2 0x27F PUSH2 0x2EA CALLDATASIZE PUSH1 0x4 PUSH2 0x14AF JUMP JUMPDEST PUSH2 0x64F JUMP JUMPDEST PUSH2 0x228 PUSH2 0x2FD CALLDATASIZE PUSH1 0x4 PUSH2 0x14AF JUMP JUMPDEST PUSH1 0x1 PUSH1 0x1 PUSH1 0xA0 SHL SUB AND PUSH1 0x0 SWAP1 DUP2 MSTORE PUSH1 0x20 DUP2 SWAP1 MSTORE PUSH1 0x40 SWAP1 KECCAK256 SLOAD SWAP1 JUMP JUMPDEST PUSH2 0x27F PUSH2 0x326 CALLDATASIZE PUSH1 0x4 PUSH2 0x1404 JUMP JUMPDEST PUSH2 0x724 JUMP JUMPDEST PUSH2 0x27F PUSH2 0x739 JUMP JUMPDEST PUSH2 0x1E7 PUSH2 0x341 CALLDATASIZE PUSH1 0x4 PUSH2 0x1483 JUMP JUMPDEST PUSH2 0x747 JUMP JUMPDEST PUSH2 0x204 PUSH2 0x772 JUMP JUMPDEST PUSH2 0x228 PUSH1 0x0 DUP2 JUMP JUMPDEST PUSH2 0x1E7 PUSH2 0x364 CALLDATASIZE PUSH1 0x4 PUSH2 0x1404 JUMP JUMPDEST PUSH2 0x781 JUMP JUMPDEST PUSH2 0x1E7 PUSH2 0x377 CALLDATASIZE PUSH1 0x4 PUSH2 0x1404 JUMP JUMPDEST PUSH2 0x7FC JUMP JUMPDEST PUSH1 0x6 SLOAD PUSH2 0x38F SWAP1 PUSH1 0x1 PUSH1 0x1 PUSH1 0xA0 SHL SUB AND DUP2 JUMP JUMPDEST PUSH1 0x40 MLOAD PUSH1 0x1 PUSH1 0x1 PUSH1 0xA0 SHL SUB SWAP1 SWAP2 AND DUP2 MSTORE PUSH1 0x20 ADD PUSH2 0x1F3 JUMP JUMPDEST PUSH2 0x1E7 PUSH2 0x3B5 CALLDATASIZE PUSH1 0x4 PUSH2 0x14AF JUMP JUMPDEST PUSH1 0x1 PUSH1 0x1 PUSH1 0xA0 SHL SUB AND PUSH1 0x0 SWAP1 DUP2 MSTORE PUSH1 0x9 PUSH1 0x20 MSTORE PUSH1 0x40 SWAP1 KECCAK256 SLOAD PUSH1 0xFF AND SWAP1 JUMP JUMPDEST PUSH2 0x27F PUSH2 0x3E1 CALLDATASIZE PUSH1 0x4 PUSH2 0x1483 JUMP JUMPDEST PUSH2 0x80A JUMP JUMPDEST PUSH2 0x228 PUSH2 0x3F4 CALLDATASIZE PUSH1 0x4 PUSH2 0x14CA JUMP JUMPDEST PUSH2 0x82F JUMP JUMPDEST PUSH2 0x27F PUSH2 0x407 CALLDATASIZE PUSH1 0x4 PUSH2 0x14AF JUMP JUMPDEST PUSH2 0x85A JUMP JUMPDEST PUSH2 0x27F PUSH2 0x41A CALLDATASIZE PUSH1 0x4 PUSH2 0x14AF JUMP JUMPDEST PUSH2 0x930 JUMP JUMPDEST PUSH1 0x7 SLOAD PUSH2 0x38F SWAP1 PUSH1 0x1 PUSH1 0x1 PUSH1 0xA0 SHL SUB AND DUP2 JUMP JUMPDEST PUSH2 0x228 PUSH32 0x36FD43EDE163045B10E1F0ABD16F62F165FCE3FA7B6CDE217BCEA3BC47663ACC DUP2 JUMP JUMPDEST PUSH1 0x0 PUSH1 0x1 PUSH1 0x1 PUSH1 0xE0 SHL SUB NOT DUP3 AND PUSH4 0x7965DB0B PUSH1 0xE0 SHL EQ DUP1 PUSH2 0x48A JUMPI POP PUSH4 0x1FFC9A7 PUSH1 0xE0 SHL PUSH1 0x1 PUSH1 0x1 PUSH1 0xE0 SHL SUB NOT DUP4 AND EQ JUMPDEST SWAP3 SWAP2 POP POP JUMP JUMPDEST PUSH1 0x60 PUSH1 0x3 DUP1 SLOAD PUSH2 0x49F SWAP1 PUSH2 0x14F4 JUMP JUMPDEST DUP1 PUSH1 0x1F ADD PUSH1 0x20 DUP1 SWAP2 DIV MUL PUSH1 0x20 ADD PUSH1 0x40 MLOAD SWAP1 DUP2 ADD PUSH1 0x40 MSTORE DUP1 SWAP3 SWAP2 SWAP1 DUP2 DUP2 MSTORE PUSH1 0x20 ADD DUP3 DUP1 SLOAD PUSH2 0x4CB SWAP1 PUSH2 0x14F4 JUMP JUMPDEST DUP1 ISZERO PUSH2 0x518 JUMPI DUP1 PUSH1 0x1F LT PUSH2 0x4ED JUMPI PUSH2 0x100 DUP1 DUP4 SLOAD DIV MUL DUP4 MSTORE SWAP2 PUSH1 0x20 ADD SWAP2 PUSH2 0x518 JUMP JUMPDEST DUP3 ADD SWAP2 SWAP1 PUSH1 0x0 MSTORE PUSH1 0x20 PUSH1 0x0 KECCAK256 SWAP1 JUMPDEST DUP2 SLOAD DUP2 MSTORE SWAP1 PUSH1 0x1 ADD SWAP1 PUSH1 0x20 ADD DUP1 DUP4 GT PUSH2 0x4FB JUMPI DUP3 SWAP1 SUB PUSH1 0x1F AND DUP3 ADD SWAP2 JUMPDEST POP POP POP POP POP SWAP1 POP SWAP1 JUMP JUMPDEST PUSH1 0x0 CALLER PUSH2 0x530 DUP2 DUP6 DUP6 PUSH2 0xAEA JUMP JUMPDEST POP PUSH1 0x1 SWAP4 SWAP3 POP POP POP JUMP JUMPDEST PUSH1 0x0 CALLER PUSH2 0x548 DUP6 DUP3 DUP6 PUSH2 0xC0E JUMP JUMPDEST PUSH2 0x553 DUP6 DUP6 DUP6 PUSH2 0xC88 JUMP JUMPDEST POP PUSH1 0x1 SWAP5 SWAP4 POP POP POP POP JUMP JUMPDEST PUSH1 0x0 DUP3 DUP2 MSTORE PUSH1 0x5 PUSH1 0x20 MSTORE PUSH1 0x40 SWAP1 KECCAK256 PUSH1 0x1 ADD SLOAD PUSH2 0x579 DUP2 PUSH2 0xE61 JUMP JUMPDEST PUSH2 0x583 DUP4 DUP4 PUSH2 0xE6B JUMP JUMPDEST POP POP POP JUMP JUMPDEST PUSH1 0x1 PUSH1 0x1 PUSH1 0xA0 SHL SUB DUP2 AND CALLER EQ PUSH2 0x5FD JUMPI PUSH1 0x40 MLOAD PUSH3 0x461BCD PUSH1 0xE5 SHL DUP2 MSTORE PUSH1 0x20 PUSH1 0x4 DUP3 ADD MSTORE PUSH1 0x2F PUSH1 0x24 DUP3 ADD MSTORE PUSH32 0x416363657373436F6E74726F6C3A2063616E206F6E6C792072656E6F756E6365 PUSH1 0x44 DUP3 ADD MSTORE PUSH15 0x103937B632B9903337B91039B2B633 PUSH1 0x89 SHL PUSH1 0x64 DUP3 ADD MSTORE PUSH1 0x84 ADD JUMPDEST PUSH1 0x40 MLOAD DUP1 SWAP2 SUB SWAP1 REVERT JUMPDEST PUSH2 0x607 DUP3 DUP3 PUSH2 0xEF1 JUMP JUMPDEST POP POP JUMP JUMPDEST PUSH1 0x0 CALLER PUSH2 0x530 DUP2 DUP6 DUP6 PUSH2 0x61E DUP4 DUP4 PUSH2 0x82F JUMP JUMPDEST PUSH2 0x628 SWAP2 SWAP1 PUSH2 0x1544 JUMP JUMPDEST PUSH2 0xAEA JUMP JUMPDEST PUSH1 0x0 PUSH2 0x638 DUP2 PUSH2 0xE61 JUMP JUMPDEST PUSH2 0x583 DUP4 DUP4 PUSH2 0xF58 JUMP JUMPDEST PUSH2 0x64C CALLER DUP3 PUSH2 0x1043 JUMP JUMPDEST POP JUMP JUMPDEST PUSH1 0x0 PUSH2 0x65A DUP2 PUSH2 0xE61 JUMP JUMPDEST PUSH1 0x1 PUSH1 0x1 PUSH1 0xA0 SHL SUB DUP3 AND PUSH1 0x0 SWAP1 DUP2 MSTORE PUSH1 0x9 PUSH1 0x20 MSTORE PUSH1 0x40 SWAP1 KECCAK256 SLOAD PUSH1 0xFF AND PUSH2 0x6CD JUMPI PUSH1 0x40 MLOAD PUSH3 0x461BCD PUSH1 0xE5 SHL DUP2 MSTORE PUSH1 0x20 PUSH1 0x4 DUP3 ADD MSTORE PUSH1 0x22 PUSH1 0x24 DUP3 ADD MSTORE PUSH32 0x494E4E544F4B454E203A206163636F756E74206D75737420626520667265657A PUSH1 0x44 DUP3 ADD MSTORE PUSH2 0x1959 PUSH1 0xF2 SHL PUSH1 0x64 DUP3 ADD MSTORE PUSH1 0x84 ADD PUSH2 0x5F4 JUMP JUMPDEST PUSH1 0x1 PUSH1 0x1 PUSH1 0xA0 SHL SUB DUP3 AND PUSH1 0x0 DUP2 DUP2 MSTORE PUSH1 0x9 PUSH1 0x20 SWAP1 DUP2 MSTORE PUSH1 0x40 DUP1 DUP4 KECCAK256 DUP1 SLOAD PUSH1 0xFF NOT AND SWAP1 SSTORE MLOAD SWAP2 DUP3 MSTORE PUSH32 0x48335238B4855F35377ED80F164E8C6F3C366E54AC00B96A6402D4A9814A03A5 SWAP2 ADD JUMPDEST PUSH1 0x40 MLOAD DUP1 SWAP2 SUB SWAP1 LOG2 POP POP JUMP JUMPDEST PUSH2 0x72F DUP3 CALLER DUP4 PUSH2 0xC0E JUMP JUMPDEST PUSH2 0x607 DUP3 DUP3 PUSH2 0x1043 JUMP JUMPDEST PUSH1 0x0 PUSH2 0x744 DUP2 PUSH2 0xE61 JUMP JUMPDEST CALLER SELFDESTRUCT JUMPDEST PUSH1 0x0 SWAP2 DUP3 MSTORE PUSH1 0x5 PUSH1 0x20 SWAP1 DUP2 MSTORE PUSH1 0x40 DUP1 DUP5 KECCAK256 PUSH1 0x1 PUSH1 0x1 PUSH1 0xA0 SHL SUB SWAP4 SWAP1 SWAP4 AND DUP5 MSTORE SWAP2 SWAP1 MSTORE SWAP1 KECCAK256 SLOAD PUSH1 0xFF AND SWAP1 JUMP JUMPDEST PUSH1 0x60 PUSH1 0x4 DUP1 SLOAD PUSH2 0x49F SWAP1 PUSH2 0x14F4 JUMP JUMPDEST PUSH1 0x0 CALLER DUP2 PUSH2 0x78F DUP3 DUP7 PUSH2 0x82F JUMP JUMPDEST SWAP1 POP DUP4 DUP2 LT ISZERO PUSH2 0x7EF JUMPI PUSH1 0x40 MLOAD PUSH3 0x461BCD PUSH1 0xE5 SHL DUP2 MSTORE PUSH1 0x20 PUSH1 0x4 DUP3 ADD MSTORE PUSH1 0x25 PUSH1 0x24 DUP3 ADD MSTORE PUSH32 0x45524332303A2064656372656173656420616C6C6F77616E63652062656C6F77 PUSH1 0x44 DUP3 ADD MSTORE PUSH5 0x207A65726F PUSH1 0xD8 SHL PUSH1 0x64 DUP3 ADD MSTORE PUSH1 0x84 ADD PUSH2 0x5F4 JUMP JUMPDEST PUSH2 0x553 DUP3 DUP7 DUP7 DUP5 SUB PUSH2 0xAEA JUMP JUMPDEST PUSH1 0x0 CALLER PUSH2 0x530 DUP2 DUP6 DUP6 PUSH2 0xC88 JUMP JUMPDEST PUSH1 0x0 DUP3 DUP2 MSTORE PUSH1 0x5 PUSH1 0x20 MSTORE PUSH1 0x40 SWAP1 KECCAK256 PUSH1 0x1 ADD SLOAD PUSH2 0x825 DUP2 PUSH2 0xE61 JUMP JUMPDEST PUSH2 0x583 DUP4 DUP4 PUSH2 0xEF1 JUMP JUMPDEST PUSH1 0x1 PUSH1 0x1 PUSH1 0xA0 SHL SUB SWAP2 DUP3 AND PUSH1 0x0 SWAP1 DUP2 MSTORE PUSH1 0x1 PUSH1 0x20 SWAP1 DUP2 MSTORE PUSH1 0x40 DUP1 DUP4 KECCAK256 SWAP4 SWAP1 SWAP5 AND DUP3 MSTORE SWAP2 SWAP1 SWAP2 MSTORE KECCAK256 SLOAD SWAP1 JUMP JUMPDEST PUSH1 0x0 PUSH2 0x865 DUP2 PUSH2 0xE61 JUMP JUMPDEST PUSH1 0x1 PUSH1 0x1 PUSH1 0xA0 SHL SUB DUP3 AND PUSH1 0x0 SWAP1 DUP2 MSTORE PUSH1 0x20 DUP2 SWAP1 MSTORE PUSH1 0x40 DUP2 KECCAK256 SLOAD GT PUSH2 0x8D9 JUMPI PUSH1 0x40 MLOAD PUSH3 0x461BCD PUSH1 0xE5 SHL DUP2 MSTORE PUSH1 0x20 PUSH1 0x4 DUP3 ADD MSTORE PUSH1 0x25 PUSH1 0x24 DUP3 ADD MSTORE PUSH32 0x494E4E544F4B454E203A206163636F756E74206D757374206861732061206261 PUSH1 0x44 DUP3 ADD MSTORE PUSH5 0x6C616E6365 PUSH1 0xD8 SHL PUSH1 0x64 DUP3 ADD MSTORE PUSH1 0x84 ADD PUSH2 0x5F4 JUMP JUMPDEST PUSH1 0x1 PUSH1 0x1 PUSH1 0xA0 SHL SUB DUP3 AND PUSH1 0x0 DUP2 DUP2 MSTORE PUSH1 0x9 PUSH1 0x20 SWAP1 DUP2 MSTORE PUSH1 0x40 SWAP2 DUP3 SWAP1 KECCAK256 DUP1 SLOAD PUSH1 0xFF NOT AND PUSH1 0x1 SWAP1 DUP2 OR SWAP1 SWAP2 SSTORE SWAP2 MLOAD SWAP2 DUP3 MSTORE PUSH32 0x48335238B4855F35377ED80F164E8C6F3C366E54AC00B96A6402D4A9814A03A5 SWAP2 ADD PUSH2 0x718 JUMP JUMPDEST PUSH1 0x0 PUSH2 0x93B DUP2 PUSH2 0xE61 JUMP JUMPDEST DUP2 PUSH1 0x1 PUSH1 0x1 PUSH1 0xA0 SHL SUB AND SELFDESTRUCT JUMPDEST PUSH1 0x60 PUSH1 0x0 PUSH2 0x956 DUP4 PUSH1 0x2 PUSH2 0x155C JUMP JUMPDEST PUSH2 0x961 SWAP1 PUSH1 0x2 PUSH2 0x1544 JUMP JUMPDEST PUSH8 0xFFFFFFFFFFFFFFFF DUP2 GT ISZERO PUSH2 0x979 JUMPI PUSH2 0x979 PUSH2 0x157B JUMP JUMPDEST PUSH1 0x40 MLOAD SWAP1 DUP1 DUP3 MSTORE DUP1 PUSH1 0x1F ADD PUSH1 0x1F NOT AND PUSH1 0x20 ADD DUP3 ADD PUSH1 0x40 MSTORE DUP1 ISZERO PUSH2 0x9A3 JUMPI PUSH1 0x20 DUP3 ADD DUP2 DUP1 CALLDATASIZE DUP4 CALLDATACOPY ADD SWAP1 POP JUMPDEST POP SWAP1 POP PUSH1 0x3 PUSH1 0xFC SHL DUP2 PUSH1 0x0 DUP2 MLOAD DUP2 LT PUSH2 0x9BE JUMPI PUSH2 0x9BE PUSH2 0x1591 JUMP JUMPDEST PUSH1 0x20 ADD ADD SWAP1 PUSH1 0x1 PUSH1 0x1 PUSH1 0xF8 SHL SUB NOT AND SWAP1 DUP2 PUSH1 0x0 BYTE SWAP1 MSTORE8 POP PUSH1 0xF PUSH1 0xFB SHL DUP2 PUSH1 0x1 DUP2 MLOAD DUP2 LT PUSH2 0x9ED JUMPI PUSH2 0x9ED PUSH2 0x1591 JUMP JUMPDEST PUSH1 0x20 ADD ADD SWAP1 PUSH1 0x1 PUSH1 0x1 PUSH1 0xF8 SHL SUB NOT AND SWAP1 DUP2 PUSH1 0x0 BYTE SWAP1 MSTORE8 POP PUSH1 0x0 PUSH2 0xA11 DUP5 PUSH1 0x2 PUSH2 0x155C JUMP JUMPDEST PUSH2 0xA1C SWAP1 PUSH1 0x1 PUSH2 0x1544 JUMP JUMPDEST SWAP1 POP JUMPDEST PUSH1 0x1 DUP2 GT ISZERO PUSH2 0xA94 JUMPI PUSH16 0x181899199A1A9B1B9C1CB0B131B232B3 PUSH1 0x81 SHL DUP6 PUSH1 0xF AND PUSH1 0x10 DUP2 LT PUSH2 0xA50 JUMPI PUSH2 0xA50 PUSH2 0x1591 JUMP JUMPDEST BYTE PUSH1 0xF8 SHL DUP3 DUP3 DUP2 MLOAD DUP2 LT PUSH2 0xA66 JUMPI PUSH2 0xA66 PUSH2 0x1591 JUMP JUMPDEST PUSH1 0x20 ADD ADD SWAP1 PUSH1 0x1 PUSH1 0x1 PUSH1 0xF8 SHL SUB NOT AND SWAP1 DUP2 PUSH1 0x0 BYTE SWAP1 MSTORE8 POP PUSH1 0x4 SWAP5 SWAP1 SWAP5 SHR SWAP4 PUSH2 0xA8D DUP2 PUSH2 0x15A7 JUMP JUMPDEST SWAP1 POP PUSH2 0xA1F JUMP JUMPDEST POP DUP4 ISZERO PUSH2 0xAE3 JUMPI PUSH1 0x40 MLOAD PUSH3 0x461BCD PUSH1 0xE5 SHL DUP2 MSTORE PUSH1 0x20 PUSH1 0x4 DUP3 ADD DUP2 SWAP1 MSTORE PUSH1 0x24 DUP3 ADD MSTORE PUSH32 0x537472696E67733A20686578206C656E67746820696E73756666696369656E74 PUSH1 0x44 DUP3 ADD MSTORE PUSH1 0x64 ADD PUSH2 0x5F4 JUMP JUMPDEST SWAP4 SWAP3 POP POP POP JUMP JUMPDEST PUSH1 0x1 PUSH1 0x1 PUSH1 0xA0 SHL SUB DUP4 AND PUSH2 0xB4C JUMPI PUSH1 0x40 MLOAD PUSH3 0x461BCD PUSH1 0xE5 SHL DUP2 MSTORE PUSH1 0x20 PUSH1 0x4 DUP3 ADD MSTORE PUSH1 0x24 DUP1 DUP3 ADD MSTORE PUSH32 0x45524332303A20617070726F76652066726F6D20746865207A65726F20616464 PUSH1 0x44 DUP3 ADD MSTORE PUSH4 0x72657373 PUSH1 0xE0 SHL PUSH1 0x64 DUP3 ADD MSTORE PUSH1 0x84 ADD PUSH2 0x5F4 JUMP JUMPDEST PUSH1 0x1 PUSH1 0x1 PUSH1 0xA0 SHL SUB DUP3 AND PUSH2 0xBAD JUMPI PUSH1 0x40 MLOAD PUSH3 0x461BCD PUSH1 0xE5 SHL DUP2 MSTORE PUSH1 0x20 PUSH1 0x4 DUP3 ADD MSTORE PUSH1 0x22 PUSH1 0x24 DUP3 ADD MSTORE PUSH32 0x45524332303A20617070726F766520746F20746865207A65726F206164647265 PUSH1 0x44 DUP3 ADD MSTORE PUSH2 0x7373 PUSH1 0xF0 SHL PUSH1 0x64 DUP3 ADD MSTORE PUSH1 0x84 ADD PUSH2 0x5F4 JUMP JUMPDEST PUSH1 0x1 PUSH1 0x1 PUSH1 0xA0 SHL SUB DUP4 DUP2 AND PUSH1 0x0 DUP2 DUP2 MSTORE PUSH1 0x1 PUSH1 0x20 SWAP1 DUP2 MSTORE PUSH1 0x40 DUP1 DUP4 KECCAK256 SWAP5 DUP8 AND DUP1 DUP5 MSTORE SWAP5 DUP3 MSTORE SWAP2 DUP3 SWAP1 KECCAK256 DUP6 SWAP1 SSTORE SWAP1 MLOAD DUP5 DUP2 MSTORE PUSH32 0x8C5BE1E5EBEC7D5BD14F71427D1E84F3DD0314C0F7B2291E5B200AC8C7C3B925 SWAP2 ADD PUSH1 0x40 MLOAD DUP1 SWAP2 SUB SWAP1 LOG3 POP POP POP JUMP JUMPDEST PUSH1 0x0 PUSH2 0xC1A DUP5 DUP5 PUSH2 0x82F JUMP JUMPDEST SWAP1 POP PUSH1 0x0 NOT DUP2 EQ PUSH2 0xC82 JUMPI DUP2 DUP2 LT ISZERO PUSH2 0xC75 JUMPI PUSH1 0x40 MLOAD PUSH3 0x461BCD PUSH1 0xE5 SHL DUP2 MSTORE PUSH1 0x20 PUSH1 0x4 DUP3 ADD MSTORE PUSH1 0x1D PUSH1 0x24 DUP3 ADD MSTORE PUSH32 0x45524332303A20696E73756666696369656E7420616C6C6F77616E6365000000 PUSH1 0x44 DUP3 ADD MSTORE PUSH1 0x64 ADD PUSH2 0x5F4 JUMP JUMPDEST PUSH2 0xC82 DUP5 DUP5 DUP5 DUP5 SUB PUSH2 0xAEA JUMP JUMPDEST POP POP POP POP JUMP JUMPDEST PUSH1 0x1 PUSH1 0x1 PUSH1 0xA0 SHL SUB DUP4 AND PUSH2 0xCEC JUMPI PUSH1 0x40 MLOAD PUSH3 0x461BCD PUSH1 0xE5 SHL DUP2 MSTORE PUSH1 0x20 PUSH1 0x4 DUP3 ADD MSTORE PUSH1 0x25 PUSH1 0x24 DUP3 ADD MSTORE PUSH32 0x45524332303A207472616E736665722066726F6D20746865207A65726F206164 PUSH1 0x44 DUP3 ADD MSTORE PUSH5 0x6472657373 PUSH1 0xD8 SHL PUSH1 0x64 DUP3 ADD MSTORE PUSH1 0x84 ADD PUSH2 0x5F4 JUMP JUMPDEST PUSH1 0x1 PUSH1 0x1 PUSH1 0xA0 SHL SUB DUP3 AND PUSH2 0xD4E JUMPI PUSH1 0x40 MLOAD PUSH3 0x461BCD PUSH1 0xE5 SHL DUP2 MSTORE PUSH1 0x20 PUSH1 0x4 DUP3 ADD MSTORE PUSH1 0x23 PUSH1 0x24 DUP3 ADD MSTORE PUSH32 0x45524332303A207472616E7366657220746F20746865207A65726F2061646472 PUSH1 0x44 DUP3 ADD MSTORE PUSH3 0x657373 PUSH1 0xE8 SHL PUSH1 0x64 DUP3 ADD MSTORE PUSH1 0x84 ADD PUSH2 0x5F4 JUMP JUMPDEST PUSH2 0xD59 DUP4 DUP4 DUP4 PUSH2 0x119D JUMP JUMPDEST PUSH1 0x1 PUSH1 0x1 PUSH1 0xA0 SHL SUB DUP4 AND PUSH1 0x0 SWAP1 DUP2 MSTORE PUSH1 0x20 DUP2 SWAP1 MSTORE PUSH1 0x40 SWAP1 KECCAK256 SLOAD DUP2 DUP2 LT ISZERO PUSH2 0xDD1 JUMPI PUSH1 0x40 MLOAD PUSH3 0x461BCD PUSH1 0xE5 SHL DUP2 MSTORE PUSH1 0x20 PUSH1 0x4 DUP3 ADD MSTORE PUSH1 0x26 PUSH1 0x24 DUP3 ADD MSTORE PUSH32 0x45524332303A207472616E7366657220616D6F756E7420657863656564732062 PUSH1 0x44 DUP3 ADD MSTORE PUSH6 0x616C616E6365 PUSH1 0xD0 SHL PUSH1 0x64 DUP3 ADD MSTORE PUSH1 0x84 ADD PUSH2 0x5F4 JUMP JUMPDEST PUSH1 0x1 PUSH1 0x1 PUSH1 0xA0 SHL SUB DUP1 DUP6 AND PUSH1 0x0 SWAP1 DUP2 MSTORE PUSH1 0x20 DUP2 SWAP1 MSTORE PUSH1 0x40 DUP1 DUP3 KECCAK256 DUP6 DUP6 SUB SWAP1 SSTORE SWAP2 DUP6 AND DUP2 MSTORE SWAP1 DUP2 KECCAK256 DUP1 SLOAD DUP5 SWAP3 SWAP1 PUSH2 0xE08 SWAP1 DUP5 SWAP1 PUSH2 0x1544 JUMP JUMPDEST SWAP3 POP POP DUP2 SWAP1 SSTORE POP DUP3 PUSH1 0x1 PUSH1 0x1 PUSH1 0xA0 SHL SUB AND DUP5 PUSH1 0x1 PUSH1 0x1 PUSH1 0xA0 SHL SUB AND PUSH32 0xDDF252AD1BE2C89B69C2B068FC378DAA952BA7F163C4A11628F55A4DF523B3EF DUP5 PUSH1 0x40 MLOAD PUSH2 0xE54 SWAP2 DUP2 MSTORE PUSH1 0x20 ADD SWAP1 JUMP JUMPDEST PUSH1 0x40 MLOAD DUP1 SWAP2 SUB SWAP1 LOG3 PUSH2 0xC82 JUMP JUMPDEST PUSH2 0x64C DUP2 CALLER PUSH2 0x12FB JUMP JUMPDEST PUSH2 0xE75 DUP3 DUP3 PUSH2 0x747 JUMP JUMPDEST PUSH2 0x607 JUMPI PUSH1 0x0 DUP3 DUP2 MSTORE PUSH1 0x5 PUSH1 0x20 SWAP1 DUP2 MSTORE PUSH1 0x40 DUP1 DUP4 KECCAK256 PUSH1 0x1 PUSH1 0x1 PUSH1 0xA0 SHL SUB DUP6 AND DUP5 MSTORE SWAP1 SWAP2 MSTORE SWAP1 KECCAK256 DUP1 SLOAD PUSH1 0xFF NOT AND PUSH1 0x1 OR SWAP1 SSTORE PUSH2 0xEAD CALLER SWAP1 JUMP JUMPDEST PUSH1 0x1 PUSH1 0x1 PUSH1 0xA0 SHL SUB AND DUP2 PUSH1 0x1 PUSH1 0x1 PUSH1 0xA0 SHL SUB AND DUP4 PUSH32 0x2F8788117E7EFF1D82E926EC794901D17C78024A50270940304540A733656F0D PUSH1 0x40 MLOAD PUSH1 0x40 MLOAD DUP1 SWAP2 SUB SWAP1 LOG4 POP POP JUMP JUMPDEST PUSH2 0xEFB DUP3 DUP3 PUSH2 0x747 JUMP JUMPDEST ISZERO PUSH2 0x607 JUMPI PUSH1 0x0 DUP3 DUP2 MSTORE PUSH1 0x5 PUSH1 0x20 SWAP1 DUP2 MSTORE PUSH1 0x40 DUP1 DUP4 KECCAK256 PUSH1 0x1 PUSH1 0x1 PUSH1 0xA0 SHL SUB DUP6 AND DUP1 DUP6 MSTORE SWAP3 MSTORE DUP1 DUP4 KECCAK256 DUP1 SLOAD PUSH1 0xFF NOT AND SWAP1 SSTORE MLOAD CALLER SWAP3 DUP6 SWAP2 PUSH32 0xF6391F5C32D9C69D2A47EA670B442974B53935D1EDC7FD64EB21E047A839171B SWAP2 SWAP1 LOG4 POP POP JUMP JUMPDEST PUSH1 0x1 PUSH1 0x1 PUSH1 0xA0 SHL SUB DUP3 AND PUSH2 0xFAE JUMPI PUSH1 0x40 MLOAD PUSH3 0x461BCD PUSH1 0xE5 SHL DUP2 MSTORE PUSH1 0x20 PUSH1 0x4 DUP3 ADD MSTORE PUSH1 0x1F PUSH1 0x24 DUP3 ADD MSTORE PUSH32 0x45524332303A206D696E7420746F20746865207A65726F206164647265737300 PUSH1 0x44 DUP3 ADD MSTORE PUSH1 0x64 ADD PUSH2 0x5F4 JUMP JUMPDEST PUSH2 0xFBA PUSH1 0x0 DUP4 DUP4 PUSH2 0x119D JUMP JUMPDEST DUP1 PUSH1 0x2 PUSH1 0x0 DUP3 DUP3 SLOAD PUSH2 0xFCC SWAP2 SWAP1 PUSH2 0x1544 JUMP JUMPDEST SWAP1 SWAP2 SSTORE POP POP PUSH1 0x1 PUSH1 0x1 PUSH1 0xA0 SHL SUB DUP3 AND PUSH1 0x0 SWAP1 DUP2 MSTORE PUSH1 0x20 DUP2 SWAP1 MSTORE PUSH1 0x40 DUP2 KECCAK256 DUP1 SLOAD DUP4 SWAP3 SWAP1 PUSH2 0xFF9 SWAP1 DUP5 SWAP1 PUSH2 0x1544 JUMP JUMPDEST SWAP1 SWAP2 SSTORE POP POP PUSH1 0x40 MLOAD DUP2 DUP2 MSTORE PUSH1 0x1 PUSH1 0x1 PUSH1 0xA0 SHL SUB DUP4 AND SWAP1 PUSH1 0x0 SWAP1 PUSH32 0xDDF252AD1BE2C89B69C2B068FC378DAA952BA7F163C4A11628F55A4DF523B3EF SWAP1 PUSH1 0x20 ADD PUSH1 0x40 MLOAD DUP1 SWAP2 SUB SWAP1 LOG3 POP POP JUMP JUMPDEST PUSH1 0x1 PUSH1 0x1 PUSH1 0xA0 SHL SUB DUP3 AND PUSH2 0x10A3 JUMPI PUSH1 0x40 MLOAD PUSH3 0x461BCD PUSH1 0xE5 SHL DUP2 MSTORE PUSH1 0x20 PUSH1 0x4 DUP3 ADD MSTORE PUSH1 0x21 PUSH1 0x24 DUP3 ADD MSTORE PUSH32 0x45524332303A206275726E2066726F6D20746865207A65726F20616464726573 PUSH1 0x44 DUP3 ADD MSTORE PUSH1 0x73 PUSH1 0xF8 SHL PUSH1 0x64 DUP3 ADD MSTORE PUSH1 0x84 ADD PUSH2 0x5F4 JUMP JUMPDEST PUSH2 0x10AF DUP3 PUSH1 0x0 DUP4 PUSH2 0x119D JUMP JUMPDEST PUSH1 0x1 PUSH1 0x1 PUSH1 0xA0 SHL SUB DUP3 AND PUSH1 0x0 SWAP1 DUP2 MSTORE PUSH1 0x20 DUP2 SWAP1 MSTORE PUSH1 0x40 SWAP1 KECCAK256 SLOAD DUP2 DUP2 LT ISZERO PUSH2 0x1123 JUMPI PUSH1 0x40 MLOAD PUSH3 0x461BCD PUSH1 0xE5 SHL DUP2 MSTORE PUSH1 0x20 PUSH1 0x4 DUP3 ADD MSTORE PUSH1 0x22 PUSH1 0x24 DUP3 ADD MSTORE PUSH32 0x45524332303A206275726E20616D6F756E7420657863656564732062616C616E PUSH1 0x44 DUP3 ADD MSTORE PUSH2 0x6365 PUSH1 0xF0 SHL PUSH1 0x64 DUP3 ADD MSTORE PUSH1 0x84 ADD PUSH2 0x5F4 JUMP JUMPDEST PUSH1 0x1 PUSH1 0x1 PUSH1 0xA0 SHL SUB DUP4 AND PUSH1 0x0 SWAP1 DUP2 MSTORE PUSH1 0x20 DUP2 SWAP1 MSTORE PUSH1 0x40 DUP2 KECCAK256 DUP4 DUP4 SUB SWAP1 SSTORE PUSH1 0x2 DUP1 SLOAD DUP5 SWAP3 SWAP1 PUSH2 0x1152 SWAP1 DUP5 SWAP1 PUSH2 0x15BE JUMP JUMPDEST SWAP1 SWAP2 SSTORE POP POP PUSH1 0x40 MLOAD DUP3 DUP2 MSTORE PUSH1 0x0 SWAP1 PUSH1 0x1 PUSH1 0x1 PUSH1 0xA0 SHL SUB DUP6 AND SWAP1 PUSH32 0xDDF252AD1BE2C89B69C2B068FC378DAA952BA7F163C4A11628F55A4DF523B3EF SWAP1 PUSH1 0x20 ADD PUSH1 0x40 MLOAD DUP1 SWAP2 SUB SWAP1 LOG3 POP POP POP JUMP JUMPDEST PUSH1 0x7 SLOAD PUSH1 0x1 PUSH1 0x1 PUSH1 0xA0 SHL SUB SWAP1 DUP2 AND SWAP1 DUP5 AND SUB PUSH2 0x1266 JUMPI PUSH2 0x11DD PUSH32 0x36FD43EDE163045B10E1F0ABD16F62F165FCE3FA7B6CDE217BCEA3BC47663ACC CALLER PUSH2 0x747 JUMP JUMPDEST PUSH2 0x1261 JUMPI PUSH1 0x40 MLOAD PUSH3 0x461BCD PUSH1 0xE5 SHL DUP2 MSTORE PUSH1 0x20 PUSH1 0x4 DUP3 ADD MSTORE PUSH1 0x49 PUSH1 0x24 DUP3 ADD MSTORE PUSH32 0x494E4E544F4B454E203A206F6E6C7920434F4E53454E5355535F524F4C452063 PUSH1 0x44 DUP3 ADD MSTORE PUSH32 0x616E207472616E736665722066726F6D2052455345525645535F57414C4C4554 PUSH1 0x64 DUP3 ADD MSTORE PUSH9 0x2FA0A2222922A9A99 PUSH1 0xBD SHL PUSH1 0x84 DUP3 ADD MSTORE PUSH1 0xA4 ADD PUSH2 0x5F4 JUMP JUMPDEST PUSH2 0x1290 JUMP JUMPDEST PUSH1 0x6 SLOAD PUSH1 0x1 PUSH1 0x1 PUSH1 0xA0 SHL SUB SWAP1 DUP2 AND SWAP1 DUP5 AND SUB PUSH2 0x1290 JUMPI PUSH2 0x1287 PUSH1 0x0 CALLER PUSH2 0x747 JUMP JUMPDEST PUSH2 0x1290 JUMPI PUSH1 0x0 DUP1 REVERT JUMPDEST CALLER PUSH1 0x0 SWAP1 DUP2 MSTORE PUSH1 0x9 PUSH1 0x20 MSTORE PUSH1 0x40 SWAP1 KECCAK256 SLOAD PUSH1 0xFF AND ISZERO PUSH2 0x583 JUMPI PUSH1 0x40 MLOAD PUSH3 0x461BCD PUSH1 0xE5 SHL DUP2 MSTORE PUSH1 0x20 PUSH1 0x4 DUP3 ADD MSTORE PUSH1 0x22 PUSH1 0x24 DUP3 ADD MSTORE PUSH32 0x494E4E546F6B656E203A20616C7265616479206163636F756E7420667265657A PUSH1 0x44 DUP3 ADD MSTORE PUSH2 0x1959 PUSH1 0xF2 SHL PUSH1 0x64 DUP3 ADD MSTORE PUSH1 0x84 ADD PUSH2 0x5F4 JUMP JUMPDEST PUSH2 0x1305 DUP3 DUP3 PUSH2 0x747 JUMP JUMPDEST PUSH2 0x607 JUMPI PUSH2 0x131D DUP2 PUSH1 0x1 PUSH1 0x1 PUSH1 0xA0 SHL SUB AND PUSH1 0x14 PUSH2 0x947 JUMP JUMPDEST PUSH2 0x1328 DUP4 PUSH1 0x20 PUSH2 0x947 JUMP JUMPDEST PUSH1 0x40 MLOAD PUSH1 0x20 ADD PUSH2 0x1339 SWAP3 SWAP2 SWAP1 PUSH2 0x15D5 JUMP JUMPDEST PUSH1 0x40 DUP1 MLOAD PUSH1 0x1F NOT DUP2 DUP5 SUB ADD DUP2 MSTORE SWAP1 DUP3 SWAP1 MSTORE PUSH3 0x461BCD PUSH1 0xE5 SHL DUP3 MSTORE PUSH2 0x5F4 SWAP2 PUSH1 0x4 ADD PUSH2 0x13B5 JUMP JUMPDEST PUSH1 0x0 PUSH1 0x20 DUP3 DUP5 SUB SLT ISZERO PUSH2 0x1371 JUMPI PUSH1 0x0 DUP1 REVERT JUMPDEST DUP2 CALLDATALOAD PUSH1 0x1 PUSH1 0x1 PUSH1 0xE0 SHL SUB NOT DUP2 AND DUP2 EQ PUSH2 0xAE3 JUMPI PUSH1 0x0 DUP1 REVERT JUMPDEST PUSH1 0x0 JUMPDEST DUP4 DUP2 LT ISZERO PUSH2 0x13A4 JUMPI DUP2 DUP2 ADD MLOAD DUP4 DUP3 ADD MSTORE PUSH1 0x20 ADD PUSH2 0x138C JUMP JUMPDEST DUP4 DUP2 GT ISZERO PUSH2 0xC82 JUMPI POP POP PUSH1 0x0 SWAP2 ADD MSTORE JUMP JUMPDEST PUSH1 0x20 DUP2 MSTORE PUSH1 0x0 DUP3 MLOAD DUP1 PUSH1 0x20 DUP5 ADD MSTORE PUSH2 0x13D4 DUP2 PUSH1 0x40 DUP6 ADD PUSH1 0x20 DUP8 ADD PUSH2 0x1389 JUMP JUMPDEST PUSH1 0x1F ADD PUSH1 0x1F NOT AND SWAP2 SWAP1 SWAP2 ADD PUSH1 0x40 ADD SWAP3 SWAP2 POP POP JUMP JUMPDEST DUP1 CALLDATALOAD PUSH1 0x1 PUSH1 0x1 PUSH1 0xA0 SHL SUB DUP2 AND DUP2 EQ PUSH2 0x13FF JUMPI PUSH1 0x0 DUP1 REVERT JUMPDEST SWAP2 SWAP1 POP JUMP JUMPDEST PUSH1 0x0 DUP1 PUSH1 0x40 DUP4 DUP6 SUB SLT ISZERO PUSH2 0x1417 JUMPI PUSH1 0x0 DUP1 REVERT JUMPDEST PUSH2 0x1420 DUP4 PUSH2 0x13E8 JUMP JUMPDEST SWAP5 PUSH1 0x20 SWAP4 SWAP1 SWAP4 ADD CALLDATALOAD SWAP4 POP POP POP JUMP JUMPDEST PUSH1 0x0 DUP1 PUSH1 0x0 PUSH1 0x60 DUP5 DUP7 SUB SLT ISZERO PUSH2 0x1443 JUMPI PUSH1 0x0 DUP1 REVERT JUMPDEST PUSH2 0x144C DUP5 PUSH2 0x13E8 JUMP JUMPDEST SWAP3 POP PUSH2 0x145A PUSH1 0x20 DUP6 ADD PUSH2 0x13E8 JUMP JUMPDEST SWAP2 POP PUSH1 0x40 DUP5 ADD CALLDATALOAD SWAP1 POP SWAP3 POP SWAP3 POP SWAP3 JUMP JUMPDEST PUSH1 0x0 PUSH1 0x20 DUP3 DUP5 SUB SLT ISZERO PUSH2 0x147C JUMPI PUSH1 0x0 DUP1 REVERT JUMPDEST POP CALLDATALOAD SWAP2 SWAP1 POP JUMP JUMPDEST PUSH1 0x0 DUP1 PUSH1 0x40 DUP4 DUP6 SUB SLT ISZERO PUSH2 0x1496 JUMPI PUSH1 0x0 DUP1 REVERT JUMPDEST DUP3 CALLDATALOAD SWAP2 POP PUSH2 0x14A6 PUSH1 0x20 DUP5 ADD PUSH2 0x13E8 JUMP JUMPDEST SWAP1 POP SWAP3 POP SWAP3 SWAP1 POP JUMP JUMPDEST PUSH1 0x0 PUSH1 0x20 DUP3 DUP5 SUB SLT ISZERO PUSH2 0x14C1 JUMPI PUSH1 0x0 DUP1 REVERT JUMPDEST PUSH2 0xAE3 DUP3 PUSH2 0x13E8 JUMP JUMPDEST PUSH1 0x0 DUP1 PUSH1 0x40 DUP4 DUP6 SUB SLT ISZERO PUSH2 0x14DD JUMPI PUSH1 0x0 DUP1 REVERT JUMPDEST PUSH2 0x14E6 DUP4 PUSH2 0x13E8 JUMP JUMPDEST SWAP2 POP PUSH2 0x14A6 PUSH1 0x20 DUP5 ADD PUSH2 0x13E8 JUMP JUMPDEST PUSH1 0x1 DUP2 DUP2 SHR SWAP1 DUP3 AND DUP1 PUSH2 0x1508 JUMPI PUSH1 0x7F DUP3 AND SWAP2 POP JUMPDEST PUSH1 0x20 DUP3 LT DUP2 SUB PUSH2 0x1528 JUMPI PUSH4 0x4E487B71 PUSH1 0xE0 SHL PUSH1 0x0 MSTORE PUSH1 0x22 PUSH1 0x4 MSTORE PUSH1 0x24 PUSH1 0x0 REVERT JUMPDEST POP SWAP2 SWAP1 POP JUMP JUMPDEST PUSH4 0x4E487B71 PUSH1 0xE0 SHL PUSH1 0x0 MSTORE PUSH1 0x11 PUSH1 0x4 MSTORE PUSH1 0x24 PUSH1 0x0 REVERT JUMPDEST PUSH1 0x0 DUP3 NOT DUP3 GT ISZERO PUSH2 0x1557 JUMPI PUSH2 0x1557 PUSH2 0x152E JUMP JUMPDEST POP ADD SWAP1 JUMP JUMPDEST PUSH1 0x0 DUP2 PUSH1 0x0 NOT DIV DUP4 GT DUP3 ISZERO ISZERO AND ISZERO PUSH2 0x1576 JUMPI PUSH2 0x1576 PUSH2 0x152E JUMP JUMPDEST POP MUL SWAP1 JUMP JUMPDEST PUSH4 0x4E487B71 PUSH1 0xE0 SHL PUSH1 0x0 MSTORE PUSH1 0x41 PUSH1 0x4 MSTORE PUSH1 0x24 PUSH1 0x0 REVERT JUMPDEST PUSH4 0x4E487B71 PUSH1 0xE0 SHL PUSH1 0x0 MSTORE PUSH1 0x32 PUSH1 0x4 MSTORE PUSH1 0x24 PUSH1 0x0 REVERT JUMPDEST PUSH1 0x0 DUP2 PUSH2 0x15B6 JUMPI PUSH2 0x15B6 PUSH2 0x152E JUMP JUMPDEST POP PUSH1 0x0 NOT ADD SWAP1 JUMP JUMPDEST PUSH1 0x0 DUP3 DUP3 LT ISZERO PUSH2 0x15D0 JUMPI PUSH2 0x15D0 PUSH2 0x152E JUMP JUMPDEST POP SUB SWAP1 JUMP JUMPDEST PUSH32 0x416363657373436F6E74726F6C3A206163636F756E7420000000000000000000 DUP2 MSTORE PUSH1 0x0 DUP4 MLOAD PUSH2 0x160D DUP2 PUSH1 0x17 DUP6 ADD PUSH1 0x20 DUP9 ADD PUSH2 0x1389 JUMP JUMPDEST PUSH17 0x1034B99036B4B9B9B4B733903937B6329 PUSH1 0x7D SHL PUSH1 0x17 SWAP2 DUP5 ADD SWAP2 DUP3 ADD MSTORE DUP4 MLOAD PUSH2 0x163E DUP2 PUSH1 0x28 DUP5 ADD PUSH1 0x20 DUP9 ADD PUSH2 0x1389 JUMP JUMPDEST ADD PUSH1 0x28 ADD SWAP5 SWAP4 POP POP POP POP JUMP INVALID LOG2 PUSH5 0x6970667358 0x22 SLT KECCAK256 0xD4 0xF6 BALANCE 0xF KECCAK256 PUSH4 0x6496446 0xA8 PUSH1 0xC8 0xE3 TIMESTAMP 0xED PUSH19 0x6C6952F9CFF53C56C1189F8299A5AA64736F6C PUSH4 0x4300080E STOP CALLER CALLDATASIZE REVERT NUMBER 0xED 0xE1 PUSH4 0x45B10E1 CREATE 0xAB 0xD1 PUSH16 0x62F165FCE3FA7B6CDE217BCEA3BC4766 GASPRICE 0xCC "
    },
    "gasEstimates": {
      "creation": {
        "codeDepositCost": "1152000",
        "executionCost": "infinite",
        "totalCost": "infinite"
      },
      "external": {
        "COMMISSION_WALLET_ADDRESS()": "2382",
        "CONSENSUS_ROLE()": "305",
        "DEFAULT_ADMIN_ROLE()": "262",
        "RESERVES_WALLET_ADDRESS()": "2425",
        "allowance(address,address)": "infinite",
        "approve(address,uint256)": "24681",
        "balanceOf(address)": "2651",
        "burn(uint256)": "59771",
        "burnFrom(address,uint256)": "86460",
        "decimals()": "223",
        "decreaseAllowance(address,uint256)": "27028",
        "destroy()": "infinite",
        "destroyAndSend(address)": "infinite",
        "freezeAccount(address)": "infinite",
        "freezeOf(address)": "2605",
        "getRoleAdmin(bytes32)": "2534",
        "grantRole(bytes32,address)": "infinite",
        "hasRole(bytes32,address)": "2744",
        "increaseAllowance(address,uint256)": "27057",
        "mint(address,uint256)": "infinite",
        "name()": "infinite",
        "renounceRole(bytes32,address)": "29069",
        "revokeRole(bytes32,address)": "infinite",
        "supportsInterface(bytes4)": "473",
        "symbol()": "infinite",
        "totalSupply()": "2327",
        "transfer(address,uint256)": "60137",
        "transferFrom(address,address,uint256)": "infinite",
        "unFreezeAccount(address)": "infinite"
      },
      "internal": {
        "_beforeTokenTransfer(address,address,uint256)": "infinite"
      }
    },
    "methodIdentifiers": {
      "COMMISSION_WALLET_ADDRESS()": "b1441e79",
      "CONSENSUS_ROLE()": "fa2dabad",
      "DEFAULT_ADMIN_ROLE()": "a217fddf",
      "RESERVES_WALLET_ADDRESS()": "f98df5ca",
      "allowance(address,address)": "dd62ed3e",
      "approve(address,uint256)": "095ea7b3",
      "balanceOf(address)": "70a08231",
      "burn(uint256)": "42966c68",
      "burnFrom(address,uint256)": "79cc6790",
      "decimals()": "313ce567",
      "decreaseAllowance(address,uint256)": "a457c2d7",
      "destroy()": "83197ef0",
      "destroyAndSend(address)": "f5074f41",
      "freezeAccount(address)": "f26c159f",
      "freezeOf(address)": "cd4217c1",
      "getRoleAdmin(bytes32)": "248a9ca3",
      "grantRole(bytes32,address)": "2f2ff15d",
      "hasRole(bytes32,address)": "91d14854",
      "increaseAllowance(address,uint256)": "39509351",
      "mint(address,uint256)": "40c10f19",
      "name()": "06fdde03",
      "renounceRole(bytes32,address)": "36568abe",
      "revokeRole(bytes32,address)": "d547741f",
      "supportsInterface(bytes4)": "01ffc9a7",
      "symbol()": "95d89b41",
      "totalSupply()": "18160ddd",
      "transfer(address,uint256)": "a9059cbb",
      "transferFrom(address,address,uint256)": "23b872dd",
      "unFreezeAccount(address)": "53cc2fae"
    }
  },
  "storageLayout": {
    "storage": [
      {
        "astId": 4191,
        "contract": "src/contracts/test/ERC20.sol:InnToken",
        "label": "_balances",
        "offset": 0,
        "slot": "0",
        "type": "t_mapping(t_address,t_uint256)"
      },
      {
        "astId": 4197,
        "contract": "src/contracts/test/ERC20.sol:InnToken",
        "label": "_allowances",
        "offset": 0,
        "slot": "1",
        "type": "t_mapping(t_address,t_mapping(t_address,t_uint256))"
      },
      {
        "astId": 4199,
        "contract": "src/contracts/test/ERC20.sol:InnToken",
        "label": "_totalSupply",
        "offset": 0,
        "slot": "2",
        "type": "t_uint256"
      },
      {
        "astId": 4201,
        "contract": "src/contracts/test/ERC20.sol:InnToken",
        "label": "_name",
        "offset": 0,
        "slot": "3",
        "type": "t_string_storage"
      },
      {
        "astId": 4203,
        "contract": "src/contracts/test/ERC20.sol:InnToken",
        "label": "_symbol",
        "offset": 0,
        "slot": "4",
        "type": "t_string_storage"
      },
      {
        "astId": 3807,
        "contract": "src/contracts/test/ERC20.sol:InnToken",
        "label": "_roles",
        "offset": 0,
        "slot": "5",
        "type": "t_mapping(t_bytes32,t_struct(RoleData)3802_storage)"
      },
      {
        "astId": 15703,
        "contract": "src/contracts/test/ERC20.sol:InnToken",
        "label": "COMMISSION_WALLET_ADDRESS",
        "offset": 0,
        "slot": "6",
        "type": "t_address"
      },
      {
        "astId": 15705,
        "contract": "src/contracts/test/ERC20.sol:InnToken",
        "label": "RESERVES_WALLET_ADDRESS",
        "offset": 0,
        "slot": "7",
        "type": "t_address"
      },
      {
        "astId": 15709,
        "contract": "src/contracts/test/ERC20.sol:InnToken",
        "label": "_wallets",
        "offset": 0,
        "slot": "8",
        "type": "t_mapping(t_address,t_bytes32)"
      },
      {
        "astId": 15713,
        "contract": "src/contracts/test/ERC20.sol:InnToken",
        "label": "frozenAccount",
        "offset": 0,
        "slot": "9",
        "type": "t_mapping(t_address,t_bool)"
      }
    ],
    "types": {
      "t_address": {
        "encoding": "inplace",
        "label": "address",
        "numberOfBytes": "20"
      },
      "t_bool": {
        "encoding": "inplace",
        "label": "bool",
        "numberOfBytes": "1"
      },
      "t_bytes32": {
        "encoding": "inplace",
        "label": "bytes32",
        "numberOfBytes": "32"
      },
      "t_mapping(t_address,t_bool)": {
        "encoding": "mapping",
        "key": "t_address",
        "label": "mapping(address => bool)",
        "numberOfBytes": "32",
        "value": "t_bool"
      },
      "t_mapping(t_address,t_bytes32)": {
        "encoding": "mapping",
        "key": "t_address",
        "label": "mapping(address => bytes32)",
        "numberOfBytes": "32",
        "value": "t_bytes32"
      },
      "t_mapping(t_address,t_mapping(t_address,t_uint256))": {
        "encoding": "mapping",
        "key": "t_address",
        "label": "mapping(address => mapping(address => uint256))",
        "numberOfBytes": "32",
        "value": "t_mapping(t_address,t_uint256)"
      },
      "t_mapping(t_address,t_uint256)": {
        "encoding": "mapping",
        "key": "t_address",
        "label": "mapping(address => uint256)",
        "numberOfBytes": "32",
        "value": "t_uint256"
      },
      "t_mapping(t_bytes32,t_struct(RoleData)3802_storage)": {
        "encoding": "mapping",
        "key": "t_bytes32",
        "label": "mapping(bytes32 => struct AccessControl.RoleData)",
        "numberOfBytes": "32",
        "value": "t_struct(RoleData)3802_storage"
      },
      "t_string_storage": {
        "encoding": "bytes",
        "label": "string",
        "numberOfBytes": "32"
      },
      "t_struct(RoleData)3802_storage": {
        "encoding": "inplace",
        "label": "struct AccessControl.RoleData",
        "members": [
          {
            "astId": 3799,
            "contract": "src/contracts/test/ERC20.sol:InnToken",
            "label": "members",
            "offset": 0,
            "slot": "0",
            "type": "t_mapping(t_address,t_bool)"
          },
          {
            "astId": 3801,
            "contract": "src/contracts/test/ERC20.sol:InnToken",
            "label": "adminRole",
            "offset": 0,
            "slot": "1",
            "type": "t_bytes32"
          }
        ],
        "numberOfBytes": "64"
      },
      "t_uint256": {
        "encoding": "inplace",
        "label": "uint256",
        "numberOfBytes": "32"
      }
    }
  },
  "userdoc": {
    "kind": "user",
    "methods": {},
    "version": 1
  }
}