{
  "contractName": "InnGovernor",
  "sourceName": "src/contracts/IGovernorINNImpl.sol",
  "abi": [
    {
      "anonymous": false,
      "inputs": [
        {
          "indexed": false,
          "internalType": "address",
          "name": "previousAdmin",
          "type": "address"
        },
        {
          "indexed": false,
          "internalType": "address",
          "name": "newAdmin",
          "type": "address"
        }
      ],
      "name": "AdminChanged",
      "type": "event"
    },
    {
      "anonymous": false,
      "inputs": [
        {
          "indexed": true,
          "internalType": "address",
          "name": "beacon",
          "type": "address"
        }
      ],
      "name": "BeaconUpgraded",
      "type": "event"
    },
    {
      "anonymous": false,
      "inputs": [
        {
          "indexed": true,
          "internalType": "uint256",
          "name": "proposalId",
          "type": "uint256"
        },
        {
          "indexed": true,
          "internalType": "address",
          "name": "proposer",
          "type": "address"
        },
        {
          "indexed": true,
          "internalType": "address",
          "name": "validatorEOA",
          "type": "address"
        },
        {
          "indexed": false,
          "internalType": "uint256",
          "name": "tokenOffer",
          "type": "uint256"
        },
        {
          "indexed": false,
          "internalType": "bytes32",
          "name": "offchainID",
          "type": "bytes32"
        },
        {
          "indexed": false,
          "internalType": "bytes32",
          "name": "description",
          "type": "bytes32"
        },
        {
          "indexed": false,
          "internalType": "string",
          "name": "startupName",
          "type": "string"
        },
        {
          "indexed": false,
          "internalType": "uint16",
          "name": "sharedStake",
          "type": "uint16"
        }
      ],
      "name": "ExitInvestmentProposalCreated",
      "type": "event"
    },
    {
      "anonymous": false,
      "inputs": [
        {
          "indexed": true,
          "internalType": "uint256",
          "name": "proposalId",
          "type": "uint256"
        },
        {
          "indexed": true,
          "internalType": "address",
          "name": "proposer",
          "type": "address"
        },
        {
          "indexed": true,
          "internalType": "address",
          "name": "account",
          "type": "address"
        },
        {
          "indexed": false,
          "internalType": "bytes32",
          "name": "offchainID",
          "type": "bytes32"
        },
        {
          "indexed": false,
          "internalType": "bytes32",
          "name": "description",
          "type": "bytes32"
        }
      ],
      "name": "FreezeInvestmentProposalCreated",
      "type": "event"
    },
    {
      "anonymous": false,
      "inputs": [
        {
          "indexed": false,
          "internalType": "uint8",
          "name": "version",
          "type": "uint8"
        }
      ],
      "name": "Initialized",
      "type": "event"
    },
    {
      "anonymous": false,
      "inputs": [
        {
          "indexed": true,
          "internalType": "uint256",
          "name": "proposalID",
          "type": "uint256"
        },
        {
          "indexed": true,
          "internalType": "address",
          "name": "proposer",
          "type": "address"
        },
        {
          "indexed": true,
          "internalType": "address",
          "name": "startupEOA",
          "type": "address"
        },
        {
          "indexed": false,
          "internalType": "uint256",
          "name": "tokenOffer",
          "type": "uint256"
        },
        {
          "indexed": false,
          "internalType": "bytes32",
          "name": "offchainID",
          "type": "bytes32"
        },
        {
          "indexed": false,
          "internalType": "bytes32",
          "name": "description",
          "type": "bytes32"
        },
        {
          "indexed": false,
          "internalType": "string",
          "name": "startupName",
          "type": "string"
        },
        {
          "indexed": false,
          "internalType": "uint16",
          "name": "sharedStake",
          "type": "uint16"
        }
      ],
      "name": "NewInvestmentProposalCreated",
      "type": "event"
    },
    {
      "anonymous": false,
      "inputs": [
        {
          "indexed": true,
          "internalType": "uint256",
          "name": "proposalID",
          "type": "uint256"
        },
        {
          "indexed": true,
          "internalType": "address",
          "name": "proposer",
          "type": "address"
        },
        {
          "indexed": true,
          "internalType": "address",
          "name": "validatorEOA",
          "type": "address"
        },
        {
          "indexed": false,
          "internalType": "bytes32",
          "name": "offchainID",
          "type": "bytes32"
        },
        {
          "indexed": false,
          "internalType": "bytes32",
          "name": "description",
          "type": "bytes32"
        },
        {
          "indexed": false,
          "internalType": "string",
          "name": "validatorName",
          "type": "string"
        }
      ],
      "name": "NewValidatorProposalCreated",
      "type": "event"
    },
    {
      "anonymous": false,
      "inputs": [
        {
          "indexed": true,
          "internalType": "uint256",
          "name": "proposalId",
          "type": "uint256"
        },
        {
          "indexed": false,
          "internalType": "string",
          "name": "reason",
          "type": "string"
        }
      ],
      "name": "ProposalCanceled",
      "type": "event"
    },
    {
      "anonymous": false,
      "inputs": [
        {
          "indexed": true,
          "internalType": "uint256",
          "name": "proposalId",
          "type": "uint256"
        }
      ],
      "name": "ProposalExecuted",
      "type": "event"
    },
    {
      "anonymous": false,
      "inputs": [
        {
          "indexed": true,
          "internalType": "bytes32",
          "name": "role",
          "type": "bytes32"
        },
        {
          "indexed": true,
          "internalType": "bytes32",
          "name": "previousAdminRole",
          "type": "bytes32"
        },
        {
          "indexed": true,
          "internalType": "bytes32",
          "name": "newAdminRole",
          "type": "bytes32"
        }
      ],
      "name": "RoleAdminChanged",
      "type": "event"
    },
    {
      "anonymous": false,
      "inputs": [
        {
          "indexed": true,
          "internalType": "bytes32",
          "name": "role",
          "type": "bytes32"
        },
        {
          "indexed": true,
          "internalType": "address",
          "name": "account",
          "type": "address"
        },
        {
          "indexed": true,
          "internalType": "address",
          "name": "sender",
          "type": "address"
        }
      ],
      "name": "RoleGranted",
      "type": "event"
    },
    {
      "anonymous": false,
      "inputs": [
        {
          "indexed": true,
          "internalType": "bytes32",
          "name": "role",
          "type": "bytes32"
        },
        {
          "indexed": true,
          "internalType": "address",
          "name": "account",
          "type": "address"
        },
        {
          "indexed": true,
          "internalType": "address",
          "name": "sender",
          "type": "address"
        }
      ],
      "name": "RoleRevoked",
      "type": "event"
    },
    {
      "anonymous": false,
      "inputs": [
        {
          "indexed": true,
          "internalType": "uint256",
          "name": "proposalID",
          "type": "uint256"
        },
        {
          "indexed": true,
          "internalType": "address",
          "name": "proposer",
          "type": "address"
        },
        {
          "indexed": true,
          "internalType": "address",
          "name": "account",
          "type": "address"
        },
        {
          "indexed": false,
          "internalType": "bytes32",
          "name": "offchainID",
          "type": "bytes32"
        },
        {
          "indexed": false,
          "internalType": "bytes32",
          "name": "description",
          "type": "bytes32"
        }
      ],
      "name": "UnfreezeInvestmentProposalCreated",
      "type": "event"
    },
    {
      "anonymous": false,
      "inputs": [
        {
          "indexed": true,
          "internalType": "address",
          "name": "implementation",
          "type": "address"
        }
      ],
      "name": "Upgraded",
      "type": "event"
    },
    {
      "anonymous": false,
      "inputs": [
        {
          "indexed": true,
          "internalType": "address",
          "name": "voter",
          "type": "address"
        },
        {
          "indexed": true,
          "internalType": "uint256",
          "name": "proposalId",
          "type": "uint256"
        },
        {
          "indexed": false,
          "internalType": "enum IGovernorINN.VoteType",
          "name": "vote",
          "type": "uint8"
        },
        {
          "indexed": false,
          "internalType": "string",
          "name": "reason",
          "type": "string"
        }
      ],
      "name": "VoteCast",
      "type": "event"
    },
    {
      "inputs": [],
      "name": "ADMIN_ROLE",
      "outputs": [
        {
          "internalType": "bytes32",
          "name": "",
          "type": "bytes32"
        }
      ],
      "stateMutability": "view",
      "type": "function"
    },
    {
      "inputs": [],
      "name": "BALLOT_TYPEHASH",
      "outputs": [
        {
          "internalType": "bytes32",
          "name": "",
          "type": "bytes32"
        }
      ],
      "stateMutability": "view",
      "type": "function"
    },
    {
      "inputs": [],
      "name": "CONSENSUS_ROLE",
      "outputs": [
        {
          "internalType": "bytes32",
          "name": "",
          "type": "bytes32"
        }
      ],
      "stateMutability": "view",
      "type": "function"
    },
    {
      "inputs": [],
      "name": "DEFAULT_ADMIN_ROLE",
      "outputs": [
        {
          "internalType": "bytes32",
          "name": "",
          "type": "bytes32"
        }
      ],
      "stateMutability": "view",
      "type": "function"
    },
    {
      "inputs": [],
      "name": "FREEZE_ACCOUNT_SIGNATURE",
      "outputs": [
        {
          "internalType": "bytes4",
          "name": "",
          "type": "bytes4"
        }
      ],
      "stateMutability": "view",
      "type": "function"
    },
    {
      "inputs": [],
      "name": "TRANSFER_SIGNATURE",
      "outputs": [
        {
          "internalType": "bytes4",
          "name": "",
          "type": "bytes4"
        }
      ],
      "stateMutability": "view",
      "type": "function"
    },
    {
      "inputs": [],
      "name": "UNFREEZE_ACCOUNT_SIGNATURE",
      "outputs": [
        {
          "internalType": "bytes4",
          "name": "",
          "type": "bytes4"
        }
      ],
      "stateMutability": "view",
      "type": "function"
    },
    {
      "inputs": [
        {
          "internalType": "uint256",
          "name": "proposalId",
          "type": "uint256"
        },
        {
          "internalType": "string",
          "name": "reason",
          "type": "string"
        }
      ],
      "name": "cancel",
      "outputs": [
        {
          "internalType": "bool",
          "name": "",
          "type": "bool"
        }
      ],
      "stateMutability": "nonpayable",
      "type": "function"
    },
    {
      "inputs": [
        {
          "internalType": "string",
          "name": "reason",
          "type": "string"
        },
        {
          "internalType": "uint256",
          "name": "proposalId",
          "type": "uint256"
        },
        {
          "internalType": "enum IGovernorINN.VoteType",
          "name": "vote",
          "type": "uint8"
        }
      ],
      "name": "castVote",
      "outputs": [
        {
          "internalType": "bool",
          "name": "",
          "type": "bool"
        }
      ],
      "stateMutability": "nonpayable",
      "type": "function"
    },
    {
      "inputs": [],
      "name": "commissionWallet",
      "outputs": [
        {
          "internalType": "address",
          "name": "",
          "type": "address"
        }
      ],
      "stateMutability": "view",
      "type": "function"
    },
    {
      "inputs": [
        {
          "internalType": "address",
          "name": "validator",
          "type": "address"
        }
      ],
      "name": "disableValidator",
      "outputs": [],
      "stateMutability": "nonpayable",
      "type": "function"
    },
    {
      "inputs": [
        {
          "internalType": "uint256",
          "name": "proposalId",
          "type": "uint256"
        }
      ],
      "name": "execute",
      "outputs": [
        {
          "internalType": "bool",
          "name": "",
          "type": "bool"
        }
      ],
      "stateMutability": "payable",
      "type": "function"
    },
    {
      "inputs": [
        {
          "internalType": "bytes32",
          "name": "role",
          "type": "bytes32"
        }
      ],
      "name": "getRoleAdmin",
      "outputs": [
        {
          "internalType": "bytes32",
          "name": "",
          "type": "bytes32"
        }
      ],
      "stateMutability": "view",
      "type": "function"
    },
    {
      "inputs": [
        {
          "internalType": "bytes32",
          "name": "role",
          "type": "bytes32"
        },
        {
          "internalType": "address",
          "name": "account",
          "type": "address"
        }
      ],
      "name": "grantRole",
      "outputs": [],
      "stateMutability": "nonpayable",
      "type": "function"
    },
    {
      "inputs": [
        {
          "internalType": "bytes32",
          "name": "role",
          "type": "bytes32"
        },
        {
          "internalType": "address",
          "name": "account",
          "type": "address"
        }
      ],
      "name": "hasRole",
      "outputs": [
        {
          "internalType": "bool",
          "name": "",
          "type": "bool"
        }
      ],
      "stateMutability": "view",
      "type": "function"
    },
    {
      "inputs": [
        {
          "internalType": "uint256",
          "name": "proposalId",
          "type": "uint256"
        },
        {
          "internalType": "address",
          "name": "account",
          "type": "address"
        }
      ],
      "name": "hasVoted",
      "outputs": [
        {
          "internalType": "bool",
          "name": "",
          "type": "bool"
        }
      ],
      "stateMutability": "view",
      "type": "function"
    },
    {
      "inputs": [
        {
          "internalType": "bytes32",
          "name": "offchainID",
          "type": "bytes32"
        },
        {
          "internalType": "bytes32",
          "name": "descriptionHash",
          "type": "bytes32"
        },
        {
          "internalType": "uint256",
          "name": "startedAt",
          "type": "uint256"
        },
        {
          "internalType": "address",
          "name": "proposer",
          "type": "address"
        },
        {
          "internalType": "enum IGovernorINN.ProposalType",
          "name": "propsalType",
          "type": "uint8"
        },
        {
          "internalType": "enum IGovernorINN.ActionType",
          "name": "actionType",
          "type": "uint8"
        },
        {
          "internalType": "bytes",
          "name": "data",
          "type": "bytes"
        }
      ],
      "name": "hashProposal",
      "outputs": [
        {
          "internalType": "uint256",
          "name": "",
          "type": "uint256"
        }
      ],
      "stateMutability": "pure",
      "type": "function"
    },
    {
      "inputs": [
        {
          "internalType": "address",
          "name": "innTokenERC20",
          "type": "address"
        },
        {
          "internalType": "address",
          "name": "startValidator",
          "type": "address"
        },
        {
          "internalType": "address",
          "name": "reservedEOA",
          "type": "address"
        },
        {
          "internalType": "address",
          "name": "commissionEOA",
          "type": "address"
        },
        {
          "internalType": "string",
          "name": "domainName",
          "type": "string"
        },
        {
          "internalType": "string",
          "name": "domainVersion",
          "type": "string"
        }
      ],
      "name": "initialize",
      "outputs": [],
      "stateMutability": "nonpayable",
      "type": "function"
    },
    {
      "inputs": [],
      "name": "innTokenAddress",
      "outputs": [
        {
          "internalType": "address",
          "name": "",
          "type": "address"
        }
      ],
      "stateMutability": "view",
      "type": "function"
    },
    {
      "inputs": [
        {
          "internalType": "address",
          "name": "addr",
          "type": "address"
        }
      ],
      "name": "isValidator",
      "outputs": [
        {
          "internalType": "bool",
          "name": "",
          "type": "bool"
        }
      ],
      "stateMutability": "view",
      "type": "function"
    },
    {
      "inputs": [],
      "name": "name",
      "outputs": [
        {
          "internalType": "string",
          "name": "",
          "type": "string"
        }
      ],
      "stateMutability": "view",
      "type": "function"
    },
    {
      "inputs": [
        {
          "components": [
            {
              "internalType": "bytes32",
              "name": "offchainID",
              "type": "bytes32"
            },
            {
              "internalType": "uint256",
              "name": "startAt",
              "type": "uint256"
            },
            {
              "internalType": "enum IGovernorINN.ProposalType",
              "name": "proposalType",
              "type": "uint8"
            },
            {
              "internalType": "enum IGovernorINN.ActionType",
              "name": "actionType",
              "type": "uint8"
            },
            {
              "internalType": "string",
              "name": "description",
              "type": "string"
            },
            {
              "internalType": "bytes",
              "name": "data",
              "type": "bytes"
            }
          ],
          "internalType": "struct IGovernorINN.ProposalRequest",
          "name": "request",
          "type": "tuple"
        }
      ],
      "name": "propose",
      "outputs": [
        {
          "internalType": "uint256",
          "name": "",
          "type": "uint256"
        }
      ],
      "stateMutability": "nonpayable",
      "type": "function"
    },
    {
      "inputs": [],
      "name": "proxiableUUID",
      "outputs": [
        {
          "internalType": "bytes32",
          "name": "",
          "type": "bytes32"
        }
      ],
      "stateMutability": "view",
      "type": "function"
    },
    {
      "inputs": [
        {
          "internalType": "bytes32",
          "name": "role",
          "type": "bytes32"
        },
        {
          "internalType": "address",
          "name": "account",
          "type": "address"
        }
      ],
      "name": "renounceRole",
      "outputs": [],
      "stateMutability": "nonpayable",
      "type": "function"
    },
    {
      "inputs": [],
      "name": "reservedWallet",
      "outputs": [
        {
          "internalType": "address",
          "name": "",
          "type": "address"
        }
      ],
      "stateMutability": "view",
      "type": "function"
    },
    {
      "inputs": [
        {
          "internalType": "bytes32",
          "name": "role",
          "type": "bytes32"
        },
        {
          "internalType": "address",
          "name": "account",
          "type": "address"
        }
      ],
      "name": "revokeRole",
      "outputs": [],
      "stateMutability": "nonpayable",
      "type": "function"
    },
    {
      "inputs": [
        {
          "internalType": "uint256",
          "name": "proposalId",
          "type": "uint256"
        }
      ],
      "name": "state",
      "outputs": [
        {
          "internalType": "enum IGovernorINN.ProposalState",
          "name": "",
          "type": "uint8"
        }
      ],
      "stateMutability": "view",
      "type": "function"
    },
    {
      "inputs": [
        {
          "internalType": "bytes4",
          "name": "interfaceId",
          "type": "bytes4"
        }
      ],
      "name": "supportsInterface",
      "outputs": [
        {
          "internalType": "bool",
          "name": "",
          "type": "bool"
        }
      ],
      "stateMutability": "view",
      "type": "function"
    },
    {
      "inputs": [
        {
          "internalType": "address",
          "name": "newImplementation",
          "type": "address"
        }
      ],
      "name": "upgradeTo",
      "outputs": [],
      "stateMutability": "nonpayable",
      "type": "function"
    },
    {
      "inputs": [
        {
          "internalType": "address",
          "name": "newImplementation",
          "type": "address"
        },
        {
          "internalType": "bytes",
          "name": "data",
          "type": "bytes"
        }
      ],
      "name": "upgradeToAndCall",
      "outputs": [],
      "stateMutability": "payable",
      "type": "function"
    },
    {
      "inputs": [],
      "name": "validatorCount",
      "outputs": [
        {
          "internalType": "uint32",
          "name": "",
          "type": "uint32"
        }
      ],
      "stateMutability": "view",
      "type": "function"
    },
    {
      "inputs": [],
      "name": "version",
      "outputs": [
        {
          "internalType": "string",
          "name": "",
          "type": "string"
        }
      ],
      "stateMutability": "view",
      "type": "function"
    },
    {
      "inputs": [],
      "name": "votingDelay",
      "outputs": [
        {
          "internalType": "uint256",
          "name": "",
          "type": "uint256"
        }
      ],
      "stateMutability": "view",
      "type": "function"
    },
    {
      "inputs": [],
      "name": "votingPeriod",
      "outputs": [
        {
          "internalType": "uint256",
          "name": "",
          "type": "uint256"
        }
      ],
      "stateMutability": "view",
      "type": "function"
    }
  ],
  "bytecode": "0x60a06040523073ffffffffffffffffffffffffffffffffffffffff1660809073ffffffffffffffffffffffffffffffffffffffff1681525034801561004357600080fd5b506080516176c16200007c60003960008181610ebc01528181610f4a0152818161126c015281816112fa01526113aa01526176c16000f3fe6080604052600436106101f95760003560e01c80637005026b1161010d578063c22ab4e0116100a0578063e0310e521161006f578063e0310e5214610764578063f8c662ff1461078f578063fa2dabad146107ba578063facd743b146107e5578063fe0d94c114610822576101f9565b8063c22ab4e0146106a8578063c4865b0f146106d3578063d547741f14610710578063deaaa7cc14610739576101f9565b806397c0262a116100dc57806397c0262a146105fc578063a217fddf14610627578063afdf671014610652578063c0e6d5d61461067d576101f9565b80637005026b1461052e57806375b238fc1461056b57806391d14854146105965780639317c200146105d3576101f9565b806331cb9866116101905780633e4f49e61161015f5780633e4f49e614610442578063438596321461047f5780634f1ef286146104bc57806352d1902d146104d857806354fd4d5014610503576101f9565b806331cb98661461038857806336568abe146103c55780633659cfe6146103ee5780633932abb114610417576101f9565b80631536f472116101cc5780631536f472146102bc5780631fe97684146102f9578063248a9ca3146103225780632f2ff15d1461035f576101f9565b806301ffc9a7146101fe57806302a251a31461023b57806306fdde03146102665780630f43a67714610291575b600080fd5b34801561020a57600080fd5b5061022560048036038101906102209190614cd5565b610852565b6040516102329190614d1d565b60405180910390f35b34801561024757600080fd5b506102506108cc565b60405161025d9190614d51565b60405180910390f35b34801561027257600080fd5b5061027b6108d3565b6040516102889190614e05565b60405180910390f35b34801561029d57600080fd5b506102a6610966565b6040516102b39190614e46565b60405180910390f35b3480156102c857600080fd5b506102e360048036038101906102de9190614fc2565b61097d565b6040516102f09190614d1d565b60405180910390f35b34801561030557600080fd5b50610320600480360381019061031b919061507c565b610ba3565b005b34801561032e57600080fd5b50610349600480360381019061034491906150df565b610cff565b604051610356919061511b565b60405180910390f35b34801561036b57600080fd5b5061038660048036038101906103819190615136565b610d1f565b005b34801561039457600080fd5b506103af60048036038101906103aa91906151fb565b610d40565b6040516103bc9190614d1d565b60405180910390f35b3480156103d157600080fd5b506103ec60048036038101906103e79190615136565b610e37565b005b3480156103fa57600080fd5b506104156004803603810190610410919061507c565b610eba565b005b34801561042357600080fd5b5061042c611042565b6040516104399190614d51565b60405180910390f35b34801561044e57600080fd5b506104696004803603810190610464919061526f565b611049565b6040516104769190615313565b60405180910390f35b34801561048b57600080fd5b506104a660048036038101906104a1919061532e565b611237565b6040516104b39190614d1d565b60405180910390f35b6104d660048036038101906104d1919061540f565b61126a565b005b3480156104e457600080fd5b506104ed6113a6565b6040516104fa919061511b565b60405180910390f35b34801561050f57600080fd5b5061051861145f565b6040516105259190614e05565b60405180910390f35b34801561053a57600080fd5b5061055560048036038101906105509190615597565b6114f2565b6040516105629190614d51565b60405180910390f35b34801561057757600080fd5b506105806118a2565b60405161058d919061511b565b60405180910390f35b3480156105a257600080fd5b506105bd60048036038101906105b89190615136565b6118c6565b6040516105ca9190614d1d565b60405180910390f35b3480156105df57600080fd5b506105fa60048036038101906105f591906155e0565b611931565b005b34801561060857600080fd5b50610611611cbc565b60405161061e91906156be565b60405180910390f35b34801561063357600080fd5b5061063c611ce3565b604051610649919061511b565b60405180910390f35b34801561065e57600080fd5b50610667611cea565b60405161067491906156e8565b60405180910390f35b34801561068957600080fd5b50610692611d0e565b60405161069f91906156e8565b60405180910390f35b3480156106b457600080fd5b506106bd611d32565b6040516106ca91906156be565b60405180910390f35b3480156106df57600080fd5b506106fa60048036038101906106f59190615703565b611d59565b6040516107079190614d51565b60405180910390f35b34801561071c57600080fd5b5061073760048036038101906107329190615136565b611d9e565b005b34801561074557600080fd5b5061074e611dbf565b60405161075b919061511b565b60405180910390f35b34801561077057600080fd5b50610779611de3565b60405161078691906156e8565b60405180910390f35b34801561079b57600080fd5b506107a4611e07565b6040516107b191906156be565b60405180910390f35b3480156107c657600080fd5b506107cf611e2e565b6040516107dc919061511b565b60405180910390f35b3480156107f157600080fd5b5061080c6004803603810190610807919061507c565b611e52565b6040516108199190614d1d565b60405180910390f35b61083c6004803603810190610837919061526f565b611ea9565b6040516108499190614d1d565b60405180910390f35b60007f7965db0b000000000000000000000000000000000000000000000000000000007bffffffffffffffffffffffffffffffffffffffffffffffffffffffff1916827bffffffffffffffffffffffffffffffffffffffffffffffffffffffff191614806108c557506108c482611fcb565b5b9050919050565b6101305481565b606061013780546108e3906157f0565b80601f016020809104026020016040519081016040528092919081815260200182805461090f906157f0565b801561095c5780601f106109315761010080835404028352916020019161095c565b820191906000526020600020905b81548152906001019060200180831161093f57829003601f168201915b5050505050905090565b61013960009054906101000a900463ffffffff1681565b6000610136600084815260200190815260200160002060030160009054906101000a900473ffffffffffffffffffffffffffffffffffffffff1673ffffffffffffffffffffffffffffffffffffffff163373ffffffffffffffffffffffffffffffffffffffff1614610a24576040517f08c379a0000000000000000000000000000000000000000000000000000000008152600401610a1b90615893565b60405180910390fd5b6000610a2f84611049565b905060066007811115610a4557610a4461529c565b5b816007811115610a5857610a5761529c565b5b14158015610a8a5750600780811115610a7457610a7361529c565b5b816007811115610a8757610a8661529c565b5b14155b610ac9576040517f08c379a0000000000000000000000000000000000000000000000000000000008152600401610ac0906158ff565b60405180910390fd5b60036007811115610add57610adc61529c565b5b816007811115610af057610aef61529c565b5b03610b30576040517f08c379a0000000000000000000000000000000000000000000000000000000008152600401610b2790615991565b60405180910390fd5b6001610136600086815260200190815260200160002060060160036101000a81548160ff021916908315150217905550837faf94ba56c28388380d3d3a1e4d7778157b283417b187658b7c8de6e4200b2fad84604051610b909190614e05565b60405180910390a2600191505092915050565b7fa49807205ce4d355092ef5a8a18f56e8913cf4a201fbe287825b095693c21775610bcd81612035565b6000151561013460008473ffffffffffffffffffffffffffffffffffffffff1673ffffffffffffffffffffffffffffffffffffffff16815260200190815260200160002060009054906101000a900460ff16151503610c61576040517f08c379a0000000000000000000000000000000000000000000000000000000008152600401610c5890615a23565b60405180910390fd5b600061013460008473ffffffffffffffffffffffffffffffffffffffff1673ffffffffffffffffffffffffffffffffffffffff16815260200190815260200160002060006101000a81548160ff021916908315150217905550600161013960008282829054906101000a900463ffffffff16610cdd9190615a72565b92506101000a81548163ffffffff021916908363ffffffff1602179055505050565b600060fd6000838152602001908152602001600020600101549050919050565b610d2882610cff565b610d3181612035565b610d3b8383612049565b505050565b60006001151561013460003373ffffffffffffffffffffffffffffffffffffffff1673ffffffffffffffffffffffffffffffffffffffff16815260200190815260200160002060009054906101000a900460ff16151514610dd6576040517f08c379a0000000000000000000000000000000000000000000000000000000008152600401610dcd90615b18565b60405180910390fd5b610e2d83610de261212a565b8488888080601f016020809104026020016040519081016040528093929190818152602001838380828437600081840152601f19601f82011690508083019250505050505050612132565b9050949350505050565b610e3f61212a565b73ffffffffffffffffffffffffffffffffffffffff168173ffffffffffffffffffffffffffffffffffffffff1614610eac576040517f08c379a0000000000000000000000000000000000000000000000000000000008152600401610ea390615baa565b60405180910390fd5b610eb68282612466565b5050565b7f000000000000000000000000000000000000000000000000000000000000000073ffffffffffffffffffffffffffffffffffffffff163073ffffffffffffffffffffffffffffffffffffffff1603610f48576040517f08c379a0000000000000000000000000000000000000000000000000000000008152600401610f3f90615c3c565b60405180910390fd5b7f000000000000000000000000000000000000000000000000000000000000000073ffffffffffffffffffffffffffffffffffffffff16610f87612548565b73ffffffffffffffffffffffffffffffffffffffff1614610fdd576040517f08c379a0000000000000000000000000000000000000000000000000000000008152600401610fd490615cce565b60405180910390fd5b610fe68161259f565b61103f81600067ffffffffffffffff81111561100557611004614e97565b5b6040519080825280601f01601f1916602001820160405280156110375781602001600182028036833780820191505090505b5060006125cb565b50565b61012f5481565b600080610136600084815260200190815260200160002090506000801b8160010154036110ab576040517f08c379a00000000000000000000000000000000000000000000000000000000081526004016110a290615d3a565b60405180910390fd5b8060060160029054906101000a900460ff16156110cc576007915050611232565b8060060160039054906101000a900460ff16156110ed576003915050611232565b611136816004016040518060200160405290816000820160009054906101000a900467ffffffffffffffff1667ffffffffffffffff1667ffffffffffffffff1681525050612739565b15611145576001915050611232565b61118e816005016040518060200160405290816000820160009054906101000a900467ffffffffffffffff1667ffffffffffffffff1667ffffffffffffffff1681525050612739565b80156111a0575061119e83612753565b155b156111af576002915050611232565b6111f8816005016040518060200160405290816000820160009054906101000a900467ffffffffffffffff1667ffffffffffffffff1667ffffffffffffffff16815250506127f8565b80611208575061120783612753565b5b1561122c5761121683612824565b611221576004611224565b60055b915050611232565b60009150505b919050565b600061126282610135600086815260200190815260200160002060010161289c90919063ffffffff16565b905092915050565b7f000000000000000000000000000000000000000000000000000000000000000073ffffffffffffffffffffffffffffffffffffffff163073ffffffffffffffffffffffffffffffffffffffff16036112f8576040517f08c379a00000000000000000000000000000000000000000000000000000000081526004016112ef90615c3c565b60405180910390fd5b7f000000000000000000000000000000000000000000000000000000000000000073ffffffffffffffffffffffffffffffffffffffff16611337612548565b73ffffffffffffffffffffffffffffffffffffffff161461138d576040517f08c379a000000000000000000000000000000000000000000000000000000000815260040161138490615cce565b60405180910390fd5b6113968261259f565b6113a2828260016125cb565b5050565b60007f000000000000000000000000000000000000000000000000000000000000000073ffffffffffffffffffffffffffffffffffffffff163073ffffffffffffffffffffffffffffffffffffffff1614611436576040517f08c379a000000000000000000000000000000000000000000000000000000000815260040161142d90615dcc565b60405180910390fd5b7f360894a13ba1a3210667c828492db98dca3e2076cc3735a920a3ca505d382bbc60001b905090565b6060610138805461146f906157f0565b80601f016020809104026020016040519081016040528092919081815260200182805461149b906157f0565b80156114e85780601f106114bd576101008083540402835291602001916114e8565b820191906000526020600020905b8154815290600101906020018083116114cb57829003601f168201915b5050505050905090565b60006001151561013460003373ffffffffffffffffffffffffffffffffffffffff1673ffffffffffffffffffffffffffffffffffffffff16815260200190815260200160002060009054906101000a900460ff16151514611588576040517f08c379a000000000000000000000000000000000000000000000000000000000815260040161157f90615b18565b60405180910390fd5b6000600381111561159c5761159b61529c565b5b826040015160038111156115b3576115b261529c565b5b036115f3576040517f08c379a00000000000000000000000000000000000000000000000000000000081526004016115ea90615e38565b60405180910390fd5b600060048111156116075761160661529c565b5b8260600151600481111561161e5761161d61529c565b5b0361165e576040517f08c379a000000000000000000000000000000000000000000000000000000000815260040161165590615ea4565b60405180910390fd5b60008260a0015151036116a6576040517f08c379a000000000000000000000000000000000000000000000000000000000815260040161169d90615f10565b60405180910390fd5b6000801b8260000151036116ef576040517f08c379a00000000000000000000000000000000000000000000000000000000081526004016116e690615f10565b60405180910390fd5b600082602001510361170657428260200181815250505b600082608001518051906020012090506000611742846000015183866020015161172e61212a565b886040015189606001518a60a00151611d59565b9050600061013660008381526020019081526020016000209050600061012f5486602001516117719190615f44565b905060006101305487602001516117889190615f44565b90506117a082846004016128cc90919063ffffffff16565b6117b681846005016128cc90919063ffffffff16565b84836002018190555086600001518360010181905550338360030160006101000a81548173ffffffffffffffffffffffffffffffffffffffff021916908373ffffffffffffffffffffffffffffffffffffffff16021790555086604001518360060160006101000a81548160ff0219169083600381111561183a5761183961529c565b5b021790555086606001518360060160016101000a81548160ff0219169083600481111561186a5761186961529c565b5b02179055508660a0015183600701908051906020019061188b929190614b40565b50611895836128fb565b8395505050505050919050565b7fa49807205ce4d355092ef5a8a18f56e8913cf4a201fbe287825b095693c2177581565b600060fd600084815260200190815260200160002060000160008373ffffffffffffffffffffffffffffffffffffffff1673ffffffffffffffffffffffffffffffffffffffff16815260200190815260200160002060009054906101000a900460ff16905092915050565b600061193d60016135ab565b90508015611961576001600060016101000a81548160ff0219169083151502179055505b8561013260006101000a81548173ffffffffffffffffffffffffffffffffffffffff021916908373ffffffffffffffffffffffffffffffffffffffff1602179055508661013160006101000a81548173ffffffffffffffffffffffffffffffffffffffff021916908373ffffffffffffffffffffffffffffffffffffffff160217905550600161013460008a73ffffffffffffffffffffffffffffffffffffffff1673ffffffffffffffffffffffffffffffffffffffff16815260200190815260200160002060006101000a81548160ff021916908315150217905550600161013960006101000a81548163ffffffff021916908363ffffffff1602179055508861013360006101000a81548173ffffffffffffffffffffffffffffffffffffffff021916908373ffffffffffffffffffffffffffffffffffffffff160217905550600161012f8190555062093a806101308190555084846101379190611ac9929190614bc6565b5082826101389190611adc929190614bc6565b50611bfd6101378054611aee906157f0565b80601f0160208091040260200160405190810160405280929190818152602001828054611b1a906157f0565b8015611b675780601f10611b3c57610100808354040283529160200191611b67565b820191906000526020600020905b815481529060010190602001808311611b4a57829003601f168201915b50505050506101388054611b7a906157f0565b80601f0160208091040260200160405190810160405280929190818152602001828054611ba6906157f0565b8015611bf35780601f10611bc857610100808354040283529160200191611bf3565b820191906000526020600020905b815481529060010190602001808311611bd657829003601f168201915b505050505061369b565b611c2e7fa49807205ce4d355092ef5a8a18f56e8913cf4a201fbe287825b095693c21775611c2961212a565b612049565b611c587fa49807205ce4d355092ef5a8a18f56e8913cf4a201fbe287825b095693c21775806136f8565b8015611cb15760008060016101000a81548160ff0219169083151502179055507f7f26b83ff96e1f2b6a682f133852f6798a09c465da95921460cefb38474024986001604051611ca89190615fd4565b60405180910390a15b505050505050505050565b61013260009054906101000a900473ffffffffffffffffffffffffffffffffffffffff1681565b6000801b81565b7ff26c159fd7d78f3848964c3adf4aea78577348fcb297db019bf8f5efbed0219581565b7f53cc2fae7ecef069da76ae9063c3ecfa7f417173bc5191fe1bb037165d76473f81565b61013160009054906101000a900473ffffffffffffffffffffffffffffffffffffffff1681565b600087878787878787604051602001611d7897969594939291906160d4565b6040516020818303038152906040528051906020012060001c9050979650505050505050565b611da782610cff565b611db081612035565b611dba8383612466565b505050565b7f150214d74d59b7d1e90c73fc22ef3d991dd0a76b046543d4d80ab92d2a50328f81565b7f23b872dd7302113369cda2901243429419bec145408fa8b352b3dd92b66c680b81565b61013360009054906101000a900473ffffffffffffffffffffffffffffffffffffffff1681565b7f36fd43ede163045b10e1f0abd16f62f165fce3fa7b6cde217bcea3bc47663acc81565b600061013460008373ffffffffffffffffffffffffffffffffffffffff1673ffffffffffffffffffffffffffffffffffffffff16815260200190815260200160002060009054906101000a900460ff169050919050565b60007fa49807205ce4d355092ef5a8a18f56e8913cf4a201fbe287825b095693c21775611ed581612035565b6000611ee084611049565b905060056007811115611ef657611ef561529c565b5b816007811115611f0957611f0861529c565b5b14611f49576040517f08c379a0000000000000000000000000000000000000000000000000000000008152600401611f40906161bc565b60405180910390fd5b60006101366000868152602001908152602001600020905060018160060160026101000a81548160ff0219169083151502179055506000611f8982613754565b90508015611fbf57857f712ae1383f79ac853f8d882153778e0260ef8f03b504e2866e0593e04d2b291f60405160405180910390a25b80945050505050919050565b60007f01ffc9a7000000000000000000000000000000000000000000000000000000007bffffffffffffffffffffffffffffffffffffffffffffffffffffffff1916827bffffffffffffffffffffffffffffffffffffffffffffffffffffffff1916149050919050565b6120468161204161212a565b613ed0565b50565b61205382826118c6565b61212657600160fd600084815260200190815260200160002060000160008373ffffffffffffffffffffffffffffffffffffffff1673ffffffffffffffffffffffffffffffffffffffff16815260200190815260200160002060006101000a81548160ff0219169083151502179055506120cb61212a565b73ffffffffffffffffffffffffffffffffffffffff168173ffffffffffffffffffffffffffffffffffffffff16837f2f8788117e7eff1d82e926ec794901d17c78024a50270940304540a733656f0d60405160405180910390a45b5050565b600033905090565b60008060038111156121475761214661529c565b5b83600381111561215a5761215961529c565b5b0361219a576040517f08c379a000000000000000000000000000000000000000000000000000000000815260040161219190616228565b60405180910390fd5b600260078111156121ae576121ad61529c565b5b6121b786611049565b60078111156121c9576121c861529c565b5b14612209576040517f08c379a0000000000000000000000000000000000000000000000000000000008152600401612200906162ba565b60405180910390fd5b600061013560008781526020019081526020016000209050612237858260010161289c90919063ffffffff16565b15612277576040517f08c379a000000000000000000000000000000000000000000000000000000000815260040161226e90616326565b60405180910390fd5b61228d8582600101613f6d90919063ffffffff16565b50600160038111156122a2576122a161529c565b5b8460038111156122b5576122b461529c565b5b0361230d5760018160000160008282829054906101000a900467ffffffffffffffff166122e29190615f44565b92506101000a81548167ffffffffffffffff021916908367ffffffffffffffff160217905550612408565b600260038111156123215761232061529c565b5b8460038111156123345761233361529c565b5b0361238c5760018160000160088282829054906101000a900467ffffffffffffffff166123619190615f44565b92506101000a81548167ffffffffffffffff021916908367ffffffffffffffff160217905550612407565b60038081111561239f5761239e61529c565b5b8460038111156123b2576123b161529c565b5b036124065760018160000160108282829054906101000a900467ffffffffffffffff166123df9190615f44565b92506101000a81548167ffffffffffffffff021916908367ffffffffffffffff1602179055505b5b5b858573ffffffffffffffffffffffffffffffffffffffff167f5be2678cab71c7d94235767eb1df3c57673f19e805cdc0edbd2e74854ae9f0f9868660405161245192919061638e565b60405180910390a36001915050949350505050565b61247082826118c6565b1561254457600060fd600084815260200190815260200160002060000160008373ffffffffffffffffffffffffffffffffffffffff1673ffffffffffffffffffffffffffffffffffffffff16815260200190815260200160002060006101000a81548160ff0219169083151502179055506124e961212a565b73ffffffffffffffffffffffffffffffffffffffff168173ffffffffffffffffffffffffffffffffffffffff16837ff6391f5c32d9c69d2a47ea670b442974b53935d1edc7fd64eb21e047a839171b60405160405180910390a45b5050565b60006125767f360894a13ba1a3210667c828492db98dca3e2076cc3735a920a3ca505d382bbc60001b613f9d565b60000160009054906101000a900473ffffffffffffffffffffffffffffffffffffffff16905090565b6125c87fa49807205ce4d355092ef5a8a18f56e8913cf4a201fbe287825b095693c21775612035565b50565b6125f77f4910fdfa16fed3260ed0e7147f7cc6da11a60208b5b9406d12a635614ffd914360001b613fa7565b60000160009054906101000a900460ff161561261b5761261683613fb1565b612734565b8273ffffffffffffffffffffffffffffffffffffffff166352d1902d6040518163ffffffff1660e01b8152600401602060405180830381865afa92505050801561268357506040513d601f19601f8201168201806040525081019061268091906163d3565b60015b6126c2576040517f08c379a00000000000000000000000000000000000000000000000000000000081526004016126b990616472565b60405180910390fd5b7f360894a13ba1a3210667c828492db98dca3e2076cc3735a920a3ca505d382bbc60001b8114612727576040517f08c379a000000000000000000000000000000000000000000000000000000000815260040161271e90616504565b60405180910390fd5b5061273383838361406a565b5b505050565b600042826000015167ffffffffffffffff16119050919050565b600080610135600084815260200190815260200160002090508060000160109054906101000a900467ffffffffffffffff168160000160009054906101000a900467ffffffffffffffff168260000160089054906101000a900467ffffffffffffffff166127c19190615f44565b6127cb9190615f44565b67ffffffffffffffff1661013960009054906101000a900463ffffffff1663ffffffff1614915050919050565b600061280382614096565b801561281d575042826000015167ffffffffffffffff1611155b9050919050565b600080610135600084815260200190815260200160002090506001600261013960009054906101000a900463ffffffff1661285f9190616553565b6128699190616584565b63ffffffff168160000160089054906101000a900467ffffffffffffffff1667ffffffffffffffff161015915050919050565b60006128c4836000018373ffffffffffffffffffffffffffffffffffffffff1660001b6140b0565b905092915050565b808260000160006101000a81548167ffffffffffffffff021916908367ffffffffffffffff1602179055505050565b6001600381111561290f5761290e61529c565b5b8160060160009054906101000a900460ff1660038111156129335761293261529c565b5b03612b7d576001600481111561294c5761294b61529c565b5b8160060160019054906101000a900460ff1660048111156129705761296f61529c565b5b03612b78576000816007018054612986906157f0565b80601f01602080910402602001604051908101604052809291908181526020018280546129b2906157f0565b80156129ff5780601f106129d4576101008083540402835291602001916129ff565b820191906000526020600020905b8154815290600101906020018083116129e257829003601f168201915b5050505050806020019051810190612a1791906166af565b9050600073ffffffffffffffffffffffffffffffffffffffff16816020015173ffffffffffffffffffffffffffffffffffffffff1603612a8c576040517f08c379a0000000000000000000000000000000000000000000000000000000008152600401612a839061676a565b60405180910390fd5b600081600001515103612ad4576040517f08c379a0000000000000000000000000000000000000000000000000000000008152600401612acb906167fc565b60405180910390fd5b806020015173ffffffffffffffffffffffffffffffffffffffff168260030160009054906101000a900473ffffffffffffffffffffffffffffffffffffffff1673ffffffffffffffffffffffffffffffffffffffff1683600001547f1ed01bd0c1c1bf90291ccf5527422f61411dc5ee964b1168e1f133b4805f341d856001015486600201548660000151604051612b6e9392919061681c565b60405180910390a4505b6135a8565b60026003811115612b9157612b9061529c565b5b8160060160009054906101000a900460ff166003811115612bb557612bb461529c565b5b0361356d5760016004811115612bce57612bcd61529c565b5b8160060160019054906101000a900460ff166004811115612bf257612bf161529c565b5b03612e9c576000816007018054612c08906157f0565b80601f0160208091040260200160405190810160405280929190818152602001828054612c34906157f0565b8015612c815780601f10612c5657610100808354040283529160200191612c81565b820191906000526020600020905b815481529060010190602001808311612c6457829003601f168201915b5050505050806020019051810190612c99919061693d565b9050600081600001515103612ce3576040517f08c379a0000000000000000000000000000000000000000000000000000000008152600401612cda906169d2565b60405180910390fd5b6000816020015103612d2a576040517f08c379a0000000000000000000000000000000000000000000000000000000008152600401612d2190616a64565b60405180910390fd5b6000816060015161ffff1603612d75576040517f08c379a0000000000000000000000000000000000000000000000000000000008152600401612d6c90616af6565b60405180910390fd5b600073ffffffffffffffffffffffffffffffffffffffff16816040015173ffffffffffffffffffffffffffffffffffffffff1603612de8576040517f08c379a0000000000000000000000000000000000000000000000000000000008152600401612ddf90616b62565b60405180910390fd5b806040015173ffffffffffffffffffffffffffffffffffffffff168260030160009054906101000a900473ffffffffffffffffffffffffffffffffffffffff1673ffffffffffffffffffffffffffffffffffffffff1683600001547f3709c37709f3d6ee9cb63f7adaa620b8c3df36c818baa2bf3e93f52b541c701d84602001518660010154876002015487600001518860600151604051612e8e959493929190616b91565b60405180910390a450613568565b60026004811115612eb057612eaf61529c565b5b8160060160019054906101000a900460ff166004811115612ed457612ed361529c565b5b0361317e576000816007018054612eea906157f0565b80601f0160208091040260200160405190810160405280929190818152602001828054612f16906157f0565b8015612f635780601f10612f3857610100808354040283529160200191612f63565b820191906000526020600020905b815481529060010190602001808311612f4657829003601f168201915b5050505050806020019051810190612f7b9190616c7f565b9050600081600001515103612fc5576040517f08c379a0000000000000000000000000000000000000000000000000000000008152600401612fbc906169d2565b60405180910390fd5b600081602001510361300c576040517f08c379a000000000000000000000000000000000000000000000000000000000815260040161300390616a64565b60405180910390fd5b6000816060015161ffff1603613057576040517f08c379a000000000000000000000000000000000000000000000000000000000815260040161304e90616af6565b60405180910390fd5b600073ffffffffffffffffffffffffffffffffffffffff16816040015173ffffffffffffffffffffffffffffffffffffffff16036130ca576040517f08c379a00000000000000000000000000000000000000000000000000000000081526004016130c190616d14565b60405180910390fd5b806040015173ffffffffffffffffffffffffffffffffffffffff168260030160009054906101000a900473ffffffffffffffffffffffffffffffffffffffff1673ffffffffffffffffffffffffffffffffffffffff1683600001547ffd412ada63c33b41fd5873414586636198b7a0fb94d405538e3f9ff8e139fe2384602001518660010154876002015487600001518860600151604051613170959493929190616b91565b60405180910390a450613567565b600360048111156131925761319161529c565b5b8160060160019054906101000a900460ff1660048111156131b6576131b561529c565b5b036133745760008160070180546131cc906157f0565b80601f01602080910402602001604051908101604052809291908181526020018280546131f8906157f0565b80156132455780601f1061321a57610100808354040283529160200191613245565b820191906000526020600020905b81548152906001019060200180831161322857829003601f168201915b505050505080602001905181019061325d9190616d70565b9050600073ffffffffffffffffffffffffffffffffffffffff16816000015173ffffffffffffffffffffffffffffffffffffffff16036132d2576040517f08c379a00000000000000000000000000000000000000000000000000000000081526004016132c990616e0f565b60405180910390fd5b806000015173ffffffffffffffffffffffffffffffffffffffff168260030160009054906101000a900473ffffffffffffffffffffffffffffffffffffffff1673ffffffffffffffffffffffffffffffffffffffff1683600001547f927d0e51911914ff13d9026ffdce0b23d07c2eb16f2381b45b528c5c03bcb27c85600101548660020154604051613366929190616e2f565b60405180910390a450613566565b6004808111156133875761338661529c565b5b8160060160019054906101000a900460ff1660048111156133ab576133aa61529c565b5b036135655760008160070180546133c1906157f0565b80601f01602080910402602001604051908101604052809291908181526020018280546133ed906157f0565b801561343a5780601f1061340f5761010080835404028352916020019161343a565b820191906000526020600020905b81548152906001019060200180831161341d57829003601f168201915b50505050508060200190518101906134529190616e94565b9050600073ffffffffffffffffffffffffffffffffffffffff16816000015173ffffffffffffffffffffffffffffffffffffffff16036134c7576040517f08c379a00000000000000000000000000000000000000000000000000000000081526004016134be90616f33565b60405180910390fd5b806000015173ffffffffffffffffffffffffffffffffffffffff168260030160009054906101000a900473ffffffffffffffffffffffffffffffffffffffff1673ffffffffffffffffffffffffffffffffffffffff1683600001547f348a6e7d4cea225355adaf26376cdb9ffd7a04a17e9410bb22b435d348bed09a8560010154866002015460405161355b929190616e2f565b60405180910390a4505b5b5b5b6135a7565b6003808111156135805761357f61529c565b5b8160060160009054906101000a900460ff1660038111156135a4576135a361529c565b5b50505b5b50565b60008060019054906101000a900460ff16156136225760018260ff161480156135da57506135d8306140d3565b155b613619576040517f08c379a000000000000000000000000000000000000000000000000000000000815260040161361090616fc5565b60405180910390fd5b60009050613696565b8160ff1660008054906101000a900460ff1660ff1610613677576040517f08c379a000000000000000000000000000000000000000000000000000000000815260040161366e90616fc5565b60405180910390fd5b816000806101000a81548160ff021916908360ff160217905550600190505b919050565b600060019054906101000a900460ff166136ea576040517f08c379a00000000000000000000000000000000000000000000000000000000081526004016136e190617057565b60405180910390fd5b6136f482826140f6565b5050565b600061370383610cff565b90508160fd6000858152602001908152602001600020600101819055508181847fbd79b86ffe0ab8e8776151514217cd7cacd52c909f66475c3af44e129f0b00ff60405160405180910390a4505050565b600080600190506001600381111561376f5761376e61529c565b5b8360060160009054906101000a900460ff1660038111156137935761379261529c565b5b0361392257600160048111156137ac576137ab61529c565b5b8360060160019054906101000a900460ff1660048111156137d0576137cf61529c565b5b0361391d5760008360070180546137e6906157f0565b80601f0160208091040260200160405190810160405280929190818152602001828054613812906157f0565b801561385f5780601f106138345761010080835404028352916020019161385f565b820191906000526020600020905b81548152906001019060200180831161384257829003601f168201915b505050505080602001905181019061387791906166af565b905060016101346000836020015173ffffffffffffffffffffffffffffffffffffffff1673ffffffffffffffffffffffffffffffffffffffff16815260200190815260200160002060006101000a81548160ff021916908315150217905550600161013960008282829054906101000a900463ffffffff166138f99190616584565b92506101000a81548163ffffffff021916908363ffffffff16021790555060019150505b613ec7565b600260038111156139365761393561529c565b5b8360060160009054906101000a900460ff16600381111561395a5761395961529c565b5b03613ec657600160048111156139735761397261529c565b5b8360060160019054906101000a900460ff1660048111156139975761399661529c565b5b03613b1d5760008360070180546139ad906157f0565b80601f01602080910402602001604051908101604052809291908181526020018280546139d9906157f0565b8015613a265780601f106139fb57610100808354040283529160200191613a26565b820191906000526020600020905b815481529060010190602001808311613a0957829003601f168201915b5050505050806020019051810190613a3e919061693d565b9050818015613a5b5750613a5a81604001518260200151614171565b5b9150818015613aaf5750613aae61013260009054906101000a900473ffffffffffffffffffffffffffffffffffffffff16606483602001516005613a9f9190617077565b613aa991906170d1565b614171565b5b9150818015613af85750613af78460030160009054906101000a900473ffffffffffffffffffffffffffffffffffffffff1660648360200151613af291906170d1565b614171565b5b9150818015613b155750613b1484600001548260200151614307565b5b915050613ec5565b60026004811115613b3157613b3061529c565b5b8360060160019054906101000a900460ff166004811115613b5557613b5461529c565b5b03613cdb576000836007018054613b6b906157f0565b80601f0160208091040260200160405190810160405280929190818152602001828054613b97906157f0565b8015613be45780601f10613bb957610100808354040283529160200191613be4565b820191906000526020600020905b815481529060010190602001808311613bc757829003601f168201915b5050505050806020019051810190613bfc9190616c7f565b9050818015613c195750613c1881604001518260200151614171565b5b9150818015613c6d5750613c6c61013260009054906101000a900473ffffffffffffffffffffffffffffffffffffffff16606483602001516005613c5d9190617077565b613c6791906170d1565b614171565b5b9150818015613cb65750613cb58460030160009054906101000a900473ffffffffffffffffffffffffffffffffffffffff1660648360200151613cb091906170d1565b614171565b5b9150818015613cd35750613cd284600001548260200151614307565b5b915050613ec4565b60036004811115613cef57613cee61529c565b5b8360060160019054906101000a900460ff166004811115613d1357613d1261529c565b5b03613dd1576000836007018054613d29906157f0565b80601f0160208091040260200160405190810160405280929190818152602001828054613d55906157f0565b8015613da25780601f10613d7757610100808354040283529160200191613da2565b820191906000526020600020905b815481529060010190602001808311613d8557829003601f168201915b5050505050806020019051810190613dba9190616d70565b9050613dc981600001516143b3565b915050613ec3565b600480811115613de457613de361529c565b5b8360060160019054906101000a900460ff166004811115613e0857613e0761529c565b5b03613ec2576000836007018054613e1e906157f0565b80601f0160208091040260200160405190810160405280929190818152602001828054613e4a906157f0565b8015613e975780601f10613e6c57610100808354040283529160200191613e97565b820191906000526020600020905b815481529060010190602001808311613e7a57829003601f168201915b5050505050806020019051810190613eaf9190616e94565b9050613ebe8160000151614521565b9150505b5b5b5b5b5b80915050919050565b613eda82826118c6565b613f6957613eff8173ffffffffffffffffffffffffffffffffffffffff16601461468f565b613f0d8360001c602061468f565b604051602001613f1e9291906171d6565b6040516020818303038152906040526040517f08c379a0000000000000000000000000000000000000000000000000000000008152600401613f609190614e05565b60405180910390fd5b5050565b6000613f95836000018373ffffffffffffffffffffffffffffffffffffffff1660001b6148cb565b905092915050565b6000819050919050565b6000819050919050565b613fba816140d3565b613ff9576040517f08c379a0000000000000000000000000000000000000000000000000000000008152600401613ff090617282565b60405180910390fd5b806140267f360894a13ba1a3210667c828492db98dca3e2076cc3735a920a3ca505d382bbc60001b613f9d565b60000160006101000a81548173ffffffffffffffffffffffffffffffffffffffff021916908373ffffffffffffffffffffffffffffffffffffffff16021790555050565b6140738361493b565b6000825111806140805750805b156140915761408f838361498a565b505b505050565b600080826000015167ffffffffffffffff16119050919050565b600080836001016000848152602001908152602001600020541415905092915050565b6000808273ffffffffffffffffffffffffffffffffffffffff163b119050919050565b600060019054906101000a900460ff16614145576040517f08c379a000000000000000000000000000000000000000000000000000000000815260040161413c90617057565b60405180910390fd5b600082805190602001209050600082805190602001209050816065819055508060668190555050505050565b6000807f23b872dd7302113369cda2901243429419bec145408fa8b352b3dd92b66c680b61013160009054906101000a900473ffffffffffffffffffffffffffffffffffffffff1685856040516024016141cd939291906172a2565b604051602081830303815290604052907bffffffffffffffffffffffffffffffffffffffffffffffffffffffff19166020820180517bffffffffffffffffffffffffffffffffffffffffffffffffffffffff83818316178352505050509050600061013360009054906101000a900473ffffffffffffffffffffffffffffffffffffffff1673ffffffffffffffffffffffffffffffffffffffff16826040516142769190617315565b6000604051808303816000865af19150503d80600081146142b3576040519150601f19603f3d011682016040523d82523d6000602084013e6142b8565b606091505b50509050806142fc576040517f08c379a00000000000000000000000000000000000000000000000000000000081526004016142f390617378565b60405180910390fd5b809250505092915050565b60008061013560008581526020019081526020016000209050600061432e82600101614a6e565b905060008160648660026143429190617077565b61434c91906170d1565b61435691906170d1565b9050600080600090505b838110156143a557818015614390575061438f6143898287600101614a8390919063ffffffff16565b84614171565b5b9150808061439d90617398565b915050614360565b508094505050505092915050565b6000807ff26c159fd7d78f3848964c3adf4aea78577348fcb297db019bf8f5efbed02195836040516024016143e891906156be565b604051602081830303815290604052907bffffffffffffffffffffffffffffffffffffffffffffffffffffffff19166020820180517bffffffffffffffffffffffffffffffffffffffffffffffffffffffff83818316178352505050509050600061013360009054906101000a900473ffffffffffffffffffffffffffffffffffffffff1673ffffffffffffffffffffffffffffffffffffffff16826040516144919190617315565b6000604051808303816000865af19150503d80600081146144ce576040519150601f19603f3d011682016040523d82523d6000602084013e6144d3565b606091505b5050905080614517576040517f08c379a000000000000000000000000000000000000000000000000000000000815260040161450e9061742c565b60405180910390fd5b8092505050919050565b6000807f53cc2fae7ecef069da76ae9063c3ecfa7f417173bc5191fe1bb037165d76473f8360405160240161455691906156be565b604051602081830303815290604052907bffffffffffffffffffffffffffffffffffffffffffffffffffffffff19166020820180517bffffffffffffffffffffffffffffffffffffffffffffffffffffffff83818316178352505050509050600061013360009054906101000a900473ffffffffffffffffffffffffffffffffffffffff1673ffffffffffffffffffffffffffffffffffffffff16826040516145ff9190617315565b6000604051808303816000865af19150503d806000811461463c576040519150601f19603f3d011682016040523d82523d6000602084013e614641565b606091505b5050905080614685576040517f08c379a000000000000000000000000000000000000000000000000000000000815260040161467c90617498565b60405180910390fd5b8092505050919050565b6060600060028360026146a29190617077565b6146ac91906174b8565b67ffffffffffffffff8111156146c5576146c4614e97565b5b6040519080825280601f01601f1916602001820160405280156146f75781602001600182028036833780820191505090505b5090507f30000000000000000000000000000000000000000000000000000000000000008160008151811061472f5761472e61750e565b5b60200101907effffffffffffffffffffffffffffffffffffffffffffffffffffffffffffff1916908160001a9053507f7800000000000000000000000000000000000000000000000000000000000000816001815181106147935761479261750e565b5b60200101907effffffffffffffffffffffffffffffffffffffffffffffffffffffffffffff1916908160001a905350600060018460026147d39190617077565b6147dd91906174b8565b90505b600181111561487d577f3031323334353637383961626364656600000000000000000000000000000000600f86166010811061481f5761481e61750e565b5b1a60f81b8282815181106148365761483561750e565b5b60200101907effffffffffffffffffffffffffffffffffffffffffffffffffffffffffffff1916908160001a905350600485901c9450806148769061753d565b90506147e0565b50600084146148c1576040517f08c379a00000000000000000000000000000000000000000000000000000000081526004016148b8906175b2565b60405180910390fd5b8091505092915050565b60006148d783836140b0565b614930578260000182908060018154018082558091505060019003906000526020600020016000909190919091505582600001805490508360010160008481526020019081526020016000208190555060019050614935565b600090505b92915050565b61494481613fb1565b8073ffffffffffffffffffffffffffffffffffffffff167fbc7cd75a20ee27fd9adebab32041f755214dbc6bffa90cc0225b39da2e5c2d3b60405160405180910390a250565b6060614995836140d3565b6149d4576040517f08c379a00000000000000000000000000000000000000000000000000000000081526004016149cb90617644565b60405180910390fd5b6000808473ffffffffffffffffffffffffffffffffffffffff16846040516149fc9190617315565b600060405180830381855af49150503d8060008114614a37576040519150601f19603f3d011682016040523d82523d6000602084013e614a3c565b606091505b5091509150614a64828260405180606001604052806027815260200161766560279139614a9d565b9250505092915050565b6000614a7c82600001614b04565b9050919050565b6000614a928360000183614b15565b60001c905092915050565b60608315614aad57829050614afd565b600083511115614ac05782518084602001fd5b816040517f08c379a0000000000000000000000000000000000000000000000000000000008152600401614af49190614e05565b60405180910390fd5b9392505050565b600081600001805490509050919050565b6000826000018281548110614b2d57614b2c61750e565b5b9060005260206000200154905092915050565b828054614b4c906157f0565b90600052602060002090601f016020900481019282614b6e5760008555614bb5565b82601f10614b8757805160ff1916838001178555614bb5565b82800160010185558215614bb5579182015b82811115614bb4578251825591602001919060010190614b99565b5b509050614bc29190614c4c565b5090565b828054614bd2906157f0565b90600052602060002090601f016020900481019282614bf45760008555614c3b565b82601f10614c0d57803560ff1916838001178555614c3b565b82800160010185558215614c3b579182015b82811115614c3a578235825591602001919060010190614c1f565b5b509050614c489190614c4c565b5090565b5b80821115614c65576000816000905550600101614c4d565b5090565b6000604051905090565b600080fd5b600080fd5b60007fffffffff0000000000000000000000000000000000000000000000000000000082169050919050565b614cb281614c7d565b8114614cbd57600080fd5b50565b600081359050614ccf81614ca9565b92915050565b600060208284031215614ceb57614cea614c73565b5b6000614cf984828501614cc0565b91505092915050565b60008115159050919050565b614d1781614d02565b82525050565b6000602082019050614d326000830184614d0e565b92915050565b6000819050919050565b614d4b81614d38565b82525050565b6000602082019050614d666000830184614d42565b92915050565b600081519050919050565b600082825260208201905092915050565b60005b83811015614da6578082015181840152602081019050614d8b565b83811115614db5576000848401525b50505050565b6000601f19601f8301169050919050565b6000614dd782614d6c565b614de18185614d77565b9350614df1818560208601614d88565b614dfa81614dbb565b840191505092915050565b60006020820190508181036000830152614e1f8184614dcc565b905092915050565b600063ffffffff82169050919050565b614e4081614e27565b82525050565b6000602082019050614e5b6000830184614e37565b92915050565b614e6a81614d38565b8114614e7557600080fd5b50565b600081359050614e8781614e61565b92915050565b600080fd5b600080fd5b7f4e487b7100000000000000000000000000000000000000000000000000000000600052604160045260246000fd5b614ecf82614dbb565b810181811067ffffffffffffffff82111715614eee57614eed614e97565b5b80604052505050565b6000614f01614c69565b9050614f0d8282614ec6565b919050565b600067ffffffffffffffff821115614f2d57614f2c614e97565b5b614f3682614dbb565b9050602081019050919050565b82818337600083830152505050565b6000614f65614f6084614f12565b614ef7565b905082815260208101848484011115614f8157614f80614e92565b5b614f8c848285614f43565b509392505050565b600082601f830112614fa957614fa8614e8d565b5b8135614fb9848260208601614f52565b91505092915050565b60008060408385031215614fd957614fd8614c73565b5b6000614fe785828601614e78565b925050602083013567ffffffffffffffff81111561500857615007614c78565b5b61501485828601614f94565b9150509250929050565b600073ffffffffffffffffffffffffffffffffffffffff82169050919050565b60006150498261501e565b9050919050565b6150598161503e565b811461506457600080fd5b50565b60008135905061507681615050565b92915050565b60006020828403121561509257615091614c73565b5b60006150a084828501615067565b91505092915050565b6000819050919050565b6150bc816150a9565b81146150c757600080fd5b50565b6000813590506150d9816150b3565b92915050565b6000602082840312156150f5576150f4614c73565b5b6000615103848285016150ca565b91505092915050565b615115816150a9565b82525050565b6000602082019050615130600083018461510c565b92915050565b6000806040838503121561514d5761514c614c73565b5b600061515b858286016150ca565b925050602061516c85828601615067565b9150509250929050565b600080fd5b600080fd5b60008083601f84011261519657615195614e8d565b5b8235905067ffffffffffffffff8111156151b3576151b2615176565b5b6020830191508360018202830111156151cf576151ce61517b565b5b9250929050565b600481106151e357600080fd5b50565b6000813590506151f5816151d6565b92915050565b6000806000806060858703121561521557615214614c73565b5b600085013567ffffffffffffffff81111561523357615232614c78565b5b61523f87828801615180565b9450945050602061525287828801614e78565b9250506040615263878288016151e6565b91505092959194509250565b60006020828403121561528557615284614c73565b5b600061529384828501614e78565b91505092915050565b7f4e487b7100000000000000000000000000000000000000000000000000000000600052602160045260246000fd5b600881106152dc576152db61529c565b5b50565b60008190506152ed826152cb565b919050565b60006152fd826152df565b9050919050565b61530d816152f2565b82525050565b60006020820190506153286000830184615304565b92915050565b6000806040838503121561534557615344614c73565b5b600061535385828601614e78565b925050602061536485828601615067565b9150509250929050565b600067ffffffffffffffff82111561538957615388614e97565b5b61539282614dbb565b9050602081019050919050565b60006153b26153ad8461536e565b614ef7565b9050828152602081018484840111156153ce576153cd614e92565b5b6153d9848285614f43565b509392505050565b600082601f8301126153f6576153f5614e8d565b5b813561540684826020860161539f565b91505092915050565b6000806040838503121561542657615425614c73565b5b600061543485828601615067565b925050602083013567ffffffffffffffff81111561545557615454614c78565b5b615461858286016153e1565b9150509250929050565b600080fd5b600080fd5b6004811061548257600080fd5b50565b60008135905061549481615475565b92915050565b600581106154a757600080fd5b50565b6000813590506154b98161549a565b92915050565b600060c082840312156154d5576154d461546b565b5b6154df60c0614ef7565b905060006154ef848285016150ca565b600083015250602061550384828501614e78565b602083015250604061551784828501615485565b604083015250606061552b848285016154aa565b606083015250608082013567ffffffffffffffff81111561554f5761554e615470565b5b61555b84828501614f94565b60808301525060a082013567ffffffffffffffff81111561557f5761557e615470565b5b61558b848285016153e1565b60a08301525092915050565b6000602082840312156155ad576155ac614c73565b5b600082013567ffffffffffffffff8111156155cb576155ca614c78565b5b6155d7848285016154bf565b91505092915050565b60008060008060008060008060c0898b031215615600576155ff614c73565b5b600061560e8b828c01615067565b985050602061561f8b828c01615067565b97505060406156308b828c01615067565b96505060606156418b828c01615067565b955050608089013567ffffffffffffffff81111561566257615661614c78565b5b61566e8b828c01615180565b945094505060a089013567ffffffffffffffff81111561569157615690614c78565b5b61569d8b828c01615180565b92509250509295985092959890939650565b6156b88161503e565b82525050565b60006020820190506156d360008301846156af565b92915050565b6156e281614c7d565b82525050565b60006020820190506156fd60008301846156d9565b92915050565b600080600080600080600060e0888a03121561572257615721614c73565b5b60006157308a828b016150ca565b97505060206157418a828b016150ca565b96505060406157528a828b01614e78565b95505060606157638a828b01615067565b94505060806157748a828b01615485565b93505060a06157858a828b016154aa565b92505060c088013567ffffffffffffffff8111156157a6576157a5614c78565b5b6157b28a828b016153e1565b91505092959891949750929550565b7f4e487b7100000000000000000000000000000000000000000000000000000000600052602260045260246000fd5b6000600282049050600182168061580857607f821691505b60208210810361581b5761581a6157c1565b5b50919050565b7f476f7665726e6f72203a206f6e6c792070726f706f7365722063616e2063616e60008201527f63656c0000000000000000000000000000000000000000000000000000000000602082015250565b600061587d602383614d77565b915061588882615821565b604082019050919050565b600060208201905081810360008301526158ac81615870565b9050919050565b7f476f7665726e6f723a2070726f706f73616c206e6f7420616374697665000000600082015250565b60006158e9601d83614d77565b91506158f4826158b3565b602082019050919050565b60006020820190508181036000830152615918816158dc565b9050919050565b7f476f7665726e6f723a2070726f706f73616c20616c72656164792063616e636560008201527f6c65640000000000000000000000000000000000000000000000000000000000602082015250565b600061597b602383614d77565b91506159868261591f565b604082019050919050565b600060208201905081810360008301526159aa8161596e565b9050919050565b7f56616c696461746f723a206f6e6c792065786973742076616c696461746f722060008201527f63616e2062652064697361626c65000000000000000000000000000000000000602082015250565b6000615a0d602e83614d77565b9150615a18826159b1565b604082019050919050565b60006020820190508181036000830152615a3c81615a00565b9050919050565b7f4e487b7100000000000000000000000000000000000000000000000000000000600052601160045260246000fd5b6000615a7d82614e27565b9150615a8883614e27565b925082821015615a9b57615a9a615a43565b5b828203905092915050565b7f476f7665726e6f723a206f6e6c792076616c696461746f722063616e20766f7460008201527f6500000000000000000000000000000000000000000000000000000000000000602082015250565b6000615b02602183614d77565b9150615b0d82615aa6565b604082019050919050565b60006020820190508181036000830152615b3181615af5565b9050919050565b7f416363657373436f6e74726f6c3a2063616e206f6e6c792072656e6f756e636560008201527f20726f6c657320666f722073656c660000000000000000000000000000000000602082015250565b6000615b94602f83614d77565b9150615b9f82615b38565b604082019050919050565b60006020820190508181036000830152615bc381615b87565b9050919050565b7f46756e6374696f6e206d7573742062652063616c6c6564207468726f7567682060008201527f64656c656761746563616c6c0000000000000000000000000000000000000000602082015250565b6000615c26602c83614d77565b9150615c3182615bca565b604082019050919050565b60006020820190508181036000830152615c5581615c19565b9050919050565b7f46756e6374696f6e206d7573742062652063616c6c6564207468726f7567682060008201527f6163746976652070726f78790000000000000000000000000000000000000000602082015250565b6000615cb8602c83614d77565b9150615cc382615c5c565b604082019050919050565b60006020820190508181036000830152615ce781615cab565b9050919050565b7f70726f706f73616c496420697320696e76616c69640000000000000000000000600082015250565b6000615d24601583614d77565b9150615d2f82615cee565b602082019050919050565b60006020820190508181036000830152615d5381615d17565b9050919050565b7f555550535570677261646561626c653a206d757374206e6f742062652063616c60008201527f6c6564207468726f7567682064656c656761746563616c6c0000000000000000602082015250565b6000615db6603883614d77565b9150615dc182615d5a565b604082019050919050565b60006020820190508181036000830152615de581615da9565b9050919050565b7f70726f706f73616c20747970652073686f756c64206e6f74206265204e4f4e45600082015250565b6000615e22602083614d77565b9150615e2d82615dec565b602082019050919050565b60006020820190508181036000830152615e5181615e15565b9050919050565b7f616374696f6e20747970652073686f756c64206e6f74206265204e4f4e450000600082015250565b6000615e8e601e83614d77565b9150615e9982615e58565b602082019050919050565b60006020820190508181036000830152615ebd81615e81565b9050919050565b7f646174612073686f756c64206e6f7420626520656d7074790000000000000000600082015250565b6000615efa601883614d77565b9150615f0582615ec4565b602082019050919050565b60006020820190508181036000830152615f2981615eed565b9050919050565b600067ffffffffffffffff82169050919050565b6000615f4f82615f30565b9150615f5a83615f30565b92508267ffffffffffffffff03821115615f7757615f76615a43565b5b828201905092915050565b6000819050919050565b600060ff82169050919050565b6000819050919050565b6000615fbe615fb9615fb484615f82565b615f99565b615f8c565b9050919050565b615fce81615fa3565b82525050565b6000602082019050615fe96000830184615fc5565b92915050565b6004811061600057615fff61529c565b5b50565b600081905061601182615fef565b919050565b600061602182616003565b9050919050565b61603181616016565b82525050565b600581106160485761604761529c565b5b50565b600081905061605982616037565b919050565b60006160698261604b565b9050919050565b6160798161605e565b82525050565b600081519050919050565b600082825260208201905092915050565b60006160a68261607f565b6160b0818561608a565b93506160c0818560208601614d88565b6160c981614dbb565b840191505092915050565b600060e0820190506160e9600083018a61510c565b6160f6602083018961510c565b6161036040830188614d42565b61611060608301876156af565b61611d6080830186616028565b61612a60a0830185616070565b81810360c083015261613c818461609b565b905098975050505050505050565b7f476f7665726e6f723a2070726f706f73616c206e6f742073756363657373667560008201527f6c00000000000000000000000000000000000000000000000000000000000000602082015250565b60006161a6602183614d77565b91506161b18261614a565b604082019050919050565b600060208201905081810360008301526161d581616199565b9050919050565b7f476f7665726e6f723a20766f746520696e76616c696400000000000000000000600082015250565b6000616212601683614d77565b915061621d826161dc565b602082019050919050565b6000602082019050818103600083015261624181616205565b9050919050565b7f476f7665726e6f723a2070726f706f73616c2063757272656e746c7920696e6160008201527f6374697665000000000000000000000000000000000000000000000000000000602082015250565b60006162a4602583614d77565b91506162af82616248565b604082019050919050565b600060208201905081810360008301526162d381616297565b9050919050565b7f476f7665726e6f723a20766f746520616c726561647920636173740000000000600082015250565b6000616310601b83614d77565b915061631b826162da565b602082019050919050565b6000602082019050818103600083015261633f81616303565b9050919050565b600481106163575761635661529c565b5b50565b600081905061636882616346565b919050565b60006163788261635a565b9050919050565b6163888161636d565b82525050565b60006040820190506163a3600083018561637f565b81810360208301526163b58184614dcc565b90509392505050565b6000815190506163cd816150b3565b92915050565b6000602082840312156163e9576163e8614c73565b5b60006163f7848285016163be565b91505092915050565b7f45524331393637557067726164653a206e657720696d706c656d656e7461746960008201527f6f6e206973206e6f742055555053000000000000000000000000000000000000602082015250565b600061645c602e83614d77565b915061646782616400565b604082019050919050565b6000602082019050818103600083015261648b8161644f565b9050919050565b7f45524331393637557067726164653a20756e737570706f727465642070726f7860008201527f6961626c65555549440000000000000000000000000000000000000000000000602082015250565b60006164ee602983614d77565b91506164f982616492565b604082019050919050565b6000602082019050818103600083015261651d816164e1565b9050919050565b7f4e487b7100000000000000000000000000000000000000000000000000000000600052601260045260246000fd5b600061655e82614e27565b915061656983614e27565b92508261657957616578616524565b5b828204905092915050565b600061658f82614e27565b915061659a83614e27565b92508263ffffffff038211156165b3576165b2615a43565b5b828201905092915050565b60006165d16165cc84614f12565b614ef7565b9050828152602081018484840111156165ed576165ec614e92565b5b6165f8848285614d88565b509392505050565b600082601f83011261661557616614614e8d565b5b81516166258482602086016165be565b91505092915050565b60008151905061663d81615050565b92915050565b6000604082840312156166595761665861546b565b5b6166636040614ef7565b9050600082015167ffffffffffffffff81111561668357616682615470565b5b61668f84828501616600565b60008301525060206166a38482850161662e565b60208301525092915050565b6000602082840312156166c5576166c4614c73565b5b600082015167ffffffffffffffff8111156166e3576166e2614c78565b5b6166ef84828501616643565b91505092915050565b7f76616c696461746f7220616464726573732073686f756c64206e6f742062652060008201527f7a65726f00000000000000000000000000000000000000000000000000000000602082015250565b6000616754602483614d77565b915061675f826166f8565b604082019050919050565b6000602082019050818103600083015261678381616747565b9050919050565b7f76616c696461746f72206e616d652073686f756c64206e6f7420626520656d7060008201527f7479000000000000000000000000000000000000000000000000000000000000602082015250565b60006167e6602283614d77565b91506167f18261678a565b604082019050919050565b60006020820190508181036000830152616815816167d9565b9050919050565b6000606082019050616831600083018661510c565b61683e602083018561510c565b81810360408301526168508184614dcc565b9050949350505050565b60008151905061686981614e61565b92915050565b600061ffff82169050919050565b6168868161686f565b811461689157600080fd5b50565b6000815190506168a38161687d565b92915050565b6000608082840312156168bf576168be61546b565b5b6168c96080614ef7565b9050600082015167ffffffffffffffff8111156168e9576168e8615470565b5b6168f584828501616600565b60008301525060206169098482850161685a565b602083015250604061691d8482850161662e565b604083015250606061693184828501616894565b60608301525092915050565b60006020828403121561695357616952614c73565b5b600082015167ffffffffffffffff81111561697157616970614c78565b5b61697d848285016168a9565b91505092915050565b7f73746172747570206e616d652073686f756c64206e6f7420626520656d707479600082015250565b60006169bc602083614d77565b91506169c782616986565b602082019050919050565b600060208201905081810360008301526169eb816169af565b9050919050565b7f7374617274757020746f6b656e206f666665722073686f756c64206e6f74206260008201527f65207a65726f0000000000000000000000000000000000000000000000000000602082015250565b6000616a4e602683614d77565b9150616a59826169f2565b604082019050919050565b60006020820190508181036000830152616a7d81616a41565b9050919050565b7f7374617274757020736861726564207374616b652073686f756c64206e6f742060008201527f6265207a65726f00000000000000000000000000000000000000000000000000602082015250565b6000616ae0602783614d77565b9150616aeb82616a84565b604082019050919050565b60006020820190508181036000830152616b0f81616ad3565b9050919050565b7f7374617274757020454f412073686f756c64206e6f74206265207a65726f0000600082015250565b6000616b4c601e83614d77565b9150616b5782616b16565b602082019050919050565b60006020820190508181036000830152616b7b81616b3f565b9050919050565b616b8b8161686f565b82525050565b600060a082019050616ba66000830188614d42565b616bb3602083018761510c565b616bc0604083018661510c565b8181036060830152616bd28185614dcc565b9050616be16080830184616b82565b9695505050505050565b600060808284031215616c0157616c0061546b565b5b616c0b6080614ef7565b9050600082015167ffffffffffffffff811115616c2b57616c2a615470565b5b616c3784828501616600565b6000830152506020616c4b8482850161685a565b6020830152506040616c5f8482850161662e565b6040830152506060616c7384828501616894565b60608301525092915050565b600060208284031215616c9557616c94614c73565b5b600082015167ffffffffffffffff811115616cb357616cb2614c78565b5b616cbf84828501616beb565b91505092915050565b7f76616c696461746f7220454f412073686f756c64206e6f74206265207a65726f600082015250565b6000616cfe602083614d77565b9150616d0982616cc8565b602082019050919050565b60006020820190508181036000830152616d2d81616cf1565b9050919050565b600060208284031215616d4a57616d4961546b565b5b616d546020614ef7565b90506000616d648482850161662e565b60008301525092915050565b600060208284031215616d8657616d85614c73565b5b6000616d9484828501616d34565b91505092915050565b7f467265657a653a206163636f756e742073686f756c64206e6f74206265207a6560008201527f726f000000000000000000000000000000000000000000000000000000000000602082015250565b6000616df9602283614d77565b9150616e0482616d9d565b604082019050919050565b60006020820190508181036000830152616e2881616dec565b9050919050565b6000604082019050616e44600083018561510c565b616e51602083018461510c565b9392505050565b600060208284031215616e6e57616e6d61546b565b5b616e786020614ef7565b90506000616e888482850161662e565b60008301525092915050565b600060208284031215616eaa57616ea9614c73565b5b6000616eb884828501616e58565b91505092915050565b7f556e667265657a653a206163636f756e742073686f756c64206e6f742062652060008201527f7a65726f00000000000000000000000000000000000000000000000000000000602082015250565b6000616f1d602483614d77565b9150616f2882616ec1565b604082019050919050565b60006020820190508181036000830152616f4c81616f10565b9050919050565b7f496e697469616c697a61626c653a20636f6e747261637420697320616c72656160008201527f647920696e697469616c697a6564000000000000000000000000000000000000602082015250565b6000616faf602e83614d77565b9150616fba82616f53565b604082019050919050565b60006020820190508181036000830152616fde81616fa2565b9050919050565b7f496e697469616c697a61626c653a20636f6e7472616374206973206e6f74206960008201527f6e697469616c697a696e67000000000000000000000000000000000000000000602082015250565b6000617041602b83614d77565b915061704c82616fe5565b604082019050919050565b6000602082019050818103600083015261707081617034565b9050919050565b600061708282614d38565b915061708d83614d38565b9250817fffffffffffffffffffffffffffffffffffffffffffffffffffffffffffffffff04831182151516156170c6576170c5615a43565b5b828202905092915050565b60006170dc82614d38565b91506170e783614d38565b9250826170f7576170f6616524565b5b828204905092915050565b600081905092915050565b7f416363657373436f6e74726f6c3a206163636f756e7420000000000000000000600082015250565b6000617143601783617102565b915061714e8261710d565b601782019050919050565b600061716482614d6c565b61716e8185617102565b935061717e818560208601614d88565b80840191505092915050565b7f206973206d697373696e6720726f6c6520000000000000000000000000000000600082015250565b60006171c0601183617102565b91506171cb8261718a565b601182019050919050565b60006171e182617136565b91506171ed8285617159565b91506171f8826171b3565b91506172048284617159565b91508190509392505050565b7f455243313936373a206e657720696d706c656d656e746174696f6e206973206e60008201527f6f74206120636f6e747261637400000000000000000000000000000000000000602082015250565b600061726c602d83614d77565b915061727782617210565b604082019050919050565b6000602082019050818103600083015261729b8161725f565b9050919050565b60006060820190506172b760008301866156af565b6172c460208301856156af565b6172d16040830184614d42565b949350505050565b600081905092915050565b60006172ef8261607f565b6172f981856172d9565b9350617309818560208601614d88565b80840191505092915050565b600061732182846172e4565b915081905092915050565b7f457865637574653a207472616e73666572206661696c65732120000000000000600082015250565b6000617362601a83614d77565b915061736d8261732c565b602082019050919050565b6000602082019050818103600083015261739181617355565b9050919050565b60006173a382614d38565b91507fffffffffffffffffffffffffffffffffffffffffffffffffffffffffffffffff82036173d5576173d4615a43565b5b600182019050919050565b7f457865637574653a20667265657a65206163636f756e74206661696c65640000600082015250565b6000617416601e83614d77565b9150617421826173e0565b602082019050919050565b6000602082019050818103600083015261744581617409565b9050919050565b7f457865637574653a20556e667265657a65206163636f756e74206661696c6564600082015250565b6000617482602083614d77565b915061748d8261744c565b602082019050919050565b600060208201905081810360008301526174b181617475565b9050919050565b60006174c382614d38565b91506174ce83614d38565b9250827fffffffffffffffffffffffffffffffffffffffffffffffffffffffffffffffff0382111561750357617502615a43565b5b828201905092915050565b7f4e487b7100000000000000000000000000000000000000000000000000000000600052603260045260246000fd5b600061754882614d38565b91506000820361755b5761755a615a43565b5b600182039050919050565b7f537472696e67733a20686578206c656e67746820696e73756666696369656e74600082015250565b600061759c602083614d77565b91506175a782617566565b602082019050919050565b600060208201905081810360008301526175cb8161758f565b9050919050565b7f416464726573733a2064656c65676174652063616c6c20746f206e6f6e2d636f60008201527f6e74726163740000000000000000000000000000000000000000000000000000602082015250565b600061762e602683614d77565b9150617639826175d2565b604082019050919050565b6000602082019050818103600083015261765d81617621565b905091905056fe416464726573733a206c6f772d6c6576656c2064656c65676174652063616c6c206661696c6564a2646970667358221220876ab01b6c3667cce7ea7d85973fa0f7274cdfa7ea547792afbfa36e52f1805064736f6c634300080e0033",
  "linkReferences": {},
  "deployedLinkReferences": {},
  "devdoc": {
    "kind": "dev",
    "methods": {
      "cancel(uint256,string)": {
        "details": "Cancel a proposal. Cancels a proposal only if sender is the proposer. We need to decide to conditions of consensus cancelation Emits a {ProposalCanceled} event."
      },
      "castVote(string,uint256,uint8)": {
        "details": "Cast a vote Emits a {VoteCast} event."
      },
      "execute(uint256)": {
        "details": "Execute a successful proposal. This requires the quorum to be reached, the vote to be successful, and the deadline to be reached. Emits a {ProposalExecuted} event."
      },
      "getRoleAdmin(bytes32)": {
        "details": "Returns the admin role that controls `role`. See {grantRole} and {revokeRole}. To change a role's admin, use {_setRoleAdmin}."
      },
      "grantRole(bytes32,address)": {
        "details": "Grants `role` to `account`. If `account` had not been already granted `role`, emits a {RoleGranted} event. Requirements: - the caller must have ``role``'s admin role."
      },
      "hasRole(bytes32,address)": {
        "details": "Returns `true` if `account` has been granted `role`."
      },
      "hasVoted(uint256,address)": {
        "details": "Returns weither `account` has cast a vote on `proposalId`."
      },
      "hashProposal(bytes32,bytes32,uint256,address,uint8,uint8,bytes)": {
        "details": "Hashing function used to (re)build the proposal id from the proposal ..."
      },
      "name()": {
        "details": "Name of the governor instance (used in building the ERC712 domain separator)."
      },
      "proxiableUUID()": {
        "details": "Implementation of the ERC1822 {proxiableUUID} function. This returns the storage slot used by the implementation. It is used to validate that the this implementation remains valid after an upgrade. IMPORTANT: A proxy pointing at a proxiable contract should not be considered proxiable itself, because this risks bricking a proxy that upgrades to it, by delegating to itself until out of gas. Thus it is critical that this function revert if invoked through a proxy. This is guaranteed by the `notDelegated` modifier."
      },
      "renounceRole(bytes32,address)": {
        "details": "Revokes `role` from the calling account. Roles are often managed via {grantRole} and {revokeRole}: this function's purpose is to provide a mechanism for accounts to lose their privileges if they are compromised (such as when a trusted device is misplaced). If the calling account had been revoked `role`, emits a {RoleRevoked} event. Requirements: - the caller must be `account`."
      },
      "revokeRole(bytes32,address)": {
        "details": "Revokes `role` from `account`. If `account` had been granted `role`, emits a {RoleRevoked} event. Requirements: - the caller must have ``role``'s admin role."
      },
      "state(uint256)": {
        "details": "See {IGovernor-state}. need to change the state machine"
      },
      "supportsInterface(bytes4)": {
        "details": "See {IERC165-supportsInterface}."
      },
      "upgradeTo(address)": {
        "details": "Upgrade the implementation of the proxy to `newImplementation`. Calls {_authorizeUpgrade}. Emits an {Upgraded} event."
      },
      "upgradeToAndCall(address,bytes)": {
        "details": "Upgrade the implementation of the proxy to `newImplementation`, and subsequently execute the function call encoded in `data`. Calls {_authorizeUpgrade}. Emits an {Upgraded} event."
      },
      "version()": {
        "details": "Version of the governor instance (used in building the ERC712 domain separator). Default: \"1\""
      }
    },
    "version": 1
  },
  "evm": {
    "bytecode": {
      "linkReferences": {},
      "opcodes": "PUSH1 0xA0 PUSH1 0x40 MSTORE ADDRESS PUSH20 0xFFFFFFFFFFFFFFFFFFFFFFFFFFFFFFFFFFFFFFFF AND PUSH1 0x80 SWAP1 PUSH20 0xFFFFFFFFFFFFFFFFFFFFFFFFFFFFFFFFFFFFFFFF AND DUP2 MSTORE POP CALLVALUE DUP1 ISZERO PUSH2 0x43 JUMPI PUSH1 0x0 DUP1 REVERT JUMPDEST POP PUSH1 0x80 MLOAD PUSH2 0x76C1 PUSH3 0x7C PUSH1 0x0 CODECOPY PUSH1 0x0 DUP2 DUP2 PUSH2 0xEBC ADD MSTORE DUP2 DUP2 PUSH2 0xF4A ADD MSTORE DUP2 DUP2 PUSH2 0x126C ADD MSTORE DUP2 DUP2 PUSH2 0x12FA ADD MSTORE PUSH2 0x13AA ADD MSTORE PUSH2 0x76C1 PUSH1 0x0 RETURN INVALID PUSH1 0x80 PUSH1 0x40 MSTORE PUSH1 0x4 CALLDATASIZE LT PUSH2 0x1F9 JUMPI PUSH1 0x0 CALLDATALOAD PUSH1 0xE0 SHR DUP1 PUSH4 0x7005026B GT PUSH2 0x10D JUMPI DUP1 PUSH4 0xC22AB4E0 GT PUSH2 0xA0 JUMPI DUP1 PUSH4 0xE0310E52 GT PUSH2 0x6F JUMPI DUP1 PUSH4 0xE0310E52 EQ PUSH2 0x764 JUMPI DUP1 PUSH4 0xF8C662FF EQ PUSH2 0x78F JUMPI DUP1 PUSH4 0xFA2DABAD EQ PUSH2 0x7BA JUMPI DUP1 PUSH4 0xFACD743B EQ PUSH2 0x7E5 JUMPI DUP1 PUSH4 0xFE0D94C1 EQ PUSH2 0x822 JUMPI PUSH2 0x1F9 JUMP JUMPDEST DUP1 PUSH4 0xC22AB4E0 EQ PUSH2 0x6A8 JUMPI DUP1 PUSH4 0xC4865B0F EQ PUSH2 0x6D3 JUMPI DUP1 PUSH4 0xD547741F EQ PUSH2 0x710 JUMPI DUP1 PUSH4 0xDEAAA7CC EQ PUSH2 0x739 JUMPI PUSH2 0x1F9 JUMP JUMPDEST DUP1 PUSH4 0x97C0262A GT PUSH2 0xDC JUMPI DUP1 PUSH4 0x97C0262A EQ PUSH2 0x5FC JUMPI DUP1 PUSH4 0xA217FDDF EQ PUSH2 0x627 JUMPI DUP1 PUSH4 0xAFDF6710 EQ PUSH2 0x652 JUMPI DUP1 PUSH4 0xC0E6D5D6 EQ PUSH2 0x67D JUMPI PUSH2 0x1F9 JUMP JUMPDEST DUP1 PUSH4 0x7005026B EQ PUSH2 0x52E JUMPI DUP1 PUSH4 0x75B238FC EQ PUSH2 0x56B JUMPI DUP1 PUSH4 0x91D14854 EQ PUSH2 0x596 JUMPI DUP1 PUSH4 0x9317C200 EQ PUSH2 0x5D3 JUMPI PUSH2 0x1F9 JUMP JUMPDEST DUP1 PUSH4 0x31CB9866 GT PUSH2 0x190 JUMPI DUP1 PUSH4 0x3E4F49E6 GT PUSH2 0x15F JUMPI DUP1 PUSH4 0x3E4F49E6 EQ PUSH2 0x442 JUMPI DUP1 PUSH4 0x43859632 EQ PUSH2 0x47F JUMPI DUP1 PUSH4 0x4F1EF286 EQ PUSH2 0x4BC JUMPI DUP1 PUSH4 0x52D1902D EQ PUSH2 0x4D8 JUMPI DUP1 PUSH4 0x54FD4D50 EQ PUSH2 0x503 JUMPI PUSH2 0x1F9 JUMP JUMPDEST DUP1 PUSH4 0x31CB9866 EQ PUSH2 0x388 JUMPI DUP1 PUSH4 0x36568ABE EQ PUSH2 0x3C5 JUMPI DUP1 PUSH4 0x3659CFE6 EQ PUSH2 0x3EE JUMPI DUP1 PUSH4 0x3932ABB1 EQ PUSH2 0x417 JUMPI PUSH2 0x1F9 JUMP JUMPDEST DUP1 PUSH4 0x1536F472 GT PUSH2 0x1CC JUMPI DUP1 PUSH4 0x1536F472 EQ PUSH2 0x2BC JUMPI DUP1 PUSH4 0x1FE97684 EQ PUSH2 0x2F9 JUMPI DUP1 PUSH4 0x248A9CA3 EQ PUSH2 0x322 JUMPI DUP1 PUSH4 0x2F2FF15D EQ PUSH2 0x35F JUMPI PUSH2 0x1F9 JUMP JUMPDEST DUP1 PUSH4 0x1FFC9A7 EQ PUSH2 0x1FE JUMPI DUP1 PUSH4 0x2A251A3 EQ PUSH2 0x23B JUMPI DUP1 PUSH4 0x6FDDE03 EQ PUSH2 0x266 JUMPI DUP1 PUSH4 0xF43A677 EQ PUSH2 0x291 JUMPI JUMPDEST PUSH1 0x0 DUP1 REVERT JUMPDEST CALLVALUE DUP1 ISZERO PUSH2 0x20A JUMPI PUSH1 0x0 DUP1 REVERT JUMPDEST POP PUSH2 0x225 PUSH1 0x4 DUP1 CALLDATASIZE SUB DUP2 ADD SWAP1 PUSH2 0x220 SWAP2 SWAP1 PUSH2 0x4CD5 JUMP JUMPDEST PUSH2 0x852 JUMP JUMPDEST PUSH1 0x40 MLOAD PUSH2 0x232 SWAP2 SWAP1 PUSH2 0x4D1D JUMP JUMPDEST PUSH1 0x40 MLOAD DUP1 SWAP2 SUB SWAP1 RETURN JUMPDEST CALLVALUE DUP1 ISZERO PUSH2 0x247 JUMPI PUSH1 0x0 DUP1 REVERT JUMPDEST POP PUSH2 0x250 PUSH2 0x8CC JUMP JUMPDEST PUSH1 0x40 MLOAD PUSH2 0x25D SWAP2 SWAP1 PUSH2 0x4D51 JUMP JUMPDEST PUSH1 0x40 MLOAD DUP1 SWAP2 SUB SWAP1 RETURN JUMPDEST CALLVALUE DUP1 ISZERO PUSH2 0x272 JUMPI PUSH1 0x0 DUP1 REVERT JUMPDEST POP PUSH2 0x27B PUSH2 0x8D3 JUMP JUMPDEST PUSH1 0x40 MLOAD PUSH2 0x288 SWAP2 SWAP1 PUSH2 0x4E05 JUMP JUMPDEST PUSH1 0x40 MLOAD DUP1 SWAP2 SUB SWAP1 RETURN JUMPDEST CALLVALUE DUP1 ISZERO PUSH2 0x29D JUMPI PUSH1 0x0 DUP1 REVERT JUMPDEST POP PUSH2 0x2A6 PUSH2 0x966 JUMP JUMPDEST PUSH1 0x40 MLOAD PUSH2 0x2B3 SWAP2 SWAP1 PUSH2 0x4E46 JUMP JUMPDEST PUSH1 0x40 MLOAD DUP1 SWAP2 SUB SWAP1 RETURN JUMPDEST CALLVALUE DUP1 ISZERO PUSH2 0x2C8 JUMPI PUSH1 0x0 DUP1 REVERT JUMPDEST POP PUSH2 0x2E3 PUSH1 0x4 DUP1 CALLDATASIZE SUB DUP2 ADD SWAP1 PUSH2 0x2DE SWAP2 SWAP1 PUSH2 0x4FC2 JUMP JUMPDEST PUSH2 0x97D JUMP JUMPDEST PUSH1 0x40 MLOAD PUSH2 0x2F0 SWAP2 SWAP1 PUSH2 0x4D1D JUMP JUMPDEST PUSH1 0x40 MLOAD DUP1 SWAP2 SUB SWAP1 RETURN JUMPDEST CALLVALUE DUP1 ISZERO PUSH2 0x305 JUMPI PUSH1 0x0 DUP1 REVERT JUMPDEST POP PUSH2 0x320 PUSH1 0x4 DUP1 CALLDATASIZE SUB DUP2 ADD SWAP1 PUSH2 0x31B SWAP2 SWAP1 PUSH2 0x507C JUMP JUMPDEST PUSH2 0xBA3 JUMP JUMPDEST STOP JUMPDEST CALLVALUE DUP1 ISZERO PUSH2 0x32E JUMPI PUSH1 0x0 DUP1 REVERT JUMPDEST POP PUSH2 0x349 PUSH1 0x4 DUP1 CALLDATASIZE SUB DUP2 ADD SWAP1 PUSH2 0x344 SWAP2 SWAP1 PUSH2 0x50DF JUMP JUMPDEST PUSH2 0xCFF JUMP JUMPDEST PUSH1 0x40 MLOAD PUSH2 0x356 SWAP2 SWAP1 PUSH2 0x511B JUMP JUMPDEST PUSH1 0x40 MLOAD DUP1 SWAP2 SUB SWAP1 RETURN JUMPDEST CALLVALUE DUP1 ISZERO PUSH2 0x36B JUMPI PUSH1 0x0 DUP1 REVERT JUMPDEST POP PUSH2 0x386 PUSH1 0x4 DUP1 CALLDATASIZE SUB DUP2 ADD SWAP1 PUSH2 0x381 SWAP2 SWAP1 PUSH2 0x5136 JUMP JUMPDEST PUSH2 0xD1F JUMP JUMPDEST STOP JUMPDEST CALLVALUE DUP1 ISZERO PUSH2 0x394 JUMPI PUSH1 0x0 DUP1 REVERT JUMPDEST POP PUSH2 0x3AF PUSH1 0x4 DUP1 CALLDATASIZE SUB DUP2 ADD SWAP1 PUSH2 0x3AA SWAP2 SWAP1 PUSH2 0x51FB JUMP JUMPDEST PUSH2 0xD40 JUMP JUMPDEST PUSH1 0x40 MLOAD PUSH2 0x3BC SWAP2 SWAP1 PUSH2 0x4D1D JUMP JUMPDEST PUSH1 0x40 MLOAD DUP1 SWAP2 SUB SWAP1 RETURN JUMPDEST CALLVALUE DUP1 ISZERO PUSH2 0x3D1 JUMPI PUSH1 0x0 DUP1 REVERT JUMPDEST POP PUSH2 0x3EC PUSH1 0x4 DUP1 CALLDATASIZE SUB DUP2 ADD SWAP1 PUSH2 0x3E7 SWAP2 SWAP1 PUSH2 0x5136 JUMP JUMPDEST PUSH2 0xE37 JUMP JUMPDEST STOP JUMPDEST CALLVALUE DUP1 ISZERO PUSH2 0x3FA JUMPI PUSH1 0x0 DUP1 REVERT JUMPDEST POP PUSH2 0x415 PUSH1 0x4 DUP1 CALLDATASIZE SUB DUP2 ADD SWAP1 PUSH2 0x410 SWAP2 SWAP1 PUSH2 0x507C JUMP JUMPDEST PUSH2 0xEBA JUMP JUMPDEST STOP JUMPDEST CALLVALUE DUP1 ISZERO PUSH2 0x423 JUMPI PUSH1 0x0 DUP1 REVERT JUMPDEST POP PUSH2 0x42C PUSH2 0x1042 JUMP JUMPDEST PUSH1 0x40 MLOAD PUSH2 0x439 SWAP2 SWAP1 PUSH2 0x4D51 JUMP JUMPDEST PUSH1 0x40 MLOAD DUP1 SWAP2 SUB SWAP1 RETURN JUMPDEST CALLVALUE DUP1 ISZERO PUSH2 0x44E JUMPI PUSH1 0x0 DUP1 REVERT JUMPDEST POP PUSH2 0x469 PUSH1 0x4 DUP1 CALLDATASIZE SUB DUP2 ADD SWAP1 PUSH2 0x464 SWAP2 SWAP1 PUSH2 0x526F JUMP JUMPDEST PUSH2 0x1049 JUMP JUMPDEST PUSH1 0x40 MLOAD PUSH2 0x476 SWAP2 SWAP1 PUSH2 0x5313 JUMP JUMPDEST PUSH1 0x40 MLOAD DUP1 SWAP2 SUB SWAP1 RETURN JUMPDEST CALLVALUE DUP1 ISZERO PUSH2 0x48B JUMPI PUSH1 0x0 DUP1 REVERT JUMPDEST POP PUSH2 0x4A6 PUSH1 0x4 DUP1 CALLDATASIZE SUB DUP2 ADD SWAP1 PUSH2 0x4A1 SWAP2 SWAP1 PUSH2 0x532E JUMP JUMPDEST PUSH2 0x1237 JUMP JUMPDEST PUSH1 0x40 MLOAD PUSH2 0x4B3 SWAP2 SWAP1 PUSH2 0x4D1D JUMP JUMPDEST PUSH1 0x40 MLOAD DUP1 SWAP2 SUB SWAP1 RETURN JUMPDEST PUSH2 0x4D6 PUSH1 0x4 DUP1 CALLDATASIZE SUB DUP2 ADD SWAP1 PUSH2 0x4D1 SWAP2 SWAP1 PUSH2 0x540F JUMP JUMPDEST PUSH2 0x126A JUMP JUMPDEST STOP JUMPDEST CALLVALUE DUP1 ISZERO PUSH2 0x4E4 JUMPI PUSH1 0x0 DUP1 REVERT JUMPDEST POP PUSH2 0x4ED PUSH2 0x13A6 JUMP JUMPDEST PUSH1 0x40 MLOAD PUSH2 0x4FA SWAP2 SWAP1 PUSH2 0x511B JUMP JUMPDEST PUSH1 0x40 MLOAD DUP1 SWAP2 SUB SWAP1 RETURN JUMPDEST CALLVALUE DUP1 ISZERO PUSH2 0x50F JUMPI PUSH1 0x0 DUP1 REVERT JUMPDEST POP PUSH2 0x518 PUSH2 0x145F JUMP JUMPDEST PUSH1 0x40 MLOAD PUSH2 0x525 SWAP2 SWAP1 PUSH2 0x4E05 JUMP JUMPDEST PUSH1 0x40 MLOAD DUP1 SWAP2 SUB SWAP1 RETURN JUMPDEST CALLVALUE DUP1 ISZERO PUSH2 0x53A JUMPI PUSH1 0x0 DUP1 REVERT JUMPDEST POP PUSH2 0x555 PUSH1 0x4 DUP1 CALLDATASIZE SUB DUP2 ADD SWAP1 PUSH2 0x550 SWAP2 SWAP1 PUSH2 0x5597 JUMP JUMPDEST PUSH2 0x14F2 JUMP JUMPDEST PUSH1 0x40 MLOAD PUSH2 0x562 SWAP2 SWAP1 PUSH2 0x4D51 JUMP JUMPDEST PUSH1 0x40 MLOAD DUP1 SWAP2 SUB SWAP1 RETURN JUMPDEST CALLVALUE DUP1 ISZERO PUSH2 0x577 JUMPI PUSH1 0x0 DUP1 REVERT JUMPDEST POP PUSH2 0x580 PUSH2 0x18A2 JUMP JUMPDEST PUSH1 0x40 MLOAD PUSH2 0x58D SWAP2 SWAP1 PUSH2 0x511B JUMP JUMPDEST PUSH1 0x40 MLOAD DUP1 SWAP2 SUB SWAP1 RETURN JUMPDEST CALLVALUE DUP1 ISZERO PUSH2 0x5A2 JUMPI PUSH1 0x0 DUP1 REVERT JUMPDEST POP PUSH2 0x5BD PUSH1 0x4 DUP1 CALLDATASIZE SUB DUP2 ADD SWAP1 PUSH2 0x5B8 SWAP2 SWAP1 PUSH2 0x5136 JUMP JUMPDEST PUSH2 0x18C6 JUMP JUMPDEST PUSH1 0x40 MLOAD PUSH2 0x5CA SWAP2 SWAP1 PUSH2 0x4D1D JUMP JUMPDEST PUSH1 0x40 MLOAD DUP1 SWAP2 SUB SWAP1 RETURN JUMPDEST CALLVALUE DUP1 ISZERO PUSH2 0x5DF JUMPI PUSH1 0x0 DUP1 REVERT JUMPDEST POP PUSH2 0x5FA PUSH1 0x4 DUP1 CALLDATASIZE SUB DUP2 ADD SWAP1 PUSH2 0x5F5 SWAP2 SWAP1 PUSH2 0x55E0 JUMP JUMPDEST PUSH2 0x1931 JUMP JUMPDEST STOP JUMPDEST CALLVALUE DUP1 ISZERO PUSH2 0x608 JUMPI PUSH1 0x0 DUP1 REVERT JUMPDEST POP PUSH2 0x611 PUSH2 0x1CBC JUMP JUMPDEST PUSH1 0x40 MLOAD PUSH2 0x61E SWAP2 SWAP1 PUSH2 0x56BE JUMP JUMPDEST PUSH1 0x40 MLOAD DUP1 SWAP2 SUB SWAP1 RETURN JUMPDEST CALLVALUE DUP1 ISZERO PUSH2 0x633 JUMPI PUSH1 0x0 DUP1 REVERT JUMPDEST POP PUSH2 0x63C PUSH2 0x1CE3 JUMP JUMPDEST PUSH1 0x40 MLOAD PUSH2 0x649 SWAP2 SWAP1 PUSH2 0x511B JUMP JUMPDEST PUSH1 0x40 MLOAD DUP1 SWAP2 SUB SWAP1 RETURN JUMPDEST CALLVALUE DUP1 ISZERO PUSH2 0x65E JUMPI PUSH1 0x0 DUP1 REVERT JUMPDEST POP PUSH2 0x667 PUSH2 0x1CEA JUMP JUMPDEST PUSH1 0x40 MLOAD PUSH2 0x674 SWAP2 SWAP1 PUSH2 0x56E8 JUMP JUMPDEST PUSH1 0x40 MLOAD DUP1 SWAP2 SUB SWAP1 RETURN JUMPDEST CALLVALUE DUP1 ISZERO PUSH2 0x689 JUMPI PUSH1 0x0 DUP1 REVERT JUMPDEST POP PUSH2 0x692 PUSH2 0x1D0E JUMP JUMPDEST PUSH1 0x40 MLOAD PUSH2 0x69F SWAP2 SWAP1 PUSH2 0x56E8 JUMP JUMPDEST PUSH1 0x40 MLOAD DUP1 SWAP2 SUB SWAP1 RETURN JUMPDEST CALLVALUE DUP1 ISZERO PUSH2 0x6B4 JUMPI PUSH1 0x0 DUP1 REVERT JUMPDEST POP PUSH2 0x6BD PUSH2 0x1D32 JUMP JUMPDEST PUSH1 0x40 MLOAD PUSH2 0x6CA SWAP2 SWAP1 PUSH2 0x56BE JUMP JUMPDEST PUSH1 0x40 MLOAD DUP1 SWAP2 SUB SWAP1 RETURN JUMPDEST CALLVALUE DUP1 ISZERO PUSH2 0x6DF JUMPI PUSH1 0x0 DUP1 REVERT JUMPDEST POP PUSH2 0x6FA PUSH1 0x4 DUP1 CALLDATASIZE SUB DUP2 ADD SWAP1 PUSH2 0x6F5 SWAP2 SWAP1 PUSH2 0x5703 JUMP JUMPDEST PUSH2 0x1D59 JUMP JUMPDEST PUSH1 0x40 MLOAD PUSH2 0x707 SWAP2 SWAP1 PUSH2 0x4D51 JUMP JUMPDEST PUSH1 0x40 MLOAD DUP1 SWAP2 SUB SWAP1 RETURN JUMPDEST CALLVALUE DUP1 ISZERO PUSH2 0x71C JUMPI PUSH1 0x0 DUP1 REVERT JUMPDEST POP PUSH2 0x737 PUSH1 0x4 DUP1 CALLDATASIZE SUB DUP2 ADD SWAP1 PUSH2 0x732 SWAP2 SWAP1 PUSH2 0x5136 JUMP JUMPDEST PUSH2 0x1D9E JUMP JUMPDEST STOP JUMPDEST CALLVALUE DUP1 ISZERO PUSH2 0x745 JUMPI PUSH1 0x0 DUP1 REVERT JUMPDEST POP PUSH2 0x74E PUSH2 0x1DBF JUMP JUMPDEST PUSH1 0x40 MLOAD PUSH2 0x75B SWAP2 SWAP1 PUSH2 0x511B JUMP JUMPDEST PUSH1 0x40 MLOAD DUP1 SWAP2 SUB SWAP1 RETURN JUMPDEST CALLVALUE DUP1 ISZERO PUSH2 0x770 JUMPI PUSH1 0x0 DUP1 REVERT JUMPDEST POP PUSH2 0x779 PUSH2 0x1DE3 JUMP JUMPDEST PUSH1 0x40 MLOAD PUSH2 0x786 SWAP2 SWAP1 PUSH2 0x56E8 JUMP JUMPDEST PUSH1 0x40 MLOAD DUP1 SWAP2 SUB SWAP1 RETURN JUMPDEST CALLVALUE DUP1 ISZERO PUSH2 0x79B JUMPI PUSH1 0x0 DUP1 REVERT JUMPDEST POP PUSH2 0x7A4 PUSH2 0x1E07 JUMP JUMPDEST PUSH1 0x40 MLOAD PUSH2 0x7B1 SWAP2 SWAP1 PUSH2 0x56BE JUMP JUMPDEST PUSH1 0x40 MLOAD DUP1 SWAP2 SUB SWAP1 RETURN JUMPDEST CALLVALUE DUP1 ISZERO PUSH2 0x7C6 JUMPI PUSH1 0x0 DUP1 REVERT JUMPDEST POP PUSH2 0x7CF PUSH2 0x1E2E JUMP JUMPDEST PUSH1 0x40 MLOAD PUSH2 0x7DC SWAP2 SWAP1 PUSH2 0x511B JUMP JUMPDEST PUSH1 0x40 MLOAD DUP1 SWAP2 SUB SWAP1 RETURN JUMPDEST CALLVALUE DUP1 ISZERO PUSH2 0x7F1 JUMPI PUSH1 0x0 DUP1 REVERT JUMPDEST POP PUSH2 0x80C PUSH1 0x4 DUP1 CALLDATASIZE SUB DUP2 ADD SWAP1 PUSH2 0x807 SWAP2 SWAP1 PUSH2 0x507C JUMP JUMPDEST PUSH2 0x1E52 JUMP JUMPDEST PUSH1 0x40 MLOAD PUSH2 0x819 SWAP2 SWAP1 PUSH2 0x4D1D JUMP JUMPDEST PUSH1 0x40 MLOAD DUP1 SWAP2 SUB SWAP1 RETURN JUMPDEST PUSH2 0x83C PUSH1 0x4 DUP1 CALLDATASIZE SUB DUP2 ADD SWAP1 PUSH2 0x837 SWAP2 SWAP1 PUSH2 0x526F JUMP JUMPDEST PUSH2 0x1EA9 JUMP JUMPDEST PUSH1 0x40 MLOAD PUSH2 0x849 SWAP2 SWAP1 PUSH2 0x4D1D JUMP JUMPDEST PUSH1 0x40 MLOAD DUP1 SWAP2 SUB SWAP1 RETURN JUMPDEST PUSH1 0x0 PUSH32 0x7965DB0B00000000000000000000000000000000000000000000000000000000 PUSH28 0xFFFFFFFFFFFFFFFFFFFFFFFFFFFFFFFFFFFFFFFFFFFFFFFFFFFFFFFF NOT AND DUP3 PUSH28 0xFFFFFFFFFFFFFFFFFFFFFFFFFFFFFFFFFFFFFFFFFFFFFFFFFFFFFFFF NOT AND EQ DUP1 PUSH2 0x8C5 JUMPI POP PUSH2 0x8C4 DUP3 PUSH2 0x1FCB JUMP JUMPDEST JUMPDEST SWAP1 POP SWAP2 SWAP1 POP JUMP JUMPDEST PUSH2 0x130 SLOAD DUP2 JUMP JUMPDEST PUSH1 0x60 PUSH2 0x137 DUP1 SLOAD PUSH2 0x8E3 SWAP1 PUSH2 0x57F0 JUMP JUMPDEST DUP1 PUSH1 0x1F ADD PUSH1 0x20 DUP1 SWAP2 DIV MUL PUSH1 0x20 ADD PUSH1 0x40 MLOAD SWAP1 DUP2 ADD PUSH1 0x40 MSTORE DUP1 SWAP3 SWAP2 SWAP1 DUP2 DUP2 MSTORE PUSH1 0x20 ADD DUP3 DUP1 SLOAD PUSH2 0x90F SWAP1 PUSH2 0x57F0 JUMP JUMPDEST DUP1 ISZERO PUSH2 0x95C JUMPI DUP1 PUSH1 0x1F LT PUSH2 0x931 JUMPI PUSH2 0x100 DUP1 DUP4 SLOAD DIV MUL DUP4 MSTORE SWAP2 PUSH1 0x20 ADD SWAP2 PUSH2 0x95C JUMP JUMPDEST DUP3 ADD SWAP2 SWAP1 PUSH1 0x0 MSTORE PUSH1 0x20 PUSH1 0x0 KECCAK256 SWAP1 JUMPDEST DUP2 SLOAD DUP2 MSTORE SWAP1 PUSH1 0x1 ADD SWAP1 PUSH1 0x20 ADD DUP1 DUP4 GT PUSH2 0x93F JUMPI DUP3 SWAP1 SUB PUSH1 0x1F AND DUP3 ADD SWAP2 JUMPDEST POP POP POP POP POP SWAP1 POP SWAP1 JUMP JUMPDEST PUSH2 0x139 PUSH1 0x0 SWAP1 SLOAD SWAP1 PUSH2 0x100 EXP SWAP1 DIV PUSH4 0xFFFFFFFF AND DUP2 JUMP JUMPDEST PUSH1 0x0 PUSH2 0x136 PUSH1 0x0 DUP5 DUP2 MSTORE PUSH1 0x20 ADD SWAP1 DUP2 MSTORE PUSH1 0x20 ADD PUSH1 0x0 KECCAK256 PUSH1 0x3 ADD PUSH1 0x0 SWAP1 SLOAD SWAP1 PUSH2 0x100 EXP SWAP1 DIV PUSH20 0xFFFFFFFFFFFFFFFFFFFFFFFFFFFFFFFFFFFFFFFF AND PUSH20 0xFFFFFFFFFFFFFFFFFFFFFFFFFFFFFFFFFFFFFFFF AND CALLER PUSH20 0xFFFFFFFFFFFFFFFFFFFFFFFFFFFFFFFFFFFFFFFF AND EQ PUSH2 0xA24 JUMPI PUSH1 0x40 MLOAD PUSH32 0x8C379A000000000000000000000000000000000000000000000000000000000 DUP2 MSTORE PUSH1 0x4 ADD PUSH2 0xA1B SWAP1 PUSH2 0x5893 JUMP JUMPDEST PUSH1 0x40 MLOAD DUP1 SWAP2 SUB SWAP1 REVERT JUMPDEST PUSH1 0x0 PUSH2 0xA2F DUP5 PUSH2 0x1049 JUMP JUMPDEST SWAP1 POP PUSH1 0x6 PUSH1 0x7 DUP2 GT ISZERO PUSH2 0xA45 JUMPI PUSH2 0xA44 PUSH2 0x529C JUMP JUMPDEST JUMPDEST DUP2 PUSH1 0x7 DUP2 GT ISZERO PUSH2 0xA58 JUMPI PUSH2 0xA57 PUSH2 0x529C JUMP JUMPDEST JUMPDEST EQ ISZERO DUP1 ISZERO PUSH2 0xA8A JUMPI POP PUSH1 0x7 DUP1 DUP2 GT ISZERO PUSH2 0xA74 JUMPI PUSH2 0xA73 PUSH2 0x529C JUMP JUMPDEST JUMPDEST DUP2 PUSH1 0x7 DUP2 GT ISZERO PUSH2 0xA87 JUMPI PUSH2 0xA86 PUSH2 0x529C JUMP JUMPDEST JUMPDEST EQ ISZERO JUMPDEST PUSH2 0xAC9 JUMPI PUSH1 0x40 MLOAD PUSH32 0x8C379A000000000000000000000000000000000000000000000000000000000 DUP2 MSTORE PUSH1 0x4 ADD PUSH2 0xAC0 SWAP1 PUSH2 0x58FF JUMP JUMPDEST PUSH1 0x40 MLOAD DUP1 SWAP2 SUB SWAP1 REVERT JUMPDEST PUSH1 0x3 PUSH1 0x7 DUP2 GT ISZERO PUSH2 0xADD JUMPI PUSH2 0xADC PUSH2 0x529C JUMP JUMPDEST JUMPDEST DUP2 PUSH1 0x7 DUP2 GT ISZERO PUSH2 0xAF0 JUMPI PUSH2 0xAEF PUSH2 0x529C JUMP JUMPDEST JUMPDEST SUB PUSH2 0xB30 JUMPI PUSH1 0x40 MLOAD PUSH32 0x8C379A000000000000000000000000000000000000000000000000000000000 DUP2 MSTORE PUSH1 0x4 ADD PUSH2 0xB27 SWAP1 PUSH2 0x5991 JUMP JUMPDEST PUSH1 0x40 MLOAD DUP1 SWAP2 SUB SWAP1 REVERT JUMPDEST PUSH1 0x1 PUSH2 0x136 PUSH1 0x0 DUP7 DUP2 MSTORE PUSH1 0x20 ADD SWAP1 DUP2 MSTORE PUSH1 0x20 ADD PUSH1 0x0 KECCAK256 PUSH1 0x6 ADD PUSH1 0x3 PUSH2 0x100 EXP DUP2 SLOAD DUP2 PUSH1 0xFF MUL NOT AND SWAP1 DUP4 ISZERO ISZERO MUL OR SWAP1 SSTORE POP DUP4 PUSH32 0xAF94BA56C28388380D3D3A1E4D7778157B283417B187658B7C8DE6E4200B2FAD DUP5 PUSH1 0x40 MLOAD PUSH2 0xB90 SWAP2 SWAP1 PUSH2 0x4E05 JUMP JUMPDEST PUSH1 0x40 MLOAD DUP1 SWAP2 SUB SWAP1 LOG2 PUSH1 0x1 SWAP2 POP POP SWAP3 SWAP2 POP POP JUMP JUMPDEST PUSH32 0xA49807205CE4D355092EF5A8A18F56E8913CF4A201FBE287825B095693C21775 PUSH2 0xBCD DUP2 PUSH2 0x2035 JUMP JUMPDEST PUSH1 0x0 ISZERO ISZERO PUSH2 0x134 PUSH1 0x0 DUP5 PUSH20 0xFFFFFFFFFFFFFFFFFFFFFFFFFFFFFFFFFFFFFFFF AND PUSH20 0xFFFFFFFFFFFFFFFFFFFFFFFFFFFFFFFFFFFFFFFF AND DUP2 MSTORE PUSH1 0x20 ADD SWAP1 DUP2 MSTORE PUSH1 0x20 ADD PUSH1 0x0 KECCAK256 PUSH1 0x0 SWAP1 SLOAD SWAP1 PUSH2 0x100 EXP SWAP1 DIV PUSH1 0xFF AND ISZERO ISZERO SUB PUSH2 0xC61 JUMPI PUSH1 0x40 MLOAD PUSH32 0x8C379A000000000000000000000000000000000000000000000000000000000 DUP2 MSTORE PUSH1 0x4 ADD PUSH2 0xC58 SWAP1 PUSH2 0x5A23 JUMP JUMPDEST PUSH1 0x40 MLOAD DUP1 SWAP2 SUB SWAP1 REVERT JUMPDEST PUSH1 0x0 PUSH2 0x134 PUSH1 0x0 DUP5 PUSH20 0xFFFFFFFFFFFFFFFFFFFFFFFFFFFFFFFFFFFFFFFF AND PUSH20 0xFFFFFFFFFFFFFFFFFFFFFFFFFFFFFFFFFFFFFFFF AND DUP2 MSTORE PUSH1 0x20 ADD SWAP1 DUP2 MSTORE PUSH1 0x20 ADD PUSH1 0x0 KECCAK256 PUSH1 0x0 PUSH2 0x100 EXP DUP2 SLOAD DUP2 PUSH1 0xFF MUL NOT AND SWAP1 DUP4 ISZERO ISZERO MUL OR SWAP1 SSTORE POP PUSH1 0x1 PUSH2 0x139 PUSH1 0x0 DUP3 DUP3 DUP3 SWAP1 SLOAD SWAP1 PUSH2 0x100 EXP SWAP1 DIV PUSH4 0xFFFFFFFF AND PUSH2 0xCDD SWAP2 SWAP1 PUSH2 0x5A72 JUMP JUMPDEST SWAP3 POP PUSH2 0x100 EXP DUP2 SLOAD DUP2 PUSH4 0xFFFFFFFF MUL NOT AND SWAP1 DUP4 PUSH4 0xFFFFFFFF AND MUL OR SWAP1 SSTORE POP POP POP JUMP JUMPDEST PUSH1 0x0 PUSH1 0xFD PUSH1 0x0 DUP4 DUP2 MSTORE PUSH1 0x20 ADD SWAP1 DUP2 MSTORE PUSH1 0x20 ADD PUSH1 0x0 KECCAK256 PUSH1 0x1 ADD SLOAD SWAP1 POP SWAP2 SWAP1 POP JUMP JUMPDEST PUSH2 0xD28 DUP3 PUSH2 0xCFF JUMP JUMPDEST PUSH2 0xD31 DUP2 PUSH2 0x2035 JUMP JUMPDEST PUSH2 0xD3B DUP4 DUP4 PUSH2 0x2049 JUMP JUMPDEST POP POP POP JUMP JUMPDEST PUSH1 0x0 PUSH1 0x1 ISZERO ISZERO PUSH2 0x134 PUSH1 0x0 CALLER PUSH20 0xFFFFFFFFFFFFFFFFFFFFFFFFFFFFFFFFFFFFFFFF AND PUSH20 0xFFFFFFFFFFFFFFFFFFFFFFFFFFFFFFFFFFFFFFFF AND DUP2 MSTORE PUSH1 0x20 ADD SWAP1 DUP2 MSTORE PUSH1 0x20 ADD PUSH1 0x0 KECCAK256 PUSH1 0x0 SWAP1 SLOAD SWAP1 PUSH2 0x100 EXP SWAP1 DIV PUSH1 0xFF AND ISZERO ISZERO EQ PUSH2 0xDD6 JUMPI PUSH1 0x40 MLOAD PUSH32 0x8C379A000000000000000000000000000000000000000000000000000000000 DUP2 MSTORE PUSH1 0x4 ADD PUSH2 0xDCD SWAP1 PUSH2 0x5B18 JUMP JUMPDEST PUSH1 0x40 MLOAD DUP1 SWAP2 SUB SWAP1 REVERT JUMPDEST PUSH2 0xE2D DUP4 PUSH2 0xDE2 PUSH2 0x212A JUMP JUMPDEST DUP5 DUP9 DUP9 DUP1 DUP1 PUSH1 0x1F ADD PUSH1 0x20 DUP1 SWAP2 DIV MUL PUSH1 0x20 ADD PUSH1 0x40 MLOAD SWAP1 DUP2 ADD PUSH1 0x40 MSTORE DUP1 SWAP4 SWAP3 SWAP2 SWAP1 DUP2 DUP2 MSTORE PUSH1 0x20 ADD DUP4 DUP4 DUP1 DUP3 DUP5 CALLDATACOPY PUSH1 0x0 DUP2 DUP5 ADD MSTORE PUSH1 0x1F NOT PUSH1 0x1F DUP3 ADD AND SWAP1 POP DUP1 DUP4 ADD SWAP3 POP POP POP POP POP POP POP PUSH2 0x2132 JUMP JUMPDEST SWAP1 POP SWAP5 SWAP4 POP POP POP POP JUMP JUMPDEST PUSH2 0xE3F PUSH2 0x212A JUMP JUMPDEST PUSH20 0xFFFFFFFFFFFFFFFFFFFFFFFFFFFFFFFFFFFFFFFF AND DUP2 PUSH20 0xFFFFFFFFFFFFFFFFFFFFFFFFFFFFFFFFFFFFFFFF AND EQ PUSH2 0xEAC JUMPI PUSH1 0x40 MLOAD PUSH32 0x8C379A000000000000000000000000000000000000000000000000000000000 DUP2 MSTORE PUSH1 0x4 ADD PUSH2 0xEA3 SWAP1 PUSH2 0x5BAA JUMP JUMPDEST PUSH1 0x40 MLOAD DUP1 SWAP2 SUB SWAP1 REVERT JUMPDEST PUSH2 0xEB6 DUP3 DUP3 PUSH2 0x2466 JUMP JUMPDEST POP POP JUMP JUMPDEST PUSH32 0x0 PUSH20 0xFFFFFFFFFFFFFFFFFFFFFFFFFFFFFFFFFFFFFFFF AND ADDRESS PUSH20 0xFFFFFFFFFFFFFFFFFFFFFFFFFFFFFFFFFFFFFFFF AND SUB PUSH2 0xF48 JUMPI PUSH1 0x40 MLOAD PUSH32 0x8C379A000000000000000000000000000000000000000000000000000000000 DUP2 MSTORE PUSH1 0x4 ADD PUSH2 0xF3F SWAP1 PUSH2 0x5C3C JUMP JUMPDEST PUSH1 0x40 MLOAD DUP1 SWAP2 SUB SWAP1 REVERT JUMPDEST PUSH32 0x0 PUSH20 0xFFFFFFFFFFFFFFFFFFFFFFFFFFFFFFFFFFFFFFFF AND PUSH2 0xF87 PUSH2 0x2548 JUMP JUMPDEST PUSH20 0xFFFFFFFFFFFFFFFFFFFFFFFFFFFFFFFFFFFFFFFF AND EQ PUSH2 0xFDD JUMPI PUSH1 0x40 MLOAD PUSH32 0x8C379A000000000000000000000000000000000000000000000000000000000 DUP2 MSTORE PUSH1 0x4 ADD PUSH2 0xFD4 SWAP1 PUSH2 0x5CCE JUMP JUMPDEST PUSH1 0x40 MLOAD DUP1 SWAP2 SUB SWAP1 REVERT JUMPDEST PUSH2 0xFE6 DUP2 PUSH2 0x259F JUMP JUMPDEST PUSH2 0x103F DUP2 PUSH1 0x0 PUSH8 0xFFFFFFFFFFFFFFFF DUP2 GT ISZERO PUSH2 0x1005 JUMPI PUSH2 0x1004 PUSH2 0x4E97 JUMP JUMPDEST JUMPDEST PUSH1 0x40 MLOAD SWAP1 DUP1 DUP3 MSTORE DUP1 PUSH1 0x1F ADD PUSH1 0x1F NOT AND PUSH1 0x20 ADD DUP3 ADD PUSH1 0x40 MSTORE DUP1 ISZERO PUSH2 0x1037 JUMPI DUP2 PUSH1 0x20 ADD PUSH1 0x1 DUP3 MUL DUP1 CALLDATASIZE DUP4 CALLDATACOPY DUP1 DUP3 ADD SWAP2 POP POP SWAP1 POP JUMPDEST POP PUSH1 0x0 PUSH2 0x25CB JUMP JUMPDEST POP JUMP JUMPDEST PUSH2 0x12F SLOAD DUP2 JUMP JUMPDEST PUSH1 0x0 DUP1 PUSH2 0x136 PUSH1 0x0 DUP5 DUP2 MSTORE PUSH1 0x20 ADD SWAP1 DUP2 MSTORE PUSH1 0x20 ADD PUSH1 0x0 KECCAK256 SWAP1 POP PUSH1 0x0 DUP1 SHL DUP2 PUSH1 0x1 ADD SLOAD SUB PUSH2 0x10AB JUMPI PUSH1 0x40 MLOAD PUSH32 0x8C379A000000000000000000000000000000000000000000000000000000000 DUP2 MSTORE PUSH1 0x4 ADD PUSH2 0x10A2 SWAP1 PUSH2 0x5D3A JUMP JUMPDEST PUSH1 0x40 MLOAD DUP1 SWAP2 SUB SWAP1 REVERT JUMPDEST DUP1 PUSH1 0x6 ADD PUSH1 0x2 SWAP1 SLOAD SWAP1 PUSH2 0x100 EXP SWAP1 DIV PUSH1 0xFF AND ISZERO PUSH2 0x10CC JUMPI PUSH1 0x7 SWAP2 POP POP PUSH2 0x1232 JUMP JUMPDEST DUP1 PUSH1 0x6 ADD PUSH1 0x3 SWAP1 SLOAD SWAP1 PUSH2 0x100 EXP SWAP1 DIV PUSH1 0xFF AND ISZERO PUSH2 0x10ED JUMPI PUSH1 0x3 SWAP2 POP POP PUSH2 0x1232 JUMP JUMPDEST PUSH2 0x1136 DUP2 PUSH1 0x4 ADD PUSH1 0x40 MLOAD DUP1 PUSH1 0x20 ADD PUSH1 0x40 MSTORE SWAP1 DUP2 PUSH1 0x0 DUP3 ADD PUSH1 0x0 SWAP1 SLOAD SWAP1 PUSH2 0x100 EXP SWAP1 DIV PUSH8 0xFFFFFFFFFFFFFFFF AND PUSH8 0xFFFFFFFFFFFFFFFF AND PUSH8 0xFFFFFFFFFFFFFFFF AND DUP2 MSTORE POP POP PUSH2 0x2739 JUMP JUMPDEST ISZERO PUSH2 0x1145 JUMPI PUSH1 0x1 SWAP2 POP POP PUSH2 0x1232 JUMP JUMPDEST PUSH2 0x118E DUP2 PUSH1 0x5 ADD PUSH1 0x40 MLOAD DUP1 PUSH1 0x20 ADD PUSH1 0x40 MSTORE SWAP1 DUP2 PUSH1 0x0 DUP3 ADD PUSH1 0x0 SWAP1 SLOAD SWAP1 PUSH2 0x100 EXP SWAP1 DIV PUSH8 0xFFFFFFFFFFFFFFFF AND PUSH8 0xFFFFFFFFFFFFFFFF AND PUSH8 0xFFFFFFFFFFFFFFFF AND DUP2 MSTORE POP POP PUSH2 0x2739 JUMP JUMPDEST DUP1 ISZERO PUSH2 0x11A0 JUMPI POP PUSH2 0x119E DUP4 PUSH2 0x2753 JUMP JUMPDEST ISZERO JUMPDEST ISZERO PUSH2 0x11AF JUMPI PUSH1 0x2 SWAP2 POP POP PUSH2 0x1232 JUMP JUMPDEST PUSH2 0x11F8 DUP2 PUSH1 0x5 ADD PUSH1 0x40 MLOAD DUP1 PUSH1 0x20 ADD PUSH1 0x40 MSTORE SWAP1 DUP2 PUSH1 0x0 DUP3 ADD PUSH1 0x0 SWAP1 SLOAD SWAP1 PUSH2 0x100 EXP SWAP1 DIV PUSH8 0xFFFFFFFFFFFFFFFF AND PUSH8 0xFFFFFFFFFFFFFFFF AND PUSH8 0xFFFFFFFFFFFFFFFF AND DUP2 MSTORE POP POP PUSH2 0x27F8 JUMP JUMPDEST DUP1 PUSH2 0x1208 JUMPI POP PUSH2 0x1207 DUP4 PUSH2 0x2753 JUMP JUMPDEST JUMPDEST ISZERO PUSH2 0x122C JUMPI PUSH2 0x1216 DUP4 PUSH2 0x2824 JUMP JUMPDEST PUSH2 0x1221 JUMPI PUSH1 0x4 PUSH2 0x1224 JUMP JUMPDEST PUSH1 0x5 JUMPDEST SWAP2 POP POP PUSH2 0x1232 JUMP JUMPDEST PUSH1 0x0 SWAP2 POP POP JUMPDEST SWAP2 SWAP1 POP JUMP JUMPDEST PUSH1 0x0 PUSH2 0x1262 DUP3 PUSH2 0x135 PUSH1 0x0 DUP7 DUP2 MSTORE PUSH1 0x20 ADD SWAP1 DUP2 MSTORE PUSH1 0x20 ADD PUSH1 0x0 KECCAK256 PUSH1 0x1 ADD PUSH2 0x289C SWAP1 SWAP2 SWAP1 PUSH4 0xFFFFFFFF AND JUMP JUMPDEST SWAP1 POP SWAP3 SWAP2 POP POP JUMP JUMPDEST PUSH32 0x0 PUSH20 0xFFFFFFFFFFFFFFFFFFFFFFFFFFFFFFFFFFFFFFFF AND ADDRESS PUSH20 0xFFFFFFFFFFFFFFFFFFFFFFFFFFFFFFFFFFFFFFFF AND SUB PUSH2 0x12F8 JUMPI PUSH1 0x40 MLOAD PUSH32 0x8C379A000000000000000000000000000000000000000000000000000000000 DUP2 MSTORE PUSH1 0x4 ADD PUSH2 0x12EF SWAP1 PUSH2 0x5C3C JUMP JUMPDEST PUSH1 0x40 MLOAD DUP1 SWAP2 SUB SWAP1 REVERT JUMPDEST PUSH32 0x0 PUSH20 0xFFFFFFFFFFFFFFFFFFFFFFFFFFFFFFFFFFFFFFFF AND PUSH2 0x1337 PUSH2 0x2548 JUMP JUMPDEST PUSH20 0xFFFFFFFFFFFFFFFFFFFFFFFFFFFFFFFFFFFFFFFF AND EQ PUSH2 0x138D JUMPI PUSH1 0x40 MLOAD PUSH32 0x8C379A000000000000000000000000000000000000000000000000000000000 DUP2 MSTORE PUSH1 0x4 ADD PUSH2 0x1384 SWAP1 PUSH2 0x5CCE JUMP JUMPDEST PUSH1 0x40 MLOAD DUP1 SWAP2 SUB SWAP1 REVERT JUMPDEST PUSH2 0x1396 DUP3 PUSH2 0x259F JUMP JUMPDEST PUSH2 0x13A2 DUP3 DUP3 PUSH1 0x1 PUSH2 0x25CB JUMP JUMPDEST POP POP JUMP JUMPDEST PUSH1 0x0 PUSH32 0x0 PUSH20 0xFFFFFFFFFFFFFFFFFFFFFFFFFFFFFFFFFFFFFFFF AND ADDRESS PUSH20 0xFFFFFFFFFFFFFFFFFFFFFFFFFFFFFFFFFFFFFFFF AND EQ PUSH2 0x1436 JUMPI PUSH1 0x40 MLOAD PUSH32 0x8C379A000000000000000000000000000000000000000000000000000000000 DUP2 MSTORE PUSH1 0x4 ADD PUSH2 0x142D SWAP1 PUSH2 0x5DCC JUMP JUMPDEST PUSH1 0x40 MLOAD DUP1 SWAP2 SUB SWAP1 REVERT JUMPDEST PUSH32 0x360894A13BA1A3210667C828492DB98DCA3E2076CC3735A920A3CA505D382BBC PUSH1 0x0 SHL SWAP1 POP SWAP1 JUMP JUMPDEST PUSH1 0x60 PUSH2 0x138 DUP1 SLOAD PUSH2 0x146F SWAP1 PUSH2 0x57F0 JUMP JUMPDEST DUP1 PUSH1 0x1F ADD PUSH1 0x20 DUP1 SWAP2 DIV MUL PUSH1 0x20 ADD PUSH1 0x40 MLOAD SWAP1 DUP2 ADD PUSH1 0x40 MSTORE DUP1 SWAP3 SWAP2 SWAP1 DUP2 DUP2 MSTORE PUSH1 0x20 ADD DUP3 DUP1 SLOAD PUSH2 0x149B SWAP1 PUSH2 0x57F0 JUMP JUMPDEST DUP1 ISZERO PUSH2 0x14E8 JUMPI DUP1 PUSH1 0x1F LT PUSH2 0x14BD JUMPI PUSH2 0x100 DUP1 DUP4 SLOAD DIV MUL DUP4 MSTORE SWAP2 PUSH1 0x20 ADD SWAP2 PUSH2 0x14E8 JUMP JUMPDEST DUP3 ADD SWAP2 SWAP1 PUSH1 0x0 MSTORE PUSH1 0x20 PUSH1 0x0 KECCAK256 SWAP1 JUMPDEST DUP2 SLOAD DUP2 MSTORE SWAP1 PUSH1 0x1 ADD SWAP1 PUSH1 0x20 ADD DUP1 DUP4 GT PUSH2 0x14CB JUMPI DUP3 SWAP1 SUB PUSH1 0x1F AND DUP3 ADD SWAP2 JUMPDEST POP POP POP POP POP SWAP1 POP SWAP1 JUMP JUMPDEST PUSH1 0x0 PUSH1 0x1 ISZERO ISZERO PUSH2 0x134 PUSH1 0x0 CALLER PUSH20 0xFFFFFFFFFFFFFFFFFFFFFFFFFFFFFFFFFFFFFFFF AND PUSH20 0xFFFFFFFFFFFFFFFFFFFFFFFFFFFFFFFFFFFFFFFF AND DUP2 MSTORE PUSH1 0x20 ADD SWAP1 DUP2 MSTORE PUSH1 0x20 ADD PUSH1 0x0 KECCAK256 PUSH1 0x0 SWAP1 SLOAD SWAP1 PUSH2 0x100 EXP SWAP1 DIV PUSH1 0xFF AND ISZERO ISZERO EQ PUSH2 0x1588 JUMPI PUSH1 0x40 MLOAD PUSH32 0x8C379A000000000000000000000000000000000000000000000000000000000 DUP2 MSTORE PUSH1 0x4 ADD PUSH2 0x157F SWAP1 PUSH2 0x5B18 JUMP JUMPDEST PUSH1 0x40 MLOAD DUP1 SWAP2 SUB SWAP1 REVERT JUMPDEST PUSH1 0x0 PUSH1 0x3 DUP2 GT ISZERO PUSH2 0x159C JUMPI PUSH2 0x159B PUSH2 0x529C JUMP JUMPDEST JUMPDEST DUP3 PUSH1 0x40 ADD MLOAD PUSH1 0x3 DUP2 GT ISZERO PUSH2 0x15B3 JUMPI PUSH2 0x15B2 PUSH2 0x529C JUMP JUMPDEST JUMPDEST SUB PUSH2 0x15F3 JUMPI PUSH1 0x40 MLOAD PUSH32 0x8C379A000000000000000000000000000000000000000000000000000000000 DUP2 MSTORE PUSH1 0x4 ADD PUSH2 0x15EA SWAP1 PUSH2 0x5E38 JUMP JUMPDEST PUSH1 0x40 MLOAD DUP1 SWAP2 SUB SWAP1 REVERT JUMPDEST PUSH1 0x0 PUSH1 0x4 DUP2 GT ISZERO PUSH2 0x1607 JUMPI PUSH2 0x1606 PUSH2 0x529C JUMP JUMPDEST JUMPDEST DUP3 PUSH1 0x60 ADD MLOAD PUSH1 0x4 DUP2 GT ISZERO PUSH2 0x161E JUMPI PUSH2 0x161D PUSH2 0x529C JUMP JUMPDEST JUMPDEST SUB PUSH2 0x165E JUMPI PUSH1 0x40 MLOAD PUSH32 0x8C379A000000000000000000000000000000000000000000000000000000000 DUP2 MSTORE PUSH1 0x4 ADD PUSH2 0x1655 SWAP1 PUSH2 0x5EA4 JUMP JUMPDEST PUSH1 0x40 MLOAD DUP1 SWAP2 SUB SWAP1 REVERT JUMPDEST PUSH1 0x0 DUP3 PUSH1 0xA0 ADD MLOAD MLOAD SUB PUSH2 0x16A6 JUMPI PUSH1 0x40 MLOAD PUSH32 0x8C379A000000000000000000000000000000000000000000000000000000000 DUP2 MSTORE PUSH1 0x4 ADD PUSH2 0x169D SWAP1 PUSH2 0x5F10 JUMP JUMPDEST PUSH1 0x40 MLOAD DUP1 SWAP2 SUB SWAP1 REVERT JUMPDEST PUSH1 0x0 DUP1 SHL DUP3 PUSH1 0x0 ADD MLOAD SUB PUSH2 0x16EF JUMPI PUSH1 0x40 MLOAD PUSH32 0x8C379A000000000000000000000000000000000000000000000000000000000 DUP2 MSTORE PUSH1 0x4 ADD PUSH2 0x16E6 SWAP1 PUSH2 0x5F10 JUMP JUMPDEST PUSH1 0x40 MLOAD DUP1 SWAP2 SUB SWAP1 REVERT JUMPDEST PUSH1 0x0 DUP3 PUSH1 0x20 ADD MLOAD SUB PUSH2 0x1706 JUMPI TIMESTAMP DUP3 PUSH1 0x20 ADD DUP2 DUP2 MSTORE POP POP JUMPDEST PUSH1 0x0 DUP3 PUSH1 0x80 ADD MLOAD DUP1 MLOAD SWAP1 PUSH1 0x20 ADD KECCAK256 SWAP1 POP PUSH1 0x0 PUSH2 0x1742 DUP5 PUSH1 0x0 ADD MLOAD DUP4 DUP7 PUSH1 0x20 ADD MLOAD PUSH2 0x172E PUSH2 0x212A JUMP JUMPDEST DUP9 PUSH1 0x40 ADD MLOAD DUP10 PUSH1 0x60 ADD MLOAD DUP11 PUSH1 0xA0 ADD MLOAD PUSH2 0x1D59 JUMP JUMPDEST SWAP1 POP PUSH1 0x0 PUSH2 0x136 PUSH1 0x0 DUP4 DUP2 MSTORE PUSH1 0x20 ADD SWAP1 DUP2 MSTORE PUSH1 0x20 ADD PUSH1 0x0 KECCAK256 SWAP1 POP PUSH1 0x0 PUSH2 0x12F SLOAD DUP7 PUSH1 0x20 ADD MLOAD PUSH2 0x1771 SWAP2 SWAP1 PUSH2 0x5F44 JUMP JUMPDEST SWAP1 POP PUSH1 0x0 PUSH2 0x130 SLOAD DUP8 PUSH1 0x20 ADD MLOAD PUSH2 0x1788 SWAP2 SWAP1 PUSH2 0x5F44 JUMP JUMPDEST SWAP1 POP PUSH2 0x17A0 DUP3 DUP5 PUSH1 0x4 ADD PUSH2 0x28CC SWAP1 SWAP2 SWAP1 PUSH4 0xFFFFFFFF AND JUMP JUMPDEST PUSH2 0x17B6 DUP2 DUP5 PUSH1 0x5 ADD PUSH2 0x28CC SWAP1 SWAP2 SWAP1 PUSH4 0xFFFFFFFF AND JUMP JUMPDEST DUP5 DUP4 PUSH1 0x2 ADD DUP2 SWAP1 SSTORE POP DUP7 PUSH1 0x0 ADD MLOAD DUP4 PUSH1 0x1 ADD DUP2 SWAP1 SSTORE POP CALLER DUP4 PUSH1 0x3 ADD PUSH1 0x0 PUSH2 0x100 EXP DUP2 SLOAD DUP2 PUSH20 0xFFFFFFFFFFFFFFFFFFFFFFFFFFFFFFFFFFFFFFFF MUL NOT AND SWAP1 DUP4 PUSH20 0xFFFFFFFFFFFFFFFFFFFFFFFFFFFFFFFFFFFFFFFF AND MUL OR SWAP1 SSTORE POP DUP7 PUSH1 0x40 ADD MLOAD DUP4 PUSH1 0x6 ADD PUSH1 0x0 PUSH2 0x100 EXP DUP2 SLOAD DUP2 PUSH1 0xFF MUL NOT AND SWAP1 DUP4 PUSH1 0x3 DUP2 GT ISZERO PUSH2 0x183A JUMPI PUSH2 0x1839 PUSH2 0x529C JUMP JUMPDEST JUMPDEST MUL OR SWAP1 SSTORE POP DUP7 PUSH1 0x60 ADD MLOAD DUP4 PUSH1 0x6 ADD PUSH1 0x1 PUSH2 0x100 EXP DUP2 SLOAD DUP2 PUSH1 0xFF MUL NOT AND SWAP1 DUP4 PUSH1 0x4 DUP2 GT ISZERO PUSH2 0x186A JUMPI PUSH2 0x1869 PUSH2 0x529C JUMP JUMPDEST JUMPDEST MUL OR SWAP1 SSTORE POP DUP7 PUSH1 0xA0 ADD MLOAD DUP4 PUSH1 0x7 ADD SWAP1 DUP1 MLOAD SWAP1 PUSH1 0x20 ADD SWAP1 PUSH2 0x188B SWAP3 SWAP2 SWAP1 PUSH2 0x4B40 JUMP JUMPDEST POP PUSH2 0x1895 DUP4 PUSH2 0x28FB JUMP JUMPDEST DUP4 SWAP6 POP POP POP POP POP POP SWAP2 SWAP1 POP JUMP JUMPDEST PUSH32 0xA49807205CE4D355092EF5A8A18F56E8913CF4A201FBE287825B095693C21775 DUP2 JUMP JUMPDEST PUSH1 0x0 PUSH1 0xFD PUSH1 0x0 DUP5 DUP2 MSTORE PUSH1 0x20 ADD SWAP1 DUP2 MSTORE PUSH1 0x20 ADD PUSH1 0x0 KECCAK256 PUSH1 0x0 ADD PUSH1 0x0 DUP4 PUSH20 0xFFFFFFFFFFFFFFFFFFFFFFFFFFFFFFFFFFFFFFFF AND PUSH20 0xFFFFFFFFFFFFFFFFFFFFFFFFFFFFFFFFFFFFFFFF AND DUP2 MSTORE PUSH1 0x20 ADD SWAP1 DUP2 MSTORE PUSH1 0x20 ADD PUSH1 0x0 KECCAK256 PUSH1 0x0 SWAP1 SLOAD SWAP1 PUSH2 0x100 EXP SWAP1 DIV PUSH1 0xFF AND SWAP1 POP SWAP3 SWAP2 POP POP JUMP JUMPDEST PUSH1 0x0 PUSH2 0x193D PUSH1 0x1 PUSH2 0x35AB JUMP JUMPDEST SWAP1 POP DUP1 ISZERO PUSH2 0x1961 JUMPI PUSH1 0x1 PUSH1 0x0 PUSH1 0x1 PUSH2 0x100 EXP DUP2 SLOAD DUP2 PUSH1 0xFF MUL NOT AND SWAP1 DUP4 ISZERO ISZERO MUL OR SWAP1 SSTORE POP JUMPDEST DUP6 PUSH2 0x132 PUSH1 0x0 PUSH2 0x100 EXP DUP2 SLOAD DUP2 PUSH20 0xFFFFFFFFFFFFFFFFFFFFFFFFFFFFFFFFFFFFFFFF MUL NOT AND SWAP1 DUP4 PUSH20 0xFFFFFFFFFFFFFFFFFFFFFFFFFFFFFFFFFFFFFFFF AND MUL OR SWAP1 SSTORE POP DUP7 PUSH2 0x131 PUSH1 0x0 PUSH2 0x100 EXP DUP2 SLOAD DUP2 PUSH20 0xFFFFFFFFFFFFFFFFFFFFFFFFFFFFFFFFFFFFFFFF MUL NOT AND SWAP1 DUP4 PUSH20 0xFFFFFFFFFFFFFFFFFFFFFFFFFFFFFFFFFFFFFFFF AND MUL OR SWAP1 SSTORE POP PUSH1 0x1 PUSH2 0x134 PUSH1 0x0 DUP11 PUSH20 0xFFFFFFFFFFFFFFFFFFFFFFFFFFFFFFFFFFFFFFFF AND PUSH20 0xFFFFFFFFFFFFFFFFFFFFFFFFFFFFFFFFFFFFFFFF AND DUP2 MSTORE PUSH1 0x20 ADD SWAP1 DUP2 MSTORE PUSH1 0x20 ADD PUSH1 0x0 KECCAK256 PUSH1 0x0 PUSH2 0x100 EXP DUP2 SLOAD DUP2 PUSH1 0xFF MUL NOT AND SWAP1 DUP4 ISZERO ISZERO MUL OR SWAP1 SSTORE POP PUSH1 0x1 PUSH2 0x139 PUSH1 0x0 PUSH2 0x100 EXP DUP2 SLOAD DUP2 PUSH4 0xFFFFFFFF MUL NOT AND SWAP1 DUP4 PUSH4 0xFFFFFFFF AND MUL OR SWAP1 SSTORE POP DUP9 PUSH2 0x133 PUSH1 0x0 PUSH2 0x100 EXP DUP2 SLOAD DUP2 PUSH20 0xFFFFFFFFFFFFFFFFFFFFFFFFFFFFFFFFFFFFFFFF MUL NOT AND SWAP1 DUP4 PUSH20 0xFFFFFFFFFFFFFFFFFFFFFFFFFFFFFFFFFFFFFFFF AND MUL OR SWAP1 SSTORE POP PUSH1 0x1 PUSH2 0x12F DUP2 SWAP1 SSTORE POP PUSH3 0x93A80 PUSH2 0x130 DUP2 SWAP1 SSTORE POP DUP5 DUP5 PUSH2 0x137 SWAP2 SWAP1 PUSH2 0x1AC9 SWAP3 SWAP2 SWAP1 PUSH2 0x4BC6 JUMP JUMPDEST POP DUP3 DUP3 PUSH2 0x138 SWAP2 SWAP1 PUSH2 0x1ADC SWAP3 SWAP2 SWAP1 PUSH2 0x4BC6 JUMP JUMPDEST POP PUSH2 0x1BFD PUSH2 0x137 DUP1 SLOAD PUSH2 0x1AEE SWAP1 PUSH2 0x57F0 JUMP JUMPDEST DUP1 PUSH1 0x1F ADD PUSH1 0x20 DUP1 SWAP2 DIV MUL PUSH1 0x20 ADD PUSH1 0x40 MLOAD SWAP1 DUP2 ADD PUSH1 0x40 MSTORE DUP1 SWAP3 SWAP2 SWAP1 DUP2 DUP2 MSTORE PUSH1 0x20 ADD DUP3 DUP1 SLOAD PUSH2 0x1B1A SWAP1 PUSH2 0x57F0 JUMP JUMPDEST DUP1 ISZERO PUSH2 0x1B67 JUMPI DUP1 PUSH1 0x1F LT PUSH2 0x1B3C JUMPI PUSH2 0x100 DUP1 DUP4 SLOAD DIV MUL DUP4 MSTORE SWAP2 PUSH1 0x20 ADD SWAP2 PUSH2 0x1B67 JUMP JUMPDEST DUP3 ADD SWAP2 SWAP1 PUSH1 0x0 MSTORE PUSH1 0x20 PUSH1 0x0 KECCAK256 SWAP1 JUMPDEST DUP2 SLOAD DUP2 MSTORE SWAP1 PUSH1 0x1 ADD SWAP1 PUSH1 0x20 ADD DUP1 DUP4 GT PUSH2 0x1B4A JUMPI DUP3 SWAP1 SUB PUSH1 0x1F AND DUP3 ADD SWAP2 JUMPDEST POP POP POP POP POP PUSH2 0x138 DUP1 SLOAD PUSH2 0x1B7A SWAP1 PUSH2 0x57F0 JUMP JUMPDEST DUP1 PUSH1 0x1F ADD PUSH1 0x20 DUP1 SWAP2 DIV MUL PUSH1 0x20 ADD PUSH1 0x40 MLOAD SWAP1 DUP2 ADD PUSH1 0x40 MSTORE DUP1 SWAP3 SWAP2 SWAP1 DUP2 DUP2 MSTORE PUSH1 0x20 ADD DUP3 DUP1 SLOAD PUSH2 0x1BA6 SWAP1 PUSH2 0x57F0 JUMP JUMPDEST DUP1 ISZERO PUSH2 0x1BF3 JUMPI DUP1 PUSH1 0x1F LT PUSH2 0x1BC8 JUMPI PUSH2 0x100 DUP1 DUP4 SLOAD DIV MUL DUP4 MSTORE SWAP2 PUSH1 0x20 ADD SWAP2 PUSH2 0x1BF3 JUMP JUMPDEST DUP3 ADD SWAP2 SWAP1 PUSH1 0x0 MSTORE PUSH1 0x20 PUSH1 0x0 KECCAK256 SWAP1 JUMPDEST DUP2 SLOAD DUP2 MSTORE SWAP1 PUSH1 0x1 ADD SWAP1 PUSH1 0x20 ADD DUP1 DUP4 GT PUSH2 0x1BD6 JUMPI DUP3 SWAP1 SUB PUSH1 0x1F AND DUP3 ADD SWAP2 JUMPDEST POP POP POP POP POP PUSH2 0x369B JUMP JUMPDEST PUSH2 0x1C2E PUSH32 0xA49807205CE4D355092EF5A8A18F56E8913CF4A201FBE287825B095693C21775 PUSH2 0x1C29 PUSH2 0x212A JUMP JUMPDEST PUSH2 0x2049 JUMP JUMPDEST PUSH2 0x1C58 PUSH32 0xA49807205CE4D355092EF5A8A18F56E8913CF4A201FBE287825B095693C21775 DUP1 PUSH2 0x36F8 JUMP JUMPDEST DUP1 ISZERO PUSH2 0x1CB1 JUMPI PUSH1 0x0 DUP1 PUSH1 0x1 PUSH2 0x100 EXP DUP2 SLOAD DUP2 PUSH1 0xFF MUL NOT AND SWAP1 DUP4 ISZERO ISZERO MUL OR SWAP1 SSTORE POP PUSH32 0x7F26B83FF96E1F2B6A682F133852F6798A09C465DA95921460CEFB3847402498 PUSH1 0x1 PUSH1 0x40 MLOAD PUSH2 0x1CA8 SWAP2 SWAP1 PUSH2 0x5FD4 JUMP JUMPDEST PUSH1 0x40 MLOAD DUP1 SWAP2 SUB SWAP1 LOG1 JUMPDEST POP POP POP POP POP POP POP POP POP JUMP JUMPDEST PUSH2 0x132 PUSH1 0x0 SWAP1 SLOAD SWAP1 PUSH2 0x100 EXP SWAP1 DIV PUSH20 0xFFFFFFFFFFFFFFFFFFFFFFFFFFFFFFFFFFFFFFFF AND DUP2 JUMP JUMPDEST PUSH1 0x0 DUP1 SHL DUP2 JUMP JUMPDEST PUSH32 0xF26C159FD7D78F3848964C3ADF4AEA78577348FCB297DB019BF8F5EFBED02195 DUP2 JUMP JUMPDEST PUSH32 0x53CC2FAE7ECEF069DA76AE9063C3ECFA7F417173BC5191FE1BB037165D76473F DUP2 JUMP JUMPDEST PUSH2 0x131 PUSH1 0x0 SWAP1 SLOAD SWAP1 PUSH2 0x100 EXP SWAP1 DIV PUSH20 0xFFFFFFFFFFFFFFFFFFFFFFFFFFFFFFFFFFFFFFFF AND DUP2 JUMP JUMPDEST PUSH1 0x0 DUP8 DUP8 DUP8 DUP8 DUP8 DUP8 DUP8 PUSH1 0x40 MLOAD PUSH1 0x20 ADD PUSH2 0x1D78 SWAP8 SWAP7 SWAP6 SWAP5 SWAP4 SWAP3 SWAP2 SWAP1 PUSH2 0x60D4 JUMP JUMPDEST PUSH1 0x40 MLOAD PUSH1 0x20 DUP2 DUP4 SUB SUB DUP2 MSTORE SWAP1 PUSH1 0x40 MSTORE DUP1 MLOAD SWAP1 PUSH1 0x20 ADD KECCAK256 PUSH1 0x0 SHR SWAP1 POP SWAP8 SWAP7 POP POP POP POP POP POP POP JUMP JUMPDEST PUSH2 0x1DA7 DUP3 PUSH2 0xCFF JUMP JUMPDEST PUSH2 0x1DB0 DUP2 PUSH2 0x2035 JUMP JUMPDEST PUSH2 0x1DBA DUP4 DUP4 PUSH2 0x2466 JUMP JUMPDEST POP POP POP JUMP JUMPDEST PUSH32 0x150214D74D59B7D1E90C73FC22EF3D991DD0A76B046543D4D80AB92D2A50328F DUP2 JUMP JUMPDEST PUSH32 0x23B872DD7302113369CDA2901243429419BEC145408FA8B352B3DD92B66C680B DUP2 JUMP JUMPDEST PUSH2 0x133 PUSH1 0x0 SWAP1 SLOAD SWAP1 PUSH2 0x100 EXP SWAP1 DIV PUSH20 0xFFFFFFFFFFFFFFFFFFFFFFFFFFFFFFFFFFFFFFFF AND DUP2 JUMP JUMPDEST PUSH32 0x36FD43EDE163045B10E1F0ABD16F62F165FCE3FA7B6CDE217BCEA3BC47663ACC DUP2 JUMP JUMPDEST PUSH1 0x0 PUSH2 0x134 PUSH1 0x0 DUP4 PUSH20 0xFFFFFFFFFFFFFFFFFFFFFFFFFFFFFFFFFFFFFFFF AND PUSH20 0xFFFFFFFFFFFFFFFFFFFFFFFFFFFFFFFFFFFFFFFF AND DUP2 MSTORE PUSH1 0x20 ADD SWAP1 DUP2 MSTORE PUSH1 0x20 ADD PUSH1 0x0 KECCAK256 PUSH1 0x0 SWAP1 SLOAD SWAP1 PUSH2 0x100 EXP SWAP1 DIV PUSH1 0xFF AND SWAP1 POP SWAP2 SWAP1 POP JUMP JUMPDEST PUSH1 0x0 PUSH32 0xA49807205CE4D355092EF5A8A18F56E8913CF4A201FBE287825B095693C21775 PUSH2 0x1ED5 DUP2 PUSH2 0x2035 JUMP JUMPDEST PUSH1 0x0 PUSH2 0x1EE0 DUP5 PUSH2 0x1049 JUMP JUMPDEST SWAP1 POP PUSH1 0x5 PUSH1 0x7 DUP2 GT ISZERO PUSH2 0x1EF6 JUMPI PUSH2 0x1EF5 PUSH2 0x529C JUMP JUMPDEST JUMPDEST DUP2 PUSH1 0x7 DUP2 GT ISZERO PUSH2 0x1F09 JUMPI PUSH2 0x1F08 PUSH2 0x529C JUMP JUMPDEST JUMPDEST EQ PUSH2 0x1F49 JUMPI PUSH1 0x40 MLOAD PUSH32 0x8C379A000000000000000000000000000000000000000000000000000000000 DUP2 MSTORE PUSH1 0x4 ADD PUSH2 0x1F40 SWAP1 PUSH2 0x61BC JUMP JUMPDEST PUSH1 0x40 MLOAD DUP1 SWAP2 SUB SWAP1 REVERT JUMPDEST PUSH1 0x0 PUSH2 0x136 PUSH1 0x0 DUP7 DUP2 MSTORE PUSH1 0x20 ADD SWAP1 DUP2 MSTORE PUSH1 0x20 ADD PUSH1 0x0 KECCAK256 SWAP1 POP PUSH1 0x1 DUP2 PUSH1 0x6 ADD PUSH1 0x2 PUSH2 0x100 EXP DUP2 SLOAD DUP2 PUSH1 0xFF MUL NOT AND SWAP1 DUP4 ISZERO ISZERO MUL OR SWAP1 SSTORE POP PUSH1 0x0 PUSH2 0x1F89 DUP3 PUSH2 0x3754 JUMP JUMPDEST SWAP1 POP DUP1 ISZERO PUSH2 0x1FBF JUMPI DUP6 PUSH32 0x712AE1383F79AC853F8D882153778E0260EF8F03B504E2866E0593E04D2B291F PUSH1 0x40 MLOAD PUSH1 0x40 MLOAD DUP1 SWAP2 SUB SWAP1 LOG2 JUMPDEST DUP1 SWAP5 POP POP POP POP POP SWAP2 SWAP1 POP JUMP JUMPDEST PUSH1 0x0 PUSH32 0x1FFC9A700000000000000000000000000000000000000000000000000000000 PUSH28 0xFFFFFFFFFFFFFFFFFFFFFFFFFFFFFFFFFFFFFFFFFFFFFFFFFFFFFFFF NOT AND DUP3 PUSH28 0xFFFFFFFFFFFFFFFFFFFFFFFFFFFFFFFFFFFFFFFFFFFFFFFFFFFFFFFF NOT AND EQ SWAP1 POP SWAP2 SWAP1 POP JUMP JUMPDEST PUSH2 0x2046 DUP2 PUSH2 0x2041 PUSH2 0x212A JUMP JUMPDEST PUSH2 0x3ED0 JUMP JUMPDEST POP JUMP JUMPDEST PUSH2 0x2053 DUP3 DUP3 PUSH2 0x18C6 JUMP JUMPDEST PUSH2 0x2126 JUMPI PUSH1 0x1 PUSH1 0xFD PUSH1 0x0 DUP5 DUP2 MSTORE PUSH1 0x20 ADD SWAP1 DUP2 MSTORE PUSH1 0x20 ADD PUSH1 0x0 KECCAK256 PUSH1 0x0 ADD PUSH1 0x0 DUP4 PUSH20 0xFFFFFFFFFFFFFFFFFFFFFFFFFFFFFFFFFFFFFFFF AND PUSH20 0xFFFFFFFFFFFFFFFFFFFFFFFFFFFFFFFFFFFFFFFF AND DUP2 MSTORE PUSH1 0x20 ADD SWAP1 DUP2 MSTORE PUSH1 0x20 ADD PUSH1 0x0 KECCAK256 PUSH1 0x0 PUSH2 0x100 EXP DUP2 SLOAD DUP2 PUSH1 0xFF MUL NOT AND SWAP1 DUP4 ISZERO ISZERO MUL OR SWAP1 SSTORE POP PUSH2 0x20CB PUSH2 0x212A JUMP JUMPDEST PUSH20 0xFFFFFFFFFFFFFFFFFFFFFFFFFFFFFFFFFFFFFFFF AND DUP2 PUSH20 0xFFFFFFFFFFFFFFFFFFFFFFFFFFFFFFFFFFFFFFFF AND DUP4 PUSH32 0x2F8788117E7EFF1D82E926EC794901D17C78024A50270940304540A733656F0D PUSH1 0x40 MLOAD PUSH1 0x40 MLOAD DUP1 SWAP2 SUB SWAP1 LOG4 JUMPDEST POP POP JUMP JUMPDEST PUSH1 0x0 CALLER SWAP1 POP SWAP1 JUMP JUMPDEST PUSH1 0x0 DUP1 PUSH1 0x3 DUP2 GT ISZERO PUSH2 0x2147 JUMPI PUSH2 0x2146 PUSH2 0x529C JUMP JUMPDEST JUMPDEST DUP4 PUSH1 0x3 DUP2 GT ISZERO PUSH2 0x215A JUMPI PUSH2 0x2159 PUSH2 0x529C JUMP JUMPDEST JUMPDEST SUB PUSH2 0x219A JUMPI PUSH1 0x40 MLOAD PUSH32 0x8C379A000000000000000000000000000000000000000000000000000000000 DUP2 MSTORE PUSH1 0x4 ADD PUSH2 0x2191 SWAP1 PUSH2 0x6228 JUMP JUMPDEST PUSH1 0x40 MLOAD DUP1 SWAP2 SUB SWAP1 REVERT JUMPDEST PUSH1 0x2 PUSH1 0x7 DUP2 GT ISZERO PUSH2 0x21AE JUMPI PUSH2 0x21AD PUSH2 0x529C JUMP JUMPDEST JUMPDEST PUSH2 0x21B7 DUP7 PUSH2 0x1049 JUMP JUMPDEST PUSH1 0x7 DUP2 GT ISZERO PUSH2 0x21C9 JUMPI PUSH2 0x21C8 PUSH2 0x529C JUMP JUMPDEST JUMPDEST EQ PUSH2 0x2209 JUMPI PUSH1 0x40 MLOAD PUSH32 0x8C379A000000000000000000000000000000000000000000000000000000000 DUP2 MSTORE PUSH1 0x4 ADD PUSH2 0x2200 SWAP1 PUSH2 0x62BA JUMP JUMPDEST PUSH1 0x40 MLOAD DUP1 SWAP2 SUB SWAP1 REVERT JUMPDEST PUSH1 0x0 PUSH2 0x135 PUSH1 0x0 DUP8 DUP2 MSTORE PUSH1 0x20 ADD SWAP1 DUP2 MSTORE PUSH1 0x20 ADD PUSH1 0x0 KECCAK256 SWAP1 POP PUSH2 0x2237 DUP6 DUP3 PUSH1 0x1 ADD PUSH2 0x289C SWAP1 SWAP2 SWAP1 PUSH4 0xFFFFFFFF AND JUMP JUMPDEST ISZERO PUSH2 0x2277 JUMPI PUSH1 0x40 MLOAD PUSH32 0x8C379A000000000000000000000000000000000000000000000000000000000 DUP2 MSTORE PUSH1 0x4 ADD PUSH2 0x226E SWAP1 PUSH2 0x6326 JUMP JUMPDEST PUSH1 0x40 MLOAD DUP1 SWAP2 SUB SWAP1 REVERT JUMPDEST PUSH2 0x228D DUP6 DUP3 PUSH1 0x1 ADD PUSH2 0x3F6D SWAP1 SWAP2 SWAP1 PUSH4 0xFFFFFFFF AND JUMP JUMPDEST POP PUSH1 0x1 PUSH1 0x3 DUP2 GT ISZERO PUSH2 0x22A2 JUMPI PUSH2 0x22A1 PUSH2 0x529C JUMP JUMPDEST JUMPDEST DUP5 PUSH1 0x3 DUP2 GT ISZERO PUSH2 0x22B5 JUMPI PUSH2 0x22B4 PUSH2 0x529C JUMP JUMPDEST JUMPDEST SUB PUSH2 0x230D JUMPI PUSH1 0x1 DUP2 PUSH1 0x0 ADD PUSH1 0x0 DUP3 DUP3 DUP3 SWAP1 SLOAD SWAP1 PUSH2 0x100 EXP SWAP1 DIV PUSH8 0xFFFFFFFFFFFFFFFF AND PUSH2 0x22E2 SWAP2 SWAP1 PUSH2 0x5F44 JUMP JUMPDEST SWAP3 POP PUSH2 0x100 EXP DUP2 SLOAD DUP2 PUSH8 0xFFFFFFFFFFFFFFFF MUL NOT AND SWAP1 DUP4 PUSH8 0xFFFFFFFFFFFFFFFF AND MUL OR SWAP1 SSTORE POP PUSH2 0x2408 JUMP JUMPDEST PUSH1 0x2 PUSH1 0x3 DUP2 GT ISZERO PUSH2 0x2321 JUMPI PUSH2 0x2320 PUSH2 0x529C JUMP JUMPDEST JUMPDEST DUP5 PUSH1 0x3 DUP2 GT ISZERO PUSH2 0x2334 JUMPI PUSH2 0x2333 PUSH2 0x529C JUMP JUMPDEST JUMPDEST SUB PUSH2 0x238C JUMPI PUSH1 0x1 DUP2 PUSH1 0x0 ADD PUSH1 0x8 DUP3 DUP3 DUP3 SWAP1 SLOAD SWAP1 PUSH2 0x100 EXP SWAP1 DIV PUSH8 0xFFFFFFFFFFFFFFFF AND PUSH2 0x2361 SWAP2 SWAP1 PUSH2 0x5F44 JUMP JUMPDEST SWAP3 POP PUSH2 0x100 EXP DUP2 SLOAD DUP2 PUSH8 0xFFFFFFFFFFFFFFFF MUL NOT AND SWAP1 DUP4 PUSH8 0xFFFFFFFFFFFFFFFF AND MUL OR SWAP1 SSTORE POP PUSH2 0x2407 JUMP JUMPDEST PUSH1 0x3 DUP1 DUP2 GT ISZERO PUSH2 0x239F JUMPI PUSH2 0x239E PUSH2 0x529C JUMP JUMPDEST JUMPDEST DUP5 PUSH1 0x3 DUP2 GT ISZERO PUSH2 0x23B2 JUMPI PUSH2 0x23B1 PUSH2 0x529C JUMP JUMPDEST JUMPDEST SUB PUSH2 0x2406 JUMPI PUSH1 0x1 DUP2 PUSH1 0x0 ADD PUSH1 0x10 DUP3 DUP3 DUP3 SWAP1 SLOAD SWAP1 PUSH2 0x100 EXP SWAP1 DIV PUSH8 0xFFFFFFFFFFFFFFFF AND PUSH2 0x23DF SWAP2 SWAP1 PUSH2 0x5F44 JUMP JUMPDEST SWAP3 POP PUSH2 0x100 EXP DUP2 SLOAD DUP2 PUSH8 0xFFFFFFFFFFFFFFFF MUL NOT AND SWAP1 DUP4 PUSH8 0xFFFFFFFFFFFFFFFF AND MUL OR SWAP1 SSTORE POP JUMPDEST JUMPDEST JUMPDEST DUP6 DUP6 PUSH20 0xFFFFFFFFFFFFFFFFFFFFFFFFFFFFFFFFFFFFFFFF AND PUSH32 0x5BE2678CAB71C7D94235767EB1DF3C57673F19E805CDC0EDBD2E74854AE9F0F9 DUP7 DUP7 PUSH1 0x40 MLOAD PUSH2 0x2451 SWAP3 SWAP2 SWAP1 PUSH2 0x638E JUMP JUMPDEST PUSH1 0x40 MLOAD DUP1 SWAP2 SUB SWAP1 LOG3 PUSH1 0x1 SWAP2 POP POP SWAP5 SWAP4 POP POP POP POP JUMP JUMPDEST PUSH2 0x2470 DUP3 DUP3 PUSH2 0x18C6 JUMP JUMPDEST ISZERO PUSH2 0x2544 JUMPI PUSH1 0x0 PUSH1 0xFD PUSH1 0x0 DUP5 DUP2 MSTORE PUSH1 0x20 ADD SWAP1 DUP2 MSTORE PUSH1 0x20 ADD PUSH1 0x0 KECCAK256 PUSH1 0x0 ADD PUSH1 0x0 DUP4 PUSH20 0xFFFFFFFFFFFFFFFFFFFFFFFFFFFFFFFFFFFFFFFF AND PUSH20 0xFFFFFFFFFFFFFFFFFFFFFFFFFFFFFFFFFFFFFFFF AND DUP2 MSTORE PUSH1 0x20 ADD SWAP1 DUP2 MSTORE PUSH1 0x20 ADD PUSH1 0x0 KECCAK256 PUSH1 0x0 PUSH2 0x100 EXP DUP2 SLOAD DUP2 PUSH1 0xFF MUL NOT AND SWAP1 DUP4 ISZERO ISZERO MUL OR SWAP1 SSTORE POP PUSH2 0x24E9 PUSH2 0x212A JUMP JUMPDEST PUSH20 0xFFFFFFFFFFFFFFFFFFFFFFFFFFFFFFFFFFFFFFFF AND DUP2 PUSH20 0xFFFFFFFFFFFFFFFFFFFFFFFFFFFFFFFFFFFFFFFF AND DUP4 PUSH32 0xF6391F5C32D9C69D2A47EA670B442974B53935D1EDC7FD64EB21E047A839171B PUSH1 0x40 MLOAD PUSH1 0x40 MLOAD DUP1 SWAP2 SUB SWAP1 LOG4 JUMPDEST POP POP JUMP JUMPDEST PUSH1 0x0 PUSH2 0x2576 PUSH32 0x360894A13BA1A3210667C828492DB98DCA3E2076CC3735A920A3CA505D382BBC PUSH1 0x0 SHL PUSH2 0x3F9D JUMP JUMPDEST PUSH1 0x0 ADD PUSH1 0x0 SWAP1 SLOAD SWAP1 PUSH2 0x100 EXP SWAP1 DIV PUSH20 0xFFFFFFFFFFFFFFFFFFFFFFFFFFFFFFFFFFFFFFFF AND SWAP1 POP SWAP1 JUMP JUMPDEST PUSH2 0x25C8 PUSH32 0xA49807205CE4D355092EF5A8A18F56E8913CF4A201FBE287825B095693C21775 PUSH2 0x2035 JUMP JUMPDEST POP JUMP JUMPDEST PUSH2 0x25F7 PUSH32 0x4910FDFA16FED3260ED0E7147F7CC6DA11A60208B5B9406D12A635614FFD9143 PUSH1 0x0 SHL PUSH2 0x3FA7 JUMP JUMPDEST PUSH1 0x0 ADD PUSH1 0x0 SWAP1 SLOAD SWAP1 PUSH2 0x100 EXP SWAP1 DIV PUSH1 0xFF AND ISZERO PUSH2 0x261B JUMPI PUSH2 0x2616 DUP4 PUSH2 0x3FB1 JUMP JUMPDEST PUSH2 0x2734 JUMP JUMPDEST DUP3 PUSH20 0xFFFFFFFFFFFFFFFFFFFFFFFFFFFFFFFFFFFFFFFF AND PUSH4 0x52D1902D PUSH1 0x40 MLOAD DUP2 PUSH4 0xFFFFFFFF AND PUSH1 0xE0 SHL DUP2 MSTORE PUSH1 0x4 ADD PUSH1 0x20 PUSH1 0x40 MLOAD DUP1 DUP4 SUB DUP2 DUP7 GAS STATICCALL SWAP3 POP POP POP DUP1 ISZERO PUSH2 0x2683 JUMPI POP PUSH1 0x40 MLOAD RETURNDATASIZE PUSH1 0x1F NOT PUSH1 0x1F DUP3 ADD AND DUP3 ADD DUP1 PUSH1 0x40 MSTORE POP DUP2 ADD SWAP1 PUSH2 0x2680 SWAP2 SWAP1 PUSH2 0x63D3 JUMP JUMPDEST PUSH1 0x1 JUMPDEST PUSH2 0x26C2 JUMPI PUSH1 0x40 MLOAD PUSH32 0x8C379A000000000000000000000000000000000000000000000000000000000 DUP2 MSTORE PUSH1 0x4 ADD PUSH2 0x26B9 SWAP1 PUSH2 0x6472 JUMP JUMPDEST PUSH1 0x40 MLOAD DUP1 SWAP2 SUB SWAP1 REVERT JUMPDEST PUSH32 0x360894A13BA1A3210667C828492DB98DCA3E2076CC3735A920A3CA505D382BBC PUSH1 0x0 SHL DUP2 EQ PUSH2 0x2727 JUMPI PUSH1 0x40 MLOAD PUSH32 0x8C379A000000000000000000000000000000000000000000000000000000000 DUP2 MSTORE PUSH1 0x4 ADD PUSH2 0x271E SWAP1 PUSH2 0x6504 JUMP JUMPDEST PUSH1 0x40 MLOAD DUP1 SWAP2 SUB SWAP1 REVERT JUMPDEST POP PUSH2 0x2733 DUP4 DUP4 DUP4 PUSH2 0x406A JUMP JUMPDEST JUMPDEST POP POP POP JUMP JUMPDEST PUSH1 0x0 TIMESTAMP DUP3 PUSH1 0x0 ADD MLOAD PUSH8 0xFFFFFFFFFFFFFFFF AND GT SWAP1 POP SWAP2 SWAP1 POP JUMP JUMPDEST PUSH1 0x0 DUP1 PUSH2 0x135 PUSH1 0x0 DUP5 DUP2 MSTORE PUSH1 0x20 ADD SWAP1 DUP2 MSTORE PUSH1 0x20 ADD PUSH1 0x0 KECCAK256 SWAP1 POP DUP1 PUSH1 0x0 ADD PUSH1 0x10 SWAP1 SLOAD SWAP1 PUSH2 0x100 EXP SWAP1 DIV PUSH8 0xFFFFFFFFFFFFFFFF AND DUP2 PUSH1 0x0 ADD PUSH1 0x0 SWAP1 SLOAD SWAP1 PUSH2 0x100 EXP SWAP1 DIV PUSH8 0xFFFFFFFFFFFFFFFF AND DUP3 PUSH1 0x0 ADD PUSH1 0x8 SWAP1 SLOAD SWAP1 PUSH2 0x100 EXP SWAP1 DIV PUSH8 0xFFFFFFFFFFFFFFFF AND PUSH2 0x27C1 SWAP2 SWAP1 PUSH2 0x5F44 JUMP JUMPDEST PUSH2 0x27CB SWAP2 SWAP1 PUSH2 0x5F44 JUMP JUMPDEST PUSH8 0xFFFFFFFFFFFFFFFF AND PUSH2 0x139 PUSH1 0x0 SWAP1 SLOAD SWAP1 PUSH2 0x100 EXP SWAP1 DIV PUSH4 0xFFFFFFFF AND PUSH4 0xFFFFFFFF AND EQ SWAP2 POP POP SWAP2 SWAP1 POP JUMP JUMPDEST PUSH1 0x0 PUSH2 0x2803 DUP3 PUSH2 0x4096 JUMP JUMPDEST DUP1 ISZERO PUSH2 0x281D JUMPI POP TIMESTAMP DUP3 PUSH1 0x0 ADD MLOAD PUSH8 0xFFFFFFFFFFFFFFFF AND GT ISZERO JUMPDEST SWAP1 POP SWAP2 SWAP1 POP JUMP JUMPDEST PUSH1 0x0 DUP1 PUSH2 0x135 PUSH1 0x0 DUP5 DUP2 MSTORE PUSH1 0x20 ADD SWAP1 DUP2 MSTORE PUSH1 0x20 ADD PUSH1 0x0 KECCAK256 SWAP1 POP PUSH1 0x1 PUSH1 0x2 PUSH2 0x139 PUSH1 0x0 SWAP1 SLOAD SWAP1 PUSH2 0x100 EXP SWAP1 DIV PUSH4 0xFFFFFFFF AND PUSH2 0x285F SWAP2 SWAP1 PUSH2 0x6553 JUMP JUMPDEST PUSH2 0x2869 SWAP2 SWAP1 PUSH2 0x6584 JUMP JUMPDEST PUSH4 0xFFFFFFFF AND DUP2 PUSH1 0x0 ADD PUSH1 0x8 SWAP1 SLOAD SWAP1 PUSH2 0x100 EXP SWAP1 DIV PUSH8 0xFFFFFFFFFFFFFFFF AND PUSH8 0xFFFFFFFFFFFFFFFF AND LT ISZERO SWAP2 POP POP SWAP2 SWAP1 POP JUMP JUMPDEST PUSH1 0x0 PUSH2 0x28C4 DUP4 PUSH1 0x0 ADD DUP4 PUSH20 0xFFFFFFFFFFFFFFFFFFFFFFFFFFFFFFFFFFFFFFFF AND PUSH1 0x0 SHL PUSH2 0x40B0 JUMP JUMPDEST SWAP1 POP SWAP3 SWAP2 POP POP JUMP JUMPDEST DUP1 DUP3 PUSH1 0x0 ADD PUSH1 0x0 PUSH2 0x100 EXP DUP2 SLOAD DUP2 PUSH8 0xFFFFFFFFFFFFFFFF MUL NOT AND SWAP1 DUP4 PUSH8 0xFFFFFFFFFFFFFFFF AND MUL OR SWAP1 SSTORE POP POP POP JUMP JUMPDEST PUSH1 0x1 PUSH1 0x3 DUP2 GT ISZERO PUSH2 0x290F JUMPI PUSH2 0x290E PUSH2 0x529C JUMP JUMPDEST JUMPDEST DUP2 PUSH1 0x6 ADD PUSH1 0x0 SWAP1 SLOAD SWAP1 PUSH2 0x100 EXP SWAP1 DIV PUSH1 0xFF AND PUSH1 0x3 DUP2 GT ISZERO PUSH2 0x2933 JUMPI PUSH2 0x2932 PUSH2 0x529C JUMP JUMPDEST JUMPDEST SUB PUSH2 0x2B7D JUMPI PUSH1 0x1 PUSH1 0x4 DUP2 GT ISZERO PUSH2 0x294C JUMPI PUSH2 0x294B PUSH2 0x529C JUMP JUMPDEST JUMPDEST DUP2 PUSH1 0x6 ADD PUSH1 0x1 SWAP1 SLOAD SWAP1 PUSH2 0x100 EXP SWAP1 DIV PUSH1 0xFF AND PUSH1 0x4 DUP2 GT ISZERO PUSH2 0x2970 JUMPI PUSH2 0x296F PUSH2 0x529C JUMP JUMPDEST JUMPDEST SUB PUSH2 0x2B78 JUMPI PUSH1 0x0 DUP2 PUSH1 0x7 ADD DUP1 SLOAD PUSH2 0x2986 SWAP1 PUSH2 0x57F0 JUMP JUMPDEST DUP1 PUSH1 0x1F ADD PUSH1 0x20 DUP1 SWAP2 DIV MUL PUSH1 0x20 ADD PUSH1 0x40 MLOAD SWAP1 DUP2 ADD PUSH1 0x40 MSTORE DUP1 SWAP3 SWAP2 SWAP1 DUP2 DUP2 MSTORE PUSH1 0x20 ADD DUP3 DUP1 SLOAD PUSH2 0x29B2 SWAP1 PUSH2 0x57F0 JUMP JUMPDEST DUP1 ISZERO PUSH2 0x29FF JUMPI DUP1 PUSH1 0x1F LT PUSH2 0x29D4 JUMPI PUSH2 0x100 DUP1 DUP4 SLOAD DIV MUL DUP4 MSTORE SWAP2 PUSH1 0x20 ADD SWAP2 PUSH2 0x29FF JUMP JUMPDEST DUP3 ADD SWAP2 SWAP1 PUSH1 0x0 MSTORE PUSH1 0x20 PUSH1 0x0 KECCAK256 SWAP1 JUMPDEST DUP2 SLOAD DUP2 MSTORE SWAP1 PUSH1 0x1 ADD SWAP1 PUSH1 0x20 ADD DUP1 DUP4 GT PUSH2 0x29E2 JUMPI DUP3 SWAP1 SUB PUSH1 0x1F AND DUP3 ADD SWAP2 JUMPDEST POP POP POP POP POP DUP1 PUSH1 0x20 ADD SWAP1 MLOAD DUP2 ADD SWAP1 PUSH2 0x2A17 SWAP2 SWAP1 PUSH2 0x66AF JUMP JUMPDEST SWAP1 POP PUSH1 0x0 PUSH20 0xFFFFFFFFFFFFFFFFFFFFFFFFFFFFFFFFFFFFFFFF AND DUP2 PUSH1 0x20 ADD MLOAD PUSH20 0xFFFFFFFFFFFFFFFFFFFFFFFFFFFFFFFFFFFFFFFF AND SUB PUSH2 0x2A8C JUMPI PUSH1 0x40 MLOAD PUSH32 0x8C379A000000000000000000000000000000000000000000000000000000000 DUP2 MSTORE PUSH1 0x4 ADD PUSH2 0x2A83 SWAP1 PUSH2 0x676A JUMP JUMPDEST PUSH1 0x40 MLOAD DUP1 SWAP2 SUB SWAP1 REVERT JUMPDEST PUSH1 0x0 DUP2 PUSH1 0x0 ADD MLOAD MLOAD SUB PUSH2 0x2AD4 JUMPI PUSH1 0x40 MLOAD PUSH32 0x8C379A000000000000000000000000000000000000000000000000000000000 DUP2 MSTORE PUSH1 0x4 ADD PUSH2 0x2ACB SWAP1 PUSH2 0x67FC JUMP JUMPDEST PUSH1 0x40 MLOAD DUP1 SWAP2 SUB SWAP1 REVERT JUMPDEST DUP1 PUSH1 0x20 ADD MLOAD PUSH20 0xFFFFFFFFFFFFFFFFFFFFFFFFFFFFFFFFFFFFFFFF AND DUP3 PUSH1 0x3 ADD PUSH1 0x0 SWAP1 SLOAD SWAP1 PUSH2 0x100 EXP SWAP1 DIV PUSH20 0xFFFFFFFFFFFFFFFFFFFFFFFFFFFFFFFFFFFFFFFF AND PUSH20 0xFFFFFFFFFFFFFFFFFFFFFFFFFFFFFFFFFFFFFFFF AND DUP4 PUSH1 0x0 ADD SLOAD PUSH32 0x1ED01BD0C1C1BF90291CCF5527422F61411DC5EE964B1168E1F133B4805F341D DUP6 PUSH1 0x1 ADD SLOAD DUP7 PUSH1 0x2 ADD SLOAD DUP7 PUSH1 0x0 ADD MLOAD PUSH1 0x40 MLOAD PUSH2 0x2B6E SWAP4 SWAP3 SWAP2 SWAP1 PUSH2 0x681C JUMP JUMPDEST PUSH1 0x40 MLOAD DUP1 SWAP2 SUB SWAP1 LOG4 POP JUMPDEST PUSH2 0x35A8 JUMP JUMPDEST PUSH1 0x2 PUSH1 0x3 DUP2 GT ISZERO PUSH2 0x2B91 JUMPI PUSH2 0x2B90 PUSH2 0x529C JUMP JUMPDEST JUMPDEST DUP2 PUSH1 0x6 ADD PUSH1 0x0 SWAP1 SLOAD SWAP1 PUSH2 0x100 EXP SWAP1 DIV PUSH1 0xFF AND PUSH1 0x3 DUP2 GT ISZERO PUSH2 0x2BB5 JUMPI PUSH2 0x2BB4 PUSH2 0x529C JUMP JUMPDEST JUMPDEST SUB PUSH2 0x356D JUMPI PUSH1 0x1 PUSH1 0x4 DUP2 GT ISZERO PUSH2 0x2BCE JUMPI PUSH2 0x2BCD PUSH2 0x529C JUMP JUMPDEST JUMPDEST DUP2 PUSH1 0x6 ADD PUSH1 0x1 SWAP1 SLOAD SWAP1 PUSH2 0x100 EXP SWAP1 DIV PUSH1 0xFF AND PUSH1 0x4 DUP2 GT ISZERO PUSH2 0x2BF2 JUMPI PUSH2 0x2BF1 PUSH2 0x529C JUMP JUMPDEST JUMPDEST SUB PUSH2 0x2E9C JUMPI PUSH1 0x0 DUP2 PUSH1 0x7 ADD DUP1 SLOAD PUSH2 0x2C08 SWAP1 PUSH2 0x57F0 JUMP JUMPDEST DUP1 PUSH1 0x1F ADD PUSH1 0x20 DUP1 SWAP2 DIV MUL PUSH1 0x20 ADD PUSH1 0x40 MLOAD SWAP1 DUP2 ADD PUSH1 0x40 MSTORE DUP1 SWAP3 SWAP2 SWAP1 DUP2 DUP2 MSTORE PUSH1 0x20 ADD DUP3 DUP1 SLOAD PUSH2 0x2C34 SWAP1 PUSH2 0x57F0 JUMP JUMPDEST DUP1 ISZERO PUSH2 0x2C81 JUMPI DUP1 PUSH1 0x1F LT PUSH2 0x2C56 JUMPI PUSH2 0x100 DUP1 DUP4 SLOAD DIV MUL DUP4 MSTORE SWAP2 PUSH1 0x20 ADD SWAP2 PUSH2 0x2C81 JUMP JUMPDEST DUP3 ADD SWAP2 SWAP1 PUSH1 0x0 MSTORE PUSH1 0x20 PUSH1 0x0 KECCAK256 SWAP1 JUMPDEST DUP2 SLOAD DUP2 MSTORE SWAP1 PUSH1 0x1 ADD SWAP1 PUSH1 0x20 ADD DUP1 DUP4 GT PUSH2 0x2C64 JUMPI DUP3 SWAP1 SUB PUSH1 0x1F AND DUP3 ADD SWAP2 JUMPDEST POP POP POP POP POP DUP1 PUSH1 0x20 ADD SWAP1 MLOAD DUP2 ADD SWAP1 PUSH2 0x2C99 SWAP2 SWAP1 PUSH2 0x693D JUMP JUMPDEST SWAP1 POP PUSH1 0x0 DUP2 PUSH1 0x0 ADD MLOAD MLOAD SUB PUSH2 0x2CE3 JUMPI PUSH1 0x40 MLOAD PUSH32 0x8C379A000000000000000000000000000000000000000000000000000000000 DUP2 MSTORE PUSH1 0x4 ADD PUSH2 0x2CDA SWAP1 PUSH2 0x69D2 JUMP JUMPDEST PUSH1 0x40 MLOAD DUP1 SWAP2 SUB SWAP1 REVERT JUMPDEST PUSH1 0x0 DUP2 PUSH1 0x20 ADD MLOAD SUB PUSH2 0x2D2A JUMPI PUSH1 0x40 MLOAD PUSH32 0x8C379A000000000000000000000000000000000000000000000000000000000 DUP2 MSTORE PUSH1 0x4 ADD PUSH2 0x2D21 SWAP1 PUSH2 0x6A64 JUMP JUMPDEST PUSH1 0x40 MLOAD DUP1 SWAP2 SUB SWAP1 REVERT JUMPDEST PUSH1 0x0 DUP2 PUSH1 0x60 ADD MLOAD PUSH2 0xFFFF AND SUB PUSH2 0x2D75 JUMPI PUSH1 0x40 MLOAD PUSH32 0x8C379A000000000000000000000000000000000000000000000000000000000 DUP2 MSTORE PUSH1 0x4 ADD PUSH2 0x2D6C SWAP1 PUSH2 0x6AF6 JUMP JUMPDEST PUSH1 0x40 MLOAD DUP1 SWAP2 SUB SWAP1 REVERT JUMPDEST PUSH1 0x0 PUSH20 0xFFFFFFFFFFFFFFFFFFFFFFFFFFFFFFFFFFFFFFFF AND DUP2 PUSH1 0x40 ADD MLOAD PUSH20 0xFFFFFFFFFFFFFFFFFFFFFFFFFFFFFFFFFFFFFFFF AND SUB PUSH2 0x2DE8 JUMPI PUSH1 0x40 MLOAD PUSH32 0x8C379A000000000000000000000000000000000000000000000000000000000 DUP2 MSTORE PUSH1 0x4 ADD PUSH2 0x2DDF SWAP1 PUSH2 0x6B62 JUMP JUMPDEST PUSH1 0x40 MLOAD DUP1 SWAP2 SUB SWAP1 REVERT JUMPDEST DUP1 PUSH1 0x40 ADD MLOAD PUSH20 0xFFFFFFFFFFFFFFFFFFFFFFFFFFFFFFFFFFFFFFFF AND DUP3 PUSH1 0x3 ADD PUSH1 0x0 SWAP1 SLOAD SWAP1 PUSH2 0x100 EXP SWAP1 DIV PUSH20 0xFFFFFFFFFFFFFFFFFFFFFFFFFFFFFFFFFFFFFFFF AND PUSH20 0xFFFFFFFFFFFFFFFFFFFFFFFFFFFFFFFFFFFFFFFF AND DUP4 PUSH1 0x0 ADD SLOAD PUSH32 0x3709C37709F3D6EE9CB63F7ADAA620B8C3DF36C818BAA2BF3E93F52B541C701D DUP5 PUSH1 0x20 ADD MLOAD DUP7 PUSH1 0x1 ADD SLOAD DUP8 PUSH1 0x2 ADD SLOAD DUP8 PUSH1 0x0 ADD MLOAD DUP9 PUSH1 0x60 ADD MLOAD PUSH1 0x40 MLOAD PUSH2 0x2E8E SWAP6 SWAP5 SWAP4 SWAP3 SWAP2 SWAP1 PUSH2 0x6B91 JUMP JUMPDEST PUSH1 0x40 MLOAD DUP1 SWAP2 SUB SWAP1 LOG4 POP PUSH2 0x3568 JUMP JUMPDEST PUSH1 0x2 PUSH1 0x4 DUP2 GT ISZERO PUSH2 0x2EB0 JUMPI PUSH2 0x2EAF PUSH2 0x529C JUMP JUMPDEST JUMPDEST DUP2 PUSH1 0x6 ADD PUSH1 0x1 SWAP1 SLOAD SWAP1 PUSH2 0x100 EXP SWAP1 DIV PUSH1 0xFF AND PUSH1 0x4 DUP2 GT ISZERO PUSH2 0x2ED4 JUMPI PUSH2 0x2ED3 PUSH2 0x529C JUMP JUMPDEST JUMPDEST SUB PUSH2 0x317E JUMPI PUSH1 0x0 DUP2 PUSH1 0x7 ADD DUP1 SLOAD PUSH2 0x2EEA SWAP1 PUSH2 0x57F0 JUMP JUMPDEST DUP1 PUSH1 0x1F ADD PUSH1 0x20 DUP1 SWAP2 DIV MUL PUSH1 0x20 ADD PUSH1 0x40 MLOAD SWAP1 DUP2 ADD PUSH1 0x40 MSTORE DUP1 SWAP3 SWAP2 SWAP1 DUP2 DUP2 MSTORE PUSH1 0x20 ADD DUP3 DUP1 SLOAD PUSH2 0x2F16 SWAP1 PUSH2 0x57F0 JUMP JUMPDEST DUP1 ISZERO PUSH2 0x2F63 JUMPI DUP1 PUSH1 0x1F LT PUSH2 0x2F38 JUMPI PUSH2 0x100 DUP1 DUP4 SLOAD DIV MUL DUP4 MSTORE SWAP2 PUSH1 0x20 ADD SWAP2 PUSH2 0x2F63 JUMP JUMPDEST DUP3 ADD SWAP2 SWAP1 PUSH1 0x0 MSTORE PUSH1 0x20 PUSH1 0x0 KECCAK256 SWAP1 JUMPDEST DUP2 SLOAD DUP2 MSTORE SWAP1 PUSH1 0x1 ADD SWAP1 PUSH1 0x20 ADD DUP1 DUP4 GT PUSH2 0x2F46 JUMPI DUP3 SWAP1 SUB PUSH1 0x1F AND DUP3 ADD SWAP2 JUMPDEST POP POP POP POP POP DUP1 PUSH1 0x20 ADD SWAP1 MLOAD DUP2 ADD SWAP1 PUSH2 0x2F7B SWAP2 SWAP1 PUSH2 0x6C7F JUMP JUMPDEST SWAP1 POP PUSH1 0x0 DUP2 PUSH1 0x0 ADD MLOAD MLOAD SUB PUSH2 0x2FC5 JUMPI PUSH1 0x40 MLOAD PUSH32 0x8C379A000000000000000000000000000000000000000000000000000000000 DUP2 MSTORE PUSH1 0x4 ADD PUSH2 0x2FBC SWAP1 PUSH2 0x69D2 JUMP JUMPDEST PUSH1 0x40 MLOAD DUP1 SWAP2 SUB SWAP1 REVERT JUMPDEST PUSH1 0x0 DUP2 PUSH1 0x20 ADD MLOAD SUB PUSH2 0x300C JUMPI PUSH1 0x40 MLOAD PUSH32 0x8C379A000000000000000000000000000000000000000000000000000000000 DUP2 MSTORE PUSH1 0x4 ADD PUSH2 0x3003 SWAP1 PUSH2 0x6A64 JUMP JUMPDEST PUSH1 0x40 MLOAD DUP1 SWAP2 SUB SWAP1 REVERT JUMPDEST PUSH1 0x0 DUP2 PUSH1 0x60 ADD MLOAD PUSH2 0xFFFF AND SUB PUSH2 0x3057 JUMPI PUSH1 0x40 MLOAD PUSH32 0x8C379A000000000000000000000000000000000000000000000000000000000 DUP2 MSTORE PUSH1 0x4 ADD PUSH2 0x304E SWAP1 PUSH2 0x6AF6 JUMP JUMPDEST PUSH1 0x40 MLOAD DUP1 SWAP2 SUB SWAP1 REVERT JUMPDEST PUSH1 0x0 PUSH20 0xFFFFFFFFFFFFFFFFFFFFFFFFFFFFFFFFFFFFFFFF AND DUP2 PUSH1 0x40 ADD MLOAD PUSH20 0xFFFFFFFFFFFFFFFFFFFFFFFFFFFFFFFFFFFFFFFF AND SUB PUSH2 0x30CA JUMPI PUSH1 0x40 MLOAD PUSH32 0x8C379A000000000000000000000000000000000000000000000000000000000 DUP2 MSTORE PUSH1 0x4 ADD PUSH2 0x30C1 SWAP1 PUSH2 0x6D14 JUMP JUMPDEST PUSH1 0x40 MLOAD DUP1 SWAP2 SUB SWAP1 REVERT JUMPDEST DUP1 PUSH1 0x40 ADD MLOAD PUSH20 0xFFFFFFFFFFFFFFFFFFFFFFFFFFFFFFFFFFFFFFFF AND DUP3 PUSH1 0x3 ADD PUSH1 0x0 SWAP1 SLOAD SWAP1 PUSH2 0x100 EXP SWAP1 DIV PUSH20 0xFFFFFFFFFFFFFFFFFFFFFFFFFFFFFFFFFFFFFFFF AND PUSH20 0xFFFFFFFFFFFFFFFFFFFFFFFFFFFFFFFFFFFFFFFF AND DUP4 PUSH1 0x0 ADD SLOAD PUSH32 0xFD412ADA63C33B41FD5873414586636198B7A0FB94D405538E3F9FF8E139FE23 DUP5 PUSH1 0x20 ADD MLOAD DUP7 PUSH1 0x1 ADD SLOAD DUP8 PUSH1 0x2 ADD SLOAD DUP8 PUSH1 0x0 ADD MLOAD DUP9 PUSH1 0x60 ADD MLOAD PUSH1 0x40 MLOAD PUSH2 0x3170 SWAP6 SWAP5 SWAP4 SWAP3 SWAP2 SWAP1 PUSH2 0x6B91 JUMP JUMPDEST PUSH1 0x40 MLOAD DUP1 SWAP2 SUB SWAP1 LOG4 POP PUSH2 0x3567 JUMP JUMPDEST PUSH1 0x3 PUSH1 0x4 DUP2 GT ISZERO PUSH2 0x3192 JUMPI PUSH2 0x3191 PUSH2 0x529C JUMP JUMPDEST JUMPDEST DUP2 PUSH1 0x6 ADD PUSH1 0x1 SWAP1 SLOAD SWAP1 PUSH2 0x100 EXP SWAP1 DIV PUSH1 0xFF AND PUSH1 0x4 DUP2 GT ISZERO PUSH2 0x31B6 JUMPI PUSH2 0x31B5 PUSH2 0x529C JUMP JUMPDEST JUMPDEST SUB PUSH2 0x3374 JUMPI PUSH1 0x0 DUP2 PUSH1 0x7 ADD DUP1 SLOAD PUSH2 0x31CC SWAP1 PUSH2 0x57F0 JUMP JUMPDEST DUP1 PUSH1 0x1F ADD PUSH1 0x20 DUP1 SWAP2 DIV MUL PUSH1 0x20 ADD PUSH1 0x40 MLOAD SWAP1 DUP2 ADD PUSH1 0x40 MSTORE DUP1 SWAP3 SWAP2 SWAP1 DUP2 DUP2 MSTORE PUSH1 0x20 ADD DUP3 DUP1 SLOAD PUSH2 0x31F8 SWAP1 PUSH2 0x57F0 JUMP JUMPDEST DUP1 ISZERO PUSH2 0x3245 JUMPI DUP1 PUSH1 0x1F LT PUSH2 0x321A JUMPI PUSH2 0x100 DUP1 DUP4 SLOAD DIV MUL DUP4 MSTORE SWAP2 PUSH1 0x20 ADD SWAP2 PUSH2 0x3245 JUMP JUMPDEST DUP3 ADD SWAP2 SWAP1 PUSH1 0x0 MSTORE PUSH1 0x20 PUSH1 0x0 KECCAK256 SWAP1 JUMPDEST DUP2 SLOAD DUP2 MSTORE SWAP1 PUSH1 0x1 ADD SWAP1 PUSH1 0x20 ADD DUP1 DUP4 GT PUSH2 0x3228 JUMPI DUP3 SWAP1 SUB PUSH1 0x1F AND DUP3 ADD SWAP2 JUMPDEST POP POP POP POP POP DUP1 PUSH1 0x20 ADD SWAP1 MLOAD DUP2 ADD SWAP1 PUSH2 0x325D SWAP2 SWAP1 PUSH2 0x6D70 JUMP JUMPDEST SWAP1 POP PUSH1 0x0 PUSH20 0xFFFFFFFFFFFFFFFFFFFFFFFFFFFFFFFFFFFFFFFF AND DUP2 PUSH1 0x0 ADD MLOAD PUSH20 0xFFFFFFFFFFFFFFFFFFFFFFFFFFFFFFFFFFFFFFFF AND SUB PUSH2 0x32D2 JUMPI PUSH1 0x40 MLOAD PUSH32 0x8C379A000000000000000000000000000000000000000000000000000000000 DUP2 MSTORE PUSH1 0x4 ADD PUSH2 0x32C9 SWAP1 PUSH2 0x6E0F JUMP JUMPDEST PUSH1 0x40 MLOAD DUP1 SWAP2 SUB SWAP1 REVERT JUMPDEST DUP1 PUSH1 0x0 ADD MLOAD PUSH20 0xFFFFFFFFFFFFFFFFFFFFFFFFFFFFFFFFFFFFFFFF AND DUP3 PUSH1 0x3 ADD PUSH1 0x0 SWAP1 SLOAD SWAP1 PUSH2 0x100 EXP SWAP1 DIV PUSH20 0xFFFFFFFFFFFFFFFFFFFFFFFFFFFFFFFFFFFFFFFF AND PUSH20 0xFFFFFFFFFFFFFFFFFFFFFFFFFFFFFFFFFFFFFFFF AND DUP4 PUSH1 0x0 ADD SLOAD PUSH32 0x927D0E51911914FF13D9026FFDCE0B23D07C2EB16F2381B45B528C5C03BCB27C DUP6 PUSH1 0x1 ADD SLOAD DUP7 PUSH1 0x2 ADD SLOAD PUSH1 0x40 MLOAD PUSH2 0x3366 SWAP3 SWAP2 SWAP1 PUSH2 0x6E2F JUMP JUMPDEST PUSH1 0x40 MLOAD DUP1 SWAP2 SUB SWAP1 LOG4 POP PUSH2 0x3566 JUMP JUMPDEST PUSH1 0x4 DUP1 DUP2 GT ISZERO PUSH2 0x3387 JUMPI PUSH2 0x3386 PUSH2 0x529C JUMP JUMPDEST JUMPDEST DUP2 PUSH1 0x6 ADD PUSH1 0x1 SWAP1 SLOAD SWAP1 PUSH2 0x100 EXP SWAP1 DIV PUSH1 0xFF AND PUSH1 0x4 DUP2 GT ISZERO PUSH2 0x33AB JUMPI PUSH2 0x33AA PUSH2 0x529C JUMP JUMPDEST JUMPDEST SUB PUSH2 0x3565 JUMPI PUSH1 0x0 DUP2 PUSH1 0x7 ADD DUP1 SLOAD PUSH2 0x33C1 SWAP1 PUSH2 0x57F0 JUMP JUMPDEST DUP1 PUSH1 0x1F ADD PUSH1 0x20 DUP1 SWAP2 DIV MUL PUSH1 0x20 ADD PUSH1 0x40 MLOAD SWAP1 DUP2 ADD PUSH1 0x40 MSTORE DUP1 SWAP3 SWAP2 SWAP1 DUP2 DUP2 MSTORE PUSH1 0x20 ADD DUP3 DUP1 SLOAD PUSH2 0x33ED SWAP1 PUSH2 0x57F0 JUMP JUMPDEST DUP1 ISZERO PUSH2 0x343A JUMPI DUP1 PUSH1 0x1F LT PUSH2 0x340F JUMPI PUSH2 0x100 DUP1 DUP4 SLOAD DIV MUL DUP4 MSTORE SWAP2 PUSH1 0x20 ADD SWAP2 PUSH2 0x343A JUMP JUMPDEST DUP3 ADD SWAP2 SWAP1 PUSH1 0x0 MSTORE PUSH1 0x20 PUSH1 0x0 KECCAK256 SWAP1 JUMPDEST DUP2 SLOAD DUP2 MSTORE SWAP1 PUSH1 0x1 ADD SWAP1 PUSH1 0x20 ADD DUP1 DUP4 GT PUSH2 0x341D JUMPI DUP3 SWAP1 SUB PUSH1 0x1F AND DUP3 ADD SWAP2 JUMPDEST POP POP POP POP POP DUP1 PUSH1 0x20 ADD SWAP1 MLOAD DUP2 ADD SWAP1 PUSH2 0x3452 SWAP2 SWAP1 PUSH2 0x6E94 JUMP JUMPDEST SWAP1 POP PUSH1 0x0 PUSH20 0xFFFFFFFFFFFFFFFFFFFFFFFFFFFFFFFFFFFFFFFF AND DUP2 PUSH1 0x0 ADD MLOAD PUSH20 0xFFFFFFFFFFFFFFFFFFFFFFFFFFFFFFFFFFFFFFFF AND SUB PUSH2 0x34C7 JUMPI PUSH1 0x40 MLOAD PUSH32 0x8C379A000000000000000000000000000000000000000000000000000000000 DUP2 MSTORE PUSH1 0x4 ADD PUSH2 0x34BE SWAP1 PUSH2 0x6F33 JUMP JUMPDEST PUSH1 0x40 MLOAD DUP1 SWAP2 SUB SWAP1 REVERT JUMPDEST DUP1 PUSH1 0x0 ADD MLOAD PUSH20 0xFFFFFFFFFFFFFFFFFFFFFFFFFFFFFFFFFFFFFFFF AND DUP3 PUSH1 0x3 ADD PUSH1 0x0 SWAP1 SLOAD SWAP1 PUSH2 0x100 EXP SWAP1 DIV PUSH20 0xFFFFFFFFFFFFFFFFFFFFFFFFFFFFFFFFFFFFFFFF AND PUSH20 0xFFFFFFFFFFFFFFFFFFFFFFFFFFFFFFFFFFFFFFFF AND DUP4 PUSH1 0x0 ADD SLOAD PUSH32 0x348A6E7D4CEA225355ADAF26376CDB9FFD7A04A17E9410BB22B435D348BED09A DUP6 PUSH1 0x1 ADD SLOAD DUP7 PUSH1 0x2 ADD SLOAD PUSH1 0x40 MLOAD PUSH2 0x355B SWAP3 SWAP2 SWAP1 PUSH2 0x6E2F JUMP JUMPDEST PUSH1 0x40 MLOAD DUP1 SWAP2 SUB SWAP1 LOG4 POP JUMPDEST JUMPDEST JUMPDEST JUMPDEST PUSH2 0x35A7 JUMP JUMPDEST PUSH1 0x3 DUP1 DUP2 GT ISZERO PUSH2 0x3580 JUMPI PUSH2 0x357F PUSH2 0x529C JUMP JUMPDEST JUMPDEST DUP2 PUSH1 0x6 ADD PUSH1 0x0 SWAP1 SLOAD SWAP1 PUSH2 0x100 EXP SWAP1 DIV PUSH1 0xFF AND PUSH1 0x3 DUP2 GT ISZERO PUSH2 0x35A4 JUMPI PUSH2 0x35A3 PUSH2 0x529C JUMP JUMPDEST JUMPDEST POP POP JUMPDEST JUMPDEST POP JUMP JUMPDEST PUSH1 0x0 DUP1 PUSH1 0x1 SWAP1 SLOAD SWAP1 PUSH2 0x100 EXP SWAP1 DIV PUSH1 0xFF AND ISZERO PUSH2 0x3622 JUMPI PUSH1 0x1 DUP3 PUSH1 0xFF AND EQ DUP1 ISZERO PUSH2 0x35DA JUMPI POP PUSH2 0x35D8 ADDRESS PUSH2 0x40D3 JUMP JUMPDEST ISZERO JUMPDEST PUSH2 0x3619 JUMPI PUSH1 0x40 MLOAD PUSH32 0x8C379A000000000000000000000000000000000000000000000000000000000 DUP2 MSTORE PUSH1 0x4 ADD PUSH2 0x3610 SWAP1 PUSH2 0x6FC5 JUMP JUMPDEST PUSH1 0x40 MLOAD DUP1 SWAP2 SUB SWAP1 REVERT JUMPDEST PUSH1 0x0 SWAP1 POP PUSH2 0x3696 JUMP JUMPDEST DUP2 PUSH1 0xFF AND PUSH1 0x0 DUP1 SLOAD SWAP1 PUSH2 0x100 EXP SWAP1 DIV PUSH1 0xFF AND PUSH1 0xFF AND LT PUSH2 0x3677 JUMPI PUSH1 0x40 MLOAD PUSH32 0x8C379A000000000000000000000000000000000000000000000000000000000 DUP2 MSTORE PUSH1 0x4 ADD PUSH2 0x366E SWAP1 PUSH2 0x6FC5 JUMP JUMPDEST PUSH1 0x40 MLOAD DUP1 SWAP2 SUB SWAP1 REVERT JUMPDEST DUP2 PUSH1 0x0 DUP1 PUSH2 0x100 EXP DUP2 SLOAD DUP2 PUSH1 0xFF MUL NOT AND SWAP1 DUP4 PUSH1 0xFF AND MUL OR SWAP1 SSTORE POP PUSH1 0x1 SWAP1 POP JUMPDEST SWAP2 SWAP1 POP JUMP JUMPDEST PUSH1 0x0 PUSH1 0x1 SWAP1 SLOAD SWAP1 PUSH2 0x100 EXP SWAP1 DIV PUSH1 0xFF AND PUSH2 0x36EA JUMPI PUSH1 0x40 MLOAD PUSH32 0x8C379A000000000000000000000000000000000000000000000000000000000 DUP2 MSTORE PUSH1 0x4 ADD PUSH2 0x36E1 SWAP1 PUSH2 0x7057 JUMP JUMPDEST PUSH1 0x40 MLOAD DUP1 SWAP2 SUB SWAP1 REVERT JUMPDEST PUSH2 0x36F4 DUP3 DUP3 PUSH2 0x40F6 JUMP JUMPDEST POP POP JUMP JUMPDEST PUSH1 0x0 PUSH2 0x3703 DUP4 PUSH2 0xCFF JUMP JUMPDEST SWAP1 POP DUP2 PUSH1 0xFD PUSH1 0x0 DUP6 DUP2 MSTORE PUSH1 0x20 ADD SWAP1 DUP2 MSTORE PUSH1 0x20 ADD PUSH1 0x0 KECCAK256 PUSH1 0x1 ADD DUP2 SWAP1 SSTORE POP DUP2 DUP2 DUP5 PUSH32 0xBD79B86FFE0AB8E8776151514217CD7CACD52C909F66475C3AF44E129F0B00FF PUSH1 0x40 MLOAD PUSH1 0x40 MLOAD DUP1 SWAP2 SUB SWAP1 LOG4 POP POP POP JUMP JUMPDEST PUSH1 0x0 DUP1 PUSH1 0x1 SWAP1 POP PUSH1 0x1 PUSH1 0x3 DUP2 GT ISZERO PUSH2 0x376F JUMPI PUSH2 0x376E PUSH2 0x529C JUMP JUMPDEST JUMPDEST DUP4 PUSH1 0x6 ADD PUSH1 0x0 SWAP1 SLOAD SWAP1 PUSH2 0x100 EXP SWAP1 DIV PUSH1 0xFF AND PUSH1 0x3 DUP2 GT ISZERO PUSH2 0x3793 JUMPI PUSH2 0x3792 PUSH2 0x529C JUMP JUMPDEST JUMPDEST SUB PUSH2 0x3922 JUMPI PUSH1 0x1 PUSH1 0x4 DUP2 GT ISZERO PUSH2 0x37AC JUMPI PUSH2 0x37AB PUSH2 0x529C JUMP JUMPDEST JUMPDEST DUP4 PUSH1 0x6 ADD PUSH1 0x1 SWAP1 SLOAD SWAP1 PUSH2 0x100 EXP SWAP1 DIV PUSH1 0xFF AND PUSH1 0x4 DUP2 GT ISZERO PUSH2 0x37D0 JUMPI PUSH2 0x37CF PUSH2 0x529C JUMP JUMPDEST JUMPDEST SUB PUSH2 0x391D JUMPI PUSH1 0x0 DUP4 PUSH1 0x7 ADD DUP1 SLOAD PUSH2 0x37E6 SWAP1 PUSH2 0x57F0 JUMP JUMPDEST DUP1 PUSH1 0x1F ADD PUSH1 0x20 DUP1 SWAP2 DIV MUL PUSH1 0x20 ADD PUSH1 0x40 MLOAD SWAP1 DUP2 ADD PUSH1 0x40 MSTORE DUP1 SWAP3 SWAP2 SWAP1 DUP2 DUP2 MSTORE PUSH1 0x20 ADD DUP3 DUP1 SLOAD PUSH2 0x3812 SWAP1 PUSH2 0x57F0 JUMP JUMPDEST DUP1 ISZERO PUSH2 0x385F JUMPI DUP1 PUSH1 0x1F LT PUSH2 0x3834 JUMPI PUSH2 0x100 DUP1 DUP4 SLOAD DIV MUL DUP4 MSTORE SWAP2 PUSH1 0x20 ADD SWAP2 PUSH2 0x385F JUMP JUMPDEST DUP3 ADD SWAP2 SWAP1 PUSH1 0x0 MSTORE PUSH1 0x20 PUSH1 0x0 KECCAK256 SWAP1 JUMPDEST DUP2 SLOAD DUP2 MSTORE SWAP1 PUSH1 0x1 ADD SWAP1 PUSH1 0x20 ADD DUP1 DUP4 GT PUSH2 0x3842 JUMPI DUP3 SWAP1 SUB PUSH1 0x1F AND DUP3 ADD SWAP2 JUMPDEST POP POP POP POP POP DUP1 PUSH1 0x20 ADD SWAP1 MLOAD DUP2 ADD SWAP1 PUSH2 0x3877 SWAP2 SWAP1 PUSH2 0x66AF JUMP JUMPDEST SWAP1 POP PUSH1 0x1 PUSH2 0x134 PUSH1 0x0 DUP4 PUSH1 0x20 ADD MLOAD PUSH20 0xFFFFFFFFFFFFFFFFFFFFFFFFFFFFFFFFFFFFFFFF AND PUSH20 0xFFFFFFFFFFFFFFFFFFFFFFFFFFFFFFFFFFFFFFFF AND DUP2 MSTORE PUSH1 0x20 ADD SWAP1 DUP2 MSTORE PUSH1 0x20 ADD PUSH1 0x0 KECCAK256 PUSH1 0x0 PUSH2 0x100 EXP DUP2 SLOAD DUP2 PUSH1 0xFF MUL NOT AND SWAP1 DUP4 ISZERO ISZERO MUL OR SWAP1 SSTORE POP PUSH1 0x1 PUSH2 0x139 PUSH1 0x0 DUP3 DUP3 DUP3 SWAP1 SLOAD SWAP1 PUSH2 0x100 EXP SWAP1 DIV PUSH4 0xFFFFFFFF AND PUSH2 0x38F9 SWAP2 SWAP1 PUSH2 0x6584 JUMP JUMPDEST SWAP3 POP PUSH2 0x100 EXP DUP2 SLOAD DUP2 PUSH4 0xFFFFFFFF MUL NOT AND SWAP1 DUP4 PUSH4 0xFFFFFFFF AND MUL OR SWAP1 SSTORE POP PUSH1 0x1 SWAP2 POP POP JUMPDEST PUSH2 0x3EC7 JUMP JUMPDEST PUSH1 0x2 PUSH1 0x3 DUP2 GT ISZERO PUSH2 0x3936 JUMPI PUSH2 0x3935 PUSH2 0x529C JUMP JUMPDEST JUMPDEST DUP4 PUSH1 0x6 ADD PUSH1 0x0 SWAP1 SLOAD SWAP1 PUSH2 0x100 EXP SWAP1 DIV PUSH1 0xFF AND PUSH1 0x3 DUP2 GT ISZERO PUSH2 0x395A JUMPI PUSH2 0x3959 PUSH2 0x529C JUMP JUMPDEST JUMPDEST SUB PUSH2 0x3EC6 JUMPI PUSH1 0x1 PUSH1 0x4 DUP2 GT ISZERO PUSH2 0x3973 JUMPI PUSH2 0x3972 PUSH2 0x529C JUMP JUMPDEST JUMPDEST DUP4 PUSH1 0x6 ADD PUSH1 0x1 SWAP1 SLOAD SWAP1 PUSH2 0x100 EXP SWAP1 DIV PUSH1 0xFF AND PUSH1 0x4 DUP2 GT ISZERO PUSH2 0x3997 JUMPI PUSH2 0x3996 PUSH2 0x529C JUMP JUMPDEST JUMPDEST SUB PUSH2 0x3B1D JUMPI PUSH1 0x0 DUP4 PUSH1 0x7 ADD DUP1 SLOAD PUSH2 0x39AD SWAP1 PUSH2 0x57F0 JUMP JUMPDEST DUP1 PUSH1 0x1F ADD PUSH1 0x20 DUP1 SWAP2 DIV MUL PUSH1 0x20 ADD PUSH1 0x40 MLOAD SWAP1 DUP2 ADD PUSH1 0x40 MSTORE DUP1 SWAP3 SWAP2 SWAP1 DUP2 DUP2 MSTORE PUSH1 0x20 ADD DUP3 DUP1 SLOAD PUSH2 0x39D9 SWAP1 PUSH2 0x57F0 JUMP JUMPDEST DUP1 ISZERO PUSH2 0x3A26 JUMPI DUP1 PUSH1 0x1F LT PUSH2 0x39FB JUMPI PUSH2 0x100 DUP1 DUP4 SLOAD DIV MUL DUP4 MSTORE SWAP2 PUSH1 0x20 ADD SWAP2 PUSH2 0x3A26 JUMP JUMPDEST DUP3 ADD SWAP2 SWAP1 PUSH1 0x0 MSTORE PUSH1 0x20 PUSH1 0x0 KECCAK256 SWAP1 JUMPDEST DUP2 SLOAD DUP2 MSTORE SWAP1 PUSH1 0x1 ADD SWAP1 PUSH1 0x20 ADD DUP1 DUP4 GT PUSH2 0x3A09 JUMPI DUP3 SWAP1 SUB PUSH1 0x1F AND DUP3 ADD SWAP2 JUMPDEST POP POP POP POP POP DUP1 PUSH1 0x20 ADD SWAP1 MLOAD DUP2 ADD SWAP1 PUSH2 0x3A3E SWAP2 SWAP1 PUSH2 0x693D JUMP JUMPDEST SWAP1 POP DUP2 DUP1 ISZERO PUSH2 0x3A5B JUMPI POP PUSH2 0x3A5A DUP2 PUSH1 0x40 ADD MLOAD DUP3 PUSH1 0x20 ADD MLOAD PUSH2 0x4171 JUMP JUMPDEST JUMPDEST SWAP2 POP DUP2 DUP1 ISZERO PUSH2 0x3AAF JUMPI POP PUSH2 0x3AAE PUSH2 0x132 PUSH1 0x0 SWAP1 SLOAD SWAP1 PUSH2 0x100 EXP SWAP1 DIV PUSH20 0xFFFFFFFFFFFFFFFFFFFFFFFFFFFFFFFFFFFFFFFF AND PUSH1 0x64 DUP4 PUSH1 0x20 ADD MLOAD PUSH1 0x5 PUSH2 0x3A9F SWAP2 SWAP1 PUSH2 0x7077 JUMP JUMPDEST PUSH2 0x3AA9 SWAP2 SWAP1 PUSH2 0x70D1 JUMP JUMPDEST PUSH2 0x4171 JUMP JUMPDEST JUMPDEST SWAP2 POP DUP2 DUP1 ISZERO PUSH2 0x3AF8 JUMPI POP PUSH2 0x3AF7 DUP5 PUSH1 0x3 ADD PUSH1 0x0 SWAP1 SLOAD SWAP1 PUSH2 0x100 EXP SWAP1 DIV PUSH20 0xFFFFFFFFFFFFFFFFFFFFFFFFFFFFFFFFFFFFFFFF AND PUSH1 0x64 DUP4 PUSH1 0x20 ADD MLOAD PUSH2 0x3AF2 SWAP2 SWAP1 PUSH2 0x70D1 JUMP JUMPDEST PUSH2 0x4171 JUMP JUMPDEST JUMPDEST SWAP2 POP DUP2 DUP1 ISZERO PUSH2 0x3B15 JUMPI POP PUSH2 0x3B14 DUP5 PUSH1 0x0 ADD SLOAD DUP3 PUSH1 0x20 ADD MLOAD PUSH2 0x4307 JUMP JUMPDEST JUMPDEST SWAP2 POP POP PUSH2 0x3EC5 JUMP JUMPDEST PUSH1 0x2 PUSH1 0x4 DUP2 GT ISZERO PUSH2 0x3B31 JUMPI PUSH2 0x3B30 PUSH2 0x529C JUMP JUMPDEST JUMPDEST DUP4 PUSH1 0x6 ADD PUSH1 0x1 SWAP1 SLOAD SWAP1 PUSH2 0x100 EXP SWAP1 DIV PUSH1 0xFF AND PUSH1 0x4 DUP2 GT ISZERO PUSH2 0x3B55 JUMPI PUSH2 0x3B54 PUSH2 0x529C JUMP JUMPDEST JUMPDEST SUB PUSH2 0x3CDB JUMPI PUSH1 0x0 DUP4 PUSH1 0x7 ADD DUP1 SLOAD PUSH2 0x3B6B SWAP1 PUSH2 0x57F0 JUMP JUMPDEST DUP1 PUSH1 0x1F ADD PUSH1 0x20 DUP1 SWAP2 DIV MUL PUSH1 0x20 ADD PUSH1 0x40 MLOAD SWAP1 DUP2 ADD PUSH1 0x40 MSTORE DUP1 SWAP3 SWAP2 SWAP1 DUP2 DUP2 MSTORE PUSH1 0x20 ADD DUP3 DUP1 SLOAD PUSH2 0x3B97 SWAP1 PUSH2 0x57F0 JUMP JUMPDEST DUP1 ISZERO PUSH2 0x3BE4 JUMPI DUP1 PUSH1 0x1F LT PUSH2 0x3BB9 JUMPI PUSH2 0x100 DUP1 DUP4 SLOAD DIV MUL DUP4 MSTORE SWAP2 PUSH1 0x20 ADD SWAP2 PUSH2 0x3BE4 JUMP JUMPDEST DUP3 ADD SWAP2 SWAP1 PUSH1 0x0 MSTORE PUSH1 0x20 PUSH1 0x0 KECCAK256 SWAP1 JUMPDEST DUP2 SLOAD DUP2 MSTORE SWAP1 PUSH1 0x1 ADD SWAP1 PUSH1 0x20 ADD DUP1 DUP4 GT PUSH2 0x3BC7 JUMPI DUP3 SWAP1 SUB PUSH1 0x1F AND DUP3 ADD SWAP2 JUMPDEST POP POP POP POP POP DUP1 PUSH1 0x20 ADD SWAP1 MLOAD DUP2 ADD SWAP1 PUSH2 0x3BFC SWAP2 SWAP1 PUSH2 0x6C7F JUMP JUMPDEST SWAP1 POP DUP2 DUP1 ISZERO PUSH2 0x3C19 JUMPI POP PUSH2 0x3C18 DUP2 PUSH1 0x40 ADD MLOAD DUP3 PUSH1 0x20 ADD MLOAD PUSH2 0x4171 JUMP JUMPDEST JUMPDEST SWAP2 POP DUP2 DUP1 ISZERO PUSH2 0x3C6D JUMPI POP PUSH2 0x3C6C PUSH2 0x132 PUSH1 0x0 SWAP1 SLOAD SWAP1 PUSH2 0x100 EXP SWAP1 DIV PUSH20 0xFFFFFFFFFFFFFFFFFFFFFFFFFFFFFFFFFFFFFFFF AND PUSH1 0x64 DUP4 PUSH1 0x20 ADD MLOAD PUSH1 0x5 PUSH2 0x3C5D SWAP2 SWAP1 PUSH2 0x7077 JUMP JUMPDEST PUSH2 0x3C67 SWAP2 SWAP1 PUSH2 0x70D1 JUMP JUMPDEST PUSH2 0x4171 JUMP JUMPDEST JUMPDEST SWAP2 POP DUP2 DUP1 ISZERO PUSH2 0x3CB6 JUMPI POP PUSH2 0x3CB5 DUP5 PUSH1 0x3 ADD PUSH1 0x0 SWAP1 SLOAD SWAP1 PUSH2 0x100 EXP SWAP1 DIV PUSH20 0xFFFFFFFFFFFFFFFFFFFFFFFFFFFFFFFFFFFFFFFF AND PUSH1 0x64 DUP4 PUSH1 0x20 ADD MLOAD PUSH2 0x3CB0 SWAP2 SWAP1 PUSH2 0x70D1 JUMP JUMPDEST PUSH2 0x4171 JUMP JUMPDEST JUMPDEST SWAP2 POP DUP2 DUP1 ISZERO PUSH2 0x3CD3 JUMPI POP PUSH2 0x3CD2 DUP5 PUSH1 0x0 ADD SLOAD DUP3 PUSH1 0x20 ADD MLOAD PUSH2 0x4307 JUMP JUMPDEST JUMPDEST SWAP2 POP POP PUSH2 0x3EC4 JUMP JUMPDEST PUSH1 0x3 PUSH1 0x4 DUP2 GT ISZERO PUSH2 0x3CEF JUMPI PUSH2 0x3CEE PUSH2 0x529C JUMP JUMPDEST JUMPDEST DUP4 PUSH1 0x6 ADD PUSH1 0x1 SWAP1 SLOAD SWAP1 PUSH2 0x100 EXP SWAP1 DIV PUSH1 0xFF AND PUSH1 0x4 DUP2 GT ISZERO PUSH2 0x3D13 JUMPI PUSH2 0x3D12 PUSH2 0x529C JUMP JUMPDEST JUMPDEST SUB PUSH2 0x3DD1 JUMPI PUSH1 0x0 DUP4 PUSH1 0x7 ADD DUP1 SLOAD PUSH2 0x3D29 SWAP1 PUSH2 0x57F0 JUMP JUMPDEST DUP1 PUSH1 0x1F ADD PUSH1 0x20 DUP1 SWAP2 DIV MUL PUSH1 0x20 ADD PUSH1 0x40 MLOAD SWAP1 DUP2 ADD PUSH1 0x40 MSTORE DUP1 SWAP3 SWAP2 SWAP1 DUP2 DUP2 MSTORE PUSH1 0x20 ADD DUP3 DUP1 SLOAD PUSH2 0x3D55 SWAP1 PUSH2 0x57F0 JUMP JUMPDEST DUP1 ISZERO PUSH2 0x3DA2 JUMPI DUP1 PUSH1 0x1F LT PUSH2 0x3D77 JUMPI PUSH2 0x100 DUP1 DUP4 SLOAD DIV MUL DUP4 MSTORE SWAP2 PUSH1 0x20 ADD SWAP2 PUSH2 0x3DA2 JUMP JUMPDEST DUP3 ADD SWAP2 SWAP1 PUSH1 0x0 MSTORE PUSH1 0x20 PUSH1 0x0 KECCAK256 SWAP1 JUMPDEST DUP2 SLOAD DUP2 MSTORE SWAP1 PUSH1 0x1 ADD SWAP1 PUSH1 0x20 ADD DUP1 DUP4 GT PUSH2 0x3D85 JUMPI DUP3 SWAP1 SUB PUSH1 0x1F AND DUP3 ADD SWAP2 JUMPDEST POP POP POP POP POP DUP1 PUSH1 0x20 ADD SWAP1 MLOAD DUP2 ADD SWAP1 PUSH2 0x3DBA SWAP2 SWAP1 PUSH2 0x6D70 JUMP JUMPDEST SWAP1 POP PUSH2 0x3DC9 DUP2 PUSH1 0x0 ADD MLOAD PUSH2 0x43B3 JUMP JUMPDEST SWAP2 POP POP PUSH2 0x3EC3 JUMP JUMPDEST PUSH1 0x4 DUP1 DUP2 GT ISZERO PUSH2 0x3DE4 JUMPI PUSH2 0x3DE3 PUSH2 0x529C JUMP JUMPDEST JUMPDEST DUP4 PUSH1 0x6 ADD PUSH1 0x1 SWAP1 SLOAD SWAP1 PUSH2 0x100 EXP SWAP1 DIV PUSH1 0xFF AND PUSH1 0x4 DUP2 GT ISZERO PUSH2 0x3E08 JUMPI PUSH2 0x3E07 PUSH2 0x529C JUMP JUMPDEST JUMPDEST SUB PUSH2 0x3EC2 JUMPI PUSH1 0x0 DUP4 PUSH1 0x7 ADD DUP1 SLOAD PUSH2 0x3E1E SWAP1 PUSH2 0x57F0 JUMP JUMPDEST DUP1 PUSH1 0x1F ADD PUSH1 0x20 DUP1 SWAP2 DIV MUL PUSH1 0x20 ADD PUSH1 0x40 MLOAD SWAP1 DUP2 ADD PUSH1 0x40 MSTORE DUP1 SWAP3 SWAP2 SWAP1 DUP2 DUP2 MSTORE PUSH1 0x20 ADD DUP3 DUP1 SLOAD PUSH2 0x3E4A SWAP1 PUSH2 0x57F0 JUMP JUMPDEST DUP1 ISZERO PUSH2 0x3E97 JUMPI DUP1 PUSH1 0x1F LT PUSH2 0x3E6C JUMPI PUSH2 0x100 DUP1 DUP4 SLOAD DIV MUL DUP4 MSTORE SWAP2 PUSH1 0x20 ADD SWAP2 PUSH2 0x3E97 JUMP JUMPDEST DUP3 ADD SWAP2 SWAP1 PUSH1 0x0 MSTORE PUSH1 0x20 PUSH1 0x0 KECCAK256 SWAP1 JUMPDEST DUP2 SLOAD DUP2 MSTORE SWAP1 PUSH1 0x1 ADD SWAP1 PUSH1 0x20 ADD DUP1 DUP4 GT PUSH2 0x3E7A JUMPI DUP3 SWAP1 SUB PUSH1 0x1F AND DUP3 ADD SWAP2 JUMPDEST POP POP POP POP POP DUP1 PUSH1 0x20 ADD SWAP1 MLOAD DUP2 ADD SWAP1 PUSH2 0x3EAF SWAP2 SWAP1 PUSH2 0x6E94 JUMP JUMPDEST SWAP1 POP PUSH2 0x3EBE DUP2 PUSH1 0x0 ADD MLOAD PUSH2 0x4521 JUMP JUMPDEST SWAP2 POP POP JUMPDEST JUMPDEST JUMPDEST JUMPDEST JUMPDEST JUMPDEST DUP1 SWAP2 POP POP SWAP2 SWAP1 POP JUMP JUMPDEST PUSH2 0x3EDA DUP3 DUP3 PUSH2 0x18C6 JUMP JUMPDEST PUSH2 0x3F69 JUMPI PUSH2 0x3EFF DUP2 PUSH20 0xFFFFFFFFFFFFFFFFFFFFFFFFFFFFFFFFFFFFFFFF AND PUSH1 0x14 PUSH2 0x468F JUMP JUMPDEST PUSH2 0x3F0D DUP4 PUSH1 0x0 SHR PUSH1 0x20 PUSH2 0x468F JUMP JUMPDEST PUSH1 0x40 MLOAD PUSH1 0x20 ADD PUSH2 0x3F1E SWAP3 SWAP2 SWAP1 PUSH2 0x71D6 JUMP JUMPDEST PUSH1 0x40 MLOAD PUSH1 0x20 DUP2 DUP4 SUB SUB DUP2 MSTORE SWAP1 PUSH1 0x40 MSTORE PUSH1 0x40 MLOAD PUSH32 0x8C379A000000000000000000000000000000000000000000000000000000000 DUP2 MSTORE PUSH1 0x4 ADD PUSH2 0x3F60 SWAP2 SWAP1 PUSH2 0x4E05 JUMP JUMPDEST PUSH1 0x40 MLOAD DUP1 SWAP2 SUB SWAP1 REVERT JUMPDEST POP POP JUMP JUMPDEST PUSH1 0x0 PUSH2 0x3F95 DUP4 PUSH1 0x0 ADD DUP4 PUSH20 0xFFFFFFFFFFFFFFFFFFFFFFFFFFFFFFFFFFFFFFFF AND PUSH1 0x0 SHL PUSH2 0x48CB JUMP JUMPDEST SWAP1 POP SWAP3 SWAP2 POP POP JUMP JUMPDEST PUSH1 0x0 DUP2 SWAP1 POP SWAP2 SWAP1 POP JUMP JUMPDEST PUSH1 0x0 DUP2 SWAP1 POP SWAP2 SWAP1 POP JUMP JUMPDEST PUSH2 0x3FBA DUP2 PUSH2 0x40D3 JUMP JUMPDEST PUSH2 0x3FF9 JUMPI PUSH1 0x40 MLOAD PUSH32 0x8C379A000000000000000000000000000000000000000000000000000000000 DUP2 MSTORE PUSH1 0x4 ADD PUSH2 0x3FF0 SWAP1 PUSH2 0x7282 JUMP JUMPDEST PUSH1 0x40 MLOAD DUP1 SWAP2 SUB SWAP1 REVERT JUMPDEST DUP1 PUSH2 0x4026 PUSH32 0x360894A13BA1A3210667C828492DB98DCA3E2076CC3735A920A3CA505D382BBC PUSH1 0x0 SHL PUSH2 0x3F9D JUMP JUMPDEST PUSH1 0x0 ADD PUSH1 0x0 PUSH2 0x100 EXP DUP2 SLOAD DUP2 PUSH20 0xFFFFFFFFFFFFFFFFFFFFFFFFFFFFFFFFFFFFFFFF MUL NOT AND SWAP1 DUP4 PUSH20 0xFFFFFFFFFFFFFFFFFFFFFFFFFFFFFFFFFFFFFFFF AND MUL OR SWAP1 SSTORE POP POP JUMP JUMPDEST PUSH2 0x4073 DUP4 PUSH2 0x493B JUMP JUMPDEST PUSH1 0x0 DUP3 MLOAD GT DUP1 PUSH2 0x4080 JUMPI POP DUP1 JUMPDEST ISZERO PUSH2 0x4091 JUMPI PUSH2 0x408F DUP4 DUP4 PUSH2 0x498A JUMP JUMPDEST POP JUMPDEST POP POP POP JUMP JUMPDEST PUSH1 0x0 DUP1 DUP3 PUSH1 0x0 ADD MLOAD PUSH8 0xFFFFFFFFFFFFFFFF AND GT SWAP1 POP SWAP2 SWAP1 POP JUMP JUMPDEST PUSH1 0x0 DUP1 DUP4 PUSH1 0x1 ADD PUSH1 0x0 DUP5 DUP2 MSTORE PUSH1 0x20 ADD SWAP1 DUP2 MSTORE PUSH1 0x20 ADD PUSH1 0x0 KECCAK256 SLOAD EQ ISZERO SWAP1 POP SWAP3 SWAP2 POP POP JUMP JUMPDEST PUSH1 0x0 DUP1 DUP3 PUSH20 0xFFFFFFFFFFFFFFFFFFFFFFFFFFFFFFFFFFFFFFFF AND EXTCODESIZE GT SWAP1 POP SWAP2 SWAP1 POP JUMP JUMPDEST PUSH1 0x0 PUSH1 0x1 SWAP1 SLOAD SWAP1 PUSH2 0x100 EXP SWAP1 DIV PUSH1 0xFF AND PUSH2 0x4145 JUMPI PUSH1 0x40 MLOAD PUSH32 0x8C379A000000000000000000000000000000000000000000000000000000000 DUP2 MSTORE PUSH1 0x4 ADD PUSH2 0x413C SWAP1 PUSH2 0x7057 JUMP JUMPDEST PUSH1 0x40 MLOAD DUP1 SWAP2 SUB SWAP1 REVERT JUMPDEST PUSH1 0x0 DUP3 DUP1 MLOAD SWAP1 PUSH1 0x20 ADD KECCAK256 SWAP1 POP PUSH1 0x0 DUP3 DUP1 MLOAD SWAP1 PUSH1 0x20 ADD KECCAK256 SWAP1 POP DUP2 PUSH1 0x65 DUP2 SWAP1 SSTORE POP DUP1 PUSH1 0x66 DUP2 SWAP1 SSTORE POP POP POP POP POP JUMP JUMPDEST PUSH1 0x0 DUP1 PUSH32 0x23B872DD7302113369CDA2901243429419BEC145408FA8B352B3DD92B66C680B PUSH2 0x131 PUSH1 0x0 SWAP1 SLOAD SWAP1 PUSH2 0x100 EXP SWAP1 DIV PUSH20 0xFFFFFFFFFFFFFFFFFFFFFFFFFFFFFFFFFFFFFFFF AND DUP6 DUP6 PUSH1 0x40 MLOAD PUSH1 0x24 ADD PUSH2 0x41CD SWAP4 SWAP3 SWAP2 SWAP1 PUSH2 0x72A2 JUMP JUMPDEST PUSH1 0x40 MLOAD PUSH1 0x20 DUP2 DUP4 SUB SUB DUP2 MSTORE SWAP1 PUSH1 0x40 MSTORE SWAP1 PUSH28 0xFFFFFFFFFFFFFFFFFFFFFFFFFFFFFFFFFFFFFFFFFFFFFFFFFFFFFFFF NOT AND PUSH1 0x20 DUP3 ADD DUP1 MLOAD PUSH28 0xFFFFFFFFFFFFFFFFFFFFFFFFFFFFFFFFFFFFFFFFFFFFFFFFFFFFFFFF DUP4 DUP2 DUP4 AND OR DUP4 MSTORE POP POP POP POP SWAP1 POP PUSH1 0x0 PUSH2 0x133 PUSH1 0x0 SWAP1 SLOAD SWAP1 PUSH2 0x100 EXP SWAP1 DIV PUSH20 0xFFFFFFFFFFFFFFFFFFFFFFFFFFFFFFFFFFFFFFFF AND PUSH20 0xFFFFFFFFFFFFFFFFFFFFFFFFFFFFFFFFFFFFFFFF AND DUP3 PUSH1 0x40 MLOAD PUSH2 0x4276 SWAP2 SWAP1 PUSH2 0x7315 JUMP JUMPDEST PUSH1 0x0 PUSH1 0x40 MLOAD DUP1 DUP4 SUB DUP2 PUSH1 0x0 DUP7 GAS CALL SWAP2 POP POP RETURNDATASIZE DUP1 PUSH1 0x0 DUP2 EQ PUSH2 0x42B3 JUMPI PUSH1 0x40 MLOAD SWAP2 POP PUSH1 0x1F NOT PUSH1 0x3F RETURNDATASIZE ADD AND DUP3 ADD PUSH1 0x40 MSTORE RETURNDATASIZE DUP3 MSTORE RETURNDATASIZE PUSH1 0x0 PUSH1 0x20 DUP5 ADD RETURNDATACOPY PUSH2 0x42B8 JUMP JUMPDEST PUSH1 0x60 SWAP2 POP JUMPDEST POP POP SWAP1 POP DUP1 PUSH2 0x42FC JUMPI PUSH1 0x40 MLOAD PUSH32 0x8C379A000000000000000000000000000000000000000000000000000000000 DUP2 MSTORE PUSH1 0x4 ADD PUSH2 0x42F3 SWAP1 PUSH2 0x7378 JUMP JUMPDEST PUSH1 0x40 MLOAD DUP1 SWAP2 SUB SWAP1 REVERT JUMPDEST DUP1 SWAP3 POP POP POP SWAP3 SWAP2 POP POP JUMP JUMPDEST PUSH1 0x0 DUP1 PUSH2 0x135 PUSH1 0x0 DUP6 DUP2 MSTORE PUSH1 0x20 ADD SWAP1 DUP2 MSTORE PUSH1 0x20 ADD PUSH1 0x0 KECCAK256 SWAP1 POP PUSH1 0x0 PUSH2 0x432E DUP3 PUSH1 0x1 ADD PUSH2 0x4A6E JUMP JUMPDEST SWAP1 POP PUSH1 0x0 DUP2 PUSH1 0x64 DUP7 PUSH1 0x2 PUSH2 0x4342 SWAP2 SWAP1 PUSH2 0x7077 JUMP JUMPDEST PUSH2 0x434C SWAP2 SWAP1 PUSH2 0x70D1 JUMP JUMPDEST PUSH2 0x4356 SWAP2 SWAP1 PUSH2 0x70D1 JUMP JUMPDEST SWAP1 POP PUSH1 0x0 DUP1 PUSH1 0x0 SWAP1 POP JUMPDEST DUP4 DUP2 LT ISZERO PUSH2 0x43A5 JUMPI DUP2 DUP1 ISZERO PUSH2 0x4390 JUMPI POP PUSH2 0x438F PUSH2 0x4389 DUP3 DUP8 PUSH1 0x1 ADD PUSH2 0x4A83 SWAP1 SWAP2 SWAP1 PUSH4 0xFFFFFFFF AND JUMP JUMPDEST DUP5 PUSH2 0x4171 JUMP JUMPDEST JUMPDEST SWAP2 POP DUP1 DUP1 PUSH2 0x439D SWAP1 PUSH2 0x7398 JUMP JUMPDEST SWAP2 POP POP PUSH2 0x4360 JUMP JUMPDEST POP DUP1 SWAP5 POP POP POP POP POP SWAP3 SWAP2 POP POP JUMP JUMPDEST PUSH1 0x0 DUP1 PUSH32 0xF26C159FD7D78F3848964C3ADF4AEA78577348FCB297DB019BF8F5EFBED02195 DUP4 PUSH1 0x40 MLOAD PUSH1 0x24 ADD PUSH2 0x43E8 SWAP2 SWAP1 PUSH2 0x56BE JUMP JUMPDEST PUSH1 0x40 MLOAD PUSH1 0x20 DUP2 DUP4 SUB SUB DUP2 MSTORE SWAP1 PUSH1 0x40 MSTORE SWAP1 PUSH28 0xFFFFFFFFFFFFFFFFFFFFFFFFFFFFFFFFFFFFFFFFFFFFFFFFFFFFFFFF NOT AND PUSH1 0x20 DUP3 ADD DUP1 MLOAD PUSH28 0xFFFFFFFFFFFFFFFFFFFFFFFFFFFFFFFFFFFFFFFFFFFFFFFFFFFFFFFF DUP4 DUP2 DUP4 AND OR DUP4 MSTORE POP POP POP POP SWAP1 POP PUSH1 0x0 PUSH2 0x133 PUSH1 0x0 SWAP1 SLOAD SWAP1 PUSH2 0x100 EXP SWAP1 DIV PUSH20 0xFFFFFFFFFFFFFFFFFFFFFFFFFFFFFFFFFFFFFFFF AND PUSH20 0xFFFFFFFFFFFFFFFFFFFFFFFFFFFFFFFFFFFFFFFF AND DUP3 PUSH1 0x40 MLOAD PUSH2 0x4491 SWAP2 SWAP1 PUSH2 0x7315 JUMP JUMPDEST PUSH1 0x0 PUSH1 0x40 MLOAD DUP1 DUP4 SUB DUP2 PUSH1 0x0 DUP7 GAS CALL SWAP2 POP POP RETURNDATASIZE DUP1 PUSH1 0x0 DUP2 EQ PUSH2 0x44CE JUMPI PUSH1 0x40 MLOAD SWAP2 POP PUSH1 0x1F NOT PUSH1 0x3F RETURNDATASIZE ADD AND DUP3 ADD PUSH1 0x40 MSTORE RETURNDATASIZE DUP3 MSTORE RETURNDATASIZE PUSH1 0x0 PUSH1 0x20 DUP5 ADD RETURNDATACOPY PUSH2 0x44D3 JUMP JUMPDEST PUSH1 0x60 SWAP2 POP JUMPDEST POP POP SWAP1 POP DUP1 PUSH2 0x4517 JUMPI PUSH1 0x40 MLOAD PUSH32 0x8C379A000000000000000000000000000000000000000000000000000000000 DUP2 MSTORE PUSH1 0x4 ADD PUSH2 0x450E SWAP1 PUSH2 0x742C JUMP JUMPDEST PUSH1 0x40 MLOAD DUP1 SWAP2 SUB SWAP1 REVERT JUMPDEST DUP1 SWAP3 POP POP POP SWAP2 SWAP1 POP JUMP JUMPDEST PUSH1 0x0 DUP1 PUSH32 0x53CC2FAE7ECEF069DA76AE9063C3ECFA7F417173BC5191FE1BB037165D76473F DUP4 PUSH1 0x40 MLOAD PUSH1 0x24 ADD PUSH2 0x4556 SWAP2 SWAP1 PUSH2 0x56BE JUMP JUMPDEST PUSH1 0x40 MLOAD PUSH1 0x20 DUP2 DUP4 SUB SUB DUP2 MSTORE SWAP1 PUSH1 0x40 MSTORE SWAP1 PUSH28 0xFFFFFFFFFFFFFFFFFFFFFFFFFFFFFFFFFFFFFFFFFFFFFFFFFFFFFFFF NOT AND PUSH1 0x20 DUP3 ADD DUP1 MLOAD PUSH28 0xFFFFFFFFFFFFFFFFFFFFFFFFFFFFFFFFFFFFFFFFFFFFFFFFFFFFFFFF DUP4 DUP2 DUP4 AND OR DUP4 MSTORE POP POP POP POP SWAP1 POP PUSH1 0x0 PUSH2 0x133 PUSH1 0x0 SWAP1 SLOAD SWAP1 PUSH2 0x100 EXP SWAP1 DIV PUSH20 0xFFFFFFFFFFFFFFFFFFFFFFFFFFFFFFFFFFFFFFFF AND PUSH20 0xFFFFFFFFFFFFFFFFFFFFFFFFFFFFFFFFFFFFFFFF AND DUP3 PUSH1 0x40 MLOAD PUSH2 0x45FF SWAP2 SWAP1 PUSH2 0x7315 JUMP JUMPDEST PUSH1 0x0 PUSH1 0x40 MLOAD DUP1 DUP4 SUB DUP2 PUSH1 0x0 DUP7 GAS CALL SWAP2 POP POP RETURNDATASIZE DUP1 PUSH1 0x0 DUP2 EQ PUSH2 0x463C JUMPI PUSH1 0x40 MLOAD SWAP2 POP PUSH1 0x1F NOT PUSH1 0x3F RETURNDATASIZE ADD AND DUP3 ADD PUSH1 0x40 MSTORE RETURNDATASIZE DUP3 MSTORE RETURNDATASIZE PUSH1 0x0 PUSH1 0x20 DUP5 ADD RETURNDATACOPY PUSH2 0x4641 JUMP JUMPDEST PUSH1 0x60 SWAP2 POP JUMPDEST POP POP SWAP1 POP DUP1 PUSH2 0x4685 JUMPI PUSH1 0x40 MLOAD PUSH32 0x8C379A000000000000000000000000000000000000000000000000000000000 DUP2 MSTORE PUSH1 0x4 ADD PUSH2 0x467C SWAP1 PUSH2 0x7498 JUMP JUMPDEST PUSH1 0x40 MLOAD DUP1 SWAP2 SUB SWAP1 REVERT JUMPDEST DUP1 SWAP3 POP POP POP SWAP2 SWAP1 POP JUMP JUMPDEST PUSH1 0x60 PUSH1 0x0 PUSH1 0x2 DUP4 PUSH1 0x2 PUSH2 0x46A2 SWAP2 SWAP1 PUSH2 0x7077 JUMP JUMPDEST PUSH2 0x46AC SWAP2 SWAP1 PUSH2 0x74B8 JUMP JUMPDEST PUSH8 0xFFFFFFFFFFFFFFFF DUP2 GT ISZERO PUSH2 0x46C5 JUMPI PUSH2 0x46C4 PUSH2 0x4E97 JUMP JUMPDEST JUMPDEST PUSH1 0x40 MLOAD SWAP1 DUP1 DUP3 MSTORE DUP1 PUSH1 0x1F ADD PUSH1 0x1F NOT AND PUSH1 0x20 ADD DUP3 ADD PUSH1 0x40 MSTORE DUP1 ISZERO PUSH2 0x46F7 JUMPI DUP2 PUSH1 0x20 ADD PUSH1 0x1 DUP3 MUL DUP1 CALLDATASIZE DUP4 CALLDATACOPY DUP1 DUP3 ADD SWAP2 POP POP SWAP1 POP JUMPDEST POP SWAP1 POP PUSH32 0x3000000000000000000000000000000000000000000000000000000000000000 DUP2 PUSH1 0x0 DUP2 MLOAD DUP2 LT PUSH2 0x472F JUMPI PUSH2 0x472E PUSH2 0x750E JUMP JUMPDEST JUMPDEST PUSH1 0x20 ADD ADD SWAP1 PUSH31 0xFFFFFFFFFFFFFFFFFFFFFFFFFFFFFFFFFFFFFFFFFFFFFFFFFFFFFFFFFFFFFF NOT AND SWAP1 DUP2 PUSH1 0x0 BYTE SWAP1 MSTORE8 POP PUSH32 0x7800000000000000000000000000000000000000000000000000000000000000 DUP2 PUSH1 0x1 DUP2 MLOAD DUP2 LT PUSH2 0x4793 JUMPI PUSH2 0x4792 PUSH2 0x750E JUMP JUMPDEST JUMPDEST PUSH1 0x20 ADD ADD SWAP1 PUSH31 0xFFFFFFFFFFFFFFFFFFFFFFFFFFFFFFFFFFFFFFFFFFFFFFFFFFFFFFFFFFFFFF NOT AND SWAP1 DUP2 PUSH1 0x0 BYTE SWAP1 MSTORE8 POP PUSH1 0x0 PUSH1 0x1 DUP5 PUSH1 0x2 PUSH2 0x47D3 SWAP2 SWAP1 PUSH2 0x7077 JUMP JUMPDEST PUSH2 0x47DD SWAP2 SWAP1 PUSH2 0x74B8 JUMP JUMPDEST SWAP1 POP JUMPDEST PUSH1 0x1 DUP2 GT ISZERO PUSH2 0x487D JUMPI PUSH32 0x3031323334353637383961626364656600000000000000000000000000000000 PUSH1 0xF DUP7 AND PUSH1 0x10 DUP2 LT PUSH2 0x481F JUMPI PUSH2 0x481E PUSH2 0x750E JUMP JUMPDEST JUMPDEST BYTE PUSH1 0xF8 SHL DUP3 DUP3 DUP2 MLOAD DUP2 LT PUSH2 0x4836 JUMPI PUSH2 0x4835 PUSH2 0x750E JUMP JUMPDEST JUMPDEST PUSH1 0x20 ADD ADD SWAP1 PUSH31 0xFFFFFFFFFFFFFFFFFFFFFFFFFFFFFFFFFFFFFFFFFFFFFFFFFFFFFFFFFFFFFF NOT AND SWAP1 DUP2 PUSH1 0x0 BYTE SWAP1 MSTORE8 POP PUSH1 0x4 DUP6 SWAP1 SHR SWAP5 POP DUP1 PUSH2 0x4876 SWAP1 PUSH2 0x753D JUMP JUMPDEST SWAP1 POP PUSH2 0x47E0 JUMP JUMPDEST POP PUSH1 0x0 DUP5 EQ PUSH2 0x48C1 JUMPI PUSH1 0x40 MLOAD PUSH32 0x8C379A000000000000000000000000000000000000000000000000000000000 DUP2 MSTORE PUSH1 0x4 ADD PUSH2 0x48B8 SWAP1 PUSH2 0x75B2 JUMP JUMPDEST PUSH1 0x40 MLOAD DUP1 SWAP2 SUB SWAP1 REVERT JUMPDEST DUP1 SWAP2 POP POP SWAP3 SWAP2 POP POP JUMP JUMPDEST PUSH1 0x0 PUSH2 0x48D7 DUP4 DUP4 PUSH2 0x40B0 JUMP JUMPDEST PUSH2 0x4930 JUMPI DUP3 PUSH1 0x0 ADD DUP3 SWAP1 DUP1 PUSH1 0x1 DUP2 SLOAD ADD DUP1 DUP3 SSTORE DUP1 SWAP2 POP POP PUSH1 0x1 SWAP1 SUB SWAP1 PUSH1 0x0 MSTORE PUSH1 0x20 PUSH1 0x0 KECCAK256 ADD PUSH1 0x0 SWAP1 SWAP2 SWAP1 SWAP2 SWAP1 SWAP2 POP SSTORE DUP3 PUSH1 0x0 ADD DUP1 SLOAD SWAP1 POP DUP4 PUSH1 0x1 ADD PUSH1 0x0 DUP5 DUP2 MSTORE PUSH1 0x20 ADD SWAP1 DUP2 MSTORE PUSH1 0x20 ADD PUSH1 0x0 KECCAK256 DUP2 SWAP1 SSTORE POP PUSH1 0x1 SWAP1 POP PUSH2 0x4935 JUMP JUMPDEST PUSH1 0x0 SWAP1 POP JUMPDEST SWAP3 SWAP2 POP POP JUMP JUMPDEST PUSH2 0x4944 DUP2 PUSH2 0x3FB1 JUMP JUMPDEST DUP1 PUSH20 0xFFFFFFFFFFFFFFFFFFFFFFFFFFFFFFFFFFFFFFFF AND PUSH32 0xBC7CD75A20EE27FD9ADEBAB32041F755214DBC6BFFA90CC0225B39DA2E5C2D3B PUSH1 0x40 MLOAD PUSH1 0x40 MLOAD DUP1 SWAP2 SUB SWAP1 LOG2 POP JUMP JUMPDEST PUSH1 0x60 PUSH2 0x4995 DUP4 PUSH2 0x40D3 JUMP JUMPDEST PUSH2 0x49D4 JUMPI PUSH1 0x40 MLOAD PUSH32 0x8C379A000000000000000000000000000000000000000000000000000000000 DUP2 MSTORE PUSH1 0x4 ADD PUSH2 0x49CB SWAP1 PUSH2 0x7644 JUMP JUMPDEST PUSH1 0x40 MLOAD DUP1 SWAP2 SUB SWAP1 REVERT JUMPDEST PUSH1 0x0 DUP1 DUP5 PUSH20 0xFFFFFFFFFFFFFFFFFFFFFFFFFFFFFFFFFFFFFFFF AND DUP5 PUSH1 0x40 MLOAD PUSH2 0x49FC SWAP2 SWAP1 PUSH2 0x7315 JUMP JUMPDEST PUSH1 0x0 PUSH1 0x40 MLOAD DUP1 DUP4 SUB DUP2 DUP6 GAS DELEGATECALL SWAP2 POP POP RETURNDATASIZE DUP1 PUSH1 0x0 DUP2 EQ PUSH2 0x4A37 JUMPI PUSH1 0x40 MLOAD SWAP2 POP PUSH1 0x1F NOT PUSH1 0x3F RETURNDATASIZE ADD AND DUP3 ADD PUSH1 0x40 MSTORE RETURNDATASIZE DUP3 MSTORE RETURNDATASIZE PUSH1 0x0 PUSH1 0x20 DUP5 ADD RETURNDATACOPY PUSH2 0x4A3C JUMP JUMPDEST PUSH1 0x60 SWAP2 POP JUMPDEST POP SWAP2 POP SWAP2 POP PUSH2 0x4A64 DUP3 DUP3 PUSH1 0x40 MLOAD DUP1 PUSH1 0x60 ADD PUSH1 0x40 MSTORE DUP1 PUSH1 0x27 DUP2 MSTORE PUSH1 0x20 ADD PUSH2 0x7665 PUSH1 0x27 SWAP2 CODECOPY PUSH2 0x4A9D JUMP JUMPDEST SWAP3 POP POP POP SWAP3 SWAP2 POP POP JUMP JUMPDEST PUSH1 0x0 PUSH2 0x4A7C DUP3 PUSH1 0x0 ADD PUSH2 0x4B04 JUMP JUMPDEST SWAP1 POP SWAP2 SWAP1 POP JUMP JUMPDEST PUSH1 0x0 PUSH2 0x4A92 DUP4 PUSH1 0x0 ADD DUP4 PUSH2 0x4B15 JUMP JUMPDEST PUSH1 0x0 SHR SWAP1 POP SWAP3 SWAP2 POP POP JUMP JUMPDEST PUSH1 0x60 DUP4 ISZERO PUSH2 0x4AAD JUMPI DUP3 SWAP1 POP PUSH2 0x4AFD JUMP JUMPDEST PUSH1 0x0 DUP4 MLOAD GT ISZERO PUSH2 0x4AC0 JUMPI DUP3 MLOAD DUP1 DUP5 PUSH1 0x20 ADD REVERT JUMPDEST DUP2 PUSH1 0x40 MLOAD PUSH32 0x8C379A000000000000000000000000000000000000000000000000000000000 DUP2 MSTORE PUSH1 0x4 ADD PUSH2 0x4AF4 SWAP2 SWAP1 PUSH2 0x4E05 JUMP JUMPDEST PUSH1 0x40 MLOAD DUP1 SWAP2 SUB SWAP1 REVERT JUMPDEST SWAP4 SWAP3 POP POP POP JUMP JUMPDEST PUSH1 0x0 DUP2 PUSH1 0x0 ADD DUP1 SLOAD SWAP1 POP SWAP1 POP SWAP2 SWAP1 POP JUMP JUMPDEST PUSH1 0x0 DUP3 PUSH1 0x0 ADD DUP3 DUP2 SLOAD DUP2 LT PUSH2 0x4B2D JUMPI PUSH2 0x4B2C PUSH2 0x750E JUMP JUMPDEST JUMPDEST SWAP1 PUSH1 0x0 MSTORE PUSH1 0x20 PUSH1 0x0 KECCAK256 ADD SLOAD SWAP1 POP SWAP3 SWAP2 POP POP JUMP JUMPDEST DUP3 DUP1 SLOAD PUSH2 0x4B4C SWAP1 PUSH2 0x57F0 JUMP JUMPDEST SWAP1 PUSH1 0x0 MSTORE PUSH1 0x20 PUSH1 0x0 KECCAK256 SWAP1 PUSH1 0x1F ADD PUSH1 0x20 SWAP1 DIV DUP2 ADD SWAP3 DUP3 PUSH2 0x4B6E JUMPI PUSH1 0x0 DUP6 SSTORE PUSH2 0x4BB5 JUMP JUMPDEST DUP3 PUSH1 0x1F LT PUSH2 0x4B87 JUMPI DUP1 MLOAD PUSH1 0xFF NOT AND DUP4 DUP1 ADD OR DUP6 SSTORE PUSH2 0x4BB5 JUMP JUMPDEST DUP3 DUP1 ADD PUSH1 0x1 ADD DUP6 SSTORE DUP3 ISZERO PUSH2 0x4BB5 JUMPI SWAP2 DUP3 ADD JUMPDEST DUP3 DUP2 GT ISZERO PUSH2 0x4BB4 JUMPI DUP3 MLOAD DUP3 SSTORE SWAP2 PUSH1 0x20 ADD SWAP2 SWAP1 PUSH1 0x1 ADD SWAP1 PUSH2 0x4B99 JUMP JUMPDEST JUMPDEST POP SWAP1 POP PUSH2 0x4BC2 SWAP2 SWAP1 PUSH2 0x4C4C JUMP JUMPDEST POP SWAP1 JUMP JUMPDEST DUP3 DUP1 SLOAD PUSH2 0x4BD2 SWAP1 PUSH2 0x57F0 JUMP JUMPDEST SWAP1 PUSH1 0x0 MSTORE PUSH1 0x20 PUSH1 0x0 KECCAK256 SWAP1 PUSH1 0x1F ADD PUSH1 0x20 SWAP1 DIV DUP2 ADD SWAP3 DUP3 PUSH2 0x4BF4 JUMPI PUSH1 0x0 DUP6 SSTORE PUSH2 0x4C3B JUMP JUMPDEST DUP3 PUSH1 0x1F LT PUSH2 0x4C0D JUMPI DUP1 CALLDATALOAD PUSH1 0xFF NOT AND DUP4 DUP1 ADD OR DUP6 SSTORE PUSH2 0x4C3B JUMP JUMPDEST DUP3 DUP1 ADD PUSH1 0x1 ADD DUP6 SSTORE DUP3 ISZERO PUSH2 0x4C3B JUMPI SWAP2 DUP3 ADD JUMPDEST DUP3 DUP2 GT ISZERO PUSH2 0x4C3A JUMPI DUP3 CALLDATALOAD DUP3 SSTORE SWAP2 PUSH1 0x20 ADD SWAP2 SWAP1 PUSH1 0x1 ADD SWAP1 PUSH2 0x4C1F JUMP JUMPDEST JUMPDEST POP SWAP1 POP PUSH2 0x4C48 SWAP2 SWAP1 PUSH2 0x4C4C JUMP JUMPDEST POP SWAP1 JUMP JUMPDEST JUMPDEST DUP1 DUP3 GT ISZERO PUSH2 0x4C65 JUMPI PUSH1 0x0 DUP2 PUSH1 0x0 SWAP1 SSTORE POP PUSH1 0x1 ADD PUSH2 0x4C4D JUMP JUMPDEST POP SWAP1 JUMP JUMPDEST PUSH1 0x0 PUSH1 0x40 MLOAD SWAP1 POP SWAP1 JUMP JUMPDEST PUSH1 0x0 DUP1 REVERT JUMPDEST PUSH1 0x0 DUP1 REVERT JUMPDEST PUSH1 0x0 PUSH32 0xFFFFFFFF00000000000000000000000000000000000000000000000000000000 DUP3 AND SWAP1 POP SWAP2 SWAP1 POP JUMP JUMPDEST PUSH2 0x4CB2 DUP2 PUSH2 0x4C7D JUMP JUMPDEST DUP2 EQ PUSH2 0x4CBD JUMPI PUSH1 0x0 DUP1 REVERT JUMPDEST POP JUMP JUMPDEST PUSH1 0x0 DUP2 CALLDATALOAD SWAP1 POP PUSH2 0x4CCF DUP2 PUSH2 0x4CA9 JUMP JUMPDEST SWAP3 SWAP2 POP POP JUMP JUMPDEST PUSH1 0x0 PUSH1 0x20 DUP3 DUP5 SUB SLT ISZERO PUSH2 0x4CEB JUMPI PUSH2 0x4CEA PUSH2 0x4C73 JUMP JUMPDEST JUMPDEST PUSH1 0x0 PUSH2 0x4CF9 DUP5 DUP3 DUP6 ADD PUSH2 0x4CC0 JUMP JUMPDEST SWAP2 POP POP SWAP3 SWAP2 POP POP JUMP JUMPDEST PUSH1 0x0 DUP2 ISZERO ISZERO SWAP1 POP SWAP2 SWAP1 POP JUMP JUMPDEST PUSH2 0x4D17 DUP2 PUSH2 0x4D02 JUMP JUMPDEST DUP3 MSTORE POP POP JUMP JUMPDEST PUSH1 0x0 PUSH1 0x20 DUP3 ADD SWAP1 POP PUSH2 0x4D32 PUSH1 0x0 DUP4 ADD DUP5 PUSH2 0x4D0E JUMP JUMPDEST SWAP3 SWAP2 POP POP JUMP JUMPDEST PUSH1 0x0 DUP2 SWAP1 POP SWAP2 SWAP1 POP JUMP JUMPDEST PUSH2 0x4D4B DUP2 PUSH2 0x4D38 JUMP JUMPDEST DUP3 MSTORE POP POP JUMP JUMPDEST PUSH1 0x0 PUSH1 0x20 DUP3 ADD SWAP1 POP PUSH2 0x4D66 PUSH1 0x0 DUP4 ADD DUP5 PUSH2 0x4D42 JUMP JUMPDEST SWAP3 SWAP2 POP POP JUMP JUMPDEST PUSH1 0x0 DUP2 MLOAD SWAP1 POP SWAP2 SWAP1 POP JUMP JUMPDEST PUSH1 0x0 DUP3 DUP3 MSTORE PUSH1 0x20 DUP3 ADD SWAP1 POP SWAP3 SWAP2 POP POP JUMP JUMPDEST PUSH1 0x0 JUMPDEST DUP4 DUP2 LT ISZERO PUSH2 0x4DA6 JUMPI DUP1 DUP3 ADD MLOAD DUP2 DUP5 ADD MSTORE PUSH1 0x20 DUP2 ADD SWAP1 POP PUSH2 0x4D8B JUMP JUMPDEST DUP4 DUP2 GT ISZERO PUSH2 0x4DB5 JUMPI PUSH1 0x0 DUP5 DUP5 ADD MSTORE JUMPDEST POP POP POP POP JUMP JUMPDEST PUSH1 0x0 PUSH1 0x1F NOT PUSH1 0x1F DUP4 ADD AND SWAP1 POP SWAP2 SWAP1 POP JUMP JUMPDEST PUSH1 0x0 PUSH2 0x4DD7 DUP3 PUSH2 0x4D6C JUMP JUMPDEST PUSH2 0x4DE1 DUP2 DUP6 PUSH2 0x4D77 JUMP JUMPDEST SWAP4 POP PUSH2 0x4DF1 DUP2 DUP6 PUSH1 0x20 DUP7 ADD PUSH2 0x4D88 JUMP JUMPDEST PUSH2 0x4DFA DUP2 PUSH2 0x4DBB JUMP JUMPDEST DUP5 ADD SWAP2 POP POP SWAP3 SWAP2 POP POP JUMP JUMPDEST PUSH1 0x0 PUSH1 0x20 DUP3 ADD SWAP1 POP DUP2 DUP2 SUB PUSH1 0x0 DUP4 ADD MSTORE PUSH2 0x4E1F DUP2 DUP5 PUSH2 0x4DCC JUMP JUMPDEST SWAP1 POP SWAP3 SWAP2 POP POP JUMP JUMPDEST PUSH1 0x0 PUSH4 0xFFFFFFFF DUP3 AND SWAP1 POP SWAP2 SWAP1 POP JUMP JUMPDEST PUSH2 0x4E40 DUP2 PUSH2 0x4E27 JUMP JUMPDEST DUP3 MSTORE POP POP JUMP JUMPDEST PUSH1 0x0 PUSH1 0x20 DUP3 ADD SWAP1 POP PUSH2 0x4E5B PUSH1 0x0 DUP4 ADD DUP5 PUSH2 0x4E37 JUMP JUMPDEST SWAP3 SWAP2 POP POP JUMP JUMPDEST PUSH2 0x4E6A DUP2 PUSH2 0x4D38 JUMP JUMPDEST DUP2 EQ PUSH2 0x4E75 JUMPI PUSH1 0x0 DUP1 REVERT JUMPDEST POP JUMP JUMPDEST PUSH1 0x0 DUP2 CALLDATALOAD SWAP1 POP PUSH2 0x4E87 DUP2 PUSH2 0x4E61 JUMP JUMPDEST SWAP3 SWAP2 POP POP JUMP JUMPDEST PUSH1 0x0 DUP1 REVERT JUMPDEST PUSH1 0x0 DUP1 REVERT JUMPDEST PUSH32 0x4E487B7100000000000000000000000000000000000000000000000000000000 PUSH1 0x0 MSTORE PUSH1 0x41 PUSH1 0x4 MSTORE PUSH1 0x24 PUSH1 0x0 REVERT JUMPDEST PUSH2 0x4ECF DUP3 PUSH2 0x4DBB JUMP JUMPDEST DUP2 ADD DUP2 DUP2 LT PUSH8 0xFFFFFFFFFFFFFFFF DUP3 GT OR ISZERO PUSH2 0x4EEE JUMPI PUSH2 0x4EED PUSH2 0x4E97 JUMP JUMPDEST JUMPDEST DUP1 PUSH1 0x40 MSTORE POP POP POP JUMP JUMPDEST PUSH1 0x0 PUSH2 0x4F01 PUSH2 0x4C69 JUMP JUMPDEST SWAP1 POP PUSH2 0x4F0D DUP3 DUP3 PUSH2 0x4EC6 JUMP JUMPDEST SWAP2 SWAP1 POP JUMP JUMPDEST PUSH1 0x0 PUSH8 0xFFFFFFFFFFFFFFFF DUP3 GT ISZERO PUSH2 0x4F2D JUMPI PUSH2 0x4F2C PUSH2 0x4E97 JUMP JUMPDEST JUMPDEST PUSH2 0x4F36 DUP3 PUSH2 0x4DBB JUMP JUMPDEST SWAP1 POP PUSH1 0x20 DUP2 ADD SWAP1 POP SWAP2 SWAP1 POP JUMP JUMPDEST DUP3 DUP2 DUP4 CALLDATACOPY PUSH1 0x0 DUP4 DUP4 ADD MSTORE POP POP POP JUMP JUMPDEST PUSH1 0x0 PUSH2 0x4F65 PUSH2 0x4F60 DUP5 PUSH2 0x4F12 JUMP JUMPDEST PUSH2 0x4EF7 JUMP JUMPDEST SWAP1 POP DUP3 DUP2 MSTORE PUSH1 0x20 DUP2 ADD DUP5 DUP5 DUP5 ADD GT ISZERO PUSH2 0x4F81 JUMPI PUSH2 0x4F80 PUSH2 0x4E92 JUMP JUMPDEST JUMPDEST PUSH2 0x4F8C DUP5 DUP3 DUP6 PUSH2 0x4F43 JUMP JUMPDEST POP SWAP4 SWAP3 POP POP POP JUMP JUMPDEST PUSH1 0x0 DUP3 PUSH1 0x1F DUP4 ADD SLT PUSH2 0x4FA9 JUMPI PUSH2 0x4FA8 PUSH2 0x4E8D JUMP JUMPDEST JUMPDEST DUP2 CALLDATALOAD PUSH2 0x4FB9 DUP5 DUP3 PUSH1 0x20 DUP7 ADD PUSH2 0x4F52 JUMP JUMPDEST SWAP2 POP POP SWAP3 SWAP2 POP POP JUMP JUMPDEST PUSH1 0x0 DUP1 PUSH1 0x40 DUP4 DUP6 SUB SLT ISZERO PUSH2 0x4FD9 JUMPI PUSH2 0x4FD8 PUSH2 0x4C73 JUMP JUMPDEST JUMPDEST PUSH1 0x0 PUSH2 0x4FE7 DUP6 DUP3 DUP7 ADD PUSH2 0x4E78 JUMP JUMPDEST SWAP3 POP POP PUSH1 0x20 DUP4 ADD CALLDATALOAD PUSH8 0xFFFFFFFFFFFFFFFF DUP2 GT ISZERO PUSH2 0x5008 JUMPI PUSH2 0x5007 PUSH2 0x4C78 JUMP JUMPDEST JUMPDEST PUSH2 0x5014 DUP6 DUP3 DUP7 ADD PUSH2 0x4F94 JUMP JUMPDEST SWAP2 POP POP SWAP3 POP SWAP3 SWAP1 POP JUMP JUMPDEST PUSH1 0x0 PUSH20 0xFFFFFFFFFFFFFFFFFFFFFFFFFFFFFFFFFFFFFFFF DUP3 AND SWAP1 POP SWAP2 SWAP1 POP JUMP JUMPDEST PUSH1 0x0 PUSH2 0x5049 DUP3 PUSH2 0x501E JUMP JUMPDEST SWAP1 POP SWAP2 SWAP1 POP JUMP JUMPDEST PUSH2 0x5059 DUP2 PUSH2 0x503E JUMP JUMPDEST DUP2 EQ PUSH2 0x5064 JUMPI PUSH1 0x0 DUP1 REVERT JUMPDEST POP JUMP JUMPDEST PUSH1 0x0 DUP2 CALLDATALOAD SWAP1 POP PUSH2 0x5076 DUP2 PUSH2 0x5050 JUMP JUMPDEST SWAP3 SWAP2 POP POP JUMP JUMPDEST PUSH1 0x0 PUSH1 0x20 DUP3 DUP5 SUB SLT ISZERO PUSH2 0x5092 JUMPI PUSH2 0x5091 PUSH2 0x4C73 JUMP JUMPDEST JUMPDEST PUSH1 0x0 PUSH2 0x50A0 DUP5 DUP3 DUP6 ADD PUSH2 0x5067 JUMP JUMPDEST SWAP2 POP POP SWAP3 SWAP2 POP POP JUMP JUMPDEST PUSH1 0x0 DUP2 SWAP1 POP SWAP2 SWAP1 POP JUMP JUMPDEST PUSH2 0x50BC DUP2 PUSH2 0x50A9 JUMP JUMPDEST DUP2 EQ PUSH2 0x50C7 JUMPI PUSH1 0x0 DUP1 REVERT JUMPDEST POP JUMP JUMPDEST PUSH1 0x0 DUP2 CALLDATALOAD SWAP1 POP PUSH2 0x50D9 DUP2 PUSH2 0x50B3 JUMP JUMPDEST SWAP3 SWAP2 POP POP JUMP JUMPDEST PUSH1 0x0 PUSH1 0x20 DUP3 DUP5 SUB SLT ISZERO PUSH2 0x50F5 JUMPI PUSH2 0x50F4 PUSH2 0x4C73 JUMP JUMPDEST JUMPDEST PUSH1 0x0 PUSH2 0x5103 DUP5 DUP3 DUP6 ADD PUSH2 0x50CA JUMP JUMPDEST SWAP2 POP POP SWAP3 SWAP2 POP POP JUMP JUMPDEST PUSH2 0x5115 DUP2 PUSH2 0x50A9 JUMP JUMPDEST DUP3 MSTORE POP POP JUMP JUMPDEST PUSH1 0x0 PUSH1 0x20 DUP3 ADD SWAP1 POP PUSH2 0x5130 PUSH1 0x0 DUP4 ADD DUP5 PUSH2 0x510C JUMP JUMPDEST SWAP3 SWAP2 POP POP JUMP JUMPDEST PUSH1 0x0 DUP1 PUSH1 0x40 DUP4 DUP6 SUB SLT ISZERO PUSH2 0x514D JUMPI PUSH2 0x514C PUSH2 0x4C73 JUMP JUMPDEST JUMPDEST PUSH1 0x0 PUSH2 0x515B DUP6 DUP3 DUP7 ADD PUSH2 0x50CA JUMP JUMPDEST SWAP3 POP POP PUSH1 0x20 PUSH2 0x516C DUP6 DUP3 DUP7 ADD PUSH2 0x5067 JUMP JUMPDEST SWAP2 POP POP SWAP3 POP SWAP3 SWAP1 POP JUMP JUMPDEST PUSH1 0x0 DUP1 REVERT JUMPDEST PUSH1 0x0 DUP1 REVERT JUMPDEST PUSH1 0x0 DUP1 DUP4 PUSH1 0x1F DUP5 ADD SLT PUSH2 0x5196 JUMPI PUSH2 0x5195 PUSH2 0x4E8D JUMP JUMPDEST JUMPDEST DUP3 CALLDATALOAD SWAP1 POP PUSH8 0xFFFFFFFFFFFFFFFF DUP2 GT ISZERO PUSH2 0x51B3 JUMPI PUSH2 0x51B2 PUSH2 0x5176 JUMP JUMPDEST JUMPDEST PUSH1 0x20 DUP4 ADD SWAP2 POP DUP4 PUSH1 0x1 DUP3 MUL DUP4 ADD GT ISZERO PUSH2 0x51CF JUMPI PUSH2 0x51CE PUSH2 0x517B JUMP JUMPDEST JUMPDEST SWAP3 POP SWAP3 SWAP1 POP JUMP JUMPDEST PUSH1 0x4 DUP2 LT PUSH2 0x51E3 JUMPI PUSH1 0x0 DUP1 REVERT JUMPDEST POP JUMP JUMPDEST PUSH1 0x0 DUP2 CALLDATALOAD SWAP1 POP PUSH2 0x51F5 DUP2 PUSH2 0x51D6 JUMP JUMPDEST SWAP3 SWAP2 POP POP JUMP JUMPDEST PUSH1 0x0 DUP1 PUSH1 0x0 DUP1 PUSH1 0x60 DUP6 DUP8 SUB SLT ISZERO PUSH2 0x5215 JUMPI PUSH2 0x5214 PUSH2 0x4C73 JUMP JUMPDEST JUMPDEST PUSH1 0x0 DUP6 ADD CALLDATALOAD PUSH8 0xFFFFFFFFFFFFFFFF DUP2 GT ISZERO PUSH2 0x5233 JUMPI PUSH2 0x5232 PUSH2 0x4C78 JUMP JUMPDEST JUMPDEST PUSH2 0x523F DUP8 DUP3 DUP9 ADD PUSH2 0x5180 JUMP JUMPDEST SWAP5 POP SWAP5 POP POP PUSH1 0x20 PUSH2 0x5252 DUP8 DUP3 DUP9 ADD PUSH2 0x4E78 JUMP JUMPDEST SWAP3 POP POP PUSH1 0x40 PUSH2 0x5263 DUP8 DUP3 DUP9 ADD PUSH2 0x51E6 JUMP JUMPDEST SWAP2 POP POP SWAP3 SWAP6 SWAP2 SWAP5 POP SWAP3 POP JUMP JUMPDEST PUSH1 0x0 PUSH1 0x20 DUP3 DUP5 SUB SLT ISZERO PUSH2 0x5285 JUMPI PUSH2 0x5284 PUSH2 0x4C73 JUMP JUMPDEST JUMPDEST PUSH1 0x0 PUSH2 0x5293 DUP5 DUP3 DUP6 ADD PUSH2 0x4E78 JUMP JUMPDEST SWAP2 POP POP SWAP3 SWAP2 POP POP JUMP JUMPDEST PUSH32 0x4E487B7100000000000000000000000000000000000000000000000000000000 PUSH1 0x0 MSTORE PUSH1 0x21 PUSH1 0x4 MSTORE PUSH1 0x24 PUSH1 0x0 REVERT JUMPDEST PUSH1 0x8 DUP2 LT PUSH2 0x52DC JUMPI PUSH2 0x52DB PUSH2 0x529C JUMP JUMPDEST JUMPDEST POP JUMP JUMPDEST PUSH1 0x0 DUP2 SWAP1 POP PUSH2 0x52ED DUP3 PUSH2 0x52CB JUMP JUMPDEST SWAP2 SWAP1 POP JUMP JUMPDEST PUSH1 0x0 PUSH2 0x52FD DUP3 PUSH2 0x52DF JUMP JUMPDEST SWAP1 POP SWAP2 SWAP1 POP JUMP JUMPDEST PUSH2 0x530D DUP2 PUSH2 0x52F2 JUMP JUMPDEST DUP3 MSTORE POP POP JUMP JUMPDEST PUSH1 0x0 PUSH1 0x20 DUP3 ADD SWAP1 POP PUSH2 0x5328 PUSH1 0x0 DUP4 ADD DUP5 PUSH2 0x5304 JUMP JUMPDEST SWAP3 SWAP2 POP POP JUMP JUMPDEST PUSH1 0x0 DUP1 PUSH1 0x40 DUP4 DUP6 SUB SLT ISZERO PUSH2 0x5345 JUMPI PUSH2 0x5344 PUSH2 0x4C73 JUMP JUMPDEST JUMPDEST PUSH1 0x0 PUSH2 0x5353 DUP6 DUP3 DUP7 ADD PUSH2 0x4E78 JUMP JUMPDEST SWAP3 POP POP PUSH1 0x20 PUSH2 0x5364 DUP6 DUP3 DUP7 ADD PUSH2 0x5067 JUMP JUMPDEST SWAP2 POP POP SWAP3 POP SWAP3 SWAP1 POP JUMP JUMPDEST PUSH1 0x0 PUSH8 0xFFFFFFFFFFFFFFFF DUP3 GT ISZERO PUSH2 0x5389 JUMPI PUSH2 0x5388 PUSH2 0x4E97 JUMP JUMPDEST JUMPDEST PUSH2 0x5392 DUP3 PUSH2 0x4DBB JUMP JUMPDEST SWAP1 POP PUSH1 0x20 DUP2 ADD SWAP1 POP SWAP2 SWAP1 POP JUMP JUMPDEST PUSH1 0x0 PUSH2 0x53B2 PUSH2 0x53AD DUP5 PUSH2 0x536E JUMP JUMPDEST PUSH2 0x4EF7 JUMP JUMPDEST SWAP1 POP DUP3 DUP2 MSTORE PUSH1 0x20 DUP2 ADD DUP5 DUP5 DUP5 ADD GT ISZERO PUSH2 0x53CE JUMPI PUSH2 0x53CD PUSH2 0x4E92 JUMP JUMPDEST JUMPDEST PUSH2 0x53D9 DUP5 DUP3 DUP6 PUSH2 0x4F43 JUMP JUMPDEST POP SWAP4 SWAP3 POP POP POP JUMP JUMPDEST PUSH1 0x0 DUP3 PUSH1 0x1F DUP4 ADD SLT PUSH2 0x53F6 JUMPI PUSH2 0x53F5 PUSH2 0x4E8D JUMP JUMPDEST JUMPDEST DUP2 CALLDATALOAD PUSH2 0x5406 DUP5 DUP3 PUSH1 0x20 DUP7 ADD PUSH2 0x539F JUMP JUMPDEST SWAP2 POP POP SWAP3 SWAP2 POP POP JUMP JUMPDEST PUSH1 0x0 DUP1 PUSH1 0x40 DUP4 DUP6 SUB SLT ISZERO PUSH2 0x5426 JUMPI PUSH2 0x5425 PUSH2 0x4C73 JUMP JUMPDEST JUMPDEST PUSH1 0x0 PUSH2 0x5434 DUP6 DUP3 DUP7 ADD PUSH2 0x5067 JUMP JUMPDEST SWAP3 POP POP PUSH1 0x20 DUP4 ADD CALLDATALOAD PUSH8 0xFFFFFFFFFFFFFFFF DUP2 GT ISZERO PUSH2 0x5455 JUMPI PUSH2 0x5454 PUSH2 0x4C78 JUMP JUMPDEST JUMPDEST PUSH2 0x5461 DUP6 DUP3 DUP7 ADD PUSH2 0x53E1 JUMP JUMPDEST SWAP2 POP POP SWAP3 POP SWAP3 SWAP1 POP JUMP JUMPDEST PUSH1 0x0 DUP1 REVERT JUMPDEST PUSH1 0x0 DUP1 REVERT JUMPDEST PUSH1 0x4 DUP2 LT PUSH2 0x5482 JUMPI PUSH1 0x0 DUP1 REVERT JUMPDEST POP JUMP JUMPDEST PUSH1 0x0 DUP2 CALLDATALOAD SWAP1 POP PUSH2 0x5494 DUP2 PUSH2 0x5475 JUMP JUMPDEST SWAP3 SWAP2 POP POP JUMP JUMPDEST PUSH1 0x5 DUP2 LT PUSH2 0x54A7 JUMPI PUSH1 0x0 DUP1 REVERT JUMPDEST POP JUMP JUMPDEST PUSH1 0x0 DUP2 CALLDATALOAD SWAP1 POP PUSH2 0x54B9 DUP2 PUSH2 0x549A JUMP JUMPDEST SWAP3 SWAP2 POP POP JUMP JUMPDEST PUSH1 0x0 PUSH1 0xC0 DUP3 DUP5 SUB SLT ISZERO PUSH2 0x54D5 JUMPI PUSH2 0x54D4 PUSH2 0x546B JUMP JUMPDEST JUMPDEST PUSH2 0x54DF PUSH1 0xC0 PUSH2 0x4EF7 JUMP JUMPDEST SWAP1 POP PUSH1 0x0 PUSH2 0x54EF DUP5 DUP3 DUP6 ADD PUSH2 0x50CA JUMP JUMPDEST PUSH1 0x0 DUP4 ADD MSTORE POP PUSH1 0x20 PUSH2 0x5503 DUP5 DUP3 DUP6 ADD PUSH2 0x4E78 JUMP JUMPDEST PUSH1 0x20 DUP4 ADD MSTORE POP PUSH1 0x40 PUSH2 0x5517 DUP5 DUP3 DUP6 ADD PUSH2 0x5485 JUMP JUMPDEST PUSH1 0x40 DUP4 ADD MSTORE POP PUSH1 0x60 PUSH2 0x552B DUP5 DUP3 DUP6 ADD PUSH2 0x54AA JUMP JUMPDEST PUSH1 0x60 DUP4 ADD MSTORE POP PUSH1 0x80 DUP3 ADD CALLDATALOAD PUSH8 0xFFFFFFFFFFFFFFFF DUP2 GT ISZERO PUSH2 0x554F JUMPI PUSH2 0x554E PUSH2 0x5470 JUMP JUMPDEST JUMPDEST PUSH2 0x555B DUP5 DUP3 DUP6 ADD PUSH2 0x4F94 JUMP JUMPDEST PUSH1 0x80 DUP4 ADD MSTORE POP PUSH1 0xA0 DUP3 ADD CALLDATALOAD PUSH8 0xFFFFFFFFFFFFFFFF DUP2 GT ISZERO PUSH2 0x557F JUMPI PUSH2 0x557E PUSH2 0x5470 JUMP JUMPDEST JUMPDEST PUSH2 0x558B DUP5 DUP3 DUP6 ADD PUSH2 0x53E1 JUMP JUMPDEST PUSH1 0xA0 DUP4 ADD MSTORE POP SWAP3 SWAP2 POP POP JUMP JUMPDEST PUSH1 0x0 PUSH1 0x20 DUP3 DUP5 SUB SLT ISZERO PUSH2 0x55AD JUMPI PUSH2 0x55AC PUSH2 0x4C73 JUMP JUMPDEST JUMPDEST PUSH1 0x0 DUP3 ADD CALLDATALOAD PUSH8 0xFFFFFFFFFFFFFFFF DUP2 GT ISZERO PUSH2 0x55CB JUMPI PUSH2 0x55CA PUSH2 0x4C78 JUMP JUMPDEST JUMPDEST PUSH2 0x55D7 DUP5 DUP3 DUP6 ADD PUSH2 0x54BF JUMP JUMPDEST SWAP2 POP POP SWAP3 SWAP2 POP POP JUMP JUMPDEST PUSH1 0x0 DUP1 PUSH1 0x0 DUP1 PUSH1 0x0 DUP1 PUSH1 0x0 DUP1 PUSH1 0xC0 DUP10 DUP12 SUB SLT ISZERO PUSH2 0x5600 JUMPI PUSH2 0x55FF PUSH2 0x4C73 JUMP JUMPDEST JUMPDEST PUSH1 0x0 PUSH2 0x560E DUP12 DUP3 DUP13 ADD PUSH2 0x5067 JUMP JUMPDEST SWAP9 POP POP PUSH1 0x20 PUSH2 0x561F DUP12 DUP3 DUP13 ADD PUSH2 0x5067 JUMP JUMPDEST SWAP8 POP POP PUSH1 0x40 PUSH2 0x5630 DUP12 DUP3 DUP13 ADD PUSH2 0x5067 JUMP JUMPDEST SWAP7 POP POP PUSH1 0x60 PUSH2 0x5641 DUP12 DUP3 DUP13 ADD PUSH2 0x5067 JUMP JUMPDEST SWAP6 POP POP PUSH1 0x80 DUP10 ADD CALLDATALOAD PUSH8 0xFFFFFFFFFFFFFFFF DUP2 GT ISZERO PUSH2 0x5662 JUMPI PUSH2 0x5661 PUSH2 0x4C78 JUMP JUMPDEST JUMPDEST PUSH2 0x566E DUP12 DUP3 DUP13 ADD PUSH2 0x5180 JUMP JUMPDEST SWAP5 POP SWAP5 POP POP PUSH1 0xA0 DUP10 ADD CALLDATALOAD PUSH8 0xFFFFFFFFFFFFFFFF DUP2 GT ISZERO PUSH2 0x5691 JUMPI PUSH2 0x5690 PUSH2 0x4C78 JUMP JUMPDEST JUMPDEST PUSH2 0x569D DUP12 DUP3 DUP13 ADD PUSH2 0x5180 JUMP JUMPDEST SWAP3 POP SWAP3 POP POP SWAP3 SWAP6 SWAP9 POP SWAP3 SWAP6 SWAP9 SWAP1 SWAP4 SWAP7 POP JUMP JUMPDEST PUSH2 0x56B8 DUP2 PUSH2 0x503E JUMP JUMPDEST DUP3 MSTORE POP POP JUMP JUMPDEST PUSH1 0x0 PUSH1 0x20 DUP3 ADD SWAP1 POP PUSH2 0x56D3 PUSH1 0x0 DUP4 ADD DUP5 PUSH2 0x56AF JUMP JUMPDEST SWAP3 SWAP2 POP POP JUMP JUMPDEST PUSH2 0x56E2 DUP2 PUSH2 0x4C7D JUMP JUMPDEST DUP3 MSTORE POP POP JUMP JUMPDEST PUSH1 0x0 PUSH1 0x20 DUP3 ADD SWAP1 POP PUSH2 0x56FD PUSH1 0x0 DUP4 ADD DUP5 PUSH2 0x56D9 JUMP JUMPDEST SWAP3 SWAP2 POP POP JUMP JUMPDEST PUSH1 0x0 DUP1 PUSH1 0x0 DUP1 PUSH1 0x0 DUP1 PUSH1 0x0 PUSH1 0xE0 DUP9 DUP11 SUB SLT ISZERO PUSH2 0x5722 JUMPI PUSH2 0x5721 PUSH2 0x4C73 JUMP JUMPDEST JUMPDEST PUSH1 0x0 PUSH2 0x5730 DUP11 DUP3 DUP12 ADD PUSH2 0x50CA JUMP JUMPDEST SWAP8 POP POP PUSH1 0x20 PUSH2 0x5741 DUP11 DUP3 DUP12 ADD PUSH2 0x50CA JUMP JUMPDEST SWAP7 POP POP PUSH1 0x40 PUSH2 0x5752 DUP11 DUP3 DUP12 ADD PUSH2 0x4E78 JUMP JUMPDEST SWAP6 POP POP PUSH1 0x60 PUSH2 0x5763 DUP11 DUP3 DUP12 ADD PUSH2 0x5067 JUMP JUMPDEST SWAP5 POP POP PUSH1 0x80 PUSH2 0x5774 DUP11 DUP3 DUP12 ADD PUSH2 0x5485 JUMP JUMPDEST SWAP4 POP POP PUSH1 0xA0 PUSH2 0x5785 DUP11 DUP3 DUP12 ADD PUSH2 0x54AA JUMP JUMPDEST SWAP3 POP POP PUSH1 0xC0 DUP9 ADD CALLDATALOAD PUSH8 0xFFFFFFFFFFFFFFFF DUP2 GT ISZERO PUSH2 0x57A6 JUMPI PUSH2 0x57A5 PUSH2 0x4C78 JUMP JUMPDEST JUMPDEST PUSH2 0x57B2 DUP11 DUP3 DUP12 ADD PUSH2 0x53E1 JUMP JUMPDEST SWAP2 POP POP SWAP3 SWAP6 SWAP9 SWAP2 SWAP5 SWAP8 POP SWAP3 SWAP6 POP JUMP JUMPDEST PUSH32 0x4E487B7100000000000000000000000000000000000000000000000000000000 PUSH1 0x0 MSTORE PUSH1 0x22 PUSH1 0x4 MSTORE PUSH1 0x24 PUSH1 0x0 REVERT JUMPDEST PUSH1 0x0 PUSH1 0x2 DUP3 DIV SWAP1 POP PUSH1 0x1 DUP3 AND DUP1 PUSH2 0x5808 JUMPI PUSH1 0x7F DUP3 AND SWAP2 POP JUMPDEST PUSH1 0x20 DUP3 LT DUP2 SUB PUSH2 0x581B JUMPI PUSH2 0x581A PUSH2 0x57C1 JUMP JUMPDEST JUMPDEST POP SWAP2 SWAP1 POP JUMP JUMPDEST PUSH32 0x476F7665726E6F72203A206F6E6C792070726F706F7365722063616E2063616E PUSH1 0x0 DUP3 ADD MSTORE PUSH32 0x63656C0000000000000000000000000000000000000000000000000000000000 PUSH1 0x20 DUP3 ADD MSTORE POP JUMP JUMPDEST PUSH1 0x0 PUSH2 0x587D PUSH1 0x23 DUP4 PUSH2 0x4D77 JUMP JUMPDEST SWAP2 POP PUSH2 0x5888 DUP3 PUSH2 0x5821 JUMP JUMPDEST PUSH1 0x40 DUP3 ADD SWAP1 POP SWAP2 SWAP1 POP JUMP JUMPDEST PUSH1 0x0 PUSH1 0x20 DUP3 ADD SWAP1 POP DUP2 DUP2 SUB PUSH1 0x0 DUP4 ADD MSTORE PUSH2 0x58AC DUP2 PUSH2 0x5870 JUMP JUMPDEST SWAP1 POP SWAP2 SWAP1 POP JUMP JUMPDEST PUSH32 0x476F7665726E6F723A2070726F706F73616C206E6F7420616374697665000000 PUSH1 0x0 DUP3 ADD MSTORE POP JUMP JUMPDEST PUSH1 0x0 PUSH2 0x58E9 PUSH1 0x1D DUP4 PUSH2 0x4D77 JUMP JUMPDEST SWAP2 POP PUSH2 0x58F4 DUP3 PUSH2 0x58B3 JUMP JUMPDEST PUSH1 0x20 DUP3 ADD SWAP1 POP SWAP2 SWAP1 POP JUMP JUMPDEST PUSH1 0x0 PUSH1 0x20 DUP3 ADD SWAP1 POP DUP2 DUP2 SUB PUSH1 0x0 DUP4 ADD MSTORE PUSH2 0x5918 DUP2 PUSH2 0x58DC JUMP JUMPDEST SWAP1 POP SWAP2 SWAP1 POP JUMP JUMPDEST PUSH32 0x476F7665726E6F723A2070726F706F73616C20616C72656164792063616E6365 PUSH1 0x0 DUP3 ADD MSTORE PUSH32 0x6C65640000000000000000000000000000000000000000000000000000000000 PUSH1 0x20 DUP3 ADD MSTORE POP JUMP JUMPDEST PUSH1 0x0 PUSH2 0x597B PUSH1 0x23 DUP4 PUSH2 0x4D77 JUMP JUMPDEST SWAP2 POP PUSH2 0x5986 DUP3 PUSH2 0x591F JUMP JUMPDEST PUSH1 0x40 DUP3 ADD SWAP1 POP SWAP2 SWAP1 POP JUMP JUMPDEST PUSH1 0x0 PUSH1 0x20 DUP3 ADD SWAP1 POP DUP2 DUP2 SUB PUSH1 0x0 DUP4 ADD MSTORE PUSH2 0x59AA DUP2 PUSH2 0x596E JUMP JUMPDEST SWAP1 POP SWAP2 SWAP1 POP JUMP JUMPDEST PUSH32 0x56616C696461746F723A206F6E6C792065786973742076616C696461746F7220 PUSH1 0x0 DUP3 ADD MSTORE PUSH32 0x63616E2062652064697361626C65000000000000000000000000000000000000 PUSH1 0x20 DUP3 ADD MSTORE POP JUMP JUMPDEST PUSH1 0x0 PUSH2 0x5A0D PUSH1 0x2E DUP4 PUSH2 0x4D77 JUMP JUMPDEST SWAP2 POP PUSH2 0x5A18 DUP3 PUSH2 0x59B1 JUMP JUMPDEST PUSH1 0x40 DUP3 ADD SWAP1 POP SWAP2 SWAP1 POP JUMP JUMPDEST PUSH1 0x0 PUSH1 0x20 DUP3 ADD SWAP1 POP DUP2 DUP2 SUB PUSH1 0x0 DUP4 ADD MSTORE PUSH2 0x5A3C DUP2 PUSH2 0x5A00 JUMP JUMPDEST SWAP1 POP SWAP2 SWAP1 POP JUMP JUMPDEST PUSH32 0x4E487B7100000000000000000000000000000000000000000000000000000000 PUSH1 0x0 MSTORE PUSH1 0x11 PUSH1 0x4 MSTORE PUSH1 0x24 PUSH1 0x0 REVERT JUMPDEST PUSH1 0x0 PUSH2 0x5A7D DUP3 PUSH2 0x4E27 JUMP JUMPDEST SWAP2 POP PUSH2 0x5A88 DUP4 PUSH2 0x4E27 JUMP JUMPDEST SWAP3 POP DUP3 DUP3 LT ISZERO PUSH2 0x5A9B JUMPI PUSH2 0x5A9A PUSH2 0x5A43 JUMP JUMPDEST JUMPDEST DUP3 DUP3 SUB SWAP1 POP SWAP3 SWAP2 POP POP JUMP JUMPDEST PUSH32 0x476F7665726E6F723A206F6E6C792076616C696461746F722063616E20766F74 PUSH1 0x0 DUP3 ADD MSTORE PUSH32 0x6500000000000000000000000000000000000000000000000000000000000000 PUSH1 0x20 DUP3 ADD MSTORE POP JUMP JUMPDEST PUSH1 0x0 PUSH2 0x5B02 PUSH1 0x21 DUP4 PUSH2 0x4D77 JUMP JUMPDEST SWAP2 POP PUSH2 0x5B0D DUP3 PUSH2 0x5AA6 JUMP JUMPDEST PUSH1 0x40 DUP3 ADD SWAP1 POP SWAP2 SWAP1 POP JUMP JUMPDEST PUSH1 0x0 PUSH1 0x20 DUP3 ADD SWAP1 POP DUP2 DUP2 SUB PUSH1 0x0 DUP4 ADD MSTORE PUSH2 0x5B31 DUP2 PUSH2 0x5AF5 JUMP JUMPDEST SWAP1 POP SWAP2 SWAP1 POP JUMP JUMPDEST PUSH32 0x416363657373436F6E74726F6C3A2063616E206F6E6C792072656E6F756E6365 PUSH1 0x0 DUP3 ADD MSTORE PUSH32 0x20726F6C657320666F722073656C660000000000000000000000000000000000 PUSH1 0x20 DUP3 ADD MSTORE POP JUMP JUMPDEST PUSH1 0x0 PUSH2 0x5B94 PUSH1 0x2F DUP4 PUSH2 0x4D77 JUMP JUMPDEST SWAP2 POP PUSH2 0x5B9F DUP3 PUSH2 0x5B38 JUMP JUMPDEST PUSH1 0x40 DUP3 ADD SWAP1 POP SWAP2 SWAP1 POP JUMP JUMPDEST PUSH1 0x0 PUSH1 0x20 DUP3 ADD SWAP1 POP DUP2 DUP2 SUB PUSH1 0x0 DUP4 ADD MSTORE PUSH2 0x5BC3 DUP2 PUSH2 0x5B87 JUMP JUMPDEST SWAP1 POP SWAP2 SWAP1 POP JUMP JUMPDEST PUSH32 0x46756E6374696F6E206D7573742062652063616C6C6564207468726F75676820 PUSH1 0x0 DUP3 ADD MSTORE PUSH32 0x64656C656761746563616C6C0000000000000000000000000000000000000000 PUSH1 0x20 DUP3 ADD MSTORE POP JUMP JUMPDEST PUSH1 0x0 PUSH2 0x5C26 PUSH1 0x2C DUP4 PUSH2 0x4D77 JUMP JUMPDEST SWAP2 POP PUSH2 0x5C31 DUP3 PUSH2 0x5BCA JUMP JUMPDEST PUSH1 0x40 DUP3 ADD SWAP1 POP SWAP2 SWAP1 POP JUMP JUMPDEST PUSH1 0x0 PUSH1 0x20 DUP3 ADD SWAP1 POP DUP2 DUP2 SUB PUSH1 0x0 DUP4 ADD MSTORE PUSH2 0x5C55 DUP2 PUSH2 0x5C19 JUMP JUMPDEST SWAP1 POP SWAP2 SWAP1 POP JUMP JUMPDEST PUSH32 0x46756E6374696F6E206D7573742062652063616C6C6564207468726F75676820 PUSH1 0x0 DUP3 ADD MSTORE PUSH32 0x6163746976652070726F78790000000000000000000000000000000000000000 PUSH1 0x20 DUP3 ADD MSTORE POP JUMP JUMPDEST PUSH1 0x0 PUSH2 0x5CB8 PUSH1 0x2C DUP4 PUSH2 0x4D77 JUMP JUMPDEST SWAP2 POP PUSH2 0x5CC3 DUP3 PUSH2 0x5C5C JUMP JUMPDEST PUSH1 0x40 DUP3 ADD SWAP1 POP SWAP2 SWAP1 POP JUMP JUMPDEST PUSH1 0x0 PUSH1 0x20 DUP3 ADD SWAP1 POP DUP2 DUP2 SUB PUSH1 0x0 DUP4 ADD MSTORE PUSH2 0x5CE7 DUP2 PUSH2 0x5CAB JUMP JUMPDEST SWAP1 POP SWAP2 SWAP1 POP JUMP JUMPDEST PUSH32 0x70726F706F73616C496420697320696E76616C69640000000000000000000000 PUSH1 0x0 DUP3 ADD MSTORE POP JUMP JUMPDEST PUSH1 0x0 PUSH2 0x5D24 PUSH1 0x15 DUP4 PUSH2 0x4D77 JUMP JUMPDEST SWAP2 POP PUSH2 0x5D2F DUP3 PUSH2 0x5CEE JUMP JUMPDEST PUSH1 0x20 DUP3 ADD SWAP1 POP SWAP2 SWAP1 POP JUMP JUMPDEST PUSH1 0x0 PUSH1 0x20 DUP3 ADD SWAP1 POP DUP2 DUP2 SUB PUSH1 0x0 DUP4 ADD MSTORE PUSH2 0x5D53 DUP2 PUSH2 0x5D17 JUMP JUMPDEST SWAP1 POP SWAP2 SWAP1 POP JUMP JUMPDEST PUSH32 0x555550535570677261646561626C653A206D757374206E6F742062652063616C PUSH1 0x0 DUP3 ADD MSTORE PUSH32 0x6C6564207468726F7567682064656C656761746563616C6C0000000000000000 PUSH1 0x20 DUP3 ADD MSTORE POP JUMP JUMPDEST PUSH1 0x0 PUSH2 0x5DB6 PUSH1 0x38 DUP4 PUSH2 0x4D77 JUMP JUMPDEST SWAP2 POP PUSH2 0x5DC1 DUP3 PUSH2 0x5D5A JUMP JUMPDEST PUSH1 0x40 DUP3 ADD SWAP1 POP SWAP2 SWAP1 POP JUMP JUMPDEST PUSH1 0x0 PUSH1 0x20 DUP3 ADD SWAP1 POP DUP2 DUP2 SUB PUSH1 0x0 DUP4 ADD MSTORE PUSH2 0x5DE5 DUP2 PUSH2 0x5DA9 JUMP JUMPDEST SWAP1 POP SWAP2 SWAP1 POP JUMP JUMPDEST PUSH32 0x70726F706F73616C20747970652073686F756C64206E6F74206265204E4F4E45 PUSH1 0x0 DUP3 ADD MSTORE POP JUMP JUMPDEST PUSH1 0x0 PUSH2 0x5E22 PUSH1 0x20 DUP4 PUSH2 0x4D77 JUMP JUMPDEST SWAP2 POP PUSH2 0x5E2D DUP3 PUSH2 0x5DEC JUMP JUMPDEST PUSH1 0x20 DUP3 ADD SWAP1 POP SWAP2 SWAP1 POP JUMP JUMPDEST PUSH1 0x0 PUSH1 0x20 DUP3 ADD SWAP1 POP DUP2 DUP2 SUB PUSH1 0x0 DUP4 ADD MSTORE PUSH2 0x5E51 DUP2 PUSH2 0x5E15 JUMP JUMPDEST SWAP1 POP SWAP2 SWAP1 POP JUMP JUMPDEST PUSH32 0x616374696F6E20747970652073686F756C64206E6F74206265204E4F4E450000 PUSH1 0x0 DUP3 ADD MSTORE POP JUMP JUMPDEST PUSH1 0x0 PUSH2 0x5E8E PUSH1 0x1E DUP4 PUSH2 0x4D77 JUMP JUMPDEST SWAP2 POP PUSH2 0x5E99 DUP3 PUSH2 0x5E58 JUMP JUMPDEST PUSH1 0x20 DUP3 ADD SWAP1 POP SWAP2 SWAP1 POP JUMP JUMPDEST PUSH1 0x0 PUSH1 0x20 DUP3 ADD SWAP1 POP DUP2 DUP2 SUB PUSH1 0x0 DUP4 ADD MSTORE PUSH2 0x5EBD DUP2 PUSH2 0x5E81 JUMP JUMPDEST SWAP1 POP SWAP2 SWAP1 POP JUMP JUMPDEST PUSH32 0x646174612073686F756C64206E6F7420626520656D7074790000000000000000 PUSH1 0x0 DUP3 ADD MSTORE POP JUMP JUMPDEST PUSH1 0x0 PUSH2 0x5EFA PUSH1 0x18 DUP4 PUSH2 0x4D77 JUMP JUMPDEST SWAP2 POP PUSH2 0x5F05 DUP3 PUSH2 0x5EC4 JUMP JUMPDEST PUSH1 0x20 DUP3 ADD SWAP1 POP SWAP2 SWAP1 POP JUMP JUMPDEST PUSH1 0x0 PUSH1 0x20 DUP3 ADD SWAP1 POP DUP2 DUP2 SUB PUSH1 0x0 DUP4 ADD MSTORE PUSH2 0x5F29 DUP2 PUSH2 0x5EED JUMP JUMPDEST SWAP1 POP SWAP2 SWAP1 POP JUMP JUMPDEST PUSH1 0x0 PUSH8 0xFFFFFFFFFFFFFFFF DUP3 AND SWAP1 POP SWAP2 SWAP1 POP JUMP JUMPDEST PUSH1 0x0 PUSH2 0x5F4F DUP3 PUSH2 0x5F30 JUMP JUMPDEST SWAP2 POP PUSH2 0x5F5A DUP4 PUSH2 0x5F30 JUMP JUMPDEST SWAP3 POP DUP3 PUSH8 0xFFFFFFFFFFFFFFFF SUB DUP3 GT ISZERO PUSH2 0x5F77 JUMPI PUSH2 0x5F76 PUSH2 0x5A43 JUMP JUMPDEST JUMPDEST DUP3 DUP3 ADD SWAP1 POP SWAP3 SWAP2 POP POP JUMP JUMPDEST PUSH1 0x0 DUP2 SWAP1 POP SWAP2 SWAP1 POP JUMP JUMPDEST PUSH1 0x0 PUSH1 0xFF DUP3 AND SWAP1 POP SWAP2 SWAP1 POP JUMP JUMPDEST PUSH1 0x0 DUP2 SWAP1 POP SWAP2 SWAP1 POP JUMP JUMPDEST PUSH1 0x0 PUSH2 0x5FBE PUSH2 0x5FB9 PUSH2 0x5FB4 DUP5 PUSH2 0x5F82 JUMP JUMPDEST PUSH2 0x5F99 JUMP JUMPDEST PUSH2 0x5F8C JUMP JUMPDEST SWAP1 POP SWAP2 SWAP1 POP JUMP JUMPDEST PUSH2 0x5FCE DUP2 PUSH2 0x5FA3 JUMP JUMPDEST DUP3 MSTORE POP POP JUMP JUMPDEST PUSH1 0x0 PUSH1 0x20 DUP3 ADD SWAP1 POP PUSH2 0x5FE9 PUSH1 0x0 DUP4 ADD DUP5 PUSH2 0x5FC5 JUMP JUMPDEST SWAP3 SWAP2 POP POP JUMP JUMPDEST PUSH1 0x4 DUP2 LT PUSH2 0x6000 JUMPI PUSH2 0x5FFF PUSH2 0x529C JUMP JUMPDEST JUMPDEST POP JUMP JUMPDEST PUSH1 0x0 DUP2 SWAP1 POP PUSH2 0x6011 DUP3 PUSH2 0x5FEF JUMP JUMPDEST SWAP2 SWAP1 POP JUMP JUMPDEST PUSH1 0x0 PUSH2 0x6021 DUP3 PUSH2 0x6003 JUMP JUMPDEST SWAP1 POP SWAP2 SWAP1 POP JUMP JUMPDEST PUSH2 0x6031 DUP2 PUSH2 0x6016 JUMP JUMPDEST DUP3 MSTORE POP POP JUMP JUMPDEST PUSH1 0x5 DUP2 LT PUSH2 0x6048 JUMPI PUSH2 0x6047 PUSH2 0x529C JUMP JUMPDEST JUMPDEST POP JUMP JUMPDEST PUSH1 0x0 DUP2 SWAP1 POP PUSH2 0x6059 DUP3 PUSH2 0x6037 JUMP JUMPDEST SWAP2 SWAP1 POP JUMP JUMPDEST PUSH1 0x0 PUSH2 0x6069 DUP3 PUSH2 0x604B JUMP JUMPDEST SWAP1 POP SWAP2 SWAP1 POP JUMP JUMPDEST PUSH2 0x6079 DUP2 PUSH2 0x605E JUMP JUMPDEST DUP3 MSTORE POP POP JUMP JUMPDEST PUSH1 0x0 DUP2 MLOAD SWAP1 POP SWAP2 SWAP1 POP JUMP JUMPDEST PUSH1 0x0 DUP3 DUP3 MSTORE PUSH1 0x20 DUP3 ADD SWAP1 POP SWAP3 SWAP2 POP POP JUMP JUMPDEST PUSH1 0x0 PUSH2 0x60A6 DUP3 PUSH2 0x607F JUMP JUMPDEST PUSH2 0x60B0 DUP2 DUP6 PUSH2 0x608A JUMP JUMPDEST SWAP4 POP PUSH2 0x60C0 DUP2 DUP6 PUSH1 0x20 DUP7 ADD PUSH2 0x4D88 JUMP JUMPDEST PUSH2 0x60C9 DUP2 PUSH2 0x4DBB JUMP JUMPDEST DUP5 ADD SWAP2 POP POP SWAP3 SWAP2 POP POP JUMP JUMPDEST PUSH1 0x0 PUSH1 0xE0 DUP3 ADD SWAP1 POP PUSH2 0x60E9 PUSH1 0x0 DUP4 ADD DUP11 PUSH2 0x510C JUMP JUMPDEST PUSH2 0x60F6 PUSH1 0x20 DUP4 ADD DUP10 PUSH2 0x510C JUMP JUMPDEST PUSH2 0x6103 PUSH1 0x40 DUP4 ADD DUP9 PUSH2 0x4D42 JUMP JUMPDEST PUSH2 0x6110 PUSH1 0x60 DUP4 ADD DUP8 PUSH2 0x56AF JUMP JUMPDEST PUSH2 0x611D PUSH1 0x80 DUP4 ADD DUP7 PUSH2 0x6028 JUMP JUMPDEST PUSH2 0x612A PUSH1 0xA0 DUP4 ADD DUP6 PUSH2 0x6070 JUMP JUMPDEST DUP2 DUP2 SUB PUSH1 0xC0 DUP4 ADD MSTORE PUSH2 0x613C DUP2 DUP5 PUSH2 0x609B JUMP JUMPDEST SWAP1 POP SWAP9 SWAP8 POP POP POP POP POP POP POP POP JUMP JUMPDEST PUSH32 0x476F7665726E6F723A2070726F706F73616C206E6F7420737563636573736675 PUSH1 0x0 DUP3 ADD MSTORE PUSH32 0x6C00000000000000000000000000000000000000000000000000000000000000 PUSH1 0x20 DUP3 ADD MSTORE POP JUMP JUMPDEST PUSH1 0x0 PUSH2 0x61A6 PUSH1 0x21 DUP4 PUSH2 0x4D77 JUMP JUMPDEST SWAP2 POP PUSH2 0x61B1 DUP3 PUSH2 0x614A JUMP JUMPDEST PUSH1 0x40 DUP3 ADD SWAP1 POP SWAP2 SWAP1 POP JUMP JUMPDEST PUSH1 0x0 PUSH1 0x20 DUP3 ADD SWAP1 POP DUP2 DUP2 SUB PUSH1 0x0 DUP4 ADD MSTORE PUSH2 0x61D5 DUP2 PUSH2 0x6199 JUMP JUMPDEST SWAP1 POP SWAP2 SWAP1 POP JUMP JUMPDEST PUSH32 0x476F7665726E6F723A20766F746520696E76616C696400000000000000000000 PUSH1 0x0 DUP3 ADD MSTORE POP JUMP JUMPDEST PUSH1 0x0 PUSH2 0x6212 PUSH1 0x16 DUP4 PUSH2 0x4D77 JUMP JUMPDEST SWAP2 POP PUSH2 0x621D DUP3 PUSH2 0x61DC JUMP JUMPDEST PUSH1 0x20 DUP3 ADD SWAP1 POP SWAP2 SWAP1 POP JUMP JUMPDEST PUSH1 0x0 PUSH1 0x20 DUP3 ADD SWAP1 POP DUP2 DUP2 SUB PUSH1 0x0 DUP4 ADD MSTORE PUSH2 0x6241 DUP2 PUSH2 0x6205 JUMP JUMPDEST SWAP1 POP SWAP2 SWAP1 POP JUMP JUMPDEST PUSH32 0x476F7665726E6F723A2070726F706F73616C2063757272656E746C7920696E61 PUSH1 0x0 DUP3 ADD MSTORE PUSH32 0x6374697665000000000000000000000000000000000000000000000000000000 PUSH1 0x20 DUP3 ADD MSTORE POP JUMP JUMPDEST PUSH1 0x0 PUSH2 0x62A4 PUSH1 0x25 DUP4 PUSH2 0x4D77 JUMP JUMPDEST SWAP2 POP PUSH2 0x62AF DUP3 PUSH2 0x6248 JUMP JUMPDEST PUSH1 0x40 DUP3 ADD SWAP1 POP SWAP2 SWAP1 POP JUMP JUMPDEST PUSH1 0x0 PUSH1 0x20 DUP3 ADD SWAP1 POP DUP2 DUP2 SUB PUSH1 0x0 DUP4 ADD MSTORE PUSH2 0x62D3 DUP2 PUSH2 0x6297 JUMP JUMPDEST SWAP1 POP SWAP2 SWAP1 POP JUMP JUMPDEST PUSH32 0x476F7665726E6F723A20766F746520616C726561647920636173740000000000 PUSH1 0x0 DUP3 ADD MSTORE POP JUMP JUMPDEST PUSH1 0x0 PUSH2 0x6310 PUSH1 0x1B DUP4 PUSH2 0x4D77 JUMP JUMPDEST SWAP2 POP PUSH2 0x631B DUP3 PUSH2 0x62DA JUMP JUMPDEST PUSH1 0x20 DUP3 ADD SWAP1 POP SWAP2 SWAP1 POP JUMP JUMPDEST PUSH1 0x0 PUSH1 0x20 DUP3 ADD SWAP1 POP DUP2 DUP2 SUB PUSH1 0x0 DUP4 ADD MSTORE PUSH2 0x633F DUP2 PUSH2 0x6303 JUMP JUMPDEST SWAP1 POP SWAP2 SWAP1 POP JUMP JUMPDEST PUSH1 0x4 DUP2 LT PUSH2 0x6357 JUMPI PUSH2 0x6356 PUSH2 0x529C JUMP JUMPDEST JUMPDEST POP JUMP JUMPDEST PUSH1 0x0 DUP2 SWAP1 POP PUSH2 0x6368 DUP3 PUSH2 0x6346 JUMP JUMPDEST SWAP2 SWAP1 POP JUMP JUMPDEST PUSH1 0x0 PUSH2 0x6378 DUP3 PUSH2 0x635A JUMP JUMPDEST SWAP1 POP SWAP2 SWAP1 POP JUMP JUMPDEST PUSH2 0x6388 DUP2 PUSH2 0x636D JUMP JUMPDEST DUP3 MSTORE POP POP JUMP JUMPDEST PUSH1 0x0 PUSH1 0x40 DUP3 ADD SWAP1 POP PUSH2 0x63A3 PUSH1 0x0 DUP4 ADD DUP6 PUSH2 0x637F JUMP JUMPDEST DUP2 DUP2 SUB PUSH1 0x20 DUP4 ADD MSTORE PUSH2 0x63B5 DUP2 DUP5 PUSH2 0x4DCC JUMP JUMPDEST SWAP1 POP SWAP4 SWAP3 POP POP POP JUMP JUMPDEST PUSH1 0x0 DUP2 MLOAD SWAP1 POP PUSH2 0x63CD DUP2 PUSH2 0x50B3 JUMP JUMPDEST SWAP3 SWAP2 POP POP JUMP JUMPDEST PUSH1 0x0 PUSH1 0x20 DUP3 DUP5 SUB SLT ISZERO PUSH2 0x63E9 JUMPI PUSH2 0x63E8 PUSH2 0x4C73 JUMP JUMPDEST JUMPDEST PUSH1 0x0 PUSH2 0x63F7 DUP5 DUP3 DUP6 ADD PUSH2 0x63BE JUMP JUMPDEST SWAP2 POP POP SWAP3 SWAP2 POP POP JUMP JUMPDEST PUSH32 0x45524331393637557067726164653A206E657720696D706C656D656E74617469 PUSH1 0x0 DUP3 ADD MSTORE PUSH32 0x6F6E206973206E6F742055555053000000000000000000000000000000000000 PUSH1 0x20 DUP3 ADD MSTORE POP JUMP JUMPDEST PUSH1 0x0 PUSH2 0x645C PUSH1 0x2E DUP4 PUSH2 0x4D77 JUMP JUMPDEST SWAP2 POP PUSH2 0x6467 DUP3 PUSH2 0x6400 JUMP JUMPDEST PUSH1 0x40 DUP3 ADD SWAP1 POP SWAP2 SWAP1 POP JUMP JUMPDEST PUSH1 0x0 PUSH1 0x20 DUP3 ADD SWAP1 POP DUP2 DUP2 SUB PUSH1 0x0 DUP4 ADD MSTORE PUSH2 0x648B DUP2 PUSH2 0x644F JUMP JUMPDEST SWAP1 POP SWAP2 SWAP1 POP JUMP JUMPDEST PUSH32 0x45524331393637557067726164653A20756E737570706F727465642070726F78 PUSH1 0x0 DUP3 ADD MSTORE PUSH32 0x6961626C65555549440000000000000000000000000000000000000000000000 PUSH1 0x20 DUP3 ADD MSTORE POP JUMP JUMPDEST PUSH1 0x0 PUSH2 0x64EE PUSH1 0x29 DUP4 PUSH2 0x4D77 JUMP JUMPDEST SWAP2 POP PUSH2 0x64F9 DUP3 PUSH2 0x6492 JUMP JUMPDEST PUSH1 0x40 DUP3 ADD SWAP1 POP SWAP2 SWAP1 POP JUMP JUMPDEST PUSH1 0x0 PUSH1 0x20 DUP3 ADD SWAP1 POP DUP2 DUP2 SUB PUSH1 0x0 DUP4 ADD MSTORE PUSH2 0x651D DUP2 PUSH2 0x64E1 JUMP JUMPDEST SWAP1 POP SWAP2 SWAP1 POP JUMP JUMPDEST PUSH32 0x4E487B7100000000000000000000000000000000000000000000000000000000 PUSH1 0x0 MSTORE PUSH1 0x12 PUSH1 0x4 MSTORE PUSH1 0x24 PUSH1 0x0 REVERT JUMPDEST PUSH1 0x0 PUSH2 0x655E DUP3 PUSH2 0x4E27 JUMP JUMPDEST SWAP2 POP PUSH2 0x6569 DUP4 PUSH2 0x4E27 JUMP JUMPDEST SWAP3 POP DUP3 PUSH2 0x6579 JUMPI PUSH2 0x6578 PUSH2 0x6524 JUMP JUMPDEST JUMPDEST DUP3 DUP3 DIV SWAP1 POP SWAP3 SWAP2 POP POP JUMP JUMPDEST PUSH1 0x0 PUSH2 0x658F DUP3 PUSH2 0x4E27 JUMP JUMPDEST SWAP2 POP PUSH2 0x659A DUP4 PUSH2 0x4E27 JUMP JUMPDEST SWAP3 POP DUP3 PUSH4 0xFFFFFFFF SUB DUP3 GT ISZERO PUSH2 0x65B3 JUMPI PUSH2 0x65B2 PUSH2 0x5A43 JUMP JUMPDEST JUMPDEST DUP3 DUP3 ADD SWAP1 POP SWAP3 SWAP2 POP POP JUMP JUMPDEST PUSH1 0x0 PUSH2 0x65D1 PUSH2 0x65CC DUP5 PUSH2 0x4F12 JUMP JUMPDEST PUSH2 0x4EF7 JUMP JUMPDEST SWAP1 POP DUP3 DUP2 MSTORE PUSH1 0x20 DUP2 ADD DUP5 DUP5 DUP5 ADD GT ISZERO PUSH2 0x65ED JUMPI PUSH2 0x65EC PUSH2 0x4E92 JUMP JUMPDEST JUMPDEST PUSH2 0x65F8 DUP5 DUP3 DUP6 PUSH2 0x4D88 JUMP JUMPDEST POP SWAP4 SWAP3 POP POP POP JUMP JUMPDEST PUSH1 0x0 DUP3 PUSH1 0x1F DUP4 ADD SLT PUSH2 0x6615 JUMPI PUSH2 0x6614 PUSH2 0x4E8D JUMP JUMPDEST JUMPDEST DUP2 MLOAD PUSH2 0x6625 DUP5 DUP3 PUSH1 0x20 DUP7 ADD PUSH2 0x65BE JUMP JUMPDEST SWAP2 POP POP SWAP3 SWAP2 POP POP JUMP JUMPDEST PUSH1 0x0 DUP2 MLOAD SWAP1 POP PUSH2 0x663D DUP2 PUSH2 0x5050 JUMP JUMPDEST SWAP3 SWAP2 POP POP JUMP JUMPDEST PUSH1 0x0 PUSH1 0x40 DUP3 DUP5 SUB SLT ISZERO PUSH2 0x6659 JUMPI PUSH2 0x6658 PUSH2 0x546B JUMP JUMPDEST JUMPDEST PUSH2 0x6663 PUSH1 0x40 PUSH2 0x4EF7 JUMP JUMPDEST SWAP1 POP PUSH1 0x0 DUP3 ADD MLOAD PUSH8 0xFFFFFFFFFFFFFFFF DUP2 GT ISZERO PUSH2 0x6683 JUMPI PUSH2 0x6682 PUSH2 0x5470 JUMP JUMPDEST JUMPDEST PUSH2 0x668F DUP5 DUP3 DUP6 ADD PUSH2 0x6600 JUMP JUMPDEST PUSH1 0x0 DUP4 ADD MSTORE POP PUSH1 0x20 PUSH2 0x66A3 DUP5 DUP3 DUP6 ADD PUSH2 0x662E JUMP JUMPDEST PUSH1 0x20 DUP4 ADD MSTORE POP SWAP3 SWAP2 POP POP JUMP JUMPDEST PUSH1 0x0 PUSH1 0x20 DUP3 DUP5 SUB SLT ISZERO PUSH2 0x66C5 JUMPI PUSH2 0x66C4 PUSH2 0x4C73 JUMP JUMPDEST JUMPDEST PUSH1 0x0 DUP3 ADD MLOAD PUSH8 0xFFFFFFFFFFFFFFFF DUP2 GT ISZERO PUSH2 0x66E3 JUMPI PUSH2 0x66E2 PUSH2 0x4C78 JUMP JUMPDEST JUMPDEST PUSH2 0x66EF DUP5 DUP3 DUP6 ADD PUSH2 0x6643 JUMP JUMPDEST SWAP2 POP POP SWAP3 SWAP2 POP POP JUMP JUMPDEST PUSH32 0x76616C696461746F7220616464726573732073686F756C64206E6F7420626520 PUSH1 0x0 DUP3 ADD MSTORE PUSH32 0x7A65726F00000000000000000000000000000000000000000000000000000000 PUSH1 0x20 DUP3 ADD MSTORE POP JUMP JUMPDEST PUSH1 0x0 PUSH2 0x6754 PUSH1 0x24 DUP4 PUSH2 0x4D77 JUMP JUMPDEST SWAP2 POP PUSH2 0x675F DUP3 PUSH2 0x66F8 JUMP JUMPDEST PUSH1 0x40 DUP3 ADD SWAP1 POP SWAP2 SWAP1 POP JUMP JUMPDEST PUSH1 0x0 PUSH1 0x20 DUP3 ADD SWAP1 POP DUP2 DUP2 SUB PUSH1 0x0 DUP4 ADD MSTORE PUSH2 0x6783 DUP2 PUSH2 0x6747 JUMP JUMPDEST SWAP1 POP SWAP2 SWAP1 POP JUMP JUMPDEST PUSH32 0x76616C696461746F72206E616D652073686F756C64206E6F7420626520656D70 PUSH1 0x0 DUP3 ADD MSTORE PUSH32 0x7479000000000000000000000000000000000000000000000000000000000000 PUSH1 0x20 DUP3 ADD MSTORE POP JUMP JUMPDEST PUSH1 0x0 PUSH2 0x67E6 PUSH1 0x22 DUP4 PUSH2 0x4D77 JUMP JUMPDEST SWAP2 POP PUSH2 0x67F1 DUP3 PUSH2 0x678A JUMP JUMPDEST PUSH1 0x40 DUP3 ADD SWAP1 POP SWAP2 SWAP1 POP JUMP JUMPDEST PUSH1 0x0 PUSH1 0x20 DUP3 ADD SWAP1 POP DUP2 DUP2 SUB PUSH1 0x0 DUP4 ADD MSTORE PUSH2 0x6815 DUP2 PUSH2 0x67D9 JUMP JUMPDEST SWAP1 POP SWAP2 SWAP1 POP JUMP JUMPDEST PUSH1 0x0 PUSH1 0x60 DUP3 ADD SWAP1 POP PUSH2 0x6831 PUSH1 0x0 DUP4 ADD DUP7 PUSH2 0x510C JUMP JUMPDEST PUSH2 0x683E PUSH1 0x20 DUP4 ADD DUP6 PUSH2 0x510C JUMP JUMPDEST DUP2 DUP2 SUB PUSH1 0x40 DUP4 ADD MSTORE PUSH2 0x6850 DUP2 DUP5 PUSH2 0x4DCC JUMP JUMPDEST SWAP1 POP SWAP5 SWAP4 POP POP POP POP JUMP JUMPDEST PUSH1 0x0 DUP2 MLOAD SWAP1 POP PUSH2 0x6869 DUP2 PUSH2 0x4E61 JUMP JUMPDEST SWAP3 SWAP2 POP POP JUMP JUMPDEST PUSH1 0x0 PUSH2 0xFFFF DUP3 AND SWAP1 POP SWAP2 SWAP1 POP JUMP JUMPDEST PUSH2 0x6886 DUP2 PUSH2 0x686F JUMP JUMPDEST DUP2 EQ PUSH2 0x6891 JUMPI PUSH1 0x0 DUP1 REVERT JUMPDEST POP JUMP JUMPDEST PUSH1 0x0 DUP2 MLOAD SWAP1 POP PUSH2 0x68A3 DUP2 PUSH2 0x687D JUMP JUMPDEST SWAP3 SWAP2 POP POP JUMP JUMPDEST PUSH1 0x0 PUSH1 0x80 DUP3 DUP5 SUB SLT ISZERO PUSH2 0x68BF JUMPI PUSH2 0x68BE PUSH2 0x546B JUMP JUMPDEST JUMPDEST PUSH2 0x68C9 PUSH1 0x80 PUSH2 0x4EF7 JUMP JUMPDEST SWAP1 POP PUSH1 0x0 DUP3 ADD MLOAD PUSH8 0xFFFFFFFFFFFFFFFF DUP2 GT ISZERO PUSH2 0x68E9 JUMPI PUSH2 0x68E8 PUSH2 0x5470 JUMP JUMPDEST JUMPDEST PUSH2 0x68F5 DUP5 DUP3 DUP6 ADD PUSH2 0x6600 JUMP JUMPDEST PUSH1 0x0 DUP4 ADD MSTORE POP PUSH1 0x20 PUSH2 0x6909 DUP5 DUP3 DUP6 ADD PUSH2 0x685A JUMP JUMPDEST PUSH1 0x20 DUP4 ADD MSTORE POP PUSH1 0x40 PUSH2 0x691D DUP5 DUP3 DUP6 ADD PUSH2 0x662E JUMP JUMPDEST PUSH1 0x40 DUP4 ADD MSTORE POP PUSH1 0x60 PUSH2 0x6931 DUP5 DUP3 DUP6 ADD PUSH2 0x6894 JUMP JUMPDEST PUSH1 0x60 DUP4 ADD MSTORE POP SWAP3 SWAP2 POP POP JUMP JUMPDEST PUSH1 0x0 PUSH1 0x20 DUP3 DUP5 SUB SLT ISZERO PUSH2 0x6953 JUMPI PUSH2 0x6952 PUSH2 0x4C73 JUMP JUMPDEST JUMPDEST PUSH1 0x0 DUP3 ADD MLOAD PUSH8 0xFFFFFFFFFFFFFFFF DUP2 GT ISZERO PUSH2 0x6971 JUMPI PUSH2 0x6970 PUSH2 0x4C78 JUMP JUMPDEST JUMPDEST PUSH2 0x697D DUP5 DUP3 DUP6 ADD PUSH2 0x68A9 JUMP JUMPDEST SWAP2 POP POP SWAP3 SWAP2 POP POP JUMP JUMPDEST PUSH32 0x73746172747570206E616D652073686F756C64206E6F7420626520656D707479 PUSH1 0x0 DUP3 ADD MSTORE POP JUMP JUMPDEST PUSH1 0x0 PUSH2 0x69BC PUSH1 0x20 DUP4 PUSH2 0x4D77 JUMP JUMPDEST SWAP2 POP PUSH2 0x69C7 DUP3 PUSH2 0x6986 JUMP JUMPDEST PUSH1 0x20 DUP3 ADD SWAP1 POP SWAP2 SWAP1 POP JUMP JUMPDEST PUSH1 0x0 PUSH1 0x20 DUP3 ADD SWAP1 POP DUP2 DUP2 SUB PUSH1 0x0 DUP4 ADD MSTORE PUSH2 0x69EB DUP2 PUSH2 0x69AF JUMP JUMPDEST SWAP1 POP SWAP2 SWAP1 POP JUMP JUMPDEST PUSH32 0x7374617274757020746F6B656E206F666665722073686F756C64206E6F742062 PUSH1 0x0 DUP3 ADD MSTORE PUSH32 0x65207A65726F0000000000000000000000000000000000000000000000000000 PUSH1 0x20 DUP3 ADD MSTORE POP JUMP JUMPDEST PUSH1 0x0 PUSH2 0x6A4E PUSH1 0x26 DUP4 PUSH2 0x4D77 JUMP JUMPDEST SWAP2 POP PUSH2 0x6A59 DUP3 PUSH2 0x69F2 JUMP JUMPDEST PUSH1 0x40 DUP3 ADD SWAP1 POP SWAP2 SWAP1 POP JUMP JUMPDEST PUSH1 0x0 PUSH1 0x20 DUP3 ADD SWAP1 POP DUP2 DUP2 SUB PUSH1 0x0 DUP4 ADD MSTORE PUSH2 0x6A7D DUP2 PUSH2 0x6A41 JUMP JUMPDEST SWAP1 POP SWAP2 SWAP1 POP JUMP JUMPDEST PUSH32 0x7374617274757020736861726564207374616B652073686F756C64206E6F7420 PUSH1 0x0 DUP3 ADD MSTORE PUSH32 0x6265207A65726F00000000000000000000000000000000000000000000000000 PUSH1 0x20 DUP3 ADD MSTORE POP JUMP JUMPDEST PUSH1 0x0 PUSH2 0x6AE0 PUSH1 0x27 DUP4 PUSH2 0x4D77 JUMP JUMPDEST SWAP2 POP PUSH2 0x6AEB DUP3 PUSH2 0x6A84 JUMP JUMPDEST PUSH1 0x40 DUP3 ADD SWAP1 POP SWAP2 SWAP1 POP JUMP JUMPDEST PUSH1 0x0 PUSH1 0x20 DUP3 ADD SWAP1 POP DUP2 DUP2 SUB PUSH1 0x0 DUP4 ADD MSTORE PUSH2 0x6B0F DUP2 PUSH2 0x6AD3 JUMP JUMPDEST SWAP1 POP SWAP2 SWAP1 POP JUMP JUMPDEST PUSH32 0x7374617274757020454F412073686F756C64206E6F74206265207A65726F0000 PUSH1 0x0 DUP3 ADD MSTORE POP JUMP JUMPDEST PUSH1 0x0 PUSH2 0x6B4C PUSH1 0x1E DUP4 PUSH2 0x4D77 JUMP JUMPDEST SWAP2 POP PUSH2 0x6B57 DUP3 PUSH2 0x6B16 JUMP JUMPDEST PUSH1 0x20 DUP3 ADD SWAP1 POP SWAP2 SWAP1 POP JUMP JUMPDEST PUSH1 0x0 PUSH1 0x20 DUP3 ADD SWAP1 POP DUP2 DUP2 SUB PUSH1 0x0 DUP4 ADD MSTORE PUSH2 0x6B7B DUP2 PUSH2 0x6B3F JUMP JUMPDEST SWAP1 POP SWAP2 SWAP1 POP JUMP JUMPDEST PUSH2 0x6B8B DUP2 PUSH2 0x686F JUMP JUMPDEST DUP3 MSTORE POP POP JUMP JUMPDEST PUSH1 0x0 PUSH1 0xA0 DUP3 ADD SWAP1 POP PUSH2 0x6BA6 PUSH1 0x0 DUP4 ADD DUP9 PUSH2 0x4D42 JUMP JUMPDEST PUSH2 0x6BB3 PUSH1 0x20 DUP4 ADD DUP8 PUSH2 0x510C JUMP JUMPDEST PUSH2 0x6BC0 PUSH1 0x40 DUP4 ADD DUP7 PUSH2 0x510C JUMP JUMPDEST DUP2 DUP2 SUB PUSH1 0x60 DUP4 ADD MSTORE PUSH2 0x6BD2 DUP2 DUP6 PUSH2 0x4DCC JUMP JUMPDEST SWAP1 POP PUSH2 0x6BE1 PUSH1 0x80 DUP4 ADD DUP5 PUSH2 0x6B82 JUMP JUMPDEST SWAP7 SWAP6 POP POP POP POP POP POP JUMP JUMPDEST PUSH1 0x0 PUSH1 0x80 DUP3 DUP5 SUB SLT ISZERO PUSH2 0x6C01 JUMPI PUSH2 0x6C00 PUSH2 0x546B JUMP JUMPDEST JUMPDEST PUSH2 0x6C0B PUSH1 0x80 PUSH2 0x4EF7 JUMP JUMPDEST SWAP1 POP PUSH1 0x0 DUP3 ADD MLOAD PUSH8 0xFFFFFFFFFFFFFFFF DUP2 GT ISZERO PUSH2 0x6C2B JUMPI PUSH2 0x6C2A PUSH2 0x5470 JUMP JUMPDEST JUMPDEST PUSH2 0x6C37 DUP5 DUP3 DUP6 ADD PUSH2 0x6600 JUMP JUMPDEST PUSH1 0x0 DUP4 ADD MSTORE POP PUSH1 0x20 PUSH2 0x6C4B DUP5 DUP3 DUP6 ADD PUSH2 0x685A JUMP JUMPDEST PUSH1 0x20 DUP4 ADD MSTORE POP PUSH1 0x40 PUSH2 0x6C5F DUP5 DUP3 DUP6 ADD PUSH2 0x662E JUMP JUMPDEST PUSH1 0x40 DUP4 ADD MSTORE POP PUSH1 0x60 PUSH2 0x6C73 DUP5 DUP3 DUP6 ADD PUSH2 0x6894 JUMP JUMPDEST PUSH1 0x60 DUP4 ADD MSTORE POP SWAP3 SWAP2 POP POP JUMP JUMPDEST PUSH1 0x0 PUSH1 0x20 DUP3 DUP5 SUB SLT ISZERO PUSH2 0x6C95 JUMPI PUSH2 0x6C94 PUSH2 0x4C73 JUMP JUMPDEST JUMPDEST PUSH1 0x0 DUP3 ADD MLOAD PUSH8 0xFFFFFFFFFFFFFFFF DUP2 GT ISZERO PUSH2 0x6CB3 JUMPI PUSH2 0x6CB2 PUSH2 0x4C78 JUMP JUMPDEST JUMPDEST PUSH2 0x6CBF DUP5 DUP3 DUP6 ADD PUSH2 0x6BEB JUMP JUMPDEST SWAP2 POP POP SWAP3 SWAP2 POP POP JUMP JUMPDEST PUSH32 0x76616C696461746F7220454F412073686F756C64206E6F74206265207A65726F PUSH1 0x0 DUP3 ADD MSTORE POP JUMP JUMPDEST PUSH1 0x0 PUSH2 0x6CFE PUSH1 0x20 DUP4 PUSH2 0x4D77 JUMP JUMPDEST SWAP2 POP PUSH2 0x6D09 DUP3 PUSH2 0x6CC8 JUMP JUMPDEST PUSH1 0x20 DUP3 ADD SWAP1 POP SWAP2 SWAP1 POP JUMP JUMPDEST PUSH1 0x0 PUSH1 0x20 DUP3 ADD SWAP1 POP DUP2 DUP2 SUB PUSH1 0x0 DUP4 ADD MSTORE PUSH2 0x6D2D DUP2 PUSH2 0x6CF1 JUMP JUMPDEST SWAP1 POP SWAP2 SWAP1 POP JUMP JUMPDEST PUSH1 0x0 PUSH1 0x20 DUP3 DUP5 SUB SLT ISZERO PUSH2 0x6D4A JUMPI PUSH2 0x6D49 PUSH2 0x546B JUMP JUMPDEST JUMPDEST PUSH2 0x6D54 PUSH1 0x20 PUSH2 0x4EF7 JUMP JUMPDEST SWAP1 POP PUSH1 0x0 PUSH2 0x6D64 DUP5 DUP3 DUP6 ADD PUSH2 0x662E JUMP JUMPDEST PUSH1 0x0 DUP4 ADD MSTORE POP SWAP3 SWAP2 POP POP JUMP JUMPDEST PUSH1 0x0 PUSH1 0x20 DUP3 DUP5 SUB SLT ISZERO PUSH2 0x6D86 JUMPI PUSH2 0x6D85 PUSH2 0x4C73 JUMP JUMPDEST JUMPDEST PUSH1 0x0 PUSH2 0x6D94 DUP5 DUP3 DUP6 ADD PUSH2 0x6D34 JUMP JUMPDEST SWAP2 POP POP SWAP3 SWAP2 POP POP JUMP JUMPDEST PUSH32 0x467265657A653A206163636F756E742073686F756C64206E6F74206265207A65 PUSH1 0x0 DUP3 ADD MSTORE PUSH32 0x726F000000000000000000000000000000000000000000000000000000000000 PUSH1 0x20 DUP3 ADD MSTORE POP JUMP JUMPDEST PUSH1 0x0 PUSH2 0x6DF9 PUSH1 0x22 DUP4 PUSH2 0x4D77 JUMP JUMPDEST SWAP2 POP PUSH2 0x6E04 DUP3 PUSH2 0x6D9D JUMP JUMPDEST PUSH1 0x40 DUP3 ADD SWAP1 POP SWAP2 SWAP1 POP JUMP JUMPDEST PUSH1 0x0 PUSH1 0x20 DUP3 ADD SWAP1 POP DUP2 DUP2 SUB PUSH1 0x0 DUP4 ADD MSTORE PUSH2 0x6E28 DUP2 PUSH2 0x6DEC JUMP JUMPDEST SWAP1 POP SWAP2 SWAP1 POP JUMP JUMPDEST PUSH1 0x0 PUSH1 0x40 DUP3 ADD SWAP1 POP PUSH2 0x6E44 PUSH1 0x0 DUP4 ADD DUP6 PUSH2 0x510C JUMP JUMPDEST PUSH2 0x6E51 PUSH1 0x20 DUP4 ADD DUP5 PUSH2 0x510C JUMP JUMPDEST SWAP4 SWAP3 POP POP POP JUMP JUMPDEST PUSH1 0x0 PUSH1 0x20 DUP3 DUP5 SUB SLT ISZERO PUSH2 0x6E6E JUMPI PUSH2 0x6E6D PUSH2 0x546B JUMP JUMPDEST JUMPDEST PUSH2 0x6E78 PUSH1 0x20 PUSH2 0x4EF7 JUMP JUMPDEST SWAP1 POP PUSH1 0x0 PUSH2 0x6E88 DUP5 DUP3 DUP6 ADD PUSH2 0x662E JUMP JUMPDEST PUSH1 0x0 DUP4 ADD MSTORE POP SWAP3 SWAP2 POP POP JUMP JUMPDEST PUSH1 0x0 PUSH1 0x20 DUP3 DUP5 SUB SLT ISZERO PUSH2 0x6EAA JUMPI PUSH2 0x6EA9 PUSH2 0x4C73 JUMP JUMPDEST JUMPDEST PUSH1 0x0 PUSH2 0x6EB8 DUP5 DUP3 DUP6 ADD PUSH2 0x6E58 JUMP JUMPDEST SWAP2 POP POP SWAP3 SWAP2 POP POP JUMP JUMPDEST PUSH32 0x556E667265657A653A206163636F756E742073686F756C64206E6F7420626520 PUSH1 0x0 DUP3 ADD MSTORE PUSH32 0x7A65726F00000000000000000000000000000000000000000000000000000000 PUSH1 0x20 DUP3 ADD MSTORE POP JUMP JUMPDEST PUSH1 0x0 PUSH2 0x6F1D PUSH1 0x24 DUP4 PUSH2 0x4D77 JUMP JUMPDEST SWAP2 POP PUSH2 0x6F28 DUP3 PUSH2 0x6EC1 JUMP JUMPDEST PUSH1 0x40 DUP3 ADD SWAP1 POP SWAP2 SWAP1 POP JUMP JUMPDEST PUSH1 0x0 PUSH1 0x20 DUP3 ADD SWAP1 POP DUP2 DUP2 SUB PUSH1 0x0 DUP4 ADD MSTORE PUSH2 0x6F4C DUP2 PUSH2 0x6F10 JUMP JUMPDEST SWAP1 POP SWAP2 SWAP1 POP JUMP JUMPDEST PUSH32 0x496E697469616C697A61626C653A20636F6E747261637420697320616C726561 PUSH1 0x0 DUP3 ADD MSTORE PUSH32 0x647920696E697469616C697A6564000000000000000000000000000000000000 PUSH1 0x20 DUP3 ADD MSTORE POP JUMP JUMPDEST PUSH1 0x0 PUSH2 0x6FAF PUSH1 0x2E DUP4 PUSH2 0x4D77 JUMP JUMPDEST SWAP2 POP PUSH2 0x6FBA DUP3 PUSH2 0x6F53 JUMP JUMPDEST PUSH1 0x40 DUP3 ADD SWAP1 POP SWAP2 SWAP1 POP JUMP JUMPDEST PUSH1 0x0 PUSH1 0x20 DUP3 ADD SWAP1 POP DUP2 DUP2 SUB PUSH1 0x0 DUP4 ADD MSTORE PUSH2 0x6FDE DUP2 PUSH2 0x6FA2 JUMP JUMPDEST SWAP1 POP SWAP2 SWAP1 POP JUMP JUMPDEST PUSH32 0x496E697469616C697A61626C653A20636F6E7472616374206973206E6F742069 PUSH1 0x0 DUP3 ADD MSTORE PUSH32 0x6E697469616C697A696E67000000000000000000000000000000000000000000 PUSH1 0x20 DUP3 ADD MSTORE POP JUMP JUMPDEST PUSH1 0x0 PUSH2 0x7041 PUSH1 0x2B DUP4 PUSH2 0x4D77 JUMP JUMPDEST SWAP2 POP PUSH2 0x704C DUP3 PUSH2 0x6FE5 JUMP JUMPDEST PUSH1 0x40 DUP3 ADD SWAP1 POP SWAP2 SWAP1 POP JUMP JUMPDEST PUSH1 0x0 PUSH1 0x20 DUP3 ADD SWAP1 POP DUP2 DUP2 SUB PUSH1 0x0 DUP4 ADD MSTORE PUSH2 0x7070 DUP2 PUSH2 0x7034 JUMP JUMPDEST SWAP1 POP SWAP2 SWAP1 POP JUMP JUMPDEST PUSH1 0x0 PUSH2 0x7082 DUP3 PUSH2 0x4D38 JUMP JUMPDEST SWAP2 POP PUSH2 0x708D DUP4 PUSH2 0x4D38 JUMP JUMPDEST SWAP3 POP DUP2 PUSH32 0xFFFFFFFFFFFFFFFFFFFFFFFFFFFFFFFFFFFFFFFFFFFFFFFFFFFFFFFFFFFFFFFF DIV DUP4 GT DUP3 ISZERO ISZERO AND ISZERO PUSH2 0x70C6 JUMPI PUSH2 0x70C5 PUSH2 0x5A43 JUMP JUMPDEST JUMPDEST DUP3 DUP3 MUL SWAP1 POP SWAP3 SWAP2 POP POP JUMP JUMPDEST PUSH1 0x0 PUSH2 0x70DC DUP3 PUSH2 0x4D38 JUMP JUMPDEST SWAP2 POP PUSH2 0x70E7 DUP4 PUSH2 0x4D38 JUMP JUMPDEST SWAP3 POP DUP3 PUSH2 0x70F7 JUMPI PUSH2 0x70F6 PUSH2 0x6524 JUMP JUMPDEST JUMPDEST DUP3 DUP3 DIV SWAP1 POP SWAP3 SWAP2 POP POP JUMP JUMPDEST PUSH1 0x0 DUP2 SWAP1 POP SWAP3 SWAP2 POP POP JUMP JUMPDEST PUSH32 0x416363657373436F6E74726F6C3A206163636F756E7420000000000000000000 PUSH1 0x0 DUP3 ADD MSTORE POP JUMP JUMPDEST PUSH1 0x0 PUSH2 0x7143 PUSH1 0x17 DUP4 PUSH2 0x7102 JUMP JUMPDEST SWAP2 POP PUSH2 0x714E DUP3 PUSH2 0x710D JUMP JUMPDEST PUSH1 0x17 DUP3 ADD SWAP1 POP SWAP2 SWAP1 POP JUMP JUMPDEST PUSH1 0x0 PUSH2 0x7164 DUP3 PUSH2 0x4D6C JUMP JUMPDEST PUSH2 0x716E DUP2 DUP6 PUSH2 0x7102 JUMP JUMPDEST SWAP4 POP PUSH2 0x717E DUP2 DUP6 PUSH1 0x20 DUP7 ADD PUSH2 0x4D88 JUMP JUMPDEST DUP1 DUP5 ADD SWAP2 POP POP SWAP3 SWAP2 POP POP JUMP JUMPDEST PUSH32 0x206973206D697373696E6720726F6C6520000000000000000000000000000000 PUSH1 0x0 DUP3 ADD MSTORE POP JUMP JUMPDEST PUSH1 0x0 PUSH2 0x71C0 PUSH1 0x11 DUP4 PUSH2 0x7102 JUMP JUMPDEST SWAP2 POP PUSH2 0x71CB DUP3 PUSH2 0x718A JUMP JUMPDEST PUSH1 0x11 DUP3 ADD SWAP1 POP SWAP2 SWAP1 POP JUMP JUMPDEST PUSH1 0x0 PUSH2 0x71E1 DUP3 PUSH2 0x7136 JUMP JUMPDEST SWAP2 POP PUSH2 0x71ED DUP3 DUP6 PUSH2 0x7159 JUMP JUMPDEST SWAP2 POP PUSH2 0x71F8 DUP3 PUSH2 0x71B3 JUMP JUMPDEST SWAP2 POP PUSH2 0x7204 DUP3 DUP5 PUSH2 0x7159 JUMP JUMPDEST SWAP2 POP DUP2 SWAP1 POP SWAP4 SWAP3 POP POP POP JUMP JUMPDEST PUSH32 0x455243313936373A206E657720696D706C656D656E746174696F6E206973206E PUSH1 0x0 DUP3 ADD MSTORE PUSH32 0x6F74206120636F6E747261637400000000000000000000000000000000000000 PUSH1 0x20 DUP3 ADD MSTORE POP JUMP JUMPDEST PUSH1 0x0 PUSH2 0x726C PUSH1 0x2D DUP4 PUSH2 0x4D77 JUMP JUMPDEST SWAP2 POP PUSH2 0x7277 DUP3 PUSH2 0x7210 JUMP JUMPDEST PUSH1 0x40 DUP3 ADD SWAP1 POP SWAP2 SWAP1 POP JUMP JUMPDEST PUSH1 0x0 PUSH1 0x20 DUP3 ADD SWAP1 POP DUP2 DUP2 SUB PUSH1 0x0 DUP4 ADD MSTORE PUSH2 0x729B DUP2 PUSH2 0x725F JUMP JUMPDEST SWAP1 POP SWAP2 SWAP1 POP JUMP JUMPDEST PUSH1 0x0 PUSH1 0x60 DUP3 ADD SWAP1 POP PUSH2 0x72B7 PUSH1 0x0 DUP4 ADD DUP7 PUSH2 0x56AF JUMP JUMPDEST PUSH2 0x72C4 PUSH1 0x20 DUP4 ADD DUP6 PUSH2 0x56AF JUMP JUMPDEST PUSH2 0x72D1 PUSH1 0x40 DUP4 ADD DUP5 PUSH2 0x4D42 JUMP JUMPDEST SWAP5 SWAP4 POP POP POP POP JUMP JUMPDEST PUSH1 0x0 DUP2 SWAP1 POP SWAP3 SWAP2 POP POP JUMP JUMPDEST PUSH1 0x0 PUSH2 0x72EF DUP3 PUSH2 0x607F JUMP JUMPDEST PUSH2 0x72F9 DUP2 DUP6 PUSH2 0x72D9 JUMP JUMPDEST SWAP4 POP PUSH2 0x7309 DUP2 DUP6 PUSH1 0x20 DUP7 ADD PUSH2 0x4D88 JUMP JUMPDEST DUP1 DUP5 ADD SWAP2 POP POP SWAP3 SWAP2 POP POP JUMP JUMPDEST PUSH1 0x0 PUSH2 0x7321 DUP3 DUP5 PUSH2 0x72E4 JUMP JUMPDEST SWAP2 POP DUP2 SWAP1 POP SWAP3 SWAP2 POP POP JUMP JUMPDEST PUSH32 0x457865637574653A207472616E73666572206661696C65732120000000000000 PUSH1 0x0 DUP3 ADD MSTORE POP JUMP JUMPDEST PUSH1 0x0 PUSH2 0x7362 PUSH1 0x1A DUP4 PUSH2 0x4D77 JUMP JUMPDEST SWAP2 POP PUSH2 0x736D DUP3 PUSH2 0x732C JUMP JUMPDEST PUSH1 0x20 DUP3 ADD SWAP1 POP SWAP2 SWAP1 POP JUMP JUMPDEST PUSH1 0x0 PUSH1 0x20 DUP3 ADD SWAP1 POP DUP2 DUP2 SUB PUSH1 0x0 DUP4 ADD MSTORE PUSH2 0x7391 DUP2 PUSH2 0x7355 JUMP JUMPDEST SWAP1 POP SWAP2 SWAP1 POP JUMP JUMPDEST PUSH1 0x0 PUSH2 0x73A3 DUP3 PUSH2 0x4D38 JUMP JUMPDEST SWAP2 POP PUSH32 0xFFFFFFFFFFFFFFFFFFFFFFFFFFFFFFFFFFFFFFFFFFFFFFFFFFFFFFFFFFFFFFFF DUP3 SUB PUSH2 0x73D5 JUMPI PUSH2 0x73D4 PUSH2 0x5A43 JUMP JUMPDEST JUMPDEST PUSH1 0x1 DUP3 ADD SWAP1 POP SWAP2 SWAP1 POP JUMP JUMPDEST PUSH32 0x457865637574653A20667265657A65206163636F756E74206661696C65640000 PUSH1 0x0 DUP3 ADD MSTORE POP JUMP JUMPDEST PUSH1 0x0 PUSH2 0x7416 PUSH1 0x1E DUP4 PUSH2 0x4D77 JUMP JUMPDEST SWAP2 POP PUSH2 0x7421 DUP3 PUSH2 0x73E0 JUMP JUMPDEST PUSH1 0x20 DUP3 ADD SWAP1 POP SWAP2 SWAP1 POP JUMP JUMPDEST PUSH1 0x0 PUSH1 0x20 DUP3 ADD SWAP1 POP DUP2 DUP2 SUB PUSH1 0x0 DUP4 ADD MSTORE PUSH2 0x7445 DUP2 PUSH2 0x7409 JUMP JUMPDEST SWAP1 POP SWAP2 SWAP1 POP JUMP JUMPDEST PUSH32 0x457865637574653A20556E667265657A65206163636F756E74206661696C6564 PUSH1 0x0 DUP3 ADD MSTORE POP JUMP JUMPDEST PUSH1 0x0 PUSH2 0x7482 PUSH1 0x20 DUP4 PUSH2 0x4D77 JUMP JUMPDEST SWAP2 POP PUSH2 0x748D DUP3 PUSH2 0x744C JUMP JUMPDEST PUSH1 0x20 DUP3 ADD SWAP1 POP SWAP2 SWAP1 POP JUMP JUMPDEST PUSH1 0x0 PUSH1 0x20 DUP3 ADD SWAP1 POP DUP2 DUP2 SUB PUSH1 0x0 DUP4 ADD MSTORE PUSH2 0x74B1 DUP2 PUSH2 0x7475 JUMP JUMPDEST SWAP1 POP SWAP2 SWAP1 POP JUMP JUMPDEST PUSH1 0x0 PUSH2 0x74C3 DUP3 PUSH2 0x4D38 JUMP JUMPDEST SWAP2 POP PUSH2 0x74CE DUP4 PUSH2 0x4D38 JUMP JUMPDEST SWAP3 POP DUP3 PUSH32 0xFFFFFFFFFFFFFFFFFFFFFFFFFFFFFFFFFFFFFFFFFFFFFFFFFFFFFFFFFFFFFFFF SUB DUP3 GT ISZERO PUSH2 0x7503 JUMPI PUSH2 0x7502 PUSH2 0x5A43 JUMP JUMPDEST JUMPDEST DUP3 DUP3 ADD SWAP1 POP SWAP3 SWAP2 POP POP JUMP JUMPDEST PUSH32 0x4E487B7100000000000000000000000000000000000000000000000000000000 PUSH1 0x0 MSTORE PUSH1 0x32 PUSH1 0x4 MSTORE PUSH1 0x24 PUSH1 0x0 REVERT JUMPDEST PUSH1 0x0 PUSH2 0x7548 DUP3 PUSH2 0x4D38 JUMP JUMPDEST SWAP2 POP PUSH1 0x0 DUP3 SUB PUSH2 0x755B JUMPI PUSH2 0x755A PUSH2 0x5A43 JUMP JUMPDEST JUMPDEST PUSH1 0x1 DUP3 SUB SWAP1 POP SWAP2 SWAP1 POP JUMP JUMPDEST PUSH32 0x537472696E67733A20686578206C656E67746820696E73756666696369656E74 PUSH1 0x0 DUP3 ADD MSTORE POP JUMP JUMPDEST PUSH1 0x0 PUSH2 0x759C PUSH1 0x20 DUP4 PUSH2 0x4D77 JUMP JUMPDEST SWAP2 POP PUSH2 0x75A7 DUP3 PUSH2 0x7566 JUMP JUMPDEST PUSH1 0x20 DUP3 ADD SWAP1 POP SWAP2 SWAP1 POP JUMP JUMPDEST PUSH1 0x0 PUSH1 0x20 DUP3 ADD SWAP1 POP DUP2 DUP2 SUB PUSH1 0x0 DUP4 ADD MSTORE PUSH2 0x75CB DUP2 PUSH2 0x758F JUMP JUMPDEST SWAP1 POP SWAP2 SWAP1 POP JUMP JUMPDEST PUSH32 0x416464726573733A2064656C65676174652063616C6C20746F206E6F6E2D636F PUSH1 0x0 DUP3 ADD MSTORE PUSH32 0x6E74726163740000000000000000000000000000000000000000000000000000 PUSH1 0x20 DUP3 ADD MSTORE POP JUMP JUMPDEST PUSH1 0x0 PUSH2 0x762E PUSH1 0x26 DUP4 PUSH2 0x4D77 JUMP JUMPDEST SWAP2 POP PUSH2 0x7639 DUP3 PUSH2 0x75D2 JUMP JUMPDEST PUSH1 0x40 DUP3 ADD SWAP1 POP SWAP2 SWAP1 POP JUMP JUMPDEST PUSH1 0x0 PUSH1 0x20 DUP3 ADD SWAP1 POP DUP2 DUP2 SUB PUSH1 0x0 DUP4 ADD MSTORE PUSH2 0x765D DUP2 PUSH2 0x7621 JUMP JUMPDEST SWAP1 POP SWAP2 SWAP1 POP JUMP INVALID COINBASE PUSH5 0x6472657373 GASPRICE KECCAK256 PUSH13 0x6F772D6C6576656C2064656C65 PUSH8 0x6174652063616C6C KECCAK256 PUSH7 0x61696C6564A264 PUSH10 0x70667358221220876AB0 SHL PUSH13 0x3667CCE7EA7D85973FA0F7274C 0xDF 0xA7 0xEA SLOAD PUSH24 0x92AFBFA36E52F1805064736F6C634300080E003300000000 "
    },
    "gasEstimates": {
      "creation": {
        "codeDepositCost": "6080200",
        "executionCost": "infinite",
        "totalCost": "infinite"
      },
      "external": {
        "ADMIN_ROLE()": "397",
        "BALLOT_TYPEHASH()": "440",
        "CONSENSUS_ROLE()": "417",
        "DEFAULT_ADMIN_ROLE()": "402",
        "FREEZE_ACCOUNT_SIGNATURE()": "424",
        "TRANSFER_SIGNATURE()": "379",
        "UNFREEZE_ACCOUNT_SIGNATURE()": "446",
        "cancel(uint256,string)": "infinite",
        "castVote(string,uint256,uint8)": "infinite",
        "commissionWallet()": "2559",
        "disableValidator(address)": "infinite",
        "execute(uint256)": "infinite",
        "getRoleAdmin(bytes32)": "infinite",
        "grantRole(bytes32,address)": "infinite",
        "hasRole(bytes32,address)": "3230",
        "hasVoted(uint256,address)": "infinite",
        "hashProposal(bytes32,bytes32,uint256,address,uint8,uint8,bytes)": "infinite",
        "initialize(address,address,address,address,string,string)": "infinite",
        "innTokenAddress()": "2580",
        "isValidator(address)": "2993",
        "name()": "infinite",
        "propose((bytes32,uint256,uint8,uint8,string,bytes))": "infinite",
        "proxiableUUID()": "infinite",
        "renounceRole(bytes32,address)": "infinite",
        "reservedWallet()": "2559",
        "revokeRole(bytes32,address)": "infinite",
        "state(uint256)": "infinite",
        "supportsInterface(bytes4)": "774",
        "upgradeTo(address)": "infinite",
        "upgradeToAndCall(address,bytes)": "infinite",
        "validatorCount()": "2584",
        "version()": "infinite",
        "votingDelay()": "2541",
        "votingPeriod()": "2498"
      },
      "internal": {
        "_authorizeUpgrade(address)": "infinite",
        "_castVote(uint256,address,enum IGovernorINN.VoteType,string memory)": "infinite",
        "_execute(struct InnGovernor.ProposalCore storage pointer)": "infinite",
        "_freezeAccount(address)": "infinite",
        "_fullQuorum(uint256)": "infinite",
        "_generateProposalCreationEvent(struct InnGovernor.ProposalCore storage pointer)": "infinite",
        "_quorumReached(uint256)": "infinite",
        "_sendRewards(uint256,uint256)": "infinite",
        "_transferCommission(address,uint256)": "infinite",
        "_transferToken(address,uint256)": "infinite",
        "_unfreezeAccount(address)": "infinite"
      }
    },
    "methodIdentifiers": {
      "ADMIN_ROLE()": "75b238fc",
      "BALLOT_TYPEHASH()": "deaaa7cc",
      "CONSENSUS_ROLE()": "fa2dabad",
      "DEFAULT_ADMIN_ROLE()": "a217fddf",
      "FREEZE_ACCOUNT_SIGNATURE()": "afdf6710",
      "TRANSFER_SIGNATURE()": "e0310e52",
      "UNFREEZE_ACCOUNT_SIGNATURE()": "c0e6d5d6",
      "cancel(uint256,string)": "1536f472",
      "castVote(string,uint256,uint8)": "31cb9866",
      "commissionWallet()": "97c0262a",
      "disableValidator(address)": "1fe97684",
      "execute(uint256)": "fe0d94c1",
      "getRoleAdmin(bytes32)": "248a9ca3",
      "grantRole(bytes32,address)": "2f2ff15d",
      "hasRole(bytes32,address)": "91d14854",
      "hasVoted(uint256,address)": "43859632",
      "hashProposal(bytes32,bytes32,uint256,address,uint8,uint8,bytes)": "c4865b0f",
      "initialize(address,address,address,address,string,string)": "9317c200",
      "innTokenAddress()": "f8c662ff",
      "isValidator(address)": "facd743b",
      "name()": "06fdde03",
      "propose((bytes32,uint256,uint8,uint8,string,bytes))": "7005026b",
      "proxiableUUID()": "52d1902d",
      "renounceRole(bytes32,address)": "36568abe",
      "reservedWallet()": "c22ab4e0",
      "revokeRole(bytes32,address)": "d547741f",
      "state(uint256)": "3e4f49e6",
      "supportsInterface(bytes4)": "01ffc9a7",
      "upgradeTo(address)": "3659cfe6",
      "upgradeToAndCall(address,bytes)": "4f1ef286",
      "validatorCount()": "0f43a677",
      "version()": "54fd4d50",
      "votingDelay()": "3932abb1",
      "votingPeriod()": "02a251a3"
    }
  },
  "storageLayout": {
    "storage": [
      {
        "astId": 808,
        "contract": "src/contracts/IGovernorINNImpl.sol:InnGovernor",
        "label": "_initialized",
        "offset": 0,
        "slot": "0",
        "type": "t_uint8"
      },
      {
        "astId": 811,
        "contract": "src/contracts/IGovernorINNImpl.sol:InnGovernor",
        "label": "_initializing",
        "offset": 1,
        "slot": "0",
        "type": "t_bool"
      },
      {
        "astId": 790,
        "contract": "src/contracts/IGovernorINNImpl.sol:InnGovernor",
        "label": "__gap",
        "offset": 0,
        "slot": "1",
        "type": "t_array(t_uint256)50_storage"
      },
      {
        "astId": 1078,
        "contract": "src/contracts/IGovernorINNImpl.sol:InnGovernor",
        "label": "__gap",
        "offset": 0,
        "slot": "51",
        "type": "t_array(t_uint256)50_storage"
      },
      {
        "astId": 2257,
        "contract": "src/contracts/IGovernorINNImpl.sol:InnGovernor",
        "label": "_HASHED_NAME",
        "offset": 0,
        "slot": "101",
        "type": "t_bytes32"
      },
      {
        "astId": 2259,
        "contract": "src/contracts/IGovernorINNImpl.sol:InnGovernor",
        "label": "_HASHED_VERSION",
        "offset": 0,
        "slot": "102",
        "type": "t_bytes32"
      },
      {
        "astId": 2397,
        "contract": "src/contracts/IGovernorINNImpl.sol:InnGovernor",
        "label": "__gap",
        "offset": 0,
        "slot": "103",
        "type": "t_array(t_uint256)50_storage"
      },
      {
        "astId": 1363,
        "contract": "src/contracts/IGovernorINNImpl.sol:InnGovernor",
        "label": "__gap",
        "offset": 0,
        "slot": "153",
        "type": "t_array(t_uint256)50_storage"
      },
      {
        "astId": 2441,
        "contract": "src/contracts/IGovernorINNImpl.sol:InnGovernor",
        "label": "__gap",
        "offset": 0,
        "slot": "203",
        "type": "t_array(t_uint256)50_storage"
      },
      {
        "astId": 39,
        "contract": "src/contracts/IGovernorINNImpl.sol:InnGovernor",
        "label": "_roles",
        "offset": 0,
        "slot": "253",
        "type": "t_mapping(t_bytes32,t_struct(RoleData)34_storage)"
      },
      {
        "astId": 338,
        "contract": "src/contracts/IGovernorINNImpl.sol:InnGovernor",
        "label": "__gap",
        "offset": 0,
        "slot": "254",
        "type": "t_array(t_uint256)49_storage"
      },
      {
        "astId": 4155,
        "contract": "src/contracts/IGovernorINNImpl.sol:InnGovernor",
        "label": "votingDelay",
        "offset": 0,
        "slot": "303",
        "type": "t_uint256"
      },
      {
        "astId": 4157,
        "contract": "src/contracts/IGovernorINNImpl.sol:InnGovernor",
        "label": "votingPeriod",
        "offset": 0,
        "slot": "304",
        "type": "t_uint256"
      },
      {
        "astId": 4159,
        "contract": "src/contracts/IGovernorINNImpl.sol:InnGovernor",
        "label": "reservedWallet",
        "offset": 0,
        "slot": "305",
        "type": "t_address"
      },
      {
        "astId": 4161,
        "contract": "src/contracts/IGovernorINNImpl.sol:InnGovernor",
        "label": "commissionWallet",
        "offset": 0,
        "slot": "306",
        "type": "t_address"
      },
      {
        "astId": 4163,
        "contract": "src/contracts/IGovernorINNImpl.sol:InnGovernor",
        "label": "innTokenAddress",
        "offset": 0,
        "slot": "307",
        "type": "t_address"
      },
      {
        "astId": 4167,
        "contract": "src/contracts/IGovernorINNImpl.sol:InnGovernor",
        "label": "_validators",
        "offset": 0,
        "slot": "308",
        "type": "t_mapping(t_address,t_bool)"
      },
      {
        "astId": 4172,
        "contract": "src/contracts/IGovernorINNImpl.sol:InnGovernor",
        "label": "_proposalVotes",
        "offset": 0,
        "slot": "309",
        "type": "t_mapping(t_uint256,t_struct(ProposalVote)4114_storage)"
      },
      {
        "astId": 4177,
        "contract": "src/contracts/IGovernorINNImpl.sol:InnGovernor",
        "label": "_proposals",
        "offset": 0,
        "slot": "310",
        "type": "t_mapping(t_uint256,t_struct(ProposalCore)4104_storage)"
      },
      {
        "astId": 4179,
        "contract": "src/contracts/IGovernorINNImpl.sol:InnGovernor",
        "label": "_domainName",
        "offset": 0,
        "slot": "311",
        "type": "t_string_storage"
      },
      {
        "astId": 4181,
        "contract": "src/contracts/IGovernorINNImpl.sol:InnGovernor",
        "label": "_domainVersion",
        "offset": 0,
        "slot": "312",
        "type": "t_string_storage"
      },
      {
        "astId": 4183,
        "contract": "src/contracts/IGovernorINNImpl.sol:InnGovernor",
        "label": "validatorCount",
        "offset": 0,
        "slot": "313",
        "type": "t_uint32"
      }
    ],
    "types": {
      "t_address": {
        "encoding": "inplace",
        "label": "address",
        "numberOfBytes": "20"
      },
      "t_array(t_bytes32)dyn_storage": {
        "base": "t_bytes32",
        "encoding": "dynamic_array",
        "label": "bytes32[]",
        "numberOfBytes": "32"
      },
      "t_array(t_uint256)49_storage": {
        "base": "t_uint256",
        "encoding": "inplace",
        "label": "uint256[49]",
        "numberOfBytes": "1568"
      },
      "t_array(t_uint256)50_storage": {
        "base": "t_uint256",
        "encoding": "inplace",
        "label": "uint256[50]",
        "numberOfBytes": "1600"
      },
      "t_bool": {
        "encoding": "inplace",
        "label": "bool",
        "numberOfBytes": "1"
      },
      "t_bytes32": {
        "encoding": "inplace",
        "label": "bytes32",
        "numberOfBytes": "32"
      },
      "t_bytes_storage": {
        "encoding": "bytes",
        "label": "bytes",
        "numberOfBytes": "32"
      },
      "t_enum(ActionType)3801": {
        "encoding": "inplace",
        "label": "enum IGovernorINN.ActionType",
        "numberOfBytes": "1"
      },
      "t_enum(ProposalType)3795": {
        "encoding": "inplace",
        "label": "enum IGovernorINN.ProposalType",
        "numberOfBytes": "1"
      },
      "t_mapping(t_address,t_bool)": {
        "encoding": "mapping",
        "key": "t_address",
        "label": "mapping(address => bool)",
        "numberOfBytes": "32",
        "value": "t_bool"
      },
      "t_mapping(t_bytes32,t_struct(RoleData)34_storage)": {
        "encoding": "mapping",
        "key": "t_bytes32",
        "label": "mapping(bytes32 => struct AccessControlUpgradeable.RoleData)",
        "numberOfBytes": "32",
        "value": "t_struct(RoleData)34_storage"
      },
      "t_mapping(t_bytes32,t_uint256)": {
        "encoding": "mapping",
        "key": "t_bytes32",
        "label": "mapping(bytes32 => uint256)",
        "numberOfBytes": "32",
        "value": "t_uint256"
      },
      "t_mapping(t_uint256,t_struct(ProposalCore)4104_storage)": {
        "encoding": "mapping",
        "key": "t_uint256",
        "label": "mapping(uint256 => struct InnGovernor.ProposalCore)",
        "numberOfBytes": "32",
        "value": "t_struct(ProposalCore)4104_storage"
      },
      "t_mapping(t_uint256,t_struct(ProposalVote)4114_storage)": {
        "encoding": "mapping",
        "key": "t_uint256",
        "label": "mapping(uint256 => struct InnGovernor.ProposalVote)",
        "numberOfBytes": "32",
        "value": "t_struct(ProposalVote)4114_storage"
      },
      "t_string_storage": {
        "encoding": "bytes",
        "label": "string",
        "numberOfBytes": "32"
      },
      "t_struct(AddressSet)3495_storage": {
        "encoding": "inplace",
        "label": "struct EnumerableSetUpgradeable.AddressSet",
        "members": [
          {
            "astId": 3494,
            "contract": "src/contracts/IGovernorINNImpl.sol:InnGovernor",
            "label": "_inner",
            "offset": 0,
            "slot": "0",
            "type": "t_struct(Set)3194_storage"
          }
        ],
        "numberOfBytes": "64"
      },
      "t_struct(ProposalCore)4104_storage": {
        "encoding": "inplace",
        "label": "struct InnGovernor.ProposalCore",
        "members": [
          {
            "astId": 4079,
            "contract": "src/contracts/IGovernorINNImpl.sol:InnGovernor",
            "label": "proposalID",
            "offset": 0,
            "slot": "0",
            "type": "t_uint256"
          },
          {
            "astId": 4081,
            "contract": "src/contracts/IGovernorINNImpl.sol:InnGovernor",
            "label": "offchainID",
            "offset": 0,
            "slot": "1",
            "type": "t_bytes32"
          },
          {
            "astId": 4083,
            "contract": "src/contracts/IGovernorINNImpl.sol:InnGovernor",
            "label": "descriptionHash",
            "offset": 0,
            "slot": "2",
            "type": "t_bytes32"
          },
          {
            "astId": 4085,
            "contract": "src/contracts/IGovernorINNImpl.sol:InnGovernor",
            "label": "proposer",
            "offset": 0,
            "slot": "3",
            "type": "t_address"
          },
          {
            "astId": 4088,
            "contract": "src/contracts/IGovernorINNImpl.sol:InnGovernor",
            "label": "votingStartAt",
            "offset": 0,
            "slot": "4",
            "type": "t_struct(Timestamp)1633_storage"
          },
          {
            "astId": 4091,
            "contract": "src/contracts/IGovernorINNImpl.sol:InnGovernor",
            "label": "votingEndAt",
            "offset": 0,
            "slot": "5",
            "type": "t_struct(Timestamp)1633_storage"
          },
          {
            "astId": 4094,
            "contract": "src/contracts/IGovernorINNImpl.sol:InnGovernor",
            "label": "proposalType",
            "offset": 0,
            "slot": "6",
            "type": "t_enum(ProposalType)3795"
          },
          {
            "astId": 4097,
            "contract": "src/contracts/IGovernorINNImpl.sol:InnGovernor",
            "label": "actionType",
            "offset": 1,
            "slot": "6",
            "type": "t_enum(ActionType)3801"
          },
          {
            "astId": 4099,
            "contract": "src/contracts/IGovernorINNImpl.sol:InnGovernor",
            "label": "isExecuted",
            "offset": 2,
            "slot": "6",
            "type": "t_bool"
          },
          {
            "astId": 4101,
            "contract": "src/contracts/IGovernorINNImpl.sol:InnGovernor",
            "label": "isCanceled",
            "offset": 3,
            "slot": "6",
            "type": "t_bool"
          },
          {
            "astId": 4103,
            "contract": "src/contracts/IGovernorINNImpl.sol:InnGovernor",
            "label": "data",
            "offset": 0,
            "slot": "7",
            "type": "t_bytes_storage"
          }
        ],
        "numberOfBytes": "256"
      },
      "t_struct(ProposalVote)4114_storage": {
        "encoding": "inplace",
        "label": "struct InnGovernor.ProposalVote",
        "members": [
          {
            "astId": 4106,
            "contract": "src/contracts/IGovernorINNImpl.sol:InnGovernor",
            "label": "againstVotes",
            "offset": 0,
            "slot": "0",
            "type": "t_uint64"
          },
          {
            "astId": 4108,
            "contract": "src/contracts/IGovernorINNImpl.sol:InnGovernor",
            "label": "forVotes",
            "offset": 8,
            "slot": "0",
            "type": "t_uint64"
          },
          {
            "astId": 4110,
            "contract": "src/contracts/IGovernorINNImpl.sol:InnGovernor",
            "label": "abstainVotes",
            "offset": 16,
            "slot": "0",
            "type": "t_uint64"
          },
          {
            "astId": 4113,
            "contract": "src/contracts/IGovernorINNImpl.sol:InnGovernor",
            "label": "hasVoted",
            "offset": 0,
            "slot": "1",
            "type": "t_struct(AddressSet)3495_storage"
          }
        ],
        "numberOfBytes": "96"
      },
      "t_struct(RoleData)34_storage": {
        "encoding": "inplace",
        "label": "struct AccessControlUpgradeable.RoleData",
        "members": [
          {
            "astId": 31,
            "contract": "src/contracts/IGovernorINNImpl.sol:InnGovernor",
            "label": "members",
            "offset": 0,
            "slot": "0",
            "type": "t_mapping(t_address,t_bool)"
          },
          {
            "astId": 33,
            "contract": "src/contracts/IGovernorINNImpl.sol:InnGovernor",
            "label": "adminRole",
            "offset": 0,
            "slot": "1",
            "type": "t_bytes32"
          }
        ],
        "numberOfBytes": "64"
      },
      "t_struct(Set)3194_storage": {
        "encoding": "inplace",
        "label": "struct EnumerableSetUpgradeable.Set",
        "members": [
          {
            "astId": 3189,
            "contract": "src/contracts/IGovernorINNImpl.sol:InnGovernor",
            "label": "_values",
            "offset": 0,
            "slot": "0",
            "type": "t_array(t_bytes32)dyn_storage"
          },
          {
            "astId": 3193,
            "contract": "src/contracts/IGovernorINNImpl.sol:InnGovernor",
            "label": "_indexes",
            "offset": 0,
            "slot": "1",
            "type": "t_mapping(t_bytes32,t_uint256)"
          }
        ],
        "numberOfBytes": "64"
      },
      "t_struct(Timestamp)1633_storage": {
        "encoding": "inplace",
        "label": "struct TimersUpgradeable.Timestamp",
        "members": [
          {
            "astId": 1632,
            "contract": "src/contracts/IGovernorINNImpl.sol:InnGovernor",
            "label": "_deadline",
            "offset": 0,
            "slot": "0",
            "type": "t_uint64"
          }
        ],
        "numberOfBytes": "32"
      },
      "t_uint256": {
        "encoding": "inplace",
        "label": "uint256",
        "numberOfBytes": "32"
      },
      "t_uint32": {
        "encoding": "inplace",
        "label": "uint32",
        "numberOfBytes": "4"
      },
      "t_uint64": {
        "encoding": "inplace",
        "label": "uint64",
        "numberOfBytes": "8"
      },
      "t_uint8": {
        "encoding": "inplace",
        "label": "uint8",
        "numberOfBytes": "1"
      }
    }
  },
  "userdoc": {
    "kind": "user",
    "methods": {},
    "version": 1
  }
}