{
  "contractName": "IGovernorINNImpl",
  "sourceName": "src/contracts/IGovernorINNImpl.sol",
  "abi": [
    {
      "inputs": [
        {
          "internalType": "uint8",
          "name": "",
          "type": "uint8"
        }
      ],
      "name": "ECDARecoverError",
      "type": "error"
    },
    {
      "anonymous": false,
      "inputs": [
        {
          "indexed": false,
          "internalType": "address",
          "name": "previousAdmin",
          "type": "address"
        },
        {
          "indexed": false,
          "internalType": "address",
          "name": "newAdmin",
          "type": "address"
        }
      ],
      "name": "AdminChanged",
      "type": "event"
    },
    {
      "anonymous": false,
      "inputs": [
        {
          "indexed": true,
          "internalType": "address",
          "name": "beacon",
          "type": "address"
        }
      ],
      "name": "BeaconUpgraded",
      "type": "event"
    },
    {
      "anonymous": false,
      "inputs": [
        {
          "indexed": true,
          "internalType": "bytes32",
          "name": "proposalId",
          "type": "bytes32"
        },
        {
          "indexed": true,
          "internalType": "address",
          "name": "proposer",
          "type": "address"
        },
        {
          "indexed": true,
          "internalType": "address",
          "name": "validatorEOA",
          "type": "address"
        },
        {
          "indexed": false,
          "internalType": "uint256",
          "name": "tokenOffer",
          "type": "uint256"
        },
        {
          "indexed": false,
          "internalType": "bytes32",
          "name": "offchainID",
          "type": "bytes32"
        },
        {
          "indexed": false,
          "internalType": "bytes32",
          "name": "description",
          "type": "bytes32"
        },
        {
          "indexed": false,
          "internalType": "string",
          "name": "startupName",
          "type": "string"
        },
        {
          "indexed": false,
          "internalType": "uint16",
          "name": "sharedStake",
          "type": "uint16"
        }
      ],
      "name": "ExitInvestmentProposalCreated",
      "type": "event"
    },
    {
      "anonymous": false,
      "inputs": [
        {
          "indexed": true,
          "internalType": "bytes32",
          "name": "proposalId",
          "type": "bytes32"
        },
        {
          "indexed": true,
          "internalType": "address",
          "name": "proposer",
          "type": "address"
        },
        {
          "indexed": true,
          "internalType": "address",
          "name": "account",
          "type": "address"
        },
        {
          "indexed": false,
          "internalType": "bytes32",
          "name": "offchainID",
          "type": "bytes32"
        },
        {
          "indexed": false,
          "internalType": "bytes32",
          "name": "description",
          "type": "bytes32"
        }
      ],
      "name": "FreezeInvestmentProposalCreated",
      "type": "event"
    },
    {
      "anonymous": false,
      "inputs": [
        {
          "indexed": false,
          "internalType": "uint8",
          "name": "version",
          "type": "uint8"
        }
      ],
      "name": "Initialized",
      "type": "event"
    },
    {
      "anonymous": false,
      "inputs": [
        {
          "indexed": true,
          "internalType": "bytes32",
          "name": "proposalID",
          "type": "bytes32"
        },
        {
          "indexed": true,
          "internalType": "address",
          "name": "proposer",
          "type": "address"
        },
        {
          "indexed": true,
          "internalType": "address",
          "name": "startupEOA",
          "type": "address"
        },
        {
          "indexed": false,
          "internalType": "uint256",
          "name": "tokenOffer",
          "type": "uint256"
        },
        {
          "indexed": false,
          "internalType": "bytes32",
          "name": "offchainID",
          "type": "bytes32"
        },
        {
          "indexed": false,
          "internalType": "bytes32",
          "name": "description",
          "type": "bytes32"
        },
        {
          "indexed": false,
          "internalType": "string",
          "name": "startupName",
          "type": "string"
        },
        {
          "indexed": false,
          "internalType": "uint16",
          "name": "sharedStake",
          "type": "uint16"
        }
      ],
      "name": "NewInvestmentProposalCreated",
      "type": "event"
    },
    {
      "anonymous": false,
      "inputs": [
        {
          "indexed": true,
          "internalType": "bytes32",
          "name": "proposalID",
          "type": "bytes32"
        },
        {
          "indexed": true,
          "internalType": "address",
          "name": "proposer",
          "type": "address"
        },
        {
          "indexed": true,
          "internalType": "address",
          "name": "validatorEOA",
          "type": "address"
        },
        {
          "indexed": false,
          "internalType": "bytes32",
          "name": "offchainID",
          "type": "bytes32"
        },
        {
          "indexed": false,
          "internalType": "bytes32",
          "name": "description",
          "type": "bytes32"
        },
        {
          "indexed": false,
          "internalType": "string",
          "name": "validatorName",
          "type": "string"
        }
      ],
      "name": "NewValidatorProposalCreated",
      "type": "event"
    },
    {
      "anonymous": false,
      "inputs": [
        {
          "indexed": true,
          "internalType": "bytes32",
          "name": "proposalId",
          "type": "bytes32"
        },
        {
          "indexed": false,
          "internalType": "string",
          "name": "reason",
          "type": "string"
        }
      ],
      "name": "ProposalCanceled",
      "type": "event"
    },
    {
      "anonymous": false,
      "inputs": [
        {
          "indexed": true,
          "internalType": "bytes32",
          "name": "proposalId",
          "type": "bytes32"
        }
      ],
      "name": "ProposalExecuted",
      "type": "event"
    },
    {
      "anonymous": false,
      "inputs": [
        {
          "indexed": true,
          "internalType": "bytes32",
          "name": "role",
          "type": "bytes32"
        },
        {
          "indexed": true,
          "internalType": "bytes32",
          "name": "previousAdminRole",
          "type": "bytes32"
        },
        {
          "indexed": true,
          "internalType": "bytes32",
          "name": "newAdminRole",
          "type": "bytes32"
        }
      ],
      "name": "RoleAdminChanged",
      "type": "event"
    },
    {
      "anonymous": false,
      "inputs": [
        {
          "indexed": true,
          "internalType": "bytes32",
          "name": "role",
          "type": "bytes32"
        },
        {
          "indexed": true,
          "internalType": "address",
          "name": "account",
          "type": "address"
        },
        {
          "indexed": true,
          "internalType": "address",
          "name": "sender",
          "type": "address"
        }
      ],
      "name": "RoleGranted",
      "type": "event"
    },
    {
      "anonymous": false,
      "inputs": [
        {
          "indexed": true,
          "internalType": "bytes32",
          "name": "role",
          "type": "bytes32"
        },
        {
          "indexed": true,
          "internalType": "address",
          "name": "account",
          "type": "address"
        },
        {
          "indexed": true,
          "internalType": "address",
          "name": "sender",
          "type": "address"
        }
      ],
      "name": "RoleRevoked",
      "type": "event"
    },
    {
      "anonymous": false,
      "inputs": [
        {
          "indexed": true,
          "internalType": "bytes32",
          "name": "proposalID",
          "type": "bytes32"
        },
        {
          "indexed": true,
          "internalType": "address",
          "name": "proposer",
          "type": "address"
        },
        {
          "indexed": true,
          "internalType": "address",
          "name": "account",
          "type": "address"
        },
        {
          "indexed": false,
          "internalType": "bytes32",
          "name": "offchainID",
          "type": "bytes32"
        },
        {
          "indexed": false,
          "internalType": "bytes32",
          "name": "description",
          "type": "bytes32"
        }
      ],
      "name": "UnfreezeInvestmentProposalCreated",
      "type": "event"
    },
    {
      "anonymous": false,
      "inputs": [
        {
          "indexed": true,
          "internalType": "address",
          "name": "implementation",
          "type": "address"
        }
      ],
      "name": "Upgraded",
      "type": "event"
    },
    {
      "anonymous": false,
      "inputs": [
        {
          "indexed": true,
          "internalType": "address",
          "name": "voter",
          "type": "address"
        },
        {
          "indexed": true,
          "internalType": "bytes32",
          "name": "proposalId",
          "type": "bytes32"
        },
        {
          "indexed": false,
          "internalType": "enum IGovernorINN.VoteType",
          "name": "vote",
          "type": "uint8"
        },
        {
          "indexed": false,
          "internalType": "string",
          "name": "reason",
          "type": "string"
        }
      ],
      "name": "VoteCast",
      "type": "event"
    },
    {
      "inputs": [],
      "name": "ADMIN_ROLE",
      "outputs": [
        {
          "internalType": "bytes32",
          "name": "",
          "type": "bytes32"
        }
      ],
      "stateMutability": "view",
      "type": "function"
    },
    {
      "inputs": [],
      "name": "CONSENSUS_ROLE",
      "outputs": [
        {
          "internalType": "bytes32",
          "name": "",
          "type": "bytes32"
        }
      ],
      "stateMutability": "view",
      "type": "function"
    },
    {
      "inputs": [],
      "name": "DEFAULT_ADMIN_ROLE",
      "outputs": [
        {
          "internalType": "bytes32",
          "name": "",
          "type": "bytes32"
        }
      ],
      "stateMutability": "view",
      "type": "function"
    },
    {
      "inputs": [],
      "name": "FREEZE_ACCOUNT_SIGNATURE",
      "outputs": [
        {
          "internalType": "bytes4",
          "name": "",
          "type": "bytes4"
        }
      ],
      "stateMutability": "view",
      "type": "function"
    },
    {
      "inputs": [],
      "name": "TRANSFER_SIGNATURE",
      "outputs": [
        {
          "internalType": "bytes4",
          "name": "",
          "type": "bytes4"
        }
      ],
      "stateMutability": "view",
      "type": "function"
    },
    {
      "inputs": [],
      "name": "UNFREEZE_ACCOUNT_SIGNATURE",
      "outputs": [
        {
          "internalType": "bytes4",
          "name": "",
          "type": "bytes4"
        }
      ],
      "stateMutability": "view",
      "type": "function"
    },
    {
      "inputs": [
        {
          "internalType": "bytes32",
          "name": "proposalId",
          "type": "bytes32"
        },
        {
          "internalType": "string",
          "name": "reason",
          "type": "string"
        }
      ],
      "name": "cancel",
      "outputs": [
        {
          "internalType": "bool",
          "name": "",
          "type": "bool"
        }
      ],
      "stateMutability": "nonpayable",
      "type": "function"
    },
    {
      "inputs": [
        {
          "internalType": "string",
          "name": "reason",
          "type": "string"
        },
        {
          "internalType": "bytes32",
          "name": "proposalId",
          "type": "bytes32"
        },
        {
          "internalType": "enum IGovernorINN.VoteType",
          "name": "vote",
          "type": "uint8"
        }
      ],
      "name": "castVote",
      "outputs": [
        {
          "internalType": "bool",
          "name": "",
          "type": "bool"
        }
      ],
      "stateMutability": "nonpayable",
      "type": "function"
    },
    {
      "inputs": [],
      "name": "commissionWallet",
      "outputs": [
        {
          "internalType": "address",
          "name": "",
          "type": "address"
        }
      ],
      "stateMutability": "view",
      "type": "function"
    },
    {
      "inputs": [
        {
          "internalType": "address",
          "name": "validator",
          "type": "address"
        }
      ],
      "name": "disableValidator",
      "outputs": [],
      "stateMutability": "nonpayable",
      "type": "function"
    },
    {
      "inputs": [
        {
          "internalType": "bytes32",
          "name": "proposalId",
          "type": "bytes32"
        }
      ],
      "name": "execute",
      "outputs": [
        {
          "internalType": "bool",
          "name": "",
          "type": "bool"
        }
      ],
      "stateMutability": "payable",
      "type": "function"
    },
    {
      "inputs": [
        {
          "internalType": "bytes32",
          "name": "role",
          "type": "bytes32"
        }
      ],
      "name": "getRoleAdmin",
      "outputs": [
        {
          "internalType": "bytes32",
          "name": "",
          "type": "bytes32"
        }
      ],
      "stateMutability": "view",
      "type": "function"
    },
    {
      "inputs": [
        {
          "internalType": "bytes32",
          "name": "role",
          "type": "bytes32"
        },
        {
          "internalType": "address",
          "name": "account",
          "type": "address"
        }
      ],
      "name": "grantRole",
      "outputs": [],
      "stateMutability": "nonpayable",
      "type": "function"
    },
    {
      "inputs": [
        {
          "internalType": "bytes32",
          "name": "role",
          "type": "bytes32"
        },
        {
          "internalType": "address",
          "name": "account",
          "type": "address"
        }
      ],
      "name": "hasRole",
      "outputs": [
        {
          "internalType": "bool",
          "name": "",
          "type": "bool"
        }
      ],
      "stateMutability": "view",
      "type": "function"
    },
    {
      "inputs": [
        {
          "internalType": "bytes32",
          "name": "proposalId",
          "type": "bytes32"
        },
        {
          "internalType": "address",
          "name": "account",
          "type": "address"
        }
      ],
      "name": "hasVoted",
      "outputs": [
        {
          "internalType": "bool",
          "name": "",
          "type": "bool"
        }
      ],
      "stateMutability": "view",
      "type": "function"
    },
    {
      "inputs": [
        {
          "internalType": "bytes32",
          "name": "offchainID",
          "type": "bytes32"
        },
        {
          "internalType": "bytes32",
          "name": "descriptionHash",
          "type": "bytes32"
        },
        {
          "internalType": "address",
          "name": "proposer",
          "type": "address"
        },
        {
          "internalType": "enum IGovernorINN.ProposalType",
          "name": "proposalType",
          "type": "uint8"
        },
        {
          "internalType": "enum IGovernorINN.ActionType",
          "name": "actionType",
          "type": "uint8"
        },
        {
          "internalType": "bytes",
          "name": "data",
          "type": "bytes"
        }
      ],
      "name": "hashProposal",
      "outputs": [
        {
          "internalType": "bytes32",
          "name": "",
          "type": "bytes32"
        }
      ],
      "stateMutability": "pure",
      "type": "function"
    },
    {
      "inputs": [
        {
          "internalType": "address",
          "name": "innTokenERC20",
          "type": "address"
        },
        {
          "internalType": "address",
          "name": "reservedEOA",
          "type": "address"
        },
        {
          "internalType": "address",
          "name": "commissionEOA",
          "type": "address"
        },
        {
          "internalType": "address",
          "name": "validatorEOA",
          "type": "address"
        },
        {
          "internalType": "string",
          "name": "validatorName",
          "type": "string"
        },
        {
          "internalType": "string",
          "name": "domainName",
          "type": "string"
        },
        {
          "internalType": "string",
          "name": "domainVersion",
          "type": "string"
        }
      ],
      "name": "initialize",
      "outputs": [],
      "stateMutability": "nonpayable",
      "type": "function"
    },
    {
      "inputs": [],
      "name": "innTokenAddress",
      "outputs": [
        {
          "internalType": "address",
          "name": "",
          "type": "address"
        }
      ],
      "stateMutability": "view",
      "type": "function"
    },
    {
      "inputs": [],
      "name": "isMigrationEnabled",
      "outputs": [
        {
          "internalType": "bool",
          "name": "",
          "type": "bool"
        }
      ],
      "stateMutability": "view",
      "type": "function"
    },
    {
      "inputs": [
        {
          "internalType": "address",
          "name": "addr",
          "type": "address"
        }
      ],
      "name": "isValidator",
      "outputs": [
        {
          "internalType": "bool",
          "name": "",
          "type": "bool"
        }
      ],
      "stateMutability": "view",
      "type": "function"
    },
    {
      "inputs": [],
      "name": "name",
      "outputs": [
        {
          "internalType": "string",
          "name": "",
          "type": "string"
        }
      ],
      "stateMutability": "view",
      "type": "function"
    },
    {
      "inputs": [
        {
          "components": [
            {
              "internalType": "bytes32",
              "name": "offchainID",
              "type": "bytes32"
            },
            {
              "internalType": "enum IGovernorINN.ProposalType",
              "name": "proposalType",
              "type": "uint8"
            },
            {
              "internalType": "enum IGovernorINN.ActionType",
              "name": "actionType",
              "type": "uint8"
            },
            {
              "internalType": "string",
              "name": "description",
              "type": "string"
            },
            {
              "internalType": "bytes",
              "name": "data",
              "type": "bytes"
            }
          ],
          "internalType": "struct IGovernorINN.ProposalRequest",
          "name": "request",
          "type": "tuple"
        },
        {
          "internalType": "bytes",
          "name": "signature",
          "type": "bytes"
        }
      ],
      "name": "propose",
      "outputs": [
        {
          "internalType": "bytes32",
          "name": "",
          "type": "bytes32"
        }
      ],
      "stateMutability": "nonpayable",
      "type": "function"
    },
    {
      "inputs": [],
      "name": "proxiableUUID",
      "outputs": [
        {
          "internalType": "bytes32",
          "name": "",
          "type": "bytes32"
        }
      ],
      "stateMutability": "view",
      "type": "function"
    },
    {
      "inputs": [
        {
          "internalType": "bytes32",
          "name": "role",
          "type": "bytes32"
        },
        {
          "internalType": "address",
          "name": "account",
          "type": "address"
        }
      ],
      "name": "renounceRole",
      "outputs": [],
      "stateMutability": "nonpayable",
      "type": "function"
    },
    {
      "inputs": [],
      "name": "reservedWallet",
      "outputs": [
        {
          "internalType": "address",
          "name": "",
          "type": "address"
        }
      ],
      "stateMutability": "view",
      "type": "function"
    },
    {
      "inputs": [
        {
          "internalType": "bytes32",
          "name": "role",
          "type": "bytes32"
        },
        {
          "internalType": "address",
          "name": "account",
          "type": "address"
        }
      ],
      "name": "revokeRole",
      "outputs": [],
      "stateMutability": "nonpayable",
      "type": "function"
    },
    {
      "inputs": [
        {
          "internalType": "bool",
          "name": "migration",
          "type": "bool"
        }
      ],
      "name": "setMigration",
      "outputs": [],
      "stateMutability": "nonpayable",
      "type": "function"
    },
    {
      "inputs": [
        {
          "internalType": "uint256",
          "name": "delay",
          "type": "uint256"
        }
      ],
      "name": "setVotingDelay",
      "outputs": [],
      "stateMutability": "nonpayable",
      "type": "function"
    },
    {
      "inputs": [
        {
          "internalType": "uint256",
          "name": "period",
          "type": "uint256"
        }
      ],
      "name": "setVotingPeriod",
      "outputs": [],
      "stateMutability": "nonpayable",
      "type": "function"
    },
    {
      "inputs": [
        {
          "internalType": "bytes32",
          "name": "proposalId",
          "type": "bytes32"
        }
      ],
      "name": "state",
      "outputs": [
        {
          "internalType": "enum IGovernorINN.ProposalState",
          "name": "",
          "type": "uint8"
        }
      ],
      "stateMutability": "view",
      "type": "function"
    },
    {
      "inputs": [
        {
          "internalType": "bytes4",
          "name": "interfaceId",
          "type": "bytes4"
        }
      ],
      "name": "supportsInterface",
      "outputs": [
        {
          "internalType": "bool",
          "name": "",
          "type": "bool"
        }
      ],
      "stateMutability": "view",
      "type": "function"
    },
    {
      "inputs": [
        {
          "internalType": "address",
          "name": "newImplementation",
          "type": "address"
        }
      ],
      "name": "upgradeTo",
      "outputs": [],
      "stateMutability": "nonpayable",
      "type": "function"
    },
    {
      "inputs": [
        {
          "internalType": "address",
          "name": "newImplementation",
          "type": "address"
        },
        {
          "internalType": "bytes",
          "name": "data",
          "type": "bytes"
        }
      ],
      "name": "upgradeToAndCall",
      "outputs": [],
      "stateMutability": "payable",
      "type": "function"
    },
    {
      "inputs": [],
      "name": "validatorCount",
      "outputs": [
        {
          "internalType": "uint32",
          "name": "",
          "type": "uint32"
        }
      ],
      "stateMutability": "view",
      "type": "function"
    },
    {
      "inputs": [],
      "name": "version",
      "outputs": [
        {
          "internalType": "string",
          "name": "",
          "type": "string"
        }
      ],
      "stateMutability": "view",
      "type": "function"
    },
    {
      "inputs": [],
      "name": "votingDelay",
      "outputs": [
        {
          "internalType": "uint256",
          "name": "",
          "type": "uint256"
        }
      ],
      "stateMutability": "view",
      "type": "function"
    },
    {
      "inputs": [],
      "name": "votingPeriod",
      "outputs": [
        {
          "internalType": "uint256",
          "name": "",
          "type": "uint256"
        }
      ],
      "stateMutability": "view",
      "type": "function"
    }
  ],
  "bytecode": "0x60a06040523073ffffffffffffffffffffffffffffffffffffffff1660809073ffffffffffffffffffffffffffffffffffffffff168152503480156200004457600080fd5b506080516184d76200007d60003960008181610c5401528181610ce201528181610de201528181610e70015261122701526184d76000f3fe60806040526004361061021a5760003560e01c80637f1e250c11610123578063c0e6d5d6116100ab578063ea0217cf1161006f578063ea0217cf146107f5578063f8c662ff1461081e578063fa2dabad14610849578063facd743b14610874578063ff666653146108b15761021a565b8063c0e6d5d61461071b578063c22ab4e014610746578063d547741f14610771578063e0310e521461079a578063e751f271146107c55761021a565b8063a5d79624116100f2578063a5d79624146105fc578063aadc3b7214610639578063afdf671014610676578063b7d6fe24146106a1578063be5967ea146106de5761021a565b80637f1e250c1461054057806391d148541461056957806397c0262a146105a6578063a217fddf146105d15761021a565b80633659cfe6116101a657806352d1902d1161017557806352d1902d1461045957806354fd4d501461048457806361d585da146104af57806370b0f660146104ec57806375b238fc146105155761021a565b80633659cfe6146103c05780633932abb1146103e95780634f1ef28614610414578063504cb8fa146104305761021a565b80631fe97684116101ed5780631fe97684146102dd578063248a9ca3146103065780632f2ff15d1461034357806333f3533b1461036c57806336568abe146103975761021a565b806301ffc9a71461021f57806302a251a31461025c57806306fdde03146102875780630f43a677146102b2575b600080fd5b34801561022b57600080fd5b5061024660048036038101906102419190615702565b6108ee565b604051610253919061574a565b60405180910390f35b34801561026857600080fd5b50610271610968565b60405161027e919061577e565b60405180910390f35b34801561029357600080fd5b5061029c61096e565b6040516102a99190615832565b60405180910390f35b3480156102be57600080fd5b506102c7610a01565b6040516102d49190615873565b60405180910390f35b3480156102e957600080fd5b5061030460048036038101906102ff91906158ec565b610a18565b005b34801561031257600080fd5b5061032d6004803603810190610328919061594f565b610b7a565b60405161033a919061598b565b60405180910390f35b34801561034f57600080fd5b5061036a600480360381019061036591906159a6565b610b9a565b005b34801561037857600080fd5b50610381610bbb565b60405161038e919061574a565b60405180910390f35b3480156103a357600080fd5b506103be60048036038101906103b991906159a6565b610bcf565b005b3480156103cc57600080fd5b506103e760048036038101906103e291906158ec565b610c52565b005b3480156103f557600080fd5b506103fe610dda565b60405161040b919061577e565b60405180910390f35b61042e60048036038101906104299190615b1b565b610de0565b005b34801561043c57600080fd5b5061045760048036038101906104529190615bd7565b610f1c565b005b34801561046557600080fd5b5061046e611223565b60405161047b919061598b565b60405180910390f35b34801561049057600080fd5b506104996112dc565b6040516104a69190615832565b60405180910390f35b3480156104bb57600080fd5b506104d660048036038101906104d1919061594f565b61136f565b6040516104e39190615d51565b60405180910390f35b3480156104f857600080fd5b50610513600480360381019061050e9190615d98565b61155d565b005b34801561052157600080fd5b5061052a611592565b604051610537919061598b565b60405180910390f35b34801561054c57600080fd5b5061056760048036038101906105629190615df1565b6115b6565b005b34801561057557600080fd5b50610590600480360381019061058b91906159a6565b6115ff565b60405161059d919061574a565b60405180910390f35b3480156105b257600080fd5b506105bb61166a565b6040516105c89190615e2d565b60405180910390f35b3480156105dd57600080fd5b506105e6611690565b6040516105f3919061598b565b60405180910390f35b34801561060857600080fd5b50610623600480360381019061061e9190615e6d565b611697565b604051610630919061574a565b60405180910390f35b34801561064557600080fd5b50610660600480360381019061065b91906159a6565b611791565b60405161066d919061574a565b60405180910390f35b34801561068257600080fd5b5061068b6117c4565b6040516106989190615ef0565b60405180910390f35b3480156106ad57600080fd5b506106c860048036038101906106c39190615fac565b6117e8565b6040516106d5919061574a565b60405180910390f35b3480156106ea57600080fd5b5061070560048036038101906107009190616052565b611a0e565b604051610712919061598b565b60405180910390f35b34801561072757600080fd5b50610730611a4d565b60405161073d9190615ef0565b60405180910390f35b34801561075257600080fd5b5061075b611a71565b6040516107689190615e2d565b60405180910390f35b34801561077d57600080fd5b50610798600480360381019061079391906159a6565b611a97565b005b3480156107a657600080fd5b506107af611ab8565b6040516107bc9190615ef0565b60405180910390f35b6107df60048036038101906107da919061594f565b611adc565b6040516107ec919061574a565b60405180910390f35b34801561080157600080fd5b5061081c60048036038101906108179190615d98565b611c18565b005b34801561082a57600080fd5b50610833611c4d565b6040516108409190615e2d565b60405180910390f35b34801561085557600080fd5b5061085e611c73565b60405161086b919061598b565b60405180910390f35b34801561088057600080fd5b5061089b600480360381019061089691906158ec565b611c97565b6040516108a8919061574a565b60405180910390f35b3480156108bd57600080fd5b506108d860048036038101906108d391906161c9565b611cf1565b6040516108e5919061598b565b60405180910390f35b60007f7965db0b000000000000000000000000000000000000000000000000000000007bffffffffffffffffffffffffffffffffffffffffffffffffffffffff1916827bffffffffffffffffffffffffffffffffffffffffffffffffffffffff19161480610961575061096082612396565b5b9050919050565b60fc5481565b6060610103805461097e90616270565b80601f01602080910402602001604051908101604052809291908181526020018280546109aa90616270565b80156109f75780601f106109cc576101008083540402835291602001916109f7565b820191906000526020600020905b8154815290600101906020018083116109da57829003601f168201915b5050505050905090565b61010560009054906101000a900463ffffffff1681565b7fa49807205ce4d355092ef5a8a18f56e8913cf4a201fbe287825b095693c21775610a4281612400565b6000151561010060008473ffffffffffffffffffffffffffffffffffffffff1673ffffffffffffffffffffffffffffffffffffffff16815260200190815260200160002060010160009054906101000a900460ff16151503610ad9576040517f08c379a0000000000000000000000000000000000000000000000000000000008152600401610ad090616313565b60405180910390fd5b600061010060008473ffffffffffffffffffffffffffffffffffffffff1673ffffffffffffffffffffffffffffffffffffffff16815260200190815260200160002060010160006101000a81548160ff021916908315150217905550600161010560008282829054906101000a900463ffffffff16610b589190616362565b92506101000a81548163ffffffff021916908363ffffffff1602179055505050565b600060c96000838152602001908152602001600020600101549050919050565b610ba382610b7a565b610bac81612400565b610bb68383612414565b505050565b61010560049054906101000a900460ff1681565b610bd76124f5565b73ffffffffffffffffffffffffffffffffffffffff168173ffffffffffffffffffffffffffffffffffffffff1614610c44576040517f08c379a0000000000000000000000000000000000000000000000000000000008152600401610c3b90616408565b60405180910390fd5b610c4e82826124fd565b5050565b7f000000000000000000000000000000000000000000000000000000000000000073ffffffffffffffffffffffffffffffffffffffff163073ffffffffffffffffffffffffffffffffffffffff1603610ce0576040517f08c379a0000000000000000000000000000000000000000000000000000000008152600401610cd79061649a565b60405180910390fd5b7f000000000000000000000000000000000000000000000000000000000000000073ffffffffffffffffffffffffffffffffffffffff16610d1f6125df565b73ffffffffffffffffffffffffffffffffffffffff1614610d75576040517f08c379a0000000000000000000000000000000000000000000000000000000008152600401610d6c9061652c565b60405180910390fd5b610d7e81612636565b610dd781600067ffffffffffffffff811115610d9d57610d9c6159f0565b5b6040519080825280601f01601f191660200182016040528015610dcf5781602001600182028036833780820191505090505b5060006126dd565b50565b60fb5481565b7f000000000000000000000000000000000000000000000000000000000000000073ffffffffffffffffffffffffffffffffffffffff163073ffffffffffffffffffffffffffffffffffffffff1603610e6e576040517f08c379a0000000000000000000000000000000000000000000000000000000008152600401610e659061649a565b60405180910390fd5b7f000000000000000000000000000000000000000000000000000000000000000073ffffffffffffffffffffffffffffffffffffffff16610ead6125df565b73ffffffffffffffffffffffffffffffffffffffff1614610f03576040517f08c379a0000000000000000000000000000000000000000000000000000000008152600401610efa9061652c565b60405180910390fd5b610f0c82612636565b610f18828260016126dd565b5050565b6000610f28600161284b565b90508015610f4c576001600060016101000a81548160ff0219169083151502179055505b8860fe60006101000a81548173ffffffffffffffffffffffffffffffffffffffff021916908373ffffffffffffffffffffffffffffffffffffffff1602179055508960fd60006101000a81548173ffffffffffffffffffffffffffffffffffffffff021916908373ffffffffffffffffffffffffffffffffffffffff160217905550604051806040016040528088888080601f016020809104026020016040519081016040528093929190818152602001838380828437600081840152601f19601f8201169050808301925050505050505081526020016001151581525061010060008a73ffffffffffffffffffffffffffffffffffffffff1673ffffffffffffffffffffffffffffffffffffffff16815260200190815260200160002060008201518160000190805190602001906110869291906154e7565b5060208201518160010160006101000a81548160ff021916908315150217905550905050600161010560006101000a81548163ffffffff021916908363ffffffff1602179055508a60ff60006101000a81548173ffffffffffffffffffffffffffffffffffffffff021916908373ffffffffffffffffffffffffffffffffffffffff160217905550600160fb8190555062093a8060fc819055508484610103919061113292919061556d565b508282610104919061114592919061556d565b50600161010560046101000a81548160ff0219169083151502179055506111937fa49807205ce4d355092ef5a8a18f56e8913cf4a201fbe287825b095693c2177561118e6124f5565b612414565b6111bd7fa49807205ce4d355092ef5a8a18f56e8913cf4a201fbe287825b095693c217758061293b565b80156112165760008060016101000a81548160ff0219169083151502179055507f7f26b83ff96e1f2b6a682f133852f6798a09c465da95921460cefb3847402498600160405161120d919061659e565b60405180910390a15b5050505050505050505050565b60007f000000000000000000000000000000000000000000000000000000000000000073ffffffffffffffffffffffffffffffffffffffff163073ffffffffffffffffffffffffffffffffffffffff16146112b3576040517f08c379a00000000000000000000000000000000000000000000000000000000081526004016112aa9061662b565b60405180910390fd5b7f360894a13ba1a3210667c828492db98dca3e2076cc3735a920a3ca505d382bbc60001b905090565b606061010480546112ec90616270565b80601f016020809104026020016040519081016040528092919081815260200182805461131890616270565b80156113655780601f1061133a57610100808354040283529160200191611365565b820191906000526020600020905b81548152906001019060200180831161134857829003601f168201915b5050505050905090565b600080610102600084815260200190815260200160002090506000801b8160010154036113d1576040517f08c379a00000000000000000000000000000000000000000000000000000000081526004016113c890616697565b60405180910390fd5b8060060160029054906101000a900460ff16156113f2576007915050611558565b8060060160039054906101000a900460ff1615611413576003915050611558565b61145c816004016040518060200160405290816000820160009054906101000a900467ffffffffffffffff1667ffffffffffffffff1667ffffffffffffffff1681525050612997565b1561146b576001915050611558565b6114b4816005016040518060200160405290816000820160009054906101000a900467ffffffffffffffff1667ffffffffffffffff1667ffffffffffffffff1681525050612997565b80156114c657506114c4836129b1565b155b156114d5576002915050611558565b61151e816005016040518060200160405290816000820160009054906101000a900467ffffffffffffffff1667ffffffffffffffff1667ffffffffffffffff1681525050612a56565b8061152e575061152d836129b1565b5b156115525761153c83612a82565b61154757600461154a565b60055b915050611558565b60009150505b919050565b7fa49807205ce4d355092ef5a8a18f56e8913cf4a201fbe287825b095693c2177561158781612400565b8160fb819055505050565b7fa49807205ce4d355092ef5a8a18f56e8913cf4a201fbe287825b095693c2177581565b7fa49807205ce4d355092ef5a8a18f56e8913cf4a201fbe287825b095693c217756115e081612400565b8161010560046101000a81548160ff0219169083151502179055505050565b600060c9600084815260200190815260200160002060000160008373ffffffffffffffffffffffffffffffffffffffff1673ffffffffffffffffffffffffffffffffffffffff16815260200190815260200160002060009054906101000a900460ff16905092915050565b60fe60009054906101000a900473ffffffffffffffffffffffffffffffffffffffff1681565b6000801b81565b60006001151561010060003373ffffffffffffffffffffffffffffffffffffffff1673ffffffffffffffffffffffffffffffffffffffff16815260200190815260200160002060010160009054906101000a900460ff16151514611730576040517f08c379a000000000000000000000000000000000000000000000000000000000815260040161172790616729565b60405180910390fd5b6117878361173c6124f5565b8488888080601f016020809104026020016040519081016040528093929190818152602001838380828437600081840152601f19601f82011690508083019250505050505050612afa565b9050949350505050565b60006117bc826101016000868152602001908152602001600020600101612e2e90919063ffffffff16565b905092915050565b7ff26c159fd7d78f3848964c3adf4aea78577348fcb297db019bf8f5efbed0219581565b6000610102600084815260200190815260200160002060030160009054906101000a900473ffffffffffffffffffffffffffffffffffffffff1673ffffffffffffffffffffffffffffffffffffffff163373ffffffffffffffffffffffffffffffffffffffff161461188f576040517f08c379a0000000000000000000000000000000000000000000000000000000008152600401611886906167bb565b60405180910390fd5b600061189a8461136f565b9050600660078111156118b0576118af615cda565b5b8160078111156118c3576118c2615cda565b5b141580156118f557506007808111156118df576118de615cda565b5b8160078111156118f2576118f1615cda565b5b14155b611934576040517f08c379a000000000000000000000000000000000000000000000000000000000815260040161192b90616827565b60405180910390fd5b6003600781111561194857611947615cda565b5b81600781111561195b5761195a615cda565b5b0361199b576040517f08c379a0000000000000000000000000000000000000000000000000000000008152600401611992906168b9565b60405180910390fd5b6001610102600086815260200190815260200160002060060160036101000a81548160ff021916908315150217905550837fc3fe75bace7821ed95b8b37722a36dfb53bdf311befb9c378bed48a7db4062aa846040516119fb9190615832565b60405180910390a2600191505092915050565b6000868686868686604051602001611a2b969594939291906169be565b6040516020818303038152906040528051906020012090509695505050505050565b7f53cc2fae7ecef069da76ae9063c3ecfa7f417173bc5191fe1bb037165d76473f81565b60fd60009054906101000a900473ffffffffffffffffffffffffffffffffffffffff1681565b611aa082610b7a565b611aa981612400565b611ab383836124fd565b505050565b7f23b872dd7302113369cda2901243429419bec145408fa8b352b3dd92b66c680b81565b60007fa49807205ce4d355092ef5a8a18f56e8913cf4a201fbe287825b095693c21775611b0881612400565b6000611b138461136f565b905060056007811115611b2957611b28615cda565b5b816007811115611b3c57611b3b615cda565b5b14611b7c576040517f08c379a0000000000000000000000000000000000000000000000000000000008152600401611b7390616a98565b60405180910390fd5b60006101026000868152602001908152602001600020905060018160060160026101000a81548160ff02191690831515021790555060006001905061010560049054906101000a900460ff16611bd857611bd582612e5e565b90505b8015611c0c57857f7b1bcf1ccf901a11589afff5504d59fd0a53780eed2a952adade0348985139e060405160405180910390a25b80945050505050919050565b7fa49807205ce4d355092ef5a8a18f56e8913cf4a201fbe287825b095693c21775611c4281612400565b8160fc819055505050565b60ff60009054906101000a900473ffffffffffffffffffffffffffffffffffffffff1681565b7f36fd43ede163045b10e1f0abd16f62f165fce3fa7b6cde217bcea3bc47663acc81565b600061010060008373ffffffffffffffffffffffffffffffffffffffff1673ffffffffffffffffffffffffffffffffffffffff16815260200190815260200160002060010160009054906101000a900460ff169050919050565b60006001151561010060003373ffffffffffffffffffffffffffffffffffffffff1673ffffffffffffffffffffffffffffffffffffffff16815260200190815260200160002060010160009054906101000a900460ff16151514611d8a576040517f08c379a0000000000000000000000000000000000000000000000000000000008152600401611d8190616729565b60405180910390fd5b60006003811115611d9e57611d9d615cda565b5b83602001516003811115611db557611db4615cda565b5b03611df5576040517f08c379a0000000000000000000000000000000000000000000000000000000008152600401611dec90616b04565b60405180910390fd5b60006004811115611e0957611e08615cda565b5b83604001516004811115611e2057611e1f615cda565b5b03611e60576040517f08c379a0000000000000000000000000000000000000000000000000000000008152600401611e5790616b70565b60405180910390fd5b600083608001515103611ea8576040517f08c379a0000000000000000000000000000000000000000000000000000000008152600401611e9f90616bdc565b60405180910390fd5b6000801b836000015103611ef1576040517f08c379a0000000000000000000000000000000000000000000000000000000008152600401611ee890616bdc565b60405180910390fd5b60008360600151604051602001611f089190616c38565b6040516020818303038152906040528051906020012090506000611f47856000015183611f336124f5565b886020015189604001518a6080015161361b565b90506000611f54826136a2565b9050600080611f6383886136bc565b91509150611fa56040518060400160405280600d81526020017f646f6d61696e20686173683a200000000000000000000000000000000000000081525061373d565b611fb5611fb06137d6565b61387c565b611ff36040518060400160405280600e81526020017f6d65737361676520686173683a2000000000000000000000000000000000000081525061373d565b611ffc8461387c565b61203a6040518060400160405280601081526020017f6d657373616765204469676573743a200000000000000000000000000000000081525061373d565b6120438361387c565b6120816040518060400160405280600b81526020017f7369676e61747572653a2000000000000000000000000000000000000000000081525061373d565b61208a87613915565b6000600481111561209e5761209d615cda565b5b8160048111156120b1576120b0615cda565b5b14612105578060048111156120c9576120c8615cda565b5b6040517f64f17f0b0000000000000000000000000000000000000000000000000000000081526004016120fc9190616c5e565b60405180910390fd5b612130604051806060016040528060348152602001618447603491398361212a6124f5565b306139ae565b3073ffffffffffffffffffffffffffffffffffffffff166391d148547fa49807205ce4d355092ef5a8a18f56e8913cf4a201fbe287825b095693c21775846040518363ffffffff1660e01b815260040161218b929190616c79565b602060405180830381865afa1580156121a8573d6000803e3d6000fd5b505050506040513d601f19601f820116820180604052508101906121cc9190616cb7565b61220b576040517f08c379a000000000000000000000000000000000000000000000000000000000815260040161220290616d56565b60405180910390fd5b600061223289600001518761221e6124f5565b8c602001518d604001518e60800151611a0e565b9050600061010260008381526020019081526020016000209050818160000181905550600060fb54426122659190616d8a565b9050600060fc54426122779190616d8a565b905061228f8284600401613a5090919063ffffffff16565b6122a58184600501613a5090919063ffffffff16565b8883600201819055508b600001518360010181905550338360030160006101000a81548173ffffffffffffffffffffffffffffffffffffffff021916908373ffffffffffffffffffffffffffffffffffffffff1602179055508b602001518360060160006101000a81548160ff0219169083600381111561232957612328615cda565b5b02179055508b604001518360060160016101000a81548160ff0219169083600481111561235957612358615cda565b5b02179055508b6080015183600701908051906020019061237a9291906155f3565b5061238483613a7f565b83995050505050505050505092915050565b60007f01ffc9a7000000000000000000000000000000000000000000000000000000007bffffffffffffffffffffffffffffffffffffffffffffffffffffffff1916827bffffffffffffffffffffffffffffffffffffffffffffffffffffffff1916149050919050565b6124118161240c6124f5565b61472f565b50565b61241e82826115ff565b6124f157600160c9600084815260200190815260200160002060000160008373ffffffffffffffffffffffffffffffffffffffff1673ffffffffffffffffffffffffffffffffffffffff16815260200190815260200160002060006101000a81548160ff0219169083151502179055506124966124f5565b73ffffffffffffffffffffffffffffffffffffffff168173ffffffffffffffffffffffffffffffffffffffff16837f2f8788117e7eff1d82e926ec794901d17c78024a50270940304540a733656f0d60405160405180910390a45b5050565b600033905090565b61250782826115ff565b156125db57600060c9600084815260200190815260200160002060000160008373ffffffffffffffffffffffffffffffffffffffff1673ffffffffffffffffffffffffffffffffffffffff16815260200190815260200160002060006101000a81548160ff0219169083151502179055506125806124f5565b73ffffffffffffffffffffffffffffffffffffffff168173ffffffffffffffffffffffffffffffffffffffff16837ff6391f5c32d9c69d2a47ea670b442974b53935d1edc7fd64eb21e047a839171b60405160405180910390a45b5050565b600061260d7f360894a13ba1a3210667c828492db98dca3e2076cc3735a920a3ca505d382bbc60001b6147cc565b60000160009054906101000a900473ffffffffffffffffffffffffffffffffffffffff16905090565b3073ffffffffffffffffffffffffffffffffffffffff166391d148547fa49807205ce4d355092ef5a8a18f56e8913cf4a201fbe287825b095693c2177561267b6124f5565b6040518363ffffffff1660e01b8152600401612698929190616c79565b602060405180830381865afa1580156126b5573d6000803e3d6000fd5b505050506040513d601f19601f820116820180604052508101906126d99190616cb7565b5050565b6127097f4910fdfa16fed3260ed0e7147f7cc6da11a60208b5b9406d12a635614ffd914360001b6147d6565b60000160009054906101000a900460ff161561272d57612728836147e0565b612846565b8273ffffffffffffffffffffffffffffffffffffffff166352d1902d6040518163ffffffff1660e01b8152600401602060405180830381865afa92505050801561279557506040513d601f19601f820116820180604052508101906127929190616ddd565b60015b6127d4576040517f08c379a00000000000000000000000000000000000000000000000000000000081526004016127cb90616e7c565b60405180910390fd5b7f360894a13ba1a3210667c828492db98dca3e2076cc3735a920a3ca505d382bbc60001b8114612839576040517f08c379a000000000000000000000000000000000000000000000000000000000815260040161283090616f0e565b60405180910390fd5b50612845838383614899565b5b505050565b60008060019054906101000a900460ff16156128c25760018260ff1614801561287a5750612878306148c5565b155b6128b9576040517f08c379a00000000000000000000000000000000000000000000000000000000081526004016128b090616fa0565b60405180910390fd5b60009050612936565b8160ff1660008054906101000a900460ff1660ff1610612917576040517f08c379a000000000000000000000000000000000000000000000000000000000815260040161290e90616fa0565b60405180910390fd5b816000806101000a81548160ff021916908360ff160217905550600190505b919050565b600061294683610b7a565b90508160c96000858152602001908152602001600020600101819055508181847fbd79b86ffe0ab8e8776151514217cd7cacd52c909f66475c3af44e129f0b00ff60405160405180910390a4505050565b600042826000015167ffffffffffffffff16119050919050565b600080610101600084815260200190815260200160002090508060000160109054906101000a900467ffffffffffffffff168160000160009054906101000a900467ffffffffffffffff168260000160089054906101000a900467ffffffffffffffff16612a1f9190616d8a565b612a299190616d8a565b67ffffffffffffffff1661010560009054906101000a900463ffffffff1663ffffffff1614915050919050565b6000612a61826148e8565b8015612a7b575042826000015167ffffffffffffffff1611155b9050919050565b600080610101600084815260200190815260200160002090506001600261010560009054906101000a900463ffffffff16612abd9190616fef565b612ac79190617020565b63ffffffff168160000160089054906101000a900467ffffffffffffffff1667ffffffffffffffff161015915050919050565b6000806003811115612b0f57612b0e615cda565b5b836003811115612b2257612b21615cda565b5b03612b62576040517f08c379a0000000000000000000000000000000000000000000000000000000008152600401612b59906170a6565b60405180910390fd5b60026007811115612b7657612b75615cda565b5b612b7f8661136f565b6007811115612b9157612b90615cda565b5b14612bd1576040517f08c379a0000000000000000000000000000000000000000000000000000000008152600401612bc890617138565b60405180910390fd5b600061010160008781526020019081526020016000209050612bff8582600101612e2e90919063ffffffff16565b15612c3f576040517f08c379a0000000000000000000000000000000000000000000000000000000008152600401612c36906171a4565b60405180910390fd5b612c55858260010161490290919063ffffffff16565b5060016003811115612c6a57612c69615cda565b5b846003811115612c7d57612c7c615cda565b5b03612cd55760018160000160008282829054906101000a900467ffffffffffffffff16612caa9190616d8a565b92506101000a81548167ffffffffffffffff021916908367ffffffffffffffff160217905550612dd0565b60026003811115612ce957612ce8615cda565b5b846003811115612cfc57612cfb615cda565b5b03612d545760018160000160088282829054906101000a900467ffffffffffffffff16612d299190616d8a565b92506101000a81548167ffffffffffffffff021916908367ffffffffffffffff160217905550612dcf565b600380811115612d6757612d66615cda565b5b846003811115612d7a57612d79615cda565b5b03612dce5760018160000160108282829054906101000a900467ffffffffffffffff16612da79190616d8a565b92506101000a81548167ffffffffffffffff021916908367ffffffffffffffff1602179055505b5b5b858573ffffffffffffffffffffffffffffffffffffffff167fbbb255028c79dea070e4449c346283da7b4b66693776c096bb820822e4d9c41a8686604051612e1992919061720c565b60405180910390a36001915050949350505050565b6000612e56836000018373ffffffffffffffffffffffffffffffffffffffff1660001b614932565b905092915050565b6000806001905060016003811115612e7957612e78615cda565b5b8360060160009054906101000a900460ff166003811115612e9d57612e9c615cda565b5b0361306f5760016004811115612eb657612eb5615cda565b5b8360060160019054906101000a900460ff166004811115612eda57612ed9615cda565b5b0361306a576000836007018054612ef090616270565b80601f0160208091040260200160405190810160405280929190818152602001828054612f1c90616270565b8015612f695780601f10612f3e57610100808354040283529160200191612f69565b820191906000526020600020905b815481529060010190602001808311612f4c57829003601f168201915b5050505050806020019051810190612f81919061732d565b9050604051806040016040528082600001518152602001600115158152506101006000836020015173ffffffffffffffffffffffffffffffffffffffff1673ffffffffffffffffffffffffffffffffffffffff1681526020019081526020016000206000820151816000019080519060200190612fff9291906154e7565b5060208201518160010160006101000a81548160ff021916908315150217905550905050600161010560008282829054906101000a900463ffffffff166130469190617020565b92506101000a81548163ffffffff021916908363ffffffff16021790555060019150505b613612565b6002600381111561308357613082615cda565b5b8360060160009054906101000a900460ff1660038111156130a7576130a6615cda565b5b0361361157600160048111156130c0576130bf615cda565b5b8360060160019054906101000a900460ff1660048111156130e4576130e3615cda565b5b036132695760008360070180546130fa90616270565b80601f016020809104026020016040519081016040528092919081815260200182805461312690616270565b80156131735780601f1061314857610100808354040283529160200191613173565b820191906000526020600020905b81548152906001019060200180831161315657829003601f168201915b505050505080602001905181019061318b9190617459565b90508180156131a857506131a781604001518260200151614955565b5b91508180156131fb57506131fa60fe60009054906101000a900473ffffffffffffffffffffffffffffffffffffffff166064836020015160056131eb91906174a2565b6131f591906174fc565b614955565b5b915081801561324457506132438460030160009054906101000a900473ffffffffffffffffffffffffffffffffffffffff166064836020015161323e91906174fc565b614955565b5b9150818015613261575061326084600001548260200151614ae9565b5b915050613610565b6002600481111561327d5761327c615cda565b5b8360060160019054906101000a900460ff1660048111156132a1576132a0615cda565b5b036134265760008360070180546132b790616270565b80601f01602080910402602001604051908101604052809291908181526020018280546132e390616270565b80156133305780601f1061330557610100808354040283529160200191613330565b820191906000526020600020905b81548152906001019060200180831161331357829003601f168201915b505050505080602001905181019061334891906175c1565b9050818015613365575061336481604001518260200151614955565b5b91508180156133b857506133b760fe60009054906101000a900473ffffffffffffffffffffffffffffffffffffffff166064836020015160056133a891906174a2565b6133b291906174fc565b614955565b5b915081801561340157506134008460030160009054906101000a900473ffffffffffffffffffffffffffffffffffffffff16606483602001516133fb91906174fc565b614955565b5b915081801561341e575061341d84600001548260200151614ae9565b5b91505061360f565b6003600481111561343a57613439615cda565b5b8360060160019054906101000a900460ff16600481111561345e5761345d615cda565b5b0361351c57600083600701805461347490616270565b80601f01602080910402602001604051908101604052809291908181526020018280546134a090616270565b80156134ed5780601f106134c2576101008083540402835291602001916134ed565b820191906000526020600020905b8154815290600101906020018083116134d057829003601f168201915b50505050508060200190518101906135059190617646565b90506135148160000151614b95565b91505061360e565b60048081111561352f5761352e615cda565b5b8360060160019054906101000a900460ff16600481111561355357613552615cda565b5b0361360d57600083600701805461356990616270565b80601f016020809104026020016040519081016040528092919081815260200182805461359590616270565b80156135e25780601f106135b7576101008083540402835291602001916135e2565b820191906000526020600020905b8154815290600101906020018083116135c557829003601f168201915b50505050508060200190518101906135fa91906176af565b90506136098160000151614d02565b9150505b5b5b5b5b5b80915050919050565b60007ff1d23bd7ede3e157b19af9bdc7f9f08c55104d948e791ad0900a92e0a680c3a28787878787876040516020016136549190617718565b60405160208183030381529060405280519060200120604051602001613680979695949392919061772f565b6040516020818303038152906040528051906020012090509695505050505050565b60006136b56136af6137d6565b83614e6f565b9050919050565b60008060418351036136fd5760008060006020860151925060408601519150606086015160001a90506136f187828585614ea2565b94509450505050613736565b604083510361372d576000806020850151915060408501519050613722868383614fae565b935093505050613736565b60006002915091505b9250929050565b6137d3816040516024016137519190615832565b6040516020818303038152906040527f41304fac000000000000000000000000000000000000000000000000000000007bffffffffffffffffffffffffffffffffffffffffffffffffffffffff19166020820180517bffffffffffffffffffffffffffffffffffffffffffffffffffffffff838183161783525050505061500d565b50565b60007f8b73c3c69bb8fe3d512ecc4cf759cc79239f7b179b0ffacaa9a75d522b39400f61010360405160200161380c9190617832565b604051602081830303815290604052805190602001206101046040516020016138359190617832565b604051602081830303815290604052805190602001204630604051602001613861959493929190617849565b60405160208183030381529060405280519060200120905090565b61391281604051602401613890919061598b565b6040516020818303038152906040527f27b7cf85000000000000000000000000000000000000000000000000000000007bffffffffffffffffffffffffffffffffffffffffffffffffffffffff19166020820180517bffffffffffffffffffffffffffffffffffffffffffffffffffffffff838183161783525050505061500d565b50565b6139ab81604051602401613929919061789c565b6040516020818303038152906040527f0be77f56000000000000000000000000000000000000000000000000000000007bffffffffffffffffffffffffffffffffffffffffffffffffffffffff19166020820180517bffffffffffffffffffffffffffffffffffffffffffffffffffffffff838183161783525050505061500d565b50565b613a4a848484846040516024016139c894939291906178be565b6040516020818303038152906040527fed8f28f6000000000000000000000000000000000000000000000000000000007bffffffffffffffffffffffffffffffffffffffffffffffffffffffff19166020820180517bffffffffffffffffffffffffffffffffffffffffffffffffffffffff838183161783525050505061500d565b50505050565b808260000160006101000a81548167ffffffffffffffff021916908367ffffffffffffffff1602179055505050565b60016003811115613a9357613a92615cda565b5b8160060160009054906101000a900460ff166003811115613ab757613ab6615cda565b5b03613d015760016004811115613ad057613acf615cda565b5b8160060160019054906101000a900460ff166004811115613af457613af3615cda565b5b03613cfc576000816007018054613b0a90616270565b80601f0160208091040260200160405190810160405280929190818152602001828054613b3690616270565b8015613b835780601f10613b5857610100808354040283529160200191613b83565b820191906000526020600020905b815481529060010190602001808311613b6657829003601f168201915b5050505050806020019051810190613b9b919061732d565b9050600073ffffffffffffffffffffffffffffffffffffffff16816020015173ffffffffffffffffffffffffffffffffffffffff1603613c10576040517f08c379a0000000000000000000000000000000000000000000000000000000008152600401613c079061797c565b60405180910390fd5b600081600001515103613c58576040517f08c379a0000000000000000000000000000000000000000000000000000000008152600401613c4f90617a0e565b60405180910390fd5b806020015173ffffffffffffffffffffffffffffffffffffffff168260030160009054906101000a900473ffffffffffffffffffffffffffffffffffffffff1673ffffffffffffffffffffffffffffffffffffffff1683600001547f3b993e041d591ea59a38f6cff579df5e8d6c2d1fed74305dfbb114336c41bdfd856001015486600201548660000151604051613cf293929190617a2e565b60405180910390a4505b61472c565b60026003811115613d1557613d14615cda565b5b8160060160009054906101000a900460ff166003811115613d3957613d38615cda565b5b036146f15760016004811115613d5257613d51615cda565b5b8160060160019054906101000a900460ff166004811115613d7657613d75615cda565b5b03614020576000816007018054613d8c90616270565b80601f0160208091040260200160405190810160405280929190818152602001828054613db890616270565b8015613e055780601f10613dda57610100808354040283529160200191613e05565b820191906000526020600020905b815481529060010190602001808311613de857829003601f168201915b5050505050806020019051810190613e1d9190617459565b9050600081600001515103613e67576040517f08c379a0000000000000000000000000000000000000000000000000000000008152600401613e5e90617ab8565b60405180910390fd5b6000816020015103613eae576040517f08c379a0000000000000000000000000000000000000000000000000000000008152600401613ea590617b4a565b60405180910390fd5b6000816060015161ffff1603613ef9576040517f08c379a0000000000000000000000000000000000000000000000000000000008152600401613ef090617bdc565b60405180910390fd5b600073ffffffffffffffffffffffffffffffffffffffff16816040015173ffffffffffffffffffffffffffffffffffffffff1603613f6c576040517f08c379a0000000000000000000000000000000000000000000000000000000008152600401613f6390617c48565b60405180910390fd5b806040015173ffffffffffffffffffffffffffffffffffffffff168260030160009054906101000a900473ffffffffffffffffffffffffffffffffffffffff1673ffffffffffffffffffffffffffffffffffffffff1683600001547fa3d1a39a550977baa46ea2634b05f5eb5993c2422417ce8c7139b39635a2a08c84602001518660010154876002015487600001518860600151604051614012959493929190617c77565b60405180910390a4506146ec565b6002600481111561403457614033615cda565b5b8160060160019054906101000a900460ff16600481111561405857614057615cda565b5b0361430257600081600701805461406e90616270565b80601f016020809104026020016040519081016040528092919081815260200182805461409a90616270565b80156140e75780601f106140bc576101008083540402835291602001916140e7565b820191906000526020600020905b8154815290600101906020018083116140ca57829003601f168201915b50505050508060200190518101906140ff91906175c1565b9050600081600001515103614149576040517f08c379a000000000000000000000000000000000000000000000000000000000815260040161414090617ab8565b60405180910390fd5b6000816020015103614190576040517f08c379a000000000000000000000000000000000000000000000000000000000815260040161418790617b4a565b60405180910390fd5b6000816060015161ffff16036141db576040517f08c379a00000000000000000000000000000000000000000000000000000000081526004016141d290617bdc565b60405180910390fd5b600073ffffffffffffffffffffffffffffffffffffffff16816040015173ffffffffffffffffffffffffffffffffffffffff160361424e576040517f08c379a000000000000000000000000000000000000000000000000000000000815260040161424590617d1d565b60405180910390fd5b806040015173ffffffffffffffffffffffffffffffffffffffff168260030160009054906101000a900473ffffffffffffffffffffffffffffffffffffffff1673ffffffffffffffffffffffffffffffffffffffff1683600001547fb58c12647c60f8966538bcfa6bf6b815477288bcbcbd80c2ac8ad7c23115a2d9846020015186600101548760020154876000015188606001516040516142f4959493929190617c77565b60405180910390a4506146eb565b6003600481111561431657614315615cda565b5b8160060160019054906101000a900460ff16600481111561433a57614339615cda565b5b036144f857600081600701805461435090616270565b80601f016020809104026020016040519081016040528092919081815260200182805461437c90616270565b80156143c95780601f1061439e576101008083540402835291602001916143c9565b820191906000526020600020905b8154815290600101906020018083116143ac57829003601f168201915b50505050508060200190518101906143e19190617646565b9050600073ffffffffffffffffffffffffffffffffffffffff16816000015173ffffffffffffffffffffffffffffffffffffffff1603614456576040517f08c379a000000000000000000000000000000000000000000000000000000000815260040161444d90617daf565b60405180910390fd5b806000015173ffffffffffffffffffffffffffffffffffffffff168260030160009054906101000a900473ffffffffffffffffffffffffffffffffffffffff1673ffffffffffffffffffffffffffffffffffffffff1683600001547f6c344b5a99d701e380e4f74eb042f15449b77f4657a647b82e9a5b223798bf1c856001015486600201546040516144ea929190617dcf565b60405180910390a4506146ea565b60048081111561450b5761450a615cda565b5b8160060160019054906101000a900460ff16600481111561452f5761452e615cda565b5b036146e957600081600701805461454590616270565b80601f016020809104026020016040519081016040528092919081815260200182805461457190616270565b80156145be5780601f10614593576101008083540402835291602001916145be565b820191906000526020600020905b8154815290600101906020018083116145a157829003601f168201915b50505050508060200190518101906145d691906176af565b9050600073ffffffffffffffffffffffffffffffffffffffff16816000015173ffffffffffffffffffffffffffffffffffffffff160361464b576040517f08c379a000000000000000000000000000000000000000000000000000000000815260040161464290617e6a565b60405180910390fd5b806000015173ffffffffffffffffffffffffffffffffffffffff168260030160009054906101000a900473ffffffffffffffffffffffffffffffffffffffff1673ffffffffffffffffffffffffffffffffffffffff1683600001547f5b0256ffeae05aba51e2c5f936a5ab3668280f92904d8098fc46d79e2ec5dbfa856001015486600201546040516146df929190617dcf565b60405180910390a4505b5b5b5b61472b565b60038081111561470457614703615cda565b5b8160060160009054906101000a900460ff16600381111561472857614727615cda565b5b50505b5b50565b61473982826115ff565b6147c85761475e8173ffffffffffffffffffffffffffffffffffffffff166014615036565b61476c8360001c6020615036565b60405160200161477d929190617f22565b6040516020818303038152906040526040517f08c379a00000000000000000000000000000000000000000000000000000000081526004016147bf9190615832565b60405180910390fd5b5050565b6000819050919050565b6000819050919050565b6147e9816148c5565b614828576040517f08c379a000000000000000000000000000000000000000000000000000000000815260040161481f90617fce565b60405180910390fd5b806148557f360894a13ba1a3210667c828492db98dca3e2076cc3735a920a3ca505d382bbc60001b6147cc565b60000160006101000a81548173ffffffffffffffffffffffffffffffffffffffff021916908373ffffffffffffffffffffffffffffffffffffffff16021790555050565b6148a283615272565b6000825111806148af5750805b156148c0576148be83836152c1565b505b505050565b6000808273ffffffffffffffffffffffffffffffffffffffff163b119050919050565b600080826000015167ffffffffffffffff16119050919050565b600061492a836000018373ffffffffffffffffffffffffffffffffffffffff1660001b6153a5565b905092915050565b600080836001016000848152602001908152602001600020541415905092915050565b6000807f23b872dd7302113369cda2901243429419bec145408fa8b352b3dd92b66c680b60fd60009054906101000a900473ffffffffffffffffffffffffffffffffffffffff1685856040516024016149b093929190617fee565b604051602081830303815290604052907bffffffffffffffffffffffffffffffffffffffffffffffffffffffff19166020820180517bffffffffffffffffffffffffffffffffffffffffffffffffffffffff83818316178352505050509050600060ff60009054906101000a900473ffffffffffffffffffffffffffffffffffffffff1673ffffffffffffffffffffffffffffffffffffffff1682604051614a589190617718565b6000604051808303816000865af19150503d8060008114614a95576040519150601f19603f3d011682016040523d82523d6000602084013e614a9a565b606091505b5050905080614ade576040517f08c379a0000000000000000000000000000000000000000000000000000000008152600401614ad590618071565b60405180910390fd5b809250505092915050565b600080610101600085815260200190815260200160002090506000614b1082600101615415565b90506000816064866002614b2491906174a2565b614b2e91906174fc565b614b3891906174fc565b9050600080600090505b83811015614b8757818015614b725750614b71614b6b828760010161542a90919063ffffffff16565b84614955565b5b91508080614b7f90618091565b915050614b42565b508094505050505092915050565b6000807ff26c159fd7d78f3848964c3adf4aea78577348fcb297db019bf8f5efbed0219583604051602401614bca9190615e2d565b604051602081830303815290604052907bffffffffffffffffffffffffffffffffffffffffffffffffffffffff19166020820180517bffffffffffffffffffffffffffffffffffffffffffffffffffffffff83818316178352505050509050600060ff60009054906101000a900473ffffffffffffffffffffffffffffffffffffffff1673ffffffffffffffffffffffffffffffffffffffff1682604051614c729190617718565b6000604051808303816000865af19150503d8060008114614caf576040519150601f19603f3d011682016040523d82523d6000602084013e614cb4565b606091505b5050905080614cf8576040517f08c379a0000000000000000000000000000000000000000000000000000000008152600401614cef90618125565b60405180910390fd5b8092505050919050565b6000807f53cc2fae7ecef069da76ae9063c3ecfa7f417173bc5191fe1bb037165d76473f83604051602401614d379190615e2d565b604051602081830303815290604052907bffffffffffffffffffffffffffffffffffffffffffffffffffffffff19166020820180517bffffffffffffffffffffffffffffffffffffffffffffffffffffffff83818316178352505050509050600060ff60009054906101000a900473ffffffffffffffffffffffffffffffffffffffff1673ffffffffffffffffffffffffffffffffffffffff1682604051614ddf9190617718565b6000604051808303816000865af19150503d8060008114614e1c576040519150601f19603f3d011682016040523d82523d6000602084013e614e21565b606091505b5050905080614e65576040517f08c379a0000000000000000000000000000000000000000000000000000000008152600401614e5c90618191565b60405180910390fd5b8092505050919050565b60008282604051602001614e8492919061821e565b60405160208183030381529060405280519060200120905092915050565b6000807f7fffffffffffffffffffffffffffffff5d576e7357a4501ddfe92f46681b20a08360001c1115614edd576000600391509150614fa5565b601b8560ff1614158015614ef55750601c8560ff1614155b15614f07576000600491509150614fa5565b600060018787878760405160008152602001604052604051614f2c9493929190618255565b6020604051602081039080840390855afa158015614f4e573d6000803e3d6000fd5b505050602060405103519050600073ffffffffffffffffffffffffffffffffffffffff168173ffffffffffffffffffffffffffffffffffffffff1603614f9c57600060019250925050614fa5565b80600092509250505b94509492505050565b60008060007f7fffffffffffffffffffffffffffffffffffffffffffffffffffffffffffffff60001b841690506000601b60ff8660001c901c614ff1919061829a565b9050614fff87828885614ea2565b935093505050935093915050565b60008151905060006a636f6e736f6c652e6c6f679050602083016000808483855afa5050505050565b60606000600283600261504991906174a2565b615053919061829a565b67ffffffffffffffff81111561506c5761506b6159f0565b5b6040519080825280601f01601f19166020018201604052801561509e5781602001600182028036833780820191505090505b5090507f3000000000000000000000000000000000000000000000000000000000000000816000815181106150d6576150d56182f0565b5b60200101907effffffffffffffffffffffffffffffffffffffffffffffffffffffffffffff1916908160001a9053507f78000000000000000000000000000000000000000000000000000000000000008160018151811061513a576151396182f0565b5b60200101907effffffffffffffffffffffffffffffffffffffffffffffffffffffffffffff1916908160001a9053506000600184600261517a91906174a2565b615184919061829a565b90505b6001811115615224577f3031323334353637383961626364656600000000000000000000000000000000600f8616601081106151c6576151c56182f0565b5b1a60f81b8282815181106151dd576151dc6182f0565b5b60200101907effffffffffffffffffffffffffffffffffffffffffffffffffffffffffffff1916908160001a905350600485901c94508061521d9061831f565b9050615187565b5060008414615268576040517f08c379a000000000000000000000000000000000000000000000000000000000815260040161525f90618394565b60405180910390fd5b8091505092915050565b61527b816147e0565b8073ffffffffffffffffffffffffffffffffffffffff167fbc7cd75a20ee27fd9adebab32041f755214dbc6bffa90cc0225b39da2e5c2d3b60405160405180910390a250565b60606152cc836148c5565b61530b576040517f08c379a000000000000000000000000000000000000000000000000000000000815260040161530290618426565b60405180910390fd5b6000808473ffffffffffffffffffffffffffffffffffffffff16846040516153339190617718565b600060405180830381855af49150503d806000811461536e576040519150601f19603f3d011682016040523d82523d6000602084013e615373565b606091505b509150915061539b828260405180606001604052806027815260200161847b60279139615444565b9250505092915050565b60006153b18383614932565b61540a57826000018290806001815401808255809150506001900390600052602060002001600090919091909150558260000180549050836001016000848152602001908152602001600020819055506001905061540f565b600090505b92915050565b6000615423826000016154ab565b9050919050565b600061543983600001836154bc565b60001c905092915050565b60608315615454578290506154a4565b6000835111156154675782518084602001fd5b816040517f08c379a000000000000000000000000000000000000000000000000000000000815260040161549b9190615832565b60405180910390fd5b9392505050565b600081600001805490509050919050565b60008260000182815481106154d4576154d36182f0565b5b9060005260206000200154905092915050565b8280546154f390616270565b90600052602060002090601f016020900481019282615515576000855561555c565b82601f1061552e57805160ff191683800117855561555c565b8280016001018555821561555c579182015b8281111561555b578251825591602001919060010190615540565b5b5090506155699190615679565b5090565b82805461557990616270565b90600052602060002090601f01602090048101928261559b57600085556155e2565b82601f106155b457803560ff19168380011785556155e2565b828001600101855582156155e2579182015b828111156155e15782358255916020019190600101906155c6565b5b5090506155ef9190615679565b5090565b8280546155ff90616270565b90600052602060002090601f0160209004810192826156215760008555615668565b82601f1061563a57805160ff1916838001178555615668565b82800160010185558215615668579182015b8281111561566757825182559160200191906001019061564c565b5b5090506156759190615679565b5090565b5b8082111561569257600081600090555060010161567a565b5090565b6000604051905090565b600080fd5b600080fd5b60007fffffffff0000000000000000000000000000000000000000000000000000000082169050919050565b6156df816156aa565b81146156ea57600080fd5b50565b6000813590506156fc816156d6565b92915050565b600060208284031215615718576157176156a0565b5b6000615726848285016156ed565b91505092915050565b60008115159050919050565b6157448161572f565b82525050565b600060208201905061575f600083018461573b565b92915050565b6000819050919050565b61577881615765565b82525050565b6000602082019050615793600083018461576f565b92915050565b600081519050919050565b600082825260208201905092915050565b60005b838110156157d35780820151818401526020810190506157b8565b838111156157e2576000848401525b50505050565b6000601f19601f8301169050919050565b600061580482615799565b61580e81856157a4565b935061581e8185602086016157b5565b615827816157e8565b840191505092915050565b6000602082019050818103600083015261584c81846157f9565b905092915050565b600063ffffffff82169050919050565b61586d81615854565b82525050565b60006020820190506158886000830184615864565b92915050565b600073ffffffffffffffffffffffffffffffffffffffff82169050919050565b60006158b98261588e565b9050919050565b6158c9816158ae565b81146158d457600080fd5b50565b6000813590506158e6816158c0565b92915050565b600060208284031215615902576159016156a0565b5b6000615910848285016158d7565b91505092915050565b6000819050919050565b61592c81615919565b811461593757600080fd5b50565b60008135905061594981615923565b92915050565b600060208284031215615965576159646156a0565b5b60006159738482850161593a565b91505092915050565b61598581615919565b82525050565b60006020820190506159a0600083018461597c565b92915050565b600080604083850312156159bd576159bc6156a0565b5b60006159cb8582860161593a565b92505060206159dc858286016158d7565b9150509250929050565b600080fd5b600080fd5b7f4e487b7100000000000000000000000000000000000000000000000000000000600052604160045260246000fd5b615a28826157e8565b810181811067ffffffffffffffff82111715615a4757615a466159f0565b5b80604052505050565b6000615a5a615696565b9050615a668282615a1f565b919050565b600067ffffffffffffffff821115615a8657615a856159f0565b5b615a8f826157e8565b9050602081019050919050565b82818337600083830152505050565b6000615abe615ab984615a6b565b615a50565b905082815260208101848484011115615ada57615ad96159eb565b5b615ae5848285615a9c565b509392505050565b600082601f830112615b0257615b016159e6565b5b8135615b12848260208601615aab565b91505092915050565b60008060408385031215615b3257615b316156a0565b5b6000615b40858286016158d7565b925050602083013567ffffffffffffffff811115615b6157615b606156a5565b5b615b6d85828601615aed565b9150509250929050565b600080fd5b600080fd5b60008083601f840112615b9757615b966159e6565b5b8235905067ffffffffffffffff811115615bb457615bb3615b77565b5b602083019150836001820283011115615bd057615bcf615b7c565b5b9250929050565b60008060008060008060008060008060e08b8d031215615bfa57615bf96156a0565b5b6000615c088d828e016158d7565b9a50506020615c198d828e016158d7565b9950506040615c2a8d828e016158d7565b9850506060615c3b8d828e016158d7565b97505060808b013567ffffffffffffffff811115615c5c57615c5b6156a5565b5b615c688d828e01615b81565b965096505060a08b013567ffffffffffffffff811115615c8b57615c8a6156a5565b5b615c978d828e01615b81565b945094505060c08b013567ffffffffffffffff811115615cba57615cb96156a5565b5b615cc68d828e01615b81565b92509250509295989b9194979a5092959850565b7f4e487b7100000000000000000000000000000000000000000000000000000000600052602160045260246000fd5b60088110615d1a57615d19615cda565b5b50565b6000819050615d2b82615d09565b919050565b6000615d3b82615d1d565b9050919050565b615d4b81615d30565b82525050565b6000602082019050615d666000830184615d42565b92915050565b615d7581615765565b8114615d8057600080fd5b50565b600081359050615d9281615d6c565b92915050565b600060208284031215615dae57615dad6156a0565b5b6000615dbc84828501615d83565b91505092915050565b615dce8161572f565b8114615dd957600080fd5b50565b600081359050615deb81615dc5565b92915050565b600060208284031215615e0757615e066156a0565b5b6000615e1584828501615ddc565b91505092915050565b615e27816158ae565b82525050565b6000602082019050615e426000830184615e1e565b92915050565b60048110615e5557600080fd5b50565b600081359050615e6781615e48565b92915050565b60008060008060608587031215615e8757615e866156a0565b5b600085013567ffffffffffffffff811115615ea557615ea46156a5565b5b615eb187828801615b81565b94509450506020615ec48782880161593a565b9250506040615ed587828801615e58565b91505092959194509250565b615eea816156aa565b82525050565b6000602082019050615f056000830184615ee1565b92915050565b600067ffffffffffffffff821115615f2657615f256159f0565b5b615f2f826157e8565b9050602081019050919050565b6000615f4f615f4a84615f0b565b615a50565b905082815260208101848484011115615f6b57615f6a6159eb565b5b615f76848285615a9c565b509392505050565b600082601f830112615f9357615f926159e6565b5b8135615fa3848260208601615f3c565b91505092915050565b60008060408385031215615fc357615fc26156a0565b5b6000615fd18582860161593a565b925050602083013567ffffffffffffffff811115615ff257615ff16156a5565b5b615ffe85828601615f7e565b9150509250929050565b6004811061601557600080fd5b50565b60008135905061602781616008565b92915050565b6005811061603a57600080fd5b50565b60008135905061604c8161602d565b92915050565b60008060008060008060c0878903121561606f5761606e6156a0565b5b600061607d89828a0161593a565b965050602061608e89828a0161593a565b955050604061609f89828a016158d7565b94505060606160b089828a01616018565b93505060806160c189828a0161603d565b92505060a087013567ffffffffffffffff8111156160e2576160e16156a5565b5b6160ee89828a01615aed565b9150509295509295509295565b600080fd5b600080fd5b600060a0828403121561611b5761611a6160fb565b5b61612560a0615a50565b905060006161358482850161593a565b600083015250602061614984828501616018565b602083015250604061615d8482850161603d565b604083015250606082013567ffffffffffffffff81111561618157616180616100565b5b61618d84828501615f7e565b606083015250608082013567ffffffffffffffff8111156161b1576161b0616100565b5b6161bd84828501615aed565b60808301525092915050565b600080604083850312156161e0576161df6156a0565b5b600083013567ffffffffffffffff8111156161fe576161fd6156a5565b5b61620a85828601616105565b925050602083013567ffffffffffffffff81111561622b5761622a6156a5565b5b61623785828601615aed565b9150509250929050565b7f4e487b7100000000000000000000000000000000000000000000000000000000600052602260045260246000fd5b6000600282049050600182168061628857607f821691505b60208210810361629b5761629a616241565b5b50919050565b7f56616c696461746f723a206f6e6c792065786973742076616c696461746f722060008201527f63616e2062652064697361626c65000000000000000000000000000000000000602082015250565b60006162fd602e836157a4565b9150616308826162a1565b604082019050919050565b6000602082019050818103600083015261632c816162f0565b9050919050565b7f4e487b7100000000000000000000000000000000000000000000000000000000600052601160045260246000fd5b600061636d82615854565b915061637883615854565b92508282101561638b5761638a616333565b5b828203905092915050565b7f416363657373436f6e74726f6c3a2063616e206f6e6c792072656e6f756e636560008201527f20726f6c657320666f722073656c660000000000000000000000000000000000602082015250565b60006163f2602f836157a4565b91506163fd82616396565b604082019050919050565b60006020820190508181036000830152616421816163e5565b9050919050565b7f46756e6374696f6e206d7573742062652063616c6c6564207468726f7567682060008201527f64656c656761746563616c6c0000000000000000000000000000000000000000602082015250565b6000616484602c836157a4565b915061648f82616428565b604082019050919050565b600060208201905081810360008301526164b381616477565b9050919050565b7f46756e6374696f6e206d7573742062652063616c6c6564207468726f7567682060008201527f6163746976652070726f78790000000000000000000000000000000000000000602082015250565b6000616516602c836157a4565b9150616521826164ba565b604082019050919050565b6000602082019050818103600083015261654581616509565b9050919050565b6000819050919050565b600060ff82169050919050565b6000819050919050565b600061658861658361657e8461654c565b616563565b616556565b9050919050565b6165988161656d565b82525050565b60006020820190506165b3600083018461658f565b92915050565b7f555550535570677261646561626c653a206d757374206e6f742062652063616c60008201527f6c6564207468726f7567682064656c656761746563616c6c0000000000000000602082015250565b60006166156038836157a4565b9150616620826165b9565b604082019050919050565b6000602082019050818103600083015261664481616608565b9050919050565b7f70726f706f73616c496420697320696e76616c69640000000000000000000000600082015250565b60006166816015836157a4565b915061668c8261664b565b602082019050919050565b600060208201905081810360008301526166b081616674565b9050919050565b7f476f7665726e6f723a206f6e6c792076616c696461746f722063616e20766f7460008201527f6500000000000000000000000000000000000000000000000000000000000000602082015250565b60006167136021836157a4565b915061671e826166b7565b604082019050919050565b6000602082019050818103600083015261674281616706565b9050919050565b7f476f7665726e6f72203a206f6e6c792070726f706f7365722063616e2063616e60008201527f63656c0000000000000000000000000000000000000000000000000000000000602082015250565b60006167a56023836157a4565b91506167b082616749565b604082019050919050565b600060208201905081810360008301526167d481616798565b9050919050565b7f476f7665726e6f723a2070726f706f73616c206e6f7420616374697665000000600082015250565b6000616811601d836157a4565b915061681c826167db565b602082019050919050565b6000602082019050818103600083015261684081616804565b9050919050565b7f476f7665726e6f723a2070726f706f73616c20616c72656164792063616e636560008201527f6c65640000000000000000000000000000000000000000000000000000000000602082015250565b60006168a36023836157a4565b91506168ae82616847565b604082019050919050565b600060208201905081810360008301526168d281616896565b9050919050565b600481106168ea576168e9615cda565b5b50565b60008190506168fb826168d9565b919050565b600061690b826168ed565b9050919050565b61691b81616900565b82525050565b6005811061693257616931615cda565b5b50565b600081905061694382616921565b919050565b600061695382616935565b9050919050565b61696381616948565b82525050565b600081519050919050565b600082825260208201905092915050565b600061699082616969565b61699a8185616974565b93506169aa8185602086016157b5565b6169b3816157e8565b840191505092915050565b600060c0820190506169d3600083018961597c565b6169e0602083018861597c565b6169ed6040830187615e1e565b6169fa6060830186616912565b616a07608083018561695a565b81810360a0830152616a198184616985565b9050979650505050505050565b7f476f7665726e6f723a2070726f706f73616c206e6f742073756363657373667560008201527f6c00000000000000000000000000000000000000000000000000000000000000602082015250565b6000616a826021836157a4565b9150616a8d82616a26565b604082019050919050565b60006020820190508181036000830152616ab181616a75565b9050919050565b7f70726f706f73616c20747970652073686f756c64206e6f74206265204e4f4e45600082015250565b6000616aee6020836157a4565b9150616af982616ab8565b602082019050919050565b60006020820190508181036000830152616b1d81616ae1565b9050919050565b7f616374696f6e20747970652073686f756c64206e6f74206265204e4f4e450000600082015250565b6000616b5a601e836157a4565b9150616b6582616b24565b602082019050919050565b60006020820190508181036000830152616b8981616b4d565b9050919050565b7f646174612073686f756c64206e6f7420626520656d7074790000000000000000600082015250565b6000616bc66018836157a4565b9150616bd182616b90565b602082019050919050565b60006020820190508181036000830152616bf581616bb9565b9050919050565b600081905092915050565b6000616c1282615799565b616c1c8185616bfc565b9350616c2c8185602086016157b5565b80840191505092915050565b6000616c448284616c07565b915081905092915050565b616c5881616556565b82525050565b6000602082019050616c736000830184616c4f565b92915050565b6000604082019050616c8e600083018561597c565b616c9b6020830184615e1e565b9392505050565b600081519050616cb181615dc5565b92915050565b600060208284031215616ccd57616ccc6156a0565b5b6000616cdb84828501616ca2565b91505092915050565b7f70726f706f73616c206372656174696f6e207065726d697373696f6e2064656e60008201527f6965640000000000000000000000000000000000000000000000000000000000602082015250565b6000616d406023836157a4565b9150616d4b82616ce4565b604082019050919050565b60006020820190508181036000830152616d6f81616d33565b9050919050565b600067ffffffffffffffff82169050919050565b6000616d9582616d76565b9150616da083616d76565b92508267ffffffffffffffff03821115616dbd57616dbc616333565b5b828201905092915050565b600081519050616dd781615923565b92915050565b600060208284031215616df357616df26156a0565b5b6000616e0184828501616dc8565b91505092915050565b7f45524331393637557067726164653a206e657720696d706c656d656e7461746960008201527f6f6e206973206e6f742055555053000000000000000000000000000000000000602082015250565b6000616e66602e836157a4565b9150616e7182616e0a565b604082019050919050565b60006020820190508181036000830152616e9581616e59565b9050919050565b7f45524331393637557067726164653a20756e737570706f727465642070726f7860008201527f6961626c65555549440000000000000000000000000000000000000000000000602082015250565b6000616ef86029836157a4565b9150616f0382616e9c565b604082019050919050565b60006020820190508181036000830152616f2781616eeb565b9050919050565b7f496e697469616c697a61626c653a20636f6e747261637420697320616c72656160008201527f647920696e697469616c697a6564000000000000000000000000000000000000602082015250565b6000616f8a602e836157a4565b9150616f9582616f2e565b604082019050919050565b60006020820190508181036000830152616fb981616f7d565b9050919050565b7f4e487b7100000000000000000000000000000000000000000000000000000000600052601260045260246000fd5b6000616ffa82615854565b915061700583615854565b92508261701557617014616fc0565b5b828204905092915050565b600061702b82615854565b915061703683615854565b92508263ffffffff0382111561704f5761704e616333565b5b828201905092915050565b7f476f7665726e6f723a20766f746520696e76616c696400000000000000000000600082015250565b60006170906016836157a4565b915061709b8261705a565b602082019050919050565b600060208201905081810360008301526170bf81617083565b9050919050565b7f476f7665726e6f723a2070726f706f73616c2063757272656e746c7920696e6160008201527f6374697665000000000000000000000000000000000000000000000000000000602082015250565b60006171226025836157a4565b915061712d826170c6565b604082019050919050565b6000602082019050818103600083015261715181617115565b9050919050565b7f476f7665726e6f723a20766f746520616c726561647920636173740000000000600082015250565b600061718e601b836157a4565b915061719982617158565b602082019050919050565b600060208201905081810360008301526171bd81617181565b9050919050565b600481106171d5576171d4615cda565b5b50565b60008190506171e6826171c4565b919050565b60006171f6826171d8565b9050919050565b617206816171eb565b82525050565b600060408201905061722160008301856171fd565b818103602083015261723381846157f9565b90509392505050565b600061724f61724a84615f0b565b615a50565b90508281526020810184848401111561726b5761726a6159eb565b5b6172768482856157b5565b509392505050565b600082601f830112617293576172926159e6565b5b81516172a384826020860161723c565b91505092915050565b6000815190506172bb816158c0565b92915050565b6000604082840312156172d7576172d66160fb565b5b6172e16040615a50565b9050600082015167ffffffffffffffff81111561730157617300616100565b5b61730d8482850161727e565b6000830152506020617321848285016172ac565b60208301525092915050565b600060208284031215617343576173426156a0565b5b600082015167ffffffffffffffff811115617361576173606156a5565b5b61736d848285016172c1565b91505092915050565b60008151905061738581615d6c565b92915050565b600061ffff82169050919050565b6173a28161738b565b81146173ad57600080fd5b50565b6000815190506173bf81617399565b92915050565b6000608082840312156173db576173da6160fb565b5b6173e56080615a50565b9050600082015167ffffffffffffffff81111561740557617404616100565b5b6174118482850161727e565b600083015250602061742584828501617376565b6020830152506040617439848285016172ac565b604083015250606061744d848285016173b0565b60608301525092915050565b60006020828403121561746f5761746e6156a0565b5b600082015167ffffffffffffffff81111561748d5761748c6156a5565b5b617499848285016173c5565b91505092915050565b60006174ad82615765565b91506174b883615765565b9250817fffffffffffffffffffffffffffffffffffffffffffffffffffffffffffffffff04831182151516156174f1576174f0616333565b5b828202905092915050565b600061750782615765565b915061751283615765565b92508261752257617521616fc0565b5b828204905092915050565b600060808284031215617543576175426160fb565b5b61754d6080615a50565b9050600082015167ffffffffffffffff81111561756d5761756c616100565b5b6175798482850161727e565b600083015250602061758d84828501617376565b60208301525060406175a1848285016172ac565b60408301525060606175b5848285016173b0565b60608301525092915050565b6000602082840312156175d7576175d66156a0565b5b600082015167ffffffffffffffff8111156175f5576175f46156a5565b5b6176018482850161752d565b91505092915050565b6000602082840312156176205761761f6160fb565b5b61762a6020615a50565b9050600061763a848285016172ac565b60008301525092915050565b60006020828403121561765c5761765b6156a0565b5b600061766a8482850161760a565b91505092915050565b600060208284031215617689576176886160fb565b5b6176936020615a50565b905060006176a3848285016172ac565b60008301525092915050565b6000602082840312156176c5576176c46156a0565b5b60006176d384828501617673565b91505092915050565b600081905092915050565b60006176f282616969565b6176fc81856176dc565b935061770c8185602086016157b5565b80840191505092915050565b600061772482846176e7565b915081905092915050565b600060e082019050617744600083018a61597c565b617751602083018961597c565b61775e604083018861597c565b61776b6060830187615e1e565b6177786080830186616912565b61778560a083018561695a565b61779260c083018461597c565b98975050505050505050565b60008190508160005260206000209050919050565b600081546177c081616270565b6177ca8186616bfc565b945060018216600081146177e557600181146177f657617829565b60ff19831686528186019350617829565b6177ff8561779e565b60005b8381101561782157815481890152600182019150602081019050617802565b838801955050505b50505092915050565b600061783e82846177b3565b915081905092915050565b600060a08201905061785e600083018861597c565b61786b602083018761597c565b617878604083018661597c565b617885606083018561576f565b6178926080830184615e1e565b9695505050505050565b600060208201905081810360008301526178b68184616985565b905092915050565b600060808201905081810360008301526178d881876157f9565b90506178e76020830186615e1e565b6178f46040830185615e1e565b6179016060830184615e1e565b95945050505050565b7f76616c696461746f7220616464726573732073686f756c64206e6f742062652060008201527f7a65726f00000000000000000000000000000000000000000000000000000000602082015250565b60006179666024836157a4565b91506179718261790a565b604082019050919050565b6000602082019050818103600083015261799581617959565b9050919050565b7f76616c696461746f72206e616d652073686f756c64206e6f7420626520656d7060008201527f7479000000000000000000000000000000000000000000000000000000000000602082015250565b60006179f86022836157a4565b9150617a038261799c565b604082019050919050565b60006020820190508181036000830152617a27816179eb565b9050919050565b6000606082019050617a43600083018661597c565b617a50602083018561597c565b8181036040830152617a6281846157f9565b9050949350505050565b7f73746172747570206e616d652073686f756c64206e6f7420626520656d707479600082015250565b6000617aa26020836157a4565b9150617aad82617a6c565b602082019050919050565b60006020820190508181036000830152617ad181617a95565b9050919050565b7f7374617274757020746f6b656e206f666665722073686f756c64206e6f74206260008201527f65207a65726f0000000000000000000000000000000000000000000000000000602082015250565b6000617b346026836157a4565b9150617b3f82617ad8565b604082019050919050565b60006020820190508181036000830152617b6381617b27565b9050919050565b7f7374617274757020736861726564207374616b652073686f756c64206e6f742060008201527f6265207a65726f00000000000000000000000000000000000000000000000000602082015250565b6000617bc66027836157a4565b9150617bd182617b6a565b604082019050919050565b60006020820190508181036000830152617bf581617bb9565b9050919050565b7f7374617274757020454f412073686f756c64206e6f74206265207a65726f0000600082015250565b6000617c32601e836157a4565b9150617c3d82617bfc565b602082019050919050565b60006020820190508181036000830152617c6181617c25565b9050919050565b617c718161738b565b82525050565b600060a082019050617c8c600083018861576f565b617c99602083018761597c565b617ca6604083018661597c565b8181036060830152617cb881856157f9565b9050617cc76080830184617c68565b9695505050505050565b7f76616c696461746f7220454f412073686f756c64206e6f74206265207a65726f600082015250565b6000617d076020836157a4565b9150617d1282617cd1565b602082019050919050565b60006020820190508181036000830152617d3681617cfa565b9050919050565b7f467265657a653a206163636f756e742073686f756c64206e6f74206265207a6560008201527f726f000000000000000000000000000000000000000000000000000000000000602082015250565b6000617d996022836157a4565b9150617da482617d3d565b604082019050919050565b60006020820190508181036000830152617dc881617d8c565b9050919050565b6000604082019050617de4600083018561597c565b617df1602083018461597c565b9392505050565b7f556e667265657a653a206163636f756e742073686f756c64206e6f742062652060008201527f7a65726f00000000000000000000000000000000000000000000000000000000602082015250565b6000617e546024836157a4565b9150617e5f82617df8565b604082019050919050565b60006020820190508181036000830152617e8381617e47565b9050919050565b7f416363657373436f6e74726f6c3a206163636f756e7420000000000000000000600082015250565b6000617ec0601783616bfc565b9150617ecb82617e8a565b601782019050919050565b7f206973206d697373696e6720726f6c6520000000000000000000000000000000600082015250565b6000617f0c601183616bfc565b9150617f1782617ed6565b601182019050919050565b6000617f2d82617eb3565b9150617f398285616c07565b9150617f4482617eff565b9150617f508284616c07565b91508190509392505050565b7f455243313936373a206e657720696d706c656d656e746174696f6e206973206e60008201527f6f74206120636f6e747261637400000000000000000000000000000000000000602082015250565b6000617fb8602d836157a4565b9150617fc382617f5c565b604082019050919050565b60006020820190508181036000830152617fe781617fab565b9050919050565b60006060820190506180036000830186615e1e565b6180106020830185615e1e565b61801d604083018461576f565b949350505050565b7f457865637574653a207472616e73666572206661696c65732120000000000000600082015250565b600061805b601a836157a4565b915061806682618025565b602082019050919050565b6000602082019050818103600083015261808a8161804e565b9050919050565b600061809c82615765565b91507fffffffffffffffffffffffffffffffffffffffffffffffffffffffffffffffff82036180ce576180cd616333565b5b600182019050919050565b7f457865637574653a20667265657a65206163636f756e74206661696c65640000600082015250565b600061810f601e836157a4565b915061811a826180d9565b602082019050919050565b6000602082019050818103600083015261813e81618102565b9050919050565b7f457865637574653a20556e667265657a65206163636f756e74206661696c6564600082015250565b600061817b6020836157a4565b915061818682618145565b602082019050919050565b600060208201905081810360008301526181aa8161816e565b9050919050565b7f1901000000000000000000000000000000000000000000000000000000000000600082015250565b60006181e7600283616bfc565b91506181f2826181b1565b600282019050919050565b6000819050919050565b61821861821382615919565b6181fd565b82525050565b6000618229826181da565b91506182358285618207565b6020820191506182458284618207565b6020820191508190509392505050565b600060808201905061826a600083018761597c565b6182776020830186616c4f565b618284604083018561597c565b618291606083018461597c565b95945050505050565b60006182a582615765565b91506182b083615765565b9250827fffffffffffffffffffffffffffffffffffffffffffffffffffffffffffffffff038211156182e5576182e4616333565b5b828201905092915050565b7f4e487b7100000000000000000000000000000000000000000000000000000000600052603260045260246000fd5b600061832a82615765565b91506000820361833d5761833c616333565b5b600182039050919050565b7f537472696e67733a20686578206c656e67746820696e73756666696369656e74600082015250565b600061837e6020836157a4565b915061838982618348565b602082019050919050565b600060208201905081810360008301526183ad81618371565b9050919050565b7f416464726573733a2064656c65676174652063616c6c20746f206e6f6e2d636f60008201527f6e74726163740000000000000000000000000000000000000000000000000000602082015250565b60006184106026836157a4565b915061841b826183b4565b604082019050919050565b6000602082019050818103600083015261843f81618403565b905091905056fe6d7367207369676e65723a2025732c206d73672073656e6465723a2025732c20636f6e747261637420616464726573733a202573416464726573733a206c6f772d6c6576656c2064656c65676174652063616c6c206661696c6564a26469706673582212208a49540646eec07cdba63a804af3ad3c6476cf74d9a83400b23269d962bbf57964736f6c634300080e0033",
  "linkReferences": {},
  "deployedLinkReferences": {},
  "devdoc": {
    "kind": "dev",
    "methods": {
      "cancel(bytes32,string)": {
        "details": "Cancel a proposal. Cancels a proposal only if sender is the proposer. We need to decide to conditions of consensus cancelation Emits a {ProposalCanceled} event."
      },
      "castVote(string,bytes32,uint8)": {
        "details": "Cast a vote Emits a {VoteCast} event."
      },
      "execute(bytes32)": {
        "details": "Execute a successful proposal. This requires the quorum to be reached, the vote to be successful, and the deadline to be reached. Emits a {ProposalExecuted} event."
      },
      "getRoleAdmin(bytes32)": {
        "details": "Returns the admin role that controls `role`. See {grantRole} and {revokeRole}. To change a role's admin, use {_setRoleAdmin}."
      },
      "grantRole(bytes32,address)": {
        "details": "Grants `role` to `account`. If `account` had not been already granted `role`, emits a {RoleGranted} event. Requirements: - the caller must have ``role``'s admin role."
      },
      "hasRole(bytes32,address)": {
        "details": "Returns `true` if `account` has been granted `role`."
      },
      "hasVoted(bytes32,address)": {
        "details": "Returns weither `account` has cast a vote on `proposalId`."
      },
      "hashProposal(bytes32,bytes32,address,uint8,uint8,bytes)": {
        "details": "Hashing function used to (re)build the proposal id from the proposal ..."
      },
      "name()": {
        "details": "Name of the governor instance (used in building the ERC712 domain separator)."
      },
      "proxiableUUID()": {
        "details": "Implementation of the ERC1822 {proxiableUUID} function. This returns the storage slot used by the implementation. It is used to validate that the this implementation remains valid after an upgrade. IMPORTANT: A proxy pointing at a proxiable contract should not be considered proxiable itself, because this risks bricking a proxy that upgrades to it, by delegating to itself until out of gas. Thus it is critical that this function revert if invoked through a proxy. This is guaranteed by the `notDelegated` modifier."
      },
      "renounceRole(bytes32,address)": {
        "details": "Revokes `role` from the calling account. Roles are often managed via {grantRole} and {revokeRole}: this function's purpose is to provide a mechanism for accounts to lose their privileges if they are compromised (such as when a trusted device is misplaced). If the calling account had been revoked `role`, emits a {RoleRevoked} event. Requirements: - the caller must be `account`."
      },
      "revokeRole(bytes32,address)": {
        "details": "Revokes `role` from `account`. If `account` had been granted `role`, emits a {RoleRevoked} event. Requirements: - the caller must have ``role``'s admin role."
      },
      "state(bytes32)": {
        "details": "See {IGovernor-state}. need to change the state machine"
      },
      "supportsInterface(bytes4)": {
        "details": "See {IERC165-supportsInterface}."
      },
      "upgradeTo(address)": {
        "details": "Upgrade the implementation of the proxy to `newImplementation`. Calls {_authorizeUpgrade}. Emits an {Upgraded} event."
      },
      "upgradeToAndCall(address,bytes)": {
        "details": "Upgrade the implementation of the proxy to `newImplementation`, and subsequently execute the function call encoded in `data`. Calls {_authorizeUpgrade}. Emits an {Upgraded} event."
      },
      "version()": {
        "details": "Version of the governor instance (used in building the ERC712 domain separator). Default: \"1\""
      }
    },
    "version": 1
  },
  "evm": {
    "bytecode": {
      "linkReferences": {},
      "opcodes": "PUSH1 0xA0 PUSH1 0x40 MSTORE ADDRESS PUSH20 0xFFFFFFFFFFFFFFFFFFFFFFFFFFFFFFFFFFFFFFFF AND PUSH1 0x80 SWAP1 PUSH20 0xFFFFFFFFFFFFFFFFFFFFFFFFFFFFFFFFFFFFFFFF AND DUP2 MSTORE POP CALLVALUE DUP1 ISZERO PUSH3 0x44 JUMPI PUSH1 0x0 DUP1 REVERT JUMPDEST POP PUSH1 0x80 MLOAD PUSH2 0x84D7 PUSH3 0x7D PUSH1 0x0 CODECOPY PUSH1 0x0 DUP2 DUP2 PUSH2 0xC54 ADD MSTORE DUP2 DUP2 PUSH2 0xCE2 ADD MSTORE DUP2 DUP2 PUSH2 0xDE2 ADD MSTORE DUP2 DUP2 PUSH2 0xE70 ADD MSTORE PUSH2 0x1227 ADD MSTORE PUSH2 0x84D7 PUSH1 0x0 RETURN INVALID PUSH1 0x80 PUSH1 0x40 MSTORE PUSH1 0x4 CALLDATASIZE LT PUSH2 0x21A JUMPI PUSH1 0x0 CALLDATALOAD PUSH1 0xE0 SHR DUP1 PUSH4 0x7F1E250C GT PUSH2 0x123 JUMPI DUP1 PUSH4 0xC0E6D5D6 GT PUSH2 0xAB JUMPI DUP1 PUSH4 0xEA0217CF GT PUSH2 0x6F JUMPI DUP1 PUSH4 0xEA0217CF EQ PUSH2 0x7F5 JUMPI DUP1 PUSH4 0xF8C662FF EQ PUSH2 0x81E JUMPI DUP1 PUSH4 0xFA2DABAD EQ PUSH2 0x849 JUMPI DUP1 PUSH4 0xFACD743B EQ PUSH2 0x874 JUMPI DUP1 PUSH4 0xFF666653 EQ PUSH2 0x8B1 JUMPI PUSH2 0x21A JUMP JUMPDEST DUP1 PUSH4 0xC0E6D5D6 EQ PUSH2 0x71B JUMPI DUP1 PUSH4 0xC22AB4E0 EQ PUSH2 0x746 JUMPI DUP1 PUSH4 0xD547741F EQ PUSH2 0x771 JUMPI DUP1 PUSH4 0xE0310E52 EQ PUSH2 0x79A JUMPI DUP1 PUSH4 0xE751F271 EQ PUSH2 0x7C5 JUMPI PUSH2 0x21A JUMP JUMPDEST DUP1 PUSH4 0xA5D79624 GT PUSH2 0xF2 JUMPI DUP1 PUSH4 0xA5D79624 EQ PUSH2 0x5FC JUMPI DUP1 PUSH4 0xAADC3B72 EQ PUSH2 0x639 JUMPI DUP1 PUSH4 0xAFDF6710 EQ PUSH2 0x676 JUMPI DUP1 PUSH4 0xB7D6FE24 EQ PUSH2 0x6A1 JUMPI DUP1 PUSH4 0xBE5967EA EQ PUSH2 0x6DE JUMPI PUSH2 0x21A JUMP JUMPDEST DUP1 PUSH4 0x7F1E250C EQ PUSH2 0x540 JUMPI DUP1 PUSH4 0x91D14854 EQ PUSH2 0x569 JUMPI DUP1 PUSH4 0x97C0262A EQ PUSH2 0x5A6 JUMPI DUP1 PUSH4 0xA217FDDF EQ PUSH2 0x5D1 JUMPI PUSH2 0x21A JUMP JUMPDEST DUP1 PUSH4 0x3659CFE6 GT PUSH2 0x1A6 JUMPI DUP1 PUSH4 0x52D1902D GT PUSH2 0x175 JUMPI DUP1 PUSH4 0x52D1902D EQ PUSH2 0x459 JUMPI DUP1 PUSH4 0x54FD4D50 EQ PUSH2 0x484 JUMPI DUP1 PUSH4 0x61D585DA EQ PUSH2 0x4AF JUMPI DUP1 PUSH4 0x70B0F660 EQ PUSH2 0x4EC JUMPI DUP1 PUSH4 0x75B238FC EQ PUSH2 0x515 JUMPI PUSH2 0x21A JUMP JUMPDEST DUP1 PUSH4 0x3659CFE6 EQ PUSH2 0x3C0 JUMPI DUP1 PUSH4 0x3932ABB1 EQ PUSH2 0x3E9 JUMPI DUP1 PUSH4 0x4F1EF286 EQ PUSH2 0x414 JUMPI DUP1 PUSH4 0x504CB8FA EQ PUSH2 0x430 JUMPI PUSH2 0x21A JUMP JUMPDEST DUP1 PUSH4 0x1FE97684 GT PUSH2 0x1ED JUMPI DUP1 PUSH4 0x1FE97684 EQ PUSH2 0x2DD JUMPI DUP1 PUSH4 0x248A9CA3 EQ PUSH2 0x306 JUMPI DUP1 PUSH4 0x2F2FF15D EQ PUSH2 0x343 JUMPI DUP1 PUSH4 0x33F3533B EQ PUSH2 0x36C JUMPI DUP1 PUSH4 0x36568ABE EQ PUSH2 0x397 JUMPI PUSH2 0x21A JUMP JUMPDEST DUP1 PUSH4 0x1FFC9A7 EQ PUSH2 0x21F JUMPI DUP1 PUSH4 0x2A251A3 EQ PUSH2 0x25C JUMPI DUP1 PUSH4 0x6FDDE03 EQ PUSH2 0x287 JUMPI DUP1 PUSH4 0xF43A677 EQ PUSH2 0x2B2 JUMPI JUMPDEST PUSH1 0x0 DUP1 REVERT JUMPDEST CALLVALUE DUP1 ISZERO PUSH2 0x22B JUMPI PUSH1 0x0 DUP1 REVERT JUMPDEST POP PUSH2 0x246 PUSH1 0x4 DUP1 CALLDATASIZE SUB DUP2 ADD SWAP1 PUSH2 0x241 SWAP2 SWAP1 PUSH2 0x5702 JUMP JUMPDEST PUSH2 0x8EE JUMP JUMPDEST PUSH1 0x40 MLOAD PUSH2 0x253 SWAP2 SWAP1 PUSH2 0x574A JUMP JUMPDEST PUSH1 0x40 MLOAD DUP1 SWAP2 SUB SWAP1 RETURN JUMPDEST CALLVALUE DUP1 ISZERO PUSH2 0x268 JUMPI PUSH1 0x0 DUP1 REVERT JUMPDEST POP PUSH2 0x271 PUSH2 0x968 JUMP JUMPDEST PUSH1 0x40 MLOAD PUSH2 0x27E SWAP2 SWAP1 PUSH2 0x577E JUMP JUMPDEST PUSH1 0x40 MLOAD DUP1 SWAP2 SUB SWAP1 RETURN JUMPDEST CALLVALUE DUP1 ISZERO PUSH2 0x293 JUMPI PUSH1 0x0 DUP1 REVERT JUMPDEST POP PUSH2 0x29C PUSH2 0x96E JUMP JUMPDEST PUSH1 0x40 MLOAD PUSH2 0x2A9 SWAP2 SWAP1 PUSH2 0x5832 JUMP JUMPDEST PUSH1 0x40 MLOAD DUP1 SWAP2 SUB SWAP1 RETURN JUMPDEST CALLVALUE DUP1 ISZERO PUSH2 0x2BE JUMPI PUSH1 0x0 DUP1 REVERT JUMPDEST POP PUSH2 0x2C7 PUSH2 0xA01 JUMP JUMPDEST PUSH1 0x40 MLOAD PUSH2 0x2D4 SWAP2 SWAP1 PUSH2 0x5873 JUMP JUMPDEST PUSH1 0x40 MLOAD DUP1 SWAP2 SUB SWAP1 RETURN JUMPDEST CALLVALUE DUP1 ISZERO PUSH2 0x2E9 JUMPI PUSH1 0x0 DUP1 REVERT JUMPDEST POP PUSH2 0x304 PUSH1 0x4 DUP1 CALLDATASIZE SUB DUP2 ADD SWAP1 PUSH2 0x2FF SWAP2 SWAP1 PUSH2 0x58EC JUMP JUMPDEST PUSH2 0xA18 JUMP JUMPDEST STOP JUMPDEST CALLVALUE DUP1 ISZERO PUSH2 0x312 JUMPI PUSH1 0x0 DUP1 REVERT JUMPDEST POP PUSH2 0x32D PUSH1 0x4 DUP1 CALLDATASIZE SUB DUP2 ADD SWAP1 PUSH2 0x328 SWAP2 SWAP1 PUSH2 0x594F JUMP JUMPDEST PUSH2 0xB7A JUMP JUMPDEST PUSH1 0x40 MLOAD PUSH2 0x33A SWAP2 SWAP1 PUSH2 0x598B JUMP JUMPDEST PUSH1 0x40 MLOAD DUP1 SWAP2 SUB SWAP1 RETURN JUMPDEST CALLVALUE DUP1 ISZERO PUSH2 0x34F JUMPI PUSH1 0x0 DUP1 REVERT JUMPDEST POP PUSH2 0x36A PUSH1 0x4 DUP1 CALLDATASIZE SUB DUP2 ADD SWAP1 PUSH2 0x365 SWAP2 SWAP1 PUSH2 0x59A6 JUMP JUMPDEST PUSH2 0xB9A JUMP JUMPDEST STOP JUMPDEST CALLVALUE DUP1 ISZERO PUSH2 0x378 JUMPI PUSH1 0x0 DUP1 REVERT JUMPDEST POP PUSH2 0x381 PUSH2 0xBBB JUMP JUMPDEST PUSH1 0x40 MLOAD PUSH2 0x38E SWAP2 SWAP1 PUSH2 0x574A JUMP JUMPDEST PUSH1 0x40 MLOAD DUP1 SWAP2 SUB SWAP1 RETURN JUMPDEST CALLVALUE DUP1 ISZERO PUSH2 0x3A3 JUMPI PUSH1 0x0 DUP1 REVERT JUMPDEST POP PUSH2 0x3BE PUSH1 0x4 DUP1 CALLDATASIZE SUB DUP2 ADD SWAP1 PUSH2 0x3B9 SWAP2 SWAP1 PUSH2 0x59A6 JUMP JUMPDEST PUSH2 0xBCF JUMP JUMPDEST STOP JUMPDEST CALLVALUE DUP1 ISZERO PUSH2 0x3CC JUMPI PUSH1 0x0 DUP1 REVERT JUMPDEST POP PUSH2 0x3E7 PUSH1 0x4 DUP1 CALLDATASIZE SUB DUP2 ADD SWAP1 PUSH2 0x3E2 SWAP2 SWAP1 PUSH2 0x58EC JUMP JUMPDEST PUSH2 0xC52 JUMP JUMPDEST STOP JUMPDEST CALLVALUE DUP1 ISZERO PUSH2 0x3F5 JUMPI PUSH1 0x0 DUP1 REVERT JUMPDEST POP PUSH2 0x3FE PUSH2 0xDDA JUMP JUMPDEST PUSH1 0x40 MLOAD PUSH2 0x40B SWAP2 SWAP1 PUSH2 0x577E JUMP JUMPDEST PUSH1 0x40 MLOAD DUP1 SWAP2 SUB SWAP1 RETURN JUMPDEST PUSH2 0x42E PUSH1 0x4 DUP1 CALLDATASIZE SUB DUP2 ADD SWAP1 PUSH2 0x429 SWAP2 SWAP1 PUSH2 0x5B1B JUMP JUMPDEST PUSH2 0xDE0 JUMP JUMPDEST STOP JUMPDEST CALLVALUE DUP1 ISZERO PUSH2 0x43C JUMPI PUSH1 0x0 DUP1 REVERT JUMPDEST POP PUSH2 0x457 PUSH1 0x4 DUP1 CALLDATASIZE SUB DUP2 ADD SWAP1 PUSH2 0x452 SWAP2 SWAP1 PUSH2 0x5BD7 JUMP JUMPDEST PUSH2 0xF1C JUMP JUMPDEST STOP JUMPDEST CALLVALUE DUP1 ISZERO PUSH2 0x465 JUMPI PUSH1 0x0 DUP1 REVERT JUMPDEST POP PUSH2 0x46E PUSH2 0x1223 JUMP JUMPDEST PUSH1 0x40 MLOAD PUSH2 0x47B SWAP2 SWAP1 PUSH2 0x598B JUMP JUMPDEST PUSH1 0x40 MLOAD DUP1 SWAP2 SUB SWAP1 RETURN JUMPDEST CALLVALUE DUP1 ISZERO PUSH2 0x490 JUMPI PUSH1 0x0 DUP1 REVERT JUMPDEST POP PUSH2 0x499 PUSH2 0x12DC JUMP JUMPDEST PUSH1 0x40 MLOAD PUSH2 0x4A6 SWAP2 SWAP1 PUSH2 0x5832 JUMP JUMPDEST PUSH1 0x40 MLOAD DUP1 SWAP2 SUB SWAP1 RETURN JUMPDEST CALLVALUE DUP1 ISZERO PUSH2 0x4BB JUMPI PUSH1 0x0 DUP1 REVERT JUMPDEST POP PUSH2 0x4D6 PUSH1 0x4 DUP1 CALLDATASIZE SUB DUP2 ADD SWAP1 PUSH2 0x4D1 SWAP2 SWAP1 PUSH2 0x594F JUMP JUMPDEST PUSH2 0x136F JUMP JUMPDEST PUSH1 0x40 MLOAD PUSH2 0x4E3 SWAP2 SWAP1 PUSH2 0x5D51 JUMP JUMPDEST PUSH1 0x40 MLOAD DUP1 SWAP2 SUB SWAP1 RETURN JUMPDEST CALLVALUE DUP1 ISZERO PUSH2 0x4F8 JUMPI PUSH1 0x0 DUP1 REVERT JUMPDEST POP PUSH2 0x513 PUSH1 0x4 DUP1 CALLDATASIZE SUB DUP2 ADD SWAP1 PUSH2 0x50E SWAP2 SWAP1 PUSH2 0x5D98 JUMP JUMPDEST PUSH2 0x155D JUMP JUMPDEST STOP JUMPDEST CALLVALUE DUP1 ISZERO PUSH2 0x521 JUMPI PUSH1 0x0 DUP1 REVERT JUMPDEST POP PUSH2 0x52A PUSH2 0x1592 JUMP JUMPDEST PUSH1 0x40 MLOAD PUSH2 0x537 SWAP2 SWAP1 PUSH2 0x598B JUMP JUMPDEST PUSH1 0x40 MLOAD DUP1 SWAP2 SUB SWAP1 RETURN JUMPDEST CALLVALUE DUP1 ISZERO PUSH2 0x54C JUMPI PUSH1 0x0 DUP1 REVERT JUMPDEST POP PUSH2 0x567 PUSH1 0x4 DUP1 CALLDATASIZE SUB DUP2 ADD SWAP1 PUSH2 0x562 SWAP2 SWAP1 PUSH2 0x5DF1 JUMP JUMPDEST PUSH2 0x15B6 JUMP JUMPDEST STOP JUMPDEST CALLVALUE DUP1 ISZERO PUSH2 0x575 JUMPI PUSH1 0x0 DUP1 REVERT JUMPDEST POP PUSH2 0x590 PUSH1 0x4 DUP1 CALLDATASIZE SUB DUP2 ADD SWAP1 PUSH2 0x58B SWAP2 SWAP1 PUSH2 0x59A6 JUMP JUMPDEST PUSH2 0x15FF JUMP JUMPDEST PUSH1 0x40 MLOAD PUSH2 0x59D SWAP2 SWAP1 PUSH2 0x574A JUMP JUMPDEST PUSH1 0x40 MLOAD DUP1 SWAP2 SUB SWAP1 RETURN JUMPDEST CALLVALUE DUP1 ISZERO PUSH2 0x5B2 JUMPI PUSH1 0x0 DUP1 REVERT JUMPDEST POP PUSH2 0x5BB PUSH2 0x166A JUMP JUMPDEST PUSH1 0x40 MLOAD PUSH2 0x5C8 SWAP2 SWAP1 PUSH2 0x5E2D JUMP JUMPDEST PUSH1 0x40 MLOAD DUP1 SWAP2 SUB SWAP1 RETURN JUMPDEST CALLVALUE DUP1 ISZERO PUSH2 0x5DD JUMPI PUSH1 0x0 DUP1 REVERT JUMPDEST POP PUSH2 0x5E6 PUSH2 0x1690 JUMP JUMPDEST PUSH1 0x40 MLOAD PUSH2 0x5F3 SWAP2 SWAP1 PUSH2 0x598B JUMP JUMPDEST PUSH1 0x40 MLOAD DUP1 SWAP2 SUB SWAP1 RETURN JUMPDEST CALLVALUE DUP1 ISZERO PUSH2 0x608 JUMPI PUSH1 0x0 DUP1 REVERT JUMPDEST POP PUSH2 0x623 PUSH1 0x4 DUP1 CALLDATASIZE SUB DUP2 ADD SWAP1 PUSH2 0x61E SWAP2 SWAP1 PUSH2 0x5E6D JUMP JUMPDEST PUSH2 0x1697 JUMP JUMPDEST PUSH1 0x40 MLOAD PUSH2 0x630 SWAP2 SWAP1 PUSH2 0x574A JUMP JUMPDEST PUSH1 0x40 MLOAD DUP1 SWAP2 SUB SWAP1 RETURN JUMPDEST CALLVALUE DUP1 ISZERO PUSH2 0x645 JUMPI PUSH1 0x0 DUP1 REVERT JUMPDEST POP PUSH2 0x660 PUSH1 0x4 DUP1 CALLDATASIZE SUB DUP2 ADD SWAP1 PUSH2 0x65B SWAP2 SWAP1 PUSH2 0x59A6 JUMP JUMPDEST PUSH2 0x1791 JUMP JUMPDEST PUSH1 0x40 MLOAD PUSH2 0x66D SWAP2 SWAP1 PUSH2 0x574A JUMP JUMPDEST PUSH1 0x40 MLOAD DUP1 SWAP2 SUB SWAP1 RETURN JUMPDEST CALLVALUE DUP1 ISZERO PUSH2 0x682 JUMPI PUSH1 0x0 DUP1 REVERT JUMPDEST POP PUSH2 0x68B PUSH2 0x17C4 JUMP JUMPDEST PUSH1 0x40 MLOAD PUSH2 0x698 SWAP2 SWAP1 PUSH2 0x5EF0 JUMP JUMPDEST PUSH1 0x40 MLOAD DUP1 SWAP2 SUB SWAP1 RETURN JUMPDEST CALLVALUE DUP1 ISZERO PUSH2 0x6AD JUMPI PUSH1 0x0 DUP1 REVERT JUMPDEST POP PUSH2 0x6C8 PUSH1 0x4 DUP1 CALLDATASIZE SUB DUP2 ADD SWAP1 PUSH2 0x6C3 SWAP2 SWAP1 PUSH2 0x5FAC JUMP JUMPDEST PUSH2 0x17E8 JUMP JUMPDEST PUSH1 0x40 MLOAD PUSH2 0x6D5 SWAP2 SWAP1 PUSH2 0x574A JUMP JUMPDEST PUSH1 0x40 MLOAD DUP1 SWAP2 SUB SWAP1 RETURN JUMPDEST CALLVALUE DUP1 ISZERO PUSH2 0x6EA JUMPI PUSH1 0x0 DUP1 REVERT JUMPDEST POP PUSH2 0x705 PUSH1 0x4 DUP1 CALLDATASIZE SUB DUP2 ADD SWAP1 PUSH2 0x700 SWAP2 SWAP1 PUSH2 0x6052 JUMP JUMPDEST PUSH2 0x1A0E JUMP JUMPDEST PUSH1 0x40 MLOAD PUSH2 0x712 SWAP2 SWAP1 PUSH2 0x598B JUMP JUMPDEST PUSH1 0x40 MLOAD DUP1 SWAP2 SUB SWAP1 RETURN JUMPDEST CALLVALUE DUP1 ISZERO PUSH2 0x727 JUMPI PUSH1 0x0 DUP1 REVERT JUMPDEST POP PUSH2 0x730 PUSH2 0x1A4D JUMP JUMPDEST PUSH1 0x40 MLOAD PUSH2 0x73D SWAP2 SWAP1 PUSH2 0x5EF0 JUMP JUMPDEST PUSH1 0x40 MLOAD DUP1 SWAP2 SUB SWAP1 RETURN JUMPDEST CALLVALUE DUP1 ISZERO PUSH2 0x752 JUMPI PUSH1 0x0 DUP1 REVERT JUMPDEST POP PUSH2 0x75B PUSH2 0x1A71 JUMP JUMPDEST PUSH1 0x40 MLOAD PUSH2 0x768 SWAP2 SWAP1 PUSH2 0x5E2D JUMP JUMPDEST PUSH1 0x40 MLOAD DUP1 SWAP2 SUB SWAP1 RETURN JUMPDEST CALLVALUE DUP1 ISZERO PUSH2 0x77D JUMPI PUSH1 0x0 DUP1 REVERT JUMPDEST POP PUSH2 0x798 PUSH1 0x4 DUP1 CALLDATASIZE SUB DUP2 ADD SWAP1 PUSH2 0x793 SWAP2 SWAP1 PUSH2 0x59A6 JUMP JUMPDEST PUSH2 0x1A97 JUMP JUMPDEST STOP JUMPDEST CALLVALUE DUP1 ISZERO PUSH2 0x7A6 JUMPI PUSH1 0x0 DUP1 REVERT JUMPDEST POP PUSH2 0x7AF PUSH2 0x1AB8 JUMP JUMPDEST PUSH1 0x40 MLOAD PUSH2 0x7BC SWAP2 SWAP1 PUSH2 0x5EF0 JUMP JUMPDEST PUSH1 0x40 MLOAD DUP1 SWAP2 SUB SWAP1 RETURN JUMPDEST PUSH2 0x7DF PUSH1 0x4 DUP1 CALLDATASIZE SUB DUP2 ADD SWAP1 PUSH2 0x7DA SWAP2 SWAP1 PUSH2 0x594F JUMP JUMPDEST PUSH2 0x1ADC JUMP JUMPDEST PUSH1 0x40 MLOAD PUSH2 0x7EC SWAP2 SWAP1 PUSH2 0x574A JUMP JUMPDEST PUSH1 0x40 MLOAD DUP1 SWAP2 SUB SWAP1 RETURN JUMPDEST CALLVALUE DUP1 ISZERO PUSH2 0x801 JUMPI PUSH1 0x0 DUP1 REVERT JUMPDEST POP PUSH2 0x81C PUSH1 0x4 DUP1 CALLDATASIZE SUB DUP2 ADD SWAP1 PUSH2 0x817 SWAP2 SWAP1 PUSH2 0x5D98 JUMP JUMPDEST PUSH2 0x1C18 JUMP JUMPDEST STOP JUMPDEST CALLVALUE DUP1 ISZERO PUSH2 0x82A JUMPI PUSH1 0x0 DUP1 REVERT JUMPDEST POP PUSH2 0x833 PUSH2 0x1C4D JUMP JUMPDEST PUSH1 0x40 MLOAD PUSH2 0x840 SWAP2 SWAP1 PUSH2 0x5E2D JUMP JUMPDEST PUSH1 0x40 MLOAD DUP1 SWAP2 SUB SWAP1 RETURN JUMPDEST CALLVALUE DUP1 ISZERO PUSH2 0x855 JUMPI PUSH1 0x0 DUP1 REVERT JUMPDEST POP PUSH2 0x85E PUSH2 0x1C73 JUMP JUMPDEST PUSH1 0x40 MLOAD PUSH2 0x86B SWAP2 SWAP1 PUSH2 0x598B JUMP JUMPDEST PUSH1 0x40 MLOAD DUP1 SWAP2 SUB SWAP1 RETURN JUMPDEST CALLVALUE DUP1 ISZERO PUSH2 0x880 JUMPI PUSH1 0x0 DUP1 REVERT JUMPDEST POP PUSH2 0x89B PUSH1 0x4 DUP1 CALLDATASIZE SUB DUP2 ADD SWAP1 PUSH2 0x896 SWAP2 SWAP1 PUSH2 0x58EC JUMP JUMPDEST PUSH2 0x1C97 JUMP JUMPDEST PUSH1 0x40 MLOAD PUSH2 0x8A8 SWAP2 SWAP1 PUSH2 0x574A JUMP JUMPDEST PUSH1 0x40 MLOAD DUP1 SWAP2 SUB SWAP1 RETURN JUMPDEST CALLVALUE DUP1 ISZERO PUSH2 0x8BD JUMPI PUSH1 0x0 DUP1 REVERT JUMPDEST POP PUSH2 0x8D8 PUSH1 0x4 DUP1 CALLDATASIZE SUB DUP2 ADD SWAP1 PUSH2 0x8D3 SWAP2 SWAP1 PUSH2 0x61C9 JUMP JUMPDEST PUSH2 0x1CF1 JUMP JUMPDEST PUSH1 0x40 MLOAD PUSH2 0x8E5 SWAP2 SWAP1 PUSH2 0x598B JUMP JUMPDEST PUSH1 0x40 MLOAD DUP1 SWAP2 SUB SWAP1 RETURN JUMPDEST PUSH1 0x0 PUSH32 0x7965DB0B00000000000000000000000000000000000000000000000000000000 PUSH28 0xFFFFFFFFFFFFFFFFFFFFFFFFFFFFFFFFFFFFFFFFFFFFFFFFFFFFFFFF NOT AND DUP3 PUSH28 0xFFFFFFFFFFFFFFFFFFFFFFFFFFFFFFFFFFFFFFFFFFFFFFFFFFFFFFFF NOT AND EQ DUP1 PUSH2 0x961 JUMPI POP PUSH2 0x960 DUP3 PUSH2 0x2396 JUMP JUMPDEST JUMPDEST SWAP1 POP SWAP2 SWAP1 POP JUMP JUMPDEST PUSH1 0xFC SLOAD DUP2 JUMP JUMPDEST PUSH1 0x60 PUSH2 0x103 DUP1 SLOAD PUSH2 0x97E SWAP1 PUSH2 0x6270 JUMP JUMPDEST DUP1 PUSH1 0x1F ADD PUSH1 0x20 DUP1 SWAP2 DIV MUL PUSH1 0x20 ADD PUSH1 0x40 MLOAD SWAP1 DUP2 ADD PUSH1 0x40 MSTORE DUP1 SWAP3 SWAP2 SWAP1 DUP2 DUP2 MSTORE PUSH1 0x20 ADD DUP3 DUP1 SLOAD PUSH2 0x9AA SWAP1 PUSH2 0x6270 JUMP JUMPDEST DUP1 ISZERO PUSH2 0x9F7 JUMPI DUP1 PUSH1 0x1F LT PUSH2 0x9CC JUMPI PUSH2 0x100 DUP1 DUP4 SLOAD DIV MUL DUP4 MSTORE SWAP2 PUSH1 0x20 ADD SWAP2 PUSH2 0x9F7 JUMP JUMPDEST DUP3 ADD SWAP2 SWAP1 PUSH1 0x0 MSTORE PUSH1 0x20 PUSH1 0x0 KECCAK256 SWAP1 JUMPDEST DUP2 SLOAD DUP2 MSTORE SWAP1 PUSH1 0x1 ADD SWAP1 PUSH1 0x20 ADD DUP1 DUP4 GT PUSH2 0x9DA JUMPI DUP3 SWAP1 SUB PUSH1 0x1F AND DUP3 ADD SWAP2 JUMPDEST POP POP POP POP POP SWAP1 POP SWAP1 JUMP JUMPDEST PUSH2 0x105 PUSH1 0x0 SWAP1 SLOAD SWAP1 PUSH2 0x100 EXP SWAP1 DIV PUSH4 0xFFFFFFFF AND DUP2 JUMP JUMPDEST PUSH32 0xA49807205CE4D355092EF5A8A18F56E8913CF4A201FBE287825B095693C21775 PUSH2 0xA42 DUP2 PUSH2 0x2400 JUMP JUMPDEST PUSH1 0x0 ISZERO ISZERO PUSH2 0x100 PUSH1 0x0 DUP5 PUSH20 0xFFFFFFFFFFFFFFFFFFFFFFFFFFFFFFFFFFFFFFFF AND PUSH20 0xFFFFFFFFFFFFFFFFFFFFFFFFFFFFFFFFFFFFFFFF AND DUP2 MSTORE PUSH1 0x20 ADD SWAP1 DUP2 MSTORE PUSH1 0x20 ADD PUSH1 0x0 KECCAK256 PUSH1 0x1 ADD PUSH1 0x0 SWAP1 SLOAD SWAP1 PUSH2 0x100 EXP SWAP1 DIV PUSH1 0xFF AND ISZERO ISZERO SUB PUSH2 0xAD9 JUMPI PUSH1 0x40 MLOAD PUSH32 0x8C379A000000000000000000000000000000000000000000000000000000000 DUP2 MSTORE PUSH1 0x4 ADD PUSH2 0xAD0 SWAP1 PUSH2 0x6313 JUMP JUMPDEST PUSH1 0x40 MLOAD DUP1 SWAP2 SUB SWAP1 REVERT JUMPDEST PUSH1 0x0 PUSH2 0x100 PUSH1 0x0 DUP5 PUSH20 0xFFFFFFFFFFFFFFFFFFFFFFFFFFFFFFFFFFFFFFFF AND PUSH20 0xFFFFFFFFFFFFFFFFFFFFFFFFFFFFFFFFFFFFFFFF AND DUP2 MSTORE PUSH1 0x20 ADD SWAP1 DUP2 MSTORE PUSH1 0x20 ADD PUSH1 0x0 KECCAK256 PUSH1 0x1 ADD PUSH1 0x0 PUSH2 0x100 EXP DUP2 SLOAD DUP2 PUSH1 0xFF MUL NOT AND SWAP1 DUP4 ISZERO ISZERO MUL OR SWAP1 SSTORE POP PUSH1 0x1 PUSH2 0x105 PUSH1 0x0 DUP3 DUP3 DUP3 SWAP1 SLOAD SWAP1 PUSH2 0x100 EXP SWAP1 DIV PUSH4 0xFFFFFFFF AND PUSH2 0xB58 SWAP2 SWAP1 PUSH2 0x6362 JUMP JUMPDEST SWAP3 POP PUSH2 0x100 EXP DUP2 SLOAD DUP2 PUSH4 0xFFFFFFFF MUL NOT AND SWAP1 DUP4 PUSH4 0xFFFFFFFF AND MUL OR SWAP1 SSTORE POP POP POP JUMP JUMPDEST PUSH1 0x0 PUSH1 0xC9 PUSH1 0x0 DUP4 DUP2 MSTORE PUSH1 0x20 ADD SWAP1 DUP2 MSTORE PUSH1 0x20 ADD PUSH1 0x0 KECCAK256 PUSH1 0x1 ADD SLOAD SWAP1 POP SWAP2 SWAP1 POP JUMP JUMPDEST PUSH2 0xBA3 DUP3 PUSH2 0xB7A JUMP JUMPDEST PUSH2 0xBAC DUP2 PUSH2 0x2400 JUMP JUMPDEST PUSH2 0xBB6 DUP4 DUP4 PUSH2 0x2414 JUMP JUMPDEST POP POP POP JUMP JUMPDEST PUSH2 0x105 PUSH1 0x4 SWAP1 SLOAD SWAP1 PUSH2 0x100 EXP SWAP1 DIV PUSH1 0xFF AND DUP2 JUMP JUMPDEST PUSH2 0xBD7 PUSH2 0x24F5 JUMP JUMPDEST PUSH20 0xFFFFFFFFFFFFFFFFFFFFFFFFFFFFFFFFFFFFFFFF AND DUP2 PUSH20 0xFFFFFFFFFFFFFFFFFFFFFFFFFFFFFFFFFFFFFFFF AND EQ PUSH2 0xC44 JUMPI PUSH1 0x40 MLOAD PUSH32 0x8C379A000000000000000000000000000000000000000000000000000000000 DUP2 MSTORE PUSH1 0x4 ADD PUSH2 0xC3B SWAP1 PUSH2 0x6408 JUMP JUMPDEST PUSH1 0x40 MLOAD DUP1 SWAP2 SUB SWAP1 REVERT JUMPDEST PUSH2 0xC4E DUP3 DUP3 PUSH2 0x24FD JUMP JUMPDEST POP POP JUMP JUMPDEST PUSH32 0x0 PUSH20 0xFFFFFFFFFFFFFFFFFFFFFFFFFFFFFFFFFFFFFFFF AND ADDRESS PUSH20 0xFFFFFFFFFFFFFFFFFFFFFFFFFFFFFFFFFFFFFFFF AND SUB PUSH2 0xCE0 JUMPI PUSH1 0x40 MLOAD PUSH32 0x8C379A000000000000000000000000000000000000000000000000000000000 DUP2 MSTORE PUSH1 0x4 ADD PUSH2 0xCD7 SWAP1 PUSH2 0x649A JUMP JUMPDEST PUSH1 0x40 MLOAD DUP1 SWAP2 SUB SWAP1 REVERT JUMPDEST PUSH32 0x0 PUSH20 0xFFFFFFFFFFFFFFFFFFFFFFFFFFFFFFFFFFFFFFFF AND PUSH2 0xD1F PUSH2 0x25DF JUMP JUMPDEST PUSH20 0xFFFFFFFFFFFFFFFFFFFFFFFFFFFFFFFFFFFFFFFF AND EQ PUSH2 0xD75 JUMPI PUSH1 0x40 MLOAD PUSH32 0x8C379A000000000000000000000000000000000000000000000000000000000 DUP2 MSTORE PUSH1 0x4 ADD PUSH2 0xD6C SWAP1 PUSH2 0x652C JUMP JUMPDEST PUSH1 0x40 MLOAD DUP1 SWAP2 SUB SWAP1 REVERT JUMPDEST PUSH2 0xD7E DUP2 PUSH2 0x2636 JUMP JUMPDEST PUSH2 0xDD7 DUP2 PUSH1 0x0 PUSH8 0xFFFFFFFFFFFFFFFF DUP2 GT ISZERO PUSH2 0xD9D JUMPI PUSH2 0xD9C PUSH2 0x59F0 JUMP JUMPDEST JUMPDEST PUSH1 0x40 MLOAD SWAP1 DUP1 DUP3 MSTORE DUP1 PUSH1 0x1F ADD PUSH1 0x1F NOT AND PUSH1 0x20 ADD DUP3 ADD PUSH1 0x40 MSTORE DUP1 ISZERO PUSH2 0xDCF JUMPI DUP2 PUSH1 0x20 ADD PUSH1 0x1 DUP3 MUL DUP1 CALLDATASIZE DUP4 CALLDATACOPY DUP1 DUP3 ADD SWAP2 POP POP SWAP1 POP JUMPDEST POP PUSH1 0x0 PUSH2 0x26DD JUMP JUMPDEST POP JUMP JUMPDEST PUSH1 0xFB SLOAD DUP2 JUMP JUMPDEST PUSH32 0x0 PUSH20 0xFFFFFFFFFFFFFFFFFFFFFFFFFFFFFFFFFFFFFFFF AND ADDRESS PUSH20 0xFFFFFFFFFFFFFFFFFFFFFFFFFFFFFFFFFFFFFFFF AND SUB PUSH2 0xE6E JUMPI PUSH1 0x40 MLOAD PUSH32 0x8C379A000000000000000000000000000000000000000000000000000000000 DUP2 MSTORE PUSH1 0x4 ADD PUSH2 0xE65 SWAP1 PUSH2 0x649A JUMP JUMPDEST PUSH1 0x40 MLOAD DUP1 SWAP2 SUB SWAP1 REVERT JUMPDEST PUSH32 0x0 PUSH20 0xFFFFFFFFFFFFFFFFFFFFFFFFFFFFFFFFFFFFFFFF AND PUSH2 0xEAD PUSH2 0x25DF JUMP JUMPDEST PUSH20 0xFFFFFFFFFFFFFFFFFFFFFFFFFFFFFFFFFFFFFFFF AND EQ PUSH2 0xF03 JUMPI PUSH1 0x40 MLOAD PUSH32 0x8C379A000000000000000000000000000000000000000000000000000000000 DUP2 MSTORE PUSH1 0x4 ADD PUSH2 0xEFA SWAP1 PUSH2 0x652C JUMP JUMPDEST PUSH1 0x40 MLOAD DUP1 SWAP2 SUB SWAP1 REVERT JUMPDEST PUSH2 0xF0C DUP3 PUSH2 0x2636 JUMP JUMPDEST PUSH2 0xF18 DUP3 DUP3 PUSH1 0x1 PUSH2 0x26DD JUMP JUMPDEST POP POP JUMP JUMPDEST PUSH1 0x0 PUSH2 0xF28 PUSH1 0x1 PUSH2 0x284B JUMP JUMPDEST SWAP1 POP DUP1 ISZERO PUSH2 0xF4C JUMPI PUSH1 0x1 PUSH1 0x0 PUSH1 0x1 PUSH2 0x100 EXP DUP2 SLOAD DUP2 PUSH1 0xFF MUL NOT AND SWAP1 DUP4 ISZERO ISZERO MUL OR SWAP1 SSTORE POP JUMPDEST DUP9 PUSH1 0xFE PUSH1 0x0 PUSH2 0x100 EXP DUP2 SLOAD DUP2 PUSH20 0xFFFFFFFFFFFFFFFFFFFFFFFFFFFFFFFFFFFFFFFF MUL NOT AND SWAP1 DUP4 PUSH20 0xFFFFFFFFFFFFFFFFFFFFFFFFFFFFFFFFFFFFFFFF AND MUL OR SWAP1 SSTORE POP DUP10 PUSH1 0xFD PUSH1 0x0 PUSH2 0x100 EXP DUP2 SLOAD DUP2 PUSH20 0xFFFFFFFFFFFFFFFFFFFFFFFFFFFFFFFFFFFFFFFF MUL NOT AND SWAP1 DUP4 PUSH20 0xFFFFFFFFFFFFFFFFFFFFFFFFFFFFFFFFFFFFFFFF AND MUL OR SWAP1 SSTORE POP PUSH1 0x40 MLOAD DUP1 PUSH1 0x40 ADD PUSH1 0x40 MSTORE DUP1 DUP9 DUP9 DUP1 DUP1 PUSH1 0x1F ADD PUSH1 0x20 DUP1 SWAP2 DIV MUL PUSH1 0x20 ADD PUSH1 0x40 MLOAD SWAP1 DUP2 ADD PUSH1 0x40 MSTORE DUP1 SWAP4 SWAP3 SWAP2 SWAP1 DUP2 DUP2 MSTORE PUSH1 0x20 ADD DUP4 DUP4 DUP1 DUP3 DUP5 CALLDATACOPY PUSH1 0x0 DUP2 DUP5 ADD MSTORE PUSH1 0x1F NOT PUSH1 0x1F DUP3 ADD AND SWAP1 POP DUP1 DUP4 ADD SWAP3 POP POP POP POP POP POP POP DUP2 MSTORE PUSH1 0x20 ADD PUSH1 0x1 ISZERO ISZERO DUP2 MSTORE POP PUSH2 0x100 PUSH1 0x0 DUP11 PUSH20 0xFFFFFFFFFFFFFFFFFFFFFFFFFFFFFFFFFFFFFFFF AND PUSH20 0xFFFFFFFFFFFFFFFFFFFFFFFFFFFFFFFFFFFFFFFF AND DUP2 MSTORE PUSH1 0x20 ADD SWAP1 DUP2 MSTORE PUSH1 0x20 ADD PUSH1 0x0 KECCAK256 PUSH1 0x0 DUP3 ADD MLOAD DUP2 PUSH1 0x0 ADD SWAP1 DUP1 MLOAD SWAP1 PUSH1 0x20 ADD SWAP1 PUSH2 0x1086 SWAP3 SWAP2 SWAP1 PUSH2 0x54E7 JUMP JUMPDEST POP PUSH1 0x20 DUP3 ADD MLOAD DUP2 PUSH1 0x1 ADD PUSH1 0x0 PUSH2 0x100 EXP DUP2 SLOAD DUP2 PUSH1 0xFF MUL NOT AND SWAP1 DUP4 ISZERO ISZERO MUL OR SWAP1 SSTORE POP SWAP1 POP POP PUSH1 0x1 PUSH2 0x105 PUSH1 0x0 PUSH2 0x100 EXP DUP2 SLOAD DUP2 PUSH4 0xFFFFFFFF MUL NOT AND SWAP1 DUP4 PUSH4 0xFFFFFFFF AND MUL OR SWAP1 SSTORE POP DUP11 PUSH1 0xFF PUSH1 0x0 PUSH2 0x100 EXP DUP2 SLOAD DUP2 PUSH20 0xFFFFFFFFFFFFFFFFFFFFFFFFFFFFFFFFFFFFFFFF MUL NOT AND SWAP1 DUP4 PUSH20 0xFFFFFFFFFFFFFFFFFFFFFFFFFFFFFFFFFFFFFFFF AND MUL OR SWAP1 SSTORE POP PUSH1 0x1 PUSH1 0xFB DUP2 SWAP1 SSTORE POP PUSH3 0x93A80 PUSH1 0xFC DUP2 SWAP1 SSTORE POP DUP5 DUP5 PUSH2 0x103 SWAP2 SWAP1 PUSH2 0x1132 SWAP3 SWAP2 SWAP1 PUSH2 0x556D JUMP JUMPDEST POP DUP3 DUP3 PUSH2 0x104 SWAP2 SWAP1 PUSH2 0x1145 SWAP3 SWAP2 SWAP1 PUSH2 0x556D JUMP JUMPDEST POP PUSH1 0x1 PUSH2 0x105 PUSH1 0x4 PUSH2 0x100 EXP DUP2 SLOAD DUP2 PUSH1 0xFF MUL NOT AND SWAP1 DUP4 ISZERO ISZERO MUL OR SWAP1 SSTORE POP PUSH2 0x1193 PUSH32 0xA49807205CE4D355092EF5A8A18F56E8913CF4A201FBE287825B095693C21775 PUSH2 0x118E PUSH2 0x24F5 JUMP JUMPDEST PUSH2 0x2414 JUMP JUMPDEST PUSH2 0x11BD PUSH32 0xA49807205CE4D355092EF5A8A18F56E8913CF4A201FBE287825B095693C21775 DUP1 PUSH2 0x293B JUMP JUMPDEST DUP1 ISZERO PUSH2 0x1216 JUMPI PUSH1 0x0 DUP1 PUSH1 0x1 PUSH2 0x100 EXP DUP2 SLOAD DUP2 PUSH1 0xFF MUL NOT AND SWAP1 DUP4 ISZERO ISZERO MUL OR SWAP1 SSTORE POP PUSH32 0x7F26B83FF96E1F2B6A682F133852F6798A09C465DA95921460CEFB3847402498 PUSH1 0x1 PUSH1 0x40 MLOAD PUSH2 0x120D SWAP2 SWAP1 PUSH2 0x659E JUMP JUMPDEST PUSH1 0x40 MLOAD DUP1 SWAP2 SUB SWAP1 LOG1 JUMPDEST POP POP POP POP POP POP POP POP POP POP POP JUMP JUMPDEST PUSH1 0x0 PUSH32 0x0 PUSH20 0xFFFFFFFFFFFFFFFFFFFFFFFFFFFFFFFFFFFFFFFF AND ADDRESS PUSH20 0xFFFFFFFFFFFFFFFFFFFFFFFFFFFFFFFFFFFFFFFF AND EQ PUSH2 0x12B3 JUMPI PUSH1 0x40 MLOAD PUSH32 0x8C379A000000000000000000000000000000000000000000000000000000000 DUP2 MSTORE PUSH1 0x4 ADD PUSH2 0x12AA SWAP1 PUSH2 0x662B JUMP JUMPDEST PUSH1 0x40 MLOAD DUP1 SWAP2 SUB SWAP1 REVERT JUMPDEST PUSH32 0x360894A13BA1A3210667C828492DB98DCA3E2076CC3735A920A3CA505D382BBC PUSH1 0x0 SHL SWAP1 POP SWAP1 JUMP JUMPDEST PUSH1 0x60 PUSH2 0x104 DUP1 SLOAD PUSH2 0x12EC SWAP1 PUSH2 0x6270 JUMP JUMPDEST DUP1 PUSH1 0x1F ADD PUSH1 0x20 DUP1 SWAP2 DIV MUL PUSH1 0x20 ADD PUSH1 0x40 MLOAD SWAP1 DUP2 ADD PUSH1 0x40 MSTORE DUP1 SWAP3 SWAP2 SWAP1 DUP2 DUP2 MSTORE PUSH1 0x20 ADD DUP3 DUP1 SLOAD PUSH2 0x1318 SWAP1 PUSH2 0x6270 JUMP JUMPDEST DUP1 ISZERO PUSH2 0x1365 JUMPI DUP1 PUSH1 0x1F LT PUSH2 0x133A JUMPI PUSH2 0x100 DUP1 DUP4 SLOAD DIV MUL DUP4 MSTORE SWAP2 PUSH1 0x20 ADD SWAP2 PUSH2 0x1365 JUMP JUMPDEST DUP3 ADD SWAP2 SWAP1 PUSH1 0x0 MSTORE PUSH1 0x20 PUSH1 0x0 KECCAK256 SWAP1 JUMPDEST DUP2 SLOAD DUP2 MSTORE SWAP1 PUSH1 0x1 ADD SWAP1 PUSH1 0x20 ADD DUP1 DUP4 GT PUSH2 0x1348 JUMPI DUP3 SWAP1 SUB PUSH1 0x1F AND DUP3 ADD SWAP2 JUMPDEST POP POP POP POP POP SWAP1 POP SWAP1 JUMP JUMPDEST PUSH1 0x0 DUP1 PUSH2 0x102 PUSH1 0x0 DUP5 DUP2 MSTORE PUSH1 0x20 ADD SWAP1 DUP2 MSTORE PUSH1 0x20 ADD PUSH1 0x0 KECCAK256 SWAP1 POP PUSH1 0x0 DUP1 SHL DUP2 PUSH1 0x1 ADD SLOAD SUB PUSH2 0x13D1 JUMPI PUSH1 0x40 MLOAD PUSH32 0x8C379A000000000000000000000000000000000000000000000000000000000 DUP2 MSTORE PUSH1 0x4 ADD PUSH2 0x13C8 SWAP1 PUSH2 0x6697 JUMP JUMPDEST PUSH1 0x40 MLOAD DUP1 SWAP2 SUB SWAP1 REVERT JUMPDEST DUP1 PUSH1 0x6 ADD PUSH1 0x2 SWAP1 SLOAD SWAP1 PUSH2 0x100 EXP SWAP1 DIV PUSH1 0xFF AND ISZERO PUSH2 0x13F2 JUMPI PUSH1 0x7 SWAP2 POP POP PUSH2 0x1558 JUMP JUMPDEST DUP1 PUSH1 0x6 ADD PUSH1 0x3 SWAP1 SLOAD SWAP1 PUSH2 0x100 EXP SWAP1 DIV PUSH1 0xFF AND ISZERO PUSH2 0x1413 JUMPI PUSH1 0x3 SWAP2 POP POP PUSH2 0x1558 JUMP JUMPDEST PUSH2 0x145C DUP2 PUSH1 0x4 ADD PUSH1 0x40 MLOAD DUP1 PUSH1 0x20 ADD PUSH1 0x40 MSTORE SWAP1 DUP2 PUSH1 0x0 DUP3 ADD PUSH1 0x0 SWAP1 SLOAD SWAP1 PUSH2 0x100 EXP SWAP1 DIV PUSH8 0xFFFFFFFFFFFFFFFF AND PUSH8 0xFFFFFFFFFFFFFFFF AND PUSH8 0xFFFFFFFFFFFFFFFF AND DUP2 MSTORE POP POP PUSH2 0x2997 JUMP JUMPDEST ISZERO PUSH2 0x146B JUMPI PUSH1 0x1 SWAP2 POP POP PUSH2 0x1558 JUMP JUMPDEST PUSH2 0x14B4 DUP2 PUSH1 0x5 ADD PUSH1 0x40 MLOAD DUP1 PUSH1 0x20 ADD PUSH1 0x40 MSTORE SWAP1 DUP2 PUSH1 0x0 DUP3 ADD PUSH1 0x0 SWAP1 SLOAD SWAP1 PUSH2 0x100 EXP SWAP1 DIV PUSH8 0xFFFFFFFFFFFFFFFF AND PUSH8 0xFFFFFFFFFFFFFFFF AND PUSH8 0xFFFFFFFFFFFFFFFF AND DUP2 MSTORE POP POP PUSH2 0x2997 JUMP JUMPDEST DUP1 ISZERO PUSH2 0x14C6 JUMPI POP PUSH2 0x14C4 DUP4 PUSH2 0x29B1 JUMP JUMPDEST ISZERO JUMPDEST ISZERO PUSH2 0x14D5 JUMPI PUSH1 0x2 SWAP2 POP POP PUSH2 0x1558 JUMP JUMPDEST PUSH2 0x151E DUP2 PUSH1 0x5 ADD PUSH1 0x40 MLOAD DUP1 PUSH1 0x20 ADD PUSH1 0x40 MSTORE SWAP1 DUP2 PUSH1 0x0 DUP3 ADD PUSH1 0x0 SWAP1 SLOAD SWAP1 PUSH2 0x100 EXP SWAP1 DIV PUSH8 0xFFFFFFFFFFFFFFFF AND PUSH8 0xFFFFFFFFFFFFFFFF AND PUSH8 0xFFFFFFFFFFFFFFFF AND DUP2 MSTORE POP POP PUSH2 0x2A56 JUMP JUMPDEST DUP1 PUSH2 0x152E JUMPI POP PUSH2 0x152D DUP4 PUSH2 0x29B1 JUMP JUMPDEST JUMPDEST ISZERO PUSH2 0x1552 JUMPI PUSH2 0x153C DUP4 PUSH2 0x2A82 JUMP JUMPDEST PUSH2 0x1547 JUMPI PUSH1 0x4 PUSH2 0x154A JUMP JUMPDEST PUSH1 0x5 JUMPDEST SWAP2 POP POP PUSH2 0x1558 JUMP JUMPDEST PUSH1 0x0 SWAP2 POP POP JUMPDEST SWAP2 SWAP1 POP JUMP JUMPDEST PUSH32 0xA49807205CE4D355092EF5A8A18F56E8913CF4A201FBE287825B095693C21775 PUSH2 0x1587 DUP2 PUSH2 0x2400 JUMP JUMPDEST DUP2 PUSH1 0xFB DUP2 SWAP1 SSTORE POP POP POP JUMP JUMPDEST PUSH32 0xA49807205CE4D355092EF5A8A18F56E8913CF4A201FBE287825B095693C21775 DUP2 JUMP JUMPDEST PUSH32 0xA49807205CE4D355092EF5A8A18F56E8913CF4A201FBE287825B095693C21775 PUSH2 0x15E0 DUP2 PUSH2 0x2400 JUMP JUMPDEST DUP2 PUSH2 0x105 PUSH1 0x4 PUSH2 0x100 EXP DUP2 SLOAD DUP2 PUSH1 0xFF MUL NOT AND SWAP1 DUP4 ISZERO ISZERO MUL OR SWAP1 SSTORE POP POP POP JUMP JUMPDEST PUSH1 0x0 PUSH1 0xC9 PUSH1 0x0 DUP5 DUP2 MSTORE PUSH1 0x20 ADD SWAP1 DUP2 MSTORE PUSH1 0x20 ADD PUSH1 0x0 KECCAK256 PUSH1 0x0 ADD PUSH1 0x0 DUP4 PUSH20 0xFFFFFFFFFFFFFFFFFFFFFFFFFFFFFFFFFFFFFFFF AND PUSH20 0xFFFFFFFFFFFFFFFFFFFFFFFFFFFFFFFFFFFFFFFF AND DUP2 MSTORE PUSH1 0x20 ADD SWAP1 DUP2 MSTORE PUSH1 0x20 ADD PUSH1 0x0 KECCAK256 PUSH1 0x0 SWAP1 SLOAD SWAP1 PUSH2 0x100 EXP SWAP1 DIV PUSH1 0xFF AND SWAP1 POP SWAP3 SWAP2 POP POP JUMP JUMPDEST PUSH1 0xFE PUSH1 0x0 SWAP1 SLOAD SWAP1 PUSH2 0x100 EXP SWAP1 DIV PUSH20 0xFFFFFFFFFFFFFFFFFFFFFFFFFFFFFFFFFFFFFFFF AND DUP2 JUMP JUMPDEST PUSH1 0x0 DUP1 SHL DUP2 JUMP JUMPDEST PUSH1 0x0 PUSH1 0x1 ISZERO ISZERO PUSH2 0x100 PUSH1 0x0 CALLER PUSH20 0xFFFFFFFFFFFFFFFFFFFFFFFFFFFFFFFFFFFFFFFF AND PUSH20 0xFFFFFFFFFFFFFFFFFFFFFFFFFFFFFFFFFFFFFFFF AND DUP2 MSTORE PUSH1 0x20 ADD SWAP1 DUP2 MSTORE PUSH1 0x20 ADD PUSH1 0x0 KECCAK256 PUSH1 0x1 ADD PUSH1 0x0 SWAP1 SLOAD SWAP1 PUSH2 0x100 EXP SWAP1 DIV PUSH1 0xFF AND ISZERO ISZERO EQ PUSH2 0x1730 JUMPI PUSH1 0x40 MLOAD PUSH32 0x8C379A000000000000000000000000000000000000000000000000000000000 DUP2 MSTORE PUSH1 0x4 ADD PUSH2 0x1727 SWAP1 PUSH2 0x6729 JUMP JUMPDEST PUSH1 0x40 MLOAD DUP1 SWAP2 SUB SWAP1 REVERT JUMPDEST PUSH2 0x1787 DUP4 PUSH2 0x173C PUSH2 0x24F5 JUMP JUMPDEST DUP5 DUP9 DUP9 DUP1 DUP1 PUSH1 0x1F ADD PUSH1 0x20 DUP1 SWAP2 DIV MUL PUSH1 0x20 ADD PUSH1 0x40 MLOAD SWAP1 DUP2 ADD PUSH1 0x40 MSTORE DUP1 SWAP4 SWAP3 SWAP2 SWAP1 DUP2 DUP2 MSTORE PUSH1 0x20 ADD DUP4 DUP4 DUP1 DUP3 DUP5 CALLDATACOPY PUSH1 0x0 DUP2 DUP5 ADD MSTORE PUSH1 0x1F NOT PUSH1 0x1F DUP3 ADD AND SWAP1 POP DUP1 DUP4 ADD SWAP3 POP POP POP POP POP POP POP PUSH2 0x2AFA JUMP JUMPDEST SWAP1 POP SWAP5 SWAP4 POP POP POP POP JUMP JUMPDEST PUSH1 0x0 PUSH2 0x17BC DUP3 PUSH2 0x101 PUSH1 0x0 DUP7 DUP2 MSTORE PUSH1 0x20 ADD SWAP1 DUP2 MSTORE PUSH1 0x20 ADD PUSH1 0x0 KECCAK256 PUSH1 0x1 ADD PUSH2 0x2E2E SWAP1 SWAP2 SWAP1 PUSH4 0xFFFFFFFF AND JUMP JUMPDEST SWAP1 POP SWAP3 SWAP2 POP POP JUMP JUMPDEST PUSH32 0xF26C159FD7D78F3848964C3ADF4AEA78577348FCB297DB019BF8F5EFBED02195 DUP2 JUMP JUMPDEST PUSH1 0x0 PUSH2 0x102 PUSH1 0x0 DUP5 DUP2 MSTORE PUSH1 0x20 ADD SWAP1 DUP2 MSTORE PUSH1 0x20 ADD PUSH1 0x0 KECCAK256 PUSH1 0x3 ADD PUSH1 0x0 SWAP1 SLOAD SWAP1 PUSH2 0x100 EXP SWAP1 DIV PUSH20 0xFFFFFFFFFFFFFFFFFFFFFFFFFFFFFFFFFFFFFFFF AND PUSH20 0xFFFFFFFFFFFFFFFFFFFFFFFFFFFFFFFFFFFFFFFF AND CALLER PUSH20 0xFFFFFFFFFFFFFFFFFFFFFFFFFFFFFFFFFFFFFFFF AND EQ PUSH2 0x188F JUMPI PUSH1 0x40 MLOAD PUSH32 0x8C379A000000000000000000000000000000000000000000000000000000000 DUP2 MSTORE PUSH1 0x4 ADD PUSH2 0x1886 SWAP1 PUSH2 0x67BB JUMP JUMPDEST PUSH1 0x40 MLOAD DUP1 SWAP2 SUB SWAP1 REVERT JUMPDEST PUSH1 0x0 PUSH2 0x189A DUP5 PUSH2 0x136F JUMP JUMPDEST SWAP1 POP PUSH1 0x6 PUSH1 0x7 DUP2 GT ISZERO PUSH2 0x18B0 JUMPI PUSH2 0x18AF PUSH2 0x5CDA JUMP JUMPDEST JUMPDEST DUP2 PUSH1 0x7 DUP2 GT ISZERO PUSH2 0x18C3 JUMPI PUSH2 0x18C2 PUSH2 0x5CDA JUMP JUMPDEST JUMPDEST EQ ISZERO DUP1 ISZERO PUSH2 0x18F5 JUMPI POP PUSH1 0x7 DUP1 DUP2 GT ISZERO PUSH2 0x18DF JUMPI PUSH2 0x18DE PUSH2 0x5CDA JUMP JUMPDEST JUMPDEST DUP2 PUSH1 0x7 DUP2 GT ISZERO PUSH2 0x18F2 JUMPI PUSH2 0x18F1 PUSH2 0x5CDA JUMP JUMPDEST JUMPDEST EQ ISZERO JUMPDEST PUSH2 0x1934 JUMPI PUSH1 0x40 MLOAD PUSH32 0x8C379A000000000000000000000000000000000000000000000000000000000 DUP2 MSTORE PUSH1 0x4 ADD PUSH2 0x192B SWAP1 PUSH2 0x6827 JUMP JUMPDEST PUSH1 0x40 MLOAD DUP1 SWAP2 SUB SWAP1 REVERT JUMPDEST PUSH1 0x3 PUSH1 0x7 DUP2 GT ISZERO PUSH2 0x1948 JUMPI PUSH2 0x1947 PUSH2 0x5CDA JUMP JUMPDEST JUMPDEST DUP2 PUSH1 0x7 DUP2 GT ISZERO PUSH2 0x195B JUMPI PUSH2 0x195A PUSH2 0x5CDA JUMP JUMPDEST JUMPDEST SUB PUSH2 0x199B JUMPI PUSH1 0x40 MLOAD PUSH32 0x8C379A000000000000000000000000000000000000000000000000000000000 DUP2 MSTORE PUSH1 0x4 ADD PUSH2 0x1992 SWAP1 PUSH2 0x68B9 JUMP JUMPDEST PUSH1 0x40 MLOAD DUP1 SWAP2 SUB SWAP1 REVERT JUMPDEST PUSH1 0x1 PUSH2 0x102 PUSH1 0x0 DUP7 DUP2 MSTORE PUSH1 0x20 ADD SWAP1 DUP2 MSTORE PUSH1 0x20 ADD PUSH1 0x0 KECCAK256 PUSH1 0x6 ADD PUSH1 0x3 PUSH2 0x100 EXP DUP2 SLOAD DUP2 PUSH1 0xFF MUL NOT AND SWAP1 DUP4 ISZERO ISZERO MUL OR SWAP1 SSTORE POP DUP4 PUSH32 0xC3FE75BACE7821ED95B8B37722A36DFB53BDF311BEFB9C378BED48A7DB4062AA DUP5 PUSH1 0x40 MLOAD PUSH2 0x19FB SWAP2 SWAP1 PUSH2 0x5832 JUMP JUMPDEST PUSH1 0x40 MLOAD DUP1 SWAP2 SUB SWAP1 LOG2 PUSH1 0x1 SWAP2 POP POP SWAP3 SWAP2 POP POP JUMP JUMPDEST PUSH1 0x0 DUP7 DUP7 DUP7 DUP7 DUP7 DUP7 PUSH1 0x40 MLOAD PUSH1 0x20 ADD PUSH2 0x1A2B SWAP7 SWAP6 SWAP5 SWAP4 SWAP3 SWAP2 SWAP1 PUSH2 0x69BE JUMP JUMPDEST PUSH1 0x40 MLOAD PUSH1 0x20 DUP2 DUP4 SUB SUB DUP2 MSTORE SWAP1 PUSH1 0x40 MSTORE DUP1 MLOAD SWAP1 PUSH1 0x20 ADD KECCAK256 SWAP1 POP SWAP7 SWAP6 POP POP POP POP POP POP JUMP JUMPDEST PUSH32 0x53CC2FAE7ECEF069DA76AE9063C3ECFA7F417173BC5191FE1BB037165D76473F DUP2 JUMP JUMPDEST PUSH1 0xFD PUSH1 0x0 SWAP1 SLOAD SWAP1 PUSH2 0x100 EXP SWAP1 DIV PUSH20 0xFFFFFFFFFFFFFFFFFFFFFFFFFFFFFFFFFFFFFFFF AND DUP2 JUMP JUMPDEST PUSH2 0x1AA0 DUP3 PUSH2 0xB7A JUMP JUMPDEST PUSH2 0x1AA9 DUP2 PUSH2 0x2400 JUMP JUMPDEST PUSH2 0x1AB3 DUP4 DUP4 PUSH2 0x24FD JUMP JUMPDEST POP POP POP JUMP JUMPDEST PUSH32 0x23B872DD7302113369CDA2901243429419BEC145408FA8B352B3DD92B66C680B DUP2 JUMP JUMPDEST PUSH1 0x0 PUSH32 0xA49807205CE4D355092EF5A8A18F56E8913CF4A201FBE287825B095693C21775 PUSH2 0x1B08 DUP2 PUSH2 0x2400 JUMP JUMPDEST PUSH1 0x0 PUSH2 0x1B13 DUP5 PUSH2 0x136F JUMP JUMPDEST SWAP1 POP PUSH1 0x5 PUSH1 0x7 DUP2 GT ISZERO PUSH2 0x1B29 JUMPI PUSH2 0x1B28 PUSH2 0x5CDA JUMP JUMPDEST JUMPDEST DUP2 PUSH1 0x7 DUP2 GT ISZERO PUSH2 0x1B3C JUMPI PUSH2 0x1B3B PUSH2 0x5CDA JUMP JUMPDEST JUMPDEST EQ PUSH2 0x1B7C JUMPI PUSH1 0x40 MLOAD PUSH32 0x8C379A000000000000000000000000000000000000000000000000000000000 DUP2 MSTORE PUSH1 0x4 ADD PUSH2 0x1B73 SWAP1 PUSH2 0x6A98 JUMP JUMPDEST PUSH1 0x40 MLOAD DUP1 SWAP2 SUB SWAP1 REVERT JUMPDEST PUSH1 0x0 PUSH2 0x102 PUSH1 0x0 DUP7 DUP2 MSTORE PUSH1 0x20 ADD SWAP1 DUP2 MSTORE PUSH1 0x20 ADD PUSH1 0x0 KECCAK256 SWAP1 POP PUSH1 0x1 DUP2 PUSH1 0x6 ADD PUSH1 0x2 PUSH2 0x100 EXP DUP2 SLOAD DUP2 PUSH1 0xFF MUL NOT AND SWAP1 DUP4 ISZERO ISZERO MUL OR SWAP1 SSTORE POP PUSH1 0x0 PUSH1 0x1 SWAP1 POP PUSH2 0x105 PUSH1 0x4 SWAP1 SLOAD SWAP1 PUSH2 0x100 EXP SWAP1 DIV PUSH1 0xFF AND PUSH2 0x1BD8 JUMPI PUSH2 0x1BD5 DUP3 PUSH2 0x2E5E JUMP JUMPDEST SWAP1 POP JUMPDEST DUP1 ISZERO PUSH2 0x1C0C JUMPI DUP6 PUSH32 0x7B1BCF1CCF901A11589AFFF5504D59FD0A53780EED2A952ADADE0348985139E0 PUSH1 0x40 MLOAD PUSH1 0x40 MLOAD DUP1 SWAP2 SUB SWAP1 LOG2 JUMPDEST DUP1 SWAP5 POP POP POP POP POP SWAP2 SWAP1 POP JUMP JUMPDEST PUSH32 0xA49807205CE4D355092EF5A8A18F56E8913CF4A201FBE287825B095693C21775 PUSH2 0x1C42 DUP2 PUSH2 0x2400 JUMP JUMPDEST DUP2 PUSH1 0xFC DUP2 SWAP1 SSTORE POP POP POP JUMP JUMPDEST PUSH1 0xFF PUSH1 0x0 SWAP1 SLOAD SWAP1 PUSH2 0x100 EXP SWAP1 DIV PUSH20 0xFFFFFFFFFFFFFFFFFFFFFFFFFFFFFFFFFFFFFFFF AND DUP2 JUMP JUMPDEST PUSH32 0x36FD43EDE163045B10E1F0ABD16F62F165FCE3FA7B6CDE217BCEA3BC47663ACC DUP2 JUMP JUMPDEST PUSH1 0x0 PUSH2 0x100 PUSH1 0x0 DUP4 PUSH20 0xFFFFFFFFFFFFFFFFFFFFFFFFFFFFFFFFFFFFFFFF AND PUSH20 0xFFFFFFFFFFFFFFFFFFFFFFFFFFFFFFFFFFFFFFFF AND DUP2 MSTORE PUSH1 0x20 ADD SWAP1 DUP2 MSTORE PUSH1 0x20 ADD PUSH1 0x0 KECCAK256 PUSH1 0x1 ADD PUSH1 0x0 SWAP1 SLOAD SWAP1 PUSH2 0x100 EXP SWAP1 DIV PUSH1 0xFF AND SWAP1 POP SWAP2 SWAP1 POP JUMP JUMPDEST PUSH1 0x0 PUSH1 0x1 ISZERO ISZERO PUSH2 0x100 PUSH1 0x0 CALLER PUSH20 0xFFFFFFFFFFFFFFFFFFFFFFFFFFFFFFFFFFFFFFFF AND PUSH20 0xFFFFFFFFFFFFFFFFFFFFFFFFFFFFFFFFFFFFFFFF AND DUP2 MSTORE PUSH1 0x20 ADD SWAP1 DUP2 MSTORE PUSH1 0x20 ADD PUSH1 0x0 KECCAK256 PUSH1 0x1 ADD PUSH1 0x0 SWAP1 SLOAD SWAP1 PUSH2 0x100 EXP SWAP1 DIV PUSH1 0xFF AND ISZERO ISZERO EQ PUSH2 0x1D8A JUMPI PUSH1 0x40 MLOAD PUSH32 0x8C379A000000000000000000000000000000000000000000000000000000000 DUP2 MSTORE PUSH1 0x4 ADD PUSH2 0x1D81 SWAP1 PUSH2 0x6729 JUMP JUMPDEST PUSH1 0x40 MLOAD DUP1 SWAP2 SUB SWAP1 REVERT JUMPDEST PUSH1 0x0 PUSH1 0x3 DUP2 GT ISZERO PUSH2 0x1D9E JUMPI PUSH2 0x1D9D PUSH2 0x5CDA JUMP JUMPDEST JUMPDEST DUP4 PUSH1 0x20 ADD MLOAD PUSH1 0x3 DUP2 GT ISZERO PUSH2 0x1DB5 JUMPI PUSH2 0x1DB4 PUSH2 0x5CDA JUMP JUMPDEST JUMPDEST SUB PUSH2 0x1DF5 JUMPI PUSH1 0x40 MLOAD PUSH32 0x8C379A000000000000000000000000000000000000000000000000000000000 DUP2 MSTORE PUSH1 0x4 ADD PUSH2 0x1DEC SWAP1 PUSH2 0x6B04 JUMP JUMPDEST PUSH1 0x40 MLOAD DUP1 SWAP2 SUB SWAP1 REVERT JUMPDEST PUSH1 0x0 PUSH1 0x4 DUP2 GT ISZERO PUSH2 0x1E09 JUMPI PUSH2 0x1E08 PUSH2 0x5CDA JUMP JUMPDEST JUMPDEST DUP4 PUSH1 0x40 ADD MLOAD PUSH1 0x4 DUP2 GT ISZERO PUSH2 0x1E20 JUMPI PUSH2 0x1E1F PUSH2 0x5CDA JUMP JUMPDEST JUMPDEST SUB PUSH2 0x1E60 JUMPI PUSH1 0x40 MLOAD PUSH32 0x8C379A000000000000000000000000000000000000000000000000000000000 DUP2 MSTORE PUSH1 0x4 ADD PUSH2 0x1E57 SWAP1 PUSH2 0x6B70 JUMP JUMPDEST PUSH1 0x40 MLOAD DUP1 SWAP2 SUB SWAP1 REVERT JUMPDEST PUSH1 0x0 DUP4 PUSH1 0x80 ADD MLOAD MLOAD SUB PUSH2 0x1EA8 JUMPI PUSH1 0x40 MLOAD PUSH32 0x8C379A000000000000000000000000000000000000000000000000000000000 DUP2 MSTORE PUSH1 0x4 ADD PUSH2 0x1E9F SWAP1 PUSH2 0x6BDC JUMP JUMPDEST PUSH1 0x40 MLOAD DUP1 SWAP2 SUB SWAP1 REVERT JUMPDEST PUSH1 0x0 DUP1 SHL DUP4 PUSH1 0x0 ADD MLOAD SUB PUSH2 0x1EF1 JUMPI PUSH1 0x40 MLOAD PUSH32 0x8C379A000000000000000000000000000000000000000000000000000000000 DUP2 MSTORE PUSH1 0x4 ADD PUSH2 0x1EE8 SWAP1 PUSH2 0x6BDC JUMP JUMPDEST PUSH1 0x40 MLOAD DUP1 SWAP2 SUB SWAP1 REVERT JUMPDEST PUSH1 0x0 DUP4 PUSH1 0x60 ADD MLOAD PUSH1 0x40 MLOAD PUSH1 0x20 ADD PUSH2 0x1F08 SWAP2 SWAP1 PUSH2 0x6C38 JUMP JUMPDEST PUSH1 0x40 MLOAD PUSH1 0x20 DUP2 DUP4 SUB SUB DUP2 MSTORE SWAP1 PUSH1 0x40 MSTORE DUP1 MLOAD SWAP1 PUSH1 0x20 ADD KECCAK256 SWAP1 POP PUSH1 0x0 PUSH2 0x1F47 DUP6 PUSH1 0x0 ADD MLOAD DUP4 PUSH2 0x1F33 PUSH2 0x24F5 JUMP JUMPDEST DUP9 PUSH1 0x20 ADD MLOAD DUP10 PUSH1 0x40 ADD MLOAD DUP11 PUSH1 0x80 ADD MLOAD PUSH2 0x361B JUMP JUMPDEST SWAP1 POP PUSH1 0x0 PUSH2 0x1F54 DUP3 PUSH2 0x36A2 JUMP JUMPDEST SWAP1 POP PUSH1 0x0 DUP1 PUSH2 0x1F63 DUP4 DUP9 PUSH2 0x36BC JUMP JUMPDEST SWAP2 POP SWAP2 POP PUSH2 0x1FA5 PUSH1 0x40 MLOAD DUP1 PUSH1 0x40 ADD PUSH1 0x40 MSTORE DUP1 PUSH1 0xD DUP2 MSTORE PUSH1 0x20 ADD PUSH32 0x646F6D61696E20686173683A2000000000000000000000000000000000000000 DUP2 MSTORE POP PUSH2 0x373D JUMP JUMPDEST PUSH2 0x1FB5 PUSH2 0x1FB0 PUSH2 0x37D6 JUMP JUMPDEST PUSH2 0x387C JUMP JUMPDEST PUSH2 0x1FF3 PUSH1 0x40 MLOAD DUP1 PUSH1 0x40 ADD PUSH1 0x40 MSTORE DUP1 PUSH1 0xE DUP2 MSTORE PUSH1 0x20 ADD PUSH32 0x6D65737361676520686173683A20000000000000000000000000000000000000 DUP2 MSTORE POP PUSH2 0x373D JUMP JUMPDEST PUSH2 0x1FFC DUP5 PUSH2 0x387C JUMP JUMPDEST PUSH2 0x203A PUSH1 0x40 MLOAD DUP1 PUSH1 0x40 ADD PUSH1 0x40 MSTORE DUP1 PUSH1 0x10 DUP2 MSTORE PUSH1 0x20 ADD PUSH32 0x6D657373616765204469676573743A2000000000000000000000000000000000 DUP2 MSTORE POP PUSH2 0x373D JUMP JUMPDEST PUSH2 0x2043 DUP4 PUSH2 0x387C JUMP JUMPDEST PUSH2 0x2081 PUSH1 0x40 MLOAD DUP1 PUSH1 0x40 ADD PUSH1 0x40 MSTORE DUP1 PUSH1 0xB DUP2 MSTORE PUSH1 0x20 ADD PUSH32 0x7369676E61747572653A20000000000000000000000000000000000000000000 DUP2 MSTORE POP PUSH2 0x373D JUMP JUMPDEST PUSH2 0x208A DUP8 PUSH2 0x3915 JUMP JUMPDEST PUSH1 0x0 PUSH1 0x4 DUP2 GT ISZERO PUSH2 0x209E JUMPI PUSH2 0x209D PUSH2 0x5CDA JUMP JUMPDEST JUMPDEST DUP2 PUSH1 0x4 DUP2 GT ISZERO PUSH2 0x20B1 JUMPI PUSH2 0x20B0 PUSH2 0x5CDA JUMP JUMPDEST JUMPDEST EQ PUSH2 0x2105 JUMPI DUP1 PUSH1 0x4 DUP2 GT ISZERO PUSH2 0x20C9 JUMPI PUSH2 0x20C8 PUSH2 0x5CDA JUMP JUMPDEST JUMPDEST PUSH1 0x40 MLOAD PUSH32 0x64F17F0B00000000000000000000000000000000000000000000000000000000 DUP2 MSTORE PUSH1 0x4 ADD PUSH2 0x20FC SWAP2 SWAP1 PUSH2 0x6C5E JUMP JUMPDEST PUSH1 0x40 MLOAD DUP1 SWAP2 SUB SWAP1 REVERT JUMPDEST PUSH2 0x2130 PUSH1 0x40 MLOAD DUP1 PUSH1 0x60 ADD PUSH1 0x40 MSTORE DUP1 PUSH1 0x34 DUP2 MSTORE PUSH1 0x20 ADD PUSH2 0x8447 PUSH1 0x34 SWAP2 CODECOPY DUP4 PUSH2 0x212A PUSH2 0x24F5 JUMP JUMPDEST ADDRESS PUSH2 0x39AE JUMP JUMPDEST ADDRESS PUSH20 0xFFFFFFFFFFFFFFFFFFFFFFFFFFFFFFFFFFFFFFFF AND PUSH4 0x91D14854 PUSH32 0xA49807205CE4D355092EF5A8A18F56E8913CF4A201FBE287825B095693C21775 DUP5 PUSH1 0x40 MLOAD DUP4 PUSH4 0xFFFFFFFF AND PUSH1 0xE0 SHL DUP2 MSTORE PUSH1 0x4 ADD PUSH2 0x218B SWAP3 SWAP2 SWAP1 PUSH2 0x6C79 JUMP JUMPDEST PUSH1 0x20 PUSH1 0x40 MLOAD DUP1 DUP4 SUB DUP2 DUP7 GAS STATICCALL ISZERO DUP1 ISZERO PUSH2 0x21A8 JUMPI RETURNDATASIZE PUSH1 0x0 DUP1 RETURNDATACOPY RETURNDATASIZE PUSH1 0x0 REVERT JUMPDEST POP POP POP POP PUSH1 0x40 MLOAD RETURNDATASIZE PUSH1 0x1F NOT PUSH1 0x1F DUP3 ADD AND DUP3 ADD DUP1 PUSH1 0x40 MSTORE POP DUP2 ADD SWAP1 PUSH2 0x21CC SWAP2 SWAP1 PUSH2 0x6CB7 JUMP JUMPDEST PUSH2 0x220B JUMPI PUSH1 0x40 MLOAD PUSH32 0x8C379A000000000000000000000000000000000000000000000000000000000 DUP2 MSTORE PUSH1 0x4 ADD PUSH2 0x2202 SWAP1 PUSH2 0x6D56 JUMP JUMPDEST PUSH1 0x40 MLOAD DUP1 SWAP2 SUB SWAP1 REVERT JUMPDEST PUSH1 0x0 PUSH2 0x2232 DUP10 PUSH1 0x0 ADD MLOAD DUP8 PUSH2 0x221E PUSH2 0x24F5 JUMP JUMPDEST DUP13 PUSH1 0x20 ADD MLOAD DUP14 PUSH1 0x40 ADD MLOAD DUP15 PUSH1 0x80 ADD MLOAD PUSH2 0x1A0E JUMP JUMPDEST SWAP1 POP PUSH1 0x0 PUSH2 0x102 PUSH1 0x0 DUP4 DUP2 MSTORE PUSH1 0x20 ADD SWAP1 DUP2 MSTORE PUSH1 0x20 ADD PUSH1 0x0 KECCAK256 SWAP1 POP DUP2 DUP2 PUSH1 0x0 ADD DUP2 SWAP1 SSTORE POP PUSH1 0x0 PUSH1 0xFB SLOAD TIMESTAMP PUSH2 0x2265 SWAP2 SWAP1 PUSH2 0x6D8A JUMP JUMPDEST SWAP1 POP PUSH1 0x0 PUSH1 0xFC SLOAD TIMESTAMP PUSH2 0x2277 SWAP2 SWAP1 PUSH2 0x6D8A JUMP JUMPDEST SWAP1 POP PUSH2 0x228F DUP3 DUP5 PUSH1 0x4 ADD PUSH2 0x3A50 SWAP1 SWAP2 SWAP1 PUSH4 0xFFFFFFFF AND JUMP JUMPDEST PUSH2 0x22A5 DUP2 DUP5 PUSH1 0x5 ADD PUSH2 0x3A50 SWAP1 SWAP2 SWAP1 PUSH4 0xFFFFFFFF AND JUMP JUMPDEST DUP9 DUP4 PUSH1 0x2 ADD DUP2 SWAP1 SSTORE POP DUP12 PUSH1 0x0 ADD MLOAD DUP4 PUSH1 0x1 ADD DUP2 SWAP1 SSTORE POP CALLER DUP4 PUSH1 0x3 ADD PUSH1 0x0 PUSH2 0x100 EXP DUP2 SLOAD DUP2 PUSH20 0xFFFFFFFFFFFFFFFFFFFFFFFFFFFFFFFFFFFFFFFF MUL NOT AND SWAP1 DUP4 PUSH20 0xFFFFFFFFFFFFFFFFFFFFFFFFFFFFFFFFFFFFFFFF AND MUL OR SWAP1 SSTORE POP DUP12 PUSH1 0x20 ADD MLOAD DUP4 PUSH1 0x6 ADD PUSH1 0x0 PUSH2 0x100 EXP DUP2 SLOAD DUP2 PUSH1 0xFF MUL NOT AND SWAP1 DUP4 PUSH1 0x3 DUP2 GT ISZERO PUSH2 0x2329 JUMPI PUSH2 0x2328 PUSH2 0x5CDA JUMP JUMPDEST JUMPDEST MUL OR SWAP1 SSTORE POP DUP12 PUSH1 0x40 ADD MLOAD DUP4 PUSH1 0x6 ADD PUSH1 0x1 PUSH2 0x100 EXP DUP2 SLOAD DUP2 PUSH1 0xFF MUL NOT AND SWAP1 DUP4 PUSH1 0x4 DUP2 GT ISZERO PUSH2 0x2359 JUMPI PUSH2 0x2358 PUSH2 0x5CDA JUMP JUMPDEST JUMPDEST MUL OR SWAP1 SSTORE POP DUP12 PUSH1 0x80 ADD MLOAD DUP4 PUSH1 0x7 ADD SWAP1 DUP1 MLOAD SWAP1 PUSH1 0x20 ADD SWAP1 PUSH2 0x237A SWAP3 SWAP2 SWAP1 PUSH2 0x55F3 JUMP JUMPDEST POP PUSH2 0x2384 DUP4 PUSH2 0x3A7F JUMP JUMPDEST DUP4 SWAP10 POP POP POP POP POP POP POP POP POP POP SWAP3 SWAP2 POP POP JUMP JUMPDEST PUSH1 0x0 PUSH32 0x1FFC9A700000000000000000000000000000000000000000000000000000000 PUSH28 0xFFFFFFFFFFFFFFFFFFFFFFFFFFFFFFFFFFFFFFFFFFFFFFFFFFFFFFFF NOT AND DUP3 PUSH28 0xFFFFFFFFFFFFFFFFFFFFFFFFFFFFFFFFFFFFFFFFFFFFFFFFFFFFFFFF NOT AND EQ SWAP1 POP SWAP2 SWAP1 POP JUMP JUMPDEST PUSH2 0x2411 DUP2 PUSH2 0x240C PUSH2 0x24F5 JUMP JUMPDEST PUSH2 0x472F JUMP JUMPDEST POP JUMP JUMPDEST PUSH2 0x241E DUP3 DUP3 PUSH2 0x15FF JUMP JUMPDEST PUSH2 0x24F1 JUMPI PUSH1 0x1 PUSH1 0xC9 PUSH1 0x0 DUP5 DUP2 MSTORE PUSH1 0x20 ADD SWAP1 DUP2 MSTORE PUSH1 0x20 ADD PUSH1 0x0 KECCAK256 PUSH1 0x0 ADD PUSH1 0x0 DUP4 PUSH20 0xFFFFFFFFFFFFFFFFFFFFFFFFFFFFFFFFFFFFFFFF AND PUSH20 0xFFFFFFFFFFFFFFFFFFFFFFFFFFFFFFFFFFFFFFFF AND DUP2 MSTORE PUSH1 0x20 ADD SWAP1 DUP2 MSTORE PUSH1 0x20 ADD PUSH1 0x0 KECCAK256 PUSH1 0x0 PUSH2 0x100 EXP DUP2 SLOAD DUP2 PUSH1 0xFF MUL NOT AND SWAP1 DUP4 ISZERO ISZERO MUL OR SWAP1 SSTORE POP PUSH2 0x2496 PUSH2 0x24F5 JUMP JUMPDEST PUSH20 0xFFFFFFFFFFFFFFFFFFFFFFFFFFFFFFFFFFFFFFFF AND DUP2 PUSH20 0xFFFFFFFFFFFFFFFFFFFFFFFFFFFFFFFFFFFFFFFF AND DUP4 PUSH32 0x2F8788117E7EFF1D82E926EC794901D17C78024A50270940304540A733656F0D PUSH1 0x40 MLOAD PUSH1 0x40 MLOAD DUP1 SWAP2 SUB SWAP1 LOG4 JUMPDEST POP POP JUMP JUMPDEST PUSH1 0x0 CALLER SWAP1 POP SWAP1 JUMP JUMPDEST PUSH2 0x2507 DUP3 DUP3 PUSH2 0x15FF JUMP JUMPDEST ISZERO PUSH2 0x25DB JUMPI PUSH1 0x0 PUSH1 0xC9 PUSH1 0x0 DUP5 DUP2 MSTORE PUSH1 0x20 ADD SWAP1 DUP2 MSTORE PUSH1 0x20 ADD PUSH1 0x0 KECCAK256 PUSH1 0x0 ADD PUSH1 0x0 DUP4 PUSH20 0xFFFFFFFFFFFFFFFFFFFFFFFFFFFFFFFFFFFFFFFF AND PUSH20 0xFFFFFFFFFFFFFFFFFFFFFFFFFFFFFFFFFFFFFFFF AND DUP2 MSTORE PUSH1 0x20 ADD SWAP1 DUP2 MSTORE PUSH1 0x20 ADD PUSH1 0x0 KECCAK256 PUSH1 0x0 PUSH2 0x100 EXP DUP2 SLOAD DUP2 PUSH1 0xFF MUL NOT AND SWAP1 DUP4 ISZERO ISZERO MUL OR SWAP1 SSTORE POP PUSH2 0x2580 PUSH2 0x24F5 JUMP JUMPDEST PUSH20 0xFFFFFFFFFFFFFFFFFFFFFFFFFFFFFFFFFFFFFFFF AND DUP2 PUSH20 0xFFFFFFFFFFFFFFFFFFFFFFFFFFFFFFFFFFFFFFFF AND DUP4 PUSH32 0xF6391F5C32D9C69D2A47EA670B442974B53935D1EDC7FD64EB21E047A839171B PUSH1 0x40 MLOAD PUSH1 0x40 MLOAD DUP1 SWAP2 SUB SWAP1 LOG4 JUMPDEST POP POP JUMP JUMPDEST PUSH1 0x0 PUSH2 0x260D PUSH32 0x360894A13BA1A3210667C828492DB98DCA3E2076CC3735A920A3CA505D382BBC PUSH1 0x0 SHL PUSH2 0x47CC JUMP JUMPDEST PUSH1 0x0 ADD PUSH1 0x0 SWAP1 SLOAD SWAP1 PUSH2 0x100 EXP SWAP1 DIV PUSH20 0xFFFFFFFFFFFFFFFFFFFFFFFFFFFFFFFFFFFFFFFF AND SWAP1 POP SWAP1 JUMP JUMPDEST ADDRESS PUSH20 0xFFFFFFFFFFFFFFFFFFFFFFFFFFFFFFFFFFFFFFFF AND PUSH4 0x91D14854 PUSH32 0xA49807205CE4D355092EF5A8A18F56E8913CF4A201FBE287825B095693C21775 PUSH2 0x267B PUSH2 0x24F5 JUMP JUMPDEST PUSH1 0x40 MLOAD DUP4 PUSH4 0xFFFFFFFF AND PUSH1 0xE0 SHL DUP2 MSTORE PUSH1 0x4 ADD PUSH2 0x2698 SWAP3 SWAP2 SWAP1 PUSH2 0x6C79 JUMP JUMPDEST PUSH1 0x20 PUSH1 0x40 MLOAD DUP1 DUP4 SUB DUP2 DUP7 GAS STATICCALL ISZERO DUP1 ISZERO PUSH2 0x26B5 JUMPI RETURNDATASIZE PUSH1 0x0 DUP1 RETURNDATACOPY RETURNDATASIZE PUSH1 0x0 REVERT JUMPDEST POP POP POP POP PUSH1 0x40 MLOAD RETURNDATASIZE PUSH1 0x1F NOT PUSH1 0x1F DUP3 ADD AND DUP3 ADD DUP1 PUSH1 0x40 MSTORE POP DUP2 ADD SWAP1 PUSH2 0x26D9 SWAP2 SWAP1 PUSH2 0x6CB7 JUMP JUMPDEST POP POP JUMP JUMPDEST PUSH2 0x2709 PUSH32 0x4910FDFA16FED3260ED0E7147F7CC6DA11A60208B5B9406D12A635614FFD9143 PUSH1 0x0 SHL PUSH2 0x47D6 JUMP JUMPDEST PUSH1 0x0 ADD PUSH1 0x0 SWAP1 SLOAD SWAP1 PUSH2 0x100 EXP SWAP1 DIV PUSH1 0xFF AND ISZERO PUSH2 0x272D JUMPI PUSH2 0x2728 DUP4 PUSH2 0x47E0 JUMP JUMPDEST PUSH2 0x2846 JUMP JUMPDEST DUP3 PUSH20 0xFFFFFFFFFFFFFFFFFFFFFFFFFFFFFFFFFFFFFFFF AND PUSH4 0x52D1902D PUSH1 0x40 MLOAD DUP2 PUSH4 0xFFFFFFFF AND PUSH1 0xE0 SHL DUP2 MSTORE PUSH1 0x4 ADD PUSH1 0x20 PUSH1 0x40 MLOAD DUP1 DUP4 SUB DUP2 DUP7 GAS STATICCALL SWAP3 POP POP POP DUP1 ISZERO PUSH2 0x2795 JUMPI POP PUSH1 0x40 MLOAD RETURNDATASIZE PUSH1 0x1F NOT PUSH1 0x1F DUP3 ADD AND DUP3 ADD DUP1 PUSH1 0x40 MSTORE POP DUP2 ADD SWAP1 PUSH2 0x2792 SWAP2 SWAP1 PUSH2 0x6DDD JUMP JUMPDEST PUSH1 0x1 JUMPDEST PUSH2 0x27D4 JUMPI PUSH1 0x40 MLOAD PUSH32 0x8C379A000000000000000000000000000000000000000000000000000000000 DUP2 MSTORE PUSH1 0x4 ADD PUSH2 0x27CB SWAP1 PUSH2 0x6E7C JUMP JUMPDEST PUSH1 0x40 MLOAD DUP1 SWAP2 SUB SWAP1 REVERT JUMPDEST PUSH32 0x360894A13BA1A3210667C828492DB98DCA3E2076CC3735A920A3CA505D382BBC PUSH1 0x0 SHL DUP2 EQ PUSH2 0x2839 JUMPI PUSH1 0x40 MLOAD PUSH32 0x8C379A000000000000000000000000000000000000000000000000000000000 DUP2 MSTORE PUSH1 0x4 ADD PUSH2 0x2830 SWAP1 PUSH2 0x6F0E JUMP JUMPDEST PUSH1 0x40 MLOAD DUP1 SWAP2 SUB SWAP1 REVERT JUMPDEST POP PUSH2 0x2845 DUP4 DUP4 DUP4 PUSH2 0x4899 JUMP JUMPDEST JUMPDEST POP POP POP JUMP JUMPDEST PUSH1 0x0 DUP1 PUSH1 0x1 SWAP1 SLOAD SWAP1 PUSH2 0x100 EXP SWAP1 DIV PUSH1 0xFF AND ISZERO PUSH2 0x28C2 JUMPI PUSH1 0x1 DUP3 PUSH1 0xFF AND EQ DUP1 ISZERO PUSH2 0x287A JUMPI POP PUSH2 0x2878 ADDRESS PUSH2 0x48C5 JUMP JUMPDEST ISZERO JUMPDEST PUSH2 0x28B9 JUMPI PUSH1 0x40 MLOAD PUSH32 0x8C379A000000000000000000000000000000000000000000000000000000000 DUP2 MSTORE PUSH1 0x4 ADD PUSH2 0x28B0 SWAP1 PUSH2 0x6FA0 JUMP JUMPDEST PUSH1 0x40 MLOAD DUP1 SWAP2 SUB SWAP1 REVERT JUMPDEST PUSH1 0x0 SWAP1 POP PUSH2 0x2936 JUMP JUMPDEST DUP2 PUSH1 0xFF AND PUSH1 0x0 DUP1 SLOAD SWAP1 PUSH2 0x100 EXP SWAP1 DIV PUSH1 0xFF AND PUSH1 0xFF AND LT PUSH2 0x2917 JUMPI PUSH1 0x40 MLOAD PUSH32 0x8C379A000000000000000000000000000000000000000000000000000000000 DUP2 MSTORE PUSH1 0x4 ADD PUSH2 0x290E SWAP1 PUSH2 0x6FA0 JUMP JUMPDEST PUSH1 0x40 MLOAD DUP1 SWAP2 SUB SWAP1 REVERT JUMPDEST DUP2 PUSH1 0x0 DUP1 PUSH2 0x100 EXP DUP2 SLOAD DUP2 PUSH1 0xFF MUL NOT AND SWAP1 DUP4 PUSH1 0xFF AND MUL OR SWAP1 SSTORE POP PUSH1 0x1 SWAP1 POP JUMPDEST SWAP2 SWAP1 POP JUMP JUMPDEST PUSH1 0x0 PUSH2 0x2946 DUP4 PUSH2 0xB7A JUMP JUMPDEST SWAP1 POP DUP2 PUSH1 0xC9 PUSH1 0x0 DUP6 DUP2 MSTORE PUSH1 0x20 ADD SWAP1 DUP2 MSTORE PUSH1 0x20 ADD PUSH1 0x0 KECCAK256 PUSH1 0x1 ADD DUP2 SWAP1 SSTORE POP DUP2 DUP2 DUP5 PUSH32 0xBD79B86FFE0AB8E8776151514217CD7CACD52C909F66475C3AF44E129F0B00FF PUSH1 0x40 MLOAD PUSH1 0x40 MLOAD DUP1 SWAP2 SUB SWAP1 LOG4 POP POP POP JUMP JUMPDEST PUSH1 0x0 TIMESTAMP DUP3 PUSH1 0x0 ADD MLOAD PUSH8 0xFFFFFFFFFFFFFFFF AND GT SWAP1 POP SWAP2 SWAP1 POP JUMP JUMPDEST PUSH1 0x0 DUP1 PUSH2 0x101 PUSH1 0x0 DUP5 DUP2 MSTORE PUSH1 0x20 ADD SWAP1 DUP2 MSTORE PUSH1 0x20 ADD PUSH1 0x0 KECCAK256 SWAP1 POP DUP1 PUSH1 0x0 ADD PUSH1 0x10 SWAP1 SLOAD SWAP1 PUSH2 0x100 EXP SWAP1 DIV PUSH8 0xFFFFFFFFFFFFFFFF AND DUP2 PUSH1 0x0 ADD PUSH1 0x0 SWAP1 SLOAD SWAP1 PUSH2 0x100 EXP SWAP1 DIV PUSH8 0xFFFFFFFFFFFFFFFF AND DUP3 PUSH1 0x0 ADD PUSH1 0x8 SWAP1 SLOAD SWAP1 PUSH2 0x100 EXP SWAP1 DIV PUSH8 0xFFFFFFFFFFFFFFFF AND PUSH2 0x2A1F SWAP2 SWAP1 PUSH2 0x6D8A JUMP JUMPDEST PUSH2 0x2A29 SWAP2 SWAP1 PUSH2 0x6D8A JUMP JUMPDEST PUSH8 0xFFFFFFFFFFFFFFFF AND PUSH2 0x105 PUSH1 0x0 SWAP1 SLOAD SWAP1 PUSH2 0x100 EXP SWAP1 DIV PUSH4 0xFFFFFFFF AND PUSH4 0xFFFFFFFF AND EQ SWAP2 POP POP SWAP2 SWAP1 POP JUMP JUMPDEST PUSH1 0x0 PUSH2 0x2A61 DUP3 PUSH2 0x48E8 JUMP JUMPDEST DUP1 ISZERO PUSH2 0x2A7B JUMPI POP TIMESTAMP DUP3 PUSH1 0x0 ADD MLOAD PUSH8 0xFFFFFFFFFFFFFFFF AND GT ISZERO JUMPDEST SWAP1 POP SWAP2 SWAP1 POP JUMP JUMPDEST PUSH1 0x0 DUP1 PUSH2 0x101 PUSH1 0x0 DUP5 DUP2 MSTORE PUSH1 0x20 ADD SWAP1 DUP2 MSTORE PUSH1 0x20 ADD PUSH1 0x0 KECCAK256 SWAP1 POP PUSH1 0x1 PUSH1 0x2 PUSH2 0x105 PUSH1 0x0 SWAP1 SLOAD SWAP1 PUSH2 0x100 EXP SWAP1 DIV PUSH4 0xFFFFFFFF AND PUSH2 0x2ABD SWAP2 SWAP1 PUSH2 0x6FEF JUMP JUMPDEST PUSH2 0x2AC7 SWAP2 SWAP1 PUSH2 0x7020 JUMP JUMPDEST PUSH4 0xFFFFFFFF AND DUP2 PUSH1 0x0 ADD PUSH1 0x8 SWAP1 SLOAD SWAP1 PUSH2 0x100 EXP SWAP1 DIV PUSH8 0xFFFFFFFFFFFFFFFF AND PUSH8 0xFFFFFFFFFFFFFFFF AND LT ISZERO SWAP2 POP POP SWAP2 SWAP1 POP JUMP JUMPDEST PUSH1 0x0 DUP1 PUSH1 0x3 DUP2 GT ISZERO PUSH2 0x2B0F JUMPI PUSH2 0x2B0E PUSH2 0x5CDA JUMP JUMPDEST JUMPDEST DUP4 PUSH1 0x3 DUP2 GT ISZERO PUSH2 0x2B22 JUMPI PUSH2 0x2B21 PUSH2 0x5CDA JUMP JUMPDEST JUMPDEST SUB PUSH2 0x2B62 JUMPI PUSH1 0x40 MLOAD PUSH32 0x8C379A000000000000000000000000000000000000000000000000000000000 DUP2 MSTORE PUSH1 0x4 ADD PUSH2 0x2B59 SWAP1 PUSH2 0x70A6 JUMP JUMPDEST PUSH1 0x40 MLOAD DUP1 SWAP2 SUB SWAP1 REVERT JUMPDEST PUSH1 0x2 PUSH1 0x7 DUP2 GT ISZERO PUSH2 0x2B76 JUMPI PUSH2 0x2B75 PUSH2 0x5CDA JUMP JUMPDEST JUMPDEST PUSH2 0x2B7F DUP7 PUSH2 0x136F JUMP JUMPDEST PUSH1 0x7 DUP2 GT ISZERO PUSH2 0x2B91 JUMPI PUSH2 0x2B90 PUSH2 0x5CDA JUMP JUMPDEST JUMPDEST EQ PUSH2 0x2BD1 JUMPI PUSH1 0x40 MLOAD PUSH32 0x8C379A000000000000000000000000000000000000000000000000000000000 DUP2 MSTORE PUSH1 0x4 ADD PUSH2 0x2BC8 SWAP1 PUSH2 0x7138 JUMP JUMPDEST PUSH1 0x40 MLOAD DUP1 SWAP2 SUB SWAP1 REVERT JUMPDEST PUSH1 0x0 PUSH2 0x101 PUSH1 0x0 DUP8 DUP2 MSTORE PUSH1 0x20 ADD SWAP1 DUP2 MSTORE PUSH1 0x20 ADD PUSH1 0x0 KECCAK256 SWAP1 POP PUSH2 0x2BFF DUP6 DUP3 PUSH1 0x1 ADD PUSH2 0x2E2E SWAP1 SWAP2 SWAP1 PUSH4 0xFFFFFFFF AND JUMP JUMPDEST ISZERO PUSH2 0x2C3F JUMPI PUSH1 0x40 MLOAD PUSH32 0x8C379A000000000000000000000000000000000000000000000000000000000 DUP2 MSTORE PUSH1 0x4 ADD PUSH2 0x2C36 SWAP1 PUSH2 0x71A4 JUMP JUMPDEST PUSH1 0x40 MLOAD DUP1 SWAP2 SUB SWAP1 REVERT JUMPDEST PUSH2 0x2C55 DUP6 DUP3 PUSH1 0x1 ADD PUSH2 0x4902 SWAP1 SWAP2 SWAP1 PUSH4 0xFFFFFFFF AND JUMP JUMPDEST POP PUSH1 0x1 PUSH1 0x3 DUP2 GT ISZERO PUSH2 0x2C6A JUMPI PUSH2 0x2C69 PUSH2 0x5CDA JUMP JUMPDEST JUMPDEST DUP5 PUSH1 0x3 DUP2 GT ISZERO PUSH2 0x2C7D JUMPI PUSH2 0x2C7C PUSH2 0x5CDA JUMP JUMPDEST JUMPDEST SUB PUSH2 0x2CD5 JUMPI PUSH1 0x1 DUP2 PUSH1 0x0 ADD PUSH1 0x0 DUP3 DUP3 DUP3 SWAP1 SLOAD SWAP1 PUSH2 0x100 EXP SWAP1 DIV PUSH8 0xFFFFFFFFFFFFFFFF AND PUSH2 0x2CAA SWAP2 SWAP1 PUSH2 0x6D8A JUMP JUMPDEST SWAP3 POP PUSH2 0x100 EXP DUP2 SLOAD DUP2 PUSH8 0xFFFFFFFFFFFFFFFF MUL NOT AND SWAP1 DUP4 PUSH8 0xFFFFFFFFFFFFFFFF AND MUL OR SWAP1 SSTORE POP PUSH2 0x2DD0 JUMP JUMPDEST PUSH1 0x2 PUSH1 0x3 DUP2 GT ISZERO PUSH2 0x2CE9 JUMPI PUSH2 0x2CE8 PUSH2 0x5CDA JUMP JUMPDEST JUMPDEST DUP5 PUSH1 0x3 DUP2 GT ISZERO PUSH2 0x2CFC JUMPI PUSH2 0x2CFB PUSH2 0x5CDA JUMP JUMPDEST JUMPDEST SUB PUSH2 0x2D54 JUMPI PUSH1 0x1 DUP2 PUSH1 0x0 ADD PUSH1 0x8 DUP3 DUP3 DUP3 SWAP1 SLOAD SWAP1 PUSH2 0x100 EXP SWAP1 DIV PUSH8 0xFFFFFFFFFFFFFFFF AND PUSH2 0x2D29 SWAP2 SWAP1 PUSH2 0x6D8A JUMP JUMPDEST SWAP3 POP PUSH2 0x100 EXP DUP2 SLOAD DUP2 PUSH8 0xFFFFFFFFFFFFFFFF MUL NOT AND SWAP1 DUP4 PUSH8 0xFFFFFFFFFFFFFFFF AND MUL OR SWAP1 SSTORE POP PUSH2 0x2DCF JUMP JUMPDEST PUSH1 0x3 DUP1 DUP2 GT ISZERO PUSH2 0x2D67 JUMPI PUSH2 0x2D66 PUSH2 0x5CDA JUMP JUMPDEST JUMPDEST DUP5 PUSH1 0x3 DUP2 GT ISZERO PUSH2 0x2D7A JUMPI PUSH2 0x2D79 PUSH2 0x5CDA JUMP JUMPDEST JUMPDEST SUB PUSH2 0x2DCE JUMPI PUSH1 0x1 DUP2 PUSH1 0x0 ADD PUSH1 0x10 DUP3 DUP3 DUP3 SWAP1 SLOAD SWAP1 PUSH2 0x100 EXP SWAP1 DIV PUSH8 0xFFFFFFFFFFFFFFFF AND PUSH2 0x2DA7 SWAP2 SWAP1 PUSH2 0x6D8A JUMP JUMPDEST SWAP3 POP PUSH2 0x100 EXP DUP2 SLOAD DUP2 PUSH8 0xFFFFFFFFFFFFFFFF MUL NOT AND SWAP1 DUP4 PUSH8 0xFFFFFFFFFFFFFFFF AND MUL OR SWAP1 SSTORE POP JUMPDEST JUMPDEST JUMPDEST DUP6 DUP6 PUSH20 0xFFFFFFFFFFFFFFFFFFFFFFFFFFFFFFFFFFFFFFFF AND PUSH32 0xBBB255028C79DEA070E4449C346283DA7B4B66693776C096BB820822E4D9C41A DUP7 DUP7 PUSH1 0x40 MLOAD PUSH2 0x2E19 SWAP3 SWAP2 SWAP1 PUSH2 0x720C JUMP JUMPDEST PUSH1 0x40 MLOAD DUP1 SWAP2 SUB SWAP1 LOG3 PUSH1 0x1 SWAP2 POP POP SWAP5 SWAP4 POP POP POP POP JUMP JUMPDEST PUSH1 0x0 PUSH2 0x2E56 DUP4 PUSH1 0x0 ADD DUP4 PUSH20 0xFFFFFFFFFFFFFFFFFFFFFFFFFFFFFFFFFFFFFFFF AND PUSH1 0x0 SHL PUSH2 0x4932 JUMP JUMPDEST SWAP1 POP SWAP3 SWAP2 POP POP JUMP JUMPDEST PUSH1 0x0 DUP1 PUSH1 0x1 SWAP1 POP PUSH1 0x1 PUSH1 0x3 DUP2 GT ISZERO PUSH2 0x2E79 JUMPI PUSH2 0x2E78 PUSH2 0x5CDA JUMP JUMPDEST JUMPDEST DUP4 PUSH1 0x6 ADD PUSH1 0x0 SWAP1 SLOAD SWAP1 PUSH2 0x100 EXP SWAP1 DIV PUSH1 0xFF AND PUSH1 0x3 DUP2 GT ISZERO PUSH2 0x2E9D JUMPI PUSH2 0x2E9C PUSH2 0x5CDA JUMP JUMPDEST JUMPDEST SUB PUSH2 0x306F JUMPI PUSH1 0x1 PUSH1 0x4 DUP2 GT ISZERO PUSH2 0x2EB6 JUMPI PUSH2 0x2EB5 PUSH2 0x5CDA JUMP JUMPDEST JUMPDEST DUP4 PUSH1 0x6 ADD PUSH1 0x1 SWAP1 SLOAD SWAP1 PUSH2 0x100 EXP SWAP1 DIV PUSH1 0xFF AND PUSH1 0x4 DUP2 GT ISZERO PUSH2 0x2EDA JUMPI PUSH2 0x2ED9 PUSH2 0x5CDA JUMP JUMPDEST JUMPDEST SUB PUSH2 0x306A JUMPI PUSH1 0x0 DUP4 PUSH1 0x7 ADD DUP1 SLOAD PUSH2 0x2EF0 SWAP1 PUSH2 0x6270 JUMP JUMPDEST DUP1 PUSH1 0x1F ADD PUSH1 0x20 DUP1 SWAP2 DIV MUL PUSH1 0x20 ADD PUSH1 0x40 MLOAD SWAP1 DUP2 ADD PUSH1 0x40 MSTORE DUP1 SWAP3 SWAP2 SWAP1 DUP2 DUP2 MSTORE PUSH1 0x20 ADD DUP3 DUP1 SLOAD PUSH2 0x2F1C SWAP1 PUSH2 0x6270 JUMP JUMPDEST DUP1 ISZERO PUSH2 0x2F69 JUMPI DUP1 PUSH1 0x1F LT PUSH2 0x2F3E JUMPI PUSH2 0x100 DUP1 DUP4 SLOAD DIV MUL DUP4 MSTORE SWAP2 PUSH1 0x20 ADD SWAP2 PUSH2 0x2F69 JUMP JUMPDEST DUP3 ADD SWAP2 SWAP1 PUSH1 0x0 MSTORE PUSH1 0x20 PUSH1 0x0 KECCAK256 SWAP1 JUMPDEST DUP2 SLOAD DUP2 MSTORE SWAP1 PUSH1 0x1 ADD SWAP1 PUSH1 0x20 ADD DUP1 DUP4 GT PUSH2 0x2F4C JUMPI DUP3 SWAP1 SUB PUSH1 0x1F AND DUP3 ADD SWAP2 JUMPDEST POP POP POP POP POP DUP1 PUSH1 0x20 ADD SWAP1 MLOAD DUP2 ADD SWAP1 PUSH2 0x2F81 SWAP2 SWAP1 PUSH2 0x732D JUMP JUMPDEST SWAP1 POP PUSH1 0x40 MLOAD DUP1 PUSH1 0x40 ADD PUSH1 0x40 MSTORE DUP1 DUP3 PUSH1 0x0 ADD MLOAD DUP2 MSTORE PUSH1 0x20 ADD PUSH1 0x1 ISZERO ISZERO DUP2 MSTORE POP PUSH2 0x100 PUSH1 0x0 DUP4 PUSH1 0x20 ADD MLOAD PUSH20 0xFFFFFFFFFFFFFFFFFFFFFFFFFFFFFFFFFFFFFFFF AND PUSH20 0xFFFFFFFFFFFFFFFFFFFFFFFFFFFFFFFFFFFFFFFF AND DUP2 MSTORE PUSH1 0x20 ADD SWAP1 DUP2 MSTORE PUSH1 0x20 ADD PUSH1 0x0 KECCAK256 PUSH1 0x0 DUP3 ADD MLOAD DUP2 PUSH1 0x0 ADD SWAP1 DUP1 MLOAD SWAP1 PUSH1 0x20 ADD SWAP1 PUSH2 0x2FFF SWAP3 SWAP2 SWAP1 PUSH2 0x54E7 JUMP JUMPDEST POP PUSH1 0x20 DUP3 ADD MLOAD DUP2 PUSH1 0x1 ADD PUSH1 0x0 PUSH2 0x100 EXP DUP2 SLOAD DUP2 PUSH1 0xFF MUL NOT AND SWAP1 DUP4 ISZERO ISZERO MUL OR SWAP1 SSTORE POP SWAP1 POP POP PUSH1 0x1 PUSH2 0x105 PUSH1 0x0 DUP3 DUP3 DUP3 SWAP1 SLOAD SWAP1 PUSH2 0x100 EXP SWAP1 DIV PUSH4 0xFFFFFFFF AND PUSH2 0x3046 SWAP2 SWAP1 PUSH2 0x7020 JUMP JUMPDEST SWAP3 POP PUSH2 0x100 EXP DUP2 SLOAD DUP2 PUSH4 0xFFFFFFFF MUL NOT AND SWAP1 DUP4 PUSH4 0xFFFFFFFF AND MUL OR SWAP1 SSTORE POP PUSH1 0x1 SWAP2 POP POP JUMPDEST PUSH2 0x3612 JUMP JUMPDEST PUSH1 0x2 PUSH1 0x3 DUP2 GT ISZERO PUSH2 0x3083 JUMPI PUSH2 0x3082 PUSH2 0x5CDA JUMP JUMPDEST JUMPDEST DUP4 PUSH1 0x6 ADD PUSH1 0x0 SWAP1 SLOAD SWAP1 PUSH2 0x100 EXP SWAP1 DIV PUSH1 0xFF AND PUSH1 0x3 DUP2 GT ISZERO PUSH2 0x30A7 JUMPI PUSH2 0x30A6 PUSH2 0x5CDA JUMP JUMPDEST JUMPDEST SUB PUSH2 0x3611 JUMPI PUSH1 0x1 PUSH1 0x4 DUP2 GT ISZERO PUSH2 0x30C0 JUMPI PUSH2 0x30BF PUSH2 0x5CDA JUMP JUMPDEST JUMPDEST DUP4 PUSH1 0x6 ADD PUSH1 0x1 SWAP1 SLOAD SWAP1 PUSH2 0x100 EXP SWAP1 DIV PUSH1 0xFF AND PUSH1 0x4 DUP2 GT ISZERO PUSH2 0x30E4 JUMPI PUSH2 0x30E3 PUSH2 0x5CDA JUMP JUMPDEST JUMPDEST SUB PUSH2 0x3269 JUMPI PUSH1 0x0 DUP4 PUSH1 0x7 ADD DUP1 SLOAD PUSH2 0x30FA SWAP1 PUSH2 0x6270 JUMP JUMPDEST DUP1 PUSH1 0x1F ADD PUSH1 0x20 DUP1 SWAP2 DIV MUL PUSH1 0x20 ADD PUSH1 0x40 MLOAD SWAP1 DUP2 ADD PUSH1 0x40 MSTORE DUP1 SWAP3 SWAP2 SWAP1 DUP2 DUP2 MSTORE PUSH1 0x20 ADD DUP3 DUP1 SLOAD PUSH2 0x3126 SWAP1 PUSH2 0x6270 JUMP JUMPDEST DUP1 ISZERO PUSH2 0x3173 JUMPI DUP1 PUSH1 0x1F LT PUSH2 0x3148 JUMPI PUSH2 0x100 DUP1 DUP4 SLOAD DIV MUL DUP4 MSTORE SWAP2 PUSH1 0x20 ADD SWAP2 PUSH2 0x3173 JUMP JUMPDEST DUP3 ADD SWAP2 SWAP1 PUSH1 0x0 MSTORE PUSH1 0x20 PUSH1 0x0 KECCAK256 SWAP1 JUMPDEST DUP2 SLOAD DUP2 MSTORE SWAP1 PUSH1 0x1 ADD SWAP1 PUSH1 0x20 ADD DUP1 DUP4 GT PUSH2 0x3156 JUMPI DUP3 SWAP1 SUB PUSH1 0x1F AND DUP3 ADD SWAP2 JUMPDEST POP POP POP POP POP DUP1 PUSH1 0x20 ADD SWAP1 MLOAD DUP2 ADD SWAP1 PUSH2 0x318B SWAP2 SWAP1 PUSH2 0x7459 JUMP JUMPDEST SWAP1 POP DUP2 DUP1 ISZERO PUSH2 0x31A8 JUMPI POP PUSH2 0x31A7 DUP2 PUSH1 0x40 ADD MLOAD DUP3 PUSH1 0x20 ADD MLOAD PUSH2 0x4955 JUMP JUMPDEST JUMPDEST SWAP2 POP DUP2 DUP1 ISZERO PUSH2 0x31FB JUMPI POP PUSH2 0x31FA PUSH1 0xFE PUSH1 0x0 SWAP1 SLOAD SWAP1 PUSH2 0x100 EXP SWAP1 DIV PUSH20 0xFFFFFFFFFFFFFFFFFFFFFFFFFFFFFFFFFFFFFFFF AND PUSH1 0x64 DUP4 PUSH1 0x20 ADD MLOAD PUSH1 0x5 PUSH2 0x31EB SWAP2 SWAP1 PUSH2 0x74A2 JUMP JUMPDEST PUSH2 0x31F5 SWAP2 SWAP1 PUSH2 0x74FC JUMP JUMPDEST PUSH2 0x4955 JUMP JUMPDEST JUMPDEST SWAP2 POP DUP2 DUP1 ISZERO PUSH2 0x3244 JUMPI POP PUSH2 0x3243 DUP5 PUSH1 0x3 ADD PUSH1 0x0 SWAP1 SLOAD SWAP1 PUSH2 0x100 EXP SWAP1 DIV PUSH20 0xFFFFFFFFFFFFFFFFFFFFFFFFFFFFFFFFFFFFFFFF AND PUSH1 0x64 DUP4 PUSH1 0x20 ADD MLOAD PUSH2 0x323E SWAP2 SWAP1 PUSH2 0x74FC JUMP JUMPDEST PUSH2 0x4955 JUMP JUMPDEST JUMPDEST SWAP2 POP DUP2 DUP1 ISZERO PUSH2 0x3261 JUMPI POP PUSH2 0x3260 DUP5 PUSH1 0x0 ADD SLOAD DUP3 PUSH1 0x20 ADD MLOAD PUSH2 0x4AE9 JUMP JUMPDEST JUMPDEST SWAP2 POP POP PUSH2 0x3610 JUMP JUMPDEST PUSH1 0x2 PUSH1 0x4 DUP2 GT ISZERO PUSH2 0x327D JUMPI PUSH2 0x327C PUSH2 0x5CDA JUMP JUMPDEST JUMPDEST DUP4 PUSH1 0x6 ADD PUSH1 0x1 SWAP1 SLOAD SWAP1 PUSH2 0x100 EXP SWAP1 DIV PUSH1 0xFF AND PUSH1 0x4 DUP2 GT ISZERO PUSH2 0x32A1 JUMPI PUSH2 0x32A0 PUSH2 0x5CDA JUMP JUMPDEST JUMPDEST SUB PUSH2 0x3426 JUMPI PUSH1 0x0 DUP4 PUSH1 0x7 ADD DUP1 SLOAD PUSH2 0x32B7 SWAP1 PUSH2 0x6270 JUMP JUMPDEST DUP1 PUSH1 0x1F ADD PUSH1 0x20 DUP1 SWAP2 DIV MUL PUSH1 0x20 ADD PUSH1 0x40 MLOAD SWAP1 DUP2 ADD PUSH1 0x40 MSTORE DUP1 SWAP3 SWAP2 SWAP1 DUP2 DUP2 MSTORE PUSH1 0x20 ADD DUP3 DUP1 SLOAD PUSH2 0x32E3 SWAP1 PUSH2 0x6270 JUMP JUMPDEST DUP1 ISZERO PUSH2 0x3330 JUMPI DUP1 PUSH1 0x1F LT PUSH2 0x3305 JUMPI PUSH2 0x100 DUP1 DUP4 SLOAD DIV MUL DUP4 MSTORE SWAP2 PUSH1 0x20 ADD SWAP2 PUSH2 0x3330 JUMP JUMPDEST DUP3 ADD SWAP2 SWAP1 PUSH1 0x0 MSTORE PUSH1 0x20 PUSH1 0x0 KECCAK256 SWAP1 JUMPDEST DUP2 SLOAD DUP2 MSTORE SWAP1 PUSH1 0x1 ADD SWAP1 PUSH1 0x20 ADD DUP1 DUP4 GT PUSH2 0x3313 JUMPI DUP3 SWAP1 SUB PUSH1 0x1F AND DUP3 ADD SWAP2 JUMPDEST POP POP POP POP POP DUP1 PUSH1 0x20 ADD SWAP1 MLOAD DUP2 ADD SWAP1 PUSH2 0x3348 SWAP2 SWAP1 PUSH2 0x75C1 JUMP JUMPDEST SWAP1 POP DUP2 DUP1 ISZERO PUSH2 0x3365 JUMPI POP PUSH2 0x3364 DUP2 PUSH1 0x40 ADD MLOAD DUP3 PUSH1 0x20 ADD MLOAD PUSH2 0x4955 JUMP JUMPDEST JUMPDEST SWAP2 POP DUP2 DUP1 ISZERO PUSH2 0x33B8 JUMPI POP PUSH2 0x33B7 PUSH1 0xFE PUSH1 0x0 SWAP1 SLOAD SWAP1 PUSH2 0x100 EXP SWAP1 DIV PUSH20 0xFFFFFFFFFFFFFFFFFFFFFFFFFFFFFFFFFFFFFFFF AND PUSH1 0x64 DUP4 PUSH1 0x20 ADD MLOAD PUSH1 0x5 PUSH2 0x33A8 SWAP2 SWAP1 PUSH2 0x74A2 JUMP JUMPDEST PUSH2 0x33B2 SWAP2 SWAP1 PUSH2 0x74FC JUMP JUMPDEST PUSH2 0x4955 JUMP JUMPDEST JUMPDEST SWAP2 POP DUP2 DUP1 ISZERO PUSH2 0x3401 JUMPI POP PUSH2 0x3400 DUP5 PUSH1 0x3 ADD PUSH1 0x0 SWAP1 SLOAD SWAP1 PUSH2 0x100 EXP SWAP1 DIV PUSH20 0xFFFFFFFFFFFFFFFFFFFFFFFFFFFFFFFFFFFFFFFF AND PUSH1 0x64 DUP4 PUSH1 0x20 ADD MLOAD PUSH2 0x33FB SWAP2 SWAP1 PUSH2 0x74FC JUMP JUMPDEST PUSH2 0x4955 JUMP JUMPDEST JUMPDEST SWAP2 POP DUP2 DUP1 ISZERO PUSH2 0x341E JUMPI POP PUSH2 0x341D DUP5 PUSH1 0x0 ADD SLOAD DUP3 PUSH1 0x20 ADD MLOAD PUSH2 0x4AE9 JUMP JUMPDEST JUMPDEST SWAP2 POP POP PUSH2 0x360F JUMP JUMPDEST PUSH1 0x3 PUSH1 0x4 DUP2 GT ISZERO PUSH2 0x343A JUMPI PUSH2 0x3439 PUSH2 0x5CDA JUMP JUMPDEST JUMPDEST DUP4 PUSH1 0x6 ADD PUSH1 0x1 SWAP1 SLOAD SWAP1 PUSH2 0x100 EXP SWAP1 DIV PUSH1 0xFF AND PUSH1 0x4 DUP2 GT ISZERO PUSH2 0x345E JUMPI PUSH2 0x345D PUSH2 0x5CDA JUMP JUMPDEST JUMPDEST SUB PUSH2 0x351C JUMPI PUSH1 0x0 DUP4 PUSH1 0x7 ADD DUP1 SLOAD PUSH2 0x3474 SWAP1 PUSH2 0x6270 JUMP JUMPDEST DUP1 PUSH1 0x1F ADD PUSH1 0x20 DUP1 SWAP2 DIV MUL PUSH1 0x20 ADD PUSH1 0x40 MLOAD SWAP1 DUP2 ADD PUSH1 0x40 MSTORE DUP1 SWAP3 SWAP2 SWAP1 DUP2 DUP2 MSTORE PUSH1 0x20 ADD DUP3 DUP1 SLOAD PUSH2 0x34A0 SWAP1 PUSH2 0x6270 JUMP JUMPDEST DUP1 ISZERO PUSH2 0x34ED JUMPI DUP1 PUSH1 0x1F LT PUSH2 0x34C2 JUMPI PUSH2 0x100 DUP1 DUP4 SLOAD DIV MUL DUP4 MSTORE SWAP2 PUSH1 0x20 ADD SWAP2 PUSH2 0x34ED JUMP JUMPDEST DUP3 ADD SWAP2 SWAP1 PUSH1 0x0 MSTORE PUSH1 0x20 PUSH1 0x0 KECCAK256 SWAP1 JUMPDEST DUP2 SLOAD DUP2 MSTORE SWAP1 PUSH1 0x1 ADD SWAP1 PUSH1 0x20 ADD DUP1 DUP4 GT PUSH2 0x34D0 JUMPI DUP3 SWAP1 SUB PUSH1 0x1F AND DUP3 ADD SWAP2 JUMPDEST POP POP POP POP POP DUP1 PUSH1 0x20 ADD SWAP1 MLOAD DUP2 ADD SWAP1 PUSH2 0x3505 SWAP2 SWAP1 PUSH2 0x7646 JUMP JUMPDEST SWAP1 POP PUSH2 0x3514 DUP2 PUSH1 0x0 ADD MLOAD PUSH2 0x4B95 JUMP JUMPDEST SWAP2 POP POP PUSH2 0x360E JUMP JUMPDEST PUSH1 0x4 DUP1 DUP2 GT ISZERO PUSH2 0x352F JUMPI PUSH2 0x352E PUSH2 0x5CDA JUMP JUMPDEST JUMPDEST DUP4 PUSH1 0x6 ADD PUSH1 0x1 SWAP1 SLOAD SWAP1 PUSH2 0x100 EXP SWAP1 DIV PUSH1 0xFF AND PUSH1 0x4 DUP2 GT ISZERO PUSH2 0x3553 JUMPI PUSH2 0x3552 PUSH2 0x5CDA JUMP JUMPDEST JUMPDEST SUB PUSH2 0x360D JUMPI PUSH1 0x0 DUP4 PUSH1 0x7 ADD DUP1 SLOAD PUSH2 0x3569 SWAP1 PUSH2 0x6270 JUMP JUMPDEST DUP1 PUSH1 0x1F ADD PUSH1 0x20 DUP1 SWAP2 DIV MUL PUSH1 0x20 ADD PUSH1 0x40 MLOAD SWAP1 DUP2 ADD PUSH1 0x40 MSTORE DUP1 SWAP3 SWAP2 SWAP1 DUP2 DUP2 MSTORE PUSH1 0x20 ADD DUP3 DUP1 SLOAD PUSH2 0x3595 SWAP1 PUSH2 0x6270 JUMP JUMPDEST DUP1 ISZERO PUSH2 0x35E2 JUMPI DUP1 PUSH1 0x1F LT PUSH2 0x35B7 JUMPI PUSH2 0x100 DUP1 DUP4 SLOAD DIV MUL DUP4 MSTORE SWAP2 PUSH1 0x20 ADD SWAP2 PUSH2 0x35E2 JUMP JUMPDEST DUP3 ADD SWAP2 SWAP1 PUSH1 0x0 MSTORE PUSH1 0x20 PUSH1 0x0 KECCAK256 SWAP1 JUMPDEST DUP2 SLOAD DUP2 MSTORE SWAP1 PUSH1 0x1 ADD SWAP1 PUSH1 0x20 ADD DUP1 DUP4 GT PUSH2 0x35C5 JUMPI DUP3 SWAP1 SUB PUSH1 0x1F AND DUP3 ADD SWAP2 JUMPDEST POP POP POP POP POP DUP1 PUSH1 0x20 ADD SWAP1 MLOAD DUP2 ADD SWAP1 PUSH2 0x35FA SWAP2 SWAP1 PUSH2 0x76AF JUMP JUMPDEST SWAP1 POP PUSH2 0x3609 DUP2 PUSH1 0x0 ADD MLOAD PUSH2 0x4D02 JUMP JUMPDEST SWAP2 POP POP JUMPDEST JUMPDEST JUMPDEST JUMPDEST JUMPDEST JUMPDEST DUP1 SWAP2 POP POP SWAP2 SWAP1 POP JUMP JUMPDEST PUSH1 0x0 PUSH32 0xF1D23BD7EDE3E157B19AF9BDC7F9F08C55104D948E791AD0900A92E0A680C3A2 DUP8 DUP8 DUP8 DUP8 DUP8 DUP8 PUSH1 0x40 MLOAD PUSH1 0x20 ADD PUSH2 0x3654 SWAP2 SWAP1 PUSH2 0x7718 JUMP JUMPDEST PUSH1 0x40 MLOAD PUSH1 0x20 DUP2 DUP4 SUB SUB DUP2 MSTORE SWAP1 PUSH1 0x40 MSTORE DUP1 MLOAD SWAP1 PUSH1 0x20 ADD KECCAK256 PUSH1 0x40 MLOAD PUSH1 0x20 ADD PUSH2 0x3680 SWAP8 SWAP7 SWAP6 SWAP5 SWAP4 SWAP3 SWAP2 SWAP1 PUSH2 0x772F JUMP JUMPDEST PUSH1 0x40 MLOAD PUSH1 0x20 DUP2 DUP4 SUB SUB DUP2 MSTORE SWAP1 PUSH1 0x40 MSTORE DUP1 MLOAD SWAP1 PUSH1 0x20 ADD KECCAK256 SWAP1 POP SWAP7 SWAP6 POP POP POP POP POP POP JUMP JUMPDEST PUSH1 0x0 PUSH2 0x36B5 PUSH2 0x36AF PUSH2 0x37D6 JUMP JUMPDEST DUP4 PUSH2 0x4E6F JUMP JUMPDEST SWAP1 POP SWAP2 SWAP1 POP JUMP JUMPDEST PUSH1 0x0 DUP1 PUSH1 0x41 DUP4 MLOAD SUB PUSH2 0x36FD JUMPI PUSH1 0x0 DUP1 PUSH1 0x0 PUSH1 0x20 DUP7 ADD MLOAD SWAP3 POP PUSH1 0x40 DUP7 ADD MLOAD SWAP2 POP PUSH1 0x60 DUP7 ADD MLOAD PUSH1 0x0 BYTE SWAP1 POP PUSH2 0x36F1 DUP8 DUP3 DUP6 DUP6 PUSH2 0x4EA2 JUMP JUMPDEST SWAP5 POP SWAP5 POP POP POP POP PUSH2 0x3736 JUMP JUMPDEST PUSH1 0x40 DUP4 MLOAD SUB PUSH2 0x372D JUMPI PUSH1 0x0 DUP1 PUSH1 0x20 DUP6 ADD MLOAD SWAP2 POP PUSH1 0x40 DUP6 ADD MLOAD SWAP1 POP PUSH2 0x3722 DUP7 DUP4 DUP4 PUSH2 0x4FAE JUMP JUMPDEST SWAP4 POP SWAP4 POP POP POP PUSH2 0x3736 JUMP JUMPDEST PUSH1 0x0 PUSH1 0x2 SWAP2 POP SWAP2 POP JUMPDEST SWAP3 POP SWAP3 SWAP1 POP JUMP JUMPDEST PUSH2 0x37D3 DUP2 PUSH1 0x40 MLOAD PUSH1 0x24 ADD PUSH2 0x3751 SWAP2 SWAP1 PUSH2 0x5832 JUMP JUMPDEST PUSH1 0x40 MLOAD PUSH1 0x20 DUP2 DUP4 SUB SUB DUP2 MSTORE SWAP1 PUSH1 0x40 MSTORE PUSH32 0x41304FAC00000000000000000000000000000000000000000000000000000000 PUSH28 0xFFFFFFFFFFFFFFFFFFFFFFFFFFFFFFFFFFFFFFFFFFFFFFFFFFFFFFFF NOT AND PUSH1 0x20 DUP3 ADD DUP1 MLOAD PUSH28 0xFFFFFFFFFFFFFFFFFFFFFFFFFFFFFFFFFFFFFFFFFFFFFFFFFFFFFFFF DUP4 DUP2 DUP4 AND OR DUP4 MSTORE POP POP POP POP PUSH2 0x500D JUMP JUMPDEST POP JUMP JUMPDEST PUSH1 0x0 PUSH32 0x8B73C3C69BB8FE3D512ECC4CF759CC79239F7B179B0FFACAA9A75D522B39400F PUSH2 0x103 PUSH1 0x40 MLOAD PUSH1 0x20 ADD PUSH2 0x380C SWAP2 SWAP1 PUSH2 0x7832 JUMP JUMPDEST PUSH1 0x40 MLOAD PUSH1 0x20 DUP2 DUP4 SUB SUB DUP2 MSTORE SWAP1 PUSH1 0x40 MSTORE DUP1 MLOAD SWAP1 PUSH1 0x20 ADD KECCAK256 PUSH2 0x104 PUSH1 0x40 MLOAD PUSH1 0x20 ADD PUSH2 0x3835 SWAP2 SWAP1 PUSH2 0x7832 JUMP JUMPDEST PUSH1 0x40 MLOAD PUSH1 0x20 DUP2 DUP4 SUB SUB DUP2 MSTORE SWAP1 PUSH1 0x40 MSTORE DUP1 MLOAD SWAP1 PUSH1 0x20 ADD KECCAK256 CHAINID ADDRESS PUSH1 0x40 MLOAD PUSH1 0x20 ADD PUSH2 0x3861 SWAP6 SWAP5 SWAP4 SWAP3 SWAP2 SWAP1 PUSH2 0x7849 JUMP JUMPDEST PUSH1 0x40 MLOAD PUSH1 0x20 DUP2 DUP4 SUB SUB DUP2 MSTORE SWAP1 PUSH1 0x40 MSTORE DUP1 MLOAD SWAP1 PUSH1 0x20 ADD KECCAK256 SWAP1 POP SWAP1 JUMP JUMPDEST PUSH2 0x3912 DUP2 PUSH1 0x40 MLOAD PUSH1 0x24 ADD PUSH2 0x3890 SWAP2 SWAP1 PUSH2 0x598B JUMP JUMPDEST PUSH1 0x40 MLOAD PUSH1 0x20 DUP2 DUP4 SUB SUB DUP2 MSTORE SWAP1 PUSH1 0x40 MSTORE PUSH32 0x27B7CF8500000000000000000000000000000000000000000000000000000000 PUSH28 0xFFFFFFFFFFFFFFFFFFFFFFFFFFFFFFFFFFFFFFFFFFFFFFFFFFFFFFFF NOT AND PUSH1 0x20 DUP3 ADD DUP1 MLOAD PUSH28 0xFFFFFFFFFFFFFFFFFFFFFFFFFFFFFFFFFFFFFFFFFFFFFFFFFFFFFFFF DUP4 DUP2 DUP4 AND OR DUP4 MSTORE POP POP POP POP PUSH2 0x500D JUMP JUMPDEST POP JUMP JUMPDEST PUSH2 0x39AB DUP2 PUSH1 0x40 MLOAD PUSH1 0x24 ADD PUSH2 0x3929 SWAP2 SWAP1 PUSH2 0x789C JUMP JUMPDEST PUSH1 0x40 MLOAD PUSH1 0x20 DUP2 DUP4 SUB SUB DUP2 MSTORE SWAP1 PUSH1 0x40 MSTORE PUSH32 0xBE77F5600000000000000000000000000000000000000000000000000000000 PUSH28 0xFFFFFFFFFFFFFFFFFFFFFFFFFFFFFFFFFFFFFFFFFFFFFFFFFFFFFFFF NOT AND PUSH1 0x20 DUP3 ADD DUP1 MLOAD PUSH28 0xFFFFFFFFFFFFFFFFFFFFFFFFFFFFFFFFFFFFFFFFFFFFFFFFFFFFFFFF DUP4 DUP2 DUP4 AND OR DUP4 MSTORE POP POP POP POP PUSH2 0x500D JUMP JUMPDEST POP JUMP JUMPDEST PUSH2 0x3A4A DUP5 DUP5 DUP5 DUP5 PUSH1 0x40 MLOAD PUSH1 0x24 ADD PUSH2 0x39C8 SWAP5 SWAP4 SWAP3 SWAP2 SWAP1 PUSH2 0x78BE JUMP JUMPDEST PUSH1 0x40 MLOAD PUSH1 0x20 DUP2 DUP4 SUB SUB DUP2 MSTORE SWAP1 PUSH1 0x40 MSTORE PUSH32 0xED8F28F600000000000000000000000000000000000000000000000000000000 PUSH28 0xFFFFFFFFFFFFFFFFFFFFFFFFFFFFFFFFFFFFFFFFFFFFFFFFFFFFFFFF NOT AND PUSH1 0x20 DUP3 ADD DUP1 MLOAD PUSH28 0xFFFFFFFFFFFFFFFFFFFFFFFFFFFFFFFFFFFFFFFFFFFFFFFFFFFFFFFF DUP4 DUP2 DUP4 AND OR DUP4 MSTORE POP POP POP POP PUSH2 0x500D JUMP JUMPDEST POP POP POP POP JUMP JUMPDEST DUP1 DUP3 PUSH1 0x0 ADD PUSH1 0x0 PUSH2 0x100 EXP DUP2 SLOAD DUP2 PUSH8 0xFFFFFFFFFFFFFFFF MUL NOT AND SWAP1 DUP4 PUSH8 0xFFFFFFFFFFFFFFFF AND MUL OR SWAP1 SSTORE POP POP POP JUMP JUMPDEST PUSH1 0x1 PUSH1 0x3 DUP2 GT ISZERO PUSH2 0x3A93 JUMPI PUSH2 0x3A92 PUSH2 0x5CDA JUMP JUMPDEST JUMPDEST DUP2 PUSH1 0x6 ADD PUSH1 0x0 SWAP1 SLOAD SWAP1 PUSH2 0x100 EXP SWAP1 DIV PUSH1 0xFF AND PUSH1 0x3 DUP2 GT ISZERO PUSH2 0x3AB7 JUMPI PUSH2 0x3AB6 PUSH2 0x5CDA JUMP JUMPDEST JUMPDEST SUB PUSH2 0x3D01 JUMPI PUSH1 0x1 PUSH1 0x4 DUP2 GT ISZERO PUSH2 0x3AD0 JUMPI PUSH2 0x3ACF PUSH2 0x5CDA JUMP JUMPDEST JUMPDEST DUP2 PUSH1 0x6 ADD PUSH1 0x1 SWAP1 SLOAD SWAP1 PUSH2 0x100 EXP SWAP1 DIV PUSH1 0xFF AND PUSH1 0x4 DUP2 GT ISZERO PUSH2 0x3AF4 JUMPI PUSH2 0x3AF3 PUSH2 0x5CDA JUMP JUMPDEST JUMPDEST SUB PUSH2 0x3CFC JUMPI PUSH1 0x0 DUP2 PUSH1 0x7 ADD DUP1 SLOAD PUSH2 0x3B0A SWAP1 PUSH2 0x6270 JUMP JUMPDEST DUP1 PUSH1 0x1F ADD PUSH1 0x20 DUP1 SWAP2 DIV MUL PUSH1 0x20 ADD PUSH1 0x40 MLOAD SWAP1 DUP2 ADD PUSH1 0x40 MSTORE DUP1 SWAP3 SWAP2 SWAP1 DUP2 DUP2 MSTORE PUSH1 0x20 ADD DUP3 DUP1 SLOAD PUSH2 0x3B36 SWAP1 PUSH2 0x6270 JUMP JUMPDEST DUP1 ISZERO PUSH2 0x3B83 JUMPI DUP1 PUSH1 0x1F LT PUSH2 0x3B58 JUMPI PUSH2 0x100 DUP1 DUP4 SLOAD DIV MUL DUP4 MSTORE SWAP2 PUSH1 0x20 ADD SWAP2 PUSH2 0x3B83 JUMP JUMPDEST DUP3 ADD SWAP2 SWAP1 PUSH1 0x0 MSTORE PUSH1 0x20 PUSH1 0x0 KECCAK256 SWAP1 JUMPDEST DUP2 SLOAD DUP2 MSTORE SWAP1 PUSH1 0x1 ADD SWAP1 PUSH1 0x20 ADD DUP1 DUP4 GT PUSH2 0x3B66 JUMPI DUP3 SWAP1 SUB PUSH1 0x1F AND DUP3 ADD SWAP2 JUMPDEST POP POP POP POP POP DUP1 PUSH1 0x20 ADD SWAP1 MLOAD DUP2 ADD SWAP1 PUSH2 0x3B9B SWAP2 SWAP1 PUSH2 0x732D JUMP JUMPDEST SWAP1 POP PUSH1 0x0 PUSH20 0xFFFFFFFFFFFFFFFFFFFFFFFFFFFFFFFFFFFFFFFF AND DUP2 PUSH1 0x20 ADD MLOAD PUSH20 0xFFFFFFFFFFFFFFFFFFFFFFFFFFFFFFFFFFFFFFFF AND SUB PUSH2 0x3C10 JUMPI PUSH1 0x40 MLOAD PUSH32 0x8C379A000000000000000000000000000000000000000000000000000000000 DUP2 MSTORE PUSH1 0x4 ADD PUSH2 0x3C07 SWAP1 PUSH2 0x797C JUMP JUMPDEST PUSH1 0x40 MLOAD DUP1 SWAP2 SUB SWAP1 REVERT JUMPDEST PUSH1 0x0 DUP2 PUSH1 0x0 ADD MLOAD MLOAD SUB PUSH2 0x3C58 JUMPI PUSH1 0x40 MLOAD PUSH32 0x8C379A000000000000000000000000000000000000000000000000000000000 DUP2 MSTORE PUSH1 0x4 ADD PUSH2 0x3C4F SWAP1 PUSH2 0x7A0E JUMP JUMPDEST PUSH1 0x40 MLOAD DUP1 SWAP2 SUB SWAP1 REVERT JUMPDEST DUP1 PUSH1 0x20 ADD MLOAD PUSH20 0xFFFFFFFFFFFFFFFFFFFFFFFFFFFFFFFFFFFFFFFF AND DUP3 PUSH1 0x3 ADD PUSH1 0x0 SWAP1 SLOAD SWAP1 PUSH2 0x100 EXP SWAP1 DIV PUSH20 0xFFFFFFFFFFFFFFFFFFFFFFFFFFFFFFFFFFFFFFFF AND PUSH20 0xFFFFFFFFFFFFFFFFFFFFFFFFFFFFFFFFFFFFFFFF AND DUP4 PUSH1 0x0 ADD SLOAD PUSH32 0x3B993E041D591EA59A38F6CFF579DF5E8D6C2D1FED74305DFBB114336C41BDFD DUP6 PUSH1 0x1 ADD SLOAD DUP7 PUSH1 0x2 ADD SLOAD DUP7 PUSH1 0x0 ADD MLOAD PUSH1 0x40 MLOAD PUSH2 0x3CF2 SWAP4 SWAP3 SWAP2 SWAP1 PUSH2 0x7A2E JUMP JUMPDEST PUSH1 0x40 MLOAD DUP1 SWAP2 SUB SWAP1 LOG4 POP JUMPDEST PUSH2 0x472C JUMP JUMPDEST PUSH1 0x2 PUSH1 0x3 DUP2 GT ISZERO PUSH2 0x3D15 JUMPI PUSH2 0x3D14 PUSH2 0x5CDA JUMP JUMPDEST JUMPDEST DUP2 PUSH1 0x6 ADD PUSH1 0x0 SWAP1 SLOAD SWAP1 PUSH2 0x100 EXP SWAP1 DIV PUSH1 0xFF AND PUSH1 0x3 DUP2 GT ISZERO PUSH2 0x3D39 JUMPI PUSH2 0x3D38 PUSH2 0x5CDA JUMP JUMPDEST JUMPDEST SUB PUSH2 0x46F1 JUMPI PUSH1 0x1 PUSH1 0x4 DUP2 GT ISZERO PUSH2 0x3D52 JUMPI PUSH2 0x3D51 PUSH2 0x5CDA JUMP JUMPDEST JUMPDEST DUP2 PUSH1 0x6 ADD PUSH1 0x1 SWAP1 SLOAD SWAP1 PUSH2 0x100 EXP SWAP1 DIV PUSH1 0xFF AND PUSH1 0x4 DUP2 GT ISZERO PUSH2 0x3D76 JUMPI PUSH2 0x3D75 PUSH2 0x5CDA JUMP JUMPDEST JUMPDEST SUB PUSH2 0x4020 JUMPI PUSH1 0x0 DUP2 PUSH1 0x7 ADD DUP1 SLOAD PUSH2 0x3D8C SWAP1 PUSH2 0x6270 JUMP JUMPDEST DUP1 PUSH1 0x1F ADD PUSH1 0x20 DUP1 SWAP2 DIV MUL PUSH1 0x20 ADD PUSH1 0x40 MLOAD SWAP1 DUP2 ADD PUSH1 0x40 MSTORE DUP1 SWAP3 SWAP2 SWAP1 DUP2 DUP2 MSTORE PUSH1 0x20 ADD DUP3 DUP1 SLOAD PUSH2 0x3DB8 SWAP1 PUSH2 0x6270 JUMP JUMPDEST DUP1 ISZERO PUSH2 0x3E05 JUMPI DUP1 PUSH1 0x1F LT PUSH2 0x3DDA JUMPI PUSH2 0x100 DUP1 DUP4 SLOAD DIV MUL DUP4 MSTORE SWAP2 PUSH1 0x20 ADD SWAP2 PUSH2 0x3E05 JUMP JUMPDEST DUP3 ADD SWAP2 SWAP1 PUSH1 0x0 MSTORE PUSH1 0x20 PUSH1 0x0 KECCAK256 SWAP1 JUMPDEST DUP2 SLOAD DUP2 MSTORE SWAP1 PUSH1 0x1 ADD SWAP1 PUSH1 0x20 ADD DUP1 DUP4 GT PUSH2 0x3DE8 JUMPI DUP3 SWAP1 SUB PUSH1 0x1F AND DUP3 ADD SWAP2 JUMPDEST POP POP POP POP POP DUP1 PUSH1 0x20 ADD SWAP1 MLOAD DUP2 ADD SWAP1 PUSH2 0x3E1D SWAP2 SWAP1 PUSH2 0x7459 JUMP JUMPDEST SWAP1 POP PUSH1 0x0 DUP2 PUSH1 0x0 ADD MLOAD MLOAD SUB PUSH2 0x3E67 JUMPI PUSH1 0x40 MLOAD PUSH32 0x8C379A000000000000000000000000000000000000000000000000000000000 DUP2 MSTORE PUSH1 0x4 ADD PUSH2 0x3E5E SWAP1 PUSH2 0x7AB8 JUMP JUMPDEST PUSH1 0x40 MLOAD DUP1 SWAP2 SUB SWAP1 REVERT JUMPDEST PUSH1 0x0 DUP2 PUSH1 0x20 ADD MLOAD SUB PUSH2 0x3EAE JUMPI PUSH1 0x40 MLOAD PUSH32 0x8C379A000000000000000000000000000000000000000000000000000000000 DUP2 MSTORE PUSH1 0x4 ADD PUSH2 0x3EA5 SWAP1 PUSH2 0x7B4A JUMP JUMPDEST PUSH1 0x40 MLOAD DUP1 SWAP2 SUB SWAP1 REVERT JUMPDEST PUSH1 0x0 DUP2 PUSH1 0x60 ADD MLOAD PUSH2 0xFFFF AND SUB PUSH2 0x3EF9 JUMPI PUSH1 0x40 MLOAD PUSH32 0x8C379A000000000000000000000000000000000000000000000000000000000 DUP2 MSTORE PUSH1 0x4 ADD PUSH2 0x3EF0 SWAP1 PUSH2 0x7BDC JUMP JUMPDEST PUSH1 0x40 MLOAD DUP1 SWAP2 SUB SWAP1 REVERT JUMPDEST PUSH1 0x0 PUSH20 0xFFFFFFFFFFFFFFFFFFFFFFFFFFFFFFFFFFFFFFFF AND DUP2 PUSH1 0x40 ADD MLOAD PUSH20 0xFFFFFFFFFFFFFFFFFFFFFFFFFFFFFFFFFFFFFFFF AND SUB PUSH2 0x3F6C JUMPI PUSH1 0x40 MLOAD PUSH32 0x8C379A000000000000000000000000000000000000000000000000000000000 DUP2 MSTORE PUSH1 0x4 ADD PUSH2 0x3F63 SWAP1 PUSH2 0x7C48 JUMP JUMPDEST PUSH1 0x40 MLOAD DUP1 SWAP2 SUB SWAP1 REVERT JUMPDEST DUP1 PUSH1 0x40 ADD MLOAD PUSH20 0xFFFFFFFFFFFFFFFFFFFFFFFFFFFFFFFFFFFFFFFF AND DUP3 PUSH1 0x3 ADD PUSH1 0x0 SWAP1 SLOAD SWAP1 PUSH2 0x100 EXP SWAP1 DIV PUSH20 0xFFFFFFFFFFFFFFFFFFFFFFFFFFFFFFFFFFFFFFFF AND PUSH20 0xFFFFFFFFFFFFFFFFFFFFFFFFFFFFFFFFFFFFFFFF AND DUP4 PUSH1 0x0 ADD SLOAD PUSH32 0xA3D1A39A550977BAA46EA2634B05F5EB5993C2422417CE8C7139B39635A2A08C DUP5 PUSH1 0x20 ADD MLOAD DUP7 PUSH1 0x1 ADD SLOAD DUP8 PUSH1 0x2 ADD SLOAD DUP8 PUSH1 0x0 ADD MLOAD DUP9 PUSH1 0x60 ADD MLOAD PUSH1 0x40 MLOAD PUSH2 0x4012 SWAP6 SWAP5 SWAP4 SWAP3 SWAP2 SWAP1 PUSH2 0x7C77 JUMP JUMPDEST PUSH1 0x40 MLOAD DUP1 SWAP2 SUB SWAP1 LOG4 POP PUSH2 0x46EC JUMP JUMPDEST PUSH1 0x2 PUSH1 0x4 DUP2 GT ISZERO PUSH2 0x4034 JUMPI PUSH2 0x4033 PUSH2 0x5CDA JUMP JUMPDEST JUMPDEST DUP2 PUSH1 0x6 ADD PUSH1 0x1 SWAP1 SLOAD SWAP1 PUSH2 0x100 EXP SWAP1 DIV PUSH1 0xFF AND PUSH1 0x4 DUP2 GT ISZERO PUSH2 0x4058 JUMPI PUSH2 0x4057 PUSH2 0x5CDA JUMP JUMPDEST JUMPDEST SUB PUSH2 0x4302 JUMPI PUSH1 0x0 DUP2 PUSH1 0x7 ADD DUP1 SLOAD PUSH2 0x406E SWAP1 PUSH2 0x6270 JUMP JUMPDEST DUP1 PUSH1 0x1F ADD PUSH1 0x20 DUP1 SWAP2 DIV MUL PUSH1 0x20 ADD PUSH1 0x40 MLOAD SWAP1 DUP2 ADD PUSH1 0x40 MSTORE DUP1 SWAP3 SWAP2 SWAP1 DUP2 DUP2 MSTORE PUSH1 0x20 ADD DUP3 DUP1 SLOAD PUSH2 0x409A SWAP1 PUSH2 0x6270 JUMP JUMPDEST DUP1 ISZERO PUSH2 0x40E7 JUMPI DUP1 PUSH1 0x1F LT PUSH2 0x40BC JUMPI PUSH2 0x100 DUP1 DUP4 SLOAD DIV MUL DUP4 MSTORE SWAP2 PUSH1 0x20 ADD SWAP2 PUSH2 0x40E7 JUMP JUMPDEST DUP3 ADD SWAP2 SWAP1 PUSH1 0x0 MSTORE PUSH1 0x20 PUSH1 0x0 KECCAK256 SWAP1 JUMPDEST DUP2 SLOAD DUP2 MSTORE SWAP1 PUSH1 0x1 ADD SWAP1 PUSH1 0x20 ADD DUP1 DUP4 GT PUSH2 0x40CA JUMPI DUP3 SWAP1 SUB PUSH1 0x1F AND DUP3 ADD SWAP2 JUMPDEST POP POP POP POP POP DUP1 PUSH1 0x20 ADD SWAP1 MLOAD DUP2 ADD SWAP1 PUSH2 0x40FF SWAP2 SWAP1 PUSH2 0x75C1 JUMP JUMPDEST SWAP1 POP PUSH1 0x0 DUP2 PUSH1 0x0 ADD MLOAD MLOAD SUB PUSH2 0x4149 JUMPI PUSH1 0x40 MLOAD PUSH32 0x8C379A000000000000000000000000000000000000000000000000000000000 DUP2 MSTORE PUSH1 0x4 ADD PUSH2 0x4140 SWAP1 PUSH2 0x7AB8 JUMP JUMPDEST PUSH1 0x40 MLOAD DUP1 SWAP2 SUB SWAP1 REVERT JUMPDEST PUSH1 0x0 DUP2 PUSH1 0x20 ADD MLOAD SUB PUSH2 0x4190 JUMPI PUSH1 0x40 MLOAD PUSH32 0x8C379A000000000000000000000000000000000000000000000000000000000 DUP2 MSTORE PUSH1 0x4 ADD PUSH2 0x4187 SWAP1 PUSH2 0x7B4A JUMP JUMPDEST PUSH1 0x40 MLOAD DUP1 SWAP2 SUB SWAP1 REVERT JUMPDEST PUSH1 0x0 DUP2 PUSH1 0x60 ADD MLOAD PUSH2 0xFFFF AND SUB PUSH2 0x41DB JUMPI PUSH1 0x40 MLOAD PUSH32 0x8C379A000000000000000000000000000000000000000000000000000000000 DUP2 MSTORE PUSH1 0x4 ADD PUSH2 0x41D2 SWAP1 PUSH2 0x7BDC JUMP JUMPDEST PUSH1 0x40 MLOAD DUP1 SWAP2 SUB SWAP1 REVERT JUMPDEST PUSH1 0x0 PUSH20 0xFFFFFFFFFFFFFFFFFFFFFFFFFFFFFFFFFFFFFFFF AND DUP2 PUSH1 0x40 ADD MLOAD PUSH20 0xFFFFFFFFFFFFFFFFFFFFFFFFFFFFFFFFFFFFFFFF AND SUB PUSH2 0x424E JUMPI PUSH1 0x40 MLOAD PUSH32 0x8C379A000000000000000000000000000000000000000000000000000000000 DUP2 MSTORE PUSH1 0x4 ADD PUSH2 0x4245 SWAP1 PUSH2 0x7D1D JUMP JUMPDEST PUSH1 0x40 MLOAD DUP1 SWAP2 SUB SWAP1 REVERT JUMPDEST DUP1 PUSH1 0x40 ADD MLOAD PUSH20 0xFFFFFFFFFFFFFFFFFFFFFFFFFFFFFFFFFFFFFFFF AND DUP3 PUSH1 0x3 ADD PUSH1 0x0 SWAP1 SLOAD SWAP1 PUSH2 0x100 EXP SWAP1 DIV PUSH20 0xFFFFFFFFFFFFFFFFFFFFFFFFFFFFFFFFFFFFFFFF AND PUSH20 0xFFFFFFFFFFFFFFFFFFFFFFFFFFFFFFFFFFFFFFFF AND DUP4 PUSH1 0x0 ADD SLOAD PUSH32 0xB58C12647C60F8966538BCFA6BF6B815477288BCBCBD80C2AC8AD7C23115A2D9 DUP5 PUSH1 0x20 ADD MLOAD DUP7 PUSH1 0x1 ADD SLOAD DUP8 PUSH1 0x2 ADD SLOAD DUP8 PUSH1 0x0 ADD MLOAD DUP9 PUSH1 0x60 ADD MLOAD PUSH1 0x40 MLOAD PUSH2 0x42F4 SWAP6 SWAP5 SWAP4 SWAP3 SWAP2 SWAP1 PUSH2 0x7C77 JUMP JUMPDEST PUSH1 0x40 MLOAD DUP1 SWAP2 SUB SWAP1 LOG4 POP PUSH2 0x46EB JUMP JUMPDEST PUSH1 0x3 PUSH1 0x4 DUP2 GT ISZERO PUSH2 0x4316 JUMPI PUSH2 0x4315 PUSH2 0x5CDA JUMP JUMPDEST JUMPDEST DUP2 PUSH1 0x6 ADD PUSH1 0x1 SWAP1 SLOAD SWAP1 PUSH2 0x100 EXP SWAP1 DIV PUSH1 0xFF AND PUSH1 0x4 DUP2 GT ISZERO PUSH2 0x433A JUMPI PUSH2 0x4339 PUSH2 0x5CDA JUMP JUMPDEST JUMPDEST SUB PUSH2 0x44F8 JUMPI PUSH1 0x0 DUP2 PUSH1 0x7 ADD DUP1 SLOAD PUSH2 0x4350 SWAP1 PUSH2 0x6270 JUMP JUMPDEST DUP1 PUSH1 0x1F ADD PUSH1 0x20 DUP1 SWAP2 DIV MUL PUSH1 0x20 ADD PUSH1 0x40 MLOAD SWAP1 DUP2 ADD PUSH1 0x40 MSTORE DUP1 SWAP3 SWAP2 SWAP1 DUP2 DUP2 MSTORE PUSH1 0x20 ADD DUP3 DUP1 SLOAD PUSH2 0x437C SWAP1 PUSH2 0x6270 JUMP JUMPDEST DUP1 ISZERO PUSH2 0x43C9 JUMPI DUP1 PUSH1 0x1F LT PUSH2 0x439E JUMPI PUSH2 0x100 DUP1 DUP4 SLOAD DIV MUL DUP4 MSTORE SWAP2 PUSH1 0x20 ADD SWAP2 PUSH2 0x43C9 JUMP JUMPDEST DUP3 ADD SWAP2 SWAP1 PUSH1 0x0 MSTORE PUSH1 0x20 PUSH1 0x0 KECCAK256 SWAP1 JUMPDEST DUP2 SLOAD DUP2 MSTORE SWAP1 PUSH1 0x1 ADD SWAP1 PUSH1 0x20 ADD DUP1 DUP4 GT PUSH2 0x43AC JUMPI DUP3 SWAP1 SUB PUSH1 0x1F AND DUP3 ADD SWAP2 JUMPDEST POP POP POP POP POP DUP1 PUSH1 0x20 ADD SWAP1 MLOAD DUP2 ADD SWAP1 PUSH2 0x43E1 SWAP2 SWAP1 PUSH2 0x7646 JUMP JUMPDEST SWAP1 POP PUSH1 0x0 PUSH20 0xFFFFFFFFFFFFFFFFFFFFFFFFFFFFFFFFFFFFFFFF AND DUP2 PUSH1 0x0 ADD MLOAD PUSH20 0xFFFFFFFFFFFFFFFFFFFFFFFFFFFFFFFFFFFFFFFF AND SUB PUSH2 0x4456 JUMPI PUSH1 0x40 MLOAD PUSH32 0x8C379A000000000000000000000000000000000000000000000000000000000 DUP2 MSTORE PUSH1 0x4 ADD PUSH2 0x444D SWAP1 PUSH2 0x7DAF JUMP JUMPDEST PUSH1 0x40 MLOAD DUP1 SWAP2 SUB SWAP1 REVERT JUMPDEST DUP1 PUSH1 0x0 ADD MLOAD PUSH20 0xFFFFFFFFFFFFFFFFFFFFFFFFFFFFFFFFFFFFFFFF AND DUP3 PUSH1 0x3 ADD PUSH1 0x0 SWAP1 SLOAD SWAP1 PUSH2 0x100 EXP SWAP1 DIV PUSH20 0xFFFFFFFFFFFFFFFFFFFFFFFFFFFFFFFFFFFFFFFF AND PUSH20 0xFFFFFFFFFFFFFFFFFFFFFFFFFFFFFFFFFFFFFFFF AND DUP4 PUSH1 0x0 ADD SLOAD PUSH32 0x6C344B5A99D701E380E4F74EB042F15449B77F4657A647B82E9A5B223798BF1C DUP6 PUSH1 0x1 ADD SLOAD DUP7 PUSH1 0x2 ADD SLOAD PUSH1 0x40 MLOAD PUSH2 0x44EA SWAP3 SWAP2 SWAP1 PUSH2 0x7DCF JUMP JUMPDEST PUSH1 0x40 MLOAD DUP1 SWAP2 SUB SWAP1 LOG4 POP PUSH2 0x46EA JUMP JUMPDEST PUSH1 0x4 DUP1 DUP2 GT ISZERO PUSH2 0x450B JUMPI PUSH2 0x450A PUSH2 0x5CDA JUMP JUMPDEST JUMPDEST DUP2 PUSH1 0x6 ADD PUSH1 0x1 SWAP1 SLOAD SWAP1 PUSH2 0x100 EXP SWAP1 DIV PUSH1 0xFF AND PUSH1 0x4 DUP2 GT ISZERO PUSH2 0x452F JUMPI PUSH2 0x452E PUSH2 0x5CDA JUMP JUMPDEST JUMPDEST SUB PUSH2 0x46E9 JUMPI PUSH1 0x0 DUP2 PUSH1 0x7 ADD DUP1 SLOAD PUSH2 0x4545 SWAP1 PUSH2 0x6270 JUMP JUMPDEST DUP1 PUSH1 0x1F ADD PUSH1 0x20 DUP1 SWAP2 DIV MUL PUSH1 0x20 ADD PUSH1 0x40 MLOAD SWAP1 DUP2 ADD PUSH1 0x40 MSTORE DUP1 SWAP3 SWAP2 SWAP1 DUP2 DUP2 MSTORE PUSH1 0x20 ADD DUP3 DUP1 SLOAD PUSH2 0x4571 SWAP1 PUSH2 0x6270 JUMP JUMPDEST DUP1 ISZERO PUSH2 0x45BE JUMPI DUP1 PUSH1 0x1F LT PUSH2 0x4593 JUMPI PUSH2 0x100 DUP1 DUP4 SLOAD DIV MUL DUP4 MSTORE SWAP2 PUSH1 0x20 ADD SWAP2 PUSH2 0x45BE JUMP JUMPDEST DUP3 ADD SWAP2 SWAP1 PUSH1 0x0 MSTORE PUSH1 0x20 PUSH1 0x0 KECCAK256 SWAP1 JUMPDEST DUP2 SLOAD DUP2 MSTORE SWAP1 PUSH1 0x1 ADD SWAP1 PUSH1 0x20 ADD DUP1 DUP4 GT PUSH2 0x45A1 JUMPI DUP3 SWAP1 SUB PUSH1 0x1F AND DUP3 ADD SWAP2 JUMPDEST POP POP POP POP POP DUP1 PUSH1 0x20 ADD SWAP1 MLOAD DUP2 ADD SWAP1 PUSH2 0x45D6 SWAP2 SWAP1 PUSH2 0x76AF JUMP JUMPDEST SWAP1 POP PUSH1 0x0 PUSH20 0xFFFFFFFFFFFFFFFFFFFFFFFFFFFFFFFFFFFFFFFF AND DUP2 PUSH1 0x0 ADD MLOAD PUSH20 0xFFFFFFFFFFFFFFFFFFFFFFFFFFFFFFFFFFFFFFFF AND SUB PUSH2 0x464B JUMPI PUSH1 0x40 MLOAD PUSH32 0x8C379A000000000000000000000000000000000000000000000000000000000 DUP2 MSTORE PUSH1 0x4 ADD PUSH2 0x4642 SWAP1 PUSH2 0x7E6A JUMP JUMPDEST PUSH1 0x40 MLOAD DUP1 SWAP2 SUB SWAP1 REVERT JUMPDEST DUP1 PUSH1 0x0 ADD MLOAD PUSH20 0xFFFFFFFFFFFFFFFFFFFFFFFFFFFFFFFFFFFFFFFF AND DUP3 PUSH1 0x3 ADD PUSH1 0x0 SWAP1 SLOAD SWAP1 PUSH2 0x100 EXP SWAP1 DIV PUSH20 0xFFFFFFFFFFFFFFFFFFFFFFFFFFFFFFFFFFFFFFFF AND PUSH20 0xFFFFFFFFFFFFFFFFFFFFFFFFFFFFFFFFFFFFFFFF AND DUP4 PUSH1 0x0 ADD SLOAD PUSH32 0x5B0256FFEAE05ABA51E2C5F936A5AB3668280F92904D8098FC46D79E2EC5DBFA DUP6 PUSH1 0x1 ADD SLOAD DUP7 PUSH1 0x2 ADD SLOAD PUSH1 0x40 MLOAD PUSH2 0x46DF SWAP3 SWAP2 SWAP1 PUSH2 0x7DCF JUMP JUMPDEST PUSH1 0x40 MLOAD DUP1 SWAP2 SUB SWAP1 LOG4 POP JUMPDEST JUMPDEST JUMPDEST JUMPDEST PUSH2 0x472B JUMP JUMPDEST PUSH1 0x3 DUP1 DUP2 GT ISZERO PUSH2 0x4704 JUMPI PUSH2 0x4703 PUSH2 0x5CDA JUMP JUMPDEST JUMPDEST DUP2 PUSH1 0x6 ADD PUSH1 0x0 SWAP1 SLOAD SWAP1 PUSH2 0x100 EXP SWAP1 DIV PUSH1 0xFF AND PUSH1 0x3 DUP2 GT ISZERO PUSH2 0x4728 JUMPI PUSH2 0x4727 PUSH2 0x5CDA JUMP JUMPDEST JUMPDEST POP POP JUMPDEST JUMPDEST POP JUMP JUMPDEST PUSH2 0x4739 DUP3 DUP3 PUSH2 0x15FF JUMP JUMPDEST PUSH2 0x47C8 JUMPI PUSH2 0x475E DUP2 PUSH20 0xFFFFFFFFFFFFFFFFFFFFFFFFFFFFFFFFFFFFFFFF AND PUSH1 0x14 PUSH2 0x5036 JUMP JUMPDEST PUSH2 0x476C DUP4 PUSH1 0x0 SHR PUSH1 0x20 PUSH2 0x5036 JUMP JUMPDEST PUSH1 0x40 MLOAD PUSH1 0x20 ADD PUSH2 0x477D SWAP3 SWAP2 SWAP1 PUSH2 0x7F22 JUMP JUMPDEST PUSH1 0x40 MLOAD PUSH1 0x20 DUP2 DUP4 SUB SUB DUP2 MSTORE SWAP1 PUSH1 0x40 MSTORE PUSH1 0x40 MLOAD PUSH32 0x8C379A000000000000000000000000000000000000000000000000000000000 DUP2 MSTORE PUSH1 0x4 ADD PUSH2 0x47BF SWAP2 SWAP1 PUSH2 0x5832 JUMP JUMPDEST PUSH1 0x40 MLOAD DUP1 SWAP2 SUB SWAP1 REVERT JUMPDEST POP POP JUMP JUMPDEST PUSH1 0x0 DUP2 SWAP1 POP SWAP2 SWAP1 POP JUMP JUMPDEST PUSH1 0x0 DUP2 SWAP1 POP SWAP2 SWAP1 POP JUMP JUMPDEST PUSH2 0x47E9 DUP2 PUSH2 0x48C5 JUMP JUMPDEST PUSH2 0x4828 JUMPI PUSH1 0x40 MLOAD PUSH32 0x8C379A000000000000000000000000000000000000000000000000000000000 DUP2 MSTORE PUSH1 0x4 ADD PUSH2 0x481F SWAP1 PUSH2 0x7FCE JUMP JUMPDEST PUSH1 0x40 MLOAD DUP1 SWAP2 SUB SWAP1 REVERT JUMPDEST DUP1 PUSH2 0x4855 PUSH32 0x360894A13BA1A3210667C828492DB98DCA3E2076CC3735A920A3CA505D382BBC PUSH1 0x0 SHL PUSH2 0x47CC JUMP JUMPDEST PUSH1 0x0 ADD PUSH1 0x0 PUSH2 0x100 EXP DUP2 SLOAD DUP2 PUSH20 0xFFFFFFFFFFFFFFFFFFFFFFFFFFFFFFFFFFFFFFFF MUL NOT AND SWAP1 DUP4 PUSH20 0xFFFFFFFFFFFFFFFFFFFFFFFFFFFFFFFFFFFFFFFF AND MUL OR SWAP1 SSTORE POP POP JUMP JUMPDEST PUSH2 0x48A2 DUP4 PUSH2 0x5272 JUMP JUMPDEST PUSH1 0x0 DUP3 MLOAD GT DUP1 PUSH2 0x48AF JUMPI POP DUP1 JUMPDEST ISZERO PUSH2 0x48C0 JUMPI PUSH2 0x48BE DUP4 DUP4 PUSH2 0x52C1 JUMP JUMPDEST POP JUMPDEST POP POP POP JUMP JUMPDEST PUSH1 0x0 DUP1 DUP3 PUSH20 0xFFFFFFFFFFFFFFFFFFFFFFFFFFFFFFFFFFFFFFFF AND EXTCODESIZE GT SWAP1 POP SWAP2 SWAP1 POP JUMP JUMPDEST PUSH1 0x0 DUP1 DUP3 PUSH1 0x0 ADD MLOAD PUSH8 0xFFFFFFFFFFFFFFFF AND GT SWAP1 POP SWAP2 SWAP1 POP JUMP JUMPDEST PUSH1 0x0 PUSH2 0x492A DUP4 PUSH1 0x0 ADD DUP4 PUSH20 0xFFFFFFFFFFFFFFFFFFFFFFFFFFFFFFFFFFFFFFFF AND PUSH1 0x0 SHL PUSH2 0x53A5 JUMP JUMPDEST SWAP1 POP SWAP3 SWAP2 POP POP JUMP JUMPDEST PUSH1 0x0 DUP1 DUP4 PUSH1 0x1 ADD PUSH1 0x0 DUP5 DUP2 MSTORE PUSH1 0x20 ADD SWAP1 DUP2 MSTORE PUSH1 0x20 ADD PUSH1 0x0 KECCAK256 SLOAD EQ ISZERO SWAP1 POP SWAP3 SWAP2 POP POP JUMP JUMPDEST PUSH1 0x0 DUP1 PUSH32 0x23B872DD7302113369CDA2901243429419BEC145408FA8B352B3DD92B66C680B PUSH1 0xFD PUSH1 0x0 SWAP1 SLOAD SWAP1 PUSH2 0x100 EXP SWAP1 DIV PUSH20 0xFFFFFFFFFFFFFFFFFFFFFFFFFFFFFFFFFFFFFFFF AND DUP6 DUP6 PUSH1 0x40 MLOAD PUSH1 0x24 ADD PUSH2 0x49B0 SWAP4 SWAP3 SWAP2 SWAP1 PUSH2 0x7FEE JUMP JUMPDEST PUSH1 0x40 MLOAD PUSH1 0x20 DUP2 DUP4 SUB SUB DUP2 MSTORE SWAP1 PUSH1 0x40 MSTORE SWAP1 PUSH28 0xFFFFFFFFFFFFFFFFFFFFFFFFFFFFFFFFFFFFFFFFFFFFFFFFFFFFFFFF NOT AND PUSH1 0x20 DUP3 ADD DUP1 MLOAD PUSH28 0xFFFFFFFFFFFFFFFFFFFFFFFFFFFFFFFFFFFFFFFFFFFFFFFFFFFFFFFF DUP4 DUP2 DUP4 AND OR DUP4 MSTORE POP POP POP POP SWAP1 POP PUSH1 0x0 PUSH1 0xFF PUSH1 0x0 SWAP1 SLOAD SWAP1 PUSH2 0x100 EXP SWAP1 DIV PUSH20 0xFFFFFFFFFFFFFFFFFFFFFFFFFFFFFFFFFFFFFFFF AND PUSH20 0xFFFFFFFFFFFFFFFFFFFFFFFFFFFFFFFFFFFFFFFF AND DUP3 PUSH1 0x40 MLOAD PUSH2 0x4A58 SWAP2 SWAP1 PUSH2 0x7718 JUMP JUMPDEST PUSH1 0x0 PUSH1 0x40 MLOAD DUP1 DUP4 SUB DUP2 PUSH1 0x0 DUP7 GAS CALL SWAP2 POP POP RETURNDATASIZE DUP1 PUSH1 0x0 DUP2 EQ PUSH2 0x4A95 JUMPI PUSH1 0x40 MLOAD SWAP2 POP PUSH1 0x1F NOT PUSH1 0x3F RETURNDATASIZE ADD AND DUP3 ADD PUSH1 0x40 MSTORE RETURNDATASIZE DUP3 MSTORE RETURNDATASIZE PUSH1 0x0 PUSH1 0x20 DUP5 ADD RETURNDATACOPY PUSH2 0x4A9A JUMP JUMPDEST PUSH1 0x60 SWAP2 POP JUMPDEST POP POP SWAP1 POP DUP1 PUSH2 0x4ADE JUMPI PUSH1 0x40 MLOAD PUSH32 0x8C379A000000000000000000000000000000000000000000000000000000000 DUP2 MSTORE PUSH1 0x4 ADD PUSH2 0x4AD5 SWAP1 PUSH2 0x8071 JUMP JUMPDEST PUSH1 0x40 MLOAD DUP1 SWAP2 SUB SWAP1 REVERT JUMPDEST DUP1 SWAP3 POP POP POP SWAP3 SWAP2 POP POP JUMP JUMPDEST PUSH1 0x0 DUP1 PUSH2 0x101 PUSH1 0x0 DUP6 DUP2 MSTORE PUSH1 0x20 ADD SWAP1 DUP2 MSTORE PUSH1 0x20 ADD PUSH1 0x0 KECCAK256 SWAP1 POP PUSH1 0x0 PUSH2 0x4B10 DUP3 PUSH1 0x1 ADD PUSH2 0x5415 JUMP JUMPDEST SWAP1 POP PUSH1 0x0 DUP2 PUSH1 0x64 DUP7 PUSH1 0x2 PUSH2 0x4B24 SWAP2 SWAP1 PUSH2 0x74A2 JUMP JUMPDEST PUSH2 0x4B2E SWAP2 SWAP1 PUSH2 0x74FC JUMP JUMPDEST PUSH2 0x4B38 SWAP2 SWAP1 PUSH2 0x74FC JUMP JUMPDEST SWAP1 POP PUSH1 0x0 DUP1 PUSH1 0x0 SWAP1 POP JUMPDEST DUP4 DUP2 LT ISZERO PUSH2 0x4B87 JUMPI DUP2 DUP1 ISZERO PUSH2 0x4B72 JUMPI POP PUSH2 0x4B71 PUSH2 0x4B6B DUP3 DUP8 PUSH1 0x1 ADD PUSH2 0x542A SWAP1 SWAP2 SWAP1 PUSH4 0xFFFFFFFF AND JUMP JUMPDEST DUP5 PUSH2 0x4955 JUMP JUMPDEST JUMPDEST SWAP2 POP DUP1 DUP1 PUSH2 0x4B7F SWAP1 PUSH2 0x8091 JUMP JUMPDEST SWAP2 POP POP PUSH2 0x4B42 JUMP JUMPDEST POP DUP1 SWAP5 POP POP POP POP POP SWAP3 SWAP2 POP POP JUMP JUMPDEST PUSH1 0x0 DUP1 PUSH32 0xF26C159FD7D78F3848964C3ADF4AEA78577348FCB297DB019BF8F5EFBED02195 DUP4 PUSH1 0x40 MLOAD PUSH1 0x24 ADD PUSH2 0x4BCA SWAP2 SWAP1 PUSH2 0x5E2D JUMP JUMPDEST PUSH1 0x40 MLOAD PUSH1 0x20 DUP2 DUP4 SUB SUB DUP2 MSTORE SWAP1 PUSH1 0x40 MSTORE SWAP1 PUSH28 0xFFFFFFFFFFFFFFFFFFFFFFFFFFFFFFFFFFFFFFFFFFFFFFFFFFFFFFFF NOT AND PUSH1 0x20 DUP3 ADD DUP1 MLOAD PUSH28 0xFFFFFFFFFFFFFFFFFFFFFFFFFFFFFFFFFFFFFFFFFFFFFFFFFFFFFFFF DUP4 DUP2 DUP4 AND OR DUP4 MSTORE POP POP POP POP SWAP1 POP PUSH1 0x0 PUSH1 0xFF PUSH1 0x0 SWAP1 SLOAD SWAP1 PUSH2 0x100 EXP SWAP1 DIV PUSH20 0xFFFFFFFFFFFFFFFFFFFFFFFFFFFFFFFFFFFFFFFF AND PUSH20 0xFFFFFFFFFFFFFFFFFFFFFFFFFFFFFFFFFFFFFFFF AND DUP3 PUSH1 0x40 MLOAD PUSH2 0x4C72 SWAP2 SWAP1 PUSH2 0x7718 JUMP JUMPDEST PUSH1 0x0 PUSH1 0x40 MLOAD DUP1 DUP4 SUB DUP2 PUSH1 0x0 DUP7 GAS CALL SWAP2 POP POP RETURNDATASIZE DUP1 PUSH1 0x0 DUP2 EQ PUSH2 0x4CAF JUMPI PUSH1 0x40 MLOAD SWAP2 POP PUSH1 0x1F NOT PUSH1 0x3F RETURNDATASIZE ADD AND DUP3 ADD PUSH1 0x40 MSTORE RETURNDATASIZE DUP3 MSTORE RETURNDATASIZE PUSH1 0x0 PUSH1 0x20 DUP5 ADD RETURNDATACOPY PUSH2 0x4CB4 JUMP JUMPDEST PUSH1 0x60 SWAP2 POP JUMPDEST POP POP SWAP1 POP DUP1 PUSH2 0x4CF8 JUMPI PUSH1 0x40 MLOAD PUSH32 0x8C379A000000000000000000000000000000000000000000000000000000000 DUP2 MSTORE PUSH1 0x4 ADD PUSH2 0x4CEF SWAP1 PUSH2 0x8125 JUMP JUMPDEST PUSH1 0x40 MLOAD DUP1 SWAP2 SUB SWAP1 REVERT JUMPDEST DUP1 SWAP3 POP POP POP SWAP2 SWAP1 POP JUMP JUMPDEST PUSH1 0x0 DUP1 PUSH32 0x53CC2FAE7ECEF069DA76AE9063C3ECFA7F417173BC5191FE1BB037165D76473F DUP4 PUSH1 0x40 MLOAD PUSH1 0x24 ADD PUSH2 0x4D37 SWAP2 SWAP1 PUSH2 0x5E2D JUMP JUMPDEST PUSH1 0x40 MLOAD PUSH1 0x20 DUP2 DUP4 SUB SUB DUP2 MSTORE SWAP1 PUSH1 0x40 MSTORE SWAP1 PUSH28 0xFFFFFFFFFFFFFFFFFFFFFFFFFFFFFFFFFFFFFFFFFFFFFFFFFFFFFFFF NOT AND PUSH1 0x20 DUP3 ADD DUP1 MLOAD PUSH28 0xFFFFFFFFFFFFFFFFFFFFFFFFFFFFFFFFFFFFFFFFFFFFFFFFFFFFFFFF DUP4 DUP2 DUP4 AND OR DUP4 MSTORE POP POP POP POP SWAP1 POP PUSH1 0x0 PUSH1 0xFF PUSH1 0x0 SWAP1 SLOAD SWAP1 PUSH2 0x100 EXP SWAP1 DIV PUSH20 0xFFFFFFFFFFFFFFFFFFFFFFFFFFFFFFFFFFFFFFFF AND PUSH20 0xFFFFFFFFFFFFFFFFFFFFFFFFFFFFFFFFFFFFFFFF AND DUP3 PUSH1 0x40 MLOAD PUSH2 0x4DDF SWAP2 SWAP1 PUSH2 0x7718 JUMP JUMPDEST PUSH1 0x0 PUSH1 0x40 MLOAD DUP1 DUP4 SUB DUP2 PUSH1 0x0 DUP7 GAS CALL SWAP2 POP POP RETURNDATASIZE DUP1 PUSH1 0x0 DUP2 EQ PUSH2 0x4E1C JUMPI PUSH1 0x40 MLOAD SWAP2 POP PUSH1 0x1F NOT PUSH1 0x3F RETURNDATASIZE ADD AND DUP3 ADD PUSH1 0x40 MSTORE RETURNDATASIZE DUP3 MSTORE RETURNDATASIZE PUSH1 0x0 PUSH1 0x20 DUP5 ADD RETURNDATACOPY PUSH2 0x4E21 JUMP JUMPDEST PUSH1 0x60 SWAP2 POP JUMPDEST POP POP SWAP1 POP DUP1 PUSH2 0x4E65 JUMPI PUSH1 0x40 MLOAD PUSH32 0x8C379A000000000000000000000000000000000000000000000000000000000 DUP2 MSTORE PUSH1 0x4 ADD PUSH2 0x4E5C SWAP1 PUSH2 0x8191 JUMP JUMPDEST PUSH1 0x40 MLOAD DUP1 SWAP2 SUB SWAP1 REVERT JUMPDEST DUP1 SWAP3 POP POP POP SWAP2 SWAP1 POP JUMP JUMPDEST PUSH1 0x0 DUP3 DUP3 PUSH1 0x40 MLOAD PUSH1 0x20 ADD PUSH2 0x4E84 SWAP3 SWAP2 SWAP1 PUSH2 0x821E JUMP JUMPDEST PUSH1 0x40 MLOAD PUSH1 0x20 DUP2 DUP4 SUB SUB DUP2 MSTORE SWAP1 PUSH1 0x40 MSTORE DUP1 MLOAD SWAP1 PUSH1 0x20 ADD KECCAK256 SWAP1 POP SWAP3 SWAP2 POP POP JUMP JUMPDEST PUSH1 0x0 DUP1 PUSH32 0x7FFFFFFFFFFFFFFFFFFFFFFFFFFFFFFF5D576E7357A4501DDFE92F46681B20A0 DUP4 PUSH1 0x0 SHR GT ISZERO PUSH2 0x4EDD JUMPI PUSH1 0x0 PUSH1 0x3 SWAP2 POP SWAP2 POP PUSH2 0x4FA5 JUMP JUMPDEST PUSH1 0x1B DUP6 PUSH1 0xFF AND EQ ISZERO DUP1 ISZERO PUSH2 0x4EF5 JUMPI POP PUSH1 0x1C DUP6 PUSH1 0xFF AND EQ ISZERO JUMPDEST ISZERO PUSH2 0x4F07 JUMPI PUSH1 0x0 PUSH1 0x4 SWAP2 POP SWAP2 POP PUSH2 0x4FA5 JUMP JUMPDEST PUSH1 0x0 PUSH1 0x1 DUP8 DUP8 DUP8 DUP8 PUSH1 0x40 MLOAD PUSH1 0x0 DUP2 MSTORE PUSH1 0x20 ADD PUSH1 0x40 MSTORE PUSH1 0x40 MLOAD PUSH2 0x4F2C SWAP5 SWAP4 SWAP3 SWAP2 SWAP1 PUSH2 0x8255 JUMP JUMPDEST PUSH1 0x20 PUSH1 0x40 MLOAD PUSH1 0x20 DUP2 SUB SWAP1 DUP1 DUP5 SUB SWAP1 DUP6 GAS STATICCALL ISZERO DUP1 ISZERO PUSH2 0x4F4E JUMPI RETURNDATASIZE PUSH1 0x0 DUP1 RETURNDATACOPY RETURNDATASIZE PUSH1 0x0 REVERT JUMPDEST POP POP POP PUSH1 0x20 PUSH1 0x40 MLOAD SUB MLOAD SWAP1 POP PUSH1 0x0 PUSH20 0xFFFFFFFFFFFFFFFFFFFFFFFFFFFFFFFFFFFFFFFF AND DUP2 PUSH20 0xFFFFFFFFFFFFFFFFFFFFFFFFFFFFFFFFFFFFFFFF AND SUB PUSH2 0x4F9C JUMPI PUSH1 0x0 PUSH1 0x1 SWAP3 POP SWAP3 POP POP PUSH2 0x4FA5 JUMP JUMPDEST DUP1 PUSH1 0x0 SWAP3 POP SWAP3 POP POP JUMPDEST SWAP5 POP SWAP5 SWAP3 POP POP POP JUMP JUMPDEST PUSH1 0x0 DUP1 PUSH1 0x0 PUSH32 0x7FFFFFFFFFFFFFFFFFFFFFFFFFFFFFFFFFFFFFFFFFFFFFFFFFFFFFFFFFFFFFFF PUSH1 0x0 SHL DUP5 AND SWAP1 POP PUSH1 0x0 PUSH1 0x1B PUSH1 0xFF DUP7 PUSH1 0x0 SHR SWAP1 SHR PUSH2 0x4FF1 SWAP2 SWAP1 PUSH2 0x829A JUMP JUMPDEST SWAP1 POP PUSH2 0x4FFF DUP8 DUP3 DUP9 DUP6 PUSH2 0x4EA2 JUMP JUMPDEST SWAP4 POP SWAP4 POP POP POP SWAP4 POP SWAP4 SWAP2 POP POP JUMP JUMPDEST PUSH1 0x0 DUP2 MLOAD SWAP1 POP PUSH1 0x0 PUSH11 0x636F6E736F6C652E6C6F67 SWAP1 POP PUSH1 0x20 DUP4 ADD PUSH1 0x0 DUP1 DUP5 DUP4 DUP6 GAS STATICCALL POP POP POP POP POP JUMP JUMPDEST PUSH1 0x60 PUSH1 0x0 PUSH1 0x2 DUP4 PUSH1 0x2 PUSH2 0x5049 SWAP2 SWAP1 PUSH2 0x74A2 JUMP JUMPDEST PUSH2 0x5053 SWAP2 SWAP1 PUSH2 0x829A JUMP JUMPDEST PUSH8 0xFFFFFFFFFFFFFFFF DUP2 GT ISZERO PUSH2 0x506C JUMPI PUSH2 0x506B PUSH2 0x59F0 JUMP JUMPDEST JUMPDEST PUSH1 0x40 MLOAD SWAP1 DUP1 DUP3 MSTORE DUP1 PUSH1 0x1F ADD PUSH1 0x1F NOT AND PUSH1 0x20 ADD DUP3 ADD PUSH1 0x40 MSTORE DUP1 ISZERO PUSH2 0x509E JUMPI DUP2 PUSH1 0x20 ADD PUSH1 0x1 DUP3 MUL DUP1 CALLDATASIZE DUP4 CALLDATACOPY DUP1 DUP3 ADD SWAP2 POP POP SWAP1 POP JUMPDEST POP SWAP1 POP PUSH32 0x3000000000000000000000000000000000000000000000000000000000000000 DUP2 PUSH1 0x0 DUP2 MLOAD DUP2 LT PUSH2 0x50D6 JUMPI PUSH2 0x50D5 PUSH2 0x82F0 JUMP JUMPDEST JUMPDEST PUSH1 0x20 ADD ADD SWAP1 PUSH31 0xFFFFFFFFFFFFFFFFFFFFFFFFFFFFFFFFFFFFFFFFFFFFFFFFFFFFFFFFFFFFFF NOT AND SWAP1 DUP2 PUSH1 0x0 BYTE SWAP1 MSTORE8 POP PUSH32 0x7800000000000000000000000000000000000000000000000000000000000000 DUP2 PUSH1 0x1 DUP2 MLOAD DUP2 LT PUSH2 0x513A JUMPI PUSH2 0x5139 PUSH2 0x82F0 JUMP JUMPDEST JUMPDEST PUSH1 0x20 ADD ADD SWAP1 PUSH31 0xFFFFFFFFFFFFFFFFFFFFFFFFFFFFFFFFFFFFFFFFFFFFFFFFFFFFFFFFFFFFFF NOT AND SWAP1 DUP2 PUSH1 0x0 BYTE SWAP1 MSTORE8 POP PUSH1 0x0 PUSH1 0x1 DUP5 PUSH1 0x2 PUSH2 0x517A SWAP2 SWAP1 PUSH2 0x74A2 JUMP JUMPDEST PUSH2 0x5184 SWAP2 SWAP1 PUSH2 0x829A JUMP JUMPDEST SWAP1 POP JUMPDEST PUSH1 0x1 DUP2 GT ISZERO PUSH2 0x5224 JUMPI PUSH32 0x3031323334353637383961626364656600000000000000000000000000000000 PUSH1 0xF DUP7 AND PUSH1 0x10 DUP2 LT PUSH2 0x51C6 JUMPI PUSH2 0x51C5 PUSH2 0x82F0 JUMP JUMPDEST JUMPDEST BYTE PUSH1 0xF8 SHL DUP3 DUP3 DUP2 MLOAD DUP2 LT PUSH2 0x51DD JUMPI PUSH2 0x51DC PUSH2 0x82F0 JUMP JUMPDEST JUMPDEST PUSH1 0x20 ADD ADD SWAP1 PUSH31 0xFFFFFFFFFFFFFFFFFFFFFFFFFFFFFFFFFFFFFFFFFFFFFFFFFFFFFFFFFFFFFF NOT AND SWAP1 DUP2 PUSH1 0x0 BYTE SWAP1 MSTORE8 POP PUSH1 0x4 DUP6 SWAP1 SHR SWAP5 POP DUP1 PUSH2 0x521D SWAP1 PUSH2 0x831F JUMP JUMPDEST SWAP1 POP PUSH2 0x5187 JUMP JUMPDEST POP PUSH1 0x0 DUP5 EQ PUSH2 0x5268 JUMPI PUSH1 0x40 MLOAD PUSH32 0x8C379A000000000000000000000000000000000000000000000000000000000 DUP2 MSTORE PUSH1 0x4 ADD PUSH2 0x525F SWAP1 PUSH2 0x8394 JUMP JUMPDEST PUSH1 0x40 MLOAD DUP1 SWAP2 SUB SWAP1 REVERT JUMPDEST DUP1 SWAP2 POP POP SWAP3 SWAP2 POP POP JUMP JUMPDEST PUSH2 0x527B DUP2 PUSH2 0x47E0 JUMP JUMPDEST DUP1 PUSH20 0xFFFFFFFFFFFFFFFFFFFFFFFFFFFFFFFFFFFFFFFF AND PUSH32 0xBC7CD75A20EE27FD9ADEBAB32041F755214DBC6BFFA90CC0225B39DA2E5C2D3B PUSH1 0x40 MLOAD PUSH1 0x40 MLOAD DUP1 SWAP2 SUB SWAP1 LOG2 POP JUMP JUMPDEST PUSH1 0x60 PUSH2 0x52CC DUP4 PUSH2 0x48C5 JUMP JUMPDEST PUSH2 0x530B JUMPI PUSH1 0x40 MLOAD PUSH32 0x8C379A000000000000000000000000000000000000000000000000000000000 DUP2 MSTORE PUSH1 0x4 ADD PUSH2 0x5302 SWAP1 PUSH2 0x8426 JUMP JUMPDEST PUSH1 0x40 MLOAD DUP1 SWAP2 SUB SWAP1 REVERT JUMPDEST PUSH1 0x0 DUP1 DUP5 PUSH20 0xFFFFFFFFFFFFFFFFFFFFFFFFFFFFFFFFFFFFFFFF AND DUP5 PUSH1 0x40 MLOAD PUSH2 0x5333 SWAP2 SWAP1 PUSH2 0x7718 JUMP JUMPDEST PUSH1 0x0 PUSH1 0x40 MLOAD DUP1 DUP4 SUB DUP2 DUP6 GAS DELEGATECALL SWAP2 POP POP RETURNDATASIZE DUP1 PUSH1 0x0 DUP2 EQ PUSH2 0x536E JUMPI PUSH1 0x40 MLOAD SWAP2 POP PUSH1 0x1F NOT PUSH1 0x3F RETURNDATASIZE ADD AND DUP3 ADD PUSH1 0x40 MSTORE RETURNDATASIZE DUP3 MSTORE RETURNDATASIZE PUSH1 0x0 PUSH1 0x20 DUP5 ADD RETURNDATACOPY PUSH2 0x5373 JUMP JUMPDEST PUSH1 0x60 SWAP2 POP JUMPDEST POP SWAP2 POP SWAP2 POP PUSH2 0x539B DUP3 DUP3 PUSH1 0x40 MLOAD DUP1 PUSH1 0x60 ADD PUSH1 0x40 MSTORE DUP1 PUSH1 0x27 DUP2 MSTORE PUSH1 0x20 ADD PUSH2 0x847B PUSH1 0x27 SWAP2 CODECOPY PUSH2 0x5444 JUMP JUMPDEST SWAP3 POP POP POP SWAP3 SWAP2 POP POP JUMP JUMPDEST PUSH1 0x0 PUSH2 0x53B1 DUP4 DUP4 PUSH2 0x4932 JUMP JUMPDEST PUSH2 0x540A JUMPI DUP3 PUSH1 0x0 ADD DUP3 SWAP1 DUP1 PUSH1 0x1 DUP2 SLOAD ADD DUP1 DUP3 SSTORE DUP1 SWAP2 POP POP PUSH1 0x1 SWAP1 SUB SWAP1 PUSH1 0x0 MSTORE PUSH1 0x20 PUSH1 0x0 KECCAK256 ADD PUSH1 0x0 SWAP1 SWAP2 SWAP1 SWAP2 SWAP1 SWAP2 POP SSTORE DUP3 PUSH1 0x0 ADD DUP1 SLOAD SWAP1 POP DUP4 PUSH1 0x1 ADD PUSH1 0x0 DUP5 DUP2 MSTORE PUSH1 0x20 ADD SWAP1 DUP2 MSTORE PUSH1 0x20 ADD PUSH1 0x0 KECCAK256 DUP2 SWAP1 SSTORE POP PUSH1 0x1 SWAP1 POP PUSH2 0x540F JUMP JUMPDEST PUSH1 0x0 SWAP1 POP JUMPDEST SWAP3 SWAP2 POP POP JUMP JUMPDEST PUSH1 0x0 PUSH2 0x5423 DUP3 PUSH1 0x0 ADD PUSH2 0x54AB JUMP JUMPDEST SWAP1 POP SWAP2 SWAP1 POP JUMP JUMPDEST PUSH1 0x0 PUSH2 0x5439 DUP4 PUSH1 0x0 ADD DUP4 PUSH2 0x54BC JUMP JUMPDEST PUSH1 0x0 SHR SWAP1 POP SWAP3 SWAP2 POP POP JUMP JUMPDEST PUSH1 0x60 DUP4 ISZERO PUSH2 0x5454 JUMPI DUP3 SWAP1 POP PUSH2 0x54A4 JUMP JUMPDEST PUSH1 0x0 DUP4 MLOAD GT ISZERO PUSH2 0x5467 JUMPI DUP3 MLOAD DUP1 DUP5 PUSH1 0x20 ADD REVERT JUMPDEST DUP2 PUSH1 0x40 MLOAD PUSH32 0x8C379A000000000000000000000000000000000000000000000000000000000 DUP2 MSTORE PUSH1 0x4 ADD PUSH2 0x549B SWAP2 SWAP1 PUSH2 0x5832 JUMP JUMPDEST PUSH1 0x40 MLOAD DUP1 SWAP2 SUB SWAP1 REVERT JUMPDEST SWAP4 SWAP3 POP POP POP JUMP JUMPDEST PUSH1 0x0 DUP2 PUSH1 0x0 ADD DUP1 SLOAD SWAP1 POP SWAP1 POP SWAP2 SWAP1 POP JUMP JUMPDEST PUSH1 0x0 DUP3 PUSH1 0x0 ADD DUP3 DUP2 SLOAD DUP2 LT PUSH2 0x54D4 JUMPI PUSH2 0x54D3 PUSH2 0x82F0 JUMP JUMPDEST JUMPDEST SWAP1 PUSH1 0x0 MSTORE PUSH1 0x20 PUSH1 0x0 KECCAK256 ADD SLOAD SWAP1 POP SWAP3 SWAP2 POP POP JUMP JUMPDEST DUP3 DUP1 SLOAD PUSH2 0x54F3 SWAP1 PUSH2 0x6270 JUMP JUMPDEST SWAP1 PUSH1 0x0 MSTORE PUSH1 0x20 PUSH1 0x0 KECCAK256 SWAP1 PUSH1 0x1F ADD PUSH1 0x20 SWAP1 DIV DUP2 ADD SWAP3 DUP3 PUSH2 0x5515 JUMPI PUSH1 0x0 DUP6 SSTORE PUSH2 0x555C JUMP JUMPDEST DUP3 PUSH1 0x1F LT PUSH2 0x552E JUMPI DUP1 MLOAD PUSH1 0xFF NOT AND DUP4 DUP1 ADD OR DUP6 SSTORE PUSH2 0x555C JUMP JUMPDEST DUP3 DUP1 ADD PUSH1 0x1 ADD DUP6 SSTORE DUP3 ISZERO PUSH2 0x555C JUMPI SWAP2 DUP3 ADD JUMPDEST DUP3 DUP2 GT ISZERO PUSH2 0x555B JUMPI DUP3 MLOAD DUP3 SSTORE SWAP2 PUSH1 0x20 ADD SWAP2 SWAP1 PUSH1 0x1 ADD SWAP1 PUSH2 0x5540 JUMP JUMPDEST JUMPDEST POP SWAP1 POP PUSH2 0x5569 SWAP2 SWAP1 PUSH2 0x5679 JUMP JUMPDEST POP SWAP1 JUMP JUMPDEST DUP3 DUP1 SLOAD PUSH2 0x5579 SWAP1 PUSH2 0x6270 JUMP JUMPDEST SWAP1 PUSH1 0x0 MSTORE PUSH1 0x20 PUSH1 0x0 KECCAK256 SWAP1 PUSH1 0x1F ADD PUSH1 0x20 SWAP1 DIV DUP2 ADD SWAP3 DUP3 PUSH2 0x559B JUMPI PUSH1 0x0 DUP6 SSTORE PUSH2 0x55E2 JUMP JUMPDEST DUP3 PUSH1 0x1F LT PUSH2 0x55B4 JUMPI DUP1 CALLDATALOAD PUSH1 0xFF NOT AND DUP4 DUP1 ADD OR DUP6 SSTORE PUSH2 0x55E2 JUMP JUMPDEST DUP3 DUP1 ADD PUSH1 0x1 ADD DUP6 SSTORE DUP3 ISZERO PUSH2 0x55E2 JUMPI SWAP2 DUP3 ADD JUMPDEST DUP3 DUP2 GT ISZERO PUSH2 0x55E1 JUMPI DUP3 CALLDATALOAD DUP3 SSTORE SWAP2 PUSH1 0x20 ADD SWAP2 SWAP1 PUSH1 0x1 ADD SWAP1 PUSH2 0x55C6 JUMP JUMPDEST JUMPDEST POP SWAP1 POP PUSH2 0x55EF SWAP2 SWAP1 PUSH2 0x5679 JUMP JUMPDEST POP SWAP1 JUMP JUMPDEST DUP3 DUP1 SLOAD PUSH2 0x55FF SWAP1 PUSH2 0x6270 JUMP JUMPDEST SWAP1 PUSH1 0x0 MSTORE PUSH1 0x20 PUSH1 0x0 KECCAK256 SWAP1 PUSH1 0x1F ADD PUSH1 0x20 SWAP1 DIV DUP2 ADD SWAP3 DUP3 PUSH2 0x5621 JUMPI PUSH1 0x0 DUP6 SSTORE PUSH2 0x5668 JUMP JUMPDEST DUP3 PUSH1 0x1F LT PUSH2 0x563A JUMPI DUP1 MLOAD PUSH1 0xFF NOT AND DUP4 DUP1 ADD OR DUP6 SSTORE PUSH2 0x5668 JUMP JUMPDEST DUP3 DUP1 ADD PUSH1 0x1 ADD DUP6 SSTORE DUP3 ISZERO PUSH2 0x5668 JUMPI SWAP2 DUP3 ADD JUMPDEST DUP3 DUP2 GT ISZERO PUSH2 0x5667 JUMPI DUP3 MLOAD DUP3 SSTORE SWAP2 PUSH1 0x20 ADD SWAP2 SWAP1 PUSH1 0x1 ADD SWAP1 PUSH2 0x564C JUMP JUMPDEST JUMPDEST POP SWAP1 POP PUSH2 0x5675 SWAP2 SWAP1 PUSH2 0x5679 JUMP JUMPDEST POP SWAP1 JUMP JUMPDEST JUMPDEST DUP1 DUP3 GT ISZERO PUSH2 0x5692 JUMPI PUSH1 0x0 DUP2 PUSH1 0x0 SWAP1 SSTORE POP PUSH1 0x1 ADD PUSH2 0x567A JUMP JUMPDEST POP SWAP1 JUMP JUMPDEST PUSH1 0x0 PUSH1 0x40 MLOAD SWAP1 POP SWAP1 JUMP JUMPDEST PUSH1 0x0 DUP1 REVERT JUMPDEST PUSH1 0x0 DUP1 REVERT JUMPDEST PUSH1 0x0 PUSH32 0xFFFFFFFF00000000000000000000000000000000000000000000000000000000 DUP3 AND SWAP1 POP SWAP2 SWAP1 POP JUMP JUMPDEST PUSH2 0x56DF DUP2 PUSH2 0x56AA JUMP JUMPDEST DUP2 EQ PUSH2 0x56EA JUMPI PUSH1 0x0 DUP1 REVERT JUMPDEST POP JUMP JUMPDEST PUSH1 0x0 DUP2 CALLDATALOAD SWAP1 POP PUSH2 0x56FC DUP2 PUSH2 0x56D6 JUMP JUMPDEST SWAP3 SWAP2 POP POP JUMP JUMPDEST PUSH1 0x0 PUSH1 0x20 DUP3 DUP5 SUB SLT ISZERO PUSH2 0x5718 JUMPI PUSH2 0x5717 PUSH2 0x56A0 JUMP JUMPDEST JUMPDEST PUSH1 0x0 PUSH2 0x5726 DUP5 DUP3 DUP6 ADD PUSH2 0x56ED JUMP JUMPDEST SWAP2 POP POP SWAP3 SWAP2 POP POP JUMP JUMPDEST PUSH1 0x0 DUP2 ISZERO ISZERO SWAP1 POP SWAP2 SWAP1 POP JUMP JUMPDEST PUSH2 0x5744 DUP2 PUSH2 0x572F JUMP JUMPDEST DUP3 MSTORE POP POP JUMP JUMPDEST PUSH1 0x0 PUSH1 0x20 DUP3 ADD SWAP1 POP PUSH2 0x575F PUSH1 0x0 DUP4 ADD DUP5 PUSH2 0x573B JUMP JUMPDEST SWAP3 SWAP2 POP POP JUMP JUMPDEST PUSH1 0x0 DUP2 SWAP1 POP SWAP2 SWAP1 POP JUMP JUMPDEST PUSH2 0x5778 DUP2 PUSH2 0x5765 JUMP JUMPDEST DUP3 MSTORE POP POP JUMP JUMPDEST PUSH1 0x0 PUSH1 0x20 DUP3 ADD SWAP1 POP PUSH2 0x5793 PUSH1 0x0 DUP4 ADD DUP5 PUSH2 0x576F JUMP JUMPDEST SWAP3 SWAP2 POP POP JUMP JUMPDEST PUSH1 0x0 DUP2 MLOAD SWAP1 POP SWAP2 SWAP1 POP JUMP JUMPDEST PUSH1 0x0 DUP3 DUP3 MSTORE PUSH1 0x20 DUP3 ADD SWAP1 POP SWAP3 SWAP2 POP POP JUMP JUMPDEST PUSH1 0x0 JUMPDEST DUP4 DUP2 LT ISZERO PUSH2 0x57D3 JUMPI DUP1 DUP3 ADD MLOAD DUP2 DUP5 ADD MSTORE PUSH1 0x20 DUP2 ADD SWAP1 POP PUSH2 0x57B8 JUMP JUMPDEST DUP4 DUP2 GT ISZERO PUSH2 0x57E2 JUMPI PUSH1 0x0 DUP5 DUP5 ADD MSTORE JUMPDEST POP POP POP POP JUMP JUMPDEST PUSH1 0x0 PUSH1 0x1F NOT PUSH1 0x1F DUP4 ADD AND SWAP1 POP SWAP2 SWAP1 POP JUMP JUMPDEST PUSH1 0x0 PUSH2 0x5804 DUP3 PUSH2 0x5799 JUMP JUMPDEST PUSH2 0x580E DUP2 DUP6 PUSH2 0x57A4 JUMP JUMPDEST SWAP4 POP PUSH2 0x581E DUP2 DUP6 PUSH1 0x20 DUP7 ADD PUSH2 0x57B5 JUMP JUMPDEST PUSH2 0x5827 DUP2 PUSH2 0x57E8 JUMP JUMPDEST DUP5 ADD SWAP2 POP POP SWAP3 SWAP2 POP POP JUMP JUMPDEST PUSH1 0x0 PUSH1 0x20 DUP3 ADD SWAP1 POP DUP2 DUP2 SUB PUSH1 0x0 DUP4 ADD MSTORE PUSH2 0x584C DUP2 DUP5 PUSH2 0x57F9 JUMP JUMPDEST SWAP1 POP SWAP3 SWAP2 POP POP JUMP JUMPDEST PUSH1 0x0 PUSH4 0xFFFFFFFF DUP3 AND SWAP1 POP SWAP2 SWAP1 POP JUMP JUMPDEST PUSH2 0x586D DUP2 PUSH2 0x5854 JUMP JUMPDEST DUP3 MSTORE POP POP JUMP JUMPDEST PUSH1 0x0 PUSH1 0x20 DUP3 ADD SWAP1 POP PUSH2 0x5888 PUSH1 0x0 DUP4 ADD DUP5 PUSH2 0x5864 JUMP JUMPDEST SWAP3 SWAP2 POP POP JUMP JUMPDEST PUSH1 0x0 PUSH20 0xFFFFFFFFFFFFFFFFFFFFFFFFFFFFFFFFFFFFFFFF DUP3 AND SWAP1 POP SWAP2 SWAP1 POP JUMP JUMPDEST PUSH1 0x0 PUSH2 0x58B9 DUP3 PUSH2 0x588E JUMP JUMPDEST SWAP1 POP SWAP2 SWAP1 POP JUMP JUMPDEST PUSH2 0x58C9 DUP2 PUSH2 0x58AE JUMP JUMPDEST DUP2 EQ PUSH2 0x58D4 JUMPI PUSH1 0x0 DUP1 REVERT JUMPDEST POP JUMP JUMPDEST PUSH1 0x0 DUP2 CALLDATALOAD SWAP1 POP PUSH2 0x58E6 DUP2 PUSH2 0x58C0 JUMP JUMPDEST SWAP3 SWAP2 POP POP JUMP JUMPDEST PUSH1 0x0 PUSH1 0x20 DUP3 DUP5 SUB SLT ISZERO PUSH2 0x5902 JUMPI PUSH2 0x5901 PUSH2 0x56A0 JUMP JUMPDEST JUMPDEST PUSH1 0x0 PUSH2 0x5910 DUP5 DUP3 DUP6 ADD PUSH2 0x58D7 JUMP JUMPDEST SWAP2 POP POP SWAP3 SWAP2 POP POP JUMP JUMPDEST PUSH1 0x0 DUP2 SWAP1 POP SWAP2 SWAP1 POP JUMP JUMPDEST PUSH2 0x592C DUP2 PUSH2 0x5919 JUMP JUMPDEST DUP2 EQ PUSH2 0x5937 JUMPI PUSH1 0x0 DUP1 REVERT JUMPDEST POP JUMP JUMPDEST PUSH1 0x0 DUP2 CALLDATALOAD SWAP1 POP PUSH2 0x5949 DUP2 PUSH2 0x5923 JUMP JUMPDEST SWAP3 SWAP2 POP POP JUMP JUMPDEST PUSH1 0x0 PUSH1 0x20 DUP3 DUP5 SUB SLT ISZERO PUSH2 0x5965 JUMPI PUSH2 0x5964 PUSH2 0x56A0 JUMP JUMPDEST JUMPDEST PUSH1 0x0 PUSH2 0x5973 DUP5 DUP3 DUP6 ADD PUSH2 0x593A JUMP JUMPDEST SWAP2 POP POP SWAP3 SWAP2 POP POP JUMP JUMPDEST PUSH2 0x5985 DUP2 PUSH2 0x5919 JUMP JUMPDEST DUP3 MSTORE POP POP JUMP JUMPDEST PUSH1 0x0 PUSH1 0x20 DUP3 ADD SWAP1 POP PUSH2 0x59A0 PUSH1 0x0 DUP4 ADD DUP5 PUSH2 0x597C JUMP JUMPDEST SWAP3 SWAP2 POP POP JUMP JUMPDEST PUSH1 0x0 DUP1 PUSH1 0x40 DUP4 DUP6 SUB SLT ISZERO PUSH2 0x59BD JUMPI PUSH2 0x59BC PUSH2 0x56A0 JUMP JUMPDEST JUMPDEST PUSH1 0x0 PUSH2 0x59CB DUP6 DUP3 DUP7 ADD PUSH2 0x593A JUMP JUMPDEST SWAP3 POP POP PUSH1 0x20 PUSH2 0x59DC DUP6 DUP3 DUP7 ADD PUSH2 0x58D7 JUMP JUMPDEST SWAP2 POP POP SWAP3 POP SWAP3 SWAP1 POP JUMP JUMPDEST PUSH1 0x0 DUP1 REVERT JUMPDEST PUSH1 0x0 DUP1 REVERT JUMPDEST PUSH32 0x4E487B7100000000000000000000000000000000000000000000000000000000 PUSH1 0x0 MSTORE PUSH1 0x41 PUSH1 0x4 MSTORE PUSH1 0x24 PUSH1 0x0 REVERT JUMPDEST PUSH2 0x5A28 DUP3 PUSH2 0x57E8 JUMP JUMPDEST DUP2 ADD DUP2 DUP2 LT PUSH8 0xFFFFFFFFFFFFFFFF DUP3 GT OR ISZERO PUSH2 0x5A47 JUMPI PUSH2 0x5A46 PUSH2 0x59F0 JUMP JUMPDEST JUMPDEST DUP1 PUSH1 0x40 MSTORE POP POP POP JUMP JUMPDEST PUSH1 0x0 PUSH2 0x5A5A PUSH2 0x5696 JUMP JUMPDEST SWAP1 POP PUSH2 0x5A66 DUP3 DUP3 PUSH2 0x5A1F JUMP JUMPDEST SWAP2 SWAP1 POP JUMP JUMPDEST PUSH1 0x0 PUSH8 0xFFFFFFFFFFFFFFFF DUP3 GT ISZERO PUSH2 0x5A86 JUMPI PUSH2 0x5A85 PUSH2 0x59F0 JUMP JUMPDEST JUMPDEST PUSH2 0x5A8F DUP3 PUSH2 0x57E8 JUMP JUMPDEST SWAP1 POP PUSH1 0x20 DUP2 ADD SWAP1 POP SWAP2 SWAP1 POP JUMP JUMPDEST DUP3 DUP2 DUP4 CALLDATACOPY PUSH1 0x0 DUP4 DUP4 ADD MSTORE POP POP POP JUMP JUMPDEST PUSH1 0x0 PUSH2 0x5ABE PUSH2 0x5AB9 DUP5 PUSH2 0x5A6B JUMP JUMPDEST PUSH2 0x5A50 JUMP JUMPDEST SWAP1 POP DUP3 DUP2 MSTORE PUSH1 0x20 DUP2 ADD DUP5 DUP5 DUP5 ADD GT ISZERO PUSH2 0x5ADA JUMPI PUSH2 0x5AD9 PUSH2 0x59EB JUMP JUMPDEST JUMPDEST PUSH2 0x5AE5 DUP5 DUP3 DUP6 PUSH2 0x5A9C JUMP JUMPDEST POP SWAP4 SWAP3 POP POP POP JUMP JUMPDEST PUSH1 0x0 DUP3 PUSH1 0x1F DUP4 ADD SLT PUSH2 0x5B02 JUMPI PUSH2 0x5B01 PUSH2 0x59E6 JUMP JUMPDEST JUMPDEST DUP2 CALLDATALOAD PUSH2 0x5B12 DUP5 DUP3 PUSH1 0x20 DUP7 ADD PUSH2 0x5AAB JUMP JUMPDEST SWAP2 POP POP SWAP3 SWAP2 POP POP JUMP JUMPDEST PUSH1 0x0 DUP1 PUSH1 0x40 DUP4 DUP6 SUB SLT ISZERO PUSH2 0x5B32 JUMPI PUSH2 0x5B31 PUSH2 0x56A0 JUMP JUMPDEST JUMPDEST PUSH1 0x0 PUSH2 0x5B40 DUP6 DUP3 DUP7 ADD PUSH2 0x58D7 JUMP JUMPDEST SWAP3 POP POP PUSH1 0x20 DUP4 ADD CALLDATALOAD PUSH8 0xFFFFFFFFFFFFFFFF DUP2 GT ISZERO PUSH2 0x5B61 JUMPI PUSH2 0x5B60 PUSH2 0x56A5 JUMP JUMPDEST JUMPDEST PUSH2 0x5B6D DUP6 DUP3 DUP7 ADD PUSH2 0x5AED JUMP JUMPDEST SWAP2 POP POP SWAP3 POP SWAP3 SWAP1 POP JUMP JUMPDEST PUSH1 0x0 DUP1 REVERT JUMPDEST PUSH1 0x0 DUP1 REVERT JUMPDEST PUSH1 0x0 DUP1 DUP4 PUSH1 0x1F DUP5 ADD SLT PUSH2 0x5B97 JUMPI PUSH2 0x5B96 PUSH2 0x59E6 JUMP JUMPDEST JUMPDEST DUP3 CALLDATALOAD SWAP1 POP PUSH8 0xFFFFFFFFFFFFFFFF DUP2 GT ISZERO PUSH2 0x5BB4 JUMPI PUSH2 0x5BB3 PUSH2 0x5B77 JUMP JUMPDEST JUMPDEST PUSH1 0x20 DUP4 ADD SWAP2 POP DUP4 PUSH1 0x1 DUP3 MUL DUP4 ADD GT ISZERO PUSH2 0x5BD0 JUMPI PUSH2 0x5BCF PUSH2 0x5B7C JUMP JUMPDEST JUMPDEST SWAP3 POP SWAP3 SWAP1 POP JUMP JUMPDEST PUSH1 0x0 DUP1 PUSH1 0x0 DUP1 PUSH1 0x0 DUP1 PUSH1 0x0 DUP1 PUSH1 0x0 DUP1 PUSH1 0xE0 DUP12 DUP14 SUB SLT ISZERO PUSH2 0x5BFA JUMPI PUSH2 0x5BF9 PUSH2 0x56A0 JUMP JUMPDEST JUMPDEST PUSH1 0x0 PUSH2 0x5C08 DUP14 DUP3 DUP15 ADD PUSH2 0x58D7 JUMP JUMPDEST SWAP11 POP POP PUSH1 0x20 PUSH2 0x5C19 DUP14 DUP3 DUP15 ADD PUSH2 0x58D7 JUMP JUMPDEST SWAP10 POP POP PUSH1 0x40 PUSH2 0x5C2A DUP14 DUP3 DUP15 ADD PUSH2 0x58D7 JUMP JUMPDEST SWAP9 POP POP PUSH1 0x60 PUSH2 0x5C3B DUP14 DUP3 DUP15 ADD PUSH2 0x58D7 JUMP JUMPDEST SWAP8 POP POP PUSH1 0x80 DUP12 ADD CALLDATALOAD PUSH8 0xFFFFFFFFFFFFFFFF DUP2 GT ISZERO PUSH2 0x5C5C JUMPI PUSH2 0x5C5B PUSH2 0x56A5 JUMP JUMPDEST JUMPDEST PUSH2 0x5C68 DUP14 DUP3 DUP15 ADD PUSH2 0x5B81 JUMP JUMPDEST SWAP7 POP SWAP7 POP POP PUSH1 0xA0 DUP12 ADD CALLDATALOAD PUSH8 0xFFFFFFFFFFFFFFFF DUP2 GT ISZERO PUSH2 0x5C8B JUMPI PUSH2 0x5C8A PUSH2 0x56A5 JUMP JUMPDEST JUMPDEST PUSH2 0x5C97 DUP14 DUP3 DUP15 ADD PUSH2 0x5B81 JUMP JUMPDEST SWAP5 POP SWAP5 POP POP PUSH1 0xC0 DUP12 ADD CALLDATALOAD PUSH8 0xFFFFFFFFFFFFFFFF DUP2 GT ISZERO PUSH2 0x5CBA JUMPI PUSH2 0x5CB9 PUSH2 0x56A5 JUMP JUMPDEST JUMPDEST PUSH2 0x5CC6 DUP14 DUP3 DUP15 ADD PUSH2 0x5B81 JUMP JUMPDEST SWAP3 POP SWAP3 POP POP SWAP3 SWAP6 SWAP9 SWAP12 SWAP2 SWAP5 SWAP8 SWAP11 POP SWAP3 SWAP6 SWAP9 POP JUMP JUMPDEST PUSH32 0x4E487B7100000000000000000000000000000000000000000000000000000000 PUSH1 0x0 MSTORE PUSH1 0x21 PUSH1 0x4 MSTORE PUSH1 0x24 PUSH1 0x0 REVERT JUMPDEST PUSH1 0x8 DUP2 LT PUSH2 0x5D1A JUMPI PUSH2 0x5D19 PUSH2 0x5CDA JUMP JUMPDEST JUMPDEST POP JUMP JUMPDEST PUSH1 0x0 DUP2 SWAP1 POP PUSH2 0x5D2B DUP3 PUSH2 0x5D09 JUMP JUMPDEST SWAP2 SWAP1 POP JUMP JUMPDEST PUSH1 0x0 PUSH2 0x5D3B DUP3 PUSH2 0x5D1D JUMP JUMPDEST SWAP1 POP SWAP2 SWAP1 POP JUMP JUMPDEST PUSH2 0x5D4B DUP2 PUSH2 0x5D30 JUMP JUMPDEST DUP3 MSTORE POP POP JUMP JUMPDEST PUSH1 0x0 PUSH1 0x20 DUP3 ADD SWAP1 POP PUSH2 0x5D66 PUSH1 0x0 DUP4 ADD DUP5 PUSH2 0x5D42 JUMP JUMPDEST SWAP3 SWAP2 POP POP JUMP JUMPDEST PUSH2 0x5D75 DUP2 PUSH2 0x5765 JUMP JUMPDEST DUP2 EQ PUSH2 0x5D80 JUMPI PUSH1 0x0 DUP1 REVERT JUMPDEST POP JUMP JUMPDEST PUSH1 0x0 DUP2 CALLDATALOAD SWAP1 POP PUSH2 0x5D92 DUP2 PUSH2 0x5D6C JUMP JUMPDEST SWAP3 SWAP2 POP POP JUMP JUMPDEST PUSH1 0x0 PUSH1 0x20 DUP3 DUP5 SUB SLT ISZERO PUSH2 0x5DAE JUMPI PUSH2 0x5DAD PUSH2 0x56A0 JUMP JUMPDEST JUMPDEST PUSH1 0x0 PUSH2 0x5DBC DUP5 DUP3 DUP6 ADD PUSH2 0x5D83 JUMP JUMPDEST SWAP2 POP POP SWAP3 SWAP2 POP POP JUMP JUMPDEST PUSH2 0x5DCE DUP2 PUSH2 0x572F JUMP JUMPDEST DUP2 EQ PUSH2 0x5DD9 JUMPI PUSH1 0x0 DUP1 REVERT JUMPDEST POP JUMP JUMPDEST PUSH1 0x0 DUP2 CALLDATALOAD SWAP1 POP PUSH2 0x5DEB DUP2 PUSH2 0x5DC5 JUMP JUMPDEST SWAP3 SWAP2 POP POP JUMP JUMPDEST PUSH1 0x0 PUSH1 0x20 DUP3 DUP5 SUB SLT ISZERO PUSH2 0x5E07 JUMPI PUSH2 0x5E06 PUSH2 0x56A0 JUMP JUMPDEST JUMPDEST PUSH1 0x0 PUSH2 0x5E15 DUP5 DUP3 DUP6 ADD PUSH2 0x5DDC JUMP JUMPDEST SWAP2 POP POP SWAP3 SWAP2 POP POP JUMP JUMPDEST PUSH2 0x5E27 DUP2 PUSH2 0x58AE JUMP JUMPDEST DUP3 MSTORE POP POP JUMP JUMPDEST PUSH1 0x0 PUSH1 0x20 DUP3 ADD SWAP1 POP PUSH2 0x5E42 PUSH1 0x0 DUP4 ADD DUP5 PUSH2 0x5E1E JUMP JUMPDEST SWAP3 SWAP2 POP POP JUMP JUMPDEST PUSH1 0x4 DUP2 LT PUSH2 0x5E55 JUMPI PUSH1 0x0 DUP1 REVERT JUMPDEST POP JUMP JUMPDEST PUSH1 0x0 DUP2 CALLDATALOAD SWAP1 POP PUSH2 0x5E67 DUP2 PUSH2 0x5E48 JUMP JUMPDEST SWAP3 SWAP2 POP POP JUMP JUMPDEST PUSH1 0x0 DUP1 PUSH1 0x0 DUP1 PUSH1 0x60 DUP6 DUP8 SUB SLT ISZERO PUSH2 0x5E87 JUMPI PUSH2 0x5E86 PUSH2 0x56A0 JUMP JUMPDEST JUMPDEST PUSH1 0x0 DUP6 ADD CALLDATALOAD PUSH8 0xFFFFFFFFFFFFFFFF DUP2 GT ISZERO PUSH2 0x5EA5 JUMPI PUSH2 0x5EA4 PUSH2 0x56A5 JUMP JUMPDEST JUMPDEST PUSH2 0x5EB1 DUP8 DUP3 DUP9 ADD PUSH2 0x5B81 JUMP JUMPDEST SWAP5 POP SWAP5 POP POP PUSH1 0x20 PUSH2 0x5EC4 DUP8 DUP3 DUP9 ADD PUSH2 0x593A JUMP JUMPDEST SWAP3 POP POP PUSH1 0x40 PUSH2 0x5ED5 DUP8 DUP3 DUP9 ADD PUSH2 0x5E58 JUMP JUMPDEST SWAP2 POP POP SWAP3 SWAP6 SWAP2 SWAP5 POP SWAP3 POP JUMP JUMPDEST PUSH2 0x5EEA DUP2 PUSH2 0x56AA JUMP JUMPDEST DUP3 MSTORE POP POP JUMP JUMPDEST PUSH1 0x0 PUSH1 0x20 DUP3 ADD SWAP1 POP PUSH2 0x5F05 PUSH1 0x0 DUP4 ADD DUP5 PUSH2 0x5EE1 JUMP JUMPDEST SWAP3 SWAP2 POP POP JUMP JUMPDEST PUSH1 0x0 PUSH8 0xFFFFFFFFFFFFFFFF DUP3 GT ISZERO PUSH2 0x5F26 JUMPI PUSH2 0x5F25 PUSH2 0x59F0 JUMP JUMPDEST JUMPDEST PUSH2 0x5F2F DUP3 PUSH2 0x57E8 JUMP JUMPDEST SWAP1 POP PUSH1 0x20 DUP2 ADD SWAP1 POP SWAP2 SWAP1 POP JUMP JUMPDEST PUSH1 0x0 PUSH2 0x5F4F PUSH2 0x5F4A DUP5 PUSH2 0x5F0B JUMP JUMPDEST PUSH2 0x5A50 JUMP JUMPDEST SWAP1 POP DUP3 DUP2 MSTORE PUSH1 0x20 DUP2 ADD DUP5 DUP5 DUP5 ADD GT ISZERO PUSH2 0x5F6B JUMPI PUSH2 0x5F6A PUSH2 0x59EB JUMP JUMPDEST JUMPDEST PUSH2 0x5F76 DUP5 DUP3 DUP6 PUSH2 0x5A9C JUMP JUMPDEST POP SWAP4 SWAP3 POP POP POP JUMP JUMPDEST PUSH1 0x0 DUP3 PUSH1 0x1F DUP4 ADD SLT PUSH2 0x5F93 JUMPI PUSH2 0x5F92 PUSH2 0x59E6 JUMP JUMPDEST JUMPDEST DUP2 CALLDATALOAD PUSH2 0x5FA3 DUP5 DUP3 PUSH1 0x20 DUP7 ADD PUSH2 0x5F3C JUMP JUMPDEST SWAP2 POP POP SWAP3 SWAP2 POP POP JUMP JUMPDEST PUSH1 0x0 DUP1 PUSH1 0x40 DUP4 DUP6 SUB SLT ISZERO PUSH2 0x5FC3 JUMPI PUSH2 0x5FC2 PUSH2 0x56A0 JUMP JUMPDEST JUMPDEST PUSH1 0x0 PUSH2 0x5FD1 DUP6 DUP3 DUP7 ADD PUSH2 0x593A JUMP JUMPDEST SWAP3 POP POP PUSH1 0x20 DUP4 ADD CALLDATALOAD PUSH8 0xFFFFFFFFFFFFFFFF DUP2 GT ISZERO PUSH2 0x5FF2 JUMPI PUSH2 0x5FF1 PUSH2 0x56A5 JUMP JUMPDEST JUMPDEST PUSH2 0x5FFE DUP6 DUP3 DUP7 ADD PUSH2 0x5F7E JUMP JUMPDEST SWAP2 POP POP SWAP3 POP SWAP3 SWAP1 POP JUMP JUMPDEST PUSH1 0x4 DUP2 LT PUSH2 0x6015 JUMPI PUSH1 0x0 DUP1 REVERT JUMPDEST POP JUMP JUMPDEST PUSH1 0x0 DUP2 CALLDATALOAD SWAP1 POP PUSH2 0x6027 DUP2 PUSH2 0x6008 JUMP JUMPDEST SWAP3 SWAP2 POP POP JUMP JUMPDEST PUSH1 0x5 DUP2 LT PUSH2 0x603A JUMPI PUSH1 0x0 DUP1 REVERT JUMPDEST POP JUMP JUMPDEST PUSH1 0x0 DUP2 CALLDATALOAD SWAP1 POP PUSH2 0x604C DUP2 PUSH2 0x602D JUMP JUMPDEST SWAP3 SWAP2 POP POP JUMP JUMPDEST PUSH1 0x0 DUP1 PUSH1 0x0 DUP1 PUSH1 0x0 DUP1 PUSH1 0xC0 DUP8 DUP10 SUB SLT ISZERO PUSH2 0x606F JUMPI PUSH2 0x606E PUSH2 0x56A0 JUMP JUMPDEST JUMPDEST PUSH1 0x0 PUSH2 0x607D DUP10 DUP3 DUP11 ADD PUSH2 0x593A JUMP JUMPDEST SWAP7 POP POP PUSH1 0x20 PUSH2 0x608E DUP10 DUP3 DUP11 ADD PUSH2 0x593A JUMP JUMPDEST SWAP6 POP POP PUSH1 0x40 PUSH2 0x609F DUP10 DUP3 DUP11 ADD PUSH2 0x58D7 JUMP JUMPDEST SWAP5 POP POP PUSH1 0x60 PUSH2 0x60B0 DUP10 DUP3 DUP11 ADD PUSH2 0x6018 JUMP JUMPDEST SWAP4 POP POP PUSH1 0x80 PUSH2 0x60C1 DUP10 DUP3 DUP11 ADD PUSH2 0x603D JUMP JUMPDEST SWAP3 POP POP PUSH1 0xA0 DUP8 ADD CALLDATALOAD PUSH8 0xFFFFFFFFFFFFFFFF DUP2 GT ISZERO PUSH2 0x60E2 JUMPI PUSH2 0x60E1 PUSH2 0x56A5 JUMP JUMPDEST JUMPDEST PUSH2 0x60EE DUP10 DUP3 DUP11 ADD PUSH2 0x5AED JUMP JUMPDEST SWAP2 POP POP SWAP3 SWAP6 POP SWAP3 SWAP6 POP SWAP3 SWAP6 JUMP JUMPDEST PUSH1 0x0 DUP1 REVERT JUMPDEST PUSH1 0x0 DUP1 REVERT JUMPDEST PUSH1 0x0 PUSH1 0xA0 DUP3 DUP5 SUB SLT ISZERO PUSH2 0x611B JUMPI PUSH2 0x611A PUSH2 0x60FB JUMP JUMPDEST JUMPDEST PUSH2 0x6125 PUSH1 0xA0 PUSH2 0x5A50 JUMP JUMPDEST SWAP1 POP PUSH1 0x0 PUSH2 0x6135 DUP5 DUP3 DUP6 ADD PUSH2 0x593A JUMP JUMPDEST PUSH1 0x0 DUP4 ADD MSTORE POP PUSH1 0x20 PUSH2 0x6149 DUP5 DUP3 DUP6 ADD PUSH2 0x6018 JUMP JUMPDEST PUSH1 0x20 DUP4 ADD MSTORE POP PUSH1 0x40 PUSH2 0x615D DUP5 DUP3 DUP6 ADD PUSH2 0x603D JUMP JUMPDEST PUSH1 0x40 DUP4 ADD MSTORE POP PUSH1 0x60 DUP3 ADD CALLDATALOAD PUSH8 0xFFFFFFFFFFFFFFFF DUP2 GT ISZERO PUSH2 0x6181 JUMPI PUSH2 0x6180 PUSH2 0x6100 JUMP JUMPDEST JUMPDEST PUSH2 0x618D DUP5 DUP3 DUP6 ADD PUSH2 0x5F7E JUMP JUMPDEST PUSH1 0x60 DUP4 ADD MSTORE POP PUSH1 0x80 DUP3 ADD CALLDATALOAD PUSH8 0xFFFFFFFFFFFFFFFF DUP2 GT ISZERO PUSH2 0x61B1 JUMPI PUSH2 0x61B0 PUSH2 0x6100 JUMP JUMPDEST JUMPDEST PUSH2 0x61BD DUP5 DUP3 DUP6 ADD PUSH2 0x5AED JUMP JUMPDEST PUSH1 0x80 DUP4 ADD MSTORE POP SWAP3 SWAP2 POP POP JUMP JUMPDEST PUSH1 0x0 DUP1 PUSH1 0x40 DUP4 DUP6 SUB SLT ISZERO PUSH2 0x61E0 JUMPI PUSH2 0x61DF PUSH2 0x56A0 JUMP JUMPDEST JUMPDEST PUSH1 0x0 DUP4 ADD CALLDATALOAD PUSH8 0xFFFFFFFFFFFFFFFF DUP2 GT ISZERO PUSH2 0x61FE JUMPI PUSH2 0x61FD PUSH2 0x56A5 JUMP JUMPDEST JUMPDEST PUSH2 0x620A DUP6 DUP3 DUP7 ADD PUSH2 0x6105 JUMP JUMPDEST SWAP3 POP POP PUSH1 0x20 DUP4 ADD CALLDATALOAD PUSH8 0xFFFFFFFFFFFFFFFF DUP2 GT ISZERO PUSH2 0x622B JUMPI PUSH2 0x622A PUSH2 0x56A5 JUMP JUMPDEST JUMPDEST PUSH2 0x6237 DUP6 DUP3 DUP7 ADD PUSH2 0x5AED JUMP JUMPDEST SWAP2 POP POP SWAP3 POP SWAP3 SWAP1 POP JUMP JUMPDEST PUSH32 0x4E487B7100000000000000000000000000000000000000000000000000000000 PUSH1 0x0 MSTORE PUSH1 0x22 PUSH1 0x4 MSTORE PUSH1 0x24 PUSH1 0x0 REVERT JUMPDEST PUSH1 0x0 PUSH1 0x2 DUP3 DIV SWAP1 POP PUSH1 0x1 DUP3 AND DUP1 PUSH2 0x6288 JUMPI PUSH1 0x7F DUP3 AND SWAP2 POP JUMPDEST PUSH1 0x20 DUP3 LT DUP2 SUB PUSH2 0x629B JUMPI PUSH2 0x629A PUSH2 0x6241 JUMP JUMPDEST JUMPDEST POP SWAP2 SWAP1 POP JUMP JUMPDEST PUSH32 0x56616C696461746F723A206F6E6C792065786973742076616C696461746F7220 PUSH1 0x0 DUP3 ADD MSTORE PUSH32 0x63616E2062652064697361626C65000000000000000000000000000000000000 PUSH1 0x20 DUP3 ADD MSTORE POP JUMP JUMPDEST PUSH1 0x0 PUSH2 0x62FD PUSH1 0x2E DUP4 PUSH2 0x57A4 JUMP JUMPDEST SWAP2 POP PUSH2 0x6308 DUP3 PUSH2 0x62A1 JUMP JUMPDEST PUSH1 0x40 DUP3 ADD SWAP1 POP SWAP2 SWAP1 POP JUMP JUMPDEST PUSH1 0x0 PUSH1 0x20 DUP3 ADD SWAP1 POP DUP2 DUP2 SUB PUSH1 0x0 DUP4 ADD MSTORE PUSH2 0x632C DUP2 PUSH2 0x62F0 JUMP JUMPDEST SWAP1 POP SWAP2 SWAP1 POP JUMP JUMPDEST PUSH32 0x4E487B7100000000000000000000000000000000000000000000000000000000 PUSH1 0x0 MSTORE PUSH1 0x11 PUSH1 0x4 MSTORE PUSH1 0x24 PUSH1 0x0 REVERT JUMPDEST PUSH1 0x0 PUSH2 0x636D DUP3 PUSH2 0x5854 JUMP JUMPDEST SWAP2 POP PUSH2 0x6378 DUP4 PUSH2 0x5854 JUMP JUMPDEST SWAP3 POP DUP3 DUP3 LT ISZERO PUSH2 0x638B JUMPI PUSH2 0x638A PUSH2 0x6333 JUMP JUMPDEST JUMPDEST DUP3 DUP3 SUB SWAP1 POP SWAP3 SWAP2 POP POP JUMP JUMPDEST PUSH32 0x416363657373436F6E74726F6C3A2063616E206F6E6C792072656E6F756E6365 PUSH1 0x0 DUP3 ADD MSTORE PUSH32 0x20726F6C657320666F722073656C660000000000000000000000000000000000 PUSH1 0x20 DUP3 ADD MSTORE POP JUMP JUMPDEST PUSH1 0x0 PUSH2 0x63F2 PUSH1 0x2F DUP4 PUSH2 0x57A4 JUMP JUMPDEST SWAP2 POP PUSH2 0x63FD DUP3 PUSH2 0x6396 JUMP JUMPDEST PUSH1 0x40 DUP3 ADD SWAP1 POP SWAP2 SWAP1 POP JUMP JUMPDEST PUSH1 0x0 PUSH1 0x20 DUP3 ADD SWAP1 POP DUP2 DUP2 SUB PUSH1 0x0 DUP4 ADD MSTORE PUSH2 0x6421 DUP2 PUSH2 0x63E5 JUMP JUMPDEST SWAP1 POP SWAP2 SWAP1 POP JUMP JUMPDEST PUSH32 0x46756E6374696F6E206D7573742062652063616C6C6564207468726F75676820 PUSH1 0x0 DUP3 ADD MSTORE PUSH32 0x64656C656761746563616C6C0000000000000000000000000000000000000000 PUSH1 0x20 DUP3 ADD MSTORE POP JUMP JUMPDEST PUSH1 0x0 PUSH2 0x6484 PUSH1 0x2C DUP4 PUSH2 0x57A4 JUMP JUMPDEST SWAP2 POP PUSH2 0x648F DUP3 PUSH2 0x6428 JUMP JUMPDEST PUSH1 0x40 DUP3 ADD SWAP1 POP SWAP2 SWAP1 POP JUMP JUMPDEST PUSH1 0x0 PUSH1 0x20 DUP3 ADD SWAP1 POP DUP2 DUP2 SUB PUSH1 0x0 DUP4 ADD MSTORE PUSH2 0x64B3 DUP2 PUSH2 0x6477 JUMP JUMPDEST SWAP1 POP SWAP2 SWAP1 POP JUMP JUMPDEST PUSH32 0x46756E6374696F6E206D7573742062652063616C6C6564207468726F75676820 PUSH1 0x0 DUP3 ADD MSTORE PUSH32 0x6163746976652070726F78790000000000000000000000000000000000000000 PUSH1 0x20 DUP3 ADD MSTORE POP JUMP JUMPDEST PUSH1 0x0 PUSH2 0x6516 PUSH1 0x2C DUP4 PUSH2 0x57A4 JUMP JUMPDEST SWAP2 POP PUSH2 0x6521 DUP3 PUSH2 0x64BA JUMP JUMPDEST PUSH1 0x40 DUP3 ADD SWAP1 POP SWAP2 SWAP1 POP JUMP JUMPDEST PUSH1 0x0 PUSH1 0x20 DUP3 ADD SWAP1 POP DUP2 DUP2 SUB PUSH1 0x0 DUP4 ADD MSTORE PUSH2 0x6545 DUP2 PUSH2 0x6509 JUMP JUMPDEST SWAP1 POP SWAP2 SWAP1 POP JUMP JUMPDEST PUSH1 0x0 DUP2 SWAP1 POP SWAP2 SWAP1 POP JUMP JUMPDEST PUSH1 0x0 PUSH1 0xFF DUP3 AND SWAP1 POP SWAP2 SWAP1 POP JUMP JUMPDEST PUSH1 0x0 DUP2 SWAP1 POP SWAP2 SWAP1 POP JUMP JUMPDEST PUSH1 0x0 PUSH2 0x6588 PUSH2 0x6583 PUSH2 0x657E DUP5 PUSH2 0x654C JUMP JUMPDEST PUSH2 0x6563 JUMP JUMPDEST PUSH2 0x6556 JUMP JUMPDEST SWAP1 POP SWAP2 SWAP1 POP JUMP JUMPDEST PUSH2 0x6598 DUP2 PUSH2 0x656D JUMP JUMPDEST DUP3 MSTORE POP POP JUMP JUMPDEST PUSH1 0x0 PUSH1 0x20 DUP3 ADD SWAP1 POP PUSH2 0x65B3 PUSH1 0x0 DUP4 ADD DUP5 PUSH2 0x658F JUMP JUMPDEST SWAP3 SWAP2 POP POP JUMP JUMPDEST PUSH32 0x555550535570677261646561626C653A206D757374206E6F742062652063616C PUSH1 0x0 DUP3 ADD MSTORE PUSH32 0x6C6564207468726F7567682064656C656761746563616C6C0000000000000000 PUSH1 0x20 DUP3 ADD MSTORE POP JUMP JUMPDEST PUSH1 0x0 PUSH2 0x6615 PUSH1 0x38 DUP4 PUSH2 0x57A4 JUMP JUMPDEST SWAP2 POP PUSH2 0x6620 DUP3 PUSH2 0x65B9 JUMP JUMPDEST PUSH1 0x40 DUP3 ADD SWAP1 POP SWAP2 SWAP1 POP JUMP JUMPDEST PUSH1 0x0 PUSH1 0x20 DUP3 ADD SWAP1 POP DUP2 DUP2 SUB PUSH1 0x0 DUP4 ADD MSTORE PUSH2 0x6644 DUP2 PUSH2 0x6608 JUMP JUMPDEST SWAP1 POP SWAP2 SWAP1 POP JUMP JUMPDEST PUSH32 0x70726F706F73616C496420697320696E76616C69640000000000000000000000 PUSH1 0x0 DUP3 ADD MSTORE POP JUMP JUMPDEST PUSH1 0x0 PUSH2 0x6681 PUSH1 0x15 DUP4 PUSH2 0x57A4 JUMP JUMPDEST SWAP2 POP PUSH2 0x668C DUP3 PUSH2 0x664B JUMP JUMPDEST PUSH1 0x20 DUP3 ADD SWAP1 POP SWAP2 SWAP1 POP JUMP JUMPDEST PUSH1 0x0 PUSH1 0x20 DUP3 ADD SWAP1 POP DUP2 DUP2 SUB PUSH1 0x0 DUP4 ADD MSTORE PUSH2 0x66B0 DUP2 PUSH2 0x6674 JUMP JUMPDEST SWAP1 POP SWAP2 SWAP1 POP JUMP JUMPDEST PUSH32 0x476F7665726E6F723A206F6E6C792076616C696461746F722063616E20766F74 PUSH1 0x0 DUP3 ADD MSTORE PUSH32 0x6500000000000000000000000000000000000000000000000000000000000000 PUSH1 0x20 DUP3 ADD MSTORE POP JUMP JUMPDEST PUSH1 0x0 PUSH2 0x6713 PUSH1 0x21 DUP4 PUSH2 0x57A4 JUMP JUMPDEST SWAP2 POP PUSH2 0x671E DUP3 PUSH2 0x66B7 JUMP JUMPDEST PUSH1 0x40 DUP3 ADD SWAP1 POP SWAP2 SWAP1 POP JUMP JUMPDEST PUSH1 0x0 PUSH1 0x20 DUP3 ADD SWAP1 POP DUP2 DUP2 SUB PUSH1 0x0 DUP4 ADD MSTORE PUSH2 0x6742 DUP2 PUSH2 0x6706 JUMP JUMPDEST SWAP1 POP SWAP2 SWAP1 POP JUMP JUMPDEST PUSH32 0x476F7665726E6F72203A206F6E6C792070726F706F7365722063616E2063616E PUSH1 0x0 DUP3 ADD MSTORE PUSH32 0x63656C0000000000000000000000000000000000000000000000000000000000 PUSH1 0x20 DUP3 ADD MSTORE POP JUMP JUMPDEST PUSH1 0x0 PUSH2 0x67A5 PUSH1 0x23 DUP4 PUSH2 0x57A4 JUMP JUMPDEST SWAP2 POP PUSH2 0x67B0 DUP3 PUSH2 0x6749 JUMP JUMPDEST PUSH1 0x40 DUP3 ADD SWAP1 POP SWAP2 SWAP1 POP JUMP JUMPDEST PUSH1 0x0 PUSH1 0x20 DUP3 ADD SWAP1 POP DUP2 DUP2 SUB PUSH1 0x0 DUP4 ADD MSTORE PUSH2 0x67D4 DUP2 PUSH2 0x6798 JUMP JUMPDEST SWAP1 POP SWAP2 SWAP1 POP JUMP JUMPDEST PUSH32 0x476F7665726E6F723A2070726F706F73616C206E6F7420616374697665000000 PUSH1 0x0 DUP3 ADD MSTORE POP JUMP JUMPDEST PUSH1 0x0 PUSH2 0x6811 PUSH1 0x1D DUP4 PUSH2 0x57A4 JUMP JUMPDEST SWAP2 POP PUSH2 0x681C DUP3 PUSH2 0x67DB JUMP JUMPDEST PUSH1 0x20 DUP3 ADD SWAP1 POP SWAP2 SWAP1 POP JUMP JUMPDEST PUSH1 0x0 PUSH1 0x20 DUP3 ADD SWAP1 POP DUP2 DUP2 SUB PUSH1 0x0 DUP4 ADD MSTORE PUSH2 0x6840 DUP2 PUSH2 0x6804 JUMP JUMPDEST SWAP1 POP SWAP2 SWAP1 POP JUMP JUMPDEST PUSH32 0x476F7665726E6F723A2070726F706F73616C20616C72656164792063616E6365 PUSH1 0x0 DUP3 ADD MSTORE PUSH32 0x6C65640000000000000000000000000000000000000000000000000000000000 PUSH1 0x20 DUP3 ADD MSTORE POP JUMP JUMPDEST PUSH1 0x0 PUSH2 0x68A3 PUSH1 0x23 DUP4 PUSH2 0x57A4 JUMP JUMPDEST SWAP2 POP PUSH2 0x68AE DUP3 PUSH2 0x6847 JUMP JUMPDEST PUSH1 0x40 DUP3 ADD SWAP1 POP SWAP2 SWAP1 POP JUMP JUMPDEST PUSH1 0x0 PUSH1 0x20 DUP3 ADD SWAP1 POP DUP2 DUP2 SUB PUSH1 0x0 DUP4 ADD MSTORE PUSH2 0x68D2 DUP2 PUSH2 0x6896 JUMP JUMPDEST SWAP1 POP SWAP2 SWAP1 POP JUMP JUMPDEST PUSH1 0x4 DUP2 LT PUSH2 0x68EA JUMPI PUSH2 0x68E9 PUSH2 0x5CDA JUMP JUMPDEST JUMPDEST POP JUMP JUMPDEST PUSH1 0x0 DUP2 SWAP1 POP PUSH2 0x68FB DUP3 PUSH2 0x68D9 JUMP JUMPDEST SWAP2 SWAP1 POP JUMP JUMPDEST PUSH1 0x0 PUSH2 0x690B DUP3 PUSH2 0x68ED JUMP JUMPDEST SWAP1 POP SWAP2 SWAP1 POP JUMP JUMPDEST PUSH2 0x691B DUP2 PUSH2 0x6900 JUMP JUMPDEST DUP3 MSTORE POP POP JUMP JUMPDEST PUSH1 0x5 DUP2 LT PUSH2 0x6932 JUMPI PUSH2 0x6931 PUSH2 0x5CDA JUMP JUMPDEST JUMPDEST POP JUMP JUMPDEST PUSH1 0x0 DUP2 SWAP1 POP PUSH2 0x6943 DUP3 PUSH2 0x6921 JUMP JUMPDEST SWAP2 SWAP1 POP JUMP JUMPDEST PUSH1 0x0 PUSH2 0x6953 DUP3 PUSH2 0x6935 JUMP JUMPDEST SWAP1 POP SWAP2 SWAP1 POP JUMP JUMPDEST PUSH2 0x6963 DUP2 PUSH2 0x6948 JUMP JUMPDEST DUP3 MSTORE POP POP JUMP JUMPDEST PUSH1 0x0 DUP2 MLOAD SWAP1 POP SWAP2 SWAP1 POP JUMP JUMPDEST PUSH1 0x0 DUP3 DUP3 MSTORE PUSH1 0x20 DUP3 ADD SWAP1 POP SWAP3 SWAP2 POP POP JUMP JUMPDEST PUSH1 0x0 PUSH2 0x6990 DUP3 PUSH2 0x6969 JUMP JUMPDEST PUSH2 0x699A DUP2 DUP6 PUSH2 0x6974 JUMP JUMPDEST SWAP4 POP PUSH2 0x69AA DUP2 DUP6 PUSH1 0x20 DUP7 ADD PUSH2 0x57B5 JUMP JUMPDEST PUSH2 0x69B3 DUP2 PUSH2 0x57E8 JUMP JUMPDEST DUP5 ADD SWAP2 POP POP SWAP3 SWAP2 POP POP JUMP JUMPDEST PUSH1 0x0 PUSH1 0xC0 DUP3 ADD SWAP1 POP PUSH2 0x69D3 PUSH1 0x0 DUP4 ADD DUP10 PUSH2 0x597C JUMP JUMPDEST PUSH2 0x69E0 PUSH1 0x20 DUP4 ADD DUP9 PUSH2 0x597C JUMP JUMPDEST PUSH2 0x69ED PUSH1 0x40 DUP4 ADD DUP8 PUSH2 0x5E1E JUMP JUMPDEST PUSH2 0x69FA PUSH1 0x60 DUP4 ADD DUP7 PUSH2 0x6912 JUMP JUMPDEST PUSH2 0x6A07 PUSH1 0x80 DUP4 ADD DUP6 PUSH2 0x695A JUMP JUMPDEST DUP2 DUP2 SUB PUSH1 0xA0 DUP4 ADD MSTORE PUSH2 0x6A19 DUP2 DUP5 PUSH2 0x6985 JUMP JUMPDEST SWAP1 POP SWAP8 SWAP7 POP POP POP POP POP POP POP JUMP JUMPDEST PUSH32 0x476F7665726E6F723A2070726F706F73616C206E6F7420737563636573736675 PUSH1 0x0 DUP3 ADD MSTORE PUSH32 0x6C00000000000000000000000000000000000000000000000000000000000000 PUSH1 0x20 DUP3 ADD MSTORE POP JUMP JUMPDEST PUSH1 0x0 PUSH2 0x6A82 PUSH1 0x21 DUP4 PUSH2 0x57A4 JUMP JUMPDEST SWAP2 POP PUSH2 0x6A8D DUP3 PUSH2 0x6A26 JUMP JUMPDEST PUSH1 0x40 DUP3 ADD SWAP1 POP SWAP2 SWAP1 POP JUMP JUMPDEST PUSH1 0x0 PUSH1 0x20 DUP3 ADD SWAP1 POP DUP2 DUP2 SUB PUSH1 0x0 DUP4 ADD MSTORE PUSH2 0x6AB1 DUP2 PUSH2 0x6A75 JUMP JUMPDEST SWAP1 POP SWAP2 SWAP1 POP JUMP JUMPDEST PUSH32 0x70726F706F73616C20747970652073686F756C64206E6F74206265204E4F4E45 PUSH1 0x0 DUP3 ADD MSTORE POP JUMP JUMPDEST PUSH1 0x0 PUSH2 0x6AEE PUSH1 0x20 DUP4 PUSH2 0x57A4 JUMP JUMPDEST SWAP2 POP PUSH2 0x6AF9 DUP3 PUSH2 0x6AB8 JUMP JUMPDEST PUSH1 0x20 DUP3 ADD SWAP1 POP SWAP2 SWAP1 POP JUMP JUMPDEST PUSH1 0x0 PUSH1 0x20 DUP3 ADD SWAP1 POP DUP2 DUP2 SUB PUSH1 0x0 DUP4 ADD MSTORE PUSH2 0x6B1D DUP2 PUSH2 0x6AE1 JUMP JUMPDEST SWAP1 POP SWAP2 SWAP1 POP JUMP JUMPDEST PUSH32 0x616374696F6E20747970652073686F756C64206E6F74206265204E4F4E450000 PUSH1 0x0 DUP3 ADD MSTORE POP JUMP JUMPDEST PUSH1 0x0 PUSH2 0x6B5A PUSH1 0x1E DUP4 PUSH2 0x57A4 JUMP JUMPDEST SWAP2 POP PUSH2 0x6B65 DUP3 PUSH2 0x6B24 JUMP JUMPDEST PUSH1 0x20 DUP3 ADD SWAP1 POP SWAP2 SWAP1 POP JUMP JUMPDEST PUSH1 0x0 PUSH1 0x20 DUP3 ADD SWAP1 POP DUP2 DUP2 SUB PUSH1 0x0 DUP4 ADD MSTORE PUSH2 0x6B89 DUP2 PUSH2 0x6B4D JUMP JUMPDEST SWAP1 POP SWAP2 SWAP1 POP JUMP JUMPDEST PUSH32 0x646174612073686F756C64206E6F7420626520656D7074790000000000000000 PUSH1 0x0 DUP3 ADD MSTORE POP JUMP JUMPDEST PUSH1 0x0 PUSH2 0x6BC6 PUSH1 0x18 DUP4 PUSH2 0x57A4 JUMP JUMPDEST SWAP2 POP PUSH2 0x6BD1 DUP3 PUSH2 0x6B90 JUMP JUMPDEST PUSH1 0x20 DUP3 ADD SWAP1 POP SWAP2 SWAP1 POP JUMP JUMPDEST PUSH1 0x0 PUSH1 0x20 DUP3 ADD SWAP1 POP DUP2 DUP2 SUB PUSH1 0x0 DUP4 ADD MSTORE PUSH2 0x6BF5 DUP2 PUSH2 0x6BB9 JUMP JUMPDEST SWAP1 POP SWAP2 SWAP1 POP JUMP JUMPDEST PUSH1 0x0 DUP2 SWAP1 POP SWAP3 SWAP2 POP POP JUMP JUMPDEST PUSH1 0x0 PUSH2 0x6C12 DUP3 PUSH2 0x5799 JUMP JUMPDEST PUSH2 0x6C1C DUP2 DUP6 PUSH2 0x6BFC JUMP JUMPDEST SWAP4 POP PUSH2 0x6C2C DUP2 DUP6 PUSH1 0x20 DUP7 ADD PUSH2 0x57B5 JUMP JUMPDEST DUP1 DUP5 ADD SWAP2 POP POP SWAP3 SWAP2 POP POP JUMP JUMPDEST PUSH1 0x0 PUSH2 0x6C44 DUP3 DUP5 PUSH2 0x6C07 JUMP JUMPDEST SWAP2 POP DUP2 SWAP1 POP SWAP3 SWAP2 POP POP JUMP JUMPDEST PUSH2 0x6C58 DUP2 PUSH2 0x6556 JUMP JUMPDEST DUP3 MSTORE POP POP JUMP JUMPDEST PUSH1 0x0 PUSH1 0x20 DUP3 ADD SWAP1 POP PUSH2 0x6C73 PUSH1 0x0 DUP4 ADD DUP5 PUSH2 0x6C4F JUMP JUMPDEST SWAP3 SWAP2 POP POP JUMP JUMPDEST PUSH1 0x0 PUSH1 0x40 DUP3 ADD SWAP1 POP PUSH2 0x6C8E PUSH1 0x0 DUP4 ADD DUP6 PUSH2 0x597C JUMP JUMPDEST PUSH2 0x6C9B PUSH1 0x20 DUP4 ADD DUP5 PUSH2 0x5E1E JUMP JUMPDEST SWAP4 SWAP3 POP POP POP JUMP JUMPDEST PUSH1 0x0 DUP2 MLOAD SWAP1 POP PUSH2 0x6CB1 DUP2 PUSH2 0x5DC5 JUMP JUMPDEST SWAP3 SWAP2 POP POP JUMP JUMPDEST PUSH1 0x0 PUSH1 0x20 DUP3 DUP5 SUB SLT ISZERO PUSH2 0x6CCD JUMPI PUSH2 0x6CCC PUSH2 0x56A0 JUMP JUMPDEST JUMPDEST PUSH1 0x0 PUSH2 0x6CDB DUP5 DUP3 DUP6 ADD PUSH2 0x6CA2 JUMP JUMPDEST SWAP2 POP POP SWAP3 SWAP2 POP POP JUMP JUMPDEST PUSH32 0x70726F706F73616C206372656174696F6E207065726D697373696F6E2064656E PUSH1 0x0 DUP3 ADD MSTORE PUSH32 0x6965640000000000000000000000000000000000000000000000000000000000 PUSH1 0x20 DUP3 ADD MSTORE POP JUMP JUMPDEST PUSH1 0x0 PUSH2 0x6D40 PUSH1 0x23 DUP4 PUSH2 0x57A4 JUMP JUMPDEST SWAP2 POP PUSH2 0x6D4B DUP3 PUSH2 0x6CE4 JUMP JUMPDEST PUSH1 0x40 DUP3 ADD SWAP1 POP SWAP2 SWAP1 POP JUMP JUMPDEST PUSH1 0x0 PUSH1 0x20 DUP3 ADD SWAP1 POP DUP2 DUP2 SUB PUSH1 0x0 DUP4 ADD MSTORE PUSH2 0x6D6F DUP2 PUSH2 0x6D33 JUMP JUMPDEST SWAP1 POP SWAP2 SWAP1 POP JUMP JUMPDEST PUSH1 0x0 PUSH8 0xFFFFFFFFFFFFFFFF DUP3 AND SWAP1 POP SWAP2 SWAP1 POP JUMP JUMPDEST PUSH1 0x0 PUSH2 0x6D95 DUP3 PUSH2 0x6D76 JUMP JUMPDEST SWAP2 POP PUSH2 0x6DA0 DUP4 PUSH2 0x6D76 JUMP JUMPDEST SWAP3 POP DUP3 PUSH8 0xFFFFFFFFFFFFFFFF SUB DUP3 GT ISZERO PUSH2 0x6DBD JUMPI PUSH2 0x6DBC PUSH2 0x6333 JUMP JUMPDEST JUMPDEST DUP3 DUP3 ADD SWAP1 POP SWAP3 SWAP2 POP POP JUMP JUMPDEST PUSH1 0x0 DUP2 MLOAD SWAP1 POP PUSH2 0x6DD7 DUP2 PUSH2 0x5923 JUMP JUMPDEST SWAP3 SWAP2 POP POP JUMP JUMPDEST PUSH1 0x0 PUSH1 0x20 DUP3 DUP5 SUB SLT ISZERO PUSH2 0x6DF3 JUMPI PUSH2 0x6DF2 PUSH2 0x56A0 JUMP JUMPDEST JUMPDEST PUSH1 0x0 PUSH2 0x6E01 DUP5 DUP3 DUP6 ADD PUSH2 0x6DC8 JUMP JUMPDEST SWAP2 POP POP SWAP3 SWAP2 POP POP JUMP JUMPDEST PUSH32 0x45524331393637557067726164653A206E657720696D706C656D656E74617469 PUSH1 0x0 DUP3 ADD MSTORE PUSH32 0x6F6E206973206E6F742055555053000000000000000000000000000000000000 PUSH1 0x20 DUP3 ADD MSTORE POP JUMP JUMPDEST PUSH1 0x0 PUSH2 0x6E66 PUSH1 0x2E DUP4 PUSH2 0x57A4 JUMP JUMPDEST SWAP2 POP PUSH2 0x6E71 DUP3 PUSH2 0x6E0A JUMP JUMPDEST PUSH1 0x40 DUP3 ADD SWAP1 POP SWAP2 SWAP1 POP JUMP JUMPDEST PUSH1 0x0 PUSH1 0x20 DUP3 ADD SWAP1 POP DUP2 DUP2 SUB PUSH1 0x0 DUP4 ADD MSTORE PUSH2 0x6E95 DUP2 PUSH2 0x6E59 JUMP JUMPDEST SWAP1 POP SWAP2 SWAP1 POP JUMP JUMPDEST PUSH32 0x45524331393637557067726164653A20756E737570706F727465642070726F78 PUSH1 0x0 DUP3 ADD MSTORE PUSH32 0x6961626C65555549440000000000000000000000000000000000000000000000 PUSH1 0x20 DUP3 ADD MSTORE POP JUMP JUMPDEST PUSH1 0x0 PUSH2 0x6EF8 PUSH1 0x29 DUP4 PUSH2 0x57A4 JUMP JUMPDEST SWAP2 POP PUSH2 0x6F03 DUP3 PUSH2 0x6E9C JUMP JUMPDEST PUSH1 0x40 DUP3 ADD SWAP1 POP SWAP2 SWAP1 POP JUMP JUMPDEST PUSH1 0x0 PUSH1 0x20 DUP3 ADD SWAP1 POP DUP2 DUP2 SUB PUSH1 0x0 DUP4 ADD MSTORE PUSH2 0x6F27 DUP2 PUSH2 0x6EEB JUMP JUMPDEST SWAP1 POP SWAP2 SWAP1 POP JUMP JUMPDEST PUSH32 0x496E697469616C697A61626C653A20636F6E747261637420697320616C726561 PUSH1 0x0 DUP3 ADD MSTORE PUSH32 0x647920696E697469616C697A6564000000000000000000000000000000000000 PUSH1 0x20 DUP3 ADD MSTORE POP JUMP JUMPDEST PUSH1 0x0 PUSH2 0x6F8A PUSH1 0x2E DUP4 PUSH2 0x57A4 JUMP JUMPDEST SWAP2 POP PUSH2 0x6F95 DUP3 PUSH2 0x6F2E JUMP JUMPDEST PUSH1 0x40 DUP3 ADD SWAP1 POP SWAP2 SWAP1 POP JUMP JUMPDEST PUSH1 0x0 PUSH1 0x20 DUP3 ADD SWAP1 POP DUP2 DUP2 SUB PUSH1 0x0 DUP4 ADD MSTORE PUSH2 0x6FB9 DUP2 PUSH2 0x6F7D JUMP JUMPDEST SWAP1 POP SWAP2 SWAP1 POP JUMP JUMPDEST PUSH32 0x4E487B7100000000000000000000000000000000000000000000000000000000 PUSH1 0x0 MSTORE PUSH1 0x12 PUSH1 0x4 MSTORE PUSH1 0x24 PUSH1 0x0 REVERT JUMPDEST PUSH1 0x0 PUSH2 0x6FFA DUP3 PUSH2 0x5854 JUMP JUMPDEST SWAP2 POP PUSH2 0x7005 DUP4 PUSH2 0x5854 JUMP JUMPDEST SWAP3 POP DUP3 PUSH2 0x7015 JUMPI PUSH2 0x7014 PUSH2 0x6FC0 JUMP JUMPDEST JUMPDEST DUP3 DUP3 DIV SWAP1 POP SWAP3 SWAP2 POP POP JUMP JUMPDEST PUSH1 0x0 PUSH2 0x702B DUP3 PUSH2 0x5854 JUMP JUMPDEST SWAP2 POP PUSH2 0x7036 DUP4 PUSH2 0x5854 JUMP JUMPDEST SWAP3 POP DUP3 PUSH4 0xFFFFFFFF SUB DUP3 GT ISZERO PUSH2 0x704F JUMPI PUSH2 0x704E PUSH2 0x6333 JUMP JUMPDEST JUMPDEST DUP3 DUP3 ADD SWAP1 POP SWAP3 SWAP2 POP POP JUMP JUMPDEST PUSH32 0x476F7665726E6F723A20766F746520696E76616C696400000000000000000000 PUSH1 0x0 DUP3 ADD MSTORE POP JUMP JUMPDEST PUSH1 0x0 PUSH2 0x7090 PUSH1 0x16 DUP4 PUSH2 0x57A4 JUMP JUMPDEST SWAP2 POP PUSH2 0x709B DUP3 PUSH2 0x705A JUMP JUMPDEST PUSH1 0x20 DUP3 ADD SWAP1 POP SWAP2 SWAP1 POP JUMP JUMPDEST PUSH1 0x0 PUSH1 0x20 DUP3 ADD SWAP1 POP DUP2 DUP2 SUB PUSH1 0x0 DUP4 ADD MSTORE PUSH2 0x70BF DUP2 PUSH2 0x7083 JUMP JUMPDEST SWAP1 POP SWAP2 SWAP1 POP JUMP JUMPDEST PUSH32 0x476F7665726E6F723A2070726F706F73616C2063757272656E746C7920696E61 PUSH1 0x0 DUP3 ADD MSTORE PUSH32 0x6374697665000000000000000000000000000000000000000000000000000000 PUSH1 0x20 DUP3 ADD MSTORE POP JUMP JUMPDEST PUSH1 0x0 PUSH2 0x7122 PUSH1 0x25 DUP4 PUSH2 0x57A4 JUMP JUMPDEST SWAP2 POP PUSH2 0x712D DUP3 PUSH2 0x70C6 JUMP JUMPDEST PUSH1 0x40 DUP3 ADD SWAP1 POP SWAP2 SWAP1 POP JUMP JUMPDEST PUSH1 0x0 PUSH1 0x20 DUP3 ADD SWAP1 POP DUP2 DUP2 SUB PUSH1 0x0 DUP4 ADD MSTORE PUSH2 0x7151 DUP2 PUSH2 0x7115 JUMP JUMPDEST SWAP1 POP SWAP2 SWAP1 POP JUMP JUMPDEST PUSH32 0x476F7665726E6F723A20766F746520616C726561647920636173740000000000 PUSH1 0x0 DUP3 ADD MSTORE POP JUMP JUMPDEST PUSH1 0x0 PUSH2 0x718E PUSH1 0x1B DUP4 PUSH2 0x57A4 JUMP JUMPDEST SWAP2 POP PUSH2 0x7199 DUP3 PUSH2 0x7158 JUMP JUMPDEST PUSH1 0x20 DUP3 ADD SWAP1 POP SWAP2 SWAP1 POP JUMP JUMPDEST PUSH1 0x0 PUSH1 0x20 DUP3 ADD SWAP1 POP DUP2 DUP2 SUB PUSH1 0x0 DUP4 ADD MSTORE PUSH2 0x71BD DUP2 PUSH2 0x7181 JUMP JUMPDEST SWAP1 POP SWAP2 SWAP1 POP JUMP JUMPDEST PUSH1 0x4 DUP2 LT PUSH2 0x71D5 JUMPI PUSH2 0x71D4 PUSH2 0x5CDA JUMP JUMPDEST JUMPDEST POP JUMP JUMPDEST PUSH1 0x0 DUP2 SWAP1 POP PUSH2 0x71E6 DUP3 PUSH2 0x71C4 JUMP JUMPDEST SWAP2 SWAP1 POP JUMP JUMPDEST PUSH1 0x0 PUSH2 0x71F6 DUP3 PUSH2 0x71D8 JUMP JUMPDEST SWAP1 POP SWAP2 SWAP1 POP JUMP JUMPDEST PUSH2 0x7206 DUP2 PUSH2 0x71EB JUMP JUMPDEST DUP3 MSTORE POP POP JUMP JUMPDEST PUSH1 0x0 PUSH1 0x40 DUP3 ADD SWAP1 POP PUSH2 0x7221 PUSH1 0x0 DUP4 ADD DUP6 PUSH2 0x71FD JUMP JUMPDEST DUP2 DUP2 SUB PUSH1 0x20 DUP4 ADD MSTORE PUSH2 0x7233 DUP2 DUP5 PUSH2 0x57F9 JUMP JUMPDEST SWAP1 POP SWAP4 SWAP3 POP POP POP JUMP JUMPDEST PUSH1 0x0 PUSH2 0x724F PUSH2 0x724A DUP5 PUSH2 0x5F0B JUMP JUMPDEST PUSH2 0x5A50 JUMP JUMPDEST SWAP1 POP DUP3 DUP2 MSTORE PUSH1 0x20 DUP2 ADD DUP5 DUP5 DUP5 ADD GT ISZERO PUSH2 0x726B JUMPI PUSH2 0x726A PUSH2 0x59EB JUMP JUMPDEST JUMPDEST PUSH2 0x7276 DUP5 DUP3 DUP6 PUSH2 0x57B5 JUMP JUMPDEST POP SWAP4 SWAP3 POP POP POP JUMP JUMPDEST PUSH1 0x0 DUP3 PUSH1 0x1F DUP4 ADD SLT PUSH2 0x7293 JUMPI PUSH2 0x7292 PUSH2 0x59E6 JUMP JUMPDEST JUMPDEST DUP2 MLOAD PUSH2 0x72A3 DUP5 DUP3 PUSH1 0x20 DUP7 ADD PUSH2 0x723C JUMP JUMPDEST SWAP2 POP POP SWAP3 SWAP2 POP POP JUMP JUMPDEST PUSH1 0x0 DUP2 MLOAD SWAP1 POP PUSH2 0x72BB DUP2 PUSH2 0x58C0 JUMP JUMPDEST SWAP3 SWAP2 POP POP JUMP JUMPDEST PUSH1 0x0 PUSH1 0x40 DUP3 DUP5 SUB SLT ISZERO PUSH2 0x72D7 JUMPI PUSH2 0x72D6 PUSH2 0x60FB JUMP JUMPDEST JUMPDEST PUSH2 0x72E1 PUSH1 0x40 PUSH2 0x5A50 JUMP JUMPDEST SWAP1 POP PUSH1 0x0 DUP3 ADD MLOAD PUSH8 0xFFFFFFFFFFFFFFFF DUP2 GT ISZERO PUSH2 0x7301 JUMPI PUSH2 0x7300 PUSH2 0x6100 JUMP JUMPDEST JUMPDEST PUSH2 0x730D DUP5 DUP3 DUP6 ADD PUSH2 0x727E JUMP JUMPDEST PUSH1 0x0 DUP4 ADD MSTORE POP PUSH1 0x20 PUSH2 0x7321 DUP5 DUP3 DUP6 ADD PUSH2 0x72AC JUMP JUMPDEST PUSH1 0x20 DUP4 ADD MSTORE POP SWAP3 SWAP2 POP POP JUMP JUMPDEST PUSH1 0x0 PUSH1 0x20 DUP3 DUP5 SUB SLT ISZERO PUSH2 0x7343 JUMPI PUSH2 0x7342 PUSH2 0x56A0 JUMP JUMPDEST JUMPDEST PUSH1 0x0 DUP3 ADD MLOAD PUSH8 0xFFFFFFFFFFFFFFFF DUP2 GT ISZERO PUSH2 0x7361 JUMPI PUSH2 0x7360 PUSH2 0x56A5 JUMP JUMPDEST JUMPDEST PUSH2 0x736D DUP5 DUP3 DUP6 ADD PUSH2 0x72C1 JUMP JUMPDEST SWAP2 POP POP SWAP3 SWAP2 POP POP JUMP JUMPDEST PUSH1 0x0 DUP2 MLOAD SWAP1 POP PUSH2 0x7385 DUP2 PUSH2 0x5D6C JUMP JUMPDEST SWAP3 SWAP2 POP POP JUMP JUMPDEST PUSH1 0x0 PUSH2 0xFFFF DUP3 AND SWAP1 POP SWAP2 SWAP1 POP JUMP JUMPDEST PUSH2 0x73A2 DUP2 PUSH2 0x738B JUMP JUMPDEST DUP2 EQ PUSH2 0x73AD JUMPI PUSH1 0x0 DUP1 REVERT JUMPDEST POP JUMP JUMPDEST PUSH1 0x0 DUP2 MLOAD SWAP1 POP PUSH2 0x73BF DUP2 PUSH2 0x7399 JUMP JUMPDEST SWAP3 SWAP2 POP POP JUMP JUMPDEST PUSH1 0x0 PUSH1 0x80 DUP3 DUP5 SUB SLT ISZERO PUSH2 0x73DB JUMPI PUSH2 0x73DA PUSH2 0x60FB JUMP JUMPDEST JUMPDEST PUSH2 0x73E5 PUSH1 0x80 PUSH2 0x5A50 JUMP JUMPDEST SWAP1 POP PUSH1 0x0 DUP3 ADD MLOAD PUSH8 0xFFFFFFFFFFFFFFFF DUP2 GT ISZERO PUSH2 0x7405 JUMPI PUSH2 0x7404 PUSH2 0x6100 JUMP JUMPDEST JUMPDEST PUSH2 0x7411 DUP5 DUP3 DUP6 ADD PUSH2 0x727E JUMP JUMPDEST PUSH1 0x0 DUP4 ADD MSTORE POP PUSH1 0x20 PUSH2 0x7425 DUP5 DUP3 DUP6 ADD PUSH2 0x7376 JUMP JUMPDEST PUSH1 0x20 DUP4 ADD MSTORE POP PUSH1 0x40 PUSH2 0x7439 DUP5 DUP3 DUP6 ADD PUSH2 0x72AC JUMP JUMPDEST PUSH1 0x40 DUP4 ADD MSTORE POP PUSH1 0x60 PUSH2 0x744D DUP5 DUP3 DUP6 ADD PUSH2 0x73B0 JUMP JUMPDEST PUSH1 0x60 DUP4 ADD MSTORE POP SWAP3 SWAP2 POP POP JUMP JUMPDEST PUSH1 0x0 PUSH1 0x20 DUP3 DUP5 SUB SLT ISZERO PUSH2 0x746F JUMPI PUSH2 0x746E PUSH2 0x56A0 JUMP JUMPDEST JUMPDEST PUSH1 0x0 DUP3 ADD MLOAD PUSH8 0xFFFFFFFFFFFFFFFF DUP2 GT ISZERO PUSH2 0x748D JUMPI PUSH2 0x748C PUSH2 0x56A5 JUMP JUMPDEST JUMPDEST PUSH2 0x7499 DUP5 DUP3 DUP6 ADD PUSH2 0x73C5 JUMP JUMPDEST SWAP2 POP POP SWAP3 SWAP2 POP POP JUMP JUMPDEST PUSH1 0x0 PUSH2 0x74AD DUP3 PUSH2 0x5765 JUMP JUMPDEST SWAP2 POP PUSH2 0x74B8 DUP4 PUSH2 0x5765 JUMP JUMPDEST SWAP3 POP DUP2 PUSH32 0xFFFFFFFFFFFFFFFFFFFFFFFFFFFFFFFFFFFFFFFFFFFFFFFFFFFFFFFFFFFFFFFF DIV DUP4 GT DUP3 ISZERO ISZERO AND ISZERO PUSH2 0x74F1 JUMPI PUSH2 0x74F0 PUSH2 0x6333 JUMP JUMPDEST JUMPDEST DUP3 DUP3 MUL SWAP1 POP SWAP3 SWAP2 POP POP JUMP JUMPDEST PUSH1 0x0 PUSH2 0x7507 DUP3 PUSH2 0x5765 JUMP JUMPDEST SWAP2 POP PUSH2 0x7512 DUP4 PUSH2 0x5765 JUMP JUMPDEST SWAP3 POP DUP3 PUSH2 0x7522 JUMPI PUSH2 0x7521 PUSH2 0x6FC0 JUMP JUMPDEST JUMPDEST DUP3 DUP3 DIV SWAP1 POP SWAP3 SWAP2 POP POP JUMP JUMPDEST PUSH1 0x0 PUSH1 0x80 DUP3 DUP5 SUB SLT ISZERO PUSH2 0x7543 JUMPI PUSH2 0x7542 PUSH2 0x60FB JUMP JUMPDEST JUMPDEST PUSH2 0x754D PUSH1 0x80 PUSH2 0x5A50 JUMP JUMPDEST SWAP1 POP PUSH1 0x0 DUP3 ADD MLOAD PUSH8 0xFFFFFFFFFFFFFFFF DUP2 GT ISZERO PUSH2 0x756D JUMPI PUSH2 0x756C PUSH2 0x6100 JUMP JUMPDEST JUMPDEST PUSH2 0x7579 DUP5 DUP3 DUP6 ADD PUSH2 0x727E JUMP JUMPDEST PUSH1 0x0 DUP4 ADD MSTORE POP PUSH1 0x20 PUSH2 0x758D DUP5 DUP3 DUP6 ADD PUSH2 0x7376 JUMP JUMPDEST PUSH1 0x20 DUP4 ADD MSTORE POP PUSH1 0x40 PUSH2 0x75A1 DUP5 DUP3 DUP6 ADD PUSH2 0x72AC JUMP JUMPDEST PUSH1 0x40 DUP4 ADD MSTORE POP PUSH1 0x60 PUSH2 0x75B5 DUP5 DUP3 DUP6 ADD PUSH2 0x73B0 JUMP JUMPDEST PUSH1 0x60 DUP4 ADD MSTORE POP SWAP3 SWAP2 POP POP JUMP JUMPDEST PUSH1 0x0 PUSH1 0x20 DUP3 DUP5 SUB SLT ISZERO PUSH2 0x75D7 JUMPI PUSH2 0x75D6 PUSH2 0x56A0 JUMP JUMPDEST JUMPDEST PUSH1 0x0 DUP3 ADD MLOAD PUSH8 0xFFFFFFFFFFFFFFFF DUP2 GT ISZERO PUSH2 0x75F5 JUMPI PUSH2 0x75F4 PUSH2 0x56A5 JUMP JUMPDEST JUMPDEST PUSH2 0x7601 DUP5 DUP3 DUP6 ADD PUSH2 0x752D JUMP JUMPDEST SWAP2 POP POP SWAP3 SWAP2 POP POP JUMP JUMPDEST PUSH1 0x0 PUSH1 0x20 DUP3 DUP5 SUB SLT ISZERO PUSH2 0x7620 JUMPI PUSH2 0x761F PUSH2 0x60FB JUMP JUMPDEST JUMPDEST PUSH2 0x762A PUSH1 0x20 PUSH2 0x5A50 JUMP JUMPDEST SWAP1 POP PUSH1 0x0 PUSH2 0x763A DUP5 DUP3 DUP6 ADD PUSH2 0x72AC JUMP JUMPDEST PUSH1 0x0 DUP4 ADD MSTORE POP SWAP3 SWAP2 POP POP JUMP JUMPDEST PUSH1 0x0 PUSH1 0x20 DUP3 DUP5 SUB SLT ISZERO PUSH2 0x765C JUMPI PUSH2 0x765B PUSH2 0x56A0 JUMP JUMPDEST JUMPDEST PUSH1 0x0 PUSH2 0x766A DUP5 DUP3 DUP6 ADD PUSH2 0x760A JUMP JUMPDEST SWAP2 POP POP SWAP3 SWAP2 POP POP JUMP JUMPDEST PUSH1 0x0 PUSH1 0x20 DUP3 DUP5 SUB SLT ISZERO PUSH2 0x7689 JUMPI PUSH2 0x7688 PUSH2 0x60FB JUMP JUMPDEST JUMPDEST PUSH2 0x7693 PUSH1 0x20 PUSH2 0x5A50 JUMP JUMPDEST SWAP1 POP PUSH1 0x0 PUSH2 0x76A3 DUP5 DUP3 DUP6 ADD PUSH2 0x72AC JUMP JUMPDEST PUSH1 0x0 DUP4 ADD MSTORE POP SWAP3 SWAP2 POP POP JUMP JUMPDEST PUSH1 0x0 PUSH1 0x20 DUP3 DUP5 SUB SLT ISZERO PUSH2 0x76C5 JUMPI PUSH2 0x76C4 PUSH2 0x56A0 JUMP JUMPDEST JUMPDEST PUSH1 0x0 PUSH2 0x76D3 DUP5 DUP3 DUP6 ADD PUSH2 0x7673 JUMP JUMPDEST SWAP2 POP POP SWAP3 SWAP2 POP POP JUMP JUMPDEST PUSH1 0x0 DUP2 SWAP1 POP SWAP3 SWAP2 POP POP JUMP JUMPDEST PUSH1 0x0 PUSH2 0x76F2 DUP3 PUSH2 0x6969 JUMP JUMPDEST PUSH2 0x76FC DUP2 DUP6 PUSH2 0x76DC JUMP JUMPDEST SWAP4 POP PUSH2 0x770C DUP2 DUP6 PUSH1 0x20 DUP7 ADD PUSH2 0x57B5 JUMP JUMPDEST DUP1 DUP5 ADD SWAP2 POP POP SWAP3 SWAP2 POP POP JUMP JUMPDEST PUSH1 0x0 PUSH2 0x7724 DUP3 DUP5 PUSH2 0x76E7 JUMP JUMPDEST SWAP2 POP DUP2 SWAP1 POP SWAP3 SWAP2 POP POP JUMP JUMPDEST PUSH1 0x0 PUSH1 0xE0 DUP3 ADD SWAP1 POP PUSH2 0x7744 PUSH1 0x0 DUP4 ADD DUP11 PUSH2 0x597C JUMP JUMPDEST PUSH2 0x7751 PUSH1 0x20 DUP4 ADD DUP10 PUSH2 0x597C JUMP JUMPDEST PUSH2 0x775E PUSH1 0x40 DUP4 ADD DUP9 PUSH2 0x597C JUMP JUMPDEST PUSH2 0x776B PUSH1 0x60 DUP4 ADD DUP8 PUSH2 0x5E1E JUMP JUMPDEST PUSH2 0x7778 PUSH1 0x80 DUP4 ADD DUP7 PUSH2 0x6912 JUMP JUMPDEST PUSH2 0x7785 PUSH1 0xA0 DUP4 ADD DUP6 PUSH2 0x695A JUMP JUMPDEST PUSH2 0x7792 PUSH1 0xC0 DUP4 ADD DUP5 PUSH2 0x597C JUMP JUMPDEST SWAP9 SWAP8 POP POP POP POP POP POP POP POP JUMP JUMPDEST PUSH1 0x0 DUP2 SWAP1 POP DUP2 PUSH1 0x0 MSTORE PUSH1 0x20 PUSH1 0x0 KECCAK256 SWAP1 POP SWAP2 SWAP1 POP JUMP JUMPDEST PUSH1 0x0 DUP2 SLOAD PUSH2 0x77C0 DUP2 PUSH2 0x6270 JUMP JUMPDEST PUSH2 0x77CA DUP2 DUP7 PUSH2 0x6BFC JUMP JUMPDEST SWAP5 POP PUSH1 0x1 DUP3 AND PUSH1 0x0 DUP2 EQ PUSH2 0x77E5 JUMPI PUSH1 0x1 DUP2 EQ PUSH2 0x77F6 JUMPI PUSH2 0x7829 JUMP JUMPDEST PUSH1 0xFF NOT DUP4 AND DUP7 MSTORE DUP2 DUP7 ADD SWAP4 POP PUSH2 0x7829 JUMP JUMPDEST PUSH2 0x77FF DUP6 PUSH2 0x779E JUMP JUMPDEST PUSH1 0x0 JUMPDEST DUP4 DUP2 LT ISZERO PUSH2 0x7821 JUMPI DUP2 SLOAD DUP2 DUP10 ADD MSTORE PUSH1 0x1 DUP3 ADD SWAP2 POP PUSH1 0x20 DUP2 ADD SWAP1 POP PUSH2 0x7802 JUMP JUMPDEST DUP4 DUP9 ADD SWAP6 POP POP POP JUMPDEST POP POP POP SWAP3 SWAP2 POP POP JUMP JUMPDEST PUSH1 0x0 PUSH2 0x783E DUP3 DUP5 PUSH2 0x77B3 JUMP JUMPDEST SWAP2 POP DUP2 SWAP1 POP SWAP3 SWAP2 POP POP JUMP JUMPDEST PUSH1 0x0 PUSH1 0xA0 DUP3 ADD SWAP1 POP PUSH2 0x785E PUSH1 0x0 DUP4 ADD DUP9 PUSH2 0x597C JUMP JUMPDEST PUSH2 0x786B PUSH1 0x20 DUP4 ADD DUP8 PUSH2 0x597C JUMP JUMPDEST PUSH2 0x7878 PUSH1 0x40 DUP4 ADD DUP7 PUSH2 0x597C JUMP JUMPDEST PUSH2 0x7885 PUSH1 0x60 DUP4 ADD DUP6 PUSH2 0x576F JUMP JUMPDEST PUSH2 0x7892 PUSH1 0x80 DUP4 ADD DUP5 PUSH2 0x5E1E JUMP JUMPDEST SWAP7 SWAP6 POP POP POP POP POP POP JUMP JUMPDEST PUSH1 0x0 PUSH1 0x20 DUP3 ADD SWAP1 POP DUP2 DUP2 SUB PUSH1 0x0 DUP4 ADD MSTORE PUSH2 0x78B6 DUP2 DUP5 PUSH2 0x6985 JUMP JUMPDEST SWAP1 POP SWAP3 SWAP2 POP POP JUMP JUMPDEST PUSH1 0x0 PUSH1 0x80 DUP3 ADD SWAP1 POP DUP2 DUP2 SUB PUSH1 0x0 DUP4 ADD MSTORE PUSH2 0x78D8 DUP2 DUP8 PUSH2 0x57F9 JUMP JUMPDEST SWAP1 POP PUSH2 0x78E7 PUSH1 0x20 DUP4 ADD DUP7 PUSH2 0x5E1E JUMP JUMPDEST PUSH2 0x78F4 PUSH1 0x40 DUP4 ADD DUP6 PUSH2 0x5E1E JUMP JUMPDEST PUSH2 0x7901 PUSH1 0x60 DUP4 ADD DUP5 PUSH2 0x5E1E JUMP JUMPDEST SWAP6 SWAP5 POP POP POP POP POP JUMP JUMPDEST PUSH32 0x76616C696461746F7220616464726573732073686F756C64206E6F7420626520 PUSH1 0x0 DUP3 ADD MSTORE PUSH32 0x7A65726F00000000000000000000000000000000000000000000000000000000 PUSH1 0x20 DUP3 ADD MSTORE POP JUMP JUMPDEST PUSH1 0x0 PUSH2 0x7966 PUSH1 0x24 DUP4 PUSH2 0x57A4 JUMP JUMPDEST SWAP2 POP PUSH2 0x7971 DUP3 PUSH2 0x790A JUMP JUMPDEST PUSH1 0x40 DUP3 ADD SWAP1 POP SWAP2 SWAP1 POP JUMP JUMPDEST PUSH1 0x0 PUSH1 0x20 DUP3 ADD SWAP1 POP DUP2 DUP2 SUB PUSH1 0x0 DUP4 ADD MSTORE PUSH2 0x7995 DUP2 PUSH2 0x7959 JUMP JUMPDEST SWAP1 POP SWAP2 SWAP1 POP JUMP JUMPDEST PUSH32 0x76616C696461746F72206E616D652073686F756C64206E6F7420626520656D70 PUSH1 0x0 DUP3 ADD MSTORE PUSH32 0x7479000000000000000000000000000000000000000000000000000000000000 PUSH1 0x20 DUP3 ADD MSTORE POP JUMP JUMPDEST PUSH1 0x0 PUSH2 0x79F8 PUSH1 0x22 DUP4 PUSH2 0x57A4 JUMP JUMPDEST SWAP2 POP PUSH2 0x7A03 DUP3 PUSH2 0x799C JUMP JUMPDEST PUSH1 0x40 DUP3 ADD SWAP1 POP SWAP2 SWAP1 POP JUMP JUMPDEST PUSH1 0x0 PUSH1 0x20 DUP3 ADD SWAP1 POP DUP2 DUP2 SUB PUSH1 0x0 DUP4 ADD MSTORE PUSH2 0x7A27 DUP2 PUSH2 0x79EB JUMP JUMPDEST SWAP1 POP SWAP2 SWAP1 POP JUMP JUMPDEST PUSH1 0x0 PUSH1 0x60 DUP3 ADD SWAP1 POP PUSH2 0x7A43 PUSH1 0x0 DUP4 ADD DUP7 PUSH2 0x597C JUMP JUMPDEST PUSH2 0x7A50 PUSH1 0x20 DUP4 ADD DUP6 PUSH2 0x597C JUMP JUMPDEST DUP2 DUP2 SUB PUSH1 0x40 DUP4 ADD MSTORE PUSH2 0x7A62 DUP2 DUP5 PUSH2 0x57F9 JUMP JUMPDEST SWAP1 POP SWAP5 SWAP4 POP POP POP POP JUMP JUMPDEST PUSH32 0x73746172747570206E616D652073686F756C64206E6F7420626520656D707479 PUSH1 0x0 DUP3 ADD MSTORE POP JUMP JUMPDEST PUSH1 0x0 PUSH2 0x7AA2 PUSH1 0x20 DUP4 PUSH2 0x57A4 JUMP JUMPDEST SWAP2 POP PUSH2 0x7AAD DUP3 PUSH2 0x7A6C JUMP JUMPDEST PUSH1 0x20 DUP3 ADD SWAP1 POP SWAP2 SWAP1 POP JUMP JUMPDEST PUSH1 0x0 PUSH1 0x20 DUP3 ADD SWAP1 POP DUP2 DUP2 SUB PUSH1 0x0 DUP4 ADD MSTORE PUSH2 0x7AD1 DUP2 PUSH2 0x7A95 JUMP JUMPDEST SWAP1 POP SWAP2 SWAP1 POP JUMP JUMPDEST PUSH32 0x7374617274757020746F6B656E206F666665722073686F756C64206E6F742062 PUSH1 0x0 DUP3 ADD MSTORE PUSH32 0x65207A65726F0000000000000000000000000000000000000000000000000000 PUSH1 0x20 DUP3 ADD MSTORE POP JUMP JUMPDEST PUSH1 0x0 PUSH2 0x7B34 PUSH1 0x26 DUP4 PUSH2 0x57A4 JUMP JUMPDEST SWAP2 POP PUSH2 0x7B3F DUP3 PUSH2 0x7AD8 JUMP JUMPDEST PUSH1 0x40 DUP3 ADD SWAP1 POP SWAP2 SWAP1 POP JUMP JUMPDEST PUSH1 0x0 PUSH1 0x20 DUP3 ADD SWAP1 POP DUP2 DUP2 SUB PUSH1 0x0 DUP4 ADD MSTORE PUSH2 0x7B63 DUP2 PUSH2 0x7B27 JUMP JUMPDEST SWAP1 POP SWAP2 SWAP1 POP JUMP JUMPDEST PUSH32 0x7374617274757020736861726564207374616B652073686F756C64206E6F7420 PUSH1 0x0 DUP3 ADD MSTORE PUSH32 0x6265207A65726F00000000000000000000000000000000000000000000000000 PUSH1 0x20 DUP3 ADD MSTORE POP JUMP JUMPDEST PUSH1 0x0 PUSH2 0x7BC6 PUSH1 0x27 DUP4 PUSH2 0x57A4 JUMP JUMPDEST SWAP2 POP PUSH2 0x7BD1 DUP3 PUSH2 0x7B6A JUMP JUMPDEST PUSH1 0x40 DUP3 ADD SWAP1 POP SWAP2 SWAP1 POP JUMP JUMPDEST PUSH1 0x0 PUSH1 0x20 DUP3 ADD SWAP1 POP DUP2 DUP2 SUB PUSH1 0x0 DUP4 ADD MSTORE PUSH2 0x7BF5 DUP2 PUSH2 0x7BB9 JUMP JUMPDEST SWAP1 POP SWAP2 SWAP1 POP JUMP JUMPDEST PUSH32 0x7374617274757020454F412073686F756C64206E6F74206265207A65726F0000 PUSH1 0x0 DUP3 ADD MSTORE POP JUMP JUMPDEST PUSH1 0x0 PUSH2 0x7C32 PUSH1 0x1E DUP4 PUSH2 0x57A4 JUMP JUMPDEST SWAP2 POP PUSH2 0x7C3D DUP3 PUSH2 0x7BFC JUMP JUMPDEST PUSH1 0x20 DUP3 ADD SWAP1 POP SWAP2 SWAP1 POP JUMP JUMPDEST PUSH1 0x0 PUSH1 0x20 DUP3 ADD SWAP1 POP DUP2 DUP2 SUB PUSH1 0x0 DUP4 ADD MSTORE PUSH2 0x7C61 DUP2 PUSH2 0x7C25 JUMP JUMPDEST SWAP1 POP SWAP2 SWAP1 POP JUMP JUMPDEST PUSH2 0x7C71 DUP2 PUSH2 0x738B JUMP JUMPDEST DUP3 MSTORE POP POP JUMP JUMPDEST PUSH1 0x0 PUSH1 0xA0 DUP3 ADD SWAP1 POP PUSH2 0x7C8C PUSH1 0x0 DUP4 ADD DUP9 PUSH2 0x576F JUMP JUMPDEST PUSH2 0x7C99 PUSH1 0x20 DUP4 ADD DUP8 PUSH2 0x597C JUMP JUMPDEST PUSH2 0x7CA6 PUSH1 0x40 DUP4 ADD DUP7 PUSH2 0x597C JUMP JUMPDEST DUP2 DUP2 SUB PUSH1 0x60 DUP4 ADD MSTORE PUSH2 0x7CB8 DUP2 DUP6 PUSH2 0x57F9 JUMP JUMPDEST SWAP1 POP PUSH2 0x7CC7 PUSH1 0x80 DUP4 ADD DUP5 PUSH2 0x7C68 JUMP JUMPDEST SWAP7 SWAP6 POP POP POP POP POP POP JUMP JUMPDEST PUSH32 0x76616C696461746F7220454F412073686F756C64206E6F74206265207A65726F PUSH1 0x0 DUP3 ADD MSTORE POP JUMP JUMPDEST PUSH1 0x0 PUSH2 0x7D07 PUSH1 0x20 DUP4 PUSH2 0x57A4 JUMP JUMPDEST SWAP2 POP PUSH2 0x7D12 DUP3 PUSH2 0x7CD1 JUMP JUMPDEST PUSH1 0x20 DUP3 ADD SWAP1 POP SWAP2 SWAP1 POP JUMP JUMPDEST PUSH1 0x0 PUSH1 0x20 DUP3 ADD SWAP1 POP DUP2 DUP2 SUB PUSH1 0x0 DUP4 ADD MSTORE PUSH2 0x7D36 DUP2 PUSH2 0x7CFA JUMP JUMPDEST SWAP1 POP SWAP2 SWAP1 POP JUMP JUMPDEST PUSH32 0x467265657A653A206163636F756E742073686F756C64206E6F74206265207A65 PUSH1 0x0 DUP3 ADD MSTORE PUSH32 0x726F000000000000000000000000000000000000000000000000000000000000 PUSH1 0x20 DUP3 ADD MSTORE POP JUMP JUMPDEST PUSH1 0x0 PUSH2 0x7D99 PUSH1 0x22 DUP4 PUSH2 0x57A4 JUMP JUMPDEST SWAP2 POP PUSH2 0x7DA4 DUP3 PUSH2 0x7D3D JUMP JUMPDEST PUSH1 0x40 DUP3 ADD SWAP1 POP SWAP2 SWAP1 POP JUMP JUMPDEST PUSH1 0x0 PUSH1 0x20 DUP3 ADD SWAP1 POP DUP2 DUP2 SUB PUSH1 0x0 DUP4 ADD MSTORE PUSH2 0x7DC8 DUP2 PUSH2 0x7D8C JUMP JUMPDEST SWAP1 POP SWAP2 SWAP1 POP JUMP JUMPDEST PUSH1 0x0 PUSH1 0x40 DUP3 ADD SWAP1 POP PUSH2 0x7DE4 PUSH1 0x0 DUP4 ADD DUP6 PUSH2 0x597C JUMP JUMPDEST PUSH2 0x7DF1 PUSH1 0x20 DUP4 ADD DUP5 PUSH2 0x597C JUMP JUMPDEST SWAP4 SWAP3 POP POP POP JUMP JUMPDEST PUSH32 0x556E667265657A653A206163636F756E742073686F756C64206E6F7420626520 PUSH1 0x0 DUP3 ADD MSTORE PUSH32 0x7A65726F00000000000000000000000000000000000000000000000000000000 PUSH1 0x20 DUP3 ADD MSTORE POP JUMP JUMPDEST PUSH1 0x0 PUSH2 0x7E54 PUSH1 0x24 DUP4 PUSH2 0x57A4 JUMP JUMPDEST SWAP2 POP PUSH2 0x7E5F DUP3 PUSH2 0x7DF8 JUMP JUMPDEST PUSH1 0x40 DUP3 ADD SWAP1 POP SWAP2 SWAP1 POP JUMP JUMPDEST PUSH1 0x0 PUSH1 0x20 DUP3 ADD SWAP1 POP DUP2 DUP2 SUB PUSH1 0x0 DUP4 ADD MSTORE PUSH2 0x7E83 DUP2 PUSH2 0x7E47 JUMP JUMPDEST SWAP1 POP SWAP2 SWAP1 POP JUMP JUMPDEST PUSH32 0x416363657373436F6E74726F6C3A206163636F756E7420000000000000000000 PUSH1 0x0 DUP3 ADD MSTORE POP JUMP JUMPDEST PUSH1 0x0 PUSH2 0x7EC0 PUSH1 0x17 DUP4 PUSH2 0x6BFC JUMP JUMPDEST SWAP2 POP PUSH2 0x7ECB DUP3 PUSH2 0x7E8A JUMP JUMPDEST PUSH1 0x17 DUP3 ADD SWAP1 POP SWAP2 SWAP1 POP JUMP JUMPDEST PUSH32 0x206973206D697373696E6720726F6C6520000000000000000000000000000000 PUSH1 0x0 DUP3 ADD MSTORE POP JUMP JUMPDEST PUSH1 0x0 PUSH2 0x7F0C PUSH1 0x11 DUP4 PUSH2 0x6BFC JUMP JUMPDEST SWAP2 POP PUSH2 0x7F17 DUP3 PUSH2 0x7ED6 JUMP JUMPDEST PUSH1 0x11 DUP3 ADD SWAP1 POP SWAP2 SWAP1 POP JUMP JUMPDEST PUSH1 0x0 PUSH2 0x7F2D DUP3 PUSH2 0x7EB3 JUMP JUMPDEST SWAP2 POP PUSH2 0x7F39 DUP3 DUP6 PUSH2 0x6C07 JUMP JUMPDEST SWAP2 POP PUSH2 0x7F44 DUP3 PUSH2 0x7EFF JUMP JUMPDEST SWAP2 POP PUSH2 0x7F50 DUP3 DUP5 PUSH2 0x6C07 JUMP JUMPDEST SWAP2 POP DUP2 SWAP1 POP SWAP4 SWAP3 POP POP POP JUMP JUMPDEST PUSH32 0x455243313936373A206E657720696D706C656D656E746174696F6E206973206E PUSH1 0x0 DUP3 ADD MSTORE PUSH32 0x6F74206120636F6E747261637400000000000000000000000000000000000000 PUSH1 0x20 DUP3 ADD MSTORE POP JUMP JUMPDEST PUSH1 0x0 PUSH2 0x7FB8 PUSH1 0x2D DUP4 PUSH2 0x57A4 JUMP JUMPDEST SWAP2 POP PUSH2 0x7FC3 DUP3 PUSH2 0x7F5C JUMP JUMPDEST PUSH1 0x40 DUP3 ADD SWAP1 POP SWAP2 SWAP1 POP JUMP JUMPDEST PUSH1 0x0 PUSH1 0x20 DUP3 ADD SWAP1 POP DUP2 DUP2 SUB PUSH1 0x0 DUP4 ADD MSTORE PUSH2 0x7FE7 DUP2 PUSH2 0x7FAB JUMP JUMPDEST SWAP1 POP SWAP2 SWAP1 POP JUMP JUMPDEST PUSH1 0x0 PUSH1 0x60 DUP3 ADD SWAP1 POP PUSH2 0x8003 PUSH1 0x0 DUP4 ADD DUP7 PUSH2 0x5E1E JUMP JUMPDEST PUSH2 0x8010 PUSH1 0x20 DUP4 ADD DUP6 PUSH2 0x5E1E JUMP JUMPDEST PUSH2 0x801D PUSH1 0x40 DUP4 ADD DUP5 PUSH2 0x576F JUMP JUMPDEST SWAP5 SWAP4 POP POP POP POP JUMP JUMPDEST PUSH32 0x457865637574653A207472616E73666572206661696C65732120000000000000 PUSH1 0x0 DUP3 ADD MSTORE POP JUMP JUMPDEST PUSH1 0x0 PUSH2 0x805B PUSH1 0x1A DUP4 PUSH2 0x57A4 JUMP JUMPDEST SWAP2 POP PUSH2 0x8066 DUP3 PUSH2 0x8025 JUMP JUMPDEST PUSH1 0x20 DUP3 ADD SWAP1 POP SWAP2 SWAP1 POP JUMP JUMPDEST PUSH1 0x0 PUSH1 0x20 DUP3 ADD SWAP1 POP DUP2 DUP2 SUB PUSH1 0x0 DUP4 ADD MSTORE PUSH2 0x808A DUP2 PUSH2 0x804E JUMP JUMPDEST SWAP1 POP SWAP2 SWAP1 POP JUMP JUMPDEST PUSH1 0x0 PUSH2 0x809C DUP3 PUSH2 0x5765 JUMP JUMPDEST SWAP2 POP PUSH32 0xFFFFFFFFFFFFFFFFFFFFFFFFFFFFFFFFFFFFFFFFFFFFFFFFFFFFFFFFFFFFFFFF DUP3 SUB PUSH2 0x80CE JUMPI PUSH2 0x80CD PUSH2 0x6333 JUMP JUMPDEST JUMPDEST PUSH1 0x1 DUP3 ADD SWAP1 POP SWAP2 SWAP1 POP JUMP JUMPDEST PUSH32 0x457865637574653A20667265657A65206163636F756E74206661696C65640000 PUSH1 0x0 DUP3 ADD MSTORE POP JUMP JUMPDEST PUSH1 0x0 PUSH2 0x810F PUSH1 0x1E DUP4 PUSH2 0x57A4 JUMP JUMPDEST SWAP2 POP PUSH2 0x811A DUP3 PUSH2 0x80D9 JUMP JUMPDEST PUSH1 0x20 DUP3 ADD SWAP1 POP SWAP2 SWAP1 POP JUMP JUMPDEST PUSH1 0x0 PUSH1 0x20 DUP3 ADD SWAP1 POP DUP2 DUP2 SUB PUSH1 0x0 DUP4 ADD MSTORE PUSH2 0x813E DUP2 PUSH2 0x8102 JUMP JUMPDEST SWAP1 POP SWAP2 SWAP1 POP JUMP JUMPDEST PUSH32 0x457865637574653A20556E667265657A65206163636F756E74206661696C6564 PUSH1 0x0 DUP3 ADD MSTORE POP JUMP JUMPDEST PUSH1 0x0 PUSH2 0x817B PUSH1 0x20 DUP4 PUSH2 0x57A4 JUMP JUMPDEST SWAP2 POP PUSH2 0x8186 DUP3 PUSH2 0x8145 JUMP JUMPDEST PUSH1 0x20 DUP3 ADD SWAP1 POP SWAP2 SWAP1 POP JUMP JUMPDEST PUSH1 0x0 PUSH1 0x20 DUP3 ADD SWAP1 POP DUP2 DUP2 SUB PUSH1 0x0 DUP4 ADD MSTORE PUSH2 0x81AA DUP2 PUSH2 0x816E JUMP JUMPDEST SWAP1 POP SWAP2 SWAP1 POP JUMP JUMPDEST PUSH32 0x1901000000000000000000000000000000000000000000000000000000000000 PUSH1 0x0 DUP3 ADD MSTORE POP JUMP JUMPDEST PUSH1 0x0 PUSH2 0x81E7 PUSH1 0x2 DUP4 PUSH2 0x6BFC JUMP JUMPDEST SWAP2 POP PUSH2 0x81F2 DUP3 PUSH2 0x81B1 JUMP JUMPDEST PUSH1 0x2 DUP3 ADD SWAP1 POP SWAP2 SWAP1 POP JUMP JUMPDEST PUSH1 0x0 DUP2 SWAP1 POP SWAP2 SWAP1 POP JUMP JUMPDEST PUSH2 0x8218 PUSH2 0x8213 DUP3 PUSH2 0x5919 JUMP JUMPDEST PUSH2 0x81FD JUMP JUMPDEST DUP3 MSTORE POP POP JUMP JUMPDEST PUSH1 0x0 PUSH2 0x8229 DUP3 PUSH2 0x81DA JUMP JUMPDEST SWAP2 POP PUSH2 0x8235 DUP3 DUP6 PUSH2 0x8207 JUMP JUMPDEST PUSH1 0x20 DUP3 ADD SWAP2 POP PUSH2 0x8245 DUP3 DUP5 PUSH2 0x8207 JUMP JUMPDEST PUSH1 0x20 DUP3 ADD SWAP2 POP DUP2 SWAP1 POP SWAP4 SWAP3 POP POP POP JUMP JUMPDEST PUSH1 0x0 PUSH1 0x80 DUP3 ADD SWAP1 POP PUSH2 0x826A PUSH1 0x0 DUP4 ADD DUP8 PUSH2 0x597C JUMP JUMPDEST PUSH2 0x8277 PUSH1 0x20 DUP4 ADD DUP7 PUSH2 0x6C4F JUMP JUMPDEST PUSH2 0x8284 PUSH1 0x40 DUP4 ADD DUP6 PUSH2 0x597C JUMP JUMPDEST PUSH2 0x8291 PUSH1 0x60 DUP4 ADD DUP5 PUSH2 0x597C JUMP JUMPDEST SWAP6 SWAP5 POP POP POP POP POP JUMP JUMPDEST PUSH1 0x0 PUSH2 0x82A5 DUP3 PUSH2 0x5765 JUMP JUMPDEST SWAP2 POP PUSH2 0x82B0 DUP4 PUSH2 0x5765 JUMP JUMPDEST SWAP3 POP DUP3 PUSH32 0xFFFFFFFFFFFFFFFFFFFFFFFFFFFFFFFFFFFFFFFFFFFFFFFFFFFFFFFFFFFFFFFF SUB DUP3 GT ISZERO PUSH2 0x82E5 JUMPI PUSH2 0x82E4 PUSH2 0x6333 JUMP JUMPDEST JUMPDEST DUP3 DUP3 ADD SWAP1 POP SWAP3 SWAP2 POP POP JUMP JUMPDEST PUSH32 0x4E487B7100000000000000000000000000000000000000000000000000000000 PUSH1 0x0 MSTORE PUSH1 0x32 PUSH1 0x4 MSTORE PUSH1 0x24 PUSH1 0x0 REVERT JUMPDEST PUSH1 0x0 PUSH2 0x832A DUP3 PUSH2 0x5765 JUMP JUMPDEST SWAP2 POP PUSH1 0x0 DUP3 SUB PUSH2 0x833D JUMPI PUSH2 0x833C PUSH2 0x6333 JUMP JUMPDEST JUMPDEST PUSH1 0x1 DUP3 SUB SWAP1 POP SWAP2 SWAP1 POP JUMP JUMPDEST PUSH32 0x537472696E67733A20686578206C656E67746820696E73756666696369656E74 PUSH1 0x0 DUP3 ADD MSTORE POP JUMP JUMPDEST PUSH1 0x0 PUSH2 0x837E PUSH1 0x20 DUP4 PUSH2 0x57A4 JUMP JUMPDEST SWAP2 POP PUSH2 0x8389 DUP3 PUSH2 0x8348 JUMP JUMPDEST PUSH1 0x20 DUP3 ADD SWAP1 POP SWAP2 SWAP1 POP JUMP JUMPDEST PUSH1 0x0 PUSH1 0x20 DUP3 ADD SWAP1 POP DUP2 DUP2 SUB PUSH1 0x0 DUP4 ADD MSTORE PUSH2 0x83AD DUP2 PUSH2 0x8371 JUMP JUMPDEST SWAP1 POP SWAP2 SWAP1 POP JUMP JUMPDEST PUSH32 0x416464726573733A2064656C65676174652063616C6C20746F206E6F6E2D636F PUSH1 0x0 DUP3 ADD MSTORE PUSH32 0x6E74726163740000000000000000000000000000000000000000000000000000 PUSH1 0x20 DUP3 ADD MSTORE POP JUMP JUMPDEST PUSH1 0x0 PUSH2 0x8410 PUSH1 0x26 DUP4 PUSH2 0x57A4 JUMP JUMPDEST SWAP2 POP PUSH2 0x841B DUP3 PUSH2 0x83B4 JUMP JUMPDEST PUSH1 0x40 DUP3 ADD SWAP1 POP SWAP2 SWAP1 POP JUMP JUMPDEST PUSH1 0x0 PUSH1 0x20 DUP3 ADD SWAP1 POP DUP2 DUP2 SUB PUSH1 0x0 DUP4 ADD MSTORE PUSH2 0x843F DUP2 PUSH2 0x8403 JUMP JUMPDEST SWAP1 POP SWAP2 SWAP1 POP JUMP INVALID PUSH14 0x7367207369676E65723A2025732C KECCAK256 PUSH14 0x73672073656E6465723A2025732C KECCAK256 PUSH4 0x6F6E7472 PUSH2 0x6374 KECCAK256 PUSH2 0x6464 PUSH19 0x6573733A202573416464726573733A206C6F77 0x2D PUSH13 0x6576656C2064656C6567617465 KECCAK256 PUSH4 0x616C6C20 PUSH7 0x61696C6564A264 PUSH10 0x706673582212208A4954 MOD CHAINID 0xEE 0xC0 PUSH29 0xDBA63A804AF3AD3C6476CF74D9A83400B23269D962BBF57964736F6C63 NUMBER STOP ADDMOD 0xE STOP CALLER "
    },
    "gasEstimates": {
      "creation": {
        "codeDepositCost": "6801400",
        "executionCost": "infinite",
        "totalCost": "infinite"
      },
      "external": {
        "ADMIN_ROLE()": "462",
        "CONSENSUS_ROLE()": "417",
        "DEFAULT_ADMIN_ROLE()": "447",
        "FREEZE_ACCOUNT_SIGNATURE()": "424",
        "TRANSFER_SIGNATURE()": "446",
        "UNFREEZE_ACCOUNT_SIGNATURE()": "380",
        "cancel(bytes32,string)": "infinite",
        "castVote(string,bytes32,uint8)": "infinite",
        "commissionWallet()": "2604",
        "disableValidator(address)": "infinite",
        "execute(bytes32)": "infinite",
        "getRoleAdmin(bytes32)": "infinite",
        "grantRole(bytes32,address)": "infinite",
        "hasRole(bytes32,address)": "3208",
        "hasVoted(bytes32,address)": "infinite",
        "hashProposal(bytes32,bytes32,address,uint8,uint8,bytes)": "infinite",
        "initialize(address,address,address,address,string,string,string)": "infinite",
        "innTokenAddress()": "2580",
        "isMigrationEnabled()": "2633",
        "isValidator(address)": "2999",
        "name()": "infinite",
        "propose((bytes32,uint8,uint8,string,bytes),bytes)": "infinite",
        "proxiableUUID()": "infinite",
        "renounceRole(bytes32,address)": "infinite",
        "reservedWallet()": "2581",
        "revokeRole(bytes32,address)": "infinite",
        "setMigration(bool)": "infinite",
        "setVotingDelay(uint256)": "infinite",
        "setVotingPeriod(uint256)": "infinite",
        "state(bytes32)": "infinite",
        "supportsInterface(bytes4)": "774",
        "upgradeTo(address)": "infinite",
        "upgradeToAndCall(address,bytes)": "infinite",
        "validatorCount()": "2584",
        "version()": "infinite",
        "votingDelay()": "2497",
        "votingPeriod()": "2498"
      },
      "internal": {
        "_authorizeUpgrade(address)": "infinite",
        "_castVote(bytes32,address,enum IGovernorINN.VoteType,string memory)": "infinite",
        "_domainSeparatorV4()": "infinite",
        "_execute(struct IGovernorINNImpl.ProposalCore storage pointer)": "infinite",
        "_freezeAccount(address)": "infinite",
        "_fullQuorum(bytes32)": "infinite",
        "_generateProposalCreationEvent(struct IGovernorINNImpl.ProposalCore storage pointer)": "infinite",
        "_getMessageHash(bytes32,bytes32,address,enum IGovernorINN.ProposalType,enum IGovernorINN.ActionType,bytes memory)": "infinite",
        "_hashTypedDataV4(bytes32)": "infinite",
        "_quorumReached(bytes32)": "infinite",
        "_sendRewards(bytes32,uint256)": "infinite",
        "_transferCommission(address,uint256)": "infinite",
        "_transferToken(address,uint256)": "infinite",
        "_unfreezeAccount(address)": "infinite"
      }
    },
    "methodIdentifiers": {
      "ADMIN_ROLE()": "75b238fc",
      "CONSENSUS_ROLE()": "fa2dabad",
      "DEFAULT_ADMIN_ROLE()": "a217fddf",
      "FREEZE_ACCOUNT_SIGNATURE()": "afdf6710",
      "TRANSFER_SIGNATURE()": "e0310e52",
      "UNFREEZE_ACCOUNT_SIGNATURE()": "c0e6d5d6",
      "cancel(bytes32,string)": "b7d6fe24",
      "castVote(string,bytes32,uint8)": "a5d79624",
      "commissionWallet()": "97c0262a",
      "disableValidator(address)": "1fe97684",
      "execute(bytes32)": "e751f271",
      "getRoleAdmin(bytes32)": "248a9ca3",
      "grantRole(bytes32,address)": "2f2ff15d",
      "hasRole(bytes32,address)": "91d14854",
      "hasVoted(bytes32,address)": "aadc3b72",
      "hashProposal(bytes32,bytes32,address,uint8,uint8,bytes)": "be5967ea",
      "initialize(address,address,address,address,string,string,string)": "504cb8fa",
      "innTokenAddress()": "f8c662ff",
      "isMigrationEnabled()": "33f3533b",
      "isValidator(address)": "facd743b",
      "name()": "06fdde03",
      "propose((bytes32,uint8,uint8,string,bytes),bytes)": "ff666653",
      "proxiableUUID()": "52d1902d",
      "renounceRole(bytes32,address)": "36568abe",
      "reservedWallet()": "c22ab4e0",
      "revokeRole(bytes32,address)": "d547741f",
      "setMigration(bool)": "7f1e250c",
      "setVotingDelay(uint256)": "70b0f660",
      "setVotingPeriod(uint256)": "ea0217cf",
      "state(bytes32)": "61d585da",
      "supportsInterface(bytes4)": "01ffc9a7",
      "upgradeTo(address)": "3659cfe6",
      "upgradeToAndCall(address,bytes)": "4f1ef286",
      "validatorCount()": "0f43a677",
      "version()": "54fd4d50",
      "votingDelay()": "3932abb1",
      "votingPeriod()": "02a251a3"
    }
  },
  "storageLayout": {
    "storage": [
      {
        "astId": 808,
        "contract": "src/contracts/IGovernorINNImpl.sol:IGovernorINNImpl",
        "label": "_initialized",
        "offset": 0,
        "slot": "0",
        "type": "t_uint8"
      },
      {
        "astId": 811,
        "contract": "src/contracts/IGovernorINNImpl.sol:IGovernorINNImpl",
        "label": "_initializing",
        "offset": 1,
        "slot": "0",
        "type": "t_bool"
      },
      {
        "astId": 790,
        "contract": "src/contracts/IGovernorINNImpl.sol:IGovernorINNImpl",
        "label": "__gap",
        "offset": 0,
        "slot": "1",
        "type": "t_array(t_uint256)50_storage"
      },
      {
        "astId": 1078,
        "contract": "src/contracts/IGovernorINNImpl.sol:IGovernorINNImpl",
        "label": "__gap",
        "offset": 0,
        "slot": "51",
        "type": "t_array(t_uint256)50_storage"
      },
      {
        "astId": 1363,
        "contract": "src/contracts/IGovernorINNImpl.sol:IGovernorINNImpl",
        "label": "__gap",
        "offset": 0,
        "slot": "101",
        "type": "t_array(t_uint256)50_storage"
      },
      {
        "astId": 2441,
        "contract": "src/contracts/IGovernorINNImpl.sol:IGovernorINNImpl",
        "label": "__gap",
        "offset": 0,
        "slot": "151",
        "type": "t_array(t_uint256)50_storage"
      },
      {
        "astId": 39,
        "contract": "src/contracts/IGovernorINNImpl.sol:IGovernorINNImpl",
        "label": "_roles",
        "offset": 0,
        "slot": "201",
        "type": "t_mapping(t_bytes32,t_struct(RoleData)34_storage)"
      },
      {
        "astId": 338,
        "contract": "src/contracts/IGovernorINNImpl.sol:IGovernorINNImpl",
        "label": "__gap",
        "offset": 0,
        "slot": "202",
        "type": "t_array(t_uint256)49_storage"
      },
      {
        "astId": 12937,
        "contract": "src/contracts/IGovernorINNImpl.sol:IGovernorINNImpl",
        "label": "votingDelay",
        "offset": 0,
        "slot": "251",
        "type": "t_uint256"
      },
      {
        "astId": 12939,
        "contract": "src/contracts/IGovernorINNImpl.sol:IGovernorINNImpl",
        "label": "votingPeriod",
        "offset": 0,
        "slot": "252",
        "type": "t_uint256"
      },
      {
        "astId": 12941,
        "contract": "src/contracts/IGovernorINNImpl.sol:IGovernorINNImpl",
        "label": "reservedWallet",
        "offset": 0,
        "slot": "253",
        "type": "t_address"
      },
      {
        "astId": 12943,
        "contract": "src/contracts/IGovernorINNImpl.sol:IGovernorINNImpl",
        "label": "commissionWallet",
        "offset": 0,
        "slot": "254",
        "type": "t_address"
      },
      {
        "astId": 12945,
        "contract": "src/contracts/IGovernorINNImpl.sol:IGovernorINNImpl",
        "label": "innTokenAddress",
        "offset": 0,
        "slot": "255",
        "type": "t_address"
      },
      {
        "astId": 12950,
        "contract": "src/contracts/IGovernorINNImpl.sol:IGovernorINNImpl",
        "label": "_validators",
        "offset": 0,
        "slot": "256",
        "type": "t_mapping(t_address,t_struct(ValidatorInfo)12891_storage)"
      },
      {
        "astId": 12955,
        "contract": "src/contracts/IGovernorINNImpl.sol:IGovernorINNImpl",
        "label": "_proposalVotes",
        "offset": 0,
        "slot": "257",
        "type": "t_mapping(t_bytes32,t_struct(ProposalVote)12886_storage)"
      },
      {
        "astId": 12960,
        "contract": "src/contracts/IGovernorINNImpl.sol:IGovernorINNImpl",
        "label": "_proposals",
        "offset": 0,
        "slot": "258",
        "type": "t_mapping(t_bytes32,t_struct(ProposalCore)12876_storage)"
      },
      {
        "astId": 12962,
        "contract": "src/contracts/IGovernorINNImpl.sol:IGovernorINNImpl",
        "label": "_domainName",
        "offset": 0,
        "slot": "259",
        "type": "t_string_storage"
      },
      {
        "astId": 12964,
        "contract": "src/contracts/IGovernorINNImpl.sol:IGovernorINNImpl",
        "label": "_domainVersion",
        "offset": 0,
        "slot": "260",
        "type": "t_string_storage"
      },
      {
        "astId": 12966,
        "contract": "src/contracts/IGovernorINNImpl.sol:IGovernorINNImpl",
        "label": "validatorCount",
        "offset": 0,
        "slot": "261",
        "type": "t_uint32"
      },
      {
        "astId": 12968,
        "contract": "src/contracts/IGovernorINNImpl.sol:IGovernorINNImpl",
        "label": "isMigrationEnabled",
        "offset": 4,
        "slot": "261",
        "type": "t_bool"
      }
    ],
    "types": {
      "t_address": {
        "encoding": "inplace",
        "label": "address",
        "numberOfBytes": "20"
      },
      "t_array(t_bytes32)dyn_storage": {
        "base": "t_bytes32",
        "encoding": "dynamic_array",
        "label": "bytes32[]",
        "numberOfBytes": "32"
      },
      "t_array(t_uint256)49_storage": {
        "base": "t_uint256",
        "encoding": "inplace",
        "label": "uint256[49]",
        "numberOfBytes": "1568"
      },
      "t_array(t_uint256)50_storage": {
        "base": "t_uint256",
        "encoding": "inplace",
        "label": "uint256[50]",
        "numberOfBytes": "1600"
      },
      "t_bool": {
        "encoding": "inplace",
        "label": "bool",
        "numberOfBytes": "1"
      },
      "t_bytes32": {
        "encoding": "inplace",
        "label": "bytes32",
        "numberOfBytes": "32"
      },
      "t_bytes_storage": {
        "encoding": "bytes",
        "label": "bytes",
        "numberOfBytes": "32"
      },
      "t_enum(ActionType)12576": {
        "encoding": "inplace",
        "label": "enum IGovernorINN.ActionType",
        "numberOfBytes": "1"
      },
      "t_enum(ProposalType)12570": {
        "encoding": "inplace",
        "label": "enum IGovernorINN.ProposalType",
        "numberOfBytes": "1"
      },
      "t_mapping(t_address,t_bool)": {
        "encoding": "mapping",
        "key": "t_address",
        "label": "mapping(address => bool)",
        "numberOfBytes": "32",
        "value": "t_bool"
      },
      "t_mapping(t_address,t_struct(ValidatorInfo)12891_storage)": {
        "encoding": "mapping",
        "key": "t_address",
        "label": "mapping(address => struct IGovernorINNImpl.ValidatorInfo)",
        "numberOfBytes": "32",
        "value": "t_struct(ValidatorInfo)12891_storage"
      },
      "t_mapping(t_bytes32,t_struct(ProposalCore)12876_storage)": {
        "encoding": "mapping",
        "key": "t_bytes32",
        "label": "mapping(bytes32 => struct IGovernorINNImpl.ProposalCore)",
        "numberOfBytes": "32",
        "value": "t_struct(ProposalCore)12876_storage"
      },
      "t_mapping(t_bytes32,t_struct(ProposalVote)12886_storage)": {
        "encoding": "mapping",
        "key": "t_bytes32",
        "label": "mapping(bytes32 => struct IGovernorINNImpl.ProposalVote)",
        "numberOfBytes": "32",
        "value": "t_struct(ProposalVote)12886_storage"
      },
      "t_mapping(t_bytes32,t_struct(RoleData)34_storage)": {
        "encoding": "mapping",
        "key": "t_bytes32",
        "label": "mapping(bytes32 => struct AccessControlUpgradeable.RoleData)",
        "numberOfBytes": "32",
        "value": "t_struct(RoleData)34_storage"
      },
      "t_mapping(t_bytes32,t_uint256)": {
        "encoding": "mapping",
        "key": "t_bytes32",
        "label": "mapping(bytes32 => uint256)",
        "numberOfBytes": "32",
        "value": "t_uint256"
      },
      "t_string_storage": {
        "encoding": "bytes",
        "label": "string",
        "numberOfBytes": "32"
      },
      "t_struct(AddressSet)3495_storage": {
        "encoding": "inplace",
        "label": "struct EnumerableSetUpgradeable.AddressSet",
        "members": [
          {
            "astId": 3494,
            "contract": "src/contracts/IGovernorINNImpl.sol:IGovernorINNImpl",
            "label": "_inner",
            "offset": 0,
            "slot": "0",
            "type": "t_struct(Set)3194_storage"
          }
        ],
        "numberOfBytes": "64"
      },
      "t_struct(ProposalCore)12876_storage": {
        "encoding": "inplace",
        "label": "struct IGovernorINNImpl.ProposalCore",
        "members": [
          {
            "astId": 12851,
            "contract": "src/contracts/IGovernorINNImpl.sol:IGovernorINNImpl",
            "label": "proposalID",
            "offset": 0,
            "slot": "0",
            "type": "t_bytes32"
          },
          {
            "astId": 12853,
            "contract": "src/contracts/IGovernorINNImpl.sol:IGovernorINNImpl",
            "label": "offchainID",
            "offset": 0,
            "slot": "1",
            "type": "t_bytes32"
          },
          {
            "astId": 12855,
            "contract": "src/contracts/IGovernorINNImpl.sol:IGovernorINNImpl",
            "label": "descriptionHash",
            "offset": 0,
            "slot": "2",
            "type": "t_bytes32"
          },
          {
            "astId": 12857,
            "contract": "src/contracts/IGovernorINNImpl.sol:IGovernorINNImpl",
            "label": "proposer",
            "offset": 0,
            "slot": "3",
            "type": "t_address"
          },
          {
            "astId": 12860,
            "contract": "src/contracts/IGovernorINNImpl.sol:IGovernorINNImpl",
            "label": "votingStartAt",
            "offset": 0,
            "slot": "4",
            "type": "t_struct(Timestamp)1633_storage"
          },
          {
            "astId": 12863,
            "contract": "src/contracts/IGovernorINNImpl.sol:IGovernorINNImpl",
            "label": "votingEndAt",
            "offset": 0,
            "slot": "5",
            "type": "t_struct(Timestamp)1633_storage"
          },
          {
            "astId": 12866,
            "contract": "src/contracts/IGovernorINNImpl.sol:IGovernorINNImpl",
            "label": "proposalType",
            "offset": 0,
            "slot": "6",
            "type": "t_enum(ProposalType)12570"
          },
          {
            "astId": 12869,
            "contract": "src/contracts/IGovernorINNImpl.sol:IGovernorINNImpl",
            "label": "actionType",
            "offset": 1,
            "slot": "6",
            "type": "t_enum(ActionType)12576"
          },
          {
            "astId": 12871,
            "contract": "src/contracts/IGovernorINNImpl.sol:IGovernorINNImpl",
            "label": "isExecuted",
            "offset": 2,
            "slot": "6",
            "type": "t_bool"
          },
          {
            "astId": 12873,
            "contract": "src/contracts/IGovernorINNImpl.sol:IGovernorINNImpl",
            "label": "isCanceled",
            "offset": 3,
            "slot": "6",
            "type": "t_bool"
          },
          {
            "astId": 12875,
            "contract": "src/contracts/IGovernorINNImpl.sol:IGovernorINNImpl",
            "label": "data",
            "offset": 0,
            "slot": "7",
            "type": "t_bytes_storage"
          }
        ],
        "numberOfBytes": "256"
      },
      "t_struct(ProposalVote)12886_storage": {
        "encoding": "inplace",
        "label": "struct IGovernorINNImpl.ProposalVote",
        "members": [
          {
            "astId": 12878,
            "contract": "src/contracts/IGovernorINNImpl.sol:IGovernorINNImpl",
            "label": "againstVotes",
            "offset": 0,
            "slot": "0",
            "type": "t_uint64"
          },
          {
            "astId": 12880,
            "contract": "src/contracts/IGovernorINNImpl.sol:IGovernorINNImpl",
            "label": "forVotes",
            "offset": 8,
            "slot": "0",
            "type": "t_uint64"
          },
          {
            "astId": 12882,
            "contract": "src/contracts/IGovernorINNImpl.sol:IGovernorINNImpl",
            "label": "abstainVotes",
            "offset": 16,
            "slot": "0",
            "type": "t_uint64"
          },
          {
            "astId": 12885,
            "contract": "src/contracts/IGovernorINNImpl.sol:IGovernorINNImpl",
            "label": "hasVoted",
            "offset": 0,
            "slot": "1",
            "type": "t_struct(AddressSet)3495_storage"
          }
        ],
        "numberOfBytes": "96"
      },
      "t_struct(RoleData)34_storage": {
        "encoding": "inplace",
        "label": "struct AccessControlUpgradeable.RoleData",
        "members": [
          {
            "astId": 31,
            "contract": "src/contracts/IGovernorINNImpl.sol:IGovernorINNImpl",
            "label": "members",
            "offset": 0,
            "slot": "0",
            "type": "t_mapping(t_address,t_bool)"
          },
          {
            "astId": 33,
            "contract": "src/contracts/IGovernorINNImpl.sol:IGovernorINNImpl",
            "label": "adminRole",
            "offset": 0,
            "slot": "1",
            "type": "t_bytes32"
          }
        ],
        "numberOfBytes": "64"
      },
      "t_struct(Set)3194_storage": {
        "encoding": "inplace",
        "label": "struct EnumerableSetUpgradeable.Set",
        "members": [
          {
            "astId": 3189,
            "contract": "src/contracts/IGovernorINNImpl.sol:IGovernorINNImpl",
            "label": "_values",
            "offset": 0,
            "slot": "0",
            "type": "t_array(t_bytes32)dyn_storage"
          },
          {
            "astId": 3193,
            "contract": "src/contracts/IGovernorINNImpl.sol:IGovernorINNImpl",
            "label": "_indexes",
            "offset": 0,
            "slot": "1",
            "type": "t_mapping(t_bytes32,t_uint256)"
          }
        ],
        "numberOfBytes": "64"
      },
      "t_struct(Timestamp)1633_storage": {
        "encoding": "inplace",
        "label": "struct TimersUpgradeable.Timestamp",
        "members": [
          {
            "astId": 1632,
            "contract": "src/contracts/IGovernorINNImpl.sol:IGovernorINNImpl",
            "label": "_deadline",
            "offset": 0,
            "slot": "0",
            "type": "t_uint64"
          }
        ],
        "numberOfBytes": "32"
      },
      "t_struct(ValidatorInfo)12891_storage": {
        "encoding": "inplace",
        "label": "struct IGovernorINNImpl.ValidatorInfo",
        "members": [
          {
            "astId": 12888,
            "contract": "src/contracts/IGovernorINNImpl.sol:IGovernorINNImpl",
            "label": "name",
            "offset": 0,
            "slot": "0",
            "type": "t_string_storage"
          },
          {
            "astId": 12890,
            "contract": "src/contracts/IGovernorINNImpl.sol:IGovernorINNImpl",
            "label": "isEnabled",
            "offset": 0,
            "slot": "1",
            "type": "t_bool"
          }
        ],
        "numberOfBytes": "64"
      },
      "t_uint256": {
        "encoding": "inplace",
        "label": "uint256",
        "numberOfBytes": "32"
      },
      "t_uint32": {
        "encoding": "inplace",
        "label": "uint32",
        "numberOfBytes": "4"
      },
      "t_uint64": {
        "encoding": "inplace",
        "label": "uint64",
        "numberOfBytes": "8"
      },
      "t_uint8": {
        "encoding": "inplace",
        "label": "uint8",
        "numberOfBytes": "1"
      }
    }
  },
  "userdoc": {
    "kind": "user",
    "methods": {},
    "version": 1
  }
}