{
  "contractName": "IGovernorINNImpl",
  "sourceName": "src/contracts/IGovernorINNImpl.sol",
  "abi": [
    {
      "inputs": [
        {
          "internalType": "uint8",
          "name": "",
          "type": "uint8"
        }
      ],
      "name": "ECDARecoverError",
      "type": "error"
    },
    {
      "anonymous": false,
      "inputs": [
        {
          "indexed": false,
          "internalType": "address",
          "name": "previousAdmin",
          "type": "address"
        },
        {
          "indexed": false,
          "internalType": "address",
          "name": "newAdmin",
          "type": "address"
        }
      ],
      "name": "AdminChanged",
      "type": "event"
    },
    {
      "anonymous": false,
      "inputs": [
        {
          "indexed": true,
          "internalType": "address",
          "name": "beacon",
          "type": "address"
        }
      ],
      "name": "BeaconUpgraded",
      "type": "event"
    },
    {
      "anonymous": false,
      "inputs": [
        {
          "indexed": true,
          "internalType": "bytes32",
          "name": "proposalId",
          "type": "bytes32"
        },
        {
          "indexed": true,
          "internalType": "address",
          "name": "proposer",
          "type": "address"
        },
        {
          "indexed": true,
          "internalType": "address",
          "name": "validatorEOA",
          "type": "address"
        },
        {
          "indexed": false,
          "internalType": "uint256",
          "name": "tokenOffer",
          "type": "uint256"
        },
        {
          "indexed": false,
          "internalType": "bytes32",
          "name": "offchainID",
          "type": "bytes32"
        },
        {
          "indexed": false,
          "internalType": "bytes32",
          "name": "description",
          "type": "bytes32"
        },
        {
          "indexed": false,
          "internalType": "string",
          "name": "startupName",
          "type": "string"
        },
        {
          "indexed": false,
          "internalType": "uint16",
          "name": "sharedStake",
          "type": "uint16"
        }
      ],
      "name": "ExitInvestmentProposalCreated",
      "type": "event"
    },
    {
      "anonymous": false,
      "inputs": [
        {
          "indexed": true,
          "internalType": "bytes32",
          "name": "proposalId",
          "type": "bytes32"
        },
        {
          "indexed": true,
          "internalType": "address",
          "name": "proposer",
          "type": "address"
        },
        {
          "indexed": true,
          "internalType": "address",
          "name": "account",
          "type": "address"
        },
        {
          "indexed": false,
          "internalType": "bytes32",
          "name": "offchainID",
          "type": "bytes32"
        },
        {
          "indexed": false,
          "internalType": "bytes32",
          "name": "description",
          "type": "bytes32"
        }
      ],
      "name": "FreezeInvestmentProposalCreated",
      "type": "event"
    },
    {
      "anonymous": false,
      "inputs": [
        {
          "indexed": false,
          "internalType": "uint8",
          "name": "version",
          "type": "uint8"
        }
      ],
      "name": "Initialized",
      "type": "event"
    },
    {
      "anonymous": false,
      "inputs": [
        {
          "indexed": true,
          "internalType": "bytes32",
          "name": "proposalID",
          "type": "bytes32"
        },
        {
          "indexed": true,
          "internalType": "address",
          "name": "proposer",
          "type": "address"
        },
        {
          "indexed": true,
          "internalType": "address",
          "name": "startupEOA",
          "type": "address"
        },
        {
          "indexed": false,
          "internalType": "uint256",
          "name": "tokenOffer",
          "type": "uint256"
        },
        {
          "indexed": false,
          "internalType": "bytes32",
          "name": "offchainID",
          "type": "bytes32"
        },
        {
          "indexed": false,
          "internalType": "bytes32",
          "name": "description",
          "type": "bytes32"
        },
        {
          "indexed": false,
          "internalType": "string",
          "name": "startupName",
          "type": "string"
        },
        {
          "indexed": false,
          "internalType": "uint16",
          "name": "sharedStake",
          "type": "uint16"
        }
      ],
      "name": "NewInvestmentProposalCreated",
      "type": "event"
    },
    {
      "anonymous": false,
      "inputs": [
        {
          "indexed": true,
          "internalType": "bytes32",
          "name": "proposalID",
          "type": "bytes32"
        },
        {
          "indexed": true,
          "internalType": "address",
          "name": "proposer",
          "type": "address"
        },
        {
          "indexed": true,
          "internalType": "address",
          "name": "validatorEOA",
          "type": "address"
        },
        {
          "indexed": false,
          "internalType": "bytes32",
          "name": "offchainID",
          "type": "bytes32"
        },
        {
          "indexed": false,
          "internalType": "bytes32",
          "name": "description",
          "type": "bytes32"
        },
        {
          "indexed": false,
          "internalType": "string",
          "name": "validatorName",
          "type": "string"
        }
      ],
      "name": "NewValidatorProposalCreated",
      "type": "event"
    },
    {
      "anonymous": false,
      "inputs": [
        {
          "indexed": true,
          "internalType": "bytes32",
          "name": "proposalId",
          "type": "bytes32"
        },
        {
          "indexed": false,
          "internalType": "string",
          "name": "reason",
          "type": "string"
        }
      ],
      "name": "ProposalCanceled",
      "type": "event"
    },
    {
      "anonymous": false,
      "inputs": [
        {
          "indexed": true,
          "internalType": "bytes32",
          "name": "proposalId",
          "type": "bytes32"
        }
      ],
      "name": "ProposalExecuted",
      "type": "event"
    },
    {
      "anonymous": false,
      "inputs": [
        {
          "indexed": true,
          "internalType": "bytes32",
          "name": "role",
          "type": "bytes32"
        },
        {
          "indexed": true,
          "internalType": "bytes32",
          "name": "previousAdminRole",
          "type": "bytes32"
        },
        {
          "indexed": true,
          "internalType": "bytes32",
          "name": "newAdminRole",
          "type": "bytes32"
        }
      ],
      "name": "RoleAdminChanged",
      "type": "event"
    },
    {
      "anonymous": false,
      "inputs": [
        {
          "indexed": true,
          "internalType": "bytes32",
          "name": "role",
          "type": "bytes32"
        },
        {
          "indexed": true,
          "internalType": "address",
          "name": "account",
          "type": "address"
        },
        {
          "indexed": true,
          "internalType": "address",
          "name": "sender",
          "type": "address"
        }
      ],
      "name": "RoleGranted",
      "type": "event"
    },
    {
      "anonymous": false,
      "inputs": [
        {
          "indexed": true,
          "internalType": "bytes32",
          "name": "role",
          "type": "bytes32"
        },
        {
          "indexed": true,
          "internalType": "address",
          "name": "account",
          "type": "address"
        },
        {
          "indexed": true,
          "internalType": "address",
          "name": "sender",
          "type": "address"
        }
      ],
      "name": "RoleRevoked",
      "type": "event"
    },
    {
      "anonymous": false,
      "inputs": [
        {
          "indexed": true,
          "internalType": "bytes32",
          "name": "proposalID",
          "type": "bytes32"
        },
        {
          "indexed": true,
          "internalType": "address",
          "name": "proposer",
          "type": "address"
        },
        {
          "indexed": true,
          "internalType": "address",
          "name": "account",
          "type": "address"
        },
        {
          "indexed": false,
          "internalType": "bytes32",
          "name": "offchainID",
          "type": "bytes32"
        },
        {
          "indexed": false,
          "internalType": "bytes32",
          "name": "description",
          "type": "bytes32"
        }
      ],
      "name": "UnfreezeInvestmentProposalCreated",
      "type": "event"
    },
    {
      "anonymous": false,
      "inputs": [
        {
          "indexed": true,
          "internalType": "address",
          "name": "implementation",
          "type": "address"
        }
      ],
      "name": "Upgraded",
      "type": "event"
    },
    {
      "anonymous": false,
      "inputs": [
        {
          "indexed": true,
          "internalType": "address",
          "name": "voter",
          "type": "address"
        },
        {
          "indexed": true,
          "internalType": "bytes32",
          "name": "proposalId",
          "type": "bytes32"
        },
        {
          "indexed": false,
          "internalType": "enum IGovernorINN.VoteType",
          "name": "vote",
          "type": "uint8"
        },
        {
          "indexed": false,
          "internalType": "string",
          "name": "reason",
          "type": "string"
        }
      ],
      "name": "VoteCast",
      "type": "event"
    },
    {
      "inputs": [],
      "name": "ADMIN_ROLE",
      "outputs": [
        {
          "internalType": "bytes32",
          "name": "",
          "type": "bytes32"
        }
      ],
      "stateMutability": "view",
      "type": "function"
    },
    {
      "inputs": [],
      "name": "CONSENSUS_ROLE",
      "outputs": [
        {
          "internalType": "bytes32",
          "name": "",
          "type": "bytes32"
        }
      ],
      "stateMutability": "view",
      "type": "function"
    },
    {
      "inputs": [],
      "name": "DEFAULT_ADMIN_ROLE",
      "outputs": [
        {
          "internalType": "bytes32",
          "name": "",
          "type": "bytes32"
        }
      ],
      "stateMutability": "view",
      "type": "function"
    },
    {
      "inputs": [],
      "name": "FREEZE_ACCOUNT_SIGNATURE",
      "outputs": [
        {
          "internalType": "bytes4",
          "name": "",
          "type": "bytes4"
        }
      ],
      "stateMutability": "view",
      "type": "function"
    },
    {
      "inputs": [],
      "name": "TRANSFER_SIGNATURE",
      "outputs": [
        {
          "internalType": "bytes4",
          "name": "",
          "type": "bytes4"
        }
      ],
      "stateMutability": "view",
      "type": "function"
    },
    {
      "inputs": [],
      "name": "UNFREEZE_ACCOUNT_SIGNATURE",
      "outputs": [
        {
          "internalType": "bytes4",
          "name": "",
          "type": "bytes4"
        }
      ],
      "stateMutability": "view",
      "type": "function"
    },
    {
      "inputs": [
        {
          "internalType": "bytes32",
          "name": "proposalId",
          "type": "bytes32"
        },
        {
          "internalType": "string",
          "name": "reason",
          "type": "string"
        }
      ],
      "name": "cancel",
      "outputs": [
        {
          "internalType": "bool",
          "name": "",
          "type": "bool"
        }
      ],
      "stateMutability": "nonpayable",
      "type": "function"
    },
    {
      "inputs": [
        {
          "internalType": "string",
          "name": "reason",
          "type": "string"
        },
        {
          "internalType": "bytes32",
          "name": "proposalId",
          "type": "bytes32"
        },
        {
          "internalType": "enum IGovernorINN.VoteType",
          "name": "vote",
          "type": "uint8"
        }
      ],
      "name": "castVote",
      "outputs": [
        {
          "internalType": "bool",
          "name": "",
          "type": "bool"
        }
      ],
      "stateMutability": "nonpayable",
      "type": "function"
    },
    {
      "inputs": [
        {
          "internalType": "bytes32",
          "name": "proposalId",
          "type": "bytes32"
        }
      ],
      "name": "castVoteAdmin",
      "outputs": [
        {
          "internalType": "bool",
          "name": "",
          "type": "bool"
        }
      ],
      "stateMutability": "nonpayable",
      "type": "function"
    },
    {
      "inputs": [],
      "name": "commissionWallet",
      "outputs": [
        {
          "internalType": "address",
          "name": "",
          "type": "address"
        }
      ],
      "stateMutability": "view",
      "type": "function"
    },
    {
      "inputs": [
        {
          "internalType": "address",
          "name": "validator",
          "type": "address"
        }
      ],
      "name": "disableValidator",
      "outputs": [],
      "stateMutability": "nonpayable",
      "type": "function"
    },
    {
      "inputs": [
        {
          "internalType": "bytes32",
          "name": "proposalId",
          "type": "bytes32"
        }
      ],
      "name": "execute",
      "outputs": [
        {
          "internalType": "bool",
          "name": "",
          "type": "bool"
        }
      ],
      "stateMutability": "payable",
      "type": "function"
    },
    {
      "inputs": [
        {
          "internalType": "bytes32",
          "name": "role",
          "type": "bytes32"
        }
      ],
      "name": "getRoleAdmin",
      "outputs": [
        {
          "internalType": "bytes32",
          "name": "",
          "type": "bytes32"
        }
      ],
      "stateMutability": "view",
      "type": "function"
    },
    {
      "inputs": [
        {
          "internalType": "bytes32",
          "name": "role",
          "type": "bytes32"
        },
        {
          "internalType": "address",
          "name": "account",
          "type": "address"
        }
      ],
      "name": "grantRole",
      "outputs": [],
      "stateMutability": "nonpayable",
      "type": "function"
    },
    {
      "inputs": [
        {
          "internalType": "bytes32",
          "name": "role",
          "type": "bytes32"
        },
        {
          "internalType": "address",
          "name": "account",
          "type": "address"
        }
      ],
      "name": "hasRole",
      "outputs": [
        {
          "internalType": "bool",
          "name": "",
          "type": "bool"
        }
      ],
      "stateMutability": "view",
      "type": "function"
    },
    {
      "inputs": [
        {
          "internalType": "bytes32",
          "name": "proposalId",
          "type": "bytes32"
        },
        {
          "internalType": "address",
          "name": "account",
          "type": "address"
        }
      ],
      "name": "hasVoted",
      "outputs": [
        {
          "internalType": "bool",
          "name": "",
          "type": "bool"
        }
      ],
      "stateMutability": "view",
      "type": "function"
    },
    {
      "inputs": [
        {
          "internalType": "bytes32",
          "name": "offchainID",
          "type": "bytes32"
        },
        {
          "internalType": "bytes32",
          "name": "descriptionHash",
          "type": "bytes32"
        },
        {
          "internalType": "address",
          "name": "proposer",
          "type": "address"
        },
        {
          "internalType": "enum IGovernorINN.ProposalType",
          "name": "proposalType",
          "type": "uint8"
        },
        {
          "internalType": "enum IGovernorINN.ActionType",
          "name": "actionType",
          "type": "uint8"
        },
        {
          "internalType": "bytes",
          "name": "data",
          "type": "bytes"
        }
      ],
      "name": "hashProposal",
      "outputs": [
        {
          "internalType": "bytes32",
          "name": "",
          "type": "bytes32"
        }
      ],
      "stateMutability": "pure",
      "type": "function"
    },
    {
      "inputs": [
        {
          "internalType": "address",
          "name": "innTokenERC20",
          "type": "address"
        },
        {
          "internalType": "address",
          "name": "reservedEOA",
          "type": "address"
        },
        {
          "internalType": "address",
          "name": "commissionEOA",
          "type": "address"
        },
        {
          "internalType": "string",
          "name": "domainName",
          "type": "string"
        },
        {
          "internalType": "string",
          "name": "domainVersion",
          "type": "string"
        }
      ],
      "name": "initialize",
      "outputs": [],
      "stateMutability": "nonpayable",
      "type": "function"
    },
    {
      "inputs": [],
      "name": "innTokenAddress",
      "outputs": [
        {
          "internalType": "address",
          "name": "",
          "type": "address"
        }
      ],
      "stateMutability": "view",
      "type": "function"
    },
    {
      "inputs": [],
      "name": "isAdminFirstVote",
      "outputs": [
        {
          "internalType": "bool",
          "name": "",
          "type": "bool"
        }
      ],
      "stateMutability": "view",
      "type": "function"
    },
    {
      "inputs": [],
      "name": "isMigrationEnabled",
      "outputs": [
        {
          "internalType": "bool",
          "name": "",
          "type": "bool"
        }
      ],
      "stateMutability": "view",
      "type": "function"
    },
    {
      "inputs": [
        {
          "internalType": "address",
          "name": "addr",
          "type": "address"
        }
      ],
      "name": "isStartup",
      "outputs": [
        {
          "internalType": "bool",
          "name": "",
          "type": "bool"
        }
      ],
      "stateMutability": "view",
      "type": "function"
    },
    {
      "inputs": [
        {
          "internalType": "address",
          "name": "addr",
          "type": "address"
        }
      ],
      "name": "isValidator",
      "outputs": [
        {
          "internalType": "bool",
          "name": "",
          "type": "bool"
        }
      ],
      "stateMutability": "view",
      "type": "function"
    },
    {
      "inputs": [],
      "name": "name",
      "outputs": [
        {
          "internalType": "string",
          "name": "",
          "type": "string"
        }
      ],
      "stateMutability": "view",
      "type": "function"
    },
    {
      "inputs": [
        {
          "components": [
            {
              "internalType": "bytes32",
              "name": "offchainID",
              "type": "bytes32"
            },
            {
              "internalType": "enum IGovernorINN.ProposalType",
              "name": "proposalType",
              "type": "uint8"
            },
            {
              "internalType": "enum IGovernorINN.ActionType",
              "name": "actionType",
              "type": "uint8"
            },
            {
              "internalType": "string",
              "name": "description",
              "type": "string"
            },
            {
              "internalType": "bytes",
              "name": "data",
              "type": "bytes"
            }
          ],
          "internalType": "struct IGovernorINN.ProposalRequest",
          "name": "request",
          "type": "tuple"
        },
        {
          "internalType": "bytes",
          "name": "signature",
          "type": "bytes"
        }
      ],
      "name": "propose",
      "outputs": [
        {
          "internalType": "bytes32",
          "name": "",
          "type": "bytes32"
        }
      ],
      "stateMutability": "nonpayable",
      "type": "function"
    },
    {
      "inputs": [],
      "name": "proxiableUUID",
      "outputs": [
        {
          "internalType": "bytes32",
          "name": "",
          "type": "bytes32"
        }
      ],
      "stateMutability": "view",
      "type": "function"
    },
    {
      "inputs": [
        {
          "internalType": "bytes32",
          "name": "role",
          "type": "bytes32"
        },
        {
          "internalType": "address",
          "name": "account",
          "type": "address"
        }
      ],
      "name": "renounceRole",
      "outputs": [],
      "stateMutability": "nonpayable",
      "type": "function"
    },
    {
      "inputs": [],
      "name": "reservedWallet",
      "outputs": [
        {
          "internalType": "address",
          "name": "",
          "type": "address"
        }
      ],
      "stateMutability": "view",
      "type": "function"
    },
    {
      "inputs": [
        {
          "internalType": "bytes32",
          "name": "role",
          "type": "bytes32"
        },
        {
          "internalType": "address",
          "name": "account",
          "type": "address"
        }
      ],
      "name": "revokeRole",
      "outputs": [],
      "stateMutability": "nonpayable",
      "type": "function"
    },
    {
      "inputs": [
        {
          "internalType": "bool",
          "name": "migration",
          "type": "bool"
        }
      ],
      "name": "setMigration",
      "outputs": [],
      "stateMutability": "nonpayable",
      "type": "function"
    },
    {
      "inputs": [
        {
          "internalType": "uint256",
          "name": "delay",
          "type": "uint256"
        }
      ],
      "name": "setVotingDelay",
      "outputs": [],
      "stateMutability": "nonpayable",
      "type": "function"
    },
    {
      "inputs": [
        {
          "internalType": "uint256",
          "name": "period",
          "type": "uint256"
        }
      ],
      "name": "setVotingPeriod",
      "outputs": [],
      "stateMutability": "nonpayable",
      "type": "function"
    },
    {
      "inputs": [],
      "name": "startupCount",
      "outputs": [
        {
          "internalType": "uint32",
          "name": "",
          "type": "uint32"
        }
      ],
      "stateMutability": "view",
      "type": "function"
    },
    {
      "inputs": [
        {
          "internalType": "bytes32",
          "name": "proposalId",
          "type": "bytes32"
        }
      ],
      "name": "state",
      "outputs": [
        {
          "internalType": "enum IGovernorINN.ProposalState",
          "name": "",
          "type": "uint8"
        }
      ],
      "stateMutability": "view",
      "type": "function"
    },
    {
      "inputs": [
        {
          "internalType": "bytes4",
          "name": "interfaceId",
          "type": "bytes4"
        }
      ],
      "name": "supportsInterface",
      "outputs": [
        {
          "internalType": "bool",
          "name": "",
          "type": "bool"
        }
      ],
      "stateMutability": "view",
      "type": "function"
    },
    {
      "inputs": [
        {
          "internalType": "address",
          "name": "newImplementation",
          "type": "address"
        }
      ],
      "name": "upgradeTo",
      "outputs": [],
      "stateMutability": "nonpayable",
      "type": "function"
    },
    {
      "inputs": [
        {
          "internalType": "address",
          "name": "newImplementation",
          "type": "address"
        },
        {
          "internalType": "bytes",
          "name": "data",
          "type": "bytes"
        }
      ],
      "name": "upgradeToAndCall",
      "outputs": [],
      "stateMutability": "payable",
      "type": "function"
    },
    {
      "inputs": [],
      "name": "validatorCount",
      "outputs": [
        {
          "internalType": "uint32",
          "name": "",
          "type": "uint32"
        }
      ],
      "stateMutability": "view",
      "type": "function"
    },
    {
      "inputs": [],
      "name": "version",
      "outputs": [
        {
          "internalType": "string",
          "name": "",
          "type": "string"
        }
      ],
      "stateMutability": "view",
      "type": "function"
    },
    {
      "inputs": [],
      "name": "votingDelay",
      "outputs": [
        {
          "internalType": "uint256",
          "name": "",
          "type": "uint256"
        }
      ],
      "stateMutability": "view",
      "type": "function"
    },
    {
      "inputs": [],
      "name": "votingPeriod",
      "outputs": [
        {
          "internalType": "uint256",
          "name": "",
          "type": "uint256"
        }
      ],
      "stateMutability": "view",
      "type": "function"
    }
  ],
  "bytecode": "0x60a06040523060805234801561001457600080fd5b506080516150e861004c60003960008181610c1901528181610c5901528181610cf801528181610d380152610dc701526150e86000f3fe6080604052600436106102465760003560e01c806375b238fc11610139578063be5967ea116100b6578063e751f2711161007a578063e751f2711461073b578063ea0217cf1461074e578063f8c662ff1461076e578063fa2dabad1461078f578063facd743b146107c3578063ff666653146107e357600080fd5b8063be5967ea14610672578063c0e6d5d614610692578063c22ab4e0146106c6578063d547741f146106e7578063e0310e521461070757600080fd5b8063a217fddf116100fd578063a217fddf146105b0578063a5d79624146105c5578063aadc3b72146105e5578063afdf671014610605578063b7d6fe241461065257600080fd5b806375b238fc146104f55780637f1e250c1461051757806383b435891461053757806391d148541461055757806397c0262a1461057757600080fd5b806336568abe116101c757806352d1902d1161018b57806352d1902d1461045e57806354fd4d50146104735780635ae766f31461048857806361d585da146104a857806370b0f660146104d557600080fd5b806336568abe146103d35780633659cfe6146103f35780633932abb11461041357806341863ed6146104295780634f1ef2861461044b57600080fd5b8063248a9ca31161020e578063248a9ca31461031b57806325ce75861461034b5780632f2ff15d1461037157806330d9b7731461039157806333f3533b146103b157600080fd5b806301ffc9a71461024b57806302a251a31461028057806306fdde03146102a45780630f43a677146102c65780631fe97684146102f9575b600080fd5b34801561025757600080fd5b5061026b6102663660046142dc565b610803565b60405190151581526020015b60405180910390f35b34801561028c57600080fd5b5061029660ff5481565b604051908152602001610277565b3480156102b057600080fd5b506102b961083a565b604051610277919061435e565b3480156102d257600080fd5b50610105546102e49063ffffffff1681565b60405163ffffffff9091168152602001610277565b34801561030557600080fd5b50610319610314366004614386565b6108cd565b005b34801561032757600080fd5b506102966103363660046143a3565b600090815260c9602052604090206001015490565b34801561035757600080fd5b50610105546102e490640100000000900463ffffffff1681565b34801561037d57600080fd5b5061031961038c3660046143bc565b610a10565b34801561039d57600080fd5b5061026b6103ac3660046143a3565b610a3a565b3480156103bd57600080fd5b506101055461026b90600160401b900460ff1681565b3480156103df57600080fd5b506103196103ee3660046143bc565b610b91565b3480156103ff57600080fd5b5061031961040e366004614386565b610c0f565b34801561041f57600080fd5b5061029660fe5481565b34801561043557600080fd5b506101055461026b90600160481b900460ff1681565b6103196104593660046144d7565b610cee565b34801561046a57600080fd5b50610296610dba565b34801561047f57600080fd5b506102b9610e6d565b34801561049457600080fd5b5061026b6104a3366004614386565b610e7d565b3480156104b457600080fd5b506104c86104c33660046143a3565b610ee2565b604051610277919061453c565b3480156104e157600080fd5b506103196104f03660046143a3565b61103f565b34801561050157600080fd5b5061029660008051602061509383398151915281565b34801561052357600080fd5b50610319610532366004614564565b61105d565b34801561054357600080fd5b506103196105523660046145c2565b61109a565b34801561056357600080fd5b5061026b6105723660046143bc565b6111d8565b34801561058357600080fd5b5061010154610598906001600160a01b031681565b6040516001600160a01b039091168152602001610277565b3480156105bc57600080fd5b50610296600081565b3480156105d157600080fd5b5061026b6105e0366004614676565b611203565b3480156105f157600080fd5b5061026b6106003660046143bc565b6112f7565b34801561061157600080fd5b506106397ff26c159fd7d78f3848964c3adf4aea78577348fcb297db019bf8f5efbed0219581565b6040516001600160e01b03199091168152602001610277565b34801561065e57600080fd5b5061026b61066d3660046146d4565b611312565b34801561067e57600080fd5b5061029661068d366004614713565b6114e7565b34801561069e57600080fd5b506106397f53cc2fae7ecef069da76ae9063c3ecfa7f417173bc5191fe1bb037165d76473f81565b3480156106d257600080fd5b5061010054610598906001600160a01b031681565b3480156106f357600080fd5b506103196107023660046143bc565b611526565b34801561071357600080fd5b506106397f23b872dd7302113369cda2901243429419bec145408fa8b352b3dd92b66c680b81565b61026b6107493660046143a3565b61154b565b34801561075a57600080fd5b506103196107693660046143a3565b611645565b34801561077a57600080fd5b5061010254610598906001600160a01b031681565b34801561079b57600080fd5b506102967f36fd43ede163045b10e1f0abd16f62f165fce3fa7b6cde217bcea3bc47663acc81565b3480156107cf57600080fd5b5061026b6107de366004614386565b611663565b3480156107ef57600080fd5b506102966107fe366004614797565b611695565b60006001600160e01b03198216637965db0b60e01b148061083457506301ffc9a760e01b6001600160e01b03198316145b92915050565b6060610103805461084a90614870565b80601f016020809104026020016040519081016040528092919081815260200182805461087690614870565b80156108c35780601f10610898576101008083540402835291602001916108c3565b820191906000526020600020905b8154815290600101906020018083116108a657829003601f168201915b5050505050905090565b6000805160206150938339815191526108e581611ca3565b60016001600160a01b038316600090815260fb602052604090206001015460ff16600281111561091757610917614526565b14801561094657506001600160a01b038216600090815260fb6020526040902060010154610100900460ff1615155b6109ae5760405162461bcd60e51b815260206004820152602e60248201527f56616c696461746f723a206f6e6c792065786973742076616c696461746f722060448201526d63616e2062652064697361626c6560901b60648201526084015b60405180910390fd5b6001600160a01b038216600090815260fb602052604081206001908101805461ff00191690556101058054919290916109ee90849063ffffffff166148ba565b92506101000a81548163ffffffff021916908363ffffffff1602179055505050565b600082815260c96020526040902060010154610a2b81611ca3565b610a358383611cad565b505050565b6000600080516020615093833981519152610a5481611ca3565b61010554600160481b900460ff161515600114610ab35760405162461bcd60e51b815260206004820152601760248201527f61646d696e20616c7265616479206361737420766f746500000000000000000060448201526064016109a5565b600083815260fc60205260409020610ace6001820133611d33565b5083336001600160a01b03167fbbb255028c79dea070e4449c346283da7b4b66693776c096bb820822e4d9c41a6002604051610b0a91906148ef565b60405180910390a3600084815260fd6020526040902060068101805462ff00001916620100001790556001610b3e82611d48565b90508015610b725760405186907f7b1bcf1ccf901a11589afff5504d59fd0a53780eed2a952adade0348985139e090600090a25b610105805469ff00000000000000000019169055935050505b50919050565b6001600160a01b0381163314610c015760405162461bcd60e51b815260206004820152602f60248201527f416363657373436f6e74726f6c3a2063616e206f6e6c792072656e6f756e636560448201526e103937b632b9903337b91039b2b63360891b60648201526084016109a5565b610c0b82826124b4565b5050565b6001600160a01b037f0000000000000000000000000000000000000000000000000000000000000000163003610c575760405162461bcd60e51b81526004016109a590614910565b7f00000000000000000000000000000000000000000000000000000000000000006001600160a01b0316610ca060008051602061504c833981519152546001600160a01b031690565b6001600160a01b031614610cc65760405162461bcd60e51b81526004016109a59061495c565b610ccf8161251b565b60408051600080825260208201909252610ceb9183919061259f565b50565b6001600160a01b037f0000000000000000000000000000000000000000000000000000000000000000163003610d365760405162461bcd60e51b81526004016109a590614910565b7f00000000000000000000000000000000000000000000000000000000000000006001600160a01b0316610d7f60008051602061504c833981519152546001600160a01b031690565b6001600160a01b031614610da55760405162461bcd60e51b81526004016109a59061495c565b610dae8261251b565b610c0b8282600161259f565b6000306001600160a01b037f00000000000000000000000000000000000000000000000000000000000000001614610e5a5760405162461bcd60e51b815260206004820152603860248201527f555550535570677261646561626c653a206d757374206e6f742062652063616c60448201527f6c6564207468726f7567682064656c656761746563616c6c000000000000000060648201526084016109a5565b5060008051602061504c83398151915290565b6060610104805461084a90614870565b6001600160a01b038116600090815260fb6020526040812060010154610100900460ff168015610834575060025b6001600160a01b038316600090815260fb602052604090206001015460ff166002811115610edb57610edb614526565b1492915050565b600081815260fd6020526040812060018101548203610f3b5760405162461bcd60e51b81526020600482015260156024820152741c1c9bdc1bdcd85b1259081a5cc81a5b9d985b1a59605a1b60448201526064016109a5565b600681015462010000900460ff1615610f575750600792915050565b60068101546301000000900460ff1615610f745750600392915050565b604080516020810190915260048201546001600160401b031690819052421015610fa15750600192915050565b604080516020810190915260058201546001600160401b03169081905242108015610fd25750610fd08361270a565b155b15610fe05750600292915050565b604080516020810190915260058201546001600160401b0316815261100490612769565b8061101357506110138361270a565b156110365761102183612798565b61102c57600461102f565b60055b9392505050565b50600092915050565b60008051602061509383398151915261105781611ca3565b5060fe55565b60008051602061509383398151915261107581611ca3565b506101058054911515600160401b0268ff000000000000000019909216919091179055565b60006110a660016127ea565b905080156110be576000805461ff0019166101001790555b61010180546001600160a01b038089166001600160a01b03199283161790925561010080548a8416908316179055610105805467ffffffffffffffff191690556101028054928b1692909116919091179055600160fe5562093a8060ff5561112961010386866141cf565b5061113761010484846141cf565b50610105805469ffff00000000000000001916690101000000000000000017905561117060008051602061509383398151915233611cad565b61118860008051602061509383398151915280612877565b80156111ce576000805461ff0019169055604051600181527f7f26b83ff96e1f2b6a682f133852f6798a09c465da95921460cefb38474024989060200160405180910390a15b5050505050505050565b600091825260c9602090815260408084206001600160a01b0393909316845291905290205460ff1690565b33600090815260fb6020526040812060019081015460ff16600281111561122c5761122c614526565b148015611255575033600090815260fb60205260409020600190810154610100900460ff161515145b6112ac5760405162461bcd60e51b815260206004820152602260248201527f476f7665726e6f723a206f6e6c792076616c696461746f72207065726d697474604482015261195960f21b60648201526084016109a5565b6112ee83338488888080601f0160208091040260200160405190810160405280939291908181526020018383808284376000920191909152506128c292505050565b95945050505050565b600082815260fc6020526040812061102f9060010183612b5b565b600082815260fd60205260408120600301546001600160a01b031633146113875760405162461bcd60e51b815260206004820152602360248201527f476f7665726e6f72203a206f6e6c792070726f706f7365722063616e2063616e60448201526218d95b60ea1b60648201526084016109a5565b600061139284610ee2565b905060068160078111156113a8576113a8614526565b141580156113c8575060078160078111156113c5576113c5614526565b14155b6114145760405162461bcd60e51b815260206004820152601d60248201527f476f7665726e6f723a2070726f706f73616c206e6f742061637469766500000060448201526064016109a5565b600381600781111561142857611428614526565b036114815760405162461bcd60e51b815260206004820152602360248201527f476f7665726e6f723a2070726f706f73616c20616c72656164792063616e63656044820152621b195960ea1b60648201526084016109a5565b600084815260fd602052604090819020600601805463ff000000191663010000001790555184907fc3fe75bace7821ed95b8b37722a36dfb53bdf311befb9c378bed48a7db4062aa906114d590869061435e565b60405180910390a25060019392505050565b6000868686868686604051602001611504969594939291906149bc565b6040516020818303038152906040528051906020012090509695505050505050565b600082815260c9602052604090206001015461154181611ca3565b610a3583836124b4565b600060008051602061509383398151915261156581611ca3565b600061157084610ee2565b9050600581600781111561158657611586614526565b146115dd5760405162461bcd60e51b815260206004820152602160248201527f476f7665726e6f723a2070726f706f73616c206e6f74207375636365737366756044820152601b60fa1b60648201526084016109a5565b600084815260fd6020526040902060068101805462ff0000191662010000179055600161160982611d48565b905080156112ee5760405186907f7b1bcf1ccf901a11589afff5504d59fd0a53780eed2a952adade0348985139e090600090a295945050505050565b60008051602061509383398151915261165d81611ca3565b5060ff55565b6001600160a01b038116600090815260fb6020526040812060010154610100900460ff16801561083457506001610eab565b33600090815260fb6020526040812060019081015460ff1660028111156116be576116be614526565b1480156116e7575033600090815260fb60205260409020600190810154610100900460ff161515145b8061170b5750611705600080516020615093833981519152336111d8565b15156001145b61176e5760405162461bcd60e51b815260206004820152602e60248201527f476f7665726e6f723a206f6e6c792076616c696461746f72206f7220416d696e60448201526d0818d85b881c195c9b5a5d1d195960921b60648201526084016109a5565b60008360200151600381111561178657611786614526565b036117d35760405162461bcd60e51b815260206004820181905260248201527f70726f706f73616c20747970652073686f756c64206e6f74206265204e4f4e4560448201526064016109a5565b6000836040015160048111156117eb576117eb614526565b036118385760405162461bcd60e51b815260206004820152601e60248201527f616374696f6e20747970652073686f756c64206e6f74206265204e4f4e45000060448201526064016109a5565b8260800151516000036118885760405162461bcd60e51b8152602060048201526018602482015277646174612073686f756c64206e6f7420626520656d70747960401b60448201526064016109a5565b82516000036118d45760405162461bcd60e51b8152602060048201526018602482015277646174612073686f756c64206e6f7420626520656d70747960401b60448201526064016109a5565b6118ec600080516020615093833981519152336111d8565b1561195b5760018360200151600381111561190957611909614526565b146119565760405162461bcd60e51b815260206004820152601c60248201527f61646d696e2070726f706f7365206f6e6c792076616c696461746f720000000060448201526064016109a5565b6119cc565b60018360200151600381111561197357611973614526565b036119cc5760405162461bcd60e51b815260206004820152602360248201527f76616c696461746f7220636f75646e27742070726f706f73652076616c6964616044820152623a37b960e91b60648201526084016109a5565b600083606001516040516020016119e39190614a13565b6040516020818303038152906040528051906020012090506000611a21856000015183611a0d3390565b886020015189604001518a60800151612b7d565b90506000611a2e82612be2565b9050600080611a3d8388612c30565b90925090506000816004811115611a5657611a56614526565b14611a8c57806004811115611a6d57611a6d614526565b6040516364f17f0b60e01b815260ff90911660048201526024016109a5565b604051632474521560e21b815260008051602061509383398151915260048201526001600160a01b038316602482015230906391d1485490604401602060405180830381865afa158015611ae4573d6000803e3d6000fd5b505050506040513d601f19601f82011682018060405250810190611b089190614a2f565b611b605760405162461bcd60e51b815260206004820152602360248201527f70726f706f73616c206372656174696f6e207065726d697373696f6e2064656e6044820152621a595960ea1b60648201526084016109a5565b8751600090611b7f9087338c602001518d604001518e608001516114e7565b600081815260fd6020526040812082815560fe5492935091611ba19042614a4c565b9050600060ff5442611bb39190614a4c565b60048401805467ffffffffffffffff19166001600160401b038516179055905060058301805467ffffffffffffffff19166001600160401b038316179055600283018990558b51600180850191909155600380850180546001600160a01b0319163317905560208e01516006860180549193909260ff19909216918490811115611c3f57611c3f614526565b021790555060408c015160068401805461ff001916610100836004811115611c6957611c69614526565b021790555060808c01518051611c89916007860191602090910190614253565b50611c9383612c9e565b50919a9950505050505050505050565b610ceb81336137d1565b611cb782826111d8565b610c0b57600082815260c9602090815260408083206001600160a01b03851684529091529020805460ff19166001179055611cef3390565b6001600160a01b0316816001600160a01b0316837f2f8788117e7eff1d82e926ec794901d17c78024a50270940304540a733656f0d60405160405180910390a45050565b600061102f836001600160a01b038416613835565b6000600180600684015460ff166003811115611d6657611d66614526565b03611f145760016006840154610100900460ff166004811115611d8b57611d8b614526565b03611f0f576000836007018054611da190614870565b80601f0160208091040260200160405190810160405280929190818152602001828054611dcd90614870565b8015611e1a5780601f10611def57610100808354040283529160200191611e1a565b820191906000526020600020905b815481529060010190602001808311611dfd57829003601f168201915b5050505050806020019051810190611e329190614abc565b60408051606081019091528151815290915060208101600181526001602091820152828101516001600160a01b0316600090815260fb825260409020825180519192611e8392849290910190614253565b50602082015160018083018054909160ff1990911690836002811115611eab57611eab614526565b021790555060409190910151600191820180549115156101000261ff00199092169190911790556101058054600090611eeb90849063ffffffff16614b55565b92506101000a81548163ffffffff021916908363ffffffff16021790555060019150505b610834565b61010554600160401b900460ff16158015611f4757506002600684015460ff166003811115611f4557611f45614526565b145b156108345760016006840154610100900460ff166004811115611f6c57611f6c614526565b0361219c576000836007018054611f8290614870565b80601f0160208091040260200160405190810160405280929190818152602001828054611fae90614870565b8015611ffb5780601f10611fd057610100808354040283529160200191611ffb565b820191906000526020600020905b815481529060010190602001808311611fde57829003601f168201915b50505050508060200190518101906120139190614c10565b905081801561202f575061202f81604001518260200151613884565b915081801561206d575061010154602082015161206d916001600160a01b03169060649061205e906005614c44565b6120689190614c79565b613884565b915081801561209b57506003840154602082015161209b916001600160a01b03169061206890606490614c79565b91508180156120b757506120b784600001548260200151613984565b604080516060810190915282518152909250602081016002815260016020918201526040808401516001600160a01b0316600090815260fb83522082518051919261210792849290910190614253565b50602082015160018083018054909160ff199091169083600281111561212f5761212f614526565b021790555060409190910151600191820180549115156101000261ff0019909216919091179055610105805460049061217890849063ffffffff64010000000090910416614b55565b92506101000a81548163ffffffff021916908363ffffffff16021790555050610834565b60026006840154610100900460ff1660048111156121bc576121bc614526565b036123005760008360070180546121d290614870565b80601f01602080910402602001604051908101604052809291908181526020018280546121fe90614870565b801561224b5780601f106122205761010080835404028352916020019161224b565b820191906000526020600020905b81548152906001019060200180831161222e57829003601f168201915b50505050508060200190518101906122639190614c10565b905081801561227f575061227f81604001518260200151613884565b91508180156122ae57506101015460208201516122ae916001600160a01b03169060649061205e906005614c44565b91508180156122dc5750600384015460208201516122dc916001600160a01b03169061206890606490614c79565b91508180156122f857506122f884600001548260200151613984565b915050610834565b60036006840154610100900460ff16600481111561232057612320614526565b036123d657600083600701805461233690614870565b80601f016020809104026020016040519081016040528092919081815260200182805461236290614870565b80156123af5780601f10612384576101008083540402835291602001916123af565b820191906000526020600020905b81548152906001019060200180831161239257829003601f168201915b50505050508060200190518101906123c79190614cdc565b90506122f88160000151613a11565b60046006840154610100900460ff1660048111156123f6576123f6614526565b0361083457600083600701805461240c90614870565b80601f016020809104026020016040519081016040528092919081815260200182805461243890614870565b80156124855780601f1061245a57610100808354040283529160200191612485565b820191906000526020600020905b81548152906001019060200180831161246857829003601f168201915b505050505080602001905181019061249d9190614cdc565b90506124ac8160000151613aff565b949350505050565b6124be82826111d8565b15610c0b57600082815260c9602090815260408083206001600160a01b0385168085529252808320805460ff1916905551339285917ff6391f5c32d9c69d2a47ea670b442974b53935d1edc7fd64eb21e047a839171b9190a45050565b306391d14854600080516020615093833981519152336040516001600160e01b031960e085901b16815260048101929092526001600160a01b03166024820152604401602060405180830381865afa15801561257b573d6000803e3d6000fd5b505050506040513d601f19601f82011682018060405250810190610c0b9190614a2f565b7f4910fdfa16fed3260ed0e7147f7cc6da11a60208b5b9406d12a635614ffd91435460ff16156125d257610a3583613bed565b826001600160a01b03166352d1902d6040518163ffffffff1660e01b8152600401602060405180830381865afa92505050801561262c575060408051601f3d908101601f1916820190925261262991810190614cf8565b60015b61268f5760405162461bcd60e51b815260206004820152602e60248201527f45524331393637557067726164653a206e657720696d706c656d656e7461746960448201526d6f6e206973206e6f74205555505360901b60648201526084016109a5565b60008051602061504c83398151915281146126fe5760405162461bcd60e51b815260206004820152602960248201527f45524331393637557067726164653a20756e737570706f727465642070726f786044820152681a58589b195555525160ba1b60648201526084016109a5565b50610a35838383613c89565b600081815260fc6020526040812080546001600160401b03600160801b82048116916127419180821691600160401b900416614a4c565b61274b9190614a4c565b6101055463ffffffff166001600160401b0391909116149392505050565b600061277e82516001600160401b0316151590565b801561083457505051426001600160401b03909116111590565b600081815260fc60205260408120610105546127bc9060029063ffffffff16614d11565b6127c7906001614b55565b905463ffffffff909116600160401b9091046001600160401b0316101592915050565b60008054610100900460ff1615612831578160ff16600114801561280d5750303b155b6128295760405162461bcd60e51b81526004016109a590614d34565b506000919050565b60005460ff8084169116106128585760405162461bcd60e51b81526004016109a590614d34565b506000805460ff191660ff92909216919091179055600190565b919050565b600082815260c96020526040808220600101805490849055905190918391839186917fbd79b86ffe0ab8e8776151514217cd7cacd52c909f66475c3af44e129f0b00ff9190a4505050565b6000808360038111156128d7576128d7614526565b0361291d5760405162461bcd60e51b815260206004820152601660248201527511dbdd995c9b9bdc8e881d9bdd19481a5b9d985b1a5960521b60448201526064016109a5565b600261292886610ee2565b600781111561293957612939614526565b146129945760405162461bcd60e51b815260206004820152602560248201527f476f7665726e6f723a2070726f706f73616c2063757272656e746c7920696e61604482015264637469766560d81b60648201526084016109a5565b600085815260fc602052604090206129af6001820186612b5b565b156129fc5760405162461bcd60e51b815260206004820152601b60248201527f476f7665726e6f723a20766f746520616c72656164792063617374000000000060448201526064016109a5565b612a096001820186611d33565b506001846003811115612a1e57612a1e614526565b03612a6a5780546001908290600090612a419084906001600160401b0316614a4c565b92506101000a8154816001600160401b0302191690836001600160401b03160217905550612b0b565b6002846003811115612a7e57612a7e614526565b03612aa85780546001908290600890612a41908490600160401b90046001600160401b0316614a4c565b6003846003811115612abc57612abc614526565b03612b0b5780546001908290601090612ae6908490600160801b90046001600160401b0316614a4c565b92506101000a8154816001600160401b0302191690836001600160401b031602179055505b85856001600160a01b03167fbbb255028c79dea070e4449c346283da7b4b66693776c096bb820822e4d9c41a8686604051612b47929190614d82565b60405180910390a350600195945050505050565b6001600160a01b0381166000908152600183016020526040812054151561102f565b60007ff1d23bd7ede3e157b19af9bdc7f9f08c55104d948e791ad0900a92e0a680c3a2878787878787604051602001612bb69190614a13565b604051602081830303815290604052805190602001206040516020016115049796959493929190614da4565b6000610834612bef613cb4565b8360405161190160f01b6020820152602281018390526042810182905260009060620160405160208183030381529060405280519060200120905092915050565b6000808251604103612c665760208301516040840151606085015160001a612c5a87828585613d6a565b94509450505050612c97565b8251604003612c8f5760208301516040840151612c84868383613e57565b935093505050612c97565b506000905060025b9250929050565b6001600682015460ff166003811115612cb957612cb9614526565b03612f335760016006820154610100900460ff166004811115612cde57612cde614526565b03610ceb576000816007018054612cf490614870565b80601f0160208091040260200160405190810160405280929190818152602001828054612d2090614870565b8015612d6d5780601f10612d4257610100808354040283529160200191612d6d565b820191906000526020600020905b815481529060010190602001808311612d5057829003601f168201915b5050505050806020019051810190612d859190614abc565b60208101519091506001600160a01b0316612dee5760405162461bcd60e51b8152602060048201526024808201527f76616c696461746f7220616464726573732073686f756c64206e6f74206265206044820152637a65726f60e01b60648201526084016109a5565b805151600003612e4b5760405162461bcd60e51b815260206004820152602260248201527f76616c696461746f72206e616d652073686f756c64206e6f7420626520656d70604482015261747960f01b60648201526084016109a5565b6020818101516001600160a01b0316600090815260fb909152604081206001015460ff166002811115612e8057612e80614526565b14612ecd5760405162461bcd60e51b815260206004820152601b60248201527f76616c696461746f72454f4120616c726561647920657869737473000000000060448201526064016109a5565b6020810151600383015483546001850154600286015485516040516001600160a01b0396871696909516947f3b993e041d591ea59a38f6cff579df5e8d6c2d1fed74305dfbb114336c41bdfd93612f279390929091614df6565b60405180910390a45050565b6002600682015460ff166003811115612f4e57612f4e614526565b036137b65760016006820154610100900460ff166004811115612f7357612f73614526565b036131fd576000816007018054612f8990614870565b80601f0160208091040260200160405190810160405280929190818152602001828054612fb590614870565b80156130025780601f10612fd757610100808354040283529160200191613002565b820191906000526020600020905b815481529060010190602001808311612fe557829003601f168201915b505050505080602001905181019061301a9190614c10565b80515190915060000361306f5760405162461bcd60e51b815260206004820181905260248201527f73746172747570206e616d652073686f756c64206e6f7420626520656d70747960448201526064016109a5565b80602001516000036130935760405162461bcd60e51b81526004016109a590614e15565b806060015161ffff166000036130bb5760405162461bcd60e51b81526004016109a590614e5b565b60408101516001600160a01b03166131155760405162461bcd60e51b815260206004820152601e60248201527f7374617274757020454f412073686f756c64206e6f74206265207a65726f000060448201526064016109a5565b60006040808301516001600160a01b0316600090815260fb602052206001015460ff16600281111561314957613149614526565b146131965760405162461bcd60e51b815260206004820152601960248201527f73746172747570454f4120616c7265616479206578697374730000000000000060448201526064016109a5565b604081810151600384015484546020850151600187015460028801548751606089015197516001600160a01b0397881698979096169694957fa3d1a39a550977baa46ea2634b05f5eb5993c2422417ce8c7139b39635a2a08c95612f279594939291614ea2565b60026006820154610100900460ff16600481111561321d5761321d614526565b036134a757600081600701805461323390614870565b80601f016020809104026020016040519081016040528092919081815260200182805461325f90614870565b80156132ac5780601f10613281576101008083540402835291602001916132ac565b820191906000526020600020905b81548152906001019060200180831161328f57829003601f168201915b50505050508060200190518101906132c49190614c10565b8051519091506000036133195760405162461bcd60e51b815260206004820181905260248201527f73746172747570206e616d652073686f756c64206e6f7420626520656d70747960448201526064016109a5565b806020015160000361333d5760405162461bcd60e51b81526004016109a590614e15565b806060015161ffff166000036133655760405162461bcd60e51b81526004016109a590614e5b565b60408101516001600160a01b03166133bf5760405162461bcd60e51b815260206004820181905260248201527f76616c696461746f7220454f412073686f756c64206e6f74206265207a65726f60448201526064016109a5565b60016040808301516001600160a01b0316600090815260fb602052206001015460ff1660028111156133f3576133f3614526565b146134405760405162461bcd60e51b815260206004820152601b60248201527f76616c696461746f72454f4120646f65736e277420657869737473000000000060448201526064016109a5565b604081810151600384015484546020850151600187015460028801548751606089015197516001600160a01b0397881698979096169694957fb58c12647c60f8966538bcfa6bf6b815477288bcbcbd80c2ac8ad7c23115a2d995612f279594939291614ea2565b60036006820154610100900460ff1660048111156134c7576134c7614526565b0361362e5760008160070180546134dd90614870565b80601f016020809104026020016040519081016040528092919081815260200182805461350990614870565b80156135565780601f1061352b57610100808354040283529160200191613556565b820191906000526020600020905b81548152906001019060200180831161353957829003601f168201915b505050505080602001905181019061356e9190614cdc565b80519091506001600160a01b03166135d35760405162461bcd60e51b815260206004820152602260248201527f467265657a653a206163636f756e742073686f756c64206e6f74206265207a65604482015261726f60f01b60648201526084016109a5565b805160038301548354600185015460028601546040516001600160a01b039586169594909416937f6c344b5a99d701e380e4f74eb042f15449b77f4657a647b82e9a5b223798bf1c92612f2792908252602082015260400190565b60046006820154610100900460ff16600481111561364e5761364e614526565b03610ceb57600081600701805461366490614870565b80601f016020809104026020016040519081016040528092919081815260200182805461369090614870565b80156136dd5780601f106136b2576101008083540402835291602001916136dd565b820191906000526020600020905b8154815290600101906020018083116136c057829003601f168201915b50505050508060200190518101906136f59190614cdc565b80519091506001600160a01b031661375b5760405162461bcd60e51b8152602060048201526024808201527f556e667265657a653a206163636f756e742073686f756c64206e6f74206265206044820152637a65726f60e01b60648201526084016109a5565b805160038301548354600185015460028601546040516001600160a01b039586169594909416937f5b0256ffeae05aba51e2c5f936a5ab3668280f92904d8098fc46d79e2ec5dbfa92612f2792908252602082015260400190565b6003600682015460ff166003811115610a3557610a35614526565b6137db82826111d8565b610c0b576137f3816001600160a01b03166014613e90565b6137fe836020613e90565b60405160200161380f929190614edd565b60408051601f198184030181529082905262461bcd60e51b82526109a59160040161435e565b600081815260018301602052604081205461387c57508154600181810184556000848152602080822090930184905584548482528286019093526040902091909155610834565b506000610834565b61010054604080516001600160a01b0392831660248201528483166044820152606480820185905282518083039091018152608490910182526020810180516001600160e01b03166323b872dd60e01b1790526101025491516000939192849216906138f1908490614a13565b6000604051808303816000865af19150503d806000811461392e576040519150601f19603f3d011682016040523d82523d6000602084013e613933565b606091505b50509050806124ac5760405162461bcd60e51b815260206004820152601a60248201527f457865637574653a207472616e73666572206661696c6573212000000000000060448201526064016109a5565b600082815260fc602052604081208161399f6001830161402b565b905060008160646139b1876002614c44565b6139bb9190614c79565b6139c59190614c79565b9050600160005b83811015613a06578180156139f257506139f26139ec6001870183614035565b84613884565b9150806139fe81614f52565b9150506139cc565b509695505050505050565b604080516001600160a01b0383811660248084019190915283518084039091018152604490920183526020820180516001600160e01b031663f26c159f60e01b17905261010254925160009384921690613a6c908490614a13565b6000604051808303816000865af19150503d8060008114613aa9576040519150601f19603f3d011682016040523d82523d6000602084013e613aae565b606091505b505090508061102f5760405162461bcd60e51b815260206004820152601e60248201527f457865637574653a20667265657a65206163636f756e74206661696c6564000060448201526064016109a5565b604080516001600160a01b0383811660248084019190915283518084039091018152604490920183526020820180516001600160e01b03166329e617d760e11b17905261010254925160009384921690613b5a908490614a13565b6000604051808303816000865af19150503d8060008114613b97576040519150601f19603f3d011682016040523d82523d6000602084013e613b9c565b606091505b505090508061102f5760405162461bcd60e51b815260206004820181905260248201527f457865637574653a20556e667265657a65206163636f756e74206661696c656460448201526064016109a5565b6001600160a01b0381163b613c5a5760405162461bcd60e51b815260206004820152602d60248201527f455243313936373a206e657720696d706c656d656e746174696f6e206973206e60448201526c1bdd08184818dbdb9d1c9858dd609a1b60648201526084016109a5565b60008051602061504c83398151915280546001600160a01b0319166001600160a01b0392909216919091179055565b613c9283614041565b600082511180613c9f5750805b15610a3557613cae8383614081565b50505050565b60007f8b73c3c69bb8fe3d512ecc4cf759cc79239f7b179b0ffacaa9a75d522b39400f610103604051602001613cea9190614f6b565b60405160208183030381529060405280519060200120610104604051602001613d139190614f6b565b60408051601f1981840301815282825280516020918201209083019490945281019190915260608101919091524660808201523060a082015260c00160405160208183030381529060405280519060200120905090565b6000807f7fffffffffffffffffffffffffffffff5d576e7357a4501ddfe92f46681b20a0831115613da15750600090506003613e4e565b8460ff16601b14158015613db957508460ff16601c14155b15613dca5750600090506004613e4e565b6040805160008082526020820180845289905260ff881692820192909252606081018690526080810185905260019060a0016020604051602081039080840390855afa158015613e1e573d6000803e3d6000fd5b5050604051601f1901519150506001600160a01b038116613e4757600060019250925050613e4e565b9150600090505b94509492505050565b6000806001600160ff1b03831681613e7460ff86901c601b615006565b9050613e8287828885613d6a565b935093505050935093915050565b60606000613e9f836002614c44565b613eaa906002615006565b6001600160401b03811115613ec157613ec16143ec565b6040519080825280601f01601f191660200182016040528015613eeb576020820181803683370190505b509050600360fc1b81600081518110613f0657613f0661501e565b60200101906001600160f81b031916908160001a905350600f60fb1b81600181518110613f3557613f3561501e565b60200101906001600160f81b031916908160001a9053506000613f59846002614c44565b613f64906001615006565b90505b6001811115613fdc576f181899199a1a9b1b9c1cb0b131b232b360811b85600f1660108110613f9857613f9861501e565b1a60f81b828281518110613fae57613fae61501e565b60200101906001600160f81b031916908160001a90535060049490941c93613fd581615034565b9050613f67565b50831561102f5760405162461bcd60e51b815260206004820181905260248201527f537472696e67733a20686578206c656e67746820696e73756666696369656e7460448201526064016109a5565b6000610834825490565b600061102f838361416c565b61404a81613bed565b6040516001600160a01b038216907fbc7cd75a20ee27fd9adebab32041f755214dbc6bffa90cc0225b39da2e5c2d3b90600090a250565b60606001600160a01b0383163b6140e95760405162461bcd60e51b815260206004820152602660248201527f416464726573733a2064656c65676174652063616c6c20746f206e6f6e2d636f6044820152651b9d1c9858dd60d21b60648201526084016109a5565b600080846001600160a01b0316846040516141049190614a13565b600060405180830381855af49150503d806000811461413f576040519150601f19603f3d011682016040523d82523d6000602084013e614144565b606091505b50915091506112ee828260405180606001604052806027815260200161506c60279139614196565b60008260000182815481106141835761418361501e565b9060005260206000200154905092915050565b606083156141a557508161102f565b8251156141b55782518084602001fd5b8160405162461bcd60e51b81526004016109a5919061435e565b8280546141db90614870565b90600052602060002090601f0160209004810192826141fd5760008555614243565b82601f106142165782800160ff19823516178555614243565b82800160010185558215614243579182015b82811115614243578235825591602001919060010190614228565b5061424f9291506142c7565b5090565b82805461425f90614870565b90600052602060002090601f0160209004810192826142815760008555614243565b82601f1061429a57805160ff1916838001178555614243565b82800160010185558215614243579182015b828111156142435782518255916020019190600101906142ac565b5b8082111561424f57600081556001016142c8565b6000602082840312156142ee57600080fd5b81356001600160e01b03198116811461102f57600080fd5b60005b83811015614321578181015183820152602001614309565b83811115613cae5750506000910152565b6000815180845261434a816020860160208601614306565b601f01601f19169290920160200192915050565b60208152600061102f6020830184614332565b6001600160a01b0381168114610ceb57600080fd5b60006020828403121561439857600080fd5b813561102f81614371565b6000602082840312156143b557600080fd5b5035919050565b600080604083850312156143cf57600080fd5b8235915060208301356143e181614371565b809150509250929050565b634e487b7160e01b600052604160045260246000fd5b60405160a081016001600160401b0381118282101715614424576144246143ec565b60405290565b604051601f8201601f191681016001600160401b0381118282101715614452576144526143ec565b604052919050565b60006001600160401b03821115614473576144736143ec565b50601f01601f191660200190565b600082601f83011261449257600080fd5b81356144a56144a08261445a565b61442a565b8181528460208386010111156144ba57600080fd5b816020850160208301376000918101602001919091529392505050565b600080604083850312156144ea57600080fd5b82356144f581614371565b915060208301356001600160401b0381111561451057600080fd5b61451c85828601614481565b9150509250929050565b634e487b7160e01b600052602160045260246000fd5b602081016008831061455057614550614526565b91905290565b8015158114610ceb57600080fd5b60006020828403121561457657600080fd5b813561102f81614556565b60008083601f84011261459357600080fd5b5081356001600160401b038111156145aa57600080fd5b602083019150836020828501011115612c9757600080fd5b600080600080600080600060a0888a0312156145dd57600080fd5b87356145e881614371565b965060208801356145f881614371565b9550604088013561460881614371565b945060608801356001600160401b038082111561462457600080fd5b6146308b838c01614581565b909650945060808a013591508082111561464957600080fd5b506146568a828b01614581565b989b979a50959850939692959293505050565b60048110610ceb57600080fd5b6000806000806060858703121561468c57600080fd5b84356001600160401b038111156146a257600080fd5b6146ae87828801614581565b9095509350506020850135915060408501356146c981614669565b939692955090935050565b600080604083850312156146e757600080fd5b8235915060208301356001600160401b0381111561451057600080fd5b80356005811061287257600080fd5b60008060008060008060c0878903121561472c57600080fd5b8635955060208701359450604087013561474581614371565b9350606087013561475581614669565b925061476360808801614704565b915060a08701356001600160401b0381111561477e57600080fd5b61478a89828a01614481565b9150509295509295509295565b600080604083850312156147aa57600080fd5b82356001600160401b03808211156147c157600080fd5b9084019060a082870312156147d557600080fd5b6147dd614402565b8235815260208301356147ef81614669565b602082015261480060408401614704565b604082015260608301358281111561481757600080fd5b61482388828601614481565b60608301525060808301358281111561483b57600080fd5b61484788828601614481565b6080830152509350602085013591508082111561486357600080fd5b5061451c85828601614481565b600181811c9082168061488457607f821691505b602082108103610b8b57634e487b7160e01b600052602260045260246000fd5b634e487b7160e01b600052601160045260246000fd5b600063ffffffff838116908316818110156148d7576148d76148a4565b039392505050565b60048110610ceb57610ceb614526565b6148f8826148df565b90815260406020820181905260009082015260600190565b6020808252602c908201527f46756e6374696f6e206d7573742062652063616c6c6564207468726f7567682060408201526b19195b1959d85d1958d85b1b60a21b606082015260800190565b6020808252602c908201527f46756e6374696f6e206d7573742062652063616c6c6564207468726f7567682060408201526b6163746976652070726f787960a01b606082015260800190565b600581106149b8576149b8614526565b9052565b868152602081018690526001600160a01b03851660408201526149de846148df565b8360608201526149f160808201846149a8565b60c060a08201526000614a0760c0830184614332565b98975050505050505050565b60008251614a25818460208701614306565b9190910192915050565b600060208284031215614a4157600080fd5b815161102f81614556565b60006001600160401b03808316818516808303821115614a6e57614a6e6148a4565b01949350505050565b600082601f830112614a8857600080fd5b8151614a966144a08261445a565b818152846020838601011115614aab57600080fd5b6124ac826020830160208701614306565b600060208284031215614ace57600080fd5b81516001600160401b0380821115614ae557600080fd5b9083019060408286031215614af957600080fd5b604051604081018181108382111715614b1457614b146143ec565b604052825182811115614b2657600080fd5b614b3287828601614a77565b82525060208301519250614b4583614371565b6020810192909252509392505050565b600063ffffffff808316818516808303821115614a6e57614a6e6148a4565b600060808284031215614b8657600080fd5b604051608081016001600160401b038282108183111715614ba957614ba96143ec565b816040528293508451915080821115614bc157600080fd5b50614bce85828601614a77565b825250602083015160208201526040830151614be981614371565b6040820152606083015161ffff81168114614c0357600080fd5b6060919091015292915050565b600060208284031215614c2257600080fd5b81516001600160401b03811115614c3857600080fd5b6124ac84828501614b74565b6000816000190483118215151615614c5e57614c5e6148a4565b500290565b634e487b7160e01b600052601260045260246000fd5b600082614c8857614c88614c63565b500490565b600060208284031215614c9f57600080fd5b604051602081018181106001600160401b0382111715614cc157614cc16143ec565b80604052508091508251614cd481614371565b905292915050565b600060208284031215614cee57600080fd5b61102f8383614c8d565b600060208284031215614d0a57600080fd5b5051919050565b600063ffffffff80841680614d2857614d28614c63565b92169190910492915050565b6020808252602e908201527f496e697469616c697a61626c653a20636f6e747261637420697320616c72656160408201526d191e481a5b9a5d1a585b1a5e995960921b606082015260800190565b614d8b836148df565b8281526040602082015260006124ac6040830184614332565b87815260208101879052604081018690526001600160a01b038516606082015260e08101614dd1856148df565b846080830152614de460a08301856149a8565b8260c083015298975050505050505050565b8381528260208201526060604082015260006112ee6060830184614332565b60208082526026908201527f7374617274757020746f6b656e206f666665722073686f756c64206e6f74206260408201526565207a65726f60d01b606082015260800190565b60208082526027908201527f7374617274757020736861726564207374616b652073686f756c64206e6f74206040820152666265207a65726f60c81b606082015260800190565b85815284602082015283604082015260a060608201526000614ec760a0830185614332565b905061ffff831660808301529695505050505050565b7f416363657373436f6e74726f6c3a206163636f756e7420000000000000000000815260008351614f15816017850160208801614306565b7001034b99036b4b9b9b4b733903937b6329607d1b6017918401918201528351614f46816028840160208801614306565b01602801949350505050565b600060018201614f6457614f646148a4565b5060010190565b600080835481600182811c915080831680614f8757607f831692505b60208084108203614fa657634e487b7160e01b86526022600452602486fd5b818015614fba5760018114614fcb57614ff8565b60ff19861689528489019650614ff8565b60008a81526020902060005b86811015614ff05781548b820152908501908301614fd7565b505084890196505b509498975050505050505050565b60008219821115615019576150196148a4565b500190565b634e487b7160e01b600052603260045260246000fd5b600081615043576150436148a4565b50600019019056fe360894a13ba1a3210667c828492db98dca3e2076cc3735a920a3ca505d382bbc416464726573733a206c6f772d6c6576656c2064656c65676174652063616c6c206661696c6564a49807205ce4d355092ef5a8a18f56e8913cf4a201fbe287825b095693c21775a2646970667358221220f9ebc724274fd3c52ad3b3778b489b9f163d54591be39648cbe71735d63a7df764736f6c634300080e0033",
  "linkReferences": {},
  "deployedLinkReferences": {},
  "devdoc": {
    "kind": "dev",
    "methods": {
      "cancel(bytes32,string)": {
        "details": "Cancel a proposal. Cancels a proposal only if sender is the proposer. We need to decide to conditions of consensus cancelation Emits a {ProposalCanceled} event."
      },
      "castVote(string,bytes32,uint8)": {
        "details": "Cast a vote Emits a {VoteCast} event."
      },
      "castVoteAdmin(bytes32)": {
        "details": "Cast a vote Emits a {VoteCast} event."
      },
      "disableValidator(address)": {
        "details": "disableValidator\""
      },
      "execute(bytes32)": {
        "details": "Execute a successful proposal. This requires the quorum to be reached, the vote to be successful, and the deadline to be reached. Emits a {ProposalExecuted} event."
      },
      "getRoleAdmin(bytes32)": {
        "details": "Returns the admin role that controls `role`. See {grantRole} and {revokeRole}. To change a role's admin, use {_setRoleAdmin}."
      },
      "grantRole(bytes32,address)": {
        "details": "Grants `role` to `account`. If `account` had not been already granted `role`, emits a {RoleGranted} event. Requirements: - the caller must have ``role``'s admin role."
      },
      "hasRole(bytes32,address)": {
        "details": "Returns `true` if `account` has been granted `role`."
      },
      "hasVoted(bytes32,address)": {
        "details": "Returns weither `account` has cast a vote on `proposalId`."
      },
      "hashProposal(bytes32,bytes32,address,uint8,uint8,bytes)": {
        "details": "Hashing function used to (re)build the proposal id from the proposal ..."
      },
      "isStartup(address)": {
        "details": "isStartup"
      },
      "isValidator(address)": {
        "details": "isValidator"
      },
      "name()": {
        "details": "Name of the governor instance (used in building the ERC712 domain separator)."
      },
      "proxiableUUID()": {
        "details": "Implementation of the ERC1822 {proxiableUUID} function. This returns the storage slot used by the implementation. It is used to validate that the this implementation remains valid after an upgrade. IMPORTANT: A proxy pointing at a proxiable contract should not be considered proxiable itself, because this risks bricking a proxy that upgrades to it, by delegating to itself until out of gas. Thus it is critical that this function revert if invoked through a proxy. This is guaranteed by the `notDelegated` modifier."
      },
      "renounceRole(bytes32,address)": {
        "details": "Revokes `role` from the calling account. Roles are often managed via {grantRole} and {revokeRole}: this function's purpose is to provide a mechanism for accounts to lose their privileges if they are compromised (such as when a trusted device is misplaced). If the calling account had been revoked `role`, emits a {RoleRevoked} event. Requirements: - the caller must be `account`."
      },
      "revokeRole(bytes32,address)": {
        "details": "Revokes `role` from `account`. If `account` had been granted `role`, emits a {RoleRevoked} event. Requirements: - the caller must have ``role``'s admin role."
      },
      "state(bytes32)": {
        "details": "See {IGovernor-state}. need to change the state machine"
      },
      "supportsInterface(bytes4)": {
        "details": "See {IERC165-supportsInterface}."
      },
      "upgradeTo(address)": {
        "details": "Upgrade the implementation of the proxy to `newImplementation`. Calls {_authorizeUpgrade}. Emits an {Upgraded} event."
      },
      "upgradeToAndCall(address,bytes)": {
        "details": "Upgrade the implementation of the proxy to `newImplementation`, and subsequently execute the function call encoded in `data`. Calls {_authorizeUpgrade}. Emits an {Upgraded} event."
      },
      "version()": {
        "details": "Version of the governor instance (used in building the ERC712 domain separator). Default: \"1\""
      }
    },
    "version": 1
  },
  "evm": {
    "bytecode": {
      "linkReferences": {},
      "opcodes": "PUSH1 0xA0 PUSH1 0x40 MSTORE ADDRESS PUSH1 0x80 MSTORE CALLVALUE DUP1 ISZERO PUSH2 0x14 JUMPI PUSH1 0x0 DUP1 REVERT JUMPDEST POP PUSH1 0x80 MLOAD PUSH2 0x50E8 PUSH2 0x4C PUSH1 0x0 CODECOPY PUSH1 0x0 DUP2 DUP2 PUSH2 0xC19 ADD MSTORE DUP2 DUP2 PUSH2 0xC59 ADD MSTORE DUP2 DUP2 PUSH2 0xCF8 ADD MSTORE DUP2 DUP2 PUSH2 0xD38 ADD MSTORE PUSH2 0xDC7 ADD MSTORE PUSH2 0x50E8 PUSH1 0x0 RETURN INVALID PUSH1 0x80 PUSH1 0x40 MSTORE PUSH1 0x4 CALLDATASIZE LT PUSH2 0x246 JUMPI PUSH1 0x0 CALLDATALOAD PUSH1 0xE0 SHR DUP1 PUSH4 0x75B238FC GT PUSH2 0x139 JUMPI DUP1 PUSH4 0xBE5967EA GT PUSH2 0xB6 JUMPI DUP1 PUSH4 0xE751F271 GT PUSH2 0x7A JUMPI DUP1 PUSH4 0xE751F271 EQ PUSH2 0x73B JUMPI DUP1 PUSH4 0xEA0217CF EQ PUSH2 0x74E JUMPI DUP1 PUSH4 0xF8C662FF EQ PUSH2 0x76E JUMPI DUP1 PUSH4 0xFA2DABAD EQ PUSH2 0x78F JUMPI DUP1 PUSH4 0xFACD743B EQ PUSH2 0x7C3 JUMPI DUP1 PUSH4 0xFF666653 EQ PUSH2 0x7E3 JUMPI PUSH1 0x0 DUP1 REVERT JUMPDEST DUP1 PUSH4 0xBE5967EA EQ PUSH2 0x672 JUMPI DUP1 PUSH4 0xC0E6D5D6 EQ PUSH2 0x692 JUMPI DUP1 PUSH4 0xC22AB4E0 EQ PUSH2 0x6C6 JUMPI DUP1 PUSH4 0xD547741F EQ PUSH2 0x6E7 JUMPI DUP1 PUSH4 0xE0310E52 EQ PUSH2 0x707 JUMPI PUSH1 0x0 DUP1 REVERT JUMPDEST DUP1 PUSH4 0xA217FDDF GT PUSH2 0xFD JUMPI DUP1 PUSH4 0xA217FDDF EQ PUSH2 0x5B0 JUMPI DUP1 PUSH4 0xA5D79624 EQ PUSH2 0x5C5 JUMPI DUP1 PUSH4 0xAADC3B72 EQ PUSH2 0x5E5 JUMPI DUP1 PUSH4 0xAFDF6710 EQ PUSH2 0x605 JUMPI DUP1 PUSH4 0xB7D6FE24 EQ PUSH2 0x652 JUMPI PUSH1 0x0 DUP1 REVERT JUMPDEST DUP1 PUSH4 0x75B238FC EQ PUSH2 0x4F5 JUMPI DUP1 PUSH4 0x7F1E250C EQ PUSH2 0x517 JUMPI DUP1 PUSH4 0x83B43589 EQ PUSH2 0x537 JUMPI DUP1 PUSH4 0x91D14854 EQ PUSH2 0x557 JUMPI DUP1 PUSH4 0x97C0262A EQ PUSH2 0x577 JUMPI PUSH1 0x0 DUP1 REVERT JUMPDEST DUP1 PUSH4 0x36568ABE GT PUSH2 0x1C7 JUMPI DUP1 PUSH4 0x52D1902D GT PUSH2 0x18B JUMPI DUP1 PUSH4 0x52D1902D EQ PUSH2 0x45E JUMPI DUP1 PUSH4 0x54FD4D50 EQ PUSH2 0x473 JUMPI DUP1 PUSH4 0x5AE766F3 EQ PUSH2 0x488 JUMPI DUP1 PUSH4 0x61D585DA EQ PUSH2 0x4A8 JUMPI DUP1 PUSH4 0x70B0F660 EQ PUSH2 0x4D5 JUMPI PUSH1 0x0 DUP1 REVERT JUMPDEST DUP1 PUSH4 0x36568ABE EQ PUSH2 0x3D3 JUMPI DUP1 PUSH4 0x3659CFE6 EQ PUSH2 0x3F3 JUMPI DUP1 PUSH4 0x3932ABB1 EQ PUSH2 0x413 JUMPI DUP1 PUSH4 0x41863ED6 EQ PUSH2 0x429 JUMPI DUP1 PUSH4 0x4F1EF286 EQ PUSH2 0x44B JUMPI PUSH1 0x0 DUP1 REVERT JUMPDEST DUP1 PUSH4 0x248A9CA3 GT PUSH2 0x20E JUMPI DUP1 PUSH4 0x248A9CA3 EQ PUSH2 0x31B JUMPI DUP1 PUSH4 0x25CE7586 EQ PUSH2 0x34B JUMPI DUP1 PUSH4 0x2F2FF15D EQ PUSH2 0x371 JUMPI DUP1 PUSH4 0x30D9B773 EQ PUSH2 0x391 JUMPI DUP1 PUSH4 0x33F3533B EQ PUSH2 0x3B1 JUMPI PUSH1 0x0 DUP1 REVERT JUMPDEST DUP1 PUSH4 0x1FFC9A7 EQ PUSH2 0x24B JUMPI DUP1 PUSH4 0x2A251A3 EQ PUSH2 0x280 JUMPI DUP1 PUSH4 0x6FDDE03 EQ PUSH2 0x2A4 JUMPI DUP1 PUSH4 0xF43A677 EQ PUSH2 0x2C6 JUMPI DUP1 PUSH4 0x1FE97684 EQ PUSH2 0x2F9 JUMPI JUMPDEST PUSH1 0x0 DUP1 REVERT JUMPDEST CALLVALUE DUP1 ISZERO PUSH2 0x257 JUMPI PUSH1 0x0 DUP1 REVERT JUMPDEST POP PUSH2 0x26B PUSH2 0x266 CALLDATASIZE PUSH1 0x4 PUSH2 0x42DC JUMP JUMPDEST PUSH2 0x803 JUMP JUMPDEST PUSH1 0x40 MLOAD SWAP1 ISZERO ISZERO DUP2 MSTORE PUSH1 0x20 ADD JUMPDEST PUSH1 0x40 MLOAD DUP1 SWAP2 SUB SWAP1 RETURN JUMPDEST CALLVALUE DUP1 ISZERO PUSH2 0x28C JUMPI PUSH1 0x0 DUP1 REVERT JUMPDEST POP PUSH2 0x296 PUSH1 0xFF SLOAD DUP2 JUMP JUMPDEST PUSH1 0x40 MLOAD SWAP1 DUP2 MSTORE PUSH1 0x20 ADD PUSH2 0x277 JUMP JUMPDEST CALLVALUE DUP1 ISZERO PUSH2 0x2B0 JUMPI PUSH1 0x0 DUP1 REVERT JUMPDEST POP PUSH2 0x2B9 PUSH2 0x83A JUMP JUMPDEST PUSH1 0x40 MLOAD PUSH2 0x277 SWAP2 SWAP1 PUSH2 0x435E JUMP JUMPDEST CALLVALUE DUP1 ISZERO PUSH2 0x2D2 JUMPI PUSH1 0x0 DUP1 REVERT JUMPDEST POP PUSH2 0x105 SLOAD PUSH2 0x2E4 SWAP1 PUSH4 0xFFFFFFFF AND DUP2 JUMP JUMPDEST PUSH1 0x40 MLOAD PUSH4 0xFFFFFFFF SWAP1 SWAP2 AND DUP2 MSTORE PUSH1 0x20 ADD PUSH2 0x277 JUMP JUMPDEST CALLVALUE DUP1 ISZERO PUSH2 0x305 JUMPI PUSH1 0x0 DUP1 REVERT JUMPDEST POP PUSH2 0x319 PUSH2 0x314 CALLDATASIZE PUSH1 0x4 PUSH2 0x4386 JUMP JUMPDEST PUSH2 0x8CD JUMP JUMPDEST STOP JUMPDEST CALLVALUE DUP1 ISZERO PUSH2 0x327 JUMPI PUSH1 0x0 DUP1 REVERT JUMPDEST POP PUSH2 0x296 PUSH2 0x336 CALLDATASIZE PUSH1 0x4 PUSH2 0x43A3 JUMP JUMPDEST PUSH1 0x0 SWAP1 DUP2 MSTORE PUSH1 0xC9 PUSH1 0x20 MSTORE PUSH1 0x40 SWAP1 KECCAK256 PUSH1 0x1 ADD SLOAD SWAP1 JUMP JUMPDEST CALLVALUE DUP1 ISZERO PUSH2 0x357 JUMPI PUSH1 0x0 DUP1 REVERT JUMPDEST POP PUSH2 0x105 SLOAD PUSH2 0x2E4 SWAP1 PUSH5 0x100000000 SWAP1 DIV PUSH4 0xFFFFFFFF AND DUP2 JUMP JUMPDEST CALLVALUE DUP1 ISZERO PUSH2 0x37D JUMPI PUSH1 0x0 DUP1 REVERT JUMPDEST POP PUSH2 0x319 PUSH2 0x38C CALLDATASIZE PUSH1 0x4 PUSH2 0x43BC JUMP JUMPDEST PUSH2 0xA10 JUMP JUMPDEST CALLVALUE DUP1 ISZERO PUSH2 0x39D JUMPI PUSH1 0x0 DUP1 REVERT JUMPDEST POP PUSH2 0x26B PUSH2 0x3AC CALLDATASIZE PUSH1 0x4 PUSH2 0x43A3 JUMP JUMPDEST PUSH2 0xA3A JUMP JUMPDEST CALLVALUE DUP1 ISZERO PUSH2 0x3BD JUMPI PUSH1 0x0 DUP1 REVERT JUMPDEST POP PUSH2 0x105 SLOAD PUSH2 0x26B SWAP1 PUSH1 0x1 PUSH1 0x40 SHL SWAP1 DIV PUSH1 0xFF AND DUP2 JUMP JUMPDEST CALLVALUE DUP1 ISZERO PUSH2 0x3DF JUMPI PUSH1 0x0 DUP1 REVERT JUMPDEST POP PUSH2 0x319 PUSH2 0x3EE CALLDATASIZE PUSH1 0x4 PUSH2 0x43BC JUMP JUMPDEST PUSH2 0xB91 JUMP JUMPDEST CALLVALUE DUP1 ISZERO PUSH2 0x3FF JUMPI PUSH1 0x0 DUP1 REVERT JUMPDEST POP PUSH2 0x319 PUSH2 0x40E CALLDATASIZE PUSH1 0x4 PUSH2 0x4386 JUMP JUMPDEST PUSH2 0xC0F JUMP JUMPDEST CALLVALUE DUP1 ISZERO PUSH2 0x41F JUMPI PUSH1 0x0 DUP1 REVERT JUMPDEST POP PUSH2 0x296 PUSH1 0xFE SLOAD DUP2 JUMP JUMPDEST CALLVALUE DUP1 ISZERO PUSH2 0x435 JUMPI PUSH1 0x0 DUP1 REVERT JUMPDEST POP PUSH2 0x105 SLOAD PUSH2 0x26B SWAP1 PUSH1 0x1 PUSH1 0x48 SHL SWAP1 DIV PUSH1 0xFF AND DUP2 JUMP JUMPDEST PUSH2 0x319 PUSH2 0x459 CALLDATASIZE PUSH1 0x4 PUSH2 0x44D7 JUMP JUMPDEST PUSH2 0xCEE JUMP JUMPDEST CALLVALUE DUP1 ISZERO PUSH2 0x46A JUMPI PUSH1 0x0 DUP1 REVERT JUMPDEST POP PUSH2 0x296 PUSH2 0xDBA JUMP JUMPDEST CALLVALUE DUP1 ISZERO PUSH2 0x47F JUMPI PUSH1 0x0 DUP1 REVERT JUMPDEST POP PUSH2 0x2B9 PUSH2 0xE6D JUMP JUMPDEST CALLVALUE DUP1 ISZERO PUSH2 0x494 JUMPI PUSH1 0x0 DUP1 REVERT JUMPDEST POP PUSH2 0x26B PUSH2 0x4A3 CALLDATASIZE PUSH1 0x4 PUSH2 0x4386 JUMP JUMPDEST PUSH2 0xE7D JUMP JUMPDEST CALLVALUE DUP1 ISZERO PUSH2 0x4B4 JUMPI PUSH1 0x0 DUP1 REVERT JUMPDEST POP PUSH2 0x4C8 PUSH2 0x4C3 CALLDATASIZE PUSH1 0x4 PUSH2 0x43A3 JUMP JUMPDEST PUSH2 0xEE2 JUMP JUMPDEST PUSH1 0x40 MLOAD PUSH2 0x277 SWAP2 SWAP1 PUSH2 0x453C JUMP JUMPDEST CALLVALUE DUP1 ISZERO PUSH2 0x4E1 JUMPI PUSH1 0x0 DUP1 REVERT JUMPDEST POP PUSH2 0x319 PUSH2 0x4F0 CALLDATASIZE PUSH1 0x4 PUSH2 0x43A3 JUMP JUMPDEST PUSH2 0x103F JUMP JUMPDEST CALLVALUE DUP1 ISZERO PUSH2 0x501 JUMPI PUSH1 0x0 DUP1 REVERT JUMPDEST POP PUSH2 0x296 PUSH1 0x0 DUP1 MLOAD PUSH1 0x20 PUSH2 0x5093 DUP4 CODECOPY DUP2 MLOAD SWAP2 MSTORE DUP2 JUMP JUMPDEST CALLVALUE DUP1 ISZERO PUSH2 0x523 JUMPI PUSH1 0x0 DUP1 REVERT JUMPDEST POP PUSH2 0x319 PUSH2 0x532 CALLDATASIZE PUSH1 0x4 PUSH2 0x4564 JUMP JUMPDEST PUSH2 0x105D JUMP JUMPDEST CALLVALUE DUP1 ISZERO PUSH2 0x543 JUMPI PUSH1 0x0 DUP1 REVERT JUMPDEST POP PUSH2 0x319 PUSH2 0x552 CALLDATASIZE PUSH1 0x4 PUSH2 0x45C2 JUMP JUMPDEST PUSH2 0x109A JUMP JUMPDEST CALLVALUE DUP1 ISZERO PUSH2 0x563 JUMPI PUSH1 0x0 DUP1 REVERT JUMPDEST POP PUSH2 0x26B PUSH2 0x572 CALLDATASIZE PUSH1 0x4 PUSH2 0x43BC JUMP JUMPDEST PUSH2 0x11D8 JUMP JUMPDEST CALLVALUE DUP1 ISZERO PUSH2 0x583 JUMPI PUSH1 0x0 DUP1 REVERT JUMPDEST POP PUSH2 0x101 SLOAD PUSH2 0x598 SWAP1 PUSH1 0x1 PUSH1 0x1 PUSH1 0xA0 SHL SUB AND DUP2 JUMP JUMPDEST PUSH1 0x40 MLOAD PUSH1 0x1 PUSH1 0x1 PUSH1 0xA0 SHL SUB SWAP1 SWAP2 AND DUP2 MSTORE PUSH1 0x20 ADD PUSH2 0x277 JUMP JUMPDEST CALLVALUE DUP1 ISZERO PUSH2 0x5BC JUMPI PUSH1 0x0 DUP1 REVERT JUMPDEST POP PUSH2 0x296 PUSH1 0x0 DUP2 JUMP JUMPDEST CALLVALUE DUP1 ISZERO PUSH2 0x5D1 JUMPI PUSH1 0x0 DUP1 REVERT JUMPDEST POP PUSH2 0x26B PUSH2 0x5E0 CALLDATASIZE PUSH1 0x4 PUSH2 0x4676 JUMP JUMPDEST PUSH2 0x1203 JUMP JUMPDEST CALLVALUE DUP1 ISZERO PUSH2 0x5F1 JUMPI PUSH1 0x0 DUP1 REVERT JUMPDEST POP PUSH2 0x26B PUSH2 0x600 CALLDATASIZE PUSH1 0x4 PUSH2 0x43BC JUMP JUMPDEST PUSH2 0x12F7 JUMP JUMPDEST CALLVALUE DUP1 ISZERO PUSH2 0x611 JUMPI PUSH1 0x0 DUP1 REVERT JUMPDEST POP PUSH2 0x639 PUSH32 0xF26C159FD7D78F3848964C3ADF4AEA78577348FCB297DB019BF8F5EFBED02195 DUP2 JUMP JUMPDEST PUSH1 0x40 MLOAD PUSH1 0x1 PUSH1 0x1 PUSH1 0xE0 SHL SUB NOT SWAP1 SWAP2 AND DUP2 MSTORE PUSH1 0x20 ADD PUSH2 0x277 JUMP JUMPDEST CALLVALUE DUP1 ISZERO PUSH2 0x65E JUMPI PUSH1 0x0 DUP1 REVERT JUMPDEST POP PUSH2 0x26B PUSH2 0x66D CALLDATASIZE PUSH1 0x4 PUSH2 0x46D4 JUMP JUMPDEST PUSH2 0x1312 JUMP JUMPDEST CALLVALUE DUP1 ISZERO PUSH2 0x67E JUMPI PUSH1 0x0 DUP1 REVERT JUMPDEST POP PUSH2 0x296 PUSH2 0x68D CALLDATASIZE PUSH1 0x4 PUSH2 0x4713 JUMP JUMPDEST PUSH2 0x14E7 JUMP JUMPDEST CALLVALUE DUP1 ISZERO PUSH2 0x69E JUMPI PUSH1 0x0 DUP1 REVERT JUMPDEST POP PUSH2 0x639 PUSH32 0x53CC2FAE7ECEF069DA76AE9063C3ECFA7F417173BC5191FE1BB037165D76473F DUP2 JUMP JUMPDEST CALLVALUE DUP1 ISZERO PUSH2 0x6D2 JUMPI PUSH1 0x0 DUP1 REVERT JUMPDEST POP PUSH2 0x100 SLOAD PUSH2 0x598 SWAP1 PUSH1 0x1 PUSH1 0x1 PUSH1 0xA0 SHL SUB AND DUP2 JUMP JUMPDEST CALLVALUE DUP1 ISZERO PUSH2 0x6F3 JUMPI PUSH1 0x0 DUP1 REVERT JUMPDEST POP PUSH2 0x319 PUSH2 0x702 CALLDATASIZE PUSH1 0x4 PUSH2 0x43BC JUMP JUMPDEST PUSH2 0x1526 JUMP JUMPDEST CALLVALUE DUP1 ISZERO PUSH2 0x713 JUMPI PUSH1 0x0 DUP1 REVERT JUMPDEST POP PUSH2 0x639 PUSH32 0x23B872DD7302113369CDA2901243429419BEC145408FA8B352B3DD92B66C680B DUP2 JUMP JUMPDEST PUSH2 0x26B PUSH2 0x749 CALLDATASIZE PUSH1 0x4 PUSH2 0x43A3 JUMP JUMPDEST PUSH2 0x154B JUMP JUMPDEST CALLVALUE DUP1 ISZERO PUSH2 0x75A JUMPI PUSH1 0x0 DUP1 REVERT JUMPDEST POP PUSH2 0x319 PUSH2 0x769 CALLDATASIZE PUSH1 0x4 PUSH2 0x43A3 JUMP JUMPDEST PUSH2 0x1645 JUMP JUMPDEST CALLVALUE DUP1 ISZERO PUSH2 0x77A JUMPI PUSH1 0x0 DUP1 REVERT JUMPDEST POP PUSH2 0x102 SLOAD PUSH2 0x598 SWAP1 PUSH1 0x1 PUSH1 0x1 PUSH1 0xA0 SHL SUB AND DUP2 JUMP JUMPDEST CALLVALUE DUP1 ISZERO PUSH2 0x79B JUMPI PUSH1 0x0 DUP1 REVERT JUMPDEST POP PUSH2 0x296 PUSH32 0x36FD43EDE163045B10E1F0ABD16F62F165FCE3FA7B6CDE217BCEA3BC47663ACC DUP2 JUMP JUMPDEST CALLVALUE DUP1 ISZERO PUSH2 0x7CF JUMPI PUSH1 0x0 DUP1 REVERT JUMPDEST POP PUSH2 0x26B PUSH2 0x7DE CALLDATASIZE PUSH1 0x4 PUSH2 0x4386 JUMP JUMPDEST PUSH2 0x1663 JUMP JUMPDEST CALLVALUE DUP1 ISZERO PUSH2 0x7EF JUMPI PUSH1 0x0 DUP1 REVERT JUMPDEST POP PUSH2 0x296 PUSH2 0x7FE CALLDATASIZE PUSH1 0x4 PUSH2 0x4797 JUMP JUMPDEST PUSH2 0x1695 JUMP JUMPDEST PUSH1 0x0 PUSH1 0x1 PUSH1 0x1 PUSH1 0xE0 SHL SUB NOT DUP3 AND PUSH4 0x7965DB0B PUSH1 0xE0 SHL EQ DUP1 PUSH2 0x834 JUMPI POP PUSH4 0x1FFC9A7 PUSH1 0xE0 SHL PUSH1 0x1 PUSH1 0x1 PUSH1 0xE0 SHL SUB NOT DUP4 AND EQ JUMPDEST SWAP3 SWAP2 POP POP JUMP JUMPDEST PUSH1 0x60 PUSH2 0x103 DUP1 SLOAD PUSH2 0x84A SWAP1 PUSH2 0x4870 JUMP JUMPDEST DUP1 PUSH1 0x1F ADD PUSH1 0x20 DUP1 SWAP2 DIV MUL PUSH1 0x20 ADD PUSH1 0x40 MLOAD SWAP1 DUP2 ADD PUSH1 0x40 MSTORE DUP1 SWAP3 SWAP2 SWAP1 DUP2 DUP2 MSTORE PUSH1 0x20 ADD DUP3 DUP1 SLOAD PUSH2 0x876 SWAP1 PUSH2 0x4870 JUMP JUMPDEST DUP1 ISZERO PUSH2 0x8C3 JUMPI DUP1 PUSH1 0x1F LT PUSH2 0x898 JUMPI PUSH2 0x100 DUP1 DUP4 SLOAD DIV MUL DUP4 MSTORE SWAP2 PUSH1 0x20 ADD SWAP2 PUSH2 0x8C3 JUMP JUMPDEST DUP3 ADD SWAP2 SWAP1 PUSH1 0x0 MSTORE PUSH1 0x20 PUSH1 0x0 KECCAK256 SWAP1 JUMPDEST DUP2 SLOAD DUP2 MSTORE SWAP1 PUSH1 0x1 ADD SWAP1 PUSH1 0x20 ADD DUP1 DUP4 GT PUSH2 0x8A6 JUMPI DUP3 SWAP1 SUB PUSH1 0x1F AND DUP3 ADD SWAP2 JUMPDEST POP POP POP POP POP SWAP1 POP SWAP1 JUMP JUMPDEST PUSH1 0x0 DUP1 MLOAD PUSH1 0x20 PUSH2 0x5093 DUP4 CODECOPY DUP2 MLOAD SWAP2 MSTORE PUSH2 0x8E5 DUP2 PUSH2 0x1CA3 JUMP JUMPDEST PUSH1 0x1 PUSH1 0x1 PUSH1 0x1 PUSH1 0xA0 SHL SUB DUP4 AND PUSH1 0x0 SWAP1 DUP2 MSTORE PUSH1 0xFB PUSH1 0x20 MSTORE PUSH1 0x40 SWAP1 KECCAK256 PUSH1 0x1 ADD SLOAD PUSH1 0xFF AND PUSH1 0x2 DUP2 GT ISZERO PUSH2 0x917 JUMPI PUSH2 0x917 PUSH2 0x4526 JUMP JUMPDEST EQ DUP1 ISZERO PUSH2 0x946 JUMPI POP PUSH1 0x1 PUSH1 0x1 PUSH1 0xA0 SHL SUB DUP3 AND PUSH1 0x0 SWAP1 DUP2 MSTORE PUSH1 0xFB PUSH1 0x20 MSTORE PUSH1 0x40 SWAP1 KECCAK256 PUSH1 0x1 ADD SLOAD PUSH2 0x100 SWAP1 DIV PUSH1 0xFF AND ISZERO ISZERO JUMPDEST PUSH2 0x9AE JUMPI PUSH1 0x40 MLOAD PUSH3 0x461BCD PUSH1 0xE5 SHL DUP2 MSTORE PUSH1 0x20 PUSH1 0x4 DUP3 ADD MSTORE PUSH1 0x2E PUSH1 0x24 DUP3 ADD MSTORE PUSH32 0x56616C696461746F723A206F6E6C792065786973742076616C696461746F7220 PUSH1 0x44 DUP3 ADD MSTORE PUSH14 0x63616E2062652064697361626C65 PUSH1 0x90 SHL PUSH1 0x64 DUP3 ADD MSTORE PUSH1 0x84 ADD JUMPDEST PUSH1 0x40 MLOAD DUP1 SWAP2 SUB SWAP1 REVERT JUMPDEST PUSH1 0x1 PUSH1 0x1 PUSH1 0xA0 SHL SUB DUP3 AND PUSH1 0x0 SWAP1 DUP2 MSTORE PUSH1 0xFB PUSH1 0x20 MSTORE PUSH1 0x40 DUP2 KECCAK256 PUSH1 0x1 SWAP1 DUP2 ADD DUP1 SLOAD PUSH2 0xFF00 NOT AND SWAP1 SSTORE PUSH2 0x105 DUP1 SLOAD SWAP2 SWAP3 SWAP1 SWAP2 PUSH2 0x9EE SWAP1 DUP5 SWAP1 PUSH4 0xFFFFFFFF AND PUSH2 0x48BA JUMP JUMPDEST SWAP3 POP PUSH2 0x100 EXP DUP2 SLOAD DUP2 PUSH4 0xFFFFFFFF MUL NOT AND SWAP1 DUP4 PUSH4 0xFFFFFFFF AND MUL OR SWAP1 SSTORE POP POP POP JUMP JUMPDEST PUSH1 0x0 DUP3 DUP2 MSTORE PUSH1 0xC9 PUSH1 0x20 MSTORE PUSH1 0x40 SWAP1 KECCAK256 PUSH1 0x1 ADD SLOAD PUSH2 0xA2B DUP2 PUSH2 0x1CA3 JUMP JUMPDEST PUSH2 0xA35 DUP4 DUP4 PUSH2 0x1CAD JUMP JUMPDEST POP POP POP JUMP JUMPDEST PUSH1 0x0 PUSH1 0x0 DUP1 MLOAD PUSH1 0x20 PUSH2 0x5093 DUP4 CODECOPY DUP2 MLOAD SWAP2 MSTORE PUSH2 0xA54 DUP2 PUSH2 0x1CA3 JUMP JUMPDEST PUSH2 0x105 SLOAD PUSH1 0x1 PUSH1 0x48 SHL SWAP1 DIV PUSH1 0xFF AND ISZERO ISZERO PUSH1 0x1 EQ PUSH2 0xAB3 JUMPI PUSH1 0x40 MLOAD PUSH3 0x461BCD PUSH1 0xE5 SHL DUP2 MSTORE PUSH1 0x20 PUSH1 0x4 DUP3 ADD MSTORE PUSH1 0x17 PUSH1 0x24 DUP3 ADD MSTORE PUSH32 0x61646D696E20616C7265616479206361737420766F7465000000000000000000 PUSH1 0x44 DUP3 ADD MSTORE PUSH1 0x64 ADD PUSH2 0x9A5 JUMP JUMPDEST PUSH1 0x0 DUP4 DUP2 MSTORE PUSH1 0xFC PUSH1 0x20 MSTORE PUSH1 0x40 SWAP1 KECCAK256 PUSH2 0xACE PUSH1 0x1 DUP3 ADD CALLER PUSH2 0x1D33 JUMP JUMPDEST POP DUP4 CALLER PUSH1 0x1 PUSH1 0x1 PUSH1 0xA0 SHL SUB AND PUSH32 0xBBB255028C79DEA070E4449C346283DA7B4B66693776C096BB820822E4D9C41A PUSH1 0x2 PUSH1 0x40 MLOAD PUSH2 0xB0A SWAP2 SWAP1 PUSH2 0x48EF JUMP JUMPDEST PUSH1 0x40 MLOAD DUP1 SWAP2 SUB SWAP1 LOG3 PUSH1 0x0 DUP5 DUP2 MSTORE PUSH1 0xFD PUSH1 0x20 MSTORE PUSH1 0x40 SWAP1 KECCAK256 PUSH1 0x6 DUP2 ADD DUP1 SLOAD PUSH3 0xFF0000 NOT AND PUSH3 0x10000 OR SWAP1 SSTORE PUSH1 0x1 PUSH2 0xB3E DUP3 PUSH2 0x1D48 JUMP JUMPDEST SWAP1 POP DUP1 ISZERO PUSH2 0xB72 JUMPI PUSH1 0x40 MLOAD DUP7 SWAP1 PUSH32 0x7B1BCF1CCF901A11589AFFF5504D59FD0A53780EED2A952ADADE0348985139E0 SWAP1 PUSH1 0x0 SWAP1 LOG2 JUMPDEST PUSH2 0x105 DUP1 SLOAD PUSH10 0xFF000000000000000000 NOT AND SWAP1 SSTORE SWAP4 POP POP POP JUMPDEST POP SWAP2 SWAP1 POP JUMP JUMPDEST PUSH1 0x1 PUSH1 0x1 PUSH1 0xA0 SHL SUB DUP2 AND CALLER EQ PUSH2 0xC01 JUMPI PUSH1 0x40 MLOAD PUSH3 0x461BCD PUSH1 0xE5 SHL DUP2 MSTORE PUSH1 0x20 PUSH1 0x4 DUP3 ADD MSTORE PUSH1 0x2F PUSH1 0x24 DUP3 ADD MSTORE PUSH32 0x416363657373436F6E74726F6C3A2063616E206F6E6C792072656E6F756E6365 PUSH1 0x44 DUP3 ADD MSTORE PUSH15 0x103937B632B9903337B91039B2B633 PUSH1 0x89 SHL PUSH1 0x64 DUP3 ADD MSTORE PUSH1 0x84 ADD PUSH2 0x9A5 JUMP JUMPDEST PUSH2 0xC0B DUP3 DUP3 PUSH2 0x24B4 JUMP JUMPDEST POP POP JUMP JUMPDEST PUSH1 0x1 PUSH1 0x1 PUSH1 0xA0 SHL SUB PUSH32 0x0 AND ADDRESS SUB PUSH2 0xC57 JUMPI PUSH1 0x40 MLOAD PUSH3 0x461BCD PUSH1 0xE5 SHL DUP2 MSTORE PUSH1 0x4 ADD PUSH2 0x9A5 SWAP1 PUSH2 0x4910 JUMP JUMPDEST PUSH32 0x0 PUSH1 0x1 PUSH1 0x1 PUSH1 0xA0 SHL SUB AND PUSH2 0xCA0 PUSH1 0x0 DUP1 MLOAD PUSH1 0x20 PUSH2 0x504C DUP4 CODECOPY DUP2 MLOAD SWAP2 MSTORE SLOAD PUSH1 0x1 PUSH1 0x1 PUSH1 0xA0 SHL SUB AND SWAP1 JUMP JUMPDEST PUSH1 0x1 PUSH1 0x1 PUSH1 0xA0 SHL SUB AND EQ PUSH2 0xCC6 JUMPI PUSH1 0x40 MLOAD PUSH3 0x461BCD PUSH1 0xE5 SHL DUP2 MSTORE PUSH1 0x4 ADD PUSH2 0x9A5 SWAP1 PUSH2 0x495C JUMP JUMPDEST PUSH2 0xCCF DUP2 PUSH2 0x251B JUMP JUMPDEST PUSH1 0x40 DUP1 MLOAD PUSH1 0x0 DUP1 DUP3 MSTORE PUSH1 0x20 DUP3 ADD SWAP1 SWAP3 MSTORE PUSH2 0xCEB SWAP2 DUP4 SWAP2 SWAP1 PUSH2 0x259F JUMP JUMPDEST POP JUMP JUMPDEST PUSH1 0x1 PUSH1 0x1 PUSH1 0xA0 SHL SUB PUSH32 0x0 AND ADDRESS SUB PUSH2 0xD36 JUMPI PUSH1 0x40 MLOAD PUSH3 0x461BCD PUSH1 0xE5 SHL DUP2 MSTORE PUSH1 0x4 ADD PUSH2 0x9A5 SWAP1 PUSH2 0x4910 JUMP JUMPDEST PUSH32 0x0 PUSH1 0x1 PUSH1 0x1 PUSH1 0xA0 SHL SUB AND PUSH2 0xD7F PUSH1 0x0 DUP1 MLOAD PUSH1 0x20 PUSH2 0x504C DUP4 CODECOPY DUP2 MLOAD SWAP2 MSTORE SLOAD PUSH1 0x1 PUSH1 0x1 PUSH1 0xA0 SHL SUB AND SWAP1 JUMP JUMPDEST PUSH1 0x1 PUSH1 0x1 PUSH1 0xA0 SHL SUB AND EQ PUSH2 0xDA5 JUMPI PUSH1 0x40 MLOAD PUSH3 0x461BCD PUSH1 0xE5 SHL DUP2 MSTORE PUSH1 0x4 ADD PUSH2 0x9A5 SWAP1 PUSH2 0x495C JUMP JUMPDEST PUSH2 0xDAE DUP3 PUSH2 0x251B JUMP JUMPDEST PUSH2 0xC0B DUP3 DUP3 PUSH1 0x1 PUSH2 0x259F JUMP JUMPDEST PUSH1 0x0 ADDRESS PUSH1 0x1 PUSH1 0x1 PUSH1 0xA0 SHL SUB PUSH32 0x0 AND EQ PUSH2 0xE5A JUMPI PUSH1 0x40 MLOAD PUSH3 0x461BCD PUSH1 0xE5 SHL DUP2 MSTORE PUSH1 0x20 PUSH1 0x4 DUP3 ADD MSTORE PUSH1 0x38 PUSH1 0x24 DUP3 ADD MSTORE PUSH32 0x555550535570677261646561626C653A206D757374206E6F742062652063616C PUSH1 0x44 DUP3 ADD MSTORE PUSH32 0x6C6564207468726F7567682064656C656761746563616C6C0000000000000000 PUSH1 0x64 DUP3 ADD MSTORE PUSH1 0x84 ADD PUSH2 0x9A5 JUMP JUMPDEST POP PUSH1 0x0 DUP1 MLOAD PUSH1 0x20 PUSH2 0x504C DUP4 CODECOPY DUP2 MLOAD SWAP2 MSTORE SWAP1 JUMP JUMPDEST PUSH1 0x60 PUSH2 0x104 DUP1 SLOAD PUSH2 0x84A SWAP1 PUSH2 0x4870 JUMP JUMPDEST PUSH1 0x1 PUSH1 0x1 PUSH1 0xA0 SHL SUB DUP2 AND PUSH1 0x0 SWAP1 DUP2 MSTORE PUSH1 0xFB PUSH1 0x20 MSTORE PUSH1 0x40 DUP2 KECCAK256 PUSH1 0x1 ADD SLOAD PUSH2 0x100 SWAP1 DIV PUSH1 0xFF AND DUP1 ISZERO PUSH2 0x834 JUMPI POP PUSH1 0x2 JUMPDEST PUSH1 0x1 PUSH1 0x1 PUSH1 0xA0 SHL SUB DUP4 AND PUSH1 0x0 SWAP1 DUP2 MSTORE PUSH1 0xFB PUSH1 0x20 MSTORE PUSH1 0x40 SWAP1 KECCAK256 PUSH1 0x1 ADD SLOAD PUSH1 0xFF AND PUSH1 0x2 DUP2 GT ISZERO PUSH2 0xEDB JUMPI PUSH2 0xEDB PUSH2 0x4526 JUMP JUMPDEST EQ SWAP3 SWAP2 POP POP JUMP JUMPDEST PUSH1 0x0 DUP2 DUP2 MSTORE PUSH1 0xFD PUSH1 0x20 MSTORE PUSH1 0x40 DUP2 KECCAK256 PUSH1 0x1 DUP2 ADD SLOAD DUP3 SUB PUSH2 0xF3B JUMPI PUSH1 0x40 MLOAD PUSH3 0x461BCD PUSH1 0xE5 SHL DUP2 MSTORE PUSH1 0x20 PUSH1 0x4 DUP3 ADD MSTORE PUSH1 0x15 PUSH1 0x24 DUP3 ADD MSTORE PUSH21 0x1C1C9BDC1BDCD85B1259081A5CC81A5B9D985B1A59 PUSH1 0x5A SHL PUSH1 0x44 DUP3 ADD MSTORE PUSH1 0x64 ADD PUSH2 0x9A5 JUMP JUMPDEST PUSH1 0x6 DUP2 ADD SLOAD PUSH3 0x10000 SWAP1 DIV PUSH1 0xFF AND ISZERO PUSH2 0xF57 JUMPI POP PUSH1 0x7 SWAP3 SWAP2 POP POP JUMP JUMPDEST PUSH1 0x6 DUP2 ADD SLOAD PUSH4 0x1000000 SWAP1 DIV PUSH1 0xFF AND ISZERO PUSH2 0xF74 JUMPI POP PUSH1 0x3 SWAP3 SWAP2 POP POP JUMP JUMPDEST PUSH1 0x40 DUP1 MLOAD PUSH1 0x20 DUP2 ADD SWAP1 SWAP2 MSTORE PUSH1 0x4 DUP3 ADD SLOAD PUSH1 0x1 PUSH1 0x1 PUSH1 0x40 SHL SUB AND SWAP1 DUP2 SWAP1 MSTORE TIMESTAMP LT ISZERO PUSH2 0xFA1 JUMPI POP PUSH1 0x1 SWAP3 SWAP2 POP POP JUMP JUMPDEST PUSH1 0x40 DUP1 MLOAD PUSH1 0x20 DUP2 ADD SWAP1 SWAP2 MSTORE PUSH1 0x5 DUP3 ADD SLOAD PUSH1 0x1 PUSH1 0x1 PUSH1 0x40 SHL SUB AND SWAP1 DUP2 SWAP1 MSTORE TIMESTAMP LT DUP1 ISZERO PUSH2 0xFD2 JUMPI POP PUSH2 0xFD0 DUP4 PUSH2 0x270A JUMP JUMPDEST ISZERO JUMPDEST ISZERO PUSH2 0xFE0 JUMPI POP PUSH1 0x2 SWAP3 SWAP2 POP POP JUMP JUMPDEST PUSH1 0x40 DUP1 MLOAD PUSH1 0x20 DUP2 ADD SWAP1 SWAP2 MSTORE PUSH1 0x5 DUP3 ADD SLOAD PUSH1 0x1 PUSH1 0x1 PUSH1 0x40 SHL SUB AND DUP2 MSTORE PUSH2 0x1004 SWAP1 PUSH2 0x2769 JUMP JUMPDEST DUP1 PUSH2 0x1013 JUMPI POP PUSH2 0x1013 DUP4 PUSH2 0x270A JUMP JUMPDEST ISZERO PUSH2 0x1036 JUMPI PUSH2 0x1021 DUP4 PUSH2 0x2798 JUMP JUMPDEST PUSH2 0x102C JUMPI PUSH1 0x4 PUSH2 0x102F JUMP JUMPDEST PUSH1 0x5 JUMPDEST SWAP4 SWAP3 POP POP POP JUMP JUMPDEST POP PUSH1 0x0 SWAP3 SWAP2 POP POP JUMP JUMPDEST PUSH1 0x0 DUP1 MLOAD PUSH1 0x20 PUSH2 0x5093 DUP4 CODECOPY DUP2 MLOAD SWAP2 MSTORE PUSH2 0x1057 DUP2 PUSH2 0x1CA3 JUMP JUMPDEST POP PUSH1 0xFE SSTORE JUMP JUMPDEST PUSH1 0x0 DUP1 MLOAD PUSH1 0x20 PUSH2 0x5093 DUP4 CODECOPY DUP2 MLOAD SWAP2 MSTORE PUSH2 0x1075 DUP2 PUSH2 0x1CA3 JUMP JUMPDEST POP PUSH2 0x105 DUP1 SLOAD SWAP2 ISZERO ISZERO PUSH1 0x1 PUSH1 0x40 SHL MUL PUSH9 0xFF0000000000000000 NOT SWAP1 SWAP3 AND SWAP2 SWAP1 SWAP2 OR SWAP1 SSTORE JUMP JUMPDEST PUSH1 0x0 PUSH2 0x10A6 PUSH1 0x1 PUSH2 0x27EA JUMP JUMPDEST SWAP1 POP DUP1 ISZERO PUSH2 0x10BE JUMPI PUSH1 0x0 DUP1 SLOAD PUSH2 0xFF00 NOT AND PUSH2 0x100 OR SWAP1 SSTORE JUMPDEST PUSH2 0x101 DUP1 SLOAD PUSH1 0x1 PUSH1 0x1 PUSH1 0xA0 SHL SUB DUP1 DUP10 AND PUSH1 0x1 PUSH1 0x1 PUSH1 0xA0 SHL SUB NOT SWAP3 DUP4 AND OR SWAP1 SWAP3 SSTORE PUSH2 0x100 DUP1 SLOAD DUP11 DUP5 AND SWAP1 DUP4 AND OR SWAP1 SSTORE PUSH2 0x105 DUP1 SLOAD PUSH8 0xFFFFFFFFFFFFFFFF NOT AND SWAP1 SSTORE PUSH2 0x102 DUP1 SLOAD SWAP3 DUP12 AND SWAP3 SWAP1 SWAP2 AND SWAP2 SWAP1 SWAP2 OR SWAP1 SSTORE PUSH1 0x1 PUSH1 0xFE SSTORE PUSH3 0x93A80 PUSH1 0xFF SSTORE PUSH2 0x1129 PUSH2 0x103 DUP7 DUP7 PUSH2 0x41CF JUMP JUMPDEST POP PUSH2 0x1137 PUSH2 0x104 DUP5 DUP5 PUSH2 0x41CF JUMP JUMPDEST POP PUSH2 0x105 DUP1 SLOAD PUSH10 0xFFFF0000000000000000 NOT AND PUSH10 0x1010000000000000000 OR SWAP1 SSTORE PUSH2 0x1170 PUSH1 0x0 DUP1 MLOAD PUSH1 0x20 PUSH2 0x5093 DUP4 CODECOPY DUP2 MLOAD SWAP2 MSTORE CALLER PUSH2 0x1CAD JUMP JUMPDEST PUSH2 0x1188 PUSH1 0x0 DUP1 MLOAD PUSH1 0x20 PUSH2 0x5093 DUP4 CODECOPY DUP2 MLOAD SWAP2 MSTORE DUP1 PUSH2 0x2877 JUMP JUMPDEST DUP1 ISZERO PUSH2 0x11CE JUMPI PUSH1 0x0 DUP1 SLOAD PUSH2 0xFF00 NOT AND SWAP1 SSTORE PUSH1 0x40 MLOAD PUSH1 0x1 DUP2 MSTORE PUSH32 0x7F26B83FF96E1F2B6A682F133852F6798A09C465DA95921460CEFB3847402498 SWAP1 PUSH1 0x20 ADD PUSH1 0x40 MLOAD DUP1 SWAP2 SUB SWAP1 LOG1 JUMPDEST POP POP POP POP POP POP POP POP JUMP JUMPDEST PUSH1 0x0 SWAP2 DUP3 MSTORE PUSH1 0xC9 PUSH1 0x20 SWAP1 DUP2 MSTORE PUSH1 0x40 DUP1 DUP5 KECCAK256 PUSH1 0x1 PUSH1 0x1 PUSH1 0xA0 SHL SUB SWAP4 SWAP1 SWAP4 AND DUP5 MSTORE SWAP2 SWAP1 MSTORE SWAP1 KECCAK256 SLOAD PUSH1 0xFF AND SWAP1 JUMP JUMPDEST CALLER PUSH1 0x0 SWAP1 DUP2 MSTORE PUSH1 0xFB PUSH1 0x20 MSTORE PUSH1 0x40 DUP2 KECCAK256 PUSH1 0x1 SWAP1 DUP2 ADD SLOAD PUSH1 0xFF AND PUSH1 0x2 DUP2 GT ISZERO PUSH2 0x122C JUMPI PUSH2 0x122C PUSH2 0x4526 JUMP JUMPDEST EQ DUP1 ISZERO PUSH2 0x1255 JUMPI POP CALLER PUSH1 0x0 SWAP1 DUP2 MSTORE PUSH1 0xFB PUSH1 0x20 MSTORE PUSH1 0x40 SWAP1 KECCAK256 PUSH1 0x1 SWAP1 DUP2 ADD SLOAD PUSH2 0x100 SWAP1 DIV PUSH1 0xFF AND ISZERO ISZERO EQ JUMPDEST PUSH2 0x12AC JUMPI PUSH1 0x40 MLOAD PUSH3 0x461BCD PUSH1 0xE5 SHL DUP2 MSTORE PUSH1 0x20 PUSH1 0x4 DUP3 ADD MSTORE PUSH1 0x22 PUSH1 0x24 DUP3 ADD MSTORE PUSH32 0x476F7665726E6F723A206F6E6C792076616C696461746F72207065726D697474 PUSH1 0x44 DUP3 ADD MSTORE PUSH2 0x1959 PUSH1 0xF2 SHL PUSH1 0x64 DUP3 ADD MSTORE PUSH1 0x84 ADD PUSH2 0x9A5 JUMP JUMPDEST PUSH2 0x12EE DUP4 CALLER DUP5 DUP9 DUP9 DUP1 DUP1 PUSH1 0x1F ADD PUSH1 0x20 DUP1 SWAP2 DIV MUL PUSH1 0x20 ADD PUSH1 0x40 MLOAD SWAP1 DUP2 ADD PUSH1 0x40 MSTORE DUP1 SWAP4 SWAP3 SWAP2 SWAP1 DUP2 DUP2 MSTORE PUSH1 0x20 ADD DUP4 DUP4 DUP1 DUP3 DUP5 CALLDATACOPY PUSH1 0x0 SWAP3 ADD SWAP2 SWAP1 SWAP2 MSTORE POP PUSH2 0x28C2 SWAP3 POP POP POP JUMP JUMPDEST SWAP6 SWAP5 POP POP POP POP POP JUMP JUMPDEST PUSH1 0x0 DUP3 DUP2 MSTORE PUSH1 0xFC PUSH1 0x20 MSTORE PUSH1 0x40 DUP2 KECCAK256 PUSH2 0x102F SWAP1 PUSH1 0x1 ADD DUP4 PUSH2 0x2B5B JUMP JUMPDEST PUSH1 0x0 DUP3 DUP2 MSTORE PUSH1 0xFD PUSH1 0x20 MSTORE PUSH1 0x40 DUP2 KECCAK256 PUSH1 0x3 ADD SLOAD PUSH1 0x1 PUSH1 0x1 PUSH1 0xA0 SHL SUB AND CALLER EQ PUSH2 0x1387 JUMPI PUSH1 0x40 MLOAD PUSH3 0x461BCD PUSH1 0xE5 SHL DUP2 MSTORE PUSH1 0x20 PUSH1 0x4 DUP3 ADD MSTORE PUSH1 0x23 PUSH1 0x24 DUP3 ADD MSTORE PUSH32 0x476F7665726E6F72203A206F6E6C792070726F706F7365722063616E2063616E PUSH1 0x44 DUP3 ADD MSTORE PUSH3 0x18D95B PUSH1 0xEA SHL PUSH1 0x64 DUP3 ADD MSTORE PUSH1 0x84 ADD PUSH2 0x9A5 JUMP JUMPDEST PUSH1 0x0 PUSH2 0x1392 DUP5 PUSH2 0xEE2 JUMP JUMPDEST SWAP1 POP PUSH1 0x6 DUP2 PUSH1 0x7 DUP2 GT ISZERO PUSH2 0x13A8 JUMPI PUSH2 0x13A8 PUSH2 0x4526 JUMP JUMPDEST EQ ISZERO DUP1 ISZERO PUSH2 0x13C8 JUMPI POP PUSH1 0x7 DUP2 PUSH1 0x7 DUP2 GT ISZERO PUSH2 0x13C5 JUMPI PUSH2 0x13C5 PUSH2 0x4526 JUMP JUMPDEST EQ ISZERO JUMPDEST PUSH2 0x1414 JUMPI PUSH1 0x40 MLOAD PUSH3 0x461BCD PUSH1 0xE5 SHL DUP2 MSTORE PUSH1 0x20 PUSH1 0x4 DUP3 ADD MSTORE PUSH1 0x1D PUSH1 0x24 DUP3 ADD MSTORE PUSH32 0x476F7665726E6F723A2070726F706F73616C206E6F7420616374697665000000 PUSH1 0x44 DUP3 ADD MSTORE PUSH1 0x64 ADD PUSH2 0x9A5 JUMP JUMPDEST PUSH1 0x3 DUP2 PUSH1 0x7 DUP2 GT ISZERO PUSH2 0x1428 JUMPI PUSH2 0x1428 PUSH2 0x4526 JUMP JUMPDEST SUB PUSH2 0x1481 JUMPI PUSH1 0x40 MLOAD PUSH3 0x461BCD PUSH1 0xE5 SHL DUP2 MSTORE PUSH1 0x20 PUSH1 0x4 DUP3 ADD MSTORE PUSH1 0x23 PUSH1 0x24 DUP3 ADD MSTORE PUSH32 0x476F7665726E6F723A2070726F706F73616C20616C72656164792063616E6365 PUSH1 0x44 DUP3 ADD MSTORE PUSH3 0x1B1959 PUSH1 0xEA SHL PUSH1 0x64 DUP3 ADD MSTORE PUSH1 0x84 ADD PUSH2 0x9A5 JUMP JUMPDEST PUSH1 0x0 DUP5 DUP2 MSTORE PUSH1 0xFD PUSH1 0x20 MSTORE PUSH1 0x40 SWAP1 DUP2 SWAP1 KECCAK256 PUSH1 0x6 ADD DUP1 SLOAD PUSH4 0xFF000000 NOT AND PUSH4 0x1000000 OR SWAP1 SSTORE MLOAD DUP5 SWAP1 PUSH32 0xC3FE75BACE7821ED95B8B37722A36DFB53BDF311BEFB9C378BED48A7DB4062AA SWAP1 PUSH2 0x14D5 SWAP1 DUP7 SWAP1 PUSH2 0x435E JUMP JUMPDEST PUSH1 0x40 MLOAD DUP1 SWAP2 SUB SWAP1 LOG2 POP PUSH1 0x1 SWAP4 SWAP3 POP POP POP JUMP JUMPDEST PUSH1 0x0 DUP7 DUP7 DUP7 DUP7 DUP7 DUP7 PUSH1 0x40 MLOAD PUSH1 0x20 ADD PUSH2 0x1504 SWAP7 SWAP6 SWAP5 SWAP4 SWAP3 SWAP2 SWAP1 PUSH2 0x49BC JUMP JUMPDEST PUSH1 0x40 MLOAD PUSH1 0x20 DUP2 DUP4 SUB SUB DUP2 MSTORE SWAP1 PUSH1 0x40 MSTORE DUP1 MLOAD SWAP1 PUSH1 0x20 ADD KECCAK256 SWAP1 POP SWAP7 SWAP6 POP POP POP POP POP POP JUMP JUMPDEST PUSH1 0x0 DUP3 DUP2 MSTORE PUSH1 0xC9 PUSH1 0x20 MSTORE PUSH1 0x40 SWAP1 KECCAK256 PUSH1 0x1 ADD SLOAD PUSH2 0x1541 DUP2 PUSH2 0x1CA3 JUMP JUMPDEST PUSH2 0xA35 DUP4 DUP4 PUSH2 0x24B4 JUMP JUMPDEST PUSH1 0x0 PUSH1 0x0 DUP1 MLOAD PUSH1 0x20 PUSH2 0x5093 DUP4 CODECOPY DUP2 MLOAD SWAP2 MSTORE PUSH2 0x1565 DUP2 PUSH2 0x1CA3 JUMP JUMPDEST PUSH1 0x0 PUSH2 0x1570 DUP5 PUSH2 0xEE2 JUMP JUMPDEST SWAP1 POP PUSH1 0x5 DUP2 PUSH1 0x7 DUP2 GT ISZERO PUSH2 0x1586 JUMPI PUSH2 0x1586 PUSH2 0x4526 JUMP JUMPDEST EQ PUSH2 0x15DD JUMPI PUSH1 0x40 MLOAD PUSH3 0x461BCD PUSH1 0xE5 SHL DUP2 MSTORE PUSH1 0x20 PUSH1 0x4 DUP3 ADD MSTORE PUSH1 0x21 PUSH1 0x24 DUP3 ADD MSTORE PUSH32 0x476F7665726E6F723A2070726F706F73616C206E6F7420737563636573736675 PUSH1 0x44 DUP3 ADD MSTORE PUSH1 0x1B PUSH1 0xFA SHL PUSH1 0x64 DUP3 ADD MSTORE PUSH1 0x84 ADD PUSH2 0x9A5 JUMP JUMPDEST PUSH1 0x0 DUP5 DUP2 MSTORE PUSH1 0xFD PUSH1 0x20 MSTORE PUSH1 0x40 SWAP1 KECCAK256 PUSH1 0x6 DUP2 ADD DUP1 SLOAD PUSH3 0xFF0000 NOT AND PUSH3 0x10000 OR SWAP1 SSTORE PUSH1 0x1 PUSH2 0x1609 DUP3 PUSH2 0x1D48 JUMP JUMPDEST SWAP1 POP DUP1 ISZERO PUSH2 0x12EE JUMPI PUSH1 0x40 MLOAD DUP7 SWAP1 PUSH32 0x7B1BCF1CCF901A11589AFFF5504D59FD0A53780EED2A952ADADE0348985139E0 SWAP1 PUSH1 0x0 SWAP1 LOG2 SWAP6 SWAP5 POP POP POP POP POP JUMP JUMPDEST PUSH1 0x0 DUP1 MLOAD PUSH1 0x20 PUSH2 0x5093 DUP4 CODECOPY DUP2 MLOAD SWAP2 MSTORE PUSH2 0x165D DUP2 PUSH2 0x1CA3 JUMP JUMPDEST POP PUSH1 0xFF SSTORE JUMP JUMPDEST PUSH1 0x1 PUSH1 0x1 PUSH1 0xA0 SHL SUB DUP2 AND PUSH1 0x0 SWAP1 DUP2 MSTORE PUSH1 0xFB PUSH1 0x20 MSTORE PUSH1 0x40 DUP2 KECCAK256 PUSH1 0x1 ADD SLOAD PUSH2 0x100 SWAP1 DIV PUSH1 0xFF AND DUP1 ISZERO PUSH2 0x834 JUMPI POP PUSH1 0x1 PUSH2 0xEAB JUMP JUMPDEST CALLER PUSH1 0x0 SWAP1 DUP2 MSTORE PUSH1 0xFB PUSH1 0x20 MSTORE PUSH1 0x40 DUP2 KECCAK256 PUSH1 0x1 SWAP1 DUP2 ADD SLOAD PUSH1 0xFF AND PUSH1 0x2 DUP2 GT ISZERO PUSH2 0x16BE JUMPI PUSH2 0x16BE PUSH2 0x4526 JUMP JUMPDEST EQ DUP1 ISZERO PUSH2 0x16E7 JUMPI POP CALLER PUSH1 0x0 SWAP1 DUP2 MSTORE PUSH1 0xFB PUSH1 0x20 MSTORE PUSH1 0x40 SWAP1 KECCAK256 PUSH1 0x1 SWAP1 DUP2 ADD SLOAD PUSH2 0x100 SWAP1 DIV PUSH1 0xFF AND ISZERO ISZERO EQ JUMPDEST DUP1 PUSH2 0x170B JUMPI POP PUSH2 0x1705 PUSH1 0x0 DUP1 MLOAD PUSH1 0x20 PUSH2 0x5093 DUP4 CODECOPY DUP2 MLOAD SWAP2 MSTORE CALLER PUSH2 0x11D8 JUMP JUMPDEST ISZERO ISZERO PUSH1 0x1 EQ JUMPDEST PUSH2 0x176E JUMPI PUSH1 0x40 MLOAD PUSH3 0x461BCD PUSH1 0xE5 SHL DUP2 MSTORE PUSH1 0x20 PUSH1 0x4 DUP3 ADD MSTORE PUSH1 0x2E PUSH1 0x24 DUP3 ADD MSTORE PUSH32 0x476F7665726E6F723A206F6E6C792076616C696461746F72206F7220416D696E PUSH1 0x44 DUP3 ADD MSTORE PUSH14 0x818D85B881C195C9B5A5D1D1959 PUSH1 0x92 SHL PUSH1 0x64 DUP3 ADD MSTORE PUSH1 0x84 ADD PUSH2 0x9A5 JUMP JUMPDEST PUSH1 0x0 DUP4 PUSH1 0x20 ADD MLOAD PUSH1 0x3 DUP2 GT ISZERO PUSH2 0x1786 JUMPI PUSH2 0x1786 PUSH2 0x4526 JUMP JUMPDEST SUB PUSH2 0x17D3 JUMPI PUSH1 0x40 MLOAD PUSH3 0x461BCD PUSH1 0xE5 SHL DUP2 MSTORE PUSH1 0x20 PUSH1 0x4 DUP3 ADD DUP2 SWAP1 MSTORE PUSH1 0x24 DUP3 ADD MSTORE PUSH32 0x70726F706F73616C20747970652073686F756C64206E6F74206265204E4F4E45 PUSH1 0x44 DUP3 ADD MSTORE PUSH1 0x64 ADD PUSH2 0x9A5 JUMP JUMPDEST PUSH1 0x0 DUP4 PUSH1 0x40 ADD MLOAD PUSH1 0x4 DUP2 GT ISZERO PUSH2 0x17EB JUMPI PUSH2 0x17EB PUSH2 0x4526 JUMP JUMPDEST SUB PUSH2 0x1838 JUMPI PUSH1 0x40 MLOAD PUSH3 0x461BCD PUSH1 0xE5 SHL DUP2 MSTORE PUSH1 0x20 PUSH1 0x4 DUP3 ADD MSTORE PUSH1 0x1E PUSH1 0x24 DUP3 ADD MSTORE PUSH32 0x616374696F6E20747970652073686F756C64206E6F74206265204E4F4E450000 PUSH1 0x44 DUP3 ADD MSTORE PUSH1 0x64 ADD PUSH2 0x9A5 JUMP JUMPDEST DUP3 PUSH1 0x80 ADD MLOAD MLOAD PUSH1 0x0 SUB PUSH2 0x1888 JUMPI PUSH1 0x40 MLOAD PUSH3 0x461BCD PUSH1 0xE5 SHL DUP2 MSTORE PUSH1 0x20 PUSH1 0x4 DUP3 ADD MSTORE PUSH1 0x18 PUSH1 0x24 DUP3 ADD MSTORE PUSH24 0x646174612073686F756C64206E6F7420626520656D707479 PUSH1 0x40 SHL PUSH1 0x44 DUP3 ADD MSTORE PUSH1 0x64 ADD PUSH2 0x9A5 JUMP JUMPDEST DUP3 MLOAD PUSH1 0x0 SUB PUSH2 0x18D4 JUMPI PUSH1 0x40 MLOAD PUSH3 0x461BCD PUSH1 0xE5 SHL DUP2 MSTORE PUSH1 0x20 PUSH1 0x4 DUP3 ADD MSTORE PUSH1 0x18 PUSH1 0x24 DUP3 ADD MSTORE PUSH24 0x646174612073686F756C64206E6F7420626520656D707479 PUSH1 0x40 SHL PUSH1 0x44 DUP3 ADD MSTORE PUSH1 0x64 ADD PUSH2 0x9A5 JUMP JUMPDEST PUSH2 0x18EC PUSH1 0x0 DUP1 MLOAD PUSH1 0x20 PUSH2 0x5093 DUP4 CODECOPY DUP2 MLOAD SWAP2 MSTORE CALLER PUSH2 0x11D8 JUMP JUMPDEST ISZERO PUSH2 0x195B JUMPI PUSH1 0x1 DUP4 PUSH1 0x20 ADD MLOAD PUSH1 0x3 DUP2 GT ISZERO PUSH2 0x1909 JUMPI PUSH2 0x1909 PUSH2 0x4526 JUMP JUMPDEST EQ PUSH2 0x1956 JUMPI PUSH1 0x40 MLOAD PUSH3 0x461BCD PUSH1 0xE5 SHL DUP2 MSTORE PUSH1 0x20 PUSH1 0x4 DUP3 ADD MSTORE PUSH1 0x1C PUSH1 0x24 DUP3 ADD MSTORE PUSH32 0x61646D696E2070726F706F7365206F6E6C792076616C696461746F7200000000 PUSH1 0x44 DUP3 ADD MSTORE PUSH1 0x64 ADD PUSH2 0x9A5 JUMP JUMPDEST PUSH2 0x19CC JUMP JUMPDEST PUSH1 0x1 DUP4 PUSH1 0x20 ADD MLOAD PUSH1 0x3 DUP2 GT ISZERO PUSH2 0x1973 JUMPI PUSH2 0x1973 PUSH2 0x4526 JUMP JUMPDEST SUB PUSH2 0x19CC JUMPI PUSH1 0x40 MLOAD PUSH3 0x461BCD PUSH1 0xE5 SHL DUP2 MSTORE PUSH1 0x20 PUSH1 0x4 DUP3 ADD MSTORE PUSH1 0x23 PUSH1 0x24 DUP3 ADD MSTORE PUSH32 0x76616C696461746F7220636F75646E27742070726F706F73652076616C696461 PUSH1 0x44 DUP3 ADD MSTORE PUSH3 0x3A37B9 PUSH1 0xE9 SHL PUSH1 0x64 DUP3 ADD MSTORE PUSH1 0x84 ADD PUSH2 0x9A5 JUMP JUMPDEST PUSH1 0x0 DUP4 PUSH1 0x60 ADD MLOAD PUSH1 0x40 MLOAD PUSH1 0x20 ADD PUSH2 0x19E3 SWAP2 SWAP1 PUSH2 0x4A13 JUMP JUMPDEST PUSH1 0x40 MLOAD PUSH1 0x20 DUP2 DUP4 SUB SUB DUP2 MSTORE SWAP1 PUSH1 0x40 MSTORE DUP1 MLOAD SWAP1 PUSH1 0x20 ADD KECCAK256 SWAP1 POP PUSH1 0x0 PUSH2 0x1A21 DUP6 PUSH1 0x0 ADD MLOAD DUP4 PUSH2 0x1A0D CALLER SWAP1 JUMP JUMPDEST DUP9 PUSH1 0x20 ADD MLOAD DUP10 PUSH1 0x40 ADD MLOAD DUP11 PUSH1 0x80 ADD MLOAD PUSH2 0x2B7D JUMP JUMPDEST SWAP1 POP PUSH1 0x0 PUSH2 0x1A2E DUP3 PUSH2 0x2BE2 JUMP JUMPDEST SWAP1 POP PUSH1 0x0 DUP1 PUSH2 0x1A3D DUP4 DUP9 PUSH2 0x2C30 JUMP JUMPDEST SWAP1 SWAP3 POP SWAP1 POP PUSH1 0x0 DUP2 PUSH1 0x4 DUP2 GT ISZERO PUSH2 0x1A56 JUMPI PUSH2 0x1A56 PUSH2 0x4526 JUMP JUMPDEST EQ PUSH2 0x1A8C JUMPI DUP1 PUSH1 0x4 DUP2 GT ISZERO PUSH2 0x1A6D JUMPI PUSH2 0x1A6D PUSH2 0x4526 JUMP JUMPDEST PUSH1 0x40 MLOAD PUSH4 0x64F17F0B PUSH1 0xE0 SHL DUP2 MSTORE PUSH1 0xFF SWAP1 SWAP2 AND PUSH1 0x4 DUP3 ADD MSTORE PUSH1 0x24 ADD PUSH2 0x9A5 JUMP JUMPDEST PUSH1 0x40 MLOAD PUSH4 0x24745215 PUSH1 0xE2 SHL DUP2 MSTORE PUSH1 0x0 DUP1 MLOAD PUSH1 0x20 PUSH2 0x5093 DUP4 CODECOPY DUP2 MLOAD SWAP2 MSTORE PUSH1 0x4 DUP3 ADD MSTORE PUSH1 0x1 PUSH1 0x1 PUSH1 0xA0 SHL SUB DUP4 AND PUSH1 0x24 DUP3 ADD MSTORE ADDRESS SWAP1 PUSH4 0x91D14854 SWAP1 PUSH1 0x44 ADD PUSH1 0x20 PUSH1 0x40 MLOAD DUP1 DUP4 SUB DUP2 DUP7 GAS STATICCALL ISZERO DUP1 ISZERO PUSH2 0x1AE4 JUMPI RETURNDATASIZE PUSH1 0x0 DUP1 RETURNDATACOPY RETURNDATASIZE PUSH1 0x0 REVERT JUMPDEST POP POP POP POP PUSH1 0x40 MLOAD RETURNDATASIZE PUSH1 0x1F NOT PUSH1 0x1F DUP3 ADD AND DUP3 ADD DUP1 PUSH1 0x40 MSTORE POP DUP2 ADD SWAP1 PUSH2 0x1B08 SWAP2 SWAP1 PUSH2 0x4A2F JUMP JUMPDEST PUSH2 0x1B60 JUMPI PUSH1 0x40 MLOAD PUSH3 0x461BCD PUSH1 0xE5 SHL DUP2 MSTORE PUSH1 0x20 PUSH1 0x4 DUP3 ADD MSTORE PUSH1 0x23 PUSH1 0x24 DUP3 ADD MSTORE PUSH32 0x70726F706F73616C206372656174696F6E207065726D697373696F6E2064656E PUSH1 0x44 DUP3 ADD MSTORE PUSH3 0x1A5959 PUSH1 0xEA SHL PUSH1 0x64 DUP3 ADD MSTORE PUSH1 0x84 ADD PUSH2 0x9A5 JUMP JUMPDEST DUP8 MLOAD PUSH1 0x0 SWAP1 PUSH2 0x1B7F SWAP1 DUP8 CALLER DUP13 PUSH1 0x20 ADD MLOAD DUP14 PUSH1 0x40 ADD MLOAD DUP15 PUSH1 0x80 ADD MLOAD PUSH2 0x14E7 JUMP JUMPDEST PUSH1 0x0 DUP2 DUP2 MSTORE PUSH1 0xFD PUSH1 0x20 MSTORE PUSH1 0x40 DUP2 KECCAK256 DUP3 DUP2 SSTORE PUSH1 0xFE SLOAD SWAP3 SWAP4 POP SWAP2 PUSH2 0x1BA1 SWAP1 TIMESTAMP PUSH2 0x4A4C JUMP JUMPDEST SWAP1 POP PUSH1 0x0 PUSH1 0xFF SLOAD TIMESTAMP PUSH2 0x1BB3 SWAP2 SWAP1 PUSH2 0x4A4C JUMP JUMPDEST PUSH1 0x4 DUP5 ADD DUP1 SLOAD PUSH8 0xFFFFFFFFFFFFFFFF NOT AND PUSH1 0x1 PUSH1 0x1 PUSH1 0x40 SHL SUB DUP6 AND OR SWAP1 SSTORE SWAP1 POP PUSH1 0x5 DUP4 ADD DUP1 SLOAD PUSH8 0xFFFFFFFFFFFFFFFF NOT AND PUSH1 0x1 PUSH1 0x1 PUSH1 0x40 SHL SUB DUP4 AND OR SWAP1 SSTORE PUSH1 0x2 DUP4 ADD DUP10 SWAP1 SSTORE DUP12 MLOAD PUSH1 0x1 DUP1 DUP6 ADD SWAP2 SWAP1 SWAP2 SSTORE PUSH1 0x3 DUP1 DUP6 ADD DUP1 SLOAD PUSH1 0x1 PUSH1 0x1 PUSH1 0xA0 SHL SUB NOT AND CALLER OR SWAP1 SSTORE PUSH1 0x20 DUP15 ADD MLOAD PUSH1 0x6 DUP7 ADD DUP1 SLOAD SWAP2 SWAP4 SWAP1 SWAP3 PUSH1 0xFF NOT SWAP1 SWAP3 AND SWAP2 DUP5 SWAP1 DUP2 GT ISZERO PUSH2 0x1C3F JUMPI PUSH2 0x1C3F PUSH2 0x4526 JUMP JUMPDEST MUL OR SWAP1 SSTORE POP PUSH1 0x40 DUP13 ADD MLOAD PUSH1 0x6 DUP5 ADD DUP1 SLOAD PUSH2 0xFF00 NOT AND PUSH2 0x100 DUP4 PUSH1 0x4 DUP2 GT ISZERO PUSH2 0x1C69 JUMPI PUSH2 0x1C69 PUSH2 0x4526 JUMP JUMPDEST MUL OR SWAP1 SSTORE POP PUSH1 0x80 DUP13 ADD MLOAD DUP1 MLOAD PUSH2 0x1C89 SWAP2 PUSH1 0x7 DUP7 ADD SWAP2 PUSH1 0x20 SWAP1 SWAP2 ADD SWAP1 PUSH2 0x4253 JUMP JUMPDEST POP PUSH2 0x1C93 DUP4 PUSH2 0x2C9E JUMP JUMPDEST POP SWAP2 SWAP11 SWAP10 POP POP POP POP POP POP POP POP POP POP JUMP JUMPDEST PUSH2 0xCEB DUP2 CALLER PUSH2 0x37D1 JUMP JUMPDEST PUSH2 0x1CB7 DUP3 DUP3 PUSH2 0x11D8 JUMP JUMPDEST PUSH2 0xC0B JUMPI PUSH1 0x0 DUP3 DUP2 MSTORE PUSH1 0xC9 PUSH1 0x20 SWAP1 DUP2 MSTORE PUSH1 0x40 DUP1 DUP4 KECCAK256 PUSH1 0x1 PUSH1 0x1 PUSH1 0xA0 SHL SUB DUP6 AND DUP5 MSTORE SWAP1 SWAP2 MSTORE SWAP1 KECCAK256 DUP1 SLOAD PUSH1 0xFF NOT AND PUSH1 0x1 OR SWAP1 SSTORE PUSH2 0x1CEF CALLER SWAP1 JUMP JUMPDEST PUSH1 0x1 PUSH1 0x1 PUSH1 0xA0 SHL SUB AND DUP2 PUSH1 0x1 PUSH1 0x1 PUSH1 0xA0 SHL SUB AND DUP4 PUSH32 0x2F8788117E7EFF1D82E926EC794901D17C78024A50270940304540A733656F0D PUSH1 0x40 MLOAD PUSH1 0x40 MLOAD DUP1 SWAP2 SUB SWAP1 LOG4 POP POP JUMP JUMPDEST PUSH1 0x0 PUSH2 0x102F DUP4 PUSH1 0x1 PUSH1 0x1 PUSH1 0xA0 SHL SUB DUP5 AND PUSH2 0x3835 JUMP JUMPDEST PUSH1 0x0 PUSH1 0x1 DUP1 PUSH1 0x6 DUP5 ADD SLOAD PUSH1 0xFF AND PUSH1 0x3 DUP2 GT ISZERO PUSH2 0x1D66 JUMPI PUSH2 0x1D66 PUSH2 0x4526 JUMP JUMPDEST SUB PUSH2 0x1F14 JUMPI PUSH1 0x1 PUSH1 0x6 DUP5 ADD SLOAD PUSH2 0x100 SWAP1 DIV PUSH1 0xFF AND PUSH1 0x4 DUP2 GT ISZERO PUSH2 0x1D8B JUMPI PUSH2 0x1D8B PUSH2 0x4526 JUMP JUMPDEST SUB PUSH2 0x1F0F JUMPI PUSH1 0x0 DUP4 PUSH1 0x7 ADD DUP1 SLOAD PUSH2 0x1DA1 SWAP1 PUSH2 0x4870 JUMP JUMPDEST DUP1 PUSH1 0x1F ADD PUSH1 0x20 DUP1 SWAP2 DIV MUL PUSH1 0x20 ADD PUSH1 0x40 MLOAD SWAP1 DUP2 ADD PUSH1 0x40 MSTORE DUP1 SWAP3 SWAP2 SWAP1 DUP2 DUP2 MSTORE PUSH1 0x20 ADD DUP3 DUP1 SLOAD PUSH2 0x1DCD SWAP1 PUSH2 0x4870 JUMP JUMPDEST DUP1 ISZERO PUSH2 0x1E1A JUMPI DUP1 PUSH1 0x1F LT PUSH2 0x1DEF JUMPI PUSH2 0x100 DUP1 DUP4 SLOAD DIV MUL DUP4 MSTORE SWAP2 PUSH1 0x20 ADD SWAP2 PUSH2 0x1E1A JUMP JUMPDEST DUP3 ADD SWAP2 SWAP1 PUSH1 0x0 MSTORE PUSH1 0x20 PUSH1 0x0 KECCAK256 SWAP1 JUMPDEST DUP2 SLOAD DUP2 MSTORE SWAP1 PUSH1 0x1 ADD SWAP1 PUSH1 0x20 ADD DUP1 DUP4 GT PUSH2 0x1DFD JUMPI DUP3 SWAP1 SUB PUSH1 0x1F AND DUP3 ADD SWAP2 JUMPDEST POP POP POP POP POP DUP1 PUSH1 0x20 ADD SWAP1 MLOAD DUP2 ADD SWAP1 PUSH2 0x1E32 SWAP2 SWAP1 PUSH2 0x4ABC JUMP JUMPDEST PUSH1 0x40 DUP1 MLOAD PUSH1 0x60 DUP2 ADD SWAP1 SWAP2 MSTORE DUP2 MLOAD DUP2 MSTORE SWAP1 SWAP2 POP PUSH1 0x20 DUP2 ADD PUSH1 0x1 DUP2 MSTORE PUSH1 0x1 PUSH1 0x20 SWAP2 DUP3 ADD MSTORE DUP3 DUP2 ADD MLOAD PUSH1 0x1 PUSH1 0x1 PUSH1 0xA0 SHL SUB AND PUSH1 0x0 SWAP1 DUP2 MSTORE PUSH1 0xFB DUP3 MSTORE PUSH1 0x40 SWAP1 KECCAK256 DUP3 MLOAD DUP1 MLOAD SWAP2 SWAP3 PUSH2 0x1E83 SWAP3 DUP5 SWAP3 SWAP1 SWAP2 ADD SWAP1 PUSH2 0x4253 JUMP JUMPDEST POP PUSH1 0x20 DUP3 ADD MLOAD PUSH1 0x1 DUP1 DUP4 ADD DUP1 SLOAD SWAP1 SWAP2 PUSH1 0xFF NOT SWAP1 SWAP2 AND SWAP1 DUP4 PUSH1 0x2 DUP2 GT ISZERO PUSH2 0x1EAB JUMPI PUSH2 0x1EAB PUSH2 0x4526 JUMP JUMPDEST MUL OR SWAP1 SSTORE POP PUSH1 0x40 SWAP2 SWAP1 SWAP2 ADD MLOAD PUSH1 0x1 SWAP2 DUP3 ADD DUP1 SLOAD SWAP2 ISZERO ISZERO PUSH2 0x100 MUL PUSH2 0xFF00 NOT SWAP1 SWAP3 AND SWAP2 SWAP1 SWAP2 OR SWAP1 SSTORE PUSH2 0x105 DUP1 SLOAD PUSH1 0x0 SWAP1 PUSH2 0x1EEB SWAP1 DUP5 SWAP1 PUSH4 0xFFFFFFFF AND PUSH2 0x4B55 JUMP JUMPDEST SWAP3 POP PUSH2 0x100 EXP DUP2 SLOAD DUP2 PUSH4 0xFFFFFFFF MUL NOT AND SWAP1 DUP4 PUSH4 0xFFFFFFFF AND MUL OR SWAP1 SSTORE POP PUSH1 0x1 SWAP2 POP POP JUMPDEST PUSH2 0x834 JUMP JUMPDEST PUSH2 0x105 SLOAD PUSH1 0x1 PUSH1 0x40 SHL SWAP1 DIV PUSH1 0xFF AND ISZERO DUP1 ISZERO PUSH2 0x1F47 JUMPI POP PUSH1 0x2 PUSH1 0x6 DUP5 ADD SLOAD PUSH1 0xFF AND PUSH1 0x3 DUP2 GT ISZERO PUSH2 0x1F45 JUMPI PUSH2 0x1F45 PUSH2 0x4526 JUMP JUMPDEST EQ JUMPDEST ISZERO PUSH2 0x834 JUMPI PUSH1 0x1 PUSH1 0x6 DUP5 ADD SLOAD PUSH2 0x100 SWAP1 DIV PUSH1 0xFF AND PUSH1 0x4 DUP2 GT ISZERO PUSH2 0x1F6C JUMPI PUSH2 0x1F6C PUSH2 0x4526 JUMP JUMPDEST SUB PUSH2 0x219C JUMPI PUSH1 0x0 DUP4 PUSH1 0x7 ADD DUP1 SLOAD PUSH2 0x1F82 SWAP1 PUSH2 0x4870 JUMP JUMPDEST DUP1 PUSH1 0x1F ADD PUSH1 0x20 DUP1 SWAP2 DIV MUL PUSH1 0x20 ADD PUSH1 0x40 MLOAD SWAP1 DUP2 ADD PUSH1 0x40 MSTORE DUP1 SWAP3 SWAP2 SWAP1 DUP2 DUP2 MSTORE PUSH1 0x20 ADD DUP3 DUP1 SLOAD PUSH2 0x1FAE SWAP1 PUSH2 0x4870 JUMP JUMPDEST DUP1 ISZERO PUSH2 0x1FFB JUMPI DUP1 PUSH1 0x1F LT PUSH2 0x1FD0 JUMPI PUSH2 0x100 DUP1 DUP4 SLOAD DIV MUL DUP4 MSTORE SWAP2 PUSH1 0x20 ADD SWAP2 PUSH2 0x1FFB JUMP JUMPDEST DUP3 ADD SWAP2 SWAP1 PUSH1 0x0 MSTORE PUSH1 0x20 PUSH1 0x0 KECCAK256 SWAP1 JUMPDEST DUP2 SLOAD DUP2 MSTORE SWAP1 PUSH1 0x1 ADD SWAP1 PUSH1 0x20 ADD DUP1 DUP4 GT PUSH2 0x1FDE JUMPI DUP3 SWAP1 SUB PUSH1 0x1F AND DUP3 ADD SWAP2 JUMPDEST POP POP POP POP POP DUP1 PUSH1 0x20 ADD SWAP1 MLOAD DUP2 ADD SWAP1 PUSH2 0x2013 SWAP2 SWAP1 PUSH2 0x4C10 JUMP JUMPDEST SWAP1 POP DUP2 DUP1 ISZERO PUSH2 0x202F JUMPI POP PUSH2 0x202F DUP2 PUSH1 0x40 ADD MLOAD DUP3 PUSH1 0x20 ADD MLOAD PUSH2 0x3884 JUMP JUMPDEST SWAP2 POP DUP2 DUP1 ISZERO PUSH2 0x206D JUMPI POP PUSH2 0x101 SLOAD PUSH1 0x20 DUP3 ADD MLOAD PUSH2 0x206D SWAP2 PUSH1 0x1 PUSH1 0x1 PUSH1 0xA0 SHL SUB AND SWAP1 PUSH1 0x64 SWAP1 PUSH2 0x205E SWAP1 PUSH1 0x5 PUSH2 0x4C44 JUMP JUMPDEST PUSH2 0x2068 SWAP2 SWAP1 PUSH2 0x4C79 JUMP JUMPDEST PUSH2 0x3884 JUMP JUMPDEST SWAP2 POP DUP2 DUP1 ISZERO PUSH2 0x209B JUMPI POP PUSH1 0x3 DUP5 ADD SLOAD PUSH1 0x20 DUP3 ADD MLOAD PUSH2 0x209B SWAP2 PUSH1 0x1 PUSH1 0x1 PUSH1 0xA0 SHL SUB AND SWAP1 PUSH2 0x2068 SWAP1 PUSH1 0x64 SWAP1 PUSH2 0x4C79 JUMP JUMPDEST SWAP2 POP DUP2 DUP1 ISZERO PUSH2 0x20B7 JUMPI POP PUSH2 0x20B7 DUP5 PUSH1 0x0 ADD SLOAD DUP3 PUSH1 0x20 ADD MLOAD PUSH2 0x3984 JUMP JUMPDEST PUSH1 0x40 DUP1 MLOAD PUSH1 0x60 DUP2 ADD SWAP1 SWAP2 MSTORE DUP3 MLOAD DUP2 MSTORE SWAP1 SWAP3 POP PUSH1 0x20 DUP2 ADD PUSH1 0x2 DUP2 MSTORE PUSH1 0x1 PUSH1 0x20 SWAP2 DUP3 ADD MSTORE PUSH1 0x40 DUP1 DUP5 ADD MLOAD PUSH1 0x1 PUSH1 0x1 PUSH1 0xA0 SHL SUB AND PUSH1 0x0 SWAP1 DUP2 MSTORE PUSH1 0xFB DUP4 MSTORE KECCAK256 DUP3 MLOAD DUP1 MLOAD SWAP2 SWAP3 PUSH2 0x2107 SWAP3 DUP5 SWAP3 SWAP1 SWAP2 ADD SWAP1 PUSH2 0x4253 JUMP JUMPDEST POP PUSH1 0x20 DUP3 ADD MLOAD PUSH1 0x1 DUP1 DUP4 ADD DUP1 SLOAD SWAP1 SWAP2 PUSH1 0xFF NOT SWAP1 SWAP2 AND SWAP1 DUP4 PUSH1 0x2 DUP2 GT ISZERO PUSH2 0x212F JUMPI PUSH2 0x212F PUSH2 0x4526 JUMP JUMPDEST MUL OR SWAP1 SSTORE POP PUSH1 0x40 SWAP2 SWAP1 SWAP2 ADD MLOAD PUSH1 0x1 SWAP2 DUP3 ADD DUP1 SLOAD SWAP2 ISZERO ISZERO PUSH2 0x100 MUL PUSH2 0xFF00 NOT SWAP1 SWAP3 AND SWAP2 SWAP1 SWAP2 OR SWAP1 SSTORE PUSH2 0x105 DUP1 SLOAD PUSH1 0x4 SWAP1 PUSH2 0x2178 SWAP1 DUP5 SWAP1 PUSH4 0xFFFFFFFF PUSH5 0x100000000 SWAP1 SWAP2 DIV AND PUSH2 0x4B55 JUMP JUMPDEST SWAP3 POP PUSH2 0x100 EXP DUP2 SLOAD DUP2 PUSH4 0xFFFFFFFF MUL NOT AND SWAP1 DUP4 PUSH4 0xFFFFFFFF AND MUL OR SWAP1 SSTORE POP POP PUSH2 0x834 JUMP JUMPDEST PUSH1 0x2 PUSH1 0x6 DUP5 ADD SLOAD PUSH2 0x100 SWAP1 DIV PUSH1 0xFF AND PUSH1 0x4 DUP2 GT ISZERO PUSH2 0x21BC JUMPI PUSH2 0x21BC PUSH2 0x4526 JUMP JUMPDEST SUB PUSH2 0x2300 JUMPI PUSH1 0x0 DUP4 PUSH1 0x7 ADD DUP1 SLOAD PUSH2 0x21D2 SWAP1 PUSH2 0x4870 JUMP JUMPDEST DUP1 PUSH1 0x1F ADD PUSH1 0x20 DUP1 SWAP2 DIV MUL PUSH1 0x20 ADD PUSH1 0x40 MLOAD SWAP1 DUP2 ADD PUSH1 0x40 MSTORE DUP1 SWAP3 SWAP2 SWAP1 DUP2 DUP2 MSTORE PUSH1 0x20 ADD DUP3 DUP1 SLOAD PUSH2 0x21FE SWAP1 PUSH2 0x4870 JUMP JUMPDEST DUP1 ISZERO PUSH2 0x224B JUMPI DUP1 PUSH1 0x1F LT PUSH2 0x2220 JUMPI PUSH2 0x100 DUP1 DUP4 SLOAD DIV MUL DUP4 MSTORE SWAP2 PUSH1 0x20 ADD SWAP2 PUSH2 0x224B JUMP JUMPDEST DUP3 ADD SWAP2 SWAP1 PUSH1 0x0 MSTORE PUSH1 0x20 PUSH1 0x0 KECCAK256 SWAP1 JUMPDEST DUP2 SLOAD DUP2 MSTORE SWAP1 PUSH1 0x1 ADD SWAP1 PUSH1 0x20 ADD DUP1 DUP4 GT PUSH2 0x222E JUMPI DUP3 SWAP1 SUB PUSH1 0x1F AND DUP3 ADD SWAP2 JUMPDEST POP POP POP POP POP DUP1 PUSH1 0x20 ADD SWAP1 MLOAD DUP2 ADD SWAP1 PUSH2 0x2263 SWAP2 SWAP1 PUSH2 0x4C10 JUMP JUMPDEST SWAP1 POP DUP2 DUP1 ISZERO PUSH2 0x227F JUMPI POP PUSH2 0x227F DUP2 PUSH1 0x40 ADD MLOAD DUP3 PUSH1 0x20 ADD MLOAD PUSH2 0x3884 JUMP JUMPDEST SWAP2 POP DUP2 DUP1 ISZERO PUSH2 0x22AE JUMPI POP PUSH2 0x101 SLOAD PUSH1 0x20 DUP3 ADD MLOAD PUSH2 0x22AE SWAP2 PUSH1 0x1 PUSH1 0x1 PUSH1 0xA0 SHL SUB AND SWAP1 PUSH1 0x64 SWAP1 PUSH2 0x205E SWAP1 PUSH1 0x5 PUSH2 0x4C44 JUMP JUMPDEST SWAP2 POP DUP2 DUP1 ISZERO PUSH2 0x22DC JUMPI POP PUSH1 0x3 DUP5 ADD SLOAD PUSH1 0x20 DUP3 ADD MLOAD PUSH2 0x22DC SWAP2 PUSH1 0x1 PUSH1 0x1 PUSH1 0xA0 SHL SUB AND SWAP1 PUSH2 0x2068 SWAP1 PUSH1 0x64 SWAP1 PUSH2 0x4C79 JUMP JUMPDEST SWAP2 POP DUP2 DUP1 ISZERO PUSH2 0x22F8 JUMPI POP PUSH2 0x22F8 DUP5 PUSH1 0x0 ADD SLOAD DUP3 PUSH1 0x20 ADD MLOAD PUSH2 0x3984 JUMP JUMPDEST SWAP2 POP POP PUSH2 0x834 JUMP JUMPDEST PUSH1 0x3 PUSH1 0x6 DUP5 ADD SLOAD PUSH2 0x100 SWAP1 DIV PUSH1 0xFF AND PUSH1 0x4 DUP2 GT ISZERO PUSH2 0x2320 JUMPI PUSH2 0x2320 PUSH2 0x4526 JUMP JUMPDEST SUB PUSH2 0x23D6 JUMPI PUSH1 0x0 DUP4 PUSH1 0x7 ADD DUP1 SLOAD PUSH2 0x2336 SWAP1 PUSH2 0x4870 JUMP JUMPDEST DUP1 PUSH1 0x1F ADD PUSH1 0x20 DUP1 SWAP2 DIV MUL PUSH1 0x20 ADD PUSH1 0x40 MLOAD SWAP1 DUP2 ADD PUSH1 0x40 MSTORE DUP1 SWAP3 SWAP2 SWAP1 DUP2 DUP2 MSTORE PUSH1 0x20 ADD DUP3 DUP1 SLOAD PUSH2 0x2362 SWAP1 PUSH2 0x4870 JUMP JUMPDEST DUP1 ISZERO PUSH2 0x23AF JUMPI DUP1 PUSH1 0x1F LT PUSH2 0x2384 JUMPI PUSH2 0x100 DUP1 DUP4 SLOAD DIV MUL DUP4 MSTORE SWAP2 PUSH1 0x20 ADD SWAP2 PUSH2 0x23AF JUMP JUMPDEST DUP3 ADD SWAP2 SWAP1 PUSH1 0x0 MSTORE PUSH1 0x20 PUSH1 0x0 KECCAK256 SWAP1 JUMPDEST DUP2 SLOAD DUP2 MSTORE SWAP1 PUSH1 0x1 ADD SWAP1 PUSH1 0x20 ADD DUP1 DUP4 GT PUSH2 0x2392 JUMPI DUP3 SWAP1 SUB PUSH1 0x1F AND DUP3 ADD SWAP2 JUMPDEST POP POP POP POP POP DUP1 PUSH1 0x20 ADD SWAP1 MLOAD DUP2 ADD SWAP1 PUSH2 0x23C7 SWAP2 SWAP1 PUSH2 0x4CDC JUMP JUMPDEST SWAP1 POP PUSH2 0x22F8 DUP2 PUSH1 0x0 ADD MLOAD PUSH2 0x3A11 JUMP JUMPDEST PUSH1 0x4 PUSH1 0x6 DUP5 ADD SLOAD PUSH2 0x100 SWAP1 DIV PUSH1 0xFF AND PUSH1 0x4 DUP2 GT ISZERO PUSH2 0x23F6 JUMPI PUSH2 0x23F6 PUSH2 0x4526 JUMP JUMPDEST SUB PUSH2 0x834 JUMPI PUSH1 0x0 DUP4 PUSH1 0x7 ADD DUP1 SLOAD PUSH2 0x240C SWAP1 PUSH2 0x4870 JUMP JUMPDEST DUP1 PUSH1 0x1F ADD PUSH1 0x20 DUP1 SWAP2 DIV MUL PUSH1 0x20 ADD PUSH1 0x40 MLOAD SWAP1 DUP2 ADD PUSH1 0x40 MSTORE DUP1 SWAP3 SWAP2 SWAP1 DUP2 DUP2 MSTORE PUSH1 0x20 ADD DUP3 DUP1 SLOAD PUSH2 0x2438 SWAP1 PUSH2 0x4870 JUMP JUMPDEST DUP1 ISZERO PUSH2 0x2485 JUMPI DUP1 PUSH1 0x1F LT PUSH2 0x245A JUMPI PUSH2 0x100 DUP1 DUP4 SLOAD DIV MUL DUP4 MSTORE SWAP2 PUSH1 0x20 ADD SWAP2 PUSH2 0x2485 JUMP JUMPDEST DUP3 ADD SWAP2 SWAP1 PUSH1 0x0 MSTORE PUSH1 0x20 PUSH1 0x0 KECCAK256 SWAP1 JUMPDEST DUP2 SLOAD DUP2 MSTORE SWAP1 PUSH1 0x1 ADD SWAP1 PUSH1 0x20 ADD DUP1 DUP4 GT PUSH2 0x2468 JUMPI DUP3 SWAP1 SUB PUSH1 0x1F AND DUP3 ADD SWAP2 JUMPDEST POP POP POP POP POP DUP1 PUSH1 0x20 ADD SWAP1 MLOAD DUP2 ADD SWAP1 PUSH2 0x249D SWAP2 SWAP1 PUSH2 0x4CDC JUMP JUMPDEST SWAP1 POP PUSH2 0x24AC DUP2 PUSH1 0x0 ADD MLOAD PUSH2 0x3AFF JUMP JUMPDEST SWAP5 SWAP4 POP POP POP POP JUMP JUMPDEST PUSH2 0x24BE DUP3 DUP3 PUSH2 0x11D8 JUMP JUMPDEST ISZERO PUSH2 0xC0B JUMPI PUSH1 0x0 DUP3 DUP2 MSTORE PUSH1 0xC9 PUSH1 0x20 SWAP1 DUP2 MSTORE PUSH1 0x40 DUP1 DUP4 KECCAK256 PUSH1 0x1 PUSH1 0x1 PUSH1 0xA0 SHL SUB DUP6 AND DUP1 DUP6 MSTORE SWAP3 MSTORE DUP1 DUP4 KECCAK256 DUP1 SLOAD PUSH1 0xFF NOT AND SWAP1 SSTORE MLOAD CALLER SWAP3 DUP6 SWAP2 PUSH32 0xF6391F5C32D9C69D2A47EA670B442974B53935D1EDC7FD64EB21E047A839171B SWAP2 SWAP1 LOG4 POP POP JUMP JUMPDEST ADDRESS PUSH4 0x91D14854 PUSH1 0x0 DUP1 MLOAD PUSH1 0x20 PUSH2 0x5093 DUP4 CODECOPY DUP2 MLOAD SWAP2 MSTORE CALLER PUSH1 0x40 MLOAD PUSH1 0x1 PUSH1 0x1 PUSH1 0xE0 SHL SUB NOT PUSH1 0xE0 DUP6 SWAP1 SHL AND DUP2 MSTORE PUSH1 0x4 DUP2 ADD SWAP3 SWAP1 SWAP3 MSTORE PUSH1 0x1 PUSH1 0x1 PUSH1 0xA0 SHL SUB AND PUSH1 0x24 DUP3 ADD MSTORE PUSH1 0x44 ADD PUSH1 0x20 PUSH1 0x40 MLOAD DUP1 DUP4 SUB DUP2 DUP7 GAS STATICCALL ISZERO DUP1 ISZERO PUSH2 0x257B JUMPI RETURNDATASIZE PUSH1 0x0 DUP1 RETURNDATACOPY RETURNDATASIZE PUSH1 0x0 REVERT JUMPDEST POP POP POP POP PUSH1 0x40 MLOAD RETURNDATASIZE PUSH1 0x1F NOT PUSH1 0x1F DUP3 ADD AND DUP3 ADD DUP1 PUSH1 0x40 MSTORE POP DUP2 ADD SWAP1 PUSH2 0xC0B SWAP2 SWAP1 PUSH2 0x4A2F JUMP JUMPDEST PUSH32 0x4910FDFA16FED3260ED0E7147F7CC6DA11A60208B5B9406D12A635614FFD9143 SLOAD PUSH1 0xFF AND ISZERO PUSH2 0x25D2 JUMPI PUSH2 0xA35 DUP4 PUSH2 0x3BED JUMP JUMPDEST DUP3 PUSH1 0x1 PUSH1 0x1 PUSH1 0xA0 SHL SUB AND PUSH4 0x52D1902D PUSH1 0x40 MLOAD DUP2 PUSH4 0xFFFFFFFF AND PUSH1 0xE0 SHL DUP2 MSTORE PUSH1 0x4 ADD PUSH1 0x20 PUSH1 0x40 MLOAD DUP1 DUP4 SUB DUP2 DUP7 GAS STATICCALL SWAP3 POP POP POP DUP1 ISZERO PUSH2 0x262C JUMPI POP PUSH1 0x40 DUP1 MLOAD PUSH1 0x1F RETURNDATASIZE SWAP1 DUP2 ADD PUSH1 0x1F NOT AND DUP3 ADD SWAP1 SWAP3 MSTORE PUSH2 0x2629 SWAP2 DUP2 ADD SWAP1 PUSH2 0x4CF8 JUMP JUMPDEST PUSH1 0x1 JUMPDEST PUSH2 0x268F JUMPI PUSH1 0x40 MLOAD PUSH3 0x461BCD PUSH1 0xE5 SHL DUP2 MSTORE PUSH1 0x20 PUSH1 0x4 DUP3 ADD MSTORE PUSH1 0x2E PUSH1 0x24 DUP3 ADD MSTORE PUSH32 0x45524331393637557067726164653A206E657720696D706C656D656E74617469 PUSH1 0x44 DUP3 ADD MSTORE PUSH14 0x6F6E206973206E6F742055555053 PUSH1 0x90 SHL PUSH1 0x64 DUP3 ADD MSTORE PUSH1 0x84 ADD PUSH2 0x9A5 JUMP JUMPDEST PUSH1 0x0 DUP1 MLOAD PUSH1 0x20 PUSH2 0x504C DUP4 CODECOPY DUP2 MLOAD SWAP2 MSTORE DUP2 EQ PUSH2 0x26FE JUMPI PUSH1 0x40 MLOAD PUSH3 0x461BCD PUSH1 0xE5 SHL DUP2 MSTORE PUSH1 0x20 PUSH1 0x4 DUP3 ADD MSTORE PUSH1 0x29 PUSH1 0x24 DUP3 ADD MSTORE PUSH32 0x45524331393637557067726164653A20756E737570706F727465642070726F78 PUSH1 0x44 DUP3 ADD MSTORE PUSH9 0x1A58589B1955555251 PUSH1 0xBA SHL PUSH1 0x64 DUP3 ADD MSTORE PUSH1 0x84 ADD PUSH2 0x9A5 JUMP JUMPDEST POP PUSH2 0xA35 DUP4 DUP4 DUP4 PUSH2 0x3C89 JUMP JUMPDEST PUSH1 0x0 DUP2 DUP2 MSTORE PUSH1 0xFC PUSH1 0x20 MSTORE PUSH1 0x40 DUP2 KECCAK256 DUP1 SLOAD PUSH1 0x1 PUSH1 0x1 PUSH1 0x40 SHL SUB PUSH1 0x1 PUSH1 0x80 SHL DUP3 DIV DUP2 AND SWAP2 PUSH2 0x2741 SWAP2 DUP1 DUP3 AND SWAP2 PUSH1 0x1 PUSH1 0x40 SHL SWAP1 DIV AND PUSH2 0x4A4C JUMP JUMPDEST PUSH2 0x274B SWAP2 SWAP1 PUSH2 0x4A4C JUMP JUMPDEST PUSH2 0x105 SLOAD PUSH4 0xFFFFFFFF AND PUSH1 0x1 PUSH1 0x1 PUSH1 0x40 SHL SUB SWAP2 SWAP1 SWAP2 AND EQ SWAP4 SWAP3 POP POP POP JUMP JUMPDEST PUSH1 0x0 PUSH2 0x277E DUP3 MLOAD PUSH1 0x1 PUSH1 0x1 PUSH1 0x40 SHL SUB AND ISZERO ISZERO SWAP1 JUMP JUMPDEST DUP1 ISZERO PUSH2 0x834 JUMPI POP POP MLOAD TIMESTAMP PUSH1 0x1 PUSH1 0x1 PUSH1 0x40 SHL SUB SWAP1 SWAP2 AND GT ISZERO SWAP1 JUMP JUMPDEST PUSH1 0x0 DUP2 DUP2 MSTORE PUSH1 0xFC PUSH1 0x20 MSTORE PUSH1 0x40 DUP2 KECCAK256 PUSH2 0x105 SLOAD PUSH2 0x27BC SWAP1 PUSH1 0x2 SWAP1 PUSH4 0xFFFFFFFF AND PUSH2 0x4D11 JUMP JUMPDEST PUSH2 0x27C7 SWAP1 PUSH1 0x1 PUSH2 0x4B55 JUMP JUMPDEST SWAP1 SLOAD PUSH4 0xFFFFFFFF SWAP1 SWAP2 AND PUSH1 0x1 PUSH1 0x40 SHL SWAP1 SWAP2 DIV PUSH1 0x1 PUSH1 0x1 PUSH1 0x40 SHL SUB AND LT ISZERO SWAP3 SWAP2 POP POP JUMP JUMPDEST PUSH1 0x0 DUP1 SLOAD PUSH2 0x100 SWAP1 DIV PUSH1 0xFF AND ISZERO PUSH2 0x2831 JUMPI DUP2 PUSH1 0xFF AND PUSH1 0x1 EQ DUP1 ISZERO PUSH2 0x280D JUMPI POP ADDRESS EXTCODESIZE ISZERO JUMPDEST PUSH2 0x2829 JUMPI PUSH1 0x40 MLOAD PUSH3 0x461BCD PUSH1 0xE5 SHL DUP2 MSTORE PUSH1 0x4 ADD PUSH2 0x9A5 SWAP1 PUSH2 0x4D34 JUMP JUMPDEST POP PUSH1 0x0 SWAP2 SWAP1 POP JUMP JUMPDEST PUSH1 0x0 SLOAD PUSH1 0xFF DUP1 DUP5 AND SWAP2 AND LT PUSH2 0x2858 JUMPI PUSH1 0x40 MLOAD PUSH3 0x461BCD PUSH1 0xE5 SHL DUP2 MSTORE PUSH1 0x4 ADD PUSH2 0x9A5 SWAP1 PUSH2 0x4D34 JUMP JUMPDEST POP PUSH1 0x0 DUP1 SLOAD PUSH1 0xFF NOT AND PUSH1 0xFF SWAP3 SWAP1 SWAP3 AND SWAP2 SWAP1 SWAP2 OR SWAP1 SSTORE PUSH1 0x1 SWAP1 JUMP JUMPDEST SWAP2 SWAP1 POP JUMP JUMPDEST PUSH1 0x0 DUP3 DUP2 MSTORE PUSH1 0xC9 PUSH1 0x20 MSTORE PUSH1 0x40 DUP1 DUP3 KECCAK256 PUSH1 0x1 ADD DUP1 SLOAD SWAP1 DUP5 SWAP1 SSTORE SWAP1 MLOAD SWAP1 SWAP2 DUP4 SWAP2 DUP4 SWAP2 DUP7 SWAP2 PUSH32 0xBD79B86FFE0AB8E8776151514217CD7CACD52C909F66475C3AF44E129F0B00FF SWAP2 SWAP1 LOG4 POP POP POP JUMP JUMPDEST PUSH1 0x0 DUP1 DUP4 PUSH1 0x3 DUP2 GT ISZERO PUSH2 0x28D7 JUMPI PUSH2 0x28D7 PUSH2 0x4526 JUMP JUMPDEST SUB PUSH2 0x291D JUMPI PUSH1 0x40 MLOAD PUSH3 0x461BCD PUSH1 0xE5 SHL DUP2 MSTORE PUSH1 0x20 PUSH1 0x4 DUP3 ADD MSTORE PUSH1 0x16 PUSH1 0x24 DUP3 ADD MSTORE PUSH22 0x11DBDD995C9B9BDC8E881D9BDD19481A5B9D985B1A59 PUSH1 0x52 SHL PUSH1 0x44 DUP3 ADD MSTORE PUSH1 0x64 ADD PUSH2 0x9A5 JUMP JUMPDEST PUSH1 0x2 PUSH2 0x2928 DUP7 PUSH2 0xEE2 JUMP JUMPDEST PUSH1 0x7 DUP2 GT ISZERO PUSH2 0x2939 JUMPI PUSH2 0x2939 PUSH2 0x4526 JUMP JUMPDEST EQ PUSH2 0x2994 JUMPI PUSH1 0x40 MLOAD PUSH3 0x461BCD PUSH1 0xE5 SHL DUP2 MSTORE PUSH1 0x20 PUSH1 0x4 DUP3 ADD MSTORE PUSH1 0x25 PUSH1 0x24 DUP3 ADD MSTORE PUSH32 0x476F7665726E6F723A2070726F706F73616C2063757272656E746C7920696E61 PUSH1 0x44 DUP3 ADD MSTORE PUSH5 0x6374697665 PUSH1 0xD8 SHL PUSH1 0x64 DUP3 ADD MSTORE PUSH1 0x84 ADD PUSH2 0x9A5 JUMP JUMPDEST PUSH1 0x0 DUP6 DUP2 MSTORE PUSH1 0xFC PUSH1 0x20 MSTORE PUSH1 0x40 SWAP1 KECCAK256 PUSH2 0x29AF PUSH1 0x1 DUP3 ADD DUP7 PUSH2 0x2B5B JUMP JUMPDEST ISZERO PUSH2 0x29FC JUMPI PUSH1 0x40 MLOAD PUSH3 0x461BCD PUSH1 0xE5 SHL DUP2 MSTORE PUSH1 0x20 PUSH1 0x4 DUP3 ADD MSTORE PUSH1 0x1B PUSH1 0x24 DUP3 ADD MSTORE PUSH32 0x476F7665726E6F723A20766F746520616C726561647920636173740000000000 PUSH1 0x44 DUP3 ADD MSTORE PUSH1 0x64 ADD PUSH2 0x9A5 JUMP JUMPDEST PUSH2 0x2A09 PUSH1 0x1 DUP3 ADD DUP7 PUSH2 0x1D33 JUMP JUMPDEST POP PUSH1 0x1 DUP5 PUSH1 0x3 DUP2 GT ISZERO PUSH2 0x2A1E JUMPI PUSH2 0x2A1E PUSH2 0x4526 JUMP JUMPDEST SUB PUSH2 0x2A6A JUMPI DUP1 SLOAD PUSH1 0x1 SWAP1 DUP3 SWAP1 PUSH1 0x0 SWAP1 PUSH2 0x2A41 SWAP1 DUP5 SWAP1 PUSH1 0x1 PUSH1 0x1 PUSH1 0x40 SHL SUB AND PUSH2 0x4A4C JUMP JUMPDEST SWAP3 POP PUSH2 0x100 EXP DUP2 SLOAD DUP2 PUSH1 0x1 PUSH1 0x1 PUSH1 0x40 SHL SUB MUL NOT AND SWAP1 DUP4 PUSH1 0x1 PUSH1 0x1 PUSH1 0x40 SHL SUB AND MUL OR SWAP1 SSTORE POP PUSH2 0x2B0B JUMP JUMPDEST PUSH1 0x2 DUP5 PUSH1 0x3 DUP2 GT ISZERO PUSH2 0x2A7E JUMPI PUSH2 0x2A7E PUSH2 0x4526 JUMP JUMPDEST SUB PUSH2 0x2AA8 JUMPI DUP1 SLOAD PUSH1 0x1 SWAP1 DUP3 SWAP1 PUSH1 0x8 SWAP1 PUSH2 0x2A41 SWAP1 DUP5 SWAP1 PUSH1 0x1 PUSH1 0x40 SHL SWAP1 DIV PUSH1 0x1 PUSH1 0x1 PUSH1 0x40 SHL SUB AND PUSH2 0x4A4C JUMP JUMPDEST PUSH1 0x3 DUP5 PUSH1 0x3 DUP2 GT ISZERO PUSH2 0x2ABC JUMPI PUSH2 0x2ABC PUSH2 0x4526 JUMP JUMPDEST SUB PUSH2 0x2B0B JUMPI DUP1 SLOAD PUSH1 0x1 SWAP1 DUP3 SWAP1 PUSH1 0x10 SWAP1 PUSH2 0x2AE6 SWAP1 DUP5 SWAP1 PUSH1 0x1 PUSH1 0x80 SHL SWAP1 DIV PUSH1 0x1 PUSH1 0x1 PUSH1 0x40 SHL SUB AND PUSH2 0x4A4C JUMP JUMPDEST SWAP3 POP PUSH2 0x100 EXP DUP2 SLOAD DUP2 PUSH1 0x1 PUSH1 0x1 PUSH1 0x40 SHL SUB MUL NOT AND SWAP1 DUP4 PUSH1 0x1 PUSH1 0x1 PUSH1 0x40 SHL SUB AND MUL OR SWAP1 SSTORE POP JUMPDEST DUP6 DUP6 PUSH1 0x1 PUSH1 0x1 PUSH1 0xA0 SHL SUB AND PUSH32 0xBBB255028C79DEA070E4449C346283DA7B4B66693776C096BB820822E4D9C41A DUP7 DUP7 PUSH1 0x40 MLOAD PUSH2 0x2B47 SWAP3 SWAP2 SWAP1 PUSH2 0x4D82 JUMP JUMPDEST PUSH1 0x40 MLOAD DUP1 SWAP2 SUB SWAP1 LOG3 POP PUSH1 0x1 SWAP6 SWAP5 POP POP POP POP POP JUMP JUMPDEST PUSH1 0x1 PUSH1 0x1 PUSH1 0xA0 SHL SUB DUP2 AND PUSH1 0x0 SWAP1 DUP2 MSTORE PUSH1 0x1 DUP4 ADD PUSH1 0x20 MSTORE PUSH1 0x40 DUP2 KECCAK256 SLOAD ISZERO ISZERO PUSH2 0x102F JUMP JUMPDEST PUSH1 0x0 PUSH32 0xF1D23BD7EDE3E157B19AF9BDC7F9F08C55104D948E791AD0900A92E0A680C3A2 DUP8 DUP8 DUP8 DUP8 DUP8 DUP8 PUSH1 0x40 MLOAD PUSH1 0x20 ADD PUSH2 0x2BB6 SWAP2 SWAP1 PUSH2 0x4A13 JUMP JUMPDEST PUSH1 0x40 MLOAD PUSH1 0x20 DUP2 DUP4 SUB SUB DUP2 MSTORE SWAP1 PUSH1 0x40 MSTORE DUP1 MLOAD SWAP1 PUSH1 0x20 ADD KECCAK256 PUSH1 0x40 MLOAD PUSH1 0x20 ADD PUSH2 0x1504 SWAP8 SWAP7 SWAP6 SWAP5 SWAP4 SWAP3 SWAP2 SWAP1 PUSH2 0x4DA4 JUMP JUMPDEST PUSH1 0x0 PUSH2 0x834 PUSH2 0x2BEF PUSH2 0x3CB4 JUMP JUMPDEST DUP4 PUSH1 0x40 MLOAD PUSH2 0x1901 PUSH1 0xF0 SHL PUSH1 0x20 DUP3 ADD MSTORE PUSH1 0x22 DUP2 ADD DUP4 SWAP1 MSTORE PUSH1 0x42 DUP2 ADD DUP3 SWAP1 MSTORE PUSH1 0x0 SWAP1 PUSH1 0x62 ADD PUSH1 0x40 MLOAD PUSH1 0x20 DUP2 DUP4 SUB SUB DUP2 MSTORE SWAP1 PUSH1 0x40 MSTORE DUP1 MLOAD SWAP1 PUSH1 0x20 ADD KECCAK256 SWAP1 POP SWAP3 SWAP2 POP POP JUMP JUMPDEST PUSH1 0x0 DUP1 DUP3 MLOAD PUSH1 0x41 SUB PUSH2 0x2C66 JUMPI PUSH1 0x20 DUP4 ADD MLOAD PUSH1 0x40 DUP5 ADD MLOAD PUSH1 0x60 DUP6 ADD MLOAD PUSH1 0x0 BYTE PUSH2 0x2C5A DUP8 DUP3 DUP6 DUP6 PUSH2 0x3D6A JUMP JUMPDEST SWAP5 POP SWAP5 POP POP POP POP PUSH2 0x2C97 JUMP JUMPDEST DUP3 MLOAD PUSH1 0x40 SUB PUSH2 0x2C8F JUMPI PUSH1 0x20 DUP4 ADD MLOAD PUSH1 0x40 DUP5 ADD MLOAD PUSH2 0x2C84 DUP7 DUP4 DUP4 PUSH2 0x3E57 JUMP JUMPDEST SWAP4 POP SWAP4 POP POP POP PUSH2 0x2C97 JUMP JUMPDEST POP PUSH1 0x0 SWAP1 POP PUSH1 0x2 JUMPDEST SWAP3 POP SWAP3 SWAP1 POP JUMP JUMPDEST PUSH1 0x1 PUSH1 0x6 DUP3 ADD SLOAD PUSH1 0xFF AND PUSH1 0x3 DUP2 GT ISZERO PUSH2 0x2CB9 JUMPI PUSH2 0x2CB9 PUSH2 0x4526 JUMP JUMPDEST SUB PUSH2 0x2F33 JUMPI PUSH1 0x1 PUSH1 0x6 DUP3 ADD SLOAD PUSH2 0x100 SWAP1 DIV PUSH1 0xFF AND PUSH1 0x4 DUP2 GT ISZERO PUSH2 0x2CDE JUMPI PUSH2 0x2CDE PUSH2 0x4526 JUMP JUMPDEST SUB PUSH2 0xCEB JUMPI PUSH1 0x0 DUP2 PUSH1 0x7 ADD DUP1 SLOAD PUSH2 0x2CF4 SWAP1 PUSH2 0x4870 JUMP JUMPDEST DUP1 PUSH1 0x1F ADD PUSH1 0x20 DUP1 SWAP2 DIV MUL PUSH1 0x20 ADD PUSH1 0x40 MLOAD SWAP1 DUP2 ADD PUSH1 0x40 MSTORE DUP1 SWAP3 SWAP2 SWAP1 DUP2 DUP2 MSTORE PUSH1 0x20 ADD DUP3 DUP1 SLOAD PUSH2 0x2D20 SWAP1 PUSH2 0x4870 JUMP JUMPDEST DUP1 ISZERO PUSH2 0x2D6D JUMPI DUP1 PUSH1 0x1F LT PUSH2 0x2D42 JUMPI PUSH2 0x100 DUP1 DUP4 SLOAD DIV MUL DUP4 MSTORE SWAP2 PUSH1 0x20 ADD SWAP2 PUSH2 0x2D6D JUMP JUMPDEST DUP3 ADD SWAP2 SWAP1 PUSH1 0x0 MSTORE PUSH1 0x20 PUSH1 0x0 KECCAK256 SWAP1 JUMPDEST DUP2 SLOAD DUP2 MSTORE SWAP1 PUSH1 0x1 ADD SWAP1 PUSH1 0x20 ADD DUP1 DUP4 GT PUSH2 0x2D50 JUMPI DUP3 SWAP1 SUB PUSH1 0x1F AND DUP3 ADD SWAP2 JUMPDEST POP POP POP POP POP DUP1 PUSH1 0x20 ADD SWAP1 MLOAD DUP2 ADD SWAP1 PUSH2 0x2D85 SWAP2 SWAP1 PUSH2 0x4ABC JUMP JUMPDEST PUSH1 0x20 DUP2 ADD MLOAD SWAP1 SWAP2 POP PUSH1 0x1 PUSH1 0x1 PUSH1 0xA0 SHL SUB AND PUSH2 0x2DEE JUMPI PUSH1 0x40 MLOAD PUSH3 0x461BCD PUSH1 0xE5 SHL DUP2 MSTORE PUSH1 0x20 PUSH1 0x4 DUP3 ADD MSTORE PUSH1 0x24 DUP1 DUP3 ADD MSTORE PUSH32 0x76616C696461746F7220616464726573732073686F756C64206E6F7420626520 PUSH1 0x44 DUP3 ADD MSTORE PUSH4 0x7A65726F PUSH1 0xE0 SHL PUSH1 0x64 DUP3 ADD MSTORE PUSH1 0x84 ADD PUSH2 0x9A5 JUMP JUMPDEST DUP1 MLOAD MLOAD PUSH1 0x0 SUB PUSH2 0x2E4B JUMPI PUSH1 0x40 MLOAD PUSH3 0x461BCD PUSH1 0xE5 SHL DUP2 MSTORE PUSH1 0x20 PUSH1 0x4 DUP3 ADD MSTORE PUSH1 0x22 PUSH1 0x24 DUP3 ADD MSTORE PUSH32 0x76616C696461746F72206E616D652073686F756C64206E6F7420626520656D70 PUSH1 0x44 DUP3 ADD MSTORE PUSH2 0x7479 PUSH1 0xF0 SHL PUSH1 0x64 DUP3 ADD MSTORE PUSH1 0x84 ADD PUSH2 0x9A5 JUMP JUMPDEST PUSH1 0x20 DUP2 DUP2 ADD MLOAD PUSH1 0x1 PUSH1 0x1 PUSH1 0xA0 SHL SUB AND PUSH1 0x0 SWAP1 DUP2 MSTORE PUSH1 0xFB SWAP1 SWAP2 MSTORE PUSH1 0x40 DUP2 KECCAK256 PUSH1 0x1 ADD SLOAD PUSH1 0xFF AND PUSH1 0x2 DUP2 GT ISZERO PUSH2 0x2E80 JUMPI PUSH2 0x2E80 PUSH2 0x4526 JUMP JUMPDEST EQ PUSH2 0x2ECD JUMPI PUSH1 0x40 MLOAD PUSH3 0x461BCD PUSH1 0xE5 SHL DUP2 MSTORE PUSH1 0x20 PUSH1 0x4 DUP3 ADD MSTORE PUSH1 0x1B PUSH1 0x24 DUP3 ADD MSTORE PUSH32 0x76616C696461746F72454F4120616C7265616479206578697374730000000000 PUSH1 0x44 DUP3 ADD MSTORE PUSH1 0x64 ADD PUSH2 0x9A5 JUMP JUMPDEST PUSH1 0x20 DUP2 ADD MLOAD PUSH1 0x3 DUP4 ADD SLOAD DUP4 SLOAD PUSH1 0x1 DUP6 ADD SLOAD PUSH1 0x2 DUP7 ADD SLOAD DUP6 MLOAD PUSH1 0x40 MLOAD PUSH1 0x1 PUSH1 0x1 PUSH1 0xA0 SHL SUB SWAP7 DUP8 AND SWAP7 SWAP1 SWAP6 AND SWAP5 PUSH32 0x3B993E041D591EA59A38F6CFF579DF5E8D6C2D1FED74305DFBB114336C41BDFD SWAP4 PUSH2 0x2F27 SWAP4 SWAP1 SWAP3 SWAP1 SWAP2 PUSH2 0x4DF6 JUMP JUMPDEST PUSH1 0x40 MLOAD DUP1 SWAP2 SUB SWAP1 LOG4 POP POP JUMP JUMPDEST PUSH1 0x2 PUSH1 0x6 DUP3 ADD SLOAD PUSH1 0xFF AND PUSH1 0x3 DUP2 GT ISZERO PUSH2 0x2F4E JUMPI PUSH2 0x2F4E PUSH2 0x4526 JUMP JUMPDEST SUB PUSH2 0x37B6 JUMPI PUSH1 0x1 PUSH1 0x6 DUP3 ADD SLOAD PUSH2 0x100 SWAP1 DIV PUSH1 0xFF AND PUSH1 0x4 DUP2 GT ISZERO PUSH2 0x2F73 JUMPI PUSH2 0x2F73 PUSH2 0x4526 JUMP JUMPDEST SUB PUSH2 0x31FD JUMPI PUSH1 0x0 DUP2 PUSH1 0x7 ADD DUP1 SLOAD PUSH2 0x2F89 SWAP1 PUSH2 0x4870 JUMP JUMPDEST DUP1 PUSH1 0x1F ADD PUSH1 0x20 DUP1 SWAP2 DIV MUL PUSH1 0x20 ADD PUSH1 0x40 MLOAD SWAP1 DUP2 ADD PUSH1 0x40 MSTORE DUP1 SWAP3 SWAP2 SWAP1 DUP2 DUP2 MSTORE PUSH1 0x20 ADD DUP3 DUP1 SLOAD PUSH2 0x2FB5 SWAP1 PUSH2 0x4870 JUMP JUMPDEST DUP1 ISZERO PUSH2 0x3002 JUMPI DUP1 PUSH1 0x1F LT PUSH2 0x2FD7 JUMPI PUSH2 0x100 DUP1 DUP4 SLOAD DIV MUL DUP4 MSTORE SWAP2 PUSH1 0x20 ADD SWAP2 PUSH2 0x3002 JUMP JUMPDEST DUP3 ADD SWAP2 SWAP1 PUSH1 0x0 MSTORE PUSH1 0x20 PUSH1 0x0 KECCAK256 SWAP1 JUMPDEST DUP2 SLOAD DUP2 MSTORE SWAP1 PUSH1 0x1 ADD SWAP1 PUSH1 0x20 ADD DUP1 DUP4 GT PUSH2 0x2FE5 JUMPI DUP3 SWAP1 SUB PUSH1 0x1F AND DUP3 ADD SWAP2 JUMPDEST POP POP POP POP POP DUP1 PUSH1 0x20 ADD SWAP1 MLOAD DUP2 ADD SWAP1 PUSH2 0x301A SWAP2 SWAP1 PUSH2 0x4C10 JUMP JUMPDEST DUP1 MLOAD MLOAD SWAP1 SWAP2 POP PUSH1 0x0 SUB PUSH2 0x306F JUMPI PUSH1 0x40 MLOAD PUSH3 0x461BCD PUSH1 0xE5 SHL DUP2 MSTORE PUSH1 0x20 PUSH1 0x4 DUP3 ADD DUP2 SWAP1 MSTORE PUSH1 0x24 DUP3 ADD MSTORE PUSH32 0x73746172747570206E616D652073686F756C64206E6F7420626520656D707479 PUSH1 0x44 DUP3 ADD MSTORE PUSH1 0x64 ADD PUSH2 0x9A5 JUMP JUMPDEST DUP1 PUSH1 0x20 ADD MLOAD PUSH1 0x0 SUB PUSH2 0x3093 JUMPI PUSH1 0x40 MLOAD PUSH3 0x461BCD PUSH1 0xE5 SHL DUP2 MSTORE PUSH1 0x4 ADD PUSH2 0x9A5 SWAP1 PUSH2 0x4E15 JUMP JUMPDEST DUP1 PUSH1 0x60 ADD MLOAD PUSH2 0xFFFF AND PUSH1 0x0 SUB PUSH2 0x30BB JUMPI PUSH1 0x40 MLOAD PUSH3 0x461BCD PUSH1 0xE5 SHL DUP2 MSTORE PUSH1 0x4 ADD PUSH2 0x9A5 SWAP1 PUSH2 0x4E5B JUMP JUMPDEST PUSH1 0x40 DUP2 ADD MLOAD PUSH1 0x1 PUSH1 0x1 PUSH1 0xA0 SHL SUB AND PUSH2 0x3115 JUMPI PUSH1 0x40 MLOAD PUSH3 0x461BCD PUSH1 0xE5 SHL DUP2 MSTORE PUSH1 0x20 PUSH1 0x4 DUP3 ADD MSTORE PUSH1 0x1E PUSH1 0x24 DUP3 ADD MSTORE PUSH32 0x7374617274757020454F412073686F756C64206E6F74206265207A65726F0000 PUSH1 0x44 DUP3 ADD MSTORE PUSH1 0x64 ADD PUSH2 0x9A5 JUMP JUMPDEST PUSH1 0x0 PUSH1 0x40 DUP1 DUP4 ADD MLOAD PUSH1 0x1 PUSH1 0x1 PUSH1 0xA0 SHL SUB AND PUSH1 0x0 SWAP1 DUP2 MSTORE PUSH1 0xFB PUSH1 0x20 MSTORE KECCAK256 PUSH1 0x1 ADD SLOAD PUSH1 0xFF AND PUSH1 0x2 DUP2 GT ISZERO PUSH2 0x3149 JUMPI PUSH2 0x3149 PUSH2 0x4526 JUMP JUMPDEST EQ PUSH2 0x3196 JUMPI PUSH1 0x40 MLOAD PUSH3 0x461BCD PUSH1 0xE5 SHL DUP2 MSTORE PUSH1 0x20 PUSH1 0x4 DUP3 ADD MSTORE PUSH1 0x19 PUSH1 0x24 DUP3 ADD MSTORE PUSH32 0x73746172747570454F4120616C72656164792065786973747300000000000000 PUSH1 0x44 DUP3 ADD MSTORE PUSH1 0x64 ADD PUSH2 0x9A5 JUMP JUMPDEST PUSH1 0x40 DUP2 DUP2 ADD MLOAD PUSH1 0x3 DUP5 ADD SLOAD DUP5 SLOAD PUSH1 0x20 DUP6 ADD MLOAD PUSH1 0x1 DUP8 ADD SLOAD PUSH1 0x2 DUP9 ADD SLOAD DUP8 MLOAD PUSH1 0x60 DUP10 ADD MLOAD SWAP8 MLOAD PUSH1 0x1 PUSH1 0x1 PUSH1 0xA0 SHL SUB SWAP8 DUP9 AND SWAP9 SWAP8 SWAP1 SWAP7 AND SWAP7 SWAP5 SWAP6 PUSH32 0xA3D1A39A550977BAA46EA2634B05F5EB5993C2422417CE8C7139B39635A2A08C SWAP6 PUSH2 0x2F27 SWAP6 SWAP5 SWAP4 SWAP3 SWAP2 PUSH2 0x4EA2 JUMP JUMPDEST PUSH1 0x2 PUSH1 0x6 DUP3 ADD SLOAD PUSH2 0x100 SWAP1 DIV PUSH1 0xFF AND PUSH1 0x4 DUP2 GT ISZERO PUSH2 0x321D JUMPI PUSH2 0x321D PUSH2 0x4526 JUMP JUMPDEST SUB PUSH2 0x34A7 JUMPI PUSH1 0x0 DUP2 PUSH1 0x7 ADD DUP1 SLOAD PUSH2 0x3233 SWAP1 PUSH2 0x4870 JUMP JUMPDEST DUP1 PUSH1 0x1F ADD PUSH1 0x20 DUP1 SWAP2 DIV MUL PUSH1 0x20 ADD PUSH1 0x40 MLOAD SWAP1 DUP2 ADD PUSH1 0x40 MSTORE DUP1 SWAP3 SWAP2 SWAP1 DUP2 DUP2 MSTORE PUSH1 0x20 ADD DUP3 DUP1 SLOAD PUSH2 0x325F SWAP1 PUSH2 0x4870 JUMP JUMPDEST DUP1 ISZERO PUSH2 0x32AC JUMPI DUP1 PUSH1 0x1F LT PUSH2 0x3281 JUMPI PUSH2 0x100 DUP1 DUP4 SLOAD DIV MUL DUP4 MSTORE SWAP2 PUSH1 0x20 ADD SWAP2 PUSH2 0x32AC JUMP JUMPDEST DUP3 ADD SWAP2 SWAP1 PUSH1 0x0 MSTORE PUSH1 0x20 PUSH1 0x0 KECCAK256 SWAP1 JUMPDEST DUP2 SLOAD DUP2 MSTORE SWAP1 PUSH1 0x1 ADD SWAP1 PUSH1 0x20 ADD DUP1 DUP4 GT PUSH2 0x328F JUMPI DUP3 SWAP1 SUB PUSH1 0x1F AND DUP3 ADD SWAP2 JUMPDEST POP POP POP POP POP DUP1 PUSH1 0x20 ADD SWAP1 MLOAD DUP2 ADD SWAP1 PUSH2 0x32C4 SWAP2 SWAP1 PUSH2 0x4C10 JUMP JUMPDEST DUP1 MLOAD MLOAD SWAP1 SWAP2 POP PUSH1 0x0 SUB PUSH2 0x3319 JUMPI PUSH1 0x40 MLOAD PUSH3 0x461BCD PUSH1 0xE5 SHL DUP2 MSTORE PUSH1 0x20 PUSH1 0x4 DUP3 ADD DUP2 SWAP1 MSTORE PUSH1 0x24 DUP3 ADD MSTORE PUSH32 0x73746172747570206E616D652073686F756C64206E6F7420626520656D707479 PUSH1 0x44 DUP3 ADD MSTORE PUSH1 0x64 ADD PUSH2 0x9A5 JUMP JUMPDEST DUP1 PUSH1 0x20 ADD MLOAD PUSH1 0x0 SUB PUSH2 0x333D JUMPI PUSH1 0x40 MLOAD PUSH3 0x461BCD PUSH1 0xE5 SHL DUP2 MSTORE PUSH1 0x4 ADD PUSH2 0x9A5 SWAP1 PUSH2 0x4E15 JUMP JUMPDEST DUP1 PUSH1 0x60 ADD MLOAD PUSH2 0xFFFF AND PUSH1 0x0 SUB PUSH2 0x3365 JUMPI PUSH1 0x40 MLOAD PUSH3 0x461BCD PUSH1 0xE5 SHL DUP2 MSTORE PUSH1 0x4 ADD PUSH2 0x9A5 SWAP1 PUSH2 0x4E5B JUMP JUMPDEST PUSH1 0x40 DUP2 ADD MLOAD PUSH1 0x1 PUSH1 0x1 PUSH1 0xA0 SHL SUB AND PUSH2 0x33BF JUMPI PUSH1 0x40 MLOAD PUSH3 0x461BCD PUSH1 0xE5 SHL DUP2 MSTORE PUSH1 0x20 PUSH1 0x4 DUP3 ADD DUP2 SWAP1 MSTORE PUSH1 0x24 DUP3 ADD MSTORE PUSH32 0x76616C696461746F7220454F412073686F756C64206E6F74206265207A65726F PUSH1 0x44 DUP3 ADD MSTORE PUSH1 0x64 ADD PUSH2 0x9A5 JUMP JUMPDEST PUSH1 0x1 PUSH1 0x40 DUP1 DUP4 ADD MLOAD PUSH1 0x1 PUSH1 0x1 PUSH1 0xA0 SHL SUB AND PUSH1 0x0 SWAP1 DUP2 MSTORE PUSH1 0xFB PUSH1 0x20 MSTORE KECCAK256 PUSH1 0x1 ADD SLOAD PUSH1 0xFF AND PUSH1 0x2 DUP2 GT ISZERO PUSH2 0x33F3 JUMPI PUSH2 0x33F3 PUSH2 0x4526 JUMP JUMPDEST EQ PUSH2 0x3440 JUMPI PUSH1 0x40 MLOAD PUSH3 0x461BCD PUSH1 0xE5 SHL DUP2 MSTORE PUSH1 0x20 PUSH1 0x4 DUP3 ADD MSTORE PUSH1 0x1B PUSH1 0x24 DUP3 ADD MSTORE PUSH32 0x76616C696461746F72454F4120646F65736E2774206578697374730000000000 PUSH1 0x44 DUP3 ADD MSTORE PUSH1 0x64 ADD PUSH2 0x9A5 JUMP JUMPDEST PUSH1 0x40 DUP2 DUP2 ADD MLOAD PUSH1 0x3 DUP5 ADD SLOAD DUP5 SLOAD PUSH1 0x20 DUP6 ADD MLOAD PUSH1 0x1 DUP8 ADD SLOAD PUSH1 0x2 DUP9 ADD SLOAD DUP8 MLOAD PUSH1 0x60 DUP10 ADD MLOAD SWAP8 MLOAD PUSH1 0x1 PUSH1 0x1 PUSH1 0xA0 SHL SUB SWAP8 DUP9 AND SWAP9 SWAP8 SWAP1 SWAP7 AND SWAP7 SWAP5 SWAP6 PUSH32 0xB58C12647C60F8966538BCFA6BF6B815477288BCBCBD80C2AC8AD7C23115A2D9 SWAP6 PUSH2 0x2F27 SWAP6 SWAP5 SWAP4 SWAP3 SWAP2 PUSH2 0x4EA2 JUMP JUMPDEST PUSH1 0x3 PUSH1 0x6 DUP3 ADD SLOAD PUSH2 0x100 SWAP1 DIV PUSH1 0xFF AND PUSH1 0x4 DUP2 GT ISZERO PUSH2 0x34C7 JUMPI PUSH2 0x34C7 PUSH2 0x4526 JUMP JUMPDEST SUB PUSH2 0x362E JUMPI PUSH1 0x0 DUP2 PUSH1 0x7 ADD DUP1 SLOAD PUSH2 0x34DD SWAP1 PUSH2 0x4870 JUMP JUMPDEST DUP1 PUSH1 0x1F ADD PUSH1 0x20 DUP1 SWAP2 DIV MUL PUSH1 0x20 ADD PUSH1 0x40 MLOAD SWAP1 DUP2 ADD PUSH1 0x40 MSTORE DUP1 SWAP3 SWAP2 SWAP1 DUP2 DUP2 MSTORE PUSH1 0x20 ADD DUP3 DUP1 SLOAD PUSH2 0x3509 SWAP1 PUSH2 0x4870 JUMP JUMPDEST DUP1 ISZERO PUSH2 0x3556 JUMPI DUP1 PUSH1 0x1F LT PUSH2 0x352B JUMPI PUSH2 0x100 DUP1 DUP4 SLOAD DIV MUL DUP4 MSTORE SWAP2 PUSH1 0x20 ADD SWAP2 PUSH2 0x3556 JUMP JUMPDEST DUP3 ADD SWAP2 SWAP1 PUSH1 0x0 MSTORE PUSH1 0x20 PUSH1 0x0 KECCAK256 SWAP1 JUMPDEST DUP2 SLOAD DUP2 MSTORE SWAP1 PUSH1 0x1 ADD SWAP1 PUSH1 0x20 ADD DUP1 DUP4 GT PUSH2 0x3539 JUMPI DUP3 SWAP1 SUB PUSH1 0x1F AND DUP3 ADD SWAP2 JUMPDEST POP POP POP POP POP DUP1 PUSH1 0x20 ADD SWAP1 MLOAD DUP2 ADD SWAP1 PUSH2 0x356E SWAP2 SWAP1 PUSH2 0x4CDC JUMP JUMPDEST DUP1 MLOAD SWAP1 SWAP2 POP PUSH1 0x1 PUSH1 0x1 PUSH1 0xA0 SHL SUB AND PUSH2 0x35D3 JUMPI PUSH1 0x40 MLOAD PUSH3 0x461BCD PUSH1 0xE5 SHL DUP2 MSTORE PUSH1 0x20 PUSH1 0x4 DUP3 ADD MSTORE PUSH1 0x22 PUSH1 0x24 DUP3 ADD MSTORE PUSH32 0x467265657A653A206163636F756E742073686F756C64206E6F74206265207A65 PUSH1 0x44 DUP3 ADD MSTORE PUSH2 0x726F PUSH1 0xF0 SHL PUSH1 0x64 DUP3 ADD MSTORE PUSH1 0x84 ADD PUSH2 0x9A5 JUMP JUMPDEST DUP1 MLOAD PUSH1 0x3 DUP4 ADD SLOAD DUP4 SLOAD PUSH1 0x1 DUP6 ADD SLOAD PUSH1 0x2 DUP7 ADD SLOAD PUSH1 0x40 MLOAD PUSH1 0x1 PUSH1 0x1 PUSH1 0xA0 SHL SUB SWAP6 DUP7 AND SWAP6 SWAP5 SWAP1 SWAP5 AND SWAP4 PUSH32 0x6C344B5A99D701E380E4F74EB042F15449B77F4657A647B82E9A5B223798BF1C SWAP3 PUSH2 0x2F27 SWAP3 SWAP1 DUP3 MSTORE PUSH1 0x20 DUP3 ADD MSTORE PUSH1 0x40 ADD SWAP1 JUMP JUMPDEST PUSH1 0x4 PUSH1 0x6 DUP3 ADD SLOAD PUSH2 0x100 SWAP1 DIV PUSH1 0xFF AND PUSH1 0x4 DUP2 GT ISZERO PUSH2 0x364E JUMPI PUSH2 0x364E PUSH2 0x4526 JUMP JUMPDEST SUB PUSH2 0xCEB JUMPI PUSH1 0x0 DUP2 PUSH1 0x7 ADD DUP1 SLOAD PUSH2 0x3664 SWAP1 PUSH2 0x4870 JUMP JUMPDEST DUP1 PUSH1 0x1F ADD PUSH1 0x20 DUP1 SWAP2 DIV MUL PUSH1 0x20 ADD PUSH1 0x40 MLOAD SWAP1 DUP2 ADD PUSH1 0x40 MSTORE DUP1 SWAP3 SWAP2 SWAP1 DUP2 DUP2 MSTORE PUSH1 0x20 ADD DUP3 DUP1 SLOAD PUSH2 0x3690 SWAP1 PUSH2 0x4870 JUMP JUMPDEST DUP1 ISZERO PUSH2 0x36DD JUMPI DUP1 PUSH1 0x1F LT PUSH2 0x36B2 JUMPI PUSH2 0x100 DUP1 DUP4 SLOAD DIV MUL DUP4 MSTORE SWAP2 PUSH1 0x20 ADD SWAP2 PUSH2 0x36DD JUMP JUMPDEST DUP3 ADD SWAP2 SWAP1 PUSH1 0x0 MSTORE PUSH1 0x20 PUSH1 0x0 KECCAK256 SWAP1 JUMPDEST DUP2 SLOAD DUP2 MSTORE SWAP1 PUSH1 0x1 ADD SWAP1 PUSH1 0x20 ADD DUP1 DUP4 GT PUSH2 0x36C0 JUMPI DUP3 SWAP1 SUB PUSH1 0x1F AND DUP3 ADD SWAP2 JUMPDEST POP POP POP POP POP DUP1 PUSH1 0x20 ADD SWAP1 MLOAD DUP2 ADD SWAP1 PUSH2 0x36F5 SWAP2 SWAP1 PUSH2 0x4CDC JUMP JUMPDEST DUP1 MLOAD SWAP1 SWAP2 POP PUSH1 0x1 PUSH1 0x1 PUSH1 0xA0 SHL SUB AND PUSH2 0x375B JUMPI PUSH1 0x40 MLOAD PUSH3 0x461BCD PUSH1 0xE5 SHL DUP2 MSTORE PUSH1 0x20 PUSH1 0x4 DUP3 ADD MSTORE PUSH1 0x24 DUP1 DUP3 ADD MSTORE PUSH32 0x556E667265657A653A206163636F756E742073686F756C64206E6F7420626520 PUSH1 0x44 DUP3 ADD MSTORE PUSH4 0x7A65726F PUSH1 0xE0 SHL PUSH1 0x64 DUP3 ADD MSTORE PUSH1 0x84 ADD PUSH2 0x9A5 JUMP JUMPDEST DUP1 MLOAD PUSH1 0x3 DUP4 ADD SLOAD DUP4 SLOAD PUSH1 0x1 DUP6 ADD SLOAD PUSH1 0x2 DUP7 ADD SLOAD PUSH1 0x40 MLOAD PUSH1 0x1 PUSH1 0x1 PUSH1 0xA0 SHL SUB SWAP6 DUP7 AND SWAP6 SWAP5 SWAP1 SWAP5 AND SWAP4 PUSH32 0x5B0256FFEAE05ABA51E2C5F936A5AB3668280F92904D8098FC46D79E2EC5DBFA SWAP3 PUSH2 0x2F27 SWAP3 SWAP1 DUP3 MSTORE PUSH1 0x20 DUP3 ADD MSTORE PUSH1 0x40 ADD SWAP1 JUMP JUMPDEST PUSH1 0x3 PUSH1 0x6 DUP3 ADD SLOAD PUSH1 0xFF AND PUSH1 0x3 DUP2 GT ISZERO PUSH2 0xA35 JUMPI PUSH2 0xA35 PUSH2 0x4526 JUMP JUMPDEST PUSH2 0x37DB DUP3 DUP3 PUSH2 0x11D8 JUMP JUMPDEST PUSH2 0xC0B JUMPI PUSH2 0x37F3 DUP2 PUSH1 0x1 PUSH1 0x1 PUSH1 0xA0 SHL SUB AND PUSH1 0x14 PUSH2 0x3E90 JUMP JUMPDEST PUSH2 0x37FE DUP4 PUSH1 0x20 PUSH2 0x3E90 JUMP JUMPDEST PUSH1 0x40 MLOAD PUSH1 0x20 ADD PUSH2 0x380F SWAP3 SWAP2 SWAP1 PUSH2 0x4EDD JUMP JUMPDEST PUSH1 0x40 DUP1 MLOAD PUSH1 0x1F NOT DUP2 DUP5 SUB ADD DUP2 MSTORE SWAP1 DUP3 SWAP1 MSTORE PUSH3 0x461BCD PUSH1 0xE5 SHL DUP3 MSTORE PUSH2 0x9A5 SWAP2 PUSH1 0x4 ADD PUSH2 0x435E JUMP JUMPDEST PUSH1 0x0 DUP2 DUP2 MSTORE PUSH1 0x1 DUP4 ADD PUSH1 0x20 MSTORE PUSH1 0x40 DUP2 KECCAK256 SLOAD PUSH2 0x387C JUMPI POP DUP2 SLOAD PUSH1 0x1 DUP2 DUP2 ADD DUP5 SSTORE PUSH1 0x0 DUP5 DUP2 MSTORE PUSH1 0x20 DUP1 DUP3 KECCAK256 SWAP1 SWAP4 ADD DUP5 SWAP1 SSTORE DUP5 SLOAD DUP5 DUP3 MSTORE DUP3 DUP7 ADD SWAP1 SWAP4 MSTORE PUSH1 0x40 SWAP1 KECCAK256 SWAP2 SWAP1 SWAP2 SSTORE PUSH2 0x834 JUMP JUMPDEST POP PUSH1 0x0 PUSH2 0x834 JUMP JUMPDEST PUSH2 0x100 SLOAD PUSH1 0x40 DUP1 MLOAD PUSH1 0x1 PUSH1 0x1 PUSH1 0xA0 SHL SUB SWAP3 DUP4 AND PUSH1 0x24 DUP3 ADD MSTORE DUP5 DUP4 AND PUSH1 0x44 DUP3 ADD MSTORE PUSH1 0x64 DUP1 DUP3 ADD DUP6 SWAP1 MSTORE DUP3 MLOAD DUP1 DUP4 SUB SWAP1 SWAP2 ADD DUP2 MSTORE PUSH1 0x84 SWAP1 SWAP2 ADD DUP3 MSTORE PUSH1 0x20 DUP2 ADD DUP1 MLOAD PUSH1 0x1 PUSH1 0x1 PUSH1 0xE0 SHL SUB AND PUSH4 0x23B872DD PUSH1 0xE0 SHL OR SWAP1 MSTORE PUSH2 0x102 SLOAD SWAP2 MLOAD PUSH1 0x0 SWAP4 SWAP2 SWAP3 DUP5 SWAP3 AND SWAP1 PUSH2 0x38F1 SWAP1 DUP5 SWAP1 PUSH2 0x4A13 JUMP JUMPDEST PUSH1 0x0 PUSH1 0x40 MLOAD DUP1 DUP4 SUB DUP2 PUSH1 0x0 DUP7 GAS CALL SWAP2 POP POP RETURNDATASIZE DUP1 PUSH1 0x0 DUP2 EQ PUSH2 0x392E JUMPI PUSH1 0x40 MLOAD SWAP2 POP PUSH1 0x1F NOT PUSH1 0x3F RETURNDATASIZE ADD AND DUP3 ADD PUSH1 0x40 MSTORE RETURNDATASIZE DUP3 MSTORE RETURNDATASIZE PUSH1 0x0 PUSH1 0x20 DUP5 ADD RETURNDATACOPY PUSH2 0x3933 JUMP JUMPDEST PUSH1 0x60 SWAP2 POP JUMPDEST POP POP SWAP1 POP DUP1 PUSH2 0x24AC JUMPI PUSH1 0x40 MLOAD PUSH3 0x461BCD PUSH1 0xE5 SHL DUP2 MSTORE PUSH1 0x20 PUSH1 0x4 DUP3 ADD MSTORE PUSH1 0x1A PUSH1 0x24 DUP3 ADD MSTORE PUSH32 0x457865637574653A207472616E73666572206661696C65732120000000000000 PUSH1 0x44 DUP3 ADD MSTORE PUSH1 0x64 ADD PUSH2 0x9A5 JUMP JUMPDEST PUSH1 0x0 DUP3 DUP2 MSTORE PUSH1 0xFC PUSH1 0x20 MSTORE PUSH1 0x40 DUP2 KECCAK256 DUP2 PUSH2 0x399F PUSH1 0x1 DUP4 ADD PUSH2 0x402B JUMP JUMPDEST SWAP1 POP PUSH1 0x0 DUP2 PUSH1 0x64 PUSH2 0x39B1 DUP8 PUSH1 0x2 PUSH2 0x4C44 JUMP JUMPDEST PUSH2 0x39BB SWAP2 SWAP1 PUSH2 0x4C79 JUMP JUMPDEST PUSH2 0x39C5 SWAP2 SWAP1 PUSH2 0x4C79 JUMP JUMPDEST SWAP1 POP PUSH1 0x1 PUSH1 0x0 JUMPDEST DUP4 DUP2 LT ISZERO PUSH2 0x3A06 JUMPI DUP2 DUP1 ISZERO PUSH2 0x39F2 JUMPI POP PUSH2 0x39F2 PUSH2 0x39EC PUSH1 0x1 DUP8 ADD DUP4 PUSH2 0x4035 JUMP JUMPDEST DUP5 PUSH2 0x3884 JUMP JUMPDEST SWAP2 POP DUP1 PUSH2 0x39FE DUP2 PUSH2 0x4F52 JUMP JUMPDEST SWAP2 POP POP PUSH2 0x39CC JUMP JUMPDEST POP SWAP7 SWAP6 POP POP POP POP POP POP JUMP JUMPDEST PUSH1 0x40 DUP1 MLOAD PUSH1 0x1 PUSH1 0x1 PUSH1 0xA0 SHL SUB DUP4 DUP2 AND PUSH1 0x24 DUP1 DUP5 ADD SWAP2 SWAP1 SWAP2 MSTORE DUP4 MLOAD DUP1 DUP5 SUB SWAP1 SWAP2 ADD DUP2 MSTORE PUSH1 0x44 SWAP1 SWAP3 ADD DUP4 MSTORE PUSH1 0x20 DUP3 ADD DUP1 MLOAD PUSH1 0x1 PUSH1 0x1 PUSH1 0xE0 SHL SUB AND PUSH4 0xF26C159F PUSH1 0xE0 SHL OR SWAP1 MSTORE PUSH2 0x102 SLOAD SWAP3 MLOAD PUSH1 0x0 SWAP4 DUP5 SWAP3 AND SWAP1 PUSH2 0x3A6C SWAP1 DUP5 SWAP1 PUSH2 0x4A13 JUMP JUMPDEST PUSH1 0x0 PUSH1 0x40 MLOAD DUP1 DUP4 SUB DUP2 PUSH1 0x0 DUP7 GAS CALL SWAP2 POP POP RETURNDATASIZE DUP1 PUSH1 0x0 DUP2 EQ PUSH2 0x3AA9 JUMPI PUSH1 0x40 MLOAD SWAP2 POP PUSH1 0x1F NOT PUSH1 0x3F RETURNDATASIZE ADD AND DUP3 ADD PUSH1 0x40 MSTORE RETURNDATASIZE DUP3 MSTORE RETURNDATASIZE PUSH1 0x0 PUSH1 0x20 DUP5 ADD RETURNDATACOPY PUSH2 0x3AAE JUMP JUMPDEST PUSH1 0x60 SWAP2 POP JUMPDEST POP POP SWAP1 POP DUP1 PUSH2 0x102F JUMPI PUSH1 0x40 MLOAD PUSH3 0x461BCD PUSH1 0xE5 SHL DUP2 MSTORE PUSH1 0x20 PUSH1 0x4 DUP3 ADD MSTORE PUSH1 0x1E PUSH1 0x24 DUP3 ADD MSTORE PUSH32 0x457865637574653A20667265657A65206163636F756E74206661696C65640000 PUSH1 0x44 DUP3 ADD MSTORE PUSH1 0x64 ADD PUSH2 0x9A5 JUMP JUMPDEST PUSH1 0x40 DUP1 MLOAD PUSH1 0x1 PUSH1 0x1 PUSH1 0xA0 SHL SUB DUP4 DUP2 AND PUSH1 0x24 DUP1 DUP5 ADD SWAP2 SWAP1 SWAP2 MSTORE DUP4 MLOAD DUP1 DUP5 SUB SWAP1 SWAP2 ADD DUP2 MSTORE PUSH1 0x44 SWAP1 SWAP3 ADD DUP4 MSTORE PUSH1 0x20 DUP3 ADD DUP1 MLOAD PUSH1 0x1 PUSH1 0x1 PUSH1 0xE0 SHL SUB AND PUSH4 0x29E617D7 PUSH1 0xE1 SHL OR SWAP1 MSTORE PUSH2 0x102 SLOAD SWAP3 MLOAD PUSH1 0x0 SWAP4 DUP5 SWAP3 AND SWAP1 PUSH2 0x3B5A SWAP1 DUP5 SWAP1 PUSH2 0x4A13 JUMP JUMPDEST PUSH1 0x0 PUSH1 0x40 MLOAD DUP1 DUP4 SUB DUP2 PUSH1 0x0 DUP7 GAS CALL SWAP2 POP POP RETURNDATASIZE DUP1 PUSH1 0x0 DUP2 EQ PUSH2 0x3B97 JUMPI PUSH1 0x40 MLOAD SWAP2 POP PUSH1 0x1F NOT PUSH1 0x3F RETURNDATASIZE ADD AND DUP3 ADD PUSH1 0x40 MSTORE RETURNDATASIZE DUP3 MSTORE RETURNDATASIZE PUSH1 0x0 PUSH1 0x20 DUP5 ADD RETURNDATACOPY PUSH2 0x3B9C JUMP JUMPDEST PUSH1 0x60 SWAP2 POP JUMPDEST POP POP SWAP1 POP DUP1 PUSH2 0x102F JUMPI PUSH1 0x40 MLOAD PUSH3 0x461BCD PUSH1 0xE5 SHL DUP2 MSTORE PUSH1 0x20 PUSH1 0x4 DUP3 ADD DUP2 SWAP1 MSTORE PUSH1 0x24 DUP3 ADD MSTORE PUSH32 0x457865637574653A20556E667265657A65206163636F756E74206661696C6564 PUSH1 0x44 DUP3 ADD MSTORE PUSH1 0x64 ADD PUSH2 0x9A5 JUMP JUMPDEST PUSH1 0x1 PUSH1 0x1 PUSH1 0xA0 SHL SUB DUP2 AND EXTCODESIZE PUSH2 0x3C5A JUMPI PUSH1 0x40 MLOAD PUSH3 0x461BCD PUSH1 0xE5 SHL DUP2 MSTORE PUSH1 0x20 PUSH1 0x4 DUP3 ADD MSTORE PUSH1 0x2D PUSH1 0x24 DUP3 ADD MSTORE PUSH32 0x455243313936373A206E657720696D706C656D656E746174696F6E206973206E PUSH1 0x44 DUP3 ADD MSTORE PUSH13 0x1BDD08184818DBDB9D1C9858DD PUSH1 0x9A SHL PUSH1 0x64 DUP3 ADD MSTORE PUSH1 0x84 ADD PUSH2 0x9A5 JUMP JUMPDEST PUSH1 0x0 DUP1 MLOAD PUSH1 0x20 PUSH2 0x504C DUP4 CODECOPY DUP2 MLOAD SWAP2 MSTORE DUP1 SLOAD PUSH1 0x1 PUSH1 0x1 PUSH1 0xA0 SHL SUB NOT AND PUSH1 0x1 PUSH1 0x1 PUSH1 0xA0 SHL SUB SWAP3 SWAP1 SWAP3 AND SWAP2 SWAP1 SWAP2 OR SWAP1 SSTORE JUMP JUMPDEST PUSH2 0x3C92 DUP4 PUSH2 0x4041 JUMP JUMPDEST PUSH1 0x0 DUP3 MLOAD GT DUP1 PUSH2 0x3C9F JUMPI POP DUP1 JUMPDEST ISZERO PUSH2 0xA35 JUMPI PUSH2 0x3CAE DUP4 DUP4 PUSH2 0x4081 JUMP JUMPDEST POP POP POP POP JUMP JUMPDEST PUSH1 0x0 PUSH32 0x8B73C3C69BB8FE3D512ECC4CF759CC79239F7B179B0FFACAA9A75D522B39400F PUSH2 0x103 PUSH1 0x40 MLOAD PUSH1 0x20 ADD PUSH2 0x3CEA SWAP2 SWAP1 PUSH2 0x4F6B JUMP JUMPDEST PUSH1 0x40 MLOAD PUSH1 0x20 DUP2 DUP4 SUB SUB DUP2 MSTORE SWAP1 PUSH1 0x40 MSTORE DUP1 MLOAD SWAP1 PUSH1 0x20 ADD KECCAK256 PUSH2 0x104 PUSH1 0x40 MLOAD PUSH1 0x20 ADD PUSH2 0x3D13 SWAP2 SWAP1 PUSH2 0x4F6B JUMP JUMPDEST PUSH1 0x40 DUP1 MLOAD PUSH1 0x1F NOT DUP2 DUP5 SUB ADD DUP2 MSTORE DUP3 DUP3 MSTORE DUP1 MLOAD PUSH1 0x20 SWAP2 DUP3 ADD KECCAK256 SWAP1 DUP4 ADD SWAP5 SWAP1 SWAP5 MSTORE DUP2 ADD SWAP2 SWAP1 SWAP2 MSTORE PUSH1 0x60 DUP2 ADD SWAP2 SWAP1 SWAP2 MSTORE CHAINID PUSH1 0x80 DUP3 ADD MSTORE ADDRESS PUSH1 0xA0 DUP3 ADD MSTORE PUSH1 0xC0 ADD PUSH1 0x40 MLOAD PUSH1 0x20 DUP2 DUP4 SUB SUB DUP2 MSTORE SWAP1 PUSH1 0x40 MSTORE DUP1 MLOAD SWAP1 PUSH1 0x20 ADD KECCAK256 SWAP1 POP SWAP1 JUMP JUMPDEST PUSH1 0x0 DUP1 PUSH32 0x7FFFFFFFFFFFFFFFFFFFFFFFFFFFFFFF5D576E7357A4501DDFE92F46681B20A0 DUP4 GT ISZERO PUSH2 0x3DA1 JUMPI POP PUSH1 0x0 SWAP1 POP PUSH1 0x3 PUSH2 0x3E4E JUMP JUMPDEST DUP5 PUSH1 0xFF AND PUSH1 0x1B EQ ISZERO DUP1 ISZERO PUSH2 0x3DB9 JUMPI POP DUP5 PUSH1 0xFF AND PUSH1 0x1C EQ ISZERO JUMPDEST ISZERO PUSH2 0x3DCA JUMPI POP PUSH1 0x0 SWAP1 POP PUSH1 0x4 PUSH2 0x3E4E JUMP JUMPDEST PUSH1 0x40 DUP1 MLOAD PUSH1 0x0 DUP1 DUP3 MSTORE PUSH1 0x20 DUP3 ADD DUP1 DUP5 MSTORE DUP10 SWAP1 MSTORE PUSH1 0xFF DUP9 AND SWAP3 DUP3 ADD SWAP3 SWAP1 SWAP3 MSTORE PUSH1 0x60 DUP2 ADD DUP7 SWAP1 MSTORE PUSH1 0x80 DUP2 ADD DUP6 SWAP1 MSTORE PUSH1 0x1 SWAP1 PUSH1 0xA0 ADD PUSH1 0x20 PUSH1 0x40 MLOAD PUSH1 0x20 DUP2 SUB SWAP1 DUP1 DUP5 SUB SWAP1 DUP6 GAS STATICCALL ISZERO DUP1 ISZERO PUSH2 0x3E1E JUMPI RETURNDATASIZE PUSH1 0x0 DUP1 RETURNDATACOPY RETURNDATASIZE PUSH1 0x0 REVERT JUMPDEST POP POP PUSH1 0x40 MLOAD PUSH1 0x1F NOT ADD MLOAD SWAP2 POP POP PUSH1 0x1 PUSH1 0x1 PUSH1 0xA0 SHL SUB DUP2 AND PUSH2 0x3E47 JUMPI PUSH1 0x0 PUSH1 0x1 SWAP3 POP SWAP3 POP POP PUSH2 0x3E4E JUMP JUMPDEST SWAP2 POP PUSH1 0x0 SWAP1 POP JUMPDEST SWAP5 POP SWAP5 SWAP3 POP POP POP JUMP JUMPDEST PUSH1 0x0 DUP1 PUSH1 0x1 PUSH1 0x1 PUSH1 0xFF SHL SUB DUP4 AND DUP2 PUSH2 0x3E74 PUSH1 0xFF DUP7 SWAP1 SHR PUSH1 0x1B PUSH2 0x5006 JUMP JUMPDEST SWAP1 POP PUSH2 0x3E82 DUP8 DUP3 DUP9 DUP6 PUSH2 0x3D6A JUMP JUMPDEST SWAP4 POP SWAP4 POP POP POP SWAP4 POP SWAP4 SWAP2 POP POP JUMP JUMPDEST PUSH1 0x60 PUSH1 0x0 PUSH2 0x3E9F DUP4 PUSH1 0x2 PUSH2 0x4C44 JUMP JUMPDEST PUSH2 0x3EAA SWAP1 PUSH1 0x2 PUSH2 0x5006 JUMP JUMPDEST PUSH1 0x1 PUSH1 0x1 PUSH1 0x40 SHL SUB DUP2 GT ISZERO PUSH2 0x3EC1 JUMPI PUSH2 0x3EC1 PUSH2 0x43EC JUMP JUMPDEST PUSH1 0x40 MLOAD SWAP1 DUP1 DUP3 MSTORE DUP1 PUSH1 0x1F ADD PUSH1 0x1F NOT AND PUSH1 0x20 ADD DUP3 ADD PUSH1 0x40 MSTORE DUP1 ISZERO PUSH2 0x3EEB JUMPI PUSH1 0x20 DUP3 ADD DUP2 DUP1 CALLDATASIZE DUP4 CALLDATACOPY ADD SWAP1 POP JUMPDEST POP SWAP1 POP PUSH1 0x3 PUSH1 0xFC SHL DUP2 PUSH1 0x0 DUP2 MLOAD DUP2 LT PUSH2 0x3F06 JUMPI PUSH2 0x3F06 PUSH2 0x501E JUMP JUMPDEST PUSH1 0x20 ADD ADD SWAP1 PUSH1 0x1 PUSH1 0x1 PUSH1 0xF8 SHL SUB NOT AND SWAP1 DUP2 PUSH1 0x0 BYTE SWAP1 MSTORE8 POP PUSH1 0xF PUSH1 0xFB SHL DUP2 PUSH1 0x1 DUP2 MLOAD DUP2 LT PUSH2 0x3F35 JUMPI PUSH2 0x3F35 PUSH2 0x501E JUMP JUMPDEST PUSH1 0x20 ADD ADD SWAP1 PUSH1 0x1 PUSH1 0x1 PUSH1 0xF8 SHL SUB NOT AND SWAP1 DUP2 PUSH1 0x0 BYTE SWAP1 MSTORE8 POP PUSH1 0x0 PUSH2 0x3F59 DUP5 PUSH1 0x2 PUSH2 0x4C44 JUMP JUMPDEST PUSH2 0x3F64 SWAP1 PUSH1 0x1 PUSH2 0x5006 JUMP JUMPDEST SWAP1 POP JUMPDEST PUSH1 0x1 DUP2 GT ISZERO PUSH2 0x3FDC JUMPI PUSH16 0x181899199A1A9B1B9C1CB0B131B232B3 PUSH1 0x81 SHL DUP6 PUSH1 0xF AND PUSH1 0x10 DUP2 LT PUSH2 0x3F98 JUMPI PUSH2 0x3F98 PUSH2 0x501E JUMP JUMPDEST BYTE PUSH1 0xF8 SHL DUP3 DUP3 DUP2 MLOAD DUP2 LT PUSH2 0x3FAE JUMPI PUSH2 0x3FAE PUSH2 0x501E JUMP JUMPDEST PUSH1 0x20 ADD ADD SWAP1 PUSH1 0x1 PUSH1 0x1 PUSH1 0xF8 SHL SUB NOT AND SWAP1 DUP2 PUSH1 0x0 BYTE SWAP1 MSTORE8 POP PUSH1 0x4 SWAP5 SWAP1 SWAP5 SHR SWAP4 PUSH2 0x3FD5 DUP2 PUSH2 0x5034 JUMP JUMPDEST SWAP1 POP PUSH2 0x3F67 JUMP JUMPDEST POP DUP4 ISZERO PUSH2 0x102F JUMPI PUSH1 0x40 MLOAD PUSH3 0x461BCD PUSH1 0xE5 SHL DUP2 MSTORE PUSH1 0x20 PUSH1 0x4 DUP3 ADD DUP2 SWAP1 MSTORE PUSH1 0x24 DUP3 ADD MSTORE PUSH32 0x537472696E67733A20686578206C656E67746820696E73756666696369656E74 PUSH1 0x44 DUP3 ADD MSTORE PUSH1 0x64 ADD PUSH2 0x9A5 JUMP JUMPDEST PUSH1 0x0 PUSH2 0x834 DUP3 SLOAD SWAP1 JUMP JUMPDEST PUSH1 0x0 PUSH2 0x102F DUP4 DUP4 PUSH2 0x416C JUMP JUMPDEST PUSH2 0x404A DUP2 PUSH2 0x3BED JUMP JUMPDEST PUSH1 0x40 MLOAD PUSH1 0x1 PUSH1 0x1 PUSH1 0xA0 SHL SUB DUP3 AND SWAP1 PUSH32 0xBC7CD75A20EE27FD9ADEBAB32041F755214DBC6BFFA90CC0225B39DA2E5C2D3B SWAP1 PUSH1 0x0 SWAP1 LOG2 POP JUMP JUMPDEST PUSH1 0x60 PUSH1 0x1 PUSH1 0x1 PUSH1 0xA0 SHL SUB DUP4 AND EXTCODESIZE PUSH2 0x40E9 JUMPI PUSH1 0x40 MLOAD PUSH3 0x461BCD PUSH1 0xE5 SHL DUP2 MSTORE PUSH1 0x20 PUSH1 0x4 DUP3 ADD MSTORE PUSH1 0x26 PUSH1 0x24 DUP3 ADD MSTORE PUSH32 0x416464726573733A2064656C65676174652063616C6C20746F206E6F6E2D636F PUSH1 0x44 DUP3 ADD MSTORE PUSH6 0x1B9D1C9858DD PUSH1 0xD2 SHL PUSH1 0x64 DUP3 ADD MSTORE PUSH1 0x84 ADD PUSH2 0x9A5 JUMP JUMPDEST PUSH1 0x0 DUP1 DUP5 PUSH1 0x1 PUSH1 0x1 PUSH1 0xA0 SHL SUB AND DUP5 PUSH1 0x40 MLOAD PUSH2 0x4104 SWAP2 SWAP1 PUSH2 0x4A13 JUMP JUMPDEST PUSH1 0x0 PUSH1 0x40 MLOAD DUP1 DUP4 SUB DUP2 DUP6 GAS DELEGATECALL SWAP2 POP POP RETURNDATASIZE DUP1 PUSH1 0x0 DUP2 EQ PUSH2 0x413F JUMPI PUSH1 0x40 MLOAD SWAP2 POP PUSH1 0x1F NOT PUSH1 0x3F RETURNDATASIZE ADD AND DUP3 ADD PUSH1 0x40 MSTORE RETURNDATASIZE DUP3 MSTORE RETURNDATASIZE PUSH1 0x0 PUSH1 0x20 DUP5 ADD RETURNDATACOPY PUSH2 0x4144 JUMP JUMPDEST PUSH1 0x60 SWAP2 POP JUMPDEST POP SWAP2 POP SWAP2 POP PUSH2 0x12EE DUP3 DUP3 PUSH1 0x40 MLOAD DUP1 PUSH1 0x60 ADD PUSH1 0x40 MSTORE DUP1 PUSH1 0x27 DUP2 MSTORE PUSH1 0x20 ADD PUSH2 0x506C PUSH1 0x27 SWAP2 CODECOPY PUSH2 0x4196 JUMP JUMPDEST PUSH1 0x0 DUP3 PUSH1 0x0 ADD DUP3 DUP2 SLOAD DUP2 LT PUSH2 0x4183 JUMPI PUSH2 0x4183 PUSH2 0x501E JUMP JUMPDEST SWAP1 PUSH1 0x0 MSTORE PUSH1 0x20 PUSH1 0x0 KECCAK256 ADD SLOAD SWAP1 POP SWAP3 SWAP2 POP POP JUMP JUMPDEST PUSH1 0x60 DUP4 ISZERO PUSH2 0x41A5 JUMPI POP DUP2 PUSH2 0x102F JUMP JUMPDEST DUP3 MLOAD ISZERO PUSH2 0x41B5 JUMPI DUP3 MLOAD DUP1 DUP5 PUSH1 0x20 ADD REVERT JUMPDEST DUP2 PUSH1 0x40 MLOAD PUSH3 0x461BCD PUSH1 0xE5 SHL DUP2 MSTORE PUSH1 0x4 ADD PUSH2 0x9A5 SWAP2 SWAP1 PUSH2 0x435E JUMP JUMPDEST DUP3 DUP1 SLOAD PUSH2 0x41DB SWAP1 PUSH2 0x4870 JUMP JUMPDEST SWAP1 PUSH1 0x0 MSTORE PUSH1 0x20 PUSH1 0x0 KECCAK256 SWAP1 PUSH1 0x1F ADD PUSH1 0x20 SWAP1 DIV DUP2 ADD SWAP3 DUP3 PUSH2 0x41FD JUMPI PUSH1 0x0 DUP6 SSTORE PUSH2 0x4243 JUMP JUMPDEST DUP3 PUSH1 0x1F LT PUSH2 0x4216 JUMPI DUP3 DUP1 ADD PUSH1 0xFF NOT DUP3 CALLDATALOAD AND OR DUP6 SSTORE PUSH2 0x4243 JUMP JUMPDEST DUP3 DUP1 ADD PUSH1 0x1 ADD DUP6 SSTORE DUP3 ISZERO PUSH2 0x4243 JUMPI SWAP2 DUP3 ADD JUMPDEST DUP3 DUP2 GT ISZERO PUSH2 0x4243 JUMPI DUP3 CALLDATALOAD DUP3 SSTORE SWAP2 PUSH1 0x20 ADD SWAP2 SWAP1 PUSH1 0x1 ADD SWAP1 PUSH2 0x4228 JUMP JUMPDEST POP PUSH2 0x424F SWAP3 SWAP2 POP PUSH2 0x42C7 JUMP JUMPDEST POP SWAP1 JUMP JUMPDEST DUP3 DUP1 SLOAD PUSH2 0x425F SWAP1 PUSH2 0x4870 JUMP JUMPDEST SWAP1 PUSH1 0x0 MSTORE PUSH1 0x20 PUSH1 0x0 KECCAK256 SWAP1 PUSH1 0x1F ADD PUSH1 0x20 SWAP1 DIV DUP2 ADD SWAP3 DUP3 PUSH2 0x4281 JUMPI PUSH1 0x0 DUP6 SSTORE PUSH2 0x4243 JUMP JUMPDEST DUP3 PUSH1 0x1F LT PUSH2 0x429A JUMPI DUP1 MLOAD PUSH1 0xFF NOT AND DUP4 DUP1 ADD OR DUP6 SSTORE PUSH2 0x4243 JUMP JUMPDEST DUP3 DUP1 ADD PUSH1 0x1 ADD DUP6 SSTORE DUP3 ISZERO PUSH2 0x4243 JUMPI SWAP2 DUP3 ADD JUMPDEST DUP3 DUP2 GT ISZERO PUSH2 0x4243 JUMPI DUP3 MLOAD DUP3 SSTORE SWAP2 PUSH1 0x20 ADD SWAP2 SWAP1 PUSH1 0x1 ADD SWAP1 PUSH2 0x42AC JUMP JUMPDEST JUMPDEST DUP1 DUP3 GT ISZERO PUSH2 0x424F JUMPI PUSH1 0x0 DUP2 SSTORE PUSH1 0x1 ADD PUSH2 0x42C8 JUMP JUMPDEST PUSH1 0x0 PUSH1 0x20 DUP3 DUP5 SUB SLT ISZERO PUSH2 0x42EE JUMPI PUSH1 0x0 DUP1 REVERT JUMPDEST DUP2 CALLDATALOAD PUSH1 0x1 PUSH1 0x1 PUSH1 0xE0 SHL SUB NOT DUP2 AND DUP2 EQ PUSH2 0x102F JUMPI PUSH1 0x0 DUP1 REVERT JUMPDEST PUSH1 0x0 JUMPDEST DUP4 DUP2 LT ISZERO PUSH2 0x4321 JUMPI DUP2 DUP2 ADD MLOAD DUP4 DUP3 ADD MSTORE PUSH1 0x20 ADD PUSH2 0x4309 JUMP JUMPDEST DUP4 DUP2 GT ISZERO PUSH2 0x3CAE JUMPI POP POP PUSH1 0x0 SWAP2 ADD MSTORE JUMP JUMPDEST PUSH1 0x0 DUP2 MLOAD DUP1 DUP5 MSTORE PUSH2 0x434A DUP2 PUSH1 0x20 DUP7 ADD PUSH1 0x20 DUP7 ADD PUSH2 0x4306 JUMP JUMPDEST PUSH1 0x1F ADD PUSH1 0x1F NOT AND SWAP3 SWAP1 SWAP3 ADD PUSH1 0x20 ADD SWAP3 SWAP2 POP POP JUMP JUMPDEST PUSH1 0x20 DUP2 MSTORE PUSH1 0x0 PUSH2 0x102F PUSH1 0x20 DUP4 ADD DUP5 PUSH2 0x4332 JUMP JUMPDEST PUSH1 0x1 PUSH1 0x1 PUSH1 0xA0 SHL SUB DUP2 AND DUP2 EQ PUSH2 0xCEB JUMPI PUSH1 0x0 DUP1 REVERT JUMPDEST PUSH1 0x0 PUSH1 0x20 DUP3 DUP5 SUB SLT ISZERO PUSH2 0x4398 JUMPI PUSH1 0x0 DUP1 REVERT JUMPDEST DUP2 CALLDATALOAD PUSH2 0x102F DUP2 PUSH2 0x4371 JUMP JUMPDEST PUSH1 0x0 PUSH1 0x20 DUP3 DUP5 SUB SLT ISZERO PUSH2 0x43B5 JUMPI PUSH1 0x0 DUP1 REVERT JUMPDEST POP CALLDATALOAD SWAP2 SWAP1 POP JUMP JUMPDEST PUSH1 0x0 DUP1 PUSH1 0x40 DUP4 DUP6 SUB SLT ISZERO PUSH2 0x43CF JUMPI PUSH1 0x0 DUP1 REVERT JUMPDEST DUP3 CALLDATALOAD SWAP2 POP PUSH1 0x20 DUP4 ADD CALLDATALOAD PUSH2 0x43E1 DUP2 PUSH2 0x4371 JUMP JUMPDEST DUP1 SWAP2 POP POP SWAP3 POP SWAP3 SWAP1 POP JUMP JUMPDEST PUSH4 0x4E487B71 PUSH1 0xE0 SHL PUSH1 0x0 MSTORE PUSH1 0x41 PUSH1 0x4 MSTORE PUSH1 0x24 PUSH1 0x0 REVERT JUMPDEST PUSH1 0x40 MLOAD PUSH1 0xA0 DUP2 ADD PUSH1 0x1 PUSH1 0x1 PUSH1 0x40 SHL SUB DUP2 GT DUP3 DUP3 LT OR ISZERO PUSH2 0x4424 JUMPI PUSH2 0x4424 PUSH2 0x43EC JUMP JUMPDEST PUSH1 0x40 MSTORE SWAP1 JUMP JUMPDEST PUSH1 0x40 MLOAD PUSH1 0x1F DUP3 ADD PUSH1 0x1F NOT AND DUP2 ADD PUSH1 0x1 PUSH1 0x1 PUSH1 0x40 SHL SUB DUP2 GT DUP3 DUP3 LT OR ISZERO PUSH2 0x4452 JUMPI PUSH2 0x4452 PUSH2 0x43EC JUMP JUMPDEST PUSH1 0x40 MSTORE SWAP2 SWAP1 POP JUMP JUMPDEST PUSH1 0x0 PUSH1 0x1 PUSH1 0x1 PUSH1 0x40 SHL SUB DUP3 GT ISZERO PUSH2 0x4473 JUMPI PUSH2 0x4473 PUSH2 0x43EC JUMP JUMPDEST POP PUSH1 0x1F ADD PUSH1 0x1F NOT AND PUSH1 0x20 ADD SWAP1 JUMP JUMPDEST PUSH1 0x0 DUP3 PUSH1 0x1F DUP4 ADD SLT PUSH2 0x4492 JUMPI PUSH1 0x0 DUP1 REVERT JUMPDEST DUP2 CALLDATALOAD PUSH2 0x44A5 PUSH2 0x44A0 DUP3 PUSH2 0x445A JUMP JUMPDEST PUSH2 0x442A JUMP JUMPDEST DUP2 DUP2 MSTORE DUP5 PUSH1 0x20 DUP4 DUP7 ADD ADD GT ISZERO PUSH2 0x44BA JUMPI PUSH1 0x0 DUP1 REVERT JUMPDEST DUP2 PUSH1 0x20 DUP6 ADD PUSH1 0x20 DUP4 ADD CALLDATACOPY PUSH1 0x0 SWAP2 DUP2 ADD PUSH1 0x20 ADD SWAP2 SWAP1 SWAP2 MSTORE SWAP4 SWAP3 POP POP POP JUMP JUMPDEST PUSH1 0x0 DUP1 PUSH1 0x40 DUP4 DUP6 SUB SLT ISZERO PUSH2 0x44EA JUMPI PUSH1 0x0 DUP1 REVERT JUMPDEST DUP3 CALLDATALOAD PUSH2 0x44F5 DUP2 PUSH2 0x4371 JUMP JUMPDEST SWAP2 POP PUSH1 0x20 DUP4 ADD CALLDATALOAD PUSH1 0x1 PUSH1 0x1 PUSH1 0x40 SHL SUB DUP2 GT ISZERO PUSH2 0x4510 JUMPI PUSH1 0x0 DUP1 REVERT JUMPDEST PUSH2 0x451C DUP6 DUP3 DUP7 ADD PUSH2 0x4481 JUMP JUMPDEST SWAP2 POP POP SWAP3 POP SWAP3 SWAP1 POP JUMP JUMPDEST PUSH4 0x4E487B71 PUSH1 0xE0 SHL PUSH1 0x0 MSTORE PUSH1 0x21 PUSH1 0x4 MSTORE PUSH1 0x24 PUSH1 0x0 REVERT JUMPDEST PUSH1 0x20 DUP2 ADD PUSH1 0x8 DUP4 LT PUSH2 0x4550 JUMPI PUSH2 0x4550 PUSH2 0x4526 JUMP JUMPDEST SWAP2 SWAP1 MSTORE SWAP1 JUMP JUMPDEST DUP1 ISZERO ISZERO DUP2 EQ PUSH2 0xCEB JUMPI PUSH1 0x0 DUP1 REVERT JUMPDEST PUSH1 0x0 PUSH1 0x20 DUP3 DUP5 SUB SLT ISZERO PUSH2 0x4576 JUMPI PUSH1 0x0 DUP1 REVERT JUMPDEST DUP2 CALLDATALOAD PUSH2 0x102F DUP2 PUSH2 0x4556 JUMP JUMPDEST PUSH1 0x0 DUP1 DUP4 PUSH1 0x1F DUP5 ADD SLT PUSH2 0x4593 JUMPI PUSH1 0x0 DUP1 REVERT JUMPDEST POP DUP2 CALLDATALOAD PUSH1 0x1 PUSH1 0x1 PUSH1 0x40 SHL SUB DUP2 GT ISZERO PUSH2 0x45AA JUMPI PUSH1 0x0 DUP1 REVERT JUMPDEST PUSH1 0x20 DUP4 ADD SWAP2 POP DUP4 PUSH1 0x20 DUP3 DUP6 ADD ADD GT ISZERO PUSH2 0x2C97 JUMPI PUSH1 0x0 DUP1 REVERT JUMPDEST PUSH1 0x0 DUP1 PUSH1 0x0 DUP1 PUSH1 0x0 DUP1 PUSH1 0x0 PUSH1 0xA0 DUP9 DUP11 SUB SLT ISZERO PUSH2 0x45DD JUMPI PUSH1 0x0 DUP1 REVERT JUMPDEST DUP8 CALLDATALOAD PUSH2 0x45E8 DUP2 PUSH2 0x4371 JUMP JUMPDEST SWAP7 POP PUSH1 0x20 DUP9 ADD CALLDATALOAD PUSH2 0x45F8 DUP2 PUSH2 0x4371 JUMP JUMPDEST SWAP6 POP PUSH1 0x40 DUP9 ADD CALLDATALOAD PUSH2 0x4608 DUP2 PUSH2 0x4371 JUMP JUMPDEST SWAP5 POP PUSH1 0x60 DUP9 ADD CALLDATALOAD PUSH1 0x1 PUSH1 0x1 PUSH1 0x40 SHL SUB DUP1 DUP3 GT ISZERO PUSH2 0x4624 JUMPI PUSH1 0x0 DUP1 REVERT JUMPDEST PUSH2 0x4630 DUP12 DUP4 DUP13 ADD PUSH2 0x4581 JUMP JUMPDEST SWAP1 SWAP7 POP SWAP5 POP PUSH1 0x80 DUP11 ADD CALLDATALOAD SWAP2 POP DUP1 DUP3 GT ISZERO PUSH2 0x4649 JUMPI PUSH1 0x0 DUP1 REVERT JUMPDEST POP PUSH2 0x4656 DUP11 DUP3 DUP12 ADD PUSH2 0x4581 JUMP JUMPDEST SWAP9 SWAP12 SWAP8 SWAP11 POP SWAP6 SWAP9 POP SWAP4 SWAP7 SWAP3 SWAP6 SWAP3 SWAP4 POP POP POP JUMP JUMPDEST PUSH1 0x4 DUP2 LT PUSH2 0xCEB JUMPI PUSH1 0x0 DUP1 REVERT JUMPDEST PUSH1 0x0 DUP1 PUSH1 0x0 DUP1 PUSH1 0x60 DUP6 DUP8 SUB SLT ISZERO PUSH2 0x468C JUMPI PUSH1 0x0 DUP1 REVERT JUMPDEST DUP5 CALLDATALOAD PUSH1 0x1 PUSH1 0x1 PUSH1 0x40 SHL SUB DUP2 GT ISZERO PUSH2 0x46A2 JUMPI PUSH1 0x0 DUP1 REVERT JUMPDEST PUSH2 0x46AE DUP8 DUP3 DUP9 ADD PUSH2 0x4581 JUMP JUMPDEST SWAP1 SWAP6 POP SWAP4 POP POP PUSH1 0x20 DUP6 ADD CALLDATALOAD SWAP2 POP PUSH1 0x40 DUP6 ADD CALLDATALOAD PUSH2 0x46C9 DUP2 PUSH2 0x4669 JUMP JUMPDEST SWAP4 SWAP7 SWAP3 SWAP6 POP SWAP1 SWAP4 POP POP JUMP JUMPDEST PUSH1 0x0 DUP1 PUSH1 0x40 DUP4 DUP6 SUB SLT ISZERO PUSH2 0x46E7 JUMPI PUSH1 0x0 DUP1 REVERT JUMPDEST DUP3 CALLDATALOAD SWAP2 POP PUSH1 0x20 DUP4 ADD CALLDATALOAD PUSH1 0x1 PUSH1 0x1 PUSH1 0x40 SHL SUB DUP2 GT ISZERO PUSH2 0x4510 JUMPI PUSH1 0x0 DUP1 REVERT JUMPDEST DUP1 CALLDATALOAD PUSH1 0x5 DUP2 LT PUSH2 0x2872 JUMPI PUSH1 0x0 DUP1 REVERT JUMPDEST PUSH1 0x0 DUP1 PUSH1 0x0 DUP1 PUSH1 0x0 DUP1 PUSH1 0xC0 DUP8 DUP10 SUB SLT ISZERO PUSH2 0x472C JUMPI PUSH1 0x0 DUP1 REVERT JUMPDEST DUP7 CALLDATALOAD SWAP6 POP PUSH1 0x20 DUP8 ADD CALLDATALOAD SWAP5 POP PUSH1 0x40 DUP8 ADD CALLDATALOAD PUSH2 0x4745 DUP2 PUSH2 0x4371 JUMP JUMPDEST SWAP4 POP PUSH1 0x60 DUP8 ADD CALLDATALOAD PUSH2 0x4755 DUP2 PUSH2 0x4669 JUMP JUMPDEST SWAP3 POP PUSH2 0x4763 PUSH1 0x80 DUP9 ADD PUSH2 0x4704 JUMP JUMPDEST SWAP2 POP PUSH1 0xA0 DUP8 ADD CALLDATALOAD PUSH1 0x1 PUSH1 0x1 PUSH1 0x40 SHL SUB DUP2 GT ISZERO PUSH2 0x477E JUMPI PUSH1 0x0 DUP1 REVERT JUMPDEST PUSH2 0x478A DUP10 DUP3 DUP11 ADD PUSH2 0x4481 JUMP JUMPDEST SWAP2 POP POP SWAP3 SWAP6 POP SWAP3 SWAP6 POP SWAP3 SWAP6 JUMP JUMPDEST PUSH1 0x0 DUP1 PUSH1 0x40 DUP4 DUP6 SUB SLT ISZERO PUSH2 0x47AA JUMPI PUSH1 0x0 DUP1 REVERT JUMPDEST DUP3 CALLDATALOAD PUSH1 0x1 PUSH1 0x1 PUSH1 0x40 SHL SUB DUP1 DUP3 GT ISZERO PUSH2 0x47C1 JUMPI PUSH1 0x0 DUP1 REVERT JUMPDEST SWAP1 DUP5 ADD SWAP1 PUSH1 0xA0 DUP3 DUP8 SUB SLT ISZERO PUSH2 0x47D5 JUMPI PUSH1 0x0 DUP1 REVERT JUMPDEST PUSH2 0x47DD PUSH2 0x4402 JUMP JUMPDEST DUP3 CALLDATALOAD DUP2 MSTORE PUSH1 0x20 DUP4 ADD CALLDATALOAD PUSH2 0x47EF DUP2 PUSH2 0x4669 JUMP JUMPDEST PUSH1 0x20 DUP3 ADD MSTORE PUSH2 0x4800 PUSH1 0x40 DUP5 ADD PUSH2 0x4704 JUMP JUMPDEST PUSH1 0x40 DUP3 ADD MSTORE PUSH1 0x60 DUP4 ADD CALLDATALOAD DUP3 DUP2 GT ISZERO PUSH2 0x4817 JUMPI PUSH1 0x0 DUP1 REVERT JUMPDEST PUSH2 0x4823 DUP9 DUP3 DUP7 ADD PUSH2 0x4481 JUMP JUMPDEST PUSH1 0x60 DUP4 ADD MSTORE POP PUSH1 0x80 DUP4 ADD CALLDATALOAD DUP3 DUP2 GT ISZERO PUSH2 0x483B JUMPI PUSH1 0x0 DUP1 REVERT JUMPDEST PUSH2 0x4847 DUP9 DUP3 DUP7 ADD PUSH2 0x4481 JUMP JUMPDEST PUSH1 0x80 DUP4 ADD MSTORE POP SWAP4 POP PUSH1 0x20 DUP6 ADD CALLDATALOAD SWAP2 POP DUP1 DUP3 GT ISZERO PUSH2 0x4863 JUMPI PUSH1 0x0 DUP1 REVERT JUMPDEST POP PUSH2 0x451C DUP6 DUP3 DUP7 ADD PUSH2 0x4481 JUMP JUMPDEST PUSH1 0x1 DUP2 DUP2 SHR SWAP1 DUP3 AND DUP1 PUSH2 0x4884 JUMPI PUSH1 0x7F DUP3 AND SWAP2 POP JUMPDEST PUSH1 0x20 DUP3 LT DUP2 SUB PUSH2 0xB8B JUMPI PUSH4 0x4E487B71 PUSH1 0xE0 SHL PUSH1 0x0 MSTORE PUSH1 0x22 PUSH1 0x4 MSTORE PUSH1 0x24 PUSH1 0x0 REVERT JUMPDEST PUSH4 0x4E487B71 PUSH1 0xE0 SHL PUSH1 0x0 MSTORE PUSH1 0x11 PUSH1 0x4 MSTORE PUSH1 0x24 PUSH1 0x0 REVERT JUMPDEST PUSH1 0x0 PUSH4 0xFFFFFFFF DUP4 DUP2 AND SWAP1 DUP4 AND DUP2 DUP2 LT ISZERO PUSH2 0x48D7 JUMPI PUSH2 0x48D7 PUSH2 0x48A4 JUMP JUMPDEST SUB SWAP4 SWAP3 POP POP POP JUMP JUMPDEST PUSH1 0x4 DUP2 LT PUSH2 0xCEB JUMPI PUSH2 0xCEB PUSH2 0x4526 JUMP JUMPDEST PUSH2 0x48F8 DUP3 PUSH2 0x48DF JUMP JUMPDEST SWAP1 DUP2 MSTORE PUSH1 0x40 PUSH1 0x20 DUP3 ADD DUP2 SWAP1 MSTORE PUSH1 0x0 SWAP1 DUP3 ADD MSTORE PUSH1 0x60 ADD SWAP1 JUMP JUMPDEST PUSH1 0x20 DUP1 DUP3 MSTORE PUSH1 0x2C SWAP1 DUP3 ADD MSTORE PUSH32 0x46756E6374696F6E206D7573742062652063616C6C6564207468726F75676820 PUSH1 0x40 DUP3 ADD MSTORE PUSH12 0x19195B1959D85D1958D85B1B PUSH1 0xA2 SHL PUSH1 0x60 DUP3 ADD MSTORE PUSH1 0x80 ADD SWAP1 JUMP JUMPDEST PUSH1 0x20 DUP1 DUP3 MSTORE PUSH1 0x2C SWAP1 DUP3 ADD MSTORE PUSH32 0x46756E6374696F6E206D7573742062652063616C6C6564207468726F75676820 PUSH1 0x40 DUP3 ADD MSTORE PUSH12 0x6163746976652070726F7879 PUSH1 0xA0 SHL PUSH1 0x60 DUP3 ADD MSTORE PUSH1 0x80 ADD SWAP1 JUMP JUMPDEST PUSH1 0x5 DUP2 LT PUSH2 0x49B8 JUMPI PUSH2 0x49B8 PUSH2 0x4526 JUMP JUMPDEST SWAP1 MSTORE JUMP JUMPDEST DUP7 DUP2 MSTORE PUSH1 0x20 DUP2 ADD DUP7 SWAP1 MSTORE PUSH1 0x1 PUSH1 0x1 PUSH1 0xA0 SHL SUB DUP6 AND PUSH1 0x40 DUP3 ADD MSTORE PUSH2 0x49DE DUP5 PUSH2 0x48DF JUMP JUMPDEST DUP4 PUSH1 0x60 DUP3 ADD MSTORE PUSH2 0x49F1 PUSH1 0x80 DUP3 ADD DUP5 PUSH2 0x49A8 JUMP JUMPDEST PUSH1 0xC0 PUSH1 0xA0 DUP3 ADD MSTORE PUSH1 0x0 PUSH2 0x4A07 PUSH1 0xC0 DUP4 ADD DUP5 PUSH2 0x4332 JUMP JUMPDEST SWAP9 SWAP8 POP POP POP POP POP POP POP POP JUMP JUMPDEST PUSH1 0x0 DUP3 MLOAD PUSH2 0x4A25 DUP2 DUP5 PUSH1 0x20 DUP8 ADD PUSH2 0x4306 JUMP JUMPDEST SWAP2 SWAP1 SWAP2 ADD SWAP3 SWAP2 POP POP JUMP JUMPDEST PUSH1 0x0 PUSH1 0x20 DUP3 DUP5 SUB SLT ISZERO PUSH2 0x4A41 JUMPI PUSH1 0x0 DUP1 REVERT JUMPDEST DUP2 MLOAD PUSH2 0x102F DUP2 PUSH2 0x4556 JUMP JUMPDEST PUSH1 0x0 PUSH1 0x1 PUSH1 0x1 PUSH1 0x40 SHL SUB DUP1 DUP4 AND DUP2 DUP6 AND DUP1 DUP4 SUB DUP3 GT ISZERO PUSH2 0x4A6E JUMPI PUSH2 0x4A6E PUSH2 0x48A4 JUMP JUMPDEST ADD SWAP5 SWAP4 POP POP POP POP JUMP JUMPDEST PUSH1 0x0 DUP3 PUSH1 0x1F DUP4 ADD SLT PUSH2 0x4A88 JUMPI PUSH1 0x0 DUP1 REVERT JUMPDEST DUP2 MLOAD PUSH2 0x4A96 PUSH2 0x44A0 DUP3 PUSH2 0x445A JUMP JUMPDEST DUP2 DUP2 MSTORE DUP5 PUSH1 0x20 DUP4 DUP7 ADD ADD GT ISZERO PUSH2 0x4AAB JUMPI PUSH1 0x0 DUP1 REVERT JUMPDEST PUSH2 0x24AC DUP3 PUSH1 0x20 DUP4 ADD PUSH1 0x20 DUP8 ADD PUSH2 0x4306 JUMP JUMPDEST PUSH1 0x0 PUSH1 0x20 DUP3 DUP5 SUB SLT ISZERO PUSH2 0x4ACE JUMPI PUSH1 0x0 DUP1 REVERT JUMPDEST DUP2 MLOAD PUSH1 0x1 PUSH1 0x1 PUSH1 0x40 SHL SUB DUP1 DUP3 GT ISZERO PUSH2 0x4AE5 JUMPI PUSH1 0x0 DUP1 REVERT JUMPDEST SWAP1 DUP4 ADD SWAP1 PUSH1 0x40 DUP3 DUP7 SUB SLT ISZERO PUSH2 0x4AF9 JUMPI PUSH1 0x0 DUP1 REVERT JUMPDEST PUSH1 0x40 MLOAD PUSH1 0x40 DUP2 ADD DUP2 DUP2 LT DUP4 DUP3 GT OR ISZERO PUSH2 0x4B14 JUMPI PUSH2 0x4B14 PUSH2 0x43EC JUMP JUMPDEST PUSH1 0x40 MSTORE DUP3 MLOAD DUP3 DUP2 GT ISZERO PUSH2 0x4B26 JUMPI PUSH1 0x0 DUP1 REVERT JUMPDEST PUSH2 0x4B32 DUP8 DUP3 DUP7 ADD PUSH2 0x4A77 JUMP JUMPDEST DUP3 MSTORE POP PUSH1 0x20 DUP4 ADD MLOAD SWAP3 POP PUSH2 0x4B45 DUP4 PUSH2 0x4371 JUMP JUMPDEST PUSH1 0x20 DUP2 ADD SWAP3 SWAP1 SWAP3 MSTORE POP SWAP4 SWAP3 POP POP POP JUMP JUMPDEST PUSH1 0x0 PUSH4 0xFFFFFFFF DUP1 DUP4 AND DUP2 DUP6 AND DUP1 DUP4 SUB DUP3 GT ISZERO PUSH2 0x4A6E JUMPI PUSH2 0x4A6E PUSH2 0x48A4 JUMP JUMPDEST PUSH1 0x0 PUSH1 0x80 DUP3 DUP5 SUB SLT ISZERO PUSH2 0x4B86 JUMPI PUSH1 0x0 DUP1 REVERT JUMPDEST PUSH1 0x40 MLOAD PUSH1 0x80 DUP2 ADD PUSH1 0x1 PUSH1 0x1 PUSH1 0x40 SHL SUB DUP3 DUP3 LT DUP2 DUP4 GT OR ISZERO PUSH2 0x4BA9 JUMPI PUSH2 0x4BA9 PUSH2 0x43EC JUMP JUMPDEST DUP2 PUSH1 0x40 MSTORE DUP3 SWAP4 POP DUP5 MLOAD SWAP2 POP DUP1 DUP3 GT ISZERO PUSH2 0x4BC1 JUMPI PUSH1 0x0 DUP1 REVERT JUMPDEST POP PUSH2 0x4BCE DUP6 DUP3 DUP7 ADD PUSH2 0x4A77 JUMP JUMPDEST DUP3 MSTORE POP PUSH1 0x20 DUP4 ADD MLOAD PUSH1 0x20 DUP3 ADD MSTORE PUSH1 0x40 DUP4 ADD MLOAD PUSH2 0x4BE9 DUP2 PUSH2 0x4371 JUMP JUMPDEST PUSH1 0x40 DUP3 ADD MSTORE PUSH1 0x60 DUP4 ADD MLOAD PUSH2 0xFFFF DUP2 AND DUP2 EQ PUSH2 0x4C03 JUMPI PUSH1 0x0 DUP1 REVERT JUMPDEST PUSH1 0x60 SWAP2 SWAP1 SWAP2 ADD MSTORE SWAP3 SWAP2 POP POP JUMP JUMPDEST PUSH1 0x0 PUSH1 0x20 DUP3 DUP5 SUB SLT ISZERO PUSH2 0x4C22 JUMPI PUSH1 0x0 DUP1 REVERT JUMPDEST DUP2 MLOAD PUSH1 0x1 PUSH1 0x1 PUSH1 0x40 SHL SUB DUP2 GT ISZERO PUSH2 0x4C38 JUMPI PUSH1 0x0 DUP1 REVERT JUMPDEST PUSH2 0x24AC DUP5 DUP3 DUP6 ADD PUSH2 0x4B74 JUMP JUMPDEST PUSH1 0x0 DUP2 PUSH1 0x0 NOT DIV DUP4 GT DUP3 ISZERO ISZERO AND ISZERO PUSH2 0x4C5E JUMPI PUSH2 0x4C5E PUSH2 0x48A4 JUMP JUMPDEST POP MUL SWAP1 JUMP JUMPDEST PUSH4 0x4E487B71 PUSH1 0xE0 SHL PUSH1 0x0 MSTORE PUSH1 0x12 PUSH1 0x4 MSTORE PUSH1 0x24 PUSH1 0x0 REVERT JUMPDEST PUSH1 0x0 DUP3 PUSH2 0x4C88 JUMPI PUSH2 0x4C88 PUSH2 0x4C63 JUMP JUMPDEST POP DIV SWAP1 JUMP JUMPDEST PUSH1 0x0 PUSH1 0x20 DUP3 DUP5 SUB SLT ISZERO PUSH2 0x4C9F JUMPI PUSH1 0x0 DUP1 REVERT JUMPDEST PUSH1 0x40 MLOAD PUSH1 0x20 DUP2 ADD DUP2 DUP2 LT PUSH1 0x1 PUSH1 0x1 PUSH1 0x40 SHL SUB DUP3 GT OR ISZERO PUSH2 0x4CC1 JUMPI PUSH2 0x4CC1 PUSH2 0x43EC JUMP JUMPDEST DUP1 PUSH1 0x40 MSTORE POP DUP1 SWAP2 POP DUP3 MLOAD PUSH2 0x4CD4 DUP2 PUSH2 0x4371 JUMP JUMPDEST SWAP1 MSTORE SWAP3 SWAP2 POP POP JUMP JUMPDEST PUSH1 0x0 PUSH1 0x20 DUP3 DUP5 SUB SLT ISZERO PUSH2 0x4CEE JUMPI PUSH1 0x0 DUP1 REVERT JUMPDEST PUSH2 0x102F DUP4 DUP4 PUSH2 0x4C8D JUMP JUMPDEST PUSH1 0x0 PUSH1 0x20 DUP3 DUP5 SUB SLT ISZERO PUSH2 0x4D0A JUMPI PUSH1 0x0 DUP1 REVERT JUMPDEST POP MLOAD SWAP2 SWAP1 POP JUMP JUMPDEST PUSH1 0x0 PUSH4 0xFFFFFFFF DUP1 DUP5 AND DUP1 PUSH2 0x4D28 JUMPI PUSH2 0x4D28 PUSH2 0x4C63 JUMP JUMPDEST SWAP3 AND SWAP2 SWAP1 SWAP2 DIV SWAP3 SWAP2 POP POP JUMP JUMPDEST PUSH1 0x20 DUP1 DUP3 MSTORE PUSH1 0x2E SWAP1 DUP3 ADD MSTORE PUSH32 0x496E697469616C697A61626C653A20636F6E747261637420697320616C726561 PUSH1 0x40 DUP3 ADD MSTORE PUSH14 0x191E481A5B9A5D1A585B1A5E9959 PUSH1 0x92 SHL PUSH1 0x60 DUP3 ADD MSTORE PUSH1 0x80 ADD SWAP1 JUMP JUMPDEST PUSH2 0x4D8B DUP4 PUSH2 0x48DF JUMP JUMPDEST DUP3 DUP2 MSTORE PUSH1 0x40 PUSH1 0x20 DUP3 ADD MSTORE PUSH1 0x0 PUSH2 0x24AC PUSH1 0x40 DUP4 ADD DUP5 PUSH2 0x4332 JUMP JUMPDEST DUP8 DUP2 MSTORE PUSH1 0x20 DUP2 ADD DUP8 SWAP1 MSTORE PUSH1 0x40 DUP2 ADD DUP7 SWAP1 MSTORE PUSH1 0x1 PUSH1 0x1 PUSH1 0xA0 SHL SUB DUP6 AND PUSH1 0x60 DUP3 ADD MSTORE PUSH1 0xE0 DUP2 ADD PUSH2 0x4DD1 DUP6 PUSH2 0x48DF JUMP JUMPDEST DUP5 PUSH1 0x80 DUP4 ADD MSTORE PUSH2 0x4DE4 PUSH1 0xA0 DUP4 ADD DUP6 PUSH2 0x49A8 JUMP JUMPDEST DUP3 PUSH1 0xC0 DUP4 ADD MSTORE SWAP9 SWAP8 POP POP POP POP POP POP POP POP JUMP JUMPDEST DUP4 DUP2 MSTORE DUP3 PUSH1 0x20 DUP3 ADD MSTORE PUSH1 0x60 PUSH1 0x40 DUP3 ADD MSTORE PUSH1 0x0 PUSH2 0x12EE PUSH1 0x60 DUP4 ADD DUP5 PUSH2 0x4332 JUMP JUMPDEST PUSH1 0x20 DUP1 DUP3 MSTORE PUSH1 0x26 SWAP1 DUP3 ADD MSTORE PUSH32 0x7374617274757020746F6B656E206F666665722073686F756C64206E6F742062 PUSH1 0x40 DUP3 ADD MSTORE PUSH6 0x65207A65726F PUSH1 0xD0 SHL PUSH1 0x60 DUP3 ADD MSTORE PUSH1 0x80 ADD SWAP1 JUMP JUMPDEST PUSH1 0x20 DUP1 DUP3 MSTORE PUSH1 0x27 SWAP1 DUP3 ADD MSTORE PUSH32 0x7374617274757020736861726564207374616B652073686F756C64206E6F7420 PUSH1 0x40 DUP3 ADD MSTORE PUSH7 0x6265207A65726F PUSH1 0xC8 SHL PUSH1 0x60 DUP3 ADD MSTORE PUSH1 0x80 ADD SWAP1 JUMP JUMPDEST DUP6 DUP2 MSTORE DUP5 PUSH1 0x20 DUP3 ADD MSTORE DUP4 PUSH1 0x40 DUP3 ADD MSTORE PUSH1 0xA0 PUSH1 0x60 DUP3 ADD MSTORE PUSH1 0x0 PUSH2 0x4EC7 PUSH1 0xA0 DUP4 ADD DUP6 PUSH2 0x4332 JUMP JUMPDEST SWAP1 POP PUSH2 0xFFFF DUP4 AND PUSH1 0x80 DUP4 ADD MSTORE SWAP7 SWAP6 POP POP POP POP POP POP JUMP JUMPDEST PUSH32 0x416363657373436F6E74726F6C3A206163636F756E7420000000000000000000 DUP2 MSTORE PUSH1 0x0 DUP4 MLOAD PUSH2 0x4F15 DUP2 PUSH1 0x17 DUP6 ADD PUSH1 0x20 DUP9 ADD PUSH2 0x4306 JUMP JUMPDEST PUSH17 0x1034B99036B4B9B9B4B733903937B6329 PUSH1 0x7D SHL PUSH1 0x17 SWAP2 DUP5 ADD SWAP2 DUP3 ADD MSTORE DUP4 MLOAD PUSH2 0x4F46 DUP2 PUSH1 0x28 DUP5 ADD PUSH1 0x20 DUP9 ADD PUSH2 0x4306 JUMP JUMPDEST ADD PUSH1 0x28 ADD SWAP5 SWAP4 POP POP POP POP JUMP JUMPDEST PUSH1 0x0 PUSH1 0x1 DUP3 ADD PUSH2 0x4F64 JUMPI PUSH2 0x4F64 PUSH2 0x48A4 JUMP JUMPDEST POP PUSH1 0x1 ADD SWAP1 JUMP JUMPDEST PUSH1 0x0 DUP1 DUP4 SLOAD DUP2 PUSH1 0x1 DUP3 DUP2 SHR SWAP2 POP DUP1 DUP4 AND DUP1 PUSH2 0x4F87 JUMPI PUSH1 0x7F DUP4 AND SWAP3 POP JUMPDEST PUSH1 0x20 DUP1 DUP5 LT DUP3 SUB PUSH2 0x4FA6 JUMPI PUSH4 0x4E487B71 PUSH1 0xE0 SHL DUP7 MSTORE PUSH1 0x22 PUSH1 0x4 MSTORE PUSH1 0x24 DUP7 REVERT JUMPDEST DUP2 DUP1 ISZERO PUSH2 0x4FBA JUMPI PUSH1 0x1 DUP2 EQ PUSH2 0x4FCB JUMPI PUSH2 0x4FF8 JUMP JUMPDEST PUSH1 0xFF NOT DUP7 AND DUP10 MSTORE DUP5 DUP10 ADD SWAP7 POP PUSH2 0x4FF8 JUMP JUMPDEST PUSH1 0x0 DUP11 DUP2 MSTORE PUSH1 0x20 SWAP1 KECCAK256 PUSH1 0x0 JUMPDEST DUP7 DUP2 LT ISZERO PUSH2 0x4FF0 JUMPI DUP2 SLOAD DUP12 DUP3 ADD MSTORE SWAP1 DUP6 ADD SWAP1 DUP4 ADD PUSH2 0x4FD7 JUMP JUMPDEST POP POP DUP5 DUP10 ADD SWAP7 POP JUMPDEST POP SWAP5 SWAP9 SWAP8 POP POP POP POP POP POP POP POP JUMP JUMPDEST PUSH1 0x0 DUP3 NOT DUP3 GT ISZERO PUSH2 0x5019 JUMPI PUSH2 0x5019 PUSH2 0x48A4 JUMP JUMPDEST POP ADD SWAP1 JUMP JUMPDEST PUSH4 0x4E487B71 PUSH1 0xE0 SHL PUSH1 0x0 MSTORE PUSH1 0x32 PUSH1 0x4 MSTORE PUSH1 0x24 PUSH1 0x0 REVERT JUMPDEST PUSH1 0x0 DUP2 PUSH2 0x5043 JUMPI PUSH2 0x5043 PUSH2 0x48A4 JUMP JUMPDEST POP PUSH1 0x0 NOT ADD SWAP1 JUMP INVALID CALLDATASIZE ADDMOD SWAP5 LOG1 EXTCODESIZE LOG1 LOG3 0x21 MOD PUSH8 0xC828492DB98DCA3E KECCAK256 PUSH23 0xCC3735A920A3CA505D382BBC416464726573733A206C6F PUSH24 0x2D6C6576656C2064656C65676174652063616C6C20666169 PUSH13 0x6564A49807205CE4D355092EF5 0xA8 LOG1 DUP16 JUMP 0xE8 SWAP2 EXTCODECOPY DELEGATECALL LOG2 ADD 0xFB 0xE2 DUP8 DUP3 JUMPDEST MULMOD JUMP SWAP4 0xC2 OR PUSH22 0xA2646970667358221220F9EBC724274FD3C52AD3B377 DUP12 BASEFEE SWAP12 SWAP16 AND RETURNDATASIZE SLOAD MSIZE SHL 0xE3 SWAP7 BASEFEE 0xCB 0xE7 OR CALLDATALOAD 0xD6 GASPRICE PUSH30 0xF764736F6C634300080E0033000000000000000000000000000000000000 "
    },
    "gasEstimates": {
      "creation": {
        "codeDepositCost": "4142400",
        "executionCost": "infinite",
        "totalCost": "infinite"
      },
      "external": {
        "ADMIN_ROLE()": "infinite",
        "CONSENSUS_ROLE()": "305",
        "DEFAULT_ADMIN_ROLE()": "240",
        "FREEZE_ACCOUNT_SIGNATURE()": "330",
        "TRANSFER_SIGNATURE()": "352",
        "UNFREEZE_ACCOUNT_SIGNATURE()": "286",
        "cancel(bytes32,string)": "infinite",
        "castVote(string,bytes32,uint8)": "infinite",
        "castVoteAdmin(bytes32)": "infinite",
        "commissionWallet()": "2471",
        "disableValidator(address)": "infinite",
        "execute(bytes32)": "infinite",
        "getRoleAdmin(bytes32)": "2490",
        "grantRole(bytes32,address)": "infinite",
        "hasRole(bytes32,address)": "2765",
        "hasVoted(bytes32,address)": "infinite",
        "hashProposal(bytes32,bytes32,address,uint8,uint8,bytes)": "infinite",
        "initialize(address,address,address,string,string)": "infinite",
        "innTokenAddress()": "2425",
        "isAdminFirstVote()": "2428",
        "isMigrationEnabled()": "2450",
        "isStartup(address)": "4916",
        "isValidator(address)": "4970",
        "name()": "infinite",
        "propose((bytes32,uint8,uint8,string,bytes),bytes)": "infinite",
        "proxiableUUID()": "infinite",
        "renounceRole(bytes32,address)": "29046",
        "reservedWallet()": "2426",
        "revokeRole(bytes32,address)": "infinite",
        "setMigration(bool)": "infinite",
        "setVotingDelay(uint256)": "infinite",
        "setVotingPeriod(uint256)": "infinite",
        "startupCount()": "2392",
        "state(bytes32)": "infinite",
        "supportsInterface(bytes4)": "473",
        "upgradeTo(address)": "infinite",
        "upgradeToAndCall(address,bytes)": "infinite",
        "validatorCount()": "2426",
        "version()": "infinite",
        "votingDelay()": "2385",
        "votingPeriod()": "2364"
      },
      "internal": {
        "_authorizeUpgrade(address)": "infinite",
        "_castVote(bytes32,address,enum IGovernorINN.VoteType,string memory)": "infinite",
        "_domainSeparatorV4()": "infinite",
        "_execute(struct IGovernorINNImpl.ProposalCore storage pointer)": "infinite",
        "_freezeAccount(address)": "infinite",
        "_fullQuorum(bytes32)": "infinite",
        "_generateProposalCreationEvent(struct IGovernorINNImpl.ProposalCore storage pointer)": "infinite",
        "_getMessageHash(bytes32,bytes32,address,enum IGovernorINN.ProposalType,enum IGovernorINN.ActionType,bytes memory)": "infinite",
        "_hashTypedDataV4(bytes32)": "infinite",
        "_quorumReached(bytes32)": "4560",
        "_sendRewards(bytes32,uint256)": "infinite",
        "_transferCommission(address,uint256)": "infinite",
        "_transferToken(address,uint256)": "infinite",
        "_unfreezeAccount(address)": "infinite"
      }
    },
    "methodIdentifiers": {
      "ADMIN_ROLE()": "75b238fc",
      "CONSENSUS_ROLE()": "fa2dabad",
      "DEFAULT_ADMIN_ROLE()": "a217fddf",
      "FREEZE_ACCOUNT_SIGNATURE()": "afdf6710",
      "TRANSFER_SIGNATURE()": "e0310e52",
      "UNFREEZE_ACCOUNT_SIGNATURE()": "c0e6d5d6",
      "cancel(bytes32,string)": "b7d6fe24",
      "castVote(string,bytes32,uint8)": "a5d79624",
      "castVoteAdmin(bytes32)": "30d9b773",
      "commissionWallet()": "97c0262a",
      "disableValidator(address)": "1fe97684",
      "execute(bytes32)": "e751f271",
      "getRoleAdmin(bytes32)": "248a9ca3",
      "grantRole(bytes32,address)": "2f2ff15d",
      "hasRole(bytes32,address)": "91d14854",
      "hasVoted(bytes32,address)": "aadc3b72",
      "hashProposal(bytes32,bytes32,address,uint8,uint8,bytes)": "be5967ea",
      "initialize(address,address,address,string,string)": "83b43589",
      "innTokenAddress()": "f8c662ff",
      "isAdminFirstVote()": "41863ed6",
      "isMigrationEnabled()": "33f3533b",
      "isStartup(address)": "5ae766f3",
      "isValidator(address)": "facd743b",
      "name()": "06fdde03",
      "propose((bytes32,uint8,uint8,string,bytes),bytes)": "ff666653",
      "proxiableUUID()": "52d1902d",
      "renounceRole(bytes32,address)": "36568abe",
      "reservedWallet()": "c22ab4e0",
      "revokeRole(bytes32,address)": "d547741f",
      "setMigration(bool)": "7f1e250c",
      "setVotingDelay(uint256)": "70b0f660",
      "setVotingPeriod(uint256)": "ea0217cf",
      "startupCount()": "25ce7586",
      "state(bytes32)": "61d585da",
      "supportsInterface(bytes4)": "01ffc9a7",
      "upgradeTo(address)": "3659cfe6",
      "upgradeToAndCall(address,bytes)": "4f1ef286",
      "validatorCount()": "0f43a677",
      "version()": "54fd4d50",
      "votingDelay()": "3932abb1",
      "votingPeriod()": "02a251a3"
    }
  },
  "storageLayout": {
    "storage": [
      {
        "astId": 808,
        "contract": "src/contracts/IGovernorINNImpl.sol:IGovernorINNImpl",
        "label": "_initialized",
        "offset": 0,
        "slot": "0",
        "type": "t_uint8"
      },
      {
        "astId": 811,
        "contract": "src/contracts/IGovernorINNImpl.sol:IGovernorINNImpl",
        "label": "_initializing",
        "offset": 1,
        "slot": "0",
        "type": "t_bool"
      },
      {
        "astId": 790,
        "contract": "src/contracts/IGovernorINNImpl.sol:IGovernorINNImpl",
        "label": "__gap",
        "offset": 0,
        "slot": "1",
        "type": "t_array(t_uint256)50_storage"
      },
      {
        "astId": 1078,
        "contract": "src/contracts/IGovernorINNImpl.sol:IGovernorINNImpl",
        "label": "__gap",
        "offset": 0,
        "slot": "51",
        "type": "t_array(t_uint256)50_storage"
      },
      {
        "astId": 1363,
        "contract": "src/contracts/IGovernorINNImpl.sol:IGovernorINNImpl",
        "label": "__gap",
        "offset": 0,
        "slot": "101",
        "type": "t_array(t_uint256)50_storage"
      },
      {
        "astId": 2441,
        "contract": "src/contracts/IGovernorINNImpl.sol:IGovernorINNImpl",
        "label": "__gap",
        "offset": 0,
        "slot": "151",
        "type": "t_array(t_uint256)50_storage"
      },
      {
        "astId": 39,
        "contract": "src/contracts/IGovernorINNImpl.sol:IGovernorINNImpl",
        "label": "_roles",
        "offset": 0,
        "slot": "201",
        "type": "t_mapping(t_bytes32,t_struct(RoleData)34_storage)"
      },
      {
        "astId": 338,
        "contract": "src/contracts/IGovernorINNImpl.sol:IGovernorINNImpl",
        "label": "__gap",
        "offset": 0,
        "slot": "202",
        "type": "t_array(t_uint256)49_storage"
      },
      {
        "astId": 13653,
        "contract": "src/contracts/IGovernorINNImpl.sol:IGovernorINNImpl",
        "label": "_registry",
        "offset": 0,
        "slot": "251",
        "type": "t_mapping(t_address,t_struct(EntityInfo)13604_storage)"
      },
      {
        "astId": 13658,
        "contract": "src/contracts/IGovernorINNImpl.sol:IGovernorINNImpl",
        "label": "_proposalVotes",
        "offset": 0,
        "slot": "252",
        "type": "t_mapping(t_bytes32,t_struct(ProposalVote)13592_storage)"
      },
      {
        "astId": 13663,
        "contract": "src/contracts/IGovernorINNImpl.sol:IGovernorINNImpl",
        "label": "_proposals",
        "offset": 0,
        "slot": "253",
        "type": "t_mapping(t_bytes32,t_struct(ProposalCore)13582_storage)"
      },
      {
        "astId": 13665,
        "contract": "src/contracts/IGovernorINNImpl.sol:IGovernorINNImpl",
        "label": "votingDelay",
        "offset": 0,
        "slot": "254",
        "type": "t_uint256"
      },
      {
        "astId": 13667,
        "contract": "src/contracts/IGovernorINNImpl.sol:IGovernorINNImpl",
        "label": "votingPeriod",
        "offset": 0,
        "slot": "255",
        "type": "t_uint256"
      },
      {
        "astId": 13669,
        "contract": "src/contracts/IGovernorINNImpl.sol:IGovernorINNImpl",
        "label": "reservedWallet",
        "offset": 0,
        "slot": "256",
        "type": "t_address"
      },
      {
        "astId": 13671,
        "contract": "src/contracts/IGovernorINNImpl.sol:IGovernorINNImpl",
        "label": "commissionWallet",
        "offset": 0,
        "slot": "257",
        "type": "t_address"
      },
      {
        "astId": 13673,
        "contract": "src/contracts/IGovernorINNImpl.sol:IGovernorINNImpl",
        "label": "innTokenAddress",
        "offset": 0,
        "slot": "258",
        "type": "t_address"
      },
      {
        "astId": 13675,
        "contract": "src/contracts/IGovernorINNImpl.sol:IGovernorINNImpl",
        "label": "_domainName",
        "offset": 0,
        "slot": "259",
        "type": "t_string_storage"
      },
      {
        "astId": 13677,
        "contract": "src/contracts/IGovernorINNImpl.sol:IGovernorINNImpl",
        "label": "_domainVersion",
        "offset": 0,
        "slot": "260",
        "type": "t_string_storage"
      },
      {
        "astId": 13679,
        "contract": "src/contracts/IGovernorINNImpl.sol:IGovernorINNImpl",
        "label": "validatorCount",
        "offset": 0,
        "slot": "261",
        "type": "t_uint32"
      },
      {
        "astId": 13681,
        "contract": "src/contracts/IGovernorINNImpl.sol:IGovernorINNImpl",
        "label": "startupCount",
        "offset": 4,
        "slot": "261",
        "type": "t_uint32"
      },
      {
        "astId": 13683,
        "contract": "src/contracts/IGovernorINNImpl.sol:IGovernorINNImpl",
        "label": "isMigrationEnabled",
        "offset": 8,
        "slot": "261",
        "type": "t_bool"
      },
      {
        "astId": 13685,
        "contract": "src/contracts/IGovernorINNImpl.sol:IGovernorINNImpl",
        "label": "isAdminFirstVote",
        "offset": 9,
        "slot": "261",
        "type": "t_bool"
      }
    ],
    "types": {
      "t_address": {
        "encoding": "inplace",
        "label": "address",
        "numberOfBytes": "20"
      },
      "t_array(t_bytes32)dyn_storage": {
        "base": "t_bytes32",
        "encoding": "dynamic_array",
        "label": "bytes32[]",
        "numberOfBytes": "32"
      },
      "t_array(t_uint256)49_storage": {
        "base": "t_uint256",
        "encoding": "inplace",
        "label": "uint256[49]",
        "numberOfBytes": "1568"
      },
      "t_array(t_uint256)50_storage": {
        "base": "t_uint256",
        "encoding": "inplace",
        "label": "uint256[50]",
        "numberOfBytes": "1600"
      },
      "t_bool": {
        "encoding": "inplace",
        "label": "bool",
        "numberOfBytes": "1"
      },
      "t_bytes32": {
        "encoding": "inplace",
        "label": "bytes32",
        "numberOfBytes": "32"
      },
      "t_bytes_storage": {
        "encoding": "bytes",
        "label": "bytes",
        "numberOfBytes": "32"
      },
      "t_enum(ActionType)13252": {
        "encoding": "inplace",
        "label": "enum IGovernorINN.ActionType",
        "numberOfBytes": "1"
      },
      "t_enum(EntityKind)13596": {
        "encoding": "inplace",
        "label": "enum IGovernorINNImpl.EntityKind",
        "numberOfBytes": "1"
      },
      "t_enum(ProposalType)13246": {
        "encoding": "inplace",
        "label": "enum IGovernorINN.ProposalType",
        "numberOfBytes": "1"
      },
      "t_mapping(t_address,t_bool)": {
        "encoding": "mapping",
        "key": "t_address",
        "label": "mapping(address => bool)",
        "numberOfBytes": "32",
        "value": "t_bool"
      },
      "t_mapping(t_address,t_struct(EntityInfo)13604_storage)": {
        "encoding": "mapping",
        "key": "t_address",
        "label": "mapping(address => struct IGovernorINNImpl.EntityInfo)",
        "numberOfBytes": "32",
        "value": "t_struct(EntityInfo)13604_storage"
      },
      "t_mapping(t_bytes32,t_struct(ProposalCore)13582_storage)": {
        "encoding": "mapping",
        "key": "t_bytes32",
        "label": "mapping(bytes32 => struct IGovernorINNImpl.ProposalCore)",
        "numberOfBytes": "32",
        "value": "t_struct(ProposalCore)13582_storage"
      },
      "t_mapping(t_bytes32,t_struct(ProposalVote)13592_storage)": {
        "encoding": "mapping",
        "key": "t_bytes32",
        "label": "mapping(bytes32 => struct IGovernorINNImpl.ProposalVote)",
        "numberOfBytes": "32",
        "value": "t_struct(ProposalVote)13592_storage"
      },
      "t_mapping(t_bytes32,t_struct(RoleData)34_storage)": {
        "encoding": "mapping",
        "key": "t_bytes32",
        "label": "mapping(bytes32 => struct AccessControlUpgradeable.RoleData)",
        "numberOfBytes": "32",
        "value": "t_struct(RoleData)34_storage"
      },
      "t_mapping(t_bytes32,t_uint256)": {
        "encoding": "mapping",
        "key": "t_bytes32",
        "label": "mapping(bytes32 => uint256)",
        "numberOfBytes": "32",
        "value": "t_uint256"
      },
      "t_string_storage": {
        "encoding": "bytes",
        "label": "string",
        "numberOfBytes": "32"
      },
      "t_struct(AddressSet)3495_storage": {
        "encoding": "inplace",
        "label": "struct EnumerableSetUpgradeable.AddressSet",
        "members": [
          {
            "astId": 3494,
            "contract": "src/contracts/IGovernorINNImpl.sol:IGovernorINNImpl",
            "label": "_inner",
            "offset": 0,
            "slot": "0",
            "type": "t_struct(Set)3194_storage"
          }
        ],
        "numberOfBytes": "64"
      },
      "t_struct(EntityInfo)13604_storage": {
        "encoding": "inplace",
        "label": "struct IGovernorINNImpl.EntityInfo",
        "members": [
          {
            "astId": 13598,
            "contract": "src/contracts/IGovernorINNImpl.sol:IGovernorINNImpl",
            "label": "name",
            "offset": 0,
            "slot": "0",
            "type": "t_string_storage"
          },
          {
            "astId": 13601,
            "contract": "src/contracts/IGovernorINNImpl.sol:IGovernorINNImpl",
            "label": "kind",
            "offset": 0,
            "slot": "1",
            "type": "t_enum(EntityKind)13596"
          },
          {
            "astId": 13603,
            "contract": "src/contracts/IGovernorINNImpl.sol:IGovernorINNImpl",
            "label": "isEnabled",
            "offset": 1,
            "slot": "1",
            "type": "t_bool"
          }
        ],
        "numberOfBytes": "64"
      },
      "t_struct(ProposalCore)13582_storage": {
        "encoding": "inplace",
        "label": "struct IGovernorINNImpl.ProposalCore",
        "members": [
          {
            "astId": 13557,
            "contract": "src/contracts/IGovernorINNImpl.sol:IGovernorINNImpl",
            "label": "proposalID",
            "offset": 0,
            "slot": "0",
            "type": "t_bytes32"
          },
          {
            "astId": 13559,
            "contract": "src/contracts/IGovernorINNImpl.sol:IGovernorINNImpl",
            "label": "offchainID",
            "offset": 0,
            "slot": "1",
            "type": "t_bytes32"
          },
          {
            "astId": 13561,
            "contract": "src/contracts/IGovernorINNImpl.sol:IGovernorINNImpl",
            "label": "descriptionHash",
            "offset": 0,
            "slot": "2",
            "type": "t_bytes32"
          },
          {
            "astId": 13563,
            "contract": "src/contracts/IGovernorINNImpl.sol:IGovernorINNImpl",
            "label": "proposer",
            "offset": 0,
            "slot": "3",
            "type": "t_address"
          },
          {
            "astId": 13566,
            "contract": "src/contracts/IGovernorINNImpl.sol:IGovernorINNImpl",
            "label": "votingStartAt",
            "offset": 0,
            "slot": "4",
            "type": "t_struct(Timestamp)1633_storage"
          },
          {
            "astId": 13569,
            "contract": "src/contracts/IGovernorINNImpl.sol:IGovernorINNImpl",
            "label": "votingEndAt",
            "offset": 0,
            "slot": "5",
            "type": "t_struct(Timestamp)1633_storage"
          },
          {
            "astId": 13572,
            "contract": "src/contracts/IGovernorINNImpl.sol:IGovernorINNImpl",
            "label": "proposalType",
            "offset": 0,
            "slot": "6",
            "type": "t_enum(ProposalType)13246"
          },
          {
            "astId": 13575,
            "contract": "src/contracts/IGovernorINNImpl.sol:IGovernorINNImpl",
            "label": "actionType",
            "offset": 1,
            "slot": "6",
            "type": "t_enum(ActionType)13252"
          },
          {
            "astId": 13577,
            "contract": "src/contracts/IGovernorINNImpl.sol:IGovernorINNImpl",
            "label": "isExecuted",
            "offset": 2,
            "slot": "6",
            "type": "t_bool"
          },
          {
            "astId": 13579,
            "contract": "src/contracts/IGovernorINNImpl.sol:IGovernorINNImpl",
            "label": "isCanceled",
            "offset": 3,
            "slot": "6",
            "type": "t_bool"
          },
          {
            "astId": 13581,
            "contract": "src/contracts/IGovernorINNImpl.sol:IGovernorINNImpl",
            "label": "data",
            "offset": 0,
            "slot": "7",
            "type": "t_bytes_storage"
          }
        ],
        "numberOfBytes": "256"
      },
      "t_struct(ProposalVote)13592_storage": {
        "encoding": "inplace",
        "label": "struct IGovernorINNImpl.ProposalVote",
        "members": [
          {
            "astId": 13584,
            "contract": "src/contracts/IGovernorINNImpl.sol:IGovernorINNImpl",
            "label": "againstVotes",
            "offset": 0,
            "slot": "0",
            "type": "t_uint64"
          },
          {
            "astId": 13586,
            "contract": "src/contracts/IGovernorINNImpl.sol:IGovernorINNImpl",
            "label": "forVotes",
            "offset": 8,
            "slot": "0",
            "type": "t_uint64"
          },
          {
            "astId": 13588,
            "contract": "src/contracts/IGovernorINNImpl.sol:IGovernorINNImpl",
            "label": "abstainVotes",
            "offset": 16,
            "slot": "0",
            "type": "t_uint64"
          },
          {
            "astId": 13591,
            "contract": "src/contracts/IGovernorINNImpl.sol:IGovernorINNImpl",
            "label": "hasVoted",
            "offset": 0,
            "slot": "1",
            "type": "t_struct(AddressSet)3495_storage"
          }
        ],
        "numberOfBytes": "96"
      },
      "t_struct(RoleData)34_storage": {
        "encoding": "inplace",
        "label": "struct AccessControlUpgradeable.RoleData",
        "members": [
          {
            "astId": 31,
            "contract": "src/contracts/IGovernorINNImpl.sol:IGovernorINNImpl",
            "label": "members",
            "offset": 0,
            "slot": "0",
            "type": "t_mapping(t_address,t_bool)"
          },
          {
            "astId": 33,
            "contract": "src/contracts/IGovernorINNImpl.sol:IGovernorINNImpl",
            "label": "adminRole",
            "offset": 0,
            "slot": "1",
            "type": "t_bytes32"
          }
        ],
        "numberOfBytes": "64"
      },
      "t_struct(Set)3194_storage": {
        "encoding": "inplace",
        "label": "struct EnumerableSetUpgradeable.Set",
        "members": [
          {
            "astId": 3189,
            "contract": "src/contracts/IGovernorINNImpl.sol:IGovernorINNImpl",
            "label": "_values",
            "offset": 0,
            "slot": "0",
            "type": "t_array(t_bytes32)dyn_storage"
          },
          {
            "astId": 3193,
            "contract": "src/contracts/IGovernorINNImpl.sol:IGovernorINNImpl",
            "label": "_indexes",
            "offset": 0,
            "slot": "1",
            "type": "t_mapping(t_bytes32,t_uint256)"
          }
        ],
        "numberOfBytes": "64"
      },
      "t_struct(Timestamp)1633_storage": {
        "encoding": "inplace",
        "label": "struct TimersUpgradeable.Timestamp",
        "members": [
          {
            "astId": 1632,
            "contract": "src/contracts/IGovernorINNImpl.sol:IGovernorINNImpl",
            "label": "_deadline",
            "offset": 0,
            "slot": "0",
            "type": "t_uint64"
          }
        ],
        "numberOfBytes": "32"
      },
      "t_uint256": {
        "encoding": "inplace",
        "label": "uint256",
        "numberOfBytes": "32"
      },
      "t_uint32": {
        "encoding": "inplace",
        "label": "uint32",
        "numberOfBytes": "4"
      },
      "t_uint64": {
        "encoding": "inplace",
        "label": "uint64",
        "numberOfBytes": "8"
      },
      "t_uint8": {
        "encoding": "inplace",
        "label": "uint8",
        "numberOfBytes": "1"
      }
    }
  },
  "userdoc": {
    "kind": "user",
    "methods": {},
    "version": 1
  }
}