{
  "contractName": "IGovernorINNImpl",
  "sourceName": "src/contracts/IGovernorINNImpl.sol",
  "abi": [
    {
      "inputs": [
        {
          "internalType": "uint8",
          "name": "",
          "type": "uint8"
        }
      ],
      "name": "ECDARecoverError",
      "type": "error"
    },
    {
      "anonymous": false,
      "inputs": [
        {
          "indexed": false,
          "internalType": "address",
          "name": "previousAdmin",
          "type": "address"
        },
        {
          "indexed": false,
          "internalType": "address",
          "name": "newAdmin",
          "type": "address"
        }
      ],
      "name": "AdminChanged",
      "type": "event"
    },
    {
      "anonymous": false,
      "inputs": [
        {
          "indexed": true,
          "internalType": "address",
          "name": "beacon",
          "type": "address"
        }
      ],
      "name": "BeaconUpgraded",
      "type": "event"
    },
    {
      "anonymous": false,
      "inputs": [
        {
          "indexed": true,
          "internalType": "bytes32",
          "name": "proposalId",
          "type": "bytes32"
        },
        {
          "indexed": true,
          "internalType": "address",
          "name": "proposer",
          "type": "address"
        },
        {
          "indexed": true,
          "internalType": "address",
          "name": "validatorEOA",
          "type": "address"
        },
        {
          "indexed": false,
          "internalType": "uint256",
          "name": "tokenOffer",
          "type": "uint256"
        },
        {
          "indexed": false,
          "internalType": "bytes32",
          "name": "offchainID",
          "type": "bytes32"
        },
        {
          "indexed": false,
          "internalType": "bytes32",
          "name": "description",
          "type": "bytes32"
        },
        {
          "indexed": false,
          "internalType": "string",
          "name": "startupName",
          "type": "string"
        },
        {
          "indexed": false,
          "internalType": "uint16",
          "name": "sharedStake",
          "type": "uint16"
        }
      ],
      "name": "ExitInvestmentProposalCreated",
      "type": "event"
    },
    {
      "anonymous": false,
      "inputs": [
        {
          "indexed": true,
          "internalType": "bytes32",
          "name": "proposalId",
          "type": "bytes32"
        },
        {
          "indexed": true,
          "internalType": "address",
          "name": "proposer",
          "type": "address"
        },
        {
          "indexed": true,
          "internalType": "address",
          "name": "account",
          "type": "address"
        },
        {
          "indexed": false,
          "internalType": "bytes32",
          "name": "offchainID",
          "type": "bytes32"
        },
        {
          "indexed": false,
          "internalType": "bytes32",
          "name": "description",
          "type": "bytes32"
        }
      ],
      "name": "FreezeInvestmentProposalCreated",
      "type": "event"
    },
    {
      "anonymous": false,
      "inputs": [
        {
          "indexed": false,
          "internalType": "uint8",
          "name": "version",
          "type": "uint8"
        }
      ],
      "name": "Initialized",
      "type": "event"
    },
    {
      "anonymous": false,
      "inputs": [
        {
          "indexed": true,
          "internalType": "bytes32",
          "name": "proposalID",
          "type": "bytes32"
        },
        {
          "indexed": true,
          "internalType": "address",
          "name": "proposer",
          "type": "address"
        },
        {
          "indexed": true,
          "internalType": "address",
          "name": "startupEOA",
          "type": "address"
        },
        {
          "indexed": false,
          "internalType": "uint256",
          "name": "tokenOffer",
          "type": "uint256"
        },
        {
          "indexed": false,
          "internalType": "bytes32",
          "name": "offchainID",
          "type": "bytes32"
        },
        {
          "indexed": false,
          "internalType": "bytes32",
          "name": "description",
          "type": "bytes32"
        },
        {
          "indexed": false,
          "internalType": "string",
          "name": "startupName",
          "type": "string"
        },
        {
          "indexed": false,
          "internalType": "uint16",
          "name": "sharedStake",
          "type": "uint16"
        }
      ],
      "name": "NewInvestmentProposalCreated",
      "type": "event"
    },
    {
      "anonymous": false,
      "inputs": [
        {
          "indexed": true,
          "internalType": "bytes32",
          "name": "proposalID",
          "type": "bytes32"
        },
        {
          "indexed": true,
          "internalType": "address",
          "name": "proposer",
          "type": "address"
        },
        {
          "indexed": true,
          "internalType": "address",
          "name": "validatorEOA",
          "type": "address"
        },
        {
          "indexed": false,
          "internalType": "bytes32",
          "name": "offchainID",
          "type": "bytes32"
        },
        {
          "indexed": false,
          "internalType": "bytes32",
          "name": "description",
          "type": "bytes32"
        },
        {
          "indexed": false,
          "internalType": "string",
          "name": "validatorName",
          "type": "string"
        }
      ],
      "name": "NewValidatorProposalCreated",
      "type": "event"
    },
    {
      "anonymous": false,
      "inputs": [
        {
          "indexed": true,
          "internalType": "bytes32",
          "name": "proposalId",
          "type": "bytes32"
        },
        {
          "indexed": false,
          "internalType": "string",
          "name": "reason",
          "type": "string"
        }
      ],
      "name": "ProposalCanceled",
      "type": "event"
    },
    {
      "anonymous": false,
      "inputs": [
        {
          "indexed": true,
          "internalType": "bytes32",
          "name": "proposalId",
          "type": "bytes32"
        }
      ],
      "name": "ProposalExecuted",
      "type": "event"
    },
    {
      "anonymous": false,
      "inputs": [
        {
          "indexed": true,
          "internalType": "bytes32",
          "name": "role",
          "type": "bytes32"
        },
        {
          "indexed": true,
          "internalType": "bytes32",
          "name": "previousAdminRole",
          "type": "bytes32"
        },
        {
          "indexed": true,
          "internalType": "bytes32",
          "name": "newAdminRole",
          "type": "bytes32"
        }
      ],
      "name": "RoleAdminChanged",
      "type": "event"
    },
    {
      "anonymous": false,
      "inputs": [
        {
          "indexed": true,
          "internalType": "bytes32",
          "name": "role",
          "type": "bytes32"
        },
        {
          "indexed": true,
          "internalType": "address",
          "name": "account",
          "type": "address"
        },
        {
          "indexed": true,
          "internalType": "address",
          "name": "sender",
          "type": "address"
        }
      ],
      "name": "RoleGranted",
      "type": "event"
    },
    {
      "anonymous": false,
      "inputs": [
        {
          "indexed": true,
          "internalType": "bytes32",
          "name": "role",
          "type": "bytes32"
        },
        {
          "indexed": true,
          "internalType": "address",
          "name": "account",
          "type": "address"
        },
        {
          "indexed": true,
          "internalType": "address",
          "name": "sender",
          "type": "address"
        }
      ],
      "name": "RoleRevoked",
      "type": "event"
    },
    {
      "anonymous": false,
      "inputs": [
        {
          "indexed": true,
          "internalType": "bytes32",
          "name": "proposalID",
          "type": "bytes32"
        },
        {
          "indexed": true,
          "internalType": "address",
          "name": "proposer",
          "type": "address"
        },
        {
          "indexed": true,
          "internalType": "address",
          "name": "account",
          "type": "address"
        },
        {
          "indexed": false,
          "internalType": "bytes32",
          "name": "offchainID",
          "type": "bytes32"
        },
        {
          "indexed": false,
          "internalType": "bytes32",
          "name": "description",
          "type": "bytes32"
        }
      ],
      "name": "UnfreezeInvestmentProposalCreated",
      "type": "event"
    },
    {
      "anonymous": false,
      "inputs": [
        {
          "indexed": true,
          "internalType": "address",
          "name": "implementation",
          "type": "address"
        }
      ],
      "name": "Upgraded",
      "type": "event"
    },
    {
      "anonymous": false,
      "inputs": [
        {
          "indexed": true,
          "internalType": "address",
          "name": "voter",
          "type": "address"
        },
        {
          "indexed": true,
          "internalType": "bytes32",
          "name": "proposalId",
          "type": "bytes32"
        },
        {
          "indexed": false,
          "internalType": "enum IGovernorINN.VoteType",
          "name": "vote",
          "type": "uint8"
        },
        {
          "indexed": false,
          "internalType": "string",
          "name": "reason",
          "type": "string"
        }
      ],
      "name": "VoteCast",
      "type": "event"
    },
    {
      "inputs": [],
      "name": "ADMIN_ROLE",
      "outputs": [
        {
          "internalType": "bytes32",
          "name": "",
          "type": "bytes32"
        }
      ],
      "stateMutability": "view",
      "type": "function"
    },
    {
      "inputs": [],
      "name": "CONSENSUS_ROLE",
      "outputs": [
        {
          "internalType": "bytes32",
          "name": "",
          "type": "bytes32"
        }
      ],
      "stateMutability": "view",
      "type": "function"
    },
    {
      "inputs": [],
      "name": "DEFAULT_ADMIN_ROLE",
      "outputs": [
        {
          "internalType": "bytes32",
          "name": "",
          "type": "bytes32"
        }
      ],
      "stateMutability": "view",
      "type": "function"
    },
    {
      "inputs": [],
      "name": "FREEZE_ACCOUNT_SIGNATURE",
      "outputs": [
        {
          "internalType": "bytes4",
          "name": "",
          "type": "bytes4"
        }
      ],
      "stateMutability": "view",
      "type": "function"
    },
    {
      "inputs": [],
      "name": "TRANSFER_SIGNATURE",
      "outputs": [
        {
          "internalType": "bytes4",
          "name": "",
          "type": "bytes4"
        }
      ],
      "stateMutability": "view",
      "type": "function"
    },
    {
      "inputs": [],
      "name": "UNFREEZE_ACCOUNT_SIGNATURE",
      "outputs": [
        {
          "internalType": "bytes4",
          "name": "",
          "type": "bytes4"
        }
      ],
      "stateMutability": "view",
      "type": "function"
    },
    {
      "inputs": [
        {
          "internalType": "bytes32",
          "name": "proposalId",
          "type": "bytes32"
        },
        {
          "internalType": "string",
          "name": "reason",
          "type": "string"
        }
      ],
      "name": "cancel",
      "outputs": [
        {
          "internalType": "bool",
          "name": "",
          "type": "bool"
        }
      ],
      "stateMutability": "nonpayable",
      "type": "function"
    },
    {
      "inputs": [
        {
          "internalType": "string",
          "name": "reason",
          "type": "string"
        },
        {
          "internalType": "bytes32",
          "name": "proposalId",
          "type": "bytes32"
        },
        {
          "internalType": "enum IGovernorINN.VoteType",
          "name": "vote",
          "type": "uint8"
        }
      ],
      "name": "castVote",
      "outputs": [
        {
          "internalType": "bool",
          "name": "",
          "type": "bool"
        }
      ],
      "stateMutability": "nonpayable",
      "type": "function"
    },
    {
      "inputs": [
        {
          "internalType": "bytes32",
          "name": "proposalId",
          "type": "bytes32"
        }
      ],
      "name": "castVoteAdmin",
      "outputs": [
        {
          "internalType": "bool",
          "name": "",
          "type": "bool"
        }
      ],
      "stateMutability": "nonpayable",
      "type": "function"
    },
    {
      "inputs": [],
      "name": "commissionWallet",
      "outputs": [
        {
          "internalType": "address",
          "name": "",
          "type": "address"
        }
      ],
      "stateMutability": "view",
      "type": "function"
    },
    {
      "inputs": [
        {
          "internalType": "address",
          "name": "validator",
          "type": "address"
        }
      ],
      "name": "disableValidator",
      "outputs": [],
      "stateMutability": "nonpayable",
      "type": "function"
    },
    {
      "inputs": [
        {
          "internalType": "bytes32",
          "name": "proposalId",
          "type": "bytes32"
        }
      ],
      "name": "execute",
      "outputs": [
        {
          "internalType": "bool",
          "name": "",
          "type": "bool"
        }
      ],
      "stateMutability": "payable",
      "type": "function"
    },
    {
      "inputs": [
        {
          "internalType": "bytes32",
          "name": "role",
          "type": "bytes32"
        }
      ],
      "name": "getRoleAdmin",
      "outputs": [
        {
          "internalType": "bytes32",
          "name": "",
          "type": "bytes32"
        }
      ],
      "stateMutability": "view",
      "type": "function"
    },
    {
      "inputs": [
        {
          "internalType": "bytes32",
          "name": "role",
          "type": "bytes32"
        },
        {
          "internalType": "address",
          "name": "account",
          "type": "address"
        }
      ],
      "name": "grantRole",
      "outputs": [],
      "stateMutability": "nonpayable",
      "type": "function"
    },
    {
      "inputs": [
        {
          "internalType": "bytes32",
          "name": "role",
          "type": "bytes32"
        },
        {
          "internalType": "address",
          "name": "account",
          "type": "address"
        }
      ],
      "name": "hasRole",
      "outputs": [
        {
          "internalType": "bool",
          "name": "",
          "type": "bool"
        }
      ],
      "stateMutability": "view",
      "type": "function"
    },
    {
      "inputs": [
        {
          "internalType": "bytes32",
          "name": "proposalId",
          "type": "bytes32"
        },
        {
          "internalType": "address",
          "name": "account",
          "type": "address"
        }
      ],
      "name": "hasVoted",
      "outputs": [
        {
          "internalType": "bool",
          "name": "",
          "type": "bool"
        }
      ],
      "stateMutability": "view",
      "type": "function"
    },
    {
      "inputs": [
        {
          "internalType": "bytes32",
          "name": "offchainID",
          "type": "bytes32"
        },
        {
          "internalType": "bytes32",
          "name": "descriptionHash",
          "type": "bytes32"
        },
        {
          "internalType": "address",
          "name": "proposer",
          "type": "address"
        },
        {
          "internalType": "enum IGovernorINN.ProposalType",
          "name": "proposalType",
          "type": "uint8"
        },
        {
          "internalType": "enum IGovernorINN.ActionType",
          "name": "actionType",
          "type": "uint8"
        },
        {
          "internalType": "bytes",
          "name": "data",
          "type": "bytes"
        }
      ],
      "name": "hashProposal",
      "outputs": [
        {
          "internalType": "bytes32",
          "name": "",
          "type": "bytes32"
        }
      ],
      "stateMutability": "pure",
      "type": "function"
    },
    {
      "inputs": [
        {
          "internalType": "address",
          "name": "innTokenERC20",
          "type": "address"
        },
        {
          "internalType": "address",
          "name": "reservedEOA",
          "type": "address"
        },
        {
          "internalType": "address",
          "name": "commissionEOA",
          "type": "address"
        },
        {
          "internalType": "string",
          "name": "domainName",
          "type": "string"
        },
        {
          "internalType": "string",
          "name": "domainVersion",
          "type": "string"
        }
      ],
      "name": "initialize",
      "outputs": [],
      "stateMutability": "nonpayable",
      "type": "function"
    },
    {
      "inputs": [],
      "name": "innTokenAddress",
      "outputs": [
        {
          "internalType": "address",
          "name": "",
          "type": "address"
        }
      ],
      "stateMutability": "view",
      "type": "function"
    },
    {
      "inputs": [],
      "name": "isAdminFirstVote",
      "outputs": [
        {
          "internalType": "bool",
          "name": "",
          "type": "bool"
        }
      ],
      "stateMutability": "view",
      "type": "function"
    },
    {
      "inputs": [],
      "name": "isMigrationEnabled",
      "outputs": [
        {
          "internalType": "bool",
          "name": "",
          "type": "bool"
        }
      ],
      "stateMutability": "view",
      "type": "function"
    },
    {
      "inputs": [
        {
          "internalType": "address",
          "name": "addr",
          "type": "address"
        }
      ],
      "name": "isStartup",
      "outputs": [
        {
          "internalType": "bool",
          "name": "",
          "type": "bool"
        }
      ],
      "stateMutability": "view",
      "type": "function"
    },
    {
      "inputs": [
        {
          "internalType": "address",
          "name": "addr",
          "type": "address"
        }
      ],
      "name": "isValidator",
      "outputs": [
        {
          "internalType": "bool",
          "name": "",
          "type": "bool"
        }
      ],
      "stateMutability": "view",
      "type": "function"
    },
    {
      "inputs": [],
      "name": "name",
      "outputs": [
        {
          "internalType": "string",
          "name": "",
          "type": "string"
        }
      ],
      "stateMutability": "view",
      "type": "function"
    },
    {
      "inputs": [
        {
          "components": [
            {
              "internalType": "bytes32",
              "name": "offchainID",
              "type": "bytes32"
            },
            {
              "internalType": "enum IGovernorINN.ProposalType",
              "name": "proposalType",
              "type": "uint8"
            },
            {
              "internalType": "enum IGovernorINN.ActionType",
              "name": "actionType",
              "type": "uint8"
            },
            {
              "internalType": "string",
              "name": "description",
              "type": "string"
            },
            {
              "internalType": "bytes",
              "name": "data",
              "type": "bytes"
            }
          ],
          "internalType": "struct IGovernorINN.ProposalRequest",
          "name": "request",
          "type": "tuple"
        },
        {
          "internalType": "bytes",
          "name": "signature",
          "type": "bytes"
        }
      ],
      "name": "propose",
      "outputs": [
        {
          "internalType": "bytes32",
          "name": "",
          "type": "bytes32"
        }
      ],
      "stateMutability": "nonpayable",
      "type": "function"
    },
    {
      "inputs": [],
      "name": "proxiableUUID",
      "outputs": [
        {
          "internalType": "bytes32",
          "name": "",
          "type": "bytes32"
        }
      ],
      "stateMutability": "view",
      "type": "function"
    },
    {
      "inputs": [
        {
          "internalType": "bytes32",
          "name": "role",
          "type": "bytes32"
        },
        {
          "internalType": "address",
          "name": "account",
          "type": "address"
        }
      ],
      "name": "renounceRole",
      "outputs": [],
      "stateMutability": "nonpayable",
      "type": "function"
    },
    {
      "inputs": [],
      "name": "reservedWallet",
      "outputs": [
        {
          "internalType": "address",
          "name": "",
          "type": "address"
        }
      ],
      "stateMutability": "view",
      "type": "function"
    },
    {
      "inputs": [
        {
          "internalType": "bytes32",
          "name": "role",
          "type": "bytes32"
        },
        {
          "internalType": "address",
          "name": "account",
          "type": "address"
        }
      ],
      "name": "revokeRole",
      "outputs": [],
      "stateMutability": "nonpayable",
      "type": "function"
    },
    {
      "inputs": [
        {
          "internalType": "bool",
          "name": "migration",
          "type": "bool"
        }
      ],
      "name": "setMigration",
      "outputs": [],
      "stateMutability": "nonpayable",
      "type": "function"
    },
    {
      "inputs": [
        {
          "internalType": "uint256",
          "name": "delay",
          "type": "uint256"
        }
      ],
      "name": "setVotingDelay",
      "outputs": [],
      "stateMutability": "nonpayable",
      "type": "function"
    },
    {
      "inputs": [
        {
          "internalType": "uint256",
          "name": "period",
          "type": "uint256"
        }
      ],
      "name": "setVotingPeriod",
      "outputs": [],
      "stateMutability": "nonpayable",
      "type": "function"
    },
    {
      "inputs": [],
      "name": "startupCount",
      "outputs": [
        {
          "internalType": "uint32",
          "name": "",
          "type": "uint32"
        }
      ],
      "stateMutability": "view",
      "type": "function"
    },
    {
      "inputs": [
        {
          "internalType": "bytes32",
          "name": "proposalId",
          "type": "bytes32"
        }
      ],
      "name": "state",
      "outputs": [
        {
          "internalType": "enum IGovernorINN.ProposalState",
          "name": "",
          "type": "uint8"
        }
      ],
      "stateMutability": "view",
      "type": "function"
    },
    {
      "inputs": [
        {
          "internalType": "bytes4",
          "name": "interfaceId",
          "type": "bytes4"
        }
      ],
      "name": "supportsInterface",
      "outputs": [
        {
          "internalType": "bool",
          "name": "",
          "type": "bool"
        }
      ],
      "stateMutability": "view",
      "type": "function"
    },
    {
      "inputs": [
        {
          "internalType": "address",
          "name": "newImplementation",
          "type": "address"
        }
      ],
      "name": "upgradeTo",
      "outputs": [],
      "stateMutability": "nonpayable",
      "type": "function"
    },
    {
      "inputs": [
        {
          "internalType": "address",
          "name": "newImplementation",
          "type": "address"
        },
        {
          "internalType": "bytes",
          "name": "data",
          "type": "bytes"
        }
      ],
      "name": "upgradeToAndCall",
      "outputs": [],
      "stateMutability": "payable",
      "type": "function"
    },
    {
      "inputs": [],
      "name": "validatorCount",
      "outputs": [
        {
          "internalType": "uint32",
          "name": "",
          "type": "uint32"
        }
      ],
      "stateMutability": "view",
      "type": "function"
    },
    {
      "inputs": [],
      "name": "version",
      "outputs": [
        {
          "internalType": "string",
          "name": "",
          "type": "string"
        }
      ],
      "stateMutability": "view",
      "type": "function"
    },
    {
      "inputs": [],
      "name": "votingDelay",
      "outputs": [
        {
          "internalType": "uint256",
          "name": "",
          "type": "uint256"
        }
      ],
      "stateMutability": "view",
      "type": "function"
    },
    {
      "inputs": [],
      "name": "votingPeriod",
      "outputs": [
        {
          "internalType": "uint256",
          "name": "",
          "type": "uint256"
        }
      ],
      "stateMutability": "view",
      "type": "function"
    }
  ],
  "bytecode": "0x60a06040523073ffffffffffffffffffffffffffffffffffffffff1660809073ffffffffffffffffffffffffffffffffffffffff168152503480156200004457600080fd5b50608051618dbe6200007d60003960008181610f950152818161102301528181611137015281816111c501526112750152618dbe6000f3fe6080604052600436106102465760003560e01c806375b238fc11610139578063be5967ea116100b6578063e751f2711161007a578063e751f271146108c1578063ea0217cf146108f1578063f8c662ff1461091a578063fa2dabad14610945578063facd743b14610970578063ff666653146109ad57610246565b8063be5967ea146107da578063c0e6d5d614610817578063c22ab4e014610842578063d547741f1461086d578063e0310e521461089657610246565b8063a217fddf116100fd578063a217fddf146106cd578063a5d79624146106f8578063aadc3b7214610735578063afdf671014610772578063b7d6fe241461079d57610246565b806375b238fc146105e85780637f1e250c1461061357806383b435891461063c57806391d148541461066557806397c0262a146106a257610246565b806336568abe116101c757806352d1902d1161018b57806352d1902d146104ef57806354fd4d501461051a5780635ae766f31461054557806361d585da1461058257806370b0f660146105bf57610246565b806336568abe1461042b5780633659cfe6146104545780633932abb11461047d57806341863ed6146104a85780634f1ef286146104d357610246565b8063248a9ca31161020e578063248a9ca31461033257806325ce75861461036f5780632f2ff15d1461039a57806330d9b773146103c357806333f3533b1461040057610246565b806301ffc9a71461024b57806302a251a31461028857806306fdde03146102b35780630f43a677146102de5780631fe9768414610309575b600080fd5b34801561025757600080fd5b50610272600480360381019061026d9190615d3e565b6109ea565b60405161027f9190615d86565b60405180910390f35b34801561029457600080fd5b5061029d610a64565b6040516102aa9190615dba565b60405180910390f35b3480156102bf57600080fd5b506102c8610a6a565b6040516102d59190615e6e565b60405180910390f35b3480156102ea57600080fd5b506102f3610afd565b6040516103009190615eaf565b60405180910390f35b34801561031557600080fd5b50610330600480360381019061032b9190615f28565b610b14565b005b34801561033e57600080fd5b5061035960048036038101906103549190615f8b565b610cf4565b6040516103669190615fc7565b60405180910390f35b34801561037b57600080fd5b50610384610d14565b6040516103919190615eaf565b60405180910390f35b3480156103a657600080fd5b506103c160048036038101906103bc9190615fe2565b610d2b565b005b3480156103cf57600080fd5b506103ea60048036038101906103e59190615f8b565b610d4c565b6040516103f79190615d86565b60405180910390f35b34801561040c57600080fd5b50610415610efc565b6040516104229190615d86565b60405180910390f35b34801561043757600080fd5b50610452600480360381019061044d9190615fe2565b610f10565b005b34801561046057600080fd5b5061047b60048036038101906104769190615f28565b610f93565b005b34801561048957600080fd5b5061049261111b565b60405161049f9190615dba565b60405180910390f35b3480156104b457600080fd5b506104bd611121565b6040516104ca9190615d86565b60405180910390f35b6104ed60048036038101906104e89190616157565b611135565b005b3480156104fb57600080fd5b50610504611271565b6040516105119190615fc7565b60405180910390f35b34801561052657600080fd5b5061052f61132a565b60405161053c9190615e6e565b60405180910390f35b34801561055157600080fd5b5061056c60048036038101906105679190615f28565b6113bd565b6040516105799190615d86565b60405180910390f35b34801561058e57600080fd5b506105a960048036038101906105a49190615f8b565b611494565b6040516105b6919061622a565b60405180910390f35b3480156105cb57600080fd5b506105e660048036038101906105e19190616271565b611681565b005b3480156105f457600080fd5b506105fd6116b6565b60405161060a9190615fc7565b60405180910390f35b34801561061f57600080fd5b5061063a600480360381019061063591906162ca565b6116da565b005b34801561064857600080fd5b50610663600480360381019061065e9190616357565b611723565b005b34801561067157600080fd5b5061068c60048036038101906106879190615fe2565b61198d565b6040516106999190615d86565b60405180910390f35b3480156106ae57600080fd5b506106b76119f8565b6040516106c49190616422565b60405180910390f35b3480156106d957600080fd5b506106e2611a1f565b6040516106ef9190615fc7565b60405180910390f35b34801561070457600080fd5b5061071f600480360381019061071a9190616462565b611a26565b60405161072c9190615d86565b60405180910390f35b34801561074157600080fd5b5061075c60048036038101906107579190615fe2565b611bac565b6040516107699190615d86565b60405180910390f35b34801561077e57600080fd5b50610787611bde565b60405161079491906164e5565b60405180910390f35b3480156107a957600080fd5b506107c460048036038101906107bf91906165a1565b611c02565b6040516107d19190615d86565b60405180910390f35b3480156107e657600080fd5b5061080160048036038101906107fc9190616647565b611e26565b60405161080e9190615fc7565b60405180910390f35b34801561082357600080fd5b5061082c611e65565b60405161083991906164e5565b60405180910390f35b34801561084e57600080fd5b50610857611e89565b6040516108649190616422565b60405180910390f35b34801561087957600080fd5b50610894600480360381019061088f9190615fe2565b611eb0565b005b3480156108a257600080fd5b506108ab611ed1565b6040516108b891906164e5565b60405180910390f35b6108db60048036038101906108d69190615f8b565b611ef5565b6040516108e89190615d86565b60405180910390f35b3480156108fd57600080fd5b5061091860048036038101906109139190616271565b61201a565b005b34801561092657600080fd5b5061092f61204f565b60405161093c9190616422565b60405180910390f35b34801561095157600080fd5b5061095a612076565b6040516109679190615fc7565b60405180910390f35b34801561097c57600080fd5b5061099760048036038101906109929190615f28565b61209a565b6040516109a49190615d86565b60405180910390f35b3480156109b957600080fd5b506109d460048036038101906109cf91906167be565b612172565b6040516109e19190615fc7565b60405180910390f35b60007f7965db0b000000000000000000000000000000000000000000000000000000007bffffffffffffffffffffffffffffffffffffffffffffffffffffffff1916827bffffffffffffffffffffffffffffffffffffffffffffffffffffffff19161480610a5d5750610a5c826128ac565b5b9050919050565b60ff5481565b60606101038054610a7a90616865565b80601f0160208091040260200160405190810160405280929190818152602001828054610aa690616865565b8015610af35780601f10610ac857610100808354040283529160200191610af3565b820191906000526020600020905b815481529060010190602001808311610ad657829003601f168201915b5050505050905090565b61010560009054906101000a900463ffffffff1681565b7fa49807205ce4d355092ef5a8a18f56e8913cf4a201fbe287825b095693c21775610b3e81612916565b60016002811115610b5257610b516161b3565b5b60fb60008473ffffffffffffffffffffffffffffffffffffffff1673ffffffffffffffffffffffffffffffffffffffff16815260200190815260200160002060010160009054906101000a900460ff166002811115610bb457610bb36161b3565b5b148015610c1557506000151560fb60008473ffffffffffffffffffffffffffffffffffffffff1673ffffffffffffffffffffffffffffffffffffffff16815260200190815260200160002060010160019054906101000a900460ff16151514155b610c54576040517f08c379a0000000000000000000000000000000000000000000000000000000008152600401610c4b90616908565b60405180910390fd5b600060fb60008473ffffffffffffffffffffffffffffffffffffffff1673ffffffffffffffffffffffffffffffffffffffff16815260200190815260200160002060010160016101000a81548160ff021916908315150217905550600161010560008282829054906101000a900463ffffffff16610cd29190616957565b92506101000a81548163ffffffff021916908363ffffffff1602179055505050565b600060c96000838152602001908152602001600020600101549050919050565b61010560049054906101000a900463ffffffff1681565b610d3482610cf4565b610d3d81612916565b610d47838361292a565b505050565b60007fa49807205ce4d355092ef5a8a18f56e8913cf4a201fbe287825b095693c21775610d7881612916565b6001151561010560099054906101000a900460ff16151514610dcf576040517f08c379a0000000000000000000000000000000000000000000000000000000008152600401610dc6906169d7565b60405180910390fd5b600060fc60008581526020019081526020016000209050610e03610df1612a0b565b82600101612a1390919063ffffffff16565b5083610e0d612a0b565b73ffffffffffffffffffffffffffffffffffffffff167fbbb255028c79dea070e4449c346283da7b4b66693776c096bb820822e4d9c41a6002604051610e539190616a65565b60405180910390a3600060fd6000868152602001908152602001600020905060018160060160026101000a81548160ff021916908315150217905550600060019050610e9e82612a43565b90508015610ed457857f7b1bcf1ccf901a11589afff5504d59fd0a53780eed2a952adade0348985139e060405160405180910390a25b600061010560096101000a81548160ff02191690831515021790555080945050505050919050565b61010560089054906101000a900460ff1681565b610f18612a0b565b73ffffffffffffffffffffffffffffffffffffffff168173ffffffffffffffffffffffffffffffffffffffff1614610f85576040517f08c379a0000000000000000000000000000000000000000000000000000000008152600401610f7c90616b05565b60405180910390fd5b610f8f828261338d565b5050565b7f000000000000000000000000000000000000000000000000000000000000000073ffffffffffffffffffffffffffffffffffffffff163073ffffffffffffffffffffffffffffffffffffffff1603611021576040517f08c379a000000000000000000000000000000000000000000000000000000000815260040161101890616b97565b60405180910390fd5b7f000000000000000000000000000000000000000000000000000000000000000073ffffffffffffffffffffffffffffffffffffffff1661106061346f565b73ffffffffffffffffffffffffffffffffffffffff16146110b6576040517f08c379a00000000000000000000000000000000000000000000000000000000081526004016110ad90616c29565b60405180910390fd5b6110bf816134c6565b61111881600067ffffffffffffffff8111156110de576110dd61602c565b5b6040519080825280601f01601f1916602001820160405280156111105781602001600182028036833780820191505090505b50600061356d565b50565b60fe5481565b61010560099054906101000a900460ff1681565b7f000000000000000000000000000000000000000000000000000000000000000073ffffffffffffffffffffffffffffffffffffffff163073ffffffffffffffffffffffffffffffffffffffff16036111c3576040517f08c379a00000000000000000000000000000000000000000000000000000000081526004016111ba90616b97565b60405180910390fd5b7f000000000000000000000000000000000000000000000000000000000000000073ffffffffffffffffffffffffffffffffffffffff1661120261346f565b73ffffffffffffffffffffffffffffffffffffffff1614611258576040517f08c379a000000000000000000000000000000000000000000000000000000000815260040161124f90616c29565b60405180910390fd5b611261826134c6565b61126d8282600161356d565b5050565b60007f000000000000000000000000000000000000000000000000000000000000000073ffffffffffffffffffffffffffffffffffffffff163073ffffffffffffffffffffffffffffffffffffffff1614611301576040517f08c379a00000000000000000000000000000000000000000000000000000000081526004016112f890616cbb565b60405180910390fd5b7f360894a13ba1a3210667c828492db98dca3e2076cc3735a920a3ca505d382bbc60001b905090565b6060610104805461133a90616865565b80601f016020809104026020016040519081016040528092919081815260200182805461136690616865565b80156113b35780601f10611388576101008083540402835291602001916113b3565b820191906000526020600020905b81548152906001019060200180831161139657829003601f168201915b5050505050905090565b600060fb60008373ffffffffffffffffffffffffffffffffffffffff1673ffffffffffffffffffffffffffffffffffffffff16815260200190815260200160002060010160019054906101000a900460ff16801561148d5750600280811115611429576114286161b3565b5b60fb60008473ffffffffffffffffffffffffffffffffffffffff1673ffffffffffffffffffffffffffffffffffffffff16815260200190815260200160002060010160009054906101000a900460ff16600281111561148b5761148a6161b3565b5b145b9050919050565b60008060fd600084815260200190815260200160002090506000801b8160010154036114f5576040517f08c379a00000000000000000000000000000000000000000000000000000000081526004016114ec90616d27565b60405180910390fd5b8060060160029054906101000a900460ff161561151657600791505061167c565b8060060160039054906101000a900460ff161561153757600391505061167c565b611580816004016040518060200160405290816000820160009054906101000a900467ffffffffffffffff1667ffffffffffffffff1667ffffffffffffffff16815250506136db565b1561158f57600191505061167c565b6115d8816005016040518060200160405290816000820160009054906101000a900467ffffffffffffffff1667ffffffffffffffff1667ffffffffffffffff16815250506136db565b80156115ea57506115e8836136f5565b155b156115f957600291505061167c565b611642816005016040518060200160405290816000820160009054906101000a900467ffffffffffffffff1667ffffffffffffffff1667ffffffffffffffff1681525050613799565b806116525750611651836136f5565b5b1561167657611660836137c5565b61166b57600461166e565b60055b91505061167c565b60009150505b919050565b7fa49807205ce4d355092ef5a8a18f56e8913cf4a201fbe287825b095693c217756116ab81612916565b8160fe819055505050565b7fa49807205ce4d355092ef5a8a18f56e8913cf4a201fbe287825b095693c2177581565b7fa49807205ce4d355092ef5a8a18f56e8913cf4a201fbe287825b095693c2177561170481612916565b8161010560086101000a81548160ff0219169083151502179055505050565b600061172f600161383c565b90508015611753576001600060016101000a81548160ff0219169083151502179055505b8561010160006101000a81548173ffffffffffffffffffffffffffffffffffffffff021916908373ffffffffffffffffffffffffffffffffffffffff1602179055508661010060006101000a81548173ffffffffffffffffffffffffffffffffffffffff021916908373ffffffffffffffffffffffffffffffffffffffff160217905550600061010560006101000a81548163ffffffff021916908363ffffffff160217905550600061010560046101000a81548163ffffffff021916908363ffffffff1602179055508761010260006101000a81548173ffffffffffffffffffffffffffffffffffffffff021916908373ffffffffffffffffffffffffffffffffffffffff160217905550600160fe8190555062093a8060ff8190555084846101039190611883929190615b23565b5082826101049190611896929190615b23565b50600161010560086101000a81548160ff021916908315150217905550600161010560096101000a81548160ff0219169083151502179055506119007fa49807205ce4d355092ef5a8a18f56e8913cf4a201fbe287825b095693c217756118fb612a0b565b61292a565b61192a7fa49807205ce4d355092ef5a8a18f56e8913cf4a201fbe287825b095693c217758061392c565b80156119835760008060016101000a81548160ff0219169083151502179055507f7f26b83ff96e1f2b6a682f133852f6798a09c465da95921460cefb3847402498600160405161197a9190616d99565b60405180910390a15b5050505050505050565b600060c9600084815260200190815260200160002060000160008373ffffffffffffffffffffffffffffffffffffffff1673ffffffffffffffffffffffffffffffffffffffff16815260200190815260200160002060009054906101000a900460ff16905092915050565b61010160009054906101000a900473ffffffffffffffffffffffffffffffffffffffff1681565b6000801b81565b600060016002811115611a3c57611a3b6161b3565b5b60fb6000611a48612a0b565b73ffffffffffffffffffffffffffffffffffffffff1673ffffffffffffffffffffffffffffffffffffffff16815260200190815260200160002060010160009054906101000a900460ff166002811115611aa557611aa46161b3565b5b148015611b0c57506001151560fb6000611abd612a0b565b73ffffffffffffffffffffffffffffffffffffffff1673ffffffffffffffffffffffffffffffffffffffff16815260200190815260200160002060010160019054906101000a900460ff161515145b611b4b576040517f08c379a0000000000000000000000000000000000000000000000000000000008152600401611b4290616e26565b60405180910390fd5b611ba283611b57612a0b565b8488888080601f016020809104026020016040519081016040528093929190818152602001838380828437600081840152601f19601f82011690508083019250505050505050613988565b9050949350505050565b6000611bd68260fc6000868152602001908152602001600020600101613cbb90919063ffffffff16565b905092915050565b7ff26c159fd7d78f3848964c3adf4aea78577348fcb297db019bf8f5efbed0219581565b600060fd600084815260200190815260200160002060030160009054906101000a900473ffffffffffffffffffffffffffffffffffffffff1673ffffffffffffffffffffffffffffffffffffffff163373ffffffffffffffffffffffffffffffffffffffff1614611ca8576040517f08c379a0000000000000000000000000000000000000000000000000000000008152600401611c9f90616eb8565b60405180910390fd5b6000611cb384611494565b905060066007811115611cc957611cc86161b3565b5b816007811115611cdc57611cdb6161b3565b5b14158015611d0e5750600780811115611cf857611cf76161b3565b5b816007811115611d0b57611d0a6161b3565b5b14155b611d4d576040517f08c379a0000000000000000000000000000000000000000000000000000000008152600401611d4490616f24565b60405180910390fd5b60036007811115611d6157611d606161b3565b5b816007811115611d7457611d736161b3565b5b03611db4576040517f08c379a0000000000000000000000000000000000000000000000000000000008152600401611dab90616fb6565b60405180910390fd5b600160fd600086815260200190815260200160002060060160036101000a81548160ff021916908315150217905550837fc3fe75bace7821ed95b8b37722a36dfb53bdf311befb9c378bed48a7db4062aa84604051611e139190615e6e565b60405180910390a2600191505092915050565b6000868686868686604051602001611e43969594939291906170bb565b6040516020818303038152906040528051906020012090509695505050505050565b7f53cc2fae7ecef069da76ae9063c3ecfa7f417173bc5191fe1bb037165d76473f81565b61010060009054906101000a900473ffffffffffffffffffffffffffffffffffffffff1681565b611eb982610cf4565b611ec281612916565b611ecc838361338d565b505050565b7f23b872dd7302113369cda2901243429419bec145408fa8b352b3dd92b66c680b81565b60007fa49807205ce4d355092ef5a8a18f56e8913cf4a201fbe287825b095693c21775611f2181612916565b6000611f2c84611494565b905060056007811115611f4257611f416161b3565b5b816007811115611f5557611f546161b3565b5b14611f95576040517f08c379a0000000000000000000000000000000000000000000000000000000008152600401611f8c90617195565b60405180910390fd5b600060fd6000868152602001908152602001600020905060018160060160026101000a81548160ff021916908315150217905550600060019050611fd882612a43565b9050801561200e57857f7b1bcf1ccf901a11589afff5504d59fd0a53780eed2a952adade0348985139e060405160405180910390a25b80945050505050919050565b7fa49807205ce4d355092ef5a8a18f56e8913cf4a201fbe287825b095693c2177561204481612916565b8160ff819055505050565b61010260009054906101000a900473ffffffffffffffffffffffffffffffffffffffff1681565b7f36fd43ede163045b10e1f0abd16f62f165fce3fa7b6cde217bcea3bc47663acc81565b600060fb60008373ffffffffffffffffffffffffffffffffffffffff1673ffffffffffffffffffffffffffffffffffffffff16815260200190815260200160002060010160019054906101000a900460ff16801561216b575060016002811115612107576121066161b3565b5b60fb60008473ffffffffffffffffffffffffffffffffffffffff1673ffffffffffffffffffffffffffffffffffffffff16815260200190815260200160002060010160009054906101000a900460ff166002811115612169576121686161b3565b5b145b9050919050565b600060016002811115612188576121876161b3565b5b60fb6000612194612a0b565b73ffffffffffffffffffffffffffffffffffffffff1673ffffffffffffffffffffffffffffffffffffffff16815260200190815260200160002060010160009054906101000a900460ff1660028111156121f1576121f06161b3565b5b14801561225857506001151560fb6000612209612a0b565b73ffffffffffffffffffffffffffffffffffffffff1673ffffffffffffffffffffffffffffffffffffffff16815260200190815260200160002060010160019054906101000a900460ff161515145b806122975750600115156122937fa49807205ce4d355092ef5a8a18f56e8913cf4a201fbe287825b095693c2177561228e612a0b565b61198d565b1515145b6122d6576040517f08c379a00000000000000000000000000000000000000000000000000000000081526004016122cd90617227565b60405180910390fd5b600060038111156122ea576122e96161b3565b5b83602001516003811115612301576123006161b3565b5b03612341576040517f08c379a000000000000000000000000000000000000000000000000000000000815260040161233890617293565b60405180910390fd5b60006004811115612355576123546161b3565b5b8360400151600481111561236c5761236b6161b3565b5b036123ac576040517f08c379a00000000000000000000000000000000000000000000000000000000081526004016123a3906172ff565b60405180910390fd5b6000836080015151036123f4576040517f08c379a00000000000000000000000000000000000000000000000000000000081526004016123eb9061736b565b60405180910390fd5b6000801b83600001510361243d576040517f08c379a00000000000000000000000000000000000000000000000000000000081526004016124349061736b565b60405180910390fd5b61246e7fa49807205ce4d355092ef5a8a18f56e8913cf4a201fbe287825b095693c21775612469612a0b565b61198d565b156124e35760016003811115612487576124866161b3565b5b8360200151600381111561249e5761249d6161b3565b5b146124de576040517f08c379a00000000000000000000000000000000000000000000000000000000081526004016124d5906173d7565b60405180910390fd5b61254f565b600160038111156124f7576124f66161b3565b5b8360200151600381111561250e5761250d6161b3565b5b0361254e576040517f08c379a000000000000000000000000000000000000000000000000000000000815260040161254590617469565b60405180910390fd5b5b6000836060015160405160200161256691906174c5565b60405160208183030381529060405280519060200120905060006125a5856000015183612591612a0b565b886020015189604001518a60800151613ceb565b905060006125b282613d72565b90506000806125c18388613d8c565b91509150600060048111156125d9576125d86161b3565b5b8160048111156125ec576125eb6161b3565b5b1461264057806004811115612604576126036161b3565b5b6040517f64f17f0b00000000000000000000000000000000000000000000000000000000815260040161263791906174eb565b60405180910390fd5b3073ffffffffffffffffffffffffffffffffffffffff166391d148547fa49807205ce4d355092ef5a8a18f56e8913cf4a201fbe287825b095693c21775846040518363ffffffff1660e01b815260040161269b929190617506565b602060405180830381865afa1580156126b8573d6000803e3d6000fd5b505050506040513d601f19601f820116820180604052508101906126dc9190617544565b61271b576040517f08c379a0000000000000000000000000000000000000000000000000000000008152600401612712906175e3565b60405180910390fd5b600061274289600001518761272e612a0b565b8c602001518d604001518e60800151611e26565b9050600060fd60008381526020019081526020016000209050818160000181905550600060fe54426127749190617617565b9050600060ff54426127869190617617565b905061279e8284600401613e0d90919063ffffffff16565b6127b48184600501613e0d90919063ffffffff16565b8883600201819055508b6000015183600101819055506127d2612a0b565b8360030160006101000a81548173ffffffffffffffffffffffffffffffffffffffff021916908373ffffffffffffffffffffffffffffffffffffffff1602179055508b602001518360060160006101000a81548160ff0219169083600381111561283f5761283e6161b3565b5b02179055508b604001518360060160016101000a81548160ff0219169083600481111561286f5761286e6161b3565b5b02179055508b60800151836007019080519060200190612890929190615ba9565b5061289a83613e3c565b83995050505050505050505092915050565b60007f01ffc9a7000000000000000000000000000000000000000000000000000000007bffffffffffffffffffffffffffffffffffffffffffffffffffffffff1916827bffffffffffffffffffffffffffffffffffffffffffffffffffffffff1916149050919050565b61292781612922612a0b565b614d1a565b50565b612934828261198d565b612a0757600160c9600084815260200190815260200160002060000160008373ffffffffffffffffffffffffffffffffffffffff1673ffffffffffffffffffffffffffffffffffffffff16815260200190815260200160002060006101000a81548160ff0219169083151502179055506129ac612a0b565b73ffffffffffffffffffffffffffffffffffffffff168173ffffffffffffffffffffffffffffffffffffffff16837f2f8788117e7eff1d82e926ec794901d17c78024a50270940304540a733656f0d60405160405180910390a45b5050565b600033905090565b6000612a3b836000018373ffffffffffffffffffffffffffffffffffffffff1660001b614db7565b905092915050565b6000806001905060016003811115612a5e57612a5d6161b3565b5b8360060160009054906101000a900460ff166003811115612a8257612a816161b3565b5b03612c9c5760016004811115612a9b57612a9a6161b3565b5b8360060160019054906101000a900460ff166004811115612abf57612abe6161b3565b5b03612c97576000836007018054612ad590616865565b80601f0160208091040260200160405190810160405280929190818152602001828054612b0190616865565b8015612b4e5780601f10612b2357610100808354040283529160200191612b4e565b820191906000526020600020905b815481529060010190602001808311612b3157829003601f168201915b5050505050806020019051810190612b669190617746565b905060405180606001604052808260000151815260200160016002811115612b9157612b906161b3565b5b81526020016001151581525060fb6000836020015173ffffffffffffffffffffffffffffffffffffffff1673ffffffffffffffffffffffffffffffffffffffff1681526020019081526020016000206000820151816000019080519060200190612bfc929190615c2f565b5060208201518160010160006101000a81548160ff02191690836002811115612c2857612c276161b3565b5b021790555060408201518160010160016101000a81548160ff021916908315150217905550905050600161010560008282829054906101000a900463ffffffff16612c73919061778f565b92506101000a81548163ffffffff021916908363ffffffff16021790555060019150505b613384565b61010560089054906101000a900460ff16158015612cef575060026003811115612cc957612cc86161b3565b5b8360060160009054906101000a900460ff166003811115612ced57612cec6161b3565b5b145b156133835760016004811115612d0857612d076161b3565b5b8360060160019054906101000a900460ff166004811115612d2c57612d2b6161b3565b5b03612fda576000836007018054612d4290616865565b80601f0160208091040260200160405190810160405280929190818152602001828054612d6e90616865565b8015612dbb5780601f10612d9057610100808354040283529160200191612dbb565b820191906000526020600020905b815481529060010190602001808311612d9e57829003601f168201915b5050505050806020019051810190612dd391906178ac565b9050818015612df05750612def81604001518260200151614e27565b5b9150818015612e445750612e4361010160009054906101000a900473ffffffffffffffffffffffffffffffffffffffff16606483602001516005612e3491906178f5565b612e3e919061797e565b614e27565b5b9150818015612e8d5750612e8c8460030160009054906101000a900473ffffffffffffffffffffffffffffffffffffffff1660648360200151612e87919061797e565b614e27565b5b9150818015612eaa5750612ea984600001548260200151614fbd565b5b9150604051806060016040528082600001518152602001600280811115612ed457612ed36161b3565b5b81526020016001151581525060fb6000836040015173ffffffffffffffffffffffffffffffffffffffff1673ffffffffffffffffffffffffffffffffffffffff1681526020019081526020016000206000820151816000019080519060200190612f3f929190615c2f565b5060208201518160010160006101000a81548160ff02191690836002811115612f6b57612f6a6161b3565b5b021790555060408201518160010160016101000a81548160ff021916908315150217905550905050600161010560048282829054906101000a900463ffffffff16612fb6919061778f565b92506101000a81548163ffffffff021916908363ffffffff16021790555050613382565b60026004811115612fee57612fed6161b3565b5b8360060160019054906101000a900460ff166004811115613012576130116161b3565b5b0361319857600083600701805461302890616865565b80601f016020809104026020016040519081016040528092919081815260200182805461305490616865565b80156130a15780601f10613076576101008083540402835291602001916130a1565b820191906000526020600020905b81548152906001019060200180831161308457829003601f168201915b50505050508060200190518101906130b99190617a43565b90508180156130d657506130d581604001518260200151614e27565b5b915081801561312a575061312961010160009054906101000a900473ffffffffffffffffffffffffffffffffffffffff1660648360200151600561311a91906178f5565b613124919061797e565b614e27565b5b915081801561317357506131728460030160009054906101000a900473ffffffffffffffffffffffffffffffffffffffff166064836020015161316d919061797e565b614e27565b5b9150818015613190575061318f84600001548260200151614fbd565b5b915050613381565b600360048111156131ac576131ab6161b3565b5b8360060160019054906101000a900460ff1660048111156131d0576131cf6161b3565b5b0361328e5760008360070180546131e690616865565b80601f016020809104026020016040519081016040528092919081815260200182805461321290616865565b801561325f5780601f106132345761010080835404028352916020019161325f565b820191906000526020600020905b81548152906001019060200180831161324257829003601f168201915b50505050508060200190518101906132779190617ac8565b90506132868160000151615069565b915050613380565b6004808111156132a1576132a06161b3565b5b8360060160019054906101000a900460ff1660048111156132c5576132c46161b3565b5b0361337f5760008360070180546132db90616865565b80601f016020809104026020016040519081016040528092919081815260200182805461330790616865565b80156133545780601f1061332957610100808354040283529160200191613354565b820191906000526020600020905b81548152906001019060200180831161333757829003601f168201915b505050505080602001905181019061336c9190617b31565b905061337b81600001516151d7565b9150505b5b5b5b5b5b80915050919050565b613397828261198d565b1561346b57600060c9600084815260200190815260200160002060000160008373ffffffffffffffffffffffffffffffffffffffff1673ffffffffffffffffffffffffffffffffffffffff16815260200190815260200160002060006101000a81548160ff021916908315150217905550613410612a0b565b73ffffffffffffffffffffffffffffffffffffffff168173ffffffffffffffffffffffffffffffffffffffff16837ff6391f5c32d9c69d2a47ea670b442974b53935d1edc7fd64eb21e047a839171b60405160405180910390a45b5050565b600061349d7f360894a13ba1a3210667c828492db98dca3e2076cc3735a920a3ca505d382bbc60001b615345565b60000160009054906101000a900473ffffffffffffffffffffffffffffffffffffffff16905090565b3073ffffffffffffffffffffffffffffffffffffffff166391d148547fa49807205ce4d355092ef5a8a18f56e8913cf4a201fbe287825b095693c2177561350b612a0b565b6040518363ffffffff1660e01b8152600401613528929190617506565b602060405180830381865afa158015613545573d6000803e3d6000fd5b505050506040513d601f19601f820116820180604052508101906135699190617544565b5050565b6135997f4910fdfa16fed3260ed0e7147f7cc6da11a60208b5b9406d12a635614ffd914360001b61534f565b60000160009054906101000a900460ff16156135bd576135b883615359565b6136d6565b8273ffffffffffffffffffffffffffffffffffffffff166352d1902d6040518163ffffffff1660e01b8152600401602060405180830381865afa92505050801561362557506040513d601f19601f820116820180604052508101906136229190617b73565b60015b613664576040517f08c379a000000000000000000000000000000000000000000000000000000000815260040161365b90617c12565b60405180910390fd5b7f360894a13ba1a3210667c828492db98dca3e2076cc3735a920a3ca505d382bbc60001b81146136c9576040517f08c379a00000000000000000000000000000000000000000000000000000000081526004016136c090617ca4565b60405180910390fd5b506136d5838383615412565b5b505050565b600042826000015167ffffffffffffffff16119050919050565b60008060fc600084815260200190815260200160002090508060000160109054906101000a900467ffffffffffffffff168160000160009054906101000a900467ffffffffffffffff168260000160089054906101000a900467ffffffffffffffff166137629190617617565b61376c9190617617565b67ffffffffffffffff1661010560009054906101000a900463ffffffff1663ffffffff1614915050919050565b60006137a48261543e565b80156137be575042826000015167ffffffffffffffff1611155b9050919050565b60008060fc600084815260200190815260200160002090506001600261010560009054906101000a900463ffffffff166137ff9190617cc4565b613809919061778f565b63ffffffff168160000160089054906101000a900467ffffffffffffffff1667ffffffffffffffff161015915050919050565b60008060019054906101000a900460ff16156138b35760018260ff1614801561386b575061386930615458565b155b6138aa576040517f08c379a00000000000000000000000000000000000000000000000000000000081526004016138a190617d67565b60405180910390fd5b60009050613927565b8160ff1660008054906101000a900460ff1660ff1610613908576040517f08c379a00000000000000000000000000000000000000000000000000000000081526004016138ff90617d67565b60405180910390fd5b816000806101000a81548160ff021916908360ff160217905550600190505b919050565b600061393783610cf4565b90508160c96000858152602001908152602001600020600101819055508181847fbd79b86ffe0ab8e8776151514217cd7cacd52c909f66475c3af44e129f0b00ff60405160405180910390a4505050565b600080600381111561399d5761399c6161b3565b5b8360038111156139b0576139af6161b3565b5b036139f0576040517f08c379a00000000000000000000000000000000000000000000000000000000081526004016139e790617dd3565b60405180910390fd5b60026007811115613a0457613a036161b3565b5b613a0d86611494565b6007811115613a1f57613a1e6161b3565b5b14613a5f576040517f08c379a0000000000000000000000000000000000000000000000000000000008152600401613a5690617e65565b60405180910390fd5b600060fc60008781526020019081526020016000209050613a8c8582600101613cbb90919063ffffffff16565b15613acc576040517f08c379a0000000000000000000000000000000000000000000000000000000008152600401613ac390617ed1565b60405180910390fd5b613ae28582600101612a1390919063ffffffff16565b5060016003811115613af757613af66161b3565b5b846003811115613b0a57613b096161b3565b5b03613b625760018160000160008282829054906101000a900467ffffffffffffffff16613b379190617617565b92506101000a81548167ffffffffffffffff021916908367ffffffffffffffff160217905550613c5d565b60026003811115613b7657613b756161b3565b5b846003811115613b8957613b886161b3565b5b03613be15760018160000160088282829054906101000a900467ffffffffffffffff16613bb69190617617565b92506101000a81548167ffffffffffffffff021916908367ffffffffffffffff160217905550613c5c565b600380811115613bf457613bf36161b3565b5b846003811115613c0757613c066161b3565b5b03613c5b5760018160000160108282829054906101000a900467ffffffffffffffff16613c349190617617565b92506101000a81548167ffffffffffffffff021916908367ffffffffffffffff1602179055505b5b5b858573ffffffffffffffffffffffffffffffffffffffff167fbbb255028c79dea070e4449c346283da7b4b66693776c096bb820822e4d9c41a8686604051613ca6929190617ef1565b60405180910390a36001915050949350505050565b6000613ce3836000018373ffffffffffffffffffffffffffffffffffffffff1660001b61547b565b905092915050565b60007ff1d23bd7ede3e157b19af9bdc7f9f08c55104d948e791ad0900a92e0a680c3a2878787878787604051602001613d249190617f5d565b60405160208183030381529060405280519060200120604051602001613d509796959493929190617f74565b6040516020818303038152906040528051906020012090509695505050505050565b6000613d85613d7f61549e565b83615544565b9050919050565b6000806041835103613dcd5760008060006020860151925060408601519150606086015160001a9050613dc187828585615577565b94509450505050613e06565b6040835103613dfd576000806020850151915060408501519050613df2868383615683565b935093505050613e06565b60006002915091505b9250929050565b808260000160006101000a81548167ffffffffffffffff021916908367ffffffffffffffff1602179055505050565b60016003811115613e5057613e4f6161b3565b5b8160060160009054906101000a900460ff166003811115613e7457613e736161b3565b5b036141785760016004811115613e8d57613e8c6161b3565b5b8160060160019054906101000a900460ff166004811115613eb157613eb06161b3565b5b03614173576000816007018054613ec790616865565b80601f0160208091040260200160405190810160405280929190818152602001828054613ef390616865565b8015613f405780601f10613f1557610100808354040283529160200191613f40565b820191906000526020600020905b815481529060010190602001808311613f2357829003601f168201915b5050505050806020019051810190613f589190617746565b9050600073ffffffffffffffffffffffffffffffffffffffff16816020015173ffffffffffffffffffffffffffffffffffffffff1603613fcd576040517f08c379a0000000000000000000000000000000000000000000000000000000008152600401613fc490618055565b60405180910390fd5b600081600001515103614015576040517f08c379a000000000000000000000000000000000000000000000000000000000815260040161400c906180e7565b60405180910390fd5b60006002811115614029576140286161b3565b5b60fb6000836020015173ffffffffffffffffffffffffffffffffffffffff1673ffffffffffffffffffffffffffffffffffffffff16815260200190815260200160002060010160009054906101000a900460ff16600281111561408f5761408e6161b3565b5b146140cf576040517f08c379a00000000000000000000000000000000000000000000000000000000081526004016140c690618153565b60405180910390fd5b806020015173ffffffffffffffffffffffffffffffffffffffff168260030160009054906101000a900473ffffffffffffffffffffffffffffffffffffffff1673ffffffffffffffffffffffffffffffffffffffff1683600001547f3b993e041d591ea59a38f6cff579df5e8d6c2d1fed74305dfbb114336c41bdfd85600101548660020154866000015160405161416993929190618173565b60405180910390a4505b614d17565b6002600381111561418c5761418b6161b3565b5b8160060160009054906101000a900460ff1660038111156141b0576141af6161b3565b5b03614cdc57600160048111156141c9576141c86161b3565b5b8160060160019054906101000a900460ff1660048111156141ed576141ec6161b3565b5b0361455157600081600701805461420390616865565b80601f016020809104026020016040519081016040528092919081815260200182805461422f90616865565b801561427c5780601f106142515761010080835404028352916020019161427c565b820191906000526020600020905b81548152906001019060200180831161425f57829003601f168201915b505050505080602001905181019061429491906178ac565b90506000816000015151036142de576040517f08c379a00000000000000000000000000000000000000000000000000000000081526004016142d5906181fd565b60405180910390fd5b6000816020015103614325576040517f08c379a000000000000000000000000000000000000000000000000000000000815260040161431c9061828f565b60405180910390fd5b6000816060015161ffff1603614370576040517f08c379a000000000000000000000000000000000000000000000000000000000815260040161436790618321565b60405180910390fd5b600073ffffffffffffffffffffffffffffffffffffffff16816040015173ffffffffffffffffffffffffffffffffffffffff16036143e3576040517f08c379a00000000000000000000000000000000000000000000000000000000081526004016143da9061838d565b60405180910390fd5b600060028111156143f7576143f66161b3565b5b60fb6000836040015173ffffffffffffffffffffffffffffffffffffffff1673ffffffffffffffffffffffffffffffffffffffff16815260200190815260200160002060010160009054906101000a900460ff16600281111561445d5761445c6161b3565b5b1461449d576040517f08c379a0000000000000000000000000000000000000000000000000000000008152600401614494906183f9565b60405180910390fd5b806040015173ffffffffffffffffffffffffffffffffffffffff168260030160009054906101000a900473ffffffffffffffffffffffffffffffffffffffff1673ffffffffffffffffffffffffffffffffffffffff1683600001547fa3d1a39a550977baa46ea2634b05f5eb5993c2422417ce8c7139b39635a2a08c84602001518660010154876002015487600001518860600151604051614543959493929190618428565b60405180910390a450614cd7565b60026004811115614565576145646161b3565b5b8160060160019054906101000a900460ff166004811115614589576145886161b3565b5b036148ed57600081600701805461459f90616865565b80601f01602080910402602001604051908101604052809291908181526020018280546145cb90616865565b80156146185780601f106145ed57610100808354040283529160200191614618565b820191906000526020600020905b8154815290600101906020018083116145fb57829003601f168201915b50505050508060200190518101906146309190617a43565b905060008160000151510361467a576040517f08c379a0000000000000000000000000000000000000000000000000000000008152600401614671906181fd565b60405180910390fd5b60008160200151036146c1576040517f08c379a00000000000000000000000000000000000000000000000000000000081526004016146b89061828f565b60405180910390fd5b6000816060015161ffff160361470c576040517f08c379a000000000000000000000000000000000000000000000000000000000815260040161470390618321565b60405180910390fd5b600073ffffffffffffffffffffffffffffffffffffffff16816040015173ffffffffffffffffffffffffffffffffffffffff160361477f576040517f08c379a0000000000000000000000000000000000000000000000000000000008152600401614776906184ce565b60405180910390fd5b60016002811115614793576147926161b3565b5b60fb6000836040015173ffffffffffffffffffffffffffffffffffffffff1673ffffffffffffffffffffffffffffffffffffffff16815260200190815260200160002060010160009054906101000a900460ff1660028111156147f9576147f86161b3565b5b14614839576040517f08c379a00000000000000000000000000000000000000000000000000000000081526004016148309061853a565b60405180910390fd5b806040015173ffffffffffffffffffffffffffffffffffffffff168260030160009054906101000a900473ffffffffffffffffffffffffffffffffffffffff1673ffffffffffffffffffffffffffffffffffffffff1683600001547fb58c12647c60f8966538bcfa6bf6b815477288bcbcbd80c2ac8ad7c23115a2d9846020015186600101548760020154876000015188606001516040516148df959493929190618428565b60405180910390a450614cd6565b60036004811115614901576149006161b3565b5b8160060160019054906101000a900460ff166004811115614925576149246161b3565b5b03614ae357600081600701805461493b90616865565b80601f016020809104026020016040519081016040528092919081815260200182805461496790616865565b80156149b45780601f10614989576101008083540402835291602001916149b4565b820191906000526020600020905b81548152906001019060200180831161499757829003601f168201915b50505050508060200190518101906149cc9190617ac8565b9050600073ffffffffffffffffffffffffffffffffffffffff16816000015173ffffffffffffffffffffffffffffffffffffffff1603614a41576040517f08c379a0000000000000000000000000000000000000000000000000000000008152600401614a38906185cc565b60405180910390fd5b806000015173ffffffffffffffffffffffffffffffffffffffff168260030160009054906101000a900473ffffffffffffffffffffffffffffffffffffffff1673ffffffffffffffffffffffffffffffffffffffff1683600001547f6c344b5a99d701e380e4f74eb042f15449b77f4657a647b82e9a5b223798bf1c85600101548660020154604051614ad59291906185ec565b60405180910390a450614cd5565b600480811115614af657614af56161b3565b5b8160060160019054906101000a900460ff166004811115614b1a57614b196161b3565b5b03614cd4576000816007018054614b3090616865565b80601f0160208091040260200160405190810160405280929190818152602001828054614b5c90616865565b8015614ba95780601f10614b7e57610100808354040283529160200191614ba9565b820191906000526020600020905b815481529060010190602001808311614b8c57829003601f168201915b5050505050806020019051810190614bc19190617b31565b9050600073ffffffffffffffffffffffffffffffffffffffff16816000015173ffffffffffffffffffffffffffffffffffffffff1603614c36576040517f08c379a0000000000000000000000000000000000000000000000000000000008152600401614c2d90618687565b60405180910390fd5b806000015173ffffffffffffffffffffffffffffffffffffffff168260030160009054906101000a900473ffffffffffffffffffffffffffffffffffffffff1673ffffffffffffffffffffffffffffffffffffffff1683600001547f5b0256ffeae05aba51e2c5f936a5ab3668280f92904d8098fc46d79e2ec5dbfa85600101548660020154604051614cca9291906185ec565b60405180910390a4505b5b5b5b614d16565b600380811115614cef57614cee6161b3565b5b8160060160009054906101000a900460ff166003811115614d1357614d126161b3565b5b50505b5b50565b614d24828261198d565b614db357614d498173ffffffffffffffffffffffffffffffffffffffff1660146156e2565b614d578360001c60206156e2565b604051602001614d6892919061873f565b6040516020818303038152906040526040517f08c379a0000000000000000000000000000000000000000000000000000000008152600401614daa9190615e6e565b60405180910390fd5b5050565b6000614dc3838361547b565b614e1c578260000182908060018154018082558091505060019003906000526020600020016000909190919091505582600001805490508360010160008481526020019081526020016000208190555060019050614e21565b600090505b92915050565b6000807f23b872dd7302113369cda2901243429419bec145408fa8b352b3dd92b66c680b61010060009054906101000a900473ffffffffffffffffffffffffffffffffffffffff168585604051602401614e8393929190618779565b604051602081830303815290604052907bffffffffffffffffffffffffffffffffffffffffffffffffffffffff19166020820180517bffffffffffffffffffffffffffffffffffffffffffffffffffffffff83818316178352505050509050600061010260009054906101000a900473ffffffffffffffffffffffffffffffffffffffff1673ffffffffffffffffffffffffffffffffffffffff1682604051614f2c9190617f5d565b6000604051808303816000865af19150503d8060008114614f69576040519150601f19603f3d011682016040523d82523d6000602084013e614f6e565b606091505b5050905080614fb2576040517f08c379a0000000000000000000000000000000000000000000000000000000008152600401614fa9906187fc565b60405180910390fd5b809250505092915050565b60008060fc600085815260200190815260200160002090506000614fe38260010161591e565b90506000816064866002614ff791906178f5565b615001919061797e565b61500b919061797e565b905060006001905060005b8381101561505b57818015615046575061504561503f828760010161593390919063ffffffff16565b84614e27565b5b915080806150539061881c565b915050615016565b508094505050505092915050565b6000807ff26c159fd7d78f3848964c3adf4aea78577348fcb297db019bf8f5efbed021958360405160240161509e9190616422565b604051602081830303815290604052907bffffffffffffffffffffffffffffffffffffffffffffffffffffffff19166020820180517bffffffffffffffffffffffffffffffffffffffffffffffffffffffff83818316178352505050509050600061010260009054906101000a900473ffffffffffffffffffffffffffffffffffffffff1673ffffffffffffffffffffffffffffffffffffffff16826040516151479190617f5d565b6000604051808303816000865af19150503d8060008114615184576040519150601f19603f3d011682016040523d82523d6000602084013e615189565b606091505b50509050806151cd576040517f08c379a00000000000000000000000000000000000000000000000000000000081526004016151c4906188b0565b60405180910390fd5b8092505050919050565b6000807f53cc2fae7ecef069da76ae9063c3ecfa7f417173bc5191fe1bb037165d76473f8360405160240161520c9190616422565b604051602081830303815290604052907bffffffffffffffffffffffffffffffffffffffffffffffffffffffff19166020820180517bffffffffffffffffffffffffffffffffffffffffffffffffffffffff83818316178352505050509050600061010260009054906101000a900473ffffffffffffffffffffffffffffffffffffffff1673ffffffffffffffffffffffffffffffffffffffff16826040516152b59190617f5d565b6000604051808303816000865af19150503d80600081146152f2576040519150601f19603f3d011682016040523d82523d6000602084013e6152f7565b606091505b505090508061533b576040517f08c379a00000000000000000000000000000000000000000000000000000000081526004016153329061891c565b60405180910390fd5b8092505050919050565b6000819050919050565b6000819050919050565b61536281615458565b6153a1576040517f08c379a0000000000000000000000000000000000000000000000000000000008152600401615398906189ae565b60405180910390fd5b806153ce7f360894a13ba1a3210667c828492db98dca3e2076cc3735a920a3ca505d382bbc60001b615345565b60000160006101000a81548173ffffffffffffffffffffffffffffffffffffffff021916908373ffffffffffffffffffffffffffffffffffffffff16021790555050565b61541b8361594d565b6000825111806154285750805b1561543957615437838361599c565b505b505050565b600080826000015167ffffffffffffffff16119050919050565b6000808273ffffffffffffffffffffffffffffffffffffffff163b119050919050565b600080836001016000848152602001908152602001600020541415905092915050565b60007f8b73c3c69bb8fe3d512ecc4cf759cc79239f7b179b0ffacaa9a75d522b39400f6101036040516020016154d49190618a62565b604051602081830303815290604052805190602001206101046040516020016154fd9190618a62565b604051602081830303815290604052805190602001204630604051602001615529959493929190618a79565b60405160208183030381529060405280519060200120905090565b60008282604051602001615559929190618b39565b60405160208183030381529060405280519060200120905092915050565b6000807f7fffffffffffffffffffffffffffffff5d576e7357a4501ddfe92f46681b20a08360001c11156155b257600060039150915061567a565b601b8560ff16141580156155ca5750601c8560ff1614155b156155dc57600060049150915061567a565b6000600187878787604051600081526020016040526040516156019493929190618b70565b6020604051602081039080840390855afa158015615623573d6000803e3d6000fd5b505050602060405103519050600073ffffffffffffffffffffffffffffffffffffffff168173ffffffffffffffffffffffffffffffffffffffff16036156715760006001925092505061567a565b80600092509250505b94509492505050565b60008060007f7fffffffffffffffffffffffffffffffffffffffffffffffffffffffffffffff60001b841690506000601b60ff8660001c901c6156c69190618bb5565b90506156d487828885615577565b935093505050935093915050565b6060600060028360026156f591906178f5565b6156ff9190618bb5565b67ffffffffffffffff8111156157185761571761602c565b5b6040519080825280601f01601f19166020018201604052801561574a5781602001600182028036833780820191505090505b5090507f30000000000000000000000000000000000000000000000000000000000000008160008151811061578257615781618c0b565b5b60200101907effffffffffffffffffffffffffffffffffffffffffffffffffffffffffffff1916908160001a9053507f7800000000000000000000000000000000000000000000000000000000000000816001815181106157e6576157e5618c0b565b5b60200101907effffffffffffffffffffffffffffffffffffffffffffffffffffffffffffff1916908160001a9053506000600184600261582691906178f5565b6158309190618bb5565b90505b60018111156158d0577f3031323334353637383961626364656600000000000000000000000000000000600f86166010811061587257615871618c0b565b5b1a60f81b82828151811061588957615888618c0b565b5b60200101907effffffffffffffffffffffffffffffffffffffffffffffffffffffffffffff1916908160001a905350600485901c9450806158c990618c3a565b9050615833565b5060008414615914576040517f08c379a000000000000000000000000000000000000000000000000000000000815260040161590b90618caf565b60405180910390fd5b8091505092915050565b600061592c82600001615a80565b9050919050565b60006159428360000183615a91565b60001c905092915050565b61595681615359565b8073ffffffffffffffffffffffffffffffffffffffff167fbc7cd75a20ee27fd9adebab32041f755214dbc6bffa90cc0225b39da2e5c2d3b60405160405180910390a250565b60606159a783615458565b6159e6576040517f08c379a00000000000000000000000000000000000000000000000000000000081526004016159dd90618d41565b60405180910390fd5b6000808473ffffffffffffffffffffffffffffffffffffffff1684604051615a0e9190617f5d565b600060405180830381855af49150503d8060008114615a49576040519150601f19603f3d011682016040523d82523d6000602084013e615a4e565b606091505b5091509150615a768282604051806060016040528060278152602001618d6260279139615abc565b9250505092915050565b600081600001805490509050919050565b6000826000018281548110615aa957615aa8618c0b565b5b9060005260206000200154905092915050565b60608315615acc57829050615b1c565b600083511115615adf5782518084602001fd5b816040517f08c379a0000000000000000000000000000000000000000000000000000000008152600401615b139190615e6e565b60405180910390fd5b9392505050565b828054615b2f90616865565b90600052602060002090601f016020900481019282615b515760008555615b98565b82601f10615b6a57803560ff1916838001178555615b98565b82800160010185558215615b98579182015b82811115615b97578235825591602001919060010190615b7c565b5b509050615ba59190615cb5565b5090565b828054615bb590616865565b90600052602060002090601f016020900481019282615bd75760008555615c1e565b82601f10615bf057805160ff1916838001178555615c1e565b82800160010185558215615c1e579182015b82811115615c1d578251825591602001919060010190615c02565b5b509050615c2b9190615cb5565b5090565b828054615c3b90616865565b90600052602060002090601f016020900481019282615c5d5760008555615ca4565b82601f10615c7657805160ff1916838001178555615ca4565b82800160010185558215615ca4579182015b82811115615ca3578251825591602001919060010190615c88565b5b509050615cb19190615cb5565b5090565b5b80821115615cce576000816000905550600101615cb6565b5090565b6000604051905090565b600080fd5b600080fd5b60007fffffffff0000000000000000000000000000000000000000000000000000000082169050919050565b615d1b81615ce6565b8114615d2657600080fd5b50565b600081359050615d3881615d12565b92915050565b600060208284031215615d5457615d53615cdc565b5b6000615d6284828501615d29565b91505092915050565b60008115159050919050565b615d8081615d6b565b82525050565b6000602082019050615d9b6000830184615d77565b92915050565b6000819050919050565b615db481615da1565b82525050565b6000602082019050615dcf6000830184615dab565b92915050565b600081519050919050565b600082825260208201905092915050565b60005b83811015615e0f578082015181840152602081019050615df4565b83811115615e1e576000848401525b50505050565b6000601f19601f8301169050919050565b6000615e4082615dd5565b615e4a8185615de0565b9350615e5a818560208601615df1565b615e6381615e24565b840191505092915050565b60006020820190508181036000830152615e888184615e35565b905092915050565b600063ffffffff82169050919050565b615ea981615e90565b82525050565b6000602082019050615ec46000830184615ea0565b92915050565b600073ffffffffffffffffffffffffffffffffffffffff82169050919050565b6000615ef582615eca565b9050919050565b615f0581615eea565b8114615f1057600080fd5b50565b600081359050615f2281615efc565b92915050565b600060208284031215615f3e57615f3d615cdc565b5b6000615f4c84828501615f13565b91505092915050565b6000819050919050565b615f6881615f55565b8114615f7357600080fd5b50565b600081359050615f8581615f5f565b92915050565b600060208284031215615fa157615fa0615cdc565b5b6000615faf84828501615f76565b91505092915050565b615fc181615f55565b82525050565b6000602082019050615fdc6000830184615fb8565b92915050565b60008060408385031215615ff957615ff8615cdc565b5b600061600785828601615f76565b925050602061601885828601615f13565b9150509250929050565b600080fd5b600080fd5b7f4e487b7100000000000000000000000000000000000000000000000000000000600052604160045260246000fd5b61606482615e24565b810181811067ffffffffffffffff821117156160835761608261602c565b5b80604052505050565b6000616096615cd2565b90506160a2828261605b565b919050565b600067ffffffffffffffff8211156160c2576160c161602c565b5b6160cb82615e24565b9050602081019050919050565b82818337600083830152505050565b60006160fa6160f5846160a7565b61608c565b90508281526020810184848401111561611657616115616027565b5b6161218482856160d8565b509392505050565b600082601f83011261613e5761613d616022565b5b813561614e8482602086016160e7565b91505092915050565b6000806040838503121561616e5761616d615cdc565b5b600061617c85828601615f13565b925050602083013567ffffffffffffffff81111561619d5761619c615ce1565b5b6161a985828601616129565b9150509250929050565b7f4e487b7100000000000000000000000000000000000000000000000000000000600052602160045260246000fd5b600881106161f3576161f26161b3565b5b50565b6000819050616204826161e2565b919050565b6000616214826161f6565b9050919050565b61622481616209565b82525050565b600060208201905061623f600083018461621b565b92915050565b61624e81615da1565b811461625957600080fd5b50565b60008135905061626b81616245565b92915050565b60006020828403121561628757616286615cdc565b5b60006162958482850161625c565b91505092915050565b6162a781615d6b565b81146162b257600080fd5b50565b6000813590506162c48161629e565b92915050565b6000602082840312156162e0576162df615cdc565b5b60006162ee848285016162b5565b91505092915050565b600080fd5b600080fd5b60008083601f84011261631757616316616022565b5b8235905067ffffffffffffffff811115616334576163336162f7565b5b6020830191508360018202830111156163505761634f6162fc565b5b9250929050565b600080600080600080600060a0888a03121561637657616375615cdc565b5b60006163848a828b01615f13565b97505060206163958a828b01615f13565b96505060406163a68a828b01615f13565b955050606088013567ffffffffffffffff8111156163c7576163c6615ce1565b5b6163d38a828b01616301565b9450945050608088013567ffffffffffffffff8111156163f6576163f5615ce1565b5b6164028a828b01616301565b925092505092959891949750929550565b61641c81615eea565b82525050565b60006020820190506164376000830184616413565b92915050565b6004811061644a57600080fd5b50565b60008135905061645c8161643d565b92915050565b6000806000806060858703121561647c5761647b615cdc565b5b600085013567ffffffffffffffff81111561649a57616499615ce1565b5b6164a687828801616301565b945094505060206164b987828801615f76565b92505060406164ca8782880161644d565b91505092959194509250565b6164df81615ce6565b82525050565b60006020820190506164fa60008301846164d6565b92915050565b600067ffffffffffffffff82111561651b5761651a61602c565b5b61652482615e24565b9050602081019050919050565b600061654461653f84616500565b61608c565b9050828152602081018484840111156165605761655f616027565b5b61656b8482856160d8565b509392505050565b600082601f83011261658857616587616022565b5b8135616598848260208601616531565b91505092915050565b600080604083850312156165b8576165b7615cdc565b5b60006165c685828601615f76565b925050602083013567ffffffffffffffff8111156165e7576165e6615ce1565b5b6165f385828601616573565b9150509250929050565b6004811061660a57600080fd5b50565b60008135905061661c816165fd565b92915050565b6005811061662f57600080fd5b50565b60008135905061664181616622565b92915050565b60008060008060008060c0878903121561666457616663615cdc565b5b600061667289828a01615f76565b965050602061668389828a01615f76565b955050604061669489828a01615f13565b94505060606166a589828a0161660d565b93505060806166b689828a01616632565b92505060a087013567ffffffffffffffff8111156166d7576166d6615ce1565b5b6166e389828a01616129565b9150509295509295509295565b600080fd5b600080fd5b600060a082840312156167105761670f6166f0565b5b61671a60a061608c565b9050600061672a84828501615f76565b600083015250602061673e8482850161660d565b602083015250604061675284828501616632565b604083015250606082013567ffffffffffffffff811115616776576167756166f5565b5b61678284828501616573565b606083015250608082013567ffffffffffffffff8111156167a6576167a56166f5565b5b6167b284828501616129565b60808301525092915050565b600080604083850312156167d5576167d4615cdc565b5b600083013567ffffffffffffffff8111156167f3576167f2615ce1565b5b6167ff858286016166fa565b925050602083013567ffffffffffffffff8111156168205761681f615ce1565b5b61682c85828601616129565b9150509250929050565b7f4e487b7100000000000000000000000000000000000000000000000000000000600052602260045260246000fd5b6000600282049050600182168061687d57607f821691505b6020821081036168905761688f616836565b5b50919050565b7f56616c696461746f723a206f6e6c792065786973742076616c696461746f722060008201527f63616e2062652064697361626c65000000000000000000000000000000000000602082015250565b60006168f2602e83615de0565b91506168fd82616896565b604082019050919050565b60006020820190508181036000830152616921816168e5565b9050919050565b7f4e487b7100000000000000000000000000000000000000000000000000000000600052601160045260246000fd5b600061696282615e90565b915061696d83615e90565b9250828210156169805761697f616928565b5b828203905092915050565b7f61646d696e20616c7265616479206361737420766f7465000000000000000000600082015250565b60006169c1601783615de0565b91506169cc8261698b565b602082019050919050565b600060208201905081810360008301526169f0816169b4565b9050919050565b60048110616a0857616a076161b3565b5b50565b6000819050616a19826169f7565b919050565b6000616a2982616a0b565b9050919050565b616a3981616a1e565b82525050565b50565b6000616a4f600083615de0565b9150616a5a82616a3f565b600082019050919050565b6000604082019050616a7a6000830184616a30565b8181036020830152616a8b81616a42565b905092915050565b7f416363657373436f6e74726f6c3a2063616e206f6e6c792072656e6f756e636560008201527f20726f6c657320666f722073656c660000000000000000000000000000000000602082015250565b6000616aef602f83615de0565b9150616afa82616a93565b604082019050919050565b60006020820190508181036000830152616b1e81616ae2565b9050919050565b7f46756e6374696f6e206d7573742062652063616c6c6564207468726f7567682060008201527f64656c656761746563616c6c0000000000000000000000000000000000000000602082015250565b6000616b81602c83615de0565b9150616b8c82616b25565b604082019050919050565b60006020820190508181036000830152616bb081616b74565b9050919050565b7f46756e6374696f6e206d7573742062652063616c6c6564207468726f7567682060008201527f6163746976652070726f78790000000000000000000000000000000000000000602082015250565b6000616c13602c83615de0565b9150616c1e82616bb7565b604082019050919050565b60006020820190508181036000830152616c4281616c06565b9050919050565b7f555550535570677261646561626c653a206d757374206e6f742062652063616c60008201527f6c6564207468726f7567682064656c656761746563616c6c0000000000000000602082015250565b6000616ca5603883615de0565b9150616cb082616c49565b604082019050919050565b60006020820190508181036000830152616cd481616c98565b9050919050565b7f70726f706f73616c496420697320696e76616c69640000000000000000000000600082015250565b6000616d11601583615de0565b9150616d1c82616cdb565b602082019050919050565b60006020820190508181036000830152616d4081616d04565b9050919050565b6000819050919050565b600060ff82169050919050565b6000819050919050565b6000616d83616d7e616d7984616d47565b616d5e565b616d51565b9050919050565b616d9381616d68565b82525050565b6000602082019050616dae6000830184616d8a565b92915050565b7f476f7665726e6f723a206f6e6c792076616c696461746f72207065726d69747460008201527f6564000000000000000000000000000000000000000000000000000000000000602082015250565b6000616e10602283615de0565b9150616e1b82616db4565b604082019050919050565b60006020820190508181036000830152616e3f81616e03565b9050919050565b7f476f7665726e6f72203a206f6e6c792070726f706f7365722063616e2063616e60008201527f63656c0000000000000000000000000000000000000000000000000000000000602082015250565b6000616ea2602383615de0565b9150616ead82616e46565b604082019050919050565b60006020820190508181036000830152616ed181616e95565b9050919050565b7f476f7665726e6f723a2070726f706f73616c206e6f7420616374697665000000600082015250565b6000616f0e601d83615de0565b9150616f1982616ed8565b602082019050919050565b60006020820190508181036000830152616f3d81616f01565b9050919050565b7f476f7665726e6f723a2070726f706f73616c20616c72656164792063616e636560008201527f6c65640000000000000000000000000000000000000000000000000000000000602082015250565b6000616fa0602383615de0565b9150616fab82616f44565b604082019050919050565b60006020820190508181036000830152616fcf81616f93565b9050919050565b60048110616fe757616fe66161b3565b5b50565b6000819050616ff882616fd6565b919050565b600061700882616fea565b9050919050565b61701881616ffd565b82525050565b6005811061702f5761702e6161b3565b5b50565b60008190506170408261701e565b919050565b600061705082617032565b9050919050565b61706081617045565b82525050565b600081519050919050565b600082825260208201905092915050565b600061708d82617066565b6170978185617071565b93506170a7818560208601615df1565b6170b081615e24565b840191505092915050565b600060c0820190506170d06000830189615fb8565b6170dd6020830188615fb8565b6170ea6040830187616413565b6170f7606083018661700f565b6171046080830185617057565b81810360a08301526171168184617082565b9050979650505050505050565b7f476f7665726e6f723a2070726f706f73616c206e6f742073756363657373667560008201527f6c00000000000000000000000000000000000000000000000000000000000000602082015250565b600061717f602183615de0565b915061718a82617123565b604082019050919050565b600060208201905081810360008301526171ae81617172565b9050919050565b7f476f7665726e6f723a206f6e6c792076616c696461746f72206f7220416d696e60008201527f2063616e207065726d6974746564000000000000000000000000000000000000602082015250565b6000617211602e83615de0565b915061721c826171b5565b604082019050919050565b6000602082019050818103600083015261724081617204565b9050919050565b7f70726f706f73616c20747970652073686f756c64206e6f74206265204e4f4e45600082015250565b600061727d602083615de0565b915061728882617247565b602082019050919050565b600060208201905081810360008301526172ac81617270565b9050919050565b7f616374696f6e20747970652073686f756c64206e6f74206265204e4f4e450000600082015250565b60006172e9601e83615de0565b91506172f4826172b3565b602082019050919050565b60006020820190508181036000830152617318816172dc565b9050919050565b7f646174612073686f756c64206e6f7420626520656d7074790000000000000000600082015250565b6000617355601883615de0565b91506173608261731f565b602082019050919050565b6000602082019050818103600083015261738481617348565b9050919050565b7f61646d696e2070726f706f7365206f6e6c792076616c696461746f7200000000600082015250565b60006173c1601c83615de0565b91506173cc8261738b565b602082019050919050565b600060208201905081810360008301526173f0816173b4565b9050919050565b7f76616c696461746f7220636f75646e27742070726f706f73652076616c69646160008201527f746f720000000000000000000000000000000000000000000000000000000000602082015250565b6000617453602383615de0565b915061745e826173f7565b604082019050919050565b6000602082019050818103600083015261748281617446565b9050919050565b600081905092915050565b600061749f82615dd5565b6174a98185617489565b93506174b9818560208601615df1565b80840191505092915050565b60006174d18284617494565b915081905092915050565b6174e581616d51565b82525050565b600060208201905061750060008301846174dc565b92915050565b600060408201905061751b6000830185615fb8565b6175286020830184616413565b9392505050565b60008151905061753e8161629e565b92915050565b60006020828403121561755a57617559615cdc565b5b60006175688482850161752f565b91505092915050565b7f70726f706f73616c206372656174696f6e207065726d697373696f6e2064656e60008201527f6965640000000000000000000000000000000000000000000000000000000000602082015250565b60006175cd602383615de0565b91506175d882617571565b604082019050919050565b600060208201905081810360008301526175fc816175c0565b9050919050565b600067ffffffffffffffff82169050919050565b600061762282617603565b915061762d83617603565b92508267ffffffffffffffff0382111561764a57617649616928565b5b828201905092915050565b600061766861766384616500565b61608c565b90508281526020810184848401111561768457617683616027565b5b61768f848285615df1565b509392505050565b600082601f8301126176ac576176ab616022565b5b81516176bc848260208601617655565b91505092915050565b6000815190506176d481615efc565b92915050565b6000604082840312156176f0576176ef6166f0565b5b6176fa604061608c565b9050600082015167ffffffffffffffff81111561771a576177196166f5565b5b61772684828501617697565b600083015250602061773a848285016176c5565b60208301525092915050565b60006020828403121561775c5761775b615cdc565b5b600082015167ffffffffffffffff81111561777a57617779615ce1565b5b617786848285016176da565b91505092915050565b600061779a82615e90565b91506177a583615e90565b92508263ffffffff038211156177be576177bd616928565b5b828201905092915050565b6000815190506177d881616245565b92915050565b600061ffff82169050919050565b6177f5816177de565b811461780057600080fd5b50565b600081519050617812816177ec565b92915050565b60006080828403121561782e5761782d6166f0565b5b617838608061608c565b9050600082015167ffffffffffffffff811115617858576178576166f5565b5b61786484828501617697565b6000830152506020617878848285016177c9565b602083015250604061788c848285016176c5565b60408301525060606178a084828501617803565b60608301525092915050565b6000602082840312156178c2576178c1615cdc565b5b600082015167ffffffffffffffff8111156178e0576178df615ce1565b5b6178ec84828501617818565b91505092915050565b600061790082615da1565b915061790b83615da1565b9250817fffffffffffffffffffffffffffffffffffffffffffffffffffffffffffffffff048311821515161561794457617943616928565b5b828202905092915050565b7f4e487b7100000000000000000000000000000000000000000000000000000000600052601260045260246000fd5b600061798982615da1565b915061799483615da1565b9250826179a4576179a361794f565b5b828204905092915050565b6000608082840312156179c5576179c46166f0565b5b6179cf608061608c565b9050600082015167ffffffffffffffff8111156179ef576179ee6166f5565b5b6179fb84828501617697565b6000830152506020617a0f848285016177c9565b6020830152506040617a23848285016176c5565b6040830152506060617a3784828501617803565b60608301525092915050565b600060208284031215617a5957617a58615cdc565b5b600082015167ffffffffffffffff811115617a7757617a76615ce1565b5b617a83848285016179af565b91505092915050565b600060208284031215617aa257617aa16166f0565b5b617aac602061608c565b90506000617abc848285016176c5565b60008301525092915050565b600060208284031215617ade57617add615cdc565b5b6000617aec84828501617a8c565b91505092915050565b600060208284031215617b0b57617b0a6166f0565b5b617b15602061608c565b90506000617b25848285016176c5565b60008301525092915050565b600060208284031215617b4757617b46615cdc565b5b6000617b5584828501617af5565b91505092915050565b600081519050617b6d81615f5f565b92915050565b600060208284031215617b8957617b88615cdc565b5b6000617b9784828501617b5e565b91505092915050565b7f45524331393637557067726164653a206e657720696d706c656d656e7461746960008201527f6f6e206973206e6f742055555053000000000000000000000000000000000000602082015250565b6000617bfc602e83615de0565b9150617c0782617ba0565b604082019050919050565b60006020820190508181036000830152617c2b81617bef565b9050919050565b7f45524331393637557067726164653a20756e737570706f727465642070726f7860008201527f6961626c65555549440000000000000000000000000000000000000000000000602082015250565b6000617c8e602983615de0565b9150617c9982617c32565b604082019050919050565b60006020820190508181036000830152617cbd81617c81565b9050919050565b6000617ccf82615e90565b9150617cda83615e90565b925082617cea57617ce961794f565b5b828204905092915050565b7f496e697469616c697a61626c653a20636f6e747261637420697320616c72656160008201527f647920696e697469616c697a6564000000000000000000000000000000000000602082015250565b6000617d51602e83615de0565b9150617d5c82617cf5565b604082019050919050565b60006020820190508181036000830152617d8081617d44565b9050919050565b7f476f7665726e6f723a20766f746520696e76616c696400000000000000000000600082015250565b6000617dbd601683615de0565b9150617dc882617d87565b602082019050919050565b60006020820190508181036000830152617dec81617db0565b9050919050565b7f476f7665726e6f723a2070726f706f73616c2063757272656e746c7920696e6160008201527f6374697665000000000000000000000000000000000000000000000000000000602082015250565b6000617e4f602583615de0565b9150617e5a82617df3565b604082019050919050565b60006020820190508181036000830152617e7e81617e42565b9050919050565b7f476f7665726e6f723a20766f746520616c726561647920636173740000000000600082015250565b6000617ebb601b83615de0565b9150617ec682617e85565b602082019050919050565b60006020820190508181036000830152617eea81617eae565b9050919050565b6000604082019050617f066000830185616a30565b8181036020830152617f188184615e35565b90509392505050565b600081905092915050565b6000617f3782617066565b617f418185617f21565b9350617f51818560208601615df1565b80840191505092915050565b6000617f698284617f2c565b915081905092915050565b600060e082019050617f89600083018a615fb8565b617f966020830189615fb8565b617fa36040830188615fb8565b617fb06060830187616413565b617fbd608083018661700f565b617fca60a0830185617057565b617fd760c0830184615fb8565b98975050505050505050565b7f76616c696461746f7220616464726573732073686f756c64206e6f742062652060008201527f7a65726f00000000000000000000000000000000000000000000000000000000602082015250565b600061803f602483615de0565b915061804a82617fe3565b604082019050919050565b6000602082019050818103600083015261806e81618032565b9050919050565b7f76616c696461746f72206e616d652073686f756c64206e6f7420626520656d7060008201527f7479000000000000000000000000000000000000000000000000000000000000602082015250565b60006180d1602283615de0565b91506180dc82618075565b604082019050919050565b60006020820190508181036000830152618100816180c4565b9050919050565b7f76616c696461746f72454f4120616c7265616479206578697374730000000000600082015250565b600061813d601b83615de0565b915061814882618107565b602082019050919050565b6000602082019050818103600083015261816c81618130565b9050919050565b60006060820190506181886000830186615fb8565b6181956020830185615fb8565b81810360408301526181a78184615e35565b9050949350505050565b7f73746172747570206e616d652073686f756c64206e6f7420626520656d707479600082015250565b60006181e7602083615de0565b91506181f2826181b1565b602082019050919050565b60006020820190508181036000830152618216816181da565b9050919050565b7f7374617274757020746f6b656e206f666665722073686f756c64206e6f74206260008201527f65207a65726f0000000000000000000000000000000000000000000000000000602082015250565b6000618279602683615de0565b91506182848261821d565b604082019050919050565b600060208201905081810360008301526182a88161826c565b9050919050565b7f7374617274757020736861726564207374616b652073686f756c64206e6f742060008201527f6265207a65726f00000000000000000000000000000000000000000000000000602082015250565b600061830b602783615de0565b9150618316826182af565b604082019050919050565b6000602082019050818103600083015261833a816182fe565b9050919050565b7f7374617274757020454f412073686f756c64206e6f74206265207a65726f0000600082015250565b6000618377601e83615de0565b915061838282618341565b602082019050919050565b600060208201905081810360008301526183a68161836a565b9050919050565b7f73746172747570454f4120616c72656164792065786973747300000000000000600082015250565b60006183e3601983615de0565b91506183ee826183ad565b602082019050919050565b60006020820190508181036000830152618412816183d6565b9050919050565b618422816177de565b82525050565b600060a08201905061843d6000830188615dab565b61844a6020830187615fb8565b6184576040830186615fb8565b81810360608301526184698185615e35565b90506184786080830184618419565b9695505050505050565b7f76616c696461746f7220454f412073686f756c64206e6f74206265207a65726f600082015250565b60006184b8602083615de0565b91506184c382618482565b602082019050919050565b600060208201905081810360008301526184e7816184ab565b9050919050565b7f76616c696461746f72454f4120646f65736e2774206578697374730000000000600082015250565b6000618524601b83615de0565b915061852f826184ee565b602082019050919050565b6000602082019050818103600083015261855381618517565b9050919050565b7f467265657a653a206163636f756e742073686f756c64206e6f74206265207a6560008201527f726f000000000000000000000000000000000000000000000000000000000000602082015250565b60006185b6602283615de0565b91506185c18261855a565b604082019050919050565b600060208201905081810360008301526185e5816185a9565b9050919050565b60006040820190506186016000830185615fb8565b61860e6020830184615fb8565b9392505050565b7f556e667265657a653a206163636f756e742073686f756c64206e6f742062652060008201527f7a65726f00000000000000000000000000000000000000000000000000000000602082015250565b6000618671602483615de0565b915061867c82618615565b604082019050919050565b600060208201905081810360008301526186a081618664565b9050919050565b7f416363657373436f6e74726f6c3a206163636f756e7420000000000000000000600082015250565b60006186dd601783617489565b91506186e8826186a7565b601782019050919050565b7f206973206d697373696e6720726f6c6520000000000000000000000000000000600082015250565b6000618729601183617489565b9150618734826186f3565b601182019050919050565b600061874a826186d0565b91506187568285617494565b91506187618261871c565b915061876d8284617494565b91508190509392505050565b600060608201905061878e6000830186616413565b61879b6020830185616413565b6187a86040830184615dab565b949350505050565b7f457865637574653a207472616e73666572206661696c65732120000000000000600082015250565b60006187e6601a83615de0565b91506187f1826187b0565b602082019050919050565b60006020820190508181036000830152618815816187d9565b9050919050565b600061882782615da1565b91507fffffffffffffffffffffffffffffffffffffffffffffffffffffffffffffffff820361885957618858616928565b5b600182019050919050565b7f457865637574653a20667265657a65206163636f756e74206661696c65640000600082015250565b600061889a601e83615de0565b91506188a582618864565b602082019050919050565b600060208201905081810360008301526188c98161888d565b9050919050565b7f457865637574653a20556e667265657a65206163636f756e74206661696c6564600082015250565b6000618906602083615de0565b9150618911826188d0565b602082019050919050565b60006020820190508181036000830152618935816188f9565b9050919050565b7f455243313936373a206e657720696d706c656d656e746174696f6e206973206e60008201527f6f74206120636f6e747261637400000000000000000000000000000000000000602082015250565b6000618998602d83615de0565b91506189a38261893c565b604082019050919050565b600060208201905081810360008301526189c78161898b565b9050919050565b60008190508160005260206000209050919050565b600081546189f081616865565b6189fa8186617489565b94506001821660008114618a155760018114618a2657618a59565b60ff19831686528186019350618a59565b618a2f856189ce565b60005b83811015618a5157815481890152600182019150602081019050618a32565b838801955050505b50505092915050565b6000618a6e82846189e3565b915081905092915050565b600060a082019050618a8e6000830188615fb8565b618a9b6020830187615fb8565b618aa86040830186615fb8565b618ab56060830185615dab565b618ac26080830184616413565b9695505050505050565b7f1901000000000000000000000000000000000000000000000000000000000000600082015250565b6000618b02600283617489565b9150618b0d82618acc565b600282019050919050565b6000819050919050565b618b33618b2e82615f55565b618b18565b82525050565b6000618b4482618af5565b9150618b508285618b22565b602082019150618b608284618b22565b6020820191508190509392505050565b6000608082019050618b856000830187615fb8565b618b9260208301866174dc565b618b9f6040830185615fb8565b618bac6060830184615fb8565b95945050505050565b6000618bc082615da1565b9150618bcb83615da1565b9250827fffffffffffffffffffffffffffffffffffffffffffffffffffffffffffffffff03821115618c0057618bff616928565b5b828201905092915050565b7f4e487b7100000000000000000000000000000000000000000000000000000000600052603260045260246000fd5b6000618c4582615da1565b915060008203618c5857618c57616928565b5b600182039050919050565b7f537472696e67733a20686578206c656e67746820696e73756666696369656e74600082015250565b6000618c99602083615de0565b9150618ca482618c63565b602082019050919050565b60006020820190508181036000830152618cc881618c8c565b9050919050565b7f416464726573733a2064656c65676174652063616c6c20746f206e6f6e2d636f60008201527f6e74726163740000000000000000000000000000000000000000000000000000602082015250565b6000618d2b602683615de0565b9150618d3682618ccf565b604082019050919050565b60006020820190508181036000830152618d5a81618d1e565b905091905056fe416464726573733a206c6f772d6c6576656c2064656c65676174652063616c6c206661696c6564a2646970667358221220ae229b55f7cd115ca714d0f61ae412edfe0ba20fe19eb6269fcffcace34dbbb664736f6c634300080e0033",
  "linkReferences": {},
  "deployedLinkReferences": {},
  "devdoc": {
    "kind": "dev",
    "methods": {
      "cancel(bytes32,string)": {
        "details": "Cancel a proposal. Cancels a proposal only if sender is the proposer. We need to decide to conditions of consensus cancelation Emits a {ProposalCanceled} event."
      },
      "castVote(string,bytes32,uint8)": {
        "details": "Cast a vote Emits a {VoteCast} event."
      },
      "castVoteAdmin(bytes32)": {
        "details": "Cast a vote Emits a {VoteCast} event."
      },
      "disableValidator(address)": {
        "details": "disableValidator\""
      },
      "execute(bytes32)": {
        "details": "Execute a successful proposal. This requires the quorum to be reached, the vote to be successful, and the deadline to be reached. Emits a {ProposalExecuted} event."
      },
      "getRoleAdmin(bytes32)": {
        "details": "Returns the admin role that controls `role`. See {grantRole} and {revokeRole}. To change a role's admin, use {_setRoleAdmin}."
      },
      "grantRole(bytes32,address)": {
        "details": "Grants `role` to `account`. If `account` had not been already granted `role`, emits a {RoleGranted} event. Requirements: - the caller must have ``role``'s admin role."
      },
      "hasRole(bytes32,address)": {
        "details": "Returns `true` if `account` has been granted `role`."
      },
      "hasVoted(bytes32,address)": {
        "details": "Returns weither `account` has cast a vote on `proposalId`."
      },
      "hashProposal(bytes32,bytes32,address,uint8,uint8,bytes)": {
        "details": "Hashing function used to (re)build the proposal id from the proposal ..."
      },
      "isStartup(address)": {
        "details": "isStartup"
      },
      "isValidator(address)": {
        "details": "isValidator"
      },
      "name()": {
        "details": "Name of the governor instance (used in building the ERC712 domain separator)."
      },
      "proxiableUUID()": {
        "details": "Implementation of the ERC1822 {proxiableUUID} function. This returns the storage slot used by the implementation. It is used to validate that the this implementation remains valid after an upgrade. IMPORTANT: A proxy pointing at a proxiable contract should not be considered proxiable itself, because this risks bricking a proxy that upgrades to it, by delegating to itself until out of gas. Thus it is critical that this function revert if invoked through a proxy. This is guaranteed by the `notDelegated` modifier."
      },
      "renounceRole(bytes32,address)": {
        "details": "Revokes `role` from the calling account. Roles are often managed via {grantRole} and {revokeRole}: this function's purpose is to provide a mechanism for accounts to lose their privileges if they are compromised (such as when a trusted device is misplaced). If the calling account had been revoked `role`, emits a {RoleRevoked} event. Requirements: - the caller must be `account`."
      },
      "revokeRole(bytes32,address)": {
        "details": "Revokes `role` from `account`. If `account` had been granted `role`, emits a {RoleRevoked} event. Requirements: - the caller must have ``role``'s admin role."
      },
      "state(bytes32)": {
        "details": "See {IGovernor-state}. need to change the state machine"
      },
      "supportsInterface(bytes4)": {
        "details": "See {IERC165-supportsInterface}."
      },
      "upgradeTo(address)": {
        "details": "Upgrade the implementation of the proxy to `newImplementation`. Calls {_authorizeUpgrade}. Emits an {Upgraded} event."
      },
      "upgradeToAndCall(address,bytes)": {
        "details": "Upgrade the implementation of the proxy to `newImplementation`, and subsequently execute the function call encoded in `data`. Calls {_authorizeUpgrade}. Emits an {Upgraded} event."
      },
      "version()": {
        "details": "Version of the governor instance (used in building the ERC712 domain separator). Default: \"1\""
      }
    },
    "version": 1
  },
  "evm": {
    "bytecode": {
      "linkReferences": {},
      "opcodes": "PUSH1 0xA0 PUSH1 0x40 MSTORE ADDRESS PUSH20 0xFFFFFFFFFFFFFFFFFFFFFFFFFFFFFFFFFFFFFFFF AND PUSH1 0x80 SWAP1 PUSH20 0xFFFFFFFFFFFFFFFFFFFFFFFFFFFFFFFFFFFFFFFF AND DUP2 MSTORE POP CALLVALUE DUP1 ISZERO PUSH3 0x44 JUMPI PUSH1 0x0 DUP1 REVERT JUMPDEST POP PUSH1 0x80 MLOAD PUSH2 0x8DBE PUSH3 0x7D PUSH1 0x0 CODECOPY PUSH1 0x0 DUP2 DUP2 PUSH2 0xF95 ADD MSTORE DUP2 DUP2 PUSH2 0x1023 ADD MSTORE DUP2 DUP2 PUSH2 0x1137 ADD MSTORE DUP2 DUP2 PUSH2 0x11C5 ADD MSTORE PUSH2 0x1275 ADD MSTORE PUSH2 0x8DBE PUSH1 0x0 RETURN INVALID PUSH1 0x80 PUSH1 0x40 MSTORE PUSH1 0x4 CALLDATASIZE LT PUSH2 0x246 JUMPI PUSH1 0x0 CALLDATALOAD PUSH1 0xE0 SHR DUP1 PUSH4 0x75B238FC GT PUSH2 0x139 JUMPI DUP1 PUSH4 0xBE5967EA GT PUSH2 0xB6 JUMPI DUP1 PUSH4 0xE751F271 GT PUSH2 0x7A JUMPI DUP1 PUSH4 0xE751F271 EQ PUSH2 0x8C1 JUMPI DUP1 PUSH4 0xEA0217CF EQ PUSH2 0x8F1 JUMPI DUP1 PUSH4 0xF8C662FF EQ PUSH2 0x91A JUMPI DUP1 PUSH4 0xFA2DABAD EQ PUSH2 0x945 JUMPI DUP1 PUSH4 0xFACD743B EQ PUSH2 0x970 JUMPI DUP1 PUSH4 0xFF666653 EQ PUSH2 0x9AD JUMPI PUSH2 0x246 JUMP JUMPDEST DUP1 PUSH4 0xBE5967EA EQ PUSH2 0x7DA JUMPI DUP1 PUSH4 0xC0E6D5D6 EQ PUSH2 0x817 JUMPI DUP1 PUSH4 0xC22AB4E0 EQ PUSH2 0x842 JUMPI DUP1 PUSH4 0xD547741F EQ PUSH2 0x86D JUMPI DUP1 PUSH4 0xE0310E52 EQ PUSH2 0x896 JUMPI PUSH2 0x246 JUMP JUMPDEST DUP1 PUSH4 0xA217FDDF GT PUSH2 0xFD JUMPI DUP1 PUSH4 0xA217FDDF EQ PUSH2 0x6CD JUMPI DUP1 PUSH4 0xA5D79624 EQ PUSH2 0x6F8 JUMPI DUP1 PUSH4 0xAADC3B72 EQ PUSH2 0x735 JUMPI DUP1 PUSH4 0xAFDF6710 EQ PUSH2 0x772 JUMPI DUP1 PUSH4 0xB7D6FE24 EQ PUSH2 0x79D JUMPI PUSH2 0x246 JUMP JUMPDEST DUP1 PUSH4 0x75B238FC EQ PUSH2 0x5E8 JUMPI DUP1 PUSH4 0x7F1E250C EQ PUSH2 0x613 JUMPI DUP1 PUSH4 0x83B43589 EQ PUSH2 0x63C JUMPI DUP1 PUSH4 0x91D14854 EQ PUSH2 0x665 JUMPI DUP1 PUSH4 0x97C0262A EQ PUSH2 0x6A2 JUMPI PUSH2 0x246 JUMP JUMPDEST DUP1 PUSH4 0x36568ABE GT PUSH2 0x1C7 JUMPI DUP1 PUSH4 0x52D1902D GT PUSH2 0x18B JUMPI DUP1 PUSH4 0x52D1902D EQ PUSH2 0x4EF JUMPI DUP1 PUSH4 0x54FD4D50 EQ PUSH2 0x51A JUMPI DUP1 PUSH4 0x5AE766F3 EQ PUSH2 0x545 JUMPI DUP1 PUSH4 0x61D585DA EQ PUSH2 0x582 JUMPI DUP1 PUSH4 0x70B0F660 EQ PUSH2 0x5BF JUMPI PUSH2 0x246 JUMP JUMPDEST DUP1 PUSH4 0x36568ABE EQ PUSH2 0x42B JUMPI DUP1 PUSH4 0x3659CFE6 EQ PUSH2 0x454 JUMPI DUP1 PUSH4 0x3932ABB1 EQ PUSH2 0x47D JUMPI DUP1 PUSH4 0x41863ED6 EQ PUSH2 0x4A8 JUMPI DUP1 PUSH4 0x4F1EF286 EQ PUSH2 0x4D3 JUMPI PUSH2 0x246 JUMP JUMPDEST DUP1 PUSH4 0x248A9CA3 GT PUSH2 0x20E JUMPI DUP1 PUSH4 0x248A9CA3 EQ PUSH2 0x332 JUMPI DUP1 PUSH4 0x25CE7586 EQ PUSH2 0x36F JUMPI DUP1 PUSH4 0x2F2FF15D EQ PUSH2 0x39A JUMPI DUP1 PUSH4 0x30D9B773 EQ PUSH2 0x3C3 JUMPI DUP1 PUSH4 0x33F3533B EQ PUSH2 0x400 JUMPI PUSH2 0x246 JUMP JUMPDEST DUP1 PUSH4 0x1FFC9A7 EQ PUSH2 0x24B JUMPI DUP1 PUSH4 0x2A251A3 EQ PUSH2 0x288 JUMPI DUP1 PUSH4 0x6FDDE03 EQ PUSH2 0x2B3 JUMPI DUP1 PUSH4 0xF43A677 EQ PUSH2 0x2DE JUMPI DUP1 PUSH4 0x1FE97684 EQ PUSH2 0x309 JUMPI JUMPDEST PUSH1 0x0 DUP1 REVERT JUMPDEST CALLVALUE DUP1 ISZERO PUSH2 0x257 JUMPI PUSH1 0x0 DUP1 REVERT JUMPDEST POP PUSH2 0x272 PUSH1 0x4 DUP1 CALLDATASIZE SUB DUP2 ADD SWAP1 PUSH2 0x26D SWAP2 SWAP1 PUSH2 0x5D3E JUMP JUMPDEST PUSH2 0x9EA JUMP JUMPDEST PUSH1 0x40 MLOAD PUSH2 0x27F SWAP2 SWAP1 PUSH2 0x5D86 JUMP JUMPDEST PUSH1 0x40 MLOAD DUP1 SWAP2 SUB SWAP1 RETURN JUMPDEST CALLVALUE DUP1 ISZERO PUSH2 0x294 JUMPI PUSH1 0x0 DUP1 REVERT JUMPDEST POP PUSH2 0x29D PUSH2 0xA64 JUMP JUMPDEST PUSH1 0x40 MLOAD PUSH2 0x2AA SWAP2 SWAP1 PUSH2 0x5DBA JUMP JUMPDEST PUSH1 0x40 MLOAD DUP1 SWAP2 SUB SWAP1 RETURN JUMPDEST CALLVALUE DUP1 ISZERO PUSH2 0x2BF JUMPI PUSH1 0x0 DUP1 REVERT JUMPDEST POP PUSH2 0x2C8 PUSH2 0xA6A JUMP JUMPDEST PUSH1 0x40 MLOAD PUSH2 0x2D5 SWAP2 SWAP1 PUSH2 0x5E6E JUMP JUMPDEST PUSH1 0x40 MLOAD DUP1 SWAP2 SUB SWAP1 RETURN JUMPDEST CALLVALUE DUP1 ISZERO PUSH2 0x2EA JUMPI PUSH1 0x0 DUP1 REVERT JUMPDEST POP PUSH2 0x2F3 PUSH2 0xAFD JUMP JUMPDEST PUSH1 0x40 MLOAD PUSH2 0x300 SWAP2 SWAP1 PUSH2 0x5EAF JUMP JUMPDEST PUSH1 0x40 MLOAD DUP1 SWAP2 SUB SWAP1 RETURN JUMPDEST CALLVALUE DUP1 ISZERO PUSH2 0x315 JUMPI PUSH1 0x0 DUP1 REVERT JUMPDEST POP PUSH2 0x330 PUSH1 0x4 DUP1 CALLDATASIZE SUB DUP2 ADD SWAP1 PUSH2 0x32B SWAP2 SWAP1 PUSH2 0x5F28 JUMP JUMPDEST PUSH2 0xB14 JUMP JUMPDEST STOP JUMPDEST CALLVALUE DUP1 ISZERO PUSH2 0x33E JUMPI PUSH1 0x0 DUP1 REVERT JUMPDEST POP PUSH2 0x359 PUSH1 0x4 DUP1 CALLDATASIZE SUB DUP2 ADD SWAP1 PUSH2 0x354 SWAP2 SWAP1 PUSH2 0x5F8B JUMP JUMPDEST PUSH2 0xCF4 JUMP JUMPDEST PUSH1 0x40 MLOAD PUSH2 0x366 SWAP2 SWAP1 PUSH2 0x5FC7 JUMP JUMPDEST PUSH1 0x40 MLOAD DUP1 SWAP2 SUB SWAP1 RETURN JUMPDEST CALLVALUE DUP1 ISZERO PUSH2 0x37B JUMPI PUSH1 0x0 DUP1 REVERT JUMPDEST POP PUSH2 0x384 PUSH2 0xD14 JUMP JUMPDEST PUSH1 0x40 MLOAD PUSH2 0x391 SWAP2 SWAP1 PUSH2 0x5EAF JUMP JUMPDEST PUSH1 0x40 MLOAD DUP1 SWAP2 SUB SWAP1 RETURN JUMPDEST CALLVALUE DUP1 ISZERO PUSH2 0x3A6 JUMPI PUSH1 0x0 DUP1 REVERT JUMPDEST POP PUSH2 0x3C1 PUSH1 0x4 DUP1 CALLDATASIZE SUB DUP2 ADD SWAP1 PUSH2 0x3BC SWAP2 SWAP1 PUSH2 0x5FE2 JUMP JUMPDEST PUSH2 0xD2B JUMP JUMPDEST STOP JUMPDEST CALLVALUE DUP1 ISZERO PUSH2 0x3CF JUMPI PUSH1 0x0 DUP1 REVERT JUMPDEST POP PUSH2 0x3EA PUSH1 0x4 DUP1 CALLDATASIZE SUB DUP2 ADD SWAP1 PUSH2 0x3E5 SWAP2 SWAP1 PUSH2 0x5F8B JUMP JUMPDEST PUSH2 0xD4C JUMP JUMPDEST PUSH1 0x40 MLOAD PUSH2 0x3F7 SWAP2 SWAP1 PUSH2 0x5D86 JUMP JUMPDEST PUSH1 0x40 MLOAD DUP1 SWAP2 SUB SWAP1 RETURN JUMPDEST CALLVALUE DUP1 ISZERO PUSH2 0x40C JUMPI PUSH1 0x0 DUP1 REVERT JUMPDEST POP PUSH2 0x415 PUSH2 0xEFC JUMP JUMPDEST PUSH1 0x40 MLOAD PUSH2 0x422 SWAP2 SWAP1 PUSH2 0x5D86 JUMP JUMPDEST PUSH1 0x40 MLOAD DUP1 SWAP2 SUB SWAP1 RETURN JUMPDEST CALLVALUE DUP1 ISZERO PUSH2 0x437 JUMPI PUSH1 0x0 DUP1 REVERT JUMPDEST POP PUSH2 0x452 PUSH1 0x4 DUP1 CALLDATASIZE SUB DUP2 ADD SWAP1 PUSH2 0x44D SWAP2 SWAP1 PUSH2 0x5FE2 JUMP JUMPDEST PUSH2 0xF10 JUMP JUMPDEST STOP JUMPDEST CALLVALUE DUP1 ISZERO PUSH2 0x460 JUMPI PUSH1 0x0 DUP1 REVERT JUMPDEST POP PUSH2 0x47B PUSH1 0x4 DUP1 CALLDATASIZE SUB DUP2 ADD SWAP1 PUSH2 0x476 SWAP2 SWAP1 PUSH2 0x5F28 JUMP JUMPDEST PUSH2 0xF93 JUMP JUMPDEST STOP JUMPDEST CALLVALUE DUP1 ISZERO PUSH2 0x489 JUMPI PUSH1 0x0 DUP1 REVERT JUMPDEST POP PUSH2 0x492 PUSH2 0x111B JUMP JUMPDEST PUSH1 0x40 MLOAD PUSH2 0x49F SWAP2 SWAP1 PUSH2 0x5DBA JUMP JUMPDEST PUSH1 0x40 MLOAD DUP1 SWAP2 SUB SWAP1 RETURN JUMPDEST CALLVALUE DUP1 ISZERO PUSH2 0x4B4 JUMPI PUSH1 0x0 DUP1 REVERT JUMPDEST POP PUSH2 0x4BD PUSH2 0x1121 JUMP JUMPDEST PUSH1 0x40 MLOAD PUSH2 0x4CA SWAP2 SWAP1 PUSH2 0x5D86 JUMP JUMPDEST PUSH1 0x40 MLOAD DUP1 SWAP2 SUB SWAP1 RETURN JUMPDEST PUSH2 0x4ED PUSH1 0x4 DUP1 CALLDATASIZE SUB DUP2 ADD SWAP1 PUSH2 0x4E8 SWAP2 SWAP1 PUSH2 0x6157 JUMP JUMPDEST PUSH2 0x1135 JUMP JUMPDEST STOP JUMPDEST CALLVALUE DUP1 ISZERO PUSH2 0x4FB JUMPI PUSH1 0x0 DUP1 REVERT JUMPDEST POP PUSH2 0x504 PUSH2 0x1271 JUMP JUMPDEST PUSH1 0x40 MLOAD PUSH2 0x511 SWAP2 SWAP1 PUSH2 0x5FC7 JUMP JUMPDEST PUSH1 0x40 MLOAD DUP1 SWAP2 SUB SWAP1 RETURN JUMPDEST CALLVALUE DUP1 ISZERO PUSH2 0x526 JUMPI PUSH1 0x0 DUP1 REVERT JUMPDEST POP PUSH2 0x52F PUSH2 0x132A JUMP JUMPDEST PUSH1 0x40 MLOAD PUSH2 0x53C SWAP2 SWAP1 PUSH2 0x5E6E JUMP JUMPDEST PUSH1 0x40 MLOAD DUP1 SWAP2 SUB SWAP1 RETURN JUMPDEST CALLVALUE DUP1 ISZERO PUSH2 0x551 JUMPI PUSH1 0x0 DUP1 REVERT JUMPDEST POP PUSH2 0x56C PUSH1 0x4 DUP1 CALLDATASIZE SUB DUP2 ADD SWAP1 PUSH2 0x567 SWAP2 SWAP1 PUSH2 0x5F28 JUMP JUMPDEST PUSH2 0x13BD JUMP JUMPDEST PUSH1 0x40 MLOAD PUSH2 0x579 SWAP2 SWAP1 PUSH2 0x5D86 JUMP JUMPDEST PUSH1 0x40 MLOAD DUP1 SWAP2 SUB SWAP1 RETURN JUMPDEST CALLVALUE DUP1 ISZERO PUSH2 0x58E JUMPI PUSH1 0x0 DUP1 REVERT JUMPDEST POP PUSH2 0x5A9 PUSH1 0x4 DUP1 CALLDATASIZE SUB DUP2 ADD SWAP1 PUSH2 0x5A4 SWAP2 SWAP1 PUSH2 0x5F8B JUMP JUMPDEST PUSH2 0x1494 JUMP JUMPDEST PUSH1 0x40 MLOAD PUSH2 0x5B6 SWAP2 SWAP1 PUSH2 0x622A JUMP JUMPDEST PUSH1 0x40 MLOAD DUP1 SWAP2 SUB SWAP1 RETURN JUMPDEST CALLVALUE DUP1 ISZERO PUSH2 0x5CB JUMPI PUSH1 0x0 DUP1 REVERT JUMPDEST POP PUSH2 0x5E6 PUSH1 0x4 DUP1 CALLDATASIZE SUB DUP2 ADD SWAP1 PUSH2 0x5E1 SWAP2 SWAP1 PUSH2 0x6271 JUMP JUMPDEST PUSH2 0x1681 JUMP JUMPDEST STOP JUMPDEST CALLVALUE DUP1 ISZERO PUSH2 0x5F4 JUMPI PUSH1 0x0 DUP1 REVERT JUMPDEST POP PUSH2 0x5FD PUSH2 0x16B6 JUMP JUMPDEST PUSH1 0x40 MLOAD PUSH2 0x60A SWAP2 SWAP1 PUSH2 0x5FC7 JUMP JUMPDEST PUSH1 0x40 MLOAD DUP1 SWAP2 SUB SWAP1 RETURN JUMPDEST CALLVALUE DUP1 ISZERO PUSH2 0x61F JUMPI PUSH1 0x0 DUP1 REVERT JUMPDEST POP PUSH2 0x63A PUSH1 0x4 DUP1 CALLDATASIZE SUB DUP2 ADD SWAP1 PUSH2 0x635 SWAP2 SWAP1 PUSH2 0x62CA JUMP JUMPDEST PUSH2 0x16DA JUMP JUMPDEST STOP JUMPDEST CALLVALUE DUP1 ISZERO PUSH2 0x648 JUMPI PUSH1 0x0 DUP1 REVERT JUMPDEST POP PUSH2 0x663 PUSH1 0x4 DUP1 CALLDATASIZE SUB DUP2 ADD SWAP1 PUSH2 0x65E SWAP2 SWAP1 PUSH2 0x6357 JUMP JUMPDEST PUSH2 0x1723 JUMP JUMPDEST STOP JUMPDEST CALLVALUE DUP1 ISZERO PUSH2 0x671 JUMPI PUSH1 0x0 DUP1 REVERT JUMPDEST POP PUSH2 0x68C PUSH1 0x4 DUP1 CALLDATASIZE SUB DUP2 ADD SWAP1 PUSH2 0x687 SWAP2 SWAP1 PUSH2 0x5FE2 JUMP JUMPDEST PUSH2 0x198D JUMP JUMPDEST PUSH1 0x40 MLOAD PUSH2 0x699 SWAP2 SWAP1 PUSH2 0x5D86 JUMP JUMPDEST PUSH1 0x40 MLOAD DUP1 SWAP2 SUB SWAP1 RETURN JUMPDEST CALLVALUE DUP1 ISZERO PUSH2 0x6AE JUMPI PUSH1 0x0 DUP1 REVERT JUMPDEST POP PUSH2 0x6B7 PUSH2 0x19F8 JUMP JUMPDEST PUSH1 0x40 MLOAD PUSH2 0x6C4 SWAP2 SWAP1 PUSH2 0x6422 JUMP JUMPDEST PUSH1 0x40 MLOAD DUP1 SWAP2 SUB SWAP1 RETURN JUMPDEST CALLVALUE DUP1 ISZERO PUSH2 0x6D9 JUMPI PUSH1 0x0 DUP1 REVERT JUMPDEST POP PUSH2 0x6E2 PUSH2 0x1A1F JUMP JUMPDEST PUSH1 0x40 MLOAD PUSH2 0x6EF SWAP2 SWAP1 PUSH2 0x5FC7 JUMP JUMPDEST PUSH1 0x40 MLOAD DUP1 SWAP2 SUB SWAP1 RETURN JUMPDEST CALLVALUE DUP1 ISZERO PUSH2 0x704 JUMPI PUSH1 0x0 DUP1 REVERT JUMPDEST POP PUSH2 0x71F PUSH1 0x4 DUP1 CALLDATASIZE SUB DUP2 ADD SWAP1 PUSH2 0x71A SWAP2 SWAP1 PUSH2 0x6462 JUMP JUMPDEST PUSH2 0x1A26 JUMP JUMPDEST PUSH1 0x40 MLOAD PUSH2 0x72C SWAP2 SWAP1 PUSH2 0x5D86 JUMP JUMPDEST PUSH1 0x40 MLOAD DUP1 SWAP2 SUB SWAP1 RETURN JUMPDEST CALLVALUE DUP1 ISZERO PUSH2 0x741 JUMPI PUSH1 0x0 DUP1 REVERT JUMPDEST POP PUSH2 0x75C PUSH1 0x4 DUP1 CALLDATASIZE SUB DUP2 ADD SWAP1 PUSH2 0x757 SWAP2 SWAP1 PUSH2 0x5FE2 JUMP JUMPDEST PUSH2 0x1BAC JUMP JUMPDEST PUSH1 0x40 MLOAD PUSH2 0x769 SWAP2 SWAP1 PUSH2 0x5D86 JUMP JUMPDEST PUSH1 0x40 MLOAD DUP1 SWAP2 SUB SWAP1 RETURN JUMPDEST CALLVALUE DUP1 ISZERO PUSH2 0x77E JUMPI PUSH1 0x0 DUP1 REVERT JUMPDEST POP PUSH2 0x787 PUSH2 0x1BDE JUMP JUMPDEST PUSH1 0x40 MLOAD PUSH2 0x794 SWAP2 SWAP1 PUSH2 0x64E5 JUMP JUMPDEST PUSH1 0x40 MLOAD DUP1 SWAP2 SUB SWAP1 RETURN JUMPDEST CALLVALUE DUP1 ISZERO PUSH2 0x7A9 JUMPI PUSH1 0x0 DUP1 REVERT JUMPDEST POP PUSH2 0x7C4 PUSH1 0x4 DUP1 CALLDATASIZE SUB DUP2 ADD SWAP1 PUSH2 0x7BF SWAP2 SWAP1 PUSH2 0x65A1 JUMP JUMPDEST PUSH2 0x1C02 JUMP JUMPDEST PUSH1 0x40 MLOAD PUSH2 0x7D1 SWAP2 SWAP1 PUSH2 0x5D86 JUMP JUMPDEST PUSH1 0x40 MLOAD DUP1 SWAP2 SUB SWAP1 RETURN JUMPDEST CALLVALUE DUP1 ISZERO PUSH2 0x7E6 JUMPI PUSH1 0x0 DUP1 REVERT JUMPDEST POP PUSH2 0x801 PUSH1 0x4 DUP1 CALLDATASIZE SUB DUP2 ADD SWAP1 PUSH2 0x7FC SWAP2 SWAP1 PUSH2 0x6647 JUMP JUMPDEST PUSH2 0x1E26 JUMP JUMPDEST PUSH1 0x40 MLOAD PUSH2 0x80E SWAP2 SWAP1 PUSH2 0x5FC7 JUMP JUMPDEST PUSH1 0x40 MLOAD DUP1 SWAP2 SUB SWAP1 RETURN JUMPDEST CALLVALUE DUP1 ISZERO PUSH2 0x823 JUMPI PUSH1 0x0 DUP1 REVERT JUMPDEST POP PUSH2 0x82C PUSH2 0x1E65 JUMP JUMPDEST PUSH1 0x40 MLOAD PUSH2 0x839 SWAP2 SWAP1 PUSH2 0x64E5 JUMP JUMPDEST PUSH1 0x40 MLOAD DUP1 SWAP2 SUB SWAP1 RETURN JUMPDEST CALLVALUE DUP1 ISZERO PUSH2 0x84E JUMPI PUSH1 0x0 DUP1 REVERT JUMPDEST POP PUSH2 0x857 PUSH2 0x1E89 JUMP JUMPDEST PUSH1 0x40 MLOAD PUSH2 0x864 SWAP2 SWAP1 PUSH2 0x6422 JUMP JUMPDEST PUSH1 0x40 MLOAD DUP1 SWAP2 SUB SWAP1 RETURN JUMPDEST CALLVALUE DUP1 ISZERO PUSH2 0x879 JUMPI PUSH1 0x0 DUP1 REVERT JUMPDEST POP PUSH2 0x894 PUSH1 0x4 DUP1 CALLDATASIZE SUB DUP2 ADD SWAP1 PUSH2 0x88F SWAP2 SWAP1 PUSH2 0x5FE2 JUMP JUMPDEST PUSH2 0x1EB0 JUMP JUMPDEST STOP JUMPDEST CALLVALUE DUP1 ISZERO PUSH2 0x8A2 JUMPI PUSH1 0x0 DUP1 REVERT JUMPDEST POP PUSH2 0x8AB PUSH2 0x1ED1 JUMP JUMPDEST PUSH1 0x40 MLOAD PUSH2 0x8B8 SWAP2 SWAP1 PUSH2 0x64E5 JUMP JUMPDEST PUSH1 0x40 MLOAD DUP1 SWAP2 SUB SWAP1 RETURN JUMPDEST PUSH2 0x8DB PUSH1 0x4 DUP1 CALLDATASIZE SUB DUP2 ADD SWAP1 PUSH2 0x8D6 SWAP2 SWAP1 PUSH2 0x5F8B JUMP JUMPDEST PUSH2 0x1EF5 JUMP JUMPDEST PUSH1 0x40 MLOAD PUSH2 0x8E8 SWAP2 SWAP1 PUSH2 0x5D86 JUMP JUMPDEST PUSH1 0x40 MLOAD DUP1 SWAP2 SUB SWAP1 RETURN JUMPDEST CALLVALUE DUP1 ISZERO PUSH2 0x8FD JUMPI PUSH1 0x0 DUP1 REVERT JUMPDEST POP PUSH2 0x918 PUSH1 0x4 DUP1 CALLDATASIZE SUB DUP2 ADD SWAP1 PUSH2 0x913 SWAP2 SWAP1 PUSH2 0x6271 JUMP JUMPDEST PUSH2 0x201A JUMP JUMPDEST STOP JUMPDEST CALLVALUE DUP1 ISZERO PUSH2 0x926 JUMPI PUSH1 0x0 DUP1 REVERT JUMPDEST POP PUSH2 0x92F PUSH2 0x204F JUMP JUMPDEST PUSH1 0x40 MLOAD PUSH2 0x93C SWAP2 SWAP1 PUSH2 0x6422 JUMP JUMPDEST PUSH1 0x40 MLOAD DUP1 SWAP2 SUB SWAP1 RETURN JUMPDEST CALLVALUE DUP1 ISZERO PUSH2 0x951 JUMPI PUSH1 0x0 DUP1 REVERT JUMPDEST POP PUSH2 0x95A PUSH2 0x2076 JUMP JUMPDEST PUSH1 0x40 MLOAD PUSH2 0x967 SWAP2 SWAP1 PUSH2 0x5FC7 JUMP JUMPDEST PUSH1 0x40 MLOAD DUP1 SWAP2 SUB SWAP1 RETURN JUMPDEST CALLVALUE DUP1 ISZERO PUSH2 0x97C JUMPI PUSH1 0x0 DUP1 REVERT JUMPDEST POP PUSH2 0x997 PUSH1 0x4 DUP1 CALLDATASIZE SUB DUP2 ADD SWAP1 PUSH2 0x992 SWAP2 SWAP1 PUSH2 0x5F28 JUMP JUMPDEST PUSH2 0x209A JUMP JUMPDEST PUSH1 0x40 MLOAD PUSH2 0x9A4 SWAP2 SWAP1 PUSH2 0x5D86 JUMP JUMPDEST PUSH1 0x40 MLOAD DUP1 SWAP2 SUB SWAP1 RETURN JUMPDEST CALLVALUE DUP1 ISZERO PUSH2 0x9B9 JUMPI PUSH1 0x0 DUP1 REVERT JUMPDEST POP PUSH2 0x9D4 PUSH1 0x4 DUP1 CALLDATASIZE SUB DUP2 ADD SWAP1 PUSH2 0x9CF SWAP2 SWAP1 PUSH2 0x67BE JUMP JUMPDEST PUSH2 0x2172 JUMP JUMPDEST PUSH1 0x40 MLOAD PUSH2 0x9E1 SWAP2 SWAP1 PUSH2 0x5FC7 JUMP JUMPDEST PUSH1 0x40 MLOAD DUP1 SWAP2 SUB SWAP1 RETURN JUMPDEST PUSH1 0x0 PUSH32 0x7965DB0B00000000000000000000000000000000000000000000000000000000 PUSH28 0xFFFFFFFFFFFFFFFFFFFFFFFFFFFFFFFFFFFFFFFFFFFFFFFFFFFFFFFF NOT AND DUP3 PUSH28 0xFFFFFFFFFFFFFFFFFFFFFFFFFFFFFFFFFFFFFFFFFFFFFFFFFFFFFFFF NOT AND EQ DUP1 PUSH2 0xA5D JUMPI POP PUSH2 0xA5C DUP3 PUSH2 0x28AC JUMP JUMPDEST JUMPDEST SWAP1 POP SWAP2 SWAP1 POP JUMP JUMPDEST PUSH1 0xFF SLOAD DUP2 JUMP JUMPDEST PUSH1 0x60 PUSH2 0x103 DUP1 SLOAD PUSH2 0xA7A SWAP1 PUSH2 0x6865 JUMP JUMPDEST DUP1 PUSH1 0x1F ADD PUSH1 0x20 DUP1 SWAP2 DIV MUL PUSH1 0x20 ADD PUSH1 0x40 MLOAD SWAP1 DUP2 ADD PUSH1 0x40 MSTORE DUP1 SWAP3 SWAP2 SWAP1 DUP2 DUP2 MSTORE PUSH1 0x20 ADD DUP3 DUP1 SLOAD PUSH2 0xAA6 SWAP1 PUSH2 0x6865 JUMP JUMPDEST DUP1 ISZERO PUSH2 0xAF3 JUMPI DUP1 PUSH1 0x1F LT PUSH2 0xAC8 JUMPI PUSH2 0x100 DUP1 DUP4 SLOAD DIV MUL DUP4 MSTORE SWAP2 PUSH1 0x20 ADD SWAP2 PUSH2 0xAF3 JUMP JUMPDEST DUP3 ADD SWAP2 SWAP1 PUSH1 0x0 MSTORE PUSH1 0x20 PUSH1 0x0 KECCAK256 SWAP1 JUMPDEST DUP2 SLOAD DUP2 MSTORE SWAP1 PUSH1 0x1 ADD SWAP1 PUSH1 0x20 ADD DUP1 DUP4 GT PUSH2 0xAD6 JUMPI DUP3 SWAP1 SUB PUSH1 0x1F AND DUP3 ADD SWAP2 JUMPDEST POP POP POP POP POP SWAP1 POP SWAP1 JUMP JUMPDEST PUSH2 0x105 PUSH1 0x0 SWAP1 SLOAD SWAP1 PUSH2 0x100 EXP SWAP1 DIV PUSH4 0xFFFFFFFF AND DUP2 JUMP JUMPDEST PUSH32 0xA49807205CE4D355092EF5A8A18F56E8913CF4A201FBE287825B095693C21775 PUSH2 0xB3E DUP2 PUSH2 0x2916 JUMP JUMPDEST PUSH1 0x1 PUSH1 0x2 DUP2 GT ISZERO PUSH2 0xB52 JUMPI PUSH2 0xB51 PUSH2 0x61B3 JUMP JUMPDEST JUMPDEST PUSH1 0xFB PUSH1 0x0 DUP5 PUSH20 0xFFFFFFFFFFFFFFFFFFFFFFFFFFFFFFFFFFFFFFFF AND PUSH20 0xFFFFFFFFFFFFFFFFFFFFFFFFFFFFFFFFFFFFFFFF AND DUP2 MSTORE PUSH1 0x20 ADD SWAP1 DUP2 MSTORE PUSH1 0x20 ADD PUSH1 0x0 KECCAK256 PUSH1 0x1 ADD PUSH1 0x0 SWAP1 SLOAD SWAP1 PUSH2 0x100 EXP SWAP1 DIV PUSH1 0xFF AND PUSH1 0x2 DUP2 GT ISZERO PUSH2 0xBB4 JUMPI PUSH2 0xBB3 PUSH2 0x61B3 JUMP JUMPDEST JUMPDEST EQ DUP1 ISZERO PUSH2 0xC15 JUMPI POP PUSH1 0x0 ISZERO ISZERO PUSH1 0xFB PUSH1 0x0 DUP5 PUSH20 0xFFFFFFFFFFFFFFFFFFFFFFFFFFFFFFFFFFFFFFFF AND PUSH20 0xFFFFFFFFFFFFFFFFFFFFFFFFFFFFFFFFFFFFFFFF AND DUP2 MSTORE PUSH1 0x20 ADD SWAP1 DUP2 MSTORE PUSH1 0x20 ADD PUSH1 0x0 KECCAK256 PUSH1 0x1 ADD PUSH1 0x1 SWAP1 SLOAD SWAP1 PUSH2 0x100 EXP SWAP1 DIV PUSH1 0xFF AND ISZERO ISZERO EQ ISZERO JUMPDEST PUSH2 0xC54 JUMPI PUSH1 0x40 MLOAD PUSH32 0x8C379A000000000000000000000000000000000000000000000000000000000 DUP2 MSTORE PUSH1 0x4 ADD PUSH2 0xC4B SWAP1 PUSH2 0x6908 JUMP JUMPDEST PUSH1 0x40 MLOAD DUP1 SWAP2 SUB SWAP1 REVERT JUMPDEST PUSH1 0x0 PUSH1 0xFB PUSH1 0x0 DUP5 PUSH20 0xFFFFFFFFFFFFFFFFFFFFFFFFFFFFFFFFFFFFFFFF AND PUSH20 0xFFFFFFFFFFFFFFFFFFFFFFFFFFFFFFFFFFFFFFFF AND DUP2 MSTORE PUSH1 0x20 ADD SWAP1 DUP2 MSTORE PUSH1 0x20 ADD PUSH1 0x0 KECCAK256 PUSH1 0x1 ADD PUSH1 0x1 PUSH2 0x100 EXP DUP2 SLOAD DUP2 PUSH1 0xFF MUL NOT AND SWAP1 DUP4 ISZERO ISZERO MUL OR SWAP1 SSTORE POP PUSH1 0x1 PUSH2 0x105 PUSH1 0x0 DUP3 DUP3 DUP3 SWAP1 SLOAD SWAP1 PUSH2 0x100 EXP SWAP1 DIV PUSH4 0xFFFFFFFF AND PUSH2 0xCD2 SWAP2 SWAP1 PUSH2 0x6957 JUMP JUMPDEST SWAP3 POP PUSH2 0x100 EXP DUP2 SLOAD DUP2 PUSH4 0xFFFFFFFF MUL NOT AND SWAP1 DUP4 PUSH4 0xFFFFFFFF AND MUL OR SWAP1 SSTORE POP POP POP JUMP JUMPDEST PUSH1 0x0 PUSH1 0xC9 PUSH1 0x0 DUP4 DUP2 MSTORE PUSH1 0x20 ADD SWAP1 DUP2 MSTORE PUSH1 0x20 ADD PUSH1 0x0 KECCAK256 PUSH1 0x1 ADD SLOAD SWAP1 POP SWAP2 SWAP1 POP JUMP JUMPDEST PUSH2 0x105 PUSH1 0x4 SWAP1 SLOAD SWAP1 PUSH2 0x100 EXP SWAP1 DIV PUSH4 0xFFFFFFFF AND DUP2 JUMP JUMPDEST PUSH2 0xD34 DUP3 PUSH2 0xCF4 JUMP JUMPDEST PUSH2 0xD3D DUP2 PUSH2 0x2916 JUMP JUMPDEST PUSH2 0xD47 DUP4 DUP4 PUSH2 0x292A JUMP JUMPDEST POP POP POP JUMP JUMPDEST PUSH1 0x0 PUSH32 0xA49807205CE4D355092EF5A8A18F56E8913CF4A201FBE287825B095693C21775 PUSH2 0xD78 DUP2 PUSH2 0x2916 JUMP JUMPDEST PUSH1 0x1 ISZERO ISZERO PUSH2 0x105 PUSH1 0x9 SWAP1 SLOAD SWAP1 PUSH2 0x100 EXP SWAP1 DIV PUSH1 0xFF AND ISZERO ISZERO EQ PUSH2 0xDCF JUMPI PUSH1 0x40 MLOAD PUSH32 0x8C379A000000000000000000000000000000000000000000000000000000000 DUP2 MSTORE PUSH1 0x4 ADD PUSH2 0xDC6 SWAP1 PUSH2 0x69D7 JUMP JUMPDEST PUSH1 0x40 MLOAD DUP1 SWAP2 SUB SWAP1 REVERT JUMPDEST PUSH1 0x0 PUSH1 0xFC PUSH1 0x0 DUP6 DUP2 MSTORE PUSH1 0x20 ADD SWAP1 DUP2 MSTORE PUSH1 0x20 ADD PUSH1 0x0 KECCAK256 SWAP1 POP PUSH2 0xE03 PUSH2 0xDF1 PUSH2 0x2A0B JUMP JUMPDEST DUP3 PUSH1 0x1 ADD PUSH2 0x2A13 SWAP1 SWAP2 SWAP1 PUSH4 0xFFFFFFFF AND JUMP JUMPDEST POP DUP4 PUSH2 0xE0D PUSH2 0x2A0B JUMP JUMPDEST PUSH20 0xFFFFFFFFFFFFFFFFFFFFFFFFFFFFFFFFFFFFFFFF AND PUSH32 0xBBB255028C79DEA070E4449C346283DA7B4B66693776C096BB820822E4D9C41A PUSH1 0x2 PUSH1 0x40 MLOAD PUSH2 0xE53 SWAP2 SWAP1 PUSH2 0x6A65 JUMP JUMPDEST PUSH1 0x40 MLOAD DUP1 SWAP2 SUB SWAP1 LOG3 PUSH1 0x0 PUSH1 0xFD PUSH1 0x0 DUP7 DUP2 MSTORE PUSH1 0x20 ADD SWAP1 DUP2 MSTORE PUSH1 0x20 ADD PUSH1 0x0 KECCAK256 SWAP1 POP PUSH1 0x1 DUP2 PUSH1 0x6 ADD PUSH1 0x2 PUSH2 0x100 EXP DUP2 SLOAD DUP2 PUSH1 0xFF MUL NOT AND SWAP1 DUP4 ISZERO ISZERO MUL OR SWAP1 SSTORE POP PUSH1 0x0 PUSH1 0x1 SWAP1 POP PUSH2 0xE9E DUP3 PUSH2 0x2A43 JUMP JUMPDEST SWAP1 POP DUP1 ISZERO PUSH2 0xED4 JUMPI DUP6 PUSH32 0x7B1BCF1CCF901A11589AFFF5504D59FD0A53780EED2A952ADADE0348985139E0 PUSH1 0x40 MLOAD PUSH1 0x40 MLOAD DUP1 SWAP2 SUB SWAP1 LOG2 JUMPDEST PUSH1 0x0 PUSH2 0x105 PUSH1 0x9 PUSH2 0x100 EXP DUP2 SLOAD DUP2 PUSH1 0xFF MUL NOT AND SWAP1 DUP4 ISZERO ISZERO MUL OR SWAP1 SSTORE POP DUP1 SWAP5 POP POP POP POP POP SWAP2 SWAP1 POP JUMP JUMPDEST PUSH2 0x105 PUSH1 0x8 SWAP1 SLOAD SWAP1 PUSH2 0x100 EXP SWAP1 DIV PUSH1 0xFF AND DUP2 JUMP JUMPDEST PUSH2 0xF18 PUSH2 0x2A0B JUMP JUMPDEST PUSH20 0xFFFFFFFFFFFFFFFFFFFFFFFFFFFFFFFFFFFFFFFF AND DUP2 PUSH20 0xFFFFFFFFFFFFFFFFFFFFFFFFFFFFFFFFFFFFFFFF AND EQ PUSH2 0xF85 JUMPI PUSH1 0x40 MLOAD PUSH32 0x8C379A000000000000000000000000000000000000000000000000000000000 DUP2 MSTORE PUSH1 0x4 ADD PUSH2 0xF7C SWAP1 PUSH2 0x6B05 JUMP JUMPDEST PUSH1 0x40 MLOAD DUP1 SWAP2 SUB SWAP1 REVERT JUMPDEST PUSH2 0xF8F DUP3 DUP3 PUSH2 0x338D JUMP JUMPDEST POP POP JUMP JUMPDEST PUSH32 0x0 PUSH20 0xFFFFFFFFFFFFFFFFFFFFFFFFFFFFFFFFFFFFFFFF AND ADDRESS PUSH20 0xFFFFFFFFFFFFFFFFFFFFFFFFFFFFFFFFFFFFFFFF AND SUB PUSH2 0x1021 JUMPI PUSH1 0x40 MLOAD PUSH32 0x8C379A000000000000000000000000000000000000000000000000000000000 DUP2 MSTORE PUSH1 0x4 ADD PUSH2 0x1018 SWAP1 PUSH2 0x6B97 JUMP JUMPDEST PUSH1 0x40 MLOAD DUP1 SWAP2 SUB SWAP1 REVERT JUMPDEST PUSH32 0x0 PUSH20 0xFFFFFFFFFFFFFFFFFFFFFFFFFFFFFFFFFFFFFFFF AND PUSH2 0x1060 PUSH2 0x346F JUMP JUMPDEST PUSH20 0xFFFFFFFFFFFFFFFFFFFFFFFFFFFFFFFFFFFFFFFF AND EQ PUSH2 0x10B6 JUMPI PUSH1 0x40 MLOAD PUSH32 0x8C379A000000000000000000000000000000000000000000000000000000000 DUP2 MSTORE PUSH1 0x4 ADD PUSH2 0x10AD SWAP1 PUSH2 0x6C29 JUMP JUMPDEST PUSH1 0x40 MLOAD DUP1 SWAP2 SUB SWAP1 REVERT JUMPDEST PUSH2 0x10BF DUP2 PUSH2 0x34C6 JUMP JUMPDEST PUSH2 0x1118 DUP2 PUSH1 0x0 PUSH8 0xFFFFFFFFFFFFFFFF DUP2 GT ISZERO PUSH2 0x10DE JUMPI PUSH2 0x10DD PUSH2 0x602C JUMP JUMPDEST JUMPDEST PUSH1 0x40 MLOAD SWAP1 DUP1 DUP3 MSTORE DUP1 PUSH1 0x1F ADD PUSH1 0x1F NOT AND PUSH1 0x20 ADD DUP3 ADD PUSH1 0x40 MSTORE DUP1 ISZERO PUSH2 0x1110 JUMPI DUP2 PUSH1 0x20 ADD PUSH1 0x1 DUP3 MUL DUP1 CALLDATASIZE DUP4 CALLDATACOPY DUP1 DUP3 ADD SWAP2 POP POP SWAP1 POP JUMPDEST POP PUSH1 0x0 PUSH2 0x356D JUMP JUMPDEST POP JUMP JUMPDEST PUSH1 0xFE SLOAD DUP2 JUMP JUMPDEST PUSH2 0x105 PUSH1 0x9 SWAP1 SLOAD SWAP1 PUSH2 0x100 EXP SWAP1 DIV PUSH1 0xFF AND DUP2 JUMP JUMPDEST PUSH32 0x0 PUSH20 0xFFFFFFFFFFFFFFFFFFFFFFFFFFFFFFFFFFFFFFFF AND ADDRESS PUSH20 0xFFFFFFFFFFFFFFFFFFFFFFFFFFFFFFFFFFFFFFFF AND SUB PUSH2 0x11C3 JUMPI PUSH1 0x40 MLOAD PUSH32 0x8C379A000000000000000000000000000000000000000000000000000000000 DUP2 MSTORE PUSH1 0x4 ADD PUSH2 0x11BA SWAP1 PUSH2 0x6B97 JUMP JUMPDEST PUSH1 0x40 MLOAD DUP1 SWAP2 SUB SWAP1 REVERT JUMPDEST PUSH32 0x0 PUSH20 0xFFFFFFFFFFFFFFFFFFFFFFFFFFFFFFFFFFFFFFFF AND PUSH2 0x1202 PUSH2 0x346F JUMP JUMPDEST PUSH20 0xFFFFFFFFFFFFFFFFFFFFFFFFFFFFFFFFFFFFFFFF AND EQ PUSH2 0x1258 JUMPI PUSH1 0x40 MLOAD PUSH32 0x8C379A000000000000000000000000000000000000000000000000000000000 DUP2 MSTORE PUSH1 0x4 ADD PUSH2 0x124F SWAP1 PUSH2 0x6C29 JUMP JUMPDEST PUSH1 0x40 MLOAD DUP1 SWAP2 SUB SWAP1 REVERT JUMPDEST PUSH2 0x1261 DUP3 PUSH2 0x34C6 JUMP JUMPDEST PUSH2 0x126D DUP3 DUP3 PUSH1 0x1 PUSH2 0x356D JUMP JUMPDEST POP POP JUMP JUMPDEST PUSH1 0x0 PUSH32 0x0 PUSH20 0xFFFFFFFFFFFFFFFFFFFFFFFFFFFFFFFFFFFFFFFF AND ADDRESS PUSH20 0xFFFFFFFFFFFFFFFFFFFFFFFFFFFFFFFFFFFFFFFF AND EQ PUSH2 0x1301 JUMPI PUSH1 0x40 MLOAD PUSH32 0x8C379A000000000000000000000000000000000000000000000000000000000 DUP2 MSTORE PUSH1 0x4 ADD PUSH2 0x12F8 SWAP1 PUSH2 0x6CBB JUMP JUMPDEST PUSH1 0x40 MLOAD DUP1 SWAP2 SUB SWAP1 REVERT JUMPDEST PUSH32 0x360894A13BA1A3210667C828492DB98DCA3E2076CC3735A920A3CA505D382BBC PUSH1 0x0 SHL SWAP1 POP SWAP1 JUMP JUMPDEST PUSH1 0x60 PUSH2 0x104 DUP1 SLOAD PUSH2 0x133A SWAP1 PUSH2 0x6865 JUMP JUMPDEST DUP1 PUSH1 0x1F ADD PUSH1 0x20 DUP1 SWAP2 DIV MUL PUSH1 0x20 ADD PUSH1 0x40 MLOAD SWAP1 DUP2 ADD PUSH1 0x40 MSTORE DUP1 SWAP3 SWAP2 SWAP1 DUP2 DUP2 MSTORE PUSH1 0x20 ADD DUP3 DUP1 SLOAD PUSH2 0x1366 SWAP1 PUSH2 0x6865 JUMP JUMPDEST DUP1 ISZERO PUSH2 0x13B3 JUMPI DUP1 PUSH1 0x1F LT PUSH2 0x1388 JUMPI PUSH2 0x100 DUP1 DUP4 SLOAD DIV MUL DUP4 MSTORE SWAP2 PUSH1 0x20 ADD SWAP2 PUSH2 0x13B3 JUMP JUMPDEST DUP3 ADD SWAP2 SWAP1 PUSH1 0x0 MSTORE PUSH1 0x20 PUSH1 0x0 KECCAK256 SWAP1 JUMPDEST DUP2 SLOAD DUP2 MSTORE SWAP1 PUSH1 0x1 ADD SWAP1 PUSH1 0x20 ADD DUP1 DUP4 GT PUSH2 0x1396 JUMPI DUP3 SWAP1 SUB PUSH1 0x1F AND DUP3 ADD SWAP2 JUMPDEST POP POP POP POP POP SWAP1 POP SWAP1 JUMP JUMPDEST PUSH1 0x0 PUSH1 0xFB PUSH1 0x0 DUP4 PUSH20 0xFFFFFFFFFFFFFFFFFFFFFFFFFFFFFFFFFFFFFFFF AND PUSH20 0xFFFFFFFFFFFFFFFFFFFFFFFFFFFFFFFFFFFFFFFF AND DUP2 MSTORE PUSH1 0x20 ADD SWAP1 DUP2 MSTORE PUSH1 0x20 ADD PUSH1 0x0 KECCAK256 PUSH1 0x1 ADD PUSH1 0x1 SWAP1 SLOAD SWAP1 PUSH2 0x100 EXP SWAP1 DIV PUSH1 0xFF AND DUP1 ISZERO PUSH2 0x148D JUMPI POP PUSH1 0x2 DUP1 DUP2 GT ISZERO PUSH2 0x1429 JUMPI PUSH2 0x1428 PUSH2 0x61B3 JUMP JUMPDEST JUMPDEST PUSH1 0xFB PUSH1 0x0 DUP5 PUSH20 0xFFFFFFFFFFFFFFFFFFFFFFFFFFFFFFFFFFFFFFFF AND PUSH20 0xFFFFFFFFFFFFFFFFFFFFFFFFFFFFFFFFFFFFFFFF AND DUP2 MSTORE PUSH1 0x20 ADD SWAP1 DUP2 MSTORE PUSH1 0x20 ADD PUSH1 0x0 KECCAK256 PUSH1 0x1 ADD PUSH1 0x0 SWAP1 SLOAD SWAP1 PUSH2 0x100 EXP SWAP1 DIV PUSH1 0xFF AND PUSH1 0x2 DUP2 GT ISZERO PUSH2 0x148B JUMPI PUSH2 0x148A PUSH2 0x61B3 JUMP JUMPDEST JUMPDEST EQ JUMPDEST SWAP1 POP SWAP2 SWAP1 POP JUMP JUMPDEST PUSH1 0x0 DUP1 PUSH1 0xFD PUSH1 0x0 DUP5 DUP2 MSTORE PUSH1 0x20 ADD SWAP1 DUP2 MSTORE PUSH1 0x20 ADD PUSH1 0x0 KECCAK256 SWAP1 POP PUSH1 0x0 DUP1 SHL DUP2 PUSH1 0x1 ADD SLOAD SUB PUSH2 0x14F5 JUMPI PUSH1 0x40 MLOAD PUSH32 0x8C379A000000000000000000000000000000000000000000000000000000000 DUP2 MSTORE PUSH1 0x4 ADD PUSH2 0x14EC SWAP1 PUSH2 0x6D27 JUMP JUMPDEST PUSH1 0x40 MLOAD DUP1 SWAP2 SUB SWAP1 REVERT JUMPDEST DUP1 PUSH1 0x6 ADD PUSH1 0x2 SWAP1 SLOAD SWAP1 PUSH2 0x100 EXP SWAP1 DIV PUSH1 0xFF AND ISZERO PUSH2 0x1516 JUMPI PUSH1 0x7 SWAP2 POP POP PUSH2 0x167C JUMP JUMPDEST DUP1 PUSH1 0x6 ADD PUSH1 0x3 SWAP1 SLOAD SWAP1 PUSH2 0x100 EXP SWAP1 DIV PUSH1 0xFF AND ISZERO PUSH2 0x1537 JUMPI PUSH1 0x3 SWAP2 POP POP PUSH2 0x167C JUMP JUMPDEST PUSH2 0x1580 DUP2 PUSH1 0x4 ADD PUSH1 0x40 MLOAD DUP1 PUSH1 0x20 ADD PUSH1 0x40 MSTORE SWAP1 DUP2 PUSH1 0x0 DUP3 ADD PUSH1 0x0 SWAP1 SLOAD SWAP1 PUSH2 0x100 EXP SWAP1 DIV PUSH8 0xFFFFFFFFFFFFFFFF AND PUSH8 0xFFFFFFFFFFFFFFFF AND PUSH8 0xFFFFFFFFFFFFFFFF AND DUP2 MSTORE POP POP PUSH2 0x36DB JUMP JUMPDEST ISZERO PUSH2 0x158F JUMPI PUSH1 0x1 SWAP2 POP POP PUSH2 0x167C JUMP JUMPDEST PUSH2 0x15D8 DUP2 PUSH1 0x5 ADD PUSH1 0x40 MLOAD DUP1 PUSH1 0x20 ADD PUSH1 0x40 MSTORE SWAP1 DUP2 PUSH1 0x0 DUP3 ADD PUSH1 0x0 SWAP1 SLOAD SWAP1 PUSH2 0x100 EXP SWAP1 DIV PUSH8 0xFFFFFFFFFFFFFFFF AND PUSH8 0xFFFFFFFFFFFFFFFF AND PUSH8 0xFFFFFFFFFFFFFFFF AND DUP2 MSTORE POP POP PUSH2 0x36DB JUMP JUMPDEST DUP1 ISZERO PUSH2 0x15EA JUMPI POP PUSH2 0x15E8 DUP4 PUSH2 0x36F5 JUMP JUMPDEST ISZERO JUMPDEST ISZERO PUSH2 0x15F9 JUMPI PUSH1 0x2 SWAP2 POP POP PUSH2 0x167C JUMP JUMPDEST PUSH2 0x1642 DUP2 PUSH1 0x5 ADD PUSH1 0x40 MLOAD DUP1 PUSH1 0x20 ADD PUSH1 0x40 MSTORE SWAP1 DUP2 PUSH1 0x0 DUP3 ADD PUSH1 0x0 SWAP1 SLOAD SWAP1 PUSH2 0x100 EXP SWAP1 DIV PUSH8 0xFFFFFFFFFFFFFFFF AND PUSH8 0xFFFFFFFFFFFFFFFF AND PUSH8 0xFFFFFFFFFFFFFFFF AND DUP2 MSTORE POP POP PUSH2 0x3799 JUMP JUMPDEST DUP1 PUSH2 0x1652 JUMPI POP PUSH2 0x1651 DUP4 PUSH2 0x36F5 JUMP JUMPDEST JUMPDEST ISZERO PUSH2 0x1676 JUMPI PUSH2 0x1660 DUP4 PUSH2 0x37C5 JUMP JUMPDEST PUSH2 0x166B JUMPI PUSH1 0x4 PUSH2 0x166E JUMP JUMPDEST PUSH1 0x5 JUMPDEST SWAP2 POP POP PUSH2 0x167C JUMP JUMPDEST PUSH1 0x0 SWAP2 POP POP JUMPDEST SWAP2 SWAP1 POP JUMP JUMPDEST PUSH32 0xA49807205CE4D355092EF5A8A18F56E8913CF4A201FBE287825B095693C21775 PUSH2 0x16AB DUP2 PUSH2 0x2916 JUMP JUMPDEST DUP2 PUSH1 0xFE DUP2 SWAP1 SSTORE POP POP POP JUMP JUMPDEST PUSH32 0xA49807205CE4D355092EF5A8A18F56E8913CF4A201FBE287825B095693C21775 DUP2 JUMP JUMPDEST PUSH32 0xA49807205CE4D355092EF5A8A18F56E8913CF4A201FBE287825B095693C21775 PUSH2 0x1704 DUP2 PUSH2 0x2916 JUMP JUMPDEST DUP2 PUSH2 0x105 PUSH1 0x8 PUSH2 0x100 EXP DUP2 SLOAD DUP2 PUSH1 0xFF MUL NOT AND SWAP1 DUP4 ISZERO ISZERO MUL OR SWAP1 SSTORE POP POP POP JUMP JUMPDEST PUSH1 0x0 PUSH2 0x172F PUSH1 0x1 PUSH2 0x383C JUMP JUMPDEST SWAP1 POP DUP1 ISZERO PUSH2 0x1753 JUMPI PUSH1 0x1 PUSH1 0x0 PUSH1 0x1 PUSH2 0x100 EXP DUP2 SLOAD DUP2 PUSH1 0xFF MUL NOT AND SWAP1 DUP4 ISZERO ISZERO MUL OR SWAP1 SSTORE POP JUMPDEST DUP6 PUSH2 0x101 PUSH1 0x0 PUSH2 0x100 EXP DUP2 SLOAD DUP2 PUSH20 0xFFFFFFFFFFFFFFFFFFFFFFFFFFFFFFFFFFFFFFFF MUL NOT AND SWAP1 DUP4 PUSH20 0xFFFFFFFFFFFFFFFFFFFFFFFFFFFFFFFFFFFFFFFF AND MUL OR SWAP1 SSTORE POP DUP7 PUSH2 0x100 PUSH1 0x0 PUSH2 0x100 EXP DUP2 SLOAD DUP2 PUSH20 0xFFFFFFFFFFFFFFFFFFFFFFFFFFFFFFFFFFFFFFFF MUL NOT AND SWAP1 DUP4 PUSH20 0xFFFFFFFFFFFFFFFFFFFFFFFFFFFFFFFFFFFFFFFF AND MUL OR SWAP1 SSTORE POP PUSH1 0x0 PUSH2 0x105 PUSH1 0x0 PUSH2 0x100 EXP DUP2 SLOAD DUP2 PUSH4 0xFFFFFFFF MUL NOT AND SWAP1 DUP4 PUSH4 0xFFFFFFFF AND MUL OR SWAP1 SSTORE POP PUSH1 0x0 PUSH2 0x105 PUSH1 0x4 PUSH2 0x100 EXP DUP2 SLOAD DUP2 PUSH4 0xFFFFFFFF MUL NOT AND SWAP1 DUP4 PUSH4 0xFFFFFFFF AND MUL OR SWAP1 SSTORE POP DUP8 PUSH2 0x102 PUSH1 0x0 PUSH2 0x100 EXP DUP2 SLOAD DUP2 PUSH20 0xFFFFFFFFFFFFFFFFFFFFFFFFFFFFFFFFFFFFFFFF MUL NOT AND SWAP1 DUP4 PUSH20 0xFFFFFFFFFFFFFFFFFFFFFFFFFFFFFFFFFFFFFFFF AND MUL OR SWAP1 SSTORE POP PUSH1 0x1 PUSH1 0xFE DUP2 SWAP1 SSTORE POP PUSH3 0x93A80 PUSH1 0xFF DUP2 SWAP1 SSTORE POP DUP5 DUP5 PUSH2 0x103 SWAP2 SWAP1 PUSH2 0x1883 SWAP3 SWAP2 SWAP1 PUSH2 0x5B23 JUMP JUMPDEST POP DUP3 DUP3 PUSH2 0x104 SWAP2 SWAP1 PUSH2 0x1896 SWAP3 SWAP2 SWAP1 PUSH2 0x5B23 JUMP JUMPDEST POP PUSH1 0x1 PUSH2 0x105 PUSH1 0x8 PUSH2 0x100 EXP DUP2 SLOAD DUP2 PUSH1 0xFF MUL NOT AND SWAP1 DUP4 ISZERO ISZERO MUL OR SWAP1 SSTORE POP PUSH1 0x1 PUSH2 0x105 PUSH1 0x9 PUSH2 0x100 EXP DUP2 SLOAD DUP2 PUSH1 0xFF MUL NOT AND SWAP1 DUP4 ISZERO ISZERO MUL OR SWAP1 SSTORE POP PUSH2 0x1900 PUSH32 0xA49807205CE4D355092EF5A8A18F56E8913CF4A201FBE287825B095693C21775 PUSH2 0x18FB PUSH2 0x2A0B JUMP JUMPDEST PUSH2 0x292A JUMP JUMPDEST PUSH2 0x192A PUSH32 0xA49807205CE4D355092EF5A8A18F56E8913CF4A201FBE287825B095693C21775 DUP1 PUSH2 0x392C JUMP JUMPDEST DUP1 ISZERO PUSH2 0x1983 JUMPI PUSH1 0x0 DUP1 PUSH1 0x1 PUSH2 0x100 EXP DUP2 SLOAD DUP2 PUSH1 0xFF MUL NOT AND SWAP1 DUP4 ISZERO ISZERO MUL OR SWAP1 SSTORE POP PUSH32 0x7F26B83FF96E1F2B6A682F133852F6798A09C465DA95921460CEFB3847402498 PUSH1 0x1 PUSH1 0x40 MLOAD PUSH2 0x197A SWAP2 SWAP1 PUSH2 0x6D99 JUMP JUMPDEST PUSH1 0x40 MLOAD DUP1 SWAP2 SUB SWAP1 LOG1 JUMPDEST POP POP POP POP POP POP POP POP JUMP JUMPDEST PUSH1 0x0 PUSH1 0xC9 PUSH1 0x0 DUP5 DUP2 MSTORE PUSH1 0x20 ADD SWAP1 DUP2 MSTORE PUSH1 0x20 ADD PUSH1 0x0 KECCAK256 PUSH1 0x0 ADD PUSH1 0x0 DUP4 PUSH20 0xFFFFFFFFFFFFFFFFFFFFFFFFFFFFFFFFFFFFFFFF AND PUSH20 0xFFFFFFFFFFFFFFFFFFFFFFFFFFFFFFFFFFFFFFFF AND DUP2 MSTORE PUSH1 0x20 ADD SWAP1 DUP2 MSTORE PUSH1 0x20 ADD PUSH1 0x0 KECCAK256 PUSH1 0x0 SWAP1 SLOAD SWAP1 PUSH2 0x100 EXP SWAP1 DIV PUSH1 0xFF AND SWAP1 POP SWAP3 SWAP2 POP POP JUMP JUMPDEST PUSH2 0x101 PUSH1 0x0 SWAP1 SLOAD SWAP1 PUSH2 0x100 EXP SWAP1 DIV PUSH20 0xFFFFFFFFFFFFFFFFFFFFFFFFFFFFFFFFFFFFFFFF AND DUP2 JUMP JUMPDEST PUSH1 0x0 DUP1 SHL DUP2 JUMP JUMPDEST PUSH1 0x0 PUSH1 0x1 PUSH1 0x2 DUP2 GT ISZERO PUSH2 0x1A3C JUMPI PUSH2 0x1A3B PUSH2 0x61B3 JUMP JUMPDEST JUMPDEST PUSH1 0xFB PUSH1 0x0 PUSH2 0x1A48 PUSH2 0x2A0B JUMP JUMPDEST PUSH20 0xFFFFFFFFFFFFFFFFFFFFFFFFFFFFFFFFFFFFFFFF AND PUSH20 0xFFFFFFFFFFFFFFFFFFFFFFFFFFFFFFFFFFFFFFFF AND DUP2 MSTORE PUSH1 0x20 ADD SWAP1 DUP2 MSTORE PUSH1 0x20 ADD PUSH1 0x0 KECCAK256 PUSH1 0x1 ADD PUSH1 0x0 SWAP1 SLOAD SWAP1 PUSH2 0x100 EXP SWAP1 DIV PUSH1 0xFF AND PUSH1 0x2 DUP2 GT ISZERO PUSH2 0x1AA5 JUMPI PUSH2 0x1AA4 PUSH2 0x61B3 JUMP JUMPDEST JUMPDEST EQ DUP1 ISZERO PUSH2 0x1B0C JUMPI POP PUSH1 0x1 ISZERO ISZERO PUSH1 0xFB PUSH1 0x0 PUSH2 0x1ABD PUSH2 0x2A0B JUMP JUMPDEST PUSH20 0xFFFFFFFFFFFFFFFFFFFFFFFFFFFFFFFFFFFFFFFF AND PUSH20 0xFFFFFFFFFFFFFFFFFFFFFFFFFFFFFFFFFFFFFFFF AND DUP2 MSTORE PUSH1 0x20 ADD SWAP1 DUP2 MSTORE PUSH1 0x20 ADD PUSH1 0x0 KECCAK256 PUSH1 0x1 ADD PUSH1 0x1 SWAP1 SLOAD SWAP1 PUSH2 0x100 EXP SWAP1 DIV PUSH1 0xFF AND ISZERO ISZERO EQ JUMPDEST PUSH2 0x1B4B JUMPI PUSH1 0x40 MLOAD PUSH32 0x8C379A000000000000000000000000000000000000000000000000000000000 DUP2 MSTORE PUSH1 0x4 ADD PUSH2 0x1B42 SWAP1 PUSH2 0x6E26 JUMP JUMPDEST PUSH1 0x40 MLOAD DUP1 SWAP2 SUB SWAP1 REVERT JUMPDEST PUSH2 0x1BA2 DUP4 PUSH2 0x1B57 PUSH2 0x2A0B JUMP JUMPDEST DUP5 DUP9 DUP9 DUP1 DUP1 PUSH1 0x1F ADD PUSH1 0x20 DUP1 SWAP2 DIV MUL PUSH1 0x20 ADD PUSH1 0x40 MLOAD SWAP1 DUP2 ADD PUSH1 0x40 MSTORE DUP1 SWAP4 SWAP3 SWAP2 SWAP1 DUP2 DUP2 MSTORE PUSH1 0x20 ADD DUP4 DUP4 DUP1 DUP3 DUP5 CALLDATACOPY PUSH1 0x0 DUP2 DUP5 ADD MSTORE PUSH1 0x1F NOT PUSH1 0x1F DUP3 ADD AND SWAP1 POP DUP1 DUP4 ADD SWAP3 POP POP POP POP POP POP POP PUSH2 0x3988 JUMP JUMPDEST SWAP1 POP SWAP5 SWAP4 POP POP POP POP JUMP JUMPDEST PUSH1 0x0 PUSH2 0x1BD6 DUP3 PUSH1 0xFC PUSH1 0x0 DUP7 DUP2 MSTORE PUSH1 0x20 ADD SWAP1 DUP2 MSTORE PUSH1 0x20 ADD PUSH1 0x0 KECCAK256 PUSH1 0x1 ADD PUSH2 0x3CBB SWAP1 SWAP2 SWAP1 PUSH4 0xFFFFFFFF AND JUMP JUMPDEST SWAP1 POP SWAP3 SWAP2 POP POP JUMP JUMPDEST PUSH32 0xF26C159FD7D78F3848964C3ADF4AEA78577348FCB297DB019BF8F5EFBED02195 DUP2 JUMP JUMPDEST PUSH1 0x0 PUSH1 0xFD PUSH1 0x0 DUP5 DUP2 MSTORE PUSH1 0x20 ADD SWAP1 DUP2 MSTORE PUSH1 0x20 ADD PUSH1 0x0 KECCAK256 PUSH1 0x3 ADD PUSH1 0x0 SWAP1 SLOAD SWAP1 PUSH2 0x100 EXP SWAP1 DIV PUSH20 0xFFFFFFFFFFFFFFFFFFFFFFFFFFFFFFFFFFFFFFFF AND PUSH20 0xFFFFFFFFFFFFFFFFFFFFFFFFFFFFFFFFFFFFFFFF AND CALLER PUSH20 0xFFFFFFFFFFFFFFFFFFFFFFFFFFFFFFFFFFFFFFFF AND EQ PUSH2 0x1CA8 JUMPI PUSH1 0x40 MLOAD PUSH32 0x8C379A000000000000000000000000000000000000000000000000000000000 DUP2 MSTORE PUSH1 0x4 ADD PUSH2 0x1C9F SWAP1 PUSH2 0x6EB8 JUMP JUMPDEST PUSH1 0x40 MLOAD DUP1 SWAP2 SUB SWAP1 REVERT JUMPDEST PUSH1 0x0 PUSH2 0x1CB3 DUP5 PUSH2 0x1494 JUMP JUMPDEST SWAP1 POP PUSH1 0x6 PUSH1 0x7 DUP2 GT ISZERO PUSH2 0x1CC9 JUMPI PUSH2 0x1CC8 PUSH2 0x61B3 JUMP JUMPDEST JUMPDEST DUP2 PUSH1 0x7 DUP2 GT ISZERO PUSH2 0x1CDC JUMPI PUSH2 0x1CDB PUSH2 0x61B3 JUMP JUMPDEST JUMPDEST EQ ISZERO DUP1 ISZERO PUSH2 0x1D0E JUMPI POP PUSH1 0x7 DUP1 DUP2 GT ISZERO PUSH2 0x1CF8 JUMPI PUSH2 0x1CF7 PUSH2 0x61B3 JUMP JUMPDEST JUMPDEST DUP2 PUSH1 0x7 DUP2 GT ISZERO PUSH2 0x1D0B JUMPI PUSH2 0x1D0A PUSH2 0x61B3 JUMP JUMPDEST JUMPDEST EQ ISZERO JUMPDEST PUSH2 0x1D4D JUMPI PUSH1 0x40 MLOAD PUSH32 0x8C379A000000000000000000000000000000000000000000000000000000000 DUP2 MSTORE PUSH1 0x4 ADD PUSH2 0x1D44 SWAP1 PUSH2 0x6F24 JUMP JUMPDEST PUSH1 0x40 MLOAD DUP1 SWAP2 SUB SWAP1 REVERT JUMPDEST PUSH1 0x3 PUSH1 0x7 DUP2 GT ISZERO PUSH2 0x1D61 JUMPI PUSH2 0x1D60 PUSH2 0x61B3 JUMP JUMPDEST JUMPDEST DUP2 PUSH1 0x7 DUP2 GT ISZERO PUSH2 0x1D74 JUMPI PUSH2 0x1D73 PUSH2 0x61B3 JUMP JUMPDEST JUMPDEST SUB PUSH2 0x1DB4 JUMPI PUSH1 0x40 MLOAD PUSH32 0x8C379A000000000000000000000000000000000000000000000000000000000 DUP2 MSTORE PUSH1 0x4 ADD PUSH2 0x1DAB SWAP1 PUSH2 0x6FB6 JUMP JUMPDEST PUSH1 0x40 MLOAD DUP1 SWAP2 SUB SWAP1 REVERT JUMPDEST PUSH1 0x1 PUSH1 0xFD PUSH1 0x0 DUP7 DUP2 MSTORE PUSH1 0x20 ADD SWAP1 DUP2 MSTORE PUSH1 0x20 ADD PUSH1 0x0 KECCAK256 PUSH1 0x6 ADD PUSH1 0x3 PUSH2 0x100 EXP DUP2 SLOAD DUP2 PUSH1 0xFF MUL NOT AND SWAP1 DUP4 ISZERO ISZERO MUL OR SWAP1 SSTORE POP DUP4 PUSH32 0xC3FE75BACE7821ED95B8B37722A36DFB53BDF311BEFB9C378BED48A7DB4062AA DUP5 PUSH1 0x40 MLOAD PUSH2 0x1E13 SWAP2 SWAP1 PUSH2 0x5E6E JUMP JUMPDEST PUSH1 0x40 MLOAD DUP1 SWAP2 SUB SWAP1 LOG2 PUSH1 0x1 SWAP2 POP POP SWAP3 SWAP2 POP POP JUMP JUMPDEST PUSH1 0x0 DUP7 DUP7 DUP7 DUP7 DUP7 DUP7 PUSH1 0x40 MLOAD PUSH1 0x20 ADD PUSH2 0x1E43 SWAP7 SWAP6 SWAP5 SWAP4 SWAP3 SWAP2 SWAP1 PUSH2 0x70BB JUMP JUMPDEST PUSH1 0x40 MLOAD PUSH1 0x20 DUP2 DUP4 SUB SUB DUP2 MSTORE SWAP1 PUSH1 0x40 MSTORE DUP1 MLOAD SWAP1 PUSH1 0x20 ADD KECCAK256 SWAP1 POP SWAP7 SWAP6 POP POP POP POP POP POP JUMP JUMPDEST PUSH32 0x53CC2FAE7ECEF069DA76AE9063C3ECFA7F417173BC5191FE1BB037165D76473F DUP2 JUMP JUMPDEST PUSH2 0x100 PUSH1 0x0 SWAP1 SLOAD SWAP1 PUSH2 0x100 EXP SWAP1 DIV PUSH20 0xFFFFFFFFFFFFFFFFFFFFFFFFFFFFFFFFFFFFFFFF AND DUP2 JUMP JUMPDEST PUSH2 0x1EB9 DUP3 PUSH2 0xCF4 JUMP JUMPDEST PUSH2 0x1EC2 DUP2 PUSH2 0x2916 JUMP JUMPDEST PUSH2 0x1ECC DUP4 DUP4 PUSH2 0x338D JUMP JUMPDEST POP POP POP JUMP JUMPDEST PUSH32 0x23B872DD7302113369CDA2901243429419BEC145408FA8B352B3DD92B66C680B DUP2 JUMP JUMPDEST PUSH1 0x0 PUSH32 0xA49807205CE4D355092EF5A8A18F56E8913CF4A201FBE287825B095693C21775 PUSH2 0x1F21 DUP2 PUSH2 0x2916 JUMP JUMPDEST PUSH1 0x0 PUSH2 0x1F2C DUP5 PUSH2 0x1494 JUMP JUMPDEST SWAP1 POP PUSH1 0x5 PUSH1 0x7 DUP2 GT ISZERO PUSH2 0x1F42 JUMPI PUSH2 0x1F41 PUSH2 0x61B3 JUMP JUMPDEST JUMPDEST DUP2 PUSH1 0x7 DUP2 GT ISZERO PUSH2 0x1F55 JUMPI PUSH2 0x1F54 PUSH2 0x61B3 JUMP JUMPDEST JUMPDEST EQ PUSH2 0x1F95 JUMPI PUSH1 0x40 MLOAD PUSH32 0x8C379A000000000000000000000000000000000000000000000000000000000 DUP2 MSTORE PUSH1 0x4 ADD PUSH2 0x1F8C SWAP1 PUSH2 0x7195 JUMP JUMPDEST PUSH1 0x40 MLOAD DUP1 SWAP2 SUB SWAP1 REVERT JUMPDEST PUSH1 0x0 PUSH1 0xFD PUSH1 0x0 DUP7 DUP2 MSTORE PUSH1 0x20 ADD SWAP1 DUP2 MSTORE PUSH1 0x20 ADD PUSH1 0x0 KECCAK256 SWAP1 POP PUSH1 0x1 DUP2 PUSH1 0x6 ADD PUSH1 0x2 PUSH2 0x100 EXP DUP2 SLOAD DUP2 PUSH1 0xFF MUL NOT AND SWAP1 DUP4 ISZERO ISZERO MUL OR SWAP1 SSTORE POP PUSH1 0x0 PUSH1 0x1 SWAP1 POP PUSH2 0x1FD8 DUP3 PUSH2 0x2A43 JUMP JUMPDEST SWAP1 POP DUP1 ISZERO PUSH2 0x200E JUMPI DUP6 PUSH32 0x7B1BCF1CCF901A11589AFFF5504D59FD0A53780EED2A952ADADE0348985139E0 PUSH1 0x40 MLOAD PUSH1 0x40 MLOAD DUP1 SWAP2 SUB SWAP1 LOG2 JUMPDEST DUP1 SWAP5 POP POP POP POP POP SWAP2 SWAP1 POP JUMP JUMPDEST PUSH32 0xA49807205CE4D355092EF5A8A18F56E8913CF4A201FBE287825B095693C21775 PUSH2 0x2044 DUP2 PUSH2 0x2916 JUMP JUMPDEST DUP2 PUSH1 0xFF DUP2 SWAP1 SSTORE POP POP POP JUMP JUMPDEST PUSH2 0x102 PUSH1 0x0 SWAP1 SLOAD SWAP1 PUSH2 0x100 EXP SWAP1 DIV PUSH20 0xFFFFFFFFFFFFFFFFFFFFFFFFFFFFFFFFFFFFFFFF AND DUP2 JUMP JUMPDEST PUSH32 0x36FD43EDE163045B10E1F0ABD16F62F165FCE3FA7B6CDE217BCEA3BC47663ACC DUP2 JUMP JUMPDEST PUSH1 0x0 PUSH1 0xFB PUSH1 0x0 DUP4 PUSH20 0xFFFFFFFFFFFFFFFFFFFFFFFFFFFFFFFFFFFFFFFF AND PUSH20 0xFFFFFFFFFFFFFFFFFFFFFFFFFFFFFFFFFFFFFFFF AND DUP2 MSTORE PUSH1 0x20 ADD SWAP1 DUP2 MSTORE PUSH1 0x20 ADD PUSH1 0x0 KECCAK256 PUSH1 0x1 ADD PUSH1 0x1 SWAP1 SLOAD SWAP1 PUSH2 0x100 EXP SWAP1 DIV PUSH1 0xFF AND DUP1 ISZERO PUSH2 0x216B JUMPI POP PUSH1 0x1 PUSH1 0x2 DUP2 GT ISZERO PUSH2 0x2107 JUMPI PUSH2 0x2106 PUSH2 0x61B3 JUMP JUMPDEST JUMPDEST PUSH1 0xFB PUSH1 0x0 DUP5 PUSH20 0xFFFFFFFFFFFFFFFFFFFFFFFFFFFFFFFFFFFFFFFF AND PUSH20 0xFFFFFFFFFFFFFFFFFFFFFFFFFFFFFFFFFFFFFFFF AND DUP2 MSTORE PUSH1 0x20 ADD SWAP1 DUP2 MSTORE PUSH1 0x20 ADD PUSH1 0x0 KECCAK256 PUSH1 0x1 ADD PUSH1 0x0 SWAP1 SLOAD SWAP1 PUSH2 0x100 EXP SWAP1 DIV PUSH1 0xFF AND PUSH1 0x2 DUP2 GT ISZERO PUSH2 0x2169 JUMPI PUSH2 0x2168 PUSH2 0x61B3 JUMP JUMPDEST JUMPDEST EQ JUMPDEST SWAP1 POP SWAP2 SWAP1 POP JUMP JUMPDEST PUSH1 0x0 PUSH1 0x1 PUSH1 0x2 DUP2 GT ISZERO PUSH2 0x2188 JUMPI PUSH2 0x2187 PUSH2 0x61B3 JUMP JUMPDEST JUMPDEST PUSH1 0xFB PUSH1 0x0 PUSH2 0x2194 PUSH2 0x2A0B JUMP JUMPDEST PUSH20 0xFFFFFFFFFFFFFFFFFFFFFFFFFFFFFFFFFFFFFFFF AND PUSH20 0xFFFFFFFFFFFFFFFFFFFFFFFFFFFFFFFFFFFFFFFF AND DUP2 MSTORE PUSH1 0x20 ADD SWAP1 DUP2 MSTORE PUSH1 0x20 ADD PUSH1 0x0 KECCAK256 PUSH1 0x1 ADD PUSH1 0x0 SWAP1 SLOAD SWAP1 PUSH2 0x100 EXP SWAP1 DIV PUSH1 0xFF AND PUSH1 0x2 DUP2 GT ISZERO PUSH2 0x21F1 JUMPI PUSH2 0x21F0 PUSH2 0x61B3 JUMP JUMPDEST JUMPDEST EQ DUP1 ISZERO PUSH2 0x2258 JUMPI POP PUSH1 0x1 ISZERO ISZERO PUSH1 0xFB PUSH1 0x0 PUSH2 0x2209 PUSH2 0x2A0B JUMP JUMPDEST PUSH20 0xFFFFFFFFFFFFFFFFFFFFFFFFFFFFFFFFFFFFFFFF AND PUSH20 0xFFFFFFFFFFFFFFFFFFFFFFFFFFFFFFFFFFFFFFFF AND DUP2 MSTORE PUSH1 0x20 ADD SWAP1 DUP2 MSTORE PUSH1 0x20 ADD PUSH1 0x0 KECCAK256 PUSH1 0x1 ADD PUSH1 0x1 SWAP1 SLOAD SWAP1 PUSH2 0x100 EXP SWAP1 DIV PUSH1 0xFF AND ISZERO ISZERO EQ JUMPDEST DUP1 PUSH2 0x2297 JUMPI POP PUSH1 0x1 ISZERO ISZERO PUSH2 0x2293 PUSH32 0xA49807205CE4D355092EF5A8A18F56E8913CF4A201FBE287825B095693C21775 PUSH2 0x228E PUSH2 0x2A0B JUMP JUMPDEST PUSH2 0x198D JUMP JUMPDEST ISZERO ISZERO EQ JUMPDEST PUSH2 0x22D6 JUMPI PUSH1 0x40 MLOAD PUSH32 0x8C379A000000000000000000000000000000000000000000000000000000000 DUP2 MSTORE PUSH1 0x4 ADD PUSH2 0x22CD SWAP1 PUSH2 0x7227 JUMP JUMPDEST PUSH1 0x40 MLOAD DUP1 SWAP2 SUB SWAP1 REVERT JUMPDEST PUSH1 0x0 PUSH1 0x3 DUP2 GT ISZERO PUSH2 0x22EA JUMPI PUSH2 0x22E9 PUSH2 0x61B3 JUMP JUMPDEST JUMPDEST DUP4 PUSH1 0x20 ADD MLOAD PUSH1 0x3 DUP2 GT ISZERO PUSH2 0x2301 JUMPI PUSH2 0x2300 PUSH2 0x61B3 JUMP JUMPDEST JUMPDEST SUB PUSH2 0x2341 JUMPI PUSH1 0x40 MLOAD PUSH32 0x8C379A000000000000000000000000000000000000000000000000000000000 DUP2 MSTORE PUSH1 0x4 ADD PUSH2 0x2338 SWAP1 PUSH2 0x7293 JUMP JUMPDEST PUSH1 0x40 MLOAD DUP1 SWAP2 SUB SWAP1 REVERT JUMPDEST PUSH1 0x0 PUSH1 0x4 DUP2 GT ISZERO PUSH2 0x2355 JUMPI PUSH2 0x2354 PUSH2 0x61B3 JUMP JUMPDEST JUMPDEST DUP4 PUSH1 0x40 ADD MLOAD PUSH1 0x4 DUP2 GT ISZERO PUSH2 0x236C JUMPI PUSH2 0x236B PUSH2 0x61B3 JUMP JUMPDEST JUMPDEST SUB PUSH2 0x23AC JUMPI PUSH1 0x40 MLOAD PUSH32 0x8C379A000000000000000000000000000000000000000000000000000000000 DUP2 MSTORE PUSH1 0x4 ADD PUSH2 0x23A3 SWAP1 PUSH2 0x72FF JUMP JUMPDEST PUSH1 0x40 MLOAD DUP1 SWAP2 SUB SWAP1 REVERT JUMPDEST PUSH1 0x0 DUP4 PUSH1 0x80 ADD MLOAD MLOAD SUB PUSH2 0x23F4 JUMPI PUSH1 0x40 MLOAD PUSH32 0x8C379A000000000000000000000000000000000000000000000000000000000 DUP2 MSTORE PUSH1 0x4 ADD PUSH2 0x23EB SWAP1 PUSH2 0x736B JUMP JUMPDEST PUSH1 0x40 MLOAD DUP1 SWAP2 SUB SWAP1 REVERT JUMPDEST PUSH1 0x0 DUP1 SHL DUP4 PUSH1 0x0 ADD MLOAD SUB PUSH2 0x243D JUMPI PUSH1 0x40 MLOAD PUSH32 0x8C379A000000000000000000000000000000000000000000000000000000000 DUP2 MSTORE PUSH1 0x4 ADD PUSH2 0x2434 SWAP1 PUSH2 0x736B JUMP JUMPDEST PUSH1 0x40 MLOAD DUP1 SWAP2 SUB SWAP1 REVERT JUMPDEST PUSH2 0x246E PUSH32 0xA49807205CE4D355092EF5A8A18F56E8913CF4A201FBE287825B095693C21775 PUSH2 0x2469 PUSH2 0x2A0B JUMP JUMPDEST PUSH2 0x198D JUMP JUMPDEST ISZERO PUSH2 0x24E3 JUMPI PUSH1 0x1 PUSH1 0x3 DUP2 GT ISZERO PUSH2 0x2487 JUMPI PUSH2 0x2486 PUSH2 0x61B3 JUMP JUMPDEST JUMPDEST DUP4 PUSH1 0x20 ADD MLOAD PUSH1 0x3 DUP2 GT ISZERO PUSH2 0x249E JUMPI PUSH2 0x249D PUSH2 0x61B3 JUMP JUMPDEST JUMPDEST EQ PUSH2 0x24DE JUMPI PUSH1 0x40 MLOAD PUSH32 0x8C379A000000000000000000000000000000000000000000000000000000000 DUP2 MSTORE PUSH1 0x4 ADD PUSH2 0x24D5 SWAP1 PUSH2 0x73D7 JUMP JUMPDEST PUSH1 0x40 MLOAD DUP1 SWAP2 SUB SWAP1 REVERT JUMPDEST PUSH2 0x254F JUMP JUMPDEST PUSH1 0x1 PUSH1 0x3 DUP2 GT ISZERO PUSH2 0x24F7 JUMPI PUSH2 0x24F6 PUSH2 0x61B3 JUMP JUMPDEST JUMPDEST DUP4 PUSH1 0x20 ADD MLOAD PUSH1 0x3 DUP2 GT ISZERO PUSH2 0x250E JUMPI PUSH2 0x250D PUSH2 0x61B3 JUMP JUMPDEST JUMPDEST SUB PUSH2 0x254E JUMPI PUSH1 0x40 MLOAD PUSH32 0x8C379A000000000000000000000000000000000000000000000000000000000 DUP2 MSTORE PUSH1 0x4 ADD PUSH2 0x2545 SWAP1 PUSH2 0x7469 JUMP JUMPDEST PUSH1 0x40 MLOAD DUP1 SWAP2 SUB SWAP1 REVERT JUMPDEST JUMPDEST PUSH1 0x0 DUP4 PUSH1 0x60 ADD MLOAD PUSH1 0x40 MLOAD PUSH1 0x20 ADD PUSH2 0x2566 SWAP2 SWAP1 PUSH2 0x74C5 JUMP JUMPDEST PUSH1 0x40 MLOAD PUSH1 0x20 DUP2 DUP4 SUB SUB DUP2 MSTORE SWAP1 PUSH1 0x40 MSTORE DUP1 MLOAD SWAP1 PUSH1 0x20 ADD KECCAK256 SWAP1 POP PUSH1 0x0 PUSH2 0x25A5 DUP6 PUSH1 0x0 ADD MLOAD DUP4 PUSH2 0x2591 PUSH2 0x2A0B JUMP JUMPDEST DUP9 PUSH1 0x20 ADD MLOAD DUP10 PUSH1 0x40 ADD MLOAD DUP11 PUSH1 0x80 ADD MLOAD PUSH2 0x3CEB JUMP JUMPDEST SWAP1 POP PUSH1 0x0 PUSH2 0x25B2 DUP3 PUSH2 0x3D72 JUMP JUMPDEST SWAP1 POP PUSH1 0x0 DUP1 PUSH2 0x25C1 DUP4 DUP9 PUSH2 0x3D8C JUMP JUMPDEST SWAP2 POP SWAP2 POP PUSH1 0x0 PUSH1 0x4 DUP2 GT ISZERO PUSH2 0x25D9 JUMPI PUSH2 0x25D8 PUSH2 0x61B3 JUMP JUMPDEST JUMPDEST DUP2 PUSH1 0x4 DUP2 GT ISZERO PUSH2 0x25EC JUMPI PUSH2 0x25EB PUSH2 0x61B3 JUMP JUMPDEST JUMPDEST EQ PUSH2 0x2640 JUMPI DUP1 PUSH1 0x4 DUP2 GT ISZERO PUSH2 0x2604 JUMPI PUSH2 0x2603 PUSH2 0x61B3 JUMP JUMPDEST JUMPDEST PUSH1 0x40 MLOAD PUSH32 0x64F17F0B00000000000000000000000000000000000000000000000000000000 DUP2 MSTORE PUSH1 0x4 ADD PUSH2 0x2637 SWAP2 SWAP1 PUSH2 0x74EB JUMP JUMPDEST PUSH1 0x40 MLOAD DUP1 SWAP2 SUB SWAP1 REVERT JUMPDEST ADDRESS PUSH20 0xFFFFFFFFFFFFFFFFFFFFFFFFFFFFFFFFFFFFFFFF AND PUSH4 0x91D14854 PUSH32 0xA49807205CE4D355092EF5A8A18F56E8913CF4A201FBE287825B095693C21775 DUP5 PUSH1 0x40 MLOAD DUP4 PUSH4 0xFFFFFFFF AND PUSH1 0xE0 SHL DUP2 MSTORE PUSH1 0x4 ADD PUSH2 0x269B SWAP3 SWAP2 SWAP1 PUSH2 0x7506 JUMP JUMPDEST PUSH1 0x20 PUSH1 0x40 MLOAD DUP1 DUP4 SUB DUP2 DUP7 GAS STATICCALL ISZERO DUP1 ISZERO PUSH2 0x26B8 JUMPI RETURNDATASIZE PUSH1 0x0 DUP1 RETURNDATACOPY RETURNDATASIZE PUSH1 0x0 REVERT JUMPDEST POP POP POP POP PUSH1 0x40 MLOAD RETURNDATASIZE PUSH1 0x1F NOT PUSH1 0x1F DUP3 ADD AND DUP3 ADD DUP1 PUSH1 0x40 MSTORE POP DUP2 ADD SWAP1 PUSH2 0x26DC SWAP2 SWAP1 PUSH2 0x7544 JUMP JUMPDEST PUSH2 0x271B JUMPI PUSH1 0x40 MLOAD PUSH32 0x8C379A000000000000000000000000000000000000000000000000000000000 DUP2 MSTORE PUSH1 0x4 ADD PUSH2 0x2712 SWAP1 PUSH2 0x75E3 JUMP JUMPDEST PUSH1 0x40 MLOAD DUP1 SWAP2 SUB SWAP1 REVERT JUMPDEST PUSH1 0x0 PUSH2 0x2742 DUP10 PUSH1 0x0 ADD MLOAD DUP8 PUSH2 0x272E PUSH2 0x2A0B JUMP JUMPDEST DUP13 PUSH1 0x20 ADD MLOAD DUP14 PUSH1 0x40 ADD MLOAD DUP15 PUSH1 0x80 ADD MLOAD PUSH2 0x1E26 JUMP JUMPDEST SWAP1 POP PUSH1 0x0 PUSH1 0xFD PUSH1 0x0 DUP4 DUP2 MSTORE PUSH1 0x20 ADD SWAP1 DUP2 MSTORE PUSH1 0x20 ADD PUSH1 0x0 KECCAK256 SWAP1 POP DUP2 DUP2 PUSH1 0x0 ADD DUP2 SWAP1 SSTORE POP PUSH1 0x0 PUSH1 0xFE SLOAD TIMESTAMP PUSH2 0x2774 SWAP2 SWAP1 PUSH2 0x7617 JUMP JUMPDEST SWAP1 POP PUSH1 0x0 PUSH1 0xFF SLOAD TIMESTAMP PUSH2 0x2786 SWAP2 SWAP1 PUSH2 0x7617 JUMP JUMPDEST SWAP1 POP PUSH2 0x279E DUP3 DUP5 PUSH1 0x4 ADD PUSH2 0x3E0D SWAP1 SWAP2 SWAP1 PUSH4 0xFFFFFFFF AND JUMP JUMPDEST PUSH2 0x27B4 DUP2 DUP5 PUSH1 0x5 ADD PUSH2 0x3E0D SWAP1 SWAP2 SWAP1 PUSH4 0xFFFFFFFF AND JUMP JUMPDEST DUP9 DUP4 PUSH1 0x2 ADD DUP2 SWAP1 SSTORE POP DUP12 PUSH1 0x0 ADD MLOAD DUP4 PUSH1 0x1 ADD DUP2 SWAP1 SSTORE POP PUSH2 0x27D2 PUSH2 0x2A0B JUMP JUMPDEST DUP4 PUSH1 0x3 ADD PUSH1 0x0 PUSH2 0x100 EXP DUP2 SLOAD DUP2 PUSH20 0xFFFFFFFFFFFFFFFFFFFFFFFFFFFFFFFFFFFFFFFF MUL NOT AND SWAP1 DUP4 PUSH20 0xFFFFFFFFFFFFFFFFFFFFFFFFFFFFFFFFFFFFFFFF AND MUL OR SWAP1 SSTORE POP DUP12 PUSH1 0x20 ADD MLOAD DUP4 PUSH1 0x6 ADD PUSH1 0x0 PUSH2 0x100 EXP DUP2 SLOAD DUP2 PUSH1 0xFF MUL NOT AND SWAP1 DUP4 PUSH1 0x3 DUP2 GT ISZERO PUSH2 0x283F JUMPI PUSH2 0x283E PUSH2 0x61B3 JUMP JUMPDEST JUMPDEST MUL OR SWAP1 SSTORE POP DUP12 PUSH1 0x40 ADD MLOAD DUP4 PUSH1 0x6 ADD PUSH1 0x1 PUSH2 0x100 EXP DUP2 SLOAD DUP2 PUSH1 0xFF MUL NOT AND SWAP1 DUP4 PUSH1 0x4 DUP2 GT ISZERO PUSH2 0x286F JUMPI PUSH2 0x286E PUSH2 0x61B3 JUMP JUMPDEST JUMPDEST MUL OR SWAP1 SSTORE POP DUP12 PUSH1 0x80 ADD MLOAD DUP4 PUSH1 0x7 ADD SWAP1 DUP1 MLOAD SWAP1 PUSH1 0x20 ADD SWAP1 PUSH2 0x2890 SWAP3 SWAP2 SWAP1 PUSH2 0x5BA9 JUMP JUMPDEST POP PUSH2 0x289A DUP4 PUSH2 0x3E3C JUMP JUMPDEST DUP4 SWAP10 POP POP POP POP POP POP POP POP POP POP SWAP3 SWAP2 POP POP JUMP JUMPDEST PUSH1 0x0 PUSH32 0x1FFC9A700000000000000000000000000000000000000000000000000000000 PUSH28 0xFFFFFFFFFFFFFFFFFFFFFFFFFFFFFFFFFFFFFFFFFFFFFFFFFFFFFFFF NOT AND DUP3 PUSH28 0xFFFFFFFFFFFFFFFFFFFFFFFFFFFFFFFFFFFFFFFFFFFFFFFFFFFFFFFF NOT AND EQ SWAP1 POP SWAP2 SWAP1 POP JUMP JUMPDEST PUSH2 0x2927 DUP2 PUSH2 0x2922 PUSH2 0x2A0B JUMP JUMPDEST PUSH2 0x4D1A JUMP JUMPDEST POP JUMP JUMPDEST PUSH2 0x2934 DUP3 DUP3 PUSH2 0x198D JUMP JUMPDEST PUSH2 0x2A07 JUMPI PUSH1 0x1 PUSH1 0xC9 PUSH1 0x0 DUP5 DUP2 MSTORE PUSH1 0x20 ADD SWAP1 DUP2 MSTORE PUSH1 0x20 ADD PUSH1 0x0 KECCAK256 PUSH1 0x0 ADD PUSH1 0x0 DUP4 PUSH20 0xFFFFFFFFFFFFFFFFFFFFFFFFFFFFFFFFFFFFFFFF AND PUSH20 0xFFFFFFFFFFFFFFFFFFFFFFFFFFFFFFFFFFFFFFFF AND DUP2 MSTORE PUSH1 0x20 ADD SWAP1 DUP2 MSTORE PUSH1 0x20 ADD PUSH1 0x0 KECCAK256 PUSH1 0x0 PUSH2 0x100 EXP DUP2 SLOAD DUP2 PUSH1 0xFF MUL NOT AND SWAP1 DUP4 ISZERO ISZERO MUL OR SWAP1 SSTORE POP PUSH2 0x29AC PUSH2 0x2A0B JUMP JUMPDEST PUSH20 0xFFFFFFFFFFFFFFFFFFFFFFFFFFFFFFFFFFFFFFFF AND DUP2 PUSH20 0xFFFFFFFFFFFFFFFFFFFFFFFFFFFFFFFFFFFFFFFF AND DUP4 PUSH32 0x2F8788117E7EFF1D82E926EC794901D17C78024A50270940304540A733656F0D PUSH1 0x40 MLOAD PUSH1 0x40 MLOAD DUP1 SWAP2 SUB SWAP1 LOG4 JUMPDEST POP POP JUMP JUMPDEST PUSH1 0x0 CALLER SWAP1 POP SWAP1 JUMP JUMPDEST PUSH1 0x0 PUSH2 0x2A3B DUP4 PUSH1 0x0 ADD DUP4 PUSH20 0xFFFFFFFFFFFFFFFFFFFFFFFFFFFFFFFFFFFFFFFF AND PUSH1 0x0 SHL PUSH2 0x4DB7 JUMP JUMPDEST SWAP1 POP SWAP3 SWAP2 POP POP JUMP JUMPDEST PUSH1 0x0 DUP1 PUSH1 0x1 SWAP1 POP PUSH1 0x1 PUSH1 0x3 DUP2 GT ISZERO PUSH2 0x2A5E JUMPI PUSH2 0x2A5D PUSH2 0x61B3 JUMP JUMPDEST JUMPDEST DUP4 PUSH1 0x6 ADD PUSH1 0x0 SWAP1 SLOAD SWAP1 PUSH2 0x100 EXP SWAP1 DIV PUSH1 0xFF AND PUSH1 0x3 DUP2 GT ISZERO PUSH2 0x2A82 JUMPI PUSH2 0x2A81 PUSH2 0x61B3 JUMP JUMPDEST JUMPDEST SUB PUSH2 0x2C9C JUMPI PUSH1 0x1 PUSH1 0x4 DUP2 GT ISZERO PUSH2 0x2A9B JUMPI PUSH2 0x2A9A PUSH2 0x61B3 JUMP JUMPDEST JUMPDEST DUP4 PUSH1 0x6 ADD PUSH1 0x1 SWAP1 SLOAD SWAP1 PUSH2 0x100 EXP SWAP1 DIV PUSH1 0xFF AND PUSH1 0x4 DUP2 GT ISZERO PUSH2 0x2ABF JUMPI PUSH2 0x2ABE PUSH2 0x61B3 JUMP JUMPDEST JUMPDEST SUB PUSH2 0x2C97 JUMPI PUSH1 0x0 DUP4 PUSH1 0x7 ADD DUP1 SLOAD PUSH2 0x2AD5 SWAP1 PUSH2 0x6865 JUMP JUMPDEST DUP1 PUSH1 0x1F ADD PUSH1 0x20 DUP1 SWAP2 DIV MUL PUSH1 0x20 ADD PUSH1 0x40 MLOAD SWAP1 DUP2 ADD PUSH1 0x40 MSTORE DUP1 SWAP3 SWAP2 SWAP1 DUP2 DUP2 MSTORE PUSH1 0x20 ADD DUP3 DUP1 SLOAD PUSH2 0x2B01 SWAP1 PUSH2 0x6865 JUMP JUMPDEST DUP1 ISZERO PUSH2 0x2B4E JUMPI DUP1 PUSH1 0x1F LT PUSH2 0x2B23 JUMPI PUSH2 0x100 DUP1 DUP4 SLOAD DIV MUL DUP4 MSTORE SWAP2 PUSH1 0x20 ADD SWAP2 PUSH2 0x2B4E JUMP JUMPDEST DUP3 ADD SWAP2 SWAP1 PUSH1 0x0 MSTORE PUSH1 0x20 PUSH1 0x0 KECCAK256 SWAP1 JUMPDEST DUP2 SLOAD DUP2 MSTORE SWAP1 PUSH1 0x1 ADD SWAP1 PUSH1 0x20 ADD DUP1 DUP4 GT PUSH2 0x2B31 JUMPI DUP3 SWAP1 SUB PUSH1 0x1F AND DUP3 ADD SWAP2 JUMPDEST POP POP POP POP POP DUP1 PUSH1 0x20 ADD SWAP1 MLOAD DUP2 ADD SWAP1 PUSH2 0x2B66 SWAP2 SWAP1 PUSH2 0x7746 JUMP JUMPDEST SWAP1 POP PUSH1 0x40 MLOAD DUP1 PUSH1 0x60 ADD PUSH1 0x40 MSTORE DUP1 DUP3 PUSH1 0x0 ADD MLOAD DUP2 MSTORE PUSH1 0x20 ADD PUSH1 0x1 PUSH1 0x2 DUP2 GT ISZERO PUSH2 0x2B91 JUMPI PUSH2 0x2B90 PUSH2 0x61B3 JUMP JUMPDEST JUMPDEST DUP2 MSTORE PUSH1 0x20 ADD PUSH1 0x1 ISZERO ISZERO DUP2 MSTORE POP PUSH1 0xFB PUSH1 0x0 DUP4 PUSH1 0x20 ADD MLOAD PUSH20 0xFFFFFFFFFFFFFFFFFFFFFFFFFFFFFFFFFFFFFFFF AND PUSH20 0xFFFFFFFFFFFFFFFFFFFFFFFFFFFFFFFFFFFFFFFF AND DUP2 MSTORE PUSH1 0x20 ADD SWAP1 DUP2 MSTORE PUSH1 0x20 ADD PUSH1 0x0 KECCAK256 PUSH1 0x0 DUP3 ADD MLOAD DUP2 PUSH1 0x0 ADD SWAP1 DUP1 MLOAD SWAP1 PUSH1 0x20 ADD SWAP1 PUSH2 0x2BFC SWAP3 SWAP2 SWAP1 PUSH2 0x5C2F JUMP JUMPDEST POP PUSH1 0x20 DUP3 ADD MLOAD DUP2 PUSH1 0x1 ADD PUSH1 0x0 PUSH2 0x100 EXP DUP2 SLOAD DUP2 PUSH1 0xFF MUL NOT AND SWAP1 DUP4 PUSH1 0x2 DUP2 GT ISZERO PUSH2 0x2C28 JUMPI PUSH2 0x2C27 PUSH2 0x61B3 JUMP JUMPDEST JUMPDEST MUL OR SWAP1 SSTORE POP PUSH1 0x40 DUP3 ADD MLOAD DUP2 PUSH1 0x1 ADD PUSH1 0x1 PUSH2 0x100 EXP DUP2 SLOAD DUP2 PUSH1 0xFF MUL NOT AND SWAP1 DUP4 ISZERO ISZERO MUL OR SWAP1 SSTORE POP SWAP1 POP POP PUSH1 0x1 PUSH2 0x105 PUSH1 0x0 DUP3 DUP3 DUP3 SWAP1 SLOAD SWAP1 PUSH2 0x100 EXP SWAP1 DIV PUSH4 0xFFFFFFFF AND PUSH2 0x2C73 SWAP2 SWAP1 PUSH2 0x778F JUMP JUMPDEST SWAP3 POP PUSH2 0x100 EXP DUP2 SLOAD DUP2 PUSH4 0xFFFFFFFF MUL NOT AND SWAP1 DUP4 PUSH4 0xFFFFFFFF AND MUL OR SWAP1 SSTORE POP PUSH1 0x1 SWAP2 POP POP JUMPDEST PUSH2 0x3384 JUMP JUMPDEST PUSH2 0x105 PUSH1 0x8 SWAP1 SLOAD SWAP1 PUSH2 0x100 EXP SWAP1 DIV PUSH1 0xFF AND ISZERO DUP1 ISZERO PUSH2 0x2CEF JUMPI POP PUSH1 0x2 PUSH1 0x3 DUP2 GT ISZERO PUSH2 0x2CC9 JUMPI PUSH2 0x2CC8 PUSH2 0x61B3 JUMP JUMPDEST JUMPDEST DUP4 PUSH1 0x6 ADD PUSH1 0x0 SWAP1 SLOAD SWAP1 PUSH2 0x100 EXP SWAP1 DIV PUSH1 0xFF AND PUSH1 0x3 DUP2 GT ISZERO PUSH2 0x2CED JUMPI PUSH2 0x2CEC PUSH2 0x61B3 JUMP JUMPDEST JUMPDEST EQ JUMPDEST ISZERO PUSH2 0x3383 JUMPI PUSH1 0x1 PUSH1 0x4 DUP2 GT ISZERO PUSH2 0x2D08 JUMPI PUSH2 0x2D07 PUSH2 0x61B3 JUMP JUMPDEST JUMPDEST DUP4 PUSH1 0x6 ADD PUSH1 0x1 SWAP1 SLOAD SWAP1 PUSH2 0x100 EXP SWAP1 DIV PUSH1 0xFF AND PUSH1 0x4 DUP2 GT ISZERO PUSH2 0x2D2C JUMPI PUSH2 0x2D2B PUSH2 0x61B3 JUMP JUMPDEST JUMPDEST SUB PUSH2 0x2FDA JUMPI PUSH1 0x0 DUP4 PUSH1 0x7 ADD DUP1 SLOAD PUSH2 0x2D42 SWAP1 PUSH2 0x6865 JUMP JUMPDEST DUP1 PUSH1 0x1F ADD PUSH1 0x20 DUP1 SWAP2 DIV MUL PUSH1 0x20 ADD PUSH1 0x40 MLOAD SWAP1 DUP2 ADD PUSH1 0x40 MSTORE DUP1 SWAP3 SWAP2 SWAP1 DUP2 DUP2 MSTORE PUSH1 0x20 ADD DUP3 DUP1 SLOAD PUSH2 0x2D6E SWAP1 PUSH2 0x6865 JUMP JUMPDEST DUP1 ISZERO PUSH2 0x2DBB JUMPI DUP1 PUSH1 0x1F LT PUSH2 0x2D90 JUMPI PUSH2 0x100 DUP1 DUP4 SLOAD DIV MUL DUP4 MSTORE SWAP2 PUSH1 0x20 ADD SWAP2 PUSH2 0x2DBB JUMP JUMPDEST DUP3 ADD SWAP2 SWAP1 PUSH1 0x0 MSTORE PUSH1 0x20 PUSH1 0x0 KECCAK256 SWAP1 JUMPDEST DUP2 SLOAD DUP2 MSTORE SWAP1 PUSH1 0x1 ADD SWAP1 PUSH1 0x20 ADD DUP1 DUP4 GT PUSH2 0x2D9E JUMPI DUP3 SWAP1 SUB PUSH1 0x1F AND DUP3 ADD SWAP2 JUMPDEST POP POP POP POP POP DUP1 PUSH1 0x20 ADD SWAP1 MLOAD DUP2 ADD SWAP1 PUSH2 0x2DD3 SWAP2 SWAP1 PUSH2 0x78AC JUMP JUMPDEST SWAP1 POP DUP2 DUP1 ISZERO PUSH2 0x2DF0 JUMPI POP PUSH2 0x2DEF DUP2 PUSH1 0x40 ADD MLOAD DUP3 PUSH1 0x20 ADD MLOAD PUSH2 0x4E27 JUMP JUMPDEST JUMPDEST SWAP2 POP DUP2 DUP1 ISZERO PUSH2 0x2E44 JUMPI POP PUSH2 0x2E43 PUSH2 0x101 PUSH1 0x0 SWAP1 SLOAD SWAP1 PUSH2 0x100 EXP SWAP1 DIV PUSH20 0xFFFFFFFFFFFFFFFFFFFFFFFFFFFFFFFFFFFFFFFF AND PUSH1 0x64 DUP4 PUSH1 0x20 ADD MLOAD PUSH1 0x5 PUSH2 0x2E34 SWAP2 SWAP1 PUSH2 0x78F5 JUMP JUMPDEST PUSH2 0x2E3E SWAP2 SWAP1 PUSH2 0x797E JUMP JUMPDEST PUSH2 0x4E27 JUMP JUMPDEST JUMPDEST SWAP2 POP DUP2 DUP1 ISZERO PUSH2 0x2E8D JUMPI POP PUSH2 0x2E8C DUP5 PUSH1 0x3 ADD PUSH1 0x0 SWAP1 SLOAD SWAP1 PUSH2 0x100 EXP SWAP1 DIV PUSH20 0xFFFFFFFFFFFFFFFFFFFFFFFFFFFFFFFFFFFFFFFF AND PUSH1 0x64 DUP4 PUSH1 0x20 ADD MLOAD PUSH2 0x2E87 SWAP2 SWAP1 PUSH2 0x797E JUMP JUMPDEST PUSH2 0x4E27 JUMP JUMPDEST JUMPDEST SWAP2 POP DUP2 DUP1 ISZERO PUSH2 0x2EAA JUMPI POP PUSH2 0x2EA9 DUP5 PUSH1 0x0 ADD SLOAD DUP3 PUSH1 0x20 ADD MLOAD PUSH2 0x4FBD JUMP JUMPDEST JUMPDEST SWAP2 POP PUSH1 0x40 MLOAD DUP1 PUSH1 0x60 ADD PUSH1 0x40 MSTORE DUP1 DUP3 PUSH1 0x0 ADD MLOAD DUP2 MSTORE PUSH1 0x20 ADD PUSH1 0x2 DUP1 DUP2 GT ISZERO PUSH2 0x2ED4 JUMPI PUSH2 0x2ED3 PUSH2 0x61B3 JUMP JUMPDEST JUMPDEST DUP2 MSTORE PUSH1 0x20 ADD PUSH1 0x1 ISZERO ISZERO DUP2 MSTORE POP PUSH1 0xFB PUSH1 0x0 DUP4 PUSH1 0x40 ADD MLOAD PUSH20 0xFFFFFFFFFFFFFFFFFFFFFFFFFFFFFFFFFFFFFFFF AND PUSH20 0xFFFFFFFFFFFFFFFFFFFFFFFFFFFFFFFFFFFFFFFF AND DUP2 MSTORE PUSH1 0x20 ADD SWAP1 DUP2 MSTORE PUSH1 0x20 ADD PUSH1 0x0 KECCAK256 PUSH1 0x0 DUP3 ADD MLOAD DUP2 PUSH1 0x0 ADD SWAP1 DUP1 MLOAD SWAP1 PUSH1 0x20 ADD SWAP1 PUSH2 0x2F3F SWAP3 SWAP2 SWAP1 PUSH2 0x5C2F JUMP JUMPDEST POP PUSH1 0x20 DUP3 ADD MLOAD DUP2 PUSH1 0x1 ADD PUSH1 0x0 PUSH2 0x100 EXP DUP2 SLOAD DUP2 PUSH1 0xFF MUL NOT AND SWAP1 DUP4 PUSH1 0x2 DUP2 GT ISZERO PUSH2 0x2F6B JUMPI PUSH2 0x2F6A PUSH2 0x61B3 JUMP JUMPDEST JUMPDEST MUL OR SWAP1 SSTORE POP PUSH1 0x40 DUP3 ADD MLOAD DUP2 PUSH1 0x1 ADD PUSH1 0x1 PUSH2 0x100 EXP DUP2 SLOAD DUP2 PUSH1 0xFF MUL NOT AND SWAP1 DUP4 ISZERO ISZERO MUL OR SWAP1 SSTORE POP SWAP1 POP POP PUSH1 0x1 PUSH2 0x105 PUSH1 0x4 DUP3 DUP3 DUP3 SWAP1 SLOAD SWAP1 PUSH2 0x100 EXP SWAP1 DIV PUSH4 0xFFFFFFFF AND PUSH2 0x2FB6 SWAP2 SWAP1 PUSH2 0x778F JUMP JUMPDEST SWAP3 POP PUSH2 0x100 EXP DUP2 SLOAD DUP2 PUSH4 0xFFFFFFFF MUL NOT AND SWAP1 DUP4 PUSH4 0xFFFFFFFF AND MUL OR SWAP1 SSTORE POP POP PUSH2 0x3382 JUMP JUMPDEST PUSH1 0x2 PUSH1 0x4 DUP2 GT ISZERO PUSH2 0x2FEE JUMPI PUSH2 0x2FED PUSH2 0x61B3 JUMP JUMPDEST JUMPDEST DUP4 PUSH1 0x6 ADD PUSH1 0x1 SWAP1 SLOAD SWAP1 PUSH2 0x100 EXP SWAP1 DIV PUSH1 0xFF AND PUSH1 0x4 DUP2 GT ISZERO PUSH2 0x3012 JUMPI PUSH2 0x3011 PUSH2 0x61B3 JUMP JUMPDEST JUMPDEST SUB PUSH2 0x3198 JUMPI PUSH1 0x0 DUP4 PUSH1 0x7 ADD DUP1 SLOAD PUSH2 0x3028 SWAP1 PUSH2 0x6865 JUMP JUMPDEST DUP1 PUSH1 0x1F ADD PUSH1 0x20 DUP1 SWAP2 DIV MUL PUSH1 0x20 ADD PUSH1 0x40 MLOAD SWAP1 DUP2 ADD PUSH1 0x40 MSTORE DUP1 SWAP3 SWAP2 SWAP1 DUP2 DUP2 MSTORE PUSH1 0x20 ADD DUP3 DUP1 SLOAD PUSH2 0x3054 SWAP1 PUSH2 0x6865 JUMP JUMPDEST DUP1 ISZERO PUSH2 0x30A1 JUMPI DUP1 PUSH1 0x1F LT PUSH2 0x3076 JUMPI PUSH2 0x100 DUP1 DUP4 SLOAD DIV MUL DUP4 MSTORE SWAP2 PUSH1 0x20 ADD SWAP2 PUSH2 0x30A1 JUMP JUMPDEST DUP3 ADD SWAP2 SWAP1 PUSH1 0x0 MSTORE PUSH1 0x20 PUSH1 0x0 KECCAK256 SWAP1 JUMPDEST DUP2 SLOAD DUP2 MSTORE SWAP1 PUSH1 0x1 ADD SWAP1 PUSH1 0x20 ADD DUP1 DUP4 GT PUSH2 0x3084 JUMPI DUP3 SWAP1 SUB PUSH1 0x1F AND DUP3 ADD SWAP2 JUMPDEST POP POP POP POP POP DUP1 PUSH1 0x20 ADD SWAP1 MLOAD DUP2 ADD SWAP1 PUSH2 0x30B9 SWAP2 SWAP1 PUSH2 0x7A43 JUMP JUMPDEST SWAP1 POP DUP2 DUP1 ISZERO PUSH2 0x30D6 JUMPI POP PUSH2 0x30D5 DUP2 PUSH1 0x40 ADD MLOAD DUP3 PUSH1 0x20 ADD MLOAD PUSH2 0x4E27 JUMP JUMPDEST JUMPDEST SWAP2 POP DUP2 DUP1 ISZERO PUSH2 0x312A JUMPI POP PUSH2 0x3129 PUSH2 0x101 PUSH1 0x0 SWAP1 SLOAD SWAP1 PUSH2 0x100 EXP SWAP1 DIV PUSH20 0xFFFFFFFFFFFFFFFFFFFFFFFFFFFFFFFFFFFFFFFF AND PUSH1 0x64 DUP4 PUSH1 0x20 ADD MLOAD PUSH1 0x5 PUSH2 0x311A SWAP2 SWAP1 PUSH2 0x78F5 JUMP JUMPDEST PUSH2 0x3124 SWAP2 SWAP1 PUSH2 0x797E JUMP JUMPDEST PUSH2 0x4E27 JUMP JUMPDEST JUMPDEST SWAP2 POP DUP2 DUP1 ISZERO PUSH2 0x3173 JUMPI POP PUSH2 0x3172 DUP5 PUSH1 0x3 ADD PUSH1 0x0 SWAP1 SLOAD SWAP1 PUSH2 0x100 EXP SWAP1 DIV PUSH20 0xFFFFFFFFFFFFFFFFFFFFFFFFFFFFFFFFFFFFFFFF AND PUSH1 0x64 DUP4 PUSH1 0x20 ADD MLOAD PUSH2 0x316D SWAP2 SWAP1 PUSH2 0x797E JUMP JUMPDEST PUSH2 0x4E27 JUMP JUMPDEST JUMPDEST SWAP2 POP DUP2 DUP1 ISZERO PUSH2 0x3190 JUMPI POP PUSH2 0x318F DUP5 PUSH1 0x0 ADD SLOAD DUP3 PUSH1 0x20 ADD MLOAD PUSH2 0x4FBD JUMP JUMPDEST JUMPDEST SWAP2 POP POP PUSH2 0x3381 JUMP JUMPDEST PUSH1 0x3 PUSH1 0x4 DUP2 GT ISZERO PUSH2 0x31AC JUMPI PUSH2 0x31AB PUSH2 0x61B3 JUMP JUMPDEST JUMPDEST DUP4 PUSH1 0x6 ADD PUSH1 0x1 SWAP1 SLOAD SWAP1 PUSH2 0x100 EXP SWAP1 DIV PUSH1 0xFF AND PUSH1 0x4 DUP2 GT ISZERO PUSH2 0x31D0 JUMPI PUSH2 0x31CF PUSH2 0x61B3 JUMP JUMPDEST JUMPDEST SUB PUSH2 0x328E JUMPI PUSH1 0x0 DUP4 PUSH1 0x7 ADD DUP1 SLOAD PUSH2 0x31E6 SWAP1 PUSH2 0x6865 JUMP JUMPDEST DUP1 PUSH1 0x1F ADD PUSH1 0x20 DUP1 SWAP2 DIV MUL PUSH1 0x20 ADD PUSH1 0x40 MLOAD SWAP1 DUP2 ADD PUSH1 0x40 MSTORE DUP1 SWAP3 SWAP2 SWAP1 DUP2 DUP2 MSTORE PUSH1 0x20 ADD DUP3 DUP1 SLOAD PUSH2 0x3212 SWAP1 PUSH2 0x6865 JUMP JUMPDEST DUP1 ISZERO PUSH2 0x325F JUMPI DUP1 PUSH1 0x1F LT PUSH2 0x3234 JUMPI PUSH2 0x100 DUP1 DUP4 SLOAD DIV MUL DUP4 MSTORE SWAP2 PUSH1 0x20 ADD SWAP2 PUSH2 0x325F JUMP JUMPDEST DUP3 ADD SWAP2 SWAP1 PUSH1 0x0 MSTORE PUSH1 0x20 PUSH1 0x0 KECCAK256 SWAP1 JUMPDEST DUP2 SLOAD DUP2 MSTORE SWAP1 PUSH1 0x1 ADD SWAP1 PUSH1 0x20 ADD DUP1 DUP4 GT PUSH2 0x3242 JUMPI DUP3 SWAP1 SUB PUSH1 0x1F AND DUP3 ADD SWAP2 JUMPDEST POP POP POP POP POP DUP1 PUSH1 0x20 ADD SWAP1 MLOAD DUP2 ADD SWAP1 PUSH2 0x3277 SWAP2 SWAP1 PUSH2 0x7AC8 JUMP JUMPDEST SWAP1 POP PUSH2 0x3286 DUP2 PUSH1 0x0 ADD MLOAD PUSH2 0x5069 JUMP JUMPDEST SWAP2 POP POP PUSH2 0x3380 JUMP JUMPDEST PUSH1 0x4 DUP1 DUP2 GT ISZERO PUSH2 0x32A1 JUMPI PUSH2 0x32A0 PUSH2 0x61B3 JUMP JUMPDEST JUMPDEST DUP4 PUSH1 0x6 ADD PUSH1 0x1 SWAP1 SLOAD SWAP1 PUSH2 0x100 EXP SWAP1 DIV PUSH1 0xFF AND PUSH1 0x4 DUP2 GT ISZERO PUSH2 0x32C5 JUMPI PUSH2 0x32C4 PUSH2 0x61B3 JUMP JUMPDEST JUMPDEST SUB PUSH2 0x337F JUMPI PUSH1 0x0 DUP4 PUSH1 0x7 ADD DUP1 SLOAD PUSH2 0x32DB SWAP1 PUSH2 0x6865 JUMP JUMPDEST DUP1 PUSH1 0x1F ADD PUSH1 0x20 DUP1 SWAP2 DIV MUL PUSH1 0x20 ADD PUSH1 0x40 MLOAD SWAP1 DUP2 ADD PUSH1 0x40 MSTORE DUP1 SWAP3 SWAP2 SWAP1 DUP2 DUP2 MSTORE PUSH1 0x20 ADD DUP3 DUP1 SLOAD PUSH2 0x3307 SWAP1 PUSH2 0x6865 JUMP JUMPDEST DUP1 ISZERO PUSH2 0x3354 JUMPI DUP1 PUSH1 0x1F LT PUSH2 0x3329 JUMPI PUSH2 0x100 DUP1 DUP4 SLOAD DIV MUL DUP4 MSTORE SWAP2 PUSH1 0x20 ADD SWAP2 PUSH2 0x3354 JUMP JUMPDEST DUP3 ADD SWAP2 SWAP1 PUSH1 0x0 MSTORE PUSH1 0x20 PUSH1 0x0 KECCAK256 SWAP1 JUMPDEST DUP2 SLOAD DUP2 MSTORE SWAP1 PUSH1 0x1 ADD SWAP1 PUSH1 0x20 ADD DUP1 DUP4 GT PUSH2 0x3337 JUMPI DUP3 SWAP1 SUB PUSH1 0x1F AND DUP3 ADD SWAP2 JUMPDEST POP POP POP POP POP DUP1 PUSH1 0x20 ADD SWAP1 MLOAD DUP2 ADD SWAP1 PUSH2 0x336C SWAP2 SWAP1 PUSH2 0x7B31 JUMP JUMPDEST SWAP1 POP PUSH2 0x337B DUP2 PUSH1 0x0 ADD MLOAD PUSH2 0x51D7 JUMP JUMPDEST SWAP2 POP POP JUMPDEST JUMPDEST JUMPDEST JUMPDEST JUMPDEST JUMPDEST DUP1 SWAP2 POP POP SWAP2 SWAP1 POP JUMP JUMPDEST PUSH2 0x3397 DUP3 DUP3 PUSH2 0x198D JUMP JUMPDEST ISZERO PUSH2 0x346B JUMPI PUSH1 0x0 PUSH1 0xC9 PUSH1 0x0 DUP5 DUP2 MSTORE PUSH1 0x20 ADD SWAP1 DUP2 MSTORE PUSH1 0x20 ADD PUSH1 0x0 KECCAK256 PUSH1 0x0 ADD PUSH1 0x0 DUP4 PUSH20 0xFFFFFFFFFFFFFFFFFFFFFFFFFFFFFFFFFFFFFFFF AND PUSH20 0xFFFFFFFFFFFFFFFFFFFFFFFFFFFFFFFFFFFFFFFF AND DUP2 MSTORE PUSH1 0x20 ADD SWAP1 DUP2 MSTORE PUSH1 0x20 ADD PUSH1 0x0 KECCAK256 PUSH1 0x0 PUSH2 0x100 EXP DUP2 SLOAD DUP2 PUSH1 0xFF MUL NOT AND SWAP1 DUP4 ISZERO ISZERO MUL OR SWAP1 SSTORE POP PUSH2 0x3410 PUSH2 0x2A0B JUMP JUMPDEST PUSH20 0xFFFFFFFFFFFFFFFFFFFFFFFFFFFFFFFFFFFFFFFF AND DUP2 PUSH20 0xFFFFFFFFFFFFFFFFFFFFFFFFFFFFFFFFFFFFFFFF AND DUP4 PUSH32 0xF6391F5C32D9C69D2A47EA670B442974B53935D1EDC7FD64EB21E047A839171B PUSH1 0x40 MLOAD PUSH1 0x40 MLOAD DUP1 SWAP2 SUB SWAP1 LOG4 JUMPDEST POP POP JUMP JUMPDEST PUSH1 0x0 PUSH2 0x349D PUSH32 0x360894A13BA1A3210667C828492DB98DCA3E2076CC3735A920A3CA505D382BBC PUSH1 0x0 SHL PUSH2 0x5345 JUMP JUMPDEST PUSH1 0x0 ADD PUSH1 0x0 SWAP1 SLOAD SWAP1 PUSH2 0x100 EXP SWAP1 DIV PUSH20 0xFFFFFFFFFFFFFFFFFFFFFFFFFFFFFFFFFFFFFFFF AND SWAP1 POP SWAP1 JUMP JUMPDEST ADDRESS PUSH20 0xFFFFFFFFFFFFFFFFFFFFFFFFFFFFFFFFFFFFFFFF AND PUSH4 0x91D14854 PUSH32 0xA49807205CE4D355092EF5A8A18F56E8913CF4A201FBE287825B095693C21775 PUSH2 0x350B PUSH2 0x2A0B JUMP JUMPDEST PUSH1 0x40 MLOAD DUP4 PUSH4 0xFFFFFFFF AND PUSH1 0xE0 SHL DUP2 MSTORE PUSH1 0x4 ADD PUSH2 0x3528 SWAP3 SWAP2 SWAP1 PUSH2 0x7506 JUMP JUMPDEST PUSH1 0x20 PUSH1 0x40 MLOAD DUP1 DUP4 SUB DUP2 DUP7 GAS STATICCALL ISZERO DUP1 ISZERO PUSH2 0x3545 JUMPI RETURNDATASIZE PUSH1 0x0 DUP1 RETURNDATACOPY RETURNDATASIZE PUSH1 0x0 REVERT JUMPDEST POP POP POP POP PUSH1 0x40 MLOAD RETURNDATASIZE PUSH1 0x1F NOT PUSH1 0x1F DUP3 ADD AND DUP3 ADD DUP1 PUSH1 0x40 MSTORE POP DUP2 ADD SWAP1 PUSH2 0x3569 SWAP2 SWAP1 PUSH2 0x7544 JUMP JUMPDEST POP POP JUMP JUMPDEST PUSH2 0x3599 PUSH32 0x4910FDFA16FED3260ED0E7147F7CC6DA11A60208B5B9406D12A635614FFD9143 PUSH1 0x0 SHL PUSH2 0x534F JUMP JUMPDEST PUSH1 0x0 ADD PUSH1 0x0 SWAP1 SLOAD SWAP1 PUSH2 0x100 EXP SWAP1 DIV PUSH1 0xFF AND ISZERO PUSH2 0x35BD JUMPI PUSH2 0x35B8 DUP4 PUSH2 0x5359 JUMP JUMPDEST PUSH2 0x36D6 JUMP JUMPDEST DUP3 PUSH20 0xFFFFFFFFFFFFFFFFFFFFFFFFFFFFFFFFFFFFFFFF AND PUSH4 0x52D1902D PUSH1 0x40 MLOAD DUP2 PUSH4 0xFFFFFFFF AND PUSH1 0xE0 SHL DUP2 MSTORE PUSH1 0x4 ADD PUSH1 0x20 PUSH1 0x40 MLOAD DUP1 DUP4 SUB DUP2 DUP7 GAS STATICCALL SWAP3 POP POP POP DUP1 ISZERO PUSH2 0x3625 JUMPI POP PUSH1 0x40 MLOAD RETURNDATASIZE PUSH1 0x1F NOT PUSH1 0x1F DUP3 ADD AND DUP3 ADD DUP1 PUSH1 0x40 MSTORE POP DUP2 ADD SWAP1 PUSH2 0x3622 SWAP2 SWAP1 PUSH2 0x7B73 JUMP JUMPDEST PUSH1 0x1 JUMPDEST PUSH2 0x3664 JUMPI PUSH1 0x40 MLOAD PUSH32 0x8C379A000000000000000000000000000000000000000000000000000000000 DUP2 MSTORE PUSH1 0x4 ADD PUSH2 0x365B SWAP1 PUSH2 0x7C12 JUMP JUMPDEST PUSH1 0x40 MLOAD DUP1 SWAP2 SUB SWAP1 REVERT JUMPDEST PUSH32 0x360894A13BA1A3210667C828492DB98DCA3E2076CC3735A920A3CA505D382BBC PUSH1 0x0 SHL DUP2 EQ PUSH2 0x36C9 JUMPI PUSH1 0x40 MLOAD PUSH32 0x8C379A000000000000000000000000000000000000000000000000000000000 DUP2 MSTORE PUSH1 0x4 ADD PUSH2 0x36C0 SWAP1 PUSH2 0x7CA4 JUMP JUMPDEST PUSH1 0x40 MLOAD DUP1 SWAP2 SUB SWAP1 REVERT JUMPDEST POP PUSH2 0x36D5 DUP4 DUP4 DUP4 PUSH2 0x5412 JUMP JUMPDEST JUMPDEST POP POP POP JUMP JUMPDEST PUSH1 0x0 TIMESTAMP DUP3 PUSH1 0x0 ADD MLOAD PUSH8 0xFFFFFFFFFFFFFFFF AND GT SWAP1 POP SWAP2 SWAP1 POP JUMP JUMPDEST PUSH1 0x0 DUP1 PUSH1 0xFC PUSH1 0x0 DUP5 DUP2 MSTORE PUSH1 0x20 ADD SWAP1 DUP2 MSTORE PUSH1 0x20 ADD PUSH1 0x0 KECCAK256 SWAP1 POP DUP1 PUSH1 0x0 ADD PUSH1 0x10 SWAP1 SLOAD SWAP1 PUSH2 0x100 EXP SWAP1 DIV PUSH8 0xFFFFFFFFFFFFFFFF AND DUP2 PUSH1 0x0 ADD PUSH1 0x0 SWAP1 SLOAD SWAP1 PUSH2 0x100 EXP SWAP1 DIV PUSH8 0xFFFFFFFFFFFFFFFF AND DUP3 PUSH1 0x0 ADD PUSH1 0x8 SWAP1 SLOAD SWAP1 PUSH2 0x100 EXP SWAP1 DIV PUSH8 0xFFFFFFFFFFFFFFFF AND PUSH2 0x3762 SWAP2 SWAP1 PUSH2 0x7617 JUMP JUMPDEST PUSH2 0x376C SWAP2 SWAP1 PUSH2 0x7617 JUMP JUMPDEST PUSH8 0xFFFFFFFFFFFFFFFF AND PUSH2 0x105 PUSH1 0x0 SWAP1 SLOAD SWAP1 PUSH2 0x100 EXP SWAP1 DIV PUSH4 0xFFFFFFFF AND PUSH4 0xFFFFFFFF AND EQ SWAP2 POP POP SWAP2 SWAP1 POP JUMP JUMPDEST PUSH1 0x0 PUSH2 0x37A4 DUP3 PUSH2 0x543E JUMP JUMPDEST DUP1 ISZERO PUSH2 0x37BE JUMPI POP TIMESTAMP DUP3 PUSH1 0x0 ADD MLOAD PUSH8 0xFFFFFFFFFFFFFFFF AND GT ISZERO JUMPDEST SWAP1 POP SWAP2 SWAP1 POP JUMP JUMPDEST PUSH1 0x0 DUP1 PUSH1 0xFC PUSH1 0x0 DUP5 DUP2 MSTORE PUSH1 0x20 ADD SWAP1 DUP2 MSTORE PUSH1 0x20 ADD PUSH1 0x0 KECCAK256 SWAP1 POP PUSH1 0x1 PUSH1 0x2 PUSH2 0x105 PUSH1 0x0 SWAP1 SLOAD SWAP1 PUSH2 0x100 EXP SWAP1 DIV PUSH4 0xFFFFFFFF AND PUSH2 0x37FF SWAP2 SWAP1 PUSH2 0x7CC4 JUMP JUMPDEST PUSH2 0x3809 SWAP2 SWAP1 PUSH2 0x778F JUMP JUMPDEST PUSH4 0xFFFFFFFF AND DUP2 PUSH1 0x0 ADD PUSH1 0x8 SWAP1 SLOAD SWAP1 PUSH2 0x100 EXP SWAP1 DIV PUSH8 0xFFFFFFFFFFFFFFFF AND PUSH8 0xFFFFFFFFFFFFFFFF AND LT ISZERO SWAP2 POP POP SWAP2 SWAP1 POP JUMP JUMPDEST PUSH1 0x0 DUP1 PUSH1 0x1 SWAP1 SLOAD SWAP1 PUSH2 0x100 EXP SWAP1 DIV PUSH1 0xFF AND ISZERO PUSH2 0x38B3 JUMPI PUSH1 0x1 DUP3 PUSH1 0xFF AND EQ DUP1 ISZERO PUSH2 0x386B JUMPI POP PUSH2 0x3869 ADDRESS PUSH2 0x5458 JUMP JUMPDEST ISZERO JUMPDEST PUSH2 0x38AA JUMPI PUSH1 0x40 MLOAD PUSH32 0x8C379A000000000000000000000000000000000000000000000000000000000 DUP2 MSTORE PUSH1 0x4 ADD PUSH2 0x38A1 SWAP1 PUSH2 0x7D67 JUMP JUMPDEST PUSH1 0x40 MLOAD DUP1 SWAP2 SUB SWAP1 REVERT JUMPDEST PUSH1 0x0 SWAP1 POP PUSH2 0x3927 JUMP JUMPDEST DUP2 PUSH1 0xFF AND PUSH1 0x0 DUP1 SLOAD SWAP1 PUSH2 0x100 EXP SWAP1 DIV PUSH1 0xFF AND PUSH1 0xFF AND LT PUSH2 0x3908 JUMPI PUSH1 0x40 MLOAD PUSH32 0x8C379A000000000000000000000000000000000000000000000000000000000 DUP2 MSTORE PUSH1 0x4 ADD PUSH2 0x38FF SWAP1 PUSH2 0x7D67 JUMP JUMPDEST PUSH1 0x40 MLOAD DUP1 SWAP2 SUB SWAP1 REVERT JUMPDEST DUP2 PUSH1 0x0 DUP1 PUSH2 0x100 EXP DUP2 SLOAD DUP2 PUSH1 0xFF MUL NOT AND SWAP1 DUP4 PUSH1 0xFF AND MUL OR SWAP1 SSTORE POP PUSH1 0x1 SWAP1 POP JUMPDEST SWAP2 SWAP1 POP JUMP JUMPDEST PUSH1 0x0 PUSH2 0x3937 DUP4 PUSH2 0xCF4 JUMP JUMPDEST SWAP1 POP DUP2 PUSH1 0xC9 PUSH1 0x0 DUP6 DUP2 MSTORE PUSH1 0x20 ADD SWAP1 DUP2 MSTORE PUSH1 0x20 ADD PUSH1 0x0 KECCAK256 PUSH1 0x1 ADD DUP2 SWAP1 SSTORE POP DUP2 DUP2 DUP5 PUSH32 0xBD79B86FFE0AB8E8776151514217CD7CACD52C909F66475C3AF44E129F0B00FF PUSH1 0x40 MLOAD PUSH1 0x40 MLOAD DUP1 SWAP2 SUB SWAP1 LOG4 POP POP POP JUMP JUMPDEST PUSH1 0x0 DUP1 PUSH1 0x3 DUP2 GT ISZERO PUSH2 0x399D JUMPI PUSH2 0x399C PUSH2 0x61B3 JUMP JUMPDEST JUMPDEST DUP4 PUSH1 0x3 DUP2 GT ISZERO PUSH2 0x39B0 JUMPI PUSH2 0x39AF PUSH2 0x61B3 JUMP JUMPDEST JUMPDEST SUB PUSH2 0x39F0 JUMPI PUSH1 0x40 MLOAD PUSH32 0x8C379A000000000000000000000000000000000000000000000000000000000 DUP2 MSTORE PUSH1 0x4 ADD PUSH2 0x39E7 SWAP1 PUSH2 0x7DD3 JUMP JUMPDEST PUSH1 0x40 MLOAD DUP1 SWAP2 SUB SWAP1 REVERT JUMPDEST PUSH1 0x2 PUSH1 0x7 DUP2 GT ISZERO PUSH2 0x3A04 JUMPI PUSH2 0x3A03 PUSH2 0x61B3 JUMP JUMPDEST JUMPDEST PUSH2 0x3A0D DUP7 PUSH2 0x1494 JUMP JUMPDEST PUSH1 0x7 DUP2 GT ISZERO PUSH2 0x3A1F JUMPI PUSH2 0x3A1E PUSH2 0x61B3 JUMP JUMPDEST JUMPDEST EQ PUSH2 0x3A5F JUMPI PUSH1 0x40 MLOAD PUSH32 0x8C379A000000000000000000000000000000000000000000000000000000000 DUP2 MSTORE PUSH1 0x4 ADD PUSH2 0x3A56 SWAP1 PUSH2 0x7E65 JUMP JUMPDEST PUSH1 0x40 MLOAD DUP1 SWAP2 SUB SWAP1 REVERT JUMPDEST PUSH1 0x0 PUSH1 0xFC PUSH1 0x0 DUP8 DUP2 MSTORE PUSH1 0x20 ADD SWAP1 DUP2 MSTORE PUSH1 0x20 ADD PUSH1 0x0 KECCAK256 SWAP1 POP PUSH2 0x3A8C DUP6 DUP3 PUSH1 0x1 ADD PUSH2 0x3CBB SWAP1 SWAP2 SWAP1 PUSH4 0xFFFFFFFF AND JUMP JUMPDEST ISZERO PUSH2 0x3ACC JUMPI PUSH1 0x40 MLOAD PUSH32 0x8C379A000000000000000000000000000000000000000000000000000000000 DUP2 MSTORE PUSH1 0x4 ADD PUSH2 0x3AC3 SWAP1 PUSH2 0x7ED1 JUMP JUMPDEST PUSH1 0x40 MLOAD DUP1 SWAP2 SUB SWAP1 REVERT JUMPDEST PUSH2 0x3AE2 DUP6 DUP3 PUSH1 0x1 ADD PUSH2 0x2A13 SWAP1 SWAP2 SWAP1 PUSH4 0xFFFFFFFF AND JUMP JUMPDEST POP PUSH1 0x1 PUSH1 0x3 DUP2 GT ISZERO PUSH2 0x3AF7 JUMPI PUSH2 0x3AF6 PUSH2 0x61B3 JUMP JUMPDEST JUMPDEST DUP5 PUSH1 0x3 DUP2 GT ISZERO PUSH2 0x3B0A JUMPI PUSH2 0x3B09 PUSH2 0x61B3 JUMP JUMPDEST JUMPDEST SUB PUSH2 0x3B62 JUMPI PUSH1 0x1 DUP2 PUSH1 0x0 ADD PUSH1 0x0 DUP3 DUP3 DUP3 SWAP1 SLOAD SWAP1 PUSH2 0x100 EXP SWAP1 DIV PUSH8 0xFFFFFFFFFFFFFFFF AND PUSH2 0x3B37 SWAP2 SWAP1 PUSH2 0x7617 JUMP JUMPDEST SWAP3 POP PUSH2 0x100 EXP DUP2 SLOAD DUP2 PUSH8 0xFFFFFFFFFFFFFFFF MUL NOT AND SWAP1 DUP4 PUSH8 0xFFFFFFFFFFFFFFFF AND MUL OR SWAP1 SSTORE POP PUSH2 0x3C5D JUMP JUMPDEST PUSH1 0x2 PUSH1 0x3 DUP2 GT ISZERO PUSH2 0x3B76 JUMPI PUSH2 0x3B75 PUSH2 0x61B3 JUMP JUMPDEST JUMPDEST DUP5 PUSH1 0x3 DUP2 GT ISZERO PUSH2 0x3B89 JUMPI PUSH2 0x3B88 PUSH2 0x61B3 JUMP JUMPDEST JUMPDEST SUB PUSH2 0x3BE1 JUMPI PUSH1 0x1 DUP2 PUSH1 0x0 ADD PUSH1 0x8 DUP3 DUP3 DUP3 SWAP1 SLOAD SWAP1 PUSH2 0x100 EXP SWAP1 DIV PUSH8 0xFFFFFFFFFFFFFFFF AND PUSH2 0x3BB6 SWAP2 SWAP1 PUSH2 0x7617 JUMP JUMPDEST SWAP3 POP PUSH2 0x100 EXP DUP2 SLOAD DUP2 PUSH8 0xFFFFFFFFFFFFFFFF MUL NOT AND SWAP1 DUP4 PUSH8 0xFFFFFFFFFFFFFFFF AND MUL OR SWAP1 SSTORE POP PUSH2 0x3C5C JUMP JUMPDEST PUSH1 0x3 DUP1 DUP2 GT ISZERO PUSH2 0x3BF4 JUMPI PUSH2 0x3BF3 PUSH2 0x61B3 JUMP JUMPDEST JUMPDEST DUP5 PUSH1 0x3 DUP2 GT ISZERO PUSH2 0x3C07 JUMPI PUSH2 0x3C06 PUSH2 0x61B3 JUMP JUMPDEST JUMPDEST SUB PUSH2 0x3C5B JUMPI PUSH1 0x1 DUP2 PUSH1 0x0 ADD PUSH1 0x10 DUP3 DUP3 DUP3 SWAP1 SLOAD SWAP1 PUSH2 0x100 EXP SWAP1 DIV PUSH8 0xFFFFFFFFFFFFFFFF AND PUSH2 0x3C34 SWAP2 SWAP1 PUSH2 0x7617 JUMP JUMPDEST SWAP3 POP PUSH2 0x100 EXP DUP2 SLOAD DUP2 PUSH8 0xFFFFFFFFFFFFFFFF MUL NOT AND SWAP1 DUP4 PUSH8 0xFFFFFFFFFFFFFFFF AND MUL OR SWAP1 SSTORE POP JUMPDEST JUMPDEST JUMPDEST DUP6 DUP6 PUSH20 0xFFFFFFFFFFFFFFFFFFFFFFFFFFFFFFFFFFFFFFFF AND PUSH32 0xBBB255028C79DEA070E4449C346283DA7B4B66693776C096BB820822E4D9C41A DUP7 DUP7 PUSH1 0x40 MLOAD PUSH2 0x3CA6 SWAP3 SWAP2 SWAP1 PUSH2 0x7EF1 JUMP JUMPDEST PUSH1 0x40 MLOAD DUP1 SWAP2 SUB SWAP1 LOG3 PUSH1 0x1 SWAP2 POP POP SWAP5 SWAP4 POP POP POP POP JUMP JUMPDEST PUSH1 0x0 PUSH2 0x3CE3 DUP4 PUSH1 0x0 ADD DUP4 PUSH20 0xFFFFFFFFFFFFFFFFFFFFFFFFFFFFFFFFFFFFFFFF AND PUSH1 0x0 SHL PUSH2 0x547B JUMP JUMPDEST SWAP1 POP SWAP3 SWAP2 POP POP JUMP JUMPDEST PUSH1 0x0 PUSH32 0xF1D23BD7EDE3E157B19AF9BDC7F9F08C55104D948E791AD0900A92E0A680C3A2 DUP8 DUP8 DUP8 DUP8 DUP8 DUP8 PUSH1 0x40 MLOAD PUSH1 0x20 ADD PUSH2 0x3D24 SWAP2 SWAP1 PUSH2 0x7F5D JUMP JUMPDEST PUSH1 0x40 MLOAD PUSH1 0x20 DUP2 DUP4 SUB SUB DUP2 MSTORE SWAP1 PUSH1 0x40 MSTORE DUP1 MLOAD SWAP1 PUSH1 0x20 ADD KECCAK256 PUSH1 0x40 MLOAD PUSH1 0x20 ADD PUSH2 0x3D50 SWAP8 SWAP7 SWAP6 SWAP5 SWAP4 SWAP3 SWAP2 SWAP1 PUSH2 0x7F74 JUMP JUMPDEST PUSH1 0x40 MLOAD PUSH1 0x20 DUP2 DUP4 SUB SUB DUP2 MSTORE SWAP1 PUSH1 0x40 MSTORE DUP1 MLOAD SWAP1 PUSH1 0x20 ADD KECCAK256 SWAP1 POP SWAP7 SWAP6 POP POP POP POP POP POP JUMP JUMPDEST PUSH1 0x0 PUSH2 0x3D85 PUSH2 0x3D7F PUSH2 0x549E JUMP JUMPDEST DUP4 PUSH2 0x5544 JUMP JUMPDEST SWAP1 POP SWAP2 SWAP1 POP JUMP JUMPDEST PUSH1 0x0 DUP1 PUSH1 0x41 DUP4 MLOAD SUB PUSH2 0x3DCD JUMPI PUSH1 0x0 DUP1 PUSH1 0x0 PUSH1 0x20 DUP7 ADD MLOAD SWAP3 POP PUSH1 0x40 DUP7 ADD MLOAD SWAP2 POP PUSH1 0x60 DUP7 ADD MLOAD PUSH1 0x0 BYTE SWAP1 POP PUSH2 0x3DC1 DUP8 DUP3 DUP6 DUP6 PUSH2 0x5577 JUMP JUMPDEST SWAP5 POP SWAP5 POP POP POP POP PUSH2 0x3E06 JUMP JUMPDEST PUSH1 0x40 DUP4 MLOAD SUB PUSH2 0x3DFD JUMPI PUSH1 0x0 DUP1 PUSH1 0x20 DUP6 ADD MLOAD SWAP2 POP PUSH1 0x40 DUP6 ADD MLOAD SWAP1 POP PUSH2 0x3DF2 DUP7 DUP4 DUP4 PUSH2 0x5683 JUMP JUMPDEST SWAP4 POP SWAP4 POP POP POP PUSH2 0x3E06 JUMP JUMPDEST PUSH1 0x0 PUSH1 0x2 SWAP2 POP SWAP2 POP JUMPDEST SWAP3 POP SWAP3 SWAP1 POP JUMP JUMPDEST DUP1 DUP3 PUSH1 0x0 ADD PUSH1 0x0 PUSH2 0x100 EXP DUP2 SLOAD DUP2 PUSH8 0xFFFFFFFFFFFFFFFF MUL NOT AND SWAP1 DUP4 PUSH8 0xFFFFFFFFFFFFFFFF AND MUL OR SWAP1 SSTORE POP POP POP JUMP JUMPDEST PUSH1 0x1 PUSH1 0x3 DUP2 GT ISZERO PUSH2 0x3E50 JUMPI PUSH2 0x3E4F PUSH2 0x61B3 JUMP JUMPDEST JUMPDEST DUP2 PUSH1 0x6 ADD PUSH1 0x0 SWAP1 SLOAD SWAP1 PUSH2 0x100 EXP SWAP1 DIV PUSH1 0xFF AND PUSH1 0x3 DUP2 GT ISZERO PUSH2 0x3E74 JUMPI PUSH2 0x3E73 PUSH2 0x61B3 JUMP JUMPDEST JUMPDEST SUB PUSH2 0x4178 JUMPI PUSH1 0x1 PUSH1 0x4 DUP2 GT ISZERO PUSH2 0x3E8D JUMPI PUSH2 0x3E8C PUSH2 0x61B3 JUMP JUMPDEST JUMPDEST DUP2 PUSH1 0x6 ADD PUSH1 0x1 SWAP1 SLOAD SWAP1 PUSH2 0x100 EXP SWAP1 DIV PUSH1 0xFF AND PUSH1 0x4 DUP2 GT ISZERO PUSH2 0x3EB1 JUMPI PUSH2 0x3EB0 PUSH2 0x61B3 JUMP JUMPDEST JUMPDEST SUB PUSH2 0x4173 JUMPI PUSH1 0x0 DUP2 PUSH1 0x7 ADD DUP1 SLOAD PUSH2 0x3EC7 SWAP1 PUSH2 0x6865 JUMP JUMPDEST DUP1 PUSH1 0x1F ADD PUSH1 0x20 DUP1 SWAP2 DIV MUL PUSH1 0x20 ADD PUSH1 0x40 MLOAD SWAP1 DUP2 ADD PUSH1 0x40 MSTORE DUP1 SWAP3 SWAP2 SWAP1 DUP2 DUP2 MSTORE PUSH1 0x20 ADD DUP3 DUP1 SLOAD PUSH2 0x3EF3 SWAP1 PUSH2 0x6865 JUMP JUMPDEST DUP1 ISZERO PUSH2 0x3F40 JUMPI DUP1 PUSH1 0x1F LT PUSH2 0x3F15 JUMPI PUSH2 0x100 DUP1 DUP4 SLOAD DIV MUL DUP4 MSTORE SWAP2 PUSH1 0x20 ADD SWAP2 PUSH2 0x3F40 JUMP JUMPDEST DUP3 ADD SWAP2 SWAP1 PUSH1 0x0 MSTORE PUSH1 0x20 PUSH1 0x0 KECCAK256 SWAP1 JUMPDEST DUP2 SLOAD DUP2 MSTORE SWAP1 PUSH1 0x1 ADD SWAP1 PUSH1 0x20 ADD DUP1 DUP4 GT PUSH2 0x3F23 JUMPI DUP3 SWAP1 SUB PUSH1 0x1F AND DUP3 ADD SWAP2 JUMPDEST POP POP POP POP POP DUP1 PUSH1 0x20 ADD SWAP1 MLOAD DUP2 ADD SWAP1 PUSH2 0x3F58 SWAP2 SWAP1 PUSH2 0x7746 JUMP JUMPDEST SWAP1 POP PUSH1 0x0 PUSH20 0xFFFFFFFFFFFFFFFFFFFFFFFFFFFFFFFFFFFFFFFF AND DUP2 PUSH1 0x20 ADD MLOAD PUSH20 0xFFFFFFFFFFFFFFFFFFFFFFFFFFFFFFFFFFFFFFFF AND SUB PUSH2 0x3FCD JUMPI PUSH1 0x40 MLOAD PUSH32 0x8C379A000000000000000000000000000000000000000000000000000000000 DUP2 MSTORE PUSH1 0x4 ADD PUSH2 0x3FC4 SWAP1 PUSH2 0x8055 JUMP JUMPDEST PUSH1 0x40 MLOAD DUP1 SWAP2 SUB SWAP1 REVERT JUMPDEST PUSH1 0x0 DUP2 PUSH1 0x0 ADD MLOAD MLOAD SUB PUSH2 0x4015 JUMPI PUSH1 0x40 MLOAD PUSH32 0x8C379A000000000000000000000000000000000000000000000000000000000 DUP2 MSTORE PUSH1 0x4 ADD PUSH2 0x400C SWAP1 PUSH2 0x80E7 JUMP JUMPDEST PUSH1 0x40 MLOAD DUP1 SWAP2 SUB SWAP1 REVERT JUMPDEST PUSH1 0x0 PUSH1 0x2 DUP2 GT ISZERO PUSH2 0x4029 JUMPI PUSH2 0x4028 PUSH2 0x61B3 JUMP JUMPDEST JUMPDEST PUSH1 0xFB PUSH1 0x0 DUP4 PUSH1 0x20 ADD MLOAD PUSH20 0xFFFFFFFFFFFFFFFFFFFFFFFFFFFFFFFFFFFFFFFF AND PUSH20 0xFFFFFFFFFFFFFFFFFFFFFFFFFFFFFFFFFFFFFFFF AND DUP2 MSTORE PUSH1 0x20 ADD SWAP1 DUP2 MSTORE PUSH1 0x20 ADD PUSH1 0x0 KECCAK256 PUSH1 0x1 ADD PUSH1 0x0 SWAP1 SLOAD SWAP1 PUSH2 0x100 EXP SWAP1 DIV PUSH1 0xFF AND PUSH1 0x2 DUP2 GT ISZERO PUSH2 0x408F JUMPI PUSH2 0x408E PUSH2 0x61B3 JUMP JUMPDEST JUMPDEST EQ PUSH2 0x40CF JUMPI PUSH1 0x40 MLOAD PUSH32 0x8C379A000000000000000000000000000000000000000000000000000000000 DUP2 MSTORE PUSH1 0x4 ADD PUSH2 0x40C6 SWAP1 PUSH2 0x8153 JUMP JUMPDEST PUSH1 0x40 MLOAD DUP1 SWAP2 SUB SWAP1 REVERT JUMPDEST DUP1 PUSH1 0x20 ADD MLOAD PUSH20 0xFFFFFFFFFFFFFFFFFFFFFFFFFFFFFFFFFFFFFFFF AND DUP3 PUSH1 0x3 ADD PUSH1 0x0 SWAP1 SLOAD SWAP1 PUSH2 0x100 EXP SWAP1 DIV PUSH20 0xFFFFFFFFFFFFFFFFFFFFFFFFFFFFFFFFFFFFFFFF AND PUSH20 0xFFFFFFFFFFFFFFFFFFFFFFFFFFFFFFFFFFFFFFFF AND DUP4 PUSH1 0x0 ADD SLOAD PUSH32 0x3B993E041D591EA59A38F6CFF579DF5E8D6C2D1FED74305DFBB114336C41BDFD DUP6 PUSH1 0x1 ADD SLOAD DUP7 PUSH1 0x2 ADD SLOAD DUP7 PUSH1 0x0 ADD MLOAD PUSH1 0x40 MLOAD PUSH2 0x4169 SWAP4 SWAP3 SWAP2 SWAP1 PUSH2 0x8173 JUMP JUMPDEST PUSH1 0x40 MLOAD DUP1 SWAP2 SUB SWAP1 LOG4 POP JUMPDEST PUSH2 0x4D17 JUMP JUMPDEST PUSH1 0x2 PUSH1 0x3 DUP2 GT ISZERO PUSH2 0x418C JUMPI PUSH2 0x418B PUSH2 0x61B3 JUMP JUMPDEST JUMPDEST DUP2 PUSH1 0x6 ADD PUSH1 0x0 SWAP1 SLOAD SWAP1 PUSH2 0x100 EXP SWAP1 DIV PUSH1 0xFF AND PUSH1 0x3 DUP2 GT ISZERO PUSH2 0x41B0 JUMPI PUSH2 0x41AF PUSH2 0x61B3 JUMP JUMPDEST JUMPDEST SUB PUSH2 0x4CDC JUMPI PUSH1 0x1 PUSH1 0x4 DUP2 GT ISZERO PUSH2 0x41C9 JUMPI PUSH2 0x41C8 PUSH2 0x61B3 JUMP JUMPDEST JUMPDEST DUP2 PUSH1 0x6 ADD PUSH1 0x1 SWAP1 SLOAD SWAP1 PUSH2 0x100 EXP SWAP1 DIV PUSH1 0xFF AND PUSH1 0x4 DUP2 GT ISZERO PUSH2 0x41ED JUMPI PUSH2 0x41EC PUSH2 0x61B3 JUMP JUMPDEST JUMPDEST SUB PUSH2 0x4551 JUMPI PUSH1 0x0 DUP2 PUSH1 0x7 ADD DUP1 SLOAD PUSH2 0x4203 SWAP1 PUSH2 0x6865 JUMP JUMPDEST DUP1 PUSH1 0x1F ADD PUSH1 0x20 DUP1 SWAP2 DIV MUL PUSH1 0x20 ADD PUSH1 0x40 MLOAD SWAP1 DUP2 ADD PUSH1 0x40 MSTORE DUP1 SWAP3 SWAP2 SWAP1 DUP2 DUP2 MSTORE PUSH1 0x20 ADD DUP3 DUP1 SLOAD PUSH2 0x422F SWAP1 PUSH2 0x6865 JUMP JUMPDEST DUP1 ISZERO PUSH2 0x427C JUMPI DUP1 PUSH1 0x1F LT PUSH2 0x4251 JUMPI PUSH2 0x100 DUP1 DUP4 SLOAD DIV MUL DUP4 MSTORE SWAP2 PUSH1 0x20 ADD SWAP2 PUSH2 0x427C JUMP JUMPDEST DUP3 ADD SWAP2 SWAP1 PUSH1 0x0 MSTORE PUSH1 0x20 PUSH1 0x0 KECCAK256 SWAP1 JUMPDEST DUP2 SLOAD DUP2 MSTORE SWAP1 PUSH1 0x1 ADD SWAP1 PUSH1 0x20 ADD DUP1 DUP4 GT PUSH2 0x425F JUMPI DUP3 SWAP1 SUB PUSH1 0x1F AND DUP3 ADD SWAP2 JUMPDEST POP POP POP POP POP DUP1 PUSH1 0x20 ADD SWAP1 MLOAD DUP2 ADD SWAP1 PUSH2 0x4294 SWAP2 SWAP1 PUSH2 0x78AC JUMP JUMPDEST SWAP1 POP PUSH1 0x0 DUP2 PUSH1 0x0 ADD MLOAD MLOAD SUB PUSH2 0x42DE JUMPI PUSH1 0x40 MLOAD PUSH32 0x8C379A000000000000000000000000000000000000000000000000000000000 DUP2 MSTORE PUSH1 0x4 ADD PUSH2 0x42D5 SWAP1 PUSH2 0x81FD JUMP JUMPDEST PUSH1 0x40 MLOAD DUP1 SWAP2 SUB SWAP1 REVERT JUMPDEST PUSH1 0x0 DUP2 PUSH1 0x20 ADD MLOAD SUB PUSH2 0x4325 JUMPI PUSH1 0x40 MLOAD PUSH32 0x8C379A000000000000000000000000000000000000000000000000000000000 DUP2 MSTORE PUSH1 0x4 ADD PUSH2 0x431C SWAP1 PUSH2 0x828F JUMP JUMPDEST PUSH1 0x40 MLOAD DUP1 SWAP2 SUB SWAP1 REVERT JUMPDEST PUSH1 0x0 DUP2 PUSH1 0x60 ADD MLOAD PUSH2 0xFFFF AND SUB PUSH2 0x4370 JUMPI PUSH1 0x40 MLOAD PUSH32 0x8C379A000000000000000000000000000000000000000000000000000000000 DUP2 MSTORE PUSH1 0x4 ADD PUSH2 0x4367 SWAP1 PUSH2 0x8321 JUMP JUMPDEST PUSH1 0x40 MLOAD DUP1 SWAP2 SUB SWAP1 REVERT JUMPDEST PUSH1 0x0 PUSH20 0xFFFFFFFFFFFFFFFFFFFFFFFFFFFFFFFFFFFFFFFF AND DUP2 PUSH1 0x40 ADD MLOAD PUSH20 0xFFFFFFFFFFFFFFFFFFFFFFFFFFFFFFFFFFFFFFFF AND SUB PUSH2 0x43E3 JUMPI PUSH1 0x40 MLOAD PUSH32 0x8C379A000000000000000000000000000000000000000000000000000000000 DUP2 MSTORE PUSH1 0x4 ADD PUSH2 0x43DA SWAP1 PUSH2 0x838D JUMP JUMPDEST PUSH1 0x40 MLOAD DUP1 SWAP2 SUB SWAP1 REVERT JUMPDEST PUSH1 0x0 PUSH1 0x2 DUP2 GT ISZERO PUSH2 0x43F7 JUMPI PUSH2 0x43F6 PUSH2 0x61B3 JUMP JUMPDEST JUMPDEST PUSH1 0xFB PUSH1 0x0 DUP4 PUSH1 0x40 ADD MLOAD PUSH20 0xFFFFFFFFFFFFFFFFFFFFFFFFFFFFFFFFFFFFFFFF AND PUSH20 0xFFFFFFFFFFFFFFFFFFFFFFFFFFFFFFFFFFFFFFFF AND DUP2 MSTORE PUSH1 0x20 ADD SWAP1 DUP2 MSTORE PUSH1 0x20 ADD PUSH1 0x0 KECCAK256 PUSH1 0x1 ADD PUSH1 0x0 SWAP1 SLOAD SWAP1 PUSH2 0x100 EXP SWAP1 DIV PUSH1 0xFF AND PUSH1 0x2 DUP2 GT ISZERO PUSH2 0x445D JUMPI PUSH2 0x445C PUSH2 0x61B3 JUMP JUMPDEST JUMPDEST EQ PUSH2 0x449D JUMPI PUSH1 0x40 MLOAD PUSH32 0x8C379A000000000000000000000000000000000000000000000000000000000 DUP2 MSTORE PUSH1 0x4 ADD PUSH2 0x4494 SWAP1 PUSH2 0x83F9 JUMP JUMPDEST PUSH1 0x40 MLOAD DUP1 SWAP2 SUB SWAP1 REVERT JUMPDEST DUP1 PUSH1 0x40 ADD MLOAD PUSH20 0xFFFFFFFFFFFFFFFFFFFFFFFFFFFFFFFFFFFFFFFF AND DUP3 PUSH1 0x3 ADD PUSH1 0x0 SWAP1 SLOAD SWAP1 PUSH2 0x100 EXP SWAP1 DIV PUSH20 0xFFFFFFFFFFFFFFFFFFFFFFFFFFFFFFFFFFFFFFFF AND PUSH20 0xFFFFFFFFFFFFFFFFFFFFFFFFFFFFFFFFFFFFFFFF AND DUP4 PUSH1 0x0 ADD SLOAD PUSH32 0xA3D1A39A550977BAA46EA2634B05F5EB5993C2422417CE8C7139B39635A2A08C DUP5 PUSH1 0x20 ADD MLOAD DUP7 PUSH1 0x1 ADD SLOAD DUP8 PUSH1 0x2 ADD SLOAD DUP8 PUSH1 0x0 ADD MLOAD DUP9 PUSH1 0x60 ADD MLOAD PUSH1 0x40 MLOAD PUSH2 0x4543 SWAP6 SWAP5 SWAP4 SWAP3 SWAP2 SWAP1 PUSH2 0x8428 JUMP JUMPDEST PUSH1 0x40 MLOAD DUP1 SWAP2 SUB SWAP1 LOG4 POP PUSH2 0x4CD7 JUMP JUMPDEST PUSH1 0x2 PUSH1 0x4 DUP2 GT ISZERO PUSH2 0x4565 JUMPI PUSH2 0x4564 PUSH2 0x61B3 JUMP JUMPDEST JUMPDEST DUP2 PUSH1 0x6 ADD PUSH1 0x1 SWAP1 SLOAD SWAP1 PUSH2 0x100 EXP SWAP1 DIV PUSH1 0xFF AND PUSH1 0x4 DUP2 GT ISZERO PUSH2 0x4589 JUMPI PUSH2 0x4588 PUSH2 0x61B3 JUMP JUMPDEST JUMPDEST SUB PUSH2 0x48ED JUMPI PUSH1 0x0 DUP2 PUSH1 0x7 ADD DUP1 SLOAD PUSH2 0x459F SWAP1 PUSH2 0x6865 JUMP JUMPDEST DUP1 PUSH1 0x1F ADD PUSH1 0x20 DUP1 SWAP2 DIV MUL PUSH1 0x20 ADD PUSH1 0x40 MLOAD SWAP1 DUP2 ADD PUSH1 0x40 MSTORE DUP1 SWAP3 SWAP2 SWAP1 DUP2 DUP2 MSTORE PUSH1 0x20 ADD DUP3 DUP1 SLOAD PUSH2 0x45CB SWAP1 PUSH2 0x6865 JUMP JUMPDEST DUP1 ISZERO PUSH2 0x4618 JUMPI DUP1 PUSH1 0x1F LT PUSH2 0x45ED JUMPI PUSH2 0x100 DUP1 DUP4 SLOAD DIV MUL DUP4 MSTORE SWAP2 PUSH1 0x20 ADD SWAP2 PUSH2 0x4618 JUMP JUMPDEST DUP3 ADD SWAP2 SWAP1 PUSH1 0x0 MSTORE PUSH1 0x20 PUSH1 0x0 KECCAK256 SWAP1 JUMPDEST DUP2 SLOAD DUP2 MSTORE SWAP1 PUSH1 0x1 ADD SWAP1 PUSH1 0x20 ADD DUP1 DUP4 GT PUSH2 0x45FB JUMPI DUP3 SWAP1 SUB PUSH1 0x1F AND DUP3 ADD SWAP2 JUMPDEST POP POP POP POP POP DUP1 PUSH1 0x20 ADD SWAP1 MLOAD DUP2 ADD SWAP1 PUSH2 0x4630 SWAP2 SWAP1 PUSH2 0x7A43 JUMP JUMPDEST SWAP1 POP PUSH1 0x0 DUP2 PUSH1 0x0 ADD MLOAD MLOAD SUB PUSH2 0x467A JUMPI PUSH1 0x40 MLOAD PUSH32 0x8C379A000000000000000000000000000000000000000000000000000000000 DUP2 MSTORE PUSH1 0x4 ADD PUSH2 0x4671 SWAP1 PUSH2 0x81FD JUMP JUMPDEST PUSH1 0x40 MLOAD DUP1 SWAP2 SUB SWAP1 REVERT JUMPDEST PUSH1 0x0 DUP2 PUSH1 0x20 ADD MLOAD SUB PUSH2 0x46C1 JUMPI PUSH1 0x40 MLOAD PUSH32 0x8C379A000000000000000000000000000000000000000000000000000000000 DUP2 MSTORE PUSH1 0x4 ADD PUSH2 0x46B8 SWAP1 PUSH2 0x828F JUMP JUMPDEST PUSH1 0x40 MLOAD DUP1 SWAP2 SUB SWAP1 REVERT JUMPDEST PUSH1 0x0 DUP2 PUSH1 0x60 ADD MLOAD PUSH2 0xFFFF AND SUB PUSH2 0x470C JUMPI PUSH1 0x40 MLOAD PUSH32 0x8C379A000000000000000000000000000000000000000000000000000000000 DUP2 MSTORE PUSH1 0x4 ADD PUSH2 0x4703 SWAP1 PUSH2 0x8321 JUMP JUMPDEST PUSH1 0x40 MLOAD DUP1 SWAP2 SUB SWAP1 REVERT JUMPDEST PUSH1 0x0 PUSH20 0xFFFFFFFFFFFFFFFFFFFFFFFFFFFFFFFFFFFFFFFF AND DUP2 PUSH1 0x40 ADD MLOAD PUSH20 0xFFFFFFFFFFFFFFFFFFFFFFFFFFFFFFFFFFFFFFFF AND SUB PUSH2 0x477F JUMPI PUSH1 0x40 MLOAD PUSH32 0x8C379A000000000000000000000000000000000000000000000000000000000 DUP2 MSTORE PUSH1 0x4 ADD PUSH2 0x4776 SWAP1 PUSH2 0x84CE JUMP JUMPDEST PUSH1 0x40 MLOAD DUP1 SWAP2 SUB SWAP1 REVERT JUMPDEST PUSH1 0x1 PUSH1 0x2 DUP2 GT ISZERO PUSH2 0x4793 JUMPI PUSH2 0x4792 PUSH2 0x61B3 JUMP JUMPDEST JUMPDEST PUSH1 0xFB PUSH1 0x0 DUP4 PUSH1 0x40 ADD MLOAD PUSH20 0xFFFFFFFFFFFFFFFFFFFFFFFFFFFFFFFFFFFFFFFF AND PUSH20 0xFFFFFFFFFFFFFFFFFFFFFFFFFFFFFFFFFFFFFFFF AND DUP2 MSTORE PUSH1 0x20 ADD SWAP1 DUP2 MSTORE PUSH1 0x20 ADD PUSH1 0x0 KECCAK256 PUSH1 0x1 ADD PUSH1 0x0 SWAP1 SLOAD SWAP1 PUSH2 0x100 EXP SWAP1 DIV PUSH1 0xFF AND PUSH1 0x2 DUP2 GT ISZERO PUSH2 0x47F9 JUMPI PUSH2 0x47F8 PUSH2 0x61B3 JUMP JUMPDEST JUMPDEST EQ PUSH2 0x4839 JUMPI PUSH1 0x40 MLOAD PUSH32 0x8C379A000000000000000000000000000000000000000000000000000000000 DUP2 MSTORE PUSH1 0x4 ADD PUSH2 0x4830 SWAP1 PUSH2 0x853A JUMP JUMPDEST PUSH1 0x40 MLOAD DUP1 SWAP2 SUB SWAP1 REVERT JUMPDEST DUP1 PUSH1 0x40 ADD MLOAD PUSH20 0xFFFFFFFFFFFFFFFFFFFFFFFFFFFFFFFFFFFFFFFF AND DUP3 PUSH1 0x3 ADD PUSH1 0x0 SWAP1 SLOAD SWAP1 PUSH2 0x100 EXP SWAP1 DIV PUSH20 0xFFFFFFFFFFFFFFFFFFFFFFFFFFFFFFFFFFFFFFFF AND PUSH20 0xFFFFFFFFFFFFFFFFFFFFFFFFFFFFFFFFFFFFFFFF AND DUP4 PUSH1 0x0 ADD SLOAD PUSH32 0xB58C12647C60F8966538BCFA6BF6B815477288BCBCBD80C2AC8AD7C23115A2D9 DUP5 PUSH1 0x20 ADD MLOAD DUP7 PUSH1 0x1 ADD SLOAD DUP8 PUSH1 0x2 ADD SLOAD DUP8 PUSH1 0x0 ADD MLOAD DUP9 PUSH1 0x60 ADD MLOAD PUSH1 0x40 MLOAD PUSH2 0x48DF SWAP6 SWAP5 SWAP4 SWAP3 SWAP2 SWAP1 PUSH2 0x8428 JUMP JUMPDEST PUSH1 0x40 MLOAD DUP1 SWAP2 SUB SWAP1 LOG4 POP PUSH2 0x4CD6 JUMP JUMPDEST PUSH1 0x3 PUSH1 0x4 DUP2 GT ISZERO PUSH2 0x4901 JUMPI PUSH2 0x4900 PUSH2 0x61B3 JUMP JUMPDEST JUMPDEST DUP2 PUSH1 0x6 ADD PUSH1 0x1 SWAP1 SLOAD SWAP1 PUSH2 0x100 EXP SWAP1 DIV PUSH1 0xFF AND PUSH1 0x4 DUP2 GT ISZERO PUSH2 0x4925 JUMPI PUSH2 0x4924 PUSH2 0x61B3 JUMP JUMPDEST JUMPDEST SUB PUSH2 0x4AE3 JUMPI PUSH1 0x0 DUP2 PUSH1 0x7 ADD DUP1 SLOAD PUSH2 0x493B SWAP1 PUSH2 0x6865 JUMP JUMPDEST DUP1 PUSH1 0x1F ADD PUSH1 0x20 DUP1 SWAP2 DIV MUL PUSH1 0x20 ADD PUSH1 0x40 MLOAD SWAP1 DUP2 ADD PUSH1 0x40 MSTORE DUP1 SWAP3 SWAP2 SWAP1 DUP2 DUP2 MSTORE PUSH1 0x20 ADD DUP3 DUP1 SLOAD PUSH2 0x4967 SWAP1 PUSH2 0x6865 JUMP JUMPDEST DUP1 ISZERO PUSH2 0x49B4 JUMPI DUP1 PUSH1 0x1F LT PUSH2 0x4989 JUMPI PUSH2 0x100 DUP1 DUP4 SLOAD DIV MUL DUP4 MSTORE SWAP2 PUSH1 0x20 ADD SWAP2 PUSH2 0x49B4 JUMP JUMPDEST DUP3 ADD SWAP2 SWAP1 PUSH1 0x0 MSTORE PUSH1 0x20 PUSH1 0x0 KECCAK256 SWAP1 JUMPDEST DUP2 SLOAD DUP2 MSTORE SWAP1 PUSH1 0x1 ADD SWAP1 PUSH1 0x20 ADD DUP1 DUP4 GT PUSH2 0x4997 JUMPI DUP3 SWAP1 SUB PUSH1 0x1F AND DUP3 ADD SWAP2 JUMPDEST POP POP POP POP POP DUP1 PUSH1 0x20 ADD SWAP1 MLOAD DUP2 ADD SWAP1 PUSH2 0x49CC SWAP2 SWAP1 PUSH2 0x7AC8 JUMP JUMPDEST SWAP1 POP PUSH1 0x0 PUSH20 0xFFFFFFFFFFFFFFFFFFFFFFFFFFFFFFFFFFFFFFFF AND DUP2 PUSH1 0x0 ADD MLOAD PUSH20 0xFFFFFFFFFFFFFFFFFFFFFFFFFFFFFFFFFFFFFFFF AND SUB PUSH2 0x4A41 JUMPI PUSH1 0x40 MLOAD PUSH32 0x8C379A000000000000000000000000000000000000000000000000000000000 DUP2 MSTORE PUSH1 0x4 ADD PUSH2 0x4A38 SWAP1 PUSH2 0x85CC JUMP JUMPDEST PUSH1 0x40 MLOAD DUP1 SWAP2 SUB SWAP1 REVERT JUMPDEST DUP1 PUSH1 0x0 ADD MLOAD PUSH20 0xFFFFFFFFFFFFFFFFFFFFFFFFFFFFFFFFFFFFFFFF AND DUP3 PUSH1 0x3 ADD PUSH1 0x0 SWAP1 SLOAD SWAP1 PUSH2 0x100 EXP SWAP1 DIV PUSH20 0xFFFFFFFFFFFFFFFFFFFFFFFFFFFFFFFFFFFFFFFF AND PUSH20 0xFFFFFFFFFFFFFFFFFFFFFFFFFFFFFFFFFFFFFFFF AND DUP4 PUSH1 0x0 ADD SLOAD PUSH32 0x6C344B5A99D701E380E4F74EB042F15449B77F4657A647B82E9A5B223798BF1C DUP6 PUSH1 0x1 ADD SLOAD DUP7 PUSH1 0x2 ADD SLOAD PUSH1 0x40 MLOAD PUSH2 0x4AD5 SWAP3 SWAP2 SWAP1 PUSH2 0x85EC JUMP JUMPDEST PUSH1 0x40 MLOAD DUP1 SWAP2 SUB SWAP1 LOG4 POP PUSH2 0x4CD5 JUMP JUMPDEST PUSH1 0x4 DUP1 DUP2 GT ISZERO PUSH2 0x4AF6 JUMPI PUSH2 0x4AF5 PUSH2 0x61B3 JUMP JUMPDEST JUMPDEST DUP2 PUSH1 0x6 ADD PUSH1 0x1 SWAP1 SLOAD SWAP1 PUSH2 0x100 EXP SWAP1 DIV PUSH1 0xFF AND PUSH1 0x4 DUP2 GT ISZERO PUSH2 0x4B1A JUMPI PUSH2 0x4B19 PUSH2 0x61B3 JUMP JUMPDEST JUMPDEST SUB PUSH2 0x4CD4 JUMPI PUSH1 0x0 DUP2 PUSH1 0x7 ADD DUP1 SLOAD PUSH2 0x4B30 SWAP1 PUSH2 0x6865 JUMP JUMPDEST DUP1 PUSH1 0x1F ADD PUSH1 0x20 DUP1 SWAP2 DIV MUL PUSH1 0x20 ADD PUSH1 0x40 MLOAD SWAP1 DUP2 ADD PUSH1 0x40 MSTORE DUP1 SWAP3 SWAP2 SWAP1 DUP2 DUP2 MSTORE PUSH1 0x20 ADD DUP3 DUP1 SLOAD PUSH2 0x4B5C SWAP1 PUSH2 0x6865 JUMP JUMPDEST DUP1 ISZERO PUSH2 0x4BA9 JUMPI DUP1 PUSH1 0x1F LT PUSH2 0x4B7E JUMPI PUSH2 0x100 DUP1 DUP4 SLOAD DIV MUL DUP4 MSTORE SWAP2 PUSH1 0x20 ADD SWAP2 PUSH2 0x4BA9 JUMP JUMPDEST DUP3 ADD SWAP2 SWAP1 PUSH1 0x0 MSTORE PUSH1 0x20 PUSH1 0x0 KECCAK256 SWAP1 JUMPDEST DUP2 SLOAD DUP2 MSTORE SWAP1 PUSH1 0x1 ADD SWAP1 PUSH1 0x20 ADD DUP1 DUP4 GT PUSH2 0x4B8C JUMPI DUP3 SWAP1 SUB PUSH1 0x1F AND DUP3 ADD SWAP2 JUMPDEST POP POP POP POP POP DUP1 PUSH1 0x20 ADD SWAP1 MLOAD DUP2 ADD SWAP1 PUSH2 0x4BC1 SWAP2 SWAP1 PUSH2 0x7B31 JUMP JUMPDEST SWAP1 POP PUSH1 0x0 PUSH20 0xFFFFFFFFFFFFFFFFFFFFFFFFFFFFFFFFFFFFFFFF AND DUP2 PUSH1 0x0 ADD MLOAD PUSH20 0xFFFFFFFFFFFFFFFFFFFFFFFFFFFFFFFFFFFFFFFF AND SUB PUSH2 0x4C36 JUMPI PUSH1 0x40 MLOAD PUSH32 0x8C379A000000000000000000000000000000000000000000000000000000000 DUP2 MSTORE PUSH1 0x4 ADD PUSH2 0x4C2D SWAP1 PUSH2 0x8687 JUMP JUMPDEST PUSH1 0x40 MLOAD DUP1 SWAP2 SUB SWAP1 REVERT JUMPDEST DUP1 PUSH1 0x0 ADD MLOAD PUSH20 0xFFFFFFFFFFFFFFFFFFFFFFFFFFFFFFFFFFFFFFFF AND DUP3 PUSH1 0x3 ADD PUSH1 0x0 SWAP1 SLOAD SWAP1 PUSH2 0x100 EXP SWAP1 DIV PUSH20 0xFFFFFFFFFFFFFFFFFFFFFFFFFFFFFFFFFFFFFFFF AND PUSH20 0xFFFFFFFFFFFFFFFFFFFFFFFFFFFFFFFFFFFFFFFF AND DUP4 PUSH1 0x0 ADD SLOAD PUSH32 0x5B0256FFEAE05ABA51E2C5F936A5AB3668280F92904D8098FC46D79E2EC5DBFA DUP6 PUSH1 0x1 ADD SLOAD DUP7 PUSH1 0x2 ADD SLOAD PUSH1 0x40 MLOAD PUSH2 0x4CCA SWAP3 SWAP2 SWAP1 PUSH2 0x85EC JUMP JUMPDEST PUSH1 0x40 MLOAD DUP1 SWAP2 SUB SWAP1 LOG4 POP JUMPDEST JUMPDEST JUMPDEST JUMPDEST PUSH2 0x4D16 JUMP JUMPDEST PUSH1 0x3 DUP1 DUP2 GT ISZERO PUSH2 0x4CEF JUMPI PUSH2 0x4CEE PUSH2 0x61B3 JUMP JUMPDEST JUMPDEST DUP2 PUSH1 0x6 ADD PUSH1 0x0 SWAP1 SLOAD SWAP1 PUSH2 0x100 EXP SWAP1 DIV PUSH1 0xFF AND PUSH1 0x3 DUP2 GT ISZERO PUSH2 0x4D13 JUMPI PUSH2 0x4D12 PUSH2 0x61B3 JUMP JUMPDEST JUMPDEST POP POP JUMPDEST JUMPDEST POP JUMP JUMPDEST PUSH2 0x4D24 DUP3 DUP3 PUSH2 0x198D JUMP JUMPDEST PUSH2 0x4DB3 JUMPI PUSH2 0x4D49 DUP2 PUSH20 0xFFFFFFFFFFFFFFFFFFFFFFFFFFFFFFFFFFFFFFFF AND PUSH1 0x14 PUSH2 0x56E2 JUMP JUMPDEST PUSH2 0x4D57 DUP4 PUSH1 0x0 SHR PUSH1 0x20 PUSH2 0x56E2 JUMP JUMPDEST PUSH1 0x40 MLOAD PUSH1 0x20 ADD PUSH2 0x4D68 SWAP3 SWAP2 SWAP1 PUSH2 0x873F JUMP JUMPDEST PUSH1 0x40 MLOAD PUSH1 0x20 DUP2 DUP4 SUB SUB DUP2 MSTORE SWAP1 PUSH1 0x40 MSTORE PUSH1 0x40 MLOAD PUSH32 0x8C379A000000000000000000000000000000000000000000000000000000000 DUP2 MSTORE PUSH1 0x4 ADD PUSH2 0x4DAA SWAP2 SWAP1 PUSH2 0x5E6E JUMP JUMPDEST PUSH1 0x40 MLOAD DUP1 SWAP2 SUB SWAP1 REVERT JUMPDEST POP POP JUMP JUMPDEST PUSH1 0x0 PUSH2 0x4DC3 DUP4 DUP4 PUSH2 0x547B JUMP JUMPDEST PUSH2 0x4E1C JUMPI DUP3 PUSH1 0x0 ADD DUP3 SWAP1 DUP1 PUSH1 0x1 DUP2 SLOAD ADD DUP1 DUP3 SSTORE DUP1 SWAP2 POP POP PUSH1 0x1 SWAP1 SUB SWAP1 PUSH1 0x0 MSTORE PUSH1 0x20 PUSH1 0x0 KECCAK256 ADD PUSH1 0x0 SWAP1 SWAP2 SWAP1 SWAP2 SWAP1 SWAP2 POP SSTORE DUP3 PUSH1 0x0 ADD DUP1 SLOAD SWAP1 POP DUP4 PUSH1 0x1 ADD PUSH1 0x0 DUP5 DUP2 MSTORE PUSH1 0x20 ADD SWAP1 DUP2 MSTORE PUSH1 0x20 ADD PUSH1 0x0 KECCAK256 DUP2 SWAP1 SSTORE POP PUSH1 0x1 SWAP1 POP PUSH2 0x4E21 JUMP JUMPDEST PUSH1 0x0 SWAP1 POP JUMPDEST SWAP3 SWAP2 POP POP JUMP JUMPDEST PUSH1 0x0 DUP1 PUSH32 0x23B872DD7302113369CDA2901243429419BEC145408FA8B352B3DD92B66C680B PUSH2 0x100 PUSH1 0x0 SWAP1 SLOAD SWAP1 PUSH2 0x100 EXP SWAP1 DIV PUSH20 0xFFFFFFFFFFFFFFFFFFFFFFFFFFFFFFFFFFFFFFFF AND DUP6 DUP6 PUSH1 0x40 MLOAD PUSH1 0x24 ADD PUSH2 0x4E83 SWAP4 SWAP3 SWAP2 SWAP1 PUSH2 0x8779 JUMP JUMPDEST PUSH1 0x40 MLOAD PUSH1 0x20 DUP2 DUP4 SUB SUB DUP2 MSTORE SWAP1 PUSH1 0x40 MSTORE SWAP1 PUSH28 0xFFFFFFFFFFFFFFFFFFFFFFFFFFFFFFFFFFFFFFFFFFFFFFFFFFFFFFFF NOT AND PUSH1 0x20 DUP3 ADD DUP1 MLOAD PUSH28 0xFFFFFFFFFFFFFFFFFFFFFFFFFFFFFFFFFFFFFFFFFFFFFFFFFFFFFFFF DUP4 DUP2 DUP4 AND OR DUP4 MSTORE POP POP POP POP SWAP1 POP PUSH1 0x0 PUSH2 0x102 PUSH1 0x0 SWAP1 SLOAD SWAP1 PUSH2 0x100 EXP SWAP1 DIV PUSH20 0xFFFFFFFFFFFFFFFFFFFFFFFFFFFFFFFFFFFFFFFF AND PUSH20 0xFFFFFFFFFFFFFFFFFFFFFFFFFFFFFFFFFFFFFFFF AND DUP3 PUSH1 0x40 MLOAD PUSH2 0x4F2C SWAP2 SWAP1 PUSH2 0x7F5D JUMP JUMPDEST PUSH1 0x0 PUSH1 0x40 MLOAD DUP1 DUP4 SUB DUP2 PUSH1 0x0 DUP7 GAS CALL SWAP2 POP POP RETURNDATASIZE DUP1 PUSH1 0x0 DUP2 EQ PUSH2 0x4F69 JUMPI PUSH1 0x40 MLOAD SWAP2 POP PUSH1 0x1F NOT PUSH1 0x3F RETURNDATASIZE ADD AND DUP3 ADD PUSH1 0x40 MSTORE RETURNDATASIZE DUP3 MSTORE RETURNDATASIZE PUSH1 0x0 PUSH1 0x20 DUP5 ADD RETURNDATACOPY PUSH2 0x4F6E JUMP JUMPDEST PUSH1 0x60 SWAP2 POP JUMPDEST POP POP SWAP1 POP DUP1 PUSH2 0x4FB2 JUMPI PUSH1 0x40 MLOAD PUSH32 0x8C379A000000000000000000000000000000000000000000000000000000000 DUP2 MSTORE PUSH1 0x4 ADD PUSH2 0x4FA9 SWAP1 PUSH2 0x87FC JUMP JUMPDEST PUSH1 0x40 MLOAD DUP1 SWAP2 SUB SWAP1 REVERT JUMPDEST DUP1 SWAP3 POP POP POP SWAP3 SWAP2 POP POP JUMP JUMPDEST PUSH1 0x0 DUP1 PUSH1 0xFC PUSH1 0x0 DUP6 DUP2 MSTORE PUSH1 0x20 ADD SWAP1 DUP2 MSTORE PUSH1 0x20 ADD PUSH1 0x0 KECCAK256 SWAP1 POP PUSH1 0x0 PUSH2 0x4FE3 DUP3 PUSH1 0x1 ADD PUSH2 0x591E JUMP JUMPDEST SWAP1 POP PUSH1 0x0 DUP2 PUSH1 0x64 DUP7 PUSH1 0x2 PUSH2 0x4FF7 SWAP2 SWAP1 PUSH2 0x78F5 JUMP JUMPDEST PUSH2 0x5001 SWAP2 SWAP1 PUSH2 0x797E JUMP JUMPDEST PUSH2 0x500B SWAP2 SWAP1 PUSH2 0x797E JUMP JUMPDEST SWAP1 POP PUSH1 0x0 PUSH1 0x1 SWAP1 POP PUSH1 0x0 JUMPDEST DUP4 DUP2 LT ISZERO PUSH2 0x505B JUMPI DUP2 DUP1 ISZERO PUSH2 0x5046 JUMPI POP PUSH2 0x5045 PUSH2 0x503F DUP3 DUP8 PUSH1 0x1 ADD PUSH2 0x5933 SWAP1 SWAP2 SWAP1 PUSH4 0xFFFFFFFF AND JUMP JUMPDEST DUP5 PUSH2 0x4E27 JUMP JUMPDEST JUMPDEST SWAP2 POP DUP1 DUP1 PUSH2 0x5053 SWAP1 PUSH2 0x881C JUMP JUMPDEST SWAP2 POP POP PUSH2 0x5016 JUMP JUMPDEST POP DUP1 SWAP5 POP POP POP POP POP SWAP3 SWAP2 POP POP JUMP JUMPDEST PUSH1 0x0 DUP1 PUSH32 0xF26C159FD7D78F3848964C3ADF4AEA78577348FCB297DB019BF8F5EFBED02195 DUP4 PUSH1 0x40 MLOAD PUSH1 0x24 ADD PUSH2 0x509E SWAP2 SWAP1 PUSH2 0x6422 JUMP JUMPDEST PUSH1 0x40 MLOAD PUSH1 0x20 DUP2 DUP4 SUB SUB DUP2 MSTORE SWAP1 PUSH1 0x40 MSTORE SWAP1 PUSH28 0xFFFFFFFFFFFFFFFFFFFFFFFFFFFFFFFFFFFFFFFFFFFFFFFFFFFFFFFF NOT AND PUSH1 0x20 DUP3 ADD DUP1 MLOAD PUSH28 0xFFFFFFFFFFFFFFFFFFFFFFFFFFFFFFFFFFFFFFFFFFFFFFFFFFFFFFFF DUP4 DUP2 DUP4 AND OR DUP4 MSTORE POP POP POP POP SWAP1 POP PUSH1 0x0 PUSH2 0x102 PUSH1 0x0 SWAP1 SLOAD SWAP1 PUSH2 0x100 EXP SWAP1 DIV PUSH20 0xFFFFFFFFFFFFFFFFFFFFFFFFFFFFFFFFFFFFFFFF AND PUSH20 0xFFFFFFFFFFFFFFFFFFFFFFFFFFFFFFFFFFFFFFFF AND DUP3 PUSH1 0x40 MLOAD PUSH2 0x5147 SWAP2 SWAP1 PUSH2 0x7F5D JUMP JUMPDEST PUSH1 0x0 PUSH1 0x40 MLOAD DUP1 DUP4 SUB DUP2 PUSH1 0x0 DUP7 GAS CALL SWAP2 POP POP RETURNDATASIZE DUP1 PUSH1 0x0 DUP2 EQ PUSH2 0x5184 JUMPI PUSH1 0x40 MLOAD SWAP2 POP PUSH1 0x1F NOT PUSH1 0x3F RETURNDATASIZE ADD AND DUP3 ADD PUSH1 0x40 MSTORE RETURNDATASIZE DUP3 MSTORE RETURNDATASIZE PUSH1 0x0 PUSH1 0x20 DUP5 ADD RETURNDATACOPY PUSH2 0x5189 JUMP JUMPDEST PUSH1 0x60 SWAP2 POP JUMPDEST POP POP SWAP1 POP DUP1 PUSH2 0x51CD JUMPI PUSH1 0x40 MLOAD PUSH32 0x8C379A000000000000000000000000000000000000000000000000000000000 DUP2 MSTORE PUSH1 0x4 ADD PUSH2 0x51C4 SWAP1 PUSH2 0x88B0 JUMP JUMPDEST PUSH1 0x40 MLOAD DUP1 SWAP2 SUB SWAP1 REVERT JUMPDEST DUP1 SWAP3 POP POP POP SWAP2 SWAP1 POP JUMP JUMPDEST PUSH1 0x0 DUP1 PUSH32 0x53CC2FAE7ECEF069DA76AE9063C3ECFA7F417173BC5191FE1BB037165D76473F DUP4 PUSH1 0x40 MLOAD PUSH1 0x24 ADD PUSH2 0x520C SWAP2 SWAP1 PUSH2 0x6422 JUMP JUMPDEST PUSH1 0x40 MLOAD PUSH1 0x20 DUP2 DUP4 SUB SUB DUP2 MSTORE SWAP1 PUSH1 0x40 MSTORE SWAP1 PUSH28 0xFFFFFFFFFFFFFFFFFFFFFFFFFFFFFFFFFFFFFFFFFFFFFFFFFFFFFFFF NOT AND PUSH1 0x20 DUP3 ADD DUP1 MLOAD PUSH28 0xFFFFFFFFFFFFFFFFFFFFFFFFFFFFFFFFFFFFFFFFFFFFFFFFFFFFFFFF DUP4 DUP2 DUP4 AND OR DUP4 MSTORE POP POP POP POP SWAP1 POP PUSH1 0x0 PUSH2 0x102 PUSH1 0x0 SWAP1 SLOAD SWAP1 PUSH2 0x100 EXP SWAP1 DIV PUSH20 0xFFFFFFFFFFFFFFFFFFFFFFFFFFFFFFFFFFFFFFFF AND PUSH20 0xFFFFFFFFFFFFFFFFFFFFFFFFFFFFFFFFFFFFFFFF AND DUP3 PUSH1 0x40 MLOAD PUSH2 0x52B5 SWAP2 SWAP1 PUSH2 0x7F5D JUMP JUMPDEST PUSH1 0x0 PUSH1 0x40 MLOAD DUP1 DUP4 SUB DUP2 PUSH1 0x0 DUP7 GAS CALL SWAP2 POP POP RETURNDATASIZE DUP1 PUSH1 0x0 DUP2 EQ PUSH2 0x52F2 JUMPI PUSH1 0x40 MLOAD SWAP2 POP PUSH1 0x1F NOT PUSH1 0x3F RETURNDATASIZE ADD AND DUP3 ADD PUSH1 0x40 MSTORE RETURNDATASIZE DUP3 MSTORE RETURNDATASIZE PUSH1 0x0 PUSH1 0x20 DUP5 ADD RETURNDATACOPY PUSH2 0x52F7 JUMP JUMPDEST PUSH1 0x60 SWAP2 POP JUMPDEST POP POP SWAP1 POP DUP1 PUSH2 0x533B JUMPI PUSH1 0x40 MLOAD PUSH32 0x8C379A000000000000000000000000000000000000000000000000000000000 DUP2 MSTORE PUSH1 0x4 ADD PUSH2 0x5332 SWAP1 PUSH2 0x891C JUMP JUMPDEST PUSH1 0x40 MLOAD DUP1 SWAP2 SUB SWAP1 REVERT JUMPDEST DUP1 SWAP3 POP POP POP SWAP2 SWAP1 POP JUMP JUMPDEST PUSH1 0x0 DUP2 SWAP1 POP SWAP2 SWAP1 POP JUMP JUMPDEST PUSH1 0x0 DUP2 SWAP1 POP SWAP2 SWAP1 POP JUMP JUMPDEST PUSH2 0x5362 DUP2 PUSH2 0x5458 JUMP JUMPDEST PUSH2 0x53A1 JUMPI PUSH1 0x40 MLOAD PUSH32 0x8C379A000000000000000000000000000000000000000000000000000000000 DUP2 MSTORE PUSH1 0x4 ADD PUSH2 0x5398 SWAP1 PUSH2 0x89AE JUMP JUMPDEST PUSH1 0x40 MLOAD DUP1 SWAP2 SUB SWAP1 REVERT JUMPDEST DUP1 PUSH2 0x53CE PUSH32 0x360894A13BA1A3210667C828492DB98DCA3E2076CC3735A920A3CA505D382BBC PUSH1 0x0 SHL PUSH2 0x5345 JUMP JUMPDEST PUSH1 0x0 ADD PUSH1 0x0 PUSH2 0x100 EXP DUP2 SLOAD DUP2 PUSH20 0xFFFFFFFFFFFFFFFFFFFFFFFFFFFFFFFFFFFFFFFF MUL NOT AND SWAP1 DUP4 PUSH20 0xFFFFFFFFFFFFFFFFFFFFFFFFFFFFFFFFFFFFFFFF AND MUL OR SWAP1 SSTORE POP POP JUMP JUMPDEST PUSH2 0x541B DUP4 PUSH2 0x594D JUMP JUMPDEST PUSH1 0x0 DUP3 MLOAD GT DUP1 PUSH2 0x5428 JUMPI POP DUP1 JUMPDEST ISZERO PUSH2 0x5439 JUMPI PUSH2 0x5437 DUP4 DUP4 PUSH2 0x599C JUMP JUMPDEST POP JUMPDEST POP POP POP JUMP JUMPDEST PUSH1 0x0 DUP1 DUP3 PUSH1 0x0 ADD MLOAD PUSH8 0xFFFFFFFFFFFFFFFF AND GT SWAP1 POP SWAP2 SWAP1 POP JUMP JUMPDEST PUSH1 0x0 DUP1 DUP3 PUSH20 0xFFFFFFFFFFFFFFFFFFFFFFFFFFFFFFFFFFFFFFFF AND EXTCODESIZE GT SWAP1 POP SWAP2 SWAP1 POP JUMP JUMPDEST PUSH1 0x0 DUP1 DUP4 PUSH1 0x1 ADD PUSH1 0x0 DUP5 DUP2 MSTORE PUSH1 0x20 ADD SWAP1 DUP2 MSTORE PUSH1 0x20 ADD PUSH1 0x0 KECCAK256 SLOAD EQ ISZERO SWAP1 POP SWAP3 SWAP2 POP POP JUMP JUMPDEST PUSH1 0x0 PUSH32 0x8B73C3C69BB8FE3D512ECC4CF759CC79239F7B179B0FFACAA9A75D522B39400F PUSH2 0x103 PUSH1 0x40 MLOAD PUSH1 0x20 ADD PUSH2 0x54D4 SWAP2 SWAP1 PUSH2 0x8A62 JUMP JUMPDEST PUSH1 0x40 MLOAD PUSH1 0x20 DUP2 DUP4 SUB SUB DUP2 MSTORE SWAP1 PUSH1 0x40 MSTORE DUP1 MLOAD SWAP1 PUSH1 0x20 ADD KECCAK256 PUSH2 0x104 PUSH1 0x40 MLOAD PUSH1 0x20 ADD PUSH2 0x54FD SWAP2 SWAP1 PUSH2 0x8A62 JUMP JUMPDEST PUSH1 0x40 MLOAD PUSH1 0x20 DUP2 DUP4 SUB SUB DUP2 MSTORE SWAP1 PUSH1 0x40 MSTORE DUP1 MLOAD SWAP1 PUSH1 0x20 ADD KECCAK256 CHAINID ADDRESS PUSH1 0x40 MLOAD PUSH1 0x20 ADD PUSH2 0x5529 SWAP6 SWAP5 SWAP4 SWAP3 SWAP2 SWAP1 PUSH2 0x8A79 JUMP JUMPDEST PUSH1 0x40 MLOAD PUSH1 0x20 DUP2 DUP4 SUB SUB DUP2 MSTORE SWAP1 PUSH1 0x40 MSTORE DUP1 MLOAD SWAP1 PUSH1 0x20 ADD KECCAK256 SWAP1 POP SWAP1 JUMP JUMPDEST PUSH1 0x0 DUP3 DUP3 PUSH1 0x40 MLOAD PUSH1 0x20 ADD PUSH2 0x5559 SWAP3 SWAP2 SWAP1 PUSH2 0x8B39 JUMP JUMPDEST PUSH1 0x40 MLOAD PUSH1 0x20 DUP2 DUP4 SUB SUB DUP2 MSTORE SWAP1 PUSH1 0x40 MSTORE DUP1 MLOAD SWAP1 PUSH1 0x20 ADD KECCAK256 SWAP1 POP SWAP3 SWAP2 POP POP JUMP JUMPDEST PUSH1 0x0 DUP1 PUSH32 0x7FFFFFFFFFFFFFFFFFFFFFFFFFFFFFFF5D576E7357A4501DDFE92F46681B20A0 DUP4 PUSH1 0x0 SHR GT ISZERO PUSH2 0x55B2 JUMPI PUSH1 0x0 PUSH1 0x3 SWAP2 POP SWAP2 POP PUSH2 0x567A JUMP JUMPDEST PUSH1 0x1B DUP6 PUSH1 0xFF AND EQ ISZERO DUP1 ISZERO PUSH2 0x55CA JUMPI POP PUSH1 0x1C DUP6 PUSH1 0xFF AND EQ ISZERO JUMPDEST ISZERO PUSH2 0x55DC JUMPI PUSH1 0x0 PUSH1 0x4 SWAP2 POP SWAP2 POP PUSH2 0x567A JUMP JUMPDEST PUSH1 0x0 PUSH1 0x1 DUP8 DUP8 DUP8 DUP8 PUSH1 0x40 MLOAD PUSH1 0x0 DUP2 MSTORE PUSH1 0x20 ADD PUSH1 0x40 MSTORE PUSH1 0x40 MLOAD PUSH2 0x5601 SWAP5 SWAP4 SWAP3 SWAP2 SWAP1 PUSH2 0x8B70 JUMP JUMPDEST PUSH1 0x20 PUSH1 0x40 MLOAD PUSH1 0x20 DUP2 SUB SWAP1 DUP1 DUP5 SUB SWAP1 DUP6 GAS STATICCALL ISZERO DUP1 ISZERO PUSH2 0x5623 JUMPI RETURNDATASIZE PUSH1 0x0 DUP1 RETURNDATACOPY RETURNDATASIZE PUSH1 0x0 REVERT JUMPDEST POP POP POP PUSH1 0x20 PUSH1 0x40 MLOAD SUB MLOAD SWAP1 POP PUSH1 0x0 PUSH20 0xFFFFFFFFFFFFFFFFFFFFFFFFFFFFFFFFFFFFFFFF AND DUP2 PUSH20 0xFFFFFFFFFFFFFFFFFFFFFFFFFFFFFFFFFFFFFFFF AND SUB PUSH2 0x5671 JUMPI PUSH1 0x0 PUSH1 0x1 SWAP3 POP SWAP3 POP POP PUSH2 0x567A JUMP JUMPDEST DUP1 PUSH1 0x0 SWAP3 POP SWAP3 POP POP JUMPDEST SWAP5 POP SWAP5 SWAP3 POP POP POP JUMP JUMPDEST PUSH1 0x0 DUP1 PUSH1 0x0 PUSH32 0x7FFFFFFFFFFFFFFFFFFFFFFFFFFFFFFFFFFFFFFFFFFFFFFFFFFFFFFFFFFFFFFF PUSH1 0x0 SHL DUP5 AND SWAP1 POP PUSH1 0x0 PUSH1 0x1B PUSH1 0xFF DUP7 PUSH1 0x0 SHR SWAP1 SHR PUSH2 0x56C6 SWAP2 SWAP1 PUSH2 0x8BB5 JUMP JUMPDEST SWAP1 POP PUSH2 0x56D4 DUP8 DUP3 DUP9 DUP6 PUSH2 0x5577 JUMP JUMPDEST SWAP4 POP SWAP4 POP POP POP SWAP4 POP SWAP4 SWAP2 POP POP JUMP JUMPDEST PUSH1 0x60 PUSH1 0x0 PUSH1 0x2 DUP4 PUSH1 0x2 PUSH2 0x56F5 SWAP2 SWAP1 PUSH2 0x78F5 JUMP JUMPDEST PUSH2 0x56FF SWAP2 SWAP1 PUSH2 0x8BB5 JUMP JUMPDEST PUSH8 0xFFFFFFFFFFFFFFFF DUP2 GT ISZERO PUSH2 0x5718 JUMPI PUSH2 0x5717 PUSH2 0x602C JUMP JUMPDEST JUMPDEST PUSH1 0x40 MLOAD SWAP1 DUP1 DUP3 MSTORE DUP1 PUSH1 0x1F ADD PUSH1 0x1F NOT AND PUSH1 0x20 ADD DUP3 ADD PUSH1 0x40 MSTORE DUP1 ISZERO PUSH2 0x574A JUMPI DUP2 PUSH1 0x20 ADD PUSH1 0x1 DUP3 MUL DUP1 CALLDATASIZE DUP4 CALLDATACOPY DUP1 DUP3 ADD SWAP2 POP POP SWAP1 POP JUMPDEST POP SWAP1 POP PUSH32 0x3000000000000000000000000000000000000000000000000000000000000000 DUP2 PUSH1 0x0 DUP2 MLOAD DUP2 LT PUSH2 0x5782 JUMPI PUSH2 0x5781 PUSH2 0x8C0B JUMP JUMPDEST JUMPDEST PUSH1 0x20 ADD ADD SWAP1 PUSH31 0xFFFFFFFFFFFFFFFFFFFFFFFFFFFFFFFFFFFFFFFFFFFFFFFFFFFFFFFFFFFFFF NOT AND SWAP1 DUP2 PUSH1 0x0 BYTE SWAP1 MSTORE8 POP PUSH32 0x7800000000000000000000000000000000000000000000000000000000000000 DUP2 PUSH1 0x1 DUP2 MLOAD DUP2 LT PUSH2 0x57E6 JUMPI PUSH2 0x57E5 PUSH2 0x8C0B JUMP JUMPDEST JUMPDEST PUSH1 0x20 ADD ADD SWAP1 PUSH31 0xFFFFFFFFFFFFFFFFFFFFFFFFFFFFFFFFFFFFFFFFFFFFFFFFFFFFFFFFFFFFFF NOT AND SWAP1 DUP2 PUSH1 0x0 BYTE SWAP1 MSTORE8 POP PUSH1 0x0 PUSH1 0x1 DUP5 PUSH1 0x2 PUSH2 0x5826 SWAP2 SWAP1 PUSH2 0x78F5 JUMP JUMPDEST PUSH2 0x5830 SWAP2 SWAP1 PUSH2 0x8BB5 JUMP JUMPDEST SWAP1 POP JUMPDEST PUSH1 0x1 DUP2 GT ISZERO PUSH2 0x58D0 JUMPI PUSH32 0x3031323334353637383961626364656600000000000000000000000000000000 PUSH1 0xF DUP7 AND PUSH1 0x10 DUP2 LT PUSH2 0x5872 JUMPI PUSH2 0x5871 PUSH2 0x8C0B JUMP JUMPDEST JUMPDEST BYTE PUSH1 0xF8 SHL DUP3 DUP3 DUP2 MLOAD DUP2 LT PUSH2 0x5889 JUMPI PUSH2 0x5888 PUSH2 0x8C0B JUMP JUMPDEST JUMPDEST PUSH1 0x20 ADD ADD SWAP1 PUSH31 0xFFFFFFFFFFFFFFFFFFFFFFFFFFFFFFFFFFFFFFFFFFFFFFFFFFFFFFFFFFFFFF NOT AND SWAP1 DUP2 PUSH1 0x0 BYTE SWAP1 MSTORE8 POP PUSH1 0x4 DUP6 SWAP1 SHR SWAP5 POP DUP1 PUSH2 0x58C9 SWAP1 PUSH2 0x8C3A JUMP JUMPDEST SWAP1 POP PUSH2 0x5833 JUMP JUMPDEST POP PUSH1 0x0 DUP5 EQ PUSH2 0x5914 JUMPI PUSH1 0x40 MLOAD PUSH32 0x8C379A000000000000000000000000000000000000000000000000000000000 DUP2 MSTORE PUSH1 0x4 ADD PUSH2 0x590B SWAP1 PUSH2 0x8CAF JUMP JUMPDEST PUSH1 0x40 MLOAD DUP1 SWAP2 SUB SWAP1 REVERT JUMPDEST DUP1 SWAP2 POP POP SWAP3 SWAP2 POP POP JUMP JUMPDEST PUSH1 0x0 PUSH2 0x592C DUP3 PUSH1 0x0 ADD PUSH2 0x5A80 JUMP JUMPDEST SWAP1 POP SWAP2 SWAP1 POP JUMP JUMPDEST PUSH1 0x0 PUSH2 0x5942 DUP4 PUSH1 0x0 ADD DUP4 PUSH2 0x5A91 JUMP JUMPDEST PUSH1 0x0 SHR SWAP1 POP SWAP3 SWAP2 POP POP JUMP JUMPDEST PUSH2 0x5956 DUP2 PUSH2 0x5359 JUMP JUMPDEST DUP1 PUSH20 0xFFFFFFFFFFFFFFFFFFFFFFFFFFFFFFFFFFFFFFFF AND PUSH32 0xBC7CD75A20EE27FD9ADEBAB32041F755214DBC6BFFA90CC0225B39DA2E5C2D3B PUSH1 0x40 MLOAD PUSH1 0x40 MLOAD DUP1 SWAP2 SUB SWAP1 LOG2 POP JUMP JUMPDEST PUSH1 0x60 PUSH2 0x59A7 DUP4 PUSH2 0x5458 JUMP JUMPDEST PUSH2 0x59E6 JUMPI PUSH1 0x40 MLOAD PUSH32 0x8C379A000000000000000000000000000000000000000000000000000000000 DUP2 MSTORE PUSH1 0x4 ADD PUSH2 0x59DD SWAP1 PUSH2 0x8D41 JUMP JUMPDEST PUSH1 0x40 MLOAD DUP1 SWAP2 SUB SWAP1 REVERT JUMPDEST PUSH1 0x0 DUP1 DUP5 PUSH20 0xFFFFFFFFFFFFFFFFFFFFFFFFFFFFFFFFFFFFFFFF AND DUP5 PUSH1 0x40 MLOAD PUSH2 0x5A0E SWAP2 SWAP1 PUSH2 0x7F5D JUMP JUMPDEST PUSH1 0x0 PUSH1 0x40 MLOAD DUP1 DUP4 SUB DUP2 DUP6 GAS DELEGATECALL SWAP2 POP POP RETURNDATASIZE DUP1 PUSH1 0x0 DUP2 EQ PUSH2 0x5A49 JUMPI PUSH1 0x40 MLOAD SWAP2 POP PUSH1 0x1F NOT PUSH1 0x3F RETURNDATASIZE ADD AND DUP3 ADD PUSH1 0x40 MSTORE RETURNDATASIZE DUP3 MSTORE RETURNDATASIZE PUSH1 0x0 PUSH1 0x20 DUP5 ADD RETURNDATACOPY PUSH2 0x5A4E JUMP JUMPDEST PUSH1 0x60 SWAP2 POP JUMPDEST POP SWAP2 POP SWAP2 POP PUSH2 0x5A76 DUP3 DUP3 PUSH1 0x40 MLOAD DUP1 PUSH1 0x60 ADD PUSH1 0x40 MSTORE DUP1 PUSH1 0x27 DUP2 MSTORE PUSH1 0x20 ADD PUSH2 0x8D62 PUSH1 0x27 SWAP2 CODECOPY PUSH2 0x5ABC JUMP JUMPDEST SWAP3 POP POP POP SWAP3 SWAP2 POP POP JUMP JUMPDEST PUSH1 0x0 DUP2 PUSH1 0x0 ADD DUP1 SLOAD SWAP1 POP SWAP1 POP SWAP2 SWAP1 POP JUMP JUMPDEST PUSH1 0x0 DUP3 PUSH1 0x0 ADD DUP3 DUP2 SLOAD DUP2 LT PUSH2 0x5AA9 JUMPI PUSH2 0x5AA8 PUSH2 0x8C0B JUMP JUMPDEST JUMPDEST SWAP1 PUSH1 0x0 MSTORE PUSH1 0x20 PUSH1 0x0 KECCAK256 ADD SLOAD SWAP1 POP SWAP3 SWAP2 POP POP JUMP JUMPDEST PUSH1 0x60 DUP4 ISZERO PUSH2 0x5ACC JUMPI DUP3 SWAP1 POP PUSH2 0x5B1C JUMP JUMPDEST PUSH1 0x0 DUP4 MLOAD GT ISZERO PUSH2 0x5ADF JUMPI DUP3 MLOAD DUP1 DUP5 PUSH1 0x20 ADD REVERT JUMPDEST DUP2 PUSH1 0x40 MLOAD PUSH32 0x8C379A000000000000000000000000000000000000000000000000000000000 DUP2 MSTORE PUSH1 0x4 ADD PUSH2 0x5B13 SWAP2 SWAP1 PUSH2 0x5E6E JUMP JUMPDEST PUSH1 0x40 MLOAD DUP1 SWAP2 SUB SWAP1 REVERT JUMPDEST SWAP4 SWAP3 POP POP POP JUMP JUMPDEST DUP3 DUP1 SLOAD PUSH2 0x5B2F SWAP1 PUSH2 0x6865 JUMP JUMPDEST SWAP1 PUSH1 0x0 MSTORE PUSH1 0x20 PUSH1 0x0 KECCAK256 SWAP1 PUSH1 0x1F ADD PUSH1 0x20 SWAP1 DIV DUP2 ADD SWAP3 DUP3 PUSH2 0x5B51 JUMPI PUSH1 0x0 DUP6 SSTORE PUSH2 0x5B98 JUMP JUMPDEST DUP3 PUSH1 0x1F LT PUSH2 0x5B6A JUMPI DUP1 CALLDATALOAD PUSH1 0xFF NOT AND DUP4 DUP1 ADD OR DUP6 SSTORE PUSH2 0x5B98 JUMP JUMPDEST DUP3 DUP1 ADD PUSH1 0x1 ADD DUP6 SSTORE DUP3 ISZERO PUSH2 0x5B98 JUMPI SWAP2 DUP3 ADD JUMPDEST DUP3 DUP2 GT ISZERO PUSH2 0x5B97 JUMPI DUP3 CALLDATALOAD DUP3 SSTORE SWAP2 PUSH1 0x20 ADD SWAP2 SWAP1 PUSH1 0x1 ADD SWAP1 PUSH2 0x5B7C JUMP JUMPDEST JUMPDEST POP SWAP1 POP PUSH2 0x5BA5 SWAP2 SWAP1 PUSH2 0x5CB5 JUMP JUMPDEST POP SWAP1 JUMP JUMPDEST DUP3 DUP1 SLOAD PUSH2 0x5BB5 SWAP1 PUSH2 0x6865 JUMP JUMPDEST SWAP1 PUSH1 0x0 MSTORE PUSH1 0x20 PUSH1 0x0 KECCAK256 SWAP1 PUSH1 0x1F ADD PUSH1 0x20 SWAP1 DIV DUP2 ADD SWAP3 DUP3 PUSH2 0x5BD7 JUMPI PUSH1 0x0 DUP6 SSTORE PUSH2 0x5C1E JUMP JUMPDEST DUP3 PUSH1 0x1F LT PUSH2 0x5BF0 JUMPI DUP1 MLOAD PUSH1 0xFF NOT AND DUP4 DUP1 ADD OR DUP6 SSTORE PUSH2 0x5C1E JUMP JUMPDEST DUP3 DUP1 ADD PUSH1 0x1 ADD DUP6 SSTORE DUP3 ISZERO PUSH2 0x5C1E JUMPI SWAP2 DUP3 ADD JUMPDEST DUP3 DUP2 GT ISZERO PUSH2 0x5C1D JUMPI DUP3 MLOAD DUP3 SSTORE SWAP2 PUSH1 0x20 ADD SWAP2 SWAP1 PUSH1 0x1 ADD SWAP1 PUSH2 0x5C02 JUMP JUMPDEST JUMPDEST POP SWAP1 POP PUSH2 0x5C2B SWAP2 SWAP1 PUSH2 0x5CB5 JUMP JUMPDEST POP SWAP1 JUMP JUMPDEST DUP3 DUP1 SLOAD PUSH2 0x5C3B SWAP1 PUSH2 0x6865 JUMP JUMPDEST SWAP1 PUSH1 0x0 MSTORE PUSH1 0x20 PUSH1 0x0 KECCAK256 SWAP1 PUSH1 0x1F ADD PUSH1 0x20 SWAP1 DIV DUP2 ADD SWAP3 DUP3 PUSH2 0x5C5D JUMPI PUSH1 0x0 DUP6 SSTORE PUSH2 0x5CA4 JUMP JUMPDEST DUP3 PUSH1 0x1F LT PUSH2 0x5C76 JUMPI DUP1 MLOAD PUSH1 0xFF NOT AND DUP4 DUP1 ADD OR DUP6 SSTORE PUSH2 0x5CA4 JUMP JUMPDEST DUP3 DUP1 ADD PUSH1 0x1 ADD DUP6 SSTORE DUP3 ISZERO PUSH2 0x5CA4 JUMPI SWAP2 DUP3 ADD JUMPDEST DUP3 DUP2 GT ISZERO PUSH2 0x5CA3 JUMPI DUP3 MLOAD DUP3 SSTORE SWAP2 PUSH1 0x20 ADD SWAP2 SWAP1 PUSH1 0x1 ADD SWAP1 PUSH2 0x5C88 JUMP JUMPDEST JUMPDEST POP SWAP1 POP PUSH2 0x5CB1 SWAP2 SWAP1 PUSH2 0x5CB5 JUMP JUMPDEST POP SWAP1 JUMP JUMPDEST JUMPDEST DUP1 DUP3 GT ISZERO PUSH2 0x5CCE JUMPI PUSH1 0x0 DUP2 PUSH1 0x0 SWAP1 SSTORE POP PUSH1 0x1 ADD PUSH2 0x5CB6 JUMP JUMPDEST POP SWAP1 JUMP JUMPDEST PUSH1 0x0 PUSH1 0x40 MLOAD SWAP1 POP SWAP1 JUMP JUMPDEST PUSH1 0x0 DUP1 REVERT JUMPDEST PUSH1 0x0 DUP1 REVERT JUMPDEST PUSH1 0x0 PUSH32 0xFFFFFFFF00000000000000000000000000000000000000000000000000000000 DUP3 AND SWAP1 POP SWAP2 SWAP1 POP JUMP JUMPDEST PUSH2 0x5D1B DUP2 PUSH2 0x5CE6 JUMP JUMPDEST DUP2 EQ PUSH2 0x5D26 JUMPI PUSH1 0x0 DUP1 REVERT JUMPDEST POP JUMP JUMPDEST PUSH1 0x0 DUP2 CALLDATALOAD SWAP1 POP PUSH2 0x5D38 DUP2 PUSH2 0x5D12 JUMP JUMPDEST SWAP3 SWAP2 POP POP JUMP JUMPDEST PUSH1 0x0 PUSH1 0x20 DUP3 DUP5 SUB SLT ISZERO PUSH2 0x5D54 JUMPI PUSH2 0x5D53 PUSH2 0x5CDC JUMP JUMPDEST JUMPDEST PUSH1 0x0 PUSH2 0x5D62 DUP5 DUP3 DUP6 ADD PUSH2 0x5D29 JUMP JUMPDEST SWAP2 POP POP SWAP3 SWAP2 POP POP JUMP JUMPDEST PUSH1 0x0 DUP2 ISZERO ISZERO SWAP1 POP SWAP2 SWAP1 POP JUMP JUMPDEST PUSH2 0x5D80 DUP2 PUSH2 0x5D6B JUMP JUMPDEST DUP3 MSTORE POP POP JUMP JUMPDEST PUSH1 0x0 PUSH1 0x20 DUP3 ADD SWAP1 POP PUSH2 0x5D9B PUSH1 0x0 DUP4 ADD DUP5 PUSH2 0x5D77 JUMP JUMPDEST SWAP3 SWAP2 POP POP JUMP JUMPDEST PUSH1 0x0 DUP2 SWAP1 POP SWAP2 SWAP1 POP JUMP JUMPDEST PUSH2 0x5DB4 DUP2 PUSH2 0x5DA1 JUMP JUMPDEST DUP3 MSTORE POP POP JUMP JUMPDEST PUSH1 0x0 PUSH1 0x20 DUP3 ADD SWAP1 POP PUSH2 0x5DCF PUSH1 0x0 DUP4 ADD DUP5 PUSH2 0x5DAB JUMP JUMPDEST SWAP3 SWAP2 POP POP JUMP JUMPDEST PUSH1 0x0 DUP2 MLOAD SWAP1 POP SWAP2 SWAP1 POP JUMP JUMPDEST PUSH1 0x0 DUP3 DUP3 MSTORE PUSH1 0x20 DUP3 ADD SWAP1 POP SWAP3 SWAP2 POP POP JUMP JUMPDEST PUSH1 0x0 JUMPDEST DUP4 DUP2 LT ISZERO PUSH2 0x5E0F JUMPI DUP1 DUP3 ADD MLOAD DUP2 DUP5 ADD MSTORE PUSH1 0x20 DUP2 ADD SWAP1 POP PUSH2 0x5DF4 JUMP JUMPDEST DUP4 DUP2 GT ISZERO PUSH2 0x5E1E JUMPI PUSH1 0x0 DUP5 DUP5 ADD MSTORE JUMPDEST POP POP POP POP JUMP JUMPDEST PUSH1 0x0 PUSH1 0x1F NOT PUSH1 0x1F DUP4 ADD AND SWAP1 POP SWAP2 SWAP1 POP JUMP JUMPDEST PUSH1 0x0 PUSH2 0x5E40 DUP3 PUSH2 0x5DD5 JUMP JUMPDEST PUSH2 0x5E4A DUP2 DUP6 PUSH2 0x5DE0 JUMP JUMPDEST SWAP4 POP PUSH2 0x5E5A DUP2 DUP6 PUSH1 0x20 DUP7 ADD PUSH2 0x5DF1 JUMP JUMPDEST PUSH2 0x5E63 DUP2 PUSH2 0x5E24 JUMP JUMPDEST DUP5 ADD SWAP2 POP POP SWAP3 SWAP2 POP POP JUMP JUMPDEST PUSH1 0x0 PUSH1 0x20 DUP3 ADD SWAP1 POP DUP2 DUP2 SUB PUSH1 0x0 DUP4 ADD MSTORE PUSH2 0x5E88 DUP2 DUP5 PUSH2 0x5E35 JUMP JUMPDEST SWAP1 POP SWAP3 SWAP2 POP POP JUMP JUMPDEST PUSH1 0x0 PUSH4 0xFFFFFFFF DUP3 AND SWAP1 POP SWAP2 SWAP1 POP JUMP JUMPDEST PUSH2 0x5EA9 DUP2 PUSH2 0x5E90 JUMP JUMPDEST DUP3 MSTORE POP POP JUMP JUMPDEST PUSH1 0x0 PUSH1 0x20 DUP3 ADD SWAP1 POP PUSH2 0x5EC4 PUSH1 0x0 DUP4 ADD DUP5 PUSH2 0x5EA0 JUMP JUMPDEST SWAP3 SWAP2 POP POP JUMP JUMPDEST PUSH1 0x0 PUSH20 0xFFFFFFFFFFFFFFFFFFFFFFFFFFFFFFFFFFFFFFFF DUP3 AND SWAP1 POP SWAP2 SWAP1 POP JUMP JUMPDEST PUSH1 0x0 PUSH2 0x5EF5 DUP3 PUSH2 0x5ECA JUMP JUMPDEST SWAP1 POP SWAP2 SWAP1 POP JUMP JUMPDEST PUSH2 0x5F05 DUP2 PUSH2 0x5EEA JUMP JUMPDEST DUP2 EQ PUSH2 0x5F10 JUMPI PUSH1 0x0 DUP1 REVERT JUMPDEST POP JUMP JUMPDEST PUSH1 0x0 DUP2 CALLDATALOAD SWAP1 POP PUSH2 0x5F22 DUP2 PUSH2 0x5EFC JUMP JUMPDEST SWAP3 SWAP2 POP POP JUMP JUMPDEST PUSH1 0x0 PUSH1 0x20 DUP3 DUP5 SUB SLT ISZERO PUSH2 0x5F3E JUMPI PUSH2 0x5F3D PUSH2 0x5CDC JUMP JUMPDEST JUMPDEST PUSH1 0x0 PUSH2 0x5F4C DUP5 DUP3 DUP6 ADD PUSH2 0x5F13 JUMP JUMPDEST SWAP2 POP POP SWAP3 SWAP2 POP POP JUMP JUMPDEST PUSH1 0x0 DUP2 SWAP1 POP SWAP2 SWAP1 POP JUMP JUMPDEST PUSH2 0x5F68 DUP2 PUSH2 0x5F55 JUMP JUMPDEST DUP2 EQ PUSH2 0x5F73 JUMPI PUSH1 0x0 DUP1 REVERT JUMPDEST POP JUMP JUMPDEST PUSH1 0x0 DUP2 CALLDATALOAD SWAP1 POP PUSH2 0x5F85 DUP2 PUSH2 0x5F5F JUMP JUMPDEST SWAP3 SWAP2 POP POP JUMP JUMPDEST PUSH1 0x0 PUSH1 0x20 DUP3 DUP5 SUB SLT ISZERO PUSH2 0x5FA1 JUMPI PUSH2 0x5FA0 PUSH2 0x5CDC JUMP JUMPDEST JUMPDEST PUSH1 0x0 PUSH2 0x5FAF DUP5 DUP3 DUP6 ADD PUSH2 0x5F76 JUMP JUMPDEST SWAP2 POP POP SWAP3 SWAP2 POP POP JUMP JUMPDEST PUSH2 0x5FC1 DUP2 PUSH2 0x5F55 JUMP JUMPDEST DUP3 MSTORE POP POP JUMP JUMPDEST PUSH1 0x0 PUSH1 0x20 DUP3 ADD SWAP1 POP PUSH2 0x5FDC PUSH1 0x0 DUP4 ADD DUP5 PUSH2 0x5FB8 JUMP JUMPDEST SWAP3 SWAP2 POP POP JUMP JUMPDEST PUSH1 0x0 DUP1 PUSH1 0x40 DUP4 DUP6 SUB SLT ISZERO PUSH2 0x5FF9 JUMPI PUSH2 0x5FF8 PUSH2 0x5CDC JUMP JUMPDEST JUMPDEST PUSH1 0x0 PUSH2 0x6007 DUP6 DUP3 DUP7 ADD PUSH2 0x5F76 JUMP JUMPDEST SWAP3 POP POP PUSH1 0x20 PUSH2 0x6018 DUP6 DUP3 DUP7 ADD PUSH2 0x5F13 JUMP JUMPDEST SWAP2 POP POP SWAP3 POP SWAP3 SWAP1 POP JUMP JUMPDEST PUSH1 0x0 DUP1 REVERT JUMPDEST PUSH1 0x0 DUP1 REVERT JUMPDEST PUSH32 0x4E487B7100000000000000000000000000000000000000000000000000000000 PUSH1 0x0 MSTORE PUSH1 0x41 PUSH1 0x4 MSTORE PUSH1 0x24 PUSH1 0x0 REVERT JUMPDEST PUSH2 0x6064 DUP3 PUSH2 0x5E24 JUMP JUMPDEST DUP2 ADD DUP2 DUP2 LT PUSH8 0xFFFFFFFFFFFFFFFF DUP3 GT OR ISZERO PUSH2 0x6083 JUMPI PUSH2 0x6082 PUSH2 0x602C JUMP JUMPDEST JUMPDEST DUP1 PUSH1 0x40 MSTORE POP POP POP JUMP JUMPDEST PUSH1 0x0 PUSH2 0x6096 PUSH2 0x5CD2 JUMP JUMPDEST SWAP1 POP PUSH2 0x60A2 DUP3 DUP3 PUSH2 0x605B JUMP JUMPDEST SWAP2 SWAP1 POP JUMP JUMPDEST PUSH1 0x0 PUSH8 0xFFFFFFFFFFFFFFFF DUP3 GT ISZERO PUSH2 0x60C2 JUMPI PUSH2 0x60C1 PUSH2 0x602C JUMP JUMPDEST JUMPDEST PUSH2 0x60CB DUP3 PUSH2 0x5E24 JUMP JUMPDEST SWAP1 POP PUSH1 0x20 DUP2 ADD SWAP1 POP SWAP2 SWAP1 POP JUMP JUMPDEST DUP3 DUP2 DUP4 CALLDATACOPY PUSH1 0x0 DUP4 DUP4 ADD MSTORE POP POP POP JUMP JUMPDEST PUSH1 0x0 PUSH2 0x60FA PUSH2 0x60F5 DUP5 PUSH2 0x60A7 JUMP JUMPDEST PUSH2 0x608C JUMP JUMPDEST SWAP1 POP DUP3 DUP2 MSTORE PUSH1 0x20 DUP2 ADD DUP5 DUP5 DUP5 ADD GT ISZERO PUSH2 0x6116 JUMPI PUSH2 0x6115 PUSH2 0x6027 JUMP JUMPDEST JUMPDEST PUSH2 0x6121 DUP5 DUP3 DUP6 PUSH2 0x60D8 JUMP JUMPDEST POP SWAP4 SWAP3 POP POP POP JUMP JUMPDEST PUSH1 0x0 DUP3 PUSH1 0x1F DUP4 ADD SLT PUSH2 0x613E JUMPI PUSH2 0x613D PUSH2 0x6022 JUMP JUMPDEST JUMPDEST DUP2 CALLDATALOAD PUSH2 0x614E DUP5 DUP3 PUSH1 0x20 DUP7 ADD PUSH2 0x60E7 JUMP JUMPDEST SWAP2 POP POP SWAP3 SWAP2 POP POP JUMP JUMPDEST PUSH1 0x0 DUP1 PUSH1 0x40 DUP4 DUP6 SUB SLT ISZERO PUSH2 0x616E JUMPI PUSH2 0x616D PUSH2 0x5CDC JUMP JUMPDEST JUMPDEST PUSH1 0x0 PUSH2 0x617C DUP6 DUP3 DUP7 ADD PUSH2 0x5F13 JUMP JUMPDEST SWAP3 POP POP PUSH1 0x20 DUP4 ADD CALLDATALOAD PUSH8 0xFFFFFFFFFFFFFFFF DUP2 GT ISZERO PUSH2 0x619D JUMPI PUSH2 0x619C PUSH2 0x5CE1 JUMP JUMPDEST JUMPDEST PUSH2 0x61A9 DUP6 DUP3 DUP7 ADD PUSH2 0x6129 JUMP JUMPDEST SWAP2 POP POP SWAP3 POP SWAP3 SWAP1 POP JUMP JUMPDEST PUSH32 0x4E487B7100000000000000000000000000000000000000000000000000000000 PUSH1 0x0 MSTORE PUSH1 0x21 PUSH1 0x4 MSTORE PUSH1 0x24 PUSH1 0x0 REVERT JUMPDEST PUSH1 0x8 DUP2 LT PUSH2 0x61F3 JUMPI PUSH2 0x61F2 PUSH2 0x61B3 JUMP JUMPDEST JUMPDEST POP JUMP JUMPDEST PUSH1 0x0 DUP2 SWAP1 POP PUSH2 0x6204 DUP3 PUSH2 0x61E2 JUMP JUMPDEST SWAP2 SWAP1 POP JUMP JUMPDEST PUSH1 0x0 PUSH2 0x6214 DUP3 PUSH2 0x61F6 JUMP JUMPDEST SWAP1 POP SWAP2 SWAP1 POP JUMP JUMPDEST PUSH2 0x6224 DUP2 PUSH2 0x6209 JUMP JUMPDEST DUP3 MSTORE POP POP JUMP JUMPDEST PUSH1 0x0 PUSH1 0x20 DUP3 ADD SWAP1 POP PUSH2 0x623F PUSH1 0x0 DUP4 ADD DUP5 PUSH2 0x621B JUMP JUMPDEST SWAP3 SWAP2 POP POP JUMP JUMPDEST PUSH2 0x624E DUP2 PUSH2 0x5DA1 JUMP JUMPDEST DUP2 EQ PUSH2 0x6259 JUMPI PUSH1 0x0 DUP1 REVERT JUMPDEST POP JUMP JUMPDEST PUSH1 0x0 DUP2 CALLDATALOAD SWAP1 POP PUSH2 0x626B DUP2 PUSH2 0x6245 JUMP JUMPDEST SWAP3 SWAP2 POP POP JUMP JUMPDEST PUSH1 0x0 PUSH1 0x20 DUP3 DUP5 SUB SLT ISZERO PUSH2 0x6287 JUMPI PUSH2 0x6286 PUSH2 0x5CDC JUMP JUMPDEST JUMPDEST PUSH1 0x0 PUSH2 0x6295 DUP5 DUP3 DUP6 ADD PUSH2 0x625C JUMP JUMPDEST SWAP2 POP POP SWAP3 SWAP2 POP POP JUMP JUMPDEST PUSH2 0x62A7 DUP2 PUSH2 0x5D6B JUMP JUMPDEST DUP2 EQ PUSH2 0x62B2 JUMPI PUSH1 0x0 DUP1 REVERT JUMPDEST POP JUMP JUMPDEST PUSH1 0x0 DUP2 CALLDATALOAD SWAP1 POP PUSH2 0x62C4 DUP2 PUSH2 0x629E JUMP JUMPDEST SWAP3 SWAP2 POP POP JUMP JUMPDEST PUSH1 0x0 PUSH1 0x20 DUP3 DUP5 SUB SLT ISZERO PUSH2 0x62E0 JUMPI PUSH2 0x62DF PUSH2 0x5CDC JUMP JUMPDEST JUMPDEST PUSH1 0x0 PUSH2 0x62EE DUP5 DUP3 DUP6 ADD PUSH2 0x62B5 JUMP JUMPDEST SWAP2 POP POP SWAP3 SWAP2 POP POP JUMP JUMPDEST PUSH1 0x0 DUP1 REVERT JUMPDEST PUSH1 0x0 DUP1 REVERT JUMPDEST PUSH1 0x0 DUP1 DUP4 PUSH1 0x1F DUP5 ADD SLT PUSH2 0x6317 JUMPI PUSH2 0x6316 PUSH2 0x6022 JUMP JUMPDEST JUMPDEST DUP3 CALLDATALOAD SWAP1 POP PUSH8 0xFFFFFFFFFFFFFFFF DUP2 GT ISZERO PUSH2 0x6334 JUMPI PUSH2 0x6333 PUSH2 0x62F7 JUMP JUMPDEST JUMPDEST PUSH1 0x20 DUP4 ADD SWAP2 POP DUP4 PUSH1 0x1 DUP3 MUL DUP4 ADD GT ISZERO PUSH2 0x6350 JUMPI PUSH2 0x634F PUSH2 0x62FC JUMP JUMPDEST JUMPDEST SWAP3 POP SWAP3 SWAP1 POP JUMP JUMPDEST PUSH1 0x0 DUP1 PUSH1 0x0 DUP1 PUSH1 0x0 DUP1 PUSH1 0x0 PUSH1 0xA0 DUP9 DUP11 SUB SLT ISZERO PUSH2 0x6376 JUMPI PUSH2 0x6375 PUSH2 0x5CDC JUMP JUMPDEST JUMPDEST PUSH1 0x0 PUSH2 0x6384 DUP11 DUP3 DUP12 ADD PUSH2 0x5F13 JUMP JUMPDEST SWAP8 POP POP PUSH1 0x20 PUSH2 0x6395 DUP11 DUP3 DUP12 ADD PUSH2 0x5F13 JUMP JUMPDEST SWAP7 POP POP PUSH1 0x40 PUSH2 0x63A6 DUP11 DUP3 DUP12 ADD PUSH2 0x5F13 JUMP JUMPDEST SWAP6 POP POP PUSH1 0x60 DUP9 ADD CALLDATALOAD PUSH8 0xFFFFFFFFFFFFFFFF DUP2 GT ISZERO PUSH2 0x63C7 JUMPI PUSH2 0x63C6 PUSH2 0x5CE1 JUMP JUMPDEST JUMPDEST PUSH2 0x63D3 DUP11 DUP3 DUP12 ADD PUSH2 0x6301 JUMP JUMPDEST SWAP5 POP SWAP5 POP POP PUSH1 0x80 DUP9 ADD CALLDATALOAD PUSH8 0xFFFFFFFFFFFFFFFF DUP2 GT ISZERO PUSH2 0x63F6 JUMPI PUSH2 0x63F5 PUSH2 0x5CE1 JUMP JUMPDEST JUMPDEST PUSH2 0x6402 DUP11 DUP3 DUP12 ADD PUSH2 0x6301 JUMP JUMPDEST SWAP3 POP SWAP3 POP POP SWAP3 SWAP6 SWAP9 SWAP2 SWAP5 SWAP8 POP SWAP3 SWAP6 POP JUMP JUMPDEST PUSH2 0x641C DUP2 PUSH2 0x5EEA JUMP JUMPDEST DUP3 MSTORE POP POP JUMP JUMPDEST PUSH1 0x0 PUSH1 0x20 DUP3 ADD SWAP1 POP PUSH2 0x6437 PUSH1 0x0 DUP4 ADD DUP5 PUSH2 0x6413 JUMP JUMPDEST SWAP3 SWAP2 POP POP JUMP JUMPDEST PUSH1 0x4 DUP2 LT PUSH2 0x644A JUMPI PUSH1 0x0 DUP1 REVERT JUMPDEST POP JUMP JUMPDEST PUSH1 0x0 DUP2 CALLDATALOAD SWAP1 POP PUSH2 0x645C DUP2 PUSH2 0x643D JUMP JUMPDEST SWAP3 SWAP2 POP POP JUMP JUMPDEST PUSH1 0x0 DUP1 PUSH1 0x0 DUP1 PUSH1 0x60 DUP6 DUP8 SUB SLT ISZERO PUSH2 0x647C JUMPI PUSH2 0x647B PUSH2 0x5CDC JUMP JUMPDEST JUMPDEST PUSH1 0x0 DUP6 ADD CALLDATALOAD PUSH8 0xFFFFFFFFFFFFFFFF DUP2 GT ISZERO PUSH2 0x649A JUMPI PUSH2 0x6499 PUSH2 0x5CE1 JUMP JUMPDEST JUMPDEST PUSH2 0x64A6 DUP8 DUP3 DUP9 ADD PUSH2 0x6301 JUMP JUMPDEST SWAP5 POP SWAP5 POP POP PUSH1 0x20 PUSH2 0x64B9 DUP8 DUP3 DUP9 ADD PUSH2 0x5F76 JUMP JUMPDEST SWAP3 POP POP PUSH1 0x40 PUSH2 0x64CA DUP8 DUP3 DUP9 ADD PUSH2 0x644D JUMP JUMPDEST SWAP2 POP POP SWAP3 SWAP6 SWAP2 SWAP5 POP SWAP3 POP JUMP JUMPDEST PUSH2 0x64DF DUP2 PUSH2 0x5CE6 JUMP JUMPDEST DUP3 MSTORE POP POP JUMP JUMPDEST PUSH1 0x0 PUSH1 0x20 DUP3 ADD SWAP1 POP PUSH2 0x64FA PUSH1 0x0 DUP4 ADD DUP5 PUSH2 0x64D6 JUMP JUMPDEST SWAP3 SWAP2 POP POP JUMP JUMPDEST PUSH1 0x0 PUSH8 0xFFFFFFFFFFFFFFFF DUP3 GT ISZERO PUSH2 0x651B JUMPI PUSH2 0x651A PUSH2 0x602C JUMP JUMPDEST JUMPDEST PUSH2 0x6524 DUP3 PUSH2 0x5E24 JUMP JUMPDEST SWAP1 POP PUSH1 0x20 DUP2 ADD SWAP1 POP SWAP2 SWAP1 POP JUMP JUMPDEST PUSH1 0x0 PUSH2 0x6544 PUSH2 0x653F DUP5 PUSH2 0x6500 JUMP JUMPDEST PUSH2 0x608C JUMP JUMPDEST SWAP1 POP DUP3 DUP2 MSTORE PUSH1 0x20 DUP2 ADD DUP5 DUP5 DUP5 ADD GT ISZERO PUSH2 0x6560 JUMPI PUSH2 0x655F PUSH2 0x6027 JUMP JUMPDEST JUMPDEST PUSH2 0x656B DUP5 DUP3 DUP6 PUSH2 0x60D8 JUMP JUMPDEST POP SWAP4 SWAP3 POP POP POP JUMP JUMPDEST PUSH1 0x0 DUP3 PUSH1 0x1F DUP4 ADD SLT PUSH2 0x6588 JUMPI PUSH2 0x6587 PUSH2 0x6022 JUMP JUMPDEST JUMPDEST DUP2 CALLDATALOAD PUSH2 0x6598 DUP5 DUP3 PUSH1 0x20 DUP7 ADD PUSH2 0x6531 JUMP JUMPDEST SWAP2 POP POP SWAP3 SWAP2 POP POP JUMP JUMPDEST PUSH1 0x0 DUP1 PUSH1 0x40 DUP4 DUP6 SUB SLT ISZERO PUSH2 0x65B8 JUMPI PUSH2 0x65B7 PUSH2 0x5CDC JUMP JUMPDEST JUMPDEST PUSH1 0x0 PUSH2 0x65C6 DUP6 DUP3 DUP7 ADD PUSH2 0x5F76 JUMP JUMPDEST SWAP3 POP POP PUSH1 0x20 DUP4 ADD CALLDATALOAD PUSH8 0xFFFFFFFFFFFFFFFF DUP2 GT ISZERO PUSH2 0x65E7 JUMPI PUSH2 0x65E6 PUSH2 0x5CE1 JUMP JUMPDEST JUMPDEST PUSH2 0x65F3 DUP6 DUP3 DUP7 ADD PUSH2 0x6573 JUMP JUMPDEST SWAP2 POP POP SWAP3 POP SWAP3 SWAP1 POP JUMP JUMPDEST PUSH1 0x4 DUP2 LT PUSH2 0x660A JUMPI PUSH1 0x0 DUP1 REVERT JUMPDEST POP JUMP JUMPDEST PUSH1 0x0 DUP2 CALLDATALOAD SWAP1 POP PUSH2 0x661C DUP2 PUSH2 0x65FD JUMP JUMPDEST SWAP3 SWAP2 POP POP JUMP JUMPDEST PUSH1 0x5 DUP2 LT PUSH2 0x662F JUMPI PUSH1 0x0 DUP1 REVERT JUMPDEST POP JUMP JUMPDEST PUSH1 0x0 DUP2 CALLDATALOAD SWAP1 POP PUSH2 0x6641 DUP2 PUSH2 0x6622 JUMP JUMPDEST SWAP3 SWAP2 POP POP JUMP JUMPDEST PUSH1 0x0 DUP1 PUSH1 0x0 DUP1 PUSH1 0x0 DUP1 PUSH1 0xC0 DUP8 DUP10 SUB SLT ISZERO PUSH2 0x6664 JUMPI PUSH2 0x6663 PUSH2 0x5CDC JUMP JUMPDEST JUMPDEST PUSH1 0x0 PUSH2 0x6672 DUP10 DUP3 DUP11 ADD PUSH2 0x5F76 JUMP JUMPDEST SWAP7 POP POP PUSH1 0x20 PUSH2 0x6683 DUP10 DUP3 DUP11 ADD PUSH2 0x5F76 JUMP JUMPDEST SWAP6 POP POP PUSH1 0x40 PUSH2 0x6694 DUP10 DUP3 DUP11 ADD PUSH2 0x5F13 JUMP JUMPDEST SWAP5 POP POP PUSH1 0x60 PUSH2 0x66A5 DUP10 DUP3 DUP11 ADD PUSH2 0x660D JUMP JUMPDEST SWAP4 POP POP PUSH1 0x80 PUSH2 0x66B6 DUP10 DUP3 DUP11 ADD PUSH2 0x6632 JUMP JUMPDEST SWAP3 POP POP PUSH1 0xA0 DUP8 ADD CALLDATALOAD PUSH8 0xFFFFFFFFFFFFFFFF DUP2 GT ISZERO PUSH2 0x66D7 JUMPI PUSH2 0x66D6 PUSH2 0x5CE1 JUMP JUMPDEST JUMPDEST PUSH2 0x66E3 DUP10 DUP3 DUP11 ADD PUSH2 0x6129 JUMP JUMPDEST SWAP2 POP POP SWAP3 SWAP6 POP SWAP3 SWAP6 POP SWAP3 SWAP6 JUMP JUMPDEST PUSH1 0x0 DUP1 REVERT JUMPDEST PUSH1 0x0 DUP1 REVERT JUMPDEST PUSH1 0x0 PUSH1 0xA0 DUP3 DUP5 SUB SLT ISZERO PUSH2 0x6710 JUMPI PUSH2 0x670F PUSH2 0x66F0 JUMP JUMPDEST JUMPDEST PUSH2 0x671A PUSH1 0xA0 PUSH2 0x608C JUMP JUMPDEST SWAP1 POP PUSH1 0x0 PUSH2 0x672A DUP5 DUP3 DUP6 ADD PUSH2 0x5F76 JUMP JUMPDEST PUSH1 0x0 DUP4 ADD MSTORE POP PUSH1 0x20 PUSH2 0x673E DUP5 DUP3 DUP6 ADD PUSH2 0x660D JUMP JUMPDEST PUSH1 0x20 DUP4 ADD MSTORE POP PUSH1 0x40 PUSH2 0x6752 DUP5 DUP3 DUP6 ADD PUSH2 0x6632 JUMP JUMPDEST PUSH1 0x40 DUP4 ADD MSTORE POP PUSH1 0x60 DUP3 ADD CALLDATALOAD PUSH8 0xFFFFFFFFFFFFFFFF DUP2 GT ISZERO PUSH2 0x6776 JUMPI PUSH2 0x6775 PUSH2 0x66F5 JUMP JUMPDEST JUMPDEST PUSH2 0x6782 DUP5 DUP3 DUP6 ADD PUSH2 0x6573 JUMP JUMPDEST PUSH1 0x60 DUP4 ADD MSTORE POP PUSH1 0x80 DUP3 ADD CALLDATALOAD PUSH8 0xFFFFFFFFFFFFFFFF DUP2 GT ISZERO PUSH2 0x67A6 JUMPI PUSH2 0x67A5 PUSH2 0x66F5 JUMP JUMPDEST JUMPDEST PUSH2 0x67B2 DUP5 DUP3 DUP6 ADD PUSH2 0x6129 JUMP JUMPDEST PUSH1 0x80 DUP4 ADD MSTORE POP SWAP3 SWAP2 POP POP JUMP JUMPDEST PUSH1 0x0 DUP1 PUSH1 0x40 DUP4 DUP6 SUB SLT ISZERO PUSH2 0x67D5 JUMPI PUSH2 0x67D4 PUSH2 0x5CDC JUMP JUMPDEST JUMPDEST PUSH1 0x0 DUP4 ADD CALLDATALOAD PUSH8 0xFFFFFFFFFFFFFFFF DUP2 GT ISZERO PUSH2 0x67F3 JUMPI PUSH2 0x67F2 PUSH2 0x5CE1 JUMP JUMPDEST JUMPDEST PUSH2 0x67FF DUP6 DUP3 DUP7 ADD PUSH2 0x66FA JUMP JUMPDEST SWAP3 POP POP PUSH1 0x20 DUP4 ADD CALLDATALOAD PUSH8 0xFFFFFFFFFFFFFFFF DUP2 GT ISZERO PUSH2 0x6820 JUMPI PUSH2 0x681F PUSH2 0x5CE1 JUMP JUMPDEST JUMPDEST PUSH2 0x682C DUP6 DUP3 DUP7 ADD PUSH2 0x6129 JUMP JUMPDEST SWAP2 POP POP SWAP3 POP SWAP3 SWAP1 POP JUMP JUMPDEST PUSH32 0x4E487B7100000000000000000000000000000000000000000000000000000000 PUSH1 0x0 MSTORE PUSH1 0x22 PUSH1 0x4 MSTORE PUSH1 0x24 PUSH1 0x0 REVERT JUMPDEST PUSH1 0x0 PUSH1 0x2 DUP3 DIV SWAP1 POP PUSH1 0x1 DUP3 AND DUP1 PUSH2 0x687D JUMPI PUSH1 0x7F DUP3 AND SWAP2 POP JUMPDEST PUSH1 0x20 DUP3 LT DUP2 SUB PUSH2 0x6890 JUMPI PUSH2 0x688F PUSH2 0x6836 JUMP JUMPDEST JUMPDEST POP SWAP2 SWAP1 POP JUMP JUMPDEST PUSH32 0x56616C696461746F723A206F6E6C792065786973742076616C696461746F7220 PUSH1 0x0 DUP3 ADD MSTORE PUSH32 0x63616E2062652064697361626C65000000000000000000000000000000000000 PUSH1 0x20 DUP3 ADD MSTORE POP JUMP JUMPDEST PUSH1 0x0 PUSH2 0x68F2 PUSH1 0x2E DUP4 PUSH2 0x5DE0 JUMP JUMPDEST SWAP2 POP PUSH2 0x68FD DUP3 PUSH2 0x6896 JUMP JUMPDEST PUSH1 0x40 DUP3 ADD SWAP1 POP SWAP2 SWAP1 POP JUMP JUMPDEST PUSH1 0x0 PUSH1 0x20 DUP3 ADD SWAP1 POP DUP2 DUP2 SUB PUSH1 0x0 DUP4 ADD MSTORE PUSH2 0x6921 DUP2 PUSH2 0x68E5 JUMP JUMPDEST SWAP1 POP SWAP2 SWAP1 POP JUMP JUMPDEST PUSH32 0x4E487B7100000000000000000000000000000000000000000000000000000000 PUSH1 0x0 MSTORE PUSH1 0x11 PUSH1 0x4 MSTORE PUSH1 0x24 PUSH1 0x0 REVERT JUMPDEST PUSH1 0x0 PUSH2 0x6962 DUP3 PUSH2 0x5E90 JUMP JUMPDEST SWAP2 POP PUSH2 0x696D DUP4 PUSH2 0x5E90 JUMP JUMPDEST SWAP3 POP DUP3 DUP3 LT ISZERO PUSH2 0x6980 JUMPI PUSH2 0x697F PUSH2 0x6928 JUMP JUMPDEST JUMPDEST DUP3 DUP3 SUB SWAP1 POP SWAP3 SWAP2 POP POP JUMP JUMPDEST PUSH32 0x61646D696E20616C7265616479206361737420766F7465000000000000000000 PUSH1 0x0 DUP3 ADD MSTORE POP JUMP JUMPDEST PUSH1 0x0 PUSH2 0x69C1 PUSH1 0x17 DUP4 PUSH2 0x5DE0 JUMP JUMPDEST SWAP2 POP PUSH2 0x69CC DUP3 PUSH2 0x698B JUMP JUMPDEST PUSH1 0x20 DUP3 ADD SWAP1 POP SWAP2 SWAP1 POP JUMP JUMPDEST PUSH1 0x0 PUSH1 0x20 DUP3 ADD SWAP1 POP DUP2 DUP2 SUB PUSH1 0x0 DUP4 ADD MSTORE PUSH2 0x69F0 DUP2 PUSH2 0x69B4 JUMP JUMPDEST SWAP1 POP SWAP2 SWAP1 POP JUMP JUMPDEST PUSH1 0x4 DUP2 LT PUSH2 0x6A08 JUMPI PUSH2 0x6A07 PUSH2 0x61B3 JUMP JUMPDEST JUMPDEST POP JUMP JUMPDEST PUSH1 0x0 DUP2 SWAP1 POP PUSH2 0x6A19 DUP3 PUSH2 0x69F7 JUMP JUMPDEST SWAP2 SWAP1 POP JUMP JUMPDEST PUSH1 0x0 PUSH2 0x6A29 DUP3 PUSH2 0x6A0B JUMP JUMPDEST SWAP1 POP SWAP2 SWAP1 POP JUMP JUMPDEST PUSH2 0x6A39 DUP2 PUSH2 0x6A1E JUMP JUMPDEST DUP3 MSTORE POP POP JUMP JUMPDEST POP JUMP JUMPDEST PUSH1 0x0 PUSH2 0x6A4F PUSH1 0x0 DUP4 PUSH2 0x5DE0 JUMP JUMPDEST SWAP2 POP PUSH2 0x6A5A DUP3 PUSH2 0x6A3F JUMP JUMPDEST PUSH1 0x0 DUP3 ADD SWAP1 POP SWAP2 SWAP1 POP JUMP JUMPDEST PUSH1 0x0 PUSH1 0x40 DUP3 ADD SWAP1 POP PUSH2 0x6A7A PUSH1 0x0 DUP4 ADD DUP5 PUSH2 0x6A30 JUMP JUMPDEST DUP2 DUP2 SUB PUSH1 0x20 DUP4 ADD MSTORE PUSH2 0x6A8B DUP2 PUSH2 0x6A42 JUMP JUMPDEST SWAP1 POP SWAP3 SWAP2 POP POP JUMP JUMPDEST PUSH32 0x416363657373436F6E74726F6C3A2063616E206F6E6C792072656E6F756E6365 PUSH1 0x0 DUP3 ADD MSTORE PUSH32 0x20726F6C657320666F722073656C660000000000000000000000000000000000 PUSH1 0x20 DUP3 ADD MSTORE POP JUMP JUMPDEST PUSH1 0x0 PUSH2 0x6AEF PUSH1 0x2F DUP4 PUSH2 0x5DE0 JUMP JUMPDEST SWAP2 POP PUSH2 0x6AFA DUP3 PUSH2 0x6A93 JUMP JUMPDEST PUSH1 0x40 DUP3 ADD SWAP1 POP SWAP2 SWAP1 POP JUMP JUMPDEST PUSH1 0x0 PUSH1 0x20 DUP3 ADD SWAP1 POP DUP2 DUP2 SUB PUSH1 0x0 DUP4 ADD MSTORE PUSH2 0x6B1E DUP2 PUSH2 0x6AE2 JUMP JUMPDEST SWAP1 POP SWAP2 SWAP1 POP JUMP JUMPDEST PUSH32 0x46756E6374696F6E206D7573742062652063616C6C6564207468726F75676820 PUSH1 0x0 DUP3 ADD MSTORE PUSH32 0x64656C656761746563616C6C0000000000000000000000000000000000000000 PUSH1 0x20 DUP3 ADD MSTORE POP JUMP JUMPDEST PUSH1 0x0 PUSH2 0x6B81 PUSH1 0x2C DUP4 PUSH2 0x5DE0 JUMP JUMPDEST SWAP2 POP PUSH2 0x6B8C DUP3 PUSH2 0x6B25 JUMP JUMPDEST PUSH1 0x40 DUP3 ADD SWAP1 POP SWAP2 SWAP1 POP JUMP JUMPDEST PUSH1 0x0 PUSH1 0x20 DUP3 ADD SWAP1 POP DUP2 DUP2 SUB PUSH1 0x0 DUP4 ADD MSTORE PUSH2 0x6BB0 DUP2 PUSH2 0x6B74 JUMP JUMPDEST SWAP1 POP SWAP2 SWAP1 POP JUMP JUMPDEST PUSH32 0x46756E6374696F6E206D7573742062652063616C6C6564207468726F75676820 PUSH1 0x0 DUP3 ADD MSTORE PUSH32 0x6163746976652070726F78790000000000000000000000000000000000000000 PUSH1 0x20 DUP3 ADD MSTORE POP JUMP JUMPDEST PUSH1 0x0 PUSH2 0x6C13 PUSH1 0x2C DUP4 PUSH2 0x5DE0 JUMP JUMPDEST SWAP2 POP PUSH2 0x6C1E DUP3 PUSH2 0x6BB7 JUMP JUMPDEST PUSH1 0x40 DUP3 ADD SWAP1 POP SWAP2 SWAP1 POP JUMP JUMPDEST PUSH1 0x0 PUSH1 0x20 DUP3 ADD SWAP1 POP DUP2 DUP2 SUB PUSH1 0x0 DUP4 ADD MSTORE PUSH2 0x6C42 DUP2 PUSH2 0x6C06 JUMP JUMPDEST SWAP1 POP SWAP2 SWAP1 POP JUMP JUMPDEST PUSH32 0x555550535570677261646561626C653A206D757374206E6F742062652063616C PUSH1 0x0 DUP3 ADD MSTORE PUSH32 0x6C6564207468726F7567682064656C656761746563616C6C0000000000000000 PUSH1 0x20 DUP3 ADD MSTORE POP JUMP JUMPDEST PUSH1 0x0 PUSH2 0x6CA5 PUSH1 0x38 DUP4 PUSH2 0x5DE0 JUMP JUMPDEST SWAP2 POP PUSH2 0x6CB0 DUP3 PUSH2 0x6C49 JUMP JUMPDEST PUSH1 0x40 DUP3 ADD SWAP1 POP SWAP2 SWAP1 POP JUMP JUMPDEST PUSH1 0x0 PUSH1 0x20 DUP3 ADD SWAP1 POP DUP2 DUP2 SUB PUSH1 0x0 DUP4 ADD MSTORE PUSH2 0x6CD4 DUP2 PUSH2 0x6C98 JUMP JUMPDEST SWAP1 POP SWAP2 SWAP1 POP JUMP JUMPDEST PUSH32 0x70726F706F73616C496420697320696E76616C69640000000000000000000000 PUSH1 0x0 DUP3 ADD MSTORE POP JUMP JUMPDEST PUSH1 0x0 PUSH2 0x6D11 PUSH1 0x15 DUP4 PUSH2 0x5DE0 JUMP JUMPDEST SWAP2 POP PUSH2 0x6D1C DUP3 PUSH2 0x6CDB JUMP JUMPDEST PUSH1 0x20 DUP3 ADD SWAP1 POP SWAP2 SWAP1 POP JUMP JUMPDEST PUSH1 0x0 PUSH1 0x20 DUP3 ADD SWAP1 POP DUP2 DUP2 SUB PUSH1 0x0 DUP4 ADD MSTORE PUSH2 0x6D40 DUP2 PUSH2 0x6D04 JUMP JUMPDEST SWAP1 POP SWAP2 SWAP1 POP JUMP JUMPDEST PUSH1 0x0 DUP2 SWAP1 POP SWAP2 SWAP1 POP JUMP JUMPDEST PUSH1 0x0 PUSH1 0xFF DUP3 AND SWAP1 POP SWAP2 SWAP1 POP JUMP JUMPDEST PUSH1 0x0 DUP2 SWAP1 POP SWAP2 SWAP1 POP JUMP JUMPDEST PUSH1 0x0 PUSH2 0x6D83 PUSH2 0x6D7E PUSH2 0x6D79 DUP5 PUSH2 0x6D47 JUMP JUMPDEST PUSH2 0x6D5E JUMP JUMPDEST PUSH2 0x6D51 JUMP JUMPDEST SWAP1 POP SWAP2 SWAP1 POP JUMP JUMPDEST PUSH2 0x6D93 DUP2 PUSH2 0x6D68 JUMP JUMPDEST DUP3 MSTORE POP POP JUMP JUMPDEST PUSH1 0x0 PUSH1 0x20 DUP3 ADD SWAP1 POP PUSH2 0x6DAE PUSH1 0x0 DUP4 ADD DUP5 PUSH2 0x6D8A JUMP JUMPDEST SWAP3 SWAP2 POP POP JUMP JUMPDEST PUSH32 0x476F7665726E6F723A206F6E6C792076616C696461746F72207065726D697474 PUSH1 0x0 DUP3 ADD MSTORE PUSH32 0x6564000000000000000000000000000000000000000000000000000000000000 PUSH1 0x20 DUP3 ADD MSTORE POP JUMP JUMPDEST PUSH1 0x0 PUSH2 0x6E10 PUSH1 0x22 DUP4 PUSH2 0x5DE0 JUMP JUMPDEST SWAP2 POP PUSH2 0x6E1B DUP3 PUSH2 0x6DB4 JUMP JUMPDEST PUSH1 0x40 DUP3 ADD SWAP1 POP SWAP2 SWAP1 POP JUMP JUMPDEST PUSH1 0x0 PUSH1 0x20 DUP3 ADD SWAP1 POP DUP2 DUP2 SUB PUSH1 0x0 DUP4 ADD MSTORE PUSH2 0x6E3F DUP2 PUSH2 0x6E03 JUMP JUMPDEST SWAP1 POP SWAP2 SWAP1 POP JUMP JUMPDEST PUSH32 0x476F7665726E6F72203A206F6E6C792070726F706F7365722063616E2063616E PUSH1 0x0 DUP3 ADD MSTORE PUSH32 0x63656C0000000000000000000000000000000000000000000000000000000000 PUSH1 0x20 DUP3 ADD MSTORE POP JUMP JUMPDEST PUSH1 0x0 PUSH2 0x6EA2 PUSH1 0x23 DUP4 PUSH2 0x5DE0 JUMP JUMPDEST SWAP2 POP PUSH2 0x6EAD DUP3 PUSH2 0x6E46 JUMP JUMPDEST PUSH1 0x40 DUP3 ADD SWAP1 POP SWAP2 SWAP1 POP JUMP JUMPDEST PUSH1 0x0 PUSH1 0x20 DUP3 ADD SWAP1 POP DUP2 DUP2 SUB PUSH1 0x0 DUP4 ADD MSTORE PUSH2 0x6ED1 DUP2 PUSH2 0x6E95 JUMP JUMPDEST SWAP1 POP SWAP2 SWAP1 POP JUMP JUMPDEST PUSH32 0x476F7665726E6F723A2070726F706F73616C206E6F7420616374697665000000 PUSH1 0x0 DUP3 ADD MSTORE POP JUMP JUMPDEST PUSH1 0x0 PUSH2 0x6F0E PUSH1 0x1D DUP4 PUSH2 0x5DE0 JUMP JUMPDEST SWAP2 POP PUSH2 0x6F19 DUP3 PUSH2 0x6ED8 JUMP JUMPDEST PUSH1 0x20 DUP3 ADD SWAP1 POP SWAP2 SWAP1 POP JUMP JUMPDEST PUSH1 0x0 PUSH1 0x20 DUP3 ADD SWAP1 POP DUP2 DUP2 SUB PUSH1 0x0 DUP4 ADD MSTORE PUSH2 0x6F3D DUP2 PUSH2 0x6F01 JUMP JUMPDEST SWAP1 POP SWAP2 SWAP1 POP JUMP JUMPDEST PUSH32 0x476F7665726E6F723A2070726F706F73616C20616C72656164792063616E6365 PUSH1 0x0 DUP3 ADD MSTORE PUSH32 0x6C65640000000000000000000000000000000000000000000000000000000000 PUSH1 0x20 DUP3 ADD MSTORE POP JUMP JUMPDEST PUSH1 0x0 PUSH2 0x6FA0 PUSH1 0x23 DUP4 PUSH2 0x5DE0 JUMP JUMPDEST SWAP2 POP PUSH2 0x6FAB DUP3 PUSH2 0x6F44 JUMP JUMPDEST PUSH1 0x40 DUP3 ADD SWAP1 POP SWAP2 SWAP1 POP JUMP JUMPDEST PUSH1 0x0 PUSH1 0x20 DUP3 ADD SWAP1 POP DUP2 DUP2 SUB PUSH1 0x0 DUP4 ADD MSTORE PUSH2 0x6FCF DUP2 PUSH2 0x6F93 JUMP JUMPDEST SWAP1 POP SWAP2 SWAP1 POP JUMP JUMPDEST PUSH1 0x4 DUP2 LT PUSH2 0x6FE7 JUMPI PUSH2 0x6FE6 PUSH2 0x61B3 JUMP JUMPDEST JUMPDEST POP JUMP JUMPDEST PUSH1 0x0 DUP2 SWAP1 POP PUSH2 0x6FF8 DUP3 PUSH2 0x6FD6 JUMP JUMPDEST SWAP2 SWAP1 POP JUMP JUMPDEST PUSH1 0x0 PUSH2 0x7008 DUP3 PUSH2 0x6FEA JUMP JUMPDEST SWAP1 POP SWAP2 SWAP1 POP JUMP JUMPDEST PUSH2 0x7018 DUP2 PUSH2 0x6FFD JUMP JUMPDEST DUP3 MSTORE POP POP JUMP JUMPDEST PUSH1 0x5 DUP2 LT PUSH2 0x702F JUMPI PUSH2 0x702E PUSH2 0x61B3 JUMP JUMPDEST JUMPDEST POP JUMP JUMPDEST PUSH1 0x0 DUP2 SWAP1 POP PUSH2 0x7040 DUP3 PUSH2 0x701E JUMP JUMPDEST SWAP2 SWAP1 POP JUMP JUMPDEST PUSH1 0x0 PUSH2 0x7050 DUP3 PUSH2 0x7032 JUMP JUMPDEST SWAP1 POP SWAP2 SWAP1 POP JUMP JUMPDEST PUSH2 0x7060 DUP2 PUSH2 0x7045 JUMP JUMPDEST DUP3 MSTORE POP POP JUMP JUMPDEST PUSH1 0x0 DUP2 MLOAD SWAP1 POP SWAP2 SWAP1 POP JUMP JUMPDEST PUSH1 0x0 DUP3 DUP3 MSTORE PUSH1 0x20 DUP3 ADD SWAP1 POP SWAP3 SWAP2 POP POP JUMP JUMPDEST PUSH1 0x0 PUSH2 0x708D DUP3 PUSH2 0x7066 JUMP JUMPDEST PUSH2 0x7097 DUP2 DUP6 PUSH2 0x7071 JUMP JUMPDEST SWAP4 POP PUSH2 0x70A7 DUP2 DUP6 PUSH1 0x20 DUP7 ADD PUSH2 0x5DF1 JUMP JUMPDEST PUSH2 0x70B0 DUP2 PUSH2 0x5E24 JUMP JUMPDEST DUP5 ADD SWAP2 POP POP SWAP3 SWAP2 POP POP JUMP JUMPDEST PUSH1 0x0 PUSH1 0xC0 DUP3 ADD SWAP1 POP PUSH2 0x70D0 PUSH1 0x0 DUP4 ADD DUP10 PUSH2 0x5FB8 JUMP JUMPDEST PUSH2 0x70DD PUSH1 0x20 DUP4 ADD DUP9 PUSH2 0x5FB8 JUMP JUMPDEST PUSH2 0x70EA PUSH1 0x40 DUP4 ADD DUP8 PUSH2 0x6413 JUMP JUMPDEST PUSH2 0x70F7 PUSH1 0x60 DUP4 ADD DUP7 PUSH2 0x700F JUMP JUMPDEST PUSH2 0x7104 PUSH1 0x80 DUP4 ADD DUP6 PUSH2 0x7057 JUMP JUMPDEST DUP2 DUP2 SUB PUSH1 0xA0 DUP4 ADD MSTORE PUSH2 0x7116 DUP2 DUP5 PUSH2 0x7082 JUMP JUMPDEST SWAP1 POP SWAP8 SWAP7 POP POP POP POP POP POP POP JUMP JUMPDEST PUSH32 0x476F7665726E6F723A2070726F706F73616C206E6F7420737563636573736675 PUSH1 0x0 DUP3 ADD MSTORE PUSH32 0x6C00000000000000000000000000000000000000000000000000000000000000 PUSH1 0x20 DUP3 ADD MSTORE POP JUMP JUMPDEST PUSH1 0x0 PUSH2 0x717F PUSH1 0x21 DUP4 PUSH2 0x5DE0 JUMP JUMPDEST SWAP2 POP PUSH2 0x718A DUP3 PUSH2 0x7123 JUMP JUMPDEST PUSH1 0x40 DUP3 ADD SWAP1 POP SWAP2 SWAP1 POP JUMP JUMPDEST PUSH1 0x0 PUSH1 0x20 DUP3 ADD SWAP1 POP DUP2 DUP2 SUB PUSH1 0x0 DUP4 ADD MSTORE PUSH2 0x71AE DUP2 PUSH2 0x7172 JUMP JUMPDEST SWAP1 POP SWAP2 SWAP1 POP JUMP JUMPDEST PUSH32 0x476F7665726E6F723A206F6E6C792076616C696461746F72206F7220416D696E PUSH1 0x0 DUP3 ADD MSTORE PUSH32 0x2063616E207065726D6974746564000000000000000000000000000000000000 PUSH1 0x20 DUP3 ADD MSTORE POP JUMP JUMPDEST PUSH1 0x0 PUSH2 0x7211 PUSH1 0x2E DUP4 PUSH2 0x5DE0 JUMP JUMPDEST SWAP2 POP PUSH2 0x721C DUP3 PUSH2 0x71B5 JUMP JUMPDEST PUSH1 0x40 DUP3 ADD SWAP1 POP SWAP2 SWAP1 POP JUMP JUMPDEST PUSH1 0x0 PUSH1 0x20 DUP3 ADD SWAP1 POP DUP2 DUP2 SUB PUSH1 0x0 DUP4 ADD MSTORE PUSH2 0x7240 DUP2 PUSH2 0x7204 JUMP JUMPDEST SWAP1 POP SWAP2 SWAP1 POP JUMP JUMPDEST PUSH32 0x70726F706F73616C20747970652073686F756C64206E6F74206265204E4F4E45 PUSH1 0x0 DUP3 ADD MSTORE POP JUMP JUMPDEST PUSH1 0x0 PUSH2 0x727D PUSH1 0x20 DUP4 PUSH2 0x5DE0 JUMP JUMPDEST SWAP2 POP PUSH2 0x7288 DUP3 PUSH2 0x7247 JUMP JUMPDEST PUSH1 0x20 DUP3 ADD SWAP1 POP SWAP2 SWAP1 POP JUMP JUMPDEST PUSH1 0x0 PUSH1 0x20 DUP3 ADD SWAP1 POP DUP2 DUP2 SUB PUSH1 0x0 DUP4 ADD MSTORE PUSH2 0x72AC DUP2 PUSH2 0x7270 JUMP JUMPDEST SWAP1 POP SWAP2 SWAP1 POP JUMP JUMPDEST PUSH32 0x616374696F6E20747970652073686F756C64206E6F74206265204E4F4E450000 PUSH1 0x0 DUP3 ADD MSTORE POP JUMP JUMPDEST PUSH1 0x0 PUSH2 0x72E9 PUSH1 0x1E DUP4 PUSH2 0x5DE0 JUMP JUMPDEST SWAP2 POP PUSH2 0x72F4 DUP3 PUSH2 0x72B3 JUMP JUMPDEST PUSH1 0x20 DUP3 ADD SWAP1 POP SWAP2 SWAP1 POP JUMP JUMPDEST PUSH1 0x0 PUSH1 0x20 DUP3 ADD SWAP1 POP DUP2 DUP2 SUB PUSH1 0x0 DUP4 ADD MSTORE PUSH2 0x7318 DUP2 PUSH2 0x72DC JUMP JUMPDEST SWAP1 POP SWAP2 SWAP1 POP JUMP JUMPDEST PUSH32 0x646174612073686F756C64206E6F7420626520656D7074790000000000000000 PUSH1 0x0 DUP3 ADD MSTORE POP JUMP JUMPDEST PUSH1 0x0 PUSH2 0x7355 PUSH1 0x18 DUP4 PUSH2 0x5DE0 JUMP JUMPDEST SWAP2 POP PUSH2 0x7360 DUP3 PUSH2 0x731F JUMP JUMPDEST PUSH1 0x20 DUP3 ADD SWAP1 POP SWAP2 SWAP1 POP JUMP JUMPDEST PUSH1 0x0 PUSH1 0x20 DUP3 ADD SWAP1 POP DUP2 DUP2 SUB PUSH1 0x0 DUP4 ADD MSTORE PUSH2 0x7384 DUP2 PUSH2 0x7348 JUMP JUMPDEST SWAP1 POP SWAP2 SWAP1 POP JUMP JUMPDEST PUSH32 0x61646D696E2070726F706F7365206F6E6C792076616C696461746F7200000000 PUSH1 0x0 DUP3 ADD MSTORE POP JUMP JUMPDEST PUSH1 0x0 PUSH2 0x73C1 PUSH1 0x1C DUP4 PUSH2 0x5DE0 JUMP JUMPDEST SWAP2 POP PUSH2 0x73CC DUP3 PUSH2 0x738B JUMP JUMPDEST PUSH1 0x20 DUP3 ADD SWAP1 POP SWAP2 SWAP1 POP JUMP JUMPDEST PUSH1 0x0 PUSH1 0x20 DUP3 ADD SWAP1 POP DUP2 DUP2 SUB PUSH1 0x0 DUP4 ADD MSTORE PUSH2 0x73F0 DUP2 PUSH2 0x73B4 JUMP JUMPDEST SWAP1 POP SWAP2 SWAP1 POP JUMP JUMPDEST PUSH32 0x76616C696461746F7220636F75646E27742070726F706F73652076616C696461 PUSH1 0x0 DUP3 ADD MSTORE PUSH32 0x746F720000000000000000000000000000000000000000000000000000000000 PUSH1 0x20 DUP3 ADD MSTORE POP JUMP JUMPDEST PUSH1 0x0 PUSH2 0x7453 PUSH1 0x23 DUP4 PUSH2 0x5DE0 JUMP JUMPDEST SWAP2 POP PUSH2 0x745E DUP3 PUSH2 0x73F7 JUMP JUMPDEST PUSH1 0x40 DUP3 ADD SWAP1 POP SWAP2 SWAP1 POP JUMP JUMPDEST PUSH1 0x0 PUSH1 0x20 DUP3 ADD SWAP1 POP DUP2 DUP2 SUB PUSH1 0x0 DUP4 ADD MSTORE PUSH2 0x7482 DUP2 PUSH2 0x7446 JUMP JUMPDEST SWAP1 POP SWAP2 SWAP1 POP JUMP JUMPDEST PUSH1 0x0 DUP2 SWAP1 POP SWAP3 SWAP2 POP POP JUMP JUMPDEST PUSH1 0x0 PUSH2 0x749F DUP3 PUSH2 0x5DD5 JUMP JUMPDEST PUSH2 0x74A9 DUP2 DUP6 PUSH2 0x7489 JUMP JUMPDEST SWAP4 POP PUSH2 0x74B9 DUP2 DUP6 PUSH1 0x20 DUP7 ADD PUSH2 0x5DF1 JUMP JUMPDEST DUP1 DUP5 ADD SWAP2 POP POP SWAP3 SWAP2 POP POP JUMP JUMPDEST PUSH1 0x0 PUSH2 0x74D1 DUP3 DUP5 PUSH2 0x7494 JUMP JUMPDEST SWAP2 POP DUP2 SWAP1 POP SWAP3 SWAP2 POP POP JUMP JUMPDEST PUSH2 0x74E5 DUP2 PUSH2 0x6D51 JUMP JUMPDEST DUP3 MSTORE POP POP JUMP JUMPDEST PUSH1 0x0 PUSH1 0x20 DUP3 ADD SWAP1 POP PUSH2 0x7500 PUSH1 0x0 DUP4 ADD DUP5 PUSH2 0x74DC JUMP JUMPDEST SWAP3 SWAP2 POP POP JUMP JUMPDEST PUSH1 0x0 PUSH1 0x40 DUP3 ADD SWAP1 POP PUSH2 0x751B PUSH1 0x0 DUP4 ADD DUP6 PUSH2 0x5FB8 JUMP JUMPDEST PUSH2 0x7528 PUSH1 0x20 DUP4 ADD DUP5 PUSH2 0x6413 JUMP JUMPDEST SWAP4 SWAP3 POP POP POP JUMP JUMPDEST PUSH1 0x0 DUP2 MLOAD SWAP1 POP PUSH2 0x753E DUP2 PUSH2 0x629E JUMP JUMPDEST SWAP3 SWAP2 POP POP JUMP JUMPDEST PUSH1 0x0 PUSH1 0x20 DUP3 DUP5 SUB SLT ISZERO PUSH2 0x755A JUMPI PUSH2 0x7559 PUSH2 0x5CDC JUMP JUMPDEST JUMPDEST PUSH1 0x0 PUSH2 0x7568 DUP5 DUP3 DUP6 ADD PUSH2 0x752F JUMP JUMPDEST SWAP2 POP POP SWAP3 SWAP2 POP POP JUMP JUMPDEST PUSH32 0x70726F706F73616C206372656174696F6E207065726D697373696F6E2064656E PUSH1 0x0 DUP3 ADD MSTORE PUSH32 0x6965640000000000000000000000000000000000000000000000000000000000 PUSH1 0x20 DUP3 ADD MSTORE POP JUMP JUMPDEST PUSH1 0x0 PUSH2 0x75CD PUSH1 0x23 DUP4 PUSH2 0x5DE0 JUMP JUMPDEST SWAP2 POP PUSH2 0x75D8 DUP3 PUSH2 0x7571 JUMP JUMPDEST PUSH1 0x40 DUP3 ADD SWAP1 POP SWAP2 SWAP1 POP JUMP JUMPDEST PUSH1 0x0 PUSH1 0x20 DUP3 ADD SWAP1 POP DUP2 DUP2 SUB PUSH1 0x0 DUP4 ADD MSTORE PUSH2 0x75FC DUP2 PUSH2 0x75C0 JUMP JUMPDEST SWAP1 POP SWAP2 SWAP1 POP JUMP JUMPDEST PUSH1 0x0 PUSH8 0xFFFFFFFFFFFFFFFF DUP3 AND SWAP1 POP SWAP2 SWAP1 POP JUMP JUMPDEST PUSH1 0x0 PUSH2 0x7622 DUP3 PUSH2 0x7603 JUMP JUMPDEST SWAP2 POP PUSH2 0x762D DUP4 PUSH2 0x7603 JUMP JUMPDEST SWAP3 POP DUP3 PUSH8 0xFFFFFFFFFFFFFFFF SUB DUP3 GT ISZERO PUSH2 0x764A JUMPI PUSH2 0x7649 PUSH2 0x6928 JUMP JUMPDEST JUMPDEST DUP3 DUP3 ADD SWAP1 POP SWAP3 SWAP2 POP POP JUMP JUMPDEST PUSH1 0x0 PUSH2 0x7668 PUSH2 0x7663 DUP5 PUSH2 0x6500 JUMP JUMPDEST PUSH2 0x608C JUMP JUMPDEST SWAP1 POP DUP3 DUP2 MSTORE PUSH1 0x20 DUP2 ADD DUP5 DUP5 DUP5 ADD GT ISZERO PUSH2 0x7684 JUMPI PUSH2 0x7683 PUSH2 0x6027 JUMP JUMPDEST JUMPDEST PUSH2 0x768F DUP5 DUP3 DUP6 PUSH2 0x5DF1 JUMP JUMPDEST POP SWAP4 SWAP3 POP POP POP JUMP JUMPDEST PUSH1 0x0 DUP3 PUSH1 0x1F DUP4 ADD SLT PUSH2 0x76AC JUMPI PUSH2 0x76AB PUSH2 0x6022 JUMP JUMPDEST JUMPDEST DUP2 MLOAD PUSH2 0x76BC DUP5 DUP3 PUSH1 0x20 DUP7 ADD PUSH2 0x7655 JUMP JUMPDEST SWAP2 POP POP SWAP3 SWAP2 POP POP JUMP JUMPDEST PUSH1 0x0 DUP2 MLOAD SWAP1 POP PUSH2 0x76D4 DUP2 PUSH2 0x5EFC JUMP JUMPDEST SWAP3 SWAP2 POP POP JUMP JUMPDEST PUSH1 0x0 PUSH1 0x40 DUP3 DUP5 SUB SLT ISZERO PUSH2 0x76F0 JUMPI PUSH2 0x76EF PUSH2 0x66F0 JUMP JUMPDEST JUMPDEST PUSH2 0x76FA PUSH1 0x40 PUSH2 0x608C JUMP JUMPDEST SWAP1 POP PUSH1 0x0 DUP3 ADD MLOAD PUSH8 0xFFFFFFFFFFFFFFFF DUP2 GT ISZERO PUSH2 0x771A JUMPI PUSH2 0x7719 PUSH2 0x66F5 JUMP JUMPDEST JUMPDEST PUSH2 0x7726 DUP5 DUP3 DUP6 ADD PUSH2 0x7697 JUMP JUMPDEST PUSH1 0x0 DUP4 ADD MSTORE POP PUSH1 0x20 PUSH2 0x773A DUP5 DUP3 DUP6 ADD PUSH2 0x76C5 JUMP JUMPDEST PUSH1 0x20 DUP4 ADD MSTORE POP SWAP3 SWAP2 POP POP JUMP JUMPDEST PUSH1 0x0 PUSH1 0x20 DUP3 DUP5 SUB SLT ISZERO PUSH2 0x775C JUMPI PUSH2 0x775B PUSH2 0x5CDC JUMP JUMPDEST JUMPDEST PUSH1 0x0 DUP3 ADD MLOAD PUSH8 0xFFFFFFFFFFFFFFFF DUP2 GT ISZERO PUSH2 0x777A JUMPI PUSH2 0x7779 PUSH2 0x5CE1 JUMP JUMPDEST JUMPDEST PUSH2 0x7786 DUP5 DUP3 DUP6 ADD PUSH2 0x76DA JUMP JUMPDEST SWAP2 POP POP SWAP3 SWAP2 POP POP JUMP JUMPDEST PUSH1 0x0 PUSH2 0x779A DUP3 PUSH2 0x5E90 JUMP JUMPDEST SWAP2 POP PUSH2 0x77A5 DUP4 PUSH2 0x5E90 JUMP JUMPDEST SWAP3 POP DUP3 PUSH4 0xFFFFFFFF SUB DUP3 GT ISZERO PUSH2 0x77BE JUMPI PUSH2 0x77BD PUSH2 0x6928 JUMP JUMPDEST JUMPDEST DUP3 DUP3 ADD SWAP1 POP SWAP3 SWAP2 POP POP JUMP JUMPDEST PUSH1 0x0 DUP2 MLOAD SWAP1 POP PUSH2 0x77D8 DUP2 PUSH2 0x6245 JUMP JUMPDEST SWAP3 SWAP2 POP POP JUMP JUMPDEST PUSH1 0x0 PUSH2 0xFFFF DUP3 AND SWAP1 POP SWAP2 SWAP1 POP JUMP JUMPDEST PUSH2 0x77F5 DUP2 PUSH2 0x77DE JUMP JUMPDEST DUP2 EQ PUSH2 0x7800 JUMPI PUSH1 0x0 DUP1 REVERT JUMPDEST POP JUMP JUMPDEST PUSH1 0x0 DUP2 MLOAD SWAP1 POP PUSH2 0x7812 DUP2 PUSH2 0x77EC JUMP JUMPDEST SWAP3 SWAP2 POP POP JUMP JUMPDEST PUSH1 0x0 PUSH1 0x80 DUP3 DUP5 SUB SLT ISZERO PUSH2 0x782E JUMPI PUSH2 0x782D PUSH2 0x66F0 JUMP JUMPDEST JUMPDEST PUSH2 0x7838 PUSH1 0x80 PUSH2 0x608C JUMP JUMPDEST SWAP1 POP PUSH1 0x0 DUP3 ADD MLOAD PUSH8 0xFFFFFFFFFFFFFFFF DUP2 GT ISZERO PUSH2 0x7858 JUMPI PUSH2 0x7857 PUSH2 0x66F5 JUMP JUMPDEST JUMPDEST PUSH2 0x7864 DUP5 DUP3 DUP6 ADD PUSH2 0x7697 JUMP JUMPDEST PUSH1 0x0 DUP4 ADD MSTORE POP PUSH1 0x20 PUSH2 0x7878 DUP5 DUP3 DUP6 ADD PUSH2 0x77C9 JUMP JUMPDEST PUSH1 0x20 DUP4 ADD MSTORE POP PUSH1 0x40 PUSH2 0x788C DUP5 DUP3 DUP6 ADD PUSH2 0x76C5 JUMP JUMPDEST PUSH1 0x40 DUP4 ADD MSTORE POP PUSH1 0x60 PUSH2 0x78A0 DUP5 DUP3 DUP6 ADD PUSH2 0x7803 JUMP JUMPDEST PUSH1 0x60 DUP4 ADD MSTORE POP SWAP3 SWAP2 POP POP JUMP JUMPDEST PUSH1 0x0 PUSH1 0x20 DUP3 DUP5 SUB SLT ISZERO PUSH2 0x78C2 JUMPI PUSH2 0x78C1 PUSH2 0x5CDC JUMP JUMPDEST JUMPDEST PUSH1 0x0 DUP3 ADD MLOAD PUSH8 0xFFFFFFFFFFFFFFFF DUP2 GT ISZERO PUSH2 0x78E0 JUMPI PUSH2 0x78DF PUSH2 0x5CE1 JUMP JUMPDEST JUMPDEST PUSH2 0x78EC DUP5 DUP3 DUP6 ADD PUSH2 0x7818 JUMP JUMPDEST SWAP2 POP POP SWAP3 SWAP2 POP POP JUMP JUMPDEST PUSH1 0x0 PUSH2 0x7900 DUP3 PUSH2 0x5DA1 JUMP JUMPDEST SWAP2 POP PUSH2 0x790B DUP4 PUSH2 0x5DA1 JUMP JUMPDEST SWAP3 POP DUP2 PUSH32 0xFFFFFFFFFFFFFFFFFFFFFFFFFFFFFFFFFFFFFFFFFFFFFFFFFFFFFFFFFFFFFFFF DIV DUP4 GT DUP3 ISZERO ISZERO AND ISZERO PUSH2 0x7944 JUMPI PUSH2 0x7943 PUSH2 0x6928 JUMP JUMPDEST JUMPDEST DUP3 DUP3 MUL SWAP1 POP SWAP3 SWAP2 POP POP JUMP JUMPDEST PUSH32 0x4E487B7100000000000000000000000000000000000000000000000000000000 PUSH1 0x0 MSTORE PUSH1 0x12 PUSH1 0x4 MSTORE PUSH1 0x24 PUSH1 0x0 REVERT JUMPDEST PUSH1 0x0 PUSH2 0x7989 DUP3 PUSH2 0x5DA1 JUMP JUMPDEST SWAP2 POP PUSH2 0x7994 DUP4 PUSH2 0x5DA1 JUMP JUMPDEST SWAP3 POP DUP3 PUSH2 0x79A4 JUMPI PUSH2 0x79A3 PUSH2 0x794F JUMP JUMPDEST JUMPDEST DUP3 DUP3 DIV SWAP1 POP SWAP3 SWAP2 POP POP JUMP JUMPDEST PUSH1 0x0 PUSH1 0x80 DUP3 DUP5 SUB SLT ISZERO PUSH2 0x79C5 JUMPI PUSH2 0x79C4 PUSH2 0x66F0 JUMP JUMPDEST JUMPDEST PUSH2 0x79CF PUSH1 0x80 PUSH2 0x608C JUMP JUMPDEST SWAP1 POP PUSH1 0x0 DUP3 ADD MLOAD PUSH8 0xFFFFFFFFFFFFFFFF DUP2 GT ISZERO PUSH2 0x79EF JUMPI PUSH2 0x79EE PUSH2 0x66F5 JUMP JUMPDEST JUMPDEST PUSH2 0x79FB DUP5 DUP3 DUP6 ADD PUSH2 0x7697 JUMP JUMPDEST PUSH1 0x0 DUP4 ADD MSTORE POP PUSH1 0x20 PUSH2 0x7A0F DUP5 DUP3 DUP6 ADD PUSH2 0x77C9 JUMP JUMPDEST PUSH1 0x20 DUP4 ADD MSTORE POP PUSH1 0x40 PUSH2 0x7A23 DUP5 DUP3 DUP6 ADD PUSH2 0x76C5 JUMP JUMPDEST PUSH1 0x40 DUP4 ADD MSTORE POP PUSH1 0x60 PUSH2 0x7A37 DUP5 DUP3 DUP6 ADD PUSH2 0x7803 JUMP JUMPDEST PUSH1 0x60 DUP4 ADD MSTORE POP SWAP3 SWAP2 POP POP JUMP JUMPDEST PUSH1 0x0 PUSH1 0x20 DUP3 DUP5 SUB SLT ISZERO PUSH2 0x7A59 JUMPI PUSH2 0x7A58 PUSH2 0x5CDC JUMP JUMPDEST JUMPDEST PUSH1 0x0 DUP3 ADD MLOAD PUSH8 0xFFFFFFFFFFFFFFFF DUP2 GT ISZERO PUSH2 0x7A77 JUMPI PUSH2 0x7A76 PUSH2 0x5CE1 JUMP JUMPDEST JUMPDEST PUSH2 0x7A83 DUP5 DUP3 DUP6 ADD PUSH2 0x79AF JUMP JUMPDEST SWAP2 POP POP SWAP3 SWAP2 POP POP JUMP JUMPDEST PUSH1 0x0 PUSH1 0x20 DUP3 DUP5 SUB SLT ISZERO PUSH2 0x7AA2 JUMPI PUSH2 0x7AA1 PUSH2 0x66F0 JUMP JUMPDEST JUMPDEST PUSH2 0x7AAC PUSH1 0x20 PUSH2 0x608C JUMP JUMPDEST SWAP1 POP PUSH1 0x0 PUSH2 0x7ABC DUP5 DUP3 DUP6 ADD PUSH2 0x76C5 JUMP JUMPDEST PUSH1 0x0 DUP4 ADD MSTORE POP SWAP3 SWAP2 POP POP JUMP JUMPDEST PUSH1 0x0 PUSH1 0x20 DUP3 DUP5 SUB SLT ISZERO PUSH2 0x7ADE JUMPI PUSH2 0x7ADD PUSH2 0x5CDC JUMP JUMPDEST JUMPDEST PUSH1 0x0 PUSH2 0x7AEC DUP5 DUP3 DUP6 ADD PUSH2 0x7A8C JUMP JUMPDEST SWAP2 POP POP SWAP3 SWAP2 POP POP JUMP JUMPDEST PUSH1 0x0 PUSH1 0x20 DUP3 DUP5 SUB SLT ISZERO PUSH2 0x7B0B JUMPI PUSH2 0x7B0A PUSH2 0x66F0 JUMP JUMPDEST JUMPDEST PUSH2 0x7B15 PUSH1 0x20 PUSH2 0x608C JUMP JUMPDEST SWAP1 POP PUSH1 0x0 PUSH2 0x7B25 DUP5 DUP3 DUP6 ADD PUSH2 0x76C5 JUMP JUMPDEST PUSH1 0x0 DUP4 ADD MSTORE POP SWAP3 SWAP2 POP POP JUMP JUMPDEST PUSH1 0x0 PUSH1 0x20 DUP3 DUP5 SUB SLT ISZERO PUSH2 0x7B47 JUMPI PUSH2 0x7B46 PUSH2 0x5CDC JUMP JUMPDEST JUMPDEST PUSH1 0x0 PUSH2 0x7B55 DUP5 DUP3 DUP6 ADD PUSH2 0x7AF5 JUMP JUMPDEST SWAP2 POP POP SWAP3 SWAP2 POP POP JUMP JUMPDEST PUSH1 0x0 DUP2 MLOAD SWAP1 POP PUSH2 0x7B6D DUP2 PUSH2 0x5F5F JUMP JUMPDEST SWAP3 SWAP2 POP POP JUMP JUMPDEST PUSH1 0x0 PUSH1 0x20 DUP3 DUP5 SUB SLT ISZERO PUSH2 0x7B89 JUMPI PUSH2 0x7B88 PUSH2 0x5CDC JUMP JUMPDEST JUMPDEST PUSH1 0x0 PUSH2 0x7B97 DUP5 DUP3 DUP6 ADD PUSH2 0x7B5E JUMP JUMPDEST SWAP2 POP POP SWAP3 SWAP2 POP POP JUMP JUMPDEST PUSH32 0x45524331393637557067726164653A206E657720696D706C656D656E74617469 PUSH1 0x0 DUP3 ADD MSTORE PUSH32 0x6F6E206973206E6F742055555053000000000000000000000000000000000000 PUSH1 0x20 DUP3 ADD MSTORE POP JUMP JUMPDEST PUSH1 0x0 PUSH2 0x7BFC PUSH1 0x2E DUP4 PUSH2 0x5DE0 JUMP JUMPDEST SWAP2 POP PUSH2 0x7C07 DUP3 PUSH2 0x7BA0 JUMP JUMPDEST PUSH1 0x40 DUP3 ADD SWAP1 POP SWAP2 SWAP1 POP JUMP JUMPDEST PUSH1 0x0 PUSH1 0x20 DUP3 ADD SWAP1 POP DUP2 DUP2 SUB PUSH1 0x0 DUP4 ADD MSTORE PUSH2 0x7C2B DUP2 PUSH2 0x7BEF JUMP JUMPDEST SWAP1 POP SWAP2 SWAP1 POP JUMP JUMPDEST PUSH32 0x45524331393637557067726164653A20756E737570706F727465642070726F78 PUSH1 0x0 DUP3 ADD MSTORE PUSH32 0x6961626C65555549440000000000000000000000000000000000000000000000 PUSH1 0x20 DUP3 ADD MSTORE POP JUMP JUMPDEST PUSH1 0x0 PUSH2 0x7C8E PUSH1 0x29 DUP4 PUSH2 0x5DE0 JUMP JUMPDEST SWAP2 POP PUSH2 0x7C99 DUP3 PUSH2 0x7C32 JUMP JUMPDEST PUSH1 0x40 DUP3 ADD SWAP1 POP SWAP2 SWAP1 POP JUMP JUMPDEST PUSH1 0x0 PUSH1 0x20 DUP3 ADD SWAP1 POP DUP2 DUP2 SUB PUSH1 0x0 DUP4 ADD MSTORE PUSH2 0x7CBD DUP2 PUSH2 0x7C81 JUMP JUMPDEST SWAP1 POP SWAP2 SWAP1 POP JUMP JUMPDEST PUSH1 0x0 PUSH2 0x7CCF DUP3 PUSH2 0x5E90 JUMP JUMPDEST SWAP2 POP PUSH2 0x7CDA DUP4 PUSH2 0x5E90 JUMP JUMPDEST SWAP3 POP DUP3 PUSH2 0x7CEA JUMPI PUSH2 0x7CE9 PUSH2 0x794F JUMP JUMPDEST JUMPDEST DUP3 DUP3 DIV SWAP1 POP SWAP3 SWAP2 POP POP JUMP JUMPDEST PUSH32 0x496E697469616C697A61626C653A20636F6E747261637420697320616C726561 PUSH1 0x0 DUP3 ADD MSTORE PUSH32 0x647920696E697469616C697A6564000000000000000000000000000000000000 PUSH1 0x20 DUP3 ADD MSTORE POP JUMP JUMPDEST PUSH1 0x0 PUSH2 0x7D51 PUSH1 0x2E DUP4 PUSH2 0x5DE0 JUMP JUMPDEST SWAP2 POP PUSH2 0x7D5C DUP3 PUSH2 0x7CF5 JUMP JUMPDEST PUSH1 0x40 DUP3 ADD SWAP1 POP SWAP2 SWAP1 POP JUMP JUMPDEST PUSH1 0x0 PUSH1 0x20 DUP3 ADD SWAP1 POP DUP2 DUP2 SUB PUSH1 0x0 DUP4 ADD MSTORE PUSH2 0x7D80 DUP2 PUSH2 0x7D44 JUMP JUMPDEST SWAP1 POP SWAP2 SWAP1 POP JUMP JUMPDEST PUSH32 0x476F7665726E6F723A20766F746520696E76616C696400000000000000000000 PUSH1 0x0 DUP3 ADD MSTORE POP JUMP JUMPDEST PUSH1 0x0 PUSH2 0x7DBD PUSH1 0x16 DUP4 PUSH2 0x5DE0 JUMP JUMPDEST SWAP2 POP PUSH2 0x7DC8 DUP3 PUSH2 0x7D87 JUMP JUMPDEST PUSH1 0x20 DUP3 ADD SWAP1 POP SWAP2 SWAP1 POP JUMP JUMPDEST PUSH1 0x0 PUSH1 0x20 DUP3 ADD SWAP1 POP DUP2 DUP2 SUB PUSH1 0x0 DUP4 ADD MSTORE PUSH2 0x7DEC DUP2 PUSH2 0x7DB0 JUMP JUMPDEST SWAP1 POP SWAP2 SWAP1 POP JUMP JUMPDEST PUSH32 0x476F7665726E6F723A2070726F706F73616C2063757272656E746C7920696E61 PUSH1 0x0 DUP3 ADD MSTORE PUSH32 0x6374697665000000000000000000000000000000000000000000000000000000 PUSH1 0x20 DUP3 ADD MSTORE POP JUMP JUMPDEST PUSH1 0x0 PUSH2 0x7E4F PUSH1 0x25 DUP4 PUSH2 0x5DE0 JUMP JUMPDEST SWAP2 POP PUSH2 0x7E5A DUP3 PUSH2 0x7DF3 JUMP JUMPDEST PUSH1 0x40 DUP3 ADD SWAP1 POP SWAP2 SWAP1 POP JUMP JUMPDEST PUSH1 0x0 PUSH1 0x20 DUP3 ADD SWAP1 POP DUP2 DUP2 SUB PUSH1 0x0 DUP4 ADD MSTORE PUSH2 0x7E7E DUP2 PUSH2 0x7E42 JUMP JUMPDEST SWAP1 POP SWAP2 SWAP1 POP JUMP JUMPDEST PUSH32 0x476F7665726E6F723A20766F746520616C726561647920636173740000000000 PUSH1 0x0 DUP3 ADD MSTORE POP JUMP JUMPDEST PUSH1 0x0 PUSH2 0x7EBB PUSH1 0x1B DUP4 PUSH2 0x5DE0 JUMP JUMPDEST SWAP2 POP PUSH2 0x7EC6 DUP3 PUSH2 0x7E85 JUMP JUMPDEST PUSH1 0x20 DUP3 ADD SWAP1 POP SWAP2 SWAP1 POP JUMP JUMPDEST PUSH1 0x0 PUSH1 0x20 DUP3 ADD SWAP1 POP DUP2 DUP2 SUB PUSH1 0x0 DUP4 ADD MSTORE PUSH2 0x7EEA DUP2 PUSH2 0x7EAE JUMP JUMPDEST SWAP1 POP SWAP2 SWAP1 POP JUMP JUMPDEST PUSH1 0x0 PUSH1 0x40 DUP3 ADD SWAP1 POP PUSH2 0x7F06 PUSH1 0x0 DUP4 ADD DUP6 PUSH2 0x6A30 JUMP JUMPDEST DUP2 DUP2 SUB PUSH1 0x20 DUP4 ADD MSTORE PUSH2 0x7F18 DUP2 DUP5 PUSH2 0x5E35 JUMP JUMPDEST SWAP1 POP SWAP4 SWAP3 POP POP POP JUMP JUMPDEST PUSH1 0x0 DUP2 SWAP1 POP SWAP3 SWAP2 POP POP JUMP JUMPDEST PUSH1 0x0 PUSH2 0x7F37 DUP3 PUSH2 0x7066 JUMP JUMPDEST PUSH2 0x7F41 DUP2 DUP6 PUSH2 0x7F21 JUMP JUMPDEST SWAP4 POP PUSH2 0x7F51 DUP2 DUP6 PUSH1 0x20 DUP7 ADD PUSH2 0x5DF1 JUMP JUMPDEST DUP1 DUP5 ADD SWAP2 POP POP SWAP3 SWAP2 POP POP JUMP JUMPDEST PUSH1 0x0 PUSH2 0x7F69 DUP3 DUP5 PUSH2 0x7F2C JUMP JUMPDEST SWAP2 POP DUP2 SWAP1 POP SWAP3 SWAP2 POP POP JUMP JUMPDEST PUSH1 0x0 PUSH1 0xE0 DUP3 ADD SWAP1 POP PUSH2 0x7F89 PUSH1 0x0 DUP4 ADD DUP11 PUSH2 0x5FB8 JUMP JUMPDEST PUSH2 0x7F96 PUSH1 0x20 DUP4 ADD DUP10 PUSH2 0x5FB8 JUMP JUMPDEST PUSH2 0x7FA3 PUSH1 0x40 DUP4 ADD DUP9 PUSH2 0x5FB8 JUMP JUMPDEST PUSH2 0x7FB0 PUSH1 0x60 DUP4 ADD DUP8 PUSH2 0x6413 JUMP JUMPDEST PUSH2 0x7FBD PUSH1 0x80 DUP4 ADD DUP7 PUSH2 0x700F JUMP JUMPDEST PUSH2 0x7FCA PUSH1 0xA0 DUP4 ADD DUP6 PUSH2 0x7057 JUMP JUMPDEST PUSH2 0x7FD7 PUSH1 0xC0 DUP4 ADD DUP5 PUSH2 0x5FB8 JUMP JUMPDEST SWAP9 SWAP8 POP POP POP POP POP POP POP POP JUMP JUMPDEST PUSH32 0x76616C696461746F7220616464726573732073686F756C64206E6F7420626520 PUSH1 0x0 DUP3 ADD MSTORE PUSH32 0x7A65726F00000000000000000000000000000000000000000000000000000000 PUSH1 0x20 DUP3 ADD MSTORE POP JUMP JUMPDEST PUSH1 0x0 PUSH2 0x803F PUSH1 0x24 DUP4 PUSH2 0x5DE0 JUMP JUMPDEST SWAP2 POP PUSH2 0x804A DUP3 PUSH2 0x7FE3 JUMP JUMPDEST PUSH1 0x40 DUP3 ADD SWAP1 POP SWAP2 SWAP1 POP JUMP JUMPDEST PUSH1 0x0 PUSH1 0x20 DUP3 ADD SWAP1 POP DUP2 DUP2 SUB PUSH1 0x0 DUP4 ADD MSTORE PUSH2 0x806E DUP2 PUSH2 0x8032 JUMP JUMPDEST SWAP1 POP SWAP2 SWAP1 POP JUMP JUMPDEST PUSH32 0x76616C696461746F72206E616D652073686F756C64206E6F7420626520656D70 PUSH1 0x0 DUP3 ADD MSTORE PUSH32 0x7479000000000000000000000000000000000000000000000000000000000000 PUSH1 0x20 DUP3 ADD MSTORE POP JUMP JUMPDEST PUSH1 0x0 PUSH2 0x80D1 PUSH1 0x22 DUP4 PUSH2 0x5DE0 JUMP JUMPDEST SWAP2 POP PUSH2 0x80DC DUP3 PUSH2 0x8075 JUMP JUMPDEST PUSH1 0x40 DUP3 ADD SWAP1 POP SWAP2 SWAP1 POP JUMP JUMPDEST PUSH1 0x0 PUSH1 0x20 DUP3 ADD SWAP1 POP DUP2 DUP2 SUB PUSH1 0x0 DUP4 ADD MSTORE PUSH2 0x8100 DUP2 PUSH2 0x80C4 JUMP JUMPDEST SWAP1 POP SWAP2 SWAP1 POP JUMP JUMPDEST PUSH32 0x76616C696461746F72454F4120616C7265616479206578697374730000000000 PUSH1 0x0 DUP3 ADD MSTORE POP JUMP JUMPDEST PUSH1 0x0 PUSH2 0x813D PUSH1 0x1B DUP4 PUSH2 0x5DE0 JUMP JUMPDEST SWAP2 POP PUSH2 0x8148 DUP3 PUSH2 0x8107 JUMP JUMPDEST PUSH1 0x20 DUP3 ADD SWAP1 POP SWAP2 SWAP1 POP JUMP JUMPDEST PUSH1 0x0 PUSH1 0x20 DUP3 ADD SWAP1 POP DUP2 DUP2 SUB PUSH1 0x0 DUP4 ADD MSTORE PUSH2 0x816C DUP2 PUSH2 0x8130 JUMP JUMPDEST SWAP1 POP SWAP2 SWAP1 POP JUMP JUMPDEST PUSH1 0x0 PUSH1 0x60 DUP3 ADD SWAP1 POP PUSH2 0x8188 PUSH1 0x0 DUP4 ADD DUP7 PUSH2 0x5FB8 JUMP JUMPDEST PUSH2 0x8195 PUSH1 0x20 DUP4 ADD DUP6 PUSH2 0x5FB8 JUMP JUMPDEST DUP2 DUP2 SUB PUSH1 0x40 DUP4 ADD MSTORE PUSH2 0x81A7 DUP2 DUP5 PUSH2 0x5E35 JUMP JUMPDEST SWAP1 POP SWAP5 SWAP4 POP POP POP POP JUMP JUMPDEST PUSH32 0x73746172747570206E616D652073686F756C64206E6F7420626520656D707479 PUSH1 0x0 DUP3 ADD MSTORE POP JUMP JUMPDEST PUSH1 0x0 PUSH2 0x81E7 PUSH1 0x20 DUP4 PUSH2 0x5DE0 JUMP JUMPDEST SWAP2 POP PUSH2 0x81F2 DUP3 PUSH2 0x81B1 JUMP JUMPDEST PUSH1 0x20 DUP3 ADD SWAP1 POP SWAP2 SWAP1 POP JUMP JUMPDEST PUSH1 0x0 PUSH1 0x20 DUP3 ADD SWAP1 POP DUP2 DUP2 SUB PUSH1 0x0 DUP4 ADD MSTORE PUSH2 0x8216 DUP2 PUSH2 0x81DA JUMP JUMPDEST SWAP1 POP SWAP2 SWAP1 POP JUMP JUMPDEST PUSH32 0x7374617274757020746F6B656E206F666665722073686F756C64206E6F742062 PUSH1 0x0 DUP3 ADD MSTORE PUSH32 0x65207A65726F0000000000000000000000000000000000000000000000000000 PUSH1 0x20 DUP3 ADD MSTORE POP JUMP JUMPDEST PUSH1 0x0 PUSH2 0x8279 PUSH1 0x26 DUP4 PUSH2 0x5DE0 JUMP JUMPDEST SWAP2 POP PUSH2 0x8284 DUP3 PUSH2 0x821D JUMP JUMPDEST PUSH1 0x40 DUP3 ADD SWAP1 POP SWAP2 SWAP1 POP JUMP JUMPDEST PUSH1 0x0 PUSH1 0x20 DUP3 ADD SWAP1 POP DUP2 DUP2 SUB PUSH1 0x0 DUP4 ADD MSTORE PUSH2 0x82A8 DUP2 PUSH2 0x826C JUMP JUMPDEST SWAP1 POP SWAP2 SWAP1 POP JUMP JUMPDEST PUSH32 0x7374617274757020736861726564207374616B652073686F756C64206E6F7420 PUSH1 0x0 DUP3 ADD MSTORE PUSH32 0x6265207A65726F00000000000000000000000000000000000000000000000000 PUSH1 0x20 DUP3 ADD MSTORE POP JUMP JUMPDEST PUSH1 0x0 PUSH2 0x830B PUSH1 0x27 DUP4 PUSH2 0x5DE0 JUMP JUMPDEST SWAP2 POP PUSH2 0x8316 DUP3 PUSH2 0x82AF JUMP JUMPDEST PUSH1 0x40 DUP3 ADD SWAP1 POP SWAP2 SWAP1 POP JUMP JUMPDEST PUSH1 0x0 PUSH1 0x20 DUP3 ADD SWAP1 POP DUP2 DUP2 SUB PUSH1 0x0 DUP4 ADD MSTORE PUSH2 0x833A DUP2 PUSH2 0x82FE JUMP JUMPDEST SWAP1 POP SWAP2 SWAP1 POP JUMP JUMPDEST PUSH32 0x7374617274757020454F412073686F756C64206E6F74206265207A65726F0000 PUSH1 0x0 DUP3 ADD MSTORE POP JUMP JUMPDEST PUSH1 0x0 PUSH2 0x8377 PUSH1 0x1E DUP4 PUSH2 0x5DE0 JUMP JUMPDEST SWAP2 POP PUSH2 0x8382 DUP3 PUSH2 0x8341 JUMP JUMPDEST PUSH1 0x20 DUP3 ADD SWAP1 POP SWAP2 SWAP1 POP JUMP JUMPDEST PUSH1 0x0 PUSH1 0x20 DUP3 ADD SWAP1 POP DUP2 DUP2 SUB PUSH1 0x0 DUP4 ADD MSTORE PUSH2 0x83A6 DUP2 PUSH2 0x836A JUMP JUMPDEST SWAP1 POP SWAP2 SWAP1 POP JUMP JUMPDEST PUSH32 0x73746172747570454F4120616C72656164792065786973747300000000000000 PUSH1 0x0 DUP3 ADD MSTORE POP JUMP JUMPDEST PUSH1 0x0 PUSH2 0x83E3 PUSH1 0x19 DUP4 PUSH2 0x5DE0 JUMP JUMPDEST SWAP2 POP PUSH2 0x83EE DUP3 PUSH2 0x83AD JUMP JUMPDEST PUSH1 0x20 DUP3 ADD SWAP1 POP SWAP2 SWAP1 POP JUMP JUMPDEST PUSH1 0x0 PUSH1 0x20 DUP3 ADD SWAP1 POP DUP2 DUP2 SUB PUSH1 0x0 DUP4 ADD MSTORE PUSH2 0x8412 DUP2 PUSH2 0x83D6 JUMP JUMPDEST SWAP1 POP SWAP2 SWAP1 POP JUMP JUMPDEST PUSH2 0x8422 DUP2 PUSH2 0x77DE JUMP JUMPDEST DUP3 MSTORE POP POP JUMP JUMPDEST PUSH1 0x0 PUSH1 0xA0 DUP3 ADD SWAP1 POP PUSH2 0x843D PUSH1 0x0 DUP4 ADD DUP9 PUSH2 0x5DAB JUMP JUMPDEST PUSH2 0x844A PUSH1 0x20 DUP4 ADD DUP8 PUSH2 0x5FB8 JUMP JUMPDEST PUSH2 0x8457 PUSH1 0x40 DUP4 ADD DUP7 PUSH2 0x5FB8 JUMP JUMPDEST DUP2 DUP2 SUB PUSH1 0x60 DUP4 ADD MSTORE PUSH2 0x8469 DUP2 DUP6 PUSH2 0x5E35 JUMP JUMPDEST SWAP1 POP PUSH2 0x8478 PUSH1 0x80 DUP4 ADD DUP5 PUSH2 0x8419 JUMP JUMPDEST SWAP7 SWAP6 POP POP POP POP POP POP JUMP JUMPDEST PUSH32 0x76616C696461746F7220454F412073686F756C64206E6F74206265207A65726F PUSH1 0x0 DUP3 ADD MSTORE POP JUMP JUMPDEST PUSH1 0x0 PUSH2 0x84B8 PUSH1 0x20 DUP4 PUSH2 0x5DE0 JUMP JUMPDEST SWAP2 POP PUSH2 0x84C3 DUP3 PUSH2 0x8482 JUMP JUMPDEST PUSH1 0x20 DUP3 ADD SWAP1 POP SWAP2 SWAP1 POP JUMP JUMPDEST PUSH1 0x0 PUSH1 0x20 DUP3 ADD SWAP1 POP DUP2 DUP2 SUB PUSH1 0x0 DUP4 ADD MSTORE PUSH2 0x84E7 DUP2 PUSH2 0x84AB JUMP JUMPDEST SWAP1 POP SWAP2 SWAP1 POP JUMP JUMPDEST PUSH32 0x76616C696461746F72454F4120646F65736E2774206578697374730000000000 PUSH1 0x0 DUP3 ADD MSTORE POP JUMP JUMPDEST PUSH1 0x0 PUSH2 0x8524 PUSH1 0x1B DUP4 PUSH2 0x5DE0 JUMP JUMPDEST SWAP2 POP PUSH2 0x852F DUP3 PUSH2 0x84EE JUMP JUMPDEST PUSH1 0x20 DUP3 ADD SWAP1 POP SWAP2 SWAP1 POP JUMP JUMPDEST PUSH1 0x0 PUSH1 0x20 DUP3 ADD SWAP1 POP DUP2 DUP2 SUB PUSH1 0x0 DUP4 ADD MSTORE PUSH2 0x8553 DUP2 PUSH2 0x8517 JUMP JUMPDEST SWAP1 POP SWAP2 SWAP1 POP JUMP JUMPDEST PUSH32 0x467265657A653A206163636F756E742073686F756C64206E6F74206265207A65 PUSH1 0x0 DUP3 ADD MSTORE PUSH32 0x726F000000000000000000000000000000000000000000000000000000000000 PUSH1 0x20 DUP3 ADD MSTORE POP JUMP JUMPDEST PUSH1 0x0 PUSH2 0x85B6 PUSH1 0x22 DUP4 PUSH2 0x5DE0 JUMP JUMPDEST SWAP2 POP PUSH2 0x85C1 DUP3 PUSH2 0x855A JUMP JUMPDEST PUSH1 0x40 DUP3 ADD SWAP1 POP SWAP2 SWAP1 POP JUMP JUMPDEST PUSH1 0x0 PUSH1 0x20 DUP3 ADD SWAP1 POP DUP2 DUP2 SUB PUSH1 0x0 DUP4 ADD MSTORE PUSH2 0x85E5 DUP2 PUSH2 0x85A9 JUMP JUMPDEST SWAP1 POP SWAP2 SWAP1 POP JUMP JUMPDEST PUSH1 0x0 PUSH1 0x40 DUP3 ADD SWAP1 POP PUSH2 0x8601 PUSH1 0x0 DUP4 ADD DUP6 PUSH2 0x5FB8 JUMP JUMPDEST PUSH2 0x860E PUSH1 0x20 DUP4 ADD DUP5 PUSH2 0x5FB8 JUMP JUMPDEST SWAP4 SWAP3 POP POP POP JUMP JUMPDEST PUSH32 0x556E667265657A653A206163636F756E742073686F756C64206E6F7420626520 PUSH1 0x0 DUP3 ADD MSTORE PUSH32 0x7A65726F00000000000000000000000000000000000000000000000000000000 PUSH1 0x20 DUP3 ADD MSTORE POP JUMP JUMPDEST PUSH1 0x0 PUSH2 0x8671 PUSH1 0x24 DUP4 PUSH2 0x5DE0 JUMP JUMPDEST SWAP2 POP PUSH2 0x867C DUP3 PUSH2 0x8615 JUMP JUMPDEST PUSH1 0x40 DUP3 ADD SWAP1 POP SWAP2 SWAP1 POP JUMP JUMPDEST PUSH1 0x0 PUSH1 0x20 DUP3 ADD SWAP1 POP DUP2 DUP2 SUB PUSH1 0x0 DUP4 ADD MSTORE PUSH2 0x86A0 DUP2 PUSH2 0x8664 JUMP JUMPDEST SWAP1 POP SWAP2 SWAP1 POP JUMP JUMPDEST PUSH32 0x416363657373436F6E74726F6C3A206163636F756E7420000000000000000000 PUSH1 0x0 DUP3 ADD MSTORE POP JUMP JUMPDEST PUSH1 0x0 PUSH2 0x86DD PUSH1 0x17 DUP4 PUSH2 0x7489 JUMP JUMPDEST SWAP2 POP PUSH2 0x86E8 DUP3 PUSH2 0x86A7 JUMP JUMPDEST PUSH1 0x17 DUP3 ADD SWAP1 POP SWAP2 SWAP1 POP JUMP JUMPDEST PUSH32 0x206973206D697373696E6720726F6C6520000000000000000000000000000000 PUSH1 0x0 DUP3 ADD MSTORE POP JUMP JUMPDEST PUSH1 0x0 PUSH2 0x8729 PUSH1 0x11 DUP4 PUSH2 0x7489 JUMP JUMPDEST SWAP2 POP PUSH2 0x8734 DUP3 PUSH2 0x86F3 JUMP JUMPDEST PUSH1 0x11 DUP3 ADD SWAP1 POP SWAP2 SWAP1 POP JUMP JUMPDEST PUSH1 0x0 PUSH2 0x874A DUP3 PUSH2 0x86D0 JUMP JUMPDEST SWAP2 POP PUSH2 0x8756 DUP3 DUP6 PUSH2 0x7494 JUMP JUMPDEST SWAP2 POP PUSH2 0x8761 DUP3 PUSH2 0x871C JUMP JUMPDEST SWAP2 POP PUSH2 0x876D DUP3 DUP5 PUSH2 0x7494 JUMP JUMPDEST SWAP2 POP DUP2 SWAP1 POP SWAP4 SWAP3 POP POP POP JUMP JUMPDEST PUSH1 0x0 PUSH1 0x60 DUP3 ADD SWAP1 POP PUSH2 0x878E PUSH1 0x0 DUP4 ADD DUP7 PUSH2 0x6413 JUMP JUMPDEST PUSH2 0x879B PUSH1 0x20 DUP4 ADD DUP6 PUSH2 0x6413 JUMP JUMPDEST PUSH2 0x87A8 PUSH1 0x40 DUP4 ADD DUP5 PUSH2 0x5DAB JUMP JUMPDEST SWAP5 SWAP4 POP POP POP POP JUMP JUMPDEST PUSH32 0x457865637574653A207472616E73666572206661696C65732120000000000000 PUSH1 0x0 DUP3 ADD MSTORE POP JUMP JUMPDEST PUSH1 0x0 PUSH2 0x87E6 PUSH1 0x1A DUP4 PUSH2 0x5DE0 JUMP JUMPDEST SWAP2 POP PUSH2 0x87F1 DUP3 PUSH2 0x87B0 JUMP JUMPDEST PUSH1 0x20 DUP3 ADD SWAP1 POP SWAP2 SWAP1 POP JUMP JUMPDEST PUSH1 0x0 PUSH1 0x20 DUP3 ADD SWAP1 POP DUP2 DUP2 SUB PUSH1 0x0 DUP4 ADD MSTORE PUSH2 0x8815 DUP2 PUSH2 0x87D9 JUMP JUMPDEST SWAP1 POP SWAP2 SWAP1 POP JUMP JUMPDEST PUSH1 0x0 PUSH2 0x8827 DUP3 PUSH2 0x5DA1 JUMP JUMPDEST SWAP2 POP PUSH32 0xFFFFFFFFFFFFFFFFFFFFFFFFFFFFFFFFFFFFFFFFFFFFFFFFFFFFFFFFFFFFFFFF DUP3 SUB PUSH2 0x8859 JUMPI PUSH2 0x8858 PUSH2 0x6928 JUMP JUMPDEST JUMPDEST PUSH1 0x1 DUP3 ADD SWAP1 POP SWAP2 SWAP1 POP JUMP JUMPDEST PUSH32 0x457865637574653A20667265657A65206163636F756E74206661696C65640000 PUSH1 0x0 DUP3 ADD MSTORE POP JUMP JUMPDEST PUSH1 0x0 PUSH2 0x889A PUSH1 0x1E DUP4 PUSH2 0x5DE0 JUMP JUMPDEST SWAP2 POP PUSH2 0x88A5 DUP3 PUSH2 0x8864 JUMP JUMPDEST PUSH1 0x20 DUP3 ADD SWAP1 POP SWAP2 SWAP1 POP JUMP JUMPDEST PUSH1 0x0 PUSH1 0x20 DUP3 ADD SWAP1 POP DUP2 DUP2 SUB PUSH1 0x0 DUP4 ADD MSTORE PUSH2 0x88C9 DUP2 PUSH2 0x888D JUMP JUMPDEST SWAP1 POP SWAP2 SWAP1 POP JUMP JUMPDEST PUSH32 0x457865637574653A20556E667265657A65206163636F756E74206661696C6564 PUSH1 0x0 DUP3 ADD MSTORE POP JUMP JUMPDEST PUSH1 0x0 PUSH2 0x8906 PUSH1 0x20 DUP4 PUSH2 0x5DE0 JUMP JUMPDEST SWAP2 POP PUSH2 0x8911 DUP3 PUSH2 0x88D0 JUMP JUMPDEST PUSH1 0x20 DUP3 ADD SWAP1 POP SWAP2 SWAP1 POP JUMP JUMPDEST PUSH1 0x0 PUSH1 0x20 DUP3 ADD SWAP1 POP DUP2 DUP2 SUB PUSH1 0x0 DUP4 ADD MSTORE PUSH2 0x8935 DUP2 PUSH2 0x88F9 JUMP JUMPDEST SWAP1 POP SWAP2 SWAP1 POP JUMP JUMPDEST PUSH32 0x455243313936373A206E657720696D706C656D656E746174696F6E206973206E PUSH1 0x0 DUP3 ADD MSTORE PUSH32 0x6F74206120636F6E747261637400000000000000000000000000000000000000 PUSH1 0x20 DUP3 ADD MSTORE POP JUMP JUMPDEST PUSH1 0x0 PUSH2 0x8998 PUSH1 0x2D DUP4 PUSH2 0x5DE0 JUMP JUMPDEST SWAP2 POP PUSH2 0x89A3 DUP3 PUSH2 0x893C JUMP JUMPDEST PUSH1 0x40 DUP3 ADD SWAP1 POP SWAP2 SWAP1 POP JUMP JUMPDEST PUSH1 0x0 PUSH1 0x20 DUP3 ADD SWAP1 POP DUP2 DUP2 SUB PUSH1 0x0 DUP4 ADD MSTORE PUSH2 0x89C7 DUP2 PUSH2 0x898B JUMP JUMPDEST SWAP1 POP SWAP2 SWAP1 POP JUMP JUMPDEST PUSH1 0x0 DUP2 SWAP1 POP DUP2 PUSH1 0x0 MSTORE PUSH1 0x20 PUSH1 0x0 KECCAK256 SWAP1 POP SWAP2 SWAP1 POP JUMP JUMPDEST PUSH1 0x0 DUP2 SLOAD PUSH2 0x89F0 DUP2 PUSH2 0x6865 JUMP JUMPDEST PUSH2 0x89FA DUP2 DUP7 PUSH2 0x7489 JUMP JUMPDEST SWAP5 POP PUSH1 0x1 DUP3 AND PUSH1 0x0 DUP2 EQ PUSH2 0x8A15 JUMPI PUSH1 0x1 DUP2 EQ PUSH2 0x8A26 JUMPI PUSH2 0x8A59 JUMP JUMPDEST PUSH1 0xFF NOT DUP4 AND DUP7 MSTORE DUP2 DUP7 ADD SWAP4 POP PUSH2 0x8A59 JUMP JUMPDEST PUSH2 0x8A2F DUP6 PUSH2 0x89CE JUMP JUMPDEST PUSH1 0x0 JUMPDEST DUP4 DUP2 LT ISZERO PUSH2 0x8A51 JUMPI DUP2 SLOAD DUP2 DUP10 ADD MSTORE PUSH1 0x1 DUP3 ADD SWAP2 POP PUSH1 0x20 DUP2 ADD SWAP1 POP PUSH2 0x8A32 JUMP JUMPDEST DUP4 DUP9 ADD SWAP6 POP POP POP JUMPDEST POP POP POP SWAP3 SWAP2 POP POP JUMP JUMPDEST PUSH1 0x0 PUSH2 0x8A6E DUP3 DUP5 PUSH2 0x89E3 JUMP JUMPDEST SWAP2 POP DUP2 SWAP1 POP SWAP3 SWAP2 POP POP JUMP JUMPDEST PUSH1 0x0 PUSH1 0xA0 DUP3 ADD SWAP1 POP PUSH2 0x8A8E PUSH1 0x0 DUP4 ADD DUP9 PUSH2 0x5FB8 JUMP JUMPDEST PUSH2 0x8A9B PUSH1 0x20 DUP4 ADD DUP8 PUSH2 0x5FB8 JUMP JUMPDEST PUSH2 0x8AA8 PUSH1 0x40 DUP4 ADD DUP7 PUSH2 0x5FB8 JUMP JUMPDEST PUSH2 0x8AB5 PUSH1 0x60 DUP4 ADD DUP6 PUSH2 0x5DAB JUMP JUMPDEST PUSH2 0x8AC2 PUSH1 0x80 DUP4 ADD DUP5 PUSH2 0x6413 JUMP JUMPDEST SWAP7 SWAP6 POP POP POP POP POP POP JUMP JUMPDEST PUSH32 0x1901000000000000000000000000000000000000000000000000000000000000 PUSH1 0x0 DUP3 ADD MSTORE POP JUMP JUMPDEST PUSH1 0x0 PUSH2 0x8B02 PUSH1 0x2 DUP4 PUSH2 0x7489 JUMP JUMPDEST SWAP2 POP PUSH2 0x8B0D DUP3 PUSH2 0x8ACC JUMP JUMPDEST PUSH1 0x2 DUP3 ADD SWAP1 POP SWAP2 SWAP1 POP JUMP JUMPDEST PUSH1 0x0 DUP2 SWAP1 POP SWAP2 SWAP1 POP JUMP JUMPDEST PUSH2 0x8B33 PUSH2 0x8B2E DUP3 PUSH2 0x5F55 JUMP JUMPDEST PUSH2 0x8B18 JUMP JUMPDEST DUP3 MSTORE POP POP JUMP JUMPDEST PUSH1 0x0 PUSH2 0x8B44 DUP3 PUSH2 0x8AF5 JUMP JUMPDEST SWAP2 POP PUSH2 0x8B50 DUP3 DUP6 PUSH2 0x8B22 JUMP JUMPDEST PUSH1 0x20 DUP3 ADD SWAP2 POP PUSH2 0x8B60 DUP3 DUP5 PUSH2 0x8B22 JUMP JUMPDEST PUSH1 0x20 DUP3 ADD SWAP2 POP DUP2 SWAP1 POP SWAP4 SWAP3 POP POP POP JUMP JUMPDEST PUSH1 0x0 PUSH1 0x80 DUP3 ADD SWAP1 POP PUSH2 0x8B85 PUSH1 0x0 DUP4 ADD DUP8 PUSH2 0x5FB8 JUMP JUMPDEST PUSH2 0x8B92 PUSH1 0x20 DUP4 ADD DUP7 PUSH2 0x74DC JUMP JUMPDEST PUSH2 0x8B9F PUSH1 0x40 DUP4 ADD DUP6 PUSH2 0x5FB8 JUMP JUMPDEST PUSH2 0x8BAC PUSH1 0x60 DUP4 ADD DUP5 PUSH2 0x5FB8 JUMP JUMPDEST SWAP6 SWAP5 POP POP POP POP POP JUMP JUMPDEST PUSH1 0x0 PUSH2 0x8BC0 DUP3 PUSH2 0x5DA1 JUMP JUMPDEST SWAP2 POP PUSH2 0x8BCB DUP4 PUSH2 0x5DA1 JUMP JUMPDEST SWAP3 POP DUP3 PUSH32 0xFFFFFFFFFFFFFFFFFFFFFFFFFFFFFFFFFFFFFFFFFFFFFFFFFFFFFFFFFFFFFFFF SUB DUP3 GT ISZERO PUSH2 0x8C00 JUMPI PUSH2 0x8BFF PUSH2 0x6928 JUMP JUMPDEST JUMPDEST DUP3 DUP3 ADD SWAP1 POP SWAP3 SWAP2 POP POP JUMP JUMPDEST PUSH32 0x4E487B7100000000000000000000000000000000000000000000000000000000 PUSH1 0x0 MSTORE PUSH1 0x32 PUSH1 0x4 MSTORE PUSH1 0x24 PUSH1 0x0 REVERT JUMPDEST PUSH1 0x0 PUSH2 0x8C45 DUP3 PUSH2 0x5DA1 JUMP JUMPDEST SWAP2 POP PUSH1 0x0 DUP3 SUB PUSH2 0x8C58 JUMPI PUSH2 0x8C57 PUSH2 0x6928 JUMP JUMPDEST JUMPDEST PUSH1 0x1 DUP3 SUB SWAP1 POP SWAP2 SWAP1 POP JUMP JUMPDEST PUSH32 0x537472696E67733A20686578206C656E67746820696E73756666696369656E74 PUSH1 0x0 DUP3 ADD MSTORE POP JUMP JUMPDEST PUSH1 0x0 PUSH2 0x8C99 PUSH1 0x20 DUP4 PUSH2 0x5DE0 JUMP JUMPDEST SWAP2 POP PUSH2 0x8CA4 DUP3 PUSH2 0x8C63 JUMP JUMPDEST PUSH1 0x20 DUP3 ADD SWAP1 POP SWAP2 SWAP1 POP JUMP JUMPDEST PUSH1 0x0 PUSH1 0x20 DUP3 ADD SWAP1 POP DUP2 DUP2 SUB PUSH1 0x0 DUP4 ADD MSTORE PUSH2 0x8CC8 DUP2 PUSH2 0x8C8C JUMP JUMPDEST SWAP1 POP SWAP2 SWAP1 POP JUMP JUMPDEST PUSH32 0x416464726573733A2064656C65676174652063616C6C20746F206E6F6E2D636F PUSH1 0x0 DUP3 ADD MSTORE PUSH32 0x6E74726163740000000000000000000000000000000000000000000000000000 PUSH1 0x20 DUP3 ADD MSTORE POP JUMP JUMPDEST PUSH1 0x0 PUSH2 0x8D2B PUSH1 0x26 DUP4 PUSH2 0x5DE0 JUMP JUMPDEST SWAP2 POP PUSH2 0x8D36 DUP3 PUSH2 0x8CCF JUMP JUMPDEST PUSH1 0x40 DUP3 ADD SWAP1 POP SWAP2 SWAP1 POP JUMP JUMPDEST PUSH1 0x0 PUSH1 0x20 DUP3 ADD SWAP1 POP DUP2 DUP2 SUB PUSH1 0x0 DUP4 ADD MSTORE PUSH2 0x8D5A DUP2 PUSH2 0x8D1E JUMP JUMPDEST SWAP1 POP SWAP2 SWAP1 POP JUMP INVALID COINBASE PUSH5 0x6472657373 GASPRICE KECCAK256 PUSH13 0x6F772D6C6576656C2064656C65 PUSH8 0x6174652063616C6C KECCAK256 PUSH7 0x61696C6564A264 PUSH10 0x70667358221220AE229B SSTORE 0xF7 0xCD GT 0x5C 0xA7 EQ 0xD0 0xF6 BYTE 0xE4 SLT 0xED INVALID SIGNEXTEND LOG2 0xF 0xE1 SWAP15 0xB6 0x26 SWAP16 0xCF 0xFC 0xAC 0xE3 0x4D 0xBB 0xB6 PUSH5 0x736F6C6343 STOP ADDMOD 0xE STOP CALLER "
    },
    "gasEstimates": {
      "creation": {
        "codeDepositCost": "7257200",
        "executionCost": "infinite",
        "totalCost": "infinite"
      },
      "external": {
        "ADMIN_ROLE()": "375",
        "CONSENSUS_ROLE()": "439",
        "DEFAULT_ADMIN_ROLE()": "380",
        "FREEZE_ACCOUNT_SIGNATURE()": "446",
        "TRANSFER_SIGNATURE()": "468",
        "UNFREEZE_ACCOUNT_SIGNATURE()": "402",
        "cancel(bytes32,string)": "infinite",
        "castVote(string,bytes32,uint8)": "infinite",
        "castVoteAdmin(bytes32)": "infinite",
        "commissionWallet()": "2648",
        "disableValidator(address)": "infinite",
        "execute(bytes32)": "infinite",
        "getRoleAdmin(bytes32)": "infinite",
        "grantRole(bytes32,address)": "infinite",
        "hasRole(bytes32,address)": "3252",
        "hasVoted(bytes32,address)": "infinite",
        "hashProposal(bytes32,bytes32,address,uint8,uint8,bytes)": "infinite",
        "initialize(address,address,address,string,string)": "infinite",
        "innTokenAddress()": "2602",
        "isAdminFirstVote()": "2633",
        "isMigrationEnabled()": "2655",
        "isStartup(address)": "5343",
        "isValidator(address)": "5386",
        "name()": "infinite",
        "propose((bytes32,uint8,uint8,string,bytes),bytes)": "infinite",
        "proxiableUUID()": "infinite",
        "renounceRole(bytes32,address)": "infinite",
        "reservedWallet()": "2603",
        "revokeRole(bytes32,address)": "infinite",
        "setMigration(bool)": "infinite",
        "setVotingDelay(uint256)": "infinite",
        "setVotingPeriod(uint256)": "infinite",
        "startupCount()": "2589",
        "state(bytes32)": "infinite",
        "supportsInterface(bytes4)": "774",
        "upgradeTo(address)": "infinite",
        "upgradeToAndCall(address,bytes)": "infinite",
        "validatorCount()": "2584",
        "version()": "infinite",
        "votingDelay()": "2519",
        "votingPeriod()": "2498"
      },
      "internal": {
        "_authorizeUpgrade(address)": "infinite",
        "_castVote(bytes32,address,enum IGovernorINN.VoteType,string memory)": "infinite",
        "_domainSeparatorV4()": "infinite",
        "_execute(struct IGovernorINNImpl.ProposalCore storage pointer)": "infinite",
        "_freezeAccount(address)": "infinite",
        "_fullQuorum(bytes32)": "infinite",
        "_generateProposalCreationEvent(struct IGovernorINNImpl.ProposalCore storage pointer)": "infinite",
        "_getMessageHash(bytes32,bytes32,address,enum IGovernorINN.ProposalType,enum IGovernorINN.ActionType,bytes memory)": "infinite",
        "_hashTypedDataV4(bytes32)": "infinite",
        "_quorumReached(bytes32)": "infinite",
        "_sendRewards(bytes32,uint256)": "infinite",
        "_transferCommission(address,uint256)": "infinite",
        "_transferToken(address,uint256)": "infinite",
        "_unfreezeAccount(address)": "infinite"
      }
    },
    "methodIdentifiers": {
      "ADMIN_ROLE()": "75b238fc",
      "CONSENSUS_ROLE()": "fa2dabad",
      "DEFAULT_ADMIN_ROLE()": "a217fddf",
      "FREEZE_ACCOUNT_SIGNATURE()": "afdf6710",
      "TRANSFER_SIGNATURE()": "e0310e52",
      "UNFREEZE_ACCOUNT_SIGNATURE()": "c0e6d5d6",
      "cancel(bytes32,string)": "b7d6fe24",
      "castVote(string,bytes32,uint8)": "a5d79624",
      "castVoteAdmin(bytes32)": "30d9b773",
      "commissionWallet()": "97c0262a",
      "disableValidator(address)": "1fe97684",
      "execute(bytes32)": "e751f271",
      "getRoleAdmin(bytes32)": "248a9ca3",
      "grantRole(bytes32,address)": "2f2ff15d",
      "hasRole(bytes32,address)": "91d14854",
      "hasVoted(bytes32,address)": "aadc3b72",
      "hashProposal(bytes32,bytes32,address,uint8,uint8,bytes)": "be5967ea",
      "initialize(address,address,address,string,string)": "83b43589",
      "innTokenAddress()": "f8c662ff",
      "isAdminFirstVote()": "41863ed6",
      "isMigrationEnabled()": "33f3533b",
      "isStartup(address)": "5ae766f3",
      "isValidator(address)": "facd743b",
      "name()": "06fdde03",
      "propose((bytes32,uint8,uint8,string,bytes),bytes)": "ff666653",
      "proxiableUUID()": "52d1902d",
      "renounceRole(bytes32,address)": "36568abe",
      "reservedWallet()": "c22ab4e0",
      "revokeRole(bytes32,address)": "d547741f",
      "setMigration(bool)": "7f1e250c",
      "setVotingDelay(uint256)": "70b0f660",
      "setVotingPeriod(uint256)": "ea0217cf",
      "startupCount()": "25ce7586",
      "state(bytes32)": "61d585da",
      "supportsInterface(bytes4)": "01ffc9a7",
      "upgradeTo(address)": "3659cfe6",
      "upgradeToAndCall(address,bytes)": "4f1ef286",
      "validatorCount()": "0f43a677",
      "version()": "54fd4d50",
      "votingDelay()": "3932abb1",
      "votingPeriod()": "02a251a3"
    }
  },
  "storageLayout": {
    "storage": [
      {
        "astId": 808,
        "contract": "src/contracts/IGovernorINNImpl.sol:IGovernorINNImpl",
        "label": "_initialized",
        "offset": 0,
        "slot": "0",
        "type": "t_uint8"
      },
      {
        "astId": 811,
        "contract": "src/contracts/IGovernorINNImpl.sol:IGovernorINNImpl",
        "label": "_initializing",
        "offset": 1,
        "slot": "0",
        "type": "t_bool"
      },
      {
        "astId": 790,
        "contract": "src/contracts/IGovernorINNImpl.sol:IGovernorINNImpl",
        "label": "__gap",
        "offset": 0,
        "slot": "1",
        "type": "t_array(t_uint256)50_storage"
      },
      {
        "astId": 1078,
        "contract": "src/contracts/IGovernorINNImpl.sol:IGovernorINNImpl",
        "label": "__gap",
        "offset": 0,
        "slot": "51",
        "type": "t_array(t_uint256)50_storage"
      },
      {
        "astId": 1363,
        "contract": "src/contracts/IGovernorINNImpl.sol:IGovernorINNImpl",
        "label": "__gap",
        "offset": 0,
        "slot": "101",
        "type": "t_array(t_uint256)50_storage"
      },
      {
        "astId": 2441,
        "contract": "src/contracts/IGovernorINNImpl.sol:IGovernorINNImpl",
        "label": "__gap",
        "offset": 0,
        "slot": "151",
        "type": "t_array(t_uint256)50_storage"
      },
      {
        "astId": 39,
        "contract": "src/contracts/IGovernorINNImpl.sol:IGovernorINNImpl",
        "label": "_roles",
        "offset": 0,
        "slot": "201",
        "type": "t_mapping(t_bytes32,t_struct(RoleData)34_storage)"
      },
      {
        "astId": 338,
        "contract": "src/contracts/IGovernorINNImpl.sol:IGovernorINNImpl",
        "label": "__gap",
        "offset": 0,
        "slot": "202",
        "type": "t_array(t_uint256)49_storage"
      },
      {
        "astId": 13653,
        "contract": "src/contracts/IGovernorINNImpl.sol:IGovernorINNImpl",
        "label": "_registry",
        "offset": 0,
        "slot": "251",
        "type": "t_mapping(t_address,t_struct(EntityInfo)13604_storage)"
      },
      {
        "astId": 13658,
        "contract": "src/contracts/IGovernorINNImpl.sol:IGovernorINNImpl",
        "label": "_proposalVotes",
        "offset": 0,
        "slot": "252",
        "type": "t_mapping(t_bytes32,t_struct(ProposalVote)13592_storage)"
      },
      {
        "astId": 13663,
        "contract": "src/contracts/IGovernorINNImpl.sol:IGovernorINNImpl",
        "label": "_proposals",
        "offset": 0,
        "slot": "253",
        "type": "t_mapping(t_bytes32,t_struct(ProposalCore)13582_storage)"
      },
      {
        "astId": 13665,
        "contract": "src/contracts/IGovernorINNImpl.sol:IGovernorINNImpl",
        "label": "votingDelay",
        "offset": 0,
        "slot": "254",
        "type": "t_uint256"
      },
      {
        "astId": 13667,
        "contract": "src/contracts/IGovernorINNImpl.sol:IGovernorINNImpl",
        "label": "votingPeriod",
        "offset": 0,
        "slot": "255",
        "type": "t_uint256"
      },
      {
        "astId": 13669,
        "contract": "src/contracts/IGovernorINNImpl.sol:IGovernorINNImpl",
        "label": "reservedWallet",
        "offset": 0,
        "slot": "256",
        "type": "t_address"
      },
      {
        "astId": 13671,
        "contract": "src/contracts/IGovernorINNImpl.sol:IGovernorINNImpl",
        "label": "commissionWallet",
        "offset": 0,
        "slot": "257",
        "type": "t_address"
      },
      {
        "astId": 13673,
        "contract": "src/contracts/IGovernorINNImpl.sol:IGovernorINNImpl",
        "label": "innTokenAddress",
        "offset": 0,
        "slot": "258",
        "type": "t_address"
      },
      {
        "astId": 13675,
        "contract": "src/contracts/IGovernorINNImpl.sol:IGovernorINNImpl",
        "label": "_domainName",
        "offset": 0,
        "slot": "259",
        "type": "t_string_storage"
      },
      {
        "astId": 13677,
        "contract": "src/contracts/IGovernorINNImpl.sol:IGovernorINNImpl",
        "label": "_domainVersion",
        "offset": 0,
        "slot": "260",
        "type": "t_string_storage"
      },
      {
        "astId": 13679,
        "contract": "src/contracts/IGovernorINNImpl.sol:IGovernorINNImpl",
        "label": "validatorCount",
        "offset": 0,
        "slot": "261",
        "type": "t_uint32"
      },
      {
        "astId": 13681,
        "contract": "src/contracts/IGovernorINNImpl.sol:IGovernorINNImpl",
        "label": "startupCount",
        "offset": 4,
        "slot": "261",
        "type": "t_uint32"
      },
      {
        "astId": 13683,
        "contract": "src/contracts/IGovernorINNImpl.sol:IGovernorINNImpl",
        "label": "isMigrationEnabled",
        "offset": 8,
        "slot": "261",
        "type": "t_bool"
      },
      {
        "astId": 13685,
        "contract": "src/contracts/IGovernorINNImpl.sol:IGovernorINNImpl",
        "label": "isAdminFirstVote",
        "offset": 9,
        "slot": "261",
        "type": "t_bool"
      }
    ],
    "types": {
      "t_address": {
        "encoding": "inplace",
        "label": "address",
        "numberOfBytes": "20"
      },
      "t_array(t_bytes32)dyn_storage": {
        "base": "t_bytes32",
        "encoding": "dynamic_array",
        "label": "bytes32[]",
        "numberOfBytes": "32"
      },
      "t_array(t_uint256)49_storage": {
        "base": "t_uint256",
        "encoding": "inplace",
        "label": "uint256[49]",
        "numberOfBytes": "1568"
      },
      "t_array(t_uint256)50_storage": {
        "base": "t_uint256",
        "encoding": "inplace",
        "label": "uint256[50]",
        "numberOfBytes": "1600"
      },
      "t_bool": {
        "encoding": "inplace",
        "label": "bool",
        "numberOfBytes": "1"
      },
      "t_bytes32": {
        "encoding": "inplace",
        "label": "bytes32",
        "numberOfBytes": "32"
      },
      "t_bytes_storage": {
        "encoding": "bytes",
        "label": "bytes",
        "numberOfBytes": "32"
      },
      "t_enum(ActionType)13252": {
        "encoding": "inplace",
        "label": "enum IGovernorINN.ActionType",
        "numberOfBytes": "1"
      },
      "t_enum(EntityKind)13596": {
        "encoding": "inplace",
        "label": "enum IGovernorINNImpl.EntityKind",
        "numberOfBytes": "1"
      },
      "t_enum(ProposalType)13246": {
        "encoding": "inplace",
        "label": "enum IGovernorINN.ProposalType",
        "numberOfBytes": "1"
      },
      "t_mapping(t_address,t_bool)": {
        "encoding": "mapping",
        "key": "t_address",
        "label": "mapping(address => bool)",
        "numberOfBytes": "32",
        "value": "t_bool"
      },
      "t_mapping(t_address,t_struct(EntityInfo)13604_storage)": {
        "encoding": "mapping",
        "key": "t_address",
        "label": "mapping(address => struct IGovernorINNImpl.EntityInfo)",
        "numberOfBytes": "32",
        "value": "t_struct(EntityInfo)13604_storage"
      },
      "t_mapping(t_bytes32,t_struct(ProposalCore)13582_storage)": {
        "encoding": "mapping",
        "key": "t_bytes32",
        "label": "mapping(bytes32 => struct IGovernorINNImpl.ProposalCore)",
        "numberOfBytes": "32",
        "value": "t_struct(ProposalCore)13582_storage"
      },
      "t_mapping(t_bytes32,t_struct(ProposalVote)13592_storage)": {
        "encoding": "mapping",
        "key": "t_bytes32",
        "label": "mapping(bytes32 => struct IGovernorINNImpl.ProposalVote)",
        "numberOfBytes": "32",
        "value": "t_struct(ProposalVote)13592_storage"
      },
      "t_mapping(t_bytes32,t_struct(RoleData)34_storage)": {
        "encoding": "mapping",
        "key": "t_bytes32",
        "label": "mapping(bytes32 => struct AccessControlUpgradeable.RoleData)",
        "numberOfBytes": "32",
        "value": "t_struct(RoleData)34_storage"
      },
      "t_mapping(t_bytes32,t_uint256)": {
        "encoding": "mapping",
        "key": "t_bytes32",
        "label": "mapping(bytes32 => uint256)",
        "numberOfBytes": "32",
        "value": "t_uint256"
      },
      "t_string_storage": {
        "encoding": "bytes",
        "label": "string",
        "numberOfBytes": "32"
      },
      "t_struct(AddressSet)3495_storage": {
        "encoding": "inplace",
        "label": "struct EnumerableSetUpgradeable.AddressSet",
        "members": [
          {
            "astId": 3494,
            "contract": "src/contracts/IGovernorINNImpl.sol:IGovernorINNImpl",
            "label": "_inner",
            "offset": 0,
            "slot": "0",
            "type": "t_struct(Set)3194_storage"
          }
        ],
        "numberOfBytes": "64"
      },
      "t_struct(EntityInfo)13604_storage": {
        "encoding": "inplace",
        "label": "struct IGovernorINNImpl.EntityInfo",
        "members": [
          {
            "astId": 13598,
            "contract": "src/contracts/IGovernorINNImpl.sol:IGovernorINNImpl",
            "label": "name",
            "offset": 0,
            "slot": "0",
            "type": "t_string_storage"
          },
          {
            "astId": 13601,
            "contract": "src/contracts/IGovernorINNImpl.sol:IGovernorINNImpl",
            "label": "kind",
            "offset": 0,
            "slot": "1",
            "type": "t_enum(EntityKind)13596"
          },
          {
            "astId": 13603,
            "contract": "src/contracts/IGovernorINNImpl.sol:IGovernorINNImpl",
            "label": "isEnabled",
            "offset": 1,
            "slot": "1",
            "type": "t_bool"
          }
        ],
        "numberOfBytes": "64"
      },
      "t_struct(ProposalCore)13582_storage": {
        "encoding": "inplace",
        "label": "struct IGovernorINNImpl.ProposalCore",
        "members": [
          {
            "astId": 13557,
            "contract": "src/contracts/IGovernorINNImpl.sol:IGovernorINNImpl",
            "label": "proposalID",
            "offset": 0,
            "slot": "0",
            "type": "t_bytes32"
          },
          {
            "astId": 13559,
            "contract": "src/contracts/IGovernorINNImpl.sol:IGovernorINNImpl",
            "label": "offchainID",
            "offset": 0,
            "slot": "1",
            "type": "t_bytes32"
          },
          {
            "astId": 13561,
            "contract": "src/contracts/IGovernorINNImpl.sol:IGovernorINNImpl",
            "label": "descriptionHash",
            "offset": 0,
            "slot": "2",
            "type": "t_bytes32"
          },
          {
            "astId": 13563,
            "contract": "src/contracts/IGovernorINNImpl.sol:IGovernorINNImpl",
            "label": "proposer",
            "offset": 0,
            "slot": "3",
            "type": "t_address"
          },
          {
            "astId": 13566,
            "contract": "src/contracts/IGovernorINNImpl.sol:IGovernorINNImpl",
            "label": "votingStartAt",
            "offset": 0,
            "slot": "4",
            "type": "t_struct(Timestamp)1633_storage"
          },
          {
            "astId": 13569,
            "contract": "src/contracts/IGovernorINNImpl.sol:IGovernorINNImpl",
            "label": "votingEndAt",
            "offset": 0,
            "slot": "5",
            "type": "t_struct(Timestamp)1633_storage"
          },
          {
            "astId": 13572,
            "contract": "src/contracts/IGovernorINNImpl.sol:IGovernorINNImpl",
            "label": "proposalType",
            "offset": 0,
            "slot": "6",
            "type": "t_enum(ProposalType)13246"
          },
          {
            "astId": 13575,
            "contract": "src/contracts/IGovernorINNImpl.sol:IGovernorINNImpl",
            "label": "actionType",
            "offset": 1,
            "slot": "6",
            "type": "t_enum(ActionType)13252"
          },
          {
            "astId": 13577,
            "contract": "src/contracts/IGovernorINNImpl.sol:IGovernorINNImpl",
            "label": "isExecuted",
            "offset": 2,
            "slot": "6",
            "type": "t_bool"
          },
          {
            "astId": 13579,
            "contract": "src/contracts/IGovernorINNImpl.sol:IGovernorINNImpl",
            "label": "isCanceled",
            "offset": 3,
            "slot": "6",
            "type": "t_bool"
          },
          {
            "astId": 13581,
            "contract": "src/contracts/IGovernorINNImpl.sol:IGovernorINNImpl",
            "label": "data",
            "offset": 0,
            "slot": "7",
            "type": "t_bytes_storage"
          }
        ],
        "numberOfBytes": "256"
      },
      "t_struct(ProposalVote)13592_storage": {
        "encoding": "inplace",
        "label": "struct IGovernorINNImpl.ProposalVote",
        "members": [
          {
            "astId": 13584,
            "contract": "src/contracts/IGovernorINNImpl.sol:IGovernorINNImpl",
            "label": "againstVotes",
            "offset": 0,
            "slot": "0",
            "type": "t_uint64"
          },
          {
            "astId": 13586,
            "contract": "src/contracts/IGovernorINNImpl.sol:IGovernorINNImpl",
            "label": "forVotes",
            "offset": 8,
            "slot": "0",
            "type": "t_uint64"
          },
          {
            "astId": 13588,
            "contract": "src/contracts/IGovernorINNImpl.sol:IGovernorINNImpl",
            "label": "abstainVotes",
            "offset": 16,
            "slot": "0",
            "type": "t_uint64"
          },
          {
            "astId": 13591,
            "contract": "src/contracts/IGovernorINNImpl.sol:IGovernorINNImpl",
            "label": "hasVoted",
            "offset": 0,
            "slot": "1",
            "type": "t_struct(AddressSet)3495_storage"
          }
        ],
        "numberOfBytes": "96"
      },
      "t_struct(RoleData)34_storage": {
        "encoding": "inplace",
        "label": "struct AccessControlUpgradeable.RoleData",
        "members": [
          {
            "astId": 31,
            "contract": "src/contracts/IGovernorINNImpl.sol:IGovernorINNImpl",
            "label": "members",
            "offset": 0,
            "slot": "0",
            "type": "t_mapping(t_address,t_bool)"
          },
          {
            "astId": 33,
            "contract": "src/contracts/IGovernorINNImpl.sol:IGovernorINNImpl",
            "label": "adminRole",
            "offset": 0,
            "slot": "1",
            "type": "t_bytes32"
          }
        ],
        "numberOfBytes": "64"
      },
      "t_struct(Set)3194_storage": {
        "encoding": "inplace",
        "label": "struct EnumerableSetUpgradeable.Set",
        "members": [
          {
            "astId": 3189,
            "contract": "src/contracts/IGovernorINNImpl.sol:IGovernorINNImpl",
            "label": "_values",
            "offset": 0,
            "slot": "0",
            "type": "t_array(t_bytes32)dyn_storage"
          },
          {
            "astId": 3193,
            "contract": "src/contracts/IGovernorINNImpl.sol:IGovernorINNImpl",
            "label": "_indexes",
            "offset": 0,
            "slot": "1",
            "type": "t_mapping(t_bytes32,t_uint256)"
          }
        ],
        "numberOfBytes": "64"
      },
      "t_struct(Timestamp)1633_storage": {
        "encoding": "inplace",
        "label": "struct TimersUpgradeable.Timestamp",
        "members": [
          {
            "astId": 1632,
            "contract": "src/contracts/IGovernorINNImpl.sol:IGovernorINNImpl",
            "label": "_deadline",
            "offset": 0,
            "slot": "0",
            "type": "t_uint64"
          }
        ],
        "numberOfBytes": "32"
      },
      "t_uint256": {
        "encoding": "inplace",
        "label": "uint256",
        "numberOfBytes": "32"
      },
      "t_uint32": {
        "encoding": "inplace",
        "label": "uint32",
        "numberOfBytes": "4"
      },
      "t_uint64": {
        "encoding": "inplace",
        "label": "uint64",
        "numberOfBytes": "8"
      },
      "t_uint8": {
        "encoding": "inplace",
        "label": "uint8",
        "numberOfBytes": "1"
      }
    }
  },
  "userdoc": {
    "kind": "user",
    "methods": {},
    "version": 1
  }
}