{
  "contractName": "IGovernorINNImplV2",
  "sourceName": "src/contracts/test/IGovernorINNImplV2.sol",
  "abi": [
    {
      "inputs": [
        {
          "internalType": "uint8",
          "name": "",
          "type": "uint8"
        }
      ],
      "name": "ECDARecoverError",
      "type": "error"
    },
    {
      "anonymous": false,
      "inputs": [
        {
          "indexed": false,
          "internalType": "address",
          "name": "previousAdmin",
          "type": "address"
        },
        {
          "indexed": false,
          "internalType": "address",
          "name": "newAdmin",
          "type": "address"
        }
      ],
      "name": "AdminChanged",
      "type": "event"
    },
    {
      "anonymous": false,
      "inputs": [
        {
          "indexed": true,
          "internalType": "address",
          "name": "beacon",
          "type": "address"
        }
      ],
      "name": "BeaconUpgraded",
      "type": "event"
    },
    {
      "anonymous": false,
      "inputs": [
        {
          "indexed": true,
          "internalType": "bytes32",
          "name": "proposalId",
          "type": "bytes32"
        },
        {
          "indexed": true,
          "internalType": "address",
          "name": "proposer",
          "type": "address"
        },
        {
          "indexed": true,
          "internalType": "address",
          "name": "validatorEOA",
          "type": "address"
        },
        {
          "indexed": false,
          "internalType": "uint256",
          "name": "tokenOffer",
          "type": "uint256"
        },
        {
          "indexed": false,
          "internalType": "bytes32",
          "name": "offchainID",
          "type": "bytes32"
        },
        {
          "indexed": false,
          "internalType": "bytes32",
          "name": "description",
          "type": "bytes32"
        },
        {
          "indexed": false,
          "internalType": "string",
          "name": "startupName",
          "type": "string"
        },
        {
          "indexed": false,
          "internalType": "uint16",
          "name": "sharedStake",
          "type": "uint16"
        }
      ],
      "name": "ExitInvestmentProposalCreated",
      "type": "event"
    },
    {
      "anonymous": false,
      "inputs": [
        {
          "indexed": true,
          "internalType": "bytes32",
          "name": "proposalId",
          "type": "bytes32"
        },
        {
          "indexed": true,
          "internalType": "address",
          "name": "proposer",
          "type": "address"
        },
        {
          "indexed": true,
          "internalType": "address",
          "name": "account",
          "type": "address"
        },
        {
          "indexed": false,
          "internalType": "bytes32",
          "name": "offchainID",
          "type": "bytes32"
        },
        {
          "indexed": false,
          "internalType": "bytes32",
          "name": "description",
          "type": "bytes32"
        }
      ],
      "name": "FreezeInvestmentProposalCreated",
      "type": "event"
    },
    {
      "anonymous": false,
      "inputs": [
        {
          "indexed": false,
          "internalType": "uint8",
          "name": "version",
          "type": "uint8"
        }
      ],
      "name": "Initialized",
      "type": "event"
    },
    {
      "anonymous": false,
      "inputs": [
        {
          "indexed": true,
          "internalType": "bytes32",
          "name": "proposalID",
          "type": "bytes32"
        },
        {
          "indexed": true,
          "internalType": "address",
          "name": "proposer",
          "type": "address"
        },
        {
          "indexed": true,
          "internalType": "address",
          "name": "startupEOA",
          "type": "address"
        },
        {
          "indexed": false,
          "internalType": "uint256",
          "name": "tokenOffer",
          "type": "uint256"
        },
        {
          "indexed": false,
          "internalType": "bytes32",
          "name": "offchainID",
          "type": "bytes32"
        },
        {
          "indexed": false,
          "internalType": "bytes32",
          "name": "description",
          "type": "bytes32"
        },
        {
          "indexed": false,
          "internalType": "string",
          "name": "startupName",
          "type": "string"
        },
        {
          "indexed": false,
          "internalType": "uint16",
          "name": "sharedStake",
          "type": "uint16"
        }
      ],
      "name": "NewInvestmentProposalCreated",
      "type": "event"
    },
    {
      "anonymous": false,
      "inputs": [
        {
          "indexed": true,
          "internalType": "bytes32",
          "name": "proposalID",
          "type": "bytes32"
        },
        {
          "indexed": true,
          "internalType": "address",
          "name": "proposer",
          "type": "address"
        },
        {
          "indexed": true,
          "internalType": "address",
          "name": "validatorEOA",
          "type": "address"
        },
        {
          "indexed": false,
          "internalType": "bytes32",
          "name": "offchainID",
          "type": "bytes32"
        },
        {
          "indexed": false,
          "internalType": "bytes32",
          "name": "description",
          "type": "bytes32"
        },
        {
          "indexed": false,
          "internalType": "string",
          "name": "validatorName",
          "type": "string"
        }
      ],
      "name": "NewValidatorProposalCreated",
      "type": "event"
    },
    {
      "anonymous": false,
      "inputs": [
        {
          "indexed": true,
          "internalType": "bytes32",
          "name": "proposalId",
          "type": "bytes32"
        },
        {
          "indexed": false,
          "internalType": "string",
          "name": "reason",
          "type": "string"
        }
      ],
      "name": "ProposalCanceled",
      "type": "event"
    },
    {
      "anonymous": false,
      "inputs": [
        {
          "indexed": true,
          "internalType": "bytes32",
          "name": "proposalId",
          "type": "bytes32"
        }
      ],
      "name": "ProposalExecuted",
      "type": "event"
    },
    {
      "anonymous": false,
      "inputs": [
        {
          "indexed": true,
          "internalType": "bytes32",
          "name": "role",
          "type": "bytes32"
        },
        {
          "indexed": true,
          "internalType": "bytes32",
          "name": "previousAdminRole",
          "type": "bytes32"
        },
        {
          "indexed": true,
          "internalType": "bytes32",
          "name": "newAdminRole",
          "type": "bytes32"
        }
      ],
      "name": "RoleAdminChanged",
      "type": "event"
    },
    {
      "anonymous": false,
      "inputs": [
        {
          "indexed": true,
          "internalType": "bytes32",
          "name": "role",
          "type": "bytes32"
        },
        {
          "indexed": true,
          "internalType": "address",
          "name": "account",
          "type": "address"
        },
        {
          "indexed": true,
          "internalType": "address",
          "name": "sender",
          "type": "address"
        }
      ],
      "name": "RoleGranted",
      "type": "event"
    },
    {
      "anonymous": false,
      "inputs": [
        {
          "indexed": true,
          "internalType": "bytes32",
          "name": "role",
          "type": "bytes32"
        },
        {
          "indexed": true,
          "internalType": "address",
          "name": "account",
          "type": "address"
        },
        {
          "indexed": true,
          "internalType": "address",
          "name": "sender",
          "type": "address"
        }
      ],
      "name": "RoleRevoked",
      "type": "event"
    },
    {
      "anonymous": false,
      "inputs": [
        {
          "indexed": true,
          "internalType": "bytes32",
          "name": "proposalID",
          "type": "bytes32"
        },
        {
          "indexed": true,
          "internalType": "address",
          "name": "proposer",
          "type": "address"
        },
        {
          "indexed": true,
          "internalType": "address",
          "name": "account",
          "type": "address"
        },
        {
          "indexed": false,
          "internalType": "bytes32",
          "name": "offchainID",
          "type": "bytes32"
        },
        {
          "indexed": false,
          "internalType": "bytes32",
          "name": "description",
          "type": "bytes32"
        }
      ],
      "name": "UnfreezeInvestmentProposalCreated",
      "type": "event"
    },
    {
      "anonymous": false,
      "inputs": [
        {
          "indexed": true,
          "internalType": "address",
          "name": "implementation",
          "type": "address"
        }
      ],
      "name": "Upgraded",
      "type": "event"
    },
    {
      "anonymous": false,
      "inputs": [
        {
          "indexed": true,
          "internalType": "address",
          "name": "voter",
          "type": "address"
        },
        {
          "indexed": true,
          "internalType": "bytes32",
          "name": "proposalId",
          "type": "bytes32"
        },
        {
          "indexed": false,
          "internalType": "enum IGovernorINN.VoteType",
          "name": "vote",
          "type": "uint8"
        },
        {
          "indexed": false,
          "internalType": "string",
          "name": "reason",
          "type": "string"
        }
      ],
      "name": "VoteCast",
      "type": "event"
    },
    {
      "inputs": [],
      "name": "ADMIN_ROLE",
      "outputs": [
        {
          "internalType": "bytes32",
          "name": "",
          "type": "bytes32"
        }
      ],
      "stateMutability": "view",
      "type": "function"
    },
    {
      "inputs": [],
      "name": "CONSENSUS_ROLE",
      "outputs": [
        {
          "internalType": "bytes32",
          "name": "",
          "type": "bytes32"
        }
      ],
      "stateMutability": "view",
      "type": "function"
    },
    {
      "inputs": [],
      "name": "DEFAULT_ADMIN_ROLE",
      "outputs": [
        {
          "internalType": "bytes32",
          "name": "",
          "type": "bytes32"
        }
      ],
      "stateMutability": "view",
      "type": "function"
    },
    {
      "inputs": [],
      "name": "FREEZE_ACCOUNT_SIGNATURE",
      "outputs": [
        {
          "internalType": "bytes4",
          "name": "",
          "type": "bytes4"
        }
      ],
      "stateMutability": "view",
      "type": "function"
    },
    {
      "inputs": [],
      "name": "TRANSFER_SIGNATURE",
      "outputs": [
        {
          "internalType": "bytes4",
          "name": "",
          "type": "bytes4"
        }
      ],
      "stateMutability": "view",
      "type": "function"
    },
    {
      "inputs": [],
      "name": "UNFREEZE_ACCOUNT_SIGNATURE",
      "outputs": [
        {
          "internalType": "bytes4",
          "name": "",
          "type": "bytes4"
        }
      ],
      "stateMutability": "view",
      "type": "function"
    },
    {
      "inputs": [
        {
          "internalType": "bytes32",
          "name": "proposalId",
          "type": "bytes32"
        },
        {
          "internalType": "string",
          "name": "reason",
          "type": "string"
        }
      ],
      "name": "cancel",
      "outputs": [
        {
          "internalType": "bool",
          "name": "",
          "type": "bool"
        }
      ],
      "stateMutability": "nonpayable",
      "type": "function"
    },
    {
      "inputs": [
        {
          "internalType": "string",
          "name": "reason",
          "type": "string"
        },
        {
          "internalType": "bytes32",
          "name": "proposalId",
          "type": "bytes32"
        },
        {
          "internalType": "enum IGovernorINN.VoteType",
          "name": "vote",
          "type": "uint8"
        }
      ],
      "name": "castVote",
      "outputs": [
        {
          "internalType": "bool",
          "name": "",
          "type": "bool"
        }
      ],
      "stateMutability": "nonpayable",
      "type": "function"
    },
    {
      "inputs": [
        {
          "internalType": "bytes32",
          "name": "proposalId",
          "type": "bytes32"
        }
      ],
      "name": "castVoteAdmin",
      "outputs": [
        {
          "internalType": "bool",
          "name": "",
          "type": "bool"
        }
      ],
      "stateMutability": "view",
      "type": "function"
    },
    {
      "inputs": [],
      "name": "commissionWallet",
      "outputs": [
        {
          "internalType": "address",
          "name": "",
          "type": "address"
        }
      ],
      "stateMutability": "view",
      "type": "function"
    },
    {
      "inputs": [
        {
          "internalType": "address",
          "name": "validator",
          "type": "address"
        }
      ],
      "name": "disableValidator",
      "outputs": [],
      "stateMutability": "nonpayable",
      "type": "function"
    },
    {
      "inputs": [
        {
          "internalType": "bytes32",
          "name": "proposalId",
          "type": "bytes32"
        }
      ],
      "name": "execute",
      "outputs": [
        {
          "internalType": "bool",
          "name": "",
          "type": "bool"
        }
      ],
      "stateMutability": "payable",
      "type": "function"
    },
    {
      "inputs": [
        {
          "internalType": "bytes32",
          "name": "role",
          "type": "bytes32"
        }
      ],
      "name": "getRoleAdmin",
      "outputs": [
        {
          "internalType": "bytes32",
          "name": "",
          "type": "bytes32"
        }
      ],
      "stateMutability": "view",
      "type": "function"
    },
    {
      "inputs": [
        {
          "internalType": "bytes32",
          "name": "role",
          "type": "bytes32"
        },
        {
          "internalType": "address",
          "name": "account",
          "type": "address"
        }
      ],
      "name": "grantRole",
      "outputs": [],
      "stateMutability": "nonpayable",
      "type": "function"
    },
    {
      "inputs": [
        {
          "internalType": "bytes32",
          "name": "role",
          "type": "bytes32"
        },
        {
          "internalType": "address",
          "name": "account",
          "type": "address"
        }
      ],
      "name": "hasRole",
      "outputs": [
        {
          "internalType": "bool",
          "name": "",
          "type": "bool"
        }
      ],
      "stateMutability": "view",
      "type": "function"
    },
    {
      "inputs": [
        {
          "internalType": "bytes32",
          "name": "proposalId",
          "type": "bytes32"
        },
        {
          "internalType": "address",
          "name": "account",
          "type": "address"
        }
      ],
      "name": "hasVoted",
      "outputs": [
        {
          "internalType": "bool",
          "name": "",
          "type": "bool"
        }
      ],
      "stateMutability": "view",
      "type": "function"
    },
    {
      "inputs": [
        {
          "internalType": "bytes32",
          "name": "offchainID",
          "type": "bytes32"
        },
        {
          "internalType": "bytes32",
          "name": "descriptionHash",
          "type": "bytes32"
        },
        {
          "internalType": "address",
          "name": "proposer",
          "type": "address"
        },
        {
          "internalType": "enum IGovernorINN.ProposalType",
          "name": "proposalType",
          "type": "uint8"
        },
        {
          "internalType": "enum IGovernorINN.ActionType",
          "name": "actionType",
          "type": "uint8"
        },
        {
          "internalType": "bytes",
          "name": "data",
          "type": "bytes"
        }
      ],
      "name": "hashProposal",
      "outputs": [
        {
          "internalType": "bytes32",
          "name": "",
          "type": "bytes32"
        }
      ],
      "stateMutability": "pure",
      "type": "function"
    },
    {
      "inputs": [
        {
          "internalType": "string",
          "name": "domainName",
          "type": "string"
        },
        {
          "internalType": "string",
          "name": "domainVersion",
          "type": "string"
        },
        {
          "internalType": "address",
          "name": "oracleIns",
          "type": "address"
        }
      ],
      "name": "initialize",
      "outputs": [],
      "stateMutability": "nonpayable",
      "type": "function"
    },
    {
      "inputs": [],
      "name": "innTokenAddress",
      "outputs": [
        {
          "internalType": "address",
          "name": "",
          "type": "address"
        }
      ],
      "stateMutability": "view",
      "type": "function"
    },
    {
      "inputs": [],
      "name": "isAdminFirstVote",
      "outputs": [
        {
          "internalType": "bool",
          "name": "",
          "type": "bool"
        }
      ],
      "stateMutability": "view",
      "type": "function"
    },
    {
      "inputs": [],
      "name": "isMigrationEnabled",
      "outputs": [
        {
          "internalType": "bool",
          "name": "",
          "type": "bool"
        }
      ],
      "stateMutability": "view",
      "type": "function"
    },
    {
      "inputs": [
        {
          "internalType": "address",
          "name": "addr",
          "type": "address"
        }
      ],
      "name": "isStartup",
      "outputs": [
        {
          "internalType": "bool",
          "name": "",
          "type": "bool"
        }
      ],
      "stateMutability": "view",
      "type": "function"
    },
    {
      "inputs": [
        {
          "internalType": "address",
          "name": "addr",
          "type": "address"
        }
      ],
      "name": "isValidator",
      "outputs": [
        {
          "internalType": "bool",
          "name": "",
          "type": "bool"
        }
      ],
      "stateMutability": "view",
      "type": "function"
    },
    {
      "inputs": [],
      "name": "name",
      "outputs": [
        {
          "internalType": "string",
          "name": "",
          "type": "string"
        }
      ],
      "stateMutability": "view",
      "type": "function"
    },
    {
      "inputs": [],
      "name": "oldVersion",
      "outputs": [
        {
          "internalType": "address",
          "name": "",
          "type": "address"
        }
      ],
      "stateMutability": "view",
      "type": "function"
    },
    {
      "inputs": [],
      "name": "oracle",
      "outputs": [
        {
          "internalType": "address",
          "name": "",
          "type": "address"
        }
      ],
      "stateMutability": "view",
      "type": "function"
    },
    {
      "inputs": [
        {
          "components": [
            {
              "internalType": "bytes32",
              "name": "offchainID",
              "type": "bytes32"
            },
            {
              "internalType": "enum IGovernorINN.ProposalType",
              "name": "proposalType",
              "type": "uint8"
            },
            {
              "internalType": "enum IGovernorINN.ActionType",
              "name": "actionType",
              "type": "uint8"
            },
            {
              "internalType": "string",
              "name": "description",
              "type": "string"
            },
            {
              "internalType": "bytes",
              "name": "data",
              "type": "bytes"
            }
          ],
          "internalType": "struct IGovernorINN.ProposalRequest",
          "name": "request",
          "type": "tuple"
        },
        {
          "internalType": "bytes",
          "name": "signature",
          "type": "bytes"
        }
      ],
      "name": "propose",
      "outputs": [
        {
          "internalType": "bytes32",
          "name": "",
          "type": "bytes32"
        }
      ],
      "stateMutability": "nonpayable",
      "type": "function"
    },
    {
      "inputs": [],
      "name": "proxiableUUID",
      "outputs": [
        {
          "internalType": "bytes32",
          "name": "",
          "type": "bytes32"
        }
      ],
      "stateMutability": "view",
      "type": "function"
    },
    {
      "inputs": [
        {
          "internalType": "bytes32",
          "name": "role",
          "type": "bytes32"
        },
        {
          "internalType": "address",
          "name": "account",
          "type": "address"
        }
      ],
      "name": "renounceRole",
      "outputs": [],
      "stateMutability": "nonpayable",
      "type": "function"
    },
    {
      "inputs": [],
      "name": "reservedWallet",
      "outputs": [
        {
          "internalType": "address",
          "name": "",
          "type": "address"
        }
      ],
      "stateMutability": "view",
      "type": "function"
    },
    {
      "inputs": [
        {
          "internalType": "bytes32",
          "name": "role",
          "type": "bytes32"
        },
        {
          "internalType": "address",
          "name": "account",
          "type": "address"
        }
      ],
      "name": "revokeRole",
      "outputs": [],
      "stateMutability": "nonpayable",
      "type": "function"
    },
    {
      "inputs": [
        {
          "internalType": "bool",
          "name": "migration",
          "type": "bool"
        }
      ],
      "name": "setMigration",
      "outputs": [],
      "stateMutability": "nonpayable",
      "type": "function"
    },
    {
      "inputs": [
        {
          "internalType": "uint256",
          "name": "delay",
          "type": "uint256"
        }
      ],
      "name": "setVotingDelay",
      "outputs": [],
      "stateMutability": "nonpayable",
      "type": "function"
    },
    {
      "inputs": [
        {
          "internalType": "uint256",
          "name": "period",
          "type": "uint256"
        }
      ],
      "name": "setVotingPeriod",
      "outputs": [],
      "stateMutability": "nonpayable",
      "type": "function"
    },
    {
      "inputs": [],
      "name": "startupCount",
      "outputs": [
        {
          "internalType": "uint32",
          "name": "",
          "type": "uint32"
        }
      ],
      "stateMutability": "view",
      "type": "function"
    },
    {
      "inputs": [
        {
          "internalType": "bytes32",
          "name": "proposalId",
          "type": "bytes32"
        }
      ],
      "name": "state",
      "outputs": [
        {
          "internalType": "enum IGovernorINN.ProposalState",
          "name": "",
          "type": "uint8"
        }
      ],
      "stateMutability": "view",
      "type": "function"
    },
    {
      "inputs": [
        {
          "internalType": "bytes4",
          "name": "interfaceId",
          "type": "bytes4"
        }
      ],
      "name": "supportsInterface",
      "outputs": [
        {
          "internalType": "bool",
          "name": "",
          "type": "bool"
        }
      ],
      "stateMutability": "view",
      "type": "function"
    },
    {
      "inputs": [
        {
          "internalType": "address",
          "name": "newImplementation",
          "type": "address"
        }
      ],
      "name": "upgradeTo",
      "outputs": [],
      "stateMutability": "nonpayable",
      "type": "function"
    },
    {
      "inputs": [
        {
          "internalType": "address",
          "name": "newImplementation",
          "type": "address"
        },
        {
          "internalType": "bytes",
          "name": "data",
          "type": "bytes"
        }
      ],
      "name": "upgradeToAndCall",
      "outputs": [],
      "stateMutability": "payable",
      "type": "function"
    },
    {
      "inputs": [],
      "name": "validatorCount",
      "outputs": [
        {
          "internalType": "uint32",
          "name": "",
          "type": "uint32"
        }
      ],
      "stateMutability": "view",
      "type": "function"
    },
    {
      "inputs": [],
      "name": "version",
      "outputs": [
        {
          "internalType": "string",
          "name": "",
          "type": "string"
        }
      ],
      "stateMutability": "view",
      "type": "function"
    },
    {
      "inputs": [],
      "name": "votingDelay",
      "outputs": [
        {
          "internalType": "uint256",
          "name": "",
          "type": "uint256"
        }
      ],
      "stateMutability": "view",
      "type": "function"
    },
    {
      "inputs": [],
      "name": "votingPeriod",
      "outputs": [
        {
          "internalType": "uint256",
          "name": "",
          "type": "uint256"
        }
      ],
      "stateMutability": "view",
      "type": "function"
    }
  ],
  "bytecode": "0x60a06040523060805234801561001457600080fd5b506080516153ba61004c60003960008181610c0d01528181610c4d01528181610cd501528181610d150152610d8d01526153ba6000f3fe60806040526004361061025c5760003560e01c806370b0f66011610144578063be5967ea116100b6578063e751f2711161007a578063e751f271146107a0578063ea0217cf146107b3578063f8c662ff146107d3578063fa2dabad146107f4578063facd743b14610828578063ff6666531461084857600080fd5b8063be5967ea146106d7578063c0e6d5d6146106f7578063c22ab4e01461072b578063d547741f1461074c578063e0310e521461076c57600080fd5b806397c0262a1161010857806397c0262a146105f4578063a217fddf14610615578063a5d796241461062a578063aadc3b721461064a578063afdf67101461066a578063b7d6fe24146106b757600080fd5b806370b0f6601461054a57806375b238fc1461056a5780637dc0d1d01461058c5780637f1e250c146105b457806391d14854146105d457600080fd5b806330d9b773116101dd57806341863ed6116101a157806341863ed6146104985780634f1ef286146104c057806352d1902d146104d357806354fd4d50146104e85780635ae766f3146104fd57806361d585da1461051d57600080fd5b806330d9b7731461040057806333f3533b1461042057806336568abe146104425780633659cfe6146104625780633932abb11461048257600080fd5b80631fe97684116102245780631fe9768414610331578063211dc1a714610351578063248a9ca31461038a57806325ce7586146103ba5780632f2ff15d146103e057600080fd5b806301ffc9a71461026157806302a251a31461029657806306fdde03146102ba578063077f224a146102dc5780630f43a677146102fe575b600080fd5b34801561026d57600080fd5b5061028161027c3660046144d3565b610868565b60405190151581526020015b60405180910390f35b3480156102a257600080fd5b506102ac60ff5481565b60405190815260200161028d565b3480156102c657600080fd5b506102cf61089f565b60405161028d9190614555565b3480156102e857600080fd5b506102fc6102f73660046145be565b610932565b005b34801561030a57600080fd5b506101055461031c9063ffffffff1681565b60405163ffffffff909116815260200161028d565b34801561033d57600080fd5b506102fc61034c366004614641565b6109fe565b34801561035d57600080fd5b5061010654610372906001600160a01b031681565b6040516001600160a01b03909116815260200161028d565b34801561039657600080fd5b506102ac6103a536600461465e565b600090815260c9602052604090206001015490565b3480156103c657600080fd5b506101055461031c90640100000000900463ffffffff1681565b3480156103ec57600080fd5b506102fc6103fb366004614677565b610b41565b34801561040c57600080fd5b5061028161041b36600461465e565b610b6b565b34801561042c57600080fd5b506101055461028190600160401b900460ff1681565b34801561044e57600080fd5b506102fc61045d366004614677565b610b85565b34801561046e57600080fd5b506102fc61047d366004614641565b610c03565b34801561048e57600080fd5b506102ac60fe5481565b3480156104a457600080fd5b5061010554610281906901000000000000000000900460ff1681565b6102fc6104ce366004614792565b610ccb565b3480156104df57600080fd5b506102ac610d80565b3480156104f457600080fd5b506102cf610e33565b34801561050957600080fd5b50610281610518366004614641565b610e43565b34801561052957600080fd5b5061053d61053836600461465e565b610ea8565b60405161028d91906147f7565b34801561055657600080fd5b506102fc61056536600461465e565b611005565b34801561057657600080fd5b506102ac60008051602061532383398151915281565b34801561059857600080fd5b506101055461037290600160501b90046001600160a01b031681565b3480156105c057600080fd5b506102fc6105cf36600461481f565b611023565b3480156105e057600080fd5b506102816105ef366004614677565b611060565b34801561060057600080fd5b5061010154610372906001600160a01b031681565b34801561062157600080fd5b506102ac600081565b34801561063657600080fd5b50610281610645366004614849565b61108b565b34801561065657600080fd5b50610281610665366004614677565b61117f565b34801561067657600080fd5b5061069e7ff26c159fd7d78f3848964c3adf4aea78577348fcb297db019bf8f5efbed0219581565b6040516001600160e01b0319909116815260200161028d565b3480156106c357600080fd5b506102816106d23660046148a7565b61119a565b3480156106e357600080fd5b506102ac6106f23660046148e6565b61136f565b34801561070357600080fd5b5061069e7f53cc2fae7ecef069da76ae9063c3ecfa7f417173bc5191fe1bb037165d76473f81565b34801561073757600080fd5b5061010054610372906001600160a01b031681565b34801561075857600080fd5b506102fc610767366004614677565b6113ae565b34801561077857600080fd5b5061069e7f23b872dd7302113369cda2901243429419bec145408fa8b352b3dd92b66c680b81565b6102816107ae36600461465e565b6113d3565b3480156107bf57600080fd5b506102fc6107ce36600461465e565b6114d0565b3480156107df57600080fd5b5061010254610372906001600160a01b031681565b34801561080057600080fd5b506102ac7f36fd43ede163045b10e1f0abd16f62f165fce3fa7b6cde217bcea3bc47663acc81565b34801561083457600080fd5b50610281610843366004614641565b6114ee565b34801561085457600080fd5b506102ac61086336600461496a565b611520565b60006001600160e01b03198216637965db0b60e01b148061089957506301ffc9a760e01b6001600160e01b03198316145b92915050565b606061010380546108af90614a43565b80601f01602080910402602001604051908101604052809291908181526020018280546108db90614a43565b80156109285780601f106108fd57610100808354040283529160200191610928565b820191906000526020600020905b81548152906001019060200180831161090b57829003601f168201915b5050505050905090565b6002600061093f82611b2e565b90508015610957576000805461ff0019166101001790555b61010580547fffff0000000000000000000000000000000000000000ffffffffffffffffffff16600160501b6001600160a01b0386160217905561099e61010388886143c6565b506109ac61010486866143c6565b5080156109f5576000805461ff001916905560405160ff831681527f7f26b83ff96e1f2b6a682f133852f6798a09c465da95921460cefb38474024989060200160405180910390a15b50505050505050565b600080516020615323833981519152610a1681611bbb565b60016001600160a01b038316600090815260fb602052604090206001015460ff166002811115610a4857610a486147e1565b148015610a7757506001600160a01b038216600090815260fb6020526040902060010154610100900460ff1615155b610adf5760405162461bcd60e51b815260206004820152602e60248201527f56616c696461746f723a206f6e6c792065786973742076616c696461746f722060448201526d63616e2062652064697361626c6560901b60648201526084015b60405180910390fd5b6001600160a01b038216600090815260fb602052604081206001908101805461ff0019169055610105805491929091610b1f90849063ffffffff16614a8d565b92506101000a81548163ffffffff021916908363ffffffff1602179055505050565b600082815260c96020526040902060010154610b5c81611bbb565b610b668383611bc5565b505050565b600060008051602061532383398151915261025c81611bbb565b6001600160a01b0381163314610bf55760405162461bcd60e51b815260206004820152602f60248201527f416363657373436f6e74726f6c3a2063616e206f6e6c792072656e6f756e636560448201526e103937b632b9903337b91039b2b63360891b6064820152608401610ad6565b610bff8282611c4b565b5050565b6001600160a01b037f0000000000000000000000000000000000000000000000000000000000000000163003610c4b5760405162461bcd60e51b8152600401610ad690614ab2565b7f00000000000000000000000000000000000000000000000000000000000000006001600160a01b0316610c7d611cb2565b6001600160a01b031614610ca35760405162461bcd60e51b8152600401610ad690614afe565b610cac81611cce565b60408051600080825260208201909252610cc891839190611d57565b50565b6001600160a01b037f0000000000000000000000000000000000000000000000000000000000000000163003610d135760405162461bcd60e51b8152600401610ad690614ab2565b7f00000000000000000000000000000000000000000000000000000000000000006001600160a01b0316610d45611cb2565b6001600160a01b031614610d6b5760405162461bcd60e51b8152600401610ad690614afe565b610d7482611cce565b610bff82826001611d57565b6000306001600160a01b037f00000000000000000000000000000000000000000000000000000000000000001614610e205760405162461bcd60e51b815260206004820152603860248201527f555550535570677261646561626c653a206d757374206e6f742062652063616c60448201527f6c6564207468726f7567682064656c656761746563616c6c00000000000000006064820152608401610ad6565b5060008051602061528383398151915290565b606061010480546108af90614a43565b6001600160a01b038116600090815260fb6020526040812060010154610100900460ff168015610899575060025b6001600160a01b038316600090815260fb602052604090206001015460ff166002811115610ea157610ea16147e1565b1492915050565b600081815260fd6020526040812060018101548203610f015760405162461bcd60e51b81526020600482015260156024820152741c1c9bdc1bdcd85b1259081a5cc81a5b9d985b1a59605a1b6044820152606401610ad6565b600681015462010000900460ff1615610f1d5750600792915050565b60068101546301000000900460ff1615610f3a5750600392915050565b604080516020810190915260048201546001600160401b031690819052421015610f675750600192915050565b604080516020810190915260058201546001600160401b03169081905242108015610f985750610f9683611ec2565b155b15610fa65750600292915050565b604080516020810190915260058201546001600160401b03168152610fca90611f21565b80610fd95750610fd983611ec2565b15610ffc57610fe783611f50565b610ff2576004610ff5565b60055b9392505050565b50600092915050565b60008051602061532383398151915261101d81611bbb565b5060fe55565b60008051602061532383398151915261103b81611bbb565b506101058054911515600160401b0268ff000000000000000019909216919091179055565b600091825260c9602090815260408084206001600160a01b0393909316845291905290205460ff1690565b33600090815260fb6020526040812060019081015460ff1660028111156110b4576110b46147e1565b1480156110dd575033600090815260fb60205260409020600190810154610100900460ff161515145b6111345760405162461bcd60e51b815260206004820152602260248201527f476f7665726e6f723a206f6e6c792076616c696461746f72207065726d697474604482015261195960f21b6064820152608401610ad6565b61117683338488888080601f016020809104026020016040519081016040528093929190818152602001838380828437600092019190915250611fa292505050565b95945050505050565b600082815260fc60205260408120610ff5906001018361223b565b600082815260fd60205260408120600301546001600160a01b0316331461120f5760405162461bcd60e51b815260206004820152602360248201527f476f7665726e6f72203a206f6e6c792070726f706f7365722063616e2063616e60448201526218d95b60ea1b6064820152608401610ad6565b600061121a84610ea8565b90506006816007811115611230576112306147e1565b141580156112505750600781600781111561124d5761124d6147e1565b14155b61129c5760405162461bcd60e51b815260206004820152601d60248201527f476f7665726e6f723a2070726f706f73616c206e6f74206163746976650000006044820152606401610ad6565b60038160078111156112b0576112b06147e1565b036113095760405162461bcd60e51b815260206004820152602360248201527f476f7665726e6f723a2070726f706f73616c20616c72656164792063616e63656044820152621b195960ea1b6064820152608401610ad6565b600084815260fd602052604090819020600601805463ff000000191663010000001790555184907fc3fe75bace7821ed95b8b37722a36dfb53bdf311befb9c378bed48a7db4062aa9061135d908690614555565b60405180910390a25060019392505050565b600086868686868660405160200161138c96959493929190614b6e565b6040516020818303038152906040528051906020012090509695505050505050565b600082815260c960205260409020600101546113c981611bbb565b610b668383611c4b565b60006000805160206153238339815191526113ed81611bbb565b60006113f884610ea8565b9050600581600781111561140e5761140e6147e1565b146114655760405162461bcd60e51b815260206004820152602160248201527f476f7665726e6f723a2070726f706f73616c206e6f74207375636365737366756044820152601b60fa1b6064820152608401610ad6565b600084815260fd6020526040902060068101805462ff000019166201000017905560016114918261225d565b905080156114c55760405186907f7b1bcf1ccf901a11589afff5504d59fd0a53780eed2a952adade0348985139e090600090a25b935050505b50919050565b6000805160206153238339815191526114e881611bbb565b5060ff55565b6001600160a01b038116600090815260fb6020526040812060010154610100900460ff16801561089957506001610e71565b33600090815260fb6020526040812060019081015460ff166002811115611549576115496147e1565b148015611572575033600090815260fb60205260409020600190810154610100900460ff161515145b80611596575061159060008051602061532383398151915233611060565b15156001145b6115f95760405162461bcd60e51b815260206004820152602e60248201527f476f7665726e6f723a206f6e6c792076616c696461746f72206f7220416d696e60448201526d0818d85b881c195c9b5a5d1d195960921b6064820152608401610ad6565b600083602001516003811115611611576116116147e1565b0361165e5760405162461bcd60e51b815260206004820181905260248201527f70726f706f73616c20747970652073686f756c64206e6f74206265204e4f4e456044820152606401610ad6565b600083604001516004811115611676576116766147e1565b036116c35760405162461bcd60e51b815260206004820152601e60248201527f616374696f6e20747970652073686f756c64206e6f74206265204e4f4e4500006044820152606401610ad6565b8260800151516000036117135760405162461bcd60e51b8152602060048201526018602482015277646174612073686f756c64206e6f7420626520656d70747960401b6044820152606401610ad6565b825160000361175f5760405162461bcd60e51b8152602060048201526018602482015277646174612073686f756c64206e6f7420626520656d70747960401b6044820152606401610ad6565b61177760008051602061532383398151915233611060565b156117e657600183602001516003811115611794576117946147e1565b146117e15760405162461bcd60e51b815260206004820152601c60248201527f61646d696e2070726f706f7365206f6e6c792076616c696461746f72000000006044820152606401610ad6565b611857565b6001836020015160038111156117fe576117fe6147e1565b036118575760405162461bcd60e51b815260206004820152602360248201527f76616c696461746f7220636f75646e27742070726f706f73652076616c6964616044820152623a37b960e91b6064820152608401610ad6565b6000836060015160405160200161186e9190614bc5565b60405160208183030381529060405280519060200120905060006118ac8560000151836118983390565b886020015189604001518a60800151612b62565b905060006118b982612bc7565b90506000806118c88388612c15565b909250905060008160048111156118e1576118e16147e1565b14611917578060048111156118f8576118f86147e1565b6040516364f17f0b60e01b815260ff9091166004820152602401610ad6565b604051632474521560e21b815260008051602061532383398151915260048201526001600160a01b038316602482015230906391d1485490604401602060405180830381865afa15801561196f573d6000803e3d6000fd5b505050506040513d601f19601f820116820180604052508101906119939190614be1565b6119eb5760405162461bcd60e51b815260206004820152602360248201527f70726f706f73616c206372656174696f6e207065726d697373696f6e2064656e6044820152621a595960ea1b6064820152608401610ad6565b8751600090611a0a9087338c602001518d604001518e6080015161136f565b600081815260fd6020526040812082815560fe5492935091611a2c9042614bfe565b9050600060ff5442611a3e9190614bfe565b60048401805467ffffffffffffffff19166001600160401b038516179055905060058301805467ffffffffffffffff19166001600160401b038316179055600283018990558b51600180850191909155600380850180546001600160a01b0319163317905560208e01516006860180549193909260ff19909216918490811115611aca57611aca6147e1565b021790555060408c015160068401805461ff001916610100836004811115611af457611af46147e1565b021790555060808c01518051611b1491600786019160209091019061444a565b50611b1e83612c83565b50919a9950505050505050505050565b60008054610100900460ff1615611b75578160ff166001148015611b515750303b155b611b6d5760405162461bcd60e51b8152600401610ad690614c29565b506000919050565b60005460ff808416911610611b9c5760405162461bcd60e51b8152600401610ad690614c29565b506000805460ff191660ff92909216919091179055600190565b919050565b610cc881336137b6565b611bcf8282611060565b610bff57600082815260c9602090815260408083206001600160a01b03851684529091529020805460ff19166001179055611c073390565b6001600160a01b0316816001600160a01b0316837f2f8788117e7eff1d82e926ec794901d17c78024a50270940304540a733656f0d60405160405180910390a45050565b611c558282611060565b15610bff57600082815260c9602090815260408083206001600160a01b0385168085529252808320805460ff1916905551339285917ff6391f5c32d9c69d2a47ea670b442974b53935d1edc7fd64eb21e047a839171b9190a45050565b600080516020615283833981519152546001600160a01b031690565b6001600160a01b038116611d165760405162461bcd60e51b815260206004820152600f60248201526e1859191c995cdcc81a5b9d985b1a59608a1b6044820152606401610ad6565b611d1e611cb2565b61010680546001600160a01b0319166001600160a01b0392909216919091179055610bff60008051602061532383398151915233611060565b7f4910fdfa16fed3260ed0e7147f7cc6da11a60208b5b9406d12a635614ffd91435460ff1615611d8a57610b668361381a565b826001600160a01b03166352d1902d6040518163ffffffff1660e01b8152600401602060405180830381865afa925050508015611de4575060408051601f3d908101601f19168201909252611de191810190614c77565b60015b611e475760405162461bcd60e51b815260206004820152602e60248201527f45524331393637557067726164653a206e657720696d706c656d656e7461746960448201526d6f6e206973206e6f74205555505360901b6064820152608401610ad6565b6000805160206152838339815191528114611eb65760405162461bcd60e51b815260206004820152602960248201527f45524331393637557067726164653a20756e737570706f727465642070726f786044820152681a58589b195555525160ba1b6064820152608401610ad6565b50610b668383836138b6565b600081815260fc6020526040812080546001600160401b03600160801b8204811691611ef99180821691600160401b900416614bfe565b611f039190614bfe565b6101055463ffffffff166001600160401b0391909116149392505050565b6000611f3682516001600160401b0316151590565b801561089957505051426001600160401b03909116111590565b600081815260fc6020526040812061010554611f749060029063ffffffff16614ca6565b611f7f906001614cc9565b905463ffffffff909116600160401b9091046001600160401b0316101592915050565b600080836003811115611fb757611fb76147e1565b03611ffd5760405162461bcd60e51b815260206004820152601660248201527511dbdd995c9b9bdc8e881d9bdd19481a5b9d985b1a5960521b6044820152606401610ad6565b600261200886610ea8565b6007811115612019576120196147e1565b146120745760405162461bcd60e51b815260206004820152602560248201527f476f7665726e6f723a2070726f706f73616c2063757272656e746c7920696e61604482015264637469766560d81b6064820152608401610ad6565b600085815260fc6020526040902061208f600182018661223b565b156120dc5760405162461bcd60e51b815260206004820152601b60248201527f476f7665726e6f723a20766f746520616c7265616479206361737400000000006044820152606401610ad6565b6120e960018201866138e1565b5060018460038111156120fe576120fe6147e1565b0361214a57805460019082906000906121219084906001600160401b0316614bfe565b92506101000a8154816001600160401b0302191690836001600160401b031602179055506121eb565b600284600381111561215e5761215e6147e1565b036121885780546001908290600890612121908490600160401b90046001600160401b0316614bfe565b600384600381111561219c5761219c6147e1565b036121eb57805460019082906010906121c6908490600160801b90046001600160401b0316614bfe565b92506101000a8154816001600160401b0302191690836001600160401b031602179055505b85856001600160a01b03167fbbb255028c79dea070e4449c346283da7b4b66693776c096bb820822e4d9c41a8686604051612227929190614ce8565b60405180910390a350600195945050505050565b6001600160a01b03811660009081526001830160205260408120541515610ff5565b6000600180600684015460ff16600381111561227b5761227b6147e1565b036124295760016006840154610100900460ff1660048111156122a0576122a06147e1565b036124245760008360070180546122b690614a43565b80601f01602080910402602001604051908101604052809291908181526020018280546122e290614a43565b801561232f5780601f106123045761010080835404028352916020019161232f565b820191906000526020600020905b81548152906001019060200180831161231257829003601f168201915b50505050508060200190518101906123479190614d4f565b60408051606081019091528151815290915060208101600181526001602091820152828101516001600160a01b0316600090815260fb8252604090208251805191926123989284929091019061444a565b50602082015160018083018054909160ff19909116908360028111156123c0576123c06147e1565b021790555060409190910151600191820180549115156101000261ff0019909216919091179055610105805460009061240090849063ffffffff16614cc9565b92506101000a81548163ffffffff021916908363ffffffff16021790555060019150505b610899565b61010554600160401b900460ff1615801561245c57506002600684015460ff16600381111561245a5761245a6147e1565b145b156108995760016006840154610100900460ff166004811115612481576124816147e1565b036127a957600083600701805461249790614a43565b80601f01602080910402602001604051908101604052809291908181526020018280546124c390614a43565b80156125105780601f106124e557610100808354040283529160200191612510565b820191906000526020600020905b8154815290600101906020018083116124f357829003601f168201915b50505050508060200190518101906125289190614e84565b90506125686040518060400160405280601b81526020017f7472616e7366657220746f6b656e4f6666736572202e202e202e2000000000008152506138f6565b818015612582575061258281604001518260200151613939565b91506125c26040518060400160405280601d81526020017f7472616e7366657220253520636f6d6d697373696f6e202e202e202e200000008152506138f6565b8180156125fe57506101015460208201516125fe916001600160a01b0316906064906125ef906005614eb8565b6125f99190614ed7565b613939565b915061263e6040518060400160405280601b81526020017f7472616e736665722025312070726f706f736572202e202e202e2000000000008152506138f6565b81801561266a57506003840154602082015161266a916001600160a01b0316906125f990606490614ed7565b91506126aa6040518060400160405280601a81526020017f7472616e736665722025322073657277617264202e202e202e200000000000008152506138f6565b8180156126c457506126c484600001548260200151613a73565b604080516060810190915282518152909250602081016002815260016020918201526040808401516001600160a01b0316600090815260fb8352208251805191926127149284929091019061444a565b50602082015160018083018054909160ff199091169083600281111561273c5761273c6147e1565b021790555060409190910151600191820180549115156101000261ff0019909216919091179055610105805460049061278590849063ffffffff64010000000090910416614cc9565b92506101000a81548163ffffffff021916908363ffffffff16021790555050610899565b60026006840154610100900460ff1660048111156127c9576127c96147e1565b036129ae5760008360070180546127df90614a43565b80601f016020809104026020016040519081016040528092919081815260200182805461280b90614a43565b80156128585780601f1061282d57610100808354040283529160200191612858565b820191906000526020600020905b81548152906001019060200180831161283b57829003601f168201915b50505050508060200190518101906128709190614e84565b9050612893604051806060016040528060218152602001615343602191396138f6565b8180156128ad57506128ad81604001518260200151613939565b91506128d06040518060600160405280602381526020016152a3602391396138f6565b8180156128fd57506101015460208201516128fd916001600160a01b0316906064906125ef906005614eb8565b9150612920604051806060016040528060218152602001615364602191396138f6565b81801561294c57506003840154602082015161294c916001600160a01b0316906125f990606490614ed7565b915061298c6040518060400160405280601f81526020017f65786974207472616e736665722025322073657277617264202e202e202e20008152506138f6565b8180156129a657506129a684600001548260200151613a73565b915050610899565b60036006840154610100900460ff1660048111156129ce576129ce6147e1565b03612a845760008360070180546129e490614a43565b80601f0160208091040260200160405190810160405280929190818152602001828054612a1090614a43565b8015612a5d5780601f10612a3257610100808354040283529160200191612a5d565b820191906000526020600020905b815481529060010190602001808311612a4057829003601f168201915b5050505050806020019051810190612a759190614f3a565b90506129a68160000151613b8a565b60046006840154610100900460ff166004811115612aa457612aa46147e1565b03610899576000836007018054612aba90614a43565b80601f0160208091040260200160405190810160405280929190818152602001828054612ae690614a43565b8015612b335780601f10612b0857610100808354040283529160200191612b33565b820191906000526020600020905b815481529060010190602001808311612b1657829003601f168201915b5050505050806020019051810190612b4b9190614f3a565b9050612b5a8160000151613c78565b949350505050565b60007ff1d23bd7ede3e157b19af9bdc7f9f08c55104d948e791ad0900a92e0a680c3a2878787878787604051602001612b9b9190614bc5565b6040516020818303038152906040528051906020012060405160200161138c9796959493929190614f56565b6000610899612bd4613d66565b8360405161190160f01b6020820152602281018390526042810182905260009060620160405160208183030381529060405280519060200120905092915050565b6000808251604103612c4b5760208301516040840151606085015160001a612c3f87828585613e1c565b94509450505050612c7c565b8251604003612c745760208301516040840151612c69868383613f09565b935093505050612c7c565b506000905060025b9250929050565b6001600682015460ff166003811115612c9e57612c9e6147e1565b03612f185760016006820154610100900460ff166004811115612cc357612cc36147e1565b03610cc8576000816007018054612cd990614a43565b80601f0160208091040260200160405190810160405280929190818152602001828054612d0590614a43565b8015612d525780601f10612d2757610100808354040283529160200191612d52565b820191906000526020600020905b815481529060010190602001808311612d3557829003601f168201915b5050505050806020019051810190612d6a9190614d4f565b60208101519091506001600160a01b0316612dd35760405162461bcd60e51b8152602060048201526024808201527f76616c696461746f7220616464726573732073686f756c64206e6f74206265206044820152637a65726f60e01b6064820152608401610ad6565b805151600003612e305760405162461bcd60e51b815260206004820152602260248201527f76616c696461746f72206e616d652073686f756c64206e6f7420626520656d70604482015261747960f01b6064820152608401610ad6565b6020818101516001600160a01b0316600090815260fb909152604081206001015460ff166002811115612e6557612e656147e1565b14612eb25760405162461bcd60e51b815260206004820152601b60248201527f76616c696461746f72454f4120616c72656164792065786973747300000000006044820152606401610ad6565b6020810151600383015483546001850154600286015485516040516001600160a01b0396871696909516947f3b993e041d591ea59a38f6cff579df5e8d6c2d1fed74305dfbb114336c41bdfd93612f0c9390929091614fa8565b60405180910390a45050565b6002600682015460ff166003811115612f3357612f336147e1565b0361379b5760016006820154610100900460ff166004811115612f5857612f586147e1565b036131e2576000816007018054612f6e90614a43565b80601f0160208091040260200160405190810160405280929190818152602001828054612f9a90614a43565b8015612fe75780601f10612fbc57610100808354040283529160200191612fe7565b820191906000526020600020905b815481529060010190602001808311612fca57829003601f168201915b5050505050806020019051810190612fff9190614e84565b8051519091506000036130545760405162461bcd60e51b815260206004820181905260248201527f73746172747570206e616d652073686f756c64206e6f7420626520656d7074796044820152606401610ad6565b80602001516000036130785760405162461bcd60e51b8152600401610ad690614fc7565b806060015161ffff166000036130a05760405162461bcd60e51b8152600401610ad69061500d565b60408101516001600160a01b03166130fa5760405162461bcd60e51b815260206004820152601e60248201527f7374617274757020454f412073686f756c64206e6f74206265207a65726f00006044820152606401610ad6565b60006040808301516001600160a01b0316600090815260fb602052206001015460ff16600281111561312e5761312e6147e1565b1461317b5760405162461bcd60e51b815260206004820152601960248201527f73746172747570454f4120616c726561647920657869737473000000000000006044820152606401610ad6565b604081810151600384015484546020850151600187015460028801548751606089015197516001600160a01b0397881698979096169694957fa3d1a39a550977baa46ea2634b05f5eb5993c2422417ce8c7139b39635a2a08c95612f0c9594939291615054565b60026006820154610100900460ff166004811115613202576132026147e1565b0361348c57600081600701805461321890614a43565b80601f016020809104026020016040519081016040528092919081815260200182805461324490614a43565b80156132915780601f1061326657610100808354040283529160200191613291565b820191906000526020600020905b81548152906001019060200180831161327457829003601f168201915b50505050508060200190518101906132a99190614e84565b8051519091506000036132fe5760405162461bcd60e51b815260206004820181905260248201527f73746172747570206e616d652073686f756c64206e6f7420626520656d7074796044820152606401610ad6565b80602001516000036133225760405162461bcd60e51b8152600401610ad690614fc7565b806060015161ffff1660000361334a5760405162461bcd60e51b8152600401610ad69061500d565b60408101516001600160a01b03166133a45760405162461bcd60e51b815260206004820181905260248201527f76616c696461746f7220454f412073686f756c64206e6f74206265207a65726f6044820152606401610ad6565b60016040808301516001600160a01b0316600090815260fb602052206001015460ff1660028111156133d8576133d86147e1565b146134255760405162461bcd60e51b815260206004820152601b60248201527f76616c696461746f72454f4120646f65736e27742065786973747300000000006044820152606401610ad6565b604081810151600384015484546020850151600187015460028801548751606089015197516001600160a01b0397881698979096169694957fb58c12647c60f8966538bcfa6bf6b815477288bcbcbd80c2ac8ad7c23115a2d995612f0c9594939291615054565b60036006820154610100900460ff1660048111156134ac576134ac6147e1565b036136135760008160070180546134c290614a43565b80601f01602080910402602001604051908101604052809291908181526020018280546134ee90614a43565b801561353b5780601f106135105761010080835404028352916020019161353b565b820191906000526020600020905b81548152906001019060200180831161351e57829003601f168201915b50505050508060200190518101906135539190614f3a565b80519091506001600160a01b03166135b85760405162461bcd60e51b815260206004820152602260248201527f467265657a653a206163636f756e742073686f756c64206e6f74206265207a65604482015261726f60f01b6064820152608401610ad6565b805160038301548354600185015460028601546040516001600160a01b039586169594909416937f6c344b5a99d701e380e4f74eb042f15449b77f4657a647b82e9a5b223798bf1c92612f0c92908252602082015260400190565b60046006820154610100900460ff166004811115613633576136336147e1565b03610cc857600081600701805461364990614a43565b80601f016020809104026020016040519081016040528092919081815260200182805461367590614a43565b80156136c25780601f10613697576101008083540402835291602001916136c2565b820191906000526020600020905b8154815290600101906020018083116136a557829003601f168201915b50505050508060200190518101906136da9190614f3a565b80519091506001600160a01b03166137405760405162461bcd60e51b8152602060048201526024808201527f556e667265657a653a206163636f756e742073686f756c64206e6f74206265206044820152637a65726f60e01b6064820152608401610ad6565b805160038301548354600185015460028601546040516001600160a01b039586169594909416937f5b0256ffeae05aba51e2c5f936a5ab3668280f92904d8098fc46d79e2ec5dbfa92612f0c92908252602082015260400190565b6003600682015460ff166003811115610b6657610b666147e1565b6137c08282611060565b610bff576137d8816001600160a01b03166014613f42565b6137e3836020613f42565b6040516020016137f492919061508f565b60408051601f198184030181529082905262461bcd60e51b8252610ad691600401614555565b6001600160a01b0381163b6138875760405162461bcd60e51b815260206004820152602d60248201527f455243313936373a206e657720696d706c656d656e746174696f6e206973206e60448201526c1bdd08184818dbdb9d1c9858dd609a1b6064820152608401610ad6565b60008051602061528383398151915280546001600160a01b0319166001600160a01b0392909216919091179055565b6138bf836140dd565b6000825111806138cc5750805b15610b66576138db838361411d565b50505050565b6000610ff5836001600160a01b038416614208565b610cc88160405160240161390a9190614555565b60408051601f198184030181529190526020810180516001600160e01b031663104c13eb60e21b179052614257565b61010054604080516001600160a01b039283166024820152918416604483015260648083018490528151808403909101815260849092018152602080830180516001600160e01b03166323b872dd60e01b1790528151606081019092526036808352600093926139c1929091906152ed90830139610100546001600160a01b03168686614278565b610102546040516000916001600160a01b0316906139e0908490614bc5565b6000604051808303816000865af19150503d8060008114613a1d576040519150601f19603f3d011682016040523d82523d6000602084013e613a22565b606091505b5050905080612b5a5760405162461bcd60e51b815260206004820152601a60248201527f457865637574653a207472616e73666572206661696c657321200000000000006044820152606401610ad6565b600082815260fc6020526040812081613a8e600183016142c1565b90506000816064613aa0876002614eb8565b613aaa9190614ed7565b613ab49190614ed7565b9050613af66040518060400160405280602081526020017f73656e64526577617264733a2025732c20766f7465724c656e6774683a20257381525082846142cb565b600160005b83811015613b7f5760408051808201909152601c81527f7265776172642076616c696461746f7220616464726573733a202573000000006020820152613b4d90613b486001880184614312565b61431e565b818015613b6b5750613b6b613b656001870183614312565b84613939565b915080613b7781615104565b915050613afb565b509695505050505050565b604080516001600160a01b0383811660248084019190915283518084039091018152604490920183526020820180516001600160e01b031663f26c159f60e01b17905261010254925160009384921690613be5908490614bc5565b6000604051808303816000865af19150503d8060008114613c22576040519150601f19603f3d011682016040523d82523d6000602084013e613c27565b606091505b5050905080610ff55760405162461bcd60e51b815260206004820152601e60248201527f457865637574653a20667265657a65206163636f756e74206661696c656400006044820152606401610ad6565b604080516001600160a01b0383811660248084019190915283518084039091018152604490920183526020820180516001600160e01b03166329e617d760e11b17905261010254925160009384921690613cd3908490614bc5565b6000604051808303816000865af19150503d8060008114613d10576040519150601f19603f3d011682016040523d82523d6000602084013e613d15565b606091505b5050905080610ff55760405162461bcd60e51b815260206004820181905260248201527f457865637574653a20556e667265657a65206163636f756e74206661696c65646044820152606401610ad6565b60007f8b73c3c69bb8fe3d512ecc4cf759cc79239f7b179b0ffacaa9a75d522b39400f610103604051602001613d9c919061511d565b60405160208183030381529060405280519060200120610104604051602001613dc5919061511d565b60408051601f1981840301815282825280516020918201209083019490945281019190915260608101919091524660808201523060a082015260c00160405160208183030381529060405280519060200120905090565b6000807f7fffffffffffffffffffffffffffffff5d576e7357a4501ddfe92f46681b20a0831115613e535750600090506003613f00565b8460ff16601b14158015613e6b57508460ff16601c14155b15613e7c5750600090506004613f00565b6040805160008082526020820180845289905260ff881692820192909252606081018690526080810185905260019060a0016020604051602081039080840390855afa158015613ed0573d6000803e3d6000fd5b5050604051601f1901519150506001600160a01b038116613ef957600060019250925050613f00565b9150600090505b94509492505050565b6000806001600160ff1b03831681613f2660ff86901c601b6151b8565b9050613f3487828885613e1c565b935093505050935093915050565b60606000613f51836002614eb8565b613f5c9060026151b8565b6001600160401b03811115613f7357613f736146a7565b6040519080825280601f01601f191660200182016040528015613f9d576020820181803683370190505b509050600360fc1b81600081518110613fb857613fb86151d0565b60200101906001600160f81b031916908160001a905350600f60fb1b81600181518110613fe757613fe76151d0565b60200101906001600160f81b031916908160001a905350600061400b846002614eb8565b6140169060016151b8565b90505b600181111561408e576f181899199a1a9b1b9c1cb0b131b232b360811b85600f166010811061404a5761404a6151d0565b1a60f81b828281518110614060576140606151d0565b60200101906001600160f81b031916908160001a90535060049490941c93614087816151e6565b9050614019565b508315610ff55760405162461bcd60e51b815260206004820181905260248201527f537472696e67733a20686578206c656e67746820696e73756666696369656e746044820152606401610ad6565b6140e68161381a565b6040516001600160a01b038216907fbc7cd75a20ee27fd9adebab32041f755214dbc6bffa90cc0225b39da2e5c2d3b90600090a250565b60606001600160a01b0383163b6141855760405162461bcd60e51b815260206004820152602660248201527f416464726573733a2064656c65676174652063616c6c20746f206e6f6e2d636f6044820152651b9d1c9858dd60d21b6064820152608401610ad6565b600080846001600160a01b0316846040516141a09190614bc5565b600060405180830381855af49150503d80600081146141db576040519150601f19603f3d011682016040523d82523d6000602084013e6141e0565b606091505b509150915061117682826040518060600160405280602781526020016152c660279139614363565b600081815260018301602052604081205461424f57508154600181810184556000848152602080822090930184905584548482528286019093526040902091909155610899565b506000610899565b80516a636f6e736f6c652e6c6f67602083016000808483855afa5050505050565b6138db8484848460405160240161429294939291906151fd565b60408051601f198184030181529190526020810180516001600160e01b0316636eb7943d60e01b179052614257565b6000610899825490565b610b668383836040516024016142e393929190615233565b60408051601f198184030181529190526020810180516001600160e01b031663969cdd0360e01b179052614257565b6000610ff5838361439c565b610bff8282604051602401614334929190615258565b60408051601f198184030181529190526020810180516001600160e01b031663319af33360e01b179052614257565b60608315614372575081610ff5565b8251156143825782518084602001fd5b8160405162461bcd60e51b8152600401610ad69190614555565b60008260000182815481106143b3576143b36151d0565b9060005260206000200154905092915050565b8280546143d290614a43565b90600052602060002090601f0160209004810192826143f4576000855561443a565b82601f1061440d5782800160ff1982351617855561443a565b8280016001018555821561443a579182015b8281111561443a57823582559160200191906001019061441f565b506144469291506144be565b5090565b82805461445690614a43565b90600052602060002090601f016020900481019282614478576000855561443a565b82601f1061449157805160ff191683800117855561443a565b8280016001018555821561443a579182015b8281111561443a5782518255916020019190600101906144a3565b5b8082111561444657600081556001016144bf565b6000602082840312156144e557600080fd5b81356001600160e01b031981168114610ff557600080fd5b60005b83811015614518578181015183820152602001614500565b838111156138db5750506000910152565b600081518084526145418160208601602086016144fd565b601f01601f19169290920160200192915050565b602081526000610ff56020830184614529565b60008083601f84011261457a57600080fd5b5081356001600160401b0381111561459157600080fd5b602083019150836020828501011115612c7c57600080fd5b6001600160a01b0381168114610cc857600080fd5b6000806000806000606086880312156145d657600080fd5b85356001600160401b03808211156145ed57600080fd5b6145f989838a01614568565b9097509550602088013591508082111561461257600080fd5b5061461f88828901614568565b9094509250506040860135614633816145a9565b809150509295509295909350565b60006020828403121561465357600080fd5b8135610ff5816145a9565b60006020828403121561467057600080fd5b5035919050565b6000806040838503121561468a57600080fd5b82359150602083013561469c816145a9565b809150509250929050565b634e487b7160e01b600052604160045260246000fd5b60405160a081016001600160401b03811182821017156146df576146df6146a7565b60405290565b604051601f8201601f191681016001600160401b038111828210171561470d5761470d6146a7565b604052919050565b60006001600160401b0382111561472e5761472e6146a7565b50601f01601f191660200190565b600082601f83011261474d57600080fd5b813561476061475b82614715565b6146e5565b81815284602083860101111561477557600080fd5b816020850160208301376000918101602001919091529392505050565b600080604083850312156147a557600080fd5b82356147b0816145a9565b915060208301356001600160401b038111156147cb57600080fd5b6147d78582860161473c565b9150509250929050565b634e487b7160e01b600052602160045260246000fd5b602081016008831061480b5761480b6147e1565b91905290565b8015158114610cc857600080fd5b60006020828403121561483157600080fd5b8135610ff581614811565b60048110610cc857600080fd5b6000806000806060858703121561485f57600080fd5b84356001600160401b0381111561487557600080fd5b61488187828801614568565b90955093505060208501359150604085013561489c8161483c565b939692955090935050565b600080604083850312156148ba57600080fd5b8235915060208301356001600160401b038111156147cb57600080fd5b803560058110611bb657600080fd5b60008060008060008060c087890312156148ff57600080fd5b86359550602087013594506040870135614918816145a9565b935060608701356149288161483c565b9250614936608088016148d7565b915060a08701356001600160401b0381111561495157600080fd5b61495d89828a0161473c565b9150509295509295509295565b6000806040838503121561497d57600080fd5b82356001600160401b038082111561499457600080fd5b9084019060a082870312156149a857600080fd5b6149b06146bd565b8235815260208301356149c28161483c565b60208201526149d3604084016148d7565b60408201526060830135828111156149ea57600080fd5b6149f68882860161473c565b606083015250608083013582811115614a0e57600080fd5b614a1a8882860161473c565b60808301525093506020850135915080821115614a3657600080fd5b506147d78582860161473c565b600181811c90821680614a5757607f821691505b6020821081036114ca57634e487b7160e01b600052602260045260246000fd5b634e487b7160e01b600052601160045260246000fd5b600063ffffffff83811690831681811015614aaa57614aaa614a77565b039392505050565b6020808252602c908201527f46756e6374696f6e206d7573742062652063616c6c6564207468726f7567682060408201526b19195b1959d85d1958d85b1b60a21b606082015260800190565b6020808252602c908201527f46756e6374696f6e206d7573742062652063616c6c6564207468726f7567682060408201526b6163746976652070726f787960a01b606082015260800190565b60048110610cc857610cc86147e1565b60058110614b6a57614b6a6147e1565b9052565b868152602081018690526001600160a01b0385166040820152614b9084614b4a565b836060820152614ba36080820184614b5a565b60c060a08201526000614bb960c0830184614529565b98975050505050505050565b60008251614bd78184602087016144fd565b9190910192915050565b600060208284031215614bf357600080fd5b8151610ff581614811565b60006001600160401b03808316818516808303821115614c2057614c20614a77565b01949350505050565b6020808252602e908201527f496e697469616c697a61626c653a20636f6e747261637420697320616c72656160408201526d191e481a5b9a5d1a585b1a5e995960921b606082015260800190565b600060208284031215614c8957600080fd5b5051919050565b634e487b7160e01b600052601260045260246000fd5b600063ffffffff80841680614cbd57614cbd614c90565b92169190910492915050565b600063ffffffff808316818516808303821115614c2057614c20614a77565b614cf183614b4a565b828152604060208201526000612b5a6040830184614529565b600082601f830112614d1b57600080fd5b8151614d2961475b82614715565b818152846020838601011115614d3e57600080fd5b612b5a8260208301602087016144fd565b600060208284031215614d6157600080fd5b81516001600160401b0380821115614d7857600080fd5b9083019060408286031215614d8c57600080fd5b604051604081018181108382111715614da757614da76146a7565b604052825182811115614db957600080fd5b614dc587828601614d0a565b82525060208301519250614dd8836145a9565b6020810192909252509392505050565b600060808284031215614dfa57600080fd5b604051608081016001600160401b038282108183111715614e1d57614e1d6146a7565b816040528293508451915080821115614e3557600080fd5b50614e4285828601614d0a565b825250602083015160208201526040830151614e5d816145a9565b6040820152606083015161ffff81168114614e7757600080fd5b6060919091015292915050565b600060208284031215614e9657600080fd5b81516001600160401b03811115614eac57600080fd5b612b5a84828501614de8565b6000816000190483118215151615614ed257614ed2614a77565b500290565b600082614ee657614ee6614c90565b500490565b600060208284031215614efd57600080fd5b604051602081018181106001600160401b0382111715614f1f57614f1f6146a7565b80604052508091508251614f32816145a9565b905292915050565b600060208284031215614f4c57600080fd5b610ff58383614eeb565b87815260208101879052604081018690526001600160a01b038516606082015260e08101614f8385614b4a565b846080830152614f9660a0830185614b5a565b8260c083015298975050505050505050565b8381528260208201526060604082015260006111766060830184614529565b60208082526026908201527f7374617274757020746f6b656e206f666665722073686f756c64206e6f74206260408201526565207a65726f60d01b606082015260800190565b60208082526027908201527f7374617274757020736861726564207374616b652073686f756c64206e6f74206040820152666265207a65726f60c81b606082015260800190565b85815284602082015283604082015260a06060820152600061507960a0830185614529565b905061ffff831660808301529695505050505050565b7f416363657373436f6e74726f6c3a206163636f756e74200000000000000000008152600083516150c78160178501602088016144fd565b7001034b99036b4b9b9b4b733903937b6329607d1b60179184019182015283516150f88160288401602088016144fd565b01602801949350505050565b60006001820161511657615116614a77565b5060010190565b600080835481600182811c91508083168061513957607f831692505b6020808410820361515857634e487b7160e01b86526022600452602486fd5b81801561516c576001811461517d576151aa565b60ff198616895284890196506151aa565b60008a81526020902060005b868110156151a25781548b820152908501908301615189565b505084890196505b509498975050505050505050565b600082198211156151cb576151cb614a77565b500190565b634e487b7160e01b600052603260045260246000fd5b6000816151f5576151f5614a77565b506000190190565b6080815260006152106080830187614529565b6001600160a01b0395861660208401529390941660408201526060015292915050565b6060815260006152466060830186614529565b60208301949094525060400152919050565b60408152600061526b6040830185614529565b905060018060a01b0383166020830152939250505056fe360894a13ba1a3210667c828492db98dca3e2076cc3735a920a3ca505d382bbc6578697374207472616e7366657220253520636f6d6d697373696f6e202e202e202e20416464726573733a206c6f772d6c6576656c2064656c65676174652063616c6c206661696c6564726573657276656420616464726573733a2025732c20726563656976657220616464726573733a2025732c20616d6f756e743a202573a49807205ce4d355092ef5a8a18f56e8913cf4a201fbe287825b095693c217756578697374207472616e7366657220746f6b656e4f6666736572202e202e202e206578697374207472616e736665722025312070726f706f736572202e202e202e20a26469706673582212202b0216cd0626b856bf7445beaecda3d97a6d44f385977c62e1a069e9b7dfb87464736f6c634300080e0033",
  "linkReferences": {},
  "deployedLinkReferences": {},
  "devdoc": {
    "kind": "dev",
    "methods": {
      "cancel(bytes32,string)": {
        "details": "Cancel a proposal. Cancels a proposal only if sender is the proposer. We need to decide to conditions of consensus cancelation Emits a {ProposalCanceled} event."
      },
      "castVote(string,bytes32,uint8)": {
        "details": "Cast a vote Emits a {VoteCast} event."
      },
      "castVoteAdmin(bytes32)": {
        "details": "Cast a vote Emits a {VoteCast} event."
      },
      "disableValidator(address)": {
        "details": "disableValidator\""
      },
      "execute(bytes32)": {
        "details": "Execute a successful proposal. This requires the quorum to be reached, the vote to be successful, and the deadline to be reached. Emits a {ProposalExecuted} event."
      },
      "getRoleAdmin(bytes32)": {
        "details": "Returns the admin role that controls `role`. See {grantRole} and {revokeRole}. To change a role's admin, use {_setRoleAdmin}."
      },
      "grantRole(bytes32,address)": {
        "details": "Grants `role` to `account`. If `account` had not been already granted `role`, emits a {RoleGranted} event. Requirements: - the caller must have ``role``'s admin role."
      },
      "hasRole(bytes32,address)": {
        "details": "Returns `true` if `account` has been granted `role`."
      },
      "hasVoted(bytes32,address)": {
        "details": "Returns weither `account` has cast a vote on `proposalId`."
      },
      "hashProposal(bytes32,bytes32,address,uint8,uint8,bytes)": {
        "details": "Hashing function used to (re)build the proposal id from the proposal ..."
      },
      "isStartup(address)": {
        "details": "isStartup"
      },
      "isValidator(address)": {
        "details": "isValidator"
      },
      "name()": {
        "details": "Name of the governor instance (used in building the ERC712 domain separator)."
      },
      "proxiableUUID()": {
        "details": "Implementation of the ERC1822 {proxiableUUID} function. This returns the storage slot used by the implementation. It is used to validate that the this implementation remains valid after an upgrade. IMPORTANT: A proxy pointing at a proxiable contract should not be considered proxiable itself, because this risks bricking a proxy that upgrades to it, by delegating to itself until out of gas. Thus it is critical that this function revert if invoked through a proxy. This is guaranteed by the `notDelegated` modifier."
      },
      "renounceRole(bytes32,address)": {
        "details": "Revokes `role` from the calling account. Roles are often managed via {grantRole} and {revokeRole}: this function's purpose is to provide a mechanism for accounts to lose their privileges if they are compromised (such as when a trusted device is misplaced). If the calling account had been revoked `role`, emits a {RoleRevoked} event. Requirements: - the caller must be `account`."
      },
      "revokeRole(bytes32,address)": {
        "details": "Revokes `role` from `account`. If `account` had been granted `role`, emits a {RoleRevoked} event. Requirements: - the caller must have ``role``'s admin role."
      },
      "state(bytes32)": {
        "details": "See {IGovernor-state}. need to change the state machine"
      },
      "supportsInterface(bytes4)": {
        "details": "See {IERC165-supportsInterface}."
      },
      "upgradeTo(address)": {
        "details": "Upgrade the implementation of the proxy to `newImplementation`. Calls {_authorizeUpgrade}. Emits an {Upgraded} event."
      },
      "upgradeToAndCall(address,bytes)": {
        "details": "Upgrade the implementation of the proxy to `newImplementation`, and subsequently execute the function call encoded in `data`. Calls {_authorizeUpgrade}. Emits an {Upgraded} event."
      },
      "version()": {
        "details": "Version of the governor instance (used in building the ERC712 domain separator). Default: \"1\""
      }
    },
    "version": 1
  },
  "evm": {
    "bytecode": {
      "linkReferences": {},
      "opcodes": "PUSH1 0xA0 PUSH1 0x40 MSTORE ADDRESS PUSH1 0x80 MSTORE CALLVALUE DUP1 ISZERO PUSH2 0x14 JUMPI PUSH1 0x0 DUP1 REVERT JUMPDEST POP PUSH1 0x80 MLOAD PUSH2 0x53BA PUSH2 0x4C PUSH1 0x0 CODECOPY PUSH1 0x0 DUP2 DUP2 PUSH2 0xC0D ADD MSTORE DUP2 DUP2 PUSH2 0xC4D ADD MSTORE DUP2 DUP2 PUSH2 0xCD5 ADD MSTORE DUP2 DUP2 PUSH2 0xD15 ADD MSTORE PUSH2 0xD8D ADD MSTORE PUSH2 0x53BA PUSH1 0x0 RETURN INVALID PUSH1 0x80 PUSH1 0x40 MSTORE PUSH1 0x4 CALLDATASIZE LT PUSH2 0x25C JUMPI PUSH1 0x0 CALLDATALOAD PUSH1 0xE0 SHR DUP1 PUSH4 0x70B0F660 GT PUSH2 0x144 JUMPI DUP1 PUSH4 0xBE5967EA GT PUSH2 0xB6 JUMPI DUP1 PUSH4 0xE751F271 GT PUSH2 0x7A JUMPI DUP1 PUSH4 0xE751F271 EQ PUSH2 0x7A0 JUMPI DUP1 PUSH4 0xEA0217CF EQ PUSH2 0x7B3 JUMPI DUP1 PUSH4 0xF8C662FF EQ PUSH2 0x7D3 JUMPI DUP1 PUSH4 0xFA2DABAD EQ PUSH2 0x7F4 JUMPI DUP1 PUSH4 0xFACD743B EQ PUSH2 0x828 JUMPI DUP1 PUSH4 0xFF666653 EQ PUSH2 0x848 JUMPI PUSH1 0x0 DUP1 REVERT JUMPDEST DUP1 PUSH4 0xBE5967EA EQ PUSH2 0x6D7 JUMPI DUP1 PUSH4 0xC0E6D5D6 EQ PUSH2 0x6F7 JUMPI DUP1 PUSH4 0xC22AB4E0 EQ PUSH2 0x72B JUMPI DUP1 PUSH4 0xD547741F EQ PUSH2 0x74C JUMPI DUP1 PUSH4 0xE0310E52 EQ PUSH2 0x76C JUMPI PUSH1 0x0 DUP1 REVERT JUMPDEST DUP1 PUSH4 0x97C0262A GT PUSH2 0x108 JUMPI DUP1 PUSH4 0x97C0262A EQ PUSH2 0x5F4 JUMPI DUP1 PUSH4 0xA217FDDF EQ PUSH2 0x615 JUMPI DUP1 PUSH4 0xA5D79624 EQ PUSH2 0x62A JUMPI DUP1 PUSH4 0xAADC3B72 EQ PUSH2 0x64A JUMPI DUP1 PUSH4 0xAFDF6710 EQ PUSH2 0x66A JUMPI DUP1 PUSH4 0xB7D6FE24 EQ PUSH2 0x6B7 JUMPI PUSH1 0x0 DUP1 REVERT JUMPDEST DUP1 PUSH4 0x70B0F660 EQ PUSH2 0x54A JUMPI DUP1 PUSH4 0x75B238FC EQ PUSH2 0x56A JUMPI DUP1 PUSH4 0x7DC0D1D0 EQ PUSH2 0x58C JUMPI DUP1 PUSH4 0x7F1E250C EQ PUSH2 0x5B4 JUMPI DUP1 PUSH4 0x91D14854 EQ PUSH2 0x5D4 JUMPI PUSH1 0x0 DUP1 REVERT JUMPDEST DUP1 PUSH4 0x30D9B773 GT PUSH2 0x1DD JUMPI DUP1 PUSH4 0x41863ED6 GT PUSH2 0x1A1 JUMPI DUP1 PUSH4 0x41863ED6 EQ PUSH2 0x498 JUMPI DUP1 PUSH4 0x4F1EF286 EQ PUSH2 0x4C0 JUMPI DUP1 PUSH4 0x52D1902D EQ PUSH2 0x4D3 JUMPI DUP1 PUSH4 0x54FD4D50 EQ PUSH2 0x4E8 JUMPI DUP1 PUSH4 0x5AE766F3 EQ PUSH2 0x4FD JUMPI DUP1 PUSH4 0x61D585DA EQ PUSH2 0x51D JUMPI PUSH1 0x0 DUP1 REVERT JUMPDEST DUP1 PUSH4 0x30D9B773 EQ PUSH2 0x400 JUMPI DUP1 PUSH4 0x33F3533B EQ PUSH2 0x420 JUMPI DUP1 PUSH4 0x36568ABE EQ PUSH2 0x442 JUMPI DUP1 PUSH4 0x3659CFE6 EQ PUSH2 0x462 JUMPI DUP1 PUSH4 0x3932ABB1 EQ PUSH2 0x482 JUMPI PUSH1 0x0 DUP1 REVERT JUMPDEST DUP1 PUSH4 0x1FE97684 GT PUSH2 0x224 JUMPI DUP1 PUSH4 0x1FE97684 EQ PUSH2 0x331 JUMPI DUP1 PUSH4 0x211DC1A7 EQ PUSH2 0x351 JUMPI DUP1 PUSH4 0x248A9CA3 EQ PUSH2 0x38A JUMPI DUP1 PUSH4 0x25CE7586 EQ PUSH2 0x3BA JUMPI DUP1 PUSH4 0x2F2FF15D EQ PUSH2 0x3E0 JUMPI PUSH1 0x0 DUP1 REVERT JUMPDEST DUP1 PUSH4 0x1FFC9A7 EQ PUSH2 0x261 JUMPI DUP1 PUSH4 0x2A251A3 EQ PUSH2 0x296 JUMPI DUP1 PUSH4 0x6FDDE03 EQ PUSH2 0x2BA JUMPI DUP1 PUSH4 0x77F224A EQ PUSH2 0x2DC JUMPI DUP1 PUSH4 0xF43A677 EQ PUSH2 0x2FE JUMPI JUMPDEST PUSH1 0x0 DUP1 REVERT JUMPDEST CALLVALUE DUP1 ISZERO PUSH2 0x26D JUMPI PUSH1 0x0 DUP1 REVERT JUMPDEST POP PUSH2 0x281 PUSH2 0x27C CALLDATASIZE PUSH1 0x4 PUSH2 0x44D3 JUMP JUMPDEST PUSH2 0x868 JUMP JUMPDEST PUSH1 0x40 MLOAD SWAP1 ISZERO ISZERO DUP2 MSTORE PUSH1 0x20 ADD JUMPDEST PUSH1 0x40 MLOAD DUP1 SWAP2 SUB SWAP1 RETURN JUMPDEST CALLVALUE DUP1 ISZERO PUSH2 0x2A2 JUMPI PUSH1 0x0 DUP1 REVERT JUMPDEST POP PUSH2 0x2AC PUSH1 0xFF SLOAD DUP2 JUMP JUMPDEST PUSH1 0x40 MLOAD SWAP1 DUP2 MSTORE PUSH1 0x20 ADD PUSH2 0x28D JUMP JUMPDEST CALLVALUE DUP1 ISZERO PUSH2 0x2C6 JUMPI PUSH1 0x0 DUP1 REVERT JUMPDEST POP PUSH2 0x2CF PUSH2 0x89F JUMP JUMPDEST PUSH1 0x40 MLOAD PUSH2 0x28D SWAP2 SWAP1 PUSH2 0x4555 JUMP JUMPDEST CALLVALUE DUP1 ISZERO PUSH2 0x2E8 JUMPI PUSH1 0x0 DUP1 REVERT JUMPDEST POP PUSH2 0x2FC PUSH2 0x2F7 CALLDATASIZE PUSH1 0x4 PUSH2 0x45BE JUMP JUMPDEST PUSH2 0x932 JUMP JUMPDEST STOP JUMPDEST CALLVALUE DUP1 ISZERO PUSH2 0x30A JUMPI PUSH1 0x0 DUP1 REVERT JUMPDEST POP PUSH2 0x105 SLOAD PUSH2 0x31C SWAP1 PUSH4 0xFFFFFFFF AND DUP2 JUMP JUMPDEST PUSH1 0x40 MLOAD PUSH4 0xFFFFFFFF SWAP1 SWAP2 AND DUP2 MSTORE PUSH1 0x20 ADD PUSH2 0x28D JUMP JUMPDEST CALLVALUE DUP1 ISZERO PUSH2 0x33D JUMPI PUSH1 0x0 DUP1 REVERT JUMPDEST POP PUSH2 0x2FC PUSH2 0x34C CALLDATASIZE PUSH1 0x4 PUSH2 0x4641 JUMP JUMPDEST PUSH2 0x9FE JUMP JUMPDEST CALLVALUE DUP1 ISZERO PUSH2 0x35D JUMPI PUSH1 0x0 DUP1 REVERT JUMPDEST POP PUSH2 0x106 SLOAD PUSH2 0x372 SWAP1 PUSH1 0x1 PUSH1 0x1 PUSH1 0xA0 SHL SUB AND DUP2 JUMP JUMPDEST PUSH1 0x40 MLOAD PUSH1 0x1 PUSH1 0x1 PUSH1 0xA0 SHL SUB SWAP1 SWAP2 AND DUP2 MSTORE PUSH1 0x20 ADD PUSH2 0x28D JUMP JUMPDEST CALLVALUE DUP1 ISZERO PUSH2 0x396 JUMPI PUSH1 0x0 DUP1 REVERT JUMPDEST POP PUSH2 0x2AC PUSH2 0x3A5 CALLDATASIZE PUSH1 0x4 PUSH2 0x465E JUMP JUMPDEST PUSH1 0x0 SWAP1 DUP2 MSTORE PUSH1 0xC9 PUSH1 0x20 MSTORE PUSH1 0x40 SWAP1 KECCAK256 PUSH1 0x1 ADD SLOAD SWAP1 JUMP JUMPDEST CALLVALUE DUP1 ISZERO PUSH2 0x3C6 JUMPI PUSH1 0x0 DUP1 REVERT JUMPDEST POP PUSH2 0x105 SLOAD PUSH2 0x31C SWAP1 PUSH5 0x100000000 SWAP1 DIV PUSH4 0xFFFFFFFF AND DUP2 JUMP JUMPDEST CALLVALUE DUP1 ISZERO PUSH2 0x3EC JUMPI PUSH1 0x0 DUP1 REVERT JUMPDEST POP PUSH2 0x2FC PUSH2 0x3FB CALLDATASIZE PUSH1 0x4 PUSH2 0x4677 JUMP JUMPDEST PUSH2 0xB41 JUMP JUMPDEST CALLVALUE DUP1 ISZERO PUSH2 0x40C JUMPI PUSH1 0x0 DUP1 REVERT JUMPDEST POP PUSH2 0x281 PUSH2 0x41B CALLDATASIZE PUSH1 0x4 PUSH2 0x465E JUMP JUMPDEST PUSH2 0xB6B JUMP JUMPDEST CALLVALUE DUP1 ISZERO PUSH2 0x42C JUMPI PUSH1 0x0 DUP1 REVERT JUMPDEST POP PUSH2 0x105 SLOAD PUSH2 0x281 SWAP1 PUSH1 0x1 PUSH1 0x40 SHL SWAP1 DIV PUSH1 0xFF AND DUP2 JUMP JUMPDEST CALLVALUE DUP1 ISZERO PUSH2 0x44E JUMPI PUSH1 0x0 DUP1 REVERT JUMPDEST POP PUSH2 0x2FC PUSH2 0x45D CALLDATASIZE PUSH1 0x4 PUSH2 0x4677 JUMP JUMPDEST PUSH2 0xB85 JUMP JUMPDEST CALLVALUE DUP1 ISZERO PUSH2 0x46E JUMPI PUSH1 0x0 DUP1 REVERT JUMPDEST POP PUSH2 0x2FC PUSH2 0x47D CALLDATASIZE PUSH1 0x4 PUSH2 0x4641 JUMP JUMPDEST PUSH2 0xC03 JUMP JUMPDEST CALLVALUE DUP1 ISZERO PUSH2 0x48E JUMPI PUSH1 0x0 DUP1 REVERT JUMPDEST POP PUSH2 0x2AC PUSH1 0xFE SLOAD DUP2 JUMP JUMPDEST CALLVALUE DUP1 ISZERO PUSH2 0x4A4 JUMPI PUSH1 0x0 DUP1 REVERT JUMPDEST POP PUSH2 0x105 SLOAD PUSH2 0x281 SWAP1 PUSH10 0x1000000000000000000 SWAP1 DIV PUSH1 0xFF AND DUP2 JUMP JUMPDEST PUSH2 0x2FC PUSH2 0x4CE CALLDATASIZE PUSH1 0x4 PUSH2 0x4792 JUMP JUMPDEST PUSH2 0xCCB JUMP JUMPDEST CALLVALUE DUP1 ISZERO PUSH2 0x4DF JUMPI PUSH1 0x0 DUP1 REVERT JUMPDEST POP PUSH2 0x2AC PUSH2 0xD80 JUMP JUMPDEST CALLVALUE DUP1 ISZERO PUSH2 0x4F4 JUMPI PUSH1 0x0 DUP1 REVERT JUMPDEST POP PUSH2 0x2CF PUSH2 0xE33 JUMP JUMPDEST CALLVALUE DUP1 ISZERO PUSH2 0x509 JUMPI PUSH1 0x0 DUP1 REVERT JUMPDEST POP PUSH2 0x281 PUSH2 0x518 CALLDATASIZE PUSH1 0x4 PUSH2 0x4641 JUMP JUMPDEST PUSH2 0xE43 JUMP JUMPDEST CALLVALUE DUP1 ISZERO PUSH2 0x529 JUMPI PUSH1 0x0 DUP1 REVERT JUMPDEST POP PUSH2 0x53D PUSH2 0x538 CALLDATASIZE PUSH1 0x4 PUSH2 0x465E JUMP JUMPDEST PUSH2 0xEA8 JUMP JUMPDEST PUSH1 0x40 MLOAD PUSH2 0x28D SWAP2 SWAP1 PUSH2 0x47F7 JUMP JUMPDEST CALLVALUE DUP1 ISZERO PUSH2 0x556 JUMPI PUSH1 0x0 DUP1 REVERT JUMPDEST POP PUSH2 0x2FC PUSH2 0x565 CALLDATASIZE PUSH1 0x4 PUSH2 0x465E JUMP JUMPDEST PUSH2 0x1005 JUMP JUMPDEST CALLVALUE DUP1 ISZERO PUSH2 0x576 JUMPI PUSH1 0x0 DUP1 REVERT JUMPDEST POP PUSH2 0x2AC PUSH1 0x0 DUP1 MLOAD PUSH1 0x20 PUSH2 0x5323 DUP4 CODECOPY DUP2 MLOAD SWAP2 MSTORE DUP2 JUMP JUMPDEST CALLVALUE DUP1 ISZERO PUSH2 0x598 JUMPI PUSH1 0x0 DUP1 REVERT JUMPDEST POP PUSH2 0x105 SLOAD PUSH2 0x372 SWAP1 PUSH1 0x1 PUSH1 0x50 SHL SWAP1 DIV PUSH1 0x1 PUSH1 0x1 PUSH1 0xA0 SHL SUB AND DUP2 JUMP JUMPDEST CALLVALUE DUP1 ISZERO PUSH2 0x5C0 JUMPI PUSH1 0x0 DUP1 REVERT JUMPDEST POP PUSH2 0x2FC PUSH2 0x5CF CALLDATASIZE PUSH1 0x4 PUSH2 0x481F JUMP JUMPDEST PUSH2 0x1023 JUMP JUMPDEST CALLVALUE DUP1 ISZERO PUSH2 0x5E0 JUMPI PUSH1 0x0 DUP1 REVERT JUMPDEST POP PUSH2 0x281 PUSH2 0x5EF CALLDATASIZE PUSH1 0x4 PUSH2 0x4677 JUMP JUMPDEST PUSH2 0x1060 JUMP JUMPDEST CALLVALUE DUP1 ISZERO PUSH2 0x600 JUMPI PUSH1 0x0 DUP1 REVERT JUMPDEST POP PUSH2 0x101 SLOAD PUSH2 0x372 SWAP1 PUSH1 0x1 PUSH1 0x1 PUSH1 0xA0 SHL SUB AND DUP2 JUMP JUMPDEST CALLVALUE DUP1 ISZERO PUSH2 0x621 JUMPI PUSH1 0x0 DUP1 REVERT JUMPDEST POP PUSH2 0x2AC PUSH1 0x0 DUP2 JUMP JUMPDEST CALLVALUE DUP1 ISZERO PUSH2 0x636 JUMPI PUSH1 0x0 DUP1 REVERT JUMPDEST POP PUSH2 0x281 PUSH2 0x645 CALLDATASIZE PUSH1 0x4 PUSH2 0x4849 JUMP JUMPDEST PUSH2 0x108B JUMP JUMPDEST CALLVALUE DUP1 ISZERO PUSH2 0x656 JUMPI PUSH1 0x0 DUP1 REVERT JUMPDEST POP PUSH2 0x281 PUSH2 0x665 CALLDATASIZE PUSH1 0x4 PUSH2 0x4677 JUMP JUMPDEST PUSH2 0x117F JUMP JUMPDEST CALLVALUE DUP1 ISZERO PUSH2 0x676 JUMPI PUSH1 0x0 DUP1 REVERT JUMPDEST POP PUSH2 0x69E PUSH32 0xF26C159FD7D78F3848964C3ADF4AEA78577348FCB297DB019BF8F5EFBED02195 DUP2 JUMP JUMPDEST PUSH1 0x40 MLOAD PUSH1 0x1 PUSH1 0x1 PUSH1 0xE0 SHL SUB NOT SWAP1 SWAP2 AND DUP2 MSTORE PUSH1 0x20 ADD PUSH2 0x28D JUMP JUMPDEST CALLVALUE DUP1 ISZERO PUSH2 0x6C3 JUMPI PUSH1 0x0 DUP1 REVERT JUMPDEST POP PUSH2 0x281 PUSH2 0x6D2 CALLDATASIZE PUSH1 0x4 PUSH2 0x48A7 JUMP JUMPDEST PUSH2 0x119A JUMP JUMPDEST CALLVALUE DUP1 ISZERO PUSH2 0x6E3 JUMPI PUSH1 0x0 DUP1 REVERT JUMPDEST POP PUSH2 0x2AC PUSH2 0x6F2 CALLDATASIZE PUSH1 0x4 PUSH2 0x48E6 JUMP JUMPDEST PUSH2 0x136F JUMP JUMPDEST CALLVALUE DUP1 ISZERO PUSH2 0x703 JUMPI PUSH1 0x0 DUP1 REVERT JUMPDEST POP PUSH2 0x69E PUSH32 0x53CC2FAE7ECEF069DA76AE9063C3ECFA7F417173BC5191FE1BB037165D76473F DUP2 JUMP JUMPDEST CALLVALUE DUP1 ISZERO PUSH2 0x737 JUMPI PUSH1 0x0 DUP1 REVERT JUMPDEST POP PUSH2 0x100 SLOAD PUSH2 0x372 SWAP1 PUSH1 0x1 PUSH1 0x1 PUSH1 0xA0 SHL SUB AND DUP2 JUMP JUMPDEST CALLVALUE DUP1 ISZERO PUSH2 0x758 JUMPI PUSH1 0x0 DUP1 REVERT JUMPDEST POP PUSH2 0x2FC PUSH2 0x767 CALLDATASIZE PUSH1 0x4 PUSH2 0x4677 JUMP JUMPDEST PUSH2 0x13AE JUMP JUMPDEST CALLVALUE DUP1 ISZERO PUSH2 0x778 JUMPI PUSH1 0x0 DUP1 REVERT JUMPDEST POP PUSH2 0x69E PUSH32 0x23B872DD7302113369CDA2901243429419BEC145408FA8B352B3DD92B66C680B DUP2 JUMP JUMPDEST PUSH2 0x281 PUSH2 0x7AE CALLDATASIZE PUSH1 0x4 PUSH2 0x465E JUMP JUMPDEST PUSH2 0x13D3 JUMP JUMPDEST CALLVALUE DUP1 ISZERO PUSH2 0x7BF JUMPI PUSH1 0x0 DUP1 REVERT JUMPDEST POP PUSH2 0x2FC PUSH2 0x7CE CALLDATASIZE PUSH1 0x4 PUSH2 0x465E JUMP JUMPDEST PUSH2 0x14D0 JUMP JUMPDEST CALLVALUE DUP1 ISZERO PUSH2 0x7DF JUMPI PUSH1 0x0 DUP1 REVERT JUMPDEST POP PUSH2 0x102 SLOAD PUSH2 0x372 SWAP1 PUSH1 0x1 PUSH1 0x1 PUSH1 0xA0 SHL SUB AND DUP2 JUMP JUMPDEST CALLVALUE DUP1 ISZERO PUSH2 0x800 JUMPI PUSH1 0x0 DUP1 REVERT JUMPDEST POP PUSH2 0x2AC PUSH32 0x36FD43EDE163045B10E1F0ABD16F62F165FCE3FA7B6CDE217BCEA3BC47663ACC DUP2 JUMP JUMPDEST CALLVALUE DUP1 ISZERO PUSH2 0x834 JUMPI PUSH1 0x0 DUP1 REVERT JUMPDEST POP PUSH2 0x281 PUSH2 0x843 CALLDATASIZE PUSH1 0x4 PUSH2 0x4641 JUMP JUMPDEST PUSH2 0x14EE JUMP JUMPDEST CALLVALUE DUP1 ISZERO PUSH2 0x854 JUMPI PUSH1 0x0 DUP1 REVERT JUMPDEST POP PUSH2 0x2AC PUSH2 0x863 CALLDATASIZE PUSH1 0x4 PUSH2 0x496A JUMP JUMPDEST PUSH2 0x1520 JUMP JUMPDEST PUSH1 0x0 PUSH1 0x1 PUSH1 0x1 PUSH1 0xE0 SHL SUB NOT DUP3 AND PUSH4 0x7965DB0B PUSH1 0xE0 SHL EQ DUP1 PUSH2 0x899 JUMPI POP PUSH4 0x1FFC9A7 PUSH1 0xE0 SHL PUSH1 0x1 PUSH1 0x1 PUSH1 0xE0 SHL SUB NOT DUP4 AND EQ JUMPDEST SWAP3 SWAP2 POP POP JUMP JUMPDEST PUSH1 0x60 PUSH2 0x103 DUP1 SLOAD PUSH2 0x8AF SWAP1 PUSH2 0x4A43 JUMP JUMPDEST DUP1 PUSH1 0x1F ADD PUSH1 0x20 DUP1 SWAP2 DIV MUL PUSH1 0x20 ADD PUSH1 0x40 MLOAD SWAP1 DUP2 ADD PUSH1 0x40 MSTORE DUP1 SWAP3 SWAP2 SWAP1 DUP2 DUP2 MSTORE PUSH1 0x20 ADD DUP3 DUP1 SLOAD PUSH2 0x8DB SWAP1 PUSH2 0x4A43 JUMP JUMPDEST DUP1 ISZERO PUSH2 0x928 JUMPI DUP1 PUSH1 0x1F LT PUSH2 0x8FD JUMPI PUSH2 0x100 DUP1 DUP4 SLOAD DIV MUL DUP4 MSTORE SWAP2 PUSH1 0x20 ADD SWAP2 PUSH2 0x928 JUMP JUMPDEST DUP3 ADD SWAP2 SWAP1 PUSH1 0x0 MSTORE PUSH1 0x20 PUSH1 0x0 KECCAK256 SWAP1 JUMPDEST DUP2 SLOAD DUP2 MSTORE SWAP1 PUSH1 0x1 ADD SWAP1 PUSH1 0x20 ADD DUP1 DUP4 GT PUSH2 0x90B JUMPI DUP3 SWAP1 SUB PUSH1 0x1F AND DUP3 ADD SWAP2 JUMPDEST POP POP POP POP POP SWAP1 POP SWAP1 JUMP JUMPDEST PUSH1 0x2 PUSH1 0x0 PUSH2 0x93F DUP3 PUSH2 0x1B2E JUMP JUMPDEST SWAP1 POP DUP1 ISZERO PUSH2 0x957 JUMPI PUSH1 0x0 DUP1 SLOAD PUSH2 0xFF00 NOT AND PUSH2 0x100 OR SWAP1 SSTORE JUMPDEST PUSH2 0x105 DUP1 SLOAD PUSH32 0xFFFF0000000000000000000000000000000000000000FFFFFFFFFFFFFFFFFFFF AND PUSH1 0x1 PUSH1 0x50 SHL PUSH1 0x1 PUSH1 0x1 PUSH1 0xA0 SHL SUB DUP7 AND MUL OR SWAP1 SSTORE PUSH2 0x99E PUSH2 0x103 DUP9 DUP9 PUSH2 0x43C6 JUMP JUMPDEST POP PUSH2 0x9AC PUSH2 0x104 DUP7 DUP7 PUSH2 0x43C6 JUMP JUMPDEST POP DUP1 ISZERO PUSH2 0x9F5 JUMPI PUSH1 0x0 DUP1 SLOAD PUSH2 0xFF00 NOT AND SWAP1 SSTORE PUSH1 0x40 MLOAD PUSH1 0xFF DUP4 AND DUP2 MSTORE PUSH32 0x7F26B83FF96E1F2B6A682F133852F6798A09C465DA95921460CEFB3847402498 SWAP1 PUSH1 0x20 ADD PUSH1 0x40 MLOAD DUP1 SWAP2 SUB SWAP1 LOG1 JUMPDEST POP POP POP POP POP POP POP JUMP JUMPDEST PUSH1 0x0 DUP1 MLOAD PUSH1 0x20 PUSH2 0x5323 DUP4 CODECOPY DUP2 MLOAD SWAP2 MSTORE PUSH2 0xA16 DUP2 PUSH2 0x1BBB JUMP JUMPDEST PUSH1 0x1 PUSH1 0x1 PUSH1 0x1 PUSH1 0xA0 SHL SUB DUP4 AND PUSH1 0x0 SWAP1 DUP2 MSTORE PUSH1 0xFB PUSH1 0x20 MSTORE PUSH1 0x40 SWAP1 KECCAK256 PUSH1 0x1 ADD SLOAD PUSH1 0xFF AND PUSH1 0x2 DUP2 GT ISZERO PUSH2 0xA48 JUMPI PUSH2 0xA48 PUSH2 0x47E1 JUMP JUMPDEST EQ DUP1 ISZERO PUSH2 0xA77 JUMPI POP PUSH1 0x1 PUSH1 0x1 PUSH1 0xA0 SHL SUB DUP3 AND PUSH1 0x0 SWAP1 DUP2 MSTORE PUSH1 0xFB PUSH1 0x20 MSTORE PUSH1 0x40 SWAP1 KECCAK256 PUSH1 0x1 ADD SLOAD PUSH2 0x100 SWAP1 DIV PUSH1 0xFF AND ISZERO ISZERO JUMPDEST PUSH2 0xADF JUMPI PUSH1 0x40 MLOAD PUSH3 0x461BCD PUSH1 0xE5 SHL DUP2 MSTORE PUSH1 0x20 PUSH1 0x4 DUP3 ADD MSTORE PUSH1 0x2E PUSH1 0x24 DUP3 ADD MSTORE PUSH32 0x56616C696461746F723A206F6E6C792065786973742076616C696461746F7220 PUSH1 0x44 DUP3 ADD MSTORE PUSH14 0x63616E2062652064697361626C65 PUSH1 0x90 SHL PUSH1 0x64 DUP3 ADD MSTORE PUSH1 0x84 ADD JUMPDEST PUSH1 0x40 MLOAD DUP1 SWAP2 SUB SWAP1 REVERT JUMPDEST PUSH1 0x1 PUSH1 0x1 PUSH1 0xA0 SHL SUB DUP3 AND PUSH1 0x0 SWAP1 DUP2 MSTORE PUSH1 0xFB PUSH1 0x20 MSTORE PUSH1 0x40 DUP2 KECCAK256 PUSH1 0x1 SWAP1 DUP2 ADD DUP1 SLOAD PUSH2 0xFF00 NOT AND SWAP1 SSTORE PUSH2 0x105 DUP1 SLOAD SWAP2 SWAP3 SWAP1 SWAP2 PUSH2 0xB1F SWAP1 DUP5 SWAP1 PUSH4 0xFFFFFFFF AND PUSH2 0x4A8D JUMP JUMPDEST SWAP3 POP PUSH2 0x100 EXP DUP2 SLOAD DUP2 PUSH4 0xFFFFFFFF MUL NOT AND SWAP1 DUP4 PUSH4 0xFFFFFFFF AND MUL OR SWAP1 SSTORE POP POP POP JUMP JUMPDEST PUSH1 0x0 DUP3 DUP2 MSTORE PUSH1 0xC9 PUSH1 0x20 MSTORE PUSH1 0x40 SWAP1 KECCAK256 PUSH1 0x1 ADD SLOAD PUSH2 0xB5C DUP2 PUSH2 0x1BBB JUMP JUMPDEST PUSH2 0xB66 DUP4 DUP4 PUSH2 0x1BC5 JUMP JUMPDEST POP POP POP JUMP JUMPDEST PUSH1 0x0 PUSH1 0x0 DUP1 MLOAD PUSH1 0x20 PUSH2 0x5323 DUP4 CODECOPY DUP2 MLOAD SWAP2 MSTORE PUSH2 0x25C DUP2 PUSH2 0x1BBB JUMP JUMPDEST PUSH1 0x1 PUSH1 0x1 PUSH1 0xA0 SHL SUB DUP2 AND CALLER EQ PUSH2 0xBF5 JUMPI PUSH1 0x40 MLOAD PUSH3 0x461BCD PUSH1 0xE5 SHL DUP2 MSTORE PUSH1 0x20 PUSH1 0x4 DUP3 ADD MSTORE PUSH1 0x2F PUSH1 0x24 DUP3 ADD MSTORE PUSH32 0x416363657373436F6E74726F6C3A2063616E206F6E6C792072656E6F756E6365 PUSH1 0x44 DUP3 ADD MSTORE PUSH15 0x103937B632B9903337B91039B2B633 PUSH1 0x89 SHL PUSH1 0x64 DUP3 ADD MSTORE PUSH1 0x84 ADD PUSH2 0xAD6 JUMP JUMPDEST PUSH2 0xBFF DUP3 DUP3 PUSH2 0x1C4B JUMP JUMPDEST POP POP JUMP JUMPDEST PUSH1 0x1 PUSH1 0x1 PUSH1 0xA0 SHL SUB PUSH32 0x0 AND ADDRESS SUB PUSH2 0xC4B JUMPI PUSH1 0x40 MLOAD PUSH3 0x461BCD PUSH1 0xE5 SHL DUP2 MSTORE PUSH1 0x4 ADD PUSH2 0xAD6 SWAP1 PUSH2 0x4AB2 JUMP JUMPDEST PUSH32 0x0 PUSH1 0x1 PUSH1 0x1 PUSH1 0xA0 SHL SUB AND PUSH2 0xC7D PUSH2 0x1CB2 JUMP JUMPDEST PUSH1 0x1 PUSH1 0x1 PUSH1 0xA0 SHL SUB AND EQ PUSH2 0xCA3 JUMPI PUSH1 0x40 MLOAD PUSH3 0x461BCD PUSH1 0xE5 SHL DUP2 MSTORE PUSH1 0x4 ADD PUSH2 0xAD6 SWAP1 PUSH2 0x4AFE JUMP JUMPDEST PUSH2 0xCAC DUP2 PUSH2 0x1CCE JUMP JUMPDEST PUSH1 0x40 DUP1 MLOAD PUSH1 0x0 DUP1 DUP3 MSTORE PUSH1 0x20 DUP3 ADD SWAP1 SWAP3 MSTORE PUSH2 0xCC8 SWAP2 DUP4 SWAP2 SWAP1 PUSH2 0x1D57 JUMP JUMPDEST POP JUMP JUMPDEST PUSH1 0x1 PUSH1 0x1 PUSH1 0xA0 SHL SUB PUSH32 0x0 AND ADDRESS SUB PUSH2 0xD13 JUMPI PUSH1 0x40 MLOAD PUSH3 0x461BCD PUSH1 0xE5 SHL DUP2 MSTORE PUSH1 0x4 ADD PUSH2 0xAD6 SWAP1 PUSH2 0x4AB2 JUMP JUMPDEST PUSH32 0x0 PUSH1 0x1 PUSH1 0x1 PUSH1 0xA0 SHL SUB AND PUSH2 0xD45 PUSH2 0x1CB2 JUMP JUMPDEST PUSH1 0x1 PUSH1 0x1 PUSH1 0xA0 SHL SUB AND EQ PUSH2 0xD6B JUMPI PUSH1 0x40 MLOAD PUSH3 0x461BCD PUSH1 0xE5 SHL DUP2 MSTORE PUSH1 0x4 ADD PUSH2 0xAD6 SWAP1 PUSH2 0x4AFE JUMP JUMPDEST PUSH2 0xD74 DUP3 PUSH2 0x1CCE JUMP JUMPDEST PUSH2 0xBFF DUP3 DUP3 PUSH1 0x1 PUSH2 0x1D57 JUMP JUMPDEST PUSH1 0x0 ADDRESS PUSH1 0x1 PUSH1 0x1 PUSH1 0xA0 SHL SUB PUSH32 0x0 AND EQ PUSH2 0xE20 JUMPI PUSH1 0x40 MLOAD PUSH3 0x461BCD PUSH1 0xE5 SHL DUP2 MSTORE PUSH1 0x20 PUSH1 0x4 DUP3 ADD MSTORE PUSH1 0x38 PUSH1 0x24 DUP3 ADD MSTORE PUSH32 0x555550535570677261646561626C653A206D757374206E6F742062652063616C PUSH1 0x44 DUP3 ADD MSTORE PUSH32 0x6C6564207468726F7567682064656C656761746563616C6C0000000000000000 PUSH1 0x64 DUP3 ADD MSTORE PUSH1 0x84 ADD PUSH2 0xAD6 JUMP JUMPDEST POP PUSH1 0x0 DUP1 MLOAD PUSH1 0x20 PUSH2 0x5283 DUP4 CODECOPY DUP2 MLOAD SWAP2 MSTORE SWAP1 JUMP JUMPDEST PUSH1 0x60 PUSH2 0x104 DUP1 SLOAD PUSH2 0x8AF SWAP1 PUSH2 0x4A43 JUMP JUMPDEST PUSH1 0x1 PUSH1 0x1 PUSH1 0xA0 SHL SUB DUP2 AND PUSH1 0x0 SWAP1 DUP2 MSTORE PUSH1 0xFB PUSH1 0x20 MSTORE PUSH1 0x40 DUP2 KECCAK256 PUSH1 0x1 ADD SLOAD PUSH2 0x100 SWAP1 DIV PUSH1 0xFF AND DUP1 ISZERO PUSH2 0x899 JUMPI POP PUSH1 0x2 JUMPDEST PUSH1 0x1 PUSH1 0x1 PUSH1 0xA0 SHL SUB DUP4 AND PUSH1 0x0 SWAP1 DUP2 MSTORE PUSH1 0xFB PUSH1 0x20 MSTORE PUSH1 0x40 SWAP1 KECCAK256 PUSH1 0x1 ADD SLOAD PUSH1 0xFF AND PUSH1 0x2 DUP2 GT ISZERO PUSH2 0xEA1 JUMPI PUSH2 0xEA1 PUSH2 0x47E1 JUMP JUMPDEST EQ SWAP3 SWAP2 POP POP JUMP JUMPDEST PUSH1 0x0 DUP2 DUP2 MSTORE PUSH1 0xFD PUSH1 0x20 MSTORE PUSH1 0x40 DUP2 KECCAK256 PUSH1 0x1 DUP2 ADD SLOAD DUP3 SUB PUSH2 0xF01 JUMPI PUSH1 0x40 MLOAD PUSH3 0x461BCD PUSH1 0xE5 SHL DUP2 MSTORE PUSH1 0x20 PUSH1 0x4 DUP3 ADD MSTORE PUSH1 0x15 PUSH1 0x24 DUP3 ADD MSTORE PUSH21 0x1C1C9BDC1BDCD85B1259081A5CC81A5B9D985B1A59 PUSH1 0x5A SHL PUSH1 0x44 DUP3 ADD MSTORE PUSH1 0x64 ADD PUSH2 0xAD6 JUMP JUMPDEST PUSH1 0x6 DUP2 ADD SLOAD PUSH3 0x10000 SWAP1 DIV PUSH1 0xFF AND ISZERO PUSH2 0xF1D JUMPI POP PUSH1 0x7 SWAP3 SWAP2 POP POP JUMP JUMPDEST PUSH1 0x6 DUP2 ADD SLOAD PUSH4 0x1000000 SWAP1 DIV PUSH1 0xFF AND ISZERO PUSH2 0xF3A JUMPI POP PUSH1 0x3 SWAP3 SWAP2 POP POP JUMP JUMPDEST PUSH1 0x40 DUP1 MLOAD PUSH1 0x20 DUP2 ADD SWAP1 SWAP2 MSTORE PUSH1 0x4 DUP3 ADD SLOAD PUSH1 0x1 PUSH1 0x1 PUSH1 0x40 SHL SUB AND SWAP1 DUP2 SWAP1 MSTORE TIMESTAMP LT ISZERO PUSH2 0xF67 JUMPI POP PUSH1 0x1 SWAP3 SWAP2 POP POP JUMP JUMPDEST PUSH1 0x40 DUP1 MLOAD PUSH1 0x20 DUP2 ADD SWAP1 SWAP2 MSTORE PUSH1 0x5 DUP3 ADD SLOAD PUSH1 0x1 PUSH1 0x1 PUSH1 0x40 SHL SUB AND SWAP1 DUP2 SWAP1 MSTORE TIMESTAMP LT DUP1 ISZERO PUSH2 0xF98 JUMPI POP PUSH2 0xF96 DUP4 PUSH2 0x1EC2 JUMP JUMPDEST ISZERO JUMPDEST ISZERO PUSH2 0xFA6 JUMPI POP PUSH1 0x2 SWAP3 SWAP2 POP POP JUMP JUMPDEST PUSH1 0x40 DUP1 MLOAD PUSH1 0x20 DUP2 ADD SWAP1 SWAP2 MSTORE PUSH1 0x5 DUP3 ADD SLOAD PUSH1 0x1 PUSH1 0x1 PUSH1 0x40 SHL SUB AND DUP2 MSTORE PUSH2 0xFCA SWAP1 PUSH2 0x1F21 JUMP JUMPDEST DUP1 PUSH2 0xFD9 JUMPI POP PUSH2 0xFD9 DUP4 PUSH2 0x1EC2 JUMP JUMPDEST ISZERO PUSH2 0xFFC JUMPI PUSH2 0xFE7 DUP4 PUSH2 0x1F50 JUMP JUMPDEST PUSH2 0xFF2 JUMPI PUSH1 0x4 PUSH2 0xFF5 JUMP JUMPDEST PUSH1 0x5 JUMPDEST SWAP4 SWAP3 POP POP POP JUMP JUMPDEST POP PUSH1 0x0 SWAP3 SWAP2 POP POP JUMP JUMPDEST PUSH1 0x0 DUP1 MLOAD PUSH1 0x20 PUSH2 0x5323 DUP4 CODECOPY DUP2 MLOAD SWAP2 MSTORE PUSH2 0x101D DUP2 PUSH2 0x1BBB JUMP JUMPDEST POP PUSH1 0xFE SSTORE JUMP JUMPDEST PUSH1 0x0 DUP1 MLOAD PUSH1 0x20 PUSH2 0x5323 DUP4 CODECOPY DUP2 MLOAD SWAP2 MSTORE PUSH2 0x103B DUP2 PUSH2 0x1BBB JUMP JUMPDEST POP PUSH2 0x105 DUP1 SLOAD SWAP2 ISZERO ISZERO PUSH1 0x1 PUSH1 0x40 SHL MUL PUSH9 0xFF0000000000000000 NOT SWAP1 SWAP3 AND SWAP2 SWAP1 SWAP2 OR SWAP1 SSTORE JUMP JUMPDEST PUSH1 0x0 SWAP2 DUP3 MSTORE PUSH1 0xC9 PUSH1 0x20 SWAP1 DUP2 MSTORE PUSH1 0x40 DUP1 DUP5 KECCAK256 PUSH1 0x1 PUSH1 0x1 PUSH1 0xA0 SHL SUB SWAP4 SWAP1 SWAP4 AND DUP5 MSTORE SWAP2 SWAP1 MSTORE SWAP1 KECCAK256 SLOAD PUSH1 0xFF AND SWAP1 JUMP JUMPDEST CALLER PUSH1 0x0 SWAP1 DUP2 MSTORE PUSH1 0xFB PUSH1 0x20 MSTORE PUSH1 0x40 DUP2 KECCAK256 PUSH1 0x1 SWAP1 DUP2 ADD SLOAD PUSH1 0xFF AND PUSH1 0x2 DUP2 GT ISZERO PUSH2 0x10B4 JUMPI PUSH2 0x10B4 PUSH2 0x47E1 JUMP JUMPDEST EQ DUP1 ISZERO PUSH2 0x10DD JUMPI POP CALLER PUSH1 0x0 SWAP1 DUP2 MSTORE PUSH1 0xFB PUSH1 0x20 MSTORE PUSH1 0x40 SWAP1 KECCAK256 PUSH1 0x1 SWAP1 DUP2 ADD SLOAD PUSH2 0x100 SWAP1 DIV PUSH1 0xFF AND ISZERO ISZERO EQ JUMPDEST PUSH2 0x1134 JUMPI PUSH1 0x40 MLOAD PUSH3 0x461BCD PUSH1 0xE5 SHL DUP2 MSTORE PUSH1 0x20 PUSH1 0x4 DUP3 ADD MSTORE PUSH1 0x22 PUSH1 0x24 DUP3 ADD MSTORE PUSH32 0x476F7665726E6F723A206F6E6C792076616C696461746F72207065726D697474 PUSH1 0x44 DUP3 ADD MSTORE PUSH2 0x1959 PUSH1 0xF2 SHL PUSH1 0x64 DUP3 ADD MSTORE PUSH1 0x84 ADD PUSH2 0xAD6 JUMP JUMPDEST PUSH2 0x1176 DUP4 CALLER DUP5 DUP9 DUP9 DUP1 DUP1 PUSH1 0x1F ADD PUSH1 0x20 DUP1 SWAP2 DIV MUL PUSH1 0x20 ADD PUSH1 0x40 MLOAD SWAP1 DUP2 ADD PUSH1 0x40 MSTORE DUP1 SWAP4 SWAP3 SWAP2 SWAP1 DUP2 DUP2 MSTORE PUSH1 0x20 ADD DUP4 DUP4 DUP1 DUP3 DUP5 CALLDATACOPY PUSH1 0x0 SWAP3 ADD SWAP2 SWAP1 SWAP2 MSTORE POP PUSH2 0x1FA2 SWAP3 POP POP POP JUMP JUMPDEST SWAP6 SWAP5 POP POP POP POP POP JUMP JUMPDEST PUSH1 0x0 DUP3 DUP2 MSTORE PUSH1 0xFC PUSH1 0x20 MSTORE PUSH1 0x40 DUP2 KECCAK256 PUSH2 0xFF5 SWAP1 PUSH1 0x1 ADD DUP4 PUSH2 0x223B JUMP JUMPDEST PUSH1 0x0 DUP3 DUP2 MSTORE PUSH1 0xFD PUSH1 0x20 MSTORE PUSH1 0x40 DUP2 KECCAK256 PUSH1 0x3 ADD SLOAD PUSH1 0x1 PUSH1 0x1 PUSH1 0xA0 SHL SUB AND CALLER EQ PUSH2 0x120F JUMPI PUSH1 0x40 MLOAD PUSH3 0x461BCD PUSH1 0xE5 SHL DUP2 MSTORE PUSH1 0x20 PUSH1 0x4 DUP3 ADD MSTORE PUSH1 0x23 PUSH1 0x24 DUP3 ADD MSTORE PUSH32 0x476F7665726E6F72203A206F6E6C792070726F706F7365722063616E2063616E PUSH1 0x44 DUP3 ADD MSTORE PUSH3 0x18D95B PUSH1 0xEA SHL PUSH1 0x64 DUP3 ADD MSTORE PUSH1 0x84 ADD PUSH2 0xAD6 JUMP JUMPDEST PUSH1 0x0 PUSH2 0x121A DUP5 PUSH2 0xEA8 JUMP JUMPDEST SWAP1 POP PUSH1 0x6 DUP2 PUSH1 0x7 DUP2 GT ISZERO PUSH2 0x1230 JUMPI PUSH2 0x1230 PUSH2 0x47E1 JUMP JUMPDEST EQ ISZERO DUP1 ISZERO PUSH2 0x1250 JUMPI POP PUSH1 0x7 DUP2 PUSH1 0x7 DUP2 GT ISZERO PUSH2 0x124D JUMPI PUSH2 0x124D PUSH2 0x47E1 JUMP JUMPDEST EQ ISZERO JUMPDEST PUSH2 0x129C JUMPI PUSH1 0x40 MLOAD PUSH3 0x461BCD PUSH1 0xE5 SHL DUP2 MSTORE PUSH1 0x20 PUSH1 0x4 DUP3 ADD MSTORE PUSH1 0x1D PUSH1 0x24 DUP3 ADD MSTORE PUSH32 0x476F7665726E6F723A2070726F706F73616C206E6F7420616374697665000000 PUSH1 0x44 DUP3 ADD MSTORE PUSH1 0x64 ADD PUSH2 0xAD6 JUMP JUMPDEST PUSH1 0x3 DUP2 PUSH1 0x7 DUP2 GT ISZERO PUSH2 0x12B0 JUMPI PUSH2 0x12B0 PUSH2 0x47E1 JUMP JUMPDEST SUB PUSH2 0x1309 JUMPI PUSH1 0x40 MLOAD PUSH3 0x461BCD PUSH1 0xE5 SHL DUP2 MSTORE PUSH1 0x20 PUSH1 0x4 DUP3 ADD MSTORE PUSH1 0x23 PUSH1 0x24 DUP3 ADD MSTORE PUSH32 0x476F7665726E6F723A2070726F706F73616C20616C72656164792063616E6365 PUSH1 0x44 DUP3 ADD MSTORE PUSH3 0x1B1959 PUSH1 0xEA SHL PUSH1 0x64 DUP3 ADD MSTORE PUSH1 0x84 ADD PUSH2 0xAD6 JUMP JUMPDEST PUSH1 0x0 DUP5 DUP2 MSTORE PUSH1 0xFD PUSH1 0x20 MSTORE PUSH1 0x40 SWAP1 DUP2 SWAP1 KECCAK256 PUSH1 0x6 ADD DUP1 SLOAD PUSH4 0xFF000000 NOT AND PUSH4 0x1000000 OR SWAP1 SSTORE MLOAD DUP5 SWAP1 PUSH32 0xC3FE75BACE7821ED95B8B37722A36DFB53BDF311BEFB9C378BED48A7DB4062AA SWAP1 PUSH2 0x135D SWAP1 DUP7 SWAP1 PUSH2 0x4555 JUMP JUMPDEST PUSH1 0x40 MLOAD DUP1 SWAP2 SUB SWAP1 LOG2 POP PUSH1 0x1 SWAP4 SWAP3 POP POP POP JUMP JUMPDEST PUSH1 0x0 DUP7 DUP7 DUP7 DUP7 DUP7 DUP7 PUSH1 0x40 MLOAD PUSH1 0x20 ADD PUSH2 0x138C SWAP7 SWAP6 SWAP5 SWAP4 SWAP3 SWAP2 SWAP1 PUSH2 0x4B6E JUMP JUMPDEST PUSH1 0x40 MLOAD PUSH1 0x20 DUP2 DUP4 SUB SUB DUP2 MSTORE SWAP1 PUSH1 0x40 MSTORE DUP1 MLOAD SWAP1 PUSH1 0x20 ADD KECCAK256 SWAP1 POP SWAP7 SWAP6 POP POP POP POP POP POP JUMP JUMPDEST PUSH1 0x0 DUP3 DUP2 MSTORE PUSH1 0xC9 PUSH1 0x20 MSTORE PUSH1 0x40 SWAP1 KECCAK256 PUSH1 0x1 ADD SLOAD PUSH2 0x13C9 DUP2 PUSH2 0x1BBB JUMP JUMPDEST PUSH2 0xB66 DUP4 DUP4 PUSH2 0x1C4B JUMP JUMPDEST PUSH1 0x0 PUSH1 0x0 DUP1 MLOAD PUSH1 0x20 PUSH2 0x5323 DUP4 CODECOPY DUP2 MLOAD SWAP2 MSTORE PUSH2 0x13ED DUP2 PUSH2 0x1BBB JUMP JUMPDEST PUSH1 0x0 PUSH2 0x13F8 DUP5 PUSH2 0xEA8 JUMP JUMPDEST SWAP1 POP PUSH1 0x5 DUP2 PUSH1 0x7 DUP2 GT ISZERO PUSH2 0x140E JUMPI PUSH2 0x140E PUSH2 0x47E1 JUMP JUMPDEST EQ PUSH2 0x1465 JUMPI PUSH1 0x40 MLOAD PUSH3 0x461BCD PUSH1 0xE5 SHL DUP2 MSTORE PUSH1 0x20 PUSH1 0x4 DUP3 ADD MSTORE PUSH1 0x21 PUSH1 0x24 DUP3 ADD MSTORE PUSH32 0x476F7665726E6F723A2070726F706F73616C206E6F7420737563636573736675 PUSH1 0x44 DUP3 ADD MSTORE PUSH1 0x1B PUSH1 0xFA SHL PUSH1 0x64 DUP3 ADD MSTORE PUSH1 0x84 ADD PUSH2 0xAD6 JUMP JUMPDEST PUSH1 0x0 DUP5 DUP2 MSTORE PUSH1 0xFD PUSH1 0x20 MSTORE PUSH1 0x40 SWAP1 KECCAK256 PUSH1 0x6 DUP2 ADD DUP1 SLOAD PUSH3 0xFF0000 NOT AND PUSH3 0x10000 OR SWAP1 SSTORE PUSH1 0x1 PUSH2 0x1491 DUP3 PUSH2 0x225D JUMP JUMPDEST SWAP1 POP DUP1 ISZERO PUSH2 0x14C5 JUMPI PUSH1 0x40 MLOAD DUP7 SWAP1 PUSH32 0x7B1BCF1CCF901A11589AFFF5504D59FD0A53780EED2A952ADADE0348985139E0 SWAP1 PUSH1 0x0 SWAP1 LOG2 JUMPDEST SWAP4 POP POP POP JUMPDEST POP SWAP2 SWAP1 POP JUMP JUMPDEST PUSH1 0x0 DUP1 MLOAD PUSH1 0x20 PUSH2 0x5323 DUP4 CODECOPY DUP2 MLOAD SWAP2 MSTORE PUSH2 0x14E8 DUP2 PUSH2 0x1BBB JUMP JUMPDEST POP PUSH1 0xFF SSTORE JUMP JUMPDEST PUSH1 0x1 PUSH1 0x1 PUSH1 0xA0 SHL SUB DUP2 AND PUSH1 0x0 SWAP1 DUP2 MSTORE PUSH1 0xFB PUSH1 0x20 MSTORE PUSH1 0x40 DUP2 KECCAK256 PUSH1 0x1 ADD SLOAD PUSH2 0x100 SWAP1 DIV PUSH1 0xFF AND DUP1 ISZERO PUSH2 0x899 JUMPI POP PUSH1 0x1 PUSH2 0xE71 JUMP JUMPDEST CALLER PUSH1 0x0 SWAP1 DUP2 MSTORE PUSH1 0xFB PUSH1 0x20 MSTORE PUSH1 0x40 DUP2 KECCAK256 PUSH1 0x1 SWAP1 DUP2 ADD SLOAD PUSH1 0xFF AND PUSH1 0x2 DUP2 GT ISZERO PUSH2 0x1549 JUMPI PUSH2 0x1549 PUSH2 0x47E1 JUMP JUMPDEST EQ DUP1 ISZERO PUSH2 0x1572 JUMPI POP CALLER PUSH1 0x0 SWAP1 DUP2 MSTORE PUSH1 0xFB PUSH1 0x20 MSTORE PUSH1 0x40 SWAP1 KECCAK256 PUSH1 0x1 SWAP1 DUP2 ADD SLOAD PUSH2 0x100 SWAP1 DIV PUSH1 0xFF AND ISZERO ISZERO EQ JUMPDEST DUP1 PUSH2 0x1596 JUMPI POP PUSH2 0x1590 PUSH1 0x0 DUP1 MLOAD PUSH1 0x20 PUSH2 0x5323 DUP4 CODECOPY DUP2 MLOAD SWAP2 MSTORE CALLER PUSH2 0x1060 JUMP JUMPDEST ISZERO ISZERO PUSH1 0x1 EQ JUMPDEST PUSH2 0x15F9 JUMPI PUSH1 0x40 MLOAD PUSH3 0x461BCD PUSH1 0xE5 SHL DUP2 MSTORE PUSH1 0x20 PUSH1 0x4 DUP3 ADD MSTORE PUSH1 0x2E PUSH1 0x24 DUP3 ADD MSTORE PUSH32 0x476F7665726E6F723A206F6E6C792076616C696461746F72206F7220416D696E PUSH1 0x44 DUP3 ADD MSTORE PUSH14 0x818D85B881C195C9B5A5D1D1959 PUSH1 0x92 SHL PUSH1 0x64 DUP3 ADD MSTORE PUSH1 0x84 ADD PUSH2 0xAD6 JUMP JUMPDEST PUSH1 0x0 DUP4 PUSH1 0x20 ADD MLOAD PUSH1 0x3 DUP2 GT ISZERO PUSH2 0x1611 JUMPI PUSH2 0x1611 PUSH2 0x47E1 JUMP JUMPDEST SUB PUSH2 0x165E JUMPI PUSH1 0x40 MLOAD PUSH3 0x461BCD PUSH1 0xE5 SHL DUP2 MSTORE PUSH1 0x20 PUSH1 0x4 DUP3 ADD DUP2 SWAP1 MSTORE PUSH1 0x24 DUP3 ADD MSTORE PUSH32 0x70726F706F73616C20747970652073686F756C64206E6F74206265204E4F4E45 PUSH1 0x44 DUP3 ADD MSTORE PUSH1 0x64 ADD PUSH2 0xAD6 JUMP JUMPDEST PUSH1 0x0 DUP4 PUSH1 0x40 ADD MLOAD PUSH1 0x4 DUP2 GT ISZERO PUSH2 0x1676 JUMPI PUSH2 0x1676 PUSH2 0x47E1 JUMP JUMPDEST SUB PUSH2 0x16C3 JUMPI PUSH1 0x40 MLOAD PUSH3 0x461BCD PUSH1 0xE5 SHL DUP2 MSTORE PUSH1 0x20 PUSH1 0x4 DUP3 ADD MSTORE PUSH1 0x1E PUSH1 0x24 DUP3 ADD MSTORE PUSH32 0x616374696F6E20747970652073686F756C64206E6F74206265204E4F4E450000 PUSH1 0x44 DUP3 ADD MSTORE PUSH1 0x64 ADD PUSH2 0xAD6 JUMP JUMPDEST DUP3 PUSH1 0x80 ADD MLOAD MLOAD PUSH1 0x0 SUB PUSH2 0x1713 JUMPI PUSH1 0x40 MLOAD PUSH3 0x461BCD PUSH1 0xE5 SHL DUP2 MSTORE PUSH1 0x20 PUSH1 0x4 DUP3 ADD MSTORE PUSH1 0x18 PUSH1 0x24 DUP3 ADD MSTORE PUSH24 0x646174612073686F756C64206E6F7420626520656D707479 PUSH1 0x40 SHL PUSH1 0x44 DUP3 ADD MSTORE PUSH1 0x64 ADD PUSH2 0xAD6 JUMP JUMPDEST DUP3 MLOAD PUSH1 0x0 SUB PUSH2 0x175F JUMPI PUSH1 0x40 MLOAD PUSH3 0x461BCD PUSH1 0xE5 SHL DUP2 MSTORE PUSH1 0x20 PUSH1 0x4 DUP3 ADD MSTORE PUSH1 0x18 PUSH1 0x24 DUP3 ADD MSTORE PUSH24 0x646174612073686F756C64206E6F7420626520656D707479 PUSH1 0x40 SHL PUSH1 0x44 DUP3 ADD MSTORE PUSH1 0x64 ADD PUSH2 0xAD6 JUMP JUMPDEST PUSH2 0x1777 PUSH1 0x0 DUP1 MLOAD PUSH1 0x20 PUSH2 0x5323 DUP4 CODECOPY DUP2 MLOAD SWAP2 MSTORE CALLER PUSH2 0x1060 JUMP JUMPDEST ISZERO PUSH2 0x17E6 JUMPI PUSH1 0x1 DUP4 PUSH1 0x20 ADD MLOAD PUSH1 0x3 DUP2 GT ISZERO PUSH2 0x1794 JUMPI PUSH2 0x1794 PUSH2 0x47E1 JUMP JUMPDEST EQ PUSH2 0x17E1 JUMPI PUSH1 0x40 MLOAD PUSH3 0x461BCD PUSH1 0xE5 SHL DUP2 MSTORE PUSH1 0x20 PUSH1 0x4 DUP3 ADD MSTORE PUSH1 0x1C PUSH1 0x24 DUP3 ADD MSTORE PUSH32 0x61646D696E2070726F706F7365206F6E6C792076616C696461746F7200000000 PUSH1 0x44 DUP3 ADD MSTORE PUSH1 0x64 ADD PUSH2 0xAD6 JUMP JUMPDEST PUSH2 0x1857 JUMP JUMPDEST PUSH1 0x1 DUP4 PUSH1 0x20 ADD MLOAD PUSH1 0x3 DUP2 GT ISZERO PUSH2 0x17FE JUMPI PUSH2 0x17FE PUSH2 0x47E1 JUMP JUMPDEST SUB PUSH2 0x1857 JUMPI PUSH1 0x40 MLOAD PUSH3 0x461BCD PUSH1 0xE5 SHL DUP2 MSTORE PUSH1 0x20 PUSH1 0x4 DUP3 ADD MSTORE PUSH1 0x23 PUSH1 0x24 DUP3 ADD MSTORE PUSH32 0x76616C696461746F7220636F75646E27742070726F706F73652076616C696461 PUSH1 0x44 DUP3 ADD MSTORE PUSH3 0x3A37B9 PUSH1 0xE9 SHL PUSH1 0x64 DUP3 ADD MSTORE PUSH1 0x84 ADD PUSH2 0xAD6 JUMP JUMPDEST PUSH1 0x0 DUP4 PUSH1 0x60 ADD MLOAD PUSH1 0x40 MLOAD PUSH1 0x20 ADD PUSH2 0x186E SWAP2 SWAP1 PUSH2 0x4BC5 JUMP JUMPDEST PUSH1 0x40 MLOAD PUSH1 0x20 DUP2 DUP4 SUB SUB DUP2 MSTORE SWAP1 PUSH1 0x40 MSTORE DUP1 MLOAD SWAP1 PUSH1 0x20 ADD KECCAK256 SWAP1 POP PUSH1 0x0 PUSH2 0x18AC DUP6 PUSH1 0x0 ADD MLOAD DUP4 PUSH2 0x1898 CALLER SWAP1 JUMP JUMPDEST DUP9 PUSH1 0x20 ADD MLOAD DUP10 PUSH1 0x40 ADD MLOAD DUP11 PUSH1 0x80 ADD MLOAD PUSH2 0x2B62 JUMP JUMPDEST SWAP1 POP PUSH1 0x0 PUSH2 0x18B9 DUP3 PUSH2 0x2BC7 JUMP JUMPDEST SWAP1 POP PUSH1 0x0 DUP1 PUSH2 0x18C8 DUP4 DUP9 PUSH2 0x2C15 JUMP JUMPDEST SWAP1 SWAP3 POP SWAP1 POP PUSH1 0x0 DUP2 PUSH1 0x4 DUP2 GT ISZERO PUSH2 0x18E1 JUMPI PUSH2 0x18E1 PUSH2 0x47E1 JUMP JUMPDEST EQ PUSH2 0x1917 JUMPI DUP1 PUSH1 0x4 DUP2 GT ISZERO PUSH2 0x18F8 JUMPI PUSH2 0x18F8 PUSH2 0x47E1 JUMP JUMPDEST PUSH1 0x40 MLOAD PUSH4 0x64F17F0B PUSH1 0xE0 SHL DUP2 MSTORE PUSH1 0xFF SWAP1 SWAP2 AND PUSH1 0x4 DUP3 ADD MSTORE PUSH1 0x24 ADD PUSH2 0xAD6 JUMP JUMPDEST PUSH1 0x40 MLOAD PUSH4 0x24745215 PUSH1 0xE2 SHL DUP2 MSTORE PUSH1 0x0 DUP1 MLOAD PUSH1 0x20 PUSH2 0x5323 DUP4 CODECOPY DUP2 MLOAD SWAP2 MSTORE PUSH1 0x4 DUP3 ADD MSTORE PUSH1 0x1 PUSH1 0x1 PUSH1 0xA0 SHL SUB DUP4 AND PUSH1 0x24 DUP3 ADD MSTORE ADDRESS SWAP1 PUSH4 0x91D14854 SWAP1 PUSH1 0x44 ADD PUSH1 0x20 PUSH1 0x40 MLOAD DUP1 DUP4 SUB DUP2 DUP7 GAS STATICCALL ISZERO DUP1 ISZERO PUSH2 0x196F JUMPI RETURNDATASIZE PUSH1 0x0 DUP1 RETURNDATACOPY RETURNDATASIZE PUSH1 0x0 REVERT JUMPDEST POP POP POP POP PUSH1 0x40 MLOAD RETURNDATASIZE PUSH1 0x1F NOT PUSH1 0x1F DUP3 ADD AND DUP3 ADD DUP1 PUSH1 0x40 MSTORE POP DUP2 ADD SWAP1 PUSH2 0x1993 SWAP2 SWAP1 PUSH2 0x4BE1 JUMP JUMPDEST PUSH2 0x19EB JUMPI PUSH1 0x40 MLOAD PUSH3 0x461BCD PUSH1 0xE5 SHL DUP2 MSTORE PUSH1 0x20 PUSH1 0x4 DUP3 ADD MSTORE PUSH1 0x23 PUSH1 0x24 DUP3 ADD MSTORE PUSH32 0x70726F706F73616C206372656174696F6E207065726D697373696F6E2064656E PUSH1 0x44 DUP3 ADD MSTORE PUSH3 0x1A5959 PUSH1 0xEA SHL PUSH1 0x64 DUP3 ADD MSTORE PUSH1 0x84 ADD PUSH2 0xAD6 JUMP JUMPDEST DUP8 MLOAD PUSH1 0x0 SWAP1 PUSH2 0x1A0A SWAP1 DUP8 CALLER DUP13 PUSH1 0x20 ADD MLOAD DUP14 PUSH1 0x40 ADD MLOAD DUP15 PUSH1 0x80 ADD MLOAD PUSH2 0x136F JUMP JUMPDEST PUSH1 0x0 DUP2 DUP2 MSTORE PUSH1 0xFD PUSH1 0x20 MSTORE PUSH1 0x40 DUP2 KECCAK256 DUP3 DUP2 SSTORE PUSH1 0xFE SLOAD SWAP3 SWAP4 POP SWAP2 PUSH2 0x1A2C SWAP1 TIMESTAMP PUSH2 0x4BFE JUMP JUMPDEST SWAP1 POP PUSH1 0x0 PUSH1 0xFF SLOAD TIMESTAMP PUSH2 0x1A3E SWAP2 SWAP1 PUSH2 0x4BFE JUMP JUMPDEST PUSH1 0x4 DUP5 ADD DUP1 SLOAD PUSH8 0xFFFFFFFFFFFFFFFF NOT AND PUSH1 0x1 PUSH1 0x1 PUSH1 0x40 SHL SUB DUP6 AND OR SWAP1 SSTORE SWAP1 POP PUSH1 0x5 DUP4 ADD DUP1 SLOAD PUSH8 0xFFFFFFFFFFFFFFFF NOT AND PUSH1 0x1 PUSH1 0x1 PUSH1 0x40 SHL SUB DUP4 AND OR SWAP1 SSTORE PUSH1 0x2 DUP4 ADD DUP10 SWAP1 SSTORE DUP12 MLOAD PUSH1 0x1 DUP1 DUP6 ADD SWAP2 SWAP1 SWAP2 SSTORE PUSH1 0x3 DUP1 DUP6 ADD DUP1 SLOAD PUSH1 0x1 PUSH1 0x1 PUSH1 0xA0 SHL SUB NOT AND CALLER OR SWAP1 SSTORE PUSH1 0x20 DUP15 ADD MLOAD PUSH1 0x6 DUP7 ADD DUP1 SLOAD SWAP2 SWAP4 SWAP1 SWAP3 PUSH1 0xFF NOT SWAP1 SWAP3 AND SWAP2 DUP5 SWAP1 DUP2 GT ISZERO PUSH2 0x1ACA JUMPI PUSH2 0x1ACA PUSH2 0x47E1 JUMP JUMPDEST MUL OR SWAP1 SSTORE POP PUSH1 0x40 DUP13 ADD MLOAD PUSH1 0x6 DUP5 ADD DUP1 SLOAD PUSH2 0xFF00 NOT AND PUSH2 0x100 DUP4 PUSH1 0x4 DUP2 GT ISZERO PUSH2 0x1AF4 JUMPI PUSH2 0x1AF4 PUSH2 0x47E1 JUMP JUMPDEST MUL OR SWAP1 SSTORE POP PUSH1 0x80 DUP13 ADD MLOAD DUP1 MLOAD PUSH2 0x1B14 SWAP2 PUSH1 0x7 DUP7 ADD SWAP2 PUSH1 0x20 SWAP1 SWAP2 ADD SWAP1 PUSH2 0x444A JUMP JUMPDEST POP PUSH2 0x1B1E DUP4 PUSH2 0x2C83 JUMP JUMPDEST POP SWAP2 SWAP11 SWAP10 POP POP POP POP POP POP POP POP POP POP JUMP JUMPDEST PUSH1 0x0 DUP1 SLOAD PUSH2 0x100 SWAP1 DIV PUSH1 0xFF AND ISZERO PUSH2 0x1B75 JUMPI DUP2 PUSH1 0xFF AND PUSH1 0x1 EQ DUP1 ISZERO PUSH2 0x1B51 JUMPI POP ADDRESS EXTCODESIZE ISZERO JUMPDEST PUSH2 0x1B6D JUMPI PUSH1 0x40 MLOAD PUSH3 0x461BCD PUSH1 0xE5 SHL DUP2 MSTORE PUSH1 0x4 ADD PUSH2 0xAD6 SWAP1 PUSH2 0x4C29 JUMP JUMPDEST POP PUSH1 0x0 SWAP2 SWAP1 POP JUMP JUMPDEST PUSH1 0x0 SLOAD PUSH1 0xFF DUP1 DUP5 AND SWAP2 AND LT PUSH2 0x1B9C JUMPI PUSH1 0x40 MLOAD PUSH3 0x461BCD PUSH1 0xE5 SHL DUP2 MSTORE PUSH1 0x4 ADD PUSH2 0xAD6 SWAP1 PUSH2 0x4C29 JUMP JUMPDEST POP PUSH1 0x0 DUP1 SLOAD PUSH1 0xFF NOT AND PUSH1 0xFF SWAP3 SWAP1 SWAP3 AND SWAP2 SWAP1 SWAP2 OR SWAP1 SSTORE PUSH1 0x1 SWAP1 JUMP JUMPDEST SWAP2 SWAP1 POP JUMP JUMPDEST PUSH2 0xCC8 DUP2 CALLER PUSH2 0x37B6 JUMP JUMPDEST PUSH2 0x1BCF DUP3 DUP3 PUSH2 0x1060 JUMP JUMPDEST PUSH2 0xBFF JUMPI PUSH1 0x0 DUP3 DUP2 MSTORE PUSH1 0xC9 PUSH1 0x20 SWAP1 DUP2 MSTORE PUSH1 0x40 DUP1 DUP4 KECCAK256 PUSH1 0x1 PUSH1 0x1 PUSH1 0xA0 SHL SUB DUP6 AND DUP5 MSTORE SWAP1 SWAP2 MSTORE SWAP1 KECCAK256 DUP1 SLOAD PUSH1 0xFF NOT AND PUSH1 0x1 OR SWAP1 SSTORE PUSH2 0x1C07 CALLER SWAP1 JUMP JUMPDEST PUSH1 0x1 PUSH1 0x1 PUSH1 0xA0 SHL SUB AND DUP2 PUSH1 0x1 PUSH1 0x1 PUSH1 0xA0 SHL SUB AND DUP4 PUSH32 0x2F8788117E7EFF1D82E926EC794901D17C78024A50270940304540A733656F0D PUSH1 0x40 MLOAD PUSH1 0x40 MLOAD DUP1 SWAP2 SUB SWAP1 LOG4 POP POP JUMP JUMPDEST PUSH2 0x1C55 DUP3 DUP3 PUSH2 0x1060 JUMP JUMPDEST ISZERO PUSH2 0xBFF JUMPI PUSH1 0x0 DUP3 DUP2 MSTORE PUSH1 0xC9 PUSH1 0x20 SWAP1 DUP2 MSTORE PUSH1 0x40 DUP1 DUP4 KECCAK256 PUSH1 0x1 PUSH1 0x1 PUSH1 0xA0 SHL SUB DUP6 AND DUP1 DUP6 MSTORE SWAP3 MSTORE DUP1 DUP4 KECCAK256 DUP1 SLOAD PUSH1 0xFF NOT AND SWAP1 SSTORE MLOAD CALLER SWAP3 DUP6 SWAP2 PUSH32 0xF6391F5C32D9C69D2A47EA670B442974B53935D1EDC7FD64EB21E047A839171B SWAP2 SWAP1 LOG4 POP POP JUMP JUMPDEST PUSH1 0x0 DUP1 MLOAD PUSH1 0x20 PUSH2 0x5283 DUP4 CODECOPY DUP2 MLOAD SWAP2 MSTORE SLOAD PUSH1 0x1 PUSH1 0x1 PUSH1 0xA0 SHL SUB AND SWAP1 JUMP JUMPDEST PUSH1 0x1 PUSH1 0x1 PUSH1 0xA0 SHL SUB DUP2 AND PUSH2 0x1D16 JUMPI PUSH1 0x40 MLOAD PUSH3 0x461BCD PUSH1 0xE5 SHL DUP2 MSTORE PUSH1 0x20 PUSH1 0x4 DUP3 ADD MSTORE PUSH1 0xF PUSH1 0x24 DUP3 ADD MSTORE PUSH15 0x1859191C995CDCC81A5B9D985B1A59 PUSH1 0x8A SHL PUSH1 0x44 DUP3 ADD MSTORE PUSH1 0x64 ADD PUSH2 0xAD6 JUMP JUMPDEST PUSH2 0x1D1E PUSH2 0x1CB2 JUMP JUMPDEST PUSH2 0x106 DUP1 SLOAD PUSH1 0x1 PUSH1 0x1 PUSH1 0xA0 SHL SUB NOT AND PUSH1 0x1 PUSH1 0x1 PUSH1 0xA0 SHL SUB SWAP3 SWAP1 SWAP3 AND SWAP2 SWAP1 SWAP2 OR SWAP1 SSTORE PUSH2 0xBFF PUSH1 0x0 DUP1 MLOAD PUSH1 0x20 PUSH2 0x5323 DUP4 CODECOPY DUP2 MLOAD SWAP2 MSTORE CALLER PUSH2 0x1060 JUMP JUMPDEST PUSH32 0x4910FDFA16FED3260ED0E7147F7CC6DA11A60208B5B9406D12A635614FFD9143 SLOAD PUSH1 0xFF AND ISZERO PUSH2 0x1D8A JUMPI PUSH2 0xB66 DUP4 PUSH2 0x381A JUMP JUMPDEST DUP3 PUSH1 0x1 PUSH1 0x1 PUSH1 0xA0 SHL SUB AND PUSH4 0x52D1902D PUSH1 0x40 MLOAD DUP2 PUSH4 0xFFFFFFFF AND PUSH1 0xE0 SHL DUP2 MSTORE PUSH1 0x4 ADD PUSH1 0x20 PUSH1 0x40 MLOAD DUP1 DUP4 SUB DUP2 DUP7 GAS STATICCALL SWAP3 POP POP POP DUP1 ISZERO PUSH2 0x1DE4 JUMPI POP PUSH1 0x40 DUP1 MLOAD PUSH1 0x1F RETURNDATASIZE SWAP1 DUP2 ADD PUSH1 0x1F NOT AND DUP3 ADD SWAP1 SWAP3 MSTORE PUSH2 0x1DE1 SWAP2 DUP2 ADD SWAP1 PUSH2 0x4C77 JUMP JUMPDEST PUSH1 0x1 JUMPDEST PUSH2 0x1E47 JUMPI PUSH1 0x40 MLOAD PUSH3 0x461BCD PUSH1 0xE5 SHL DUP2 MSTORE PUSH1 0x20 PUSH1 0x4 DUP3 ADD MSTORE PUSH1 0x2E PUSH1 0x24 DUP3 ADD MSTORE PUSH32 0x45524331393637557067726164653A206E657720696D706C656D656E74617469 PUSH1 0x44 DUP3 ADD MSTORE PUSH14 0x6F6E206973206E6F742055555053 PUSH1 0x90 SHL PUSH1 0x64 DUP3 ADD MSTORE PUSH1 0x84 ADD PUSH2 0xAD6 JUMP JUMPDEST PUSH1 0x0 DUP1 MLOAD PUSH1 0x20 PUSH2 0x5283 DUP4 CODECOPY DUP2 MLOAD SWAP2 MSTORE DUP2 EQ PUSH2 0x1EB6 JUMPI PUSH1 0x40 MLOAD PUSH3 0x461BCD PUSH1 0xE5 SHL DUP2 MSTORE PUSH1 0x20 PUSH1 0x4 DUP3 ADD MSTORE PUSH1 0x29 PUSH1 0x24 DUP3 ADD MSTORE PUSH32 0x45524331393637557067726164653A20756E737570706F727465642070726F78 PUSH1 0x44 DUP3 ADD MSTORE PUSH9 0x1A58589B1955555251 PUSH1 0xBA SHL PUSH1 0x64 DUP3 ADD MSTORE PUSH1 0x84 ADD PUSH2 0xAD6 JUMP JUMPDEST POP PUSH2 0xB66 DUP4 DUP4 DUP4 PUSH2 0x38B6 JUMP JUMPDEST PUSH1 0x0 DUP2 DUP2 MSTORE PUSH1 0xFC PUSH1 0x20 MSTORE PUSH1 0x40 DUP2 KECCAK256 DUP1 SLOAD PUSH1 0x1 PUSH1 0x1 PUSH1 0x40 SHL SUB PUSH1 0x1 PUSH1 0x80 SHL DUP3 DIV DUP2 AND SWAP2 PUSH2 0x1EF9 SWAP2 DUP1 DUP3 AND SWAP2 PUSH1 0x1 PUSH1 0x40 SHL SWAP1 DIV AND PUSH2 0x4BFE JUMP JUMPDEST PUSH2 0x1F03 SWAP2 SWAP1 PUSH2 0x4BFE JUMP JUMPDEST PUSH2 0x105 SLOAD PUSH4 0xFFFFFFFF AND PUSH1 0x1 PUSH1 0x1 PUSH1 0x40 SHL SUB SWAP2 SWAP1 SWAP2 AND EQ SWAP4 SWAP3 POP POP POP JUMP JUMPDEST PUSH1 0x0 PUSH2 0x1F36 DUP3 MLOAD PUSH1 0x1 PUSH1 0x1 PUSH1 0x40 SHL SUB AND ISZERO ISZERO SWAP1 JUMP JUMPDEST DUP1 ISZERO PUSH2 0x899 JUMPI POP POP MLOAD TIMESTAMP PUSH1 0x1 PUSH1 0x1 PUSH1 0x40 SHL SUB SWAP1 SWAP2 AND GT ISZERO SWAP1 JUMP JUMPDEST PUSH1 0x0 DUP2 DUP2 MSTORE PUSH1 0xFC PUSH1 0x20 MSTORE PUSH1 0x40 DUP2 KECCAK256 PUSH2 0x105 SLOAD PUSH2 0x1F74 SWAP1 PUSH1 0x2 SWAP1 PUSH4 0xFFFFFFFF AND PUSH2 0x4CA6 JUMP JUMPDEST PUSH2 0x1F7F SWAP1 PUSH1 0x1 PUSH2 0x4CC9 JUMP JUMPDEST SWAP1 SLOAD PUSH4 0xFFFFFFFF SWAP1 SWAP2 AND PUSH1 0x1 PUSH1 0x40 SHL SWAP1 SWAP2 DIV PUSH1 0x1 PUSH1 0x1 PUSH1 0x40 SHL SUB AND LT ISZERO SWAP3 SWAP2 POP POP JUMP JUMPDEST PUSH1 0x0 DUP1 DUP4 PUSH1 0x3 DUP2 GT ISZERO PUSH2 0x1FB7 JUMPI PUSH2 0x1FB7 PUSH2 0x47E1 JUMP JUMPDEST SUB PUSH2 0x1FFD JUMPI PUSH1 0x40 MLOAD PUSH3 0x461BCD PUSH1 0xE5 SHL DUP2 MSTORE PUSH1 0x20 PUSH1 0x4 DUP3 ADD MSTORE PUSH1 0x16 PUSH1 0x24 DUP3 ADD MSTORE PUSH22 0x11DBDD995C9B9BDC8E881D9BDD19481A5B9D985B1A59 PUSH1 0x52 SHL PUSH1 0x44 DUP3 ADD MSTORE PUSH1 0x64 ADD PUSH2 0xAD6 JUMP JUMPDEST PUSH1 0x2 PUSH2 0x2008 DUP7 PUSH2 0xEA8 JUMP JUMPDEST PUSH1 0x7 DUP2 GT ISZERO PUSH2 0x2019 JUMPI PUSH2 0x2019 PUSH2 0x47E1 JUMP JUMPDEST EQ PUSH2 0x2074 JUMPI PUSH1 0x40 MLOAD PUSH3 0x461BCD PUSH1 0xE5 SHL DUP2 MSTORE PUSH1 0x20 PUSH1 0x4 DUP3 ADD MSTORE PUSH1 0x25 PUSH1 0x24 DUP3 ADD MSTORE PUSH32 0x476F7665726E6F723A2070726F706F73616C2063757272656E746C7920696E61 PUSH1 0x44 DUP3 ADD MSTORE PUSH5 0x6374697665 PUSH1 0xD8 SHL PUSH1 0x64 DUP3 ADD MSTORE PUSH1 0x84 ADD PUSH2 0xAD6 JUMP JUMPDEST PUSH1 0x0 DUP6 DUP2 MSTORE PUSH1 0xFC PUSH1 0x20 MSTORE PUSH1 0x40 SWAP1 KECCAK256 PUSH2 0x208F PUSH1 0x1 DUP3 ADD DUP7 PUSH2 0x223B JUMP JUMPDEST ISZERO PUSH2 0x20DC JUMPI PUSH1 0x40 MLOAD PUSH3 0x461BCD PUSH1 0xE5 SHL DUP2 MSTORE PUSH1 0x20 PUSH1 0x4 DUP3 ADD MSTORE PUSH1 0x1B PUSH1 0x24 DUP3 ADD MSTORE PUSH32 0x476F7665726E6F723A20766F746520616C726561647920636173740000000000 PUSH1 0x44 DUP3 ADD MSTORE PUSH1 0x64 ADD PUSH2 0xAD6 JUMP JUMPDEST PUSH2 0x20E9 PUSH1 0x1 DUP3 ADD DUP7 PUSH2 0x38E1 JUMP JUMPDEST POP PUSH1 0x1 DUP5 PUSH1 0x3 DUP2 GT ISZERO PUSH2 0x20FE JUMPI PUSH2 0x20FE PUSH2 0x47E1 JUMP JUMPDEST SUB PUSH2 0x214A JUMPI DUP1 SLOAD PUSH1 0x1 SWAP1 DUP3 SWAP1 PUSH1 0x0 SWAP1 PUSH2 0x2121 SWAP1 DUP5 SWAP1 PUSH1 0x1 PUSH1 0x1 PUSH1 0x40 SHL SUB AND PUSH2 0x4BFE JUMP JUMPDEST SWAP3 POP PUSH2 0x100 EXP DUP2 SLOAD DUP2 PUSH1 0x1 PUSH1 0x1 PUSH1 0x40 SHL SUB MUL NOT AND SWAP1 DUP4 PUSH1 0x1 PUSH1 0x1 PUSH1 0x40 SHL SUB AND MUL OR SWAP1 SSTORE POP PUSH2 0x21EB JUMP JUMPDEST PUSH1 0x2 DUP5 PUSH1 0x3 DUP2 GT ISZERO PUSH2 0x215E JUMPI PUSH2 0x215E PUSH2 0x47E1 JUMP JUMPDEST SUB PUSH2 0x2188 JUMPI DUP1 SLOAD PUSH1 0x1 SWAP1 DUP3 SWAP1 PUSH1 0x8 SWAP1 PUSH2 0x2121 SWAP1 DUP5 SWAP1 PUSH1 0x1 PUSH1 0x40 SHL SWAP1 DIV PUSH1 0x1 PUSH1 0x1 PUSH1 0x40 SHL SUB AND PUSH2 0x4BFE JUMP JUMPDEST PUSH1 0x3 DUP5 PUSH1 0x3 DUP2 GT ISZERO PUSH2 0x219C JUMPI PUSH2 0x219C PUSH2 0x47E1 JUMP JUMPDEST SUB PUSH2 0x21EB JUMPI DUP1 SLOAD PUSH1 0x1 SWAP1 DUP3 SWAP1 PUSH1 0x10 SWAP1 PUSH2 0x21C6 SWAP1 DUP5 SWAP1 PUSH1 0x1 PUSH1 0x80 SHL SWAP1 DIV PUSH1 0x1 PUSH1 0x1 PUSH1 0x40 SHL SUB AND PUSH2 0x4BFE JUMP JUMPDEST SWAP3 POP PUSH2 0x100 EXP DUP2 SLOAD DUP2 PUSH1 0x1 PUSH1 0x1 PUSH1 0x40 SHL SUB MUL NOT AND SWAP1 DUP4 PUSH1 0x1 PUSH1 0x1 PUSH1 0x40 SHL SUB AND MUL OR SWAP1 SSTORE POP JUMPDEST DUP6 DUP6 PUSH1 0x1 PUSH1 0x1 PUSH1 0xA0 SHL SUB AND PUSH32 0xBBB255028C79DEA070E4449C346283DA7B4B66693776C096BB820822E4D9C41A DUP7 DUP7 PUSH1 0x40 MLOAD PUSH2 0x2227 SWAP3 SWAP2 SWAP1 PUSH2 0x4CE8 JUMP JUMPDEST PUSH1 0x40 MLOAD DUP1 SWAP2 SUB SWAP1 LOG3 POP PUSH1 0x1 SWAP6 SWAP5 POP POP POP POP POP JUMP JUMPDEST PUSH1 0x1 PUSH1 0x1 PUSH1 0xA0 SHL SUB DUP2 AND PUSH1 0x0 SWAP1 DUP2 MSTORE PUSH1 0x1 DUP4 ADD PUSH1 0x20 MSTORE PUSH1 0x40 DUP2 KECCAK256 SLOAD ISZERO ISZERO PUSH2 0xFF5 JUMP JUMPDEST PUSH1 0x0 PUSH1 0x1 DUP1 PUSH1 0x6 DUP5 ADD SLOAD PUSH1 0xFF AND PUSH1 0x3 DUP2 GT ISZERO PUSH2 0x227B JUMPI PUSH2 0x227B PUSH2 0x47E1 JUMP JUMPDEST SUB PUSH2 0x2429 JUMPI PUSH1 0x1 PUSH1 0x6 DUP5 ADD SLOAD PUSH2 0x100 SWAP1 DIV PUSH1 0xFF AND PUSH1 0x4 DUP2 GT ISZERO PUSH2 0x22A0 JUMPI PUSH2 0x22A0 PUSH2 0x47E1 JUMP JUMPDEST SUB PUSH2 0x2424 JUMPI PUSH1 0x0 DUP4 PUSH1 0x7 ADD DUP1 SLOAD PUSH2 0x22B6 SWAP1 PUSH2 0x4A43 JUMP JUMPDEST DUP1 PUSH1 0x1F ADD PUSH1 0x20 DUP1 SWAP2 DIV MUL PUSH1 0x20 ADD PUSH1 0x40 MLOAD SWAP1 DUP2 ADD PUSH1 0x40 MSTORE DUP1 SWAP3 SWAP2 SWAP1 DUP2 DUP2 MSTORE PUSH1 0x20 ADD DUP3 DUP1 SLOAD PUSH2 0x22E2 SWAP1 PUSH2 0x4A43 JUMP JUMPDEST DUP1 ISZERO PUSH2 0x232F JUMPI DUP1 PUSH1 0x1F LT PUSH2 0x2304 JUMPI PUSH2 0x100 DUP1 DUP4 SLOAD DIV MUL DUP4 MSTORE SWAP2 PUSH1 0x20 ADD SWAP2 PUSH2 0x232F JUMP JUMPDEST DUP3 ADD SWAP2 SWAP1 PUSH1 0x0 MSTORE PUSH1 0x20 PUSH1 0x0 KECCAK256 SWAP1 JUMPDEST DUP2 SLOAD DUP2 MSTORE SWAP1 PUSH1 0x1 ADD SWAP1 PUSH1 0x20 ADD DUP1 DUP4 GT PUSH2 0x2312 JUMPI DUP3 SWAP1 SUB PUSH1 0x1F AND DUP3 ADD SWAP2 JUMPDEST POP POP POP POP POP DUP1 PUSH1 0x20 ADD SWAP1 MLOAD DUP2 ADD SWAP1 PUSH2 0x2347 SWAP2 SWAP1 PUSH2 0x4D4F JUMP JUMPDEST PUSH1 0x40 DUP1 MLOAD PUSH1 0x60 DUP2 ADD SWAP1 SWAP2 MSTORE DUP2 MLOAD DUP2 MSTORE SWAP1 SWAP2 POP PUSH1 0x20 DUP2 ADD PUSH1 0x1 DUP2 MSTORE PUSH1 0x1 PUSH1 0x20 SWAP2 DUP3 ADD MSTORE DUP3 DUP2 ADD MLOAD PUSH1 0x1 PUSH1 0x1 PUSH1 0xA0 SHL SUB AND PUSH1 0x0 SWAP1 DUP2 MSTORE PUSH1 0xFB DUP3 MSTORE PUSH1 0x40 SWAP1 KECCAK256 DUP3 MLOAD DUP1 MLOAD SWAP2 SWAP3 PUSH2 0x2398 SWAP3 DUP5 SWAP3 SWAP1 SWAP2 ADD SWAP1 PUSH2 0x444A JUMP JUMPDEST POP PUSH1 0x20 DUP3 ADD MLOAD PUSH1 0x1 DUP1 DUP4 ADD DUP1 SLOAD SWAP1 SWAP2 PUSH1 0xFF NOT SWAP1 SWAP2 AND SWAP1 DUP4 PUSH1 0x2 DUP2 GT ISZERO PUSH2 0x23C0 JUMPI PUSH2 0x23C0 PUSH2 0x47E1 JUMP JUMPDEST MUL OR SWAP1 SSTORE POP PUSH1 0x40 SWAP2 SWAP1 SWAP2 ADD MLOAD PUSH1 0x1 SWAP2 DUP3 ADD DUP1 SLOAD SWAP2 ISZERO ISZERO PUSH2 0x100 MUL PUSH2 0xFF00 NOT SWAP1 SWAP3 AND SWAP2 SWAP1 SWAP2 OR SWAP1 SSTORE PUSH2 0x105 DUP1 SLOAD PUSH1 0x0 SWAP1 PUSH2 0x2400 SWAP1 DUP5 SWAP1 PUSH4 0xFFFFFFFF AND PUSH2 0x4CC9 JUMP JUMPDEST SWAP3 POP PUSH2 0x100 EXP DUP2 SLOAD DUP2 PUSH4 0xFFFFFFFF MUL NOT AND SWAP1 DUP4 PUSH4 0xFFFFFFFF AND MUL OR SWAP1 SSTORE POP PUSH1 0x1 SWAP2 POP POP JUMPDEST PUSH2 0x899 JUMP JUMPDEST PUSH2 0x105 SLOAD PUSH1 0x1 PUSH1 0x40 SHL SWAP1 DIV PUSH1 0xFF AND ISZERO DUP1 ISZERO PUSH2 0x245C JUMPI POP PUSH1 0x2 PUSH1 0x6 DUP5 ADD SLOAD PUSH1 0xFF AND PUSH1 0x3 DUP2 GT ISZERO PUSH2 0x245A JUMPI PUSH2 0x245A PUSH2 0x47E1 JUMP JUMPDEST EQ JUMPDEST ISZERO PUSH2 0x899 JUMPI PUSH1 0x1 PUSH1 0x6 DUP5 ADD SLOAD PUSH2 0x100 SWAP1 DIV PUSH1 0xFF AND PUSH1 0x4 DUP2 GT ISZERO PUSH2 0x2481 JUMPI PUSH2 0x2481 PUSH2 0x47E1 JUMP JUMPDEST SUB PUSH2 0x27A9 JUMPI PUSH1 0x0 DUP4 PUSH1 0x7 ADD DUP1 SLOAD PUSH2 0x2497 SWAP1 PUSH2 0x4A43 JUMP JUMPDEST DUP1 PUSH1 0x1F ADD PUSH1 0x20 DUP1 SWAP2 DIV MUL PUSH1 0x20 ADD PUSH1 0x40 MLOAD SWAP1 DUP2 ADD PUSH1 0x40 MSTORE DUP1 SWAP3 SWAP2 SWAP1 DUP2 DUP2 MSTORE PUSH1 0x20 ADD DUP3 DUP1 SLOAD PUSH2 0x24C3 SWAP1 PUSH2 0x4A43 JUMP JUMPDEST DUP1 ISZERO PUSH2 0x2510 JUMPI DUP1 PUSH1 0x1F LT PUSH2 0x24E5 JUMPI PUSH2 0x100 DUP1 DUP4 SLOAD DIV MUL DUP4 MSTORE SWAP2 PUSH1 0x20 ADD SWAP2 PUSH2 0x2510 JUMP JUMPDEST DUP3 ADD SWAP2 SWAP1 PUSH1 0x0 MSTORE PUSH1 0x20 PUSH1 0x0 KECCAK256 SWAP1 JUMPDEST DUP2 SLOAD DUP2 MSTORE SWAP1 PUSH1 0x1 ADD SWAP1 PUSH1 0x20 ADD DUP1 DUP4 GT PUSH2 0x24F3 JUMPI DUP3 SWAP1 SUB PUSH1 0x1F AND DUP3 ADD SWAP2 JUMPDEST POP POP POP POP POP DUP1 PUSH1 0x20 ADD SWAP1 MLOAD DUP2 ADD SWAP1 PUSH2 0x2528 SWAP2 SWAP1 PUSH2 0x4E84 JUMP JUMPDEST SWAP1 POP PUSH2 0x2568 PUSH1 0x40 MLOAD DUP1 PUSH1 0x40 ADD PUSH1 0x40 MSTORE DUP1 PUSH1 0x1B DUP2 MSTORE PUSH1 0x20 ADD PUSH32 0x7472616E7366657220746F6B656E4F6666736572202E202E202E200000000000 DUP2 MSTORE POP PUSH2 0x38F6 JUMP JUMPDEST DUP2 DUP1 ISZERO PUSH2 0x2582 JUMPI POP PUSH2 0x2582 DUP2 PUSH1 0x40 ADD MLOAD DUP3 PUSH1 0x20 ADD MLOAD PUSH2 0x3939 JUMP JUMPDEST SWAP2 POP PUSH2 0x25C2 PUSH1 0x40 MLOAD DUP1 PUSH1 0x40 ADD PUSH1 0x40 MSTORE DUP1 PUSH1 0x1D DUP2 MSTORE PUSH1 0x20 ADD PUSH32 0x7472616E7366657220253520636F6D6D697373696F6E202E202E202E20000000 DUP2 MSTORE POP PUSH2 0x38F6 JUMP JUMPDEST DUP2 DUP1 ISZERO PUSH2 0x25FE JUMPI POP PUSH2 0x101 SLOAD PUSH1 0x20 DUP3 ADD MLOAD PUSH2 0x25FE SWAP2 PUSH1 0x1 PUSH1 0x1 PUSH1 0xA0 SHL SUB AND SWAP1 PUSH1 0x64 SWAP1 PUSH2 0x25EF SWAP1 PUSH1 0x5 PUSH2 0x4EB8 JUMP JUMPDEST PUSH2 0x25F9 SWAP2 SWAP1 PUSH2 0x4ED7 JUMP JUMPDEST PUSH2 0x3939 JUMP JUMPDEST SWAP2 POP PUSH2 0x263E PUSH1 0x40 MLOAD DUP1 PUSH1 0x40 ADD PUSH1 0x40 MSTORE DUP1 PUSH1 0x1B DUP2 MSTORE PUSH1 0x20 ADD PUSH32 0x7472616E736665722025312070726F706F736572202E202E202E200000000000 DUP2 MSTORE POP PUSH2 0x38F6 JUMP JUMPDEST DUP2 DUP1 ISZERO PUSH2 0x266A JUMPI POP PUSH1 0x3 DUP5 ADD SLOAD PUSH1 0x20 DUP3 ADD MLOAD PUSH2 0x266A SWAP2 PUSH1 0x1 PUSH1 0x1 PUSH1 0xA0 SHL SUB AND SWAP1 PUSH2 0x25F9 SWAP1 PUSH1 0x64 SWAP1 PUSH2 0x4ED7 JUMP JUMPDEST SWAP2 POP PUSH2 0x26AA PUSH1 0x40 MLOAD DUP1 PUSH1 0x40 ADD PUSH1 0x40 MSTORE DUP1 PUSH1 0x1A DUP2 MSTORE PUSH1 0x20 ADD PUSH32 0x7472616E736665722025322073657277617264202E202E202E20000000000000 DUP2 MSTORE POP PUSH2 0x38F6 JUMP JUMPDEST DUP2 DUP1 ISZERO PUSH2 0x26C4 JUMPI POP PUSH2 0x26C4 DUP5 PUSH1 0x0 ADD SLOAD DUP3 PUSH1 0x20 ADD MLOAD PUSH2 0x3A73 JUMP JUMPDEST PUSH1 0x40 DUP1 MLOAD PUSH1 0x60 DUP2 ADD SWAP1 SWAP2 MSTORE DUP3 MLOAD DUP2 MSTORE SWAP1 SWAP3 POP PUSH1 0x20 DUP2 ADD PUSH1 0x2 DUP2 MSTORE PUSH1 0x1 PUSH1 0x20 SWAP2 DUP3 ADD MSTORE PUSH1 0x40 DUP1 DUP5 ADD MLOAD PUSH1 0x1 PUSH1 0x1 PUSH1 0xA0 SHL SUB AND PUSH1 0x0 SWAP1 DUP2 MSTORE PUSH1 0xFB DUP4 MSTORE KECCAK256 DUP3 MLOAD DUP1 MLOAD SWAP2 SWAP3 PUSH2 0x2714 SWAP3 DUP5 SWAP3 SWAP1 SWAP2 ADD SWAP1 PUSH2 0x444A JUMP JUMPDEST POP PUSH1 0x20 DUP3 ADD MLOAD PUSH1 0x1 DUP1 DUP4 ADD DUP1 SLOAD SWAP1 SWAP2 PUSH1 0xFF NOT SWAP1 SWAP2 AND SWAP1 DUP4 PUSH1 0x2 DUP2 GT ISZERO PUSH2 0x273C JUMPI PUSH2 0x273C PUSH2 0x47E1 JUMP JUMPDEST MUL OR SWAP1 SSTORE POP PUSH1 0x40 SWAP2 SWAP1 SWAP2 ADD MLOAD PUSH1 0x1 SWAP2 DUP3 ADD DUP1 SLOAD SWAP2 ISZERO ISZERO PUSH2 0x100 MUL PUSH2 0xFF00 NOT SWAP1 SWAP3 AND SWAP2 SWAP1 SWAP2 OR SWAP1 SSTORE PUSH2 0x105 DUP1 SLOAD PUSH1 0x4 SWAP1 PUSH2 0x2785 SWAP1 DUP5 SWAP1 PUSH4 0xFFFFFFFF PUSH5 0x100000000 SWAP1 SWAP2 DIV AND PUSH2 0x4CC9 JUMP JUMPDEST SWAP3 POP PUSH2 0x100 EXP DUP2 SLOAD DUP2 PUSH4 0xFFFFFFFF MUL NOT AND SWAP1 DUP4 PUSH4 0xFFFFFFFF AND MUL OR SWAP1 SSTORE POP POP PUSH2 0x899 JUMP JUMPDEST PUSH1 0x2 PUSH1 0x6 DUP5 ADD SLOAD PUSH2 0x100 SWAP1 DIV PUSH1 0xFF AND PUSH1 0x4 DUP2 GT ISZERO PUSH2 0x27C9 JUMPI PUSH2 0x27C9 PUSH2 0x47E1 JUMP JUMPDEST SUB PUSH2 0x29AE JUMPI PUSH1 0x0 DUP4 PUSH1 0x7 ADD DUP1 SLOAD PUSH2 0x27DF SWAP1 PUSH2 0x4A43 JUMP JUMPDEST DUP1 PUSH1 0x1F ADD PUSH1 0x20 DUP1 SWAP2 DIV MUL PUSH1 0x20 ADD PUSH1 0x40 MLOAD SWAP1 DUP2 ADD PUSH1 0x40 MSTORE DUP1 SWAP3 SWAP2 SWAP1 DUP2 DUP2 MSTORE PUSH1 0x20 ADD DUP3 DUP1 SLOAD PUSH2 0x280B SWAP1 PUSH2 0x4A43 JUMP JUMPDEST DUP1 ISZERO PUSH2 0x2858 JUMPI DUP1 PUSH1 0x1F LT PUSH2 0x282D JUMPI PUSH2 0x100 DUP1 DUP4 SLOAD DIV MUL DUP4 MSTORE SWAP2 PUSH1 0x20 ADD SWAP2 PUSH2 0x2858 JUMP JUMPDEST DUP3 ADD SWAP2 SWAP1 PUSH1 0x0 MSTORE PUSH1 0x20 PUSH1 0x0 KECCAK256 SWAP1 JUMPDEST DUP2 SLOAD DUP2 MSTORE SWAP1 PUSH1 0x1 ADD SWAP1 PUSH1 0x20 ADD DUP1 DUP4 GT PUSH2 0x283B JUMPI DUP3 SWAP1 SUB PUSH1 0x1F AND DUP3 ADD SWAP2 JUMPDEST POP POP POP POP POP DUP1 PUSH1 0x20 ADD SWAP1 MLOAD DUP2 ADD SWAP1 PUSH2 0x2870 SWAP2 SWAP1 PUSH2 0x4E84 JUMP JUMPDEST SWAP1 POP PUSH2 0x2893 PUSH1 0x40 MLOAD DUP1 PUSH1 0x60 ADD PUSH1 0x40 MSTORE DUP1 PUSH1 0x21 DUP2 MSTORE PUSH1 0x20 ADD PUSH2 0x5343 PUSH1 0x21 SWAP2 CODECOPY PUSH2 0x38F6 JUMP JUMPDEST DUP2 DUP1 ISZERO PUSH2 0x28AD JUMPI POP PUSH2 0x28AD DUP2 PUSH1 0x40 ADD MLOAD DUP3 PUSH1 0x20 ADD MLOAD PUSH2 0x3939 JUMP JUMPDEST SWAP2 POP PUSH2 0x28D0 PUSH1 0x40 MLOAD DUP1 PUSH1 0x60 ADD PUSH1 0x40 MSTORE DUP1 PUSH1 0x23 DUP2 MSTORE PUSH1 0x20 ADD PUSH2 0x52A3 PUSH1 0x23 SWAP2 CODECOPY PUSH2 0x38F6 JUMP JUMPDEST DUP2 DUP1 ISZERO PUSH2 0x28FD JUMPI POP PUSH2 0x101 SLOAD PUSH1 0x20 DUP3 ADD MLOAD PUSH2 0x28FD SWAP2 PUSH1 0x1 PUSH1 0x1 PUSH1 0xA0 SHL SUB AND SWAP1 PUSH1 0x64 SWAP1 PUSH2 0x25EF SWAP1 PUSH1 0x5 PUSH2 0x4EB8 JUMP JUMPDEST SWAP2 POP PUSH2 0x2920 PUSH1 0x40 MLOAD DUP1 PUSH1 0x60 ADD PUSH1 0x40 MSTORE DUP1 PUSH1 0x21 DUP2 MSTORE PUSH1 0x20 ADD PUSH2 0x5364 PUSH1 0x21 SWAP2 CODECOPY PUSH2 0x38F6 JUMP JUMPDEST DUP2 DUP1 ISZERO PUSH2 0x294C JUMPI POP PUSH1 0x3 DUP5 ADD SLOAD PUSH1 0x20 DUP3 ADD MLOAD PUSH2 0x294C SWAP2 PUSH1 0x1 PUSH1 0x1 PUSH1 0xA0 SHL SUB AND SWAP1 PUSH2 0x25F9 SWAP1 PUSH1 0x64 SWAP1 PUSH2 0x4ED7 JUMP JUMPDEST SWAP2 POP PUSH2 0x298C PUSH1 0x40 MLOAD DUP1 PUSH1 0x40 ADD PUSH1 0x40 MSTORE DUP1 PUSH1 0x1F DUP2 MSTORE PUSH1 0x20 ADD PUSH32 0x65786974207472616E736665722025322073657277617264202E202E202E2000 DUP2 MSTORE POP PUSH2 0x38F6 JUMP JUMPDEST DUP2 DUP1 ISZERO PUSH2 0x29A6 JUMPI POP PUSH2 0x29A6 DUP5 PUSH1 0x0 ADD SLOAD DUP3 PUSH1 0x20 ADD MLOAD PUSH2 0x3A73 JUMP JUMPDEST SWAP2 POP POP PUSH2 0x899 JUMP JUMPDEST PUSH1 0x3 PUSH1 0x6 DUP5 ADD SLOAD PUSH2 0x100 SWAP1 DIV PUSH1 0xFF AND PUSH1 0x4 DUP2 GT ISZERO PUSH2 0x29CE JUMPI PUSH2 0x29CE PUSH2 0x47E1 JUMP JUMPDEST SUB PUSH2 0x2A84 JUMPI PUSH1 0x0 DUP4 PUSH1 0x7 ADD DUP1 SLOAD PUSH2 0x29E4 SWAP1 PUSH2 0x4A43 JUMP JUMPDEST DUP1 PUSH1 0x1F ADD PUSH1 0x20 DUP1 SWAP2 DIV MUL PUSH1 0x20 ADD PUSH1 0x40 MLOAD SWAP1 DUP2 ADD PUSH1 0x40 MSTORE DUP1 SWAP3 SWAP2 SWAP1 DUP2 DUP2 MSTORE PUSH1 0x20 ADD DUP3 DUP1 SLOAD PUSH2 0x2A10 SWAP1 PUSH2 0x4A43 JUMP JUMPDEST DUP1 ISZERO PUSH2 0x2A5D JUMPI DUP1 PUSH1 0x1F LT PUSH2 0x2A32 JUMPI PUSH2 0x100 DUP1 DUP4 SLOAD DIV MUL DUP4 MSTORE SWAP2 PUSH1 0x20 ADD SWAP2 PUSH2 0x2A5D JUMP JUMPDEST DUP3 ADD SWAP2 SWAP1 PUSH1 0x0 MSTORE PUSH1 0x20 PUSH1 0x0 KECCAK256 SWAP1 JUMPDEST DUP2 SLOAD DUP2 MSTORE SWAP1 PUSH1 0x1 ADD SWAP1 PUSH1 0x20 ADD DUP1 DUP4 GT PUSH2 0x2A40 JUMPI DUP3 SWAP1 SUB PUSH1 0x1F AND DUP3 ADD SWAP2 JUMPDEST POP POP POP POP POP DUP1 PUSH1 0x20 ADD SWAP1 MLOAD DUP2 ADD SWAP1 PUSH2 0x2A75 SWAP2 SWAP1 PUSH2 0x4F3A JUMP JUMPDEST SWAP1 POP PUSH2 0x29A6 DUP2 PUSH1 0x0 ADD MLOAD PUSH2 0x3B8A JUMP JUMPDEST PUSH1 0x4 PUSH1 0x6 DUP5 ADD SLOAD PUSH2 0x100 SWAP1 DIV PUSH1 0xFF AND PUSH1 0x4 DUP2 GT ISZERO PUSH2 0x2AA4 JUMPI PUSH2 0x2AA4 PUSH2 0x47E1 JUMP JUMPDEST SUB PUSH2 0x899 JUMPI PUSH1 0x0 DUP4 PUSH1 0x7 ADD DUP1 SLOAD PUSH2 0x2ABA SWAP1 PUSH2 0x4A43 JUMP JUMPDEST DUP1 PUSH1 0x1F ADD PUSH1 0x20 DUP1 SWAP2 DIV MUL PUSH1 0x20 ADD PUSH1 0x40 MLOAD SWAP1 DUP2 ADD PUSH1 0x40 MSTORE DUP1 SWAP3 SWAP2 SWAP1 DUP2 DUP2 MSTORE PUSH1 0x20 ADD DUP3 DUP1 SLOAD PUSH2 0x2AE6 SWAP1 PUSH2 0x4A43 JUMP JUMPDEST DUP1 ISZERO PUSH2 0x2B33 JUMPI DUP1 PUSH1 0x1F LT PUSH2 0x2B08 JUMPI PUSH2 0x100 DUP1 DUP4 SLOAD DIV MUL DUP4 MSTORE SWAP2 PUSH1 0x20 ADD SWAP2 PUSH2 0x2B33 JUMP JUMPDEST DUP3 ADD SWAP2 SWAP1 PUSH1 0x0 MSTORE PUSH1 0x20 PUSH1 0x0 KECCAK256 SWAP1 JUMPDEST DUP2 SLOAD DUP2 MSTORE SWAP1 PUSH1 0x1 ADD SWAP1 PUSH1 0x20 ADD DUP1 DUP4 GT PUSH2 0x2B16 JUMPI DUP3 SWAP1 SUB PUSH1 0x1F AND DUP3 ADD SWAP2 JUMPDEST POP POP POP POP POP DUP1 PUSH1 0x20 ADD SWAP1 MLOAD DUP2 ADD SWAP1 PUSH2 0x2B4B SWAP2 SWAP1 PUSH2 0x4F3A JUMP JUMPDEST SWAP1 POP PUSH2 0x2B5A DUP2 PUSH1 0x0 ADD MLOAD PUSH2 0x3C78 JUMP JUMPDEST SWAP5 SWAP4 POP POP POP POP JUMP JUMPDEST PUSH1 0x0 PUSH32 0xF1D23BD7EDE3E157B19AF9BDC7F9F08C55104D948E791AD0900A92E0A680C3A2 DUP8 DUP8 DUP8 DUP8 DUP8 DUP8 PUSH1 0x40 MLOAD PUSH1 0x20 ADD PUSH2 0x2B9B SWAP2 SWAP1 PUSH2 0x4BC5 JUMP JUMPDEST PUSH1 0x40 MLOAD PUSH1 0x20 DUP2 DUP4 SUB SUB DUP2 MSTORE SWAP1 PUSH1 0x40 MSTORE DUP1 MLOAD SWAP1 PUSH1 0x20 ADD KECCAK256 PUSH1 0x40 MLOAD PUSH1 0x20 ADD PUSH2 0x138C SWAP8 SWAP7 SWAP6 SWAP5 SWAP4 SWAP3 SWAP2 SWAP1 PUSH2 0x4F56 JUMP JUMPDEST PUSH1 0x0 PUSH2 0x899 PUSH2 0x2BD4 PUSH2 0x3D66 JUMP JUMPDEST DUP4 PUSH1 0x40 MLOAD PUSH2 0x1901 PUSH1 0xF0 SHL PUSH1 0x20 DUP3 ADD MSTORE PUSH1 0x22 DUP2 ADD DUP4 SWAP1 MSTORE PUSH1 0x42 DUP2 ADD DUP3 SWAP1 MSTORE PUSH1 0x0 SWAP1 PUSH1 0x62 ADD PUSH1 0x40 MLOAD PUSH1 0x20 DUP2 DUP4 SUB SUB DUP2 MSTORE SWAP1 PUSH1 0x40 MSTORE DUP1 MLOAD SWAP1 PUSH1 0x20 ADD KECCAK256 SWAP1 POP SWAP3 SWAP2 POP POP JUMP JUMPDEST PUSH1 0x0 DUP1 DUP3 MLOAD PUSH1 0x41 SUB PUSH2 0x2C4B JUMPI PUSH1 0x20 DUP4 ADD MLOAD PUSH1 0x40 DUP5 ADD MLOAD PUSH1 0x60 DUP6 ADD MLOAD PUSH1 0x0 BYTE PUSH2 0x2C3F DUP8 DUP3 DUP6 DUP6 PUSH2 0x3E1C JUMP JUMPDEST SWAP5 POP SWAP5 POP POP POP POP PUSH2 0x2C7C JUMP JUMPDEST DUP3 MLOAD PUSH1 0x40 SUB PUSH2 0x2C74 JUMPI PUSH1 0x20 DUP4 ADD MLOAD PUSH1 0x40 DUP5 ADD MLOAD PUSH2 0x2C69 DUP7 DUP4 DUP4 PUSH2 0x3F09 JUMP JUMPDEST SWAP4 POP SWAP4 POP POP POP PUSH2 0x2C7C JUMP JUMPDEST POP PUSH1 0x0 SWAP1 POP PUSH1 0x2 JUMPDEST SWAP3 POP SWAP3 SWAP1 POP JUMP JUMPDEST PUSH1 0x1 PUSH1 0x6 DUP3 ADD SLOAD PUSH1 0xFF AND PUSH1 0x3 DUP2 GT ISZERO PUSH2 0x2C9E JUMPI PUSH2 0x2C9E PUSH2 0x47E1 JUMP JUMPDEST SUB PUSH2 0x2F18 JUMPI PUSH1 0x1 PUSH1 0x6 DUP3 ADD SLOAD PUSH2 0x100 SWAP1 DIV PUSH1 0xFF AND PUSH1 0x4 DUP2 GT ISZERO PUSH2 0x2CC3 JUMPI PUSH2 0x2CC3 PUSH2 0x47E1 JUMP JUMPDEST SUB PUSH2 0xCC8 JUMPI PUSH1 0x0 DUP2 PUSH1 0x7 ADD DUP1 SLOAD PUSH2 0x2CD9 SWAP1 PUSH2 0x4A43 JUMP JUMPDEST DUP1 PUSH1 0x1F ADD PUSH1 0x20 DUP1 SWAP2 DIV MUL PUSH1 0x20 ADD PUSH1 0x40 MLOAD SWAP1 DUP2 ADD PUSH1 0x40 MSTORE DUP1 SWAP3 SWAP2 SWAP1 DUP2 DUP2 MSTORE PUSH1 0x20 ADD DUP3 DUP1 SLOAD PUSH2 0x2D05 SWAP1 PUSH2 0x4A43 JUMP JUMPDEST DUP1 ISZERO PUSH2 0x2D52 JUMPI DUP1 PUSH1 0x1F LT PUSH2 0x2D27 JUMPI PUSH2 0x100 DUP1 DUP4 SLOAD DIV MUL DUP4 MSTORE SWAP2 PUSH1 0x20 ADD SWAP2 PUSH2 0x2D52 JUMP JUMPDEST DUP3 ADD SWAP2 SWAP1 PUSH1 0x0 MSTORE PUSH1 0x20 PUSH1 0x0 KECCAK256 SWAP1 JUMPDEST DUP2 SLOAD DUP2 MSTORE SWAP1 PUSH1 0x1 ADD SWAP1 PUSH1 0x20 ADD DUP1 DUP4 GT PUSH2 0x2D35 JUMPI DUP3 SWAP1 SUB PUSH1 0x1F AND DUP3 ADD SWAP2 JUMPDEST POP POP POP POP POP DUP1 PUSH1 0x20 ADD SWAP1 MLOAD DUP2 ADD SWAP1 PUSH2 0x2D6A SWAP2 SWAP1 PUSH2 0x4D4F JUMP JUMPDEST PUSH1 0x20 DUP2 ADD MLOAD SWAP1 SWAP2 POP PUSH1 0x1 PUSH1 0x1 PUSH1 0xA0 SHL SUB AND PUSH2 0x2DD3 JUMPI PUSH1 0x40 MLOAD PUSH3 0x461BCD PUSH1 0xE5 SHL DUP2 MSTORE PUSH1 0x20 PUSH1 0x4 DUP3 ADD MSTORE PUSH1 0x24 DUP1 DUP3 ADD MSTORE PUSH32 0x76616C696461746F7220616464726573732073686F756C64206E6F7420626520 PUSH1 0x44 DUP3 ADD MSTORE PUSH4 0x7A65726F PUSH1 0xE0 SHL PUSH1 0x64 DUP3 ADD MSTORE PUSH1 0x84 ADD PUSH2 0xAD6 JUMP JUMPDEST DUP1 MLOAD MLOAD PUSH1 0x0 SUB PUSH2 0x2E30 JUMPI PUSH1 0x40 MLOAD PUSH3 0x461BCD PUSH1 0xE5 SHL DUP2 MSTORE PUSH1 0x20 PUSH1 0x4 DUP3 ADD MSTORE PUSH1 0x22 PUSH1 0x24 DUP3 ADD MSTORE PUSH32 0x76616C696461746F72206E616D652073686F756C64206E6F7420626520656D70 PUSH1 0x44 DUP3 ADD MSTORE PUSH2 0x7479 PUSH1 0xF0 SHL PUSH1 0x64 DUP3 ADD MSTORE PUSH1 0x84 ADD PUSH2 0xAD6 JUMP JUMPDEST PUSH1 0x20 DUP2 DUP2 ADD MLOAD PUSH1 0x1 PUSH1 0x1 PUSH1 0xA0 SHL SUB AND PUSH1 0x0 SWAP1 DUP2 MSTORE PUSH1 0xFB SWAP1 SWAP2 MSTORE PUSH1 0x40 DUP2 KECCAK256 PUSH1 0x1 ADD SLOAD PUSH1 0xFF AND PUSH1 0x2 DUP2 GT ISZERO PUSH2 0x2E65 JUMPI PUSH2 0x2E65 PUSH2 0x47E1 JUMP JUMPDEST EQ PUSH2 0x2EB2 JUMPI PUSH1 0x40 MLOAD PUSH3 0x461BCD PUSH1 0xE5 SHL DUP2 MSTORE PUSH1 0x20 PUSH1 0x4 DUP3 ADD MSTORE PUSH1 0x1B PUSH1 0x24 DUP3 ADD MSTORE PUSH32 0x76616C696461746F72454F4120616C7265616479206578697374730000000000 PUSH1 0x44 DUP3 ADD MSTORE PUSH1 0x64 ADD PUSH2 0xAD6 JUMP JUMPDEST PUSH1 0x20 DUP2 ADD MLOAD PUSH1 0x3 DUP4 ADD SLOAD DUP4 SLOAD PUSH1 0x1 DUP6 ADD SLOAD PUSH1 0x2 DUP7 ADD SLOAD DUP6 MLOAD PUSH1 0x40 MLOAD PUSH1 0x1 PUSH1 0x1 PUSH1 0xA0 SHL SUB SWAP7 DUP8 AND SWAP7 SWAP1 SWAP6 AND SWAP5 PUSH32 0x3B993E041D591EA59A38F6CFF579DF5E8D6C2D1FED74305DFBB114336C41BDFD SWAP4 PUSH2 0x2F0C SWAP4 SWAP1 SWAP3 SWAP1 SWAP2 PUSH2 0x4FA8 JUMP JUMPDEST PUSH1 0x40 MLOAD DUP1 SWAP2 SUB SWAP1 LOG4 POP POP JUMP JUMPDEST PUSH1 0x2 PUSH1 0x6 DUP3 ADD SLOAD PUSH1 0xFF AND PUSH1 0x3 DUP2 GT ISZERO PUSH2 0x2F33 JUMPI PUSH2 0x2F33 PUSH2 0x47E1 JUMP JUMPDEST SUB PUSH2 0x379B JUMPI PUSH1 0x1 PUSH1 0x6 DUP3 ADD SLOAD PUSH2 0x100 SWAP1 DIV PUSH1 0xFF AND PUSH1 0x4 DUP2 GT ISZERO PUSH2 0x2F58 JUMPI PUSH2 0x2F58 PUSH2 0x47E1 JUMP JUMPDEST SUB PUSH2 0x31E2 JUMPI PUSH1 0x0 DUP2 PUSH1 0x7 ADD DUP1 SLOAD PUSH2 0x2F6E SWAP1 PUSH2 0x4A43 JUMP JUMPDEST DUP1 PUSH1 0x1F ADD PUSH1 0x20 DUP1 SWAP2 DIV MUL PUSH1 0x20 ADD PUSH1 0x40 MLOAD SWAP1 DUP2 ADD PUSH1 0x40 MSTORE DUP1 SWAP3 SWAP2 SWAP1 DUP2 DUP2 MSTORE PUSH1 0x20 ADD DUP3 DUP1 SLOAD PUSH2 0x2F9A SWAP1 PUSH2 0x4A43 JUMP JUMPDEST DUP1 ISZERO PUSH2 0x2FE7 JUMPI DUP1 PUSH1 0x1F LT PUSH2 0x2FBC JUMPI PUSH2 0x100 DUP1 DUP4 SLOAD DIV MUL DUP4 MSTORE SWAP2 PUSH1 0x20 ADD SWAP2 PUSH2 0x2FE7 JUMP JUMPDEST DUP3 ADD SWAP2 SWAP1 PUSH1 0x0 MSTORE PUSH1 0x20 PUSH1 0x0 KECCAK256 SWAP1 JUMPDEST DUP2 SLOAD DUP2 MSTORE SWAP1 PUSH1 0x1 ADD SWAP1 PUSH1 0x20 ADD DUP1 DUP4 GT PUSH2 0x2FCA JUMPI DUP3 SWAP1 SUB PUSH1 0x1F AND DUP3 ADD SWAP2 JUMPDEST POP POP POP POP POP DUP1 PUSH1 0x20 ADD SWAP1 MLOAD DUP2 ADD SWAP1 PUSH2 0x2FFF SWAP2 SWAP1 PUSH2 0x4E84 JUMP JUMPDEST DUP1 MLOAD MLOAD SWAP1 SWAP2 POP PUSH1 0x0 SUB PUSH2 0x3054 JUMPI PUSH1 0x40 MLOAD PUSH3 0x461BCD PUSH1 0xE5 SHL DUP2 MSTORE PUSH1 0x20 PUSH1 0x4 DUP3 ADD DUP2 SWAP1 MSTORE PUSH1 0x24 DUP3 ADD MSTORE PUSH32 0x73746172747570206E616D652073686F756C64206E6F7420626520656D707479 PUSH1 0x44 DUP3 ADD MSTORE PUSH1 0x64 ADD PUSH2 0xAD6 JUMP JUMPDEST DUP1 PUSH1 0x20 ADD MLOAD PUSH1 0x0 SUB PUSH2 0x3078 JUMPI PUSH1 0x40 MLOAD PUSH3 0x461BCD PUSH1 0xE5 SHL DUP2 MSTORE PUSH1 0x4 ADD PUSH2 0xAD6 SWAP1 PUSH2 0x4FC7 JUMP JUMPDEST DUP1 PUSH1 0x60 ADD MLOAD PUSH2 0xFFFF AND PUSH1 0x0 SUB PUSH2 0x30A0 JUMPI PUSH1 0x40 MLOAD PUSH3 0x461BCD PUSH1 0xE5 SHL DUP2 MSTORE PUSH1 0x4 ADD PUSH2 0xAD6 SWAP1 PUSH2 0x500D JUMP JUMPDEST PUSH1 0x40 DUP2 ADD MLOAD PUSH1 0x1 PUSH1 0x1 PUSH1 0xA0 SHL SUB AND PUSH2 0x30FA JUMPI PUSH1 0x40 MLOAD PUSH3 0x461BCD PUSH1 0xE5 SHL DUP2 MSTORE PUSH1 0x20 PUSH1 0x4 DUP3 ADD MSTORE PUSH1 0x1E PUSH1 0x24 DUP3 ADD MSTORE PUSH32 0x7374617274757020454F412073686F756C64206E6F74206265207A65726F0000 PUSH1 0x44 DUP3 ADD MSTORE PUSH1 0x64 ADD PUSH2 0xAD6 JUMP JUMPDEST PUSH1 0x0 PUSH1 0x40 DUP1 DUP4 ADD MLOAD PUSH1 0x1 PUSH1 0x1 PUSH1 0xA0 SHL SUB AND PUSH1 0x0 SWAP1 DUP2 MSTORE PUSH1 0xFB PUSH1 0x20 MSTORE KECCAK256 PUSH1 0x1 ADD SLOAD PUSH1 0xFF AND PUSH1 0x2 DUP2 GT ISZERO PUSH2 0x312E JUMPI PUSH2 0x312E PUSH2 0x47E1 JUMP JUMPDEST EQ PUSH2 0x317B JUMPI PUSH1 0x40 MLOAD PUSH3 0x461BCD PUSH1 0xE5 SHL DUP2 MSTORE PUSH1 0x20 PUSH1 0x4 DUP3 ADD MSTORE PUSH1 0x19 PUSH1 0x24 DUP3 ADD MSTORE PUSH32 0x73746172747570454F4120616C72656164792065786973747300000000000000 PUSH1 0x44 DUP3 ADD MSTORE PUSH1 0x64 ADD PUSH2 0xAD6 JUMP JUMPDEST PUSH1 0x40 DUP2 DUP2 ADD MLOAD PUSH1 0x3 DUP5 ADD SLOAD DUP5 SLOAD PUSH1 0x20 DUP6 ADD MLOAD PUSH1 0x1 DUP8 ADD SLOAD PUSH1 0x2 DUP9 ADD SLOAD DUP8 MLOAD PUSH1 0x60 DUP10 ADD MLOAD SWAP8 MLOAD PUSH1 0x1 PUSH1 0x1 PUSH1 0xA0 SHL SUB SWAP8 DUP9 AND SWAP9 SWAP8 SWAP1 SWAP7 AND SWAP7 SWAP5 SWAP6 PUSH32 0xA3D1A39A550977BAA46EA2634B05F5EB5993C2422417CE8C7139B39635A2A08C SWAP6 PUSH2 0x2F0C SWAP6 SWAP5 SWAP4 SWAP3 SWAP2 PUSH2 0x5054 JUMP JUMPDEST PUSH1 0x2 PUSH1 0x6 DUP3 ADD SLOAD PUSH2 0x100 SWAP1 DIV PUSH1 0xFF AND PUSH1 0x4 DUP2 GT ISZERO PUSH2 0x3202 JUMPI PUSH2 0x3202 PUSH2 0x47E1 JUMP JUMPDEST SUB PUSH2 0x348C JUMPI PUSH1 0x0 DUP2 PUSH1 0x7 ADD DUP1 SLOAD PUSH2 0x3218 SWAP1 PUSH2 0x4A43 JUMP JUMPDEST DUP1 PUSH1 0x1F ADD PUSH1 0x20 DUP1 SWAP2 DIV MUL PUSH1 0x20 ADD PUSH1 0x40 MLOAD SWAP1 DUP2 ADD PUSH1 0x40 MSTORE DUP1 SWAP3 SWAP2 SWAP1 DUP2 DUP2 MSTORE PUSH1 0x20 ADD DUP3 DUP1 SLOAD PUSH2 0x3244 SWAP1 PUSH2 0x4A43 JUMP JUMPDEST DUP1 ISZERO PUSH2 0x3291 JUMPI DUP1 PUSH1 0x1F LT PUSH2 0x3266 JUMPI PUSH2 0x100 DUP1 DUP4 SLOAD DIV MUL DUP4 MSTORE SWAP2 PUSH1 0x20 ADD SWAP2 PUSH2 0x3291 JUMP JUMPDEST DUP3 ADD SWAP2 SWAP1 PUSH1 0x0 MSTORE PUSH1 0x20 PUSH1 0x0 KECCAK256 SWAP1 JUMPDEST DUP2 SLOAD DUP2 MSTORE SWAP1 PUSH1 0x1 ADD SWAP1 PUSH1 0x20 ADD DUP1 DUP4 GT PUSH2 0x3274 JUMPI DUP3 SWAP1 SUB PUSH1 0x1F AND DUP3 ADD SWAP2 JUMPDEST POP POP POP POP POP DUP1 PUSH1 0x20 ADD SWAP1 MLOAD DUP2 ADD SWAP1 PUSH2 0x32A9 SWAP2 SWAP1 PUSH2 0x4E84 JUMP JUMPDEST DUP1 MLOAD MLOAD SWAP1 SWAP2 POP PUSH1 0x0 SUB PUSH2 0x32FE JUMPI PUSH1 0x40 MLOAD PUSH3 0x461BCD PUSH1 0xE5 SHL DUP2 MSTORE PUSH1 0x20 PUSH1 0x4 DUP3 ADD DUP2 SWAP1 MSTORE PUSH1 0x24 DUP3 ADD MSTORE PUSH32 0x73746172747570206E616D652073686F756C64206E6F7420626520656D707479 PUSH1 0x44 DUP3 ADD MSTORE PUSH1 0x64 ADD PUSH2 0xAD6 JUMP JUMPDEST DUP1 PUSH1 0x20 ADD MLOAD PUSH1 0x0 SUB PUSH2 0x3322 JUMPI PUSH1 0x40 MLOAD PUSH3 0x461BCD PUSH1 0xE5 SHL DUP2 MSTORE PUSH1 0x4 ADD PUSH2 0xAD6 SWAP1 PUSH2 0x4FC7 JUMP JUMPDEST DUP1 PUSH1 0x60 ADD MLOAD PUSH2 0xFFFF AND PUSH1 0x0 SUB PUSH2 0x334A JUMPI PUSH1 0x40 MLOAD PUSH3 0x461BCD PUSH1 0xE5 SHL DUP2 MSTORE PUSH1 0x4 ADD PUSH2 0xAD6 SWAP1 PUSH2 0x500D JUMP JUMPDEST PUSH1 0x40 DUP2 ADD MLOAD PUSH1 0x1 PUSH1 0x1 PUSH1 0xA0 SHL SUB AND PUSH2 0x33A4 JUMPI PUSH1 0x40 MLOAD PUSH3 0x461BCD PUSH1 0xE5 SHL DUP2 MSTORE PUSH1 0x20 PUSH1 0x4 DUP3 ADD DUP2 SWAP1 MSTORE PUSH1 0x24 DUP3 ADD MSTORE PUSH32 0x76616C696461746F7220454F412073686F756C64206E6F74206265207A65726F PUSH1 0x44 DUP3 ADD MSTORE PUSH1 0x64 ADD PUSH2 0xAD6 JUMP JUMPDEST PUSH1 0x1 PUSH1 0x40 DUP1 DUP4 ADD MLOAD PUSH1 0x1 PUSH1 0x1 PUSH1 0xA0 SHL SUB AND PUSH1 0x0 SWAP1 DUP2 MSTORE PUSH1 0xFB PUSH1 0x20 MSTORE KECCAK256 PUSH1 0x1 ADD SLOAD PUSH1 0xFF AND PUSH1 0x2 DUP2 GT ISZERO PUSH2 0x33D8 JUMPI PUSH2 0x33D8 PUSH2 0x47E1 JUMP JUMPDEST EQ PUSH2 0x3425 JUMPI PUSH1 0x40 MLOAD PUSH3 0x461BCD PUSH1 0xE5 SHL DUP2 MSTORE PUSH1 0x20 PUSH1 0x4 DUP3 ADD MSTORE PUSH1 0x1B PUSH1 0x24 DUP3 ADD MSTORE PUSH32 0x76616C696461746F72454F4120646F65736E2774206578697374730000000000 PUSH1 0x44 DUP3 ADD MSTORE PUSH1 0x64 ADD PUSH2 0xAD6 JUMP JUMPDEST PUSH1 0x40 DUP2 DUP2 ADD MLOAD PUSH1 0x3 DUP5 ADD SLOAD DUP5 SLOAD PUSH1 0x20 DUP6 ADD MLOAD PUSH1 0x1 DUP8 ADD SLOAD PUSH1 0x2 DUP9 ADD SLOAD DUP8 MLOAD PUSH1 0x60 DUP10 ADD MLOAD SWAP8 MLOAD PUSH1 0x1 PUSH1 0x1 PUSH1 0xA0 SHL SUB SWAP8 DUP9 AND SWAP9 SWAP8 SWAP1 SWAP7 AND SWAP7 SWAP5 SWAP6 PUSH32 0xB58C12647C60F8966538BCFA6BF6B815477288BCBCBD80C2AC8AD7C23115A2D9 SWAP6 PUSH2 0x2F0C SWAP6 SWAP5 SWAP4 SWAP3 SWAP2 PUSH2 0x5054 JUMP JUMPDEST PUSH1 0x3 PUSH1 0x6 DUP3 ADD SLOAD PUSH2 0x100 SWAP1 DIV PUSH1 0xFF AND PUSH1 0x4 DUP2 GT ISZERO PUSH2 0x34AC JUMPI PUSH2 0x34AC PUSH2 0x47E1 JUMP JUMPDEST SUB PUSH2 0x3613 JUMPI PUSH1 0x0 DUP2 PUSH1 0x7 ADD DUP1 SLOAD PUSH2 0x34C2 SWAP1 PUSH2 0x4A43 JUMP JUMPDEST DUP1 PUSH1 0x1F ADD PUSH1 0x20 DUP1 SWAP2 DIV MUL PUSH1 0x20 ADD PUSH1 0x40 MLOAD SWAP1 DUP2 ADD PUSH1 0x40 MSTORE DUP1 SWAP3 SWAP2 SWAP1 DUP2 DUP2 MSTORE PUSH1 0x20 ADD DUP3 DUP1 SLOAD PUSH2 0x34EE SWAP1 PUSH2 0x4A43 JUMP JUMPDEST DUP1 ISZERO PUSH2 0x353B JUMPI DUP1 PUSH1 0x1F LT PUSH2 0x3510 JUMPI PUSH2 0x100 DUP1 DUP4 SLOAD DIV MUL DUP4 MSTORE SWAP2 PUSH1 0x20 ADD SWAP2 PUSH2 0x353B JUMP JUMPDEST DUP3 ADD SWAP2 SWAP1 PUSH1 0x0 MSTORE PUSH1 0x20 PUSH1 0x0 KECCAK256 SWAP1 JUMPDEST DUP2 SLOAD DUP2 MSTORE SWAP1 PUSH1 0x1 ADD SWAP1 PUSH1 0x20 ADD DUP1 DUP4 GT PUSH2 0x351E JUMPI DUP3 SWAP1 SUB PUSH1 0x1F AND DUP3 ADD SWAP2 JUMPDEST POP POP POP POP POP DUP1 PUSH1 0x20 ADD SWAP1 MLOAD DUP2 ADD SWAP1 PUSH2 0x3553 SWAP2 SWAP1 PUSH2 0x4F3A JUMP JUMPDEST DUP1 MLOAD SWAP1 SWAP2 POP PUSH1 0x1 PUSH1 0x1 PUSH1 0xA0 SHL SUB AND PUSH2 0x35B8 JUMPI PUSH1 0x40 MLOAD PUSH3 0x461BCD PUSH1 0xE5 SHL DUP2 MSTORE PUSH1 0x20 PUSH1 0x4 DUP3 ADD MSTORE PUSH1 0x22 PUSH1 0x24 DUP3 ADD MSTORE PUSH32 0x467265657A653A206163636F756E742073686F756C64206E6F74206265207A65 PUSH1 0x44 DUP3 ADD MSTORE PUSH2 0x726F PUSH1 0xF0 SHL PUSH1 0x64 DUP3 ADD MSTORE PUSH1 0x84 ADD PUSH2 0xAD6 JUMP JUMPDEST DUP1 MLOAD PUSH1 0x3 DUP4 ADD SLOAD DUP4 SLOAD PUSH1 0x1 DUP6 ADD SLOAD PUSH1 0x2 DUP7 ADD SLOAD PUSH1 0x40 MLOAD PUSH1 0x1 PUSH1 0x1 PUSH1 0xA0 SHL SUB SWAP6 DUP7 AND SWAP6 SWAP5 SWAP1 SWAP5 AND SWAP4 PUSH32 0x6C344B5A99D701E380E4F74EB042F15449B77F4657A647B82E9A5B223798BF1C SWAP3 PUSH2 0x2F0C SWAP3 SWAP1 DUP3 MSTORE PUSH1 0x20 DUP3 ADD MSTORE PUSH1 0x40 ADD SWAP1 JUMP JUMPDEST PUSH1 0x4 PUSH1 0x6 DUP3 ADD SLOAD PUSH2 0x100 SWAP1 DIV PUSH1 0xFF AND PUSH1 0x4 DUP2 GT ISZERO PUSH2 0x3633 JUMPI PUSH2 0x3633 PUSH2 0x47E1 JUMP JUMPDEST SUB PUSH2 0xCC8 JUMPI PUSH1 0x0 DUP2 PUSH1 0x7 ADD DUP1 SLOAD PUSH2 0x3649 SWAP1 PUSH2 0x4A43 JUMP JUMPDEST DUP1 PUSH1 0x1F ADD PUSH1 0x20 DUP1 SWAP2 DIV MUL PUSH1 0x20 ADD PUSH1 0x40 MLOAD SWAP1 DUP2 ADD PUSH1 0x40 MSTORE DUP1 SWAP3 SWAP2 SWAP1 DUP2 DUP2 MSTORE PUSH1 0x20 ADD DUP3 DUP1 SLOAD PUSH2 0x3675 SWAP1 PUSH2 0x4A43 JUMP JUMPDEST DUP1 ISZERO PUSH2 0x36C2 JUMPI DUP1 PUSH1 0x1F LT PUSH2 0x3697 JUMPI PUSH2 0x100 DUP1 DUP4 SLOAD DIV MUL DUP4 MSTORE SWAP2 PUSH1 0x20 ADD SWAP2 PUSH2 0x36C2 JUMP JUMPDEST DUP3 ADD SWAP2 SWAP1 PUSH1 0x0 MSTORE PUSH1 0x20 PUSH1 0x0 KECCAK256 SWAP1 JUMPDEST DUP2 SLOAD DUP2 MSTORE SWAP1 PUSH1 0x1 ADD SWAP1 PUSH1 0x20 ADD DUP1 DUP4 GT PUSH2 0x36A5 JUMPI DUP3 SWAP1 SUB PUSH1 0x1F AND DUP3 ADD SWAP2 JUMPDEST POP POP POP POP POP DUP1 PUSH1 0x20 ADD SWAP1 MLOAD DUP2 ADD SWAP1 PUSH2 0x36DA SWAP2 SWAP1 PUSH2 0x4F3A JUMP JUMPDEST DUP1 MLOAD SWAP1 SWAP2 POP PUSH1 0x1 PUSH1 0x1 PUSH1 0xA0 SHL SUB AND PUSH2 0x3740 JUMPI PUSH1 0x40 MLOAD PUSH3 0x461BCD PUSH1 0xE5 SHL DUP2 MSTORE PUSH1 0x20 PUSH1 0x4 DUP3 ADD MSTORE PUSH1 0x24 DUP1 DUP3 ADD MSTORE PUSH32 0x556E667265657A653A206163636F756E742073686F756C64206E6F7420626520 PUSH1 0x44 DUP3 ADD MSTORE PUSH4 0x7A65726F PUSH1 0xE0 SHL PUSH1 0x64 DUP3 ADD MSTORE PUSH1 0x84 ADD PUSH2 0xAD6 JUMP JUMPDEST DUP1 MLOAD PUSH1 0x3 DUP4 ADD SLOAD DUP4 SLOAD PUSH1 0x1 DUP6 ADD SLOAD PUSH1 0x2 DUP7 ADD SLOAD PUSH1 0x40 MLOAD PUSH1 0x1 PUSH1 0x1 PUSH1 0xA0 SHL SUB SWAP6 DUP7 AND SWAP6 SWAP5 SWAP1 SWAP5 AND SWAP4 PUSH32 0x5B0256FFEAE05ABA51E2C5F936A5AB3668280F92904D8098FC46D79E2EC5DBFA SWAP3 PUSH2 0x2F0C SWAP3 SWAP1 DUP3 MSTORE PUSH1 0x20 DUP3 ADD MSTORE PUSH1 0x40 ADD SWAP1 JUMP JUMPDEST PUSH1 0x3 PUSH1 0x6 DUP3 ADD SLOAD PUSH1 0xFF AND PUSH1 0x3 DUP2 GT ISZERO PUSH2 0xB66 JUMPI PUSH2 0xB66 PUSH2 0x47E1 JUMP JUMPDEST PUSH2 0x37C0 DUP3 DUP3 PUSH2 0x1060 JUMP JUMPDEST PUSH2 0xBFF JUMPI PUSH2 0x37D8 DUP2 PUSH1 0x1 PUSH1 0x1 PUSH1 0xA0 SHL SUB AND PUSH1 0x14 PUSH2 0x3F42 JUMP JUMPDEST PUSH2 0x37E3 DUP4 PUSH1 0x20 PUSH2 0x3F42 JUMP JUMPDEST PUSH1 0x40 MLOAD PUSH1 0x20 ADD PUSH2 0x37F4 SWAP3 SWAP2 SWAP1 PUSH2 0x508F JUMP JUMPDEST PUSH1 0x40 DUP1 MLOAD PUSH1 0x1F NOT DUP2 DUP5 SUB ADD DUP2 MSTORE SWAP1 DUP3 SWAP1 MSTORE PUSH3 0x461BCD PUSH1 0xE5 SHL DUP3 MSTORE PUSH2 0xAD6 SWAP2 PUSH1 0x4 ADD PUSH2 0x4555 JUMP JUMPDEST PUSH1 0x1 PUSH1 0x1 PUSH1 0xA0 SHL SUB DUP2 AND EXTCODESIZE PUSH2 0x3887 JUMPI PUSH1 0x40 MLOAD PUSH3 0x461BCD PUSH1 0xE5 SHL DUP2 MSTORE PUSH1 0x20 PUSH1 0x4 DUP3 ADD MSTORE PUSH1 0x2D PUSH1 0x24 DUP3 ADD MSTORE PUSH32 0x455243313936373A206E657720696D706C656D656E746174696F6E206973206E PUSH1 0x44 DUP3 ADD MSTORE PUSH13 0x1BDD08184818DBDB9D1C9858DD PUSH1 0x9A SHL PUSH1 0x64 DUP3 ADD MSTORE PUSH1 0x84 ADD PUSH2 0xAD6 JUMP JUMPDEST PUSH1 0x0 DUP1 MLOAD PUSH1 0x20 PUSH2 0x5283 DUP4 CODECOPY DUP2 MLOAD SWAP2 MSTORE DUP1 SLOAD PUSH1 0x1 PUSH1 0x1 PUSH1 0xA0 SHL SUB NOT AND PUSH1 0x1 PUSH1 0x1 PUSH1 0xA0 SHL SUB SWAP3 SWAP1 SWAP3 AND SWAP2 SWAP1 SWAP2 OR SWAP1 SSTORE JUMP JUMPDEST PUSH2 0x38BF DUP4 PUSH2 0x40DD JUMP JUMPDEST PUSH1 0x0 DUP3 MLOAD GT DUP1 PUSH2 0x38CC JUMPI POP DUP1 JUMPDEST ISZERO PUSH2 0xB66 JUMPI PUSH2 0x38DB DUP4 DUP4 PUSH2 0x411D JUMP JUMPDEST POP POP POP POP JUMP JUMPDEST PUSH1 0x0 PUSH2 0xFF5 DUP4 PUSH1 0x1 PUSH1 0x1 PUSH1 0xA0 SHL SUB DUP5 AND PUSH2 0x4208 JUMP JUMPDEST PUSH2 0xCC8 DUP2 PUSH1 0x40 MLOAD PUSH1 0x24 ADD PUSH2 0x390A SWAP2 SWAP1 PUSH2 0x4555 JUMP JUMPDEST PUSH1 0x40 DUP1 MLOAD PUSH1 0x1F NOT DUP2 DUP5 SUB ADD DUP2 MSTORE SWAP2 SWAP1 MSTORE PUSH1 0x20 DUP2 ADD DUP1 MLOAD PUSH1 0x1 PUSH1 0x1 PUSH1 0xE0 SHL SUB AND PUSH4 0x104C13EB PUSH1 0xE2 SHL OR SWAP1 MSTORE PUSH2 0x4257 JUMP JUMPDEST PUSH2 0x100 SLOAD PUSH1 0x40 DUP1 MLOAD PUSH1 0x1 PUSH1 0x1 PUSH1 0xA0 SHL SUB SWAP3 DUP4 AND PUSH1 0x24 DUP3 ADD MSTORE SWAP2 DUP5 AND PUSH1 0x44 DUP4 ADD MSTORE PUSH1 0x64 DUP1 DUP4 ADD DUP5 SWAP1 MSTORE DUP2 MLOAD DUP1 DUP5 SUB SWAP1 SWAP2 ADD DUP2 MSTORE PUSH1 0x84 SWAP1 SWAP3 ADD DUP2 MSTORE PUSH1 0x20 DUP1 DUP4 ADD DUP1 MLOAD PUSH1 0x1 PUSH1 0x1 PUSH1 0xE0 SHL SUB AND PUSH4 0x23B872DD PUSH1 0xE0 SHL OR SWAP1 MSTORE DUP2 MLOAD PUSH1 0x60 DUP2 ADD SWAP1 SWAP3 MSTORE PUSH1 0x36 DUP1 DUP4 MSTORE PUSH1 0x0 SWAP4 SWAP3 PUSH2 0x39C1 SWAP3 SWAP1 SWAP2 SWAP1 PUSH2 0x52ED SWAP1 DUP4 ADD CODECOPY PUSH2 0x100 SLOAD PUSH1 0x1 PUSH1 0x1 PUSH1 0xA0 SHL SUB AND DUP7 DUP7 PUSH2 0x4278 JUMP JUMPDEST PUSH2 0x102 SLOAD PUSH1 0x40 MLOAD PUSH1 0x0 SWAP2 PUSH1 0x1 PUSH1 0x1 PUSH1 0xA0 SHL SUB AND SWAP1 PUSH2 0x39E0 SWAP1 DUP5 SWAP1 PUSH2 0x4BC5 JUMP JUMPDEST PUSH1 0x0 PUSH1 0x40 MLOAD DUP1 DUP4 SUB DUP2 PUSH1 0x0 DUP7 GAS CALL SWAP2 POP POP RETURNDATASIZE DUP1 PUSH1 0x0 DUP2 EQ PUSH2 0x3A1D JUMPI PUSH1 0x40 MLOAD SWAP2 POP PUSH1 0x1F NOT PUSH1 0x3F RETURNDATASIZE ADD AND DUP3 ADD PUSH1 0x40 MSTORE RETURNDATASIZE DUP3 MSTORE RETURNDATASIZE PUSH1 0x0 PUSH1 0x20 DUP5 ADD RETURNDATACOPY PUSH2 0x3A22 JUMP JUMPDEST PUSH1 0x60 SWAP2 POP JUMPDEST POP POP SWAP1 POP DUP1 PUSH2 0x2B5A JUMPI PUSH1 0x40 MLOAD PUSH3 0x461BCD PUSH1 0xE5 SHL DUP2 MSTORE PUSH1 0x20 PUSH1 0x4 DUP3 ADD MSTORE PUSH1 0x1A PUSH1 0x24 DUP3 ADD MSTORE PUSH32 0x457865637574653A207472616E73666572206661696C65732120000000000000 PUSH1 0x44 DUP3 ADD MSTORE PUSH1 0x64 ADD PUSH2 0xAD6 JUMP JUMPDEST PUSH1 0x0 DUP3 DUP2 MSTORE PUSH1 0xFC PUSH1 0x20 MSTORE PUSH1 0x40 DUP2 KECCAK256 DUP2 PUSH2 0x3A8E PUSH1 0x1 DUP4 ADD PUSH2 0x42C1 JUMP JUMPDEST SWAP1 POP PUSH1 0x0 DUP2 PUSH1 0x64 PUSH2 0x3AA0 DUP8 PUSH1 0x2 PUSH2 0x4EB8 JUMP JUMPDEST PUSH2 0x3AAA SWAP2 SWAP1 PUSH2 0x4ED7 JUMP JUMPDEST PUSH2 0x3AB4 SWAP2 SWAP1 PUSH2 0x4ED7 JUMP JUMPDEST SWAP1 POP PUSH2 0x3AF6 PUSH1 0x40 MLOAD DUP1 PUSH1 0x40 ADD PUSH1 0x40 MSTORE DUP1 PUSH1 0x20 DUP2 MSTORE PUSH1 0x20 ADD PUSH32 0x73656E64526577617264733A2025732C20766F7465724C656E6774683A202573 DUP2 MSTORE POP DUP3 DUP5 PUSH2 0x42CB JUMP JUMPDEST PUSH1 0x1 PUSH1 0x0 JUMPDEST DUP4 DUP2 LT ISZERO PUSH2 0x3B7F JUMPI PUSH1 0x40 DUP1 MLOAD DUP1 DUP3 ADD SWAP1 SWAP2 MSTORE PUSH1 0x1C DUP2 MSTORE PUSH32 0x7265776172642076616C696461746F7220616464726573733A20257300000000 PUSH1 0x20 DUP3 ADD MSTORE PUSH2 0x3B4D SWAP1 PUSH2 0x3B48 PUSH1 0x1 DUP9 ADD DUP5 PUSH2 0x4312 JUMP JUMPDEST PUSH2 0x431E JUMP JUMPDEST DUP2 DUP1 ISZERO PUSH2 0x3B6B JUMPI POP PUSH2 0x3B6B PUSH2 0x3B65 PUSH1 0x1 DUP8 ADD DUP4 PUSH2 0x4312 JUMP JUMPDEST DUP5 PUSH2 0x3939 JUMP JUMPDEST SWAP2 POP DUP1 PUSH2 0x3B77 DUP2 PUSH2 0x5104 JUMP JUMPDEST SWAP2 POP POP PUSH2 0x3AFB JUMP JUMPDEST POP SWAP7 SWAP6 POP POP POP POP POP POP JUMP JUMPDEST PUSH1 0x40 DUP1 MLOAD PUSH1 0x1 PUSH1 0x1 PUSH1 0xA0 SHL SUB DUP4 DUP2 AND PUSH1 0x24 DUP1 DUP5 ADD SWAP2 SWAP1 SWAP2 MSTORE DUP4 MLOAD DUP1 DUP5 SUB SWAP1 SWAP2 ADD DUP2 MSTORE PUSH1 0x44 SWAP1 SWAP3 ADD DUP4 MSTORE PUSH1 0x20 DUP3 ADD DUP1 MLOAD PUSH1 0x1 PUSH1 0x1 PUSH1 0xE0 SHL SUB AND PUSH4 0xF26C159F PUSH1 0xE0 SHL OR SWAP1 MSTORE PUSH2 0x102 SLOAD SWAP3 MLOAD PUSH1 0x0 SWAP4 DUP5 SWAP3 AND SWAP1 PUSH2 0x3BE5 SWAP1 DUP5 SWAP1 PUSH2 0x4BC5 JUMP JUMPDEST PUSH1 0x0 PUSH1 0x40 MLOAD DUP1 DUP4 SUB DUP2 PUSH1 0x0 DUP7 GAS CALL SWAP2 POP POP RETURNDATASIZE DUP1 PUSH1 0x0 DUP2 EQ PUSH2 0x3C22 JUMPI PUSH1 0x40 MLOAD SWAP2 POP PUSH1 0x1F NOT PUSH1 0x3F RETURNDATASIZE ADD AND DUP3 ADD PUSH1 0x40 MSTORE RETURNDATASIZE DUP3 MSTORE RETURNDATASIZE PUSH1 0x0 PUSH1 0x20 DUP5 ADD RETURNDATACOPY PUSH2 0x3C27 JUMP JUMPDEST PUSH1 0x60 SWAP2 POP JUMPDEST POP POP SWAP1 POP DUP1 PUSH2 0xFF5 JUMPI PUSH1 0x40 MLOAD PUSH3 0x461BCD PUSH1 0xE5 SHL DUP2 MSTORE PUSH1 0x20 PUSH1 0x4 DUP3 ADD MSTORE PUSH1 0x1E PUSH1 0x24 DUP3 ADD MSTORE PUSH32 0x457865637574653A20667265657A65206163636F756E74206661696C65640000 PUSH1 0x44 DUP3 ADD MSTORE PUSH1 0x64 ADD PUSH2 0xAD6 JUMP JUMPDEST PUSH1 0x40 DUP1 MLOAD PUSH1 0x1 PUSH1 0x1 PUSH1 0xA0 SHL SUB DUP4 DUP2 AND PUSH1 0x24 DUP1 DUP5 ADD SWAP2 SWAP1 SWAP2 MSTORE DUP4 MLOAD DUP1 DUP5 SUB SWAP1 SWAP2 ADD DUP2 MSTORE PUSH1 0x44 SWAP1 SWAP3 ADD DUP4 MSTORE PUSH1 0x20 DUP3 ADD DUP1 MLOAD PUSH1 0x1 PUSH1 0x1 PUSH1 0xE0 SHL SUB AND PUSH4 0x29E617D7 PUSH1 0xE1 SHL OR SWAP1 MSTORE PUSH2 0x102 SLOAD SWAP3 MLOAD PUSH1 0x0 SWAP4 DUP5 SWAP3 AND SWAP1 PUSH2 0x3CD3 SWAP1 DUP5 SWAP1 PUSH2 0x4BC5 JUMP JUMPDEST PUSH1 0x0 PUSH1 0x40 MLOAD DUP1 DUP4 SUB DUP2 PUSH1 0x0 DUP7 GAS CALL SWAP2 POP POP RETURNDATASIZE DUP1 PUSH1 0x0 DUP2 EQ PUSH2 0x3D10 JUMPI PUSH1 0x40 MLOAD SWAP2 POP PUSH1 0x1F NOT PUSH1 0x3F RETURNDATASIZE ADD AND DUP3 ADD PUSH1 0x40 MSTORE RETURNDATASIZE DUP3 MSTORE RETURNDATASIZE PUSH1 0x0 PUSH1 0x20 DUP5 ADD RETURNDATACOPY PUSH2 0x3D15 JUMP JUMPDEST PUSH1 0x60 SWAP2 POP JUMPDEST POP POP SWAP1 POP DUP1 PUSH2 0xFF5 JUMPI PUSH1 0x40 MLOAD PUSH3 0x461BCD PUSH1 0xE5 SHL DUP2 MSTORE PUSH1 0x20 PUSH1 0x4 DUP3 ADD DUP2 SWAP1 MSTORE PUSH1 0x24 DUP3 ADD MSTORE PUSH32 0x457865637574653A20556E667265657A65206163636F756E74206661696C6564 PUSH1 0x44 DUP3 ADD MSTORE PUSH1 0x64 ADD PUSH2 0xAD6 JUMP JUMPDEST PUSH1 0x0 PUSH32 0x8B73C3C69BB8FE3D512ECC4CF759CC79239F7B179B0FFACAA9A75D522B39400F PUSH2 0x103 PUSH1 0x40 MLOAD PUSH1 0x20 ADD PUSH2 0x3D9C SWAP2 SWAP1 PUSH2 0x511D JUMP JUMPDEST PUSH1 0x40 MLOAD PUSH1 0x20 DUP2 DUP4 SUB SUB DUP2 MSTORE SWAP1 PUSH1 0x40 MSTORE DUP1 MLOAD SWAP1 PUSH1 0x20 ADD KECCAK256 PUSH2 0x104 PUSH1 0x40 MLOAD PUSH1 0x20 ADD PUSH2 0x3DC5 SWAP2 SWAP1 PUSH2 0x511D JUMP JUMPDEST PUSH1 0x40 DUP1 MLOAD PUSH1 0x1F NOT DUP2 DUP5 SUB ADD DUP2 MSTORE DUP3 DUP3 MSTORE DUP1 MLOAD PUSH1 0x20 SWAP2 DUP3 ADD KECCAK256 SWAP1 DUP4 ADD SWAP5 SWAP1 SWAP5 MSTORE DUP2 ADD SWAP2 SWAP1 SWAP2 MSTORE PUSH1 0x60 DUP2 ADD SWAP2 SWAP1 SWAP2 MSTORE CHAINID PUSH1 0x80 DUP3 ADD MSTORE ADDRESS PUSH1 0xA0 DUP3 ADD MSTORE PUSH1 0xC0 ADD PUSH1 0x40 MLOAD PUSH1 0x20 DUP2 DUP4 SUB SUB DUP2 MSTORE SWAP1 PUSH1 0x40 MSTORE DUP1 MLOAD SWAP1 PUSH1 0x20 ADD KECCAK256 SWAP1 POP SWAP1 JUMP JUMPDEST PUSH1 0x0 DUP1 PUSH32 0x7FFFFFFFFFFFFFFFFFFFFFFFFFFFFFFF5D576E7357A4501DDFE92F46681B20A0 DUP4 GT ISZERO PUSH2 0x3E53 JUMPI POP PUSH1 0x0 SWAP1 POP PUSH1 0x3 PUSH2 0x3F00 JUMP JUMPDEST DUP5 PUSH1 0xFF AND PUSH1 0x1B EQ ISZERO DUP1 ISZERO PUSH2 0x3E6B JUMPI POP DUP5 PUSH1 0xFF AND PUSH1 0x1C EQ ISZERO JUMPDEST ISZERO PUSH2 0x3E7C JUMPI POP PUSH1 0x0 SWAP1 POP PUSH1 0x4 PUSH2 0x3F00 JUMP JUMPDEST PUSH1 0x40 DUP1 MLOAD PUSH1 0x0 DUP1 DUP3 MSTORE PUSH1 0x20 DUP3 ADD DUP1 DUP5 MSTORE DUP10 SWAP1 MSTORE PUSH1 0xFF DUP9 AND SWAP3 DUP3 ADD SWAP3 SWAP1 SWAP3 MSTORE PUSH1 0x60 DUP2 ADD DUP7 SWAP1 MSTORE PUSH1 0x80 DUP2 ADD DUP6 SWAP1 MSTORE PUSH1 0x1 SWAP1 PUSH1 0xA0 ADD PUSH1 0x20 PUSH1 0x40 MLOAD PUSH1 0x20 DUP2 SUB SWAP1 DUP1 DUP5 SUB SWAP1 DUP6 GAS STATICCALL ISZERO DUP1 ISZERO PUSH2 0x3ED0 JUMPI RETURNDATASIZE PUSH1 0x0 DUP1 RETURNDATACOPY RETURNDATASIZE PUSH1 0x0 REVERT JUMPDEST POP POP PUSH1 0x40 MLOAD PUSH1 0x1F NOT ADD MLOAD SWAP2 POP POP PUSH1 0x1 PUSH1 0x1 PUSH1 0xA0 SHL SUB DUP2 AND PUSH2 0x3EF9 JUMPI PUSH1 0x0 PUSH1 0x1 SWAP3 POP SWAP3 POP POP PUSH2 0x3F00 JUMP JUMPDEST SWAP2 POP PUSH1 0x0 SWAP1 POP JUMPDEST SWAP5 POP SWAP5 SWAP3 POP POP POP JUMP JUMPDEST PUSH1 0x0 DUP1 PUSH1 0x1 PUSH1 0x1 PUSH1 0xFF SHL SUB DUP4 AND DUP2 PUSH2 0x3F26 PUSH1 0xFF DUP7 SWAP1 SHR PUSH1 0x1B PUSH2 0x51B8 JUMP JUMPDEST SWAP1 POP PUSH2 0x3F34 DUP8 DUP3 DUP9 DUP6 PUSH2 0x3E1C JUMP JUMPDEST SWAP4 POP SWAP4 POP POP POP SWAP4 POP SWAP4 SWAP2 POP POP JUMP JUMPDEST PUSH1 0x60 PUSH1 0x0 PUSH2 0x3F51 DUP4 PUSH1 0x2 PUSH2 0x4EB8 JUMP JUMPDEST PUSH2 0x3F5C SWAP1 PUSH1 0x2 PUSH2 0x51B8 JUMP JUMPDEST PUSH1 0x1 PUSH1 0x1 PUSH1 0x40 SHL SUB DUP2 GT ISZERO PUSH2 0x3F73 JUMPI PUSH2 0x3F73 PUSH2 0x46A7 JUMP JUMPDEST PUSH1 0x40 MLOAD SWAP1 DUP1 DUP3 MSTORE DUP1 PUSH1 0x1F ADD PUSH1 0x1F NOT AND PUSH1 0x20 ADD DUP3 ADD PUSH1 0x40 MSTORE DUP1 ISZERO PUSH2 0x3F9D JUMPI PUSH1 0x20 DUP3 ADD DUP2 DUP1 CALLDATASIZE DUP4 CALLDATACOPY ADD SWAP1 POP JUMPDEST POP SWAP1 POP PUSH1 0x3 PUSH1 0xFC SHL DUP2 PUSH1 0x0 DUP2 MLOAD DUP2 LT PUSH2 0x3FB8 JUMPI PUSH2 0x3FB8 PUSH2 0x51D0 JUMP JUMPDEST PUSH1 0x20 ADD ADD SWAP1 PUSH1 0x1 PUSH1 0x1 PUSH1 0xF8 SHL SUB NOT AND SWAP1 DUP2 PUSH1 0x0 BYTE SWAP1 MSTORE8 POP PUSH1 0xF PUSH1 0xFB SHL DUP2 PUSH1 0x1 DUP2 MLOAD DUP2 LT PUSH2 0x3FE7 JUMPI PUSH2 0x3FE7 PUSH2 0x51D0 JUMP JUMPDEST PUSH1 0x20 ADD ADD SWAP1 PUSH1 0x1 PUSH1 0x1 PUSH1 0xF8 SHL SUB NOT AND SWAP1 DUP2 PUSH1 0x0 BYTE SWAP1 MSTORE8 POP PUSH1 0x0 PUSH2 0x400B DUP5 PUSH1 0x2 PUSH2 0x4EB8 JUMP JUMPDEST PUSH2 0x4016 SWAP1 PUSH1 0x1 PUSH2 0x51B8 JUMP JUMPDEST SWAP1 POP JUMPDEST PUSH1 0x1 DUP2 GT ISZERO PUSH2 0x408E JUMPI PUSH16 0x181899199A1A9B1B9C1CB0B131B232B3 PUSH1 0x81 SHL DUP6 PUSH1 0xF AND PUSH1 0x10 DUP2 LT PUSH2 0x404A JUMPI PUSH2 0x404A PUSH2 0x51D0 JUMP JUMPDEST BYTE PUSH1 0xF8 SHL DUP3 DUP3 DUP2 MLOAD DUP2 LT PUSH2 0x4060 JUMPI PUSH2 0x4060 PUSH2 0x51D0 JUMP JUMPDEST PUSH1 0x20 ADD ADD SWAP1 PUSH1 0x1 PUSH1 0x1 PUSH1 0xF8 SHL SUB NOT AND SWAP1 DUP2 PUSH1 0x0 BYTE SWAP1 MSTORE8 POP PUSH1 0x4 SWAP5 SWAP1 SWAP5 SHR SWAP4 PUSH2 0x4087 DUP2 PUSH2 0x51E6 JUMP JUMPDEST SWAP1 POP PUSH2 0x4019 JUMP JUMPDEST POP DUP4 ISZERO PUSH2 0xFF5 JUMPI PUSH1 0x40 MLOAD PUSH3 0x461BCD PUSH1 0xE5 SHL DUP2 MSTORE PUSH1 0x20 PUSH1 0x4 DUP3 ADD DUP2 SWAP1 MSTORE PUSH1 0x24 DUP3 ADD MSTORE PUSH32 0x537472696E67733A20686578206C656E67746820696E73756666696369656E74 PUSH1 0x44 DUP3 ADD MSTORE PUSH1 0x64 ADD PUSH2 0xAD6 JUMP JUMPDEST PUSH2 0x40E6 DUP2 PUSH2 0x381A JUMP JUMPDEST PUSH1 0x40 MLOAD PUSH1 0x1 PUSH1 0x1 PUSH1 0xA0 SHL SUB DUP3 AND SWAP1 PUSH32 0xBC7CD75A20EE27FD9ADEBAB32041F755214DBC6BFFA90CC0225B39DA2E5C2D3B SWAP1 PUSH1 0x0 SWAP1 LOG2 POP JUMP JUMPDEST PUSH1 0x60 PUSH1 0x1 PUSH1 0x1 PUSH1 0xA0 SHL SUB DUP4 AND EXTCODESIZE PUSH2 0x4185 JUMPI PUSH1 0x40 MLOAD PUSH3 0x461BCD PUSH1 0xE5 SHL DUP2 MSTORE PUSH1 0x20 PUSH1 0x4 DUP3 ADD MSTORE PUSH1 0x26 PUSH1 0x24 DUP3 ADD MSTORE PUSH32 0x416464726573733A2064656C65676174652063616C6C20746F206E6F6E2D636F PUSH1 0x44 DUP3 ADD MSTORE PUSH6 0x1B9D1C9858DD PUSH1 0xD2 SHL PUSH1 0x64 DUP3 ADD MSTORE PUSH1 0x84 ADD PUSH2 0xAD6 JUMP JUMPDEST PUSH1 0x0 DUP1 DUP5 PUSH1 0x1 PUSH1 0x1 PUSH1 0xA0 SHL SUB AND DUP5 PUSH1 0x40 MLOAD PUSH2 0x41A0 SWAP2 SWAP1 PUSH2 0x4BC5 JUMP JUMPDEST PUSH1 0x0 PUSH1 0x40 MLOAD DUP1 DUP4 SUB DUP2 DUP6 GAS DELEGATECALL SWAP2 POP POP RETURNDATASIZE DUP1 PUSH1 0x0 DUP2 EQ PUSH2 0x41DB JUMPI PUSH1 0x40 MLOAD SWAP2 POP PUSH1 0x1F NOT PUSH1 0x3F RETURNDATASIZE ADD AND DUP3 ADD PUSH1 0x40 MSTORE RETURNDATASIZE DUP3 MSTORE RETURNDATASIZE PUSH1 0x0 PUSH1 0x20 DUP5 ADD RETURNDATACOPY PUSH2 0x41E0 JUMP JUMPDEST PUSH1 0x60 SWAP2 POP JUMPDEST POP SWAP2 POP SWAP2 POP PUSH2 0x1176 DUP3 DUP3 PUSH1 0x40 MLOAD DUP1 PUSH1 0x60 ADD PUSH1 0x40 MSTORE DUP1 PUSH1 0x27 DUP2 MSTORE PUSH1 0x20 ADD PUSH2 0x52C6 PUSH1 0x27 SWAP2 CODECOPY PUSH2 0x4363 JUMP JUMPDEST PUSH1 0x0 DUP2 DUP2 MSTORE PUSH1 0x1 DUP4 ADD PUSH1 0x20 MSTORE PUSH1 0x40 DUP2 KECCAK256 SLOAD PUSH2 0x424F JUMPI POP DUP2 SLOAD PUSH1 0x1 DUP2 DUP2 ADD DUP5 SSTORE PUSH1 0x0 DUP5 DUP2 MSTORE PUSH1 0x20 DUP1 DUP3 KECCAK256 SWAP1 SWAP4 ADD DUP5 SWAP1 SSTORE DUP5 SLOAD DUP5 DUP3 MSTORE DUP3 DUP7 ADD SWAP1 SWAP4 MSTORE PUSH1 0x40 SWAP1 KECCAK256 SWAP2 SWAP1 SWAP2 SSTORE PUSH2 0x899 JUMP JUMPDEST POP PUSH1 0x0 PUSH2 0x899 JUMP JUMPDEST DUP1 MLOAD PUSH11 0x636F6E736F6C652E6C6F67 PUSH1 0x20 DUP4 ADD PUSH1 0x0 DUP1 DUP5 DUP4 DUP6 GAS STATICCALL POP POP POP POP POP JUMP JUMPDEST PUSH2 0x38DB DUP5 DUP5 DUP5 DUP5 PUSH1 0x40 MLOAD PUSH1 0x24 ADD PUSH2 0x4292 SWAP5 SWAP4 SWAP3 SWAP2 SWAP1 PUSH2 0x51FD JUMP JUMPDEST PUSH1 0x40 DUP1 MLOAD PUSH1 0x1F NOT DUP2 DUP5 SUB ADD DUP2 MSTORE SWAP2 SWAP1 MSTORE PUSH1 0x20 DUP2 ADD DUP1 MLOAD PUSH1 0x1 PUSH1 0x1 PUSH1 0xE0 SHL SUB AND PUSH4 0x6EB7943D PUSH1 0xE0 SHL OR SWAP1 MSTORE PUSH2 0x4257 JUMP JUMPDEST PUSH1 0x0 PUSH2 0x899 DUP3 SLOAD SWAP1 JUMP JUMPDEST PUSH2 0xB66 DUP4 DUP4 DUP4 PUSH1 0x40 MLOAD PUSH1 0x24 ADD PUSH2 0x42E3 SWAP4 SWAP3 SWAP2 SWAP1 PUSH2 0x5233 JUMP JUMPDEST PUSH1 0x40 DUP1 MLOAD PUSH1 0x1F NOT DUP2 DUP5 SUB ADD DUP2 MSTORE SWAP2 SWAP1 MSTORE PUSH1 0x20 DUP2 ADD DUP1 MLOAD PUSH1 0x1 PUSH1 0x1 PUSH1 0xE0 SHL SUB AND PUSH4 0x969CDD03 PUSH1 0xE0 SHL OR SWAP1 MSTORE PUSH2 0x4257 JUMP JUMPDEST PUSH1 0x0 PUSH2 0xFF5 DUP4 DUP4 PUSH2 0x439C JUMP JUMPDEST PUSH2 0xBFF DUP3 DUP3 PUSH1 0x40 MLOAD PUSH1 0x24 ADD PUSH2 0x4334 SWAP3 SWAP2 SWAP1 PUSH2 0x5258 JUMP JUMPDEST PUSH1 0x40 DUP1 MLOAD PUSH1 0x1F NOT DUP2 DUP5 SUB ADD DUP2 MSTORE SWAP2 SWAP1 MSTORE PUSH1 0x20 DUP2 ADD DUP1 MLOAD PUSH1 0x1 PUSH1 0x1 PUSH1 0xE0 SHL SUB AND PUSH4 0x319AF333 PUSH1 0xE0 SHL OR SWAP1 MSTORE PUSH2 0x4257 JUMP JUMPDEST PUSH1 0x60 DUP4 ISZERO PUSH2 0x4372 JUMPI POP DUP2 PUSH2 0xFF5 JUMP JUMPDEST DUP3 MLOAD ISZERO PUSH2 0x4382 JUMPI DUP3 MLOAD DUP1 DUP5 PUSH1 0x20 ADD REVERT JUMPDEST DUP2 PUSH1 0x40 MLOAD PUSH3 0x461BCD PUSH1 0xE5 SHL DUP2 MSTORE PUSH1 0x4 ADD PUSH2 0xAD6 SWAP2 SWAP1 PUSH2 0x4555 JUMP JUMPDEST PUSH1 0x0 DUP3 PUSH1 0x0 ADD DUP3 DUP2 SLOAD DUP2 LT PUSH2 0x43B3 JUMPI PUSH2 0x43B3 PUSH2 0x51D0 JUMP JUMPDEST SWAP1 PUSH1 0x0 MSTORE PUSH1 0x20 PUSH1 0x0 KECCAK256 ADD SLOAD SWAP1 POP SWAP3 SWAP2 POP POP JUMP JUMPDEST DUP3 DUP1 SLOAD PUSH2 0x43D2 SWAP1 PUSH2 0x4A43 JUMP JUMPDEST SWAP1 PUSH1 0x0 MSTORE PUSH1 0x20 PUSH1 0x0 KECCAK256 SWAP1 PUSH1 0x1F ADD PUSH1 0x20 SWAP1 DIV DUP2 ADD SWAP3 DUP3 PUSH2 0x43F4 JUMPI PUSH1 0x0 DUP6 SSTORE PUSH2 0x443A JUMP JUMPDEST DUP3 PUSH1 0x1F LT PUSH2 0x440D JUMPI DUP3 DUP1 ADD PUSH1 0xFF NOT DUP3 CALLDATALOAD AND OR DUP6 SSTORE PUSH2 0x443A JUMP JUMPDEST DUP3 DUP1 ADD PUSH1 0x1 ADD DUP6 SSTORE DUP3 ISZERO PUSH2 0x443A JUMPI SWAP2 DUP3 ADD JUMPDEST DUP3 DUP2 GT ISZERO PUSH2 0x443A JUMPI DUP3 CALLDATALOAD DUP3 SSTORE SWAP2 PUSH1 0x20 ADD SWAP2 SWAP1 PUSH1 0x1 ADD SWAP1 PUSH2 0x441F JUMP JUMPDEST POP PUSH2 0x4446 SWAP3 SWAP2 POP PUSH2 0x44BE JUMP JUMPDEST POP SWAP1 JUMP JUMPDEST DUP3 DUP1 SLOAD PUSH2 0x4456 SWAP1 PUSH2 0x4A43 JUMP JUMPDEST SWAP1 PUSH1 0x0 MSTORE PUSH1 0x20 PUSH1 0x0 KECCAK256 SWAP1 PUSH1 0x1F ADD PUSH1 0x20 SWAP1 DIV DUP2 ADD SWAP3 DUP3 PUSH2 0x4478 JUMPI PUSH1 0x0 DUP6 SSTORE PUSH2 0x443A JUMP JUMPDEST DUP3 PUSH1 0x1F LT PUSH2 0x4491 JUMPI DUP1 MLOAD PUSH1 0xFF NOT AND DUP4 DUP1 ADD OR DUP6 SSTORE PUSH2 0x443A JUMP JUMPDEST DUP3 DUP1 ADD PUSH1 0x1 ADD DUP6 SSTORE DUP3 ISZERO PUSH2 0x443A JUMPI SWAP2 DUP3 ADD JUMPDEST DUP3 DUP2 GT ISZERO PUSH2 0x443A JUMPI DUP3 MLOAD DUP3 SSTORE SWAP2 PUSH1 0x20 ADD SWAP2 SWAP1 PUSH1 0x1 ADD SWAP1 PUSH2 0x44A3 JUMP JUMPDEST JUMPDEST DUP1 DUP3 GT ISZERO PUSH2 0x4446 JUMPI PUSH1 0x0 DUP2 SSTORE PUSH1 0x1 ADD PUSH2 0x44BF JUMP JUMPDEST PUSH1 0x0 PUSH1 0x20 DUP3 DUP5 SUB SLT ISZERO PUSH2 0x44E5 JUMPI PUSH1 0x0 DUP1 REVERT JUMPDEST DUP2 CALLDATALOAD PUSH1 0x1 PUSH1 0x1 PUSH1 0xE0 SHL SUB NOT DUP2 AND DUP2 EQ PUSH2 0xFF5 JUMPI PUSH1 0x0 DUP1 REVERT JUMPDEST PUSH1 0x0 JUMPDEST DUP4 DUP2 LT ISZERO PUSH2 0x4518 JUMPI DUP2 DUP2 ADD MLOAD DUP4 DUP3 ADD MSTORE PUSH1 0x20 ADD PUSH2 0x4500 JUMP JUMPDEST DUP4 DUP2 GT ISZERO PUSH2 0x38DB JUMPI POP POP PUSH1 0x0 SWAP2 ADD MSTORE JUMP JUMPDEST PUSH1 0x0 DUP2 MLOAD DUP1 DUP5 MSTORE PUSH2 0x4541 DUP2 PUSH1 0x20 DUP7 ADD PUSH1 0x20 DUP7 ADD PUSH2 0x44FD JUMP JUMPDEST PUSH1 0x1F ADD PUSH1 0x1F NOT AND SWAP3 SWAP1 SWAP3 ADD PUSH1 0x20 ADD SWAP3 SWAP2 POP POP JUMP JUMPDEST PUSH1 0x20 DUP2 MSTORE PUSH1 0x0 PUSH2 0xFF5 PUSH1 0x20 DUP4 ADD DUP5 PUSH2 0x4529 JUMP JUMPDEST PUSH1 0x0 DUP1 DUP4 PUSH1 0x1F DUP5 ADD SLT PUSH2 0x457A JUMPI PUSH1 0x0 DUP1 REVERT JUMPDEST POP DUP2 CALLDATALOAD PUSH1 0x1 PUSH1 0x1 PUSH1 0x40 SHL SUB DUP2 GT ISZERO PUSH2 0x4591 JUMPI PUSH1 0x0 DUP1 REVERT JUMPDEST PUSH1 0x20 DUP4 ADD SWAP2 POP DUP4 PUSH1 0x20 DUP3 DUP6 ADD ADD GT ISZERO PUSH2 0x2C7C JUMPI PUSH1 0x0 DUP1 REVERT JUMPDEST PUSH1 0x1 PUSH1 0x1 PUSH1 0xA0 SHL SUB DUP2 AND DUP2 EQ PUSH2 0xCC8 JUMPI PUSH1 0x0 DUP1 REVERT JUMPDEST PUSH1 0x0 DUP1 PUSH1 0x0 DUP1 PUSH1 0x0 PUSH1 0x60 DUP7 DUP9 SUB SLT ISZERO PUSH2 0x45D6 JUMPI PUSH1 0x0 DUP1 REVERT JUMPDEST DUP6 CALLDATALOAD PUSH1 0x1 PUSH1 0x1 PUSH1 0x40 SHL SUB DUP1 DUP3 GT ISZERO PUSH2 0x45ED JUMPI PUSH1 0x0 DUP1 REVERT JUMPDEST PUSH2 0x45F9 DUP10 DUP4 DUP11 ADD PUSH2 0x4568 JUMP JUMPDEST SWAP1 SWAP8 POP SWAP6 POP PUSH1 0x20 DUP9 ADD CALLDATALOAD SWAP2 POP DUP1 DUP3 GT ISZERO PUSH2 0x4612 JUMPI PUSH1 0x0 DUP1 REVERT JUMPDEST POP PUSH2 0x461F DUP9 DUP3 DUP10 ADD PUSH2 0x4568 JUMP JUMPDEST SWAP1 SWAP5 POP SWAP3 POP POP PUSH1 0x40 DUP7 ADD CALLDATALOAD PUSH2 0x4633 DUP2 PUSH2 0x45A9 JUMP JUMPDEST DUP1 SWAP2 POP POP SWAP3 SWAP6 POP SWAP3 SWAP6 SWAP1 SWAP4 POP JUMP JUMPDEST PUSH1 0x0 PUSH1 0x20 DUP3 DUP5 SUB SLT ISZERO PUSH2 0x4653 JUMPI PUSH1 0x0 DUP1 REVERT JUMPDEST DUP2 CALLDATALOAD PUSH2 0xFF5 DUP2 PUSH2 0x45A9 JUMP JUMPDEST PUSH1 0x0 PUSH1 0x20 DUP3 DUP5 SUB SLT ISZERO PUSH2 0x4670 JUMPI PUSH1 0x0 DUP1 REVERT JUMPDEST POP CALLDATALOAD SWAP2 SWAP1 POP JUMP JUMPDEST PUSH1 0x0 DUP1 PUSH1 0x40 DUP4 DUP6 SUB SLT ISZERO PUSH2 0x468A JUMPI PUSH1 0x0 DUP1 REVERT JUMPDEST DUP3 CALLDATALOAD SWAP2 POP PUSH1 0x20 DUP4 ADD CALLDATALOAD PUSH2 0x469C DUP2 PUSH2 0x45A9 JUMP JUMPDEST DUP1 SWAP2 POP POP SWAP3 POP SWAP3 SWAP1 POP JUMP JUMPDEST PUSH4 0x4E487B71 PUSH1 0xE0 SHL PUSH1 0x0 MSTORE PUSH1 0x41 PUSH1 0x4 MSTORE PUSH1 0x24 PUSH1 0x0 REVERT JUMPDEST PUSH1 0x40 MLOAD PUSH1 0xA0 DUP2 ADD PUSH1 0x1 PUSH1 0x1 PUSH1 0x40 SHL SUB DUP2 GT DUP3 DUP3 LT OR ISZERO PUSH2 0x46DF JUMPI PUSH2 0x46DF PUSH2 0x46A7 JUMP JUMPDEST PUSH1 0x40 MSTORE SWAP1 JUMP JUMPDEST PUSH1 0x40 MLOAD PUSH1 0x1F DUP3 ADD PUSH1 0x1F NOT AND DUP2 ADD PUSH1 0x1 PUSH1 0x1 PUSH1 0x40 SHL SUB DUP2 GT DUP3 DUP3 LT OR ISZERO PUSH2 0x470D JUMPI PUSH2 0x470D PUSH2 0x46A7 JUMP JUMPDEST PUSH1 0x40 MSTORE SWAP2 SWAP1 POP JUMP JUMPDEST PUSH1 0x0 PUSH1 0x1 PUSH1 0x1 PUSH1 0x40 SHL SUB DUP3 GT ISZERO PUSH2 0x472E JUMPI PUSH2 0x472E PUSH2 0x46A7 JUMP JUMPDEST POP PUSH1 0x1F ADD PUSH1 0x1F NOT AND PUSH1 0x20 ADD SWAP1 JUMP JUMPDEST PUSH1 0x0 DUP3 PUSH1 0x1F DUP4 ADD SLT PUSH2 0x474D JUMPI PUSH1 0x0 DUP1 REVERT JUMPDEST DUP2 CALLDATALOAD PUSH2 0x4760 PUSH2 0x475B DUP3 PUSH2 0x4715 JUMP JUMPDEST PUSH2 0x46E5 JUMP JUMPDEST DUP2 DUP2 MSTORE DUP5 PUSH1 0x20 DUP4 DUP7 ADD ADD GT ISZERO PUSH2 0x4775 JUMPI PUSH1 0x0 DUP1 REVERT JUMPDEST DUP2 PUSH1 0x20 DUP6 ADD PUSH1 0x20 DUP4 ADD CALLDATACOPY PUSH1 0x0 SWAP2 DUP2 ADD PUSH1 0x20 ADD SWAP2 SWAP1 SWAP2 MSTORE SWAP4 SWAP3 POP POP POP JUMP JUMPDEST PUSH1 0x0 DUP1 PUSH1 0x40 DUP4 DUP6 SUB SLT ISZERO PUSH2 0x47A5 JUMPI PUSH1 0x0 DUP1 REVERT JUMPDEST DUP3 CALLDATALOAD PUSH2 0x47B0 DUP2 PUSH2 0x45A9 JUMP JUMPDEST SWAP2 POP PUSH1 0x20 DUP4 ADD CALLDATALOAD PUSH1 0x1 PUSH1 0x1 PUSH1 0x40 SHL SUB DUP2 GT ISZERO PUSH2 0x47CB JUMPI PUSH1 0x0 DUP1 REVERT JUMPDEST PUSH2 0x47D7 DUP6 DUP3 DUP7 ADD PUSH2 0x473C JUMP JUMPDEST SWAP2 POP POP SWAP3 POP SWAP3 SWAP1 POP JUMP JUMPDEST PUSH4 0x4E487B71 PUSH1 0xE0 SHL PUSH1 0x0 MSTORE PUSH1 0x21 PUSH1 0x4 MSTORE PUSH1 0x24 PUSH1 0x0 REVERT JUMPDEST PUSH1 0x20 DUP2 ADD PUSH1 0x8 DUP4 LT PUSH2 0x480B JUMPI PUSH2 0x480B PUSH2 0x47E1 JUMP JUMPDEST SWAP2 SWAP1 MSTORE SWAP1 JUMP JUMPDEST DUP1 ISZERO ISZERO DUP2 EQ PUSH2 0xCC8 JUMPI PUSH1 0x0 DUP1 REVERT JUMPDEST PUSH1 0x0 PUSH1 0x20 DUP3 DUP5 SUB SLT ISZERO PUSH2 0x4831 JUMPI PUSH1 0x0 DUP1 REVERT JUMPDEST DUP2 CALLDATALOAD PUSH2 0xFF5 DUP2 PUSH2 0x4811 JUMP JUMPDEST PUSH1 0x4 DUP2 LT PUSH2 0xCC8 JUMPI PUSH1 0x0 DUP1 REVERT JUMPDEST PUSH1 0x0 DUP1 PUSH1 0x0 DUP1 PUSH1 0x60 DUP6 DUP8 SUB SLT ISZERO PUSH2 0x485F JUMPI PUSH1 0x0 DUP1 REVERT JUMPDEST DUP5 CALLDATALOAD PUSH1 0x1 PUSH1 0x1 PUSH1 0x40 SHL SUB DUP2 GT ISZERO PUSH2 0x4875 JUMPI PUSH1 0x0 DUP1 REVERT JUMPDEST PUSH2 0x4881 DUP8 DUP3 DUP9 ADD PUSH2 0x4568 JUMP JUMPDEST SWAP1 SWAP6 POP SWAP4 POP POP PUSH1 0x20 DUP6 ADD CALLDATALOAD SWAP2 POP PUSH1 0x40 DUP6 ADD CALLDATALOAD PUSH2 0x489C DUP2 PUSH2 0x483C JUMP JUMPDEST SWAP4 SWAP7 SWAP3 SWAP6 POP SWAP1 SWAP4 POP POP JUMP JUMPDEST PUSH1 0x0 DUP1 PUSH1 0x40 DUP4 DUP6 SUB SLT ISZERO PUSH2 0x48BA JUMPI PUSH1 0x0 DUP1 REVERT JUMPDEST DUP3 CALLDATALOAD SWAP2 POP PUSH1 0x20 DUP4 ADD CALLDATALOAD PUSH1 0x1 PUSH1 0x1 PUSH1 0x40 SHL SUB DUP2 GT ISZERO PUSH2 0x47CB JUMPI PUSH1 0x0 DUP1 REVERT JUMPDEST DUP1 CALLDATALOAD PUSH1 0x5 DUP2 LT PUSH2 0x1BB6 JUMPI PUSH1 0x0 DUP1 REVERT JUMPDEST PUSH1 0x0 DUP1 PUSH1 0x0 DUP1 PUSH1 0x0 DUP1 PUSH1 0xC0 DUP8 DUP10 SUB SLT ISZERO PUSH2 0x48FF JUMPI PUSH1 0x0 DUP1 REVERT JUMPDEST DUP7 CALLDATALOAD SWAP6 POP PUSH1 0x20 DUP8 ADD CALLDATALOAD SWAP5 POP PUSH1 0x40 DUP8 ADD CALLDATALOAD PUSH2 0x4918 DUP2 PUSH2 0x45A9 JUMP JUMPDEST SWAP4 POP PUSH1 0x60 DUP8 ADD CALLDATALOAD PUSH2 0x4928 DUP2 PUSH2 0x483C JUMP JUMPDEST SWAP3 POP PUSH2 0x4936 PUSH1 0x80 DUP9 ADD PUSH2 0x48D7 JUMP JUMPDEST SWAP2 POP PUSH1 0xA0 DUP8 ADD CALLDATALOAD PUSH1 0x1 PUSH1 0x1 PUSH1 0x40 SHL SUB DUP2 GT ISZERO PUSH2 0x4951 JUMPI PUSH1 0x0 DUP1 REVERT JUMPDEST PUSH2 0x495D DUP10 DUP3 DUP11 ADD PUSH2 0x473C JUMP JUMPDEST SWAP2 POP POP SWAP3 SWAP6 POP SWAP3 SWAP6 POP SWAP3 SWAP6 JUMP JUMPDEST PUSH1 0x0 DUP1 PUSH1 0x40 DUP4 DUP6 SUB SLT ISZERO PUSH2 0x497D JUMPI PUSH1 0x0 DUP1 REVERT JUMPDEST DUP3 CALLDATALOAD PUSH1 0x1 PUSH1 0x1 PUSH1 0x40 SHL SUB DUP1 DUP3 GT ISZERO PUSH2 0x4994 JUMPI PUSH1 0x0 DUP1 REVERT JUMPDEST SWAP1 DUP5 ADD SWAP1 PUSH1 0xA0 DUP3 DUP8 SUB SLT ISZERO PUSH2 0x49A8 JUMPI PUSH1 0x0 DUP1 REVERT JUMPDEST PUSH2 0x49B0 PUSH2 0x46BD JUMP JUMPDEST DUP3 CALLDATALOAD DUP2 MSTORE PUSH1 0x20 DUP4 ADD CALLDATALOAD PUSH2 0x49C2 DUP2 PUSH2 0x483C JUMP JUMPDEST PUSH1 0x20 DUP3 ADD MSTORE PUSH2 0x49D3 PUSH1 0x40 DUP5 ADD PUSH2 0x48D7 JUMP JUMPDEST PUSH1 0x40 DUP3 ADD MSTORE PUSH1 0x60 DUP4 ADD CALLDATALOAD DUP3 DUP2 GT ISZERO PUSH2 0x49EA JUMPI PUSH1 0x0 DUP1 REVERT JUMPDEST PUSH2 0x49F6 DUP9 DUP3 DUP7 ADD PUSH2 0x473C JUMP JUMPDEST PUSH1 0x60 DUP4 ADD MSTORE POP PUSH1 0x80 DUP4 ADD CALLDATALOAD DUP3 DUP2 GT ISZERO PUSH2 0x4A0E JUMPI PUSH1 0x0 DUP1 REVERT JUMPDEST PUSH2 0x4A1A DUP9 DUP3 DUP7 ADD PUSH2 0x473C JUMP JUMPDEST PUSH1 0x80 DUP4 ADD MSTORE POP SWAP4 POP PUSH1 0x20 DUP6 ADD CALLDATALOAD SWAP2 POP DUP1 DUP3 GT ISZERO PUSH2 0x4A36 JUMPI PUSH1 0x0 DUP1 REVERT JUMPDEST POP PUSH2 0x47D7 DUP6 DUP3 DUP7 ADD PUSH2 0x473C JUMP JUMPDEST PUSH1 0x1 DUP2 DUP2 SHR SWAP1 DUP3 AND DUP1 PUSH2 0x4A57 JUMPI PUSH1 0x7F DUP3 AND SWAP2 POP JUMPDEST PUSH1 0x20 DUP3 LT DUP2 SUB PUSH2 0x14CA JUMPI PUSH4 0x4E487B71 PUSH1 0xE0 SHL PUSH1 0x0 MSTORE PUSH1 0x22 PUSH1 0x4 MSTORE PUSH1 0x24 PUSH1 0x0 REVERT JUMPDEST PUSH4 0x4E487B71 PUSH1 0xE0 SHL PUSH1 0x0 MSTORE PUSH1 0x11 PUSH1 0x4 MSTORE PUSH1 0x24 PUSH1 0x0 REVERT JUMPDEST PUSH1 0x0 PUSH4 0xFFFFFFFF DUP4 DUP2 AND SWAP1 DUP4 AND DUP2 DUP2 LT ISZERO PUSH2 0x4AAA JUMPI PUSH2 0x4AAA PUSH2 0x4A77 JUMP JUMPDEST SUB SWAP4 SWAP3 POP POP POP JUMP JUMPDEST PUSH1 0x20 DUP1 DUP3 MSTORE PUSH1 0x2C SWAP1 DUP3 ADD MSTORE PUSH32 0x46756E6374696F6E206D7573742062652063616C6C6564207468726F75676820 PUSH1 0x40 DUP3 ADD MSTORE PUSH12 0x19195B1959D85D1958D85B1B PUSH1 0xA2 SHL PUSH1 0x60 DUP3 ADD MSTORE PUSH1 0x80 ADD SWAP1 JUMP JUMPDEST PUSH1 0x20 DUP1 DUP3 MSTORE PUSH1 0x2C SWAP1 DUP3 ADD MSTORE PUSH32 0x46756E6374696F6E206D7573742062652063616C6C6564207468726F75676820 PUSH1 0x40 DUP3 ADD MSTORE PUSH12 0x6163746976652070726F7879 PUSH1 0xA0 SHL PUSH1 0x60 DUP3 ADD MSTORE PUSH1 0x80 ADD SWAP1 JUMP JUMPDEST PUSH1 0x4 DUP2 LT PUSH2 0xCC8 JUMPI PUSH2 0xCC8 PUSH2 0x47E1 JUMP JUMPDEST PUSH1 0x5 DUP2 LT PUSH2 0x4B6A JUMPI PUSH2 0x4B6A PUSH2 0x47E1 JUMP JUMPDEST SWAP1 MSTORE JUMP JUMPDEST DUP7 DUP2 MSTORE PUSH1 0x20 DUP2 ADD DUP7 SWAP1 MSTORE PUSH1 0x1 PUSH1 0x1 PUSH1 0xA0 SHL SUB DUP6 AND PUSH1 0x40 DUP3 ADD MSTORE PUSH2 0x4B90 DUP5 PUSH2 0x4B4A JUMP JUMPDEST DUP4 PUSH1 0x60 DUP3 ADD MSTORE PUSH2 0x4BA3 PUSH1 0x80 DUP3 ADD DUP5 PUSH2 0x4B5A JUMP JUMPDEST PUSH1 0xC0 PUSH1 0xA0 DUP3 ADD MSTORE PUSH1 0x0 PUSH2 0x4BB9 PUSH1 0xC0 DUP4 ADD DUP5 PUSH2 0x4529 JUMP JUMPDEST SWAP9 SWAP8 POP POP POP POP POP POP POP POP JUMP JUMPDEST PUSH1 0x0 DUP3 MLOAD PUSH2 0x4BD7 DUP2 DUP5 PUSH1 0x20 DUP8 ADD PUSH2 0x44FD JUMP JUMPDEST SWAP2 SWAP1 SWAP2 ADD SWAP3 SWAP2 POP POP JUMP JUMPDEST PUSH1 0x0 PUSH1 0x20 DUP3 DUP5 SUB SLT ISZERO PUSH2 0x4BF3 JUMPI PUSH1 0x0 DUP1 REVERT JUMPDEST DUP2 MLOAD PUSH2 0xFF5 DUP2 PUSH2 0x4811 JUMP JUMPDEST PUSH1 0x0 PUSH1 0x1 PUSH1 0x1 PUSH1 0x40 SHL SUB DUP1 DUP4 AND DUP2 DUP6 AND DUP1 DUP4 SUB DUP3 GT ISZERO PUSH2 0x4C20 JUMPI PUSH2 0x4C20 PUSH2 0x4A77 JUMP JUMPDEST ADD SWAP5 SWAP4 POP POP POP POP JUMP JUMPDEST PUSH1 0x20 DUP1 DUP3 MSTORE PUSH1 0x2E SWAP1 DUP3 ADD MSTORE PUSH32 0x496E697469616C697A61626C653A20636F6E747261637420697320616C726561 PUSH1 0x40 DUP3 ADD MSTORE PUSH14 0x191E481A5B9A5D1A585B1A5E9959 PUSH1 0x92 SHL PUSH1 0x60 DUP3 ADD MSTORE PUSH1 0x80 ADD SWAP1 JUMP JUMPDEST PUSH1 0x0 PUSH1 0x20 DUP3 DUP5 SUB SLT ISZERO PUSH2 0x4C89 JUMPI PUSH1 0x0 DUP1 REVERT JUMPDEST POP MLOAD SWAP2 SWAP1 POP JUMP JUMPDEST PUSH4 0x4E487B71 PUSH1 0xE0 SHL PUSH1 0x0 MSTORE PUSH1 0x12 PUSH1 0x4 MSTORE PUSH1 0x24 PUSH1 0x0 REVERT JUMPDEST PUSH1 0x0 PUSH4 0xFFFFFFFF DUP1 DUP5 AND DUP1 PUSH2 0x4CBD JUMPI PUSH2 0x4CBD PUSH2 0x4C90 JUMP JUMPDEST SWAP3 AND SWAP2 SWAP1 SWAP2 DIV SWAP3 SWAP2 POP POP JUMP JUMPDEST PUSH1 0x0 PUSH4 0xFFFFFFFF DUP1 DUP4 AND DUP2 DUP6 AND DUP1 DUP4 SUB DUP3 GT ISZERO PUSH2 0x4C20 JUMPI PUSH2 0x4C20 PUSH2 0x4A77 JUMP JUMPDEST PUSH2 0x4CF1 DUP4 PUSH2 0x4B4A JUMP JUMPDEST DUP3 DUP2 MSTORE PUSH1 0x40 PUSH1 0x20 DUP3 ADD MSTORE PUSH1 0x0 PUSH2 0x2B5A PUSH1 0x40 DUP4 ADD DUP5 PUSH2 0x4529 JUMP JUMPDEST PUSH1 0x0 DUP3 PUSH1 0x1F DUP4 ADD SLT PUSH2 0x4D1B JUMPI PUSH1 0x0 DUP1 REVERT JUMPDEST DUP2 MLOAD PUSH2 0x4D29 PUSH2 0x475B DUP3 PUSH2 0x4715 JUMP JUMPDEST DUP2 DUP2 MSTORE DUP5 PUSH1 0x20 DUP4 DUP7 ADD ADD GT ISZERO PUSH2 0x4D3E JUMPI PUSH1 0x0 DUP1 REVERT JUMPDEST PUSH2 0x2B5A DUP3 PUSH1 0x20 DUP4 ADD PUSH1 0x20 DUP8 ADD PUSH2 0x44FD JUMP JUMPDEST PUSH1 0x0 PUSH1 0x20 DUP3 DUP5 SUB SLT ISZERO PUSH2 0x4D61 JUMPI PUSH1 0x0 DUP1 REVERT JUMPDEST DUP2 MLOAD PUSH1 0x1 PUSH1 0x1 PUSH1 0x40 SHL SUB DUP1 DUP3 GT ISZERO PUSH2 0x4D78 JUMPI PUSH1 0x0 DUP1 REVERT JUMPDEST SWAP1 DUP4 ADD SWAP1 PUSH1 0x40 DUP3 DUP7 SUB SLT ISZERO PUSH2 0x4D8C JUMPI PUSH1 0x0 DUP1 REVERT JUMPDEST PUSH1 0x40 MLOAD PUSH1 0x40 DUP2 ADD DUP2 DUP2 LT DUP4 DUP3 GT OR ISZERO PUSH2 0x4DA7 JUMPI PUSH2 0x4DA7 PUSH2 0x46A7 JUMP JUMPDEST PUSH1 0x40 MSTORE DUP3 MLOAD DUP3 DUP2 GT ISZERO PUSH2 0x4DB9 JUMPI PUSH1 0x0 DUP1 REVERT JUMPDEST PUSH2 0x4DC5 DUP8 DUP3 DUP7 ADD PUSH2 0x4D0A JUMP JUMPDEST DUP3 MSTORE POP PUSH1 0x20 DUP4 ADD MLOAD SWAP3 POP PUSH2 0x4DD8 DUP4 PUSH2 0x45A9 JUMP JUMPDEST PUSH1 0x20 DUP2 ADD SWAP3 SWAP1 SWAP3 MSTORE POP SWAP4 SWAP3 POP POP POP JUMP JUMPDEST PUSH1 0x0 PUSH1 0x80 DUP3 DUP5 SUB SLT ISZERO PUSH2 0x4DFA JUMPI PUSH1 0x0 DUP1 REVERT JUMPDEST PUSH1 0x40 MLOAD PUSH1 0x80 DUP2 ADD PUSH1 0x1 PUSH1 0x1 PUSH1 0x40 SHL SUB DUP3 DUP3 LT DUP2 DUP4 GT OR ISZERO PUSH2 0x4E1D JUMPI PUSH2 0x4E1D PUSH2 0x46A7 JUMP JUMPDEST DUP2 PUSH1 0x40 MSTORE DUP3 SWAP4 POP DUP5 MLOAD SWAP2 POP DUP1 DUP3 GT ISZERO PUSH2 0x4E35 JUMPI PUSH1 0x0 DUP1 REVERT JUMPDEST POP PUSH2 0x4E42 DUP6 DUP3 DUP7 ADD PUSH2 0x4D0A JUMP JUMPDEST DUP3 MSTORE POP PUSH1 0x20 DUP4 ADD MLOAD PUSH1 0x20 DUP3 ADD MSTORE PUSH1 0x40 DUP4 ADD MLOAD PUSH2 0x4E5D DUP2 PUSH2 0x45A9 JUMP JUMPDEST PUSH1 0x40 DUP3 ADD MSTORE PUSH1 0x60 DUP4 ADD MLOAD PUSH2 0xFFFF DUP2 AND DUP2 EQ PUSH2 0x4E77 JUMPI PUSH1 0x0 DUP1 REVERT JUMPDEST PUSH1 0x60 SWAP2 SWAP1 SWAP2 ADD MSTORE SWAP3 SWAP2 POP POP JUMP JUMPDEST PUSH1 0x0 PUSH1 0x20 DUP3 DUP5 SUB SLT ISZERO PUSH2 0x4E96 JUMPI PUSH1 0x0 DUP1 REVERT JUMPDEST DUP2 MLOAD PUSH1 0x1 PUSH1 0x1 PUSH1 0x40 SHL SUB DUP2 GT ISZERO PUSH2 0x4EAC JUMPI PUSH1 0x0 DUP1 REVERT JUMPDEST PUSH2 0x2B5A DUP5 DUP3 DUP6 ADD PUSH2 0x4DE8 JUMP JUMPDEST PUSH1 0x0 DUP2 PUSH1 0x0 NOT DIV DUP4 GT DUP3 ISZERO ISZERO AND ISZERO PUSH2 0x4ED2 JUMPI PUSH2 0x4ED2 PUSH2 0x4A77 JUMP JUMPDEST POP MUL SWAP1 JUMP JUMPDEST PUSH1 0x0 DUP3 PUSH2 0x4EE6 JUMPI PUSH2 0x4EE6 PUSH2 0x4C90 JUMP JUMPDEST POP DIV SWAP1 JUMP JUMPDEST PUSH1 0x0 PUSH1 0x20 DUP3 DUP5 SUB SLT ISZERO PUSH2 0x4EFD JUMPI PUSH1 0x0 DUP1 REVERT JUMPDEST PUSH1 0x40 MLOAD PUSH1 0x20 DUP2 ADD DUP2 DUP2 LT PUSH1 0x1 PUSH1 0x1 PUSH1 0x40 SHL SUB DUP3 GT OR ISZERO PUSH2 0x4F1F JUMPI PUSH2 0x4F1F PUSH2 0x46A7 JUMP JUMPDEST DUP1 PUSH1 0x40 MSTORE POP DUP1 SWAP2 POP DUP3 MLOAD PUSH2 0x4F32 DUP2 PUSH2 0x45A9 JUMP JUMPDEST SWAP1 MSTORE SWAP3 SWAP2 POP POP JUMP JUMPDEST PUSH1 0x0 PUSH1 0x20 DUP3 DUP5 SUB SLT ISZERO PUSH2 0x4F4C JUMPI PUSH1 0x0 DUP1 REVERT JUMPDEST PUSH2 0xFF5 DUP4 DUP4 PUSH2 0x4EEB JUMP JUMPDEST DUP8 DUP2 MSTORE PUSH1 0x20 DUP2 ADD DUP8 SWAP1 MSTORE PUSH1 0x40 DUP2 ADD DUP7 SWAP1 MSTORE PUSH1 0x1 PUSH1 0x1 PUSH1 0xA0 SHL SUB DUP6 AND PUSH1 0x60 DUP3 ADD MSTORE PUSH1 0xE0 DUP2 ADD PUSH2 0x4F83 DUP6 PUSH2 0x4B4A JUMP JUMPDEST DUP5 PUSH1 0x80 DUP4 ADD MSTORE PUSH2 0x4F96 PUSH1 0xA0 DUP4 ADD DUP6 PUSH2 0x4B5A JUMP JUMPDEST DUP3 PUSH1 0xC0 DUP4 ADD MSTORE SWAP9 SWAP8 POP POP POP POP POP POP POP POP JUMP JUMPDEST DUP4 DUP2 MSTORE DUP3 PUSH1 0x20 DUP3 ADD MSTORE PUSH1 0x60 PUSH1 0x40 DUP3 ADD MSTORE PUSH1 0x0 PUSH2 0x1176 PUSH1 0x60 DUP4 ADD DUP5 PUSH2 0x4529 JUMP JUMPDEST PUSH1 0x20 DUP1 DUP3 MSTORE PUSH1 0x26 SWAP1 DUP3 ADD MSTORE PUSH32 0x7374617274757020746F6B656E206F666665722073686F756C64206E6F742062 PUSH1 0x40 DUP3 ADD MSTORE PUSH6 0x65207A65726F PUSH1 0xD0 SHL PUSH1 0x60 DUP3 ADD MSTORE PUSH1 0x80 ADD SWAP1 JUMP JUMPDEST PUSH1 0x20 DUP1 DUP3 MSTORE PUSH1 0x27 SWAP1 DUP3 ADD MSTORE PUSH32 0x7374617274757020736861726564207374616B652073686F756C64206E6F7420 PUSH1 0x40 DUP3 ADD MSTORE PUSH7 0x6265207A65726F PUSH1 0xC8 SHL PUSH1 0x60 DUP3 ADD MSTORE PUSH1 0x80 ADD SWAP1 JUMP JUMPDEST DUP6 DUP2 MSTORE DUP5 PUSH1 0x20 DUP3 ADD MSTORE DUP4 PUSH1 0x40 DUP3 ADD MSTORE PUSH1 0xA0 PUSH1 0x60 DUP3 ADD MSTORE PUSH1 0x0 PUSH2 0x5079 PUSH1 0xA0 DUP4 ADD DUP6 PUSH2 0x4529 JUMP JUMPDEST SWAP1 POP PUSH2 0xFFFF DUP4 AND PUSH1 0x80 DUP4 ADD MSTORE SWAP7 SWAP6 POP POP POP POP POP POP JUMP JUMPDEST PUSH32 0x416363657373436F6E74726F6C3A206163636F756E7420000000000000000000 DUP2 MSTORE PUSH1 0x0 DUP4 MLOAD PUSH2 0x50C7 DUP2 PUSH1 0x17 DUP6 ADD PUSH1 0x20 DUP9 ADD PUSH2 0x44FD JUMP JUMPDEST PUSH17 0x1034B99036B4B9B9B4B733903937B6329 PUSH1 0x7D SHL PUSH1 0x17 SWAP2 DUP5 ADD SWAP2 DUP3 ADD MSTORE DUP4 MLOAD PUSH2 0x50F8 DUP2 PUSH1 0x28 DUP5 ADD PUSH1 0x20 DUP9 ADD PUSH2 0x44FD JUMP JUMPDEST ADD PUSH1 0x28 ADD SWAP5 SWAP4 POP POP POP POP JUMP JUMPDEST PUSH1 0x0 PUSH1 0x1 DUP3 ADD PUSH2 0x5116 JUMPI PUSH2 0x5116 PUSH2 0x4A77 JUMP JUMPDEST POP PUSH1 0x1 ADD SWAP1 JUMP JUMPDEST PUSH1 0x0 DUP1 DUP4 SLOAD DUP2 PUSH1 0x1 DUP3 DUP2 SHR SWAP2 POP DUP1 DUP4 AND DUP1 PUSH2 0x5139 JUMPI PUSH1 0x7F DUP4 AND SWAP3 POP JUMPDEST PUSH1 0x20 DUP1 DUP5 LT DUP3 SUB PUSH2 0x5158 JUMPI PUSH4 0x4E487B71 PUSH1 0xE0 SHL DUP7 MSTORE PUSH1 0x22 PUSH1 0x4 MSTORE PUSH1 0x24 DUP7 REVERT JUMPDEST DUP2 DUP1 ISZERO PUSH2 0x516C JUMPI PUSH1 0x1 DUP2 EQ PUSH2 0x517D JUMPI PUSH2 0x51AA JUMP JUMPDEST PUSH1 0xFF NOT DUP7 AND DUP10 MSTORE DUP5 DUP10 ADD SWAP7 POP PUSH2 0x51AA JUMP JUMPDEST PUSH1 0x0 DUP11 DUP2 MSTORE PUSH1 0x20 SWAP1 KECCAK256 PUSH1 0x0 JUMPDEST DUP7 DUP2 LT ISZERO PUSH2 0x51A2 JUMPI DUP2 SLOAD DUP12 DUP3 ADD MSTORE SWAP1 DUP6 ADD SWAP1 DUP4 ADD PUSH2 0x5189 JUMP JUMPDEST POP POP DUP5 DUP10 ADD SWAP7 POP JUMPDEST POP SWAP5 SWAP9 SWAP8 POP POP POP POP POP POP POP POP JUMP JUMPDEST PUSH1 0x0 DUP3 NOT DUP3 GT ISZERO PUSH2 0x51CB JUMPI PUSH2 0x51CB PUSH2 0x4A77 JUMP JUMPDEST POP ADD SWAP1 JUMP JUMPDEST PUSH4 0x4E487B71 PUSH1 0xE0 SHL PUSH1 0x0 MSTORE PUSH1 0x32 PUSH1 0x4 MSTORE PUSH1 0x24 PUSH1 0x0 REVERT JUMPDEST PUSH1 0x0 DUP2 PUSH2 0x51F5 JUMPI PUSH2 0x51F5 PUSH2 0x4A77 JUMP JUMPDEST POP PUSH1 0x0 NOT ADD SWAP1 JUMP JUMPDEST PUSH1 0x80 DUP2 MSTORE PUSH1 0x0 PUSH2 0x5210 PUSH1 0x80 DUP4 ADD DUP8 PUSH2 0x4529 JUMP JUMPDEST PUSH1 0x1 PUSH1 0x1 PUSH1 0xA0 SHL SUB SWAP6 DUP7 AND PUSH1 0x20 DUP5 ADD MSTORE SWAP4 SWAP1 SWAP5 AND PUSH1 0x40 DUP3 ADD MSTORE PUSH1 0x60 ADD MSTORE SWAP3 SWAP2 POP POP JUMP JUMPDEST PUSH1 0x60 DUP2 MSTORE PUSH1 0x0 PUSH2 0x5246 PUSH1 0x60 DUP4 ADD DUP7 PUSH2 0x4529 JUMP JUMPDEST PUSH1 0x20 DUP4 ADD SWAP5 SWAP1 SWAP5 MSTORE POP PUSH1 0x40 ADD MSTORE SWAP2 SWAP1 POP JUMP JUMPDEST PUSH1 0x40 DUP2 MSTORE PUSH1 0x0 PUSH2 0x526B PUSH1 0x40 DUP4 ADD DUP6 PUSH2 0x4529 JUMP JUMPDEST SWAP1 POP PUSH1 0x1 DUP1 PUSH1 0xA0 SHL SUB DUP4 AND PUSH1 0x20 DUP4 ADD MSTORE SWAP4 SWAP3 POP POP POP JUMP INVALID CALLDATASIZE ADDMOD SWAP5 LOG1 EXTCODESIZE LOG1 LOG3 0x21 MOD PUSH8 0xC828492DB98DCA3E KECCAK256 PUSH23 0xCC3735A920A3CA505D382BBC6578697374207472616E73 PUSH7 0x65722025352063 PUSH16 0x6D6D697373696F6E202E202E202E2041 PUSH5 0x6472657373 GASPRICE KECCAK256 PUSH13 0x6F772D6C6576656C2064656C65 PUSH8 0x6174652063616C6C KECCAK256 PUSH7 0x61696C65647265 PUSH20 0x657276656420616464726573733A2025732C2072 PUSH6 0x636569766572 KECCAK256 PUSH2 0x6464 PUSH19 0x6573733A2025732C20616D6F756E743A202573 LOG4 SWAP9 SMOD KECCAK256 0x5C 0xE4 0xD3 SSTORE MULMOD 0x2E CREATE2 0xA8 LOG1 DUP16 JUMP 0xE8 SWAP2 EXTCODECOPY DELEGATECALL LOG2 ADD 0xFB 0xE2 DUP8 DUP3 JUMPDEST MULMOD JUMP SWAP4 0xC2 OR PUSH22 0x6578697374207472616E7366657220746F6B656E4F66 PUSH7 0x736572202E202E KECCAK256 0x2E KECCAK256 PUSH6 0x786973742074 PUSH19 0x616E736665722025312070726F706F73657220 0x2E KECCAK256 0x2E KECCAK256 0x2E KECCAK256 LOG2 PUSH5 0x6970667358 0x22 SLT KECCAK256 0x2B MUL AND 0xCD MOD 0x26 0xB8 JUMP 0xBF PUSH21 0x45BEAECDA3D97A6D44F385977C62E1A069E9B7DFB8 PUSH21 0x64736F6C634300080E003300000000000000000000 "
    },
    "gasEstimates": {
      "creation": {
        "codeDepositCost": "4286800",
        "executionCost": "infinite",
        "totalCost": "infinite"
      },
      "external": {
        "ADMIN_ROLE()": "infinite",
        "CONSENSUS_ROLE()": "305",
        "DEFAULT_ADMIN_ROLE()": "262",
        "FREEZE_ACCOUNT_SIGNATURE()": "352",
        "TRANSFER_SIGNATURE()": "352",
        "UNFREEZE_ACCOUNT_SIGNATURE()": "286",
        "cancel(bytes32,string)": "infinite",
        "castVote(string,bytes32,uint8)": "infinite",
        "castVoteAdmin(bytes32)": "infinite",
        "commissionWallet()": "2382",
        "disableValidator(address)": "infinite",
        "execute(bytes32)": "infinite",
        "getRoleAdmin(bytes32)": "2534",
        "grantRole(bytes32,address)": "infinite",
        "hasRole(bytes32,address)": "2787",
        "hasVoted(bytes32,address)": "infinite",
        "hashProposal(bytes32,bytes32,address,uint8,uint8,bytes)": "infinite",
        "initialize(string,string,address)": "infinite",
        "innTokenAddress()": "2425",
        "isAdminFirstVote()": "2355",
        "isMigrationEnabled()": "2384",
        "isStartup(address)": "4960",
        "isValidator(address)": "4970",
        "name()": "infinite",
        "oldVersion()": "2405",
        "oracle()": "2444",
        "propose((bytes32,uint8,uint8,string,bytes),bytes)": "infinite",
        "proxiableUUID()": "infinite",
        "renounceRole(bytes32,address)": "29090",
        "reservedWallet()": "2426",
        "revokeRole(bytes32,address)": "infinite",
        "setMigration(bool)": "infinite",
        "setVotingDelay(uint256)": "infinite",
        "setVotingPeriod(uint256)": "infinite",
        "startupCount()": "2436",
        "state(bytes32)": "infinite",
        "supportsInterface(bytes4)": "473",
        "upgradeTo(address)": "infinite",
        "upgradeToAndCall(address,bytes)": "infinite",
        "validatorCount()": "2448",
        "version()": "infinite",
        "votingDelay()": "2429",
        "votingPeriod()": "2364"
      },
      "internal": {
        "_authorizeUpgrade(address)": "infinite",
        "_castVote(bytes32,address,enum IGovernorINN.VoteType,string memory)": "infinite",
        "_domainSeparatorV4()": "infinite",
        "_execute(struct IGovernorINNImplV2.ProposalCore storage pointer)": "infinite",
        "_freezeAccount(address)": "infinite",
        "_fullQuorum(bytes32)": "infinite",
        "_generateProposalCreationEvent(struct IGovernorINNImplV2.ProposalCore storage pointer)": "infinite",
        "_getMessageHash(bytes32,bytes32,address,enum IGovernorINN.ProposalType,enum IGovernorINN.ActionType,bytes memory)": "infinite",
        "_hashTypedDataV4(bytes32)": "infinite",
        "_quorumReached(bytes32)": "4560",
        "_sendRewards(bytes32,uint256)": "infinite",
        "_transferCommission(address,uint256)": "infinite",
        "_transferToken(address,uint256)": "infinite",
        "_unfreezeAccount(address)": "infinite"
      }
    },
    "methodIdentifiers": {
      "ADMIN_ROLE()": "75b238fc",
      "CONSENSUS_ROLE()": "fa2dabad",
      "DEFAULT_ADMIN_ROLE()": "a217fddf",
      "FREEZE_ACCOUNT_SIGNATURE()": "afdf6710",
      "TRANSFER_SIGNATURE()": "e0310e52",
      "UNFREEZE_ACCOUNT_SIGNATURE()": "c0e6d5d6",
      "cancel(bytes32,string)": "b7d6fe24",
      "castVote(string,bytes32,uint8)": "a5d79624",
      "castVoteAdmin(bytes32)": "30d9b773",
      "commissionWallet()": "97c0262a",
      "disableValidator(address)": "1fe97684",
      "execute(bytes32)": "e751f271",
      "getRoleAdmin(bytes32)": "248a9ca3",
      "grantRole(bytes32,address)": "2f2ff15d",
      "hasRole(bytes32,address)": "91d14854",
      "hasVoted(bytes32,address)": "aadc3b72",
      "hashProposal(bytes32,bytes32,address,uint8,uint8,bytes)": "be5967ea",
      "initialize(string,string,address)": "077f224a",
      "innTokenAddress()": "f8c662ff",
      "isAdminFirstVote()": "41863ed6",
      "isMigrationEnabled()": "33f3533b",
      "isStartup(address)": "5ae766f3",
      "isValidator(address)": "facd743b",
      "name()": "06fdde03",
      "oldVersion()": "211dc1a7",
      "oracle()": "7dc0d1d0",
      "propose((bytes32,uint8,uint8,string,bytes),bytes)": "ff666653",
      "proxiableUUID()": "52d1902d",
      "renounceRole(bytes32,address)": "36568abe",
      "reservedWallet()": "c22ab4e0",
      "revokeRole(bytes32,address)": "d547741f",
      "setMigration(bool)": "7f1e250c",
      "setVotingDelay(uint256)": "70b0f660",
      "setVotingPeriod(uint256)": "ea0217cf",
      "startupCount()": "25ce7586",
      "state(bytes32)": "61d585da",
      "supportsInterface(bytes4)": "01ffc9a7",
      "upgradeTo(address)": "3659cfe6",
      "upgradeToAndCall(address,bytes)": "4f1ef286",
      "validatorCount()": "0f43a677",
      "version()": "54fd4d50",
      "votingDelay()": "3932abb1",
      "votingPeriod()": "02a251a3"
    }
  },
  "storageLayout": {
    "storage": [
      {
        "astId": 808,
        "contract": "src/contracts/test/IGovernorINNImplV2.sol:IGovernorINNImplV2",
        "label": "_initialized",
        "offset": 0,
        "slot": "0",
        "type": "t_uint8"
      },
      {
        "astId": 811,
        "contract": "src/contracts/test/IGovernorINNImplV2.sol:IGovernorINNImplV2",
        "label": "_initializing",
        "offset": 1,
        "slot": "0",
        "type": "t_bool"
      },
      {
        "astId": 790,
        "contract": "src/contracts/test/IGovernorINNImplV2.sol:IGovernorINNImplV2",
        "label": "__gap",
        "offset": 0,
        "slot": "1",
        "type": "t_array(t_uint256)50_storage"
      },
      {
        "astId": 1078,
        "contract": "src/contracts/test/IGovernorINNImplV2.sol:IGovernorINNImplV2",
        "label": "__gap",
        "offset": 0,
        "slot": "51",
        "type": "t_array(t_uint256)50_storage"
      },
      {
        "astId": 1363,
        "contract": "src/contracts/test/IGovernorINNImplV2.sol:IGovernorINNImplV2",
        "label": "__gap",
        "offset": 0,
        "slot": "101",
        "type": "t_array(t_uint256)50_storage"
      },
      {
        "astId": 2441,
        "contract": "src/contracts/test/IGovernorINNImplV2.sol:IGovernorINNImplV2",
        "label": "__gap",
        "offset": 0,
        "slot": "151",
        "type": "t_array(t_uint256)50_storage"
      },
      {
        "astId": 39,
        "contract": "src/contracts/test/IGovernorINNImplV2.sol:IGovernorINNImplV2",
        "label": "_roles",
        "offset": 0,
        "slot": "201",
        "type": "t_mapping(t_bytes32,t_struct(RoleData)34_storage)"
      },
      {
        "astId": 338,
        "contract": "src/contracts/test/IGovernorINNImplV2.sol:IGovernorINNImplV2",
        "label": "__gap",
        "offset": 0,
        "slot": "202",
        "type": "t_array(t_uint256)49_storage"
      },
      {
        "astId": 16090,
        "contract": "src/contracts/test/IGovernorINNImplV2.sol:IGovernorINNImplV2",
        "label": "_registry",
        "offset": 0,
        "slot": "251",
        "type": "t_mapping(t_address,t_struct(EntityInfo)16041_storage)"
      },
      {
        "astId": 16095,
        "contract": "src/contracts/test/IGovernorINNImplV2.sol:IGovernorINNImplV2",
        "label": "_proposalVotes",
        "offset": 0,
        "slot": "252",
        "type": "t_mapping(t_bytes32,t_struct(ProposalVote)16029_storage)"
      },
      {
        "astId": 16100,
        "contract": "src/contracts/test/IGovernorINNImplV2.sol:IGovernorINNImplV2",
        "label": "_proposals",
        "offset": 0,
        "slot": "253",
        "type": "t_mapping(t_bytes32,t_struct(ProposalCore)16019_storage)"
      },
      {
        "astId": 16102,
        "contract": "src/contracts/test/IGovernorINNImplV2.sol:IGovernorINNImplV2",
        "label": "votingDelay",
        "offset": 0,
        "slot": "254",
        "type": "t_uint256"
      },
      {
        "astId": 16104,
        "contract": "src/contracts/test/IGovernorINNImplV2.sol:IGovernorINNImplV2",
        "label": "votingPeriod",
        "offset": 0,
        "slot": "255",
        "type": "t_uint256"
      },
      {
        "astId": 16106,
        "contract": "src/contracts/test/IGovernorINNImplV2.sol:IGovernorINNImplV2",
        "label": "reservedWallet",
        "offset": 0,
        "slot": "256",
        "type": "t_address"
      },
      {
        "astId": 16108,
        "contract": "src/contracts/test/IGovernorINNImplV2.sol:IGovernorINNImplV2",
        "label": "commissionWallet",
        "offset": 0,
        "slot": "257",
        "type": "t_address"
      },
      {
        "astId": 16110,
        "contract": "src/contracts/test/IGovernorINNImplV2.sol:IGovernorINNImplV2",
        "label": "innTokenAddress",
        "offset": 0,
        "slot": "258",
        "type": "t_address"
      },
      {
        "astId": 16112,
        "contract": "src/contracts/test/IGovernorINNImplV2.sol:IGovernorINNImplV2",
        "label": "_domainName",
        "offset": 0,
        "slot": "259",
        "type": "t_string_storage"
      },
      {
        "astId": 16114,
        "contract": "src/contracts/test/IGovernorINNImplV2.sol:IGovernorINNImplV2",
        "label": "_domainVersion",
        "offset": 0,
        "slot": "260",
        "type": "t_string_storage"
      },
      {
        "astId": 16116,
        "contract": "src/contracts/test/IGovernorINNImplV2.sol:IGovernorINNImplV2",
        "label": "validatorCount",
        "offset": 0,
        "slot": "261",
        "type": "t_uint32"
      },
      {
        "astId": 16118,
        "contract": "src/contracts/test/IGovernorINNImplV2.sol:IGovernorINNImplV2",
        "label": "startupCount",
        "offset": 4,
        "slot": "261",
        "type": "t_uint32"
      },
      {
        "astId": 16120,
        "contract": "src/contracts/test/IGovernorINNImplV2.sol:IGovernorINNImplV2",
        "label": "isMigrationEnabled",
        "offset": 8,
        "slot": "261",
        "type": "t_bool"
      },
      {
        "astId": 16122,
        "contract": "src/contracts/test/IGovernorINNImplV2.sol:IGovernorINNImplV2",
        "label": "isAdminFirstVote",
        "offset": 9,
        "slot": "261",
        "type": "t_bool"
      },
      {
        "astId": 16124,
        "contract": "src/contracts/test/IGovernorINNImplV2.sol:IGovernorINNImplV2",
        "label": "oracle",
        "offset": 10,
        "slot": "261",
        "type": "t_address"
      },
      {
        "astId": 16126,
        "contract": "src/contracts/test/IGovernorINNImplV2.sol:IGovernorINNImplV2",
        "label": "oldVersion",
        "offset": 0,
        "slot": "262",
        "type": "t_address"
      }
    ],
    "types": {
      "t_address": {
        "encoding": "inplace",
        "label": "address",
        "numberOfBytes": "20"
      },
      "t_array(t_bytes32)dyn_storage": {
        "base": "t_bytes32",
        "encoding": "dynamic_array",
        "label": "bytes32[]",
        "numberOfBytes": "32"
      },
      "t_array(t_uint256)49_storage": {
        "base": "t_uint256",
        "encoding": "inplace",
        "label": "uint256[49]",
        "numberOfBytes": "1568"
      },
      "t_array(t_uint256)50_storage": {
        "base": "t_uint256",
        "encoding": "inplace",
        "label": "uint256[50]",
        "numberOfBytes": "1600"
      },
      "t_bool": {
        "encoding": "inplace",
        "label": "bool",
        "numberOfBytes": "1"
      },
      "t_bytes32": {
        "encoding": "inplace",
        "label": "bytes32",
        "numberOfBytes": "32"
      },
      "t_bytes_storage": {
        "encoding": "bytes",
        "label": "bytes",
        "numberOfBytes": "32"
      },
      "t_enum(ActionType)13252": {
        "encoding": "inplace",
        "label": "enum IGovernorINN.ActionType",
        "numberOfBytes": "1"
      },
      "t_enum(EntityKind)16033": {
        "encoding": "inplace",
        "label": "enum IGovernorINNImplV2.EntityKind",
        "numberOfBytes": "1"
      },
      "t_enum(ProposalType)13246": {
        "encoding": "inplace",
        "label": "enum IGovernorINN.ProposalType",
        "numberOfBytes": "1"
      },
      "t_mapping(t_address,t_bool)": {
        "encoding": "mapping",
        "key": "t_address",
        "label": "mapping(address => bool)",
        "numberOfBytes": "32",
        "value": "t_bool"
      },
      "t_mapping(t_address,t_struct(EntityInfo)16041_storage)": {
        "encoding": "mapping",
        "key": "t_address",
        "label": "mapping(address => struct IGovernorINNImplV2.EntityInfo)",
        "numberOfBytes": "32",
        "value": "t_struct(EntityInfo)16041_storage"
      },
      "t_mapping(t_bytes32,t_struct(ProposalCore)16019_storage)": {
        "encoding": "mapping",
        "key": "t_bytes32",
        "label": "mapping(bytes32 => struct IGovernorINNImplV2.ProposalCore)",
        "numberOfBytes": "32",
        "value": "t_struct(ProposalCore)16019_storage"
      },
      "t_mapping(t_bytes32,t_struct(ProposalVote)16029_storage)": {
        "encoding": "mapping",
        "key": "t_bytes32",
        "label": "mapping(bytes32 => struct IGovernorINNImplV2.ProposalVote)",
        "numberOfBytes": "32",
        "value": "t_struct(ProposalVote)16029_storage"
      },
      "t_mapping(t_bytes32,t_struct(RoleData)34_storage)": {
        "encoding": "mapping",
        "key": "t_bytes32",
        "label": "mapping(bytes32 => struct AccessControlUpgradeable.RoleData)",
        "numberOfBytes": "32",
        "value": "t_struct(RoleData)34_storage"
      },
      "t_mapping(t_bytes32,t_uint256)": {
        "encoding": "mapping",
        "key": "t_bytes32",
        "label": "mapping(bytes32 => uint256)",
        "numberOfBytes": "32",
        "value": "t_uint256"
      },
      "t_string_storage": {
        "encoding": "bytes",
        "label": "string",
        "numberOfBytes": "32"
      },
      "t_struct(AddressSet)3495_storage": {
        "encoding": "inplace",
        "label": "struct EnumerableSetUpgradeable.AddressSet",
        "members": [
          {
            "astId": 3494,
            "contract": "src/contracts/test/IGovernorINNImplV2.sol:IGovernorINNImplV2",
            "label": "_inner",
            "offset": 0,
            "slot": "0",
            "type": "t_struct(Set)3194_storage"
          }
        ],
        "numberOfBytes": "64"
      },
      "t_struct(EntityInfo)16041_storage": {
        "encoding": "inplace",
        "label": "struct IGovernorINNImplV2.EntityInfo",
        "members": [
          {
            "astId": 16035,
            "contract": "src/contracts/test/IGovernorINNImplV2.sol:IGovernorINNImplV2",
            "label": "name",
            "offset": 0,
            "slot": "0",
            "type": "t_string_storage"
          },
          {
            "astId": 16038,
            "contract": "src/contracts/test/IGovernorINNImplV2.sol:IGovernorINNImplV2",
            "label": "kind",
            "offset": 0,
            "slot": "1",
            "type": "t_enum(EntityKind)16033"
          },
          {
            "astId": 16040,
            "contract": "src/contracts/test/IGovernorINNImplV2.sol:IGovernorINNImplV2",
            "label": "isEnabled",
            "offset": 1,
            "slot": "1",
            "type": "t_bool"
          }
        ],
        "numberOfBytes": "64"
      },
      "t_struct(ProposalCore)16019_storage": {
        "encoding": "inplace",
        "label": "struct IGovernorINNImplV2.ProposalCore",
        "members": [
          {
            "astId": 15994,
            "contract": "src/contracts/test/IGovernorINNImplV2.sol:IGovernorINNImplV2",
            "label": "proposalID",
            "offset": 0,
            "slot": "0",
            "type": "t_bytes32"
          },
          {
            "astId": 15996,
            "contract": "src/contracts/test/IGovernorINNImplV2.sol:IGovernorINNImplV2",
            "label": "offchainID",
            "offset": 0,
            "slot": "1",
            "type": "t_bytes32"
          },
          {
            "astId": 15998,
            "contract": "src/contracts/test/IGovernorINNImplV2.sol:IGovernorINNImplV2",
            "label": "descriptionHash",
            "offset": 0,
            "slot": "2",
            "type": "t_bytes32"
          },
          {
            "astId": 16000,
            "contract": "src/contracts/test/IGovernorINNImplV2.sol:IGovernorINNImplV2",
            "label": "proposer",
            "offset": 0,
            "slot": "3",
            "type": "t_address"
          },
          {
            "astId": 16003,
            "contract": "src/contracts/test/IGovernorINNImplV2.sol:IGovernorINNImplV2",
            "label": "votingStartAt",
            "offset": 0,
            "slot": "4",
            "type": "t_struct(Timestamp)1633_storage"
          },
          {
            "astId": 16006,
            "contract": "src/contracts/test/IGovernorINNImplV2.sol:IGovernorINNImplV2",
            "label": "votingEndAt",
            "offset": 0,
            "slot": "5",
            "type": "t_struct(Timestamp)1633_storage"
          },
          {
            "astId": 16009,
            "contract": "src/contracts/test/IGovernorINNImplV2.sol:IGovernorINNImplV2",
            "label": "proposalType",
            "offset": 0,
            "slot": "6",
            "type": "t_enum(ProposalType)13246"
          },
          {
            "astId": 16012,
            "contract": "src/contracts/test/IGovernorINNImplV2.sol:IGovernorINNImplV2",
            "label": "actionType",
            "offset": 1,
            "slot": "6",
            "type": "t_enum(ActionType)13252"
          },
          {
            "astId": 16014,
            "contract": "src/contracts/test/IGovernorINNImplV2.sol:IGovernorINNImplV2",
            "label": "isExecuted",
            "offset": 2,
            "slot": "6",
            "type": "t_bool"
          },
          {
            "astId": 16016,
            "contract": "src/contracts/test/IGovernorINNImplV2.sol:IGovernorINNImplV2",
            "label": "isCanceled",
            "offset": 3,
            "slot": "6",
            "type": "t_bool"
          },
          {
            "astId": 16018,
            "contract": "src/contracts/test/IGovernorINNImplV2.sol:IGovernorINNImplV2",
            "label": "data",
            "offset": 0,
            "slot": "7",
            "type": "t_bytes_storage"
          }
        ],
        "numberOfBytes": "256"
      },
      "t_struct(ProposalVote)16029_storage": {
        "encoding": "inplace",
        "label": "struct IGovernorINNImplV2.ProposalVote",
        "members": [
          {
            "astId": 16021,
            "contract": "src/contracts/test/IGovernorINNImplV2.sol:IGovernorINNImplV2",
            "label": "againstVotes",
            "offset": 0,
            "slot": "0",
            "type": "t_uint64"
          },
          {
            "astId": 16023,
            "contract": "src/contracts/test/IGovernorINNImplV2.sol:IGovernorINNImplV2",
            "label": "forVotes",
            "offset": 8,
            "slot": "0",
            "type": "t_uint64"
          },
          {
            "astId": 16025,
            "contract": "src/contracts/test/IGovernorINNImplV2.sol:IGovernorINNImplV2",
            "label": "abstainVotes",
            "offset": 16,
            "slot": "0",
            "type": "t_uint64"
          },
          {
            "astId": 16028,
            "contract": "src/contracts/test/IGovernorINNImplV2.sol:IGovernorINNImplV2",
            "label": "hasVoted",
            "offset": 0,
            "slot": "1",
            "type": "t_struct(AddressSet)3495_storage"
          }
        ],
        "numberOfBytes": "96"
      },
      "t_struct(RoleData)34_storage": {
        "encoding": "inplace",
        "label": "struct AccessControlUpgradeable.RoleData",
        "members": [
          {
            "astId": 31,
            "contract": "src/contracts/test/IGovernorINNImplV2.sol:IGovernorINNImplV2",
            "label": "members",
            "offset": 0,
            "slot": "0",
            "type": "t_mapping(t_address,t_bool)"
          },
          {
            "astId": 33,
            "contract": "src/contracts/test/IGovernorINNImplV2.sol:IGovernorINNImplV2",
            "label": "adminRole",
            "offset": 0,
            "slot": "1",
            "type": "t_bytes32"
          }
        ],
        "numberOfBytes": "64"
      },
      "t_struct(Set)3194_storage": {
        "encoding": "inplace",
        "label": "struct EnumerableSetUpgradeable.Set",
        "members": [
          {
            "astId": 3189,
            "contract": "src/contracts/test/IGovernorINNImplV2.sol:IGovernorINNImplV2",
            "label": "_values",
            "offset": 0,
            "slot": "0",
            "type": "t_array(t_bytes32)dyn_storage"
          },
          {
            "astId": 3193,
            "contract": "src/contracts/test/IGovernorINNImplV2.sol:IGovernorINNImplV2",
            "label": "_indexes",
            "offset": 0,
            "slot": "1",
            "type": "t_mapping(t_bytes32,t_uint256)"
          }
        ],
        "numberOfBytes": "64"
      },
      "t_struct(Timestamp)1633_storage": {
        "encoding": "inplace",
        "label": "struct TimersUpgradeable.Timestamp",
        "members": [
          {
            "astId": 1632,
            "contract": "src/contracts/test/IGovernorINNImplV2.sol:IGovernorINNImplV2",
            "label": "_deadline",
            "offset": 0,
            "slot": "0",
            "type": "t_uint64"
          }
        ],
        "numberOfBytes": "32"
      },
      "t_uint256": {
        "encoding": "inplace",
        "label": "uint256",
        "numberOfBytes": "32"
      },
      "t_uint32": {
        "encoding": "inplace",
        "label": "uint32",
        "numberOfBytes": "4"
      },
      "t_uint64": {
        "encoding": "inplace",
        "label": "uint64",
        "numberOfBytes": "8"
      },
      "t_uint8": {
        "encoding": "inplace",
        "label": "uint8",
        "numberOfBytes": "1"
      }
    }
  },
  "userdoc": {
    "kind": "user",
    "methods": {},
    "version": 1
  }
}