{
  "contractName": "IGovernorINNImplV2",
  "sourceName": "src/contracts/test/IGovernorINNImplV2.sol",
  "abi": [
    {
      "inputs": [
        {
          "internalType": "uint8",
          "name": "",
          "type": "uint8"
        }
      ],
      "name": "ECDARecoverError",
      "type": "error"
    },
    {
      "anonymous": false,
      "inputs": [
        {
          "indexed": false,
          "internalType": "address",
          "name": "previousAdmin",
          "type": "address"
        },
        {
          "indexed": false,
          "internalType": "address",
          "name": "newAdmin",
          "type": "address"
        }
      ],
      "name": "AdminChanged",
      "type": "event"
    },
    {
      "anonymous": false,
      "inputs": [
        {
          "indexed": true,
          "internalType": "address",
          "name": "beacon",
          "type": "address"
        }
      ],
      "name": "BeaconUpgraded",
      "type": "event"
    },
    {
      "anonymous": false,
      "inputs": [
        {
          "indexed": true,
          "internalType": "bytes32",
          "name": "proposalId",
          "type": "bytes32"
        },
        {
          "indexed": true,
          "internalType": "address",
          "name": "proposer",
          "type": "address"
        },
        {
          "indexed": true,
          "internalType": "address",
          "name": "validatorEOA",
          "type": "address"
        },
        {
          "indexed": false,
          "internalType": "uint256",
          "name": "tokenOffer",
          "type": "uint256"
        },
        {
          "indexed": false,
          "internalType": "bytes32",
          "name": "offchainID",
          "type": "bytes32"
        },
        {
          "indexed": false,
          "internalType": "bytes32",
          "name": "description",
          "type": "bytes32"
        },
        {
          "indexed": false,
          "internalType": "string",
          "name": "startupName",
          "type": "string"
        },
        {
          "indexed": false,
          "internalType": "uint16",
          "name": "sharedStake",
          "type": "uint16"
        }
      ],
      "name": "ExitInvestmentProposalCreated",
      "type": "event"
    },
    {
      "anonymous": false,
      "inputs": [
        {
          "indexed": true,
          "internalType": "bytes32",
          "name": "proposalId",
          "type": "bytes32"
        },
        {
          "indexed": true,
          "internalType": "address",
          "name": "proposer",
          "type": "address"
        },
        {
          "indexed": true,
          "internalType": "address",
          "name": "account",
          "type": "address"
        },
        {
          "indexed": false,
          "internalType": "bytes32",
          "name": "offchainID",
          "type": "bytes32"
        },
        {
          "indexed": false,
          "internalType": "bytes32",
          "name": "description",
          "type": "bytes32"
        }
      ],
      "name": "FreezeInvestmentProposalCreated",
      "type": "event"
    },
    {
      "anonymous": false,
      "inputs": [
        {
          "indexed": false,
          "internalType": "uint8",
          "name": "version",
          "type": "uint8"
        }
      ],
      "name": "Initialized",
      "type": "event"
    },
    {
      "anonymous": false,
      "inputs": [
        {
          "indexed": true,
          "internalType": "bytes32",
          "name": "proposalID",
          "type": "bytes32"
        },
        {
          "indexed": true,
          "internalType": "address",
          "name": "proposer",
          "type": "address"
        },
        {
          "indexed": true,
          "internalType": "address",
          "name": "startupEOA",
          "type": "address"
        },
        {
          "indexed": false,
          "internalType": "uint256",
          "name": "tokenOffer",
          "type": "uint256"
        },
        {
          "indexed": false,
          "internalType": "bytes32",
          "name": "offchainID",
          "type": "bytes32"
        },
        {
          "indexed": false,
          "internalType": "bytes32",
          "name": "description",
          "type": "bytes32"
        },
        {
          "indexed": false,
          "internalType": "string",
          "name": "startupName",
          "type": "string"
        },
        {
          "indexed": false,
          "internalType": "uint16",
          "name": "sharedStake",
          "type": "uint16"
        }
      ],
      "name": "NewInvestmentProposalCreated",
      "type": "event"
    },
    {
      "anonymous": false,
      "inputs": [
        {
          "indexed": true,
          "internalType": "bytes32",
          "name": "proposalID",
          "type": "bytes32"
        },
        {
          "indexed": true,
          "internalType": "address",
          "name": "proposer",
          "type": "address"
        },
        {
          "indexed": true,
          "internalType": "address",
          "name": "validatorEOA",
          "type": "address"
        },
        {
          "indexed": false,
          "internalType": "bytes32",
          "name": "offchainID",
          "type": "bytes32"
        },
        {
          "indexed": false,
          "internalType": "bytes32",
          "name": "description",
          "type": "bytes32"
        },
        {
          "indexed": false,
          "internalType": "string",
          "name": "validatorName",
          "type": "string"
        }
      ],
      "name": "NewValidatorProposalCreated",
      "type": "event"
    },
    {
      "anonymous": false,
      "inputs": [
        {
          "indexed": true,
          "internalType": "bytes32",
          "name": "proposalId",
          "type": "bytes32"
        },
        {
          "indexed": false,
          "internalType": "string",
          "name": "reason",
          "type": "string"
        }
      ],
      "name": "ProposalCanceled",
      "type": "event"
    },
    {
      "anonymous": false,
      "inputs": [
        {
          "indexed": true,
          "internalType": "bytes32",
          "name": "proposalId",
          "type": "bytes32"
        }
      ],
      "name": "ProposalExecuted",
      "type": "event"
    },
    {
      "anonymous": false,
      "inputs": [
        {
          "indexed": true,
          "internalType": "bytes32",
          "name": "role",
          "type": "bytes32"
        },
        {
          "indexed": true,
          "internalType": "bytes32",
          "name": "previousAdminRole",
          "type": "bytes32"
        },
        {
          "indexed": true,
          "internalType": "bytes32",
          "name": "newAdminRole",
          "type": "bytes32"
        }
      ],
      "name": "RoleAdminChanged",
      "type": "event"
    },
    {
      "anonymous": false,
      "inputs": [
        {
          "indexed": true,
          "internalType": "bytes32",
          "name": "role",
          "type": "bytes32"
        },
        {
          "indexed": true,
          "internalType": "address",
          "name": "account",
          "type": "address"
        },
        {
          "indexed": true,
          "internalType": "address",
          "name": "sender",
          "type": "address"
        }
      ],
      "name": "RoleGranted",
      "type": "event"
    },
    {
      "anonymous": false,
      "inputs": [
        {
          "indexed": true,
          "internalType": "bytes32",
          "name": "role",
          "type": "bytes32"
        },
        {
          "indexed": true,
          "internalType": "address",
          "name": "account",
          "type": "address"
        },
        {
          "indexed": true,
          "internalType": "address",
          "name": "sender",
          "type": "address"
        }
      ],
      "name": "RoleRevoked",
      "type": "event"
    },
    {
      "anonymous": false,
      "inputs": [
        {
          "indexed": true,
          "internalType": "bytes32",
          "name": "proposalID",
          "type": "bytes32"
        },
        {
          "indexed": true,
          "internalType": "address",
          "name": "proposer",
          "type": "address"
        },
        {
          "indexed": true,
          "internalType": "address",
          "name": "account",
          "type": "address"
        },
        {
          "indexed": false,
          "internalType": "bytes32",
          "name": "offchainID",
          "type": "bytes32"
        },
        {
          "indexed": false,
          "internalType": "bytes32",
          "name": "description",
          "type": "bytes32"
        }
      ],
      "name": "UnfreezeInvestmentProposalCreated",
      "type": "event"
    },
    {
      "anonymous": false,
      "inputs": [
        {
          "indexed": true,
          "internalType": "address",
          "name": "implementation",
          "type": "address"
        }
      ],
      "name": "Upgraded",
      "type": "event"
    },
    {
      "anonymous": false,
      "inputs": [
        {
          "indexed": true,
          "internalType": "address",
          "name": "voter",
          "type": "address"
        },
        {
          "indexed": true,
          "internalType": "bytes32",
          "name": "proposalId",
          "type": "bytes32"
        },
        {
          "indexed": false,
          "internalType": "enum IGovernorINN.VoteType",
          "name": "vote",
          "type": "uint8"
        },
        {
          "indexed": false,
          "internalType": "string",
          "name": "reason",
          "type": "string"
        }
      ],
      "name": "VoteCast",
      "type": "event"
    },
    {
      "inputs": [],
      "name": "ADMIN_ROLE",
      "outputs": [
        {
          "internalType": "bytes32",
          "name": "",
          "type": "bytes32"
        }
      ],
      "stateMutability": "view",
      "type": "function"
    },
    {
      "inputs": [],
      "name": "CONSENSUS_ROLE",
      "outputs": [
        {
          "internalType": "bytes32",
          "name": "",
          "type": "bytes32"
        }
      ],
      "stateMutability": "view",
      "type": "function"
    },
    {
      "inputs": [],
      "name": "DEFAULT_ADMIN_ROLE",
      "outputs": [
        {
          "internalType": "bytes32",
          "name": "",
          "type": "bytes32"
        }
      ],
      "stateMutability": "view",
      "type": "function"
    },
    {
      "inputs": [],
      "name": "FREEZE_ACCOUNT_SIGNATURE",
      "outputs": [
        {
          "internalType": "bytes4",
          "name": "",
          "type": "bytes4"
        }
      ],
      "stateMutability": "view",
      "type": "function"
    },
    {
      "inputs": [],
      "name": "TRANSFER_SIGNATURE",
      "outputs": [
        {
          "internalType": "bytes4",
          "name": "",
          "type": "bytes4"
        }
      ],
      "stateMutability": "view",
      "type": "function"
    },
    {
      "inputs": [],
      "name": "UNFREEZE_ACCOUNT_SIGNATURE",
      "outputs": [
        {
          "internalType": "bytes4",
          "name": "",
          "type": "bytes4"
        }
      ],
      "stateMutability": "view",
      "type": "function"
    },
    {
      "inputs": [
        {
          "internalType": "bytes32",
          "name": "proposalId",
          "type": "bytes32"
        },
        {
          "internalType": "string",
          "name": "reason",
          "type": "string"
        }
      ],
      "name": "cancel",
      "outputs": [
        {
          "internalType": "bool",
          "name": "",
          "type": "bool"
        }
      ],
      "stateMutability": "nonpayable",
      "type": "function"
    },
    {
      "inputs": [
        {
          "internalType": "string",
          "name": "reason",
          "type": "string"
        },
        {
          "internalType": "bytes32",
          "name": "proposalId",
          "type": "bytes32"
        },
        {
          "internalType": "enum IGovernorINN.VoteType",
          "name": "vote",
          "type": "uint8"
        }
      ],
      "name": "castVote",
      "outputs": [
        {
          "internalType": "bool",
          "name": "",
          "type": "bool"
        }
      ],
      "stateMutability": "nonpayable",
      "type": "function"
    },
    {
      "inputs": [
        {
          "internalType": "bytes32",
          "name": "proposalId",
          "type": "bytes32"
        }
      ],
      "name": "castVoteAdmin",
      "outputs": [
        {
          "internalType": "bool",
          "name": "",
          "type": "bool"
        }
      ],
      "stateMutability": "view",
      "type": "function"
    },
    {
      "inputs": [],
      "name": "commissionWallet",
      "outputs": [
        {
          "internalType": "address",
          "name": "",
          "type": "address"
        }
      ],
      "stateMutability": "view",
      "type": "function"
    },
    {
      "inputs": [
        {
          "internalType": "address",
          "name": "validator",
          "type": "address"
        }
      ],
      "name": "disableValidator",
      "outputs": [],
      "stateMutability": "nonpayable",
      "type": "function"
    },
    {
      "inputs": [
        {
          "internalType": "bytes32",
          "name": "proposalId",
          "type": "bytes32"
        }
      ],
      "name": "execute",
      "outputs": [
        {
          "internalType": "bool",
          "name": "",
          "type": "bool"
        }
      ],
      "stateMutability": "payable",
      "type": "function"
    },
    {
      "inputs": [
        {
          "internalType": "bytes32",
          "name": "role",
          "type": "bytes32"
        }
      ],
      "name": "getRoleAdmin",
      "outputs": [
        {
          "internalType": "bytes32",
          "name": "",
          "type": "bytes32"
        }
      ],
      "stateMutability": "view",
      "type": "function"
    },
    {
      "inputs": [
        {
          "internalType": "bytes32",
          "name": "role",
          "type": "bytes32"
        },
        {
          "internalType": "address",
          "name": "account",
          "type": "address"
        }
      ],
      "name": "grantRole",
      "outputs": [],
      "stateMutability": "nonpayable",
      "type": "function"
    },
    {
      "inputs": [
        {
          "internalType": "bytes32",
          "name": "role",
          "type": "bytes32"
        },
        {
          "internalType": "address",
          "name": "account",
          "type": "address"
        }
      ],
      "name": "hasRole",
      "outputs": [
        {
          "internalType": "bool",
          "name": "",
          "type": "bool"
        }
      ],
      "stateMutability": "view",
      "type": "function"
    },
    {
      "inputs": [
        {
          "internalType": "bytes32",
          "name": "proposalId",
          "type": "bytes32"
        },
        {
          "internalType": "address",
          "name": "account",
          "type": "address"
        }
      ],
      "name": "hasVoted",
      "outputs": [
        {
          "internalType": "bool",
          "name": "",
          "type": "bool"
        }
      ],
      "stateMutability": "view",
      "type": "function"
    },
    {
      "inputs": [
        {
          "internalType": "bytes32",
          "name": "offchainID",
          "type": "bytes32"
        },
        {
          "internalType": "bytes32",
          "name": "descriptionHash",
          "type": "bytes32"
        },
        {
          "internalType": "address",
          "name": "proposer",
          "type": "address"
        },
        {
          "internalType": "enum IGovernorINN.ProposalType",
          "name": "proposalType",
          "type": "uint8"
        },
        {
          "internalType": "enum IGovernorINN.ActionType",
          "name": "actionType",
          "type": "uint8"
        },
        {
          "internalType": "bytes",
          "name": "data",
          "type": "bytes"
        }
      ],
      "name": "hashProposal",
      "outputs": [
        {
          "internalType": "bytes32",
          "name": "",
          "type": "bytes32"
        }
      ],
      "stateMutability": "pure",
      "type": "function"
    },
    {
      "inputs": [
        {
          "internalType": "string",
          "name": "domainName",
          "type": "string"
        },
        {
          "internalType": "string",
          "name": "domainVersion",
          "type": "string"
        },
        {
          "internalType": "address",
          "name": "oracleIns",
          "type": "address"
        }
      ],
      "name": "initialize",
      "outputs": [],
      "stateMutability": "nonpayable",
      "type": "function"
    },
    {
      "inputs": [],
      "name": "innTokenAddress",
      "outputs": [
        {
          "internalType": "address",
          "name": "",
          "type": "address"
        }
      ],
      "stateMutability": "view",
      "type": "function"
    },
    {
      "inputs": [],
      "name": "isAdminFirstVote",
      "outputs": [
        {
          "internalType": "bool",
          "name": "",
          "type": "bool"
        }
      ],
      "stateMutability": "view",
      "type": "function"
    },
    {
      "inputs": [],
      "name": "isMigrationEnabled",
      "outputs": [
        {
          "internalType": "bool",
          "name": "",
          "type": "bool"
        }
      ],
      "stateMutability": "view",
      "type": "function"
    },
    {
      "inputs": [
        {
          "internalType": "address",
          "name": "addr",
          "type": "address"
        }
      ],
      "name": "isStartup",
      "outputs": [
        {
          "internalType": "bool",
          "name": "",
          "type": "bool"
        }
      ],
      "stateMutability": "view",
      "type": "function"
    },
    {
      "inputs": [
        {
          "internalType": "address",
          "name": "addr",
          "type": "address"
        }
      ],
      "name": "isValidator",
      "outputs": [
        {
          "internalType": "bool",
          "name": "",
          "type": "bool"
        }
      ],
      "stateMutability": "view",
      "type": "function"
    },
    {
      "inputs": [],
      "name": "name",
      "outputs": [
        {
          "internalType": "string",
          "name": "",
          "type": "string"
        }
      ],
      "stateMutability": "view",
      "type": "function"
    },
    {
      "inputs": [],
      "name": "oldVersion",
      "outputs": [
        {
          "internalType": "address",
          "name": "",
          "type": "address"
        }
      ],
      "stateMutability": "view",
      "type": "function"
    },
    {
      "inputs": [],
      "name": "oracle",
      "outputs": [
        {
          "internalType": "address",
          "name": "",
          "type": "address"
        }
      ],
      "stateMutability": "view",
      "type": "function"
    },
    {
      "inputs": [
        {
          "components": [
            {
              "internalType": "bytes32",
              "name": "offchainID",
              "type": "bytes32"
            },
            {
              "internalType": "enum IGovernorINN.ProposalType",
              "name": "proposalType",
              "type": "uint8"
            },
            {
              "internalType": "enum IGovernorINN.ActionType",
              "name": "actionType",
              "type": "uint8"
            },
            {
              "internalType": "string",
              "name": "description",
              "type": "string"
            },
            {
              "internalType": "bytes",
              "name": "data",
              "type": "bytes"
            }
          ],
          "internalType": "struct IGovernorINN.ProposalRequest",
          "name": "request",
          "type": "tuple"
        },
        {
          "internalType": "bytes",
          "name": "signature",
          "type": "bytes"
        }
      ],
      "name": "propose",
      "outputs": [
        {
          "internalType": "bytes32",
          "name": "",
          "type": "bytes32"
        }
      ],
      "stateMutability": "nonpayable",
      "type": "function"
    },
    {
      "inputs": [],
      "name": "proxiableUUID",
      "outputs": [
        {
          "internalType": "bytes32",
          "name": "",
          "type": "bytes32"
        }
      ],
      "stateMutability": "view",
      "type": "function"
    },
    {
      "inputs": [
        {
          "internalType": "bytes32",
          "name": "role",
          "type": "bytes32"
        },
        {
          "internalType": "address",
          "name": "account",
          "type": "address"
        }
      ],
      "name": "renounceRole",
      "outputs": [],
      "stateMutability": "nonpayable",
      "type": "function"
    },
    {
      "inputs": [],
      "name": "reservedWallet",
      "outputs": [
        {
          "internalType": "address",
          "name": "",
          "type": "address"
        }
      ],
      "stateMutability": "view",
      "type": "function"
    },
    {
      "inputs": [
        {
          "internalType": "bytes32",
          "name": "role",
          "type": "bytes32"
        },
        {
          "internalType": "address",
          "name": "account",
          "type": "address"
        }
      ],
      "name": "revokeRole",
      "outputs": [],
      "stateMutability": "nonpayable",
      "type": "function"
    },
    {
      "inputs": [
        {
          "internalType": "bool",
          "name": "migration",
          "type": "bool"
        }
      ],
      "name": "setMigration",
      "outputs": [],
      "stateMutability": "nonpayable",
      "type": "function"
    },
    {
      "inputs": [
        {
          "internalType": "uint256",
          "name": "delay",
          "type": "uint256"
        }
      ],
      "name": "setVotingDelay",
      "outputs": [],
      "stateMutability": "nonpayable",
      "type": "function"
    },
    {
      "inputs": [
        {
          "internalType": "uint256",
          "name": "period",
          "type": "uint256"
        }
      ],
      "name": "setVotingPeriod",
      "outputs": [],
      "stateMutability": "nonpayable",
      "type": "function"
    },
    {
      "inputs": [],
      "name": "startupCount",
      "outputs": [
        {
          "internalType": "uint32",
          "name": "",
          "type": "uint32"
        }
      ],
      "stateMutability": "view",
      "type": "function"
    },
    {
      "inputs": [
        {
          "internalType": "bytes32",
          "name": "proposalId",
          "type": "bytes32"
        }
      ],
      "name": "state",
      "outputs": [
        {
          "internalType": "enum IGovernorINN.ProposalState",
          "name": "",
          "type": "uint8"
        }
      ],
      "stateMutability": "view",
      "type": "function"
    },
    {
      "inputs": [
        {
          "internalType": "bytes4",
          "name": "interfaceId",
          "type": "bytes4"
        }
      ],
      "name": "supportsInterface",
      "outputs": [
        {
          "internalType": "bool",
          "name": "",
          "type": "bool"
        }
      ],
      "stateMutability": "view",
      "type": "function"
    },
    {
      "inputs": [
        {
          "internalType": "address",
          "name": "newImplementation",
          "type": "address"
        }
      ],
      "name": "upgradeTo",
      "outputs": [],
      "stateMutability": "nonpayable",
      "type": "function"
    },
    {
      "inputs": [
        {
          "internalType": "address",
          "name": "newImplementation",
          "type": "address"
        },
        {
          "internalType": "bytes",
          "name": "data",
          "type": "bytes"
        }
      ],
      "name": "upgradeToAndCall",
      "outputs": [],
      "stateMutability": "payable",
      "type": "function"
    },
    {
      "inputs": [],
      "name": "validatorCount",
      "outputs": [
        {
          "internalType": "uint32",
          "name": "",
          "type": "uint32"
        }
      ],
      "stateMutability": "view",
      "type": "function"
    },
    {
      "inputs": [],
      "name": "version",
      "outputs": [
        {
          "internalType": "string",
          "name": "",
          "type": "string"
        }
      ],
      "stateMutability": "view",
      "type": "function"
    },
    {
      "inputs": [],
      "name": "votingDelay",
      "outputs": [
        {
          "internalType": "uint256",
          "name": "",
          "type": "uint256"
        }
      ],
      "stateMutability": "view",
      "type": "function"
    },
    {
      "inputs": [],
      "name": "votingPeriod",
      "outputs": [
        {
          "internalType": "uint256",
          "name": "",
          "type": "uint256"
        }
      ],
      "stateMutability": "view",
      "type": "function"
    }
  ],
  "bytecode": "0x60a06040523073ffffffffffffffffffffffffffffffffffffffff1660809073ffffffffffffffffffffffffffffffffffffffff168152503480156200004457600080fd5b506080516191006200007d60003960008181610fa30152818161103101528181611145015281816111d3015261128301526191006000f3fe60806040526004361061025c5760003560e01c806370b0f66011610144578063be5967ea116100b6578063e751f2711161007a578063e751f2711461092d578063ea0217cf1461095d578063f8c662ff14610986578063fa2dabad146109b1578063facd743b146109dc578063ff66665314610a195761025c565b8063be5967ea14610846578063c0e6d5d614610883578063c22ab4e0146108ae578063d547741f146108d9578063e0310e52146109025761025c565b806397c0262a1161010857806397c0262a1461070e578063a217fddf14610739578063a5d7962414610764578063aadc3b72146107a1578063afdf6710146107de578063b7d6fe24146108095761025c565b806370b0f6601461062957806375b238fc146106525780637dc0d1d01461067d5780637f1e250c146106a857806391d14854146106d15761025c565b806330d9b773116101dd57806341863ed6116101a157806341863ed6146105125780634f1ef2861461053d57806352d1902d1461055957806354fd4d50146105845780635ae766f3146105af57806361d585da146105ec5761025c565b806330d9b7731461042d57806333f3533b1461046a57806336568abe146104955780633659cfe6146104be5780633932abb1146104e75761025c565b80631fe97684116102245780631fe9768414610348578063211dc1a714610371578063248a9ca31461039c57806325ce7586146103d95780632f2ff15d146104045761025c565b806301ffc9a71461026157806302a251a31461029e57806306fdde03146102c9578063077f224a146102f45780630f43a6771461031d575b600080fd5b34801561026d57600080fd5b5061028860048036038101906102839190616006565b610a56565b604051610295919061604e565b60405180910390f35b3480156102aa57600080fd5b506102b3610ad0565b6040516102c09190616082565b60405180910390f35b3480156102d557600080fd5b506102de610ad6565b6040516102eb9190616136565b60405180910390f35b34801561030057600080fd5b5061031b6004803603810190610316919061621b565b610b69565b005b34801561032957600080fd5b50610332610c63565b60405161033f91906162cf565b60405180910390f35b34801561035457600080fd5b5061036f600480360381019061036a91906162ea565b610c7a565b005b34801561037d57600080fd5b50610386610e5a565b6040516103939190616326565b60405180910390f35b3480156103a857600080fd5b506103c360048036038101906103be9190616377565b610e81565b6040516103d091906163b3565b60405180910390f35b3480156103e557600080fd5b506103ee610ea1565b6040516103fb91906162cf565b60405180910390f35b34801561041057600080fd5b5061042b600480360381019061042691906163ce565b610eb8565b005b34801561043957600080fd5b50610454600480360381019061044f9190616377565b610ed9565b604051610461919061604e565b60405180910390f35b34801561047657600080fd5b5061047f610f0a565b60405161048c919061604e565b60405180910390f35b3480156104a157600080fd5b506104bc60048036038101906104b791906163ce565b610f1e565b005b3480156104ca57600080fd5b506104e560048036038101906104e091906162ea565b610fa1565b005b3480156104f357600080fd5b506104fc611129565b6040516105099190616082565b60405180910390f35b34801561051e57600080fd5b5061052761112f565b604051610534919061604e565b60405180910390f35b6105576004803603810190610552919061653e565b611143565b005b34801561056557600080fd5b5061056e61127f565b60405161057b91906163b3565b60405180910390f35b34801561059057600080fd5b50610599611338565b6040516105a69190616136565b60405180910390f35b3480156105bb57600080fd5b506105d660048036038101906105d191906162ea565b6113cb565b6040516105e3919061604e565b60405180910390f35b3480156105f857600080fd5b50610613600480360381019061060e9190616377565b6114a2565b6040516106209190616611565b60405180910390f35b34801561063557600080fd5b50610650600480360381019061064b9190616658565b61168f565b005b34801561065e57600080fd5b506106676116c4565b60405161067491906163b3565b60405180910390f35b34801561068957600080fd5b506106926116e8565b60405161069f9190616326565b60405180910390f35b3480156106b457600080fd5b506106cf60048036038101906106ca91906166b1565b61170f565b005b3480156106dd57600080fd5b506106f860048036038101906106f391906163ce565b611758565b604051610705919061604e565b60405180910390f35b34801561071a57600080fd5b506107236117c3565b6040516107309190616326565b60405180910390f35b34801561074557600080fd5b5061074e6117ea565b60405161075b91906163b3565b60405180910390f35b34801561077057600080fd5b5061078b60048036038101906107869190616703565b6117f1565b604051610798919061604e565b60405180910390f35b3480156107ad57600080fd5b506107c860048036038101906107c391906163ce565b611977565b6040516107d5919061604e565b60405180910390f35b3480156107ea57600080fd5b506107f36119a9565b6040516108009190616786565b60405180910390f35b34801561081557600080fd5b50610830600480360381019061082b9190616842565b6119cd565b60405161083d919061604e565b60405180910390f35b34801561085257600080fd5b5061086d600480360381019061086891906168e8565b611bf1565b60405161087a91906163b3565b60405180910390f35b34801561088f57600080fd5b50610898611c30565b6040516108a59190616786565b60405180910390f35b3480156108ba57600080fd5b506108c3611c54565b6040516108d09190616326565b60405180910390f35b3480156108e557600080fd5b5061090060048036038101906108fb91906163ce565b611c7b565b005b34801561090e57600080fd5b50610917611c9c565b6040516109249190616786565b60405180910390f35b61094760048036038101906109429190616377565b611cc0565b604051610954919061604e565b60405180910390f35b34801561096957600080fd5b50610984600480360381019061097f9190616658565b611de5565b005b34801561099257600080fd5b5061099b611e1a565b6040516109a89190616326565b60405180910390f35b3480156109bd57600080fd5b506109c6611e41565b6040516109d391906163b3565b60405180910390f35b3480156109e857600080fd5b50610a0360048036038101906109fe91906162ea565b611e65565b604051610a10919061604e565b60405180910390f35b348015610a2557600080fd5b50610a406004803603810190610a3b9190616a5f565b611f3d565b604051610a4d91906163b3565b60405180910390f35b60007f7965db0b000000000000000000000000000000000000000000000000000000007bffffffffffffffffffffffffffffffffffffffffffffffffffffffff1916827bffffffffffffffffffffffffffffffffffffffffffffffffffffffff19161480610ac95750610ac882612677565b5b9050919050565b60ff5481565b60606101038054610ae690616b06565b80601f0160208091040260200160405190810160405280929190818152602001828054610b1290616b06565b8015610b5f5780601f10610b3457610100808354040283529160200191610b5f565b820191906000526020600020905b815481529060010190602001808311610b4257829003601f168201915b5050505050905090565b60026000610b76826126e1565b90508015610b9a576001600060016101000a81548160ff0219169083151502179055505b82610105600a6101000a81548173ffffffffffffffffffffffffffffffffffffffff021916908373ffffffffffffffffffffffffffffffffffffffff16021790555086866101039190610bee929190615deb565b5084846101049190610c01929190615deb565b508015610c5a5760008060016101000a81548160ff0219169083151502179055507f7f26b83ff96e1f2b6a682f133852f6798a09c465da95921460cefb384740249882604051610c519190616b53565b60405180910390a15b50505050505050565b61010560009054906101000a900463ffffffff1681565b7fa49807205ce4d355092ef5a8a18f56e8913cf4a201fbe287825b095693c21775610ca4816127d1565b60016002811115610cb857610cb761659a565b5b60fb60008473ffffffffffffffffffffffffffffffffffffffff1673ffffffffffffffffffffffffffffffffffffffff16815260200190815260200160002060010160009054906101000a900460ff166002811115610d1a57610d1961659a565b5b148015610d7b57506000151560fb60008473ffffffffffffffffffffffffffffffffffffffff1673ffffffffffffffffffffffffffffffffffffffff16815260200190815260200160002060010160019054906101000a900460ff16151514155b610dba576040517f08c379a0000000000000000000000000000000000000000000000000000000008152600401610db190616be0565b60405180910390fd5b600060fb60008473ffffffffffffffffffffffffffffffffffffffff1673ffffffffffffffffffffffffffffffffffffffff16815260200190815260200160002060010160016101000a81548160ff021916908315150217905550600161010560008282829054906101000a900463ffffffff16610e389190616c2f565b92506101000a81548163ffffffff021916908363ffffffff1602179055505050565b61010660009054906101000a900473ffffffffffffffffffffffffffffffffffffffff1681565b600060c96000838152602001908152602001600020600101549050919050565b61010560049054906101000a900463ffffffff1681565b610ec182610e81565b610eca816127d1565b610ed483836127e5565b505050565b60007fa49807205ce4d355092ef5a8a18f56e8913cf4a201fbe287825b095693c21775610f05816127d1565b600080fd5b61010560089054906101000a900460ff1681565b610f266128c6565b73ffffffffffffffffffffffffffffffffffffffff168173ffffffffffffffffffffffffffffffffffffffff1614610f93576040517f08c379a0000000000000000000000000000000000000000000000000000000008152600401610f8a90616cd5565b60405180910390fd5b610f9d82826128ce565b5050565b7f000000000000000000000000000000000000000000000000000000000000000073ffffffffffffffffffffffffffffffffffffffff163073ffffffffffffffffffffffffffffffffffffffff160361102f576040517f08c379a000000000000000000000000000000000000000000000000000000000815260040161102690616d67565b60405180910390fd5b7f000000000000000000000000000000000000000000000000000000000000000073ffffffffffffffffffffffffffffffffffffffff1661106e6129b0565b73ffffffffffffffffffffffffffffffffffffffff16146110c4576040517f08c379a00000000000000000000000000000000000000000000000000000000081526004016110bb90616df9565b60405180910390fd5b6110cd81612a07565b61112681600067ffffffffffffffff8111156110ec576110eb616413565b5b6040519080825280601f01601f19166020018201604052801561111e5781602001600182028036833780820191505090505b506000612af4565b50565b60fe5481565b61010560099054906101000a900460ff1681565b7f000000000000000000000000000000000000000000000000000000000000000073ffffffffffffffffffffffffffffffffffffffff163073ffffffffffffffffffffffffffffffffffffffff16036111d1576040517f08c379a00000000000000000000000000000000000000000000000000000000081526004016111c890616d67565b60405180910390fd5b7f000000000000000000000000000000000000000000000000000000000000000073ffffffffffffffffffffffffffffffffffffffff166112106129b0565b73ffffffffffffffffffffffffffffffffffffffff1614611266576040517f08c379a000000000000000000000000000000000000000000000000000000000815260040161125d90616df9565b60405180910390fd5b61126f82612a07565b61127b82826001612af4565b5050565b60007f000000000000000000000000000000000000000000000000000000000000000073ffffffffffffffffffffffffffffffffffffffff163073ffffffffffffffffffffffffffffffffffffffff161461130f576040517f08c379a000000000000000000000000000000000000000000000000000000000815260040161130690616e8b565b60405180910390fd5b7f360894a13ba1a3210667c828492db98dca3e2076cc3735a920a3ca505d382bbc60001b905090565b6060610104805461134890616b06565b80601f016020809104026020016040519081016040528092919081815260200182805461137490616b06565b80156113c15780601f10611396576101008083540402835291602001916113c1565b820191906000526020600020905b8154815290600101906020018083116113a457829003601f168201915b5050505050905090565b600060fb60008373ffffffffffffffffffffffffffffffffffffffff1673ffffffffffffffffffffffffffffffffffffffff16815260200190815260200160002060010160019054906101000a900460ff16801561149b57506002808111156114375761143661659a565b5b60fb60008473ffffffffffffffffffffffffffffffffffffffff1673ffffffffffffffffffffffffffffffffffffffff16815260200190815260200160002060010160009054906101000a900460ff1660028111156114995761149861659a565b5b145b9050919050565b60008060fd600084815260200190815260200160002090506000801b816001015403611503576040517f08c379a00000000000000000000000000000000000000000000000000000000081526004016114fa90616ef7565b60405180910390fd5b8060060160029054906101000a900460ff161561152457600791505061168a565b8060060160039054906101000a900460ff161561154557600391505061168a565b61158e816004016040518060200160405290816000820160009054906101000a900467ffffffffffffffff1667ffffffffffffffff1667ffffffffffffffff1681525050612c62565b1561159d57600191505061168a565b6115e6816005016040518060200160405290816000820160009054906101000a900467ffffffffffffffff1667ffffffffffffffff1667ffffffffffffffff1681525050612c62565b80156115f857506115f683612c7c565b155b1561160757600291505061168a565b611650816005016040518060200160405290816000820160009054906101000a900467ffffffffffffffff1667ffffffffffffffff1667ffffffffffffffff1681525050612d20565b80611660575061165f83612c7c565b5b156116845761166e83612d4c565b61167957600461167c565b60055b91505061168a565b60009150505b919050565b7fa49807205ce4d355092ef5a8a18f56e8913cf4a201fbe287825b095693c217756116b9816127d1565b8160fe819055505050565b7fa49807205ce4d355092ef5a8a18f56e8913cf4a201fbe287825b095693c2177581565b610105600a9054906101000a900473ffffffffffffffffffffffffffffffffffffffff1681565b7fa49807205ce4d355092ef5a8a18f56e8913cf4a201fbe287825b095693c21775611739816127d1565b8161010560086101000a81548160ff0219169083151502179055505050565b600060c9600084815260200190815260200160002060000160008373ffffffffffffffffffffffffffffffffffffffff1673ffffffffffffffffffffffffffffffffffffffff16815260200190815260200160002060009054906101000a900460ff16905092915050565b61010160009054906101000a900473ffffffffffffffffffffffffffffffffffffffff1681565b6000801b81565b6000600160028111156118075761180661659a565b5b60fb60006118136128c6565b73ffffffffffffffffffffffffffffffffffffffff1673ffffffffffffffffffffffffffffffffffffffff16815260200190815260200160002060010160009054906101000a900460ff1660028111156118705761186f61659a565b5b1480156118d757506001151560fb60006118886128c6565b73ffffffffffffffffffffffffffffffffffffffff1673ffffffffffffffffffffffffffffffffffffffff16815260200190815260200160002060010160019054906101000a900460ff161515145b611916576040517f08c379a000000000000000000000000000000000000000000000000000000000815260040161190d90616f89565b60405180910390fd5b61196d836119226128c6565b8488888080601f016020809104026020016040519081016040528093929190818152602001838380828437600081840152601f19601f82011690508083019250505050505050612dc3565b9050949350505050565b60006119a18260fc60008681526020019081526020016000206001016130f690919063ffffffff16565b905092915050565b7ff26c159fd7d78f3848964c3adf4aea78577348fcb297db019bf8f5efbed0219581565b600060fd600084815260200190815260200160002060030160009054906101000a900473ffffffffffffffffffffffffffffffffffffffff1673ffffffffffffffffffffffffffffffffffffffff163373ffffffffffffffffffffffffffffffffffffffff1614611a73576040517f08c379a0000000000000000000000000000000000000000000000000000000008152600401611a6a9061701b565b60405180910390fd5b6000611a7e846114a2565b905060066007811115611a9457611a9361659a565b5b816007811115611aa757611aa661659a565b5b14158015611ad95750600780811115611ac357611ac261659a565b5b816007811115611ad657611ad561659a565b5b14155b611b18576040517f08c379a0000000000000000000000000000000000000000000000000000000008152600401611b0f90617087565b60405180910390fd5b60036007811115611b2c57611b2b61659a565b5b816007811115611b3f57611b3e61659a565b5b03611b7f576040517f08c379a0000000000000000000000000000000000000000000000000000000008152600401611b7690617119565b60405180910390fd5b600160fd600086815260200190815260200160002060060160036101000a81548160ff021916908315150217905550837fc3fe75bace7821ed95b8b37722a36dfb53bdf311befb9c378bed48a7db4062aa84604051611bde9190616136565b60405180910390a2600191505092915050565b6000868686868686604051602001611c0e9695949392919061721e565b6040516020818303038152906040528051906020012090509695505050505050565b7f53cc2fae7ecef069da76ae9063c3ecfa7f417173bc5191fe1bb037165d76473f81565b61010060009054906101000a900473ffffffffffffffffffffffffffffffffffffffff1681565b611c8482610e81565b611c8d816127d1565b611c9783836128ce565b505050565b7f23b872dd7302113369cda2901243429419bec145408fa8b352b3dd92b66c680b81565b60007fa49807205ce4d355092ef5a8a18f56e8913cf4a201fbe287825b095693c21775611cec816127d1565b6000611cf7846114a2565b905060056007811115611d0d57611d0c61659a565b5b816007811115611d2057611d1f61659a565b5b14611d60576040517f08c379a0000000000000000000000000000000000000000000000000000000008152600401611d57906172f8565b60405180910390fd5b600060fd6000868152602001908152602001600020905060018160060160026101000a81548160ff021916908315150217905550600060019050611da382613126565b90508015611dd957857f7b1bcf1ccf901a11589afff5504d59fd0a53780eed2a952adade0348985139e060405160405180910390a25b80945050505050919050565b7fa49807205ce4d355092ef5a8a18f56e8913cf4a201fbe287825b095693c21775611e0f816127d1565b8160ff819055505050565b61010260009054906101000a900473ffffffffffffffffffffffffffffffffffffffff1681565b7f36fd43ede163045b10e1f0abd16f62f165fce3fa7b6cde217bcea3bc47663acc81565b600060fb60008373ffffffffffffffffffffffffffffffffffffffff1673ffffffffffffffffffffffffffffffffffffffff16815260200190815260200160002060010160019054906101000a900460ff168015611f36575060016002811115611ed257611ed161659a565b5b60fb60008473ffffffffffffffffffffffffffffffffffffffff1673ffffffffffffffffffffffffffffffffffffffff16815260200190815260200160002060010160009054906101000a900460ff166002811115611f3457611f3361659a565b5b145b9050919050565b600060016002811115611f5357611f5261659a565b5b60fb6000611f5f6128c6565b73ffffffffffffffffffffffffffffffffffffffff1673ffffffffffffffffffffffffffffffffffffffff16815260200190815260200160002060010160009054906101000a900460ff166002811115611fbc57611fbb61659a565b5b14801561202357506001151560fb6000611fd46128c6565b73ffffffffffffffffffffffffffffffffffffffff1673ffffffffffffffffffffffffffffffffffffffff16815260200190815260200160002060010160019054906101000a900460ff161515145b8061206257506001151561205e7fa49807205ce4d355092ef5a8a18f56e8913cf4a201fbe287825b095693c217756120596128c6565b611758565b1515145b6120a1576040517f08c379a00000000000000000000000000000000000000000000000000000000081526004016120989061738a565b60405180910390fd5b600060038111156120b5576120b461659a565b5b836020015160038111156120cc576120cb61659a565b5b0361210c576040517f08c379a0000000000000000000000000000000000000000000000000000000008152600401612103906173f6565b60405180910390fd5b600060048111156121205761211f61659a565b5b836040015160048111156121375761213661659a565b5b03612177576040517f08c379a000000000000000000000000000000000000000000000000000000000815260040161216e90617462565b60405180910390fd5b6000836080015151036121bf576040517f08c379a00000000000000000000000000000000000000000000000000000000081526004016121b6906174ce565b60405180910390fd5b6000801b836000015103612208576040517f08c379a00000000000000000000000000000000000000000000000000000000081526004016121ff906174ce565b60405180910390fd5b6122397fa49807205ce4d355092ef5a8a18f56e8913cf4a201fbe287825b095693c217756122346128c6565b611758565b156122ae57600160038111156122525761225161659a565b5b836020015160038111156122695761226861659a565b5b146122a9576040517f08c379a00000000000000000000000000000000000000000000000000000000081526004016122a09061753a565b60405180910390fd5b61231a565b600160038111156122c2576122c161659a565b5b836020015160038111156122d9576122d861659a565b5b03612319576040517f08c379a0000000000000000000000000000000000000000000000000000000008152600401612310906175cc565b60405180910390fd5b5b600083606001516040516020016123319190617628565b604051602081830303815290604052805190602001209050600061237085600001518361235c6128c6565b886020015189604001518a60800151613c09565b9050600061237d82613c90565b905060008061238c8388613caa565b91509150600060048111156123a4576123a361659a565b5b8160048111156123b7576123b661659a565b5b1461240b578060048111156123cf576123ce61659a565b5b6040517f64f17f0b0000000000000000000000000000000000000000000000000000000081526004016124029190616b53565b60405180910390fd5b3073ffffffffffffffffffffffffffffffffffffffff166391d148547fa49807205ce4d355092ef5a8a18f56e8913cf4a201fbe287825b095693c21775846040518363ffffffff1660e01b815260040161246692919061763f565b602060405180830381865afa158015612483573d6000803e3d6000fd5b505050506040513d601f19601f820116820180604052508101906124a7919061767d565b6124e6576040517f08c379a00000000000000000000000000000000000000000000000000000000081526004016124dd9061771c565b60405180910390fd5b600061250d8960000151876124f96128c6565b8c602001518d604001518e60800151611bf1565b9050600060fd60008381526020019081526020016000209050818160000181905550600060fe544261253f9190617750565b9050600060ff54426125519190617750565b90506125698284600401613d2b90919063ffffffff16565b61257f8184600501613d2b90919063ffffffff16565b8883600201819055508b60000151836001018190555061259d6128c6565b8360030160006101000a81548173ffffffffffffffffffffffffffffffffffffffff021916908373ffffffffffffffffffffffffffffffffffffffff1602179055508b602001518360060160006101000a81548160ff0219169083600381111561260a5761260961659a565b5b02179055508b604001518360060160016101000a81548160ff0219169083600481111561263a5761263961659a565b5b02179055508b6080015183600701908051906020019061265b929190615e71565b5061266583613d5a565b83995050505050505050505092915050565b60007f01ffc9a7000000000000000000000000000000000000000000000000000000007bffffffffffffffffffffffffffffffffffffffffffffffffffffffff1916827bffffffffffffffffffffffffffffffffffffffffffffffffffffffff1916149050919050565b60008060019054906101000a900460ff16156127585760018260ff16148015612710575061270e30614c38565b155b61274f576040517f08c379a000000000000000000000000000000000000000000000000000000000815260040161274690617800565b60405180910390fd5b600090506127cc565b8160ff1660008054906101000a900460ff1660ff16106127ad576040517f08c379a00000000000000000000000000000000000000000000000000000000081526004016127a490617800565b60405180910390fd5b816000806101000a81548160ff021916908360ff160217905550600190505b919050565b6127e2816127dd6128c6565b614c5b565b50565b6127ef8282611758565b6128c257600160c9600084815260200190815260200160002060000160008373ffffffffffffffffffffffffffffffffffffffff1673ffffffffffffffffffffffffffffffffffffffff16815260200190815260200160002060006101000a81548160ff0219169083151502179055506128676128c6565b73ffffffffffffffffffffffffffffffffffffffff168173ffffffffffffffffffffffffffffffffffffffff16837f2f8788117e7eff1d82e926ec794901d17c78024a50270940304540a733656f0d60405160405180910390a45b5050565b600033905090565b6128d88282611758565b156129ac57600060c9600084815260200190815260200160002060000160008373ffffffffffffffffffffffffffffffffffffffff1673ffffffffffffffffffffffffffffffffffffffff16815260200190815260200160002060006101000a81548160ff0219169083151502179055506129516128c6565b73ffffffffffffffffffffffffffffffffffffffff168173ffffffffffffffffffffffffffffffffffffffff16837ff6391f5c32d9c69d2a47ea670b442974b53935d1edc7fd64eb21e047a839171b60405160405180910390a45b5050565b60006129de7f360894a13ba1a3210667c828492db98dca3e2076cc3735a920a3ca505d382bbc60001b614cf8565b60000160009054906101000a900473ffffffffffffffffffffffffffffffffffffffff16905090565b600073ffffffffffffffffffffffffffffffffffffffff168173ffffffffffffffffffffffffffffffffffffffff1603612a76576040517f08c379a0000000000000000000000000000000000000000000000000000000008152600401612a6d9061786c565b60405180910390fd5b612a7e6129b0565b61010660006101000a81548173ffffffffffffffffffffffffffffffffffffffff021916908373ffffffffffffffffffffffffffffffffffffffff160217905550612af07fa49807205ce4d355092ef5a8a18f56e8913cf4a201fbe287825b095693c21775612aeb6128c6565b611758565b5050565b612b207f4910fdfa16fed3260ed0e7147f7cc6da11a60208b5b9406d12a635614ffd914360001b614d02565b60000160009054906101000a900460ff1615612b4457612b3f83614d0c565b612c5d565b8273ffffffffffffffffffffffffffffffffffffffff166352d1902d6040518163ffffffff1660e01b8152600401602060405180830381865afa925050508015612bac57506040513d601f19601f82011682018060405250810190612ba991906178a1565b60015b612beb576040517f08c379a0000000000000000000000000000000000000000000000000000000008152600401612be290617940565b60405180910390fd5b7f360894a13ba1a3210667c828492db98dca3e2076cc3735a920a3ca505d382bbc60001b8114612c50576040517f08c379a0000000000000000000000000000000000000000000000000000000008152600401612c47906179d2565b60405180910390fd5b50612c5c838383614dc5565b5b505050565b600042826000015167ffffffffffffffff16119050919050565b60008060fc600084815260200190815260200160002090508060000160109054906101000a900467ffffffffffffffff168160000160009054906101000a900467ffffffffffffffff168260000160089054906101000a900467ffffffffffffffff16612ce99190617750565b612cf39190617750565b67ffffffffffffffff1661010560009054906101000a900463ffffffff1663ffffffff1614915050919050565b6000612d2b82614df1565b8015612d45575042826000015167ffffffffffffffff1611155b9050919050565b60008060fc600084815260200190815260200160002090506001600261010560009054906101000a900463ffffffff16612d869190617a21565b612d909190617a52565b63ffffffff168160000160089054906101000a900467ffffffffffffffff1667ffffffffffffffff161015915050919050565b6000806003811115612dd857612dd761659a565b5b836003811115612deb57612dea61659a565b5b03612e2b576040517f08c379a0000000000000000000000000000000000000000000000000000000008152600401612e2290617ad8565b60405180910390fd5b60026007811115612e3f57612e3e61659a565b5b612e48866114a2565b6007811115612e5a57612e5961659a565b5b14612e9a576040517f08c379a0000000000000000000000000000000000000000000000000000000008152600401612e9190617b6a565b60405180910390fd5b600060fc60008781526020019081526020016000209050612ec785826001016130f690919063ffffffff16565b15612f07576040517f08c379a0000000000000000000000000000000000000000000000000000000008152600401612efe90617bd6565b60405180910390fd5b612f1d8582600101614e0b90919063ffffffff16565b5060016003811115612f3257612f3161659a565b5b846003811115612f4557612f4461659a565b5b03612f9d5760018160000160008282829054906101000a900467ffffffffffffffff16612f729190617750565b92506101000a81548167ffffffffffffffff021916908367ffffffffffffffff160217905550613098565b60026003811115612fb157612fb061659a565b5b846003811115612fc457612fc361659a565b5b0361301c5760018160000160088282829054906101000a900467ffffffffffffffff16612ff19190617750565b92506101000a81548167ffffffffffffffff021916908367ffffffffffffffff160217905550613097565b60038081111561302f5761302e61659a565b5b8460038111156130425761304161659a565b5b036130965760018160000160108282829054906101000a900467ffffffffffffffff1661306f9190617750565b92506101000a81548167ffffffffffffffff021916908367ffffffffffffffff1602179055505b5b5b858573ffffffffffffffffffffffffffffffffffffffff167fbbb255028c79dea070e4449c346283da7b4b66693776c096bb820822e4d9c41a86866040516130e1929190617c3e565b60405180910390a36001915050949350505050565b600061311e836000018373ffffffffffffffffffffffffffffffffffffffff1660001b614e3b565b905092915050565b60008060019050600160038111156131415761314061659a565b5b8360060160009054906101000a900460ff1660038111156131655761316461659a565b5b0361337f576001600481111561317e5761317d61659a565b5b8360060160019054906101000a900460ff1660048111156131a2576131a161659a565b5b0361337a5760008360070180546131b890616b06565b80601f01602080910402602001604051908101604052809291908181526020018280546131e490616b06565b80156132315780601f1061320657610100808354040283529160200191613231565b820191906000526020600020905b81548152906001019060200180831161321457829003601f168201915b50505050508060200190518101906132499190617d5f565b9050604051806060016040528082600001518152602001600160028111156132745761327361659a565b5b81526020016001151581525060fb6000836020015173ffffffffffffffffffffffffffffffffffffffff1673ffffffffffffffffffffffffffffffffffffffff16815260200190815260200160002060008201518160000190805190602001906132df929190615ef7565b5060208201518160010160006101000a81548160ff0219169083600281111561330b5761330a61659a565b5b021790555060408201518160010160016101000a81548160ff021916908315150217905550905050600161010560008282829054906101000a900463ffffffff166133569190617a52565b92506101000a81548163ffffffff021916908363ffffffff16021790555060019150505b613c00565b61010560089054906101000a900460ff161580156133d25750600260038111156133ac576133ab61659a565b5b8360060160009054906101000a900460ff1660038111156133d0576133cf61659a565b5b145b15613bff57600160048111156133eb576133ea61659a565b5b8360060160019054906101000a900460ff16600481111561340f5761340e61659a565b5b036137b557600083600701805461342590616b06565b80601f016020809104026020016040519081016040528092919081815260200182805461345190616b06565b801561349e5780601f106134735761010080835404028352916020019161349e565b820191906000526020600020905b81548152906001019060200180831161348157829003601f168201915b50505050508060200190518101906134b69190617e8b565b90506134f66040518060400160405280601b81526020017f7472616e7366657220746f6b656e4f6666736572202e202e202e200000000000815250614e5e565b818015613511575061351081604001518260200151614ef7565b5b91506135516040518060400160405280601d81526020017f7472616e7366657220253520636f6d6d697373696f6e202e202e202e20000000815250614e5e565b8180156135a357506135a261010160009054906101000a900473ffffffffffffffffffffffffffffffffffffffff166064836020015160056135939190617ed4565b61359d9190617f2e565b614ef7565b5b91506135e36040518060400160405280601b81526020017f7472616e736665722025312070726f706f736572202e202e202e200000000000815250614e5e565b81801561362a57506136298460030160009054906101000a900473ffffffffffffffffffffffffffffffffffffffff16606483602001516136249190617f2e565b614ef7565b5b915061366a6040518060400160405280601a81526020017f7472616e736665722025322073657277617264202e202e202e20000000000000815250614e5e565b8180156136855750613684846000015482602001516150d4565b5b91506040518060600160405280826000015181526020016002808111156136af576136ae61659a565b5b81526020016001151581525060fb6000836040015173ffffffffffffffffffffffffffffffffffffffff1673ffffffffffffffffffffffffffffffffffffffff168152602001908152602001600020600082015181600001908051906020019061371a929190615ef7565b5060208201518160010160006101000a81548160ff021916908360028111156137465761374561659a565b5b021790555060408201518160010160016101000a81548160ff021916908315150217905550905050600161010560048282829054906101000a900463ffffffff166137919190617a52565b92506101000a81548163ffffffff021916908363ffffffff16021790555050613bfe565b600260048111156137c9576137c861659a565b5b8360060160019054906101000a900460ff1660048111156137ed576137ec61659a565b5b03613a1457600083600701805461380390616b06565b80601f016020809104026020016040519081016040528092919081815260200182805461382f90616b06565b801561387c5780601f106138515761010080835404028352916020019161387c565b820191906000526020600020905b81548152906001019060200180831161385f57829003601f168201915b50505050508060200190518101906138949190617ff3565b90506138b760405180606001604052806021815260200161908960219139614e5e565b8180156138d257506138d181604001518260200151614ef7565b5b91506138f560405180606001604052806023815260200161900960239139614e5e565b818015613947575061394661010160009054906101000a900473ffffffffffffffffffffffffffffffffffffffff166064836020015160056139379190617ed4565b6139419190617f2e565b614ef7565b5b915061396a6040518060600160405280602181526020016190aa60219139614e5e565b8180156139b157506139b08460030160009054906101000a900473ffffffffffffffffffffffffffffffffffffffff16606483602001516139ab9190617f2e565b614ef7565b5b91506139f16040518060400160405280601f81526020017f65786974207472616e736665722025322073657277617264202e202e202e2000815250614e5e565b818015613a0c5750613a0b846000015482602001516150d4565b5b915050613bfd565b60036004811115613a2857613a2761659a565b5b8360060160019054906101000a900460ff166004811115613a4c57613a4b61659a565b5b03613b0a576000836007018054613a6290616b06565b80601f0160208091040260200160405190810160405280929190818152602001828054613a8e90616b06565b8015613adb5780601f10613ab057610100808354040283529160200191613adb565b820191906000526020600020905b815481529060010190602001808311613abe57829003601f168201915b5050505050806020019051810190613af39190618078565b9050613b028160000151615214565b915050613bfc565b600480811115613b1d57613b1c61659a565b5b8360060160019054906101000a900460ff166004811115613b4157613b4061659a565b5b03613bfb576000836007018054613b5790616b06565b80601f0160208091040260200160405190810160405280929190818152602001828054613b8390616b06565b8015613bd05780601f10613ba557610100808354040283529160200191613bd0565b820191906000526020600020905b815481529060010190602001808311613bb357829003601f168201915b5050505050806020019051810190613be891906180e1565b9050613bf78160000151615382565b9150505b5b5b5b5b5b80915050919050565b60007ff1d23bd7ede3e157b19af9bdc7f9f08c55104d948e791ad0900a92e0a680c3a2878787878787604051602001613c42919061814a565b60405160208183030381529060405280519060200120604051602001613c6e9796959493929190618161565b6040516020818303038152906040528051906020012090509695505050505050565b6000613ca3613c9d6154f0565b83615596565b9050919050565b6000806041835103613ceb5760008060006020860151925060408601519150606086015160001a9050613cdf878285856155c9565b94509450505050613d24565b6040835103613d1b576000806020850151915060408501519050613d108683836156d5565b935093505050613d24565b60006002915091505b9250929050565b808260000160006101000a81548167ffffffffffffffff021916908367ffffffffffffffff1602179055505050565b60016003811115613d6e57613d6d61659a565b5b8160060160009054906101000a900460ff166003811115613d9257613d9161659a565b5b036140965760016004811115613dab57613daa61659a565b5b8160060160019054906101000a900460ff166004811115613dcf57613dce61659a565b5b03614091576000816007018054613de590616b06565b80601f0160208091040260200160405190810160405280929190818152602001828054613e1190616b06565b8015613e5e5780601f10613e3357610100808354040283529160200191613e5e565b820191906000526020600020905b815481529060010190602001808311613e4157829003601f168201915b5050505050806020019051810190613e769190617d5f565b9050600073ffffffffffffffffffffffffffffffffffffffff16816020015173ffffffffffffffffffffffffffffffffffffffff1603613eeb576040517f08c379a0000000000000000000000000000000000000000000000000000000008152600401613ee290618242565b60405180910390fd5b600081600001515103613f33576040517f08c379a0000000000000000000000000000000000000000000000000000000008152600401613f2a906182d4565b60405180910390fd5b60006002811115613f4757613f4661659a565b5b60fb6000836020015173ffffffffffffffffffffffffffffffffffffffff1673ffffffffffffffffffffffffffffffffffffffff16815260200190815260200160002060010160009054906101000a900460ff166002811115613fad57613fac61659a565b5b14613fed576040517f08c379a0000000000000000000000000000000000000000000000000000000008152600401613fe490618340565b60405180910390fd5b806020015173ffffffffffffffffffffffffffffffffffffffff168260030160009054906101000a900473ffffffffffffffffffffffffffffffffffffffff1673ffffffffffffffffffffffffffffffffffffffff1683600001547f3b993e041d591ea59a38f6cff579df5e8d6c2d1fed74305dfbb114336c41bdfd85600101548660020154866000015160405161408793929190618360565b60405180910390a4505b614c35565b600260038111156140aa576140a961659a565b5b8160060160009054906101000a900460ff1660038111156140ce576140cd61659a565b5b03614bfa57600160048111156140e7576140e661659a565b5b8160060160019054906101000a900460ff16600481111561410b5761410a61659a565b5b0361446f57600081600701805461412190616b06565b80601f016020809104026020016040519081016040528092919081815260200182805461414d90616b06565b801561419a5780601f1061416f5761010080835404028352916020019161419a565b820191906000526020600020905b81548152906001019060200180831161417d57829003601f168201915b50505050508060200190518101906141b29190617e8b565b90506000816000015151036141fc576040517f08c379a00000000000000000000000000000000000000000000000000000000081526004016141f3906183ea565b60405180910390fd5b6000816020015103614243576040517f08c379a000000000000000000000000000000000000000000000000000000000815260040161423a9061847c565b60405180910390fd5b6000816060015161ffff160361428e576040517f08c379a00000000000000000000000000000000000000000000000000000000081526004016142859061850e565b60405180910390fd5b600073ffffffffffffffffffffffffffffffffffffffff16816040015173ffffffffffffffffffffffffffffffffffffffff1603614301576040517f08c379a00000000000000000000000000000000000000000000000000000000081526004016142f89061857a565b60405180910390fd5b600060028111156143155761431461659a565b5b60fb6000836040015173ffffffffffffffffffffffffffffffffffffffff1673ffffffffffffffffffffffffffffffffffffffff16815260200190815260200160002060010160009054906101000a900460ff16600281111561437b5761437a61659a565b5b146143bb576040517f08c379a00000000000000000000000000000000000000000000000000000000081526004016143b2906185e6565b60405180910390fd5b806040015173ffffffffffffffffffffffffffffffffffffffff168260030160009054906101000a900473ffffffffffffffffffffffffffffffffffffffff1673ffffffffffffffffffffffffffffffffffffffff1683600001547fa3d1a39a550977baa46ea2634b05f5eb5993c2422417ce8c7139b39635a2a08c84602001518660010154876002015487600001518860600151604051614461959493929190618615565b60405180910390a450614bf5565b600260048111156144835761448261659a565b5b8160060160019054906101000a900460ff1660048111156144a7576144a661659a565b5b0361480b5760008160070180546144bd90616b06565b80601f01602080910402602001604051908101604052809291908181526020018280546144e990616b06565b80156145365780601f1061450b57610100808354040283529160200191614536565b820191906000526020600020905b81548152906001019060200180831161451957829003601f168201915b505050505080602001905181019061454e9190617ff3565b9050600081600001515103614598576040517f08c379a000000000000000000000000000000000000000000000000000000000815260040161458f906183ea565b60405180910390fd5b60008160200151036145df576040517f08c379a00000000000000000000000000000000000000000000000000000000081526004016145d69061847c565b60405180910390fd5b6000816060015161ffff160361462a576040517f08c379a00000000000000000000000000000000000000000000000000000000081526004016146219061850e565b60405180910390fd5b600073ffffffffffffffffffffffffffffffffffffffff16816040015173ffffffffffffffffffffffffffffffffffffffff160361469d576040517f08c379a0000000000000000000000000000000000000000000000000000000008152600401614694906186bb565b60405180910390fd5b600160028111156146b1576146b061659a565b5b60fb6000836040015173ffffffffffffffffffffffffffffffffffffffff1673ffffffffffffffffffffffffffffffffffffffff16815260200190815260200160002060010160009054906101000a900460ff1660028111156147175761471661659a565b5b14614757576040517f08c379a000000000000000000000000000000000000000000000000000000000815260040161474e90618727565b60405180910390fd5b806040015173ffffffffffffffffffffffffffffffffffffffff168260030160009054906101000a900473ffffffffffffffffffffffffffffffffffffffff1673ffffffffffffffffffffffffffffffffffffffff1683600001547fb58c12647c60f8966538bcfa6bf6b815477288bcbcbd80c2ac8ad7c23115a2d9846020015186600101548760020154876000015188606001516040516147fd959493929190618615565b60405180910390a450614bf4565b6003600481111561481f5761481e61659a565b5b8160060160019054906101000a900460ff1660048111156148435761484261659a565b5b03614a0157600081600701805461485990616b06565b80601f016020809104026020016040519081016040528092919081815260200182805461488590616b06565b80156148d25780601f106148a7576101008083540402835291602001916148d2565b820191906000526020600020905b8154815290600101906020018083116148b557829003601f168201915b50505050508060200190518101906148ea9190618078565b9050600073ffffffffffffffffffffffffffffffffffffffff16816000015173ffffffffffffffffffffffffffffffffffffffff160361495f576040517f08c379a0000000000000000000000000000000000000000000000000000000008152600401614956906187b9565b60405180910390fd5b806000015173ffffffffffffffffffffffffffffffffffffffff168260030160009054906101000a900473ffffffffffffffffffffffffffffffffffffffff1673ffffffffffffffffffffffffffffffffffffffff1683600001547f6c344b5a99d701e380e4f74eb042f15449b77f4657a647b82e9a5b223798bf1c856001015486600201546040516149f39291906187d9565b60405180910390a450614bf3565b600480811115614a1457614a1361659a565b5b8160060160019054906101000a900460ff166004811115614a3857614a3761659a565b5b03614bf2576000816007018054614a4e90616b06565b80601f0160208091040260200160405190810160405280929190818152602001828054614a7a90616b06565b8015614ac75780601f10614a9c57610100808354040283529160200191614ac7565b820191906000526020600020905b815481529060010190602001808311614aaa57829003601f168201915b5050505050806020019051810190614adf91906180e1565b9050600073ffffffffffffffffffffffffffffffffffffffff16816000015173ffffffffffffffffffffffffffffffffffffffff1603614b54576040517f08c379a0000000000000000000000000000000000000000000000000000000008152600401614b4b90618874565b60405180910390fd5b806000015173ffffffffffffffffffffffffffffffffffffffff168260030160009054906101000a900473ffffffffffffffffffffffffffffffffffffffff1673ffffffffffffffffffffffffffffffffffffffff1683600001547f5b0256ffeae05aba51e2c5f936a5ab3668280f92904d8098fc46d79e2ec5dbfa85600101548660020154604051614be89291906187d9565b60405180910390a4505b5b5b5b614c34565b600380811115614c0d57614c0c61659a565b5b8160060160009054906101000a900460ff166003811115614c3157614c3061659a565b5b50505b5b50565b6000808273ffffffffffffffffffffffffffffffffffffffff163b119050919050565b614c658282611758565b614cf457614c8a8173ffffffffffffffffffffffffffffffffffffffff166014615734565b614c988360001c6020615734565b604051602001614ca992919061892c565b6040516020818303038152906040526040517f08c379a0000000000000000000000000000000000000000000000000000000008152600401614ceb9190616136565b60405180910390fd5b5050565b6000819050919050565b6000819050919050565b614d1581614c38565b614d54576040517f08c379a0000000000000000000000000000000000000000000000000000000008152600401614d4b906189d8565b60405180910390fd5b80614d817f360894a13ba1a3210667c828492db98dca3e2076cc3735a920a3ca505d382bbc60001b614cf8565b60000160006101000a81548173ffffffffffffffffffffffffffffffffffffffff021916908373ffffffffffffffffffffffffffffffffffffffff16021790555050565b614dce83615970565b600082511180614ddb5750805b15614dec57614dea83836159bf565b505b505050565b600080826000015167ffffffffffffffff16119050919050565b6000614e33836000018373ffffffffffffffffffffffffffffffffffffffff1660001b615aa3565b905092915050565b600080836001016000848152602001908152602001600020541415905092915050565b614ef481604051602401614e729190616136565b6040516020818303038152906040527f41304fac000000000000000000000000000000000000000000000000000000007bffffffffffffffffffffffffffffffffffffffffffffffffffffffff19166020820180517bffffffffffffffffffffffffffffffffffffffffffffffffffffffff8381831617835250505050615b13565b50565b6000807f23b872dd7302113369cda2901243429419bec145408fa8b352b3dd92b66c680b61010060009054906101000a900473ffffffffffffffffffffffffffffffffffffffff168585604051602401614f53939291906189f8565b604051602081830303815290604052907bffffffffffffffffffffffffffffffffffffffffffffffffffffffff19166020820180517bffffffffffffffffffffffffffffffffffffffffffffffffffffffff83818316178352505050509050614ff96040518060600160405280603681526020016190536036913961010060009054906101000a900473ffffffffffffffffffffffffffffffffffffffff168686615b3c565b600061010260009054906101000a900473ffffffffffffffffffffffffffffffffffffffff1673ffffffffffffffffffffffffffffffffffffffff1682604051615043919061814a565b6000604051808303816000865af19150503d8060008114615080576040519150601f19603f3d011682016040523d82523d6000602084013e615085565b606091505b50509050806150c9576040517f08c379a00000000000000000000000000000000000000000000000000000000081526004016150c090618a7b565b60405180910390fd5b809250505092915050565b60008060fc6000858152602001908152602001600020905060006150fa82600101615bde565b9050600081606486600261510e9190617ed4565b6151189190617f2e565b6151229190617f2e565b90506151646040518060400160405280602081526020017f73656e64526577617264733a2025732c20766f7465724c656e6774683a2025738152508284615bf3565b60006001905060005b83811015615206576151c96040518060400160405280601c81526020017f7265776172642076616c696461746f7220616464726573733a202573000000008152506151c48388600101615c9290919063ffffffff16565b615cac565b8180156151f157506151f06151ea8287600101615c9290919063ffffffff16565b84614ef7565b5b915080806151fe90618a9b565b91505061516d565b508094505050505092915050565b6000807ff26c159fd7d78f3848964c3adf4aea78577348fcb297db019bf8f5efbed02195836040516024016152499190616326565b604051602081830303815290604052907bffffffffffffffffffffffffffffffffffffffffffffffffffffffff19166020820180517bffffffffffffffffffffffffffffffffffffffffffffffffffffffff83818316178352505050509050600061010260009054906101000a900473ffffffffffffffffffffffffffffffffffffffff1673ffffffffffffffffffffffffffffffffffffffff16826040516152f2919061814a565b6000604051808303816000865af19150503d806000811461532f576040519150601f19603f3d011682016040523d82523d6000602084013e615334565b606091505b5050905080615378576040517f08c379a000000000000000000000000000000000000000000000000000000000815260040161536f90618b2f565b60405180910390fd5b8092505050919050565b6000807f53cc2fae7ecef069da76ae9063c3ecfa7f417173bc5191fe1bb037165d76473f836040516024016153b79190616326565b604051602081830303815290604052907bffffffffffffffffffffffffffffffffffffffffffffffffffffffff19166020820180517bffffffffffffffffffffffffffffffffffffffffffffffffffffffff83818316178352505050509050600061010260009054906101000a900473ffffffffffffffffffffffffffffffffffffffff1673ffffffffffffffffffffffffffffffffffffffff1682604051615460919061814a565b6000604051808303816000865af19150503d806000811461549d576040519150601f19603f3d011682016040523d82523d6000602084013e6154a2565b606091505b50509050806154e6576040517f08c379a00000000000000000000000000000000000000000000000000000000081526004016154dd90618b9b565b60405180910390fd5b8092505050919050565b60007f8b73c3c69bb8fe3d512ecc4cf759cc79239f7b179b0ffacaa9a75d522b39400f6101036040516020016155269190618c4f565b6040516020818303038152906040528051906020012061010460405160200161554f9190618c4f565b60405160208183030381529060405280519060200120463060405160200161557b959493929190618c66565b60405160208183030381529060405280519060200120905090565b600082826040516020016155ab929190618d26565b60405160208183030381529060405280519060200120905092915050565b6000807f7fffffffffffffffffffffffffffffff5d576e7357a4501ddfe92f46681b20a08360001c11156156045760006003915091506156cc565b601b8560ff161415801561561c5750601c8560ff1614155b1561562e5760006004915091506156cc565b6000600187878787604051600081526020016040526040516156539493929190618d5d565b6020604051602081039080840390855afa158015615675573d6000803e3d6000fd5b505050602060405103519050600073ffffffffffffffffffffffffffffffffffffffff168173ffffffffffffffffffffffffffffffffffffffff16036156c3576000600192509250506156cc565b80600092509250505b94509492505050565b60008060007f7fffffffffffffffffffffffffffffffffffffffffffffffffffffffffffffff60001b841690506000601b60ff8660001c901c6157189190618da2565b9050615726878288856155c9565b935093505050935093915050565b6060600060028360026157479190617ed4565b6157519190618da2565b67ffffffffffffffff81111561576a57615769616413565b5b6040519080825280601f01601f19166020018201604052801561579c5781602001600182028036833780820191505090505b5090507f3000000000000000000000000000000000000000000000000000000000000000816000815181106157d4576157d3618df8565b5b60200101907effffffffffffffffffffffffffffffffffffffffffffffffffffffffffffff1916908160001a9053507f78000000000000000000000000000000000000000000000000000000000000008160018151811061583857615837618df8565b5b60200101907effffffffffffffffffffffffffffffffffffffffffffffffffffffffffffff1916908160001a905350600060018460026158789190617ed4565b6158829190618da2565b90505b6001811115615922577f3031323334353637383961626364656600000000000000000000000000000000600f8616601081106158c4576158c3618df8565b5b1a60f81b8282815181106158db576158da618df8565b5b60200101907effffffffffffffffffffffffffffffffffffffffffffffffffffffffffffff1916908160001a905350600485901c94508061591b90618e27565b9050615885565b5060008414615966576040517f08c379a000000000000000000000000000000000000000000000000000000000815260040161595d90618e9c565b60405180910390fd5b8091505092915050565b61597981614d0c565b8073ffffffffffffffffffffffffffffffffffffffff167fbc7cd75a20ee27fd9adebab32041f755214dbc6bffa90cc0225b39da2e5c2d3b60405160405180910390a250565b60606159ca83614c38565b615a09576040517f08c379a0000000000000000000000000000000000000000000000000000000008152600401615a0090618f2e565b60405180910390fd5b6000808473ffffffffffffffffffffffffffffffffffffffff1684604051615a31919061814a565b600060405180830381855af49150503d8060008114615a6c576040519150601f19603f3d011682016040523d82523d6000602084013e615a71565b606091505b5091509150615a99828260405180606001604052806027815260200161902c60279139615d48565b9250505092915050565b6000615aaf8383614e3b565b615b08578260000182908060018154018082558091505060019003906000526020600020016000909190919091505582600001805490508360010160008481526020019081526020016000208190555060019050615b0d565b600090505b92915050565b60008151905060006a636f6e736f6c652e6c6f679050602083016000808483855afa5050505050565b615bd884848484604051602401615b569493929190618f4e565b6040516020818303038152906040527f6eb7943d000000000000000000000000000000000000000000000000000000007bffffffffffffffffffffffffffffffffffffffffffffffffffffffff19166020820180517bffffffffffffffffffffffffffffffffffffffffffffffffffffffff8381831617835250505050615b13565b50505050565b6000615bec82600001615daf565b9050919050565b615c8d838383604051602401615c0b93929190618f9a565b6040516020818303038152906040527f969cdd03000000000000000000000000000000000000000000000000000000007bffffffffffffffffffffffffffffffffffffffffffffffffffffffff19166020820180517bffffffffffffffffffffffffffffffffffffffffffffffffffffffff8381831617835250505050615b13565b505050565b6000615ca18360000183615dc0565b60001c905092915050565b615d448282604051602401615cc2929190618fd8565b6040516020818303038152906040527f319af333000000000000000000000000000000000000000000000000000000007bffffffffffffffffffffffffffffffffffffffffffffffffffffffff19166020820180517bffffffffffffffffffffffffffffffffffffffffffffffffffffffff8381831617835250505050615b13565b5050565b60608315615d5857829050615da8565b600083511115615d6b5782518084602001fd5b816040517f08c379a0000000000000000000000000000000000000000000000000000000008152600401615d9f9190616136565b60405180910390fd5b9392505050565b600081600001805490509050919050565b6000826000018281548110615dd857615dd7618df8565b5b9060005260206000200154905092915050565b828054615df790616b06565b90600052602060002090601f016020900481019282615e195760008555615e60565b82601f10615e3257803560ff1916838001178555615e60565b82800160010185558215615e60579182015b82811115615e5f578235825591602001919060010190615e44565b5b509050615e6d9190615f7d565b5090565b828054615e7d90616b06565b90600052602060002090601f016020900481019282615e9f5760008555615ee6565b82601f10615eb857805160ff1916838001178555615ee6565b82800160010185558215615ee6579182015b82811115615ee5578251825591602001919060010190615eca565b5b509050615ef39190615f7d565b5090565b828054615f0390616b06565b90600052602060002090601f016020900481019282615f255760008555615f6c565b82601f10615f3e57805160ff1916838001178555615f6c565b82800160010185558215615f6c579182015b82811115615f6b578251825591602001919060010190615f50565b5b509050615f799190615f7d565b5090565b5b80821115615f96576000816000905550600101615f7e565b5090565b6000604051905090565b600080fd5b600080fd5b60007fffffffff0000000000000000000000000000000000000000000000000000000082169050919050565b615fe381615fae565b8114615fee57600080fd5b50565b60008135905061600081615fda565b92915050565b60006020828403121561601c5761601b615fa4565b5b600061602a84828501615ff1565b91505092915050565b60008115159050919050565b61604881616033565b82525050565b6000602082019050616063600083018461603f565b92915050565b6000819050919050565b61607c81616069565b82525050565b60006020820190506160976000830184616073565b92915050565b600081519050919050565b600082825260208201905092915050565b60005b838110156160d75780820151818401526020810190506160bc565b838111156160e6576000848401525b50505050565b6000601f19601f8301169050919050565b60006161088261609d565b61611281856160a8565b93506161228185602086016160b9565b61612b816160ec565b840191505092915050565b6000602082019050818103600083015261615081846160fd565b905092915050565b600080fd5b600080fd5b600080fd5b60008083601f84011261617d5761617c616158565b5b8235905067ffffffffffffffff81111561619a5761619961615d565b5b6020830191508360018202830111156161b6576161b5616162565b5b9250929050565b600073ffffffffffffffffffffffffffffffffffffffff82169050919050565b60006161e8826161bd565b9050919050565b6161f8816161dd565b811461620357600080fd5b50565b600081359050616215816161ef565b92915050565b60008060008060006060868803121561623757616236615fa4565b5b600086013567ffffffffffffffff81111561625557616254615fa9565b5b61626188828901616167565b9550955050602086013567ffffffffffffffff81111561628457616283615fa9565b5b61629088828901616167565b935093505060406162a388828901616206565b9150509295509295909350565b600063ffffffff82169050919050565b6162c9816162b0565b82525050565b60006020820190506162e460008301846162c0565b92915050565b600060208284031215616300576162ff615fa4565b5b600061630e84828501616206565b91505092915050565b616320816161dd565b82525050565b600060208201905061633b6000830184616317565b92915050565b6000819050919050565b61635481616341565b811461635f57600080fd5b50565b6000813590506163718161634b565b92915050565b60006020828403121561638d5761638c615fa4565b5b600061639b84828501616362565b91505092915050565b6163ad81616341565b82525050565b60006020820190506163c860008301846163a4565b92915050565b600080604083850312156163e5576163e4615fa4565b5b60006163f385828601616362565b925050602061640485828601616206565b9150509250929050565b600080fd5b7f4e487b7100000000000000000000000000000000000000000000000000000000600052604160045260246000fd5b61644b826160ec565b810181811067ffffffffffffffff8211171561646a57616469616413565b5b80604052505050565b600061647d615f9a565b90506164898282616442565b919050565b600067ffffffffffffffff8211156164a9576164a8616413565b5b6164b2826160ec565b9050602081019050919050565b82818337600083830152505050565b60006164e16164dc8461648e565b616473565b9050828152602081018484840111156164fd576164fc61640e565b5b6165088482856164bf565b509392505050565b600082601f83011261652557616524616158565b5b81356165358482602086016164ce565b91505092915050565b6000806040838503121561655557616554615fa4565b5b600061656385828601616206565b925050602083013567ffffffffffffffff81111561658457616583615fa9565b5b61659085828601616510565b9150509250929050565b7f4e487b7100000000000000000000000000000000000000000000000000000000600052602160045260246000fd5b600881106165da576165d961659a565b5b50565b60008190506165eb826165c9565b919050565b60006165fb826165dd565b9050919050565b61660b816165f0565b82525050565b60006020820190506166266000830184616602565b92915050565b61663581616069565b811461664057600080fd5b50565b6000813590506166528161662c565b92915050565b60006020828403121561666e5761666d615fa4565b5b600061667c84828501616643565b91505092915050565b61668e81616033565b811461669957600080fd5b50565b6000813590506166ab81616685565b92915050565b6000602082840312156166c7576166c6615fa4565b5b60006166d58482850161669c565b91505092915050565b600481106166eb57600080fd5b50565b6000813590506166fd816166de565b92915050565b6000806000806060858703121561671d5761671c615fa4565b5b600085013567ffffffffffffffff81111561673b5761673a615fa9565b5b61674787828801616167565b9450945050602061675a87828801616362565b925050604061676b878288016166ee565b91505092959194509250565b61678081615fae565b82525050565b600060208201905061679b6000830184616777565b92915050565b600067ffffffffffffffff8211156167bc576167bb616413565b5b6167c5826160ec565b9050602081019050919050565b60006167e56167e0846167a1565b616473565b9050828152602081018484840111156168015761680061640e565b5b61680c8482856164bf565b509392505050565b600082601f83011261682957616828616158565b5b81356168398482602086016167d2565b91505092915050565b6000806040838503121561685957616858615fa4565b5b600061686785828601616362565b925050602083013567ffffffffffffffff81111561688857616887615fa9565b5b61689485828601616814565b9150509250929050565b600481106168ab57600080fd5b50565b6000813590506168bd8161689e565b92915050565b600581106168d057600080fd5b50565b6000813590506168e2816168c3565b92915050565b60008060008060008060c0878903121561690557616904615fa4565b5b600061691389828a01616362565b965050602061692489828a01616362565b955050604061693589828a01616206565b945050606061694689828a016168ae565b935050608061695789828a016168d3565b92505060a087013567ffffffffffffffff81111561697857616977615fa9565b5b61698489828a01616510565b9150509295509295509295565b600080fd5b600080fd5b600060a082840312156169b1576169b0616991565b5b6169bb60a0616473565b905060006169cb84828501616362565b60008301525060206169df848285016168ae565b60208301525060406169f3848285016168d3565b604083015250606082013567ffffffffffffffff811115616a1757616a16616996565b5b616a2384828501616814565b606083015250608082013567ffffffffffffffff811115616a4757616a46616996565b5b616a5384828501616510565b60808301525092915050565b60008060408385031215616a7657616a75615fa4565b5b600083013567ffffffffffffffff811115616a9457616a93615fa9565b5b616aa08582860161699b565b925050602083013567ffffffffffffffff811115616ac157616ac0615fa9565b5b616acd85828601616510565b9150509250929050565b7f4e487b7100000000000000000000000000000000000000000000000000000000600052602260045260246000fd5b60006002820490506001821680616b1e57607f821691505b602082108103616b3157616b30616ad7565b5b50919050565b600060ff82169050919050565b616b4d81616b37565b82525050565b6000602082019050616b686000830184616b44565b92915050565b7f56616c696461746f723a206f6e6c792065786973742076616c696461746f722060008201527f63616e2062652064697361626c65000000000000000000000000000000000000602082015250565b6000616bca602e836160a8565b9150616bd582616b6e565b604082019050919050565b60006020820190508181036000830152616bf981616bbd565b9050919050565b7f4e487b7100000000000000000000000000000000000000000000000000000000600052601160045260246000fd5b6000616c3a826162b0565b9150616c45836162b0565b925082821015616c5857616c57616c00565b5b828203905092915050565b7f416363657373436f6e74726f6c3a2063616e206f6e6c792072656e6f756e636560008201527f20726f6c657320666f722073656c660000000000000000000000000000000000602082015250565b6000616cbf602f836160a8565b9150616cca82616c63565b604082019050919050565b60006020820190508181036000830152616cee81616cb2565b9050919050565b7f46756e6374696f6e206d7573742062652063616c6c6564207468726f7567682060008201527f64656c656761746563616c6c0000000000000000000000000000000000000000602082015250565b6000616d51602c836160a8565b9150616d5c82616cf5565b604082019050919050565b60006020820190508181036000830152616d8081616d44565b9050919050565b7f46756e6374696f6e206d7573742062652063616c6c6564207468726f7567682060008201527f6163746976652070726f78790000000000000000000000000000000000000000602082015250565b6000616de3602c836160a8565b9150616dee82616d87565b604082019050919050565b60006020820190508181036000830152616e1281616dd6565b9050919050565b7f555550535570677261646561626c653a206d757374206e6f742062652063616c60008201527f6c6564207468726f7567682064656c656761746563616c6c0000000000000000602082015250565b6000616e756038836160a8565b9150616e8082616e19565b604082019050919050565b60006020820190508181036000830152616ea481616e68565b9050919050565b7f70726f706f73616c496420697320696e76616c69640000000000000000000000600082015250565b6000616ee16015836160a8565b9150616eec82616eab565b602082019050919050565b60006020820190508181036000830152616f1081616ed4565b9050919050565b7f476f7665726e6f723a206f6e6c792076616c696461746f72207065726d69747460008201527f6564000000000000000000000000000000000000000000000000000000000000602082015250565b6000616f736022836160a8565b9150616f7e82616f17565b604082019050919050565b60006020820190508181036000830152616fa281616f66565b9050919050565b7f476f7665726e6f72203a206f6e6c792070726f706f7365722063616e2063616e60008201527f63656c0000000000000000000000000000000000000000000000000000000000602082015250565b60006170056023836160a8565b915061701082616fa9565b604082019050919050565b6000602082019050818103600083015261703481616ff8565b9050919050565b7f476f7665726e6f723a2070726f706f73616c206e6f7420616374697665000000600082015250565b6000617071601d836160a8565b915061707c8261703b565b602082019050919050565b600060208201905081810360008301526170a081617064565b9050919050565b7f476f7665726e6f723a2070726f706f73616c20616c72656164792063616e636560008201527f6c65640000000000000000000000000000000000000000000000000000000000602082015250565b60006171036023836160a8565b915061710e826170a7565b604082019050919050565b60006020820190508181036000830152617132816170f6565b9050919050565b6004811061714a5761714961659a565b5b50565b600081905061715b82617139565b919050565b600061716b8261714d565b9050919050565b61717b81617160565b82525050565b600581106171925761719161659a565b5b50565b60008190506171a382617181565b919050565b60006171b382617195565b9050919050565b6171c3816171a8565b82525050565b600081519050919050565b600082825260208201905092915050565b60006171f0826171c9565b6171fa81856171d4565b935061720a8185602086016160b9565b617213816160ec565b840191505092915050565b600060c08201905061723360008301896163a4565b61724060208301886163a4565b61724d6040830187616317565b61725a6060830186617172565b61726760808301856171ba565b81810360a083015261727981846171e5565b9050979650505050505050565b7f476f7665726e6f723a2070726f706f73616c206e6f742073756363657373667560008201527f6c00000000000000000000000000000000000000000000000000000000000000602082015250565b60006172e26021836160a8565b91506172ed82617286565b604082019050919050565b60006020820190508181036000830152617311816172d5565b9050919050565b7f476f7665726e6f723a206f6e6c792076616c696461746f72206f7220416d696e60008201527f2063616e207065726d6974746564000000000000000000000000000000000000602082015250565b6000617374602e836160a8565b915061737f82617318565b604082019050919050565b600060208201905081810360008301526173a381617367565b9050919050565b7f70726f706f73616c20747970652073686f756c64206e6f74206265204e4f4e45600082015250565b60006173e06020836160a8565b91506173eb826173aa565b602082019050919050565b6000602082019050818103600083015261740f816173d3565b9050919050565b7f616374696f6e20747970652073686f756c64206e6f74206265204e4f4e450000600082015250565b600061744c601e836160a8565b915061745782617416565b602082019050919050565b6000602082019050818103600083015261747b8161743f565b9050919050565b7f646174612073686f756c64206e6f7420626520656d7074790000000000000000600082015250565b60006174b86018836160a8565b91506174c382617482565b602082019050919050565b600060208201905081810360008301526174e7816174ab565b9050919050565b7f61646d696e2070726f706f7365206f6e6c792076616c696461746f7200000000600082015250565b6000617524601c836160a8565b915061752f826174ee565b602082019050919050565b6000602082019050818103600083015261755381617517565b9050919050565b7f76616c696461746f7220636f75646e27742070726f706f73652076616c69646160008201527f746f720000000000000000000000000000000000000000000000000000000000602082015250565b60006175b66023836160a8565b91506175c18261755a565b604082019050919050565b600060208201905081810360008301526175e5816175a9565b9050919050565b600081905092915050565b60006176028261609d565b61760c81856175ec565b935061761c8185602086016160b9565b80840191505092915050565b600061763482846175f7565b915081905092915050565b600060408201905061765460008301856163a4565b6176616020830184616317565b9392505050565b60008151905061767781616685565b92915050565b60006020828403121561769357617692615fa4565b5b60006176a184828501617668565b91505092915050565b7f70726f706f73616c206372656174696f6e207065726d697373696f6e2064656e60008201527f6965640000000000000000000000000000000000000000000000000000000000602082015250565b60006177066023836160a8565b9150617711826176aa565b604082019050919050565b60006020820190508181036000830152617735816176f9565b9050919050565b600067ffffffffffffffff82169050919050565b600061775b8261773c565b91506177668361773c565b92508267ffffffffffffffff0382111561778357617782616c00565b5b828201905092915050565b7f496e697469616c697a61626c653a20636f6e747261637420697320616c72656160008201527f647920696e697469616c697a6564000000000000000000000000000000000000602082015250565b60006177ea602e836160a8565b91506177f58261778e565b604082019050919050565b60006020820190508181036000830152617819816177dd565b9050919050565b7f6164647265737320696e76616c69640000000000000000000000000000000000600082015250565b6000617856600f836160a8565b915061786182617820565b602082019050919050565b6000602082019050818103600083015261788581617849565b9050919050565b60008151905061789b8161634b565b92915050565b6000602082840312156178b7576178b6615fa4565b5b60006178c58482850161788c565b91505092915050565b7f45524331393637557067726164653a206e657720696d706c656d656e7461746960008201527f6f6e206973206e6f742055555053000000000000000000000000000000000000602082015250565b600061792a602e836160a8565b9150617935826178ce565b604082019050919050565b600060208201905081810360008301526179598161791d565b9050919050565b7f45524331393637557067726164653a20756e737570706f727465642070726f7860008201527f6961626c65555549440000000000000000000000000000000000000000000000602082015250565b60006179bc6029836160a8565b91506179c782617960565b604082019050919050565b600060208201905081810360008301526179eb816179af565b9050919050565b7f4e487b7100000000000000000000000000000000000000000000000000000000600052601260045260246000fd5b6000617a2c826162b0565b9150617a37836162b0565b925082617a4757617a466179f2565b5b828204905092915050565b6000617a5d826162b0565b9150617a68836162b0565b92508263ffffffff03821115617a8157617a80616c00565b5b828201905092915050565b7f476f7665726e6f723a20766f746520696e76616c696400000000000000000000600082015250565b6000617ac26016836160a8565b9150617acd82617a8c565b602082019050919050565b60006020820190508181036000830152617af181617ab5565b9050919050565b7f476f7665726e6f723a2070726f706f73616c2063757272656e746c7920696e6160008201527f6374697665000000000000000000000000000000000000000000000000000000602082015250565b6000617b546025836160a8565b9150617b5f82617af8565b604082019050919050565b60006020820190508181036000830152617b8381617b47565b9050919050565b7f476f7665726e6f723a20766f746520616c726561647920636173740000000000600082015250565b6000617bc0601b836160a8565b9150617bcb82617b8a565b602082019050919050565b60006020820190508181036000830152617bef81617bb3565b9050919050565b60048110617c0757617c0661659a565b5b50565b6000819050617c1882617bf6565b919050565b6000617c2882617c0a565b9050919050565b617c3881617c1d565b82525050565b6000604082019050617c536000830185617c2f565b8181036020830152617c6581846160fd565b90509392505050565b6000617c81617c7c846167a1565b616473565b905082815260208101848484011115617c9d57617c9c61640e565b5b617ca88482856160b9565b509392505050565b600082601f830112617cc557617cc4616158565b5b8151617cd5848260208601617c6e565b91505092915050565b600081519050617ced816161ef565b92915050565b600060408284031215617d0957617d08616991565b5b617d136040616473565b9050600082015167ffffffffffffffff811115617d3357617d32616996565b5b617d3f84828501617cb0565b6000830152506020617d5384828501617cde565b60208301525092915050565b600060208284031215617d7557617d74615fa4565b5b600082015167ffffffffffffffff811115617d9357617d92615fa9565b5b617d9f84828501617cf3565b91505092915050565b600081519050617db78161662c565b92915050565b600061ffff82169050919050565b617dd481617dbd565b8114617ddf57600080fd5b50565b600081519050617df181617dcb565b92915050565b600060808284031215617e0d57617e0c616991565b5b617e176080616473565b9050600082015167ffffffffffffffff811115617e3757617e36616996565b5b617e4384828501617cb0565b6000830152506020617e5784828501617da8565b6020830152506040617e6b84828501617cde565b6040830152506060617e7f84828501617de2565b60608301525092915050565b600060208284031215617ea157617ea0615fa4565b5b600082015167ffffffffffffffff811115617ebf57617ebe615fa9565b5b617ecb84828501617df7565b91505092915050565b6000617edf82616069565b9150617eea83616069565b9250817fffffffffffffffffffffffffffffffffffffffffffffffffffffffffffffffff0483118215151615617f2357617f22616c00565b5b828202905092915050565b6000617f3982616069565b9150617f4483616069565b925082617f5457617f536179f2565b5b828204905092915050565b600060808284031215617f7557617f74616991565b5b617f7f6080616473565b9050600082015167ffffffffffffffff811115617f9f57617f9e616996565b5b617fab84828501617cb0565b6000830152506020617fbf84828501617da8565b6020830152506040617fd384828501617cde565b6040830152506060617fe784828501617de2565b60608301525092915050565b60006020828403121561800957618008615fa4565b5b600082015167ffffffffffffffff81111561802757618026615fa9565b5b61803384828501617f5f565b91505092915050565b60006020828403121561805257618051616991565b5b61805c6020616473565b9050600061806c84828501617cde565b60008301525092915050565b60006020828403121561808e5761808d615fa4565b5b600061809c8482850161803c565b91505092915050565b6000602082840312156180bb576180ba616991565b5b6180c56020616473565b905060006180d584828501617cde565b60008301525092915050565b6000602082840312156180f7576180f6615fa4565b5b6000618105848285016180a5565b91505092915050565b600081905092915050565b6000618124826171c9565b61812e818561810e565b935061813e8185602086016160b9565b80840191505092915050565b60006181568284618119565b915081905092915050565b600060e082019050618176600083018a6163a4565b61818360208301896163a4565b61819060408301886163a4565b61819d6060830187616317565b6181aa6080830186617172565b6181b760a08301856171ba565b6181c460c08301846163a4565b98975050505050505050565b7f76616c696461746f7220616464726573732073686f756c64206e6f742062652060008201527f7a65726f00000000000000000000000000000000000000000000000000000000602082015250565b600061822c6024836160a8565b9150618237826181d0565b604082019050919050565b6000602082019050818103600083015261825b8161821f565b9050919050565b7f76616c696461746f72206e616d652073686f756c64206e6f7420626520656d7060008201527f7479000000000000000000000000000000000000000000000000000000000000602082015250565b60006182be6022836160a8565b91506182c982618262565b604082019050919050565b600060208201905081810360008301526182ed816182b1565b9050919050565b7f76616c696461746f72454f4120616c7265616479206578697374730000000000600082015250565b600061832a601b836160a8565b9150618335826182f4565b602082019050919050565b600060208201905081810360008301526183598161831d565b9050919050565b600060608201905061837560008301866163a4565b61838260208301856163a4565b818103604083015261839481846160fd565b9050949350505050565b7f73746172747570206e616d652073686f756c64206e6f7420626520656d707479600082015250565b60006183d46020836160a8565b91506183df8261839e565b602082019050919050565b60006020820190508181036000830152618403816183c7565b9050919050565b7f7374617274757020746f6b656e206f666665722073686f756c64206e6f74206260008201527f65207a65726f0000000000000000000000000000000000000000000000000000602082015250565b60006184666026836160a8565b91506184718261840a565b604082019050919050565b6000602082019050818103600083015261849581618459565b9050919050565b7f7374617274757020736861726564207374616b652073686f756c64206e6f742060008201527f6265207a65726f00000000000000000000000000000000000000000000000000602082015250565b60006184f86027836160a8565b91506185038261849c565b604082019050919050565b60006020820190508181036000830152618527816184eb565b9050919050565b7f7374617274757020454f412073686f756c64206e6f74206265207a65726f0000600082015250565b6000618564601e836160a8565b915061856f8261852e565b602082019050919050565b6000602082019050818103600083015261859381618557565b9050919050565b7f73746172747570454f4120616c72656164792065786973747300000000000000600082015250565b60006185d06019836160a8565b91506185db8261859a565b602082019050919050565b600060208201905081810360008301526185ff816185c3565b9050919050565b61860f81617dbd565b82525050565b600060a08201905061862a6000830188616073565b61863760208301876163a4565b61864460408301866163a4565b818103606083015261865681856160fd565b90506186656080830184618606565b9695505050505050565b7f76616c696461746f7220454f412073686f756c64206e6f74206265207a65726f600082015250565b60006186a56020836160a8565b91506186b08261866f565b602082019050919050565b600060208201905081810360008301526186d481618698565b9050919050565b7f76616c696461746f72454f4120646f65736e2774206578697374730000000000600082015250565b6000618711601b836160a8565b915061871c826186db565b602082019050919050565b6000602082019050818103600083015261874081618704565b9050919050565b7f467265657a653a206163636f756e742073686f756c64206e6f74206265207a6560008201527f726f000000000000000000000000000000000000000000000000000000000000602082015250565b60006187a36022836160a8565b91506187ae82618747565b604082019050919050565b600060208201905081810360008301526187d281618796565b9050919050565b60006040820190506187ee60008301856163a4565b6187fb60208301846163a4565b9392505050565b7f556e667265657a653a206163636f756e742073686f756c64206e6f742062652060008201527f7a65726f00000000000000000000000000000000000000000000000000000000602082015250565b600061885e6024836160a8565b915061886982618802565b604082019050919050565b6000602082019050818103600083015261888d81618851565b9050919050565b7f416363657373436f6e74726f6c3a206163636f756e7420000000000000000000600082015250565b60006188ca6017836175ec565b91506188d582618894565b601782019050919050565b7f206973206d697373696e6720726f6c6520000000000000000000000000000000600082015250565b60006189166011836175ec565b9150618921826188e0565b601182019050919050565b6000618937826188bd565b915061894382856175f7565b915061894e82618909565b915061895a82846175f7565b91508190509392505050565b7f455243313936373a206e657720696d706c656d656e746174696f6e206973206e60008201527f6f74206120636f6e747261637400000000000000000000000000000000000000602082015250565b60006189c2602d836160a8565b91506189cd82618966565b604082019050919050565b600060208201905081810360008301526189f1816189b5565b9050919050565b6000606082019050618a0d6000830186616317565b618a1a6020830185616317565b618a276040830184616073565b949350505050565b7f457865637574653a207472616e73666572206661696c65732120000000000000600082015250565b6000618a65601a836160a8565b9150618a7082618a2f565b602082019050919050565b60006020820190508181036000830152618a9481618a58565b9050919050565b6000618aa682616069565b91507fffffffffffffffffffffffffffffffffffffffffffffffffffffffffffffffff8203618ad857618ad7616c00565b5b600182019050919050565b7f457865637574653a20667265657a65206163636f756e74206661696c65640000600082015250565b6000618b19601e836160a8565b9150618b2482618ae3565b602082019050919050565b60006020820190508181036000830152618b4881618b0c565b9050919050565b7f457865637574653a20556e667265657a65206163636f756e74206661696c6564600082015250565b6000618b856020836160a8565b9150618b9082618b4f565b602082019050919050565b60006020820190508181036000830152618bb481618b78565b9050919050565b60008190508160005260206000209050919050565b60008154618bdd81616b06565b618be781866175ec565b94506001821660008114618c025760018114618c1357618c46565b60ff19831686528186019350618c46565b618c1c85618bbb565b60005b83811015618c3e57815481890152600182019150602081019050618c1f565b838801955050505b50505092915050565b6000618c5b8284618bd0565b915081905092915050565b600060a082019050618c7b60008301886163a4565b618c8860208301876163a4565b618c9560408301866163a4565b618ca26060830185616073565b618caf6080830184616317565b9695505050505050565b7f1901000000000000000000000000000000000000000000000000000000000000600082015250565b6000618cef6002836175ec565b9150618cfa82618cb9565b600282019050919050565b6000819050919050565b618d20618d1b82616341565b618d05565b82525050565b6000618d3182618ce2565b9150618d3d8285618d0f565b602082019150618d4d8284618d0f565b6020820191508190509392505050565b6000608082019050618d7260008301876163a4565b618d7f6020830186616b44565b618d8c60408301856163a4565b618d9960608301846163a4565b95945050505050565b6000618dad82616069565b9150618db883616069565b9250827fffffffffffffffffffffffffffffffffffffffffffffffffffffffffffffffff03821115618ded57618dec616c00565b5b828201905092915050565b7f4e487b7100000000000000000000000000000000000000000000000000000000600052603260045260246000fd5b6000618e3282616069565b915060008203618e4557618e44616c00565b5b600182039050919050565b7f537472696e67733a20686578206c656e67746820696e73756666696369656e74600082015250565b6000618e866020836160a8565b9150618e9182618e50565b602082019050919050565b60006020820190508181036000830152618eb581618e79565b9050919050565b7f416464726573733a2064656c65676174652063616c6c20746f206e6f6e2d636f60008201527f6e74726163740000000000000000000000000000000000000000000000000000602082015250565b6000618f186026836160a8565b9150618f2382618ebc565b604082019050919050565b60006020820190508181036000830152618f4781618f0b565b9050919050565b60006080820190508181036000830152618f6881876160fd565b9050618f776020830186616317565b618f846040830185616317565b618f916060830184616073565b95945050505050565b60006060820190508181036000830152618fb481866160fd565b9050618fc36020830185616073565b618fd06040830184616073565b949350505050565b60006040820190508181036000830152618ff281856160fd565b90506190016020830184616317565b939250505056fe6578697374207472616e7366657220253520636f6d6d697373696f6e202e202e202e20416464726573733a206c6f772d6c6576656c2064656c65676174652063616c6c206661696c6564726573657276656420616464726573733a2025732c20726563656976657220616464726573733a2025732c20616d6f756e743a2025736578697374207472616e7366657220746f6b656e4f6666736572202e202e202e206578697374207472616e736665722025312070726f706f736572202e202e202e20a2646970667358221220c61c6dd8cdd5610e0c21112bc4370e82c6c8046dabc3db7b5ad94a58e31a8e9d64736f6c634300080e0033",
  "linkReferences": {},
  "deployedLinkReferences": {},
  "devdoc": {
    "kind": "dev",
    "methods": {
      "cancel(bytes32,string)": {
        "details": "Cancel a proposal. Cancels a proposal only if sender is the proposer. We need to decide to conditions of consensus cancelation Emits a {ProposalCanceled} event."
      },
      "castVote(string,bytes32,uint8)": {
        "details": "Cast a vote Emits a {VoteCast} event."
      },
      "castVoteAdmin(bytes32)": {
        "details": "Cast a vote Emits a {VoteCast} event."
      },
      "disableValidator(address)": {
        "details": "disableValidator\""
      },
      "execute(bytes32)": {
        "details": "Execute a successful proposal. This requires the quorum to be reached, the vote to be successful, and the deadline to be reached. Emits a {ProposalExecuted} event."
      },
      "getRoleAdmin(bytes32)": {
        "details": "Returns the admin role that controls `role`. See {grantRole} and {revokeRole}. To change a role's admin, use {_setRoleAdmin}."
      },
      "grantRole(bytes32,address)": {
        "details": "Grants `role` to `account`. If `account` had not been already granted `role`, emits a {RoleGranted} event. Requirements: - the caller must have ``role``'s admin role."
      },
      "hasRole(bytes32,address)": {
        "details": "Returns `true` if `account` has been granted `role`."
      },
      "hasVoted(bytes32,address)": {
        "details": "Returns weither `account` has cast a vote on `proposalId`."
      },
      "hashProposal(bytes32,bytes32,address,uint8,uint8,bytes)": {
        "details": "Hashing function used to (re)build the proposal id from the proposal ..."
      },
      "isStartup(address)": {
        "details": "isStartup"
      },
      "isValidator(address)": {
        "details": "isValidator"
      },
      "name()": {
        "details": "Name of the governor instance (used in building the ERC712 domain separator)."
      },
      "proxiableUUID()": {
        "details": "Implementation of the ERC1822 {proxiableUUID} function. This returns the storage slot used by the implementation. It is used to validate that the this implementation remains valid after an upgrade. IMPORTANT: A proxy pointing at a proxiable contract should not be considered proxiable itself, because this risks bricking a proxy that upgrades to it, by delegating to itself until out of gas. Thus it is critical that this function revert if invoked through a proxy. This is guaranteed by the `notDelegated` modifier."
      },
      "renounceRole(bytes32,address)": {
        "details": "Revokes `role` from the calling account. Roles are often managed via {grantRole} and {revokeRole}: this function's purpose is to provide a mechanism for accounts to lose their privileges if they are compromised (such as when a trusted device is misplaced). If the calling account had been revoked `role`, emits a {RoleRevoked} event. Requirements: - the caller must be `account`."
      },
      "revokeRole(bytes32,address)": {
        "details": "Revokes `role` from `account`. If `account` had been granted `role`, emits a {RoleRevoked} event. Requirements: - the caller must have ``role``'s admin role."
      },
      "state(bytes32)": {
        "details": "See {IGovernor-state}. need to change the state machine"
      },
      "supportsInterface(bytes4)": {
        "details": "See {IERC165-supportsInterface}."
      },
      "upgradeTo(address)": {
        "details": "Upgrade the implementation of the proxy to `newImplementation`. Calls {_authorizeUpgrade}. Emits an {Upgraded} event."
      },
      "upgradeToAndCall(address,bytes)": {
        "details": "Upgrade the implementation of the proxy to `newImplementation`, and subsequently execute the function call encoded in `data`. Calls {_authorizeUpgrade}. Emits an {Upgraded} event."
      },
      "version()": {
        "details": "Version of the governor instance (used in building the ERC712 domain separator). Default: \"1\""
      }
    },
    "version": 1
  },
  "evm": {
    "bytecode": {
      "linkReferences": {},
      "opcodes": "PUSH1 0xA0 PUSH1 0x40 MSTORE ADDRESS PUSH20 0xFFFFFFFFFFFFFFFFFFFFFFFFFFFFFFFFFFFFFFFF AND PUSH1 0x80 SWAP1 PUSH20 0xFFFFFFFFFFFFFFFFFFFFFFFFFFFFFFFFFFFFFFFF AND DUP2 MSTORE POP CALLVALUE DUP1 ISZERO PUSH3 0x44 JUMPI PUSH1 0x0 DUP1 REVERT JUMPDEST POP PUSH1 0x80 MLOAD PUSH2 0x9100 PUSH3 0x7D PUSH1 0x0 CODECOPY PUSH1 0x0 DUP2 DUP2 PUSH2 0xFA3 ADD MSTORE DUP2 DUP2 PUSH2 0x1031 ADD MSTORE DUP2 DUP2 PUSH2 0x1145 ADD MSTORE DUP2 DUP2 PUSH2 0x11D3 ADD MSTORE PUSH2 0x1283 ADD MSTORE PUSH2 0x9100 PUSH1 0x0 RETURN INVALID PUSH1 0x80 PUSH1 0x40 MSTORE PUSH1 0x4 CALLDATASIZE LT PUSH2 0x25C JUMPI PUSH1 0x0 CALLDATALOAD PUSH1 0xE0 SHR DUP1 PUSH4 0x70B0F660 GT PUSH2 0x144 JUMPI DUP1 PUSH4 0xBE5967EA GT PUSH2 0xB6 JUMPI DUP1 PUSH4 0xE751F271 GT PUSH2 0x7A JUMPI DUP1 PUSH4 0xE751F271 EQ PUSH2 0x92D JUMPI DUP1 PUSH4 0xEA0217CF EQ PUSH2 0x95D JUMPI DUP1 PUSH4 0xF8C662FF EQ PUSH2 0x986 JUMPI DUP1 PUSH4 0xFA2DABAD EQ PUSH2 0x9B1 JUMPI DUP1 PUSH4 0xFACD743B EQ PUSH2 0x9DC JUMPI DUP1 PUSH4 0xFF666653 EQ PUSH2 0xA19 JUMPI PUSH2 0x25C JUMP JUMPDEST DUP1 PUSH4 0xBE5967EA EQ PUSH2 0x846 JUMPI DUP1 PUSH4 0xC0E6D5D6 EQ PUSH2 0x883 JUMPI DUP1 PUSH4 0xC22AB4E0 EQ PUSH2 0x8AE JUMPI DUP1 PUSH4 0xD547741F EQ PUSH2 0x8D9 JUMPI DUP1 PUSH4 0xE0310E52 EQ PUSH2 0x902 JUMPI PUSH2 0x25C JUMP JUMPDEST DUP1 PUSH4 0x97C0262A GT PUSH2 0x108 JUMPI DUP1 PUSH4 0x97C0262A EQ PUSH2 0x70E JUMPI DUP1 PUSH4 0xA217FDDF EQ PUSH2 0x739 JUMPI DUP1 PUSH4 0xA5D79624 EQ PUSH2 0x764 JUMPI DUP1 PUSH4 0xAADC3B72 EQ PUSH2 0x7A1 JUMPI DUP1 PUSH4 0xAFDF6710 EQ PUSH2 0x7DE JUMPI DUP1 PUSH4 0xB7D6FE24 EQ PUSH2 0x809 JUMPI PUSH2 0x25C JUMP JUMPDEST DUP1 PUSH4 0x70B0F660 EQ PUSH2 0x629 JUMPI DUP1 PUSH4 0x75B238FC EQ PUSH2 0x652 JUMPI DUP1 PUSH4 0x7DC0D1D0 EQ PUSH2 0x67D JUMPI DUP1 PUSH4 0x7F1E250C EQ PUSH2 0x6A8 JUMPI DUP1 PUSH4 0x91D14854 EQ PUSH2 0x6D1 JUMPI PUSH2 0x25C JUMP JUMPDEST DUP1 PUSH4 0x30D9B773 GT PUSH2 0x1DD JUMPI DUP1 PUSH4 0x41863ED6 GT PUSH2 0x1A1 JUMPI DUP1 PUSH4 0x41863ED6 EQ PUSH2 0x512 JUMPI DUP1 PUSH4 0x4F1EF286 EQ PUSH2 0x53D JUMPI DUP1 PUSH4 0x52D1902D EQ PUSH2 0x559 JUMPI DUP1 PUSH4 0x54FD4D50 EQ PUSH2 0x584 JUMPI DUP1 PUSH4 0x5AE766F3 EQ PUSH2 0x5AF JUMPI DUP1 PUSH4 0x61D585DA EQ PUSH2 0x5EC JUMPI PUSH2 0x25C JUMP JUMPDEST DUP1 PUSH4 0x30D9B773 EQ PUSH2 0x42D JUMPI DUP1 PUSH4 0x33F3533B EQ PUSH2 0x46A JUMPI DUP1 PUSH4 0x36568ABE EQ PUSH2 0x495 JUMPI DUP1 PUSH4 0x3659CFE6 EQ PUSH2 0x4BE JUMPI DUP1 PUSH4 0x3932ABB1 EQ PUSH2 0x4E7 JUMPI PUSH2 0x25C JUMP JUMPDEST DUP1 PUSH4 0x1FE97684 GT PUSH2 0x224 JUMPI DUP1 PUSH4 0x1FE97684 EQ PUSH2 0x348 JUMPI DUP1 PUSH4 0x211DC1A7 EQ PUSH2 0x371 JUMPI DUP1 PUSH4 0x248A9CA3 EQ PUSH2 0x39C JUMPI DUP1 PUSH4 0x25CE7586 EQ PUSH2 0x3D9 JUMPI DUP1 PUSH4 0x2F2FF15D EQ PUSH2 0x404 JUMPI PUSH2 0x25C JUMP JUMPDEST DUP1 PUSH4 0x1FFC9A7 EQ PUSH2 0x261 JUMPI DUP1 PUSH4 0x2A251A3 EQ PUSH2 0x29E JUMPI DUP1 PUSH4 0x6FDDE03 EQ PUSH2 0x2C9 JUMPI DUP1 PUSH4 0x77F224A EQ PUSH2 0x2F4 JUMPI DUP1 PUSH4 0xF43A677 EQ PUSH2 0x31D JUMPI JUMPDEST PUSH1 0x0 DUP1 REVERT JUMPDEST CALLVALUE DUP1 ISZERO PUSH2 0x26D JUMPI PUSH1 0x0 DUP1 REVERT JUMPDEST POP PUSH2 0x288 PUSH1 0x4 DUP1 CALLDATASIZE SUB DUP2 ADD SWAP1 PUSH2 0x283 SWAP2 SWAP1 PUSH2 0x6006 JUMP JUMPDEST PUSH2 0xA56 JUMP JUMPDEST PUSH1 0x40 MLOAD PUSH2 0x295 SWAP2 SWAP1 PUSH2 0x604E JUMP JUMPDEST PUSH1 0x40 MLOAD DUP1 SWAP2 SUB SWAP1 RETURN JUMPDEST CALLVALUE DUP1 ISZERO PUSH2 0x2AA JUMPI PUSH1 0x0 DUP1 REVERT JUMPDEST POP PUSH2 0x2B3 PUSH2 0xAD0 JUMP JUMPDEST PUSH1 0x40 MLOAD PUSH2 0x2C0 SWAP2 SWAP1 PUSH2 0x6082 JUMP JUMPDEST PUSH1 0x40 MLOAD DUP1 SWAP2 SUB SWAP1 RETURN JUMPDEST CALLVALUE DUP1 ISZERO PUSH2 0x2D5 JUMPI PUSH1 0x0 DUP1 REVERT JUMPDEST POP PUSH2 0x2DE PUSH2 0xAD6 JUMP JUMPDEST PUSH1 0x40 MLOAD PUSH2 0x2EB SWAP2 SWAP1 PUSH2 0x6136 JUMP JUMPDEST PUSH1 0x40 MLOAD DUP1 SWAP2 SUB SWAP1 RETURN JUMPDEST CALLVALUE DUP1 ISZERO PUSH2 0x300 JUMPI PUSH1 0x0 DUP1 REVERT JUMPDEST POP PUSH2 0x31B PUSH1 0x4 DUP1 CALLDATASIZE SUB DUP2 ADD SWAP1 PUSH2 0x316 SWAP2 SWAP1 PUSH2 0x621B JUMP JUMPDEST PUSH2 0xB69 JUMP JUMPDEST STOP JUMPDEST CALLVALUE DUP1 ISZERO PUSH2 0x329 JUMPI PUSH1 0x0 DUP1 REVERT JUMPDEST POP PUSH2 0x332 PUSH2 0xC63 JUMP JUMPDEST PUSH1 0x40 MLOAD PUSH2 0x33F SWAP2 SWAP1 PUSH2 0x62CF JUMP JUMPDEST PUSH1 0x40 MLOAD DUP1 SWAP2 SUB SWAP1 RETURN JUMPDEST CALLVALUE DUP1 ISZERO PUSH2 0x354 JUMPI PUSH1 0x0 DUP1 REVERT JUMPDEST POP PUSH2 0x36F PUSH1 0x4 DUP1 CALLDATASIZE SUB DUP2 ADD SWAP1 PUSH2 0x36A SWAP2 SWAP1 PUSH2 0x62EA JUMP JUMPDEST PUSH2 0xC7A JUMP JUMPDEST STOP JUMPDEST CALLVALUE DUP1 ISZERO PUSH2 0x37D JUMPI PUSH1 0x0 DUP1 REVERT JUMPDEST POP PUSH2 0x386 PUSH2 0xE5A JUMP JUMPDEST PUSH1 0x40 MLOAD PUSH2 0x393 SWAP2 SWAP1 PUSH2 0x6326 JUMP JUMPDEST PUSH1 0x40 MLOAD DUP1 SWAP2 SUB SWAP1 RETURN JUMPDEST CALLVALUE DUP1 ISZERO PUSH2 0x3A8 JUMPI PUSH1 0x0 DUP1 REVERT JUMPDEST POP PUSH2 0x3C3 PUSH1 0x4 DUP1 CALLDATASIZE SUB DUP2 ADD SWAP1 PUSH2 0x3BE SWAP2 SWAP1 PUSH2 0x6377 JUMP JUMPDEST PUSH2 0xE81 JUMP JUMPDEST PUSH1 0x40 MLOAD PUSH2 0x3D0 SWAP2 SWAP1 PUSH2 0x63B3 JUMP JUMPDEST PUSH1 0x40 MLOAD DUP1 SWAP2 SUB SWAP1 RETURN JUMPDEST CALLVALUE DUP1 ISZERO PUSH2 0x3E5 JUMPI PUSH1 0x0 DUP1 REVERT JUMPDEST POP PUSH2 0x3EE PUSH2 0xEA1 JUMP JUMPDEST PUSH1 0x40 MLOAD PUSH2 0x3FB SWAP2 SWAP1 PUSH2 0x62CF JUMP JUMPDEST PUSH1 0x40 MLOAD DUP1 SWAP2 SUB SWAP1 RETURN JUMPDEST CALLVALUE DUP1 ISZERO PUSH2 0x410 JUMPI PUSH1 0x0 DUP1 REVERT JUMPDEST POP PUSH2 0x42B PUSH1 0x4 DUP1 CALLDATASIZE SUB DUP2 ADD SWAP1 PUSH2 0x426 SWAP2 SWAP1 PUSH2 0x63CE JUMP JUMPDEST PUSH2 0xEB8 JUMP JUMPDEST STOP JUMPDEST CALLVALUE DUP1 ISZERO PUSH2 0x439 JUMPI PUSH1 0x0 DUP1 REVERT JUMPDEST POP PUSH2 0x454 PUSH1 0x4 DUP1 CALLDATASIZE SUB DUP2 ADD SWAP1 PUSH2 0x44F SWAP2 SWAP1 PUSH2 0x6377 JUMP JUMPDEST PUSH2 0xED9 JUMP JUMPDEST PUSH1 0x40 MLOAD PUSH2 0x461 SWAP2 SWAP1 PUSH2 0x604E JUMP JUMPDEST PUSH1 0x40 MLOAD DUP1 SWAP2 SUB SWAP1 RETURN JUMPDEST CALLVALUE DUP1 ISZERO PUSH2 0x476 JUMPI PUSH1 0x0 DUP1 REVERT JUMPDEST POP PUSH2 0x47F PUSH2 0xF0A JUMP JUMPDEST PUSH1 0x40 MLOAD PUSH2 0x48C SWAP2 SWAP1 PUSH2 0x604E JUMP JUMPDEST PUSH1 0x40 MLOAD DUP1 SWAP2 SUB SWAP1 RETURN JUMPDEST CALLVALUE DUP1 ISZERO PUSH2 0x4A1 JUMPI PUSH1 0x0 DUP1 REVERT JUMPDEST POP PUSH2 0x4BC PUSH1 0x4 DUP1 CALLDATASIZE SUB DUP2 ADD SWAP1 PUSH2 0x4B7 SWAP2 SWAP1 PUSH2 0x63CE JUMP JUMPDEST PUSH2 0xF1E JUMP JUMPDEST STOP JUMPDEST CALLVALUE DUP1 ISZERO PUSH2 0x4CA JUMPI PUSH1 0x0 DUP1 REVERT JUMPDEST POP PUSH2 0x4E5 PUSH1 0x4 DUP1 CALLDATASIZE SUB DUP2 ADD SWAP1 PUSH2 0x4E0 SWAP2 SWAP1 PUSH2 0x62EA JUMP JUMPDEST PUSH2 0xFA1 JUMP JUMPDEST STOP JUMPDEST CALLVALUE DUP1 ISZERO PUSH2 0x4F3 JUMPI PUSH1 0x0 DUP1 REVERT JUMPDEST POP PUSH2 0x4FC PUSH2 0x1129 JUMP JUMPDEST PUSH1 0x40 MLOAD PUSH2 0x509 SWAP2 SWAP1 PUSH2 0x6082 JUMP JUMPDEST PUSH1 0x40 MLOAD DUP1 SWAP2 SUB SWAP1 RETURN JUMPDEST CALLVALUE DUP1 ISZERO PUSH2 0x51E JUMPI PUSH1 0x0 DUP1 REVERT JUMPDEST POP PUSH2 0x527 PUSH2 0x112F JUMP JUMPDEST PUSH1 0x40 MLOAD PUSH2 0x534 SWAP2 SWAP1 PUSH2 0x604E JUMP JUMPDEST PUSH1 0x40 MLOAD DUP1 SWAP2 SUB SWAP1 RETURN JUMPDEST PUSH2 0x557 PUSH1 0x4 DUP1 CALLDATASIZE SUB DUP2 ADD SWAP1 PUSH2 0x552 SWAP2 SWAP1 PUSH2 0x653E JUMP JUMPDEST PUSH2 0x1143 JUMP JUMPDEST STOP JUMPDEST CALLVALUE DUP1 ISZERO PUSH2 0x565 JUMPI PUSH1 0x0 DUP1 REVERT JUMPDEST POP PUSH2 0x56E PUSH2 0x127F JUMP JUMPDEST PUSH1 0x40 MLOAD PUSH2 0x57B SWAP2 SWAP1 PUSH2 0x63B3 JUMP JUMPDEST PUSH1 0x40 MLOAD DUP1 SWAP2 SUB SWAP1 RETURN JUMPDEST CALLVALUE DUP1 ISZERO PUSH2 0x590 JUMPI PUSH1 0x0 DUP1 REVERT JUMPDEST POP PUSH2 0x599 PUSH2 0x1338 JUMP JUMPDEST PUSH1 0x40 MLOAD PUSH2 0x5A6 SWAP2 SWAP1 PUSH2 0x6136 JUMP JUMPDEST PUSH1 0x40 MLOAD DUP1 SWAP2 SUB SWAP1 RETURN JUMPDEST CALLVALUE DUP1 ISZERO PUSH2 0x5BB JUMPI PUSH1 0x0 DUP1 REVERT JUMPDEST POP PUSH2 0x5D6 PUSH1 0x4 DUP1 CALLDATASIZE SUB DUP2 ADD SWAP1 PUSH2 0x5D1 SWAP2 SWAP1 PUSH2 0x62EA JUMP JUMPDEST PUSH2 0x13CB JUMP JUMPDEST PUSH1 0x40 MLOAD PUSH2 0x5E3 SWAP2 SWAP1 PUSH2 0x604E JUMP JUMPDEST PUSH1 0x40 MLOAD DUP1 SWAP2 SUB SWAP1 RETURN JUMPDEST CALLVALUE DUP1 ISZERO PUSH2 0x5F8 JUMPI PUSH1 0x0 DUP1 REVERT JUMPDEST POP PUSH2 0x613 PUSH1 0x4 DUP1 CALLDATASIZE SUB DUP2 ADD SWAP1 PUSH2 0x60E SWAP2 SWAP1 PUSH2 0x6377 JUMP JUMPDEST PUSH2 0x14A2 JUMP JUMPDEST PUSH1 0x40 MLOAD PUSH2 0x620 SWAP2 SWAP1 PUSH2 0x6611 JUMP JUMPDEST PUSH1 0x40 MLOAD DUP1 SWAP2 SUB SWAP1 RETURN JUMPDEST CALLVALUE DUP1 ISZERO PUSH2 0x635 JUMPI PUSH1 0x0 DUP1 REVERT JUMPDEST POP PUSH2 0x650 PUSH1 0x4 DUP1 CALLDATASIZE SUB DUP2 ADD SWAP1 PUSH2 0x64B SWAP2 SWAP1 PUSH2 0x6658 JUMP JUMPDEST PUSH2 0x168F JUMP JUMPDEST STOP JUMPDEST CALLVALUE DUP1 ISZERO PUSH2 0x65E JUMPI PUSH1 0x0 DUP1 REVERT JUMPDEST POP PUSH2 0x667 PUSH2 0x16C4 JUMP JUMPDEST PUSH1 0x40 MLOAD PUSH2 0x674 SWAP2 SWAP1 PUSH2 0x63B3 JUMP JUMPDEST PUSH1 0x40 MLOAD DUP1 SWAP2 SUB SWAP1 RETURN JUMPDEST CALLVALUE DUP1 ISZERO PUSH2 0x689 JUMPI PUSH1 0x0 DUP1 REVERT JUMPDEST POP PUSH2 0x692 PUSH2 0x16E8 JUMP JUMPDEST PUSH1 0x40 MLOAD PUSH2 0x69F SWAP2 SWAP1 PUSH2 0x6326 JUMP JUMPDEST PUSH1 0x40 MLOAD DUP1 SWAP2 SUB SWAP1 RETURN JUMPDEST CALLVALUE DUP1 ISZERO PUSH2 0x6B4 JUMPI PUSH1 0x0 DUP1 REVERT JUMPDEST POP PUSH2 0x6CF PUSH1 0x4 DUP1 CALLDATASIZE SUB DUP2 ADD SWAP1 PUSH2 0x6CA SWAP2 SWAP1 PUSH2 0x66B1 JUMP JUMPDEST PUSH2 0x170F JUMP JUMPDEST STOP JUMPDEST CALLVALUE DUP1 ISZERO PUSH2 0x6DD JUMPI PUSH1 0x0 DUP1 REVERT JUMPDEST POP PUSH2 0x6F8 PUSH1 0x4 DUP1 CALLDATASIZE SUB DUP2 ADD SWAP1 PUSH2 0x6F3 SWAP2 SWAP1 PUSH2 0x63CE JUMP JUMPDEST PUSH2 0x1758 JUMP JUMPDEST PUSH1 0x40 MLOAD PUSH2 0x705 SWAP2 SWAP1 PUSH2 0x604E JUMP JUMPDEST PUSH1 0x40 MLOAD DUP1 SWAP2 SUB SWAP1 RETURN JUMPDEST CALLVALUE DUP1 ISZERO PUSH2 0x71A JUMPI PUSH1 0x0 DUP1 REVERT JUMPDEST POP PUSH2 0x723 PUSH2 0x17C3 JUMP JUMPDEST PUSH1 0x40 MLOAD PUSH2 0x730 SWAP2 SWAP1 PUSH2 0x6326 JUMP JUMPDEST PUSH1 0x40 MLOAD DUP1 SWAP2 SUB SWAP1 RETURN JUMPDEST CALLVALUE DUP1 ISZERO PUSH2 0x745 JUMPI PUSH1 0x0 DUP1 REVERT JUMPDEST POP PUSH2 0x74E PUSH2 0x17EA JUMP JUMPDEST PUSH1 0x40 MLOAD PUSH2 0x75B SWAP2 SWAP1 PUSH2 0x63B3 JUMP JUMPDEST PUSH1 0x40 MLOAD DUP1 SWAP2 SUB SWAP1 RETURN JUMPDEST CALLVALUE DUP1 ISZERO PUSH2 0x770 JUMPI PUSH1 0x0 DUP1 REVERT JUMPDEST POP PUSH2 0x78B PUSH1 0x4 DUP1 CALLDATASIZE SUB DUP2 ADD SWAP1 PUSH2 0x786 SWAP2 SWAP1 PUSH2 0x6703 JUMP JUMPDEST PUSH2 0x17F1 JUMP JUMPDEST PUSH1 0x40 MLOAD PUSH2 0x798 SWAP2 SWAP1 PUSH2 0x604E JUMP JUMPDEST PUSH1 0x40 MLOAD DUP1 SWAP2 SUB SWAP1 RETURN JUMPDEST CALLVALUE DUP1 ISZERO PUSH2 0x7AD JUMPI PUSH1 0x0 DUP1 REVERT JUMPDEST POP PUSH2 0x7C8 PUSH1 0x4 DUP1 CALLDATASIZE SUB DUP2 ADD SWAP1 PUSH2 0x7C3 SWAP2 SWAP1 PUSH2 0x63CE JUMP JUMPDEST PUSH2 0x1977 JUMP JUMPDEST PUSH1 0x40 MLOAD PUSH2 0x7D5 SWAP2 SWAP1 PUSH2 0x604E JUMP JUMPDEST PUSH1 0x40 MLOAD DUP1 SWAP2 SUB SWAP1 RETURN JUMPDEST CALLVALUE DUP1 ISZERO PUSH2 0x7EA JUMPI PUSH1 0x0 DUP1 REVERT JUMPDEST POP PUSH2 0x7F3 PUSH2 0x19A9 JUMP JUMPDEST PUSH1 0x40 MLOAD PUSH2 0x800 SWAP2 SWAP1 PUSH2 0x6786 JUMP JUMPDEST PUSH1 0x40 MLOAD DUP1 SWAP2 SUB SWAP1 RETURN JUMPDEST CALLVALUE DUP1 ISZERO PUSH2 0x815 JUMPI PUSH1 0x0 DUP1 REVERT JUMPDEST POP PUSH2 0x830 PUSH1 0x4 DUP1 CALLDATASIZE SUB DUP2 ADD SWAP1 PUSH2 0x82B SWAP2 SWAP1 PUSH2 0x6842 JUMP JUMPDEST PUSH2 0x19CD JUMP JUMPDEST PUSH1 0x40 MLOAD PUSH2 0x83D SWAP2 SWAP1 PUSH2 0x604E JUMP JUMPDEST PUSH1 0x40 MLOAD DUP1 SWAP2 SUB SWAP1 RETURN JUMPDEST CALLVALUE DUP1 ISZERO PUSH2 0x852 JUMPI PUSH1 0x0 DUP1 REVERT JUMPDEST POP PUSH2 0x86D PUSH1 0x4 DUP1 CALLDATASIZE SUB DUP2 ADD SWAP1 PUSH2 0x868 SWAP2 SWAP1 PUSH2 0x68E8 JUMP JUMPDEST PUSH2 0x1BF1 JUMP JUMPDEST PUSH1 0x40 MLOAD PUSH2 0x87A SWAP2 SWAP1 PUSH2 0x63B3 JUMP JUMPDEST PUSH1 0x40 MLOAD DUP1 SWAP2 SUB SWAP1 RETURN JUMPDEST CALLVALUE DUP1 ISZERO PUSH2 0x88F JUMPI PUSH1 0x0 DUP1 REVERT JUMPDEST POP PUSH2 0x898 PUSH2 0x1C30 JUMP JUMPDEST PUSH1 0x40 MLOAD PUSH2 0x8A5 SWAP2 SWAP1 PUSH2 0x6786 JUMP JUMPDEST PUSH1 0x40 MLOAD DUP1 SWAP2 SUB SWAP1 RETURN JUMPDEST CALLVALUE DUP1 ISZERO PUSH2 0x8BA JUMPI PUSH1 0x0 DUP1 REVERT JUMPDEST POP PUSH2 0x8C3 PUSH2 0x1C54 JUMP JUMPDEST PUSH1 0x40 MLOAD PUSH2 0x8D0 SWAP2 SWAP1 PUSH2 0x6326 JUMP JUMPDEST PUSH1 0x40 MLOAD DUP1 SWAP2 SUB SWAP1 RETURN JUMPDEST CALLVALUE DUP1 ISZERO PUSH2 0x8E5 JUMPI PUSH1 0x0 DUP1 REVERT JUMPDEST POP PUSH2 0x900 PUSH1 0x4 DUP1 CALLDATASIZE SUB DUP2 ADD SWAP1 PUSH2 0x8FB SWAP2 SWAP1 PUSH2 0x63CE JUMP JUMPDEST PUSH2 0x1C7B JUMP JUMPDEST STOP JUMPDEST CALLVALUE DUP1 ISZERO PUSH2 0x90E JUMPI PUSH1 0x0 DUP1 REVERT JUMPDEST POP PUSH2 0x917 PUSH2 0x1C9C JUMP JUMPDEST PUSH1 0x40 MLOAD PUSH2 0x924 SWAP2 SWAP1 PUSH2 0x6786 JUMP JUMPDEST PUSH1 0x40 MLOAD DUP1 SWAP2 SUB SWAP1 RETURN JUMPDEST PUSH2 0x947 PUSH1 0x4 DUP1 CALLDATASIZE SUB DUP2 ADD SWAP1 PUSH2 0x942 SWAP2 SWAP1 PUSH2 0x6377 JUMP JUMPDEST PUSH2 0x1CC0 JUMP JUMPDEST PUSH1 0x40 MLOAD PUSH2 0x954 SWAP2 SWAP1 PUSH2 0x604E JUMP JUMPDEST PUSH1 0x40 MLOAD DUP1 SWAP2 SUB SWAP1 RETURN JUMPDEST CALLVALUE DUP1 ISZERO PUSH2 0x969 JUMPI PUSH1 0x0 DUP1 REVERT JUMPDEST POP PUSH2 0x984 PUSH1 0x4 DUP1 CALLDATASIZE SUB DUP2 ADD SWAP1 PUSH2 0x97F SWAP2 SWAP1 PUSH2 0x6658 JUMP JUMPDEST PUSH2 0x1DE5 JUMP JUMPDEST STOP JUMPDEST CALLVALUE DUP1 ISZERO PUSH2 0x992 JUMPI PUSH1 0x0 DUP1 REVERT JUMPDEST POP PUSH2 0x99B PUSH2 0x1E1A JUMP JUMPDEST PUSH1 0x40 MLOAD PUSH2 0x9A8 SWAP2 SWAP1 PUSH2 0x6326 JUMP JUMPDEST PUSH1 0x40 MLOAD DUP1 SWAP2 SUB SWAP1 RETURN JUMPDEST CALLVALUE DUP1 ISZERO PUSH2 0x9BD JUMPI PUSH1 0x0 DUP1 REVERT JUMPDEST POP PUSH2 0x9C6 PUSH2 0x1E41 JUMP JUMPDEST PUSH1 0x40 MLOAD PUSH2 0x9D3 SWAP2 SWAP1 PUSH2 0x63B3 JUMP JUMPDEST PUSH1 0x40 MLOAD DUP1 SWAP2 SUB SWAP1 RETURN JUMPDEST CALLVALUE DUP1 ISZERO PUSH2 0x9E8 JUMPI PUSH1 0x0 DUP1 REVERT JUMPDEST POP PUSH2 0xA03 PUSH1 0x4 DUP1 CALLDATASIZE SUB DUP2 ADD SWAP1 PUSH2 0x9FE SWAP2 SWAP1 PUSH2 0x62EA JUMP JUMPDEST PUSH2 0x1E65 JUMP JUMPDEST PUSH1 0x40 MLOAD PUSH2 0xA10 SWAP2 SWAP1 PUSH2 0x604E JUMP JUMPDEST PUSH1 0x40 MLOAD DUP1 SWAP2 SUB SWAP1 RETURN JUMPDEST CALLVALUE DUP1 ISZERO PUSH2 0xA25 JUMPI PUSH1 0x0 DUP1 REVERT JUMPDEST POP PUSH2 0xA40 PUSH1 0x4 DUP1 CALLDATASIZE SUB DUP2 ADD SWAP1 PUSH2 0xA3B SWAP2 SWAP1 PUSH2 0x6A5F JUMP JUMPDEST PUSH2 0x1F3D JUMP JUMPDEST PUSH1 0x40 MLOAD PUSH2 0xA4D SWAP2 SWAP1 PUSH2 0x63B3 JUMP JUMPDEST PUSH1 0x40 MLOAD DUP1 SWAP2 SUB SWAP1 RETURN JUMPDEST PUSH1 0x0 PUSH32 0x7965DB0B00000000000000000000000000000000000000000000000000000000 PUSH28 0xFFFFFFFFFFFFFFFFFFFFFFFFFFFFFFFFFFFFFFFFFFFFFFFFFFFFFFFF NOT AND DUP3 PUSH28 0xFFFFFFFFFFFFFFFFFFFFFFFFFFFFFFFFFFFFFFFFFFFFFFFFFFFFFFFF NOT AND EQ DUP1 PUSH2 0xAC9 JUMPI POP PUSH2 0xAC8 DUP3 PUSH2 0x2677 JUMP JUMPDEST JUMPDEST SWAP1 POP SWAP2 SWAP1 POP JUMP JUMPDEST PUSH1 0xFF SLOAD DUP2 JUMP JUMPDEST PUSH1 0x60 PUSH2 0x103 DUP1 SLOAD PUSH2 0xAE6 SWAP1 PUSH2 0x6B06 JUMP JUMPDEST DUP1 PUSH1 0x1F ADD PUSH1 0x20 DUP1 SWAP2 DIV MUL PUSH1 0x20 ADD PUSH1 0x40 MLOAD SWAP1 DUP2 ADD PUSH1 0x40 MSTORE DUP1 SWAP3 SWAP2 SWAP1 DUP2 DUP2 MSTORE PUSH1 0x20 ADD DUP3 DUP1 SLOAD PUSH2 0xB12 SWAP1 PUSH2 0x6B06 JUMP JUMPDEST DUP1 ISZERO PUSH2 0xB5F JUMPI DUP1 PUSH1 0x1F LT PUSH2 0xB34 JUMPI PUSH2 0x100 DUP1 DUP4 SLOAD DIV MUL DUP4 MSTORE SWAP2 PUSH1 0x20 ADD SWAP2 PUSH2 0xB5F JUMP JUMPDEST DUP3 ADD SWAP2 SWAP1 PUSH1 0x0 MSTORE PUSH1 0x20 PUSH1 0x0 KECCAK256 SWAP1 JUMPDEST DUP2 SLOAD DUP2 MSTORE SWAP1 PUSH1 0x1 ADD SWAP1 PUSH1 0x20 ADD DUP1 DUP4 GT PUSH2 0xB42 JUMPI DUP3 SWAP1 SUB PUSH1 0x1F AND DUP3 ADD SWAP2 JUMPDEST POP POP POP POP POP SWAP1 POP SWAP1 JUMP JUMPDEST PUSH1 0x2 PUSH1 0x0 PUSH2 0xB76 DUP3 PUSH2 0x26E1 JUMP JUMPDEST SWAP1 POP DUP1 ISZERO PUSH2 0xB9A JUMPI PUSH1 0x1 PUSH1 0x0 PUSH1 0x1 PUSH2 0x100 EXP DUP2 SLOAD DUP2 PUSH1 0xFF MUL NOT AND SWAP1 DUP4 ISZERO ISZERO MUL OR SWAP1 SSTORE POP JUMPDEST DUP3 PUSH2 0x105 PUSH1 0xA PUSH2 0x100 EXP DUP2 SLOAD DUP2 PUSH20 0xFFFFFFFFFFFFFFFFFFFFFFFFFFFFFFFFFFFFFFFF MUL NOT AND SWAP1 DUP4 PUSH20 0xFFFFFFFFFFFFFFFFFFFFFFFFFFFFFFFFFFFFFFFF AND MUL OR SWAP1 SSTORE POP DUP7 DUP7 PUSH2 0x103 SWAP2 SWAP1 PUSH2 0xBEE SWAP3 SWAP2 SWAP1 PUSH2 0x5DEB JUMP JUMPDEST POP DUP5 DUP5 PUSH2 0x104 SWAP2 SWAP1 PUSH2 0xC01 SWAP3 SWAP2 SWAP1 PUSH2 0x5DEB JUMP JUMPDEST POP DUP1 ISZERO PUSH2 0xC5A JUMPI PUSH1 0x0 DUP1 PUSH1 0x1 PUSH2 0x100 EXP DUP2 SLOAD DUP2 PUSH1 0xFF MUL NOT AND SWAP1 DUP4 ISZERO ISZERO MUL OR SWAP1 SSTORE POP PUSH32 0x7F26B83FF96E1F2B6A682F133852F6798A09C465DA95921460CEFB3847402498 DUP3 PUSH1 0x40 MLOAD PUSH2 0xC51 SWAP2 SWAP1 PUSH2 0x6B53 JUMP JUMPDEST PUSH1 0x40 MLOAD DUP1 SWAP2 SUB SWAP1 LOG1 JUMPDEST POP POP POP POP POP POP POP JUMP JUMPDEST PUSH2 0x105 PUSH1 0x0 SWAP1 SLOAD SWAP1 PUSH2 0x100 EXP SWAP1 DIV PUSH4 0xFFFFFFFF AND DUP2 JUMP JUMPDEST PUSH32 0xA49807205CE4D355092EF5A8A18F56E8913CF4A201FBE287825B095693C21775 PUSH2 0xCA4 DUP2 PUSH2 0x27D1 JUMP JUMPDEST PUSH1 0x1 PUSH1 0x2 DUP2 GT ISZERO PUSH2 0xCB8 JUMPI PUSH2 0xCB7 PUSH2 0x659A JUMP JUMPDEST JUMPDEST PUSH1 0xFB PUSH1 0x0 DUP5 PUSH20 0xFFFFFFFFFFFFFFFFFFFFFFFFFFFFFFFFFFFFFFFF AND PUSH20 0xFFFFFFFFFFFFFFFFFFFFFFFFFFFFFFFFFFFFFFFF AND DUP2 MSTORE PUSH1 0x20 ADD SWAP1 DUP2 MSTORE PUSH1 0x20 ADD PUSH1 0x0 KECCAK256 PUSH1 0x1 ADD PUSH1 0x0 SWAP1 SLOAD SWAP1 PUSH2 0x100 EXP SWAP1 DIV PUSH1 0xFF AND PUSH1 0x2 DUP2 GT ISZERO PUSH2 0xD1A JUMPI PUSH2 0xD19 PUSH2 0x659A JUMP JUMPDEST JUMPDEST EQ DUP1 ISZERO PUSH2 0xD7B JUMPI POP PUSH1 0x0 ISZERO ISZERO PUSH1 0xFB PUSH1 0x0 DUP5 PUSH20 0xFFFFFFFFFFFFFFFFFFFFFFFFFFFFFFFFFFFFFFFF AND PUSH20 0xFFFFFFFFFFFFFFFFFFFFFFFFFFFFFFFFFFFFFFFF AND DUP2 MSTORE PUSH1 0x20 ADD SWAP1 DUP2 MSTORE PUSH1 0x20 ADD PUSH1 0x0 KECCAK256 PUSH1 0x1 ADD PUSH1 0x1 SWAP1 SLOAD SWAP1 PUSH2 0x100 EXP SWAP1 DIV PUSH1 0xFF AND ISZERO ISZERO EQ ISZERO JUMPDEST PUSH2 0xDBA JUMPI PUSH1 0x40 MLOAD PUSH32 0x8C379A000000000000000000000000000000000000000000000000000000000 DUP2 MSTORE PUSH1 0x4 ADD PUSH2 0xDB1 SWAP1 PUSH2 0x6BE0 JUMP JUMPDEST PUSH1 0x40 MLOAD DUP1 SWAP2 SUB SWAP1 REVERT JUMPDEST PUSH1 0x0 PUSH1 0xFB PUSH1 0x0 DUP5 PUSH20 0xFFFFFFFFFFFFFFFFFFFFFFFFFFFFFFFFFFFFFFFF AND PUSH20 0xFFFFFFFFFFFFFFFFFFFFFFFFFFFFFFFFFFFFFFFF AND DUP2 MSTORE PUSH1 0x20 ADD SWAP1 DUP2 MSTORE PUSH1 0x20 ADD PUSH1 0x0 KECCAK256 PUSH1 0x1 ADD PUSH1 0x1 PUSH2 0x100 EXP DUP2 SLOAD DUP2 PUSH1 0xFF MUL NOT AND SWAP1 DUP4 ISZERO ISZERO MUL OR SWAP1 SSTORE POP PUSH1 0x1 PUSH2 0x105 PUSH1 0x0 DUP3 DUP3 DUP3 SWAP1 SLOAD SWAP1 PUSH2 0x100 EXP SWAP1 DIV PUSH4 0xFFFFFFFF AND PUSH2 0xE38 SWAP2 SWAP1 PUSH2 0x6C2F JUMP JUMPDEST SWAP3 POP PUSH2 0x100 EXP DUP2 SLOAD DUP2 PUSH4 0xFFFFFFFF MUL NOT AND SWAP1 DUP4 PUSH4 0xFFFFFFFF AND MUL OR SWAP1 SSTORE POP POP POP JUMP JUMPDEST PUSH2 0x106 PUSH1 0x0 SWAP1 SLOAD SWAP1 PUSH2 0x100 EXP SWAP1 DIV PUSH20 0xFFFFFFFFFFFFFFFFFFFFFFFFFFFFFFFFFFFFFFFF AND DUP2 JUMP JUMPDEST PUSH1 0x0 PUSH1 0xC9 PUSH1 0x0 DUP4 DUP2 MSTORE PUSH1 0x20 ADD SWAP1 DUP2 MSTORE PUSH1 0x20 ADD PUSH1 0x0 KECCAK256 PUSH1 0x1 ADD SLOAD SWAP1 POP SWAP2 SWAP1 POP JUMP JUMPDEST PUSH2 0x105 PUSH1 0x4 SWAP1 SLOAD SWAP1 PUSH2 0x100 EXP SWAP1 DIV PUSH4 0xFFFFFFFF AND DUP2 JUMP JUMPDEST PUSH2 0xEC1 DUP3 PUSH2 0xE81 JUMP JUMPDEST PUSH2 0xECA DUP2 PUSH2 0x27D1 JUMP JUMPDEST PUSH2 0xED4 DUP4 DUP4 PUSH2 0x27E5 JUMP JUMPDEST POP POP POP JUMP JUMPDEST PUSH1 0x0 PUSH32 0xA49807205CE4D355092EF5A8A18F56E8913CF4A201FBE287825B095693C21775 PUSH2 0xF05 DUP2 PUSH2 0x27D1 JUMP JUMPDEST PUSH1 0x0 DUP1 REVERT JUMPDEST PUSH2 0x105 PUSH1 0x8 SWAP1 SLOAD SWAP1 PUSH2 0x100 EXP SWAP1 DIV PUSH1 0xFF AND DUP2 JUMP JUMPDEST PUSH2 0xF26 PUSH2 0x28C6 JUMP JUMPDEST PUSH20 0xFFFFFFFFFFFFFFFFFFFFFFFFFFFFFFFFFFFFFFFF AND DUP2 PUSH20 0xFFFFFFFFFFFFFFFFFFFFFFFFFFFFFFFFFFFFFFFF AND EQ PUSH2 0xF93 JUMPI PUSH1 0x40 MLOAD PUSH32 0x8C379A000000000000000000000000000000000000000000000000000000000 DUP2 MSTORE PUSH1 0x4 ADD PUSH2 0xF8A SWAP1 PUSH2 0x6CD5 JUMP JUMPDEST PUSH1 0x40 MLOAD DUP1 SWAP2 SUB SWAP1 REVERT JUMPDEST PUSH2 0xF9D DUP3 DUP3 PUSH2 0x28CE JUMP JUMPDEST POP POP JUMP JUMPDEST PUSH32 0x0 PUSH20 0xFFFFFFFFFFFFFFFFFFFFFFFFFFFFFFFFFFFFFFFF AND ADDRESS PUSH20 0xFFFFFFFFFFFFFFFFFFFFFFFFFFFFFFFFFFFFFFFF AND SUB PUSH2 0x102F JUMPI PUSH1 0x40 MLOAD PUSH32 0x8C379A000000000000000000000000000000000000000000000000000000000 DUP2 MSTORE PUSH1 0x4 ADD PUSH2 0x1026 SWAP1 PUSH2 0x6D67 JUMP JUMPDEST PUSH1 0x40 MLOAD DUP1 SWAP2 SUB SWAP1 REVERT JUMPDEST PUSH32 0x0 PUSH20 0xFFFFFFFFFFFFFFFFFFFFFFFFFFFFFFFFFFFFFFFF AND PUSH2 0x106E PUSH2 0x29B0 JUMP JUMPDEST PUSH20 0xFFFFFFFFFFFFFFFFFFFFFFFFFFFFFFFFFFFFFFFF AND EQ PUSH2 0x10C4 JUMPI PUSH1 0x40 MLOAD PUSH32 0x8C379A000000000000000000000000000000000000000000000000000000000 DUP2 MSTORE PUSH1 0x4 ADD PUSH2 0x10BB SWAP1 PUSH2 0x6DF9 JUMP JUMPDEST PUSH1 0x40 MLOAD DUP1 SWAP2 SUB SWAP1 REVERT JUMPDEST PUSH2 0x10CD DUP2 PUSH2 0x2A07 JUMP JUMPDEST PUSH2 0x1126 DUP2 PUSH1 0x0 PUSH8 0xFFFFFFFFFFFFFFFF DUP2 GT ISZERO PUSH2 0x10EC JUMPI PUSH2 0x10EB PUSH2 0x6413 JUMP JUMPDEST JUMPDEST PUSH1 0x40 MLOAD SWAP1 DUP1 DUP3 MSTORE DUP1 PUSH1 0x1F ADD PUSH1 0x1F NOT AND PUSH1 0x20 ADD DUP3 ADD PUSH1 0x40 MSTORE DUP1 ISZERO PUSH2 0x111E JUMPI DUP2 PUSH1 0x20 ADD PUSH1 0x1 DUP3 MUL DUP1 CALLDATASIZE DUP4 CALLDATACOPY DUP1 DUP3 ADD SWAP2 POP POP SWAP1 POP JUMPDEST POP PUSH1 0x0 PUSH2 0x2AF4 JUMP JUMPDEST POP JUMP JUMPDEST PUSH1 0xFE SLOAD DUP2 JUMP JUMPDEST PUSH2 0x105 PUSH1 0x9 SWAP1 SLOAD SWAP1 PUSH2 0x100 EXP SWAP1 DIV PUSH1 0xFF AND DUP2 JUMP JUMPDEST PUSH32 0x0 PUSH20 0xFFFFFFFFFFFFFFFFFFFFFFFFFFFFFFFFFFFFFFFF AND ADDRESS PUSH20 0xFFFFFFFFFFFFFFFFFFFFFFFFFFFFFFFFFFFFFFFF AND SUB PUSH2 0x11D1 JUMPI PUSH1 0x40 MLOAD PUSH32 0x8C379A000000000000000000000000000000000000000000000000000000000 DUP2 MSTORE PUSH1 0x4 ADD PUSH2 0x11C8 SWAP1 PUSH2 0x6D67 JUMP JUMPDEST PUSH1 0x40 MLOAD DUP1 SWAP2 SUB SWAP1 REVERT JUMPDEST PUSH32 0x0 PUSH20 0xFFFFFFFFFFFFFFFFFFFFFFFFFFFFFFFFFFFFFFFF AND PUSH2 0x1210 PUSH2 0x29B0 JUMP JUMPDEST PUSH20 0xFFFFFFFFFFFFFFFFFFFFFFFFFFFFFFFFFFFFFFFF AND EQ PUSH2 0x1266 JUMPI PUSH1 0x40 MLOAD PUSH32 0x8C379A000000000000000000000000000000000000000000000000000000000 DUP2 MSTORE PUSH1 0x4 ADD PUSH2 0x125D SWAP1 PUSH2 0x6DF9 JUMP JUMPDEST PUSH1 0x40 MLOAD DUP1 SWAP2 SUB SWAP1 REVERT JUMPDEST PUSH2 0x126F DUP3 PUSH2 0x2A07 JUMP JUMPDEST PUSH2 0x127B DUP3 DUP3 PUSH1 0x1 PUSH2 0x2AF4 JUMP JUMPDEST POP POP JUMP JUMPDEST PUSH1 0x0 PUSH32 0x0 PUSH20 0xFFFFFFFFFFFFFFFFFFFFFFFFFFFFFFFFFFFFFFFF AND ADDRESS PUSH20 0xFFFFFFFFFFFFFFFFFFFFFFFFFFFFFFFFFFFFFFFF AND EQ PUSH2 0x130F JUMPI PUSH1 0x40 MLOAD PUSH32 0x8C379A000000000000000000000000000000000000000000000000000000000 DUP2 MSTORE PUSH1 0x4 ADD PUSH2 0x1306 SWAP1 PUSH2 0x6E8B JUMP JUMPDEST PUSH1 0x40 MLOAD DUP1 SWAP2 SUB SWAP1 REVERT JUMPDEST PUSH32 0x360894A13BA1A3210667C828492DB98DCA3E2076CC3735A920A3CA505D382BBC PUSH1 0x0 SHL SWAP1 POP SWAP1 JUMP JUMPDEST PUSH1 0x60 PUSH2 0x104 DUP1 SLOAD PUSH2 0x1348 SWAP1 PUSH2 0x6B06 JUMP JUMPDEST DUP1 PUSH1 0x1F ADD PUSH1 0x20 DUP1 SWAP2 DIV MUL PUSH1 0x20 ADD PUSH1 0x40 MLOAD SWAP1 DUP2 ADD PUSH1 0x40 MSTORE DUP1 SWAP3 SWAP2 SWAP1 DUP2 DUP2 MSTORE PUSH1 0x20 ADD DUP3 DUP1 SLOAD PUSH2 0x1374 SWAP1 PUSH2 0x6B06 JUMP JUMPDEST DUP1 ISZERO PUSH2 0x13C1 JUMPI DUP1 PUSH1 0x1F LT PUSH2 0x1396 JUMPI PUSH2 0x100 DUP1 DUP4 SLOAD DIV MUL DUP4 MSTORE SWAP2 PUSH1 0x20 ADD SWAP2 PUSH2 0x13C1 JUMP JUMPDEST DUP3 ADD SWAP2 SWAP1 PUSH1 0x0 MSTORE PUSH1 0x20 PUSH1 0x0 KECCAK256 SWAP1 JUMPDEST DUP2 SLOAD DUP2 MSTORE SWAP1 PUSH1 0x1 ADD SWAP1 PUSH1 0x20 ADD DUP1 DUP4 GT PUSH2 0x13A4 JUMPI DUP3 SWAP1 SUB PUSH1 0x1F AND DUP3 ADD SWAP2 JUMPDEST POP POP POP POP POP SWAP1 POP SWAP1 JUMP JUMPDEST PUSH1 0x0 PUSH1 0xFB PUSH1 0x0 DUP4 PUSH20 0xFFFFFFFFFFFFFFFFFFFFFFFFFFFFFFFFFFFFFFFF AND PUSH20 0xFFFFFFFFFFFFFFFFFFFFFFFFFFFFFFFFFFFFFFFF AND DUP2 MSTORE PUSH1 0x20 ADD SWAP1 DUP2 MSTORE PUSH1 0x20 ADD PUSH1 0x0 KECCAK256 PUSH1 0x1 ADD PUSH1 0x1 SWAP1 SLOAD SWAP1 PUSH2 0x100 EXP SWAP1 DIV PUSH1 0xFF AND DUP1 ISZERO PUSH2 0x149B JUMPI POP PUSH1 0x2 DUP1 DUP2 GT ISZERO PUSH2 0x1437 JUMPI PUSH2 0x1436 PUSH2 0x659A JUMP JUMPDEST JUMPDEST PUSH1 0xFB PUSH1 0x0 DUP5 PUSH20 0xFFFFFFFFFFFFFFFFFFFFFFFFFFFFFFFFFFFFFFFF AND PUSH20 0xFFFFFFFFFFFFFFFFFFFFFFFFFFFFFFFFFFFFFFFF AND DUP2 MSTORE PUSH1 0x20 ADD SWAP1 DUP2 MSTORE PUSH1 0x20 ADD PUSH1 0x0 KECCAK256 PUSH1 0x1 ADD PUSH1 0x0 SWAP1 SLOAD SWAP1 PUSH2 0x100 EXP SWAP1 DIV PUSH1 0xFF AND PUSH1 0x2 DUP2 GT ISZERO PUSH2 0x1499 JUMPI PUSH2 0x1498 PUSH2 0x659A JUMP JUMPDEST JUMPDEST EQ JUMPDEST SWAP1 POP SWAP2 SWAP1 POP JUMP JUMPDEST PUSH1 0x0 DUP1 PUSH1 0xFD PUSH1 0x0 DUP5 DUP2 MSTORE PUSH1 0x20 ADD SWAP1 DUP2 MSTORE PUSH1 0x20 ADD PUSH1 0x0 KECCAK256 SWAP1 POP PUSH1 0x0 DUP1 SHL DUP2 PUSH1 0x1 ADD SLOAD SUB PUSH2 0x1503 JUMPI PUSH1 0x40 MLOAD PUSH32 0x8C379A000000000000000000000000000000000000000000000000000000000 DUP2 MSTORE PUSH1 0x4 ADD PUSH2 0x14FA SWAP1 PUSH2 0x6EF7 JUMP JUMPDEST PUSH1 0x40 MLOAD DUP1 SWAP2 SUB SWAP1 REVERT JUMPDEST DUP1 PUSH1 0x6 ADD PUSH1 0x2 SWAP1 SLOAD SWAP1 PUSH2 0x100 EXP SWAP1 DIV PUSH1 0xFF AND ISZERO PUSH2 0x1524 JUMPI PUSH1 0x7 SWAP2 POP POP PUSH2 0x168A JUMP JUMPDEST DUP1 PUSH1 0x6 ADD PUSH1 0x3 SWAP1 SLOAD SWAP1 PUSH2 0x100 EXP SWAP1 DIV PUSH1 0xFF AND ISZERO PUSH2 0x1545 JUMPI PUSH1 0x3 SWAP2 POP POP PUSH2 0x168A JUMP JUMPDEST PUSH2 0x158E DUP2 PUSH1 0x4 ADD PUSH1 0x40 MLOAD DUP1 PUSH1 0x20 ADD PUSH1 0x40 MSTORE SWAP1 DUP2 PUSH1 0x0 DUP3 ADD PUSH1 0x0 SWAP1 SLOAD SWAP1 PUSH2 0x100 EXP SWAP1 DIV PUSH8 0xFFFFFFFFFFFFFFFF AND PUSH8 0xFFFFFFFFFFFFFFFF AND PUSH8 0xFFFFFFFFFFFFFFFF AND DUP2 MSTORE POP POP PUSH2 0x2C62 JUMP JUMPDEST ISZERO PUSH2 0x159D JUMPI PUSH1 0x1 SWAP2 POP POP PUSH2 0x168A JUMP JUMPDEST PUSH2 0x15E6 DUP2 PUSH1 0x5 ADD PUSH1 0x40 MLOAD DUP1 PUSH1 0x20 ADD PUSH1 0x40 MSTORE SWAP1 DUP2 PUSH1 0x0 DUP3 ADD PUSH1 0x0 SWAP1 SLOAD SWAP1 PUSH2 0x100 EXP SWAP1 DIV PUSH8 0xFFFFFFFFFFFFFFFF AND PUSH8 0xFFFFFFFFFFFFFFFF AND PUSH8 0xFFFFFFFFFFFFFFFF AND DUP2 MSTORE POP POP PUSH2 0x2C62 JUMP JUMPDEST DUP1 ISZERO PUSH2 0x15F8 JUMPI POP PUSH2 0x15F6 DUP4 PUSH2 0x2C7C JUMP JUMPDEST ISZERO JUMPDEST ISZERO PUSH2 0x1607 JUMPI PUSH1 0x2 SWAP2 POP POP PUSH2 0x168A JUMP JUMPDEST PUSH2 0x1650 DUP2 PUSH1 0x5 ADD PUSH1 0x40 MLOAD DUP1 PUSH1 0x20 ADD PUSH1 0x40 MSTORE SWAP1 DUP2 PUSH1 0x0 DUP3 ADD PUSH1 0x0 SWAP1 SLOAD SWAP1 PUSH2 0x100 EXP SWAP1 DIV PUSH8 0xFFFFFFFFFFFFFFFF AND PUSH8 0xFFFFFFFFFFFFFFFF AND PUSH8 0xFFFFFFFFFFFFFFFF AND DUP2 MSTORE POP POP PUSH2 0x2D20 JUMP JUMPDEST DUP1 PUSH2 0x1660 JUMPI POP PUSH2 0x165F DUP4 PUSH2 0x2C7C JUMP JUMPDEST JUMPDEST ISZERO PUSH2 0x1684 JUMPI PUSH2 0x166E DUP4 PUSH2 0x2D4C JUMP JUMPDEST PUSH2 0x1679 JUMPI PUSH1 0x4 PUSH2 0x167C JUMP JUMPDEST PUSH1 0x5 JUMPDEST SWAP2 POP POP PUSH2 0x168A JUMP JUMPDEST PUSH1 0x0 SWAP2 POP POP JUMPDEST SWAP2 SWAP1 POP JUMP JUMPDEST PUSH32 0xA49807205CE4D355092EF5A8A18F56E8913CF4A201FBE287825B095693C21775 PUSH2 0x16B9 DUP2 PUSH2 0x27D1 JUMP JUMPDEST DUP2 PUSH1 0xFE DUP2 SWAP1 SSTORE POP POP POP JUMP JUMPDEST PUSH32 0xA49807205CE4D355092EF5A8A18F56E8913CF4A201FBE287825B095693C21775 DUP2 JUMP JUMPDEST PUSH2 0x105 PUSH1 0xA SWAP1 SLOAD SWAP1 PUSH2 0x100 EXP SWAP1 DIV PUSH20 0xFFFFFFFFFFFFFFFFFFFFFFFFFFFFFFFFFFFFFFFF AND DUP2 JUMP JUMPDEST PUSH32 0xA49807205CE4D355092EF5A8A18F56E8913CF4A201FBE287825B095693C21775 PUSH2 0x1739 DUP2 PUSH2 0x27D1 JUMP JUMPDEST DUP2 PUSH2 0x105 PUSH1 0x8 PUSH2 0x100 EXP DUP2 SLOAD DUP2 PUSH1 0xFF MUL NOT AND SWAP1 DUP4 ISZERO ISZERO MUL OR SWAP1 SSTORE POP POP POP JUMP JUMPDEST PUSH1 0x0 PUSH1 0xC9 PUSH1 0x0 DUP5 DUP2 MSTORE PUSH1 0x20 ADD SWAP1 DUP2 MSTORE PUSH1 0x20 ADD PUSH1 0x0 KECCAK256 PUSH1 0x0 ADD PUSH1 0x0 DUP4 PUSH20 0xFFFFFFFFFFFFFFFFFFFFFFFFFFFFFFFFFFFFFFFF AND PUSH20 0xFFFFFFFFFFFFFFFFFFFFFFFFFFFFFFFFFFFFFFFF AND DUP2 MSTORE PUSH1 0x20 ADD SWAP1 DUP2 MSTORE PUSH1 0x20 ADD PUSH1 0x0 KECCAK256 PUSH1 0x0 SWAP1 SLOAD SWAP1 PUSH2 0x100 EXP SWAP1 DIV PUSH1 0xFF AND SWAP1 POP SWAP3 SWAP2 POP POP JUMP JUMPDEST PUSH2 0x101 PUSH1 0x0 SWAP1 SLOAD SWAP1 PUSH2 0x100 EXP SWAP1 DIV PUSH20 0xFFFFFFFFFFFFFFFFFFFFFFFFFFFFFFFFFFFFFFFF AND DUP2 JUMP JUMPDEST PUSH1 0x0 DUP1 SHL DUP2 JUMP JUMPDEST PUSH1 0x0 PUSH1 0x1 PUSH1 0x2 DUP2 GT ISZERO PUSH2 0x1807 JUMPI PUSH2 0x1806 PUSH2 0x659A JUMP JUMPDEST JUMPDEST PUSH1 0xFB PUSH1 0x0 PUSH2 0x1813 PUSH2 0x28C6 JUMP JUMPDEST PUSH20 0xFFFFFFFFFFFFFFFFFFFFFFFFFFFFFFFFFFFFFFFF AND PUSH20 0xFFFFFFFFFFFFFFFFFFFFFFFFFFFFFFFFFFFFFFFF AND DUP2 MSTORE PUSH1 0x20 ADD SWAP1 DUP2 MSTORE PUSH1 0x20 ADD PUSH1 0x0 KECCAK256 PUSH1 0x1 ADD PUSH1 0x0 SWAP1 SLOAD SWAP1 PUSH2 0x100 EXP SWAP1 DIV PUSH1 0xFF AND PUSH1 0x2 DUP2 GT ISZERO PUSH2 0x1870 JUMPI PUSH2 0x186F PUSH2 0x659A JUMP JUMPDEST JUMPDEST EQ DUP1 ISZERO PUSH2 0x18D7 JUMPI POP PUSH1 0x1 ISZERO ISZERO PUSH1 0xFB PUSH1 0x0 PUSH2 0x1888 PUSH2 0x28C6 JUMP JUMPDEST PUSH20 0xFFFFFFFFFFFFFFFFFFFFFFFFFFFFFFFFFFFFFFFF AND PUSH20 0xFFFFFFFFFFFFFFFFFFFFFFFFFFFFFFFFFFFFFFFF AND DUP2 MSTORE PUSH1 0x20 ADD SWAP1 DUP2 MSTORE PUSH1 0x20 ADD PUSH1 0x0 KECCAK256 PUSH1 0x1 ADD PUSH1 0x1 SWAP1 SLOAD SWAP1 PUSH2 0x100 EXP SWAP1 DIV PUSH1 0xFF AND ISZERO ISZERO EQ JUMPDEST PUSH2 0x1916 JUMPI PUSH1 0x40 MLOAD PUSH32 0x8C379A000000000000000000000000000000000000000000000000000000000 DUP2 MSTORE PUSH1 0x4 ADD PUSH2 0x190D SWAP1 PUSH2 0x6F89 JUMP JUMPDEST PUSH1 0x40 MLOAD DUP1 SWAP2 SUB SWAP1 REVERT JUMPDEST PUSH2 0x196D DUP4 PUSH2 0x1922 PUSH2 0x28C6 JUMP JUMPDEST DUP5 DUP9 DUP9 DUP1 DUP1 PUSH1 0x1F ADD PUSH1 0x20 DUP1 SWAP2 DIV MUL PUSH1 0x20 ADD PUSH1 0x40 MLOAD SWAP1 DUP2 ADD PUSH1 0x40 MSTORE DUP1 SWAP4 SWAP3 SWAP2 SWAP1 DUP2 DUP2 MSTORE PUSH1 0x20 ADD DUP4 DUP4 DUP1 DUP3 DUP5 CALLDATACOPY PUSH1 0x0 DUP2 DUP5 ADD MSTORE PUSH1 0x1F NOT PUSH1 0x1F DUP3 ADD AND SWAP1 POP DUP1 DUP4 ADD SWAP3 POP POP POP POP POP POP POP PUSH2 0x2DC3 JUMP JUMPDEST SWAP1 POP SWAP5 SWAP4 POP POP POP POP JUMP JUMPDEST PUSH1 0x0 PUSH2 0x19A1 DUP3 PUSH1 0xFC PUSH1 0x0 DUP7 DUP2 MSTORE PUSH1 0x20 ADD SWAP1 DUP2 MSTORE PUSH1 0x20 ADD PUSH1 0x0 KECCAK256 PUSH1 0x1 ADD PUSH2 0x30F6 SWAP1 SWAP2 SWAP1 PUSH4 0xFFFFFFFF AND JUMP JUMPDEST SWAP1 POP SWAP3 SWAP2 POP POP JUMP JUMPDEST PUSH32 0xF26C159FD7D78F3848964C3ADF4AEA78577348FCB297DB019BF8F5EFBED02195 DUP2 JUMP JUMPDEST PUSH1 0x0 PUSH1 0xFD PUSH1 0x0 DUP5 DUP2 MSTORE PUSH1 0x20 ADD SWAP1 DUP2 MSTORE PUSH1 0x20 ADD PUSH1 0x0 KECCAK256 PUSH1 0x3 ADD PUSH1 0x0 SWAP1 SLOAD SWAP1 PUSH2 0x100 EXP SWAP1 DIV PUSH20 0xFFFFFFFFFFFFFFFFFFFFFFFFFFFFFFFFFFFFFFFF AND PUSH20 0xFFFFFFFFFFFFFFFFFFFFFFFFFFFFFFFFFFFFFFFF AND CALLER PUSH20 0xFFFFFFFFFFFFFFFFFFFFFFFFFFFFFFFFFFFFFFFF AND EQ PUSH2 0x1A73 JUMPI PUSH1 0x40 MLOAD PUSH32 0x8C379A000000000000000000000000000000000000000000000000000000000 DUP2 MSTORE PUSH1 0x4 ADD PUSH2 0x1A6A SWAP1 PUSH2 0x701B JUMP JUMPDEST PUSH1 0x40 MLOAD DUP1 SWAP2 SUB SWAP1 REVERT JUMPDEST PUSH1 0x0 PUSH2 0x1A7E DUP5 PUSH2 0x14A2 JUMP JUMPDEST SWAP1 POP PUSH1 0x6 PUSH1 0x7 DUP2 GT ISZERO PUSH2 0x1A94 JUMPI PUSH2 0x1A93 PUSH2 0x659A JUMP JUMPDEST JUMPDEST DUP2 PUSH1 0x7 DUP2 GT ISZERO PUSH2 0x1AA7 JUMPI PUSH2 0x1AA6 PUSH2 0x659A JUMP JUMPDEST JUMPDEST EQ ISZERO DUP1 ISZERO PUSH2 0x1AD9 JUMPI POP PUSH1 0x7 DUP1 DUP2 GT ISZERO PUSH2 0x1AC3 JUMPI PUSH2 0x1AC2 PUSH2 0x659A JUMP JUMPDEST JUMPDEST DUP2 PUSH1 0x7 DUP2 GT ISZERO PUSH2 0x1AD6 JUMPI PUSH2 0x1AD5 PUSH2 0x659A JUMP JUMPDEST JUMPDEST EQ ISZERO JUMPDEST PUSH2 0x1B18 JUMPI PUSH1 0x40 MLOAD PUSH32 0x8C379A000000000000000000000000000000000000000000000000000000000 DUP2 MSTORE PUSH1 0x4 ADD PUSH2 0x1B0F SWAP1 PUSH2 0x7087 JUMP JUMPDEST PUSH1 0x40 MLOAD DUP1 SWAP2 SUB SWAP1 REVERT JUMPDEST PUSH1 0x3 PUSH1 0x7 DUP2 GT ISZERO PUSH2 0x1B2C JUMPI PUSH2 0x1B2B PUSH2 0x659A JUMP JUMPDEST JUMPDEST DUP2 PUSH1 0x7 DUP2 GT ISZERO PUSH2 0x1B3F JUMPI PUSH2 0x1B3E PUSH2 0x659A JUMP JUMPDEST JUMPDEST SUB PUSH2 0x1B7F JUMPI PUSH1 0x40 MLOAD PUSH32 0x8C379A000000000000000000000000000000000000000000000000000000000 DUP2 MSTORE PUSH1 0x4 ADD PUSH2 0x1B76 SWAP1 PUSH2 0x7119 JUMP JUMPDEST PUSH1 0x40 MLOAD DUP1 SWAP2 SUB SWAP1 REVERT JUMPDEST PUSH1 0x1 PUSH1 0xFD PUSH1 0x0 DUP7 DUP2 MSTORE PUSH1 0x20 ADD SWAP1 DUP2 MSTORE PUSH1 0x20 ADD PUSH1 0x0 KECCAK256 PUSH1 0x6 ADD PUSH1 0x3 PUSH2 0x100 EXP DUP2 SLOAD DUP2 PUSH1 0xFF MUL NOT AND SWAP1 DUP4 ISZERO ISZERO MUL OR SWAP1 SSTORE POP DUP4 PUSH32 0xC3FE75BACE7821ED95B8B37722A36DFB53BDF311BEFB9C378BED48A7DB4062AA DUP5 PUSH1 0x40 MLOAD PUSH2 0x1BDE SWAP2 SWAP1 PUSH2 0x6136 JUMP JUMPDEST PUSH1 0x40 MLOAD DUP1 SWAP2 SUB SWAP1 LOG2 PUSH1 0x1 SWAP2 POP POP SWAP3 SWAP2 POP POP JUMP JUMPDEST PUSH1 0x0 DUP7 DUP7 DUP7 DUP7 DUP7 DUP7 PUSH1 0x40 MLOAD PUSH1 0x20 ADD PUSH2 0x1C0E SWAP7 SWAP6 SWAP5 SWAP4 SWAP3 SWAP2 SWAP1 PUSH2 0x721E JUMP JUMPDEST PUSH1 0x40 MLOAD PUSH1 0x20 DUP2 DUP4 SUB SUB DUP2 MSTORE SWAP1 PUSH1 0x40 MSTORE DUP1 MLOAD SWAP1 PUSH1 0x20 ADD KECCAK256 SWAP1 POP SWAP7 SWAP6 POP POP POP POP POP POP JUMP JUMPDEST PUSH32 0x53CC2FAE7ECEF069DA76AE9063C3ECFA7F417173BC5191FE1BB037165D76473F DUP2 JUMP JUMPDEST PUSH2 0x100 PUSH1 0x0 SWAP1 SLOAD SWAP1 PUSH2 0x100 EXP SWAP1 DIV PUSH20 0xFFFFFFFFFFFFFFFFFFFFFFFFFFFFFFFFFFFFFFFF AND DUP2 JUMP JUMPDEST PUSH2 0x1C84 DUP3 PUSH2 0xE81 JUMP JUMPDEST PUSH2 0x1C8D DUP2 PUSH2 0x27D1 JUMP JUMPDEST PUSH2 0x1C97 DUP4 DUP4 PUSH2 0x28CE JUMP JUMPDEST POP POP POP JUMP JUMPDEST PUSH32 0x23B872DD7302113369CDA2901243429419BEC145408FA8B352B3DD92B66C680B DUP2 JUMP JUMPDEST PUSH1 0x0 PUSH32 0xA49807205CE4D355092EF5A8A18F56E8913CF4A201FBE287825B095693C21775 PUSH2 0x1CEC DUP2 PUSH2 0x27D1 JUMP JUMPDEST PUSH1 0x0 PUSH2 0x1CF7 DUP5 PUSH2 0x14A2 JUMP JUMPDEST SWAP1 POP PUSH1 0x5 PUSH1 0x7 DUP2 GT ISZERO PUSH2 0x1D0D JUMPI PUSH2 0x1D0C PUSH2 0x659A JUMP JUMPDEST JUMPDEST DUP2 PUSH1 0x7 DUP2 GT ISZERO PUSH2 0x1D20 JUMPI PUSH2 0x1D1F PUSH2 0x659A JUMP JUMPDEST JUMPDEST EQ PUSH2 0x1D60 JUMPI PUSH1 0x40 MLOAD PUSH32 0x8C379A000000000000000000000000000000000000000000000000000000000 DUP2 MSTORE PUSH1 0x4 ADD PUSH2 0x1D57 SWAP1 PUSH2 0x72F8 JUMP JUMPDEST PUSH1 0x40 MLOAD DUP1 SWAP2 SUB SWAP1 REVERT JUMPDEST PUSH1 0x0 PUSH1 0xFD PUSH1 0x0 DUP7 DUP2 MSTORE PUSH1 0x20 ADD SWAP1 DUP2 MSTORE PUSH1 0x20 ADD PUSH1 0x0 KECCAK256 SWAP1 POP PUSH1 0x1 DUP2 PUSH1 0x6 ADD PUSH1 0x2 PUSH2 0x100 EXP DUP2 SLOAD DUP2 PUSH1 0xFF MUL NOT AND SWAP1 DUP4 ISZERO ISZERO MUL OR SWAP1 SSTORE POP PUSH1 0x0 PUSH1 0x1 SWAP1 POP PUSH2 0x1DA3 DUP3 PUSH2 0x3126 JUMP JUMPDEST SWAP1 POP DUP1 ISZERO PUSH2 0x1DD9 JUMPI DUP6 PUSH32 0x7B1BCF1CCF901A11589AFFF5504D59FD0A53780EED2A952ADADE0348985139E0 PUSH1 0x40 MLOAD PUSH1 0x40 MLOAD DUP1 SWAP2 SUB SWAP1 LOG2 JUMPDEST DUP1 SWAP5 POP POP POP POP POP SWAP2 SWAP1 POP JUMP JUMPDEST PUSH32 0xA49807205CE4D355092EF5A8A18F56E8913CF4A201FBE287825B095693C21775 PUSH2 0x1E0F DUP2 PUSH2 0x27D1 JUMP JUMPDEST DUP2 PUSH1 0xFF DUP2 SWAP1 SSTORE POP POP POP JUMP JUMPDEST PUSH2 0x102 PUSH1 0x0 SWAP1 SLOAD SWAP1 PUSH2 0x100 EXP SWAP1 DIV PUSH20 0xFFFFFFFFFFFFFFFFFFFFFFFFFFFFFFFFFFFFFFFF AND DUP2 JUMP JUMPDEST PUSH32 0x36FD43EDE163045B10E1F0ABD16F62F165FCE3FA7B6CDE217BCEA3BC47663ACC DUP2 JUMP JUMPDEST PUSH1 0x0 PUSH1 0xFB PUSH1 0x0 DUP4 PUSH20 0xFFFFFFFFFFFFFFFFFFFFFFFFFFFFFFFFFFFFFFFF AND PUSH20 0xFFFFFFFFFFFFFFFFFFFFFFFFFFFFFFFFFFFFFFFF AND DUP2 MSTORE PUSH1 0x20 ADD SWAP1 DUP2 MSTORE PUSH1 0x20 ADD PUSH1 0x0 KECCAK256 PUSH1 0x1 ADD PUSH1 0x1 SWAP1 SLOAD SWAP1 PUSH2 0x100 EXP SWAP1 DIV PUSH1 0xFF AND DUP1 ISZERO PUSH2 0x1F36 JUMPI POP PUSH1 0x1 PUSH1 0x2 DUP2 GT ISZERO PUSH2 0x1ED2 JUMPI PUSH2 0x1ED1 PUSH2 0x659A JUMP JUMPDEST JUMPDEST PUSH1 0xFB PUSH1 0x0 DUP5 PUSH20 0xFFFFFFFFFFFFFFFFFFFFFFFFFFFFFFFFFFFFFFFF AND PUSH20 0xFFFFFFFFFFFFFFFFFFFFFFFFFFFFFFFFFFFFFFFF AND DUP2 MSTORE PUSH1 0x20 ADD SWAP1 DUP2 MSTORE PUSH1 0x20 ADD PUSH1 0x0 KECCAK256 PUSH1 0x1 ADD PUSH1 0x0 SWAP1 SLOAD SWAP1 PUSH2 0x100 EXP SWAP1 DIV PUSH1 0xFF AND PUSH1 0x2 DUP2 GT ISZERO PUSH2 0x1F34 JUMPI PUSH2 0x1F33 PUSH2 0x659A JUMP JUMPDEST JUMPDEST EQ JUMPDEST SWAP1 POP SWAP2 SWAP1 POP JUMP JUMPDEST PUSH1 0x0 PUSH1 0x1 PUSH1 0x2 DUP2 GT ISZERO PUSH2 0x1F53 JUMPI PUSH2 0x1F52 PUSH2 0x659A JUMP JUMPDEST JUMPDEST PUSH1 0xFB PUSH1 0x0 PUSH2 0x1F5F PUSH2 0x28C6 JUMP JUMPDEST PUSH20 0xFFFFFFFFFFFFFFFFFFFFFFFFFFFFFFFFFFFFFFFF AND PUSH20 0xFFFFFFFFFFFFFFFFFFFFFFFFFFFFFFFFFFFFFFFF AND DUP2 MSTORE PUSH1 0x20 ADD SWAP1 DUP2 MSTORE PUSH1 0x20 ADD PUSH1 0x0 KECCAK256 PUSH1 0x1 ADD PUSH1 0x0 SWAP1 SLOAD SWAP1 PUSH2 0x100 EXP SWAP1 DIV PUSH1 0xFF AND PUSH1 0x2 DUP2 GT ISZERO PUSH2 0x1FBC JUMPI PUSH2 0x1FBB PUSH2 0x659A JUMP JUMPDEST JUMPDEST EQ DUP1 ISZERO PUSH2 0x2023 JUMPI POP PUSH1 0x1 ISZERO ISZERO PUSH1 0xFB PUSH1 0x0 PUSH2 0x1FD4 PUSH2 0x28C6 JUMP JUMPDEST PUSH20 0xFFFFFFFFFFFFFFFFFFFFFFFFFFFFFFFFFFFFFFFF AND PUSH20 0xFFFFFFFFFFFFFFFFFFFFFFFFFFFFFFFFFFFFFFFF AND DUP2 MSTORE PUSH1 0x20 ADD SWAP1 DUP2 MSTORE PUSH1 0x20 ADD PUSH1 0x0 KECCAK256 PUSH1 0x1 ADD PUSH1 0x1 SWAP1 SLOAD SWAP1 PUSH2 0x100 EXP SWAP1 DIV PUSH1 0xFF AND ISZERO ISZERO EQ JUMPDEST DUP1 PUSH2 0x2062 JUMPI POP PUSH1 0x1 ISZERO ISZERO PUSH2 0x205E PUSH32 0xA49807205CE4D355092EF5A8A18F56E8913CF4A201FBE287825B095693C21775 PUSH2 0x2059 PUSH2 0x28C6 JUMP JUMPDEST PUSH2 0x1758 JUMP JUMPDEST ISZERO ISZERO EQ JUMPDEST PUSH2 0x20A1 JUMPI PUSH1 0x40 MLOAD PUSH32 0x8C379A000000000000000000000000000000000000000000000000000000000 DUP2 MSTORE PUSH1 0x4 ADD PUSH2 0x2098 SWAP1 PUSH2 0x738A JUMP JUMPDEST PUSH1 0x40 MLOAD DUP1 SWAP2 SUB SWAP1 REVERT JUMPDEST PUSH1 0x0 PUSH1 0x3 DUP2 GT ISZERO PUSH2 0x20B5 JUMPI PUSH2 0x20B4 PUSH2 0x659A JUMP JUMPDEST JUMPDEST DUP4 PUSH1 0x20 ADD MLOAD PUSH1 0x3 DUP2 GT ISZERO PUSH2 0x20CC JUMPI PUSH2 0x20CB PUSH2 0x659A JUMP JUMPDEST JUMPDEST SUB PUSH2 0x210C JUMPI PUSH1 0x40 MLOAD PUSH32 0x8C379A000000000000000000000000000000000000000000000000000000000 DUP2 MSTORE PUSH1 0x4 ADD PUSH2 0x2103 SWAP1 PUSH2 0x73F6 JUMP JUMPDEST PUSH1 0x40 MLOAD DUP1 SWAP2 SUB SWAP1 REVERT JUMPDEST PUSH1 0x0 PUSH1 0x4 DUP2 GT ISZERO PUSH2 0x2120 JUMPI PUSH2 0x211F PUSH2 0x659A JUMP JUMPDEST JUMPDEST DUP4 PUSH1 0x40 ADD MLOAD PUSH1 0x4 DUP2 GT ISZERO PUSH2 0x2137 JUMPI PUSH2 0x2136 PUSH2 0x659A JUMP JUMPDEST JUMPDEST SUB PUSH2 0x2177 JUMPI PUSH1 0x40 MLOAD PUSH32 0x8C379A000000000000000000000000000000000000000000000000000000000 DUP2 MSTORE PUSH1 0x4 ADD PUSH2 0x216E SWAP1 PUSH2 0x7462 JUMP JUMPDEST PUSH1 0x40 MLOAD DUP1 SWAP2 SUB SWAP1 REVERT JUMPDEST PUSH1 0x0 DUP4 PUSH1 0x80 ADD MLOAD MLOAD SUB PUSH2 0x21BF JUMPI PUSH1 0x40 MLOAD PUSH32 0x8C379A000000000000000000000000000000000000000000000000000000000 DUP2 MSTORE PUSH1 0x4 ADD PUSH2 0x21B6 SWAP1 PUSH2 0x74CE JUMP JUMPDEST PUSH1 0x40 MLOAD DUP1 SWAP2 SUB SWAP1 REVERT JUMPDEST PUSH1 0x0 DUP1 SHL DUP4 PUSH1 0x0 ADD MLOAD SUB PUSH2 0x2208 JUMPI PUSH1 0x40 MLOAD PUSH32 0x8C379A000000000000000000000000000000000000000000000000000000000 DUP2 MSTORE PUSH1 0x4 ADD PUSH2 0x21FF SWAP1 PUSH2 0x74CE JUMP JUMPDEST PUSH1 0x40 MLOAD DUP1 SWAP2 SUB SWAP1 REVERT JUMPDEST PUSH2 0x2239 PUSH32 0xA49807205CE4D355092EF5A8A18F56E8913CF4A201FBE287825B095693C21775 PUSH2 0x2234 PUSH2 0x28C6 JUMP JUMPDEST PUSH2 0x1758 JUMP JUMPDEST ISZERO PUSH2 0x22AE JUMPI PUSH1 0x1 PUSH1 0x3 DUP2 GT ISZERO PUSH2 0x2252 JUMPI PUSH2 0x2251 PUSH2 0x659A JUMP JUMPDEST JUMPDEST DUP4 PUSH1 0x20 ADD MLOAD PUSH1 0x3 DUP2 GT ISZERO PUSH2 0x2269 JUMPI PUSH2 0x2268 PUSH2 0x659A JUMP JUMPDEST JUMPDEST EQ PUSH2 0x22A9 JUMPI PUSH1 0x40 MLOAD PUSH32 0x8C379A000000000000000000000000000000000000000000000000000000000 DUP2 MSTORE PUSH1 0x4 ADD PUSH2 0x22A0 SWAP1 PUSH2 0x753A JUMP JUMPDEST PUSH1 0x40 MLOAD DUP1 SWAP2 SUB SWAP1 REVERT JUMPDEST PUSH2 0x231A JUMP JUMPDEST PUSH1 0x1 PUSH1 0x3 DUP2 GT ISZERO PUSH2 0x22C2 JUMPI PUSH2 0x22C1 PUSH2 0x659A JUMP JUMPDEST JUMPDEST DUP4 PUSH1 0x20 ADD MLOAD PUSH1 0x3 DUP2 GT ISZERO PUSH2 0x22D9 JUMPI PUSH2 0x22D8 PUSH2 0x659A JUMP JUMPDEST JUMPDEST SUB PUSH2 0x2319 JUMPI PUSH1 0x40 MLOAD PUSH32 0x8C379A000000000000000000000000000000000000000000000000000000000 DUP2 MSTORE PUSH1 0x4 ADD PUSH2 0x2310 SWAP1 PUSH2 0x75CC JUMP JUMPDEST PUSH1 0x40 MLOAD DUP1 SWAP2 SUB SWAP1 REVERT JUMPDEST JUMPDEST PUSH1 0x0 DUP4 PUSH1 0x60 ADD MLOAD PUSH1 0x40 MLOAD PUSH1 0x20 ADD PUSH2 0x2331 SWAP2 SWAP1 PUSH2 0x7628 JUMP JUMPDEST PUSH1 0x40 MLOAD PUSH1 0x20 DUP2 DUP4 SUB SUB DUP2 MSTORE SWAP1 PUSH1 0x40 MSTORE DUP1 MLOAD SWAP1 PUSH1 0x20 ADD KECCAK256 SWAP1 POP PUSH1 0x0 PUSH2 0x2370 DUP6 PUSH1 0x0 ADD MLOAD DUP4 PUSH2 0x235C PUSH2 0x28C6 JUMP JUMPDEST DUP9 PUSH1 0x20 ADD MLOAD DUP10 PUSH1 0x40 ADD MLOAD DUP11 PUSH1 0x80 ADD MLOAD PUSH2 0x3C09 JUMP JUMPDEST SWAP1 POP PUSH1 0x0 PUSH2 0x237D DUP3 PUSH2 0x3C90 JUMP JUMPDEST SWAP1 POP PUSH1 0x0 DUP1 PUSH2 0x238C DUP4 DUP9 PUSH2 0x3CAA JUMP JUMPDEST SWAP2 POP SWAP2 POP PUSH1 0x0 PUSH1 0x4 DUP2 GT ISZERO PUSH2 0x23A4 JUMPI PUSH2 0x23A3 PUSH2 0x659A JUMP JUMPDEST JUMPDEST DUP2 PUSH1 0x4 DUP2 GT ISZERO PUSH2 0x23B7 JUMPI PUSH2 0x23B6 PUSH2 0x659A JUMP JUMPDEST JUMPDEST EQ PUSH2 0x240B JUMPI DUP1 PUSH1 0x4 DUP2 GT ISZERO PUSH2 0x23CF JUMPI PUSH2 0x23CE PUSH2 0x659A JUMP JUMPDEST JUMPDEST PUSH1 0x40 MLOAD PUSH32 0x64F17F0B00000000000000000000000000000000000000000000000000000000 DUP2 MSTORE PUSH1 0x4 ADD PUSH2 0x2402 SWAP2 SWAP1 PUSH2 0x6B53 JUMP JUMPDEST PUSH1 0x40 MLOAD DUP1 SWAP2 SUB SWAP1 REVERT JUMPDEST ADDRESS PUSH20 0xFFFFFFFFFFFFFFFFFFFFFFFFFFFFFFFFFFFFFFFF AND PUSH4 0x91D14854 PUSH32 0xA49807205CE4D355092EF5A8A18F56E8913CF4A201FBE287825B095693C21775 DUP5 PUSH1 0x40 MLOAD DUP4 PUSH4 0xFFFFFFFF AND PUSH1 0xE0 SHL DUP2 MSTORE PUSH1 0x4 ADD PUSH2 0x2466 SWAP3 SWAP2 SWAP1 PUSH2 0x763F JUMP JUMPDEST PUSH1 0x20 PUSH1 0x40 MLOAD DUP1 DUP4 SUB DUP2 DUP7 GAS STATICCALL ISZERO DUP1 ISZERO PUSH2 0x2483 JUMPI RETURNDATASIZE PUSH1 0x0 DUP1 RETURNDATACOPY RETURNDATASIZE PUSH1 0x0 REVERT JUMPDEST POP POP POP POP PUSH1 0x40 MLOAD RETURNDATASIZE PUSH1 0x1F NOT PUSH1 0x1F DUP3 ADD AND DUP3 ADD DUP1 PUSH1 0x40 MSTORE POP DUP2 ADD SWAP1 PUSH2 0x24A7 SWAP2 SWAP1 PUSH2 0x767D JUMP JUMPDEST PUSH2 0x24E6 JUMPI PUSH1 0x40 MLOAD PUSH32 0x8C379A000000000000000000000000000000000000000000000000000000000 DUP2 MSTORE PUSH1 0x4 ADD PUSH2 0x24DD SWAP1 PUSH2 0x771C JUMP JUMPDEST PUSH1 0x40 MLOAD DUP1 SWAP2 SUB SWAP1 REVERT JUMPDEST PUSH1 0x0 PUSH2 0x250D DUP10 PUSH1 0x0 ADD MLOAD DUP8 PUSH2 0x24F9 PUSH2 0x28C6 JUMP JUMPDEST DUP13 PUSH1 0x20 ADD MLOAD DUP14 PUSH1 0x40 ADD MLOAD DUP15 PUSH1 0x80 ADD MLOAD PUSH2 0x1BF1 JUMP JUMPDEST SWAP1 POP PUSH1 0x0 PUSH1 0xFD PUSH1 0x0 DUP4 DUP2 MSTORE PUSH1 0x20 ADD SWAP1 DUP2 MSTORE PUSH1 0x20 ADD PUSH1 0x0 KECCAK256 SWAP1 POP DUP2 DUP2 PUSH1 0x0 ADD DUP2 SWAP1 SSTORE POP PUSH1 0x0 PUSH1 0xFE SLOAD TIMESTAMP PUSH2 0x253F SWAP2 SWAP1 PUSH2 0x7750 JUMP JUMPDEST SWAP1 POP PUSH1 0x0 PUSH1 0xFF SLOAD TIMESTAMP PUSH2 0x2551 SWAP2 SWAP1 PUSH2 0x7750 JUMP JUMPDEST SWAP1 POP PUSH2 0x2569 DUP3 DUP5 PUSH1 0x4 ADD PUSH2 0x3D2B SWAP1 SWAP2 SWAP1 PUSH4 0xFFFFFFFF AND JUMP JUMPDEST PUSH2 0x257F DUP2 DUP5 PUSH1 0x5 ADD PUSH2 0x3D2B SWAP1 SWAP2 SWAP1 PUSH4 0xFFFFFFFF AND JUMP JUMPDEST DUP9 DUP4 PUSH1 0x2 ADD DUP2 SWAP1 SSTORE POP DUP12 PUSH1 0x0 ADD MLOAD DUP4 PUSH1 0x1 ADD DUP2 SWAP1 SSTORE POP PUSH2 0x259D PUSH2 0x28C6 JUMP JUMPDEST DUP4 PUSH1 0x3 ADD PUSH1 0x0 PUSH2 0x100 EXP DUP2 SLOAD DUP2 PUSH20 0xFFFFFFFFFFFFFFFFFFFFFFFFFFFFFFFFFFFFFFFF MUL NOT AND SWAP1 DUP4 PUSH20 0xFFFFFFFFFFFFFFFFFFFFFFFFFFFFFFFFFFFFFFFF AND MUL OR SWAP1 SSTORE POP DUP12 PUSH1 0x20 ADD MLOAD DUP4 PUSH1 0x6 ADD PUSH1 0x0 PUSH2 0x100 EXP DUP2 SLOAD DUP2 PUSH1 0xFF MUL NOT AND SWAP1 DUP4 PUSH1 0x3 DUP2 GT ISZERO PUSH2 0x260A JUMPI PUSH2 0x2609 PUSH2 0x659A JUMP JUMPDEST JUMPDEST MUL OR SWAP1 SSTORE POP DUP12 PUSH1 0x40 ADD MLOAD DUP4 PUSH1 0x6 ADD PUSH1 0x1 PUSH2 0x100 EXP DUP2 SLOAD DUP2 PUSH1 0xFF MUL NOT AND SWAP1 DUP4 PUSH1 0x4 DUP2 GT ISZERO PUSH2 0x263A JUMPI PUSH2 0x2639 PUSH2 0x659A JUMP JUMPDEST JUMPDEST MUL OR SWAP1 SSTORE POP DUP12 PUSH1 0x80 ADD MLOAD DUP4 PUSH1 0x7 ADD SWAP1 DUP1 MLOAD SWAP1 PUSH1 0x20 ADD SWAP1 PUSH2 0x265B SWAP3 SWAP2 SWAP1 PUSH2 0x5E71 JUMP JUMPDEST POP PUSH2 0x2665 DUP4 PUSH2 0x3D5A JUMP JUMPDEST DUP4 SWAP10 POP POP POP POP POP POP POP POP POP POP SWAP3 SWAP2 POP POP JUMP JUMPDEST PUSH1 0x0 PUSH32 0x1FFC9A700000000000000000000000000000000000000000000000000000000 PUSH28 0xFFFFFFFFFFFFFFFFFFFFFFFFFFFFFFFFFFFFFFFFFFFFFFFFFFFFFFFF NOT AND DUP3 PUSH28 0xFFFFFFFFFFFFFFFFFFFFFFFFFFFFFFFFFFFFFFFFFFFFFFFFFFFFFFFF NOT AND EQ SWAP1 POP SWAP2 SWAP1 POP JUMP JUMPDEST PUSH1 0x0 DUP1 PUSH1 0x1 SWAP1 SLOAD SWAP1 PUSH2 0x100 EXP SWAP1 DIV PUSH1 0xFF AND ISZERO PUSH2 0x2758 JUMPI PUSH1 0x1 DUP3 PUSH1 0xFF AND EQ DUP1 ISZERO PUSH2 0x2710 JUMPI POP PUSH2 0x270E ADDRESS PUSH2 0x4C38 JUMP JUMPDEST ISZERO JUMPDEST PUSH2 0x274F JUMPI PUSH1 0x40 MLOAD PUSH32 0x8C379A000000000000000000000000000000000000000000000000000000000 DUP2 MSTORE PUSH1 0x4 ADD PUSH2 0x2746 SWAP1 PUSH2 0x7800 JUMP JUMPDEST PUSH1 0x40 MLOAD DUP1 SWAP2 SUB SWAP1 REVERT JUMPDEST PUSH1 0x0 SWAP1 POP PUSH2 0x27CC JUMP JUMPDEST DUP2 PUSH1 0xFF AND PUSH1 0x0 DUP1 SLOAD SWAP1 PUSH2 0x100 EXP SWAP1 DIV PUSH1 0xFF AND PUSH1 0xFF AND LT PUSH2 0x27AD JUMPI PUSH1 0x40 MLOAD PUSH32 0x8C379A000000000000000000000000000000000000000000000000000000000 DUP2 MSTORE PUSH1 0x4 ADD PUSH2 0x27A4 SWAP1 PUSH2 0x7800 JUMP JUMPDEST PUSH1 0x40 MLOAD DUP1 SWAP2 SUB SWAP1 REVERT JUMPDEST DUP2 PUSH1 0x0 DUP1 PUSH2 0x100 EXP DUP2 SLOAD DUP2 PUSH1 0xFF MUL NOT AND SWAP1 DUP4 PUSH1 0xFF AND MUL OR SWAP1 SSTORE POP PUSH1 0x1 SWAP1 POP JUMPDEST SWAP2 SWAP1 POP JUMP JUMPDEST PUSH2 0x27E2 DUP2 PUSH2 0x27DD PUSH2 0x28C6 JUMP JUMPDEST PUSH2 0x4C5B JUMP JUMPDEST POP JUMP JUMPDEST PUSH2 0x27EF DUP3 DUP3 PUSH2 0x1758 JUMP JUMPDEST PUSH2 0x28C2 JUMPI PUSH1 0x1 PUSH1 0xC9 PUSH1 0x0 DUP5 DUP2 MSTORE PUSH1 0x20 ADD SWAP1 DUP2 MSTORE PUSH1 0x20 ADD PUSH1 0x0 KECCAK256 PUSH1 0x0 ADD PUSH1 0x0 DUP4 PUSH20 0xFFFFFFFFFFFFFFFFFFFFFFFFFFFFFFFFFFFFFFFF AND PUSH20 0xFFFFFFFFFFFFFFFFFFFFFFFFFFFFFFFFFFFFFFFF AND DUP2 MSTORE PUSH1 0x20 ADD SWAP1 DUP2 MSTORE PUSH1 0x20 ADD PUSH1 0x0 KECCAK256 PUSH1 0x0 PUSH2 0x100 EXP DUP2 SLOAD DUP2 PUSH1 0xFF MUL NOT AND SWAP1 DUP4 ISZERO ISZERO MUL OR SWAP1 SSTORE POP PUSH2 0x2867 PUSH2 0x28C6 JUMP JUMPDEST PUSH20 0xFFFFFFFFFFFFFFFFFFFFFFFFFFFFFFFFFFFFFFFF AND DUP2 PUSH20 0xFFFFFFFFFFFFFFFFFFFFFFFFFFFFFFFFFFFFFFFF AND DUP4 PUSH32 0x2F8788117E7EFF1D82E926EC794901D17C78024A50270940304540A733656F0D PUSH1 0x40 MLOAD PUSH1 0x40 MLOAD DUP1 SWAP2 SUB SWAP1 LOG4 JUMPDEST POP POP JUMP JUMPDEST PUSH1 0x0 CALLER SWAP1 POP SWAP1 JUMP JUMPDEST PUSH2 0x28D8 DUP3 DUP3 PUSH2 0x1758 JUMP JUMPDEST ISZERO PUSH2 0x29AC JUMPI PUSH1 0x0 PUSH1 0xC9 PUSH1 0x0 DUP5 DUP2 MSTORE PUSH1 0x20 ADD SWAP1 DUP2 MSTORE PUSH1 0x20 ADD PUSH1 0x0 KECCAK256 PUSH1 0x0 ADD PUSH1 0x0 DUP4 PUSH20 0xFFFFFFFFFFFFFFFFFFFFFFFFFFFFFFFFFFFFFFFF AND PUSH20 0xFFFFFFFFFFFFFFFFFFFFFFFFFFFFFFFFFFFFFFFF AND DUP2 MSTORE PUSH1 0x20 ADD SWAP1 DUP2 MSTORE PUSH1 0x20 ADD PUSH1 0x0 KECCAK256 PUSH1 0x0 PUSH2 0x100 EXP DUP2 SLOAD DUP2 PUSH1 0xFF MUL NOT AND SWAP1 DUP4 ISZERO ISZERO MUL OR SWAP1 SSTORE POP PUSH2 0x2951 PUSH2 0x28C6 JUMP JUMPDEST PUSH20 0xFFFFFFFFFFFFFFFFFFFFFFFFFFFFFFFFFFFFFFFF AND DUP2 PUSH20 0xFFFFFFFFFFFFFFFFFFFFFFFFFFFFFFFFFFFFFFFF AND DUP4 PUSH32 0xF6391F5C32D9C69D2A47EA670B442974B53935D1EDC7FD64EB21E047A839171B PUSH1 0x40 MLOAD PUSH1 0x40 MLOAD DUP1 SWAP2 SUB SWAP1 LOG4 JUMPDEST POP POP JUMP JUMPDEST PUSH1 0x0 PUSH2 0x29DE PUSH32 0x360894A13BA1A3210667C828492DB98DCA3E2076CC3735A920A3CA505D382BBC PUSH1 0x0 SHL PUSH2 0x4CF8 JUMP JUMPDEST PUSH1 0x0 ADD PUSH1 0x0 SWAP1 SLOAD SWAP1 PUSH2 0x100 EXP SWAP1 DIV PUSH20 0xFFFFFFFFFFFFFFFFFFFFFFFFFFFFFFFFFFFFFFFF AND SWAP1 POP SWAP1 JUMP JUMPDEST PUSH1 0x0 PUSH20 0xFFFFFFFFFFFFFFFFFFFFFFFFFFFFFFFFFFFFFFFF AND DUP2 PUSH20 0xFFFFFFFFFFFFFFFFFFFFFFFFFFFFFFFFFFFFFFFF AND SUB PUSH2 0x2A76 JUMPI PUSH1 0x40 MLOAD PUSH32 0x8C379A000000000000000000000000000000000000000000000000000000000 DUP2 MSTORE PUSH1 0x4 ADD PUSH2 0x2A6D SWAP1 PUSH2 0x786C JUMP JUMPDEST PUSH1 0x40 MLOAD DUP1 SWAP2 SUB SWAP1 REVERT JUMPDEST PUSH2 0x2A7E PUSH2 0x29B0 JUMP JUMPDEST PUSH2 0x106 PUSH1 0x0 PUSH2 0x100 EXP DUP2 SLOAD DUP2 PUSH20 0xFFFFFFFFFFFFFFFFFFFFFFFFFFFFFFFFFFFFFFFF MUL NOT AND SWAP1 DUP4 PUSH20 0xFFFFFFFFFFFFFFFFFFFFFFFFFFFFFFFFFFFFFFFF AND MUL OR SWAP1 SSTORE POP PUSH2 0x2AF0 PUSH32 0xA49807205CE4D355092EF5A8A18F56E8913CF4A201FBE287825B095693C21775 PUSH2 0x2AEB PUSH2 0x28C6 JUMP JUMPDEST PUSH2 0x1758 JUMP JUMPDEST POP POP JUMP JUMPDEST PUSH2 0x2B20 PUSH32 0x4910FDFA16FED3260ED0E7147F7CC6DA11A60208B5B9406D12A635614FFD9143 PUSH1 0x0 SHL PUSH2 0x4D02 JUMP JUMPDEST PUSH1 0x0 ADD PUSH1 0x0 SWAP1 SLOAD SWAP1 PUSH2 0x100 EXP SWAP1 DIV PUSH1 0xFF AND ISZERO PUSH2 0x2B44 JUMPI PUSH2 0x2B3F DUP4 PUSH2 0x4D0C JUMP JUMPDEST PUSH2 0x2C5D JUMP JUMPDEST DUP3 PUSH20 0xFFFFFFFFFFFFFFFFFFFFFFFFFFFFFFFFFFFFFFFF AND PUSH4 0x52D1902D PUSH1 0x40 MLOAD DUP2 PUSH4 0xFFFFFFFF AND PUSH1 0xE0 SHL DUP2 MSTORE PUSH1 0x4 ADD PUSH1 0x20 PUSH1 0x40 MLOAD DUP1 DUP4 SUB DUP2 DUP7 GAS STATICCALL SWAP3 POP POP POP DUP1 ISZERO PUSH2 0x2BAC JUMPI POP PUSH1 0x40 MLOAD RETURNDATASIZE PUSH1 0x1F NOT PUSH1 0x1F DUP3 ADD AND DUP3 ADD DUP1 PUSH1 0x40 MSTORE POP DUP2 ADD SWAP1 PUSH2 0x2BA9 SWAP2 SWAP1 PUSH2 0x78A1 JUMP JUMPDEST PUSH1 0x1 JUMPDEST PUSH2 0x2BEB JUMPI PUSH1 0x40 MLOAD PUSH32 0x8C379A000000000000000000000000000000000000000000000000000000000 DUP2 MSTORE PUSH1 0x4 ADD PUSH2 0x2BE2 SWAP1 PUSH2 0x7940 JUMP JUMPDEST PUSH1 0x40 MLOAD DUP1 SWAP2 SUB SWAP1 REVERT JUMPDEST PUSH32 0x360894A13BA1A3210667C828492DB98DCA3E2076CC3735A920A3CA505D382BBC PUSH1 0x0 SHL DUP2 EQ PUSH2 0x2C50 JUMPI PUSH1 0x40 MLOAD PUSH32 0x8C379A000000000000000000000000000000000000000000000000000000000 DUP2 MSTORE PUSH1 0x4 ADD PUSH2 0x2C47 SWAP1 PUSH2 0x79D2 JUMP JUMPDEST PUSH1 0x40 MLOAD DUP1 SWAP2 SUB SWAP1 REVERT JUMPDEST POP PUSH2 0x2C5C DUP4 DUP4 DUP4 PUSH2 0x4DC5 JUMP JUMPDEST JUMPDEST POP POP POP JUMP JUMPDEST PUSH1 0x0 TIMESTAMP DUP3 PUSH1 0x0 ADD MLOAD PUSH8 0xFFFFFFFFFFFFFFFF AND GT SWAP1 POP SWAP2 SWAP1 POP JUMP JUMPDEST PUSH1 0x0 DUP1 PUSH1 0xFC PUSH1 0x0 DUP5 DUP2 MSTORE PUSH1 0x20 ADD SWAP1 DUP2 MSTORE PUSH1 0x20 ADD PUSH1 0x0 KECCAK256 SWAP1 POP DUP1 PUSH1 0x0 ADD PUSH1 0x10 SWAP1 SLOAD SWAP1 PUSH2 0x100 EXP SWAP1 DIV PUSH8 0xFFFFFFFFFFFFFFFF AND DUP2 PUSH1 0x0 ADD PUSH1 0x0 SWAP1 SLOAD SWAP1 PUSH2 0x100 EXP SWAP1 DIV PUSH8 0xFFFFFFFFFFFFFFFF AND DUP3 PUSH1 0x0 ADD PUSH1 0x8 SWAP1 SLOAD SWAP1 PUSH2 0x100 EXP SWAP1 DIV PUSH8 0xFFFFFFFFFFFFFFFF AND PUSH2 0x2CE9 SWAP2 SWAP1 PUSH2 0x7750 JUMP JUMPDEST PUSH2 0x2CF3 SWAP2 SWAP1 PUSH2 0x7750 JUMP JUMPDEST PUSH8 0xFFFFFFFFFFFFFFFF AND PUSH2 0x105 PUSH1 0x0 SWAP1 SLOAD SWAP1 PUSH2 0x100 EXP SWAP1 DIV PUSH4 0xFFFFFFFF AND PUSH4 0xFFFFFFFF AND EQ SWAP2 POP POP SWAP2 SWAP1 POP JUMP JUMPDEST PUSH1 0x0 PUSH2 0x2D2B DUP3 PUSH2 0x4DF1 JUMP JUMPDEST DUP1 ISZERO PUSH2 0x2D45 JUMPI POP TIMESTAMP DUP3 PUSH1 0x0 ADD MLOAD PUSH8 0xFFFFFFFFFFFFFFFF AND GT ISZERO JUMPDEST SWAP1 POP SWAP2 SWAP1 POP JUMP JUMPDEST PUSH1 0x0 DUP1 PUSH1 0xFC PUSH1 0x0 DUP5 DUP2 MSTORE PUSH1 0x20 ADD SWAP1 DUP2 MSTORE PUSH1 0x20 ADD PUSH1 0x0 KECCAK256 SWAP1 POP PUSH1 0x1 PUSH1 0x2 PUSH2 0x105 PUSH1 0x0 SWAP1 SLOAD SWAP1 PUSH2 0x100 EXP SWAP1 DIV PUSH4 0xFFFFFFFF AND PUSH2 0x2D86 SWAP2 SWAP1 PUSH2 0x7A21 JUMP JUMPDEST PUSH2 0x2D90 SWAP2 SWAP1 PUSH2 0x7A52 JUMP JUMPDEST PUSH4 0xFFFFFFFF AND DUP2 PUSH1 0x0 ADD PUSH1 0x8 SWAP1 SLOAD SWAP1 PUSH2 0x100 EXP SWAP1 DIV PUSH8 0xFFFFFFFFFFFFFFFF AND PUSH8 0xFFFFFFFFFFFFFFFF AND LT ISZERO SWAP2 POP POP SWAP2 SWAP1 POP JUMP JUMPDEST PUSH1 0x0 DUP1 PUSH1 0x3 DUP2 GT ISZERO PUSH2 0x2DD8 JUMPI PUSH2 0x2DD7 PUSH2 0x659A JUMP JUMPDEST JUMPDEST DUP4 PUSH1 0x3 DUP2 GT ISZERO PUSH2 0x2DEB JUMPI PUSH2 0x2DEA PUSH2 0x659A JUMP JUMPDEST JUMPDEST SUB PUSH2 0x2E2B JUMPI PUSH1 0x40 MLOAD PUSH32 0x8C379A000000000000000000000000000000000000000000000000000000000 DUP2 MSTORE PUSH1 0x4 ADD PUSH2 0x2E22 SWAP1 PUSH2 0x7AD8 JUMP JUMPDEST PUSH1 0x40 MLOAD DUP1 SWAP2 SUB SWAP1 REVERT JUMPDEST PUSH1 0x2 PUSH1 0x7 DUP2 GT ISZERO PUSH2 0x2E3F JUMPI PUSH2 0x2E3E PUSH2 0x659A JUMP JUMPDEST JUMPDEST PUSH2 0x2E48 DUP7 PUSH2 0x14A2 JUMP JUMPDEST PUSH1 0x7 DUP2 GT ISZERO PUSH2 0x2E5A JUMPI PUSH2 0x2E59 PUSH2 0x659A JUMP JUMPDEST JUMPDEST EQ PUSH2 0x2E9A JUMPI PUSH1 0x40 MLOAD PUSH32 0x8C379A000000000000000000000000000000000000000000000000000000000 DUP2 MSTORE PUSH1 0x4 ADD PUSH2 0x2E91 SWAP1 PUSH2 0x7B6A JUMP JUMPDEST PUSH1 0x40 MLOAD DUP1 SWAP2 SUB SWAP1 REVERT JUMPDEST PUSH1 0x0 PUSH1 0xFC PUSH1 0x0 DUP8 DUP2 MSTORE PUSH1 0x20 ADD SWAP1 DUP2 MSTORE PUSH1 0x20 ADD PUSH1 0x0 KECCAK256 SWAP1 POP PUSH2 0x2EC7 DUP6 DUP3 PUSH1 0x1 ADD PUSH2 0x30F6 SWAP1 SWAP2 SWAP1 PUSH4 0xFFFFFFFF AND JUMP JUMPDEST ISZERO PUSH2 0x2F07 JUMPI PUSH1 0x40 MLOAD PUSH32 0x8C379A000000000000000000000000000000000000000000000000000000000 DUP2 MSTORE PUSH1 0x4 ADD PUSH2 0x2EFE SWAP1 PUSH2 0x7BD6 JUMP JUMPDEST PUSH1 0x40 MLOAD DUP1 SWAP2 SUB SWAP1 REVERT JUMPDEST PUSH2 0x2F1D DUP6 DUP3 PUSH1 0x1 ADD PUSH2 0x4E0B SWAP1 SWAP2 SWAP1 PUSH4 0xFFFFFFFF AND JUMP JUMPDEST POP PUSH1 0x1 PUSH1 0x3 DUP2 GT ISZERO PUSH2 0x2F32 JUMPI PUSH2 0x2F31 PUSH2 0x659A JUMP JUMPDEST JUMPDEST DUP5 PUSH1 0x3 DUP2 GT ISZERO PUSH2 0x2F45 JUMPI PUSH2 0x2F44 PUSH2 0x659A JUMP JUMPDEST JUMPDEST SUB PUSH2 0x2F9D JUMPI PUSH1 0x1 DUP2 PUSH1 0x0 ADD PUSH1 0x0 DUP3 DUP3 DUP3 SWAP1 SLOAD SWAP1 PUSH2 0x100 EXP SWAP1 DIV PUSH8 0xFFFFFFFFFFFFFFFF AND PUSH2 0x2F72 SWAP2 SWAP1 PUSH2 0x7750 JUMP JUMPDEST SWAP3 POP PUSH2 0x100 EXP DUP2 SLOAD DUP2 PUSH8 0xFFFFFFFFFFFFFFFF MUL NOT AND SWAP1 DUP4 PUSH8 0xFFFFFFFFFFFFFFFF AND MUL OR SWAP1 SSTORE POP PUSH2 0x3098 JUMP JUMPDEST PUSH1 0x2 PUSH1 0x3 DUP2 GT ISZERO PUSH2 0x2FB1 JUMPI PUSH2 0x2FB0 PUSH2 0x659A JUMP JUMPDEST JUMPDEST DUP5 PUSH1 0x3 DUP2 GT ISZERO PUSH2 0x2FC4 JUMPI PUSH2 0x2FC3 PUSH2 0x659A JUMP JUMPDEST JUMPDEST SUB PUSH2 0x301C JUMPI PUSH1 0x1 DUP2 PUSH1 0x0 ADD PUSH1 0x8 DUP3 DUP3 DUP3 SWAP1 SLOAD SWAP1 PUSH2 0x100 EXP SWAP1 DIV PUSH8 0xFFFFFFFFFFFFFFFF AND PUSH2 0x2FF1 SWAP2 SWAP1 PUSH2 0x7750 JUMP JUMPDEST SWAP3 POP PUSH2 0x100 EXP DUP2 SLOAD DUP2 PUSH8 0xFFFFFFFFFFFFFFFF MUL NOT AND SWAP1 DUP4 PUSH8 0xFFFFFFFFFFFFFFFF AND MUL OR SWAP1 SSTORE POP PUSH2 0x3097 JUMP JUMPDEST PUSH1 0x3 DUP1 DUP2 GT ISZERO PUSH2 0x302F JUMPI PUSH2 0x302E PUSH2 0x659A JUMP JUMPDEST JUMPDEST DUP5 PUSH1 0x3 DUP2 GT ISZERO PUSH2 0x3042 JUMPI PUSH2 0x3041 PUSH2 0x659A JUMP JUMPDEST JUMPDEST SUB PUSH2 0x3096 JUMPI PUSH1 0x1 DUP2 PUSH1 0x0 ADD PUSH1 0x10 DUP3 DUP3 DUP3 SWAP1 SLOAD SWAP1 PUSH2 0x100 EXP SWAP1 DIV PUSH8 0xFFFFFFFFFFFFFFFF AND PUSH2 0x306F SWAP2 SWAP1 PUSH2 0x7750 JUMP JUMPDEST SWAP3 POP PUSH2 0x100 EXP DUP2 SLOAD DUP2 PUSH8 0xFFFFFFFFFFFFFFFF MUL NOT AND SWAP1 DUP4 PUSH8 0xFFFFFFFFFFFFFFFF AND MUL OR SWAP1 SSTORE POP JUMPDEST JUMPDEST JUMPDEST DUP6 DUP6 PUSH20 0xFFFFFFFFFFFFFFFFFFFFFFFFFFFFFFFFFFFFFFFF AND PUSH32 0xBBB255028C79DEA070E4449C346283DA7B4B66693776C096BB820822E4D9C41A DUP7 DUP7 PUSH1 0x40 MLOAD PUSH2 0x30E1 SWAP3 SWAP2 SWAP1 PUSH2 0x7C3E JUMP JUMPDEST PUSH1 0x40 MLOAD DUP1 SWAP2 SUB SWAP1 LOG3 PUSH1 0x1 SWAP2 POP POP SWAP5 SWAP4 POP POP POP POP JUMP JUMPDEST PUSH1 0x0 PUSH2 0x311E DUP4 PUSH1 0x0 ADD DUP4 PUSH20 0xFFFFFFFFFFFFFFFFFFFFFFFFFFFFFFFFFFFFFFFF AND PUSH1 0x0 SHL PUSH2 0x4E3B JUMP JUMPDEST SWAP1 POP SWAP3 SWAP2 POP POP JUMP JUMPDEST PUSH1 0x0 DUP1 PUSH1 0x1 SWAP1 POP PUSH1 0x1 PUSH1 0x3 DUP2 GT ISZERO PUSH2 0x3141 JUMPI PUSH2 0x3140 PUSH2 0x659A JUMP JUMPDEST JUMPDEST DUP4 PUSH1 0x6 ADD PUSH1 0x0 SWAP1 SLOAD SWAP1 PUSH2 0x100 EXP SWAP1 DIV PUSH1 0xFF AND PUSH1 0x3 DUP2 GT ISZERO PUSH2 0x3165 JUMPI PUSH2 0x3164 PUSH2 0x659A JUMP JUMPDEST JUMPDEST SUB PUSH2 0x337F JUMPI PUSH1 0x1 PUSH1 0x4 DUP2 GT ISZERO PUSH2 0x317E JUMPI PUSH2 0x317D PUSH2 0x659A JUMP JUMPDEST JUMPDEST DUP4 PUSH1 0x6 ADD PUSH1 0x1 SWAP1 SLOAD SWAP1 PUSH2 0x100 EXP SWAP1 DIV PUSH1 0xFF AND PUSH1 0x4 DUP2 GT ISZERO PUSH2 0x31A2 JUMPI PUSH2 0x31A1 PUSH2 0x659A JUMP JUMPDEST JUMPDEST SUB PUSH2 0x337A JUMPI PUSH1 0x0 DUP4 PUSH1 0x7 ADD DUP1 SLOAD PUSH2 0x31B8 SWAP1 PUSH2 0x6B06 JUMP JUMPDEST DUP1 PUSH1 0x1F ADD PUSH1 0x20 DUP1 SWAP2 DIV MUL PUSH1 0x20 ADD PUSH1 0x40 MLOAD SWAP1 DUP2 ADD PUSH1 0x40 MSTORE DUP1 SWAP3 SWAP2 SWAP1 DUP2 DUP2 MSTORE PUSH1 0x20 ADD DUP3 DUP1 SLOAD PUSH2 0x31E4 SWAP1 PUSH2 0x6B06 JUMP JUMPDEST DUP1 ISZERO PUSH2 0x3231 JUMPI DUP1 PUSH1 0x1F LT PUSH2 0x3206 JUMPI PUSH2 0x100 DUP1 DUP4 SLOAD DIV MUL DUP4 MSTORE SWAP2 PUSH1 0x20 ADD SWAP2 PUSH2 0x3231 JUMP JUMPDEST DUP3 ADD SWAP2 SWAP1 PUSH1 0x0 MSTORE PUSH1 0x20 PUSH1 0x0 KECCAK256 SWAP1 JUMPDEST DUP2 SLOAD DUP2 MSTORE SWAP1 PUSH1 0x1 ADD SWAP1 PUSH1 0x20 ADD DUP1 DUP4 GT PUSH2 0x3214 JUMPI DUP3 SWAP1 SUB PUSH1 0x1F AND DUP3 ADD SWAP2 JUMPDEST POP POP POP POP POP DUP1 PUSH1 0x20 ADD SWAP1 MLOAD DUP2 ADD SWAP1 PUSH2 0x3249 SWAP2 SWAP1 PUSH2 0x7D5F JUMP JUMPDEST SWAP1 POP PUSH1 0x40 MLOAD DUP1 PUSH1 0x60 ADD PUSH1 0x40 MSTORE DUP1 DUP3 PUSH1 0x0 ADD MLOAD DUP2 MSTORE PUSH1 0x20 ADD PUSH1 0x1 PUSH1 0x2 DUP2 GT ISZERO PUSH2 0x3274 JUMPI PUSH2 0x3273 PUSH2 0x659A JUMP JUMPDEST JUMPDEST DUP2 MSTORE PUSH1 0x20 ADD PUSH1 0x1 ISZERO ISZERO DUP2 MSTORE POP PUSH1 0xFB PUSH1 0x0 DUP4 PUSH1 0x20 ADD MLOAD PUSH20 0xFFFFFFFFFFFFFFFFFFFFFFFFFFFFFFFFFFFFFFFF AND PUSH20 0xFFFFFFFFFFFFFFFFFFFFFFFFFFFFFFFFFFFFFFFF AND DUP2 MSTORE PUSH1 0x20 ADD SWAP1 DUP2 MSTORE PUSH1 0x20 ADD PUSH1 0x0 KECCAK256 PUSH1 0x0 DUP3 ADD MLOAD DUP2 PUSH1 0x0 ADD SWAP1 DUP1 MLOAD SWAP1 PUSH1 0x20 ADD SWAP1 PUSH2 0x32DF SWAP3 SWAP2 SWAP1 PUSH2 0x5EF7 JUMP JUMPDEST POP PUSH1 0x20 DUP3 ADD MLOAD DUP2 PUSH1 0x1 ADD PUSH1 0x0 PUSH2 0x100 EXP DUP2 SLOAD DUP2 PUSH1 0xFF MUL NOT AND SWAP1 DUP4 PUSH1 0x2 DUP2 GT ISZERO PUSH2 0x330B JUMPI PUSH2 0x330A PUSH2 0x659A JUMP JUMPDEST JUMPDEST MUL OR SWAP1 SSTORE POP PUSH1 0x40 DUP3 ADD MLOAD DUP2 PUSH1 0x1 ADD PUSH1 0x1 PUSH2 0x100 EXP DUP2 SLOAD DUP2 PUSH1 0xFF MUL NOT AND SWAP1 DUP4 ISZERO ISZERO MUL OR SWAP1 SSTORE POP SWAP1 POP POP PUSH1 0x1 PUSH2 0x105 PUSH1 0x0 DUP3 DUP3 DUP3 SWAP1 SLOAD SWAP1 PUSH2 0x100 EXP SWAP1 DIV PUSH4 0xFFFFFFFF AND PUSH2 0x3356 SWAP2 SWAP1 PUSH2 0x7A52 JUMP JUMPDEST SWAP3 POP PUSH2 0x100 EXP DUP2 SLOAD DUP2 PUSH4 0xFFFFFFFF MUL NOT AND SWAP1 DUP4 PUSH4 0xFFFFFFFF AND MUL OR SWAP1 SSTORE POP PUSH1 0x1 SWAP2 POP POP JUMPDEST PUSH2 0x3C00 JUMP JUMPDEST PUSH2 0x105 PUSH1 0x8 SWAP1 SLOAD SWAP1 PUSH2 0x100 EXP SWAP1 DIV PUSH1 0xFF AND ISZERO DUP1 ISZERO PUSH2 0x33D2 JUMPI POP PUSH1 0x2 PUSH1 0x3 DUP2 GT ISZERO PUSH2 0x33AC JUMPI PUSH2 0x33AB PUSH2 0x659A JUMP JUMPDEST JUMPDEST DUP4 PUSH1 0x6 ADD PUSH1 0x0 SWAP1 SLOAD SWAP1 PUSH2 0x100 EXP SWAP1 DIV PUSH1 0xFF AND PUSH1 0x3 DUP2 GT ISZERO PUSH2 0x33D0 JUMPI PUSH2 0x33CF PUSH2 0x659A JUMP JUMPDEST JUMPDEST EQ JUMPDEST ISZERO PUSH2 0x3BFF JUMPI PUSH1 0x1 PUSH1 0x4 DUP2 GT ISZERO PUSH2 0x33EB JUMPI PUSH2 0x33EA PUSH2 0x659A JUMP JUMPDEST JUMPDEST DUP4 PUSH1 0x6 ADD PUSH1 0x1 SWAP1 SLOAD SWAP1 PUSH2 0x100 EXP SWAP1 DIV PUSH1 0xFF AND PUSH1 0x4 DUP2 GT ISZERO PUSH2 0x340F JUMPI PUSH2 0x340E PUSH2 0x659A JUMP JUMPDEST JUMPDEST SUB PUSH2 0x37B5 JUMPI PUSH1 0x0 DUP4 PUSH1 0x7 ADD DUP1 SLOAD PUSH2 0x3425 SWAP1 PUSH2 0x6B06 JUMP JUMPDEST DUP1 PUSH1 0x1F ADD PUSH1 0x20 DUP1 SWAP2 DIV MUL PUSH1 0x20 ADD PUSH1 0x40 MLOAD SWAP1 DUP2 ADD PUSH1 0x40 MSTORE DUP1 SWAP3 SWAP2 SWAP1 DUP2 DUP2 MSTORE PUSH1 0x20 ADD DUP3 DUP1 SLOAD PUSH2 0x3451 SWAP1 PUSH2 0x6B06 JUMP JUMPDEST DUP1 ISZERO PUSH2 0x349E JUMPI DUP1 PUSH1 0x1F LT PUSH2 0x3473 JUMPI PUSH2 0x100 DUP1 DUP4 SLOAD DIV MUL DUP4 MSTORE SWAP2 PUSH1 0x20 ADD SWAP2 PUSH2 0x349E JUMP JUMPDEST DUP3 ADD SWAP2 SWAP1 PUSH1 0x0 MSTORE PUSH1 0x20 PUSH1 0x0 KECCAK256 SWAP1 JUMPDEST DUP2 SLOAD DUP2 MSTORE SWAP1 PUSH1 0x1 ADD SWAP1 PUSH1 0x20 ADD DUP1 DUP4 GT PUSH2 0x3481 JUMPI DUP3 SWAP1 SUB PUSH1 0x1F AND DUP3 ADD SWAP2 JUMPDEST POP POP POP POP POP DUP1 PUSH1 0x20 ADD SWAP1 MLOAD DUP2 ADD SWAP1 PUSH2 0x34B6 SWAP2 SWAP1 PUSH2 0x7E8B JUMP JUMPDEST SWAP1 POP PUSH2 0x34F6 PUSH1 0x40 MLOAD DUP1 PUSH1 0x40 ADD PUSH1 0x40 MSTORE DUP1 PUSH1 0x1B DUP2 MSTORE PUSH1 0x20 ADD PUSH32 0x7472616E7366657220746F6B656E4F6666736572202E202E202E200000000000 DUP2 MSTORE POP PUSH2 0x4E5E JUMP JUMPDEST DUP2 DUP1 ISZERO PUSH2 0x3511 JUMPI POP PUSH2 0x3510 DUP2 PUSH1 0x40 ADD MLOAD DUP3 PUSH1 0x20 ADD MLOAD PUSH2 0x4EF7 JUMP JUMPDEST JUMPDEST SWAP2 POP PUSH2 0x3551 PUSH1 0x40 MLOAD DUP1 PUSH1 0x40 ADD PUSH1 0x40 MSTORE DUP1 PUSH1 0x1D DUP2 MSTORE PUSH1 0x20 ADD PUSH32 0x7472616E7366657220253520636F6D6D697373696F6E202E202E202E20000000 DUP2 MSTORE POP PUSH2 0x4E5E JUMP JUMPDEST DUP2 DUP1 ISZERO PUSH2 0x35A3 JUMPI POP PUSH2 0x35A2 PUSH2 0x101 PUSH1 0x0 SWAP1 SLOAD SWAP1 PUSH2 0x100 EXP SWAP1 DIV PUSH20 0xFFFFFFFFFFFFFFFFFFFFFFFFFFFFFFFFFFFFFFFF AND PUSH1 0x64 DUP4 PUSH1 0x20 ADD MLOAD PUSH1 0x5 PUSH2 0x3593 SWAP2 SWAP1 PUSH2 0x7ED4 JUMP JUMPDEST PUSH2 0x359D SWAP2 SWAP1 PUSH2 0x7F2E JUMP JUMPDEST PUSH2 0x4EF7 JUMP JUMPDEST JUMPDEST SWAP2 POP PUSH2 0x35E3 PUSH1 0x40 MLOAD DUP1 PUSH1 0x40 ADD PUSH1 0x40 MSTORE DUP1 PUSH1 0x1B DUP2 MSTORE PUSH1 0x20 ADD PUSH32 0x7472616E736665722025312070726F706F736572202E202E202E200000000000 DUP2 MSTORE POP PUSH2 0x4E5E JUMP JUMPDEST DUP2 DUP1 ISZERO PUSH2 0x362A JUMPI POP PUSH2 0x3629 DUP5 PUSH1 0x3 ADD PUSH1 0x0 SWAP1 SLOAD SWAP1 PUSH2 0x100 EXP SWAP1 DIV PUSH20 0xFFFFFFFFFFFFFFFFFFFFFFFFFFFFFFFFFFFFFFFF AND PUSH1 0x64 DUP4 PUSH1 0x20 ADD MLOAD PUSH2 0x3624 SWAP2 SWAP1 PUSH2 0x7F2E JUMP JUMPDEST PUSH2 0x4EF7 JUMP JUMPDEST JUMPDEST SWAP2 POP PUSH2 0x366A PUSH1 0x40 MLOAD DUP1 PUSH1 0x40 ADD PUSH1 0x40 MSTORE DUP1 PUSH1 0x1A DUP2 MSTORE PUSH1 0x20 ADD PUSH32 0x7472616E736665722025322073657277617264202E202E202E20000000000000 DUP2 MSTORE POP PUSH2 0x4E5E JUMP JUMPDEST DUP2 DUP1 ISZERO PUSH2 0x3685 JUMPI POP PUSH2 0x3684 DUP5 PUSH1 0x0 ADD SLOAD DUP3 PUSH1 0x20 ADD MLOAD PUSH2 0x50D4 JUMP JUMPDEST JUMPDEST SWAP2 POP PUSH1 0x40 MLOAD DUP1 PUSH1 0x60 ADD PUSH1 0x40 MSTORE DUP1 DUP3 PUSH1 0x0 ADD MLOAD DUP2 MSTORE PUSH1 0x20 ADD PUSH1 0x2 DUP1 DUP2 GT ISZERO PUSH2 0x36AF JUMPI PUSH2 0x36AE PUSH2 0x659A JUMP JUMPDEST JUMPDEST DUP2 MSTORE PUSH1 0x20 ADD PUSH1 0x1 ISZERO ISZERO DUP2 MSTORE POP PUSH1 0xFB PUSH1 0x0 DUP4 PUSH1 0x40 ADD MLOAD PUSH20 0xFFFFFFFFFFFFFFFFFFFFFFFFFFFFFFFFFFFFFFFF AND PUSH20 0xFFFFFFFFFFFFFFFFFFFFFFFFFFFFFFFFFFFFFFFF AND DUP2 MSTORE PUSH1 0x20 ADD SWAP1 DUP2 MSTORE PUSH1 0x20 ADD PUSH1 0x0 KECCAK256 PUSH1 0x0 DUP3 ADD MLOAD DUP2 PUSH1 0x0 ADD SWAP1 DUP1 MLOAD SWAP1 PUSH1 0x20 ADD SWAP1 PUSH2 0x371A SWAP3 SWAP2 SWAP1 PUSH2 0x5EF7 JUMP JUMPDEST POP PUSH1 0x20 DUP3 ADD MLOAD DUP2 PUSH1 0x1 ADD PUSH1 0x0 PUSH2 0x100 EXP DUP2 SLOAD DUP2 PUSH1 0xFF MUL NOT AND SWAP1 DUP4 PUSH1 0x2 DUP2 GT ISZERO PUSH2 0x3746 JUMPI PUSH2 0x3745 PUSH2 0x659A JUMP JUMPDEST JUMPDEST MUL OR SWAP1 SSTORE POP PUSH1 0x40 DUP3 ADD MLOAD DUP2 PUSH1 0x1 ADD PUSH1 0x1 PUSH2 0x100 EXP DUP2 SLOAD DUP2 PUSH1 0xFF MUL NOT AND SWAP1 DUP4 ISZERO ISZERO MUL OR SWAP1 SSTORE POP SWAP1 POP POP PUSH1 0x1 PUSH2 0x105 PUSH1 0x4 DUP3 DUP3 DUP3 SWAP1 SLOAD SWAP1 PUSH2 0x100 EXP SWAP1 DIV PUSH4 0xFFFFFFFF AND PUSH2 0x3791 SWAP2 SWAP1 PUSH2 0x7A52 JUMP JUMPDEST SWAP3 POP PUSH2 0x100 EXP DUP2 SLOAD DUP2 PUSH4 0xFFFFFFFF MUL NOT AND SWAP1 DUP4 PUSH4 0xFFFFFFFF AND MUL OR SWAP1 SSTORE POP POP PUSH2 0x3BFE JUMP JUMPDEST PUSH1 0x2 PUSH1 0x4 DUP2 GT ISZERO PUSH2 0x37C9 JUMPI PUSH2 0x37C8 PUSH2 0x659A JUMP JUMPDEST JUMPDEST DUP4 PUSH1 0x6 ADD PUSH1 0x1 SWAP1 SLOAD SWAP1 PUSH2 0x100 EXP SWAP1 DIV PUSH1 0xFF AND PUSH1 0x4 DUP2 GT ISZERO PUSH2 0x37ED JUMPI PUSH2 0x37EC PUSH2 0x659A JUMP JUMPDEST JUMPDEST SUB PUSH2 0x3A14 JUMPI PUSH1 0x0 DUP4 PUSH1 0x7 ADD DUP1 SLOAD PUSH2 0x3803 SWAP1 PUSH2 0x6B06 JUMP JUMPDEST DUP1 PUSH1 0x1F ADD PUSH1 0x20 DUP1 SWAP2 DIV MUL PUSH1 0x20 ADD PUSH1 0x40 MLOAD SWAP1 DUP2 ADD PUSH1 0x40 MSTORE DUP1 SWAP3 SWAP2 SWAP1 DUP2 DUP2 MSTORE PUSH1 0x20 ADD DUP3 DUP1 SLOAD PUSH2 0x382F SWAP1 PUSH2 0x6B06 JUMP JUMPDEST DUP1 ISZERO PUSH2 0x387C JUMPI DUP1 PUSH1 0x1F LT PUSH2 0x3851 JUMPI PUSH2 0x100 DUP1 DUP4 SLOAD DIV MUL DUP4 MSTORE SWAP2 PUSH1 0x20 ADD SWAP2 PUSH2 0x387C JUMP JUMPDEST DUP3 ADD SWAP2 SWAP1 PUSH1 0x0 MSTORE PUSH1 0x20 PUSH1 0x0 KECCAK256 SWAP1 JUMPDEST DUP2 SLOAD DUP2 MSTORE SWAP1 PUSH1 0x1 ADD SWAP1 PUSH1 0x20 ADD DUP1 DUP4 GT PUSH2 0x385F JUMPI DUP3 SWAP1 SUB PUSH1 0x1F AND DUP3 ADD SWAP2 JUMPDEST POP POP POP POP POP DUP1 PUSH1 0x20 ADD SWAP1 MLOAD DUP2 ADD SWAP1 PUSH2 0x3894 SWAP2 SWAP1 PUSH2 0x7FF3 JUMP JUMPDEST SWAP1 POP PUSH2 0x38B7 PUSH1 0x40 MLOAD DUP1 PUSH1 0x60 ADD PUSH1 0x40 MSTORE DUP1 PUSH1 0x21 DUP2 MSTORE PUSH1 0x20 ADD PUSH2 0x9089 PUSH1 0x21 SWAP2 CODECOPY PUSH2 0x4E5E JUMP JUMPDEST DUP2 DUP1 ISZERO PUSH2 0x38D2 JUMPI POP PUSH2 0x38D1 DUP2 PUSH1 0x40 ADD MLOAD DUP3 PUSH1 0x20 ADD MLOAD PUSH2 0x4EF7 JUMP JUMPDEST JUMPDEST SWAP2 POP PUSH2 0x38F5 PUSH1 0x40 MLOAD DUP1 PUSH1 0x60 ADD PUSH1 0x40 MSTORE DUP1 PUSH1 0x23 DUP2 MSTORE PUSH1 0x20 ADD PUSH2 0x9009 PUSH1 0x23 SWAP2 CODECOPY PUSH2 0x4E5E JUMP JUMPDEST DUP2 DUP1 ISZERO PUSH2 0x3947 JUMPI POP PUSH2 0x3946 PUSH2 0x101 PUSH1 0x0 SWAP1 SLOAD SWAP1 PUSH2 0x100 EXP SWAP1 DIV PUSH20 0xFFFFFFFFFFFFFFFFFFFFFFFFFFFFFFFFFFFFFFFF AND PUSH1 0x64 DUP4 PUSH1 0x20 ADD MLOAD PUSH1 0x5 PUSH2 0x3937 SWAP2 SWAP1 PUSH2 0x7ED4 JUMP JUMPDEST PUSH2 0x3941 SWAP2 SWAP1 PUSH2 0x7F2E JUMP JUMPDEST PUSH2 0x4EF7 JUMP JUMPDEST JUMPDEST SWAP2 POP PUSH2 0x396A PUSH1 0x40 MLOAD DUP1 PUSH1 0x60 ADD PUSH1 0x40 MSTORE DUP1 PUSH1 0x21 DUP2 MSTORE PUSH1 0x20 ADD PUSH2 0x90AA PUSH1 0x21 SWAP2 CODECOPY PUSH2 0x4E5E JUMP JUMPDEST DUP2 DUP1 ISZERO PUSH2 0x39B1 JUMPI POP PUSH2 0x39B0 DUP5 PUSH1 0x3 ADD PUSH1 0x0 SWAP1 SLOAD SWAP1 PUSH2 0x100 EXP SWAP1 DIV PUSH20 0xFFFFFFFFFFFFFFFFFFFFFFFFFFFFFFFFFFFFFFFF AND PUSH1 0x64 DUP4 PUSH1 0x20 ADD MLOAD PUSH2 0x39AB SWAP2 SWAP1 PUSH2 0x7F2E JUMP JUMPDEST PUSH2 0x4EF7 JUMP JUMPDEST JUMPDEST SWAP2 POP PUSH2 0x39F1 PUSH1 0x40 MLOAD DUP1 PUSH1 0x40 ADD PUSH1 0x40 MSTORE DUP1 PUSH1 0x1F DUP2 MSTORE PUSH1 0x20 ADD PUSH32 0x65786974207472616E736665722025322073657277617264202E202E202E2000 DUP2 MSTORE POP PUSH2 0x4E5E JUMP JUMPDEST DUP2 DUP1 ISZERO PUSH2 0x3A0C JUMPI POP PUSH2 0x3A0B DUP5 PUSH1 0x0 ADD SLOAD DUP3 PUSH1 0x20 ADD MLOAD PUSH2 0x50D4 JUMP JUMPDEST JUMPDEST SWAP2 POP POP PUSH2 0x3BFD JUMP JUMPDEST PUSH1 0x3 PUSH1 0x4 DUP2 GT ISZERO PUSH2 0x3A28 JUMPI PUSH2 0x3A27 PUSH2 0x659A JUMP JUMPDEST JUMPDEST DUP4 PUSH1 0x6 ADD PUSH1 0x1 SWAP1 SLOAD SWAP1 PUSH2 0x100 EXP SWAP1 DIV PUSH1 0xFF AND PUSH1 0x4 DUP2 GT ISZERO PUSH2 0x3A4C JUMPI PUSH2 0x3A4B PUSH2 0x659A JUMP JUMPDEST JUMPDEST SUB PUSH2 0x3B0A JUMPI PUSH1 0x0 DUP4 PUSH1 0x7 ADD DUP1 SLOAD PUSH2 0x3A62 SWAP1 PUSH2 0x6B06 JUMP JUMPDEST DUP1 PUSH1 0x1F ADD PUSH1 0x20 DUP1 SWAP2 DIV MUL PUSH1 0x20 ADD PUSH1 0x40 MLOAD SWAP1 DUP2 ADD PUSH1 0x40 MSTORE DUP1 SWAP3 SWAP2 SWAP1 DUP2 DUP2 MSTORE PUSH1 0x20 ADD DUP3 DUP1 SLOAD PUSH2 0x3A8E SWAP1 PUSH2 0x6B06 JUMP JUMPDEST DUP1 ISZERO PUSH2 0x3ADB JUMPI DUP1 PUSH1 0x1F LT PUSH2 0x3AB0 JUMPI PUSH2 0x100 DUP1 DUP4 SLOAD DIV MUL DUP4 MSTORE SWAP2 PUSH1 0x20 ADD SWAP2 PUSH2 0x3ADB JUMP JUMPDEST DUP3 ADD SWAP2 SWAP1 PUSH1 0x0 MSTORE PUSH1 0x20 PUSH1 0x0 KECCAK256 SWAP1 JUMPDEST DUP2 SLOAD DUP2 MSTORE SWAP1 PUSH1 0x1 ADD SWAP1 PUSH1 0x20 ADD DUP1 DUP4 GT PUSH2 0x3ABE JUMPI DUP3 SWAP1 SUB PUSH1 0x1F AND DUP3 ADD SWAP2 JUMPDEST POP POP POP POP POP DUP1 PUSH1 0x20 ADD SWAP1 MLOAD DUP2 ADD SWAP1 PUSH2 0x3AF3 SWAP2 SWAP1 PUSH2 0x8078 JUMP JUMPDEST SWAP1 POP PUSH2 0x3B02 DUP2 PUSH1 0x0 ADD MLOAD PUSH2 0x5214 JUMP JUMPDEST SWAP2 POP POP PUSH2 0x3BFC JUMP JUMPDEST PUSH1 0x4 DUP1 DUP2 GT ISZERO PUSH2 0x3B1D JUMPI PUSH2 0x3B1C PUSH2 0x659A JUMP JUMPDEST JUMPDEST DUP4 PUSH1 0x6 ADD PUSH1 0x1 SWAP1 SLOAD SWAP1 PUSH2 0x100 EXP SWAP1 DIV PUSH1 0xFF AND PUSH1 0x4 DUP2 GT ISZERO PUSH2 0x3B41 JUMPI PUSH2 0x3B40 PUSH2 0x659A JUMP JUMPDEST JUMPDEST SUB PUSH2 0x3BFB JUMPI PUSH1 0x0 DUP4 PUSH1 0x7 ADD DUP1 SLOAD PUSH2 0x3B57 SWAP1 PUSH2 0x6B06 JUMP JUMPDEST DUP1 PUSH1 0x1F ADD PUSH1 0x20 DUP1 SWAP2 DIV MUL PUSH1 0x20 ADD PUSH1 0x40 MLOAD SWAP1 DUP2 ADD PUSH1 0x40 MSTORE DUP1 SWAP3 SWAP2 SWAP1 DUP2 DUP2 MSTORE PUSH1 0x20 ADD DUP3 DUP1 SLOAD PUSH2 0x3B83 SWAP1 PUSH2 0x6B06 JUMP JUMPDEST DUP1 ISZERO PUSH2 0x3BD0 JUMPI DUP1 PUSH1 0x1F LT PUSH2 0x3BA5 JUMPI PUSH2 0x100 DUP1 DUP4 SLOAD DIV MUL DUP4 MSTORE SWAP2 PUSH1 0x20 ADD SWAP2 PUSH2 0x3BD0 JUMP JUMPDEST DUP3 ADD SWAP2 SWAP1 PUSH1 0x0 MSTORE PUSH1 0x20 PUSH1 0x0 KECCAK256 SWAP1 JUMPDEST DUP2 SLOAD DUP2 MSTORE SWAP1 PUSH1 0x1 ADD SWAP1 PUSH1 0x20 ADD DUP1 DUP4 GT PUSH2 0x3BB3 JUMPI DUP3 SWAP1 SUB PUSH1 0x1F AND DUP3 ADD SWAP2 JUMPDEST POP POP POP POP POP DUP1 PUSH1 0x20 ADD SWAP1 MLOAD DUP2 ADD SWAP1 PUSH2 0x3BE8 SWAP2 SWAP1 PUSH2 0x80E1 JUMP JUMPDEST SWAP1 POP PUSH2 0x3BF7 DUP2 PUSH1 0x0 ADD MLOAD PUSH2 0x5382 JUMP JUMPDEST SWAP2 POP POP JUMPDEST JUMPDEST JUMPDEST JUMPDEST JUMPDEST JUMPDEST DUP1 SWAP2 POP POP SWAP2 SWAP1 POP JUMP JUMPDEST PUSH1 0x0 PUSH32 0xF1D23BD7EDE3E157B19AF9BDC7F9F08C55104D948E791AD0900A92E0A680C3A2 DUP8 DUP8 DUP8 DUP8 DUP8 DUP8 PUSH1 0x40 MLOAD PUSH1 0x20 ADD PUSH2 0x3C42 SWAP2 SWAP1 PUSH2 0x814A JUMP JUMPDEST PUSH1 0x40 MLOAD PUSH1 0x20 DUP2 DUP4 SUB SUB DUP2 MSTORE SWAP1 PUSH1 0x40 MSTORE DUP1 MLOAD SWAP1 PUSH1 0x20 ADD KECCAK256 PUSH1 0x40 MLOAD PUSH1 0x20 ADD PUSH2 0x3C6E SWAP8 SWAP7 SWAP6 SWAP5 SWAP4 SWAP3 SWAP2 SWAP1 PUSH2 0x8161 JUMP JUMPDEST PUSH1 0x40 MLOAD PUSH1 0x20 DUP2 DUP4 SUB SUB DUP2 MSTORE SWAP1 PUSH1 0x40 MSTORE DUP1 MLOAD SWAP1 PUSH1 0x20 ADD KECCAK256 SWAP1 POP SWAP7 SWAP6 POP POP POP POP POP POP JUMP JUMPDEST PUSH1 0x0 PUSH2 0x3CA3 PUSH2 0x3C9D PUSH2 0x54F0 JUMP JUMPDEST DUP4 PUSH2 0x5596 JUMP JUMPDEST SWAP1 POP SWAP2 SWAP1 POP JUMP JUMPDEST PUSH1 0x0 DUP1 PUSH1 0x41 DUP4 MLOAD SUB PUSH2 0x3CEB JUMPI PUSH1 0x0 DUP1 PUSH1 0x0 PUSH1 0x20 DUP7 ADD MLOAD SWAP3 POP PUSH1 0x40 DUP7 ADD MLOAD SWAP2 POP PUSH1 0x60 DUP7 ADD MLOAD PUSH1 0x0 BYTE SWAP1 POP PUSH2 0x3CDF DUP8 DUP3 DUP6 DUP6 PUSH2 0x55C9 JUMP JUMPDEST SWAP5 POP SWAP5 POP POP POP POP PUSH2 0x3D24 JUMP JUMPDEST PUSH1 0x40 DUP4 MLOAD SUB PUSH2 0x3D1B JUMPI PUSH1 0x0 DUP1 PUSH1 0x20 DUP6 ADD MLOAD SWAP2 POP PUSH1 0x40 DUP6 ADD MLOAD SWAP1 POP PUSH2 0x3D10 DUP7 DUP4 DUP4 PUSH2 0x56D5 JUMP JUMPDEST SWAP4 POP SWAP4 POP POP POP PUSH2 0x3D24 JUMP JUMPDEST PUSH1 0x0 PUSH1 0x2 SWAP2 POP SWAP2 POP JUMPDEST SWAP3 POP SWAP3 SWAP1 POP JUMP JUMPDEST DUP1 DUP3 PUSH1 0x0 ADD PUSH1 0x0 PUSH2 0x100 EXP DUP2 SLOAD DUP2 PUSH8 0xFFFFFFFFFFFFFFFF MUL NOT AND SWAP1 DUP4 PUSH8 0xFFFFFFFFFFFFFFFF AND MUL OR SWAP1 SSTORE POP POP POP JUMP JUMPDEST PUSH1 0x1 PUSH1 0x3 DUP2 GT ISZERO PUSH2 0x3D6E JUMPI PUSH2 0x3D6D PUSH2 0x659A JUMP JUMPDEST JUMPDEST DUP2 PUSH1 0x6 ADD PUSH1 0x0 SWAP1 SLOAD SWAP1 PUSH2 0x100 EXP SWAP1 DIV PUSH1 0xFF AND PUSH1 0x3 DUP2 GT ISZERO PUSH2 0x3D92 JUMPI PUSH2 0x3D91 PUSH2 0x659A JUMP JUMPDEST JUMPDEST SUB PUSH2 0x4096 JUMPI PUSH1 0x1 PUSH1 0x4 DUP2 GT ISZERO PUSH2 0x3DAB JUMPI PUSH2 0x3DAA PUSH2 0x659A JUMP JUMPDEST JUMPDEST DUP2 PUSH1 0x6 ADD PUSH1 0x1 SWAP1 SLOAD SWAP1 PUSH2 0x100 EXP SWAP1 DIV PUSH1 0xFF AND PUSH1 0x4 DUP2 GT ISZERO PUSH2 0x3DCF JUMPI PUSH2 0x3DCE PUSH2 0x659A JUMP JUMPDEST JUMPDEST SUB PUSH2 0x4091 JUMPI PUSH1 0x0 DUP2 PUSH1 0x7 ADD DUP1 SLOAD PUSH2 0x3DE5 SWAP1 PUSH2 0x6B06 JUMP JUMPDEST DUP1 PUSH1 0x1F ADD PUSH1 0x20 DUP1 SWAP2 DIV MUL PUSH1 0x20 ADD PUSH1 0x40 MLOAD SWAP1 DUP2 ADD PUSH1 0x40 MSTORE DUP1 SWAP3 SWAP2 SWAP1 DUP2 DUP2 MSTORE PUSH1 0x20 ADD DUP3 DUP1 SLOAD PUSH2 0x3E11 SWAP1 PUSH2 0x6B06 JUMP JUMPDEST DUP1 ISZERO PUSH2 0x3E5E JUMPI DUP1 PUSH1 0x1F LT PUSH2 0x3E33 JUMPI PUSH2 0x100 DUP1 DUP4 SLOAD DIV MUL DUP4 MSTORE SWAP2 PUSH1 0x20 ADD SWAP2 PUSH2 0x3E5E JUMP JUMPDEST DUP3 ADD SWAP2 SWAP1 PUSH1 0x0 MSTORE PUSH1 0x20 PUSH1 0x0 KECCAK256 SWAP1 JUMPDEST DUP2 SLOAD DUP2 MSTORE SWAP1 PUSH1 0x1 ADD SWAP1 PUSH1 0x20 ADD DUP1 DUP4 GT PUSH2 0x3E41 JUMPI DUP3 SWAP1 SUB PUSH1 0x1F AND DUP3 ADD SWAP2 JUMPDEST POP POP POP POP POP DUP1 PUSH1 0x20 ADD SWAP1 MLOAD DUP2 ADD SWAP1 PUSH2 0x3E76 SWAP2 SWAP1 PUSH2 0x7D5F JUMP JUMPDEST SWAP1 POP PUSH1 0x0 PUSH20 0xFFFFFFFFFFFFFFFFFFFFFFFFFFFFFFFFFFFFFFFF AND DUP2 PUSH1 0x20 ADD MLOAD PUSH20 0xFFFFFFFFFFFFFFFFFFFFFFFFFFFFFFFFFFFFFFFF AND SUB PUSH2 0x3EEB JUMPI PUSH1 0x40 MLOAD PUSH32 0x8C379A000000000000000000000000000000000000000000000000000000000 DUP2 MSTORE PUSH1 0x4 ADD PUSH2 0x3EE2 SWAP1 PUSH2 0x8242 JUMP JUMPDEST PUSH1 0x40 MLOAD DUP1 SWAP2 SUB SWAP1 REVERT JUMPDEST PUSH1 0x0 DUP2 PUSH1 0x0 ADD MLOAD MLOAD SUB PUSH2 0x3F33 JUMPI PUSH1 0x40 MLOAD PUSH32 0x8C379A000000000000000000000000000000000000000000000000000000000 DUP2 MSTORE PUSH1 0x4 ADD PUSH2 0x3F2A SWAP1 PUSH2 0x82D4 JUMP JUMPDEST PUSH1 0x40 MLOAD DUP1 SWAP2 SUB SWAP1 REVERT JUMPDEST PUSH1 0x0 PUSH1 0x2 DUP2 GT ISZERO PUSH2 0x3F47 JUMPI PUSH2 0x3F46 PUSH2 0x659A JUMP JUMPDEST JUMPDEST PUSH1 0xFB PUSH1 0x0 DUP4 PUSH1 0x20 ADD MLOAD PUSH20 0xFFFFFFFFFFFFFFFFFFFFFFFFFFFFFFFFFFFFFFFF AND PUSH20 0xFFFFFFFFFFFFFFFFFFFFFFFFFFFFFFFFFFFFFFFF AND DUP2 MSTORE PUSH1 0x20 ADD SWAP1 DUP2 MSTORE PUSH1 0x20 ADD PUSH1 0x0 KECCAK256 PUSH1 0x1 ADD PUSH1 0x0 SWAP1 SLOAD SWAP1 PUSH2 0x100 EXP SWAP1 DIV PUSH1 0xFF AND PUSH1 0x2 DUP2 GT ISZERO PUSH2 0x3FAD JUMPI PUSH2 0x3FAC PUSH2 0x659A JUMP JUMPDEST JUMPDEST EQ PUSH2 0x3FED JUMPI PUSH1 0x40 MLOAD PUSH32 0x8C379A000000000000000000000000000000000000000000000000000000000 DUP2 MSTORE PUSH1 0x4 ADD PUSH2 0x3FE4 SWAP1 PUSH2 0x8340 JUMP JUMPDEST PUSH1 0x40 MLOAD DUP1 SWAP2 SUB SWAP1 REVERT JUMPDEST DUP1 PUSH1 0x20 ADD MLOAD PUSH20 0xFFFFFFFFFFFFFFFFFFFFFFFFFFFFFFFFFFFFFFFF AND DUP3 PUSH1 0x3 ADD PUSH1 0x0 SWAP1 SLOAD SWAP1 PUSH2 0x100 EXP SWAP1 DIV PUSH20 0xFFFFFFFFFFFFFFFFFFFFFFFFFFFFFFFFFFFFFFFF AND PUSH20 0xFFFFFFFFFFFFFFFFFFFFFFFFFFFFFFFFFFFFFFFF AND DUP4 PUSH1 0x0 ADD SLOAD PUSH32 0x3B993E041D591EA59A38F6CFF579DF5E8D6C2D1FED74305DFBB114336C41BDFD DUP6 PUSH1 0x1 ADD SLOAD DUP7 PUSH1 0x2 ADD SLOAD DUP7 PUSH1 0x0 ADD MLOAD PUSH1 0x40 MLOAD PUSH2 0x4087 SWAP4 SWAP3 SWAP2 SWAP1 PUSH2 0x8360 JUMP JUMPDEST PUSH1 0x40 MLOAD DUP1 SWAP2 SUB SWAP1 LOG4 POP JUMPDEST PUSH2 0x4C35 JUMP JUMPDEST PUSH1 0x2 PUSH1 0x3 DUP2 GT ISZERO PUSH2 0x40AA JUMPI PUSH2 0x40A9 PUSH2 0x659A JUMP JUMPDEST JUMPDEST DUP2 PUSH1 0x6 ADD PUSH1 0x0 SWAP1 SLOAD SWAP1 PUSH2 0x100 EXP SWAP1 DIV PUSH1 0xFF AND PUSH1 0x3 DUP2 GT ISZERO PUSH2 0x40CE JUMPI PUSH2 0x40CD PUSH2 0x659A JUMP JUMPDEST JUMPDEST SUB PUSH2 0x4BFA JUMPI PUSH1 0x1 PUSH1 0x4 DUP2 GT ISZERO PUSH2 0x40E7 JUMPI PUSH2 0x40E6 PUSH2 0x659A JUMP JUMPDEST JUMPDEST DUP2 PUSH1 0x6 ADD PUSH1 0x1 SWAP1 SLOAD SWAP1 PUSH2 0x100 EXP SWAP1 DIV PUSH1 0xFF AND PUSH1 0x4 DUP2 GT ISZERO PUSH2 0x410B JUMPI PUSH2 0x410A PUSH2 0x659A JUMP JUMPDEST JUMPDEST SUB PUSH2 0x446F JUMPI PUSH1 0x0 DUP2 PUSH1 0x7 ADD DUP1 SLOAD PUSH2 0x4121 SWAP1 PUSH2 0x6B06 JUMP JUMPDEST DUP1 PUSH1 0x1F ADD PUSH1 0x20 DUP1 SWAP2 DIV MUL PUSH1 0x20 ADD PUSH1 0x40 MLOAD SWAP1 DUP2 ADD PUSH1 0x40 MSTORE DUP1 SWAP3 SWAP2 SWAP1 DUP2 DUP2 MSTORE PUSH1 0x20 ADD DUP3 DUP1 SLOAD PUSH2 0x414D SWAP1 PUSH2 0x6B06 JUMP JUMPDEST DUP1 ISZERO PUSH2 0x419A JUMPI DUP1 PUSH1 0x1F LT PUSH2 0x416F JUMPI PUSH2 0x100 DUP1 DUP4 SLOAD DIV MUL DUP4 MSTORE SWAP2 PUSH1 0x20 ADD SWAP2 PUSH2 0x419A JUMP JUMPDEST DUP3 ADD SWAP2 SWAP1 PUSH1 0x0 MSTORE PUSH1 0x20 PUSH1 0x0 KECCAK256 SWAP1 JUMPDEST DUP2 SLOAD DUP2 MSTORE SWAP1 PUSH1 0x1 ADD SWAP1 PUSH1 0x20 ADD DUP1 DUP4 GT PUSH2 0x417D JUMPI DUP3 SWAP1 SUB PUSH1 0x1F AND DUP3 ADD SWAP2 JUMPDEST POP POP POP POP POP DUP1 PUSH1 0x20 ADD SWAP1 MLOAD DUP2 ADD SWAP1 PUSH2 0x41B2 SWAP2 SWAP1 PUSH2 0x7E8B JUMP JUMPDEST SWAP1 POP PUSH1 0x0 DUP2 PUSH1 0x0 ADD MLOAD MLOAD SUB PUSH2 0x41FC JUMPI PUSH1 0x40 MLOAD PUSH32 0x8C379A000000000000000000000000000000000000000000000000000000000 DUP2 MSTORE PUSH1 0x4 ADD PUSH2 0x41F3 SWAP1 PUSH2 0x83EA JUMP JUMPDEST PUSH1 0x40 MLOAD DUP1 SWAP2 SUB SWAP1 REVERT JUMPDEST PUSH1 0x0 DUP2 PUSH1 0x20 ADD MLOAD SUB PUSH2 0x4243 JUMPI PUSH1 0x40 MLOAD PUSH32 0x8C379A000000000000000000000000000000000000000000000000000000000 DUP2 MSTORE PUSH1 0x4 ADD PUSH2 0x423A SWAP1 PUSH2 0x847C JUMP JUMPDEST PUSH1 0x40 MLOAD DUP1 SWAP2 SUB SWAP1 REVERT JUMPDEST PUSH1 0x0 DUP2 PUSH1 0x60 ADD MLOAD PUSH2 0xFFFF AND SUB PUSH2 0x428E JUMPI PUSH1 0x40 MLOAD PUSH32 0x8C379A000000000000000000000000000000000000000000000000000000000 DUP2 MSTORE PUSH1 0x4 ADD PUSH2 0x4285 SWAP1 PUSH2 0x850E JUMP JUMPDEST PUSH1 0x40 MLOAD DUP1 SWAP2 SUB SWAP1 REVERT JUMPDEST PUSH1 0x0 PUSH20 0xFFFFFFFFFFFFFFFFFFFFFFFFFFFFFFFFFFFFFFFF AND DUP2 PUSH1 0x40 ADD MLOAD PUSH20 0xFFFFFFFFFFFFFFFFFFFFFFFFFFFFFFFFFFFFFFFF AND SUB PUSH2 0x4301 JUMPI PUSH1 0x40 MLOAD PUSH32 0x8C379A000000000000000000000000000000000000000000000000000000000 DUP2 MSTORE PUSH1 0x4 ADD PUSH2 0x42F8 SWAP1 PUSH2 0x857A JUMP JUMPDEST PUSH1 0x40 MLOAD DUP1 SWAP2 SUB SWAP1 REVERT JUMPDEST PUSH1 0x0 PUSH1 0x2 DUP2 GT ISZERO PUSH2 0x4315 JUMPI PUSH2 0x4314 PUSH2 0x659A JUMP JUMPDEST JUMPDEST PUSH1 0xFB PUSH1 0x0 DUP4 PUSH1 0x40 ADD MLOAD PUSH20 0xFFFFFFFFFFFFFFFFFFFFFFFFFFFFFFFFFFFFFFFF AND PUSH20 0xFFFFFFFFFFFFFFFFFFFFFFFFFFFFFFFFFFFFFFFF AND DUP2 MSTORE PUSH1 0x20 ADD SWAP1 DUP2 MSTORE PUSH1 0x20 ADD PUSH1 0x0 KECCAK256 PUSH1 0x1 ADD PUSH1 0x0 SWAP1 SLOAD SWAP1 PUSH2 0x100 EXP SWAP1 DIV PUSH1 0xFF AND PUSH1 0x2 DUP2 GT ISZERO PUSH2 0x437B JUMPI PUSH2 0x437A PUSH2 0x659A JUMP JUMPDEST JUMPDEST EQ PUSH2 0x43BB JUMPI PUSH1 0x40 MLOAD PUSH32 0x8C379A000000000000000000000000000000000000000000000000000000000 DUP2 MSTORE PUSH1 0x4 ADD PUSH2 0x43B2 SWAP1 PUSH2 0x85E6 JUMP JUMPDEST PUSH1 0x40 MLOAD DUP1 SWAP2 SUB SWAP1 REVERT JUMPDEST DUP1 PUSH1 0x40 ADD MLOAD PUSH20 0xFFFFFFFFFFFFFFFFFFFFFFFFFFFFFFFFFFFFFFFF AND DUP3 PUSH1 0x3 ADD PUSH1 0x0 SWAP1 SLOAD SWAP1 PUSH2 0x100 EXP SWAP1 DIV PUSH20 0xFFFFFFFFFFFFFFFFFFFFFFFFFFFFFFFFFFFFFFFF AND PUSH20 0xFFFFFFFFFFFFFFFFFFFFFFFFFFFFFFFFFFFFFFFF AND DUP4 PUSH1 0x0 ADD SLOAD PUSH32 0xA3D1A39A550977BAA46EA2634B05F5EB5993C2422417CE8C7139B39635A2A08C DUP5 PUSH1 0x20 ADD MLOAD DUP7 PUSH1 0x1 ADD SLOAD DUP8 PUSH1 0x2 ADD SLOAD DUP8 PUSH1 0x0 ADD MLOAD DUP9 PUSH1 0x60 ADD MLOAD PUSH1 0x40 MLOAD PUSH2 0x4461 SWAP6 SWAP5 SWAP4 SWAP3 SWAP2 SWAP1 PUSH2 0x8615 JUMP JUMPDEST PUSH1 0x40 MLOAD DUP1 SWAP2 SUB SWAP1 LOG4 POP PUSH2 0x4BF5 JUMP JUMPDEST PUSH1 0x2 PUSH1 0x4 DUP2 GT ISZERO PUSH2 0x4483 JUMPI PUSH2 0x4482 PUSH2 0x659A JUMP JUMPDEST JUMPDEST DUP2 PUSH1 0x6 ADD PUSH1 0x1 SWAP1 SLOAD SWAP1 PUSH2 0x100 EXP SWAP1 DIV PUSH1 0xFF AND PUSH1 0x4 DUP2 GT ISZERO PUSH2 0x44A7 JUMPI PUSH2 0x44A6 PUSH2 0x659A JUMP JUMPDEST JUMPDEST SUB PUSH2 0x480B JUMPI PUSH1 0x0 DUP2 PUSH1 0x7 ADD DUP1 SLOAD PUSH2 0x44BD SWAP1 PUSH2 0x6B06 JUMP JUMPDEST DUP1 PUSH1 0x1F ADD PUSH1 0x20 DUP1 SWAP2 DIV MUL PUSH1 0x20 ADD PUSH1 0x40 MLOAD SWAP1 DUP2 ADD PUSH1 0x40 MSTORE DUP1 SWAP3 SWAP2 SWAP1 DUP2 DUP2 MSTORE PUSH1 0x20 ADD DUP3 DUP1 SLOAD PUSH2 0x44E9 SWAP1 PUSH2 0x6B06 JUMP JUMPDEST DUP1 ISZERO PUSH2 0x4536 JUMPI DUP1 PUSH1 0x1F LT PUSH2 0x450B JUMPI PUSH2 0x100 DUP1 DUP4 SLOAD DIV MUL DUP4 MSTORE SWAP2 PUSH1 0x20 ADD SWAP2 PUSH2 0x4536 JUMP JUMPDEST DUP3 ADD SWAP2 SWAP1 PUSH1 0x0 MSTORE PUSH1 0x20 PUSH1 0x0 KECCAK256 SWAP1 JUMPDEST DUP2 SLOAD DUP2 MSTORE SWAP1 PUSH1 0x1 ADD SWAP1 PUSH1 0x20 ADD DUP1 DUP4 GT PUSH2 0x4519 JUMPI DUP3 SWAP1 SUB PUSH1 0x1F AND DUP3 ADD SWAP2 JUMPDEST POP POP POP POP POP DUP1 PUSH1 0x20 ADD SWAP1 MLOAD DUP2 ADD SWAP1 PUSH2 0x454E SWAP2 SWAP1 PUSH2 0x7FF3 JUMP JUMPDEST SWAP1 POP PUSH1 0x0 DUP2 PUSH1 0x0 ADD MLOAD MLOAD SUB PUSH2 0x4598 JUMPI PUSH1 0x40 MLOAD PUSH32 0x8C379A000000000000000000000000000000000000000000000000000000000 DUP2 MSTORE PUSH1 0x4 ADD PUSH2 0x458F SWAP1 PUSH2 0x83EA JUMP JUMPDEST PUSH1 0x40 MLOAD DUP1 SWAP2 SUB SWAP1 REVERT JUMPDEST PUSH1 0x0 DUP2 PUSH1 0x20 ADD MLOAD SUB PUSH2 0x45DF JUMPI PUSH1 0x40 MLOAD PUSH32 0x8C379A000000000000000000000000000000000000000000000000000000000 DUP2 MSTORE PUSH1 0x4 ADD PUSH2 0x45D6 SWAP1 PUSH2 0x847C JUMP JUMPDEST PUSH1 0x40 MLOAD DUP1 SWAP2 SUB SWAP1 REVERT JUMPDEST PUSH1 0x0 DUP2 PUSH1 0x60 ADD MLOAD PUSH2 0xFFFF AND SUB PUSH2 0x462A JUMPI PUSH1 0x40 MLOAD PUSH32 0x8C379A000000000000000000000000000000000000000000000000000000000 DUP2 MSTORE PUSH1 0x4 ADD PUSH2 0x4621 SWAP1 PUSH2 0x850E JUMP JUMPDEST PUSH1 0x40 MLOAD DUP1 SWAP2 SUB SWAP1 REVERT JUMPDEST PUSH1 0x0 PUSH20 0xFFFFFFFFFFFFFFFFFFFFFFFFFFFFFFFFFFFFFFFF AND DUP2 PUSH1 0x40 ADD MLOAD PUSH20 0xFFFFFFFFFFFFFFFFFFFFFFFFFFFFFFFFFFFFFFFF AND SUB PUSH2 0x469D JUMPI PUSH1 0x40 MLOAD PUSH32 0x8C379A000000000000000000000000000000000000000000000000000000000 DUP2 MSTORE PUSH1 0x4 ADD PUSH2 0x4694 SWAP1 PUSH2 0x86BB JUMP JUMPDEST PUSH1 0x40 MLOAD DUP1 SWAP2 SUB SWAP1 REVERT JUMPDEST PUSH1 0x1 PUSH1 0x2 DUP2 GT ISZERO PUSH2 0x46B1 JUMPI PUSH2 0x46B0 PUSH2 0x659A JUMP JUMPDEST JUMPDEST PUSH1 0xFB PUSH1 0x0 DUP4 PUSH1 0x40 ADD MLOAD PUSH20 0xFFFFFFFFFFFFFFFFFFFFFFFFFFFFFFFFFFFFFFFF AND PUSH20 0xFFFFFFFFFFFFFFFFFFFFFFFFFFFFFFFFFFFFFFFF AND DUP2 MSTORE PUSH1 0x20 ADD SWAP1 DUP2 MSTORE PUSH1 0x20 ADD PUSH1 0x0 KECCAK256 PUSH1 0x1 ADD PUSH1 0x0 SWAP1 SLOAD SWAP1 PUSH2 0x100 EXP SWAP1 DIV PUSH1 0xFF AND PUSH1 0x2 DUP2 GT ISZERO PUSH2 0x4717 JUMPI PUSH2 0x4716 PUSH2 0x659A JUMP JUMPDEST JUMPDEST EQ PUSH2 0x4757 JUMPI PUSH1 0x40 MLOAD PUSH32 0x8C379A000000000000000000000000000000000000000000000000000000000 DUP2 MSTORE PUSH1 0x4 ADD PUSH2 0x474E SWAP1 PUSH2 0x8727 JUMP JUMPDEST PUSH1 0x40 MLOAD DUP1 SWAP2 SUB SWAP1 REVERT JUMPDEST DUP1 PUSH1 0x40 ADD MLOAD PUSH20 0xFFFFFFFFFFFFFFFFFFFFFFFFFFFFFFFFFFFFFFFF AND DUP3 PUSH1 0x3 ADD PUSH1 0x0 SWAP1 SLOAD SWAP1 PUSH2 0x100 EXP SWAP1 DIV PUSH20 0xFFFFFFFFFFFFFFFFFFFFFFFFFFFFFFFFFFFFFFFF AND PUSH20 0xFFFFFFFFFFFFFFFFFFFFFFFFFFFFFFFFFFFFFFFF AND DUP4 PUSH1 0x0 ADD SLOAD PUSH32 0xB58C12647C60F8966538BCFA6BF6B815477288BCBCBD80C2AC8AD7C23115A2D9 DUP5 PUSH1 0x20 ADD MLOAD DUP7 PUSH1 0x1 ADD SLOAD DUP8 PUSH1 0x2 ADD SLOAD DUP8 PUSH1 0x0 ADD MLOAD DUP9 PUSH1 0x60 ADD MLOAD PUSH1 0x40 MLOAD PUSH2 0x47FD SWAP6 SWAP5 SWAP4 SWAP3 SWAP2 SWAP1 PUSH2 0x8615 JUMP JUMPDEST PUSH1 0x40 MLOAD DUP1 SWAP2 SUB SWAP1 LOG4 POP PUSH2 0x4BF4 JUMP JUMPDEST PUSH1 0x3 PUSH1 0x4 DUP2 GT ISZERO PUSH2 0x481F JUMPI PUSH2 0x481E PUSH2 0x659A JUMP JUMPDEST JUMPDEST DUP2 PUSH1 0x6 ADD PUSH1 0x1 SWAP1 SLOAD SWAP1 PUSH2 0x100 EXP SWAP1 DIV PUSH1 0xFF AND PUSH1 0x4 DUP2 GT ISZERO PUSH2 0x4843 JUMPI PUSH2 0x4842 PUSH2 0x659A JUMP JUMPDEST JUMPDEST SUB PUSH2 0x4A01 JUMPI PUSH1 0x0 DUP2 PUSH1 0x7 ADD DUP1 SLOAD PUSH2 0x4859 SWAP1 PUSH2 0x6B06 JUMP JUMPDEST DUP1 PUSH1 0x1F ADD PUSH1 0x20 DUP1 SWAP2 DIV MUL PUSH1 0x20 ADD PUSH1 0x40 MLOAD SWAP1 DUP2 ADD PUSH1 0x40 MSTORE DUP1 SWAP3 SWAP2 SWAP1 DUP2 DUP2 MSTORE PUSH1 0x20 ADD DUP3 DUP1 SLOAD PUSH2 0x4885 SWAP1 PUSH2 0x6B06 JUMP JUMPDEST DUP1 ISZERO PUSH2 0x48D2 JUMPI DUP1 PUSH1 0x1F LT PUSH2 0x48A7 JUMPI PUSH2 0x100 DUP1 DUP4 SLOAD DIV MUL DUP4 MSTORE SWAP2 PUSH1 0x20 ADD SWAP2 PUSH2 0x48D2 JUMP JUMPDEST DUP3 ADD SWAP2 SWAP1 PUSH1 0x0 MSTORE PUSH1 0x20 PUSH1 0x0 KECCAK256 SWAP1 JUMPDEST DUP2 SLOAD DUP2 MSTORE SWAP1 PUSH1 0x1 ADD SWAP1 PUSH1 0x20 ADD DUP1 DUP4 GT PUSH2 0x48B5 JUMPI DUP3 SWAP1 SUB PUSH1 0x1F AND DUP3 ADD SWAP2 JUMPDEST POP POP POP POP POP DUP1 PUSH1 0x20 ADD SWAP1 MLOAD DUP2 ADD SWAP1 PUSH2 0x48EA SWAP2 SWAP1 PUSH2 0x8078 JUMP JUMPDEST SWAP1 POP PUSH1 0x0 PUSH20 0xFFFFFFFFFFFFFFFFFFFFFFFFFFFFFFFFFFFFFFFF AND DUP2 PUSH1 0x0 ADD MLOAD PUSH20 0xFFFFFFFFFFFFFFFFFFFFFFFFFFFFFFFFFFFFFFFF AND SUB PUSH2 0x495F JUMPI PUSH1 0x40 MLOAD PUSH32 0x8C379A000000000000000000000000000000000000000000000000000000000 DUP2 MSTORE PUSH1 0x4 ADD PUSH2 0x4956 SWAP1 PUSH2 0x87B9 JUMP JUMPDEST PUSH1 0x40 MLOAD DUP1 SWAP2 SUB SWAP1 REVERT JUMPDEST DUP1 PUSH1 0x0 ADD MLOAD PUSH20 0xFFFFFFFFFFFFFFFFFFFFFFFFFFFFFFFFFFFFFFFF AND DUP3 PUSH1 0x3 ADD PUSH1 0x0 SWAP1 SLOAD SWAP1 PUSH2 0x100 EXP SWAP1 DIV PUSH20 0xFFFFFFFFFFFFFFFFFFFFFFFFFFFFFFFFFFFFFFFF AND PUSH20 0xFFFFFFFFFFFFFFFFFFFFFFFFFFFFFFFFFFFFFFFF AND DUP4 PUSH1 0x0 ADD SLOAD PUSH32 0x6C344B5A99D701E380E4F74EB042F15449B77F4657A647B82E9A5B223798BF1C DUP6 PUSH1 0x1 ADD SLOAD DUP7 PUSH1 0x2 ADD SLOAD PUSH1 0x40 MLOAD PUSH2 0x49F3 SWAP3 SWAP2 SWAP1 PUSH2 0x87D9 JUMP JUMPDEST PUSH1 0x40 MLOAD DUP1 SWAP2 SUB SWAP1 LOG4 POP PUSH2 0x4BF3 JUMP JUMPDEST PUSH1 0x4 DUP1 DUP2 GT ISZERO PUSH2 0x4A14 JUMPI PUSH2 0x4A13 PUSH2 0x659A JUMP JUMPDEST JUMPDEST DUP2 PUSH1 0x6 ADD PUSH1 0x1 SWAP1 SLOAD SWAP1 PUSH2 0x100 EXP SWAP1 DIV PUSH1 0xFF AND PUSH1 0x4 DUP2 GT ISZERO PUSH2 0x4A38 JUMPI PUSH2 0x4A37 PUSH2 0x659A JUMP JUMPDEST JUMPDEST SUB PUSH2 0x4BF2 JUMPI PUSH1 0x0 DUP2 PUSH1 0x7 ADD DUP1 SLOAD PUSH2 0x4A4E SWAP1 PUSH2 0x6B06 JUMP JUMPDEST DUP1 PUSH1 0x1F ADD PUSH1 0x20 DUP1 SWAP2 DIV MUL PUSH1 0x20 ADD PUSH1 0x40 MLOAD SWAP1 DUP2 ADD PUSH1 0x40 MSTORE DUP1 SWAP3 SWAP2 SWAP1 DUP2 DUP2 MSTORE PUSH1 0x20 ADD DUP3 DUP1 SLOAD PUSH2 0x4A7A SWAP1 PUSH2 0x6B06 JUMP JUMPDEST DUP1 ISZERO PUSH2 0x4AC7 JUMPI DUP1 PUSH1 0x1F LT PUSH2 0x4A9C JUMPI PUSH2 0x100 DUP1 DUP4 SLOAD DIV MUL DUP4 MSTORE SWAP2 PUSH1 0x20 ADD SWAP2 PUSH2 0x4AC7 JUMP JUMPDEST DUP3 ADD SWAP2 SWAP1 PUSH1 0x0 MSTORE PUSH1 0x20 PUSH1 0x0 KECCAK256 SWAP1 JUMPDEST DUP2 SLOAD DUP2 MSTORE SWAP1 PUSH1 0x1 ADD SWAP1 PUSH1 0x20 ADD DUP1 DUP4 GT PUSH2 0x4AAA JUMPI DUP3 SWAP1 SUB PUSH1 0x1F AND DUP3 ADD SWAP2 JUMPDEST POP POP POP POP POP DUP1 PUSH1 0x20 ADD SWAP1 MLOAD DUP2 ADD SWAP1 PUSH2 0x4ADF SWAP2 SWAP1 PUSH2 0x80E1 JUMP JUMPDEST SWAP1 POP PUSH1 0x0 PUSH20 0xFFFFFFFFFFFFFFFFFFFFFFFFFFFFFFFFFFFFFFFF AND DUP2 PUSH1 0x0 ADD MLOAD PUSH20 0xFFFFFFFFFFFFFFFFFFFFFFFFFFFFFFFFFFFFFFFF AND SUB PUSH2 0x4B54 JUMPI PUSH1 0x40 MLOAD PUSH32 0x8C379A000000000000000000000000000000000000000000000000000000000 DUP2 MSTORE PUSH1 0x4 ADD PUSH2 0x4B4B SWAP1 PUSH2 0x8874 JUMP JUMPDEST PUSH1 0x40 MLOAD DUP1 SWAP2 SUB SWAP1 REVERT JUMPDEST DUP1 PUSH1 0x0 ADD MLOAD PUSH20 0xFFFFFFFFFFFFFFFFFFFFFFFFFFFFFFFFFFFFFFFF AND DUP3 PUSH1 0x3 ADD PUSH1 0x0 SWAP1 SLOAD SWAP1 PUSH2 0x100 EXP SWAP1 DIV PUSH20 0xFFFFFFFFFFFFFFFFFFFFFFFFFFFFFFFFFFFFFFFF AND PUSH20 0xFFFFFFFFFFFFFFFFFFFFFFFFFFFFFFFFFFFFFFFF AND DUP4 PUSH1 0x0 ADD SLOAD PUSH32 0x5B0256FFEAE05ABA51E2C5F936A5AB3668280F92904D8098FC46D79E2EC5DBFA DUP6 PUSH1 0x1 ADD SLOAD DUP7 PUSH1 0x2 ADD SLOAD PUSH1 0x40 MLOAD PUSH2 0x4BE8 SWAP3 SWAP2 SWAP1 PUSH2 0x87D9 JUMP JUMPDEST PUSH1 0x40 MLOAD DUP1 SWAP2 SUB SWAP1 LOG4 POP JUMPDEST JUMPDEST JUMPDEST JUMPDEST PUSH2 0x4C34 JUMP JUMPDEST PUSH1 0x3 DUP1 DUP2 GT ISZERO PUSH2 0x4C0D JUMPI PUSH2 0x4C0C PUSH2 0x659A JUMP JUMPDEST JUMPDEST DUP2 PUSH1 0x6 ADD PUSH1 0x0 SWAP1 SLOAD SWAP1 PUSH2 0x100 EXP SWAP1 DIV PUSH1 0xFF AND PUSH1 0x3 DUP2 GT ISZERO PUSH2 0x4C31 JUMPI PUSH2 0x4C30 PUSH2 0x659A JUMP JUMPDEST JUMPDEST POP POP JUMPDEST JUMPDEST POP JUMP JUMPDEST PUSH1 0x0 DUP1 DUP3 PUSH20 0xFFFFFFFFFFFFFFFFFFFFFFFFFFFFFFFFFFFFFFFF AND EXTCODESIZE GT SWAP1 POP SWAP2 SWAP1 POP JUMP JUMPDEST PUSH2 0x4C65 DUP3 DUP3 PUSH2 0x1758 JUMP JUMPDEST PUSH2 0x4CF4 JUMPI PUSH2 0x4C8A DUP2 PUSH20 0xFFFFFFFFFFFFFFFFFFFFFFFFFFFFFFFFFFFFFFFF AND PUSH1 0x14 PUSH2 0x5734 JUMP JUMPDEST PUSH2 0x4C98 DUP4 PUSH1 0x0 SHR PUSH1 0x20 PUSH2 0x5734 JUMP JUMPDEST PUSH1 0x40 MLOAD PUSH1 0x20 ADD PUSH2 0x4CA9 SWAP3 SWAP2 SWAP1 PUSH2 0x892C JUMP JUMPDEST PUSH1 0x40 MLOAD PUSH1 0x20 DUP2 DUP4 SUB SUB DUP2 MSTORE SWAP1 PUSH1 0x40 MSTORE PUSH1 0x40 MLOAD PUSH32 0x8C379A000000000000000000000000000000000000000000000000000000000 DUP2 MSTORE PUSH1 0x4 ADD PUSH2 0x4CEB SWAP2 SWAP1 PUSH2 0x6136 JUMP JUMPDEST PUSH1 0x40 MLOAD DUP1 SWAP2 SUB SWAP1 REVERT JUMPDEST POP POP JUMP JUMPDEST PUSH1 0x0 DUP2 SWAP1 POP SWAP2 SWAP1 POP JUMP JUMPDEST PUSH1 0x0 DUP2 SWAP1 POP SWAP2 SWAP1 POP JUMP JUMPDEST PUSH2 0x4D15 DUP2 PUSH2 0x4C38 JUMP JUMPDEST PUSH2 0x4D54 JUMPI PUSH1 0x40 MLOAD PUSH32 0x8C379A000000000000000000000000000000000000000000000000000000000 DUP2 MSTORE PUSH1 0x4 ADD PUSH2 0x4D4B SWAP1 PUSH2 0x89D8 JUMP JUMPDEST PUSH1 0x40 MLOAD DUP1 SWAP2 SUB SWAP1 REVERT JUMPDEST DUP1 PUSH2 0x4D81 PUSH32 0x360894A13BA1A3210667C828492DB98DCA3E2076CC3735A920A3CA505D382BBC PUSH1 0x0 SHL PUSH2 0x4CF8 JUMP JUMPDEST PUSH1 0x0 ADD PUSH1 0x0 PUSH2 0x100 EXP DUP2 SLOAD DUP2 PUSH20 0xFFFFFFFFFFFFFFFFFFFFFFFFFFFFFFFFFFFFFFFF MUL NOT AND SWAP1 DUP4 PUSH20 0xFFFFFFFFFFFFFFFFFFFFFFFFFFFFFFFFFFFFFFFF AND MUL OR SWAP1 SSTORE POP POP JUMP JUMPDEST PUSH2 0x4DCE DUP4 PUSH2 0x5970 JUMP JUMPDEST PUSH1 0x0 DUP3 MLOAD GT DUP1 PUSH2 0x4DDB JUMPI POP DUP1 JUMPDEST ISZERO PUSH2 0x4DEC JUMPI PUSH2 0x4DEA DUP4 DUP4 PUSH2 0x59BF JUMP JUMPDEST POP JUMPDEST POP POP POP JUMP JUMPDEST PUSH1 0x0 DUP1 DUP3 PUSH1 0x0 ADD MLOAD PUSH8 0xFFFFFFFFFFFFFFFF AND GT SWAP1 POP SWAP2 SWAP1 POP JUMP JUMPDEST PUSH1 0x0 PUSH2 0x4E33 DUP4 PUSH1 0x0 ADD DUP4 PUSH20 0xFFFFFFFFFFFFFFFFFFFFFFFFFFFFFFFFFFFFFFFF AND PUSH1 0x0 SHL PUSH2 0x5AA3 JUMP JUMPDEST SWAP1 POP SWAP3 SWAP2 POP POP JUMP JUMPDEST PUSH1 0x0 DUP1 DUP4 PUSH1 0x1 ADD PUSH1 0x0 DUP5 DUP2 MSTORE PUSH1 0x20 ADD SWAP1 DUP2 MSTORE PUSH1 0x20 ADD PUSH1 0x0 KECCAK256 SLOAD EQ ISZERO SWAP1 POP SWAP3 SWAP2 POP POP JUMP JUMPDEST PUSH2 0x4EF4 DUP2 PUSH1 0x40 MLOAD PUSH1 0x24 ADD PUSH2 0x4E72 SWAP2 SWAP1 PUSH2 0x6136 JUMP JUMPDEST PUSH1 0x40 MLOAD PUSH1 0x20 DUP2 DUP4 SUB SUB DUP2 MSTORE SWAP1 PUSH1 0x40 MSTORE PUSH32 0x41304FAC00000000000000000000000000000000000000000000000000000000 PUSH28 0xFFFFFFFFFFFFFFFFFFFFFFFFFFFFFFFFFFFFFFFFFFFFFFFFFFFFFFFF NOT AND PUSH1 0x20 DUP3 ADD DUP1 MLOAD PUSH28 0xFFFFFFFFFFFFFFFFFFFFFFFFFFFFFFFFFFFFFFFFFFFFFFFFFFFFFFFF DUP4 DUP2 DUP4 AND OR DUP4 MSTORE POP POP POP POP PUSH2 0x5B13 JUMP JUMPDEST POP JUMP JUMPDEST PUSH1 0x0 DUP1 PUSH32 0x23B872DD7302113369CDA2901243429419BEC145408FA8B352B3DD92B66C680B PUSH2 0x100 PUSH1 0x0 SWAP1 SLOAD SWAP1 PUSH2 0x100 EXP SWAP1 DIV PUSH20 0xFFFFFFFFFFFFFFFFFFFFFFFFFFFFFFFFFFFFFFFF AND DUP6 DUP6 PUSH1 0x40 MLOAD PUSH1 0x24 ADD PUSH2 0x4F53 SWAP4 SWAP3 SWAP2 SWAP1 PUSH2 0x89F8 JUMP JUMPDEST PUSH1 0x40 MLOAD PUSH1 0x20 DUP2 DUP4 SUB SUB DUP2 MSTORE SWAP1 PUSH1 0x40 MSTORE SWAP1 PUSH28 0xFFFFFFFFFFFFFFFFFFFFFFFFFFFFFFFFFFFFFFFFFFFFFFFFFFFFFFFF NOT AND PUSH1 0x20 DUP3 ADD DUP1 MLOAD PUSH28 0xFFFFFFFFFFFFFFFFFFFFFFFFFFFFFFFFFFFFFFFFFFFFFFFFFFFFFFFF DUP4 DUP2 DUP4 AND OR DUP4 MSTORE POP POP POP POP SWAP1 POP PUSH2 0x4FF9 PUSH1 0x40 MLOAD DUP1 PUSH1 0x60 ADD PUSH1 0x40 MSTORE DUP1 PUSH1 0x36 DUP2 MSTORE PUSH1 0x20 ADD PUSH2 0x9053 PUSH1 0x36 SWAP2 CODECOPY PUSH2 0x100 PUSH1 0x0 SWAP1 SLOAD SWAP1 PUSH2 0x100 EXP SWAP1 DIV PUSH20 0xFFFFFFFFFFFFFFFFFFFFFFFFFFFFFFFFFFFFFFFF AND DUP7 DUP7 PUSH2 0x5B3C JUMP JUMPDEST PUSH1 0x0 PUSH2 0x102 PUSH1 0x0 SWAP1 SLOAD SWAP1 PUSH2 0x100 EXP SWAP1 DIV PUSH20 0xFFFFFFFFFFFFFFFFFFFFFFFFFFFFFFFFFFFFFFFF AND PUSH20 0xFFFFFFFFFFFFFFFFFFFFFFFFFFFFFFFFFFFFFFFF AND DUP3 PUSH1 0x40 MLOAD PUSH2 0x5043 SWAP2 SWAP1 PUSH2 0x814A JUMP JUMPDEST PUSH1 0x0 PUSH1 0x40 MLOAD DUP1 DUP4 SUB DUP2 PUSH1 0x0 DUP7 GAS CALL SWAP2 POP POP RETURNDATASIZE DUP1 PUSH1 0x0 DUP2 EQ PUSH2 0x5080 JUMPI PUSH1 0x40 MLOAD SWAP2 POP PUSH1 0x1F NOT PUSH1 0x3F RETURNDATASIZE ADD AND DUP3 ADD PUSH1 0x40 MSTORE RETURNDATASIZE DUP3 MSTORE RETURNDATASIZE PUSH1 0x0 PUSH1 0x20 DUP5 ADD RETURNDATACOPY PUSH2 0x5085 JUMP JUMPDEST PUSH1 0x60 SWAP2 POP JUMPDEST POP POP SWAP1 POP DUP1 PUSH2 0x50C9 JUMPI PUSH1 0x40 MLOAD PUSH32 0x8C379A000000000000000000000000000000000000000000000000000000000 DUP2 MSTORE PUSH1 0x4 ADD PUSH2 0x50C0 SWAP1 PUSH2 0x8A7B JUMP JUMPDEST PUSH1 0x40 MLOAD DUP1 SWAP2 SUB SWAP1 REVERT JUMPDEST DUP1 SWAP3 POP POP POP SWAP3 SWAP2 POP POP JUMP JUMPDEST PUSH1 0x0 DUP1 PUSH1 0xFC PUSH1 0x0 DUP6 DUP2 MSTORE PUSH1 0x20 ADD SWAP1 DUP2 MSTORE PUSH1 0x20 ADD PUSH1 0x0 KECCAK256 SWAP1 POP PUSH1 0x0 PUSH2 0x50FA DUP3 PUSH1 0x1 ADD PUSH2 0x5BDE JUMP JUMPDEST SWAP1 POP PUSH1 0x0 DUP2 PUSH1 0x64 DUP7 PUSH1 0x2 PUSH2 0x510E SWAP2 SWAP1 PUSH2 0x7ED4 JUMP JUMPDEST PUSH2 0x5118 SWAP2 SWAP1 PUSH2 0x7F2E JUMP JUMPDEST PUSH2 0x5122 SWAP2 SWAP1 PUSH2 0x7F2E JUMP JUMPDEST SWAP1 POP PUSH2 0x5164 PUSH1 0x40 MLOAD DUP1 PUSH1 0x40 ADD PUSH1 0x40 MSTORE DUP1 PUSH1 0x20 DUP2 MSTORE PUSH1 0x20 ADD PUSH32 0x73656E64526577617264733A2025732C20766F7465724C656E6774683A202573 DUP2 MSTORE POP DUP3 DUP5 PUSH2 0x5BF3 JUMP JUMPDEST PUSH1 0x0 PUSH1 0x1 SWAP1 POP PUSH1 0x0 JUMPDEST DUP4 DUP2 LT ISZERO PUSH2 0x5206 JUMPI PUSH2 0x51C9 PUSH1 0x40 MLOAD DUP1 PUSH1 0x40 ADD PUSH1 0x40 MSTORE DUP1 PUSH1 0x1C DUP2 MSTORE PUSH1 0x20 ADD PUSH32 0x7265776172642076616C696461746F7220616464726573733A20257300000000 DUP2 MSTORE POP PUSH2 0x51C4 DUP4 DUP9 PUSH1 0x1 ADD PUSH2 0x5C92 SWAP1 SWAP2 SWAP1 PUSH4 0xFFFFFFFF AND JUMP JUMPDEST PUSH2 0x5CAC JUMP JUMPDEST DUP2 DUP1 ISZERO PUSH2 0x51F1 JUMPI POP PUSH2 0x51F0 PUSH2 0x51EA DUP3 DUP8 PUSH1 0x1 ADD PUSH2 0x5C92 SWAP1 SWAP2 SWAP1 PUSH4 0xFFFFFFFF AND JUMP JUMPDEST DUP5 PUSH2 0x4EF7 JUMP JUMPDEST JUMPDEST SWAP2 POP DUP1 DUP1 PUSH2 0x51FE SWAP1 PUSH2 0x8A9B JUMP JUMPDEST SWAP2 POP POP PUSH2 0x516D JUMP JUMPDEST POP DUP1 SWAP5 POP POP POP POP POP SWAP3 SWAP2 POP POP JUMP JUMPDEST PUSH1 0x0 DUP1 PUSH32 0xF26C159FD7D78F3848964C3ADF4AEA78577348FCB297DB019BF8F5EFBED02195 DUP4 PUSH1 0x40 MLOAD PUSH1 0x24 ADD PUSH2 0x5249 SWAP2 SWAP1 PUSH2 0x6326 JUMP JUMPDEST PUSH1 0x40 MLOAD PUSH1 0x20 DUP2 DUP4 SUB SUB DUP2 MSTORE SWAP1 PUSH1 0x40 MSTORE SWAP1 PUSH28 0xFFFFFFFFFFFFFFFFFFFFFFFFFFFFFFFFFFFFFFFFFFFFFFFFFFFFFFFF NOT AND PUSH1 0x20 DUP3 ADD DUP1 MLOAD PUSH28 0xFFFFFFFFFFFFFFFFFFFFFFFFFFFFFFFFFFFFFFFFFFFFFFFFFFFFFFFF DUP4 DUP2 DUP4 AND OR DUP4 MSTORE POP POP POP POP SWAP1 POP PUSH1 0x0 PUSH2 0x102 PUSH1 0x0 SWAP1 SLOAD SWAP1 PUSH2 0x100 EXP SWAP1 DIV PUSH20 0xFFFFFFFFFFFFFFFFFFFFFFFFFFFFFFFFFFFFFFFF AND PUSH20 0xFFFFFFFFFFFFFFFFFFFFFFFFFFFFFFFFFFFFFFFF AND DUP3 PUSH1 0x40 MLOAD PUSH2 0x52F2 SWAP2 SWAP1 PUSH2 0x814A JUMP JUMPDEST PUSH1 0x0 PUSH1 0x40 MLOAD DUP1 DUP4 SUB DUP2 PUSH1 0x0 DUP7 GAS CALL SWAP2 POP POP RETURNDATASIZE DUP1 PUSH1 0x0 DUP2 EQ PUSH2 0x532F JUMPI PUSH1 0x40 MLOAD SWAP2 POP PUSH1 0x1F NOT PUSH1 0x3F RETURNDATASIZE ADD AND DUP3 ADD PUSH1 0x40 MSTORE RETURNDATASIZE DUP3 MSTORE RETURNDATASIZE PUSH1 0x0 PUSH1 0x20 DUP5 ADD RETURNDATACOPY PUSH2 0x5334 JUMP JUMPDEST PUSH1 0x60 SWAP2 POP JUMPDEST POP POP SWAP1 POP DUP1 PUSH2 0x5378 JUMPI PUSH1 0x40 MLOAD PUSH32 0x8C379A000000000000000000000000000000000000000000000000000000000 DUP2 MSTORE PUSH1 0x4 ADD PUSH2 0x536F SWAP1 PUSH2 0x8B2F JUMP JUMPDEST PUSH1 0x40 MLOAD DUP1 SWAP2 SUB SWAP1 REVERT JUMPDEST DUP1 SWAP3 POP POP POP SWAP2 SWAP1 POP JUMP JUMPDEST PUSH1 0x0 DUP1 PUSH32 0x53CC2FAE7ECEF069DA76AE9063C3ECFA7F417173BC5191FE1BB037165D76473F DUP4 PUSH1 0x40 MLOAD PUSH1 0x24 ADD PUSH2 0x53B7 SWAP2 SWAP1 PUSH2 0x6326 JUMP JUMPDEST PUSH1 0x40 MLOAD PUSH1 0x20 DUP2 DUP4 SUB SUB DUP2 MSTORE SWAP1 PUSH1 0x40 MSTORE SWAP1 PUSH28 0xFFFFFFFFFFFFFFFFFFFFFFFFFFFFFFFFFFFFFFFFFFFFFFFFFFFFFFFF NOT AND PUSH1 0x20 DUP3 ADD DUP1 MLOAD PUSH28 0xFFFFFFFFFFFFFFFFFFFFFFFFFFFFFFFFFFFFFFFFFFFFFFFFFFFFFFFF DUP4 DUP2 DUP4 AND OR DUP4 MSTORE POP POP POP POP SWAP1 POP PUSH1 0x0 PUSH2 0x102 PUSH1 0x0 SWAP1 SLOAD SWAP1 PUSH2 0x100 EXP SWAP1 DIV PUSH20 0xFFFFFFFFFFFFFFFFFFFFFFFFFFFFFFFFFFFFFFFF AND PUSH20 0xFFFFFFFFFFFFFFFFFFFFFFFFFFFFFFFFFFFFFFFF AND DUP3 PUSH1 0x40 MLOAD PUSH2 0x5460 SWAP2 SWAP1 PUSH2 0x814A JUMP JUMPDEST PUSH1 0x0 PUSH1 0x40 MLOAD DUP1 DUP4 SUB DUP2 PUSH1 0x0 DUP7 GAS CALL SWAP2 POP POP RETURNDATASIZE DUP1 PUSH1 0x0 DUP2 EQ PUSH2 0x549D JUMPI PUSH1 0x40 MLOAD SWAP2 POP PUSH1 0x1F NOT PUSH1 0x3F RETURNDATASIZE ADD AND DUP3 ADD PUSH1 0x40 MSTORE RETURNDATASIZE DUP3 MSTORE RETURNDATASIZE PUSH1 0x0 PUSH1 0x20 DUP5 ADD RETURNDATACOPY PUSH2 0x54A2 JUMP JUMPDEST PUSH1 0x60 SWAP2 POP JUMPDEST POP POP SWAP1 POP DUP1 PUSH2 0x54E6 JUMPI PUSH1 0x40 MLOAD PUSH32 0x8C379A000000000000000000000000000000000000000000000000000000000 DUP2 MSTORE PUSH1 0x4 ADD PUSH2 0x54DD SWAP1 PUSH2 0x8B9B JUMP JUMPDEST PUSH1 0x40 MLOAD DUP1 SWAP2 SUB SWAP1 REVERT JUMPDEST DUP1 SWAP3 POP POP POP SWAP2 SWAP1 POP JUMP JUMPDEST PUSH1 0x0 PUSH32 0x8B73C3C69BB8FE3D512ECC4CF759CC79239F7B179B0FFACAA9A75D522B39400F PUSH2 0x103 PUSH1 0x40 MLOAD PUSH1 0x20 ADD PUSH2 0x5526 SWAP2 SWAP1 PUSH2 0x8C4F JUMP JUMPDEST PUSH1 0x40 MLOAD PUSH1 0x20 DUP2 DUP4 SUB SUB DUP2 MSTORE SWAP1 PUSH1 0x40 MSTORE DUP1 MLOAD SWAP1 PUSH1 0x20 ADD KECCAK256 PUSH2 0x104 PUSH1 0x40 MLOAD PUSH1 0x20 ADD PUSH2 0x554F SWAP2 SWAP1 PUSH2 0x8C4F JUMP JUMPDEST PUSH1 0x40 MLOAD PUSH1 0x20 DUP2 DUP4 SUB SUB DUP2 MSTORE SWAP1 PUSH1 0x40 MSTORE DUP1 MLOAD SWAP1 PUSH1 0x20 ADD KECCAK256 CHAINID ADDRESS PUSH1 0x40 MLOAD PUSH1 0x20 ADD PUSH2 0x557B SWAP6 SWAP5 SWAP4 SWAP3 SWAP2 SWAP1 PUSH2 0x8C66 JUMP JUMPDEST PUSH1 0x40 MLOAD PUSH1 0x20 DUP2 DUP4 SUB SUB DUP2 MSTORE SWAP1 PUSH1 0x40 MSTORE DUP1 MLOAD SWAP1 PUSH1 0x20 ADD KECCAK256 SWAP1 POP SWAP1 JUMP JUMPDEST PUSH1 0x0 DUP3 DUP3 PUSH1 0x40 MLOAD PUSH1 0x20 ADD PUSH2 0x55AB SWAP3 SWAP2 SWAP1 PUSH2 0x8D26 JUMP JUMPDEST PUSH1 0x40 MLOAD PUSH1 0x20 DUP2 DUP4 SUB SUB DUP2 MSTORE SWAP1 PUSH1 0x40 MSTORE DUP1 MLOAD SWAP1 PUSH1 0x20 ADD KECCAK256 SWAP1 POP SWAP3 SWAP2 POP POP JUMP JUMPDEST PUSH1 0x0 DUP1 PUSH32 0x7FFFFFFFFFFFFFFFFFFFFFFFFFFFFFFF5D576E7357A4501DDFE92F46681B20A0 DUP4 PUSH1 0x0 SHR GT ISZERO PUSH2 0x5604 JUMPI PUSH1 0x0 PUSH1 0x3 SWAP2 POP SWAP2 POP PUSH2 0x56CC JUMP JUMPDEST PUSH1 0x1B DUP6 PUSH1 0xFF AND EQ ISZERO DUP1 ISZERO PUSH2 0x561C JUMPI POP PUSH1 0x1C DUP6 PUSH1 0xFF AND EQ ISZERO JUMPDEST ISZERO PUSH2 0x562E JUMPI PUSH1 0x0 PUSH1 0x4 SWAP2 POP SWAP2 POP PUSH2 0x56CC JUMP JUMPDEST PUSH1 0x0 PUSH1 0x1 DUP8 DUP8 DUP8 DUP8 PUSH1 0x40 MLOAD PUSH1 0x0 DUP2 MSTORE PUSH1 0x20 ADD PUSH1 0x40 MSTORE PUSH1 0x40 MLOAD PUSH2 0x5653 SWAP5 SWAP4 SWAP3 SWAP2 SWAP1 PUSH2 0x8D5D JUMP JUMPDEST PUSH1 0x20 PUSH1 0x40 MLOAD PUSH1 0x20 DUP2 SUB SWAP1 DUP1 DUP5 SUB SWAP1 DUP6 GAS STATICCALL ISZERO DUP1 ISZERO PUSH2 0x5675 JUMPI RETURNDATASIZE PUSH1 0x0 DUP1 RETURNDATACOPY RETURNDATASIZE PUSH1 0x0 REVERT JUMPDEST POP POP POP PUSH1 0x20 PUSH1 0x40 MLOAD SUB MLOAD SWAP1 POP PUSH1 0x0 PUSH20 0xFFFFFFFFFFFFFFFFFFFFFFFFFFFFFFFFFFFFFFFF AND DUP2 PUSH20 0xFFFFFFFFFFFFFFFFFFFFFFFFFFFFFFFFFFFFFFFF AND SUB PUSH2 0x56C3 JUMPI PUSH1 0x0 PUSH1 0x1 SWAP3 POP SWAP3 POP POP PUSH2 0x56CC JUMP JUMPDEST DUP1 PUSH1 0x0 SWAP3 POP SWAP3 POP POP JUMPDEST SWAP5 POP SWAP5 SWAP3 POP POP POP JUMP JUMPDEST PUSH1 0x0 DUP1 PUSH1 0x0 PUSH32 0x7FFFFFFFFFFFFFFFFFFFFFFFFFFFFFFFFFFFFFFFFFFFFFFFFFFFFFFFFFFFFFFF PUSH1 0x0 SHL DUP5 AND SWAP1 POP PUSH1 0x0 PUSH1 0x1B PUSH1 0xFF DUP7 PUSH1 0x0 SHR SWAP1 SHR PUSH2 0x5718 SWAP2 SWAP1 PUSH2 0x8DA2 JUMP JUMPDEST SWAP1 POP PUSH2 0x5726 DUP8 DUP3 DUP9 DUP6 PUSH2 0x55C9 JUMP JUMPDEST SWAP4 POP SWAP4 POP POP POP SWAP4 POP SWAP4 SWAP2 POP POP JUMP JUMPDEST PUSH1 0x60 PUSH1 0x0 PUSH1 0x2 DUP4 PUSH1 0x2 PUSH2 0x5747 SWAP2 SWAP1 PUSH2 0x7ED4 JUMP JUMPDEST PUSH2 0x5751 SWAP2 SWAP1 PUSH2 0x8DA2 JUMP JUMPDEST PUSH8 0xFFFFFFFFFFFFFFFF DUP2 GT ISZERO PUSH2 0x576A JUMPI PUSH2 0x5769 PUSH2 0x6413 JUMP JUMPDEST JUMPDEST PUSH1 0x40 MLOAD SWAP1 DUP1 DUP3 MSTORE DUP1 PUSH1 0x1F ADD PUSH1 0x1F NOT AND PUSH1 0x20 ADD DUP3 ADD PUSH1 0x40 MSTORE DUP1 ISZERO PUSH2 0x579C JUMPI DUP2 PUSH1 0x20 ADD PUSH1 0x1 DUP3 MUL DUP1 CALLDATASIZE DUP4 CALLDATACOPY DUP1 DUP3 ADD SWAP2 POP POP SWAP1 POP JUMPDEST POP SWAP1 POP PUSH32 0x3000000000000000000000000000000000000000000000000000000000000000 DUP2 PUSH1 0x0 DUP2 MLOAD DUP2 LT PUSH2 0x57D4 JUMPI PUSH2 0x57D3 PUSH2 0x8DF8 JUMP JUMPDEST JUMPDEST PUSH1 0x20 ADD ADD SWAP1 PUSH31 0xFFFFFFFFFFFFFFFFFFFFFFFFFFFFFFFFFFFFFFFFFFFFFFFFFFFFFFFFFFFFFF NOT AND SWAP1 DUP2 PUSH1 0x0 BYTE SWAP1 MSTORE8 POP PUSH32 0x7800000000000000000000000000000000000000000000000000000000000000 DUP2 PUSH1 0x1 DUP2 MLOAD DUP2 LT PUSH2 0x5838 JUMPI PUSH2 0x5837 PUSH2 0x8DF8 JUMP JUMPDEST JUMPDEST PUSH1 0x20 ADD ADD SWAP1 PUSH31 0xFFFFFFFFFFFFFFFFFFFFFFFFFFFFFFFFFFFFFFFFFFFFFFFFFFFFFFFFFFFFFF NOT AND SWAP1 DUP2 PUSH1 0x0 BYTE SWAP1 MSTORE8 POP PUSH1 0x0 PUSH1 0x1 DUP5 PUSH1 0x2 PUSH2 0x5878 SWAP2 SWAP1 PUSH2 0x7ED4 JUMP JUMPDEST PUSH2 0x5882 SWAP2 SWAP1 PUSH2 0x8DA2 JUMP JUMPDEST SWAP1 POP JUMPDEST PUSH1 0x1 DUP2 GT ISZERO PUSH2 0x5922 JUMPI PUSH32 0x3031323334353637383961626364656600000000000000000000000000000000 PUSH1 0xF DUP7 AND PUSH1 0x10 DUP2 LT PUSH2 0x58C4 JUMPI PUSH2 0x58C3 PUSH2 0x8DF8 JUMP JUMPDEST JUMPDEST BYTE PUSH1 0xF8 SHL DUP3 DUP3 DUP2 MLOAD DUP2 LT PUSH2 0x58DB JUMPI PUSH2 0x58DA PUSH2 0x8DF8 JUMP JUMPDEST JUMPDEST PUSH1 0x20 ADD ADD SWAP1 PUSH31 0xFFFFFFFFFFFFFFFFFFFFFFFFFFFFFFFFFFFFFFFFFFFFFFFFFFFFFFFFFFFFFF NOT AND SWAP1 DUP2 PUSH1 0x0 BYTE SWAP1 MSTORE8 POP PUSH1 0x4 DUP6 SWAP1 SHR SWAP5 POP DUP1 PUSH2 0x591B SWAP1 PUSH2 0x8E27 JUMP JUMPDEST SWAP1 POP PUSH2 0x5885 JUMP JUMPDEST POP PUSH1 0x0 DUP5 EQ PUSH2 0x5966 JUMPI PUSH1 0x40 MLOAD PUSH32 0x8C379A000000000000000000000000000000000000000000000000000000000 DUP2 MSTORE PUSH1 0x4 ADD PUSH2 0x595D SWAP1 PUSH2 0x8E9C JUMP JUMPDEST PUSH1 0x40 MLOAD DUP1 SWAP2 SUB SWAP1 REVERT JUMPDEST DUP1 SWAP2 POP POP SWAP3 SWAP2 POP POP JUMP JUMPDEST PUSH2 0x5979 DUP2 PUSH2 0x4D0C JUMP JUMPDEST DUP1 PUSH20 0xFFFFFFFFFFFFFFFFFFFFFFFFFFFFFFFFFFFFFFFF AND PUSH32 0xBC7CD75A20EE27FD9ADEBAB32041F755214DBC6BFFA90CC0225B39DA2E5C2D3B PUSH1 0x40 MLOAD PUSH1 0x40 MLOAD DUP1 SWAP2 SUB SWAP1 LOG2 POP JUMP JUMPDEST PUSH1 0x60 PUSH2 0x59CA DUP4 PUSH2 0x4C38 JUMP JUMPDEST PUSH2 0x5A09 JUMPI PUSH1 0x40 MLOAD PUSH32 0x8C379A000000000000000000000000000000000000000000000000000000000 DUP2 MSTORE PUSH1 0x4 ADD PUSH2 0x5A00 SWAP1 PUSH2 0x8F2E JUMP JUMPDEST PUSH1 0x40 MLOAD DUP1 SWAP2 SUB SWAP1 REVERT JUMPDEST PUSH1 0x0 DUP1 DUP5 PUSH20 0xFFFFFFFFFFFFFFFFFFFFFFFFFFFFFFFFFFFFFFFF AND DUP5 PUSH1 0x40 MLOAD PUSH2 0x5A31 SWAP2 SWAP1 PUSH2 0x814A JUMP JUMPDEST PUSH1 0x0 PUSH1 0x40 MLOAD DUP1 DUP4 SUB DUP2 DUP6 GAS DELEGATECALL SWAP2 POP POP RETURNDATASIZE DUP1 PUSH1 0x0 DUP2 EQ PUSH2 0x5A6C JUMPI PUSH1 0x40 MLOAD SWAP2 POP PUSH1 0x1F NOT PUSH1 0x3F RETURNDATASIZE ADD AND DUP3 ADD PUSH1 0x40 MSTORE RETURNDATASIZE DUP3 MSTORE RETURNDATASIZE PUSH1 0x0 PUSH1 0x20 DUP5 ADD RETURNDATACOPY PUSH2 0x5A71 JUMP JUMPDEST PUSH1 0x60 SWAP2 POP JUMPDEST POP SWAP2 POP SWAP2 POP PUSH2 0x5A99 DUP3 DUP3 PUSH1 0x40 MLOAD DUP1 PUSH1 0x60 ADD PUSH1 0x40 MSTORE DUP1 PUSH1 0x27 DUP2 MSTORE PUSH1 0x20 ADD PUSH2 0x902C PUSH1 0x27 SWAP2 CODECOPY PUSH2 0x5D48 JUMP JUMPDEST SWAP3 POP POP POP SWAP3 SWAP2 POP POP JUMP JUMPDEST PUSH1 0x0 PUSH2 0x5AAF DUP4 DUP4 PUSH2 0x4E3B JUMP JUMPDEST PUSH2 0x5B08 JUMPI DUP3 PUSH1 0x0 ADD DUP3 SWAP1 DUP1 PUSH1 0x1 DUP2 SLOAD ADD DUP1 DUP3 SSTORE DUP1 SWAP2 POP POP PUSH1 0x1 SWAP1 SUB SWAP1 PUSH1 0x0 MSTORE PUSH1 0x20 PUSH1 0x0 KECCAK256 ADD PUSH1 0x0 SWAP1 SWAP2 SWAP1 SWAP2 SWAP1 SWAP2 POP SSTORE DUP3 PUSH1 0x0 ADD DUP1 SLOAD SWAP1 POP DUP4 PUSH1 0x1 ADD PUSH1 0x0 DUP5 DUP2 MSTORE PUSH1 0x20 ADD SWAP1 DUP2 MSTORE PUSH1 0x20 ADD PUSH1 0x0 KECCAK256 DUP2 SWAP1 SSTORE POP PUSH1 0x1 SWAP1 POP PUSH2 0x5B0D JUMP JUMPDEST PUSH1 0x0 SWAP1 POP JUMPDEST SWAP3 SWAP2 POP POP JUMP JUMPDEST PUSH1 0x0 DUP2 MLOAD SWAP1 POP PUSH1 0x0 PUSH11 0x636F6E736F6C652E6C6F67 SWAP1 POP PUSH1 0x20 DUP4 ADD PUSH1 0x0 DUP1 DUP5 DUP4 DUP6 GAS STATICCALL POP POP POP POP POP JUMP JUMPDEST PUSH2 0x5BD8 DUP5 DUP5 DUP5 DUP5 PUSH1 0x40 MLOAD PUSH1 0x24 ADD PUSH2 0x5B56 SWAP5 SWAP4 SWAP3 SWAP2 SWAP1 PUSH2 0x8F4E JUMP JUMPDEST PUSH1 0x40 MLOAD PUSH1 0x20 DUP2 DUP4 SUB SUB DUP2 MSTORE SWAP1 PUSH1 0x40 MSTORE PUSH32 0x6EB7943D00000000000000000000000000000000000000000000000000000000 PUSH28 0xFFFFFFFFFFFFFFFFFFFFFFFFFFFFFFFFFFFFFFFFFFFFFFFFFFFFFFFF NOT AND PUSH1 0x20 DUP3 ADD DUP1 MLOAD PUSH28 0xFFFFFFFFFFFFFFFFFFFFFFFFFFFFFFFFFFFFFFFFFFFFFFFFFFFFFFFF DUP4 DUP2 DUP4 AND OR DUP4 MSTORE POP POP POP POP PUSH2 0x5B13 JUMP JUMPDEST POP POP POP POP JUMP JUMPDEST PUSH1 0x0 PUSH2 0x5BEC DUP3 PUSH1 0x0 ADD PUSH2 0x5DAF JUMP JUMPDEST SWAP1 POP SWAP2 SWAP1 POP JUMP JUMPDEST PUSH2 0x5C8D DUP4 DUP4 DUP4 PUSH1 0x40 MLOAD PUSH1 0x24 ADD PUSH2 0x5C0B SWAP4 SWAP3 SWAP2 SWAP1 PUSH2 0x8F9A JUMP JUMPDEST PUSH1 0x40 MLOAD PUSH1 0x20 DUP2 DUP4 SUB SUB DUP2 MSTORE SWAP1 PUSH1 0x40 MSTORE PUSH32 0x969CDD0300000000000000000000000000000000000000000000000000000000 PUSH28 0xFFFFFFFFFFFFFFFFFFFFFFFFFFFFFFFFFFFFFFFFFFFFFFFFFFFFFFFF NOT AND PUSH1 0x20 DUP3 ADD DUP1 MLOAD PUSH28 0xFFFFFFFFFFFFFFFFFFFFFFFFFFFFFFFFFFFFFFFFFFFFFFFFFFFFFFFF DUP4 DUP2 DUP4 AND OR DUP4 MSTORE POP POP POP POP PUSH2 0x5B13 JUMP JUMPDEST POP POP POP JUMP JUMPDEST PUSH1 0x0 PUSH2 0x5CA1 DUP4 PUSH1 0x0 ADD DUP4 PUSH2 0x5DC0 JUMP JUMPDEST PUSH1 0x0 SHR SWAP1 POP SWAP3 SWAP2 POP POP JUMP JUMPDEST PUSH2 0x5D44 DUP3 DUP3 PUSH1 0x40 MLOAD PUSH1 0x24 ADD PUSH2 0x5CC2 SWAP3 SWAP2 SWAP1 PUSH2 0x8FD8 JUMP JUMPDEST PUSH1 0x40 MLOAD PUSH1 0x20 DUP2 DUP4 SUB SUB DUP2 MSTORE SWAP1 PUSH1 0x40 MSTORE PUSH32 0x319AF33300000000000000000000000000000000000000000000000000000000 PUSH28 0xFFFFFFFFFFFFFFFFFFFFFFFFFFFFFFFFFFFFFFFFFFFFFFFFFFFFFFFF NOT AND PUSH1 0x20 DUP3 ADD DUP1 MLOAD PUSH28 0xFFFFFFFFFFFFFFFFFFFFFFFFFFFFFFFFFFFFFFFFFFFFFFFFFFFFFFFF DUP4 DUP2 DUP4 AND OR DUP4 MSTORE POP POP POP POP PUSH2 0x5B13 JUMP JUMPDEST POP POP JUMP JUMPDEST PUSH1 0x60 DUP4 ISZERO PUSH2 0x5D58 JUMPI DUP3 SWAP1 POP PUSH2 0x5DA8 JUMP JUMPDEST PUSH1 0x0 DUP4 MLOAD GT ISZERO PUSH2 0x5D6B JUMPI DUP3 MLOAD DUP1 DUP5 PUSH1 0x20 ADD REVERT JUMPDEST DUP2 PUSH1 0x40 MLOAD PUSH32 0x8C379A000000000000000000000000000000000000000000000000000000000 DUP2 MSTORE PUSH1 0x4 ADD PUSH2 0x5D9F SWAP2 SWAP1 PUSH2 0x6136 JUMP JUMPDEST PUSH1 0x40 MLOAD DUP1 SWAP2 SUB SWAP1 REVERT JUMPDEST SWAP4 SWAP3 POP POP POP JUMP JUMPDEST PUSH1 0x0 DUP2 PUSH1 0x0 ADD DUP1 SLOAD SWAP1 POP SWAP1 POP SWAP2 SWAP1 POP JUMP JUMPDEST PUSH1 0x0 DUP3 PUSH1 0x0 ADD DUP3 DUP2 SLOAD DUP2 LT PUSH2 0x5DD8 JUMPI PUSH2 0x5DD7 PUSH2 0x8DF8 JUMP JUMPDEST JUMPDEST SWAP1 PUSH1 0x0 MSTORE PUSH1 0x20 PUSH1 0x0 KECCAK256 ADD SLOAD SWAP1 POP SWAP3 SWAP2 POP POP JUMP JUMPDEST DUP3 DUP1 SLOAD PUSH2 0x5DF7 SWAP1 PUSH2 0x6B06 JUMP JUMPDEST SWAP1 PUSH1 0x0 MSTORE PUSH1 0x20 PUSH1 0x0 KECCAK256 SWAP1 PUSH1 0x1F ADD PUSH1 0x20 SWAP1 DIV DUP2 ADD SWAP3 DUP3 PUSH2 0x5E19 JUMPI PUSH1 0x0 DUP6 SSTORE PUSH2 0x5E60 JUMP JUMPDEST DUP3 PUSH1 0x1F LT PUSH2 0x5E32 JUMPI DUP1 CALLDATALOAD PUSH1 0xFF NOT AND DUP4 DUP1 ADD OR DUP6 SSTORE PUSH2 0x5E60 JUMP JUMPDEST DUP3 DUP1 ADD PUSH1 0x1 ADD DUP6 SSTORE DUP3 ISZERO PUSH2 0x5E60 JUMPI SWAP2 DUP3 ADD JUMPDEST DUP3 DUP2 GT ISZERO PUSH2 0x5E5F JUMPI DUP3 CALLDATALOAD DUP3 SSTORE SWAP2 PUSH1 0x20 ADD SWAP2 SWAP1 PUSH1 0x1 ADD SWAP1 PUSH2 0x5E44 JUMP JUMPDEST JUMPDEST POP SWAP1 POP PUSH2 0x5E6D SWAP2 SWAP1 PUSH2 0x5F7D JUMP JUMPDEST POP SWAP1 JUMP JUMPDEST DUP3 DUP1 SLOAD PUSH2 0x5E7D SWAP1 PUSH2 0x6B06 JUMP JUMPDEST SWAP1 PUSH1 0x0 MSTORE PUSH1 0x20 PUSH1 0x0 KECCAK256 SWAP1 PUSH1 0x1F ADD PUSH1 0x20 SWAP1 DIV DUP2 ADD SWAP3 DUP3 PUSH2 0x5E9F JUMPI PUSH1 0x0 DUP6 SSTORE PUSH2 0x5EE6 JUMP JUMPDEST DUP3 PUSH1 0x1F LT PUSH2 0x5EB8 JUMPI DUP1 MLOAD PUSH1 0xFF NOT AND DUP4 DUP1 ADD OR DUP6 SSTORE PUSH2 0x5EE6 JUMP JUMPDEST DUP3 DUP1 ADD PUSH1 0x1 ADD DUP6 SSTORE DUP3 ISZERO PUSH2 0x5EE6 JUMPI SWAP2 DUP3 ADD JUMPDEST DUP3 DUP2 GT ISZERO PUSH2 0x5EE5 JUMPI DUP3 MLOAD DUP3 SSTORE SWAP2 PUSH1 0x20 ADD SWAP2 SWAP1 PUSH1 0x1 ADD SWAP1 PUSH2 0x5ECA JUMP JUMPDEST JUMPDEST POP SWAP1 POP PUSH2 0x5EF3 SWAP2 SWAP1 PUSH2 0x5F7D JUMP JUMPDEST POP SWAP1 JUMP JUMPDEST DUP3 DUP1 SLOAD PUSH2 0x5F03 SWAP1 PUSH2 0x6B06 JUMP JUMPDEST SWAP1 PUSH1 0x0 MSTORE PUSH1 0x20 PUSH1 0x0 KECCAK256 SWAP1 PUSH1 0x1F ADD PUSH1 0x20 SWAP1 DIV DUP2 ADD SWAP3 DUP3 PUSH2 0x5F25 JUMPI PUSH1 0x0 DUP6 SSTORE PUSH2 0x5F6C JUMP JUMPDEST DUP3 PUSH1 0x1F LT PUSH2 0x5F3E JUMPI DUP1 MLOAD PUSH1 0xFF NOT AND DUP4 DUP1 ADD OR DUP6 SSTORE PUSH2 0x5F6C JUMP JUMPDEST DUP3 DUP1 ADD PUSH1 0x1 ADD DUP6 SSTORE DUP3 ISZERO PUSH2 0x5F6C JUMPI SWAP2 DUP3 ADD JUMPDEST DUP3 DUP2 GT ISZERO PUSH2 0x5F6B JUMPI DUP3 MLOAD DUP3 SSTORE SWAP2 PUSH1 0x20 ADD SWAP2 SWAP1 PUSH1 0x1 ADD SWAP1 PUSH2 0x5F50 JUMP JUMPDEST JUMPDEST POP SWAP1 POP PUSH2 0x5F79 SWAP2 SWAP1 PUSH2 0x5F7D JUMP JUMPDEST POP SWAP1 JUMP JUMPDEST JUMPDEST DUP1 DUP3 GT ISZERO PUSH2 0x5F96 JUMPI PUSH1 0x0 DUP2 PUSH1 0x0 SWAP1 SSTORE POP PUSH1 0x1 ADD PUSH2 0x5F7E JUMP JUMPDEST POP SWAP1 JUMP JUMPDEST PUSH1 0x0 PUSH1 0x40 MLOAD SWAP1 POP SWAP1 JUMP JUMPDEST PUSH1 0x0 DUP1 REVERT JUMPDEST PUSH1 0x0 DUP1 REVERT JUMPDEST PUSH1 0x0 PUSH32 0xFFFFFFFF00000000000000000000000000000000000000000000000000000000 DUP3 AND SWAP1 POP SWAP2 SWAP1 POP JUMP JUMPDEST PUSH2 0x5FE3 DUP2 PUSH2 0x5FAE JUMP JUMPDEST DUP2 EQ PUSH2 0x5FEE JUMPI PUSH1 0x0 DUP1 REVERT JUMPDEST POP JUMP JUMPDEST PUSH1 0x0 DUP2 CALLDATALOAD SWAP1 POP PUSH2 0x6000 DUP2 PUSH2 0x5FDA JUMP JUMPDEST SWAP3 SWAP2 POP POP JUMP JUMPDEST PUSH1 0x0 PUSH1 0x20 DUP3 DUP5 SUB SLT ISZERO PUSH2 0x601C JUMPI PUSH2 0x601B PUSH2 0x5FA4 JUMP JUMPDEST JUMPDEST PUSH1 0x0 PUSH2 0x602A DUP5 DUP3 DUP6 ADD PUSH2 0x5FF1 JUMP JUMPDEST SWAP2 POP POP SWAP3 SWAP2 POP POP JUMP JUMPDEST PUSH1 0x0 DUP2 ISZERO ISZERO SWAP1 POP SWAP2 SWAP1 POP JUMP JUMPDEST PUSH2 0x6048 DUP2 PUSH2 0x6033 JUMP JUMPDEST DUP3 MSTORE POP POP JUMP JUMPDEST PUSH1 0x0 PUSH1 0x20 DUP3 ADD SWAP1 POP PUSH2 0x6063 PUSH1 0x0 DUP4 ADD DUP5 PUSH2 0x603F JUMP JUMPDEST SWAP3 SWAP2 POP POP JUMP JUMPDEST PUSH1 0x0 DUP2 SWAP1 POP SWAP2 SWAP1 POP JUMP JUMPDEST PUSH2 0x607C DUP2 PUSH2 0x6069 JUMP JUMPDEST DUP3 MSTORE POP POP JUMP JUMPDEST PUSH1 0x0 PUSH1 0x20 DUP3 ADD SWAP1 POP PUSH2 0x6097 PUSH1 0x0 DUP4 ADD DUP5 PUSH2 0x6073 JUMP JUMPDEST SWAP3 SWAP2 POP POP JUMP JUMPDEST PUSH1 0x0 DUP2 MLOAD SWAP1 POP SWAP2 SWAP1 POP JUMP JUMPDEST PUSH1 0x0 DUP3 DUP3 MSTORE PUSH1 0x20 DUP3 ADD SWAP1 POP SWAP3 SWAP2 POP POP JUMP JUMPDEST PUSH1 0x0 JUMPDEST DUP4 DUP2 LT ISZERO PUSH2 0x60D7 JUMPI DUP1 DUP3 ADD MLOAD DUP2 DUP5 ADD MSTORE PUSH1 0x20 DUP2 ADD SWAP1 POP PUSH2 0x60BC JUMP JUMPDEST DUP4 DUP2 GT ISZERO PUSH2 0x60E6 JUMPI PUSH1 0x0 DUP5 DUP5 ADD MSTORE JUMPDEST POP POP POP POP JUMP JUMPDEST PUSH1 0x0 PUSH1 0x1F NOT PUSH1 0x1F DUP4 ADD AND SWAP1 POP SWAP2 SWAP1 POP JUMP JUMPDEST PUSH1 0x0 PUSH2 0x6108 DUP3 PUSH2 0x609D JUMP JUMPDEST PUSH2 0x6112 DUP2 DUP6 PUSH2 0x60A8 JUMP JUMPDEST SWAP4 POP PUSH2 0x6122 DUP2 DUP6 PUSH1 0x20 DUP7 ADD PUSH2 0x60B9 JUMP JUMPDEST PUSH2 0x612B DUP2 PUSH2 0x60EC JUMP JUMPDEST DUP5 ADD SWAP2 POP POP SWAP3 SWAP2 POP POP JUMP JUMPDEST PUSH1 0x0 PUSH1 0x20 DUP3 ADD SWAP1 POP DUP2 DUP2 SUB PUSH1 0x0 DUP4 ADD MSTORE PUSH2 0x6150 DUP2 DUP5 PUSH2 0x60FD JUMP JUMPDEST SWAP1 POP SWAP3 SWAP2 POP POP JUMP JUMPDEST PUSH1 0x0 DUP1 REVERT JUMPDEST PUSH1 0x0 DUP1 REVERT JUMPDEST PUSH1 0x0 DUP1 REVERT JUMPDEST PUSH1 0x0 DUP1 DUP4 PUSH1 0x1F DUP5 ADD SLT PUSH2 0x617D JUMPI PUSH2 0x617C PUSH2 0x6158 JUMP JUMPDEST JUMPDEST DUP3 CALLDATALOAD SWAP1 POP PUSH8 0xFFFFFFFFFFFFFFFF DUP2 GT ISZERO PUSH2 0x619A JUMPI PUSH2 0x6199 PUSH2 0x615D JUMP JUMPDEST JUMPDEST PUSH1 0x20 DUP4 ADD SWAP2 POP DUP4 PUSH1 0x1 DUP3 MUL DUP4 ADD GT ISZERO PUSH2 0x61B6 JUMPI PUSH2 0x61B5 PUSH2 0x6162 JUMP JUMPDEST JUMPDEST SWAP3 POP SWAP3 SWAP1 POP JUMP JUMPDEST PUSH1 0x0 PUSH20 0xFFFFFFFFFFFFFFFFFFFFFFFFFFFFFFFFFFFFFFFF DUP3 AND SWAP1 POP SWAP2 SWAP1 POP JUMP JUMPDEST PUSH1 0x0 PUSH2 0x61E8 DUP3 PUSH2 0x61BD JUMP JUMPDEST SWAP1 POP SWAP2 SWAP1 POP JUMP JUMPDEST PUSH2 0x61F8 DUP2 PUSH2 0x61DD JUMP JUMPDEST DUP2 EQ PUSH2 0x6203 JUMPI PUSH1 0x0 DUP1 REVERT JUMPDEST POP JUMP JUMPDEST PUSH1 0x0 DUP2 CALLDATALOAD SWAP1 POP PUSH2 0x6215 DUP2 PUSH2 0x61EF JUMP JUMPDEST SWAP3 SWAP2 POP POP JUMP JUMPDEST PUSH1 0x0 DUP1 PUSH1 0x0 DUP1 PUSH1 0x0 PUSH1 0x60 DUP7 DUP9 SUB SLT ISZERO PUSH2 0x6237 JUMPI PUSH2 0x6236 PUSH2 0x5FA4 JUMP JUMPDEST JUMPDEST PUSH1 0x0 DUP7 ADD CALLDATALOAD PUSH8 0xFFFFFFFFFFFFFFFF DUP2 GT ISZERO PUSH2 0x6255 JUMPI PUSH2 0x6254 PUSH2 0x5FA9 JUMP JUMPDEST JUMPDEST PUSH2 0x6261 DUP9 DUP3 DUP10 ADD PUSH2 0x6167 JUMP JUMPDEST SWAP6 POP SWAP6 POP POP PUSH1 0x20 DUP7 ADD CALLDATALOAD PUSH8 0xFFFFFFFFFFFFFFFF DUP2 GT ISZERO PUSH2 0x6284 JUMPI PUSH2 0x6283 PUSH2 0x5FA9 JUMP JUMPDEST JUMPDEST PUSH2 0x6290 DUP9 DUP3 DUP10 ADD PUSH2 0x6167 JUMP JUMPDEST SWAP4 POP SWAP4 POP POP PUSH1 0x40 PUSH2 0x62A3 DUP9 DUP3 DUP10 ADD PUSH2 0x6206 JUMP JUMPDEST SWAP2 POP POP SWAP3 SWAP6 POP SWAP3 SWAP6 SWAP1 SWAP4 POP JUMP JUMPDEST PUSH1 0x0 PUSH4 0xFFFFFFFF DUP3 AND SWAP1 POP SWAP2 SWAP1 POP JUMP JUMPDEST PUSH2 0x62C9 DUP2 PUSH2 0x62B0 JUMP JUMPDEST DUP3 MSTORE POP POP JUMP JUMPDEST PUSH1 0x0 PUSH1 0x20 DUP3 ADD SWAP1 POP PUSH2 0x62E4 PUSH1 0x0 DUP4 ADD DUP5 PUSH2 0x62C0 JUMP JUMPDEST SWAP3 SWAP2 POP POP JUMP JUMPDEST PUSH1 0x0 PUSH1 0x20 DUP3 DUP5 SUB SLT ISZERO PUSH2 0x6300 JUMPI PUSH2 0x62FF PUSH2 0x5FA4 JUMP JUMPDEST JUMPDEST PUSH1 0x0 PUSH2 0x630E DUP5 DUP3 DUP6 ADD PUSH2 0x6206 JUMP JUMPDEST SWAP2 POP POP SWAP3 SWAP2 POP POP JUMP JUMPDEST PUSH2 0x6320 DUP2 PUSH2 0x61DD JUMP JUMPDEST DUP3 MSTORE POP POP JUMP JUMPDEST PUSH1 0x0 PUSH1 0x20 DUP3 ADD SWAP1 POP PUSH2 0x633B PUSH1 0x0 DUP4 ADD DUP5 PUSH2 0x6317 JUMP JUMPDEST SWAP3 SWAP2 POP POP JUMP JUMPDEST PUSH1 0x0 DUP2 SWAP1 POP SWAP2 SWAP1 POP JUMP JUMPDEST PUSH2 0x6354 DUP2 PUSH2 0x6341 JUMP JUMPDEST DUP2 EQ PUSH2 0x635F JUMPI PUSH1 0x0 DUP1 REVERT JUMPDEST POP JUMP JUMPDEST PUSH1 0x0 DUP2 CALLDATALOAD SWAP1 POP PUSH2 0x6371 DUP2 PUSH2 0x634B JUMP JUMPDEST SWAP3 SWAP2 POP POP JUMP JUMPDEST PUSH1 0x0 PUSH1 0x20 DUP3 DUP5 SUB SLT ISZERO PUSH2 0x638D JUMPI PUSH2 0x638C PUSH2 0x5FA4 JUMP JUMPDEST JUMPDEST PUSH1 0x0 PUSH2 0x639B DUP5 DUP3 DUP6 ADD PUSH2 0x6362 JUMP JUMPDEST SWAP2 POP POP SWAP3 SWAP2 POP POP JUMP JUMPDEST PUSH2 0x63AD DUP2 PUSH2 0x6341 JUMP JUMPDEST DUP3 MSTORE POP POP JUMP JUMPDEST PUSH1 0x0 PUSH1 0x20 DUP3 ADD SWAP1 POP PUSH2 0x63C8 PUSH1 0x0 DUP4 ADD DUP5 PUSH2 0x63A4 JUMP JUMPDEST SWAP3 SWAP2 POP POP JUMP JUMPDEST PUSH1 0x0 DUP1 PUSH1 0x40 DUP4 DUP6 SUB SLT ISZERO PUSH2 0x63E5 JUMPI PUSH2 0x63E4 PUSH2 0x5FA4 JUMP JUMPDEST JUMPDEST PUSH1 0x0 PUSH2 0x63F3 DUP6 DUP3 DUP7 ADD PUSH2 0x6362 JUMP JUMPDEST SWAP3 POP POP PUSH1 0x20 PUSH2 0x6404 DUP6 DUP3 DUP7 ADD PUSH2 0x6206 JUMP JUMPDEST SWAP2 POP POP SWAP3 POP SWAP3 SWAP1 POP JUMP JUMPDEST PUSH1 0x0 DUP1 REVERT JUMPDEST PUSH32 0x4E487B7100000000000000000000000000000000000000000000000000000000 PUSH1 0x0 MSTORE PUSH1 0x41 PUSH1 0x4 MSTORE PUSH1 0x24 PUSH1 0x0 REVERT JUMPDEST PUSH2 0x644B DUP3 PUSH2 0x60EC JUMP JUMPDEST DUP2 ADD DUP2 DUP2 LT PUSH8 0xFFFFFFFFFFFFFFFF DUP3 GT OR ISZERO PUSH2 0x646A JUMPI PUSH2 0x6469 PUSH2 0x6413 JUMP JUMPDEST JUMPDEST DUP1 PUSH1 0x40 MSTORE POP POP POP JUMP JUMPDEST PUSH1 0x0 PUSH2 0x647D PUSH2 0x5F9A JUMP JUMPDEST SWAP1 POP PUSH2 0x6489 DUP3 DUP3 PUSH2 0x6442 JUMP JUMPDEST SWAP2 SWAP1 POP JUMP JUMPDEST PUSH1 0x0 PUSH8 0xFFFFFFFFFFFFFFFF DUP3 GT ISZERO PUSH2 0x64A9 JUMPI PUSH2 0x64A8 PUSH2 0x6413 JUMP JUMPDEST JUMPDEST PUSH2 0x64B2 DUP3 PUSH2 0x60EC JUMP JUMPDEST SWAP1 POP PUSH1 0x20 DUP2 ADD SWAP1 POP SWAP2 SWAP1 POP JUMP JUMPDEST DUP3 DUP2 DUP4 CALLDATACOPY PUSH1 0x0 DUP4 DUP4 ADD MSTORE POP POP POP JUMP JUMPDEST PUSH1 0x0 PUSH2 0x64E1 PUSH2 0x64DC DUP5 PUSH2 0x648E JUMP JUMPDEST PUSH2 0x6473 JUMP JUMPDEST SWAP1 POP DUP3 DUP2 MSTORE PUSH1 0x20 DUP2 ADD DUP5 DUP5 DUP5 ADD GT ISZERO PUSH2 0x64FD JUMPI PUSH2 0x64FC PUSH2 0x640E JUMP JUMPDEST JUMPDEST PUSH2 0x6508 DUP5 DUP3 DUP6 PUSH2 0x64BF JUMP JUMPDEST POP SWAP4 SWAP3 POP POP POP JUMP JUMPDEST PUSH1 0x0 DUP3 PUSH1 0x1F DUP4 ADD SLT PUSH2 0x6525 JUMPI PUSH2 0x6524 PUSH2 0x6158 JUMP JUMPDEST JUMPDEST DUP2 CALLDATALOAD PUSH2 0x6535 DUP5 DUP3 PUSH1 0x20 DUP7 ADD PUSH2 0x64CE JUMP JUMPDEST SWAP2 POP POP SWAP3 SWAP2 POP POP JUMP JUMPDEST PUSH1 0x0 DUP1 PUSH1 0x40 DUP4 DUP6 SUB SLT ISZERO PUSH2 0x6555 JUMPI PUSH2 0x6554 PUSH2 0x5FA4 JUMP JUMPDEST JUMPDEST PUSH1 0x0 PUSH2 0x6563 DUP6 DUP3 DUP7 ADD PUSH2 0x6206 JUMP JUMPDEST SWAP3 POP POP PUSH1 0x20 DUP4 ADD CALLDATALOAD PUSH8 0xFFFFFFFFFFFFFFFF DUP2 GT ISZERO PUSH2 0x6584 JUMPI PUSH2 0x6583 PUSH2 0x5FA9 JUMP JUMPDEST JUMPDEST PUSH2 0x6590 DUP6 DUP3 DUP7 ADD PUSH2 0x6510 JUMP JUMPDEST SWAP2 POP POP SWAP3 POP SWAP3 SWAP1 POP JUMP JUMPDEST PUSH32 0x4E487B7100000000000000000000000000000000000000000000000000000000 PUSH1 0x0 MSTORE PUSH1 0x21 PUSH1 0x4 MSTORE PUSH1 0x24 PUSH1 0x0 REVERT JUMPDEST PUSH1 0x8 DUP2 LT PUSH2 0x65DA JUMPI PUSH2 0x65D9 PUSH2 0x659A JUMP JUMPDEST JUMPDEST POP JUMP JUMPDEST PUSH1 0x0 DUP2 SWAP1 POP PUSH2 0x65EB DUP3 PUSH2 0x65C9 JUMP JUMPDEST SWAP2 SWAP1 POP JUMP JUMPDEST PUSH1 0x0 PUSH2 0x65FB DUP3 PUSH2 0x65DD JUMP JUMPDEST SWAP1 POP SWAP2 SWAP1 POP JUMP JUMPDEST PUSH2 0x660B DUP2 PUSH2 0x65F0 JUMP JUMPDEST DUP3 MSTORE POP POP JUMP JUMPDEST PUSH1 0x0 PUSH1 0x20 DUP3 ADD SWAP1 POP PUSH2 0x6626 PUSH1 0x0 DUP4 ADD DUP5 PUSH2 0x6602 JUMP JUMPDEST SWAP3 SWAP2 POP POP JUMP JUMPDEST PUSH2 0x6635 DUP2 PUSH2 0x6069 JUMP JUMPDEST DUP2 EQ PUSH2 0x6640 JUMPI PUSH1 0x0 DUP1 REVERT JUMPDEST POP JUMP JUMPDEST PUSH1 0x0 DUP2 CALLDATALOAD SWAP1 POP PUSH2 0x6652 DUP2 PUSH2 0x662C JUMP JUMPDEST SWAP3 SWAP2 POP POP JUMP JUMPDEST PUSH1 0x0 PUSH1 0x20 DUP3 DUP5 SUB SLT ISZERO PUSH2 0x666E JUMPI PUSH2 0x666D PUSH2 0x5FA4 JUMP JUMPDEST JUMPDEST PUSH1 0x0 PUSH2 0x667C DUP5 DUP3 DUP6 ADD PUSH2 0x6643 JUMP JUMPDEST SWAP2 POP POP SWAP3 SWAP2 POP POP JUMP JUMPDEST PUSH2 0x668E DUP2 PUSH2 0x6033 JUMP JUMPDEST DUP2 EQ PUSH2 0x6699 JUMPI PUSH1 0x0 DUP1 REVERT JUMPDEST POP JUMP JUMPDEST PUSH1 0x0 DUP2 CALLDATALOAD SWAP1 POP PUSH2 0x66AB DUP2 PUSH2 0x6685 JUMP JUMPDEST SWAP3 SWAP2 POP POP JUMP JUMPDEST PUSH1 0x0 PUSH1 0x20 DUP3 DUP5 SUB SLT ISZERO PUSH2 0x66C7 JUMPI PUSH2 0x66C6 PUSH2 0x5FA4 JUMP JUMPDEST JUMPDEST PUSH1 0x0 PUSH2 0x66D5 DUP5 DUP3 DUP6 ADD PUSH2 0x669C JUMP JUMPDEST SWAP2 POP POP SWAP3 SWAP2 POP POP JUMP JUMPDEST PUSH1 0x4 DUP2 LT PUSH2 0x66EB JUMPI PUSH1 0x0 DUP1 REVERT JUMPDEST POP JUMP JUMPDEST PUSH1 0x0 DUP2 CALLDATALOAD SWAP1 POP PUSH2 0x66FD DUP2 PUSH2 0x66DE JUMP JUMPDEST SWAP3 SWAP2 POP POP JUMP JUMPDEST PUSH1 0x0 DUP1 PUSH1 0x0 DUP1 PUSH1 0x60 DUP6 DUP8 SUB SLT ISZERO PUSH2 0x671D JUMPI PUSH2 0x671C PUSH2 0x5FA4 JUMP JUMPDEST JUMPDEST PUSH1 0x0 DUP6 ADD CALLDATALOAD PUSH8 0xFFFFFFFFFFFFFFFF DUP2 GT ISZERO PUSH2 0x673B JUMPI PUSH2 0x673A PUSH2 0x5FA9 JUMP JUMPDEST JUMPDEST PUSH2 0x6747 DUP8 DUP3 DUP9 ADD PUSH2 0x6167 JUMP JUMPDEST SWAP5 POP SWAP5 POP POP PUSH1 0x20 PUSH2 0x675A DUP8 DUP3 DUP9 ADD PUSH2 0x6362 JUMP JUMPDEST SWAP3 POP POP PUSH1 0x40 PUSH2 0x676B DUP8 DUP3 DUP9 ADD PUSH2 0x66EE JUMP JUMPDEST SWAP2 POP POP SWAP3 SWAP6 SWAP2 SWAP5 POP SWAP3 POP JUMP JUMPDEST PUSH2 0x6780 DUP2 PUSH2 0x5FAE JUMP JUMPDEST DUP3 MSTORE POP POP JUMP JUMPDEST PUSH1 0x0 PUSH1 0x20 DUP3 ADD SWAP1 POP PUSH2 0x679B PUSH1 0x0 DUP4 ADD DUP5 PUSH2 0x6777 JUMP JUMPDEST SWAP3 SWAP2 POP POP JUMP JUMPDEST PUSH1 0x0 PUSH8 0xFFFFFFFFFFFFFFFF DUP3 GT ISZERO PUSH2 0x67BC JUMPI PUSH2 0x67BB PUSH2 0x6413 JUMP JUMPDEST JUMPDEST PUSH2 0x67C5 DUP3 PUSH2 0x60EC JUMP JUMPDEST SWAP1 POP PUSH1 0x20 DUP2 ADD SWAP1 POP SWAP2 SWAP1 POP JUMP JUMPDEST PUSH1 0x0 PUSH2 0x67E5 PUSH2 0x67E0 DUP5 PUSH2 0x67A1 JUMP JUMPDEST PUSH2 0x6473 JUMP JUMPDEST SWAP1 POP DUP3 DUP2 MSTORE PUSH1 0x20 DUP2 ADD DUP5 DUP5 DUP5 ADD GT ISZERO PUSH2 0x6801 JUMPI PUSH2 0x6800 PUSH2 0x640E JUMP JUMPDEST JUMPDEST PUSH2 0x680C DUP5 DUP3 DUP6 PUSH2 0x64BF JUMP JUMPDEST POP SWAP4 SWAP3 POP POP POP JUMP JUMPDEST PUSH1 0x0 DUP3 PUSH1 0x1F DUP4 ADD SLT PUSH2 0x6829 JUMPI PUSH2 0x6828 PUSH2 0x6158 JUMP JUMPDEST JUMPDEST DUP2 CALLDATALOAD PUSH2 0x6839 DUP5 DUP3 PUSH1 0x20 DUP7 ADD PUSH2 0x67D2 JUMP JUMPDEST SWAP2 POP POP SWAP3 SWAP2 POP POP JUMP JUMPDEST PUSH1 0x0 DUP1 PUSH1 0x40 DUP4 DUP6 SUB SLT ISZERO PUSH2 0x6859 JUMPI PUSH2 0x6858 PUSH2 0x5FA4 JUMP JUMPDEST JUMPDEST PUSH1 0x0 PUSH2 0x6867 DUP6 DUP3 DUP7 ADD PUSH2 0x6362 JUMP JUMPDEST SWAP3 POP POP PUSH1 0x20 DUP4 ADD CALLDATALOAD PUSH8 0xFFFFFFFFFFFFFFFF DUP2 GT ISZERO PUSH2 0x6888 JUMPI PUSH2 0x6887 PUSH2 0x5FA9 JUMP JUMPDEST JUMPDEST PUSH2 0x6894 DUP6 DUP3 DUP7 ADD PUSH2 0x6814 JUMP JUMPDEST SWAP2 POP POP SWAP3 POP SWAP3 SWAP1 POP JUMP JUMPDEST PUSH1 0x4 DUP2 LT PUSH2 0x68AB JUMPI PUSH1 0x0 DUP1 REVERT JUMPDEST POP JUMP JUMPDEST PUSH1 0x0 DUP2 CALLDATALOAD SWAP1 POP PUSH2 0x68BD DUP2 PUSH2 0x689E JUMP JUMPDEST SWAP3 SWAP2 POP POP JUMP JUMPDEST PUSH1 0x5 DUP2 LT PUSH2 0x68D0 JUMPI PUSH1 0x0 DUP1 REVERT JUMPDEST POP JUMP JUMPDEST PUSH1 0x0 DUP2 CALLDATALOAD SWAP1 POP PUSH2 0x68E2 DUP2 PUSH2 0x68C3 JUMP JUMPDEST SWAP3 SWAP2 POP POP JUMP JUMPDEST PUSH1 0x0 DUP1 PUSH1 0x0 DUP1 PUSH1 0x0 DUP1 PUSH1 0xC0 DUP8 DUP10 SUB SLT ISZERO PUSH2 0x6905 JUMPI PUSH2 0x6904 PUSH2 0x5FA4 JUMP JUMPDEST JUMPDEST PUSH1 0x0 PUSH2 0x6913 DUP10 DUP3 DUP11 ADD PUSH2 0x6362 JUMP JUMPDEST SWAP7 POP POP PUSH1 0x20 PUSH2 0x6924 DUP10 DUP3 DUP11 ADD PUSH2 0x6362 JUMP JUMPDEST SWAP6 POP POP PUSH1 0x40 PUSH2 0x6935 DUP10 DUP3 DUP11 ADD PUSH2 0x6206 JUMP JUMPDEST SWAP5 POP POP PUSH1 0x60 PUSH2 0x6946 DUP10 DUP3 DUP11 ADD PUSH2 0x68AE JUMP JUMPDEST SWAP4 POP POP PUSH1 0x80 PUSH2 0x6957 DUP10 DUP3 DUP11 ADD PUSH2 0x68D3 JUMP JUMPDEST SWAP3 POP POP PUSH1 0xA0 DUP8 ADD CALLDATALOAD PUSH8 0xFFFFFFFFFFFFFFFF DUP2 GT ISZERO PUSH2 0x6978 JUMPI PUSH2 0x6977 PUSH2 0x5FA9 JUMP JUMPDEST JUMPDEST PUSH2 0x6984 DUP10 DUP3 DUP11 ADD PUSH2 0x6510 JUMP JUMPDEST SWAP2 POP POP SWAP3 SWAP6 POP SWAP3 SWAP6 POP SWAP3 SWAP6 JUMP JUMPDEST PUSH1 0x0 DUP1 REVERT JUMPDEST PUSH1 0x0 DUP1 REVERT JUMPDEST PUSH1 0x0 PUSH1 0xA0 DUP3 DUP5 SUB SLT ISZERO PUSH2 0x69B1 JUMPI PUSH2 0x69B0 PUSH2 0x6991 JUMP JUMPDEST JUMPDEST PUSH2 0x69BB PUSH1 0xA0 PUSH2 0x6473 JUMP JUMPDEST SWAP1 POP PUSH1 0x0 PUSH2 0x69CB DUP5 DUP3 DUP6 ADD PUSH2 0x6362 JUMP JUMPDEST PUSH1 0x0 DUP4 ADD MSTORE POP PUSH1 0x20 PUSH2 0x69DF DUP5 DUP3 DUP6 ADD PUSH2 0x68AE JUMP JUMPDEST PUSH1 0x20 DUP4 ADD MSTORE POP PUSH1 0x40 PUSH2 0x69F3 DUP5 DUP3 DUP6 ADD PUSH2 0x68D3 JUMP JUMPDEST PUSH1 0x40 DUP4 ADD MSTORE POP PUSH1 0x60 DUP3 ADD CALLDATALOAD PUSH8 0xFFFFFFFFFFFFFFFF DUP2 GT ISZERO PUSH2 0x6A17 JUMPI PUSH2 0x6A16 PUSH2 0x6996 JUMP JUMPDEST JUMPDEST PUSH2 0x6A23 DUP5 DUP3 DUP6 ADD PUSH2 0x6814 JUMP JUMPDEST PUSH1 0x60 DUP4 ADD MSTORE POP PUSH1 0x80 DUP3 ADD CALLDATALOAD PUSH8 0xFFFFFFFFFFFFFFFF DUP2 GT ISZERO PUSH2 0x6A47 JUMPI PUSH2 0x6A46 PUSH2 0x6996 JUMP JUMPDEST JUMPDEST PUSH2 0x6A53 DUP5 DUP3 DUP6 ADD PUSH2 0x6510 JUMP JUMPDEST PUSH1 0x80 DUP4 ADD MSTORE POP SWAP3 SWAP2 POP POP JUMP JUMPDEST PUSH1 0x0 DUP1 PUSH1 0x40 DUP4 DUP6 SUB SLT ISZERO PUSH2 0x6A76 JUMPI PUSH2 0x6A75 PUSH2 0x5FA4 JUMP JUMPDEST JUMPDEST PUSH1 0x0 DUP4 ADD CALLDATALOAD PUSH8 0xFFFFFFFFFFFFFFFF DUP2 GT ISZERO PUSH2 0x6A94 JUMPI PUSH2 0x6A93 PUSH2 0x5FA9 JUMP JUMPDEST JUMPDEST PUSH2 0x6AA0 DUP6 DUP3 DUP7 ADD PUSH2 0x699B JUMP JUMPDEST SWAP3 POP POP PUSH1 0x20 DUP4 ADD CALLDATALOAD PUSH8 0xFFFFFFFFFFFFFFFF DUP2 GT ISZERO PUSH2 0x6AC1 JUMPI PUSH2 0x6AC0 PUSH2 0x5FA9 JUMP JUMPDEST JUMPDEST PUSH2 0x6ACD DUP6 DUP3 DUP7 ADD PUSH2 0x6510 JUMP JUMPDEST SWAP2 POP POP SWAP3 POP SWAP3 SWAP1 POP JUMP JUMPDEST PUSH32 0x4E487B7100000000000000000000000000000000000000000000000000000000 PUSH1 0x0 MSTORE PUSH1 0x22 PUSH1 0x4 MSTORE PUSH1 0x24 PUSH1 0x0 REVERT JUMPDEST PUSH1 0x0 PUSH1 0x2 DUP3 DIV SWAP1 POP PUSH1 0x1 DUP3 AND DUP1 PUSH2 0x6B1E JUMPI PUSH1 0x7F DUP3 AND SWAP2 POP JUMPDEST PUSH1 0x20 DUP3 LT DUP2 SUB PUSH2 0x6B31 JUMPI PUSH2 0x6B30 PUSH2 0x6AD7 JUMP JUMPDEST JUMPDEST POP SWAP2 SWAP1 POP JUMP JUMPDEST PUSH1 0x0 PUSH1 0xFF DUP3 AND SWAP1 POP SWAP2 SWAP1 POP JUMP JUMPDEST PUSH2 0x6B4D DUP2 PUSH2 0x6B37 JUMP JUMPDEST DUP3 MSTORE POP POP JUMP JUMPDEST PUSH1 0x0 PUSH1 0x20 DUP3 ADD SWAP1 POP PUSH2 0x6B68 PUSH1 0x0 DUP4 ADD DUP5 PUSH2 0x6B44 JUMP JUMPDEST SWAP3 SWAP2 POP POP JUMP JUMPDEST PUSH32 0x56616C696461746F723A206F6E6C792065786973742076616C696461746F7220 PUSH1 0x0 DUP3 ADD MSTORE PUSH32 0x63616E2062652064697361626C65000000000000000000000000000000000000 PUSH1 0x20 DUP3 ADD MSTORE POP JUMP JUMPDEST PUSH1 0x0 PUSH2 0x6BCA PUSH1 0x2E DUP4 PUSH2 0x60A8 JUMP JUMPDEST SWAP2 POP PUSH2 0x6BD5 DUP3 PUSH2 0x6B6E JUMP JUMPDEST PUSH1 0x40 DUP3 ADD SWAP1 POP SWAP2 SWAP1 POP JUMP JUMPDEST PUSH1 0x0 PUSH1 0x20 DUP3 ADD SWAP1 POP DUP2 DUP2 SUB PUSH1 0x0 DUP4 ADD MSTORE PUSH2 0x6BF9 DUP2 PUSH2 0x6BBD JUMP JUMPDEST SWAP1 POP SWAP2 SWAP1 POP JUMP JUMPDEST PUSH32 0x4E487B7100000000000000000000000000000000000000000000000000000000 PUSH1 0x0 MSTORE PUSH1 0x11 PUSH1 0x4 MSTORE PUSH1 0x24 PUSH1 0x0 REVERT JUMPDEST PUSH1 0x0 PUSH2 0x6C3A DUP3 PUSH2 0x62B0 JUMP JUMPDEST SWAP2 POP PUSH2 0x6C45 DUP4 PUSH2 0x62B0 JUMP JUMPDEST SWAP3 POP DUP3 DUP3 LT ISZERO PUSH2 0x6C58 JUMPI PUSH2 0x6C57 PUSH2 0x6C00 JUMP JUMPDEST JUMPDEST DUP3 DUP3 SUB SWAP1 POP SWAP3 SWAP2 POP POP JUMP JUMPDEST PUSH32 0x416363657373436F6E74726F6C3A2063616E206F6E6C792072656E6F756E6365 PUSH1 0x0 DUP3 ADD MSTORE PUSH32 0x20726F6C657320666F722073656C660000000000000000000000000000000000 PUSH1 0x20 DUP3 ADD MSTORE POP JUMP JUMPDEST PUSH1 0x0 PUSH2 0x6CBF PUSH1 0x2F DUP4 PUSH2 0x60A8 JUMP JUMPDEST SWAP2 POP PUSH2 0x6CCA DUP3 PUSH2 0x6C63 JUMP JUMPDEST PUSH1 0x40 DUP3 ADD SWAP1 POP SWAP2 SWAP1 POP JUMP JUMPDEST PUSH1 0x0 PUSH1 0x20 DUP3 ADD SWAP1 POP DUP2 DUP2 SUB PUSH1 0x0 DUP4 ADD MSTORE PUSH2 0x6CEE DUP2 PUSH2 0x6CB2 JUMP JUMPDEST SWAP1 POP SWAP2 SWAP1 POP JUMP JUMPDEST PUSH32 0x46756E6374696F6E206D7573742062652063616C6C6564207468726F75676820 PUSH1 0x0 DUP3 ADD MSTORE PUSH32 0x64656C656761746563616C6C0000000000000000000000000000000000000000 PUSH1 0x20 DUP3 ADD MSTORE POP JUMP JUMPDEST PUSH1 0x0 PUSH2 0x6D51 PUSH1 0x2C DUP4 PUSH2 0x60A8 JUMP JUMPDEST SWAP2 POP PUSH2 0x6D5C DUP3 PUSH2 0x6CF5 JUMP JUMPDEST PUSH1 0x40 DUP3 ADD SWAP1 POP SWAP2 SWAP1 POP JUMP JUMPDEST PUSH1 0x0 PUSH1 0x20 DUP3 ADD SWAP1 POP DUP2 DUP2 SUB PUSH1 0x0 DUP4 ADD MSTORE PUSH2 0x6D80 DUP2 PUSH2 0x6D44 JUMP JUMPDEST SWAP1 POP SWAP2 SWAP1 POP JUMP JUMPDEST PUSH32 0x46756E6374696F6E206D7573742062652063616C6C6564207468726F75676820 PUSH1 0x0 DUP3 ADD MSTORE PUSH32 0x6163746976652070726F78790000000000000000000000000000000000000000 PUSH1 0x20 DUP3 ADD MSTORE POP JUMP JUMPDEST PUSH1 0x0 PUSH2 0x6DE3 PUSH1 0x2C DUP4 PUSH2 0x60A8 JUMP JUMPDEST SWAP2 POP PUSH2 0x6DEE DUP3 PUSH2 0x6D87 JUMP JUMPDEST PUSH1 0x40 DUP3 ADD SWAP1 POP SWAP2 SWAP1 POP JUMP JUMPDEST PUSH1 0x0 PUSH1 0x20 DUP3 ADD SWAP1 POP DUP2 DUP2 SUB PUSH1 0x0 DUP4 ADD MSTORE PUSH2 0x6E12 DUP2 PUSH2 0x6DD6 JUMP JUMPDEST SWAP1 POP SWAP2 SWAP1 POP JUMP JUMPDEST PUSH32 0x555550535570677261646561626C653A206D757374206E6F742062652063616C PUSH1 0x0 DUP3 ADD MSTORE PUSH32 0x6C6564207468726F7567682064656C656761746563616C6C0000000000000000 PUSH1 0x20 DUP3 ADD MSTORE POP JUMP JUMPDEST PUSH1 0x0 PUSH2 0x6E75 PUSH1 0x38 DUP4 PUSH2 0x60A8 JUMP JUMPDEST SWAP2 POP PUSH2 0x6E80 DUP3 PUSH2 0x6E19 JUMP JUMPDEST PUSH1 0x40 DUP3 ADD SWAP1 POP SWAP2 SWAP1 POP JUMP JUMPDEST PUSH1 0x0 PUSH1 0x20 DUP3 ADD SWAP1 POP DUP2 DUP2 SUB PUSH1 0x0 DUP4 ADD MSTORE PUSH2 0x6EA4 DUP2 PUSH2 0x6E68 JUMP JUMPDEST SWAP1 POP SWAP2 SWAP1 POP JUMP JUMPDEST PUSH32 0x70726F706F73616C496420697320696E76616C69640000000000000000000000 PUSH1 0x0 DUP3 ADD MSTORE POP JUMP JUMPDEST PUSH1 0x0 PUSH2 0x6EE1 PUSH1 0x15 DUP4 PUSH2 0x60A8 JUMP JUMPDEST SWAP2 POP PUSH2 0x6EEC DUP3 PUSH2 0x6EAB JUMP JUMPDEST PUSH1 0x20 DUP3 ADD SWAP1 POP SWAP2 SWAP1 POP JUMP JUMPDEST PUSH1 0x0 PUSH1 0x20 DUP3 ADD SWAP1 POP DUP2 DUP2 SUB PUSH1 0x0 DUP4 ADD MSTORE PUSH2 0x6F10 DUP2 PUSH2 0x6ED4 JUMP JUMPDEST SWAP1 POP SWAP2 SWAP1 POP JUMP JUMPDEST PUSH32 0x476F7665726E6F723A206F6E6C792076616C696461746F72207065726D697474 PUSH1 0x0 DUP3 ADD MSTORE PUSH32 0x6564000000000000000000000000000000000000000000000000000000000000 PUSH1 0x20 DUP3 ADD MSTORE POP JUMP JUMPDEST PUSH1 0x0 PUSH2 0x6F73 PUSH1 0x22 DUP4 PUSH2 0x60A8 JUMP JUMPDEST SWAP2 POP PUSH2 0x6F7E DUP3 PUSH2 0x6F17 JUMP JUMPDEST PUSH1 0x40 DUP3 ADD SWAP1 POP SWAP2 SWAP1 POP JUMP JUMPDEST PUSH1 0x0 PUSH1 0x20 DUP3 ADD SWAP1 POP DUP2 DUP2 SUB PUSH1 0x0 DUP4 ADD MSTORE PUSH2 0x6FA2 DUP2 PUSH2 0x6F66 JUMP JUMPDEST SWAP1 POP SWAP2 SWAP1 POP JUMP JUMPDEST PUSH32 0x476F7665726E6F72203A206F6E6C792070726F706F7365722063616E2063616E PUSH1 0x0 DUP3 ADD MSTORE PUSH32 0x63656C0000000000000000000000000000000000000000000000000000000000 PUSH1 0x20 DUP3 ADD MSTORE POP JUMP JUMPDEST PUSH1 0x0 PUSH2 0x7005 PUSH1 0x23 DUP4 PUSH2 0x60A8 JUMP JUMPDEST SWAP2 POP PUSH2 0x7010 DUP3 PUSH2 0x6FA9 JUMP JUMPDEST PUSH1 0x40 DUP3 ADD SWAP1 POP SWAP2 SWAP1 POP JUMP JUMPDEST PUSH1 0x0 PUSH1 0x20 DUP3 ADD SWAP1 POP DUP2 DUP2 SUB PUSH1 0x0 DUP4 ADD MSTORE PUSH2 0x7034 DUP2 PUSH2 0x6FF8 JUMP JUMPDEST SWAP1 POP SWAP2 SWAP1 POP JUMP JUMPDEST PUSH32 0x476F7665726E6F723A2070726F706F73616C206E6F7420616374697665000000 PUSH1 0x0 DUP3 ADD MSTORE POP JUMP JUMPDEST PUSH1 0x0 PUSH2 0x7071 PUSH1 0x1D DUP4 PUSH2 0x60A8 JUMP JUMPDEST SWAP2 POP PUSH2 0x707C DUP3 PUSH2 0x703B JUMP JUMPDEST PUSH1 0x20 DUP3 ADD SWAP1 POP SWAP2 SWAP1 POP JUMP JUMPDEST PUSH1 0x0 PUSH1 0x20 DUP3 ADD SWAP1 POP DUP2 DUP2 SUB PUSH1 0x0 DUP4 ADD MSTORE PUSH2 0x70A0 DUP2 PUSH2 0x7064 JUMP JUMPDEST SWAP1 POP SWAP2 SWAP1 POP JUMP JUMPDEST PUSH32 0x476F7665726E6F723A2070726F706F73616C20616C72656164792063616E6365 PUSH1 0x0 DUP3 ADD MSTORE PUSH32 0x6C65640000000000000000000000000000000000000000000000000000000000 PUSH1 0x20 DUP3 ADD MSTORE POP JUMP JUMPDEST PUSH1 0x0 PUSH2 0x7103 PUSH1 0x23 DUP4 PUSH2 0x60A8 JUMP JUMPDEST SWAP2 POP PUSH2 0x710E DUP3 PUSH2 0x70A7 JUMP JUMPDEST PUSH1 0x40 DUP3 ADD SWAP1 POP SWAP2 SWAP1 POP JUMP JUMPDEST PUSH1 0x0 PUSH1 0x20 DUP3 ADD SWAP1 POP DUP2 DUP2 SUB PUSH1 0x0 DUP4 ADD MSTORE PUSH2 0x7132 DUP2 PUSH2 0x70F6 JUMP JUMPDEST SWAP1 POP SWAP2 SWAP1 POP JUMP JUMPDEST PUSH1 0x4 DUP2 LT PUSH2 0x714A JUMPI PUSH2 0x7149 PUSH2 0x659A JUMP JUMPDEST JUMPDEST POP JUMP JUMPDEST PUSH1 0x0 DUP2 SWAP1 POP PUSH2 0x715B DUP3 PUSH2 0x7139 JUMP JUMPDEST SWAP2 SWAP1 POP JUMP JUMPDEST PUSH1 0x0 PUSH2 0x716B DUP3 PUSH2 0x714D JUMP JUMPDEST SWAP1 POP SWAP2 SWAP1 POP JUMP JUMPDEST PUSH2 0x717B DUP2 PUSH2 0x7160 JUMP JUMPDEST DUP3 MSTORE POP POP JUMP JUMPDEST PUSH1 0x5 DUP2 LT PUSH2 0x7192 JUMPI PUSH2 0x7191 PUSH2 0x659A JUMP JUMPDEST JUMPDEST POP JUMP JUMPDEST PUSH1 0x0 DUP2 SWAP1 POP PUSH2 0x71A3 DUP3 PUSH2 0x7181 JUMP JUMPDEST SWAP2 SWAP1 POP JUMP JUMPDEST PUSH1 0x0 PUSH2 0x71B3 DUP3 PUSH2 0x7195 JUMP JUMPDEST SWAP1 POP SWAP2 SWAP1 POP JUMP JUMPDEST PUSH2 0x71C3 DUP2 PUSH2 0x71A8 JUMP JUMPDEST DUP3 MSTORE POP POP JUMP JUMPDEST PUSH1 0x0 DUP2 MLOAD SWAP1 POP SWAP2 SWAP1 POP JUMP JUMPDEST PUSH1 0x0 DUP3 DUP3 MSTORE PUSH1 0x20 DUP3 ADD SWAP1 POP SWAP3 SWAP2 POP POP JUMP JUMPDEST PUSH1 0x0 PUSH2 0x71F0 DUP3 PUSH2 0x71C9 JUMP JUMPDEST PUSH2 0x71FA DUP2 DUP6 PUSH2 0x71D4 JUMP JUMPDEST SWAP4 POP PUSH2 0x720A DUP2 DUP6 PUSH1 0x20 DUP7 ADD PUSH2 0x60B9 JUMP JUMPDEST PUSH2 0x7213 DUP2 PUSH2 0x60EC JUMP JUMPDEST DUP5 ADD SWAP2 POP POP SWAP3 SWAP2 POP POP JUMP JUMPDEST PUSH1 0x0 PUSH1 0xC0 DUP3 ADD SWAP1 POP PUSH2 0x7233 PUSH1 0x0 DUP4 ADD DUP10 PUSH2 0x63A4 JUMP JUMPDEST PUSH2 0x7240 PUSH1 0x20 DUP4 ADD DUP9 PUSH2 0x63A4 JUMP JUMPDEST PUSH2 0x724D PUSH1 0x40 DUP4 ADD DUP8 PUSH2 0x6317 JUMP JUMPDEST PUSH2 0x725A PUSH1 0x60 DUP4 ADD DUP7 PUSH2 0x7172 JUMP JUMPDEST PUSH2 0x7267 PUSH1 0x80 DUP4 ADD DUP6 PUSH2 0x71BA JUMP JUMPDEST DUP2 DUP2 SUB PUSH1 0xA0 DUP4 ADD MSTORE PUSH2 0x7279 DUP2 DUP5 PUSH2 0x71E5 JUMP JUMPDEST SWAP1 POP SWAP8 SWAP7 POP POP POP POP POP POP POP JUMP JUMPDEST PUSH32 0x476F7665726E6F723A2070726F706F73616C206E6F7420737563636573736675 PUSH1 0x0 DUP3 ADD MSTORE PUSH32 0x6C00000000000000000000000000000000000000000000000000000000000000 PUSH1 0x20 DUP3 ADD MSTORE POP JUMP JUMPDEST PUSH1 0x0 PUSH2 0x72E2 PUSH1 0x21 DUP4 PUSH2 0x60A8 JUMP JUMPDEST SWAP2 POP PUSH2 0x72ED DUP3 PUSH2 0x7286 JUMP JUMPDEST PUSH1 0x40 DUP3 ADD SWAP1 POP SWAP2 SWAP1 POP JUMP JUMPDEST PUSH1 0x0 PUSH1 0x20 DUP3 ADD SWAP1 POP DUP2 DUP2 SUB PUSH1 0x0 DUP4 ADD MSTORE PUSH2 0x7311 DUP2 PUSH2 0x72D5 JUMP JUMPDEST SWAP1 POP SWAP2 SWAP1 POP JUMP JUMPDEST PUSH32 0x476F7665726E6F723A206F6E6C792076616C696461746F72206F7220416D696E PUSH1 0x0 DUP3 ADD MSTORE PUSH32 0x2063616E207065726D6974746564000000000000000000000000000000000000 PUSH1 0x20 DUP3 ADD MSTORE POP JUMP JUMPDEST PUSH1 0x0 PUSH2 0x7374 PUSH1 0x2E DUP4 PUSH2 0x60A8 JUMP JUMPDEST SWAP2 POP PUSH2 0x737F DUP3 PUSH2 0x7318 JUMP JUMPDEST PUSH1 0x40 DUP3 ADD SWAP1 POP SWAP2 SWAP1 POP JUMP JUMPDEST PUSH1 0x0 PUSH1 0x20 DUP3 ADD SWAP1 POP DUP2 DUP2 SUB PUSH1 0x0 DUP4 ADD MSTORE PUSH2 0x73A3 DUP2 PUSH2 0x7367 JUMP JUMPDEST SWAP1 POP SWAP2 SWAP1 POP JUMP JUMPDEST PUSH32 0x70726F706F73616C20747970652073686F756C64206E6F74206265204E4F4E45 PUSH1 0x0 DUP3 ADD MSTORE POP JUMP JUMPDEST PUSH1 0x0 PUSH2 0x73E0 PUSH1 0x20 DUP4 PUSH2 0x60A8 JUMP JUMPDEST SWAP2 POP PUSH2 0x73EB DUP3 PUSH2 0x73AA JUMP JUMPDEST PUSH1 0x20 DUP3 ADD SWAP1 POP SWAP2 SWAP1 POP JUMP JUMPDEST PUSH1 0x0 PUSH1 0x20 DUP3 ADD SWAP1 POP DUP2 DUP2 SUB PUSH1 0x0 DUP4 ADD MSTORE PUSH2 0x740F DUP2 PUSH2 0x73D3 JUMP JUMPDEST SWAP1 POP SWAP2 SWAP1 POP JUMP JUMPDEST PUSH32 0x616374696F6E20747970652073686F756C64206E6F74206265204E4F4E450000 PUSH1 0x0 DUP3 ADD MSTORE POP JUMP JUMPDEST PUSH1 0x0 PUSH2 0x744C PUSH1 0x1E DUP4 PUSH2 0x60A8 JUMP JUMPDEST SWAP2 POP PUSH2 0x7457 DUP3 PUSH2 0x7416 JUMP JUMPDEST PUSH1 0x20 DUP3 ADD SWAP1 POP SWAP2 SWAP1 POP JUMP JUMPDEST PUSH1 0x0 PUSH1 0x20 DUP3 ADD SWAP1 POP DUP2 DUP2 SUB PUSH1 0x0 DUP4 ADD MSTORE PUSH2 0x747B DUP2 PUSH2 0x743F JUMP JUMPDEST SWAP1 POP SWAP2 SWAP1 POP JUMP JUMPDEST PUSH32 0x646174612073686F756C64206E6F7420626520656D7074790000000000000000 PUSH1 0x0 DUP3 ADD MSTORE POP JUMP JUMPDEST PUSH1 0x0 PUSH2 0x74B8 PUSH1 0x18 DUP4 PUSH2 0x60A8 JUMP JUMPDEST SWAP2 POP PUSH2 0x74C3 DUP3 PUSH2 0x7482 JUMP JUMPDEST PUSH1 0x20 DUP3 ADD SWAP1 POP SWAP2 SWAP1 POP JUMP JUMPDEST PUSH1 0x0 PUSH1 0x20 DUP3 ADD SWAP1 POP DUP2 DUP2 SUB PUSH1 0x0 DUP4 ADD MSTORE PUSH2 0x74E7 DUP2 PUSH2 0x74AB JUMP JUMPDEST SWAP1 POP SWAP2 SWAP1 POP JUMP JUMPDEST PUSH32 0x61646D696E2070726F706F7365206F6E6C792076616C696461746F7200000000 PUSH1 0x0 DUP3 ADD MSTORE POP JUMP JUMPDEST PUSH1 0x0 PUSH2 0x7524 PUSH1 0x1C DUP4 PUSH2 0x60A8 JUMP JUMPDEST SWAP2 POP PUSH2 0x752F DUP3 PUSH2 0x74EE JUMP JUMPDEST PUSH1 0x20 DUP3 ADD SWAP1 POP SWAP2 SWAP1 POP JUMP JUMPDEST PUSH1 0x0 PUSH1 0x20 DUP3 ADD SWAP1 POP DUP2 DUP2 SUB PUSH1 0x0 DUP4 ADD MSTORE PUSH2 0x7553 DUP2 PUSH2 0x7517 JUMP JUMPDEST SWAP1 POP SWAP2 SWAP1 POP JUMP JUMPDEST PUSH32 0x76616C696461746F7220636F75646E27742070726F706F73652076616C696461 PUSH1 0x0 DUP3 ADD MSTORE PUSH32 0x746F720000000000000000000000000000000000000000000000000000000000 PUSH1 0x20 DUP3 ADD MSTORE POP JUMP JUMPDEST PUSH1 0x0 PUSH2 0x75B6 PUSH1 0x23 DUP4 PUSH2 0x60A8 JUMP JUMPDEST SWAP2 POP PUSH2 0x75C1 DUP3 PUSH2 0x755A JUMP JUMPDEST PUSH1 0x40 DUP3 ADD SWAP1 POP SWAP2 SWAP1 POP JUMP JUMPDEST PUSH1 0x0 PUSH1 0x20 DUP3 ADD SWAP1 POP DUP2 DUP2 SUB PUSH1 0x0 DUP4 ADD MSTORE PUSH2 0x75E5 DUP2 PUSH2 0x75A9 JUMP JUMPDEST SWAP1 POP SWAP2 SWAP1 POP JUMP JUMPDEST PUSH1 0x0 DUP2 SWAP1 POP SWAP3 SWAP2 POP POP JUMP JUMPDEST PUSH1 0x0 PUSH2 0x7602 DUP3 PUSH2 0x609D JUMP JUMPDEST PUSH2 0x760C DUP2 DUP6 PUSH2 0x75EC JUMP JUMPDEST SWAP4 POP PUSH2 0x761C DUP2 DUP6 PUSH1 0x20 DUP7 ADD PUSH2 0x60B9 JUMP JUMPDEST DUP1 DUP5 ADD SWAP2 POP POP SWAP3 SWAP2 POP POP JUMP JUMPDEST PUSH1 0x0 PUSH2 0x7634 DUP3 DUP5 PUSH2 0x75F7 JUMP JUMPDEST SWAP2 POP DUP2 SWAP1 POP SWAP3 SWAP2 POP POP JUMP JUMPDEST PUSH1 0x0 PUSH1 0x40 DUP3 ADD SWAP1 POP PUSH2 0x7654 PUSH1 0x0 DUP4 ADD DUP6 PUSH2 0x63A4 JUMP JUMPDEST PUSH2 0x7661 PUSH1 0x20 DUP4 ADD DUP5 PUSH2 0x6317 JUMP JUMPDEST SWAP4 SWAP3 POP POP POP JUMP JUMPDEST PUSH1 0x0 DUP2 MLOAD SWAP1 POP PUSH2 0x7677 DUP2 PUSH2 0x6685 JUMP JUMPDEST SWAP3 SWAP2 POP POP JUMP JUMPDEST PUSH1 0x0 PUSH1 0x20 DUP3 DUP5 SUB SLT ISZERO PUSH2 0x7693 JUMPI PUSH2 0x7692 PUSH2 0x5FA4 JUMP JUMPDEST JUMPDEST PUSH1 0x0 PUSH2 0x76A1 DUP5 DUP3 DUP6 ADD PUSH2 0x7668 JUMP JUMPDEST SWAP2 POP POP SWAP3 SWAP2 POP POP JUMP JUMPDEST PUSH32 0x70726F706F73616C206372656174696F6E207065726D697373696F6E2064656E PUSH1 0x0 DUP3 ADD MSTORE PUSH32 0x6965640000000000000000000000000000000000000000000000000000000000 PUSH1 0x20 DUP3 ADD MSTORE POP JUMP JUMPDEST PUSH1 0x0 PUSH2 0x7706 PUSH1 0x23 DUP4 PUSH2 0x60A8 JUMP JUMPDEST SWAP2 POP PUSH2 0x7711 DUP3 PUSH2 0x76AA JUMP JUMPDEST PUSH1 0x40 DUP3 ADD SWAP1 POP SWAP2 SWAP1 POP JUMP JUMPDEST PUSH1 0x0 PUSH1 0x20 DUP3 ADD SWAP1 POP DUP2 DUP2 SUB PUSH1 0x0 DUP4 ADD MSTORE PUSH2 0x7735 DUP2 PUSH2 0x76F9 JUMP JUMPDEST SWAP1 POP SWAP2 SWAP1 POP JUMP JUMPDEST PUSH1 0x0 PUSH8 0xFFFFFFFFFFFFFFFF DUP3 AND SWAP1 POP SWAP2 SWAP1 POP JUMP JUMPDEST PUSH1 0x0 PUSH2 0x775B DUP3 PUSH2 0x773C JUMP JUMPDEST SWAP2 POP PUSH2 0x7766 DUP4 PUSH2 0x773C JUMP JUMPDEST SWAP3 POP DUP3 PUSH8 0xFFFFFFFFFFFFFFFF SUB DUP3 GT ISZERO PUSH2 0x7783 JUMPI PUSH2 0x7782 PUSH2 0x6C00 JUMP JUMPDEST JUMPDEST DUP3 DUP3 ADD SWAP1 POP SWAP3 SWAP2 POP POP JUMP JUMPDEST PUSH32 0x496E697469616C697A61626C653A20636F6E747261637420697320616C726561 PUSH1 0x0 DUP3 ADD MSTORE PUSH32 0x647920696E697469616C697A6564000000000000000000000000000000000000 PUSH1 0x20 DUP3 ADD MSTORE POP JUMP JUMPDEST PUSH1 0x0 PUSH2 0x77EA PUSH1 0x2E DUP4 PUSH2 0x60A8 JUMP JUMPDEST SWAP2 POP PUSH2 0x77F5 DUP3 PUSH2 0x778E JUMP JUMPDEST PUSH1 0x40 DUP3 ADD SWAP1 POP SWAP2 SWAP1 POP JUMP JUMPDEST PUSH1 0x0 PUSH1 0x20 DUP3 ADD SWAP1 POP DUP2 DUP2 SUB PUSH1 0x0 DUP4 ADD MSTORE PUSH2 0x7819 DUP2 PUSH2 0x77DD JUMP JUMPDEST SWAP1 POP SWAP2 SWAP1 POP JUMP JUMPDEST PUSH32 0x6164647265737320696E76616C69640000000000000000000000000000000000 PUSH1 0x0 DUP3 ADD MSTORE POP JUMP JUMPDEST PUSH1 0x0 PUSH2 0x7856 PUSH1 0xF DUP4 PUSH2 0x60A8 JUMP JUMPDEST SWAP2 POP PUSH2 0x7861 DUP3 PUSH2 0x7820 JUMP JUMPDEST PUSH1 0x20 DUP3 ADD SWAP1 POP SWAP2 SWAP1 POP JUMP JUMPDEST PUSH1 0x0 PUSH1 0x20 DUP3 ADD SWAP1 POP DUP2 DUP2 SUB PUSH1 0x0 DUP4 ADD MSTORE PUSH2 0x7885 DUP2 PUSH2 0x7849 JUMP JUMPDEST SWAP1 POP SWAP2 SWAP1 POP JUMP JUMPDEST PUSH1 0x0 DUP2 MLOAD SWAP1 POP PUSH2 0x789B DUP2 PUSH2 0x634B JUMP JUMPDEST SWAP3 SWAP2 POP POP JUMP JUMPDEST PUSH1 0x0 PUSH1 0x20 DUP3 DUP5 SUB SLT ISZERO PUSH2 0x78B7 JUMPI PUSH2 0x78B6 PUSH2 0x5FA4 JUMP JUMPDEST JUMPDEST PUSH1 0x0 PUSH2 0x78C5 DUP5 DUP3 DUP6 ADD PUSH2 0x788C JUMP JUMPDEST SWAP2 POP POP SWAP3 SWAP2 POP POP JUMP JUMPDEST PUSH32 0x45524331393637557067726164653A206E657720696D706C656D656E74617469 PUSH1 0x0 DUP3 ADD MSTORE PUSH32 0x6F6E206973206E6F742055555053000000000000000000000000000000000000 PUSH1 0x20 DUP3 ADD MSTORE POP JUMP JUMPDEST PUSH1 0x0 PUSH2 0x792A PUSH1 0x2E DUP4 PUSH2 0x60A8 JUMP JUMPDEST SWAP2 POP PUSH2 0x7935 DUP3 PUSH2 0x78CE JUMP JUMPDEST PUSH1 0x40 DUP3 ADD SWAP1 POP SWAP2 SWAP1 POP JUMP JUMPDEST PUSH1 0x0 PUSH1 0x20 DUP3 ADD SWAP1 POP DUP2 DUP2 SUB PUSH1 0x0 DUP4 ADD MSTORE PUSH2 0x7959 DUP2 PUSH2 0x791D JUMP JUMPDEST SWAP1 POP SWAP2 SWAP1 POP JUMP JUMPDEST PUSH32 0x45524331393637557067726164653A20756E737570706F727465642070726F78 PUSH1 0x0 DUP3 ADD MSTORE PUSH32 0x6961626C65555549440000000000000000000000000000000000000000000000 PUSH1 0x20 DUP3 ADD MSTORE POP JUMP JUMPDEST PUSH1 0x0 PUSH2 0x79BC PUSH1 0x29 DUP4 PUSH2 0x60A8 JUMP JUMPDEST SWAP2 POP PUSH2 0x79C7 DUP3 PUSH2 0x7960 JUMP JUMPDEST PUSH1 0x40 DUP3 ADD SWAP1 POP SWAP2 SWAP1 POP JUMP JUMPDEST PUSH1 0x0 PUSH1 0x20 DUP3 ADD SWAP1 POP DUP2 DUP2 SUB PUSH1 0x0 DUP4 ADD MSTORE PUSH2 0x79EB DUP2 PUSH2 0x79AF JUMP JUMPDEST SWAP1 POP SWAP2 SWAP1 POP JUMP JUMPDEST PUSH32 0x4E487B7100000000000000000000000000000000000000000000000000000000 PUSH1 0x0 MSTORE PUSH1 0x12 PUSH1 0x4 MSTORE PUSH1 0x24 PUSH1 0x0 REVERT JUMPDEST PUSH1 0x0 PUSH2 0x7A2C DUP3 PUSH2 0x62B0 JUMP JUMPDEST SWAP2 POP PUSH2 0x7A37 DUP4 PUSH2 0x62B0 JUMP JUMPDEST SWAP3 POP DUP3 PUSH2 0x7A47 JUMPI PUSH2 0x7A46 PUSH2 0x79F2 JUMP JUMPDEST JUMPDEST DUP3 DUP3 DIV SWAP1 POP SWAP3 SWAP2 POP POP JUMP JUMPDEST PUSH1 0x0 PUSH2 0x7A5D DUP3 PUSH2 0x62B0 JUMP JUMPDEST SWAP2 POP PUSH2 0x7A68 DUP4 PUSH2 0x62B0 JUMP JUMPDEST SWAP3 POP DUP3 PUSH4 0xFFFFFFFF SUB DUP3 GT ISZERO PUSH2 0x7A81 JUMPI PUSH2 0x7A80 PUSH2 0x6C00 JUMP JUMPDEST JUMPDEST DUP3 DUP3 ADD SWAP1 POP SWAP3 SWAP2 POP POP JUMP JUMPDEST PUSH32 0x476F7665726E6F723A20766F746520696E76616C696400000000000000000000 PUSH1 0x0 DUP3 ADD MSTORE POP JUMP JUMPDEST PUSH1 0x0 PUSH2 0x7AC2 PUSH1 0x16 DUP4 PUSH2 0x60A8 JUMP JUMPDEST SWAP2 POP PUSH2 0x7ACD DUP3 PUSH2 0x7A8C JUMP JUMPDEST PUSH1 0x20 DUP3 ADD SWAP1 POP SWAP2 SWAP1 POP JUMP JUMPDEST PUSH1 0x0 PUSH1 0x20 DUP3 ADD SWAP1 POP DUP2 DUP2 SUB PUSH1 0x0 DUP4 ADD MSTORE PUSH2 0x7AF1 DUP2 PUSH2 0x7AB5 JUMP JUMPDEST SWAP1 POP SWAP2 SWAP1 POP JUMP JUMPDEST PUSH32 0x476F7665726E6F723A2070726F706F73616C2063757272656E746C7920696E61 PUSH1 0x0 DUP3 ADD MSTORE PUSH32 0x6374697665000000000000000000000000000000000000000000000000000000 PUSH1 0x20 DUP3 ADD MSTORE POP JUMP JUMPDEST PUSH1 0x0 PUSH2 0x7B54 PUSH1 0x25 DUP4 PUSH2 0x60A8 JUMP JUMPDEST SWAP2 POP PUSH2 0x7B5F DUP3 PUSH2 0x7AF8 JUMP JUMPDEST PUSH1 0x40 DUP3 ADD SWAP1 POP SWAP2 SWAP1 POP JUMP JUMPDEST PUSH1 0x0 PUSH1 0x20 DUP3 ADD SWAP1 POP DUP2 DUP2 SUB PUSH1 0x0 DUP4 ADD MSTORE PUSH2 0x7B83 DUP2 PUSH2 0x7B47 JUMP JUMPDEST SWAP1 POP SWAP2 SWAP1 POP JUMP JUMPDEST PUSH32 0x476F7665726E6F723A20766F746520616C726561647920636173740000000000 PUSH1 0x0 DUP3 ADD MSTORE POP JUMP JUMPDEST PUSH1 0x0 PUSH2 0x7BC0 PUSH1 0x1B DUP4 PUSH2 0x60A8 JUMP JUMPDEST SWAP2 POP PUSH2 0x7BCB DUP3 PUSH2 0x7B8A JUMP JUMPDEST PUSH1 0x20 DUP3 ADD SWAP1 POP SWAP2 SWAP1 POP JUMP JUMPDEST PUSH1 0x0 PUSH1 0x20 DUP3 ADD SWAP1 POP DUP2 DUP2 SUB PUSH1 0x0 DUP4 ADD MSTORE PUSH2 0x7BEF DUP2 PUSH2 0x7BB3 JUMP JUMPDEST SWAP1 POP SWAP2 SWAP1 POP JUMP JUMPDEST PUSH1 0x4 DUP2 LT PUSH2 0x7C07 JUMPI PUSH2 0x7C06 PUSH2 0x659A JUMP JUMPDEST JUMPDEST POP JUMP JUMPDEST PUSH1 0x0 DUP2 SWAP1 POP PUSH2 0x7C18 DUP3 PUSH2 0x7BF6 JUMP JUMPDEST SWAP2 SWAP1 POP JUMP JUMPDEST PUSH1 0x0 PUSH2 0x7C28 DUP3 PUSH2 0x7C0A JUMP JUMPDEST SWAP1 POP SWAP2 SWAP1 POP JUMP JUMPDEST PUSH2 0x7C38 DUP2 PUSH2 0x7C1D JUMP JUMPDEST DUP3 MSTORE POP POP JUMP JUMPDEST PUSH1 0x0 PUSH1 0x40 DUP3 ADD SWAP1 POP PUSH2 0x7C53 PUSH1 0x0 DUP4 ADD DUP6 PUSH2 0x7C2F JUMP JUMPDEST DUP2 DUP2 SUB PUSH1 0x20 DUP4 ADD MSTORE PUSH2 0x7C65 DUP2 DUP5 PUSH2 0x60FD JUMP JUMPDEST SWAP1 POP SWAP4 SWAP3 POP POP POP JUMP JUMPDEST PUSH1 0x0 PUSH2 0x7C81 PUSH2 0x7C7C DUP5 PUSH2 0x67A1 JUMP JUMPDEST PUSH2 0x6473 JUMP JUMPDEST SWAP1 POP DUP3 DUP2 MSTORE PUSH1 0x20 DUP2 ADD DUP5 DUP5 DUP5 ADD GT ISZERO PUSH2 0x7C9D JUMPI PUSH2 0x7C9C PUSH2 0x640E JUMP JUMPDEST JUMPDEST PUSH2 0x7CA8 DUP5 DUP3 DUP6 PUSH2 0x60B9 JUMP JUMPDEST POP SWAP4 SWAP3 POP POP POP JUMP JUMPDEST PUSH1 0x0 DUP3 PUSH1 0x1F DUP4 ADD SLT PUSH2 0x7CC5 JUMPI PUSH2 0x7CC4 PUSH2 0x6158 JUMP JUMPDEST JUMPDEST DUP2 MLOAD PUSH2 0x7CD5 DUP5 DUP3 PUSH1 0x20 DUP7 ADD PUSH2 0x7C6E JUMP JUMPDEST SWAP2 POP POP SWAP3 SWAP2 POP POP JUMP JUMPDEST PUSH1 0x0 DUP2 MLOAD SWAP1 POP PUSH2 0x7CED DUP2 PUSH2 0x61EF JUMP JUMPDEST SWAP3 SWAP2 POP POP JUMP JUMPDEST PUSH1 0x0 PUSH1 0x40 DUP3 DUP5 SUB SLT ISZERO PUSH2 0x7D09 JUMPI PUSH2 0x7D08 PUSH2 0x6991 JUMP JUMPDEST JUMPDEST PUSH2 0x7D13 PUSH1 0x40 PUSH2 0x6473 JUMP JUMPDEST SWAP1 POP PUSH1 0x0 DUP3 ADD MLOAD PUSH8 0xFFFFFFFFFFFFFFFF DUP2 GT ISZERO PUSH2 0x7D33 JUMPI PUSH2 0x7D32 PUSH2 0x6996 JUMP JUMPDEST JUMPDEST PUSH2 0x7D3F DUP5 DUP3 DUP6 ADD PUSH2 0x7CB0 JUMP JUMPDEST PUSH1 0x0 DUP4 ADD MSTORE POP PUSH1 0x20 PUSH2 0x7D53 DUP5 DUP3 DUP6 ADD PUSH2 0x7CDE JUMP JUMPDEST PUSH1 0x20 DUP4 ADD MSTORE POP SWAP3 SWAP2 POP POP JUMP JUMPDEST PUSH1 0x0 PUSH1 0x20 DUP3 DUP5 SUB SLT ISZERO PUSH2 0x7D75 JUMPI PUSH2 0x7D74 PUSH2 0x5FA4 JUMP JUMPDEST JUMPDEST PUSH1 0x0 DUP3 ADD MLOAD PUSH8 0xFFFFFFFFFFFFFFFF DUP2 GT ISZERO PUSH2 0x7D93 JUMPI PUSH2 0x7D92 PUSH2 0x5FA9 JUMP JUMPDEST JUMPDEST PUSH2 0x7D9F DUP5 DUP3 DUP6 ADD PUSH2 0x7CF3 JUMP JUMPDEST SWAP2 POP POP SWAP3 SWAP2 POP POP JUMP JUMPDEST PUSH1 0x0 DUP2 MLOAD SWAP1 POP PUSH2 0x7DB7 DUP2 PUSH2 0x662C JUMP JUMPDEST SWAP3 SWAP2 POP POP JUMP JUMPDEST PUSH1 0x0 PUSH2 0xFFFF DUP3 AND SWAP1 POP SWAP2 SWAP1 POP JUMP JUMPDEST PUSH2 0x7DD4 DUP2 PUSH2 0x7DBD JUMP JUMPDEST DUP2 EQ PUSH2 0x7DDF JUMPI PUSH1 0x0 DUP1 REVERT JUMPDEST POP JUMP JUMPDEST PUSH1 0x0 DUP2 MLOAD SWAP1 POP PUSH2 0x7DF1 DUP2 PUSH2 0x7DCB JUMP JUMPDEST SWAP3 SWAP2 POP POP JUMP JUMPDEST PUSH1 0x0 PUSH1 0x80 DUP3 DUP5 SUB SLT ISZERO PUSH2 0x7E0D JUMPI PUSH2 0x7E0C PUSH2 0x6991 JUMP JUMPDEST JUMPDEST PUSH2 0x7E17 PUSH1 0x80 PUSH2 0x6473 JUMP JUMPDEST SWAP1 POP PUSH1 0x0 DUP3 ADD MLOAD PUSH8 0xFFFFFFFFFFFFFFFF DUP2 GT ISZERO PUSH2 0x7E37 JUMPI PUSH2 0x7E36 PUSH2 0x6996 JUMP JUMPDEST JUMPDEST PUSH2 0x7E43 DUP5 DUP3 DUP6 ADD PUSH2 0x7CB0 JUMP JUMPDEST PUSH1 0x0 DUP4 ADD MSTORE POP PUSH1 0x20 PUSH2 0x7E57 DUP5 DUP3 DUP6 ADD PUSH2 0x7DA8 JUMP JUMPDEST PUSH1 0x20 DUP4 ADD MSTORE POP PUSH1 0x40 PUSH2 0x7E6B DUP5 DUP3 DUP6 ADD PUSH2 0x7CDE JUMP JUMPDEST PUSH1 0x40 DUP4 ADD MSTORE POP PUSH1 0x60 PUSH2 0x7E7F DUP5 DUP3 DUP6 ADD PUSH2 0x7DE2 JUMP JUMPDEST PUSH1 0x60 DUP4 ADD MSTORE POP SWAP3 SWAP2 POP POP JUMP JUMPDEST PUSH1 0x0 PUSH1 0x20 DUP3 DUP5 SUB SLT ISZERO PUSH2 0x7EA1 JUMPI PUSH2 0x7EA0 PUSH2 0x5FA4 JUMP JUMPDEST JUMPDEST PUSH1 0x0 DUP3 ADD MLOAD PUSH8 0xFFFFFFFFFFFFFFFF DUP2 GT ISZERO PUSH2 0x7EBF JUMPI PUSH2 0x7EBE PUSH2 0x5FA9 JUMP JUMPDEST JUMPDEST PUSH2 0x7ECB DUP5 DUP3 DUP6 ADD PUSH2 0x7DF7 JUMP JUMPDEST SWAP2 POP POP SWAP3 SWAP2 POP POP JUMP JUMPDEST PUSH1 0x0 PUSH2 0x7EDF DUP3 PUSH2 0x6069 JUMP JUMPDEST SWAP2 POP PUSH2 0x7EEA DUP4 PUSH2 0x6069 JUMP JUMPDEST SWAP3 POP DUP2 PUSH32 0xFFFFFFFFFFFFFFFFFFFFFFFFFFFFFFFFFFFFFFFFFFFFFFFFFFFFFFFFFFFFFFFF DIV DUP4 GT DUP3 ISZERO ISZERO AND ISZERO PUSH2 0x7F23 JUMPI PUSH2 0x7F22 PUSH2 0x6C00 JUMP JUMPDEST JUMPDEST DUP3 DUP3 MUL SWAP1 POP SWAP3 SWAP2 POP POP JUMP JUMPDEST PUSH1 0x0 PUSH2 0x7F39 DUP3 PUSH2 0x6069 JUMP JUMPDEST SWAP2 POP PUSH2 0x7F44 DUP4 PUSH2 0x6069 JUMP JUMPDEST SWAP3 POP DUP3 PUSH2 0x7F54 JUMPI PUSH2 0x7F53 PUSH2 0x79F2 JUMP JUMPDEST JUMPDEST DUP3 DUP3 DIV SWAP1 POP SWAP3 SWAP2 POP POP JUMP JUMPDEST PUSH1 0x0 PUSH1 0x80 DUP3 DUP5 SUB SLT ISZERO PUSH2 0x7F75 JUMPI PUSH2 0x7F74 PUSH2 0x6991 JUMP JUMPDEST JUMPDEST PUSH2 0x7F7F PUSH1 0x80 PUSH2 0x6473 JUMP JUMPDEST SWAP1 POP PUSH1 0x0 DUP3 ADD MLOAD PUSH8 0xFFFFFFFFFFFFFFFF DUP2 GT ISZERO PUSH2 0x7F9F JUMPI PUSH2 0x7F9E PUSH2 0x6996 JUMP JUMPDEST JUMPDEST PUSH2 0x7FAB DUP5 DUP3 DUP6 ADD PUSH2 0x7CB0 JUMP JUMPDEST PUSH1 0x0 DUP4 ADD MSTORE POP PUSH1 0x20 PUSH2 0x7FBF DUP5 DUP3 DUP6 ADD PUSH2 0x7DA8 JUMP JUMPDEST PUSH1 0x20 DUP4 ADD MSTORE POP PUSH1 0x40 PUSH2 0x7FD3 DUP5 DUP3 DUP6 ADD PUSH2 0x7CDE JUMP JUMPDEST PUSH1 0x40 DUP4 ADD MSTORE POP PUSH1 0x60 PUSH2 0x7FE7 DUP5 DUP3 DUP6 ADD PUSH2 0x7DE2 JUMP JUMPDEST PUSH1 0x60 DUP4 ADD MSTORE POP SWAP3 SWAP2 POP POP JUMP JUMPDEST PUSH1 0x0 PUSH1 0x20 DUP3 DUP5 SUB SLT ISZERO PUSH2 0x8009 JUMPI PUSH2 0x8008 PUSH2 0x5FA4 JUMP JUMPDEST JUMPDEST PUSH1 0x0 DUP3 ADD MLOAD PUSH8 0xFFFFFFFFFFFFFFFF DUP2 GT ISZERO PUSH2 0x8027 JUMPI PUSH2 0x8026 PUSH2 0x5FA9 JUMP JUMPDEST JUMPDEST PUSH2 0x8033 DUP5 DUP3 DUP6 ADD PUSH2 0x7F5F JUMP JUMPDEST SWAP2 POP POP SWAP3 SWAP2 POP POP JUMP JUMPDEST PUSH1 0x0 PUSH1 0x20 DUP3 DUP5 SUB SLT ISZERO PUSH2 0x8052 JUMPI PUSH2 0x8051 PUSH2 0x6991 JUMP JUMPDEST JUMPDEST PUSH2 0x805C PUSH1 0x20 PUSH2 0x6473 JUMP JUMPDEST SWAP1 POP PUSH1 0x0 PUSH2 0x806C DUP5 DUP3 DUP6 ADD PUSH2 0x7CDE JUMP JUMPDEST PUSH1 0x0 DUP4 ADD MSTORE POP SWAP3 SWAP2 POP POP JUMP JUMPDEST PUSH1 0x0 PUSH1 0x20 DUP3 DUP5 SUB SLT ISZERO PUSH2 0x808E JUMPI PUSH2 0x808D PUSH2 0x5FA4 JUMP JUMPDEST JUMPDEST PUSH1 0x0 PUSH2 0x809C DUP5 DUP3 DUP6 ADD PUSH2 0x803C JUMP JUMPDEST SWAP2 POP POP SWAP3 SWAP2 POP POP JUMP JUMPDEST PUSH1 0x0 PUSH1 0x20 DUP3 DUP5 SUB SLT ISZERO PUSH2 0x80BB JUMPI PUSH2 0x80BA PUSH2 0x6991 JUMP JUMPDEST JUMPDEST PUSH2 0x80C5 PUSH1 0x20 PUSH2 0x6473 JUMP JUMPDEST SWAP1 POP PUSH1 0x0 PUSH2 0x80D5 DUP5 DUP3 DUP6 ADD PUSH2 0x7CDE JUMP JUMPDEST PUSH1 0x0 DUP4 ADD MSTORE POP SWAP3 SWAP2 POP POP JUMP JUMPDEST PUSH1 0x0 PUSH1 0x20 DUP3 DUP5 SUB SLT ISZERO PUSH2 0x80F7 JUMPI PUSH2 0x80F6 PUSH2 0x5FA4 JUMP JUMPDEST JUMPDEST PUSH1 0x0 PUSH2 0x8105 DUP5 DUP3 DUP6 ADD PUSH2 0x80A5 JUMP JUMPDEST SWAP2 POP POP SWAP3 SWAP2 POP POP JUMP JUMPDEST PUSH1 0x0 DUP2 SWAP1 POP SWAP3 SWAP2 POP POP JUMP JUMPDEST PUSH1 0x0 PUSH2 0x8124 DUP3 PUSH2 0x71C9 JUMP JUMPDEST PUSH2 0x812E DUP2 DUP6 PUSH2 0x810E JUMP JUMPDEST SWAP4 POP PUSH2 0x813E DUP2 DUP6 PUSH1 0x20 DUP7 ADD PUSH2 0x60B9 JUMP JUMPDEST DUP1 DUP5 ADD SWAP2 POP POP SWAP3 SWAP2 POP POP JUMP JUMPDEST PUSH1 0x0 PUSH2 0x8156 DUP3 DUP5 PUSH2 0x8119 JUMP JUMPDEST SWAP2 POP DUP2 SWAP1 POP SWAP3 SWAP2 POP POP JUMP JUMPDEST PUSH1 0x0 PUSH1 0xE0 DUP3 ADD SWAP1 POP PUSH2 0x8176 PUSH1 0x0 DUP4 ADD DUP11 PUSH2 0x63A4 JUMP JUMPDEST PUSH2 0x8183 PUSH1 0x20 DUP4 ADD DUP10 PUSH2 0x63A4 JUMP JUMPDEST PUSH2 0x8190 PUSH1 0x40 DUP4 ADD DUP9 PUSH2 0x63A4 JUMP JUMPDEST PUSH2 0x819D PUSH1 0x60 DUP4 ADD DUP8 PUSH2 0x6317 JUMP JUMPDEST PUSH2 0x81AA PUSH1 0x80 DUP4 ADD DUP7 PUSH2 0x7172 JUMP JUMPDEST PUSH2 0x81B7 PUSH1 0xA0 DUP4 ADD DUP6 PUSH2 0x71BA JUMP JUMPDEST PUSH2 0x81C4 PUSH1 0xC0 DUP4 ADD DUP5 PUSH2 0x63A4 JUMP JUMPDEST SWAP9 SWAP8 POP POP POP POP POP POP POP POP JUMP JUMPDEST PUSH32 0x76616C696461746F7220616464726573732073686F756C64206E6F7420626520 PUSH1 0x0 DUP3 ADD MSTORE PUSH32 0x7A65726F00000000000000000000000000000000000000000000000000000000 PUSH1 0x20 DUP3 ADD MSTORE POP JUMP JUMPDEST PUSH1 0x0 PUSH2 0x822C PUSH1 0x24 DUP4 PUSH2 0x60A8 JUMP JUMPDEST SWAP2 POP PUSH2 0x8237 DUP3 PUSH2 0x81D0 JUMP JUMPDEST PUSH1 0x40 DUP3 ADD SWAP1 POP SWAP2 SWAP1 POP JUMP JUMPDEST PUSH1 0x0 PUSH1 0x20 DUP3 ADD SWAP1 POP DUP2 DUP2 SUB PUSH1 0x0 DUP4 ADD MSTORE PUSH2 0x825B DUP2 PUSH2 0x821F JUMP JUMPDEST SWAP1 POP SWAP2 SWAP1 POP JUMP JUMPDEST PUSH32 0x76616C696461746F72206E616D652073686F756C64206E6F7420626520656D70 PUSH1 0x0 DUP3 ADD MSTORE PUSH32 0x7479000000000000000000000000000000000000000000000000000000000000 PUSH1 0x20 DUP3 ADD MSTORE POP JUMP JUMPDEST PUSH1 0x0 PUSH2 0x82BE PUSH1 0x22 DUP4 PUSH2 0x60A8 JUMP JUMPDEST SWAP2 POP PUSH2 0x82C9 DUP3 PUSH2 0x8262 JUMP JUMPDEST PUSH1 0x40 DUP3 ADD SWAP1 POP SWAP2 SWAP1 POP JUMP JUMPDEST PUSH1 0x0 PUSH1 0x20 DUP3 ADD SWAP1 POP DUP2 DUP2 SUB PUSH1 0x0 DUP4 ADD MSTORE PUSH2 0x82ED DUP2 PUSH2 0x82B1 JUMP JUMPDEST SWAP1 POP SWAP2 SWAP1 POP JUMP JUMPDEST PUSH32 0x76616C696461746F72454F4120616C7265616479206578697374730000000000 PUSH1 0x0 DUP3 ADD MSTORE POP JUMP JUMPDEST PUSH1 0x0 PUSH2 0x832A PUSH1 0x1B DUP4 PUSH2 0x60A8 JUMP JUMPDEST SWAP2 POP PUSH2 0x8335 DUP3 PUSH2 0x82F4 JUMP JUMPDEST PUSH1 0x20 DUP3 ADD SWAP1 POP SWAP2 SWAP1 POP JUMP JUMPDEST PUSH1 0x0 PUSH1 0x20 DUP3 ADD SWAP1 POP DUP2 DUP2 SUB PUSH1 0x0 DUP4 ADD MSTORE PUSH2 0x8359 DUP2 PUSH2 0x831D JUMP JUMPDEST SWAP1 POP SWAP2 SWAP1 POP JUMP JUMPDEST PUSH1 0x0 PUSH1 0x60 DUP3 ADD SWAP1 POP PUSH2 0x8375 PUSH1 0x0 DUP4 ADD DUP7 PUSH2 0x63A4 JUMP JUMPDEST PUSH2 0x8382 PUSH1 0x20 DUP4 ADD DUP6 PUSH2 0x63A4 JUMP JUMPDEST DUP2 DUP2 SUB PUSH1 0x40 DUP4 ADD MSTORE PUSH2 0x8394 DUP2 DUP5 PUSH2 0x60FD JUMP JUMPDEST SWAP1 POP SWAP5 SWAP4 POP POP POP POP JUMP JUMPDEST PUSH32 0x73746172747570206E616D652073686F756C64206E6F7420626520656D707479 PUSH1 0x0 DUP3 ADD MSTORE POP JUMP JUMPDEST PUSH1 0x0 PUSH2 0x83D4 PUSH1 0x20 DUP4 PUSH2 0x60A8 JUMP JUMPDEST SWAP2 POP PUSH2 0x83DF DUP3 PUSH2 0x839E JUMP JUMPDEST PUSH1 0x20 DUP3 ADD SWAP1 POP SWAP2 SWAP1 POP JUMP JUMPDEST PUSH1 0x0 PUSH1 0x20 DUP3 ADD SWAP1 POP DUP2 DUP2 SUB PUSH1 0x0 DUP4 ADD MSTORE PUSH2 0x8403 DUP2 PUSH2 0x83C7 JUMP JUMPDEST SWAP1 POP SWAP2 SWAP1 POP JUMP JUMPDEST PUSH32 0x7374617274757020746F6B656E206F666665722073686F756C64206E6F742062 PUSH1 0x0 DUP3 ADD MSTORE PUSH32 0x65207A65726F0000000000000000000000000000000000000000000000000000 PUSH1 0x20 DUP3 ADD MSTORE POP JUMP JUMPDEST PUSH1 0x0 PUSH2 0x8466 PUSH1 0x26 DUP4 PUSH2 0x60A8 JUMP JUMPDEST SWAP2 POP PUSH2 0x8471 DUP3 PUSH2 0x840A JUMP JUMPDEST PUSH1 0x40 DUP3 ADD SWAP1 POP SWAP2 SWAP1 POP JUMP JUMPDEST PUSH1 0x0 PUSH1 0x20 DUP3 ADD SWAP1 POP DUP2 DUP2 SUB PUSH1 0x0 DUP4 ADD MSTORE PUSH2 0x8495 DUP2 PUSH2 0x8459 JUMP JUMPDEST SWAP1 POP SWAP2 SWAP1 POP JUMP JUMPDEST PUSH32 0x7374617274757020736861726564207374616B652073686F756C64206E6F7420 PUSH1 0x0 DUP3 ADD MSTORE PUSH32 0x6265207A65726F00000000000000000000000000000000000000000000000000 PUSH1 0x20 DUP3 ADD MSTORE POP JUMP JUMPDEST PUSH1 0x0 PUSH2 0x84F8 PUSH1 0x27 DUP4 PUSH2 0x60A8 JUMP JUMPDEST SWAP2 POP PUSH2 0x8503 DUP3 PUSH2 0x849C JUMP JUMPDEST PUSH1 0x40 DUP3 ADD SWAP1 POP SWAP2 SWAP1 POP JUMP JUMPDEST PUSH1 0x0 PUSH1 0x20 DUP3 ADD SWAP1 POP DUP2 DUP2 SUB PUSH1 0x0 DUP4 ADD MSTORE PUSH2 0x8527 DUP2 PUSH2 0x84EB JUMP JUMPDEST SWAP1 POP SWAP2 SWAP1 POP JUMP JUMPDEST PUSH32 0x7374617274757020454F412073686F756C64206E6F74206265207A65726F0000 PUSH1 0x0 DUP3 ADD MSTORE POP JUMP JUMPDEST PUSH1 0x0 PUSH2 0x8564 PUSH1 0x1E DUP4 PUSH2 0x60A8 JUMP JUMPDEST SWAP2 POP PUSH2 0x856F DUP3 PUSH2 0x852E JUMP JUMPDEST PUSH1 0x20 DUP3 ADD SWAP1 POP SWAP2 SWAP1 POP JUMP JUMPDEST PUSH1 0x0 PUSH1 0x20 DUP3 ADD SWAP1 POP DUP2 DUP2 SUB PUSH1 0x0 DUP4 ADD MSTORE PUSH2 0x8593 DUP2 PUSH2 0x8557 JUMP JUMPDEST SWAP1 POP SWAP2 SWAP1 POP JUMP JUMPDEST PUSH32 0x73746172747570454F4120616C72656164792065786973747300000000000000 PUSH1 0x0 DUP3 ADD MSTORE POP JUMP JUMPDEST PUSH1 0x0 PUSH2 0x85D0 PUSH1 0x19 DUP4 PUSH2 0x60A8 JUMP JUMPDEST SWAP2 POP PUSH2 0x85DB DUP3 PUSH2 0x859A JUMP JUMPDEST PUSH1 0x20 DUP3 ADD SWAP1 POP SWAP2 SWAP1 POP JUMP JUMPDEST PUSH1 0x0 PUSH1 0x20 DUP3 ADD SWAP1 POP DUP2 DUP2 SUB PUSH1 0x0 DUP4 ADD MSTORE PUSH2 0x85FF DUP2 PUSH2 0x85C3 JUMP JUMPDEST SWAP1 POP SWAP2 SWAP1 POP JUMP JUMPDEST PUSH2 0x860F DUP2 PUSH2 0x7DBD JUMP JUMPDEST DUP3 MSTORE POP POP JUMP JUMPDEST PUSH1 0x0 PUSH1 0xA0 DUP3 ADD SWAP1 POP PUSH2 0x862A PUSH1 0x0 DUP4 ADD DUP9 PUSH2 0x6073 JUMP JUMPDEST PUSH2 0x8637 PUSH1 0x20 DUP4 ADD DUP8 PUSH2 0x63A4 JUMP JUMPDEST PUSH2 0x8644 PUSH1 0x40 DUP4 ADD DUP7 PUSH2 0x63A4 JUMP JUMPDEST DUP2 DUP2 SUB PUSH1 0x60 DUP4 ADD MSTORE PUSH2 0x8656 DUP2 DUP6 PUSH2 0x60FD JUMP JUMPDEST SWAP1 POP PUSH2 0x8665 PUSH1 0x80 DUP4 ADD DUP5 PUSH2 0x8606 JUMP JUMPDEST SWAP7 SWAP6 POP POP POP POP POP POP JUMP JUMPDEST PUSH32 0x76616C696461746F7220454F412073686F756C64206E6F74206265207A65726F PUSH1 0x0 DUP3 ADD MSTORE POP JUMP JUMPDEST PUSH1 0x0 PUSH2 0x86A5 PUSH1 0x20 DUP4 PUSH2 0x60A8 JUMP JUMPDEST SWAP2 POP PUSH2 0x86B0 DUP3 PUSH2 0x866F JUMP JUMPDEST PUSH1 0x20 DUP3 ADD SWAP1 POP SWAP2 SWAP1 POP JUMP JUMPDEST PUSH1 0x0 PUSH1 0x20 DUP3 ADD SWAP1 POP DUP2 DUP2 SUB PUSH1 0x0 DUP4 ADD MSTORE PUSH2 0x86D4 DUP2 PUSH2 0x8698 JUMP JUMPDEST SWAP1 POP SWAP2 SWAP1 POP JUMP JUMPDEST PUSH32 0x76616C696461746F72454F4120646F65736E2774206578697374730000000000 PUSH1 0x0 DUP3 ADD MSTORE POP JUMP JUMPDEST PUSH1 0x0 PUSH2 0x8711 PUSH1 0x1B DUP4 PUSH2 0x60A8 JUMP JUMPDEST SWAP2 POP PUSH2 0x871C DUP3 PUSH2 0x86DB JUMP JUMPDEST PUSH1 0x20 DUP3 ADD SWAP1 POP SWAP2 SWAP1 POP JUMP JUMPDEST PUSH1 0x0 PUSH1 0x20 DUP3 ADD SWAP1 POP DUP2 DUP2 SUB PUSH1 0x0 DUP4 ADD MSTORE PUSH2 0x8740 DUP2 PUSH2 0x8704 JUMP JUMPDEST SWAP1 POP SWAP2 SWAP1 POP JUMP JUMPDEST PUSH32 0x467265657A653A206163636F756E742073686F756C64206E6F74206265207A65 PUSH1 0x0 DUP3 ADD MSTORE PUSH32 0x726F000000000000000000000000000000000000000000000000000000000000 PUSH1 0x20 DUP3 ADD MSTORE POP JUMP JUMPDEST PUSH1 0x0 PUSH2 0x87A3 PUSH1 0x22 DUP4 PUSH2 0x60A8 JUMP JUMPDEST SWAP2 POP PUSH2 0x87AE DUP3 PUSH2 0x8747 JUMP JUMPDEST PUSH1 0x40 DUP3 ADD SWAP1 POP SWAP2 SWAP1 POP JUMP JUMPDEST PUSH1 0x0 PUSH1 0x20 DUP3 ADD SWAP1 POP DUP2 DUP2 SUB PUSH1 0x0 DUP4 ADD MSTORE PUSH2 0x87D2 DUP2 PUSH2 0x8796 JUMP JUMPDEST SWAP1 POP SWAP2 SWAP1 POP JUMP JUMPDEST PUSH1 0x0 PUSH1 0x40 DUP3 ADD SWAP1 POP PUSH2 0x87EE PUSH1 0x0 DUP4 ADD DUP6 PUSH2 0x63A4 JUMP JUMPDEST PUSH2 0x87FB PUSH1 0x20 DUP4 ADD DUP5 PUSH2 0x63A4 JUMP JUMPDEST SWAP4 SWAP3 POP POP POP JUMP JUMPDEST PUSH32 0x556E667265657A653A206163636F756E742073686F756C64206E6F7420626520 PUSH1 0x0 DUP3 ADD MSTORE PUSH32 0x7A65726F00000000000000000000000000000000000000000000000000000000 PUSH1 0x20 DUP3 ADD MSTORE POP JUMP JUMPDEST PUSH1 0x0 PUSH2 0x885E PUSH1 0x24 DUP4 PUSH2 0x60A8 JUMP JUMPDEST SWAP2 POP PUSH2 0x8869 DUP3 PUSH2 0x8802 JUMP JUMPDEST PUSH1 0x40 DUP3 ADD SWAP1 POP SWAP2 SWAP1 POP JUMP JUMPDEST PUSH1 0x0 PUSH1 0x20 DUP3 ADD SWAP1 POP DUP2 DUP2 SUB PUSH1 0x0 DUP4 ADD MSTORE PUSH2 0x888D DUP2 PUSH2 0x8851 JUMP JUMPDEST SWAP1 POP SWAP2 SWAP1 POP JUMP JUMPDEST PUSH32 0x416363657373436F6E74726F6C3A206163636F756E7420000000000000000000 PUSH1 0x0 DUP3 ADD MSTORE POP JUMP JUMPDEST PUSH1 0x0 PUSH2 0x88CA PUSH1 0x17 DUP4 PUSH2 0x75EC JUMP JUMPDEST SWAP2 POP PUSH2 0x88D5 DUP3 PUSH2 0x8894 JUMP JUMPDEST PUSH1 0x17 DUP3 ADD SWAP1 POP SWAP2 SWAP1 POP JUMP JUMPDEST PUSH32 0x206973206D697373696E6720726F6C6520000000000000000000000000000000 PUSH1 0x0 DUP3 ADD MSTORE POP JUMP JUMPDEST PUSH1 0x0 PUSH2 0x8916 PUSH1 0x11 DUP4 PUSH2 0x75EC JUMP JUMPDEST SWAP2 POP PUSH2 0x8921 DUP3 PUSH2 0x88E0 JUMP JUMPDEST PUSH1 0x11 DUP3 ADD SWAP1 POP SWAP2 SWAP1 POP JUMP JUMPDEST PUSH1 0x0 PUSH2 0x8937 DUP3 PUSH2 0x88BD JUMP JUMPDEST SWAP2 POP PUSH2 0x8943 DUP3 DUP6 PUSH2 0x75F7 JUMP JUMPDEST SWAP2 POP PUSH2 0x894E DUP3 PUSH2 0x8909 JUMP JUMPDEST SWAP2 POP PUSH2 0x895A DUP3 DUP5 PUSH2 0x75F7 JUMP JUMPDEST SWAP2 POP DUP2 SWAP1 POP SWAP4 SWAP3 POP POP POP JUMP JUMPDEST PUSH32 0x455243313936373A206E657720696D706C656D656E746174696F6E206973206E PUSH1 0x0 DUP3 ADD MSTORE PUSH32 0x6F74206120636F6E747261637400000000000000000000000000000000000000 PUSH1 0x20 DUP3 ADD MSTORE POP JUMP JUMPDEST PUSH1 0x0 PUSH2 0x89C2 PUSH1 0x2D DUP4 PUSH2 0x60A8 JUMP JUMPDEST SWAP2 POP PUSH2 0x89CD DUP3 PUSH2 0x8966 JUMP JUMPDEST PUSH1 0x40 DUP3 ADD SWAP1 POP SWAP2 SWAP1 POP JUMP JUMPDEST PUSH1 0x0 PUSH1 0x20 DUP3 ADD SWAP1 POP DUP2 DUP2 SUB PUSH1 0x0 DUP4 ADD MSTORE PUSH2 0x89F1 DUP2 PUSH2 0x89B5 JUMP JUMPDEST SWAP1 POP SWAP2 SWAP1 POP JUMP JUMPDEST PUSH1 0x0 PUSH1 0x60 DUP3 ADD SWAP1 POP PUSH2 0x8A0D PUSH1 0x0 DUP4 ADD DUP7 PUSH2 0x6317 JUMP JUMPDEST PUSH2 0x8A1A PUSH1 0x20 DUP4 ADD DUP6 PUSH2 0x6317 JUMP JUMPDEST PUSH2 0x8A27 PUSH1 0x40 DUP4 ADD DUP5 PUSH2 0x6073 JUMP JUMPDEST SWAP5 SWAP4 POP POP POP POP JUMP JUMPDEST PUSH32 0x457865637574653A207472616E73666572206661696C65732120000000000000 PUSH1 0x0 DUP3 ADD MSTORE POP JUMP JUMPDEST PUSH1 0x0 PUSH2 0x8A65 PUSH1 0x1A DUP4 PUSH2 0x60A8 JUMP JUMPDEST SWAP2 POP PUSH2 0x8A70 DUP3 PUSH2 0x8A2F JUMP JUMPDEST PUSH1 0x20 DUP3 ADD SWAP1 POP SWAP2 SWAP1 POP JUMP JUMPDEST PUSH1 0x0 PUSH1 0x20 DUP3 ADD SWAP1 POP DUP2 DUP2 SUB PUSH1 0x0 DUP4 ADD MSTORE PUSH2 0x8A94 DUP2 PUSH2 0x8A58 JUMP JUMPDEST SWAP1 POP SWAP2 SWAP1 POP JUMP JUMPDEST PUSH1 0x0 PUSH2 0x8AA6 DUP3 PUSH2 0x6069 JUMP JUMPDEST SWAP2 POP PUSH32 0xFFFFFFFFFFFFFFFFFFFFFFFFFFFFFFFFFFFFFFFFFFFFFFFFFFFFFFFFFFFFFFFF DUP3 SUB PUSH2 0x8AD8 JUMPI PUSH2 0x8AD7 PUSH2 0x6C00 JUMP JUMPDEST JUMPDEST PUSH1 0x1 DUP3 ADD SWAP1 POP SWAP2 SWAP1 POP JUMP JUMPDEST PUSH32 0x457865637574653A20667265657A65206163636F756E74206661696C65640000 PUSH1 0x0 DUP3 ADD MSTORE POP JUMP JUMPDEST PUSH1 0x0 PUSH2 0x8B19 PUSH1 0x1E DUP4 PUSH2 0x60A8 JUMP JUMPDEST SWAP2 POP PUSH2 0x8B24 DUP3 PUSH2 0x8AE3 JUMP JUMPDEST PUSH1 0x20 DUP3 ADD SWAP1 POP SWAP2 SWAP1 POP JUMP JUMPDEST PUSH1 0x0 PUSH1 0x20 DUP3 ADD SWAP1 POP DUP2 DUP2 SUB PUSH1 0x0 DUP4 ADD MSTORE PUSH2 0x8B48 DUP2 PUSH2 0x8B0C JUMP JUMPDEST SWAP1 POP SWAP2 SWAP1 POP JUMP JUMPDEST PUSH32 0x457865637574653A20556E667265657A65206163636F756E74206661696C6564 PUSH1 0x0 DUP3 ADD MSTORE POP JUMP JUMPDEST PUSH1 0x0 PUSH2 0x8B85 PUSH1 0x20 DUP4 PUSH2 0x60A8 JUMP JUMPDEST SWAP2 POP PUSH2 0x8B90 DUP3 PUSH2 0x8B4F JUMP JUMPDEST PUSH1 0x20 DUP3 ADD SWAP1 POP SWAP2 SWAP1 POP JUMP JUMPDEST PUSH1 0x0 PUSH1 0x20 DUP3 ADD SWAP1 POP DUP2 DUP2 SUB PUSH1 0x0 DUP4 ADD MSTORE PUSH2 0x8BB4 DUP2 PUSH2 0x8B78 JUMP JUMPDEST SWAP1 POP SWAP2 SWAP1 POP JUMP JUMPDEST PUSH1 0x0 DUP2 SWAP1 POP DUP2 PUSH1 0x0 MSTORE PUSH1 0x20 PUSH1 0x0 KECCAK256 SWAP1 POP SWAP2 SWAP1 POP JUMP JUMPDEST PUSH1 0x0 DUP2 SLOAD PUSH2 0x8BDD DUP2 PUSH2 0x6B06 JUMP JUMPDEST PUSH2 0x8BE7 DUP2 DUP7 PUSH2 0x75EC JUMP JUMPDEST SWAP5 POP PUSH1 0x1 DUP3 AND PUSH1 0x0 DUP2 EQ PUSH2 0x8C02 JUMPI PUSH1 0x1 DUP2 EQ PUSH2 0x8C13 JUMPI PUSH2 0x8C46 JUMP JUMPDEST PUSH1 0xFF NOT DUP4 AND DUP7 MSTORE DUP2 DUP7 ADD SWAP4 POP PUSH2 0x8C46 JUMP JUMPDEST PUSH2 0x8C1C DUP6 PUSH2 0x8BBB JUMP JUMPDEST PUSH1 0x0 JUMPDEST DUP4 DUP2 LT ISZERO PUSH2 0x8C3E JUMPI DUP2 SLOAD DUP2 DUP10 ADD MSTORE PUSH1 0x1 DUP3 ADD SWAP2 POP PUSH1 0x20 DUP2 ADD SWAP1 POP PUSH2 0x8C1F JUMP JUMPDEST DUP4 DUP9 ADD SWAP6 POP POP POP JUMPDEST POP POP POP SWAP3 SWAP2 POP POP JUMP JUMPDEST PUSH1 0x0 PUSH2 0x8C5B DUP3 DUP5 PUSH2 0x8BD0 JUMP JUMPDEST SWAP2 POP DUP2 SWAP1 POP SWAP3 SWAP2 POP POP JUMP JUMPDEST PUSH1 0x0 PUSH1 0xA0 DUP3 ADD SWAP1 POP PUSH2 0x8C7B PUSH1 0x0 DUP4 ADD DUP9 PUSH2 0x63A4 JUMP JUMPDEST PUSH2 0x8C88 PUSH1 0x20 DUP4 ADD DUP8 PUSH2 0x63A4 JUMP JUMPDEST PUSH2 0x8C95 PUSH1 0x40 DUP4 ADD DUP7 PUSH2 0x63A4 JUMP JUMPDEST PUSH2 0x8CA2 PUSH1 0x60 DUP4 ADD DUP6 PUSH2 0x6073 JUMP JUMPDEST PUSH2 0x8CAF PUSH1 0x80 DUP4 ADD DUP5 PUSH2 0x6317 JUMP JUMPDEST SWAP7 SWAP6 POP POP POP POP POP POP JUMP JUMPDEST PUSH32 0x1901000000000000000000000000000000000000000000000000000000000000 PUSH1 0x0 DUP3 ADD MSTORE POP JUMP JUMPDEST PUSH1 0x0 PUSH2 0x8CEF PUSH1 0x2 DUP4 PUSH2 0x75EC JUMP JUMPDEST SWAP2 POP PUSH2 0x8CFA DUP3 PUSH2 0x8CB9 JUMP JUMPDEST PUSH1 0x2 DUP3 ADD SWAP1 POP SWAP2 SWAP1 POP JUMP JUMPDEST PUSH1 0x0 DUP2 SWAP1 POP SWAP2 SWAP1 POP JUMP JUMPDEST PUSH2 0x8D20 PUSH2 0x8D1B DUP3 PUSH2 0x6341 JUMP JUMPDEST PUSH2 0x8D05 JUMP JUMPDEST DUP3 MSTORE POP POP JUMP JUMPDEST PUSH1 0x0 PUSH2 0x8D31 DUP3 PUSH2 0x8CE2 JUMP JUMPDEST SWAP2 POP PUSH2 0x8D3D DUP3 DUP6 PUSH2 0x8D0F JUMP JUMPDEST PUSH1 0x20 DUP3 ADD SWAP2 POP PUSH2 0x8D4D DUP3 DUP5 PUSH2 0x8D0F JUMP JUMPDEST PUSH1 0x20 DUP3 ADD SWAP2 POP DUP2 SWAP1 POP SWAP4 SWAP3 POP POP POP JUMP JUMPDEST PUSH1 0x0 PUSH1 0x80 DUP3 ADD SWAP1 POP PUSH2 0x8D72 PUSH1 0x0 DUP4 ADD DUP8 PUSH2 0x63A4 JUMP JUMPDEST PUSH2 0x8D7F PUSH1 0x20 DUP4 ADD DUP7 PUSH2 0x6B44 JUMP JUMPDEST PUSH2 0x8D8C PUSH1 0x40 DUP4 ADD DUP6 PUSH2 0x63A4 JUMP JUMPDEST PUSH2 0x8D99 PUSH1 0x60 DUP4 ADD DUP5 PUSH2 0x63A4 JUMP JUMPDEST SWAP6 SWAP5 POP POP POP POP POP JUMP JUMPDEST PUSH1 0x0 PUSH2 0x8DAD DUP3 PUSH2 0x6069 JUMP JUMPDEST SWAP2 POP PUSH2 0x8DB8 DUP4 PUSH2 0x6069 JUMP JUMPDEST SWAP3 POP DUP3 PUSH32 0xFFFFFFFFFFFFFFFFFFFFFFFFFFFFFFFFFFFFFFFFFFFFFFFFFFFFFFFFFFFFFFFF SUB DUP3 GT ISZERO PUSH2 0x8DED JUMPI PUSH2 0x8DEC PUSH2 0x6C00 JUMP JUMPDEST JUMPDEST DUP3 DUP3 ADD SWAP1 POP SWAP3 SWAP2 POP POP JUMP JUMPDEST PUSH32 0x4E487B7100000000000000000000000000000000000000000000000000000000 PUSH1 0x0 MSTORE PUSH1 0x32 PUSH1 0x4 MSTORE PUSH1 0x24 PUSH1 0x0 REVERT JUMPDEST PUSH1 0x0 PUSH2 0x8E32 DUP3 PUSH2 0x6069 JUMP JUMPDEST SWAP2 POP PUSH1 0x0 DUP3 SUB PUSH2 0x8E45 JUMPI PUSH2 0x8E44 PUSH2 0x6C00 JUMP JUMPDEST JUMPDEST PUSH1 0x1 DUP3 SUB SWAP1 POP SWAP2 SWAP1 POP JUMP JUMPDEST PUSH32 0x537472696E67733A20686578206C656E67746820696E73756666696369656E74 PUSH1 0x0 DUP3 ADD MSTORE POP JUMP JUMPDEST PUSH1 0x0 PUSH2 0x8E86 PUSH1 0x20 DUP4 PUSH2 0x60A8 JUMP JUMPDEST SWAP2 POP PUSH2 0x8E91 DUP3 PUSH2 0x8E50 JUMP JUMPDEST PUSH1 0x20 DUP3 ADD SWAP1 POP SWAP2 SWAP1 POP JUMP JUMPDEST PUSH1 0x0 PUSH1 0x20 DUP3 ADD SWAP1 POP DUP2 DUP2 SUB PUSH1 0x0 DUP4 ADD MSTORE PUSH2 0x8EB5 DUP2 PUSH2 0x8E79 JUMP JUMPDEST SWAP1 POP SWAP2 SWAP1 POP JUMP JUMPDEST PUSH32 0x416464726573733A2064656C65676174652063616C6C20746F206E6F6E2D636F PUSH1 0x0 DUP3 ADD MSTORE PUSH32 0x6E74726163740000000000000000000000000000000000000000000000000000 PUSH1 0x20 DUP3 ADD MSTORE POP JUMP JUMPDEST PUSH1 0x0 PUSH2 0x8F18 PUSH1 0x26 DUP4 PUSH2 0x60A8 JUMP JUMPDEST SWAP2 POP PUSH2 0x8F23 DUP3 PUSH2 0x8EBC JUMP JUMPDEST PUSH1 0x40 DUP3 ADD SWAP1 POP SWAP2 SWAP1 POP JUMP JUMPDEST PUSH1 0x0 PUSH1 0x20 DUP3 ADD SWAP1 POP DUP2 DUP2 SUB PUSH1 0x0 DUP4 ADD MSTORE PUSH2 0x8F47 DUP2 PUSH2 0x8F0B JUMP JUMPDEST SWAP1 POP SWAP2 SWAP1 POP JUMP JUMPDEST PUSH1 0x0 PUSH1 0x80 DUP3 ADD SWAP1 POP DUP2 DUP2 SUB PUSH1 0x0 DUP4 ADD MSTORE PUSH2 0x8F68 DUP2 DUP8 PUSH2 0x60FD JUMP JUMPDEST SWAP1 POP PUSH2 0x8F77 PUSH1 0x20 DUP4 ADD DUP7 PUSH2 0x6317 JUMP JUMPDEST PUSH2 0x8F84 PUSH1 0x40 DUP4 ADD DUP6 PUSH2 0x6317 JUMP JUMPDEST PUSH2 0x8F91 PUSH1 0x60 DUP4 ADD DUP5 PUSH2 0x6073 JUMP JUMPDEST SWAP6 SWAP5 POP POP POP POP POP JUMP JUMPDEST PUSH1 0x0 PUSH1 0x60 DUP3 ADD SWAP1 POP DUP2 DUP2 SUB PUSH1 0x0 DUP4 ADD MSTORE PUSH2 0x8FB4 DUP2 DUP7 PUSH2 0x60FD JUMP JUMPDEST SWAP1 POP PUSH2 0x8FC3 PUSH1 0x20 DUP4 ADD DUP6 PUSH2 0x6073 JUMP JUMPDEST PUSH2 0x8FD0 PUSH1 0x40 DUP4 ADD DUP5 PUSH2 0x6073 JUMP JUMPDEST SWAP5 SWAP4 POP POP POP POP JUMP JUMPDEST PUSH1 0x0 PUSH1 0x40 DUP3 ADD SWAP1 POP DUP2 DUP2 SUB PUSH1 0x0 DUP4 ADD MSTORE PUSH2 0x8FF2 DUP2 DUP6 PUSH2 0x60FD JUMP JUMPDEST SWAP1 POP PUSH2 0x9001 PUSH1 0x20 DUP4 ADD DUP5 PUSH2 0x6317 JUMP JUMPDEST SWAP4 SWAP3 POP POP POP JUMP INVALID PUSH6 0x786973742074 PUSH19 0x616E7366657220253520636F6D6D697373696F PUSH15 0x202E202E202E20416464726573733A KECCAK256 PUSH13 0x6F772D6C6576656C2064656C65 PUSH8 0x6174652063616C6C KECCAK256 PUSH7 0x61696C65647265 PUSH20 0x657276656420616464726573733A2025732C2072 PUSH6 0x636569766572 KECCAK256 PUSH2 0x6464 PUSH19 0x6573733A2025732C20616D6F756E743A202573 PUSH6 0x786973742074 PUSH19 0x616E7366657220746F6B656E4F666673657220 0x2E KECCAK256 0x2E KECCAK256 0x2E KECCAK256 PUSH6 0x786973742074 PUSH19 0x616E736665722025312070726F706F73657220 0x2E KECCAK256 0x2E KECCAK256 0x2E KECCAK256 LOG2 PUSH5 0x6970667358 0x22 SLT KECCAK256 0xC6 SHR PUSH14 0xD8CDD5610E0C21112BC4370E82C6 0xC8 DIV PUSH14 0xABC3DB7B5AD94A58E31A8E9D6473 PUSH16 0x6C634300080E00330000000000000000 "
    },
    "gasEstimates": {
      "creation": {
        "codeDepositCost": "7424000",
        "executionCost": "infinite",
        "totalCost": "infinite"
      },
      "external": {
        "ADMIN_ROLE()": "397",
        "CONSENSUS_ROLE()": "439",
        "DEFAULT_ADMIN_ROLE()": "402",
        "FREEZE_ACCOUNT_SIGNATURE()": "468",
        "TRANSFER_SIGNATURE()": "468",
        "UNFREEZE_ACCOUNT_SIGNATURE()": "402",
        "cancel(bytes32,string)": "infinite",
        "castVote(string,bytes32,uint8)": "infinite",
        "castVoteAdmin(bytes32)": "infinite",
        "commissionWallet()": "2559",
        "disableValidator(address)": "infinite",
        "execute(bytes32)": "infinite",
        "getRoleAdmin(bytes32)": "infinite",
        "grantRole(bytes32,address)": "infinite",
        "hasRole(bytes32,address)": "3274",
        "hasVoted(bytes32,address)": "infinite",
        "hashProposal(bytes32,bytes32,address,uint8,uint8,bytes)": "infinite",
        "initialize(string,string,address)": "infinite",
        "innTokenAddress()": "2602",
        "isAdminFirstVote()": "2566",
        "isMigrationEnabled()": "2589",
        "isStartup(address)": "5387",
        "isValidator(address)": "5386",
        "name()": "infinite",
        "oldVersion()": "2582",
        "oracle()": "2654",
        "propose((bytes32,uint8,uint8,string,bytes),bytes)": "infinite",
        "proxiableUUID()": "infinite",
        "renounceRole(bytes32,address)": "infinite",
        "reservedWallet()": "2603",
        "revokeRole(bytes32,address)": "infinite",
        "setMigration(bool)": "infinite",
        "setVotingDelay(uint256)": "infinite",
        "setVotingPeriod(uint256)": "infinite",
        "startupCount()": "2633",
        "state(bytes32)": "infinite",
        "supportsInterface(bytes4)": "774",
        "upgradeTo(address)": "infinite",
        "upgradeToAndCall(address,bytes)": "infinite",
        "validatorCount()": "2606",
        "version()": "infinite",
        "votingDelay()": "2563",
        "votingPeriod()": "2498"
      },
      "internal": {
        "_authorizeUpgrade(address)": "infinite",
        "_castVote(bytes32,address,enum IGovernorINN.VoteType,string memory)": "infinite",
        "_domainSeparatorV4()": "infinite",
        "_execute(struct IGovernorINNImplV2.ProposalCore storage pointer)": "infinite",
        "_freezeAccount(address)": "infinite",
        "_fullQuorum(bytes32)": "infinite",
        "_generateProposalCreationEvent(struct IGovernorINNImplV2.ProposalCore storage pointer)": "infinite",
        "_getMessageHash(bytes32,bytes32,address,enum IGovernorINN.ProposalType,enum IGovernorINN.ActionType,bytes memory)": "infinite",
        "_hashTypedDataV4(bytes32)": "infinite",
        "_quorumReached(bytes32)": "infinite",
        "_sendRewards(bytes32,uint256)": "infinite",
        "_transferCommission(address,uint256)": "infinite",
        "_transferToken(address,uint256)": "infinite",
        "_unfreezeAccount(address)": "infinite"
      }
    },
    "methodIdentifiers": {
      "ADMIN_ROLE()": "75b238fc",
      "CONSENSUS_ROLE()": "fa2dabad",
      "DEFAULT_ADMIN_ROLE()": "a217fddf",
      "FREEZE_ACCOUNT_SIGNATURE()": "afdf6710",
      "TRANSFER_SIGNATURE()": "e0310e52",
      "UNFREEZE_ACCOUNT_SIGNATURE()": "c0e6d5d6",
      "cancel(bytes32,string)": "b7d6fe24",
      "castVote(string,bytes32,uint8)": "a5d79624",
      "castVoteAdmin(bytes32)": "30d9b773",
      "commissionWallet()": "97c0262a",
      "disableValidator(address)": "1fe97684",
      "execute(bytes32)": "e751f271",
      "getRoleAdmin(bytes32)": "248a9ca3",
      "grantRole(bytes32,address)": "2f2ff15d",
      "hasRole(bytes32,address)": "91d14854",
      "hasVoted(bytes32,address)": "aadc3b72",
      "hashProposal(bytes32,bytes32,address,uint8,uint8,bytes)": "be5967ea",
      "initialize(string,string,address)": "077f224a",
      "innTokenAddress()": "f8c662ff",
      "isAdminFirstVote()": "41863ed6",
      "isMigrationEnabled()": "33f3533b",
      "isStartup(address)": "5ae766f3",
      "isValidator(address)": "facd743b",
      "name()": "06fdde03",
      "oldVersion()": "211dc1a7",
      "oracle()": "7dc0d1d0",
      "propose((bytes32,uint8,uint8,string,bytes),bytes)": "ff666653",
      "proxiableUUID()": "52d1902d",
      "renounceRole(bytes32,address)": "36568abe",
      "reservedWallet()": "c22ab4e0",
      "revokeRole(bytes32,address)": "d547741f",
      "setMigration(bool)": "7f1e250c",
      "setVotingDelay(uint256)": "70b0f660",
      "setVotingPeriod(uint256)": "ea0217cf",
      "startupCount()": "25ce7586",
      "state(bytes32)": "61d585da",
      "supportsInterface(bytes4)": "01ffc9a7",
      "upgradeTo(address)": "3659cfe6",
      "upgradeToAndCall(address,bytes)": "4f1ef286",
      "validatorCount()": "0f43a677",
      "version()": "54fd4d50",
      "votingDelay()": "3932abb1",
      "votingPeriod()": "02a251a3"
    }
  },
  "storageLayout": {
    "storage": [
      {
        "astId": 808,
        "contract": "src/contracts/test/IGovernorINNImplV2.sol:IGovernorINNImplV2",
        "label": "_initialized",
        "offset": 0,
        "slot": "0",
        "type": "t_uint8"
      },
      {
        "astId": 811,
        "contract": "src/contracts/test/IGovernorINNImplV2.sol:IGovernorINNImplV2",
        "label": "_initializing",
        "offset": 1,
        "slot": "0",
        "type": "t_bool"
      },
      {
        "astId": 790,
        "contract": "src/contracts/test/IGovernorINNImplV2.sol:IGovernorINNImplV2",
        "label": "__gap",
        "offset": 0,
        "slot": "1",
        "type": "t_array(t_uint256)50_storage"
      },
      {
        "astId": 1078,
        "contract": "src/contracts/test/IGovernorINNImplV2.sol:IGovernorINNImplV2",
        "label": "__gap",
        "offset": 0,
        "slot": "51",
        "type": "t_array(t_uint256)50_storage"
      },
      {
        "astId": 1363,
        "contract": "src/contracts/test/IGovernorINNImplV2.sol:IGovernorINNImplV2",
        "label": "__gap",
        "offset": 0,
        "slot": "101",
        "type": "t_array(t_uint256)50_storage"
      },
      {
        "astId": 2441,
        "contract": "src/contracts/test/IGovernorINNImplV2.sol:IGovernorINNImplV2",
        "label": "__gap",
        "offset": 0,
        "slot": "151",
        "type": "t_array(t_uint256)50_storage"
      },
      {
        "astId": 39,
        "contract": "src/contracts/test/IGovernorINNImplV2.sol:IGovernorINNImplV2",
        "label": "_roles",
        "offset": 0,
        "slot": "201",
        "type": "t_mapping(t_bytes32,t_struct(RoleData)34_storage)"
      },
      {
        "astId": 338,
        "contract": "src/contracts/test/IGovernorINNImplV2.sol:IGovernorINNImplV2",
        "label": "__gap",
        "offset": 0,
        "slot": "202",
        "type": "t_array(t_uint256)49_storage"
      },
      {
        "astId": 16090,
        "contract": "src/contracts/test/IGovernorINNImplV2.sol:IGovernorINNImplV2",
        "label": "_registry",
        "offset": 0,
        "slot": "251",
        "type": "t_mapping(t_address,t_struct(EntityInfo)16041_storage)"
      },
      {
        "astId": 16095,
        "contract": "src/contracts/test/IGovernorINNImplV2.sol:IGovernorINNImplV2",
        "label": "_proposalVotes",
        "offset": 0,
        "slot": "252",
        "type": "t_mapping(t_bytes32,t_struct(ProposalVote)16029_storage)"
      },
      {
        "astId": 16100,
        "contract": "src/contracts/test/IGovernorINNImplV2.sol:IGovernorINNImplV2",
        "label": "_proposals",
        "offset": 0,
        "slot": "253",
        "type": "t_mapping(t_bytes32,t_struct(ProposalCore)16019_storage)"
      },
      {
        "astId": 16102,
        "contract": "src/contracts/test/IGovernorINNImplV2.sol:IGovernorINNImplV2",
        "label": "votingDelay",
        "offset": 0,
        "slot": "254",
        "type": "t_uint256"
      },
      {
        "astId": 16104,
        "contract": "src/contracts/test/IGovernorINNImplV2.sol:IGovernorINNImplV2",
        "label": "votingPeriod",
        "offset": 0,
        "slot": "255",
        "type": "t_uint256"
      },
      {
        "astId": 16106,
        "contract": "src/contracts/test/IGovernorINNImplV2.sol:IGovernorINNImplV2",
        "label": "reservedWallet",
        "offset": 0,
        "slot": "256",
        "type": "t_address"
      },
      {
        "astId": 16108,
        "contract": "src/contracts/test/IGovernorINNImplV2.sol:IGovernorINNImplV2",
        "label": "commissionWallet",
        "offset": 0,
        "slot": "257",
        "type": "t_address"
      },
      {
        "astId": 16110,
        "contract": "src/contracts/test/IGovernorINNImplV2.sol:IGovernorINNImplV2",
        "label": "innTokenAddress",
        "offset": 0,
        "slot": "258",
        "type": "t_address"
      },
      {
        "astId": 16112,
        "contract": "src/contracts/test/IGovernorINNImplV2.sol:IGovernorINNImplV2",
        "label": "_domainName",
        "offset": 0,
        "slot": "259",
        "type": "t_string_storage"
      },
      {
        "astId": 16114,
        "contract": "src/contracts/test/IGovernorINNImplV2.sol:IGovernorINNImplV2",
        "label": "_domainVersion",
        "offset": 0,
        "slot": "260",
        "type": "t_string_storage"
      },
      {
        "astId": 16116,
        "contract": "src/contracts/test/IGovernorINNImplV2.sol:IGovernorINNImplV2",
        "label": "validatorCount",
        "offset": 0,
        "slot": "261",
        "type": "t_uint32"
      },
      {
        "astId": 16118,
        "contract": "src/contracts/test/IGovernorINNImplV2.sol:IGovernorINNImplV2",
        "label": "startupCount",
        "offset": 4,
        "slot": "261",
        "type": "t_uint32"
      },
      {
        "astId": 16120,
        "contract": "src/contracts/test/IGovernorINNImplV2.sol:IGovernorINNImplV2",
        "label": "isMigrationEnabled",
        "offset": 8,
        "slot": "261",
        "type": "t_bool"
      },
      {
        "astId": 16122,
        "contract": "src/contracts/test/IGovernorINNImplV2.sol:IGovernorINNImplV2",
        "label": "isAdminFirstVote",
        "offset": 9,
        "slot": "261",
        "type": "t_bool"
      },
      {
        "astId": 16124,
        "contract": "src/contracts/test/IGovernorINNImplV2.sol:IGovernorINNImplV2",
        "label": "oracle",
        "offset": 10,
        "slot": "261",
        "type": "t_address"
      },
      {
        "astId": 16126,
        "contract": "src/contracts/test/IGovernorINNImplV2.sol:IGovernorINNImplV2",
        "label": "oldVersion",
        "offset": 0,
        "slot": "262",
        "type": "t_address"
      }
    ],
    "types": {
      "t_address": {
        "encoding": "inplace",
        "label": "address",
        "numberOfBytes": "20"
      },
      "t_array(t_bytes32)dyn_storage": {
        "base": "t_bytes32",
        "encoding": "dynamic_array",
        "label": "bytes32[]",
        "numberOfBytes": "32"
      },
      "t_array(t_uint256)49_storage": {
        "base": "t_uint256",
        "encoding": "inplace",
        "label": "uint256[49]",
        "numberOfBytes": "1568"
      },
      "t_array(t_uint256)50_storage": {
        "base": "t_uint256",
        "encoding": "inplace",
        "label": "uint256[50]",
        "numberOfBytes": "1600"
      },
      "t_bool": {
        "encoding": "inplace",
        "label": "bool",
        "numberOfBytes": "1"
      },
      "t_bytes32": {
        "encoding": "inplace",
        "label": "bytes32",
        "numberOfBytes": "32"
      },
      "t_bytes_storage": {
        "encoding": "bytes",
        "label": "bytes",
        "numberOfBytes": "32"
      },
      "t_enum(ActionType)13252": {
        "encoding": "inplace",
        "label": "enum IGovernorINN.ActionType",
        "numberOfBytes": "1"
      },
      "t_enum(EntityKind)16033": {
        "encoding": "inplace",
        "label": "enum IGovernorINNImplV2.EntityKind",
        "numberOfBytes": "1"
      },
      "t_enum(ProposalType)13246": {
        "encoding": "inplace",
        "label": "enum IGovernorINN.ProposalType",
        "numberOfBytes": "1"
      },
      "t_mapping(t_address,t_bool)": {
        "encoding": "mapping",
        "key": "t_address",
        "label": "mapping(address => bool)",
        "numberOfBytes": "32",
        "value": "t_bool"
      },
      "t_mapping(t_address,t_struct(EntityInfo)16041_storage)": {
        "encoding": "mapping",
        "key": "t_address",
        "label": "mapping(address => struct IGovernorINNImplV2.EntityInfo)",
        "numberOfBytes": "32",
        "value": "t_struct(EntityInfo)16041_storage"
      },
      "t_mapping(t_bytes32,t_struct(ProposalCore)16019_storage)": {
        "encoding": "mapping",
        "key": "t_bytes32",
        "label": "mapping(bytes32 => struct IGovernorINNImplV2.ProposalCore)",
        "numberOfBytes": "32",
        "value": "t_struct(ProposalCore)16019_storage"
      },
      "t_mapping(t_bytes32,t_struct(ProposalVote)16029_storage)": {
        "encoding": "mapping",
        "key": "t_bytes32",
        "label": "mapping(bytes32 => struct IGovernorINNImplV2.ProposalVote)",
        "numberOfBytes": "32",
        "value": "t_struct(ProposalVote)16029_storage"
      },
      "t_mapping(t_bytes32,t_struct(RoleData)34_storage)": {
        "encoding": "mapping",
        "key": "t_bytes32",
        "label": "mapping(bytes32 => struct AccessControlUpgradeable.RoleData)",
        "numberOfBytes": "32",
        "value": "t_struct(RoleData)34_storage"
      },
      "t_mapping(t_bytes32,t_uint256)": {
        "encoding": "mapping",
        "key": "t_bytes32",
        "label": "mapping(bytes32 => uint256)",
        "numberOfBytes": "32",
        "value": "t_uint256"
      },
      "t_string_storage": {
        "encoding": "bytes",
        "label": "string",
        "numberOfBytes": "32"
      },
      "t_struct(AddressSet)3495_storage": {
        "encoding": "inplace",
        "label": "struct EnumerableSetUpgradeable.AddressSet",
        "members": [
          {
            "astId": 3494,
            "contract": "src/contracts/test/IGovernorINNImplV2.sol:IGovernorINNImplV2",
            "label": "_inner",
            "offset": 0,
            "slot": "0",
            "type": "t_struct(Set)3194_storage"
          }
        ],
        "numberOfBytes": "64"
      },
      "t_struct(EntityInfo)16041_storage": {
        "encoding": "inplace",
        "label": "struct IGovernorINNImplV2.EntityInfo",
        "members": [
          {
            "astId": 16035,
            "contract": "src/contracts/test/IGovernorINNImplV2.sol:IGovernorINNImplV2",
            "label": "name",
            "offset": 0,
            "slot": "0",
            "type": "t_string_storage"
          },
          {
            "astId": 16038,
            "contract": "src/contracts/test/IGovernorINNImplV2.sol:IGovernorINNImplV2",
            "label": "kind",
            "offset": 0,
            "slot": "1",
            "type": "t_enum(EntityKind)16033"
          },
          {
            "astId": 16040,
            "contract": "src/contracts/test/IGovernorINNImplV2.sol:IGovernorINNImplV2",
            "label": "isEnabled",
            "offset": 1,
            "slot": "1",
            "type": "t_bool"
          }
        ],
        "numberOfBytes": "64"
      },
      "t_struct(ProposalCore)16019_storage": {
        "encoding": "inplace",
        "label": "struct IGovernorINNImplV2.ProposalCore",
        "members": [
          {
            "astId": 15994,
            "contract": "src/contracts/test/IGovernorINNImplV2.sol:IGovernorINNImplV2",
            "label": "proposalID",
            "offset": 0,
            "slot": "0",
            "type": "t_bytes32"
          },
          {
            "astId": 15996,
            "contract": "src/contracts/test/IGovernorINNImplV2.sol:IGovernorINNImplV2",
            "label": "offchainID",
            "offset": 0,
            "slot": "1",
            "type": "t_bytes32"
          },
          {
            "astId": 15998,
            "contract": "src/contracts/test/IGovernorINNImplV2.sol:IGovernorINNImplV2",
            "label": "descriptionHash",
            "offset": 0,
            "slot": "2",
            "type": "t_bytes32"
          },
          {
            "astId": 16000,
            "contract": "src/contracts/test/IGovernorINNImplV2.sol:IGovernorINNImplV2",
            "label": "proposer",
            "offset": 0,
            "slot": "3",
            "type": "t_address"
          },
          {
            "astId": 16003,
            "contract": "src/contracts/test/IGovernorINNImplV2.sol:IGovernorINNImplV2",
            "label": "votingStartAt",
            "offset": 0,
            "slot": "4",
            "type": "t_struct(Timestamp)1633_storage"
          },
          {
            "astId": 16006,
            "contract": "src/contracts/test/IGovernorINNImplV2.sol:IGovernorINNImplV2",
            "label": "votingEndAt",
            "offset": 0,
            "slot": "5",
            "type": "t_struct(Timestamp)1633_storage"
          },
          {
            "astId": 16009,
            "contract": "src/contracts/test/IGovernorINNImplV2.sol:IGovernorINNImplV2",
            "label": "proposalType",
            "offset": 0,
            "slot": "6",
            "type": "t_enum(ProposalType)13246"
          },
          {
            "astId": 16012,
            "contract": "src/contracts/test/IGovernorINNImplV2.sol:IGovernorINNImplV2",
            "label": "actionType",
            "offset": 1,
            "slot": "6",
            "type": "t_enum(ActionType)13252"
          },
          {
            "astId": 16014,
            "contract": "src/contracts/test/IGovernorINNImplV2.sol:IGovernorINNImplV2",
            "label": "isExecuted",
            "offset": 2,
            "slot": "6",
            "type": "t_bool"
          },
          {
            "astId": 16016,
            "contract": "src/contracts/test/IGovernorINNImplV2.sol:IGovernorINNImplV2",
            "label": "isCanceled",
            "offset": 3,
            "slot": "6",
            "type": "t_bool"
          },
          {
            "astId": 16018,
            "contract": "src/contracts/test/IGovernorINNImplV2.sol:IGovernorINNImplV2",
            "label": "data",
            "offset": 0,
            "slot": "7",
            "type": "t_bytes_storage"
          }
        ],
        "numberOfBytes": "256"
      },
      "t_struct(ProposalVote)16029_storage": {
        "encoding": "inplace",
        "label": "struct IGovernorINNImplV2.ProposalVote",
        "members": [
          {
            "astId": 16021,
            "contract": "src/contracts/test/IGovernorINNImplV2.sol:IGovernorINNImplV2",
            "label": "againstVotes",
            "offset": 0,
            "slot": "0",
            "type": "t_uint64"
          },
          {
            "astId": 16023,
            "contract": "src/contracts/test/IGovernorINNImplV2.sol:IGovernorINNImplV2",
            "label": "forVotes",
            "offset": 8,
            "slot": "0",
            "type": "t_uint64"
          },
          {
            "astId": 16025,
            "contract": "src/contracts/test/IGovernorINNImplV2.sol:IGovernorINNImplV2",
            "label": "abstainVotes",
            "offset": 16,
            "slot": "0",
            "type": "t_uint64"
          },
          {
            "astId": 16028,
            "contract": "src/contracts/test/IGovernorINNImplV2.sol:IGovernorINNImplV2",
            "label": "hasVoted",
            "offset": 0,
            "slot": "1",
            "type": "t_struct(AddressSet)3495_storage"
          }
        ],
        "numberOfBytes": "96"
      },
      "t_struct(RoleData)34_storage": {
        "encoding": "inplace",
        "label": "struct AccessControlUpgradeable.RoleData",
        "members": [
          {
            "astId": 31,
            "contract": "src/contracts/test/IGovernorINNImplV2.sol:IGovernorINNImplV2",
            "label": "members",
            "offset": 0,
            "slot": "0",
            "type": "t_mapping(t_address,t_bool)"
          },
          {
            "astId": 33,
            "contract": "src/contracts/test/IGovernorINNImplV2.sol:IGovernorINNImplV2",
            "label": "adminRole",
            "offset": 0,
            "slot": "1",
            "type": "t_bytes32"
          }
        ],
        "numberOfBytes": "64"
      },
      "t_struct(Set)3194_storage": {
        "encoding": "inplace",
        "label": "struct EnumerableSetUpgradeable.Set",
        "members": [
          {
            "astId": 3189,
            "contract": "src/contracts/test/IGovernorINNImplV2.sol:IGovernorINNImplV2",
            "label": "_values",
            "offset": 0,
            "slot": "0",
            "type": "t_array(t_bytes32)dyn_storage"
          },
          {
            "astId": 3193,
            "contract": "src/contracts/test/IGovernorINNImplV2.sol:IGovernorINNImplV2",
            "label": "_indexes",
            "offset": 0,
            "slot": "1",
            "type": "t_mapping(t_bytes32,t_uint256)"
          }
        ],
        "numberOfBytes": "64"
      },
      "t_struct(Timestamp)1633_storage": {
        "encoding": "inplace",
        "label": "struct TimersUpgradeable.Timestamp",
        "members": [
          {
            "astId": 1632,
            "contract": "src/contracts/test/IGovernorINNImplV2.sol:IGovernorINNImplV2",
            "label": "_deadline",
            "offset": 0,
            "slot": "0",
            "type": "t_uint64"
          }
        ],
        "numberOfBytes": "32"
      },
      "t_uint256": {
        "encoding": "inplace",
        "label": "uint256",
        "numberOfBytes": "32"
      },
      "t_uint32": {
        "encoding": "inplace",
        "label": "uint32",
        "numberOfBytes": "4"
      },
      "t_uint64": {
        "encoding": "inplace",
        "label": "uint64",
        "numberOfBytes": "8"
      },
      "t_uint8": {
        "encoding": "inplace",
        "label": "uint8",
        "numberOfBytes": "1"
      }
    }
  },
  "userdoc": {
    "kind": "user",
    "methods": {},
    "version": 1
  }
}